FHDNNNN012003444003444003444N                                                                                           010415
RHD08562200NN03240324000003240000000003240324000442YY032403240324000500010000000000000000000002    07282015NY020000 I         
CUS0856220000108024716006         WALGREEN CO         6323 BALTIMORE NATL PIKE                000N        CARE OF             
MTR08562200001000000000000000RA              14929657    005800010000000100000310000003NN  NNW 000                       N    
RDG08562200WATRL000000004K00000000000000513004308062015084115N000000000000N85       005240400K 10000000010000000513           
CUS0856220000108024721006         SAHI PETROLEUM MARKE10 LINCOLN AVE                          000N        CARE OF             
MTR08562200001000000000000000RA              01085127    005800020000000200000610000003NN  NNW 000                       N    
RDG08562200WATRL000000004K00000000000001573000108062015072632N000000000000N85       000000400K 10000000010000001563           
CUS0856220000108024723002         HOOD LINDA          6 LINCOLN AVE                           000N        CARE OF             
MTR08562200001000000000000000RA              01070454    005800030000000300000610000003NN  NNW 000                       N    
RDG08562200WATRL000000004K00000000000000939000208062015072814N000000000000N85       001020400K 10000000010000000928           
CUS0856220000108024724000         HOOD LINDA          4 LINCOLN AVE                           000N        CARE OF             
MTR08562200001000000000000000RA              00000000    005800040000000400000600000003NY  NNW 000                       N    
MTM0856220000000000    NOMETER                                                                                                
RDG08562200WATRL000000004K00000000000000000000000000000000000 000000000000U         000000400  10000000010000000065           
CUS0856220000108024725007         MALINOWSKI ANTHONY S2 LINCOLN AVE                           000N        CARE OF             
MTR08562200001000000000000000RA              01070457    005800050000000500000610000003NN  NNW 000                       N    
RDG08562200WATRL000000004K00000000000000950000308062015072919N000000000000N85       000650400K 10000000010000000939           
CUS0856220000108436475001         LUCAS VANESSA WARD  5922 OLD FREDERICK RD                   000N        CARE OF             
MTR08562200001000000000000000RA              01115259    005800060000000600000610000003NN  NNW 000                       N    
RDG08562200WATRL000000004K00000000000001213001008062015074516N000000000000N85       005120400K 10000000010000001188           
CUS0856220000108024726005         SMITH WILLIAM A     5926 OLD FREDERICK RD                   000N        CARE OF             
MTR08562200001000000000000000RA              48589571    005800070000000700000520000003NN  NNW 000                       N    
RDG08562200WATRL000000004K00000000000000855001108062015074536N000000000000N85       000200400K 10000000010000000855           
CUS0856220000108436474004         BALOD MONICA ANNE G 5928 OLD FREDERICK RD                   000N        CARE OF             
MTR08562200001000000000000000RA              01115258    005800080000000800000610000003NN  NNW 000                       N    
RDG08562200WATRL000000004K00000000000000545001208062015074559N000000000000N85       000230400K 10000000010000000524           
CUS0856220000108024727003         MATTHEW G WALTON    5930 OLD FREDERICK RD                   000N        CARE OF             
MTR08562200001000000000000000RA              40781872    005800090000000900000520000003NN  NNW 000                       N    
RDG08562200WATRL000000004K00000000000000966001308062015074626N000000000000N85       000270400K 10000000010000000947           
CUS0856220000108024728001         HEBRON CYNTHIA L    5932 OLD FREDERICK RD                   000N        CARE OF             
MTR08562200001000000000000000RA              01084420    005800100000001000000610000003NN  NNW 000                       N    
RDG08562200WATRL000000004K00000000000001470001408062015074644N000000000000N85       000180400K 10000000010000001449           
CUS0856220000108024729009         GUNDY LESLIE W,JR   5934 OLD FREDERICK RD                   000N        CARE OF             
MTR08562200001000000000000000RA              48594179    005800110000001100000520000003NN  NNW 000                       N    
RDG08562200WATRL000000004K00000000000002387001508062015074709N000400000010N85       000250400K 10000000010000002379           
CUS0856220000108024730007         RYAN HAYES  RYAN VIR5935 OLD FREDERICK RD                   000N        CARE OF             
MTR08562200001000000000000000RA              40781797    005800120000001200000520000003NN  NNW 000                       N    
RDG08562200WATRL000000004K00000000000001462001608062015074803N000000000000N85       000540400K 10000000010000001462           
CUS0856220000108024731005         CUBA TODD Y         5933 OLD FREDERICK RD                   000N        CARE OF             
MTR08562200001000000000000000RA              46883012    005800130000001300000520000003NN  NNW 000                       N    
RDG08562200WATRL000000004K00000000000002200001708062015074900N000000000001N85       000570400K 10000000010000002171           
CUS0856220000108024732003         JACQUELINE PERKINS  5931 OLD FREDERICK RD                   000N        CARE OF             
MTR08562200001000000000000000RA              40781821    005800140000001400000520000003NN  NNW 000                       N    
RDG08562200WATRL000000004K00000000000005900001808062015074922N000000000000N85       000220400K 10000000010000005869           
CUS0856220000108024733001         CASSELL IRMA B, TRUS5919 OLD FREDERICK RD                   000N        CARE OF             
MTR08562200001000000000000000RA              01070463    005800150000001500000610000003NN  NNW 000                       N    
RDG08562200WATRL000000004K00000000000000481001908062015074956N000000000000N85       000340400K 10000000010000000451           
CUS0856220000108024734009         SOLIS JOSE C        5917 OLD FREDERICK RD                   000N        CARE OF             
MTR08562200001000000000000000RA              44092520    005800160000001600000520000003NN  NNW 000                       N    
RDG08562200WATRL000000004K00000000000004766002008062015075019N000000000000N85       000230400K 10000000010000004693           
CUS0856220000108024735006         PENNINGTON JAMES R  5915 OLD FREDERICK RD                   000N        CARE OF             
MTR08562200001000000000000000RA              01070461    005800170000001700000610000003NN  NNW 000                       N    
RDG08562200WATRL000000004K00000000000002847002108062015075057N000000000000N85       000380400K 10000000010000002819           
CUS0856220000108024736004         COE EDWARD L        5911 OLD FREDERICK RD                   000N        CARE OF             
MTR08562200001000000000000000RA              35106411    005800180000001800000520000003NN  NNW 000                       N    
RDG08562200WATRL000000004K00000000000002523002208062015075238N000000000000N85       001010400K 10000000010000002447           
CUS0856220000108024737002         STANFORD GARY W,SR  5909 OLD FREDERICK RD                   000N        CARE OF             
MTR08562200001000000000000000RA              24232468    005800190000001900000520000003NN  NNW 000                       N    
RDG08562200WATRL000000004K00000000000003486002308062015075344N000000000000N85       000660400K 10000000010000003472           
CUS0856220000108024738000         GHOLSTON CALVIN WILL5907 OLD FREDERICK RD                   000N        CARE OF             
MTR08562200001000000000000000RA              22609532    005800200000002000000520000003NN  NNW 000                       N    
RDG08562200WATRL000000004K00000000000007535002408062015080109N000000000000N85       004450400K 10000000010000007516           
CUS0856220000108024739008         BAJGAI BALA R       5905 OLD FREDERICK RD                   000N        CARE OF             
MTR08562200001000000000000000RA              10014643    005800210000002100000570000003NN  NNW 000                       N    
RDG08562200WATRL000000004K00000000000000277002508062015080216N000000000000N85       000670400K 10000000010000000245           
CUS0856220000108024740006         WATKINS EDWINA A    5901 OLD FREDERICK RD                   000N        CARE OF             
MTR08562200001000000000000000RA              48593753    005800220000002200000520000003NN  NNW 000                       N    
RDG08562200WATRL000000004K00000000000001274002608062015080259N000000000000N85       000430400K 10000000010000001269           
CUS0856220000108024741004         SEEGOPAUL NAIPAUL   5898 OLD FREDERICK RD                   000N        CARE OF             
MTR08562200001000000000000000RA              01070451    005800230000002300000610000003NN  NNW 000                       N    
RDG08562200WATRL000000004K00000000000001016002708062015080410N000000000000N85       000710400K 10000000010000000984           
CUS0856220000108368508001         BETHEA KAREN S      2 WASHINGTON AVE                        000N        CARE OF             
MTR08562200001000000000000000RA              30526034    005800240000002400000520000003NN  NNW 000                       N    
RDG08562200WATRL000000004K00000000000002958002908062015080551N000000000000N85       000480400K 10000000010000002926           
CUS0856220000108024742002         HEBRON KELVIN T     5900 OLD FREDERICK RD                   000N        CARE OF             
MTR08562200001000000000000000RA              44172533    005800250000002500000520000003NN  NNW 000                       N    
RDG08562200WATRL000000004K00000000000001264002808062015080503N000000000000N85       000530400K 10000000010000001257           
CUS0856220000108024743000         GARRETT JOHN PHILIP 5904 OLD FREDERICK RD                   000N        CARE OF             
MTR08562200001000000000000000RA              99187466    005800260000002600000570000003NN  NNW 000                       N    
RDG08562200WATRL000000004K00000000000001043003108062015080933N000000000000N85       000770400K 10000000010000001039           
CUS0856220000108024744008         PHILIP NGUYEN       5906 OLD FREDERICK RD                   000N        CARE OF             
MTR08562200001000000000000000RA              25780229    005800270000002700000520000003NN  NNW 000                       N    
RDG08562200WATRL000000004K00000000000003512003008062015080816N000000000000N85       001450400K 10000000010000003487           
CUS0856220000108024745005         SCHNEIDER LAUREN    1 CARGIL AVE                            000N        CARE OF             
MTR08562200001000000000000000RA              14913875    005800280000002800000310000003NN  NNW 000                       N    
RDG08562200WATRL000000004K00000000000000712003408062015081308N000000000000N85       000560400K 10000000010000000702           
CUS0856220000108024746003         OMOTOSO DARE A      3 CARGIL AVE                            000N        CARE OF             
MTR08562200001000000000000000RA              27814209    005800290000002900000520000003NN  NNW 000                       N    
RDG08562200WATRL000000004K00000000000002637003208062015081059N000000000000N85       000860400K 10000000010000002608           
CUS0856220000108352657004         VAHDATSHOAR FARHAD  5 CARGIL AVE                            000N        CARE OF             
MTR08562200001000000000000000RA              27832276    005800300000003000000520000003NN  NNW 000                       N    
RDG08562200WATRL000000004K00000000000003662003308062015081212N000000000000N85       000730400K 10000000010000003648           
CUS0856220000108438667001         HARISHKUMAR P NAGAR 10 CARGIL AVE                           000N        CARE OF             
MTR08562200001000000000000000RA              14917847    005800310000003100000310000003NN  NNW 000                       N    
RDG08562200WATRL000000004K00000000000000431003508062015081349N000000000000N85       000410400K 10000000010000000412           
CUS0856220000108024747001         SIMMS AMOS E,JR     8 CARGIL AVE                            000N        CARE OF             
MTR08562200001000000000000000RA              01070453    005800320000003200000610000003NN  NNW 000                       N    
RDG08562200WATRL000000004K00000000000000487003608062015081444N000000000000N85       000550400K 10000000010000000482           
CUS0856220000108024748009         ANDINO OLGA M       4 CARGIL AVE                            000N        CARE OF             
MTR08562200001000000000000000RA              01070458    005800330000003300000610000003NN  NNW 000                       N    
RDG08562200WATRL000000004K00000000000001382003708062015081552N000000000000N85       000680400K 10000000010000001366           
CUS0856220000108024749007         BORDEN ALFRED WILLIA2 CARGIL AVE                            000N        CARE OF             
MTR08562200001000000000000000RA              14920344    005800340000003400000310000003NN  NNW 000                       N    
RDG08562200WATRL000000004K00000000000000681003808062015081637N000000000000N85       000450400K 10000000010000000657           
CUS0856220000108024750005         QUARLES JOHN WESLEY 5910 OLD FREDERICK RD                   000N        CARE OF             
MTR08562200001000000000000000RA              10007034    005800350000003500000570000003NN  NNW 000                       N    
RDG08562200WATRL000000004K00000000000000110003908062015081713N000000000000N85       000360400K 10000000010000000107           
CUS0856220000108024751003         WILLIAMS MARY B     5914 OLD FREDERICK RD                   000N        CARE OF             
MTR08562200001000000000000000RA              27816809    005800360000003600000520000003NN  NNW 000                       N    
RDG08562200WATRL000000004K00000000000001926004008062015082945N000000000010N85       007520400K 10000000010000001925           
CUS0856220000108024752001         IMONTI RAYMOND J    5916 OLD FREDERICK RD                   000N        CARE OF             
MTR08562200001000000000000000RA              19466855    005800370000003700000520000003NN  NNW 000                       N    
RDG08562200WATRL000000004K00000000000003817004108062015083056N000000000000N85       000710400K 10000000010000003808           
CUS0856220000108024753009         THURASINGHAM JAYASIN5920 OLD FREDERICK RD                   000N        CARE OF             
MTR08562200001000000000000000RA              14924447    005800380000003800000310000003NN  NNW 000                       N    
RDG08562200WATRL000000004K00000000000000462004208062015083231N000000000000N85       000950400K 10000000010000000432           
CUS0856220000108024754007         ANTHONY ABASE       1 LINCOLN AVE                           000N        CARE OF             
MTR08562200001000000000000000RA              01070459    005800390000003900000610000003NN  NNW 000                       N    
RDG08562200WATRL000000004K00000000000000887000708062015073350N000000000000N85       000220400K 10000000010000000866           
CUS0856220000108024755004         BLAGMON ATONEY/ATONE5 LINCOLN AVE                           000N        CARE OF             
MTR08562200001000000000000000RA              01070577    005800400000004000000610000003NN  NNW 000                       N    
RDG08562200WATRL000000004K00000000000000739000508062015073246N000000000000N85       000650400K 10000000010000000724           
CUS0856220000108024756002         BLAGMON FRED O      7 LINCOLN AVE                           000N        CARE OF             
MTR08562200001000000000000000RA              25781330    005800410000004100000520000003NN  NNW 000                       N    
RDG08562200WATRL000000004K00000000000001339000608062015073328N000000000000N85       000420400K 10000000010000001333           
CUS0856220000108024757000         SOUTHARD DERRICK    9 LINCOLN AVE                           000N        CARE OF             
MTR08562200001000000000000000RA              44090979    005800420000004200000520000003NN  NNW 000                       N    
RDG08562200WATRL000000004K00000000000003609000808062015073514N000000000000N85       000840400K 10000000010000003421           
CUS0856220000108024758008         DAWN J CONNELY      11 LINCOLN AVE                          000N        CARE OF             
MTR08562200001000000000000000RA              01070455    005800430000004300000610000003NN  NNW 000                       N    
RDG08562200WATRL000000004K00000000000000867000408062015073608N000000000001N85       000540400K 10000000010000000844           
CUS0856220000108024759006         NAIPAUL SEEGOPAUL   13 LINCOLN AVE                          000N        CARE OF             
MTR08562200001000000000000000RA              27819262    005800440000004400000520000003NN  NNW 000                       N    
RDG08562200WATRL000000004K00000000000001276000908062015073644N000000000000N85       000360400K 10000000010000001264           
CUS0856220000108440581000         JOY S PALLIKAL      15 LINCOLN AVE                          000N        CARE OF             
MTR08562200001000000000000000RA              14920360    005800450000004500000310000003NN  NNW 000                       N    
RDG08562200WATRL000000004K00000000000000718014608072015103742N000000000000U85       005650400K 10000000010000000661           
CUS0856220000108024760004         STATE OF MARYLAND ST5901 BALTIMORE NATL PIKE                000N        CARE OF             
MTR08562200001000000000000000RA              48589485    005800460000004600000520000003NN  NNW 000                       N    
RDG08562200WATRL000000004K00000000000001768004408062015084432N000000000000N85       001970400K 10000000010000001749           
CUS0856220000108401190007         HUNTER PAMELA       719 LAFAYETTE AVE                       000N        CARE OF             
MTR08562200001000000000000000RA              01102733    005800470000004700000610000003NN  NNW 000                       N    
RDG08562200WATRL000000004K00000000000001113005108062015090414N000000000000N85       001670400K 10000000010000001091           
CUS0856220000108024761002         SMITH KENRICK A     717 LAFAYETTE AVE                       000N        CARE OF             
MTR08562200001000000000000000RA              25781220    005800480000004800000520000003NN  NNW 000                       N    
RDG08562200WATRL000000004K00000000000002890005208062015090533N000300000010N85       000790400K 10000000010000002899           
CUS0856220000108024762000         PREVOSTO CANDACE BLA715 LAFAYETTE AVE                       000N        CARE OF             
MTR08562200001000000000000000RA              24765655    005800490000004900000520000003NN  NNW 000                       N    
RDG08562200WATRL000000004K00000000000002502005308062015090654N000000000000N85       000810400K 10000000010000002496           
CUS0856220000108373626004         SCHWARTZ STEVEN E   5745 CALVERTON ST                       000N        CARE OF             
MTR08562200001000000000000000RA              31584574    005800500000005000000520000003NN  NNW 000                       N    
RDG08562200WATRL000000004K00000000000002236005008062015090127N000000000000N85       000570400K 10000000010000002226           
CUS0856220000108024763008         ROBERTSON CHARLES E 5743 CALVERTON ST                       000N        CARE OF             
MTR08562200001000000000000000RA              24766025    005800510000005100000520000003NN  NNW 000                       N    
RDG08562200WATRL000000004K00000000000002094004908062015090030N000000000000N85       003030400K 10000000010000002086           
CUS0856220000108024765003         ZARUBA MOLLY ANNE   720 KENT AVE                            000N        CARE OF             
MTR08562200001000000000000000RA              14924452    005800520000005200000310000003NN  NNW 000                       N    
RDG08562200WATRL000000004K00000000000000640006408062015092339N000000000001N85       001140400K 10000000010000000614           
CUS0856220000108024766001         GARY JAMES DONALD   720 KENT AVE                            000N        CARE OF             
MTR08562200001000000000000000RA              24765547    005800530000005300000520000003NN  NNW 000                       N    
RDG08562200WATRL000000004K00000000000003719006308062015092145N000000000000N85       000530400K 10000000010000003709           
CUS0856220000108024764006         JOHNS PHILLIP W     722 KENT AVE                            000N        CARE OF             
MTR08562200001000000000000000RA              26015482    005800540000005400000520000003NN  NNW 000                       N    
RDG08562200WATRL000000004K00000000000003441006008062015091845N000000000000N85       000700400K 10000000010000003431           
CUS0856220000108352623006         FOLTZ PATRICIA ANN  716 KENT AVE                            000N        CARE OF             
MTR08562200001000000000000000RA              27828686    005800550000005500000520000003NN  NNW 000                       N    
RDG08562200WATRL000000004K00000000000003895005908062015091735N000000000000N85       001150400K 10000000010000003867           
CUS0856220000108024767009         LONGNECKER THOMAS E 714 KENT AVE                            000N        CARE OF             
MTR08562200001000000000000000RA              25782330    005800560000005600000520000003NN  NNW 000                       N    
RDG08562200WATRL000000004K00000000000002794005808062015091520N000000000000N85       000280400K 10000000010000002780           
CUS0856220000108024768007         HOLTZNER GEORGE E   712 KENT AVE                            000N        CARE OF             
MTR08562200001000000000000000RA              27813049    005800570000005700000520000003NN  NNW 000                       N    
RDG08562200WATRL000000004K00000000000005053005508062015091317N000000000000N85       001060400K 10000000010000005023           
CUS0856220000108373627002         ANDERSON NICOLE     711 KENT AVE                            000N        CARE OF             
MTR08562200001000000000000000RA              31584557    005800580000005800000520000003NN  NNW 000                       N    
RDG08562200WATRL000000004K00000000000009517005408062015091131N000000000000N85       002770400K 10000000010000009499           
CUS0856220000108024769005         MUSA AHMED K        715 KENT AVE                            000N        CARE OF             
MTR08562200001000000000000000RA              24766368    005800590000005900000520000003NN  NNW 000                       N    
RDG08562200WATRL000000004K00000000000003658005608062015091415N000000000010N85       000580400K 10000000010000003641           
CUS0856220000108352197001         MCGUIRE MICHAEL E   717 KENT AVE                            000N        CARE OF             
MTR08562200001000000000000000RA              26006466    005800600000006000000520000003NN  NNW 000                       N    
RDG08562200WATRL000000004K00000000000003287005708062015091540N000000000011N85       000200400K 10000000010000003268           
CUS0856220000108364060007         AL-HEDARI AHMED O   719 KENT AVE                            000N        CARE OF             
MTR08562200001000000000000000RA              30518943    005800610000006100000520000003NN  NNW 000                       N    
RDG08562200WATRL000000004K00000000000002564006108062015091932N000000000000N85       000470400K 10000000010000002553           
CUS0856220000108024770003         REMLEY KENNETH M    721 KENT AVE                            000N        CARE OF             
MTR08562200001000000000000000RA              24767207    005800620000006200000520000003NN  NNW 000                       N    
RDG08562200WATRL000000004K00000000000003706006208062015092052N000000000000N85       000800400K 10000000010000003706           
CUS0856220000108360220001         BOULTER JOHN S      5733 CALVERTON ST                       000N        CARE OF             
MTR08562200001000000000000000RA              29686523    005800630000006300000520000003NN  NNW 000                       N    
RDG08562200WATRL000000004K00000000000003795006508062015092804N000000000000N85       002650400K 10000000010000003779           
CUS0856220000108429947008         RICKY J LAMBERTH    5729 CALVERTON ST                       000N        CARE OF             
MTR08562200001000000000000000RA              99289754    005800640000006400000570000003NN  NNW 000                       N    
RDG08562200WATRL000000004K00000000000000901006708062015093020N000400000011N85       000660400K 10000000010000000891           
CUS0856220000108024771001         BESSLING BRYAN B    5725 CALVERTON ST                       000N        CARE OF             
MTR08562200001000000000000000RA              77989281    005800650000006500000350000003NN  NNW 000                       N    
RDG08562200WATRL000000004K00000000000000039007008062015093407N000000000000N85       001300400K 10000000010000000026           
CUS0856220000108024772009         SMITH CAROL LEE     722 DORCHESTER RD                       000N        CARE OF             
MTR08562200001000000000000000RA              01070456    005800660000006600000610000003NN  NNW 000                       N    
RDG08562200WATRL000000004K00000000000001098007108062015093716N000000000000N85       001890400K 10000000010000001070           
CUS0856220000108024773007         MCELGUNN ANGELA M   720 DORCHESTER RD                       000N        CARE OF             
MTR08562200001000000000000000RA              10019474    005800670000006700000570000003NN  NNW 000                       N    
RDG08562200WATRL000000004K00000000000000001007208062015093751N000000000000N85       000350400K 10000000010000000001           
CUS0856220000108024774005         VIRGINIA M METCALF  712 DORCHESTER RD                       000N        CARE OF             
MTR08562200001000000000000000RA              24764826    005800680000006800000520000003NN  NNW 000                       N    
RDG08562200WATRL000000004K00000000000004721007308062015093828N000000000010N85       000370400K 10000000010000004720           
CUS0856220000108024775002         TASMAN ENTERPRISES L710 DORCHESTER RD                       000N        CARE OF             
MTR08562200001000000000000000RA              24766546    005800690000006900000520000003NY  NNW 000                       N    
MTM0856220024766546    BURIED                                                                                                 
RDG08562200WATRL000000004K00000000000000000000000000000000000 000000000000U         000000400  10000000010000003999           
CUS0856220000108381247009         DELAMATER GEORGE THO708 DORCHESTER RD                       000N        CARE OF             
MTR08562200001000000000000000RA              33735393    005800700000007000000520000003NN  NNW 000                       N    
RDG08562200WATRL000000004K00000000000005155007408062015094028N000000000000N85       001200400K 10000000010000005114           
CUS0856220000108380126006         BRIAN S LEISHEAR    700 DORCHESTER RD                       000N        CARE OF             
MTR08562200001000000000000000RA              33732968    005800710000007100000520000003NN  NNW 000                       N    
RDG08562200WATRL000000004K00000000000002545007508062015094108N000000000000N85       000400400K 10000000010000002536           
CUS0856220000108024776000         GONZALEZ JORGE A    701 DORCHESTER RD                       000N        CARE OF             
MTR08562200001000000000000000RA              24766549    005800720000007200000520000003NN  NNW 000                       N    
RDG08562200WATRL000000004K00000000000003967007608062015094200N000000000000N85       000520400K 10000000010000003906           
CUS0856220000108024777008         ROBERTS ANTHONY P   703 DORCHESTER RD                       000N        CARE OF             
MTR08562200001000000000000000RA              26000803    005800730000007300000520000003NN  NNW 000                       N    
RDG08562200WATRL000000004K00000000000003927007708062015094300N000000000000N85       000600400K 10000000010000003893           
CUS0856220000108352642006         BOST TYRONE W       705 DORCHESTER RD                       000N        CARE OF             
MTR08562200001000000000000000RA              01087983    005800740000007400000610000003NN  NNW 000                       N    
RDG08562200WATRL000000004K00000000000001270007808062015094332N000000000000N85       000320400K 10000000010000001214           
CUS0856220000108373605008         MCCOY DWAYNE R      707 DORCHESTER RD                       000N        CARE OF             
MTR08562200001000000000000000RA              10010479    005800750000007500000570000003NN  NNW 000                       N    
RDG08562200WATRL000000004K00000000000000587007908062015094404N000000000000N85       000320400K 10000000010000000562           
CUS0856220000108380127004         ASIA SUPERMARKET MD 709 DORCHESTER RD                       000N        CARE OF             
MTR08562200001000000000000000RA              33732971    005800760000007600000520000003NN  NNW 000                       N    
RDG08562200WATRL000000004K00000000000006939008008062015094451N000000000000N85       000470400K 10000000010000006908           
CUS0856220000108024778006         KAZLAUSKAS JULIE    719 DORCHESTER RD                       000N        CARE OF             
MTR08562200001000000000000000RA              26005231    005800770000007700000520000003NN  NNW 000                       N    
RDG08562200WATRL000000004K00000000000002909008108062015094553N000000000000N85       000620400K 10000000010000002880           
CUS0856220000108024779004         MCMATH DAVID        721 DORCHESTER RD                       000N        CARE OF             
MTR08562200001000000000000000RA              24766108    005800780000007800000520000003NN  NNW 000                       N    
RDG08562200WATRL000000004K00000000000002248008208062015094653N000000000010N85       000600400K 10000000010000002247           
CUS0856220000108428003001         NGUYEN KHOA DANG    723 DORCHESTER RD                       000N        CARE OF             
MTR08562200001000000000000000RA              99187461    005800790000007900000570000000NN  NNW 000                       N    
RDG08562200WATRL000000004K00000000000001031008308062015094724N000000000000N85       000310400K 10000000010000001007           
CUS0856220000108407903007         PATEL YESWANT       5723 CALVERTON ST                       000N        CARE OF             
MTR08562200001000000000000000RA              45373001    005800800000008000000520000003NN  NNW 000                       N    
RDG08562200WATRL000000004K00000000000001842008408062015095016N000300000010N85       001720400K 10000000010000001765           
CUS0856220000108407837007         MALIK HAJI Z        5721 CALVERTON ST                       000N        CARE OF             
MTR08562200001000000000000000RA              77883531    005800810000008100000360000003NN  NNW 000                       N    
RDG08562200WATRL000000004K00000000000000019008508062015095059N000000000010N85       000430400K 10000000010000000000           
CUS0856220000108406688005         DAVE SANGITA PARYANK5719 CALVERTON ST                       000N        CARE OF             
MTR08562200001000000000000000RA              44090322    005800820000008200000520000003NN  NNW 000                       N    
RDG08562200WATRL000000004K00000000000003297008608062015095149N000000000000N85       000500400K 10000000010000003289           
CUS0856220000108406689003         KHAN MUHAMMAD Z     5717 CALVERTON ST                       000N        CARE OF             
MTR08562200001000000000000000RA              44090324    005800830000008300000520000003NN  NNW 000                       N    
RDG08562200WATRL000000004K00000000000002927008708062015095212N000000000000N85       000230400K 10000000010000002885           
CUS0856220000108392540004         CALVERTON CONDOMINUM5707 CALVERTON ST                       000N        CARE OF             
MTR08562200001000000000000000RA              35101131    001500840000008400000520000003NN  NNW 000                       N    
RDG08562200WATRL000000005K00000000000012947010208062015102535N000000000000N85       000350500K 10000000010000012778           
CUS0856220000108391112003         THWEATT DINAH       5704 CALVERTON ST                       000N        CARE OF             
MTR08562200001000000000000000RA              36692634    005800850000008500000520000003NN  NNW 000                       N    
RDG08562200WATRL000000004K00000000000001535010108062015102500N000000000000N85       000540400K 10000000010000001529           
CUS0856220000108024780002         OWENBY DAVID N      5720 CALVERTON ST                       000N        CARE OF             
MTR08562200001000000000000000RA              24765857    005800860000008600000520000003NN  NNW 000                       N    
RDG08562200WATRL000000004K00000000000001935008908062015095459N000000000000N85       001010400K 10000000010000001927           
CUS0856220000108378909009         TSAMBIKOS HEATH B   5724 CALVERTON ST                       000N        CARE OF             
MTR08562200001000000000000000RA              48589484    005800870000008700000520000003NN  NNW 000                       N    
RDG08562200WATRL000000004K00000000000002112009008062015095732N000000000000N85       001530400K 10000000010000002082           
CUS0856220000108024782008         HUTH PHILIP WARFIELD821 KENT AVE                            000N        CARE OF             
MTR08562200001000000000000000RA              99188795    005800880000008800000570000003NN  NNW 000                       N    
RDG08562200WATRL000000004K00000000000001795004608062015084859N000400000010N85       000430400K 10000000010000001791           
CUS0856220000108431642001         PSA INSTITUTIONAL PA820 KENT AVE                            000N        CARE OF             
MTR08562200001000000000000000RA              99375937    007500890000008900000570000000NN  NNW 000                       N    
RDG08562200WATRL000000004K00000000000001223004508062015084816N000400000010N85       002240400K 10000000010000001210           
CUS0856220000108024783006         5719 BALTIMORE NATIOSEC KENT AV &                           000N        CARE OF             
MTR08562200001000000000000000RA              30528573    007500900000009000000520000003NN  NNW 000                       N    
RDG08562200WATRL000000004K00000000000003806004708062015085022N000000000000N85       000830400K 10000000010000003802           
CUS0856220000108024784004         MUSSELMANS DODGE    5717 BALTIMORE NATL PIKE                000N        CARE OF             
MTR08562200001000000000000000RA              36700040    001500910000009100000520000003NN  NNW 000                       N    
RDG08562200WATRL000000005K00000000000004777004808062015085527N000000000000N85       003050500K 10000000010000004701           
CUS0856220000108403559001         REED MARY JOANN     715 INGLESIDE AVE                       000N        CARE OF             
MTR08562200001000000000000000RA              41086353    005800920000009200000520000003NN  NNW 000                       N    
RDG08562200WATRL000000004K00000000000001796009108062015100018N000000000000N85       001660400K 10000000010000001788           
CUS0856220000108018562002         REED MARY JOANN     5702 CALVERTON ST                       000N        CARE OF             
MTR08562200001000000000000000RA              24232661    005800930000009300000520000003NN  NNW 000                       N    
RDG08562200WATRL000000004K00000000000004868010008062015102406N000000000000N85       006050400K 10000000010000004849           
CUS0856220000108445557005         NELSON FERMAN SANCHE1232 FRANCES PL                         000N        CARE OF             
MTR08562200001000000000000000RA              75618210    005800940000009400000350000003NN  NNW 000                       N    
RDG08562200WATRL000000004K00000000000000265009908062015101401N000000000000N85       000930400K 10000000010000000220           
CUS0856220000108445558003         RAMIZ SHAIKH        1234 FRANCES PL                         000N        CARE OF             
MTR08562200001000000000000000RA              76349277    005800950000009500000350000003NY  NNW 000                       N    
MTM0856220076349277    CLEANOUTVAULT                                                                                          
RDG08562200WATRL000000004K00000000000000000000000000000000000 000000000000U         000000400  10000000010000000008           
CUS0856220000108445559001         PRESIDENTIAL BANK FS1236 FRANCES PL                         000N        CARE OF             
MTR08562200001000000000000000RA              99999999    005800960000009600000440000003NY  NNW 000   VACANT / LOT        N    
MTM0856220099999999    VACANTLOT                                                                                              
RDG08562200WATRL000000004K00000000000000000009808062015101228S002000000000N85       001150400K 10000000010000000000           
CUS0856220000108445560009         AMIT S KHATRI       1238 FRANCES PL                         000N        CARE OF             
MTR08562200001000000000000000RA              75618267    005800970000009700000350000003NN  NNW 000                       N    
RDG08562200WATRL000000004K00000000000000166009708062015101033N000000000000N85       000580400K 10000000010000000127           
CUS0856220000108445561007         MEHER M NADEEM      1240 FRANCES PL                         000N        CARE OF             
MTR08562200001000000000000000RA              10020104    005800980000009800000570000003NN  NNW 000                       N    
RDG08562200WATRL000000004K00000000000000726009608062015100935N000000000000N85       000740400K 10000000010000000688           
CUS0856220000108445562005         VELMA A TABOADA     1242 FRANCES PL                         000N        CARE OF             
MTR08562200001000000000000000RA              10010755    005800990000009900000570000003NN  NNW 000                       N    
RDG08562200WATRL000000004K00000000000000536009508062015100731N000000000000N85       000130400K 10000000010000000512           
CUS0856220000108445563003         MARIANO R ST DOMINGO1244 FRANCES PL                         000N        CARE OF             
MTR08562200001000000000000000RA              10017965    005801000000010000000570000003NN  NNW 000                       N    
RDG08562200WATRL000000004K00000000000000456009408062015100718N000000000011N85       001410400K 10000000010000000427           
CUS0856220000108445564001         DIVYESH PATEL       1246 FRANCES PL                         000N        CARE OF             
MTR08562200001000000000000000RA              10015556    005801010000010100000570000003NN  NNW 000                       N    
RDG08562200WATRL000000004K00000000000000243009308062015100821N000000000011N85       000500400K 10000000010000000227           
CUS0856220000108018563000         HARTMAN JAMES E     5716 CALVERTON ST                       000N        CARE OF             
MTR08562200001000000000000000RA              29404283    005801020000010200000520000003NN  NNW 000                       N    
RDG08562200WATRL000000004K00000000000002958009208062015100125N000000000000N85       000670400K 10000000010000002958           
CUS0856220000108018564008         HARTMAN JAMES E     5718 CALVERTON ST                       000N        CARE OF             
MTR08562200001000000000000000RA              24767609    005801030000010300000520000003NN  NNW 000                       N    
RDG08562200WATRL000000004K00000000000004070008808062015095318N000000000000N85       000660400K 10000000010000004056           
CUS0856220000108018565005         HARTMAN LORETTA A   5732 CALVERTON ST                       000N        CARE OF             
MTR08562200001000000000000000RA              01070566    005801040000010400000610000003NN  NNW 000                       N    
RDG08562200WATRL000000004K00000000000000674006908062015093157N000400000010N85       000450400K 10000000010000000672           
CUS0856220000108402747003         REED PAULA M        5734 CALVERTON ST                       000N        CARE OF             
MTR08562200001000000000000000RA              41086483    005801050000010500000520000003NN  NNW 000                       N    
RDG08562200WATRL000000004K00000000000001942006808062015093112N000400000030N85       000520400K 10000000010000001940           
CUS0856220000108018566003         TADELU GASHU        5736 CALVERTON ST                       000N        CARE OF             
MTR08562200001000000000000000RA              27132431    005801060000010600000520000003NN  NNW 000                       N    
RDG08562200WATRL000000004K00000000000004113006608062015092914N000000000010N85       000700400K 10000000010000004112           
CUS0856220000108018567001         SHARON D STANTON    615 INGLESIDE AVE                       000N        CARE OF             
MTR08562200001000000000000000RA              01070567    005801070000010700000610000003NN  NNW 000                       N    
RDG08562200WATRL000000004K00000000000001484010308062015102747N000000000000N85       001320400K 10000000010000001455           
CUS0856220000108018568009         SHARON D STANTON    613 INGLESIDE AVE                       000N        CARE OF             
MTR08562200001000000000000000RA              22608403    005801080000010800000520000003NN  NNW 000                       N    
RDG08562200WATRL000000004K00000000000001119010408062015102835N000000000000N85       000480400K 10000000010000001119           
CUS0856220000108018569007         GRAHL CARRIE        611-1/2 INGLESIDE AVE                   000N        CARE OF             
MTR08562200001000000000000000RA              50476539    005801090000010900000520000003NN  NNW 000                       N    
RDG08562200WATRL000000004K00000000000000704010508062015102908N000000000000N85       000330400K 10000000010000000683           
CUS0856220000108018570005         JARBOE CHARLES      611 INGLESIDE AVE                       000N        CARE OF             
MTR08562200001000000000000000RA              26375145    007501100000011000000520000003NN  NNW 000                       N    
RDG08562200WATRL000000004K00000000000003138010608062015102952N000000000000N85       000440400K 10000000010000003125           
CUS0856220000108018746001         P & S BUILDERS INC  701 FERN VALLEY CIR                     000N        CARE OF             
MTR08562200001000000000000000RA              32575050    001501110000011100000520000003NN  NNW 000                       N    
RDG08562200WATRL000000005K00000000000032137010708062015103130N000000000000N85       000980500K 10000000010000031309           
CUS0856220000108018571003         HARTGE ROBERT M     519 INGLESIDE AVE                       000N        CARE OF             
MTR08562200001000000000000000RA              10012795    005801120000011200000570000003NN  NNW 000                       N    
RDG08562200WATRL000000004K00000000000000632010808062015103242N000000000000N85       000720400K 10000000010000000621           
CUS0856220000108018572001         HARTGE ROBERT M     517 INGLESIDE AVE                       000N        CARE OF             
MTR08562200001000000000000000RA              22608322    005801130000011300000520000003NN  NNW 000                       N    
RDG08562200WATRL000000004K00000000000005688010908062015103417N000000000000N85       000950400K 10000000010000005668           
CUS0856220000108018573009         SMITH RODNEY L      511 INGLESIDE AVE                       000N        CARE OF             
MTR08562200001000000000000000RA              00139057    005801140000011400000570000003NN  NNW 000                       N    
RDG08562200WATRL000000004K00000000000000770011008062015103653N000000000000N85       001560400K 10000000010000000759           
CUS0856220000108018574007         BERGER CARL G,3RD   509 INGLESIDE AVE                       000N        CARE OF             
MTR08562200001000000000000000RA              48584730    005801150000011500000520000003NN  NNW 000                       N    
RDG08562200WATRL000000004K00000000000001282011108062015103724N000000000000N85       000310400K 10000000010000001264           
CUS0856220000108018709009         MIHALOVITS DEAN E   500 INGLESIDE AVE                       000N        CARE OF             
MTR08562200001000000000000000RA              00139056    005801160000011600000570000003NN  NNW 000                       N    
RDG08562200WATRL000000004K00000000000003237011208062015103830N000000000000N85       000660400K 10000000010000003091           
CUS0856220000108018710007         WELLINGTON DANIEL J 502 INGLESIDE AVE                       000N        CARE OF             
MTR08562200001000000000000000RA              10017964    005801170000011700000570000003NY  NNW 000                       N    
MTM0856220010017964    NEWMETER                                                                                               
RDG08562200WATRL000000004K00000000000000045011308062015104005N000300000010N85       000950400K 10000000010000000415           
CUS0856220000108018711005         KOHLHEPP ROBERT E   518 INGLESIDE AVE                       000N        CARE OF             
MTR08562200001000000000000000RA              00139055    005801180000011800000570000003NN  NNW 000                       N    
RDG08562200WATRL000000004K00000000000001161011408062015104212N000000000000N85       001270400K 10000000010000001114           
CUS0856220000108367106005         CLINTON R WARREN    520 INGLESIDE AVE                       000N        CARE OF             
MTR08562200001000000000000000RA              24769952    005801190000011900000520000003NN  NNW 000                       N    
RDG08562200WATRL000000004K00000000000003994011508062015104322N000000000000N85       000700400K 10000000010000003982           
CUS0856220000108018712003         MILLER, GAYLE & GEOR522 INGLESIDE AVE                       000N        CARE OF             
MTR08562200001000000000000000RA              48588844    005801200000012000000520000003NN  NNW 000                       N    
RDG08562200WATRL000000004K00000000000001561011608062015104445N000000000000N85       000830400K 10000000010000001537           
CUS0856220000108018713001         HOERL JOHN EDWARD   526 INGLESIDE AVE                       000N        CARE OF             
MTR08562200001000000000000000RA              24229765    005801210000012100000520000003NN  NNW 000                       N    
RDG08562200WATRL000000004K00000000000001437011708062015104607N000000000000N85       000820400K 10000000010000001433           
CUS0856220000108018714009         WHITING ELMER J     627 STONEY LN                           000N        CARE OF             
MTR08562200001000000000000000RA              14909746    005801220000012200000310000003NN  NNW 000                       N    
RDG08562200WATRL000000004K00000000000001471004008072015083854N000000000000U85       000430400K 10000000010000001450           
CUS0856220000108018715006         MAISEL CHARLES D    625 STONEY LN                           000N        CARE OF             
MTR08562200001000000000000000RA              14905372    005801230000012300000310000003NN  NNW 000                       N    
RDG08562200WATRL000000004K00000000000000550004108072015083944N000000000000U85       000500400K 10000000010000000536           
CUS0856220000108018716004         HNAT RENATA         621 STONEY LN                           000N        CARE OF             
MTR08562200001000000000000000RA              46880525    005801240000012400000520000003NN  NNW 000                       N    
RDG08562200WATRL000000004K00000000000001189004308072015084424N000000000000U85       001980400K 10000000010000001173           
CUS0856220000108018717002         WONG PHILIP         619 STONEY LN                           000N        CARE OF             
MTR08562200001000000000000000RA              46880458    005801250000012500000520000003NN  NNW 000                       N    
RDG08562200WATRL000000004K00000000000001279004408072015084428N000000000000U85       000040400K 10000000010000001264           
CUS0856220000108018720006         NOE DETORE          611 STONEY LN                           000N        CARE OF             
MTR08562200001000000000000000RA              26015630    005801260000012600000520000003NY  NNW 000                       N    
MTM0856220026015630    BURIED                                                                                                 
RDG08562200WATRL000000004K00000000000000000000000000000000000 000000000000U         000000400  10000000010000000686           
CUS0856220000108018723000         G M A ENTERPRISES LT607 STONEY LN                           000N        CARE OF             
MTR08562200001000000000000000RA              46880448    005801270000012700000520000003NN  NNW 000                       N    
RDG08562200WATRL000000004K00000000000001950004508072015084808N000000000000U85       002200400K 10000000010000001941           
CUS0856220000108018724008         HUGHLETT RICHARD E, 605 STONEY LN                           000N        CARE OF             
MTR08562200001000000000000000RA              35102619    005801280000012800000520000003NN  NNW 000                       N    
RDG08562200WATRL000000004K00000000000002127004608072015084847N000000000000U85       000390400K 10000000010000002116           
CUS0856220000108018734007         CLINE CHARLES L     603 STONEY LN                           000N        CARE OF             
MTR08562200001000000000000000RA              46880454    005801290000012900000520000003NN  NNW 000                       N    
RDG08562200WATRL000000004K00000000000001529004708072015084944N000000000000U85       000570400K 10000000010000001522           
CUS0856220000108018725005         PETERSON VONDA E    316 HARLEM LN                           000N        CARE OF             
MTR08562200001000000000000000RA              46880466    005801300000013000000520000003NN  NNW 000                       N    
RDG08562200WATRL000000004K00000000000002383004808072015085243N000000000000U85       001790400K 10000000010000002383           
CUS0856220000108018726003         DEGEORGE ALISA      318 HARLEM LN                           000N        CARE OF             
MTR08562200001000000000000000RA              11429096    005801310000013100000570000003NN  NNW 000                       N    
RDG08562200WATRL000000004K00000000000003162004908072015085353N000000000000U85       000700400K 10000000010000003157           
CUS0856220000108018727001         YOUNG EDWARD        320 HARLEM LN                           000N        CARE OF             
MTR08562200001000000000000000RA              48594387    005801320000013200000520000003NN  NNW 000                       N    
RDG08562200WATRL000000004K00000000000000934005008072015085433N000000000000U85       000400400K 10000000010000000914           
CUS0856220000108413053003         SEALY DERWIN R      400 MAPLE FOREST RD                     000N        CARE OF             
MTR08562200001000000000000000RA              99411479    007501330000013300000570000003NN  NNW 000                       N    
RDG08562200WATRL000000004K00000000000001526005108072015090239N000000000000U85       004860400K 10000000010000001504           
CUS0856220000108413050009         BEVERLY F MURRAY    402 MAPLE FOREST RD                     000N        CARE OF             
MTR08562200001000000000000000RA              43905176    007501340000013400000520000003NN  NNW 000                       N    
RDG08562200WATRL000000004K00000000000000545005208072015090318N000000000000U85       000390400K 10000000010000000531           
CUS0856220000108413054001         DONOHUE ROBERT M    404 MAPLE FOREST RD                     000N        CARE OF             
MTR08562200001000000000000000RA              43905179    007501350000013500000520000003NN  NNW 000                       N    
RDG08562200WATRL000000004K00000000000001894005308072015090320N000000000000U85       000020400K 10000000010000001869           
CUS0856220000108413052005         MATTA ELIZABETH J   406 MAPLE FOREST RD                     000N        CARE OF             
MTR08562200001000000000000000RA              43905178    007501360000013600000520000003NN  NNW 000                       N    
RDG08562200WATRL000000004K00000000000001636005408072015090343N000000000000U85       000230400K 10000000010000001617           
CUS0856220000108413051007         AARON & CAROL CAMPBE408 MAPLE FOREST RD                     000N        CARE OF             
MTR08562200001000000000000000RA              43905177    007501370000013700000520000003NN  NNW 000                       N    
RDG08562200WATRL000000004K00000000000002213005508072015090346N000000000000U85       000030400K 10000000010000002127           
CUS0856220000108413049001         HOWARD TONIA V      410 MAPLE FOREST RD                     000N        CARE OF             
MTR08562200001000000000000000RA              43905180    007501380000013800000520000003NN  NNW 000                       N    
RDG08562200WATRL000000004K00000000000001052005608072015090421N000400000010U85       000350400K 10000000010000001042           
CUS0856220000108413048003         LAREDA V KELLAM     412 MAPLE FOREST RD                     000N        CARE OF             
MTR08562200001000000000000000RA              43905051    007501390000013900000520000003NN  NNW 000                       N    
RDG08562200WATRL000000004K00000000000002959005708072015090446N000000000000U85       000250400K 10000000010000002937           
CUS0856220000108413047005         HULCHER MATTHEW E   414 MAPLE FOREST RD                     000N        CARE OF             
MTR08562200001000000000000000RA              43905052    007501400000014000000520000003NN  NNW 000                       N    
RDG08562200WATRL000000004K00000000000001593005808072015090456N000000000000U85       000100400K 10000000010000001581           
CUS0856220000108413045009         DANIEL D DINH       416 MAPLE FOREST RD                     000N        CARE OF             
MTR08562200001000000000000000RA              00118323    007501410000014100000570000003NN  NNW 000                       N    
RDG08562200WATRL000000004K00000000000001200005908072015090521N000000000000U85       000250400K 10000000010000001182           
CUS0856220000108413046007         KEITH M. TABOR      418 MAPLE FOREST RD                     000N        CARE OF             
MTR08562200001000000000000000RA              00118322    007501420000014200000570000003NN  NNW 000                       N    
RDG08562200WATRL000000004K00000000000001169006008072015090524N000000000000U85       000030400K 10000000010000001144           
CUS0856220000108413044002         GEPPI DAWN E        420 MAPLE FOREST RD                     000N        CARE OF             
MTR08562200001000000000000000RA              43905462    007501430000014300000520000003NN  NNW 000                       N    
RDG08562200WATRL000000004K00000000000001940006108072015090608N000000000000U85       000440400K 10000000010000001922           
CUS0856220000108413043004         KENT MARIE L        422 MAPLE FOREST RD                     000N        CARE OF             
MTR08562200001000000000000000RA              43905452    007501440000014400000520000003NN  NNW 000                       N    
RDG08562200WATRL000000004K00000000000001297006208072015090611N000000000000U85       000030400K 10000000010000001245           
CUS0856220000108413042006         CROMER ZELDA  MILLER424 MAPLE FOREST RD                     000N        CARE OF             
MTR08562200001000000000000000RA              43905459    007501450000014500000520000003NN  NNW 000                       N    
RDG08562200WATRL000000004K00000000000003974006308072015090635N000000000000U85       000240400K 10000000010000003924           
CUS0856220000108413041008         ANDREW C KEELS      426 MAPLE FOREST RD                     000N        CARE OF             
MTR08562200001000000000000000RA              43905453    007501460000014600000520000003NN  NNW 000                       N    
RDG08562200WATRL000000004K00000000000002725006408072015090654N000000000000U85       000190400K 10000000010000002699           
CUS0856220000108413040000         OGBONUBA FRANK      428 MAPLE FOREST RD                     000N        CARE OF             
MTR08562200001000000000000000RA              43905460    007501470000014700000520000003NN  NNW 000                       N    
RDG08562200WATRL000000004K00000000000001946006508072015090717N000000000000U85       000230400K 10000000010000001921           
CUS0856220000108413039002         REVISIONS COMMUNITY 430 MAPLE FOREST RD                     000N        CARE OF             
MTR08562200001000000000000000RA              43905450    007501480000014800000520000003NN  NNW 000                       N    
RDG08562200WATRL000000004K00000000000002299006608072015090734N000000000000U85       000170400K 10000000010000002285           
CUS0856220000108413038004         GAJEWSKI LAWRENCE L 432 MAPLE FOREST RD                     000N        CARE OF             
MTR08562200001000000000000000RA              43905386    007501490000014900000520000003NN  NNW 000                       N    
RDG08562200WATRL000000004K00000000000001087006708072015090754N000000000000U85       000200400K 10000000010000001080           
CUS0856220000108413037006         PENG HE             434 MAPLE FOREST RD                     000N        CARE OF             
MTR08562200001000000000000000RA              43905394    007501500000015000000520000003NN  NNW 000                       N    
RDG08562200WATRL000000004K00000000000001335006808072015090802N000000000000U85       000080400K 10000000010000001329           
CUS0856220000108413036008         VAIDYA AVINASH      436 MAPLE FOREST RD                     000N        CARE OF             
MTR08562200001000000000000000RA              43905448    007501510000015100000520000003NN  NNW 000                       N    
RDG08562200WATRL000000004K00000000000001611006908072015090818N000000000000U85       000160400K 10000000010000001592           
CUS0856220000108413035000         SEAN T HEAVEY       438 MAPLE FOREST RD                     000N        CARE OF             
MTR08562200001000000000000000RA              43905433    007501520000015200000520000003NN  NNW 000                       N    
RDG08562200WATRL000000004K00000000000001782007008072015090827N000000000000U85       000090400K 10000000010000001770           
CUS0856220000108413034003         KING TRAY P         421 MAPLE FOREST RD                     000N        CARE OF             
MTR08562200001000000000000000RA              43905507    007501530000015300000520000003NN  NNW 000                       N    
RDG08562200WATRL000000004K00000000000001331009808072015092147N000000000000U85       000240400K 10000000010000001321           
CUS0856220000108413033005         CHEN YI H           423 MAPLE FOREST RD                     000N        CARE OF             
MTR08562200001000000000000000RA              43905355    007501540000015400000520000003NN  NNW 000                       N    
RDG08562200WATRL000000004K00000000000002912009708072015092123N000000000000U85       000370400K 10000000010000002858           
CUS0856220000108413032007         TRIPP JAMES H,JR    425 MAPLE FOREST RD                     000N        CARE OF             
MTR08562200001000000000000000RA              43905428    007501550000015500000520000003NN  NNW 000                       N    
RDG08562200WATRL000000004K00000000000002351009608072015092046N000000000000U85       000270400K 10000000010000002333           
CUS0856220000108413031009         REVISIONS COMMUNITY 427 MAPLE FOREST RD                     000N        CARE OF             
MTR08562200001000000000000000RA              43905515    007501560000015600000520000003NN  NNW 000                       N    
RDG08562200WATRL000000004K00000000000003225009508072015092019N000000000000U85       000090400K 10000000010000003207           
CUS0856220000108413030001         POWELL RENEE        429 MAPLE FOREST RD                     000N        CARE OF             
MTR08562200001000000000000000RA              43905833    007501570000015700000520000003NN  NNW 000                       N    
RDG08562200WATRL000000004K00000000000002641009408072015092010N000000000000U85       000200400K 10000000010000002617           
CUS0856220000108413029003         EVERETT KATHRYN M   431 MAPLE FOREST RD                     000N        CARE OF             
MTR08562200001000000000000000RA              43905506    007501580000015800000520000003NN  NNW 000                       N    
RDG08562200WATRL000000004K00000000000001438009308072015091950N000000000000U85       000780400K 10000000010000001420           
CUS0856220000108414608003         FORNOFF GLENN C     610 LUCKY LEAF CIR                      000N        CARE OF             
MTR08562200001000000000000000RA              43905835    007501590000015900000520000003NN  NNW 000                       N    
RDG08562200WATRL000000004K00000000000001874009908072015095604N000000000000U85       020570400K 10000000010000001851           
CUS0856220000108414607005         REVISIONS COMMUNITY 612 LUCKY LEAF CIR                      000N        CARE OF             
MTR08562200001000000000000000RA              43905830    007501600000016000000520000003NN  NNW 000                       N    
RDG08562200WATRL000000004K00000000000002335010008072015095630N000000000000U85       000260400K 10000000010000002318           
CUS0856220000108414606007         PROLIBERTY PARTNERS 614 LUCKY LEAF CIR                      000N        CARE OF             
MTR08562200001000000000000000RA              43905839    007501610000016100000520000003NN  NNW 000                       N    
RDG08562200WATRL000000004K00000000000001569010108072015095633N000000000000U85       000030400K 10000000010000001563           
CUS0856220000108414605009         JAMES HOBAN         616 LUCKY LEAF CIR                      000N        CARE OF             
MTR08562200001000000000000000RA              43905832    007501620000016200000520000003NN  NNW 000                       N    
RDG08562200WATRL000000004K00000000000001716010208072015095656N000000000000U85       000230400K 10000000010000001695           
CUS0856220000108414604002         DINH TONY           618 LUCKY LEAF CIR                      000N        CARE OF             
MTR08562200001000000000000000RA              43905512    007501630000016300000520000003NN  NNW 000                       N    
RDG08562200WATRL000000004K00000000000001300010308072015095658N000000000000U85       000020400K 10000000010000001272           
CUS0856220000108414603004         EKPEHOSE MARYANN    620 LUCKY LEAF CIR                      000N        CARE OF             
MTR08562200001000000000000000RA              43905831    007501640000016400000520000003NN  NNW 000                       N    
RDG08562200WATRL000000004K00000000000002006010408072015095721N000000000000U85       000230400K 10000000010000001978           
CUS0856220000108414717002         HASAN CELIK         622 LUCKY LEAF CIR                      000N        CARE OF             
MTR08562200001000000000000000RA              44030493    007501650000016500000520000003NN  NNW 000                       N    
RDG08562200WATRL000000004K00000000000001404010508072015095746N000000000000U85       000250400K 10000000010000001394           
CUS0856220000108414716004         EMARAT HOSSAIN      624 LUCKY LEAF CIR                      000N        CARE OF             
MTR08562200001000000000000000RA              44030492    007501660000016600000520000003NN  NNW 000                       N    
RDG08562200WATRL000000004K00000000000001993010608072015095815N000000000000U85       000290400K 10000000010000001962           
CUS0856220000108414715006         CAIN LEIA D         626 LUCKY LEAF CIR                      000N        CARE OF             
MTR08562200001000000000000000RA              44030495    007501670000016700000520000003NN  NNW 000                       N    
RDG08562200WATRL000000004K00000000000001713010708072015095817N000000000000U85       000020400K 10000000010000001682           
CUS0856220000108414714009         SHOOK JEFFREY M     628 LUCKY LEAF CIR                      000N        CARE OF             
MTR08562200001000000000000000RA              44030496    007501680000016800000520000003NN  NNW 000                       N    
RDG08562200WATRL000000004K00000000000001556010808072015095847N000000000000U85       000300400K 10000000010000001518           
CUS0856220000108414713001         EMERY DEVIN R       630 LUCKY LEAF CIR                      000N        CARE OF             
MTR08562200001000000000000000RA              44030497    007501690000016900000520000003NN  NNW 000                       N    
RDG08562200WATRL000000004K00000000000000991010908072015095849N000000000000U85       000020400K 10000000010000000982           
CUS0856220000108414712003         KIM JINSOO          632 LUCKY LEAF CIR                      000N        CARE OF             
MTR08562200001000000000000000RA              44030494    007501700000017000000520000003NN  NNW 000                       N    
RDG08562200WATRL000000004K00000000000001836011008072015095913N000300000010U85       000240400K 10000000010000001821           
CUS0856220000108414706005         MANRIQUE OSCAR      650 LUCKY LEAF CIR                      000N        CARE OF             
MTR08562200001000000000000000RA              45388223    007501710000017100000520000003NN  NNW 000                       N    
RDG08562200WATRL000000004K00000000000001312008108072015091417N000000000000U85       000680400K 10000000010000001291           
CUS0856220000108414705007         KENDRICK AVON       652 LUCKY LEAF CIR                      000N        CARE OF             
MTR08562200001000000000000000RA              37690324    007501720000017200000520000003NN  NNW 000                       N    
RDG08562200WATRL000000004K00000000000001300008208072015091449N000000000000U85       000320400K 10000000010000001287           
CUS0856220000108414704000         ECKHART TODD R      654 LUCKY LEAF CIR                      000N        CARE OF             
MTR08562200001000000000000000RA              45388443    007501730000017300000520000003NN  NNW 000                       N    
RDG08562200WATRL000000004K00000000000000850008308072015091452N000000000000U85       000030400K 10000000010000000848           
CUS0856220000108414703002         GROSS WAYNE E       656 LUCKY LEAF CIR                      000N        CARE OF             
MTR08562200001000000000000000RA              45388222    007501740000017400000520000003NN  NNW 000                       N    
RDG08562200WATRL000000004K00000000000000962008408072015091527N000000000000U85       000350400K 10000000010000000953           
CUS0856220000108414702004         APPIAH ABA D        658 LUCKY LEAF CIR                      000N        CARE OF             
MTR08562200001000000000000000RA              45388225    007501750000017500000520000003NN  NNW 000                       N    
RDG08562200WATRL000000004K00000000000002098008508072015091538N000000000000U85       000110400K 10000000010000002085           
CUS0856220000108414701006         CHUNG TANISHA A     660 LUCKY LEAF CIR                      000N        CARE OF             
MTR08562200001000000000000000RA              45388448    007501760000017600000520000003NN  NNW 000                       N    
RDG08562200WATRL000000004K00000000000001175008608072015091612N000100000010U85       000340400K 10000000010000001175           
CUS0856220000108414700008         SANCHEZ RUBEN,SR    662 LUCKY LEAF CIR                      000N        CARE OF             
MTR08562200001000000000000000RA              44030041    007501770000017700000520000003NN  NNW 000                       N    
RDG08562200WATRL000000004K00000000000001628008708072015091634N000000000000U85       000220400K 10000000010000001621           
CUS0856220000108414699002         LAMBERT MARVIN P    664 LUCKY LEAF CIR                      000N        CARE OF             
MTR08562200001000000000000000RA              44030038    007501780000017800000520000003NN  NNW 000                       N    
RDG08562200WATRL000000004K00000000000002056008808072015091704N000000000000U85       000300400K 10000000010000002036           
CUS0856220000108414698004         REVISIONS COMMUNITY 666 LUCKY LEAF CIR                      000N        CARE OF             
MTR08562200001000000000000000RA              44030039    007501790000017900000520000003NN  NNW 000                       N    
RDG08562200WATRL000000004K00000000000001905008908072015091706N000000000000U85       000020400K 10000000010000001887           
CUS0856220000108414697006         QUINTYNE KIMBERLY AN668 LUCKY LEAF CIR                      000N        CARE OF             
MTR08562200001000000000000000RA              43905787    007501800000018000000520000003NN  NNW 000                       N    
RDG08562200WATRL000000004K00000000000001108009008072015091756N000300000010U85       000500400K 10000000010000001069           
CUS0856220000108414696008         DAVIS LINWOOD       670 LUCKY LEAF CIR                      000N        CARE OF             
MTR08562200001000000000000000RA              43905782    007501810000018100000520000003NN  NNW 000                       N    
RDG08562200WATRL000000004K00000000000001896009108072015091813N000000000001U85       000170400K 10000000010000001869           
CUS0856220000108414695000         GROSS MARK A        672 LUCKY LEAF CIR                      000N        CARE OF             
MTR08562200001000000000000000RA              44030139    007501820000018200000520000003NN  NNW 000                       N    
RDG08562200WATRL000000004K00000000000002280009208072015091832N000000000000U85       000190400K 10000000010000002256           
CUS0856220000108414694003         MCKINNON JANICE C   679 LUCKY LEAF CIR                      000N        CARE OF             
MTR08562200001000000000000000RA              33731169    007501830000018300000520000003NN  NNW 000                       N    
RDG08562200WATRL000000004K00000000000001590007108072015090957N000000000000U85       000900400K 10000000010000001578           
CUS0856220000108414693005         YEHEYIS ASNAKE      677 LUCKY LEAF CIR                      000N        CARE OF             
MTR08562200001000000000000000RA              41193656    007501840000018400000520000003NN  NNW 000                       N    
RDG08562200WATRL000000004K00000000000001041007208072015091021N000000000000U85       000240400K 10000000010000001028           
CUS0856220000108414692007         RITA MACLIN-ABRAMS  675 LUCKY LEAF CIR                      000N        CARE OF             
MTR08562200001000000000000000RA              39256071    007501850000018500000520000003NN  NNW 000                       N    
RDG08562200WATRL000000004K00000000000002219007308072015091026N000000000000U85       000050400K 10000000010000002182           
CUS0856220000108414691009         MILLER JERISHA D    673 LUCKY LEAF CIR                      000N        CARE OF             
MTR08562200001000000000000000RA              45388445    007501860000018600000520000003NN  NNW 000                       N    
RDG08562200WATRL000000004K00000000000001599007408072015091101N000000000000U85       000350400K 10000000010000001589           
CUS0856220000108414690001         WEST ALBERT R       671 LUCKY LEAF CIR                      000N        CARE OF             
MTR08562200001000000000000000RA              39080470    007501870000018700000520000003NN  NNW 000                       N    
RDG08562200WATRL000000004K00000000000001320007508072015091107N000000000000U85       000060400K 10000000010000001317           
CUS0856220000108414689003         NORRI GHULAM F      669 LUCKY LEAF CIR                      000N        CARE OF             
MTR08562200001000000000000000RA              45388491    007501880000018800000520000003NN  NNW 000                       N    
RDG08562200WATRL000000004K00000000000002211007608072015091149N000000000000U85       000420400K 10000000010000002164           
CUS0856220000108414688005         NEGASH YOHANESS     667 LUCKY LEAF CIR                      000N        CARE OF             
MTR08562200001000000000000000RA              44030900    007501890000018900000520000003NN  NNW 000                       N    
RDG08562200WATRL000000004K00000000000001198007708072015091212N000000000000U85       000230400K 10000000010000001188           
CUS0856220000108414687007         OTA YUKO            665 LUCKY LEAF CIR                      000N        CARE OF             
MTR08562200001000000000000000RA              45388440    007501900000019000000520000003NN  NNW 000                       N    
RDG08562200WATRL000000004K00000000000000715007808072015091231N000000000000U85       000190400K 10000000010000000710           
CUS0856220000108414686009         ZAHANGIR NADIA      663 LUCKY LEAF CIR                      000N        CARE OF             
MTR08562200001000000000000000RA              43904166    007501910000019100000520000003NN  NNW 000                       N    
RDG08562200WATRL000000004K00000000000001190007908072015091243N000000000000U85       000120400K 10000000010000001182           
CUS0856220000108414685001         MARCIN PTASZEK      661 LUCKY LEAF CIR                      000N        CARE OF             
MTR08562200001000000000000000RA              44030959    007501920000019200000520000003NN  NNW 000                       N    
RDG08562200WATRL000000004K00000000000001737008008072015091309N000000000000U85       000260400K 10000000010000001723           
CUS0856220000108414711005         GILLIARD PAMELA RENE649 LUCKY LEAF CIR                      000N        CARE OF             
MTR08562200001000000000000000RA              45388734    007501930000019300000520000003NN  NNW 000                       N    
RDG08562200WATRL000000004K00000000000000904011108072015100005N000000000000U85       000520400K 10000000010000000891           
CUS0856220000108414710007         TERESHENKO GALINA   647 LUCKY LEAF CIR                      000N        CARE OF             
MTR08562200001000000000000000RA              45388732    007501940000019400000520000003NN  NNW 000                       N    
RDG08562200WATRL000000004K00000000000000967011208072015100008N000000000000U85       000030400K 10000000010000000954           
CUS0856220000108414709009         OBEROI SURINDER SING645 LUCKY LEAF CIR                      000N        CARE OF             
MTR08562200001000000000000000RA              45388737    007501950000019500000520000003NN  NNW 000                       N    
RDG08562200WATRL000000004K00000000000001254011308072015100042N000000000000U85       000340400K 10000000010000001252           
CUS0856220000108414708001         WEBB TYVIE D        643 LUCKY LEAF CIR                      000N        CARE OF             
MTR08562200001000000000000000RA              45388736    007501960000019600000520000003NN  NNW 000                       N    
RDG08562200WATRL000000004K00000000000001056011408072015100045N000000000000U85       000030400K 10000000010000001033           
CUS0856220000108414707003         GHOLSTON MARVIN     641 LUCKY LEAF CIR                      000N        CARE OF             
MTR08562200001000000000000000RA              45388733    007501970000019700000520000003NN  NNW 000                       N    
RDG08562200WATRL000000004K00000000000001253011508072015100127N000000000000U85       000420400K 10000000010000001239           
CUS0856220000108414732001         YENSEN JOHN A       629 LUCKY LEAF CIR                      000N        CARE OF             
MTR08562200001000000000000000RA              44030901    007501980000019800000520000003NN  NNW 000                       N    
RDG08562200WATRL000000004K00000000000001145011608072015100213N000000000000U85       000460400K 10000000010000001135           
CUS0856220000108414731003         ROBINSON KIM L      627 LUCKY LEAF CIR                      000N        CARE OF             
MTR08562200001000000000000000RA              44030955    007501990000019900000520000003NN  NNW 000                       N    
RDG08562200WATRL000000004K00000000000002623011708072015100215N000000000000U85       000020400K 10000000010000002596           
CUS0856220000108414730005         BOWARD MARK D       625 LUCKY LEAF CIR                      000N        CARE OF             
MTR08562200001000000000000000RA              45388574    007502000000020000000520000003NN  NNW 000                       N    
RDG08562200WATRL000000004K00000000000001767011808072015100242N000000000000U85       000270400K 10000000010000001760           
CUS0856220000108414729007         JORQUERA DANIEL E   623 LUCKY LEAF CIR                      000N        CARE OF             
MTR08562200001000000000000000RA              45388572    007502010000020100000520000003NN  NNW 000                       N    
RDG08562200WATRL000000004K00000000000002111011908072015100244N000000000000U85       000020400K 10000000010000002099           
CUS0856220000108414728009         BERKOWITZ HART M    621 LUCKY LEAF CIR                      000N        CARE OF             
MTR08562200001000000000000000RA              44030903    007502020000020200000520000003NN  NNW 000                       N    
RDG08562200WATRL000000004K00000000000001631012008072015100311N000000000000U85       000270400K 10000000010000001606           
CUS0856220000108414727001         HAIRSTON RAY ANTHONY619 LUCKY LEAF CIR                      000N        CARE OF             
MTR08562200001000000000000000RA              43904010    007502030000020300000520000003NN  NNW 000                       N    
RDG08562200WATRL000000004K00000000000001417012108102015145509O000000000010U80       000280400K 10000000010000001404           
CUS0856220000108414726003         OLENIEWSKI CHRISTOPH617 LUCKY LEAF CIR                      000N        CARE OF             
MTR08562200001000000000000000RA              43905951    007502040000020400000520000003NN  NNW 000                       N    
RDG08562200WATRL000000004K00000000000001221012208072015100342N000000000000U85       000030400K 10000000010000001205           
CUS0856220000108414725005         KRAMER AMY C        615 LUCKY LEAF CIR                      000N        CARE OF             
MTR08562200001000000000000000RA              45388441    007502050000020500000520000003NN  NNW 000                       N    
RDG08562200WATRL000000004K00000000000002255012308072015100414N000000000000U85       000320400K 10000000010000002215           
CUS0856220000108414724008         ANA P KOLOKYTHAS    613 LUCKY LEAF CIR                      000N        CARE OF             
MTR08562200001000000000000000RA              45388438    007502060000020600000520000003NN  NNW 000                       N    
RDG08562200WATRL000000004K00000000000001504012408072015100423N000000000000U85       000090400K 10000000010000001488           
CUS0856220000108414723000         MARY BROCK          611 LUCKY LEAF CIR                      000N        CARE OF             
MTR08562200001000000000000000RA              00118324    007502070000020700000570000003NN  NNW 000                       N    
RDG08562200WATRL000000004K00000000000001000012708072015100617N000000000000U85       000540400K 10000000010000000986           
CUS0856220000108414722002         BEGUM NAFISA        609 LUCKY LEAF CIR                      000N        CARE OF             
MTR08562200001000000000000000RA              44030257    007502080000020800000520000003NN  NNW 000                       N    
RDG08562200WATRL000000004K00000000000001858012508072015100510N000000000000U85       000470400K 10000000010000001801           
CUS0856220000108414721004         ALTHEA HUNT         607 LUCKY LEAF CIR                      000N        CARE OF             
MTR08562200001000000000000000RA              44030452    007502090000020900000520000003NN  NNW 000                       N    
RDG08562200WATRL000000004K00000000000001323012608072015100523N000000000001U85       000130400K 10000000010000001301           
CUS0856220000108414720006         KIM YOUNG S  KIM YOU605 LUCKY LEAF CIR                      000N        CARE OF             
MTR08562200001000000000000000RA              44030355    007502100000021000000520000003NN  NNW 000                       N    
RDG08562200WATRL000000004K00000000000001542012808072015100643N000000000000U85       000260400K 10000000010000001535           
CUS0856220000108414719008         MURPHY KELLY A      603 LUCKY LEAF CIR                      000N        CARE OF             
MTR08562200001000000000000000RA              44030254    007502110000021100000520000003NN  NNW 000                       N    
RDG08562200WATRL000000004K00000000000000887012908072015100652N000000000000U85       000090400K 10000000010000000878           
CUS0856220000108414718000         ALI SALAHUDDIN      601 LUCKY LEAF CIR                      000N        CARE OF             
MTR08562200001000000000000000RA              43905760    007502120000021200000520000003NN  NNW 000                       N    
RDG08562200WATRL000000004K00000000000001947013008072015100713N000000000000U85       000210400K 10000000010000001920           
CUS0856220000108018728009         EBERSOLE KEVIN L    325 HARLEM LN                           000N        CARE OF             
MTR08562200001000000000000000RA              01100379    005802130000021300000610000003NN  NNW 000                       N    
RDG08562200WATRL000000004K00000000000002061013108072015101022N000000000000U85       001890400K 10000000010000002027           
CUS0856220000108018729007         AVARA JOHN S        323 HARLEM LN                           000N        CARE OF             
MTR08562200001000000000000000RA              75616635    005802140000021400000350000003NN  NNW 000                       N    
RDG08562200WATRL000000004K00000000000000320013208072015101105N000000000000U85       000430400K 10000000010000000270           
CUS0856220000108018730005         BOER DANIEL W       321 HARLEM LN                           000N        CARE OF             
MTR08562200001000000000000000RA              01100809    005802150000021500000610000003NN  NNW 000                       N    
RDG08562200WATRL000000004K00000000000001236013308072015101203N000000000000U85       000580400K 10000000010000001212           
CUS0856220000108018731003         SCHLEICHER EMERALD F319 HARLEM LN                           000N        CARE OF             
MTR08562200001000000000000000RA              46880449    005802160000021600000520000003NN  NNW 000                       N    
RDG08562200WATRL000000004K00000000000002079013408072015101316N000000000000U85       000730400K 10000000010000002050           
CUS0856220000108018732001         JOSEPHINE P FRAZIER 317 HARLEM LN                           000N        CARE OF             
MTR08562200001000000000000000RA              46880457    005802170000021700000520000003NN  NNW 000                       N    
RDG08562200WATRL000000004K00000000000002076013508072015101414N000000000000U85       000580400K 10000000010000002071           
CUS0856220000108018733009         BELL TERRI-ANN      315 HARLEM LN                           000N        CARE OF             
MTR08562200001000000000000000RA              24230648    005802180000021800000520000003NN  NNW 000                       N    
RDG08562200WATRL000000004K00000000000004013013608072015101510N000000000000U85       000560400K 10000000010000003988           
CUS0856220000108427282002         EADS GREGORY        598 STONEY LN                           000N        CARE OF             
MTR08562200001000000000000000RA              99291658    005802190000021900000570000003NN  NNW 000                       N    
RDG08562200WATRL000000004K00000000000001322013708072015101553N000000000000U85       000430400K 10000000010000001262           
CUS0856220000108018736002         SPRING ALEXANDRA    600-1/2 STONEY LN                       000N        CARE OF             
MTR08562200001000000000000000RA              78023975    005802200000022000000360000003NN  NNW 000                       N    
RDG08562200WATRL000000004K00000000000000022013808072015101811N000000000011U85       000830400K 10000000010000000011           
CUS0856220000108018737000         WRIGHT MARK A       600 STONEY LN                           000N        CARE OF             
MTR08562200001000000000000000RA              78008214    005802210000022100000360000003NN  NNW 000                       N    
RDG08562200WATRL000000004K00000000000000068013908072015101816N000000000000U85       000050400K 10000000010000000041           
CUS0856220000108018738008         SIDDIQI MOHAMMAD A  602 STONEY LN                           000N        CARE OF             
MTR08562200001000000000000000RA              50790660    005802220000022200000520000003NN  NNW 000                       N    
RDG08562200WATRL000000004K00000000000000754014008072015102219N000300000010U85       002430400K 10000000010000003079           
CUS0856220000108018739006         GOUGH NICHOLAS      604 STONEY LN                           000N        CARE OF             
MTR08562200001000000000000000RA              46880521    005802230000022300000520000003NN  NNW 000                       N    
RDG08562200WATRL000000004K00000000000003493014108072015102259N000000000000U85       000400400K 10000000010000003475           
CUS0856220000108018740004         FAYA HARRY F,JR     606 STONEY LN                           000N        CARE OF             
MTR08562200001000000000000000RA              75616513    005802240000022400000350000003NN  NNW 000                       N    
RDG08562200WATRL000000004K00000000000000247014208072015102421N000000000000U85       000820400K 10000000010000000226           
CUS0856220000108456352007         TRACY L NAMIE       608 STONEY LN                           000N        CARE OF             
MTR08562200001000000000000000RA              77896052    000102250000022500000360000003NN  NNW 000                       N    
RDG08562200WATRL000000004K00000000000000011014308072015102501N000000000010U85       000400400K 10000000010000000000           
CUS0856220000108018708001         DUNKES ARTHUR M     618 STONEY LN                           000N        CARE OF             
MTR08562200001000000000000000RA              9987549     005802260000022600000570000003NN  NNW 000                       N    
RDG08562200WATRL000000004K00000000000005852014408072015102713N000000000000U85       001320400K 10000000010000005827           
CUS0856220000108018743008         FRAZIER JAMES E,JR  620 STONEY LN                           000N        CARE OF             
MTR08562200001000000000000000RA              01079353    005802270000022700000610000003NN  NNW 000                       N    
RDG08562200WATRL000000004K00000000000000582014508072015102817N000000000000U85       000640400K 10000000010000000573           
CUS0856220000108018744006         GREEN CHARLES C     626 STONEY LN                           000N        CARE OF             
MTR08562200001000000000000000RA              29685624    005802280000022800000520000003NN  NNW 000   VACANT / LOT        N    
RDG08562200WATRL000000004K00000000000000884004208072015084106N000000000000U85       000820400K 10000000010000000884           
CUS0856220000108018745003         BOER JOHN R         628 STONEY LN                           000N        CARE OF             
MTR08562200001000000000000000RA              14906092    005802290000022900000310000003NN  NNW 000                       N    
RDG08562200WATRL000000004K00000000000001392003908072015083811N000000000000U85       002380400K 10000000010000001339           
CUS0856220000108018747009         REICH WILLIAM C     612 INGLESIDE AVE                       000N        CARE OF             
MTR08562200001000000000000000RA              44173490    005802300000023000000520000003NN  NNW 000                       N    
RDG08562200WATRL000000004K00000000000001582011808062015104801N000000000000N85       001140400K 10000000010000001571           
CUS0856220000108018748007         WU XIADAO           618 INGLESIDE AVE                       000N        CARE OF             
MTR08562200001000000000000000RA              10006774    005802310000023100000570000003NN  NNW 000                       N    
RDG08562200WATRL000000004K00000000000000336011908062015104944N000000000000N85       001030400K 10000000010000000311           
CUS0856220000108018749005         LEYH HENRY A        622 INGLESIDE AVE                       000N        CARE OF             
MTR08562200001000000000000000RA              48589483    005802320000023200000520000003NN  NNW 000                       N    
RDG08562200WATRL000000004K00000000000000512012008062015105036N000000000000N85       000520400K 10000000010000000506           
CUS0856220000108018750003         CAMMARATA FRANK     626 INGLESIDE AVE                       000N        CARE OF             
MTR08562200001000000000000000RA              46877351    005802330000023300000520000003NN  NNW 000                       N    
RDG08562200WATRL000000004K00000000000001481012108062015105113N000000000000N85       000370400K 10000000010000001456           
CUS0856220000108018751001         UNGLESBEE DAVID J   628 INGLESIDE AVE                       000N        CARE OF             
MTR08562200001000000000000000RA              99289817    005802340000023400000570000003NN  NNW 000                       N    
RDG08562200WATRL000000004K00000000000000483012208062015105218N000000000000N85       000650400K 10000000010000000477           
CUS0856220000108018752009         WILLIAMS ALICIA M   630 INGLESIDE AVE                       000N        CARE OF             
MTR08562200001000000000000000RA              48584561    005802350000023500000520000003NN  NNW 000                       N    
RDG08562200WATRL000000004K00000000000002154012308062015105325N000000000000N85       000670400K 10000000010000002138           
CUS0856220000108018753007         GARY KEVIN M        632 INGLESIDE AVE                       000N        CARE OF             
MTR08562200001000000000000000RA              48584536    005802360000023600000520000003NN  NNW 000                       N    
RDG08562200WATRL000000004K00000000000001542012408062015105353N000000000000N85       000280400K 10000000010000001518           
CUS0856220000108018754005         HARRISON LAURIE     634 INGLESIDE AVE                       000N        CARE OF             
MTR08562200001000000000000000RA              01079333    005802370000023700000610000003NN  NNW 000                       N    
RDG08562200WATRL000000004K00000000000001451012508062015105447N000000000000N85       000540400K 10000000010000001430           
CUS0856220000108018755002         ZACHARY A LEASURE   2 LODGE RD                              000N        CARE OF             
MTR08562200001000000000000000RA              41081689    005802380000023800000520000003NN  NNW 000                       N    
RDG08562200WATRL000000004K00000000000001075012708062015105957N000000000000N85       000470400K 10000000010000001067           
CUS0856220000108418722008         KHATTAK WAHEED R    2A LODGE RD                             000N        CARE OF             
MTR08562200001000000000000000RA              48590599    005802390000023900000520000003NN  NNW 000                       N    
RDG08562200WATRL000000004K00000000000003056012608062015105910N000000000010N85       002630400K 10000000010000003027           
CUS0856220000108018756000         SCHLOSS JAMES R     4 LODGE RD                              000N        CARE OF             
MTR08562200001000000000000000RA              24762615    005802400000024000000520000003NN  NNW 000                       N    
RDG08562200WATRL000000004K00000000000005966012808062015110037N000000000000N85       000400400K 10000000010000005952           
CUS0856220000108018757008         MATTINGLY KATHRYN L 6 LODGE RD                              000N        CARE OF             
MTR08562200001000000000000000RA              45381054    005802410000024000010520000003NN  NNW 000                       N    
RDG08562200WATRL000000004K00000000000001904012908062015110122N000000000000N85       000450400K 10000000010000001877           
CUS0856220000108018758006         ROHRER CHARLES R    635 LONGVIEW DR                         000N        CARE OF             
MTR08562200001000000000000000RA              46880456    005802420000024200000520000003NN  NNW 000                       N    
RDG08562200WATRL000000004K00000000000001615013008062015110147N000000000000N85       000250400K 10000000010000001599           
CUS0856220000108018759004         PATEL SANGITA       633 LONGVIEW DR                         000N        CARE OF             
MTR08562200001000000000000000RA              24768655    005802430000024300000520000003NN  NNW 000                       N    
RDG08562200WATRL000000004K00000000000005331001408072015082053N000000000000U85       000950400K 10000000010000005316           
CUS0856220000108018760002         NANCY L. BRUNS      631 LONGVIEW DR                         000N        CARE OF             
MTR08562200001000000000000000RA              14924689    005802440000024400000310000003NN  NNW 000                       N    
RDG08562200WATRL000000004K00000000000000159001508072015082142N000000000000U85       000490400K 10000000010000000149           
CUS0856220000108018761000         GIL SONIA ELIZABETH 629 LONGVIEW DR                         000N        CARE OF             
MTR08562200001000000000000000RA              01079646    005802450000024500000610000003NN  NNW 000                       N    
RDG08562200WATRL000000004K00000000000000622001608072015082210N000000000000U85       000280400K 10000000010000000616           
CUS0856220000108018762008         DOBROVOLNY LAWRENCE 627 LONGVIEW DR                         000N        CARE OF             
MTR08562200001000000000000000RA              01070338    005802460000024600000610000003NN  NNW 000                       N    
RDG08562200WATRL000000004K00000000000001720001708072015082240N000000000000U85       000300400K 10000000010000001687           
CUS0856220000108018763006         LUCKMAN TAJUANNA    625 LONGVIEW DR                         000N        CARE OF             
MTR08562200001000000000000000RA              14909344    005802470000024700000310000003NN  NNW 000                       N    
RDG08562200WATRL000000004K00000000000000988001808072015082332N000000000000U85       000520400K 10000000010000000969           
CUS0856220000108018764004         BRYAN S KEITH       623 LONGVIEW DR                         000N        CARE OF             
MTR08562200001000000000000000RA              36689885    005802480000024800000520000003NN  NNW 000                       N    
RDG08562200WATRL000000004K00000000000001941001908072015082402N000300000010U85       000300400K 10000000010000001932           
CUS0856220000108018765001         DUNEVANT JOSHUA M   621 LONGVIEW DR                         000N        CARE OF             
MTR08562200001000000000000000RA              26013395    005802490000024900000520000003NN  NNW 000                       N    
RDG08562200WATRL000000004K00000000000003697002008072015082435N000000000000U85       000330400K 10000000010000003646           
CUS0856220000108018766009         MICHAEL DOROTHY ELIZ619 LONGVIEW DR                         000N        CARE OF             
MTR08562200001000000000000000RA              01070332    005802500000025000000610000003NN  NNW 000                       N    
RDG08562200WATRL000000004K00000000000000370002108072015082510N000000000000U85       000350400K 10000000010000000364           
CUS0856220000108018767007         TEMPLE RONNIE       617 LONGVIEW DR                         000N        CARE OF             
MTR08562200001000000000000000RA              01070950    005802510000025100000610000003NN  NNW 000                       N    
RDG08562200WATRL000000004K00000000000001690002208072015082541N000000000000U85       000310400K 10000000010000001644           
CUS0856220000108018768005         ZENTER FREDERICK A,J615 LONGVIEW DR                         000N        CARE OF             
MTR08562200001000000000000000RA              01070951    005802520000025200000610000003NN  NNW 000                       N    
RDG08562200WATRL000000004K00000000000000883002308072015082617N000000000000U85       000360400K 10000000010000000871           
CUS0856220000108018769003         WILLIAMS GLENN F    613 LONGVIEW DR                         000N        CARE OF             
MTR08562200001000000000000000RA              10005212    005802530000025300000570000003NN  NNW 000                       N    
RDG08562200WATRL000000004K00000000000001003002408072015082726N000000000000U85       000690400K 10000000010000000966           
CUS0856220000108018770001         GUERRASIO MICHAEL M 614 LONGVIEW DR                         000N        CARE OF             
MTR08562200001000000000000000RA              48592027    005802540000025400000520000003NN  NNW 000                       N    
RDG08562200WATRL000000004K00000000000001086002508072015082814N000000000000U85       000480400K 10000000010000001079           
CUS0856220000108018771009         TEAGUE SUSAN C      616 LONGVIEW DR                         000N        CARE OF             
MTR08562200001000000000000000RA              48592390    005802550000025500000520000003NN  NNW 000                       N    
RDG08562200WATRL000000004K00000000000001786002608072015082841N000000000000U85       000270400K 10000000010000001767           
CUS0856220000108018772007         WISE JOHN H         618 LONGVIEW DR                         000N        CARE OF             
MTR08562200001000000000000000RA              48583886    005802560000025600000520000003NN  NNW 000                       N    
RDG08562200WATRL000000004K00000000000003063002708072015082902N000000000000U85       000210400K 10000000010000003037           
CUS0856220000108018773005         LAWSON JEROME       620 LONGVIEW DR                         000N        CARE OF             
MTR08562200001000000000000000RA              14923219    005802570000025700000310000003NN  NNW 000                       N    
RDG08562200WATRL000000004K00000000000000503002808072015082925N000000000000U85       000230400K 10000000010000000485           
CUS0856220000108018774003         ROSEWAG SHARON TERES622 LONGVIEW DR                         000N        CARE OF             
MTR08562200001000000000000000RA              31586133    005802580000025800000520000003NN  NNW 000                       N    
RDG08562200WATRL000000004K00000000000003747002908072015082948N000000000000U85       000230400K 10000000010000003725           
CUS0856220000108018775000         REICH KATHRYN R     624 LONGVIEW DR                         000N        CARE OF             
MTR08562200001000000000000000RA              23645508    005802590000025900000520000003NN  NNW 000                       N    
RDG08562200WATRL000000004K00000000000002952003008072015083013N000000000000U85       000250400K 10000000010000002947           
CUS0856220000108018776008         LUTZ RICHARD E      626 LONGVIEW DR                         000N        CARE OF             
MTR08562200001000000000000000RA              M547427     005802600000026000000570000003NN  NNW 000                       N    
