FHDNNNN016003389003389003389N                                                                                           010972
RHD04739000NN01570157000001570000000001570157000505NY015701570157000700000000000000000000000001    07082015NY020000 N         
CUS0473900000104129616001         BAKONDI DANIEL S    501 STONELEIGH RD                       000N        CARE OF             
MTR04739000001000000000000000RA              14907034    005800010000000100000310000003NN  NNW 000                       N    
RDG04739000WATRL000000004K00000000000000660000108102015111800N000000000000U40       000000400K 10000000010000000648           
CUS0473900000104129617009         STRINGFELLOW FRED C 503 STONELEIGH RD                       000N        CARE OF             
MTR04739000001000000000000000RA              36690131    005800020000000200000520000003NN  NNW 000                       N    
RDG04739000WATRL000000004K00000000000003447000108062015072657N000000000001N40       000000400K 10000000010000003430           
CUS0473900000104129618007         RICHARDSON SHEILA L 601 STONELEIGH RD                       000N        CARE OF             
MTR04739000001000000000000000RA              36699571    000100030000000300000520000003NN  NNW 000                       N    
RDG04739000WATRL000000004K00000000000004979000208062015072704N000000000000N40       000070400K 10000000010000004958           
CUS0473900000104129619005         SCHWEITZER BARRY J  603 STONELEIGH RD                       000N        CARE OF             
MTR04739000001000000000000000RA              52771488    007500040000000400000520000003NN  NNW 000                       N    
RDG04739000WATRL000000004K00000000000000832000208102015112442N000000000000U40       004020400K 10000000010000000822           
CUS0473900000104129620003         MITCHELL CHARLES P  605 STONELEIGH RD                       000N        CARE OF             
MTR04739000001000000000000000RA              36690088    005800050000000500000520000003NN  NNW 000                       N    
RDG04739000WATRL000000004K00000000000003335000308102015112546N000000000000U40       000640400K 10000000010000003305           
CUS0473900000104129621001         HERBERT DAVID J     607 STONELEIGH RD                       000N        CARE OF             
MTR04739000001000000000000000RA              36690085    005800060000000600000520000003NN  NNW 000                       N    
RDG04739000WATRL000000004K00000000000002336000308062015072742N000000000000N40       000380400K 10000000010000002320           
CUS0473900000104129622009         MERLO CHRISTIAN     609 STONELEIGH RD                       000N        CARE OF             
MTR04739000001000000000000000RA              38782031    005800070000000700000520000003NN  NNW 000                       N    
RDG04739000WATRL000000004K00000000000002723000408102015112802N000000000000U40       001360400K 10000000010000002707           
CUS0473900000104129623007         ALLEN THOMAS E      701 STONELEIGH RD                       000N        CARE OF             
MTR04739000001000000000000000RA              23050076    005800080000000800000520000003NN  NNW 000                       N    
RDG04739000WATRL000000004K00000000000005347000408062015072811N000000000000N40       000290400K 10000000010000005328           
CUS0473900000104129624005         FUNK HERMAN         703 STONELEIGH RD                       000N        CARE OF             
MTR04739000001000000000000000RA              23050121    005800090000000900000520000003NN  NNW 000                       N    
RDG04739000WATRL000000004K00000000000004721000508102015112928N000000000000U40       000860400K 10000000010000004682           
CUS0473900000104129625002         KEVIN KAISER        705 STONELEIGH RD                       000N        CARE OF             
MTR04739000001000000000000000RA              01090097    005800100000001000000610000003NN  NNW 000                       N    
RDG04739000WATRL000000004K00000000000001810000508062015072826N000000000000N40       000150400K 10000000010000001773           
CUS0473900000104129626000         THOMPSON WILLIAM REI707 STONELEIGH RD                       000N        CARE OF             
MTR04739000001000000000000000RA              48583366    005800110000001100000520000003NN  NNW 000                       N    
RDG04739000WATRL000000004K00000000000002697000608102015113056N000000000000U40       000880400K 10000000010000002689           
CUS0473900000104129627008         KOSMIDES CHRISTOPHER709 STONELEIGH RD                       000N        CARE OF             
MTR04739000001000000000000000RA              27681912    007500120000001200000520000003NN  NNW 000                       N    
RDG04739000WATRL000000004K00000000000003619000608062015072845N000000000000N40       000190400K 10000000010000003596           
CUS0473900000104129628006         SHOCK STEPHEN K     711 STONELEIGH RD                       000N        CARE OF             
MTR04739000001000000000000000RA              27825301    005800130000001300000520000003NN  NNW 000                       N    
RDG04739000WATRL000000004K00000000000004552000708102015113251N000000000000U40       001150400K 10000000010000004532           
CUS0473900000104129629004         MANSON MELVIN R     713 STONELEIGH RD                       000N        CARE OF             
MTR04739000001000000000000000RA              50789996    005800140000001400000520000003NN  NNW 000                       N    
RDG04739000WATRL000000004K00000000000001434000808102015113253N000000000000U40       000020400K 10000000010000001426           
CUS0473900000104129630002         EISENBERG JOHN S    715 STONELEIGH RD                       000N        CARE OF             
MTR04739000001000000000000000RA              2305021     005800150000001500000520000003NN  NNW 000                       N    
RDG04739000WATRL000000004K00000000000006194000908102015113432N000000000000U40       000990400K 10000000010000006175           
CUS0473900000104129631000         WU CHRISTOPHER C    7004 WARDMAN RD                         000N        CARE OF             
MTR04739000001000000000000000RA              23050132    005800160000001600000520000003NN  NNW 000                       N    
RDG04739000WATRL000000004K00000000000007367001008102015113701N000000000000U40       001490400K 10000000010000007299           
CUS0473900000104129632008         MUNDORF CAROL B     7002 WARDMAN RD                         000N        CARE OF             
MTR04739000001000000000000000RA              27133312    005800170000001700000520000003NN  NNW 000                       N    
RDG04739000WATRL000000004K00000000000002925000108072015074646N000000000000U40       000000400K 10000000010000002894           
CUS0473900000104129633006         NOVAK LAUREN F      716 STONELEIGH RD                       000N        CARE OF             
MTR04739000001000000000000000RA              25781123    005800180000001800000520000003NN  NNW 000                       N    
RDG04739000WATRL000000004K00000000000003347005508062015075638N000300000010N40       000120400K 10000000010000003288           
CUS0473900000104129634004         HERMANN WILLIAM L   714 STONELEIGH RD                       000N        CARE OF             
MTR04739000001000000000000000RA              01101411    005800190000001900000610000003NN  NNW 000                       N    
RDG04739000WATRL000000004K00000000000001224005408062015075626N000000000000N40       000220400K 10000000010000001207           
CUS0473900000104129635001         SEIBEL JEFFREY L    712 STONELEIGH RD                       000N        CARE OF             
MTR04739000001000000000000000RA              38782238    005800200000002000000520000003NN  NNW 000                       N    
RDG04739000WATRL000000004K00000000000004145006008062015075931N000000000000N40       000070400K 10000000010000004124           
CUS0473900000104129636009         WALEN JEFFERY,JR    710 STONELEIGH RD                       000N        CARE OF             
MTR04739000001000000000000000RA              35113914    005800210000002100000520000003NN  NNW 000                       N    
RDG04739000WATRL000000004K00000000000002870005908062015075924N000300000010N40       000160400K 10000000010000002838           
CUS0473900000104129637007         AMAN PAUL M         708 STONELEIGH RD                       000N        CARE OF             
MTR04739000001000000000000000RA              45389278    007500220000002200000520000003NN  NNW 000                       N    
RDG04739000WATRL000000004K00000000000002419005808062015075908N000000000000N40       000150400K 10000000010000002380           
CUS0473900000104129638005         WIESAND WILLIAM J,3R706 STONELEIGH RD                       000N        CARE OF             
MTR04739000001000000000000000RA              27678395    007500230000002300000520000003NN  NNW 000                       N    
RDG04739000WATRL000000004K00000000000003719001108102015113948N000300000010U40       001670400K 10000000010000003687           
CUS0473900000104129639003         MICHAEL A. BARONE   702 STONELEIGH RD                       000N        CARE OF             
MTR04739000001000000000000000RA              23050070    005800240000002400000520000003NN  NNW 000                       N    
RDG04739000WATRL000000004K00000000000005849005708062015075853N000000000000N40       000690400K 10000000010000005816           
CUS0473900000104129640001         STUTT WILLIAM C TRUS700 STONELEIGH RD                       000N        CARE OF             
MTR04739000001000000000000000RA              10001846    005800250000002500000570000003NN  NNW 000                       N    
RDG04739000WATRL000000004K00000000000000955005608062015075744N000300000010N40       000660400K 10000000010000000920           
CUS0473900000104129641009         SKINNER CHARLES     606 STONELEIGH RD                       000N        CARE OF             
MTR04739000001000000000000000RA              00119158    007500260000002600000570000003NN  NNW 000                       N    
RDG04739000WATRL000000004K00000000000001504005308062015075604N000000000000N40       000100400K 10000000010000001471           
CUS0473900000104129642007         LETOCHA RICHARD J   604 STONELEIGH RD                       000N        CARE OF             
MTR04739000001000000000000000RA              23050071    005800270000002700000520000003NN  NNW 000                       N    
RDG04739000WATRL000000004K00000000000003556005208062015075554N000000000000N40       000130400K 10000000010000003537           
CUS0473900000104129643005         WINGATE ELMER H,JR  602 STONELEIGH RD                       000N        CARE OF             
MTR04739000001000000000000000RA              46883698    005800280000002800000520000003NN  NNW 000                       N    
RDG04739000WATRL000000004K00000000000001857001208102015114221N000000000000U40       001530400K 10000000010000001845           
CUS0473900000104129644003         SEYMOUR CHARLES,JR  600 STONELEIGH RD                       000N        CARE OF             
MTR04739000001000000000000000RA              23050093    005800290000002900000520000003NN  NNW 000                       N    
RDG04739000WATRL000000004K00000000000004354005108062015075541N000000000000N40       000730400K 10000000010000004336           
CUS0473900000104129645000         SCHLACHMAN DAVID M  7001 BRISTOL RD                         000N        CARE OF             
MTR04739000001000000000000000RA              99286461    005800300000003000000570000003NN  NNW 000                       N    
RDG04739000WATRL000000004K00000000000002843003008062015075005N000300000010N40       000690400K 10000000010000002725           
CUS0473900000104129646008         GARVEY SCOTT A      7003 BRISTOL RD                         000N        CARE OF             
MTR04739000001000000000000000RA              48586166    005800310000003100000520000003NN  NNW 000                       N    
RDG04739000WATRL000000004K00000000000001936003108062015075009N000000000000N40       000040400K 10000000010000001904           
CUS0473900000104129647006         SLINGLUFF ROBERT D  7006 BRISTOL RD                         000N        CARE OF             
MTR04739000001000000000000000RA              01094258    005800320000003200000610000003NN  NNW 000                       N    
RDG04739000WATRL000000004K00000000000001238003208062015075016N000300000010N40       000070400K 10000000010000001179           
CUS0473900000104129648004         DALRYMPLE KATHLEEN M7004 BRISTOL RD                         000N        CARE OF             
MTR04739000001000000000000000RA              00126862    005800330000003300000570000003NN  NNW 000                       N    
RDG04739000WATRL000000004K00000000000002249003308062015075019N000000000000N40       000030400K 10000000010000002210           
CUS0473900000104129649002         LENTZ KENNETH E     7002 BRISTOL RD                         000N        CARE OF             
MTR04739000001000000000000000RA              26010696    005800340000003400000520000003NN  NNW 000                       N    
RDG04739000WATRL000000004K00000000000004036003408062015075024N000000000000N40       000050400K 10000000010000004031           
CUS0473900000104129650000         ROBERT DUNBAR       7000 BRISTOL RD                         000N        CARE OF             
MTR04739000001000000000000000RA              44002102    005800350000003500000520000003NN  NNW 000                       N    
RDG04739000WATRL000000004K00000000000001932003508062015075027N000000000000N40       000030400K 10000000010000001908           
CUS0473900000104129651008         ERIN L KILLOUGH     502 STONELEIGH RD                       000N        CARE OF             
MTR04739000001000000000000000RA              23050204    005800360000003600000520000003NN  NNW 000                       N    
RDG04739000WATRL000000004K00000000000005131003608062015075030N000000000000N40       000030400K 10000000010000005115           
CUS0473900000104129652006         LAWRENCE MICHAEL T  500 STONELEIGH RD                       000N        CARE OF             
MTR04739000001000000000000000RA              14907036    005800370000003700000310000003NN  NNW 000                       N    
RDG04739000WATRL000000004K00000000000000704003708062015075033N000000000000N40       000030400K 10000000010000000683           
CUS0473900000104129653004         GOULD JOHN J,JR     7001 YORK RD                            000N        CARE OF             
MTR04739000001000000000000000RA              27819521    005800380000003800000520000003NN  NNW 000                       N    
RDG04739000WATRL000000004K00000000000005180003808062015075037N000000000000N40       000040400K 10000000010000005164           
CUS0473900000104129654002         CHAKMAKAS PETER J   7003 YORK RD                            000N        CARE OF             
MTR04739000001000000000000000RA              50789997    005800390000003900000520000003NN  NNW 000                       N    
RDG04739000WATRL000000004K00000000000001686003908062015075045N000300000010N40       000080400K 10000000010000001660           
CUS0473900000104129655009         WATSON DUSTIN       7005 YORK RD                            000N        CARE OF             
MTR04739000001000000000000000RA              10013078    005800400000004000000570000003NN  NNW 000                       N    
RDG04739000WATRL000000004K00000000000000278004008062015075054N000000000010N40       000090400K 10000000010000000246           
CUS0473900000104129656007         SCHOLL PETER F      7007 YORK RD                            000N        CARE OF             
MTR04739000001000000000000000RA              99286987    005800410000004100000570000003NY  NNW 000                       N    
MTM0473900099286987    CLEAN OUT VAULT                                                                                        
RDG04739000WATRL000000004K00000000000000000000000000000000000 000000000000U         000000400  10000000010000000981           
CUS0473900000104129657005         KENNEDY GEORGE      7009 YORK RD                            000N        CARE OF             
MTR04739000001000000000000000RA              35097382    005800420000004200000520000003NN  NNW 000                       N    
RDG04739000WATRL000000004K00000000000002419004108062015075201N000000000000N40       000670400K 10000000010000002378           
CUS0473900000104129658003         ELLIS JAMES W       601 CHUMLEIGH RD                        000N        CARE OF             
MTR04739000001000000000000000RA              23050238    005800430000004300000520000003NN  NNW 000                       N    
RDG04739000WATRL000000004K00000000000003188004208062015075209N000300000010N40       000080400K 10000000010000003166           
CUS0473900000104129659001         HAMPTON SARAH       603 CHUMLEIGH RD                        000N        CARE OF             
MTR04739000001000000000000000RA              27814277    005800440000004400000520000003NN  NNW 000                       N    
RDG04739000WATRL000000004K00000000000004319005008062015075428N000000000000N40       000110400K 10000000010000004297           
CUS0473900000104129660009         HOLMES JOHN M,JR    605 CHUMLEIGH RD                        000N        CARE OF             
MTR04739000001000000000000000RA              23050114    005800450000004500000520000003NN  NNW 000                       N    
RDG04739000WATRL000000004K00000000000004390004908062015075417N000000000000N40       000140400K 10000000010000004371           
CUS0473900000104129661007         THOMAS JAROLD KEMP  607 CHUMLEIGH RD                        000N        CARE OF             
MTR04739000001000000000000000RA              23050077    005800460000004600000520000003NN  NNW 000                       N    
RDG04739000WATRL000000004K00000000000005928004808062015075403N000000000000N40       000150400K 10000000010000005892           
CUS0473900000104129662005         CRANSTON THOMAS R   609 CHUMLEIGH RD                        000N        CARE OF             
MTR04739000001000000000000000RA              41081851    005800470000004700000520000003NY  NNW 000                       N    
MTM0473900041081851    OCC                                                                                                    
RDG04739000WATRL000000004K00000000000001543001308102015114910N000300000010U40       004090400K 10000000010000001547           
CUS0473900000104129663003         DAVID LAUTENSCHLAEGE703 CHUMLEIGH RD                        000N        CARE OF             
MTR04739000001000000000000000RA              45387227    005800480000004800000520000003NN  NNW 000                       N    
RDG04739000WATRL000000004K00000000000001966004708062015075348N000000000000N40       000080400K 10000000010000001955           
CUS0473900000104129664001         BARTHELME MARY CATHE705 CHUMLEIGH RD                        000N        CARE OF             
MTR04739000001000000000000000RA              36690941    005800490000004900000520000003NN  NNW 000                       N    
RDG04739000WATRL000000004K00000000000002978004608062015075340N000000000000N40       000280400K 10000000010000002959           
CUS0473900000104129665008         LOWENTHAL ERIC E    707 CHUMLEIGH RD                        000N        CARE OF             
MTR04739000001000000000000000RA              01077636    005800500000005000000610000003NN  NNW 000                       N    
RDG04739000WATRL000000004K00000000000002983004308062015075251N000000000000N40       000420400K 10000000010000002961           
CUS0473900000104129666006         GISRIEL THOMAS J    709 CHUMLEIGH RD                        000N        CARE OF             
MTR04739000001000000000000000RA              33077423    005800510000005100000520000003NN  NNW 000                       N    
RDG04739000WATRL000000004K00000000000004850004408062015075307N000300000010N40       000160400K 10000000010000004832           
CUS0473900000104129667004         ANSON MELANIE D     711 CHUMLEIGH RD                        000N        CARE OF             
MTR04739000001000000000000000RA              50478250    005800520000005200000520000003NN  NNW 000                       N    
RDG04739000WATRL000000004K00000000000001483004508062015075312N000000000000N40       000050400K 10000000010000001474           
CUS0473900000104129668002         FORD REBECCA P      7118 WARDMAN RD                         000N        CARE OF             
MTR04739000001000000000000000RA              00139291    005800530000005300000570000003NN  NNW 000                       N    
RDG04739000WATRL000000004K00000000000001378001408102015115144N000000000000U40       001540400K 10000000010000001359           
CUS0473900000104129669000         MCGAGH KAREN C      7116 WARDMAN RD                         000N        CARE OF             
MTR04739000001000000000000000RA              10011583    005800540000005400000570000003NN  NNW 000                       N    
RDG04739000WATRL000000004K00000000000000709001508102015115315N000300000010U40       000910400K 10000000010000000626           
CUS0473900000104129670008         WELSH PATRICK T     7114 WARDMAN RD                         000N        CARE OF             
MTR04739000001000000000000000RA              23050142    005800550000005500000520000003NN  NNW 000                       N    
RDG04739000WATRL000000004K00000000000005297000908072015074756N000000000000U40       000060400K 10000000010000005282           
CUS0473900000104129671006         MALLONEE RICHARD L  7112 WARDMAN RD                         000N        CARE OF             
MTR04739000001000000000000000RA              99309076    007500560000005600000570000003NN  NNW 000                       N    
RDG04739000WATRL000000004K00000000000001210000808072015074750N000000000000U40       000050400K 10000000010000001190           
CUS0473900000104129672004         BURKHARDT GREGORY J 7110 WARDMAN RD                         000N        CARE OF             
MTR04739000001000000000000000RA              01072221    005800570000005700000610000003NN  NNW 000                       N    
RDG04739000WATRL000000004K00000000000001140000708072015074745N000000000000U40       000040400K 10000000010000001107           
CUS0473900000104129673002         SCHULEMAN ANDREW    7108 WARDMAN RD                         000N        CARE OF             
MTR04739000001000000000000000RA              38983885    005800580000005800000520000003NN  NNW 000                       N    
RDG04739000WATRL000000004K00000000000002871000608072015074741N000000000000U40       000030400K 10000000010000002853           
CUS0473900000104129674000         BULKLEY PETER C     7106 WARDMAN RD                         000N        CARE OF             
MTR04739000001000000000000000RA              39289736    005800590000005900000520000003NN  NNW 000                       N    
RDG04739000WATRL000000004K00000000000003504000508072015074738N000000000000U40       000040400K 10000000010000003474           
CUS0473900000104129675007         FRAKER GARDINER W   7104 WARDMAN RD                         000N        CARE OF             
MTR04739000001000000000000000RA              23050135    005800600000006000000520000003NN  NNW 000                       N    
RDG04739000WATRL000000004K00000000000004068000408072015074734N000000000000U40       000150400K 10000000010000004047           
CUS0473900000104129676005         WOOLLEY JEFF        7102 WARDMAN RD                         000N        CARE OF             
MTR04739000001000000000000000RA              45387292    005800610000006100000520000003NN  NNW 000                       N    
RDG04739000WATRL000000004K00000000000002326000308072015074719N000000000000U40       000070400K 10000000010000002283           
CUS0473900000104129677003         SCHNEIDER RONALD C  7100 WARDMAN RD                         000N        CARE OF             
MTR04739000001000000000000000RA              23050015    005800620000006200000520000003NN  NNW 000                       N    
RDG04739000WATRL000000004K00000000000005170000208072015074712N000000000000U40       000260400K 10000000010000005145           
CUS0473900000104129678001         CAVALUZZI JOHN A    7101 OXFORD RD                          000N        CARE OF             
MTR04739000001000000000000000RA              23050136    005800630000006300000520000003NN  NNW 000                       N    
RDG04739000WATRL000000004K00000000000004499001608102015115631N000000000000U40       001960400K 10000000010000004493           
CUS0473900000104129679009         OMALLEY MARY ELLEN  7103 OXFORD RD                          000N        CARE OF             
MTR04739000001000000000000000RA              23050139    005800640000006400000520000003NN  NNW 000                       N    
RDG04739000WATRL000000004K00000000000003936001708102015115634N000000000000U40       000030400K 10000000010000003906           
CUS0473900000104129680007         BOCCUTI ASCANIO S   7105 OXFORD RD                          000N        CARE OF             
MTR04739000001000000000000000RA              33079571    005800650000006500000520000003NN  NNW 000                       N    
RDG04739000WATRL000000004K00000000000002962001608072015075237N000000000000U40       000090400K 10000000010000002951           
CUS0473900000104129681005         DUNBAR TIMOTHY      7107 OXFORD RD                          000N        CARE OF             
MTR04739000001000000000000000RA              00126866    005800660000006600000570000003NN  NNW 000                       N    
RDG04739000WATRL000000004K00000000000001539001508072015075228N000000000000U40       000880400K 10000000010000001499           
CUS0473900000104129682003         MILLER BARRY L      7109 OXFORD RD                          000N        CARE OF             
MTR04739000001000000000000000RA              41081826    005800670000006700000520000003NN  NNW 000                       N    
RDG04739000WATRL000000004K00000000000003789001108072015074943N000000000000U40       001010400K 10000000010000003774           
CUS0473900000104129683001         MCDONNELL WILLIAM C 7111 OXFORD RD                          000N        CARE OF             
MTR04739000001000000000000000RA              24225099    005800680000006800000520000003NN  NNW 000                       N    
RDG04739000WATRL000000004K00000000000006190001208072015074948N000000000000U40       000050400K 10000000010000006163           
CUS0473900000104129684009         BRINKER DAVID A     7113 OXFORD RD                          000N        CARE OF             
MTR04739000001000000000000000RA              23050008    005800690000006900000520000003NN  NNW 000                       N    
RDG04739000WATRL000000004K00000000000003898006308062015110721N000000000000N40       000060400K 10000000010000003877           
CUS0473900000104129685006         MEROS STANLEY C     7115 OXFORD RD                          000N        CARE OF             
MTR04739000001000000000000000RA              23050010    005800700000007000000520000003NN  NNW 000                       N    
RDG04739000WATRL000000004K00000000000006619006208062015110715N000000000000N40       000180400K 10000000010000006591           
CUS0473900000104129686004         GILL MICHAEL W      7117 OXFORD RD                          000N        CARE OF             
MTR04739000001000000000000000RA              23050009    005800710000007100000520000003NN  NNW 000                       N    
RDG04739000WATRL000000004K00000000000006081006108062015110657N000300000010N40       112460400K 10000000010000006083           
CUS0473900000104129687002         MILLIGAN DOROTHY K  7116 OXFORD RD                          000N        CARE OF             
MTR04739000001000000000000000RA              99287526    005800720000007200000570000003NN  NNW 000                       N    
RDG04739000WATRL000000004K00000000000001160001808102015121452N000000000001U40       010980400K 10000000010000001150           
CUS0473900000104129688000         CERVENY ERVIN J     7112 OXFORD RD                          000N        CARE OF             
MTR04739000001000000000000000RA              75615425    005800730000007300000350000003NN  NNW 000                       N    
RDG04739000WATRL000000004K00000000000000155001908102015121523N000000000000U40       000310400K 10000000010000000131           
CUS0473900000104129689008         YARKONY DAVID R     7110 OXFORD RD                          000N        CARE OF             
MTR04739000001000000000000000RA              27133263    005800740000007400000520000003NN  NNW 000                       N    
RDG04739000WATRL000000004K00000000000004703002008102015121556N000000000000U40       000330400K 10000000010000004694           
CUS0473900000104129690006         BOLLINGER PATRICK J 7108 OXFORD RD                          000N        CARE OF             
MTR04739000001000000000000000RA              48583361    005800750000007500000520000003NN  NNW 000                       N    
RDG04739000WATRL000000004K00000000000002610002108102015121638N000000000000U40       000420400K 10000000010000002578           
CUS0473900000104129691004         GRANZULEA STERE     7106 OXFORD RD                          000N        CARE OF             
MTR04739000001000000000000000RA              35099252    005800760000007600000520000003NN  NNW 000                       N    
RDG04739000WATRL000000004K00000000000001969002208102015121711N000000000000U40       000330400K 10000000010000001946           
CUS0473900000104129692002         WEINERT HOWARD L    7104 OXFORD RD                          000N        CARE OF             
MTR04739000001000000000000000RA              35111130    005800770000007700000520000003NN  NNW 000                       N    
RDG04739000WATRL000000004K00000000000005271002308102015121758N000300000010U40       000470400K 10000000010000005232           
CUS0473900000104129693000         HARRIS ROBERT D     7102 OXFORD RD                          000N        CARE OF             
MTR04739000001000000000000000RA              35111129    005800780000007800000520000003NN  NNW 000                       N    
RDG04739000WATRL000000004K00000000000002936002408102015121834N000000000000U40       000360400K 10000000010000002910           
CUS0473900000104129694008         CHATARD J ALBERT,3RD7100 OXFORD RD                          000N        CARE OF             
MTR04739000001000000000000000RA              39289089    005800790000007900000520000003NN  NNW 000                       N    
RDG04739000WATRL000000004K00000000000004744002508102015121911N000300000010U40       000370400K 10000000010000004675           
CUS0473900000104129695005         HANSEN F CHRISTIAN,3702 CHUMLEIGH RD                        000N        CARE OF             
MTR04739000001000000000000000RA              75422729    005800800000008000000350000003NY  NNW 000                       N    
MTM0473900075422729    OCC                                                                                                    
RDG04739000WATRL000000004K00000000000000110002608102015122020N000300000010U40       000690400K 10000000010000000113           
CUS0473900000104129696003         BARRANS RICHARD E   700 CHUMLEIGH RD                        000N        CARE OF             
MTR04739000001000000000000000RA              45387067    005800810000008100000520000003NN  NNW 000                       N    
RDG04739000WATRL000000004K00000000000001099002708102015122142N000000000000U40       000820400K 10000000010000001090           
CUS0473900000104129697001         THOMAS SCOTT R      7099 SHEFFIELD RD                       000N        CARE OF             
MTR04739000001000000000000000RA              11427035    005800820000008200000570000003NN  NNW 000                       N    
RDG04739000WATRL000000004K00000000000007811002808102015122308N000000000000U40       000860400K 10000000010000007790           
CUS0473900000104129698009         MYERS JEFFREY M     7101 SHEFFIELD RD                       000N        CARE OF             
MTR04739000001000000000000000RA              14911185    005800830000008300000310000003NN  NNW 000                       N    
RDG04739000WATRL000000004K00000000000000865002908102015122349N000000000000U40       000410400K 10000000010000000844           
CUS0473900000104129699007         MORITZ OSCAR L,JR   7103 SHEFFIELD RD                       000N        CARE OF             
MTR04739000001000000000000000RA              00126857    005800840000008400000570000003NY  NNW 000                       N    
MTM0473900000126857    CONSTRUCTION                                                                                           
RDG04739000WATRL000000004K00000000000000000000000000000000000 000000000000U         000000400  10000000010000000599           
CUS0473900000104129700003         SHRIVER KIRK L,TRUST7105 SHEFFIELD RD                       000N        CARE OF             
MTR04739000001000000000000000RA              23050002    005800850000008500000520000003NN  NNW 000                       N    
RDG04739000WATRL000000004K00000000000006841003008102015122451N000000000000U40       000620400K 10000000010000006826           
CUS0473900000104129701001         SYBERT ALLENDER     7107 SHEFFIELD RD                       000N        CARE OF             
MTR04739000001000000000000000RA              23050004    005800860000008600000520000003NN  NNW 000                       N    
RDG04739000WATRL000000004K00000000000002068003108102015122544N000000000000U40       000530400K 10000000010000002067           
CUS0473900000104129702009         DYER ROBERT H,JR    7109 SHEFFIELD RD                       000N        CARE OF             
MTR04739000001000000000000000RA              01094139    005800870000008700000610000003NN  NNW 000                       N    
RDG04739000WATRL000000004K00000000000001116003208072015105632N000000000000U40       106710400K 10000000010000001091           
CUS0473900000104129703007         FARRUGIA CORY PAUL  7111 SHEFFIELD RD                       000N        CARE OF             
MTR04739000001000000000000000RA              33083842    005800880000008800000520000003NN  NNW 000                       N    
RDG04739000WATRL000000004K00000000000002870003308072015105636N000000000000U40       000040400K 10000000010000002845           
CUS0473900000104129704005         WELLER JAMES PHILIP 7113 SHEFFIELD RD                       000N        CARE OF             
MTR04739000001000000000000000RA              44178813    005800890000008900000520000003NN  NNW 000                       N    
RDG04739000WATRL000000004K00000000000002364003408072015105641N000000000000U40       000050400K 10000000010000002355           
CUS0473900000104129705002         MCGROARTY AMY C     7120 SHEFFIELD RD                       000N        CARE OF             
MTR04739000001000000000000000RA              40321338    005800900000009000000520000003NN  NNW 000                       N    
RDG04739000WATRL000000004K00000000000004609003508072015105644N000000000000U40       000030400K 10000000010000004577           
CUS0473900000104129706000         MICHAEL KASHIWAGI   7112 SHEFFIELD RD                       000N        CARE OF             
MTR04739000001000000000000000RA              11427030    005800910000009100000570000003NN  NNW 000                       N    
RDG04739000WATRL000000004K00000000000000883003608072015105648N000000000000U40       000040400K 10000000010000000870           
CUS0473900000104129707008         CAMPANIDES PANAYIOTI7110 SHEFFIELD RD                       000N        CARE OF             
MTR04739000001000000000000000RA              23050497    005800920000009200000520000003NN  NNW 000                       N    
RDG04739000WATRL000000004K00000000000005097003708072015105655N000000000000U40       000070400K 10000000010000005086           
CUS0473900000104129708006         DULAY BRIAN J       7108 SHEFFIELD RD                       000N        CARE OF             
MTR04739000001000000000000000RA              19462246    005800930000009300000520000003NN  NNW 000                       N    
RDG04739000WATRL000000004K00000000000004551003808072015105704N000000000000U40       000090400K 10000000010000004536           
CUS0473900000104129709004         PATRICK RYSCAVAGE   7106 SHEFFIELD RD                       000N        CARE OF             
MTR04739000001000000000000000RA              23050496    005800940000009400000520000003NN  NNW 000                       N    
RDG04739000WATRL000000004K00000000000002932003908072015105708N000000000000U40       000040400K 10000000010000002909           
CUS0473900000104129710002         HEINZE JAMES J      7104 SHEFFIELD RD                       000N        CARE OF             
MTR04739000001000000000000000RA              00126864    005800950000009500000570000003NN  NNW 000                       N    
RDG04739000WATRL000000004K00000000000001310004008072015105712N000000000000U40       000040400K 10000000010000001291           
CUS0473900000104129711000         LOMOTAN LUCIA T     7102 SHEFFIELD RD                       000N        CARE OF             
MTR04739000001000000000000000RA              32902598    005800960000009600000520000003NN  NNW 000                       N    
RDG04739000WATRL000000004K00000000000002982004108072015105716N000000000000U40       000040400K 10000000010000002964           
CUS0473900000104129712008         RIESS ADAM G        7100 SHEFFIELD RD                       000N        CARE OF             
MTR04739000001000000000000000RA              24761798    005800970000009700000520000003NN  NNW 000                       N    
RDG04739000WATRL000000004K00000000000003570004208072015105719N000000000000U40       000030400K 10000000010000003547           
CUS0473900000104129713006         WOLFF ANTONIO C     600 CHUMLEIGH RD                        000N        CARE OF             
MTR04739000001000000000000000RA              00126865    005800980000009800000570000003NN  NNW 000                       N    
RDG04739000WATRL000000004K00000000000001276004308072015105723N000000000000U40       000040400K 10000000010000001245           
CUS0473900000104129714004         JONES STEVEN H      7101 BRISTOL RD                         000N        CARE OF             
MTR04739000001000000000000000RA              99388230    005800990000009900000570000003NN  NNW 000                       N    
RDG04739000WATRL000000004K00000000000001188004408072015105727N000000000000U40       000040400K 10000000010000001175           
CUS0473900000104129715001         LECOMPTE THOMAS P   7103 BRISTOL RD                         000N        CARE OF             
MTR04739000001000000000000000RA              23050566    005801000000010000000520000003NN  NNW 000                       N    
RDG04739000WATRL000000004K00000000000005938004508072015105731N000000000000U40       000040400K 10000000010000005912           
CUS0473900000104129716009         ROSEBOROUGH GLEN STA7105 BRISTOL RD                         000N        CARE OF             
MTR04739000001000000000000000RA              23050571    005801010000010100000520000003NN  NNW 000                       N    
RDG04739000WATRL000000004K00000000000003660004608072015105738N000000000010U40       000070400K 10000000010000003659           
CUS0473900000104129717007         JEREMY C CHASON     7107 BRISTOL RD                         000N        CARE OF             
MTR04739000001000000000000000RA              48586029    005801020000010200000520000003NN  NNW 000                       N    
RDG04739000WATRL000000004K00000000000002175004708072015105743N000000000000U40       000050400K 10000000010000002159           
CUS0473900000104129718005         DAVID AHRON COHEN   7111 BRISTOL RD                         000N        CARE OF             
MTR04739000001000000000000000RA              23050570    005801030000010300000520000003NN  NNW 000                       N    
RDG04739000WATRL000000004K00000000000005026004008102015123904N000000000000U40       000440400K 10000000010000005000           
CUS0473900000104129719003         TODD MARK D         7113 BRISTOL RD                         000N        CARE OF             
MTR04739000001000000000000000RA              23050563    005801040000010400000520000003NN  NNW 000                       N    
RDG04739000WATRL000000004K00000000000005055003908102015123820N000300000010U40       000660400K 10000000010000005134           
CUS0473900000104129720001         CRAWFORD EDWIN S    7115 BRISTOL RD                         000N        CARE OF             
MTR04739000001000000000000000RA              23050576    005801050000010500000520000003NN  NNW 000                       N    
RDG04739000WATRL000000004K00000000000006561003808102015123714N000300000010U40       000360400K 10000000010000006530           
CUS0473900000104129721009         SALVATORI ROBERTO   7117 BRISTOL RD                         000N        CARE OF             
MTR04739000001000000000000000RA              23050574    005801060000010600000520000003NN  NNW 000                       N    
RDG04739000WATRL000000004K00000000000005408003708102015123638N000000000000U40       002190400K 10000000010000005397           
CUS0473900000104129722007         CERVENY ERVIN J     7119 BRISTOL RD                         000N        CARE OF             
MTR04739000001000000000000000RA              78022342    005801070000010700000360000003NN  NNW 000                       N    
RDG04739000WATRL000000004K00000000000000009001708072015075611N000000000000U40       002140400K 10000000010000000003           
CUS0473900000104129723005         SAMUEL & LAUREN HOWE7118 BRISTOL RD                         000N        CARE OF             
MTR04739000001000000000000000RA              26004967    005801080000010800000520000003NN  NNW 000                       N    
RDG04739000WATRL000000004K00000000000004727001808072015075621N000000000000U40       000100400K 10000000010000004686           
CUS0473900000104129724003         LALLA JENNIFER M    7116 BRISTOL RD                         000N        CARE OF             
MTR04739000001000000000000000RA              14916830    005801090000010900000310000003NN  NNW 000                       N    
RDG04739000WATRL000000004K00000000000000959001908072015075634N000000000000U40       000130400K 10000000010000000944           
CUS0473900000104129725000         STARK GAYLE W       7114 BRISTOL RD                         000N        CARE OF             
MTR04739000001000000000000000RA              46883252    005801100000011000000520000003NN  NNW 000                       N    
RDG04739000WATRL000000004K00000000000002558002008072015075639N000000000000U40       000050400K 10000000010000002514           
CUS0473900000104129726008         CRAIG KOLLER        7110 BRISTOL RD                         000N        CARE OF             
MTR04739000001000000000000000RA              26001933    005801110000011100000520000003NN  NNW 000                       N    
RDG04739000WATRL000000004K00000000000003364002108072015075644N000000000000U40       000050400K 10000000010000003324           
CUS0473900000104129727006         PETTIT JOSEPH S     7108 BRISTOL RD                         000N        CARE OF             
MTR04739000001000000000000000RA              23050562    005801120000011200000520000003NN  NNW 000                       N    
RDG04739000WATRL000000004K00000000000005374002208072015075648N000000000000U40       000040400K 10000000010000005339           
CUS0473900000104129728004         THOMPSON RICHARD B  7106 BRISTOL RD                         000N        CARE OF             
MTR04739000001000000000000000RA              23050567    005801130000011300000520000003NN  NNW 000                       N    
RDG04739000WATRL000000004K00000000000005939002308072015075653N000000000000U40       000050400K 10000000010000005898           
CUS0473900000104129729002         HEATH ALAN W        7104 BRISTOL RD                         000N        CARE OF             
MTR04739000001000000000000000RA              00126863    005801140000011400000570000003NN  NNW 000                       N    
RDG04739000WATRL000000004K00000000000001791002408072015075657N000000000000U40       000040400K 10000000010000001761           
CUS0473900000104129730000         REIF CHRISTOPHER MIC7102 BRISTOL RD                         000N        CARE OF             
MTR04739000001000000000000000RA              23050569    005801150000011500000520000003NN  NNW 000                       N    
RDG04739000WATRL000000004K00000000000004984002508072015075701N000000000000U40       000040400K 10000000010000004951           
CUS0473900000104129731008         JENNIFER E GUYTHER  7100 BRISTOL RD                         000N        CARE OF             
MTR04739000001000000000000000RA              00126861    005801160000011600000570000003NN  NNW 000                       N    
RDG04739000WATRL000000004K00000000000001719002608072015110329N000000000011U40       003460400K 10000000010000001711           
CUS0473900000104129732006         RODMAN JEFFREY KINSE7101 YORK RD                            000N        CARE OF             
MTR04739000001000000000000000RA              27823136    005801170000011700000520000003NY  NNW 000                       N    
MTM0473900027823136    CAN NOT LOCATE                                                                                         
RDG04739000WATRL000000004K00000000000000000000000000000000000 000000000000U         000000400  10000000010000002806           
CUS0473900000104129733004         PARADISE ALEXANDRA S7103 YORK RD                            000N        CARE OF             
MTR04739000001000000000000000RA              76349345    005801180000011800000350000003NN  NNW 000                       N    
RDG04739000WATRL000000004K00000000000000353004808072015110402N000000000000U40       000330400K 10000000010000000328           
CUS0473900000104129734002         PINKETT IAN         7105 YORK RD                            000N        CARE OF             
MTR04739000001000000000000000RA              50790765    005801190000011900000520000003NN  NNW 000                       N    
RDG04739000WATRL000000004K00000000000002136001408072015075100N000300000010U40       000340400K 10000000010000002110           
CUS0473900000104129735009         GANS DAVID S,JR     7107 YORK RD                            000N        CARE OF             
MTR04739000001000000000000000RA              50481043    005801200000012000000520000003NN  NNW 000                       N    
RDG04739000WATRL000000004K00000000000002693001308072015075026N000000000000U40       000380400K 10000000010000002663           
CUS0473900000104129736007         GOTWALT DARRYL E    7109 YORK RD                            000N        CARE OF             
MTR04739000001000000000000000RA              11329148    005801210000012100000570000003NN  NNW 000                       N    
RDG04739000WATRL000000004K00000000000000000000000000000000000 000000000000U         000000400  10000000010000004591           
CUS0473900000104129737005         OLIVER N THOMAS     7111 YORK RD                            000N        CARE OF             
MTR04739000001000000000000000RA              00126858    005801220000012200000570000003NN  NNW 000                       N    
RDG04739000WATRL000000004K00000000000000000000000000000000000 000000000000U         000000400  10000000010000001439           
CUS0473900000104129738003         DORSEY DAVID O      7113 YORK RD                            000N        CARE OF             
MTR04739000001000000000000000RA              35116514    005801230000012300000520000003NN  NNW 000                       N    
RDG04739000WATRL000000004K00000000000000000000000000000000000 000000000000U         000000400  10000000010000002798           
CUS0473900000104129739001         MULDERRIG MICHAEL   7115 YORK RD                            000N        CARE OF             
MTR04739000001000000000000000RA              26013483    005801240000012400000520000003NN  NNW 000                       N    
RDG04739000WATRL000000004K00000000000000000000000000000000000 000000000000U         000000400  10000000010000003964           
CUS0473900000104129740009         YOUNG ANDREW J      7117 YORK RD                            000N        CARE OF             
MTR04739000001000000000000000RA              01098766    007501250000012500000610000003NN  NNW 000                       N    
RDG04739000WATRL000000004K00000000000002857004108102015124632N000400000010U40       004480400K 10000000010000002825           
CUS0473900000104129741007         JEFFREY TOOD ANSON  708 HATHERLEIGH RD                      000N        CARE OF             
MTR04739000001000000000000000RA              75616659    005801260000012600000350000003NN  NNW 000                       N    
RDG04739000WATRL000000004K00000000000000160003608102015123259N000000000000U40       000700400K 10000000010000000132           
CUS0473900000104129742005         BRETT MAWHINEY      706 HATHERLEIGH RD                      000N        CARE OF             
MTR04739000001000000000000000RA              35119153    005801270000012700000520000003NN  NNW 000                       N    
RDG04739000WATRL000000004K00000000000002709003508102015123149N000000000000U40       000320400K 10000000010000002690           
CUS0473900000104129743003         WHITMAN ANDREW M    704 HATHERLEIGH RD                      000N        CARE OF             
MTR04739000001000000000000000RA              27820002    005801280000012800000520000003NN  NNW 000                       N    
RDG04739000WATRL000000004K00000000000005202003408102015123117N000300000010U40       000660400K 10000000010000005136           
CUS0473900000104129744001         PARKS JEREMY W      702 HATHERLEIGH RD                      000N        CARE OF             
MTR04739000001000000000000000RA              42810925    005801290000012900000520000003NN  NNW 000                       N    
RDG04739000WATRL000000004K00000000000003170003308102015123011N000300000010U40       000360400K 10000000010000003065           
CUS0473900000104129745008         FLYNN EUGENE P      700 HATHERLEIGH RD                      000N        CARE OF             
MTR04739000001000000000000000RA              35117581    005801300000013000000520000003NN  NNW 000                       N    
RDG04739000WATRL000000004K00000000000002369003208102015122935N000000000000U40       002310400K 10000000010000002343           
CUS0473900000104129746006         CIRELLI JOSEPH C    620 HATHERLEIGH RD                      000N        CARE OF             
MTR04739000001000000000000000RA              22609928    005801310000013100000520000003NN  NNW 000                       N    
RDG04739000WATRL000000004K00000000000005335002808062015073902N000000000000N40       000070400K 10000000010000005309           
CUS0473900000104129747004         TRIVEDI SANJAY M    618 HATHERLEIGH RD                      000N        CARE OF             
MTR04739000001000000000000000RA              99287529    005801320000013200000570000003NN  NNW 000                       N    
RDG04739000WATRL000000004K00000000000003735002708062015073855N000000000000N40       000310400K 10000000010000003702           
CUS0473900000104129748002         COOKE SARA K        616 HATHERLEIGH RD                      000N        CARE OF             
MTR04739000001000000000000000RA              52771035    007501330000013300000520000003NN  NNW 000                       N    
RDG04739000WATRL000000004K00000000000001672002608062015073824N000000000000N40       000990400K 10000000010000001649           
CUS0473900000104129749000         HUMMEL LINDA D      7201 OXFORD RD                          000N        CARE OF             
MTR04739000001000000000000000RA              00126657    005801340000013400000570000003NN  NNW 000                       N    
RDG04739000WATRL000000004K00000000000000563001008062015073223N000000000000N40       000110400K 10000000010000000546           
CUS0473900000104129750008         SALTER JUSTIN C     7203 OXFORD RD                          000N        CARE OF             
MTR04739000001000000000000000RA              50481360    005801350000013500000520000003NN  NNW 000                       N    
RDG04739000WATRL000000004K00000000000001420000908062015073212N000000000000N40       000220400K 10000000010000001412           
CUS0473900000104129751006         BITTINGER DALE      7205 OXFORD RD                          000N        CARE OF             
MTR04739000001000000000000000RA              41590691    005801360000013600000520000003NN  NNW 000                       N    
RDG04739000WATRL000000004K00000000000002713000808062015073150N000000000000N40       000120400K 10000000010000002674           
CUS0473900000104129752004         HINSON THOMAS P     7207 OXFORD RD                          000N        CARE OF             
MTR04739000001000000000000000RA              29686618    005801370000013700000520000003NN  NNW 000                       N    
RDG04739000WATRL000000004K00000000000003440000708062015073138N000000000000N40       001730400K 10000000010000003425           
CUS0473900000104129753002         REYNOLDS ELIZABETA  7209 OXFORD RD                          000N        CARE OF             
MTR04739000001000000000000000RA              23050146    005801380000013800000520000003NN  NNW 000                       N    
RDG04739000WATRL000000004K00000000000003474002708072015075805N000000000000U40       000580400K 10000000010000003462           
CUS0473900000104129754000         SIVARAMAKRISHNAN ANA7211 OXFORD RD                          000N        CARE OF             
MTR04739000001000000000000000RA              01090830    005801390000013900000610000003NN  NNW 000                       N    
RDG04739000WATRL000000004K00000000000001020002808072015075815N000000000000U40       000100400K 10000000010000000999           
CUS0473900000104129755007         NORTON JOSEPH J     7210 OXFORD RD                          000N        CARE OF             
MTR04739000001000000000000000RA              33080424    005801400000014000000520000003NN  NNW 000                       N    
RDG04739000WATRL000000004K00000000000004033002908072015075826N000300000010U40       000110400K 10000000010000003988           
CUS0473900000104129756005         GUTBERLET MARK J    7208 OXFORD RD                          000N        CARE OF             
MTR04739000001000000000000000RA              27823095    005801410000014100000520000003NN  NNW 000                       N    
RDG04739000WATRL000000004K00000000000003782003008072015075834N000000000000U40       000080400K 10000000010000003768           
CUS0473900000104129757003         OFERRALL AGNES B    7206 OXFORD RD                          000N        CARE OF             
MTR04739000001000000000000000RA              01083092    005801420000014200000610000003NN  NNW 000                       N    
RDG04739000WATRL000000004K00000000000001253003108072015075841N000000000000U40       000070400K 10000000010000001236           
CUS0473900000104129758001         NELSON THOMAS J     7204 OXFORD RD                          000N        CARE OF             
MTR04739000001000000000000000RA              29680942    005801430000014300000520000003NN  NNW 000                       N    
RDG04739000WATRL000000004K00000000000002320002508062015073645N000000000000N40       000120400K 10000000010000002291           
CUS0473900000104129759009         STEPHEN H. BIRDSALL 7202 OXFORD RD                          000N        CARE OF             
MTR04739000001000000000000000RA              00126852    005801440000014400000570000003NN  NNW 000                       N    
RDG04739000WATRL000000004K00000000000001437002408072015111646N000000000000N40       006310400K 10000000010000001411           
CUS0473900000104129760007         WIGLESWORTH SHELLEY 7200 OXFORD RD                          000N        CARE OF             
MTR04739000001000000000000000RA              00126849    005801450000014500000570000003NN  NNW 000                       N    
RDG04739000WATRL000000004K00000000000001914002308072015111652N000000000000N40       000060400K 10000000010000001882           
CUS0473900000104129761005         GINTLING MARY       614 HATHERLEIGH RD                      000N        CARE OF             
MTR04739000001000000000000000RA              99309148    007501460000014600000570000003NN  NNW 000                       N    
RDG04739000WATRL000000004K00000000000000863002208072015110515N000000000000N40       000730400K 10000000010000000846           
CUS0473900000104129762003         DONLIN J GREGORY    612 HATHERLEIGH RD                      000N        CARE OF             
MTR04739000001000000000000000RA              99411687    007501470000014700000570000003NN  NNW 000                       N    
RDG04739000WATRL000000004K00000000000001353002108072015110522N000000000000N40       000070400K 10000000010000001329           
CUS0473900000104129763001         WHITEHEAD JEFFREY   610 HATHERLEIGH RD                      000N        CARE OF             
MTR04739000001000000000000000RA              99392249    005801480000014800000570000003NN  NNW 000                       N    
RDG04739000WATRL000000004K00000000000002039002008072015110527N000000000000N40       000050400K 10000000010000002004           
CUS0473900000104129764009         SULLIVAN STEVEN M   608 HATHERLEIGH RD                      000N        CARE OF             
MTR04739000001000000000000000RA              01072222    005801490000014900000610000003NN  NNW 000                       N    
RDG04739000WATRL000000004K00000000000001225001908072015110530N000000000000N40       000030400K 10000000010000001202           
CUS0473900000104129765006         SCHWANKE BRIAN K    606 HATHERLEIGH RD                      000N        CARE OF             
MTR04739000001000000000000000RA              00126859    005801500000015000000570000003NN  NNW 000                       N    
RDG04739000WATRL000000004K00000000000001347001808072015110534N000000000000N40       000040400K 10000000010000001320           
CUS0473900000104129766004         SIMMONS DEREK P     604 HATHERLEIGH RD                      000N        CARE OF             
MTR04739000001000000000000000RA              00136156    005801510000015100000570000003NN  NNW 000                       N    
RDG04739000WATRL000000004K00000000000001373001708072015110544N000300000010N40       000100400K 10000000010000001333           
CUS0473900000104129767002         WIDEMAN SUELLEN     602 HATHERLEIGH RD                      000N        CARE OF             
MTR04739000001000000000000000RA              00126851    005801520000015200000570000003NN  NNW 000                       N    
RDG04739000WATRL000000004K00000000000002299001608072015110552N000000000000N40       000080400K 10000000010000002285           
CUS0473900000104129768000         SUK IAN             600 HATHERLEIGH RD                      000N        CARE OF             
MTR04739000001000000000000000RA              00126856    005801530000015300000570000003NN  NNW 000                       N    
RDG04739000WATRL000000004K00000000000001327001508072015110556N000000000000N40       000040400K 10000000010000001302           
CUS0473900000104129769008         LUSSIER ARTHUR HENRY504 HATHERLEIGH RD                      000N        CARE OF             
MTR04739000001000000000000000RA              32176185    005801540000015400000520000003NN  NNW 000                       N    
RDG04739000WATRL000000004K00000000000003719001408072015110559N000000000000N40       000030400K 10000000010000003697           
CUS0473900000104129770006         BRENNAN TIMOTHY S   502 HATHERLEIGH RD                      000N        CARE OF             
MTR04739000001000000000000000RA              26004964    005801550000015500000520000003NN  NNW 000                       N    
RDG04739000WATRL000000004K00000000000003356001308072015110604N000000000000N40       000050400K 10000000010000003335           
CUS0473900000104129771004         TOOHEY WILLIAM J    500 HATHERLEIGH RD                      000N        CARE OF             
MTR04739000001000000000000000RA              01107367    005801560000015600000610000003NN  NNW 000                       N    
RDG04739000WATRL000000004K00000000000000899001208072015110607N000000000000N40       000030400K 10000000010000000878           
CUS0473900000104129772002         VIKELL ALBERT S     7201 YORK RD                            000N        CARE OF             
MTR04739000001000000000000000RA              10013869    005801570000015700000570000003NN  NNW 000                       N    
RDG04739000WATRL000000004K00000000000000209001108062015073321N000100000010N40       000580400K 10000000010000000209           
RTR04739000NN01570157000001570000000001570157000505NY015701570157000700000000000000000000000001    07082015NY020000 N         
RHD04764200NN02940294000002940000000002940294000405NY029402940294000000020000000000000000000001    07082015NY020000 N         
CUS0476420000104139412003         MOORE ERNESTINE B  M9301 WALTHAM WOODS RD                   000N        CARE OF             
MTR04764200001000000000000000RA              23648689    005800010000000100000520000003NN  NNW 000                       N    
RDG04764200WATRL000000004K00000000000001727022808062015085836N000000000040N40       000690400K 10000000010000001726           
CUS0476420000104139413001         TRAN DUY LAN THI    9303 WALTHAM WOODS RD                   000N        CARE OF             
MTR04764200001000000000000000RA              23648525    005800020000000200000520000003NN  NNW 000                       N    
RDG04764200WATRL000000004K00000000000004745022908062015085858N000000000020N40       000220400K 10000000010000004729           
CUS0476420000104139414009         DUTY BRIAN J        9305 WALTHAM WOODS RD                   000N        CARE OF             
MTR04764200001000000000000000RA              23648523    005800030000000300000520000003NN  NNW 000                       N    
RDG04764200WATRL000000004K00000000000003383023008062015085901N000000000000N40       000030400K 10000000010000003372           
CUS0476420000104139415006         LUSBY RUSSELL D     9307 WALTHAM WOODS RD                   000N        CARE OF             
MTR04764200001000000000000000RA              23648632    005800040000000400000520000003NN  NNW 000                       N    
RDG04764200WATRL000000004K00000000000004769023108062015085914N000000000020N40       000130400K 10000000010000004751           
CUS0476420000104139416004         WELMS JAMES T       2601 BRADWELL CT                        000N        CARE OF             
MTR04764200001000000000000000RA              23648947    005800050000000500000520000003NN  NNW 000                       N    
RDG04764200WATRL000000004K00000000000004936023208062015085925N000000000000N40       000110400K 10000000010000004926           
CUS0476420000104139417002         KADOO NITIN L       2603 BRADWELL CT                        000N        CARE OF             
MTR04764200001000000000000000RA              10007540    005800060000000600000570000003NN  NNW 000                       N    
RDG04764200WATRL000000004K00000000000000369023308062015090000N000000000000N40       000350400K 10000000010000000356           
CUS0476420000104139418000         STORCK ROBERT E,JR  2605 BRADWELL CT                        000N        CARE OF             
MTR04764200001000000000000000RA              23648894    005800070000000700000520000003NN  NNW 000                       N    
RDG04764200WATRL000000004K00000000000002689023408062015090038N000000000000N40       000380400K 10000000010000002675           
CUS0476420000104139419008         TABI YAW ADADE      2607 BRADWELL CT                        000N        CARE OF             
MTR04764200001000000000000000RA              46887426    005800080000000800000520000003NN  NNW 000                       N    
RDG04764200WATRL000000004K00000000000001697023508062015090042N000000000000N40       000040400K 10000000010000001684           
CUS0476420000104139420006         COLLIGAN HOWARD M   2609 BRADWELL CT                        000N        CARE OF             
MTR04764200001000000000000000RA              23841618    005800090000000900000520000003NN  NNW 000                       N    
RDG04764200WATRL000000004K00000000000006879023608062015090131N000000000000N40       000490400K 10000000010000006872           
CUS0476420000104139421004         BENJAMIN P ZUBROWSKI2611 BRADWELL CT                        000N        CARE OF             
MTR04764200001000000000000000RA              01099879    005800100000001000000610000003NN  NNW 000                       N    
RDG04764200WATRL000000004K00000000000001144023708062015090135N000000000000N40       000040400K 10000000010000001137           
CUS0476420000104139422002         CORDELL RICHARD E   2613 BRADWELL CT                        000N        CARE OF             
MTR04764200001000000000000000RA              78024116    005800110000001100000360000003NN  NNW 000                       N    
RDG04764200WATRL000000004K00000000000000000023808062015090138S001000000000N40       000030400K 10000000010000000019           
CUS0476420000104139423000         ADDICKS PETER F,3RD 2615 BRADWELL CT                        000N        CARE OF             
MTR04764200001000000000000000RA              99187810    005800120000001200000570000003NN  NNW 000                       N    
RDG04764200WATRL000000004K00000000000001093023908062015090142N000000000000N40       000040400K 10000000010000001083           
CUS0476420000104139424008         CINCOTTA THOMAS A   2617 BRADWELL CT                        000N        CARE OF             
MTR04764200001000000000000000RA              26001284    005800130000001300000520000003NN  NNW 000                       N    
RDG04764200WATRL000000004K00000000000005844024008062015090145N000000000000N40       000030400K 10000000010000005832           
CUS0476420000104139425005         JAMES SHIRLEY       2619 BRADWELL CT                        000N        CARE OF             
MTR04764200001000000000000000RA              52289920    005800140000001400000520000003NN  NNW 000                       N    
RDG04764200WATRL000000004K00000000000001531024108062015090229N000000000091N40       000180400K 10000000010000001485           
CUS0476420000104139426003         SCHANBERGER HARRY   2618 BRADWELL CT                        000N        CARE OF             
MTR04764200001000000000000000RA              23648485    005800150000001500000520000003NN  NNW 000                       N    
RDG04764200WATRL000000004K00000000000006509024208062015090307N000000000000N40       000380400K 10000000010000006501           
CUS0476420000104139427001         MOFFETT PHILIP E    2616 BRADWELL CT                        000N        CARE OF             
MTR04764200001000000000000000RA              20767449    005800160000001600000520000003NN  NNW 000                       N    
RDG04764200WATRL000000004K00000000000004833024308062015090311N000000000000N40       000040400K 10000000010000004822           
CUS0476420000104139428009         PATRICK GIBBONS     2614 BRADWELL CT                        000N        CARE OF             
MTR04764200001000000000000000RA              23427263    005800170000001700000520000003NN  NNW 000                       N    
RDG04764200WATRL000000004K00000000000003141024408062015090317N000000000000N40       000060400K 10000000010000003130           
CUS0476420000104139429007         SCHOLZ CARL         2612 BRADWELL CT                        000N        CARE OF             
MTR04764200001000000000000000RA              23059562    005800180000001800000520000003NN  NNW 000                       N    
RDG04764200WATRL000000004K00000000000004569024508062015090331N000000000010N40       000140400K 10000000010000004556           
CUS0476420000104139430005         SCHRUEFER JOHN A,JR 2610 BRADWELL CT                        000N        CARE OF             
MTR04764200001000000000000000RA              10007721    005800190000001900000570000003NN  NNW 000                       N    
RDG04764200WATRL000000004K00000000000000415024608062015090401N000000000020N40       000300400K 10000000010000000400           
CUS0476420000104139431003         OSHEA JOSEPH M      2608 BRADWELL CT                        000N        CARE OF             
MTR04764200001000000000000000RA              01111668    005800200000002000000610000003NN  NNW 000                       N    
RDG04764200WATRL000000004K00000000000000953024708062015090513N000000000000N40       000720400K 10000000010000000942           
CUS0476420000104139432001         CHARLES A BAKER     9311 WALTHAM WOODS RD                   000N        CARE OF             
MTR04764200001000000000000000RA              14905012    005800210000002100000310000003NN  NNW 000                       N    
RDG04764200WATRL000000004K00000000000000836024808062015090516N000000000000N40       000030400K 10000000010000000824           
CUS0476420000104139433009         TRIPLETT CHARLES ROB9313 WALTHAM WOODS RD                   000N        CARE OF             
MTR04764200001000000000000000RA              24231298    005800220000002200000520000003NN  NNW 000                       N    
RDG04764200WATRL000000004K00000000000006249024908062015090519N000000000000N40       000030400K 10000000010000006239           
CUS0476420000104139434007         HUNTLEY CHARLES S,SR9315 WALTHAM WOODS RD                   000N        CARE OF             
MTR04764200001000000000000000RA              23427023    005800230000002300000520000003NN  NNW 000                       N    
RDG04764200WATRL000000004K00000000000004621025008062015131555N000000000020N40       150360400K 10000000010000004608           
CUS0476420000104139435004         SCHERRER DAWN M     9317 WALTHAM WOODS RD                   000N        CARE OF             
MTR04764200001000000000000000RA              23427024    005800240000002400000520000003NN  NNW 000                       N    
RDG04764200WATRL000000004K00000000000006539025108062015131601N000000000000N40       000060400K 10000000010000006528           
CUS0476420000104139436002         BIENSTOCK NICOLE    9319 WALTHAM WOODS RD                   000N        CARE OF             
MTR04764200001000000000000000RA              48591209    005800250000002500000520000003NN  NNW 000                       N    
RDG04764200WATRL000000004K00000000000001477025208062015131603N000000000000N40       000020400K 10000000010000001465           
CUS0476420000104139437000         ALFORD ROBERT       9321 WALTHAM WOODS RD                   000N        CARE OF             
MTR04764200001000000000000000RA              24221866    005800260000002600000520000003NN  NNW 000                       N    
RDG04764200WATRL000000004K00000000000003789025308062015131608N000000000000N40       000050400K 10000000010000003783           
CUS0476420000104139438008         SEARS RUSS          9323 WALTHAM WOODS RD                   000N        CARE OF             
MTR04764200001000000000000000RA              23842764    005800270000002700000520000003NN  NNW 000                       N    
RDG04764200WATRL000000004K00000000000004286025408062015131613N000000000000N40       000050400K 10000000010000004275           
CUS0476420000104139439006         MILLER BRIAN P      9325 WALTHAM WOODS RD                   000N        CARE OF             
MTR04764200001000000000000000RA              23648670    005800280000002800000520000003NN  NNW 000                       N    
RDG04764200WATRL000000004K00000000000003436025508062015131623N000000000020N40       000100400K 10000000010000003420           
CUS0476420000104139440004         FARINETTI LAWRENCE E2601 MEADOWLAND CT                      000N        CARE OF             
MTR04764200001000000000000000RA              24221866    005800290000002900000520000003NN  NNW 000                       N    
RDG04764200WATRL000000004K00000000000003766025608062015131625N000000000000N40       000020400K 10000000010000003755           
CUS0476420000104139441002         SNYDER IRMA LINDA   2603 MEADOWLAND CT                      000N        CARE OF             
MTR04764200001000000000000000RA              14921812    005800300000003000000310000003NN  NNW 000                       N    
RDG04764200WATRL000000004K00000000000000288025708062015131629N000000000000N40       000040400K 10000000010000000277           
CUS0476420000104139442000         GREGORY PAUL F      2605 MEADOWLAND CT                      000N        CARE OF             
MTR04764200001000000000000000RA              01103821    005800310000003100000610000003NN  NNW 000                       N    
RDG04764200WATRL000000004K00000000000001126025808062015131634N000000000000N40       000050400K 10000000010000001115           
CUS0476420000104139443008         SECRIST C JANE      2607 MEADOWLAND CT                      000N        CARE OF             
MTR04764200001000000000000000RA              24232678    005800320000003200000520000003NN  NNW 000                       N    
RDG04764200WATRL000000004K00000000000004800025908062015131639N000000000000N40       000050400K 10000000010000004800           
CUS0476420000104139444006         BOEHK ANTHONY A     2609 MEADOWLAND CT                      000N        CARE OF             
MTR04764200001000000000000000RA              24232524    005800330000003300000520000003NN  NNW 000                       N    
RDG04764200WATRL000000004K00000000000003541026008062015131646N000000000010N40       000070400K 10000000010000003522           
CUS0476420000104139445003         SMITH VIDA M        2611 MEADOWLAND CT                      000N        CARE OF             
MTR04764200001000000000000000RA              23648528    005800340000003400000520000003NN  NNW 000                       N    
RDG04764200WATRL000000004K00000000000004963026108062015131649N000000000000N40       000030400K 10000000010000004953           
CUS0476420000104139446001         KELLY MARY THERESA  2613 MEADOWLAND CT                      000N        CARE OF             
MTR04764200001000000000000000RA              10022937    005800350000003500000570000003NN  NNW 000                       N    
RDG04764200WATRL000000004K00000000000000444026208062015131707N000000000050N40       000180400K 10000000010000000410           
CUS0476420000104139447009         DISHAROON RICHARD A 2615 MEADOWLAND CT                      000N        CARE OF             
MTR04764200001000000000000000RA              24232116    005800360000003600000520000003NN  NNW 000                       N    
RDG04764200WATRL000000004K00000000000006968026308062015131713N000000000000N40       000060400K 10000000010000006957           
CUS0476420000104139448007         BENSTOCK DAVID M    2617 MEADOWLAND CT                      000N        CARE OF             
MTR04764200001000000000000000RA              46888901    005800370000003700000520000003NN  NNW 000                       N    
RDG04764200WATRL000000004K00000000000004576026408062015131723N000000000030N40       000100400K 10000000010000004555           
CUS0476420000104139449005         FOX JAMES R         2619 MEADOWLAND CT                      000N        CARE OF             
MTR04764200001000000000000000RA              31582009    005800380000003800000520000003NN  NNW 000                       N    
RDG04764200WATRL000000004K00000000000003471026508062015131729N000000000010N40       000060400K 10000000010000003471           
CUS0476420000104139450003         TAFF ROY R.JR       2614 MEADOWLAND CT                      000N        CARE OF             
MTR04764200001000000000000000RA              24770576    005800390000003900000520000003NN  NNW 000                       N    
RDG04764200WATRL000000004K00000000000004930026608062015131742N000000000020N40       000130400K 10000000010000004913           
CUS0476420000104139451001         COX HUGHIE J        2612 MEADOWLAND CT                      000N        CARE OF             
MTR04764200001000000000000000RA              24229959    005800400000004000000520000003NN  NNW 000                       N    
RDG04764200WATRL000000004K00000000000004477026708062015131745N000000000000N40       000030400K 10000000010000004463           
CUS0476420000104139452009         DIPAOLA JOSEPH P    2610 MEADOWLAND CT                      000N        CARE OF             
MTR04764200001000000000000000RA              24231415    005800410000004100000520000003NN  NNW 000                       N    
RDG04764200WATRL000000004K00000000000006655026808062015131749N000000000000N40       000040400K 10000000010000006644           
CUS0476420000104139453007         BAGSTER-COLLINS JONA2608 MEADOWLAND CT                      000N        CARE OF             
MTR04764200001000000000000000RA              24231658    005800420000004200000520000003NN  NNW 000                       N    
RDG04764200WATRL000000004K00000000000004896026908062015131752N000000000000N40       000030400K 10000000010000004883           
CUS0476420000104139454005         PECK DAVID          2606 MEADOWLAND CT                      000N        CARE OF             
MTR04764200001000000000000000RA              10002596    005800430000004300000570000003NN  NNW 000                       N    
RDG04764200WATRL000000004K00000000000000419027008062015131754N000000000000N40       000020400K 10000000010000000408           
CUS0476420000104139455002         STRAUCH KARL F      2604 MEADOWLAND CT                      000N        CARE OF             
MTR04764200001000000000000000RA              35104481    005800440000004400000520000003NN  NNW 000                       N    
RDG04764200WATRL000000004K00000000000003326027108062015131759N000000000000N40       000050400K 10000000010000003317           
CUS0476420000104139456000         MURPHY WILLIAM J    2602 MEADOWLAND CT                      000N        CARE OF             
MTR04764200001000000000000000RA              24232114    005800450000004500000520000003NN  NNW 000                       N    
RDG04764200WATRL000000004K00000000000005463027208062015131802N000000000000N40       000030400K 10000000010000005452           
CUS0476420000104139457008         FAIRMAN ROBERT D    2600 MEADOWLAND CT                      000N        CARE OF             
MTR04764200001000000000000000RA              10016719    005800460000004600000570000003NN  NNW 000                       N    
RDG04764200WATRL000000004K00000000000000219027308062015131804N000000000000N40       000020400K 10000000010000000208           
CUS0476420000104139458006         CHARLES J DIPAULA JR9400 WALTHAM WOODS RD                   000N        CARE OF             
MTR04764200001000000000000000RA              24231330    005800470000004700000520000003NN  NNW 000                       N    
RDG04764200WATRL000000004K00000000000004918027408062015131808N000000000000N40       000040400K 10000000010000004908           
CUS0476420000104139459004         SHADUK FREDERICK G  2504 GRAMERCY CIR                       000N        CARE OF             
MTR04764200001000000000000000RA              24765196    005800480000004800000520000003NN  NNW 000                       N    
RDG04764200WATRL000000004K00000000000004131027508062015131812N000000000000N40       000040400K 10000000010000004120           
CUS0476420000104139460002         BURNS ANDREW J,JR   2502 GRAMERCY CIR                       000N        CARE OF             
MTR04764200001000000000000000RA              24231358    005800490000004900000520000003NN  NNW 000                       N    
RDG04764200WATRL000000004K00000000000003691027608062015131816N000000000000N40       000040400K 10000000010000003683           
CUS0476420000104139461000         ZALESKI THEODORE,JR 2500 GRAMERCY CIR                       000N        CARE OF             
MTR04764200001000000000000000RA              24226318    005800500000005000000520000003NN  NNW 000                       N    
RDG04764200WATRL000000004K00000000000005191027708062015131820N000000000000N40       000040400K 10000000010000005182           
CUS0476420000104139462008         ROBERTSON GEORGE F  2501 GRAMERCY CIR                       000N        CARE OF             
MTR04764200001000000000000000RA              52289922    005800510000005100000520000003NN  NNW 000                       N    
RDG04764200WATRL000000004K00000000000002239027808062015131824N000000000000N40       000040400K 10000000010000002227           
CUS0476420000104139463006         IRWIN JOHN R        2503 GRAMERCY CIR                       000N        CARE OF             
MTR04764200001000000000000000RA              10015931    005800520000005200000570000003NN  NNW 000                       N    
RDG04764200WATRL000000004K00000000000000177027908062015131829N000000000000N40       000050400K 10000000010000000164           
CUS0476420000104139464004         GREENE LINDA        9328 WALTHAM WOODS RD                   000N        CARE OF             
MTR04764200001000000000000000RA              45381510    005800530000005300000520000003NN  NNW 000                       N    
RDG04764200WATRL000000004K00000000000003331028008062015131837N000000000010N40       000080400K 10000000010000003316           
CUS0476420000104139465001         FORWARD VISION INC  9326 WALTHAM WOODS RD                   000N        CARE OF             
MTR04764200001000000000000000RA              24221864    005800540000005400000520000003NN  NNW 000                       N    
RDG04764200WATRL000000004K00000000000006589028108062015131857N000000000061N40       000090400K 10000000010000006565           
CUS0476420000104139466009         DICE NICK L         9324 WALTHAM WOODS RD                   000N        CARE OF             
MTR04764200001000000000000000RA              24232119    005800550000005500000520000003NN  NNW 000                       N    
RDG04764200WATRL000000004K00000000000004609028208062015131901N000000000000N40       000040400K 10000000010000004599           
CUS0476420000104139467007         NORMAN OCTAVIO      9322 WALTHAM WOODS RD                   000N        CARE OF             
MTR04764200001000000000000000RA              44172267    005800560000005600000520000003NN  NNW 000                       N    
RDG04764200WATRL000000004K00000000000001755028308062015131903N000000000000N40       000020400K 10000000010000001745           
CUS0476420000104139468005         SMITH DENNIS C      9320 WALTHAM WOODS RD                   000N        CARE OF             
MTR04764200001000000000000000RA              50789449    005800570000005700000520000003NN  NNW 000                       N    
RDG04764200WATRL000000004K00000000000002277028408062015131907N000000000000N40       000040400K 10000000010000002269           
CUS0476420000104139469003         WATSON GREGORY E,SR 9318 WALTHAM WOODS RD                   000N        CARE OF             
MTR04764200001000000000000000RA              23050846    005800580000005800000520000003NN  NNW 000                       N    
RDG04764200WATRL000000004K00000000000005421028508062015131909N000000000000N40       000020400K 10000000010000005412           
CUS0476420000104139470001         MCCANN DAVID E      9316 WALTHAM WOODS RD                   000N        CARE OF             
MTR04764200001000000000000000RA              45375698    005800590000005900000520000003NN  NNW 000                       N    
RDG04764200WATRL000000004K00000000000004221028608062015131915N000000000010N40       000060400K 10000000010000004200           
CUS0476420000104139471009         KUKREJA LACHMAN D   9314 WALTHAM WOODS RD                   000N        CARE OF             
MTR04764200001000000000000000RA              23050473    005800600000006000000520000003NN  NNW 000                       N    
RDG04764200WATRL000000004K00000000000008519028708062015131920N000000000000N40       000050400K 10000000010000008508           
CUS0476420000104139472007         CHANG CHAN KYU      9312 WALTHAM WOODS RD                   000N        CARE OF             
MTR04764200001000000000000000RA              01097254    005800610000006100000610000003NN  NNW 000                       N    
RDG04764200WATRL000000004K00000000000001376028808062015131934N000000000031N40       000040400K 10000000010000001376           
CUS0476420000104139473005         WITZEN KIRK R       9310 WALTHAM WOODS RD                   000N        CARE OF             
MTR04764200001000000000000000RA              23050028    005800620000006200000520000003NN  NNW 000                       N    
RDG04764200WATRL000000004K00000000000006889028908062015131939N000000000000N40       000050400K 10000000010000006875           
CUS0476420000104139474003         DUNN NEWTON CHRISTIA9308 WALTHAM WOODS RD                   000N        CARE OF             
MTR04764200001000000000000000RA              50788821    005800630000006300000520000003NN  NNW 000                       N    
RDG04764200WATRL000000004K00000000000000569029008062015131943N000000000000N40       000040400K 10000000010000000559           
CUS0476420000104139475000         WESTERVELT JAMES R,J9306 WALTHAM WOODS RD                   000N        CARE OF             
MTR04764200001000000000000000RA              36693874    005800640000006400000520000003NN  NNW 000                       N    
RDG04764200WATRL000000004K00000000000003486029108062015132003N000000000041N40       000100400K 10000000010000003474           
CUS0476420000104139476008         SONG JIN SOP        9304 WALTHAM WOODS RD                   000N        CARE OF             
MTR04764200001000000000000000RA              23050468    005800650000006500000520000003NN  NNW 000                       N    
RDG04764200WATRL000000004K00000000000003951029208062015132006N000000000000N40       000030400K 10000000010000003943           
CUS0476420000104139477006         JAMES METIVIER      9302 WALTHAM WOODS RD                   000N        CARE OF             
MTR04764200001000000000000000RA              50787878    005800660000006600000520000003NN  NNW 000                       N    
RDG04764200WATRL000000004K00000000000002031029308062015132009N000000000000N40       000030400K 10000000010000002020           
CUS0476420000104139478004         SALAMONE THERESA    9300 WALTHAM WOODS RD                   000N        CARE OF             
MTR04764200001000000000000000RA              32903873    005800670000006700000520000003NN  NNW 000                       N    
RDG04764200WATRL000000004K00000000000002047029408062015132055N000100000091N40       000200400K 10000000010000002047           
CUS0476420000104361590005         SINSKY ELLWOOD A    9250 WOOD CREEK CT                      000N        CARE OF             
MTR04764200001000000000000000RA              10009707    005800680000006800000570000003NN  NNW 000                       N    
RDG04764200WATRL000000004K00000000000000742011608062015072935N000000000000N40       000240400K 10000000010000000716           
CUS0476420000104361591003         SINSKY ELLWOOD A    9248 WOOD CREEK CT                      000N        CARE OF             
MTR04764200001000000000000000RA              30513822    005800690000006900000520000003NN  NNW 000                       N    
RDG04764200WATRL000000004K00000000000002784011708062015072942N000000000000N40       000070400K 10000000010000002763           
CUS0476420000104361592001         SINSKY ELLWOOD A    9246 WOOD CREEK CT                      000N        CARE OF             
MTR04764200001000000000000000RA              30513824    005800700000007000000520000003NN  NNW 000                       N    
RDG04764200WATRL000000004K00000000000003691011408062015072909N000000000000N40       000260400K 10000000010000003663           
CUS0476420000104361593009         SINSKY ELLWOOD A    9244 WOOD CREEK CT                      000N        CARE OF             
MTR04764200001000000000000000RA              30513827    005800710000007100000520000003NN  NNW 000                       N    
RDG04764200WATRL000000004K00000000000002944011508062015072911N000000000000N40       000020400K 10000000010000002928           
CUS0476420000104361594007         SINSKY ELLWOOD A    9242 WOOD CREEK CT                      000N        CARE OF             
MTR04764200001000000000000000RA              99293622    005800720000007200000570000003NN  NNW 000                       N    
RDG04764200WATRL000000004K00000000000001762011208062015072839N000000000000N40       000290400K 10000000010000001750           
CUS0476420000104361595004         SINSKY ELLWOOD A    9240 WOOD CREEK CT                      000N        CARE OF             
MTR04764200001000000000000000RA              10010287    005800730000007300000570000003NN  NNW 000                       N    
RDG04764200WATRL000000004K00000000000000765011308062015072843N000000000000N40       000040400K 10000000010000000732           
CUS0476420000108361628004         SINSKY ELLWOOD A    9238 WOOD CREEK CT                      000N        CARE OF             
MTR04764200001000000000000000RA              14900157    005800740000007400000310000003NN  NNW 000                       N    
RDG04764200WATRL000000004K00000000000001197011008062015072804N000000000000N40       000550400K 10000000010000001160           
CUS0476420000104361596002         SINSKY ELLWOOD A    9236 WOOD CREEK CT                      000N        CARE OF             
MTR04764200001000000000000000RA              14915888    005800750000007500000310000003NN  NNW 000                       N    
RDG04764200WATRL000000004K00000000000000919011108062015072810N000000000000N40       000060400K 10000000010000000899           
CUS0476420000104364249005         SINSKY ELLWOOD A    9234 WOOD CREEK CT                      000N        CARE OF             
MTR04764200001000000000000000RA              45379259    005800760000007600000520000003NN  NNW 000                       N    
RDG04764200WATRL000000004K00000000000001776010808062015072702N000000000000N40       000350400K 10000000010000001748           
CUS0476420000104364250003         SINSKY ELLWOOD A    9232 WOOD CREEK CT                      000N        CARE OF             
MTR04764200001000000000000000RA              30518213    005800770000007700000520000003NN  NNW 000                       N    
RDG04764200WATRL000000004K00000000000003768010908062015072709N000400000010N40       000070400K 10000000010000003765           
CUS0476420000104364251001         SINSKY ELLWOOD A    9230 WOOD CREEK CT                      000N        CARE OF             
MTR04764200001000000000000000RA              30518204    005800780000007800000520000003NN  NNW 000                       N    
RDG04764200WATRL000000004K00000000000002545010608062015072624N000000000000N40       000290400K 10000000010000002529           
CUS0476420000104364252009         SINSKY ELLWOOD A    9228 WOOD CREEK CT                      000N        CARE OF             
MTR04764200001000000000000000RA              30518215    005800790000007900000520000003NN  NNW 000                       N    
RDG04764200WATRL000000004K00000000000003819010708062015072627N000000000000N40       000030400K 10000000010000003794           
CUS0476420000104364253007         SINSKY ELLWOOD A    9226 WOOD CREEK CT                      000N        CARE OF             
MTR04764200001000000000000000RA              30516846    005800800000008000000520000003NN  NNW 000                       N    
RDG04764200WATRL000000004K00000000000003425010408062015072552N000000000000N40       000210400K 10000000010000003400           
CUS0476420000104364254005         SINSKY ELLWOOD A    9224 WOOD CREEK CT                      000N        CARE OF             
MTR04764200001000000000000000RA              30518208    005800810000008100000520000003NN  NNW 000                       N    
RDG04764200WATRL000000004K00000000000003952010508062015072555N000000000000N40       000030400K 10000000010000003933           
CUS0476420000104364255002         SINSKY ELLWOOD A    9222 WOOD CREEK CT                      000N        CARE OF             
MTR04764200001000000000000000RA              30516851    005800820000008200000520000003NN  NNW 000                       N    
RDG04764200WATRL000000004K00000000000003270010208062015072529N000000000000N40       000210400K 10000000010000003253           
CUS0476420000104364256000         SINSKY ELLWOOD A    9220 WOOD CREEK CT                      000N        CARE OF             
MTR04764200001000000000000000RA              30518207    005800830000008300000520000003NN  NNW 000                       N    
RDG04764200WATRL000000004K00000000000003844010308062015072531N000000000000N40       000020400K 10000000010000003826           
CUS0476420000104364257008         SINSKY ELLWOOD A    9218 WOOD CREEK CT                      000N        CARE OF             
MTR04764200001000000000000000RA              35118677    005800840000008400000520000003NN  NNW 000                       N    
RDG04764200WATRL000000004K00000000000003861010008062015072502N000000000000N40       002070400K 10000000010000003826           
CUS0476420000104364258006         SINSKY ELLWOOD A    9216 WOOD CREEK CT                      000N        CARE OF             
MTR04764200001000000000000000RA              35118621    005800850000008500000520000003NN  NNW 000                       N    
RDG04764200WATRL000000004K00000000000003687010108062015072508N000000000000N40       000060400K 10000000010000003661           
CUS0476420000104352846002         OWENS MARK R        9221 BELLBECK RD                        000N        CARE OF             
MTR04764200001000000000000000RA              30515686    005800860000008600000520000003NN  NNW 000                       N    
RDG04764200WATRL000000004K00000000000004995015808062015075424N000000000000N40       002260400K 10000000010000004959           
CUS0476420000104352847000         LONGENECKER RACHEL M9223 BELLBECK RD                        000N        CARE OF             
MTR04764200001000000000000000RA              29680340    005800870000008700000520000003NN  NNW 000                       N    
RDG04764200WATRL000000004K00000000000002581015908062015075428N000000000000N40       000040400K 10000000010000002566           
CUS0476420000104352848008         SHANNON DANIEL M    9225 BELLBECK RD                        000N        CARE OF             
MTR04764200001000000000000000RA              29082138    005800880000008800000520000003NN  NNW 000                       N    
RDG04764200WATRL000000004K00000000000002787016008062015075459N000300000010N40       000310400K 10000000010000002781           
CUS0476420000104352849006         LOEB ANDREA B       9227 BELLBECK RD                        000N        CARE OF             
MTR04764200001000000000000000RA              52289924    005800890000008900000520000003NN  NNW 000                       N    
RDG04764200WATRL000000004K00000000000001639016108062015075504N000300000010N40       000050400K 10000000010000001597           
CUS0476420000104352850004         VAUGHAN KATHYRN     9229 BELLBECK RD                        000N        CARE OF             
MTR04764200001000000000000000RA              01086084    005800900000009000000610000003NN  NNW 000                       N    
RDG04764200WATRL000000004K00000000000001133016208062015075530N000000000000N40       000260400K 10000000010000001118           
CUS0476420000104352851002         CLOUGH MARY A       9231 BELLBECK RD                        000N        CARE OF             
MTR04764200001000000000000000RA              01086083    005800910000009100000610000003NN  NNW 000                       N    
RDG04764200WATRL000000004K00000000000000947016308062015075535N000000000000N40       000050400K 10000000010000000931           
CUS0476420000104352852000         MANTZ WALTER A      9233 BELLBECK RD                        000N        CARE OF             
MTR04764200001000000000000000RA              29679886    005800920000009200000520000003NN  NNW 000                       N    
RDG04764200WATRL000000004K00000000000005188016408062015075600N000000000000N40       000250400K 10000000010000005181           
CUS0476420000104352853008         TOLLE MICHAEL W     9235 BELLBECK RD                        000N        CARE OF             
MTR04764200001000000000000000RA              27133647    005800930000009300000520000003NN  NNW 000                       N    
RDG04764200WATRL000000004K00000000000004599016508062015075603N000000000000N40       000030400K 10000000010000004583           
CUS0476420000104352854006         GREEN WANDA M       9237 BELLBECK RD                        000N        CARE OF             
MTR04764200001000000000000000RA              29082143    005800940000009400000520000003NN  NNW 000                       N    
RDG04764200WATRL000000004K00000000000003145016608062015075631N000000000000N40       000280400K 10000000010000003133           
CUS0476420000104352855003         MICHAEL WEBSTER     9239 BELLBECK RD                        000N        CARE OF             
MTR04764200001000000000000000RA              29082059    005800950000009500000520000003NN  NNW 000                       N    
RDG04764200WATRL000000004K00000000000002390016708062015075635N000000000000N40       000040400K 10000000010000002384           
CUS0476420000104352856001         REHM CHARLES R      9241 BELLBECK RD                        000N        CARE OF             
MTR04764200001000000000000000RA              29082140    005800960000009600000520000003NN  NNW 000                       N    
RDG04764200WATRL000000004K00000000000003287016808062015075701N000000000000N40       000260400K 10000000010000003271           
CUS0476420000104361574009         SHAHZAD AAMIR       9243 BELLBECK RD                        000N        CARE OF             
MTR04764200001000000000000000RA              30513556    005800970000009700000520000003NN  NNW 000                       N    
RDG04764200WATRL000000004K00000000000005739016908062015075704N000000000000N40       000030400K 10000000010000005672           
CUS0476420000104361566005         BRYAN M. ZILLIG     9245 BELLBECK RD                        000N        CARE OF             
MTR04764200001000000000000000RA              30513557    005800980000009800000520000003NN  NNW 000                       N    
RDG04764200WATRL000000004K00000000000002153017008062015075732N000000000000N40       000280400K 10000000010000002133           
CUS0476420000104361567003         HESEL TODD          9247 BELLBECK RD                        000N        CARE OF             
MTR04764200001000000000000000RA              30513555    005800990000009900000520000003NN  NNW 000                       N    
RDG04764200WATRL000000004K00000000000003278017108062015075739N000000000000N40       000070400K 10000000010000003268           
CUS0476420000104361568001         DEMANSS MARY W      9249 BELLBECK RD                        000N        CARE OF             
MTR04764200001000000000000000RA              10003858    005801000000010000000570000003NN  NNW 000                       N    
RDG04764200WATRL000000004K00000000000000466017208062015075804N000000000000N40       000250400K 10000000010000000453           
CUS0476420000104361569009         LOCCO MARIO         9251 BELLBECK RD                        000N        CARE OF             
MTR04764200001000000000000000RA              30513554    005801010000010100000520000003NN  NNW 000                       N    
RDG04764200WATRL000000004K00000000000004922017308062015075808N000000000000N40       000040400K 10000000010000004904           
CUS0476420000104361570007         YOO YOUNG SOO       9253 BELLBECK RD                        000N        CARE OF             
MTR04764200001000000000000000RA              10023259    005801020000010200000570000003NN  NNW 000                       N    
RDG04764200WATRL000000004K00000000000000386017408062015075830N000000000000N40       000220400K 10000000010000000341           
CUS0476420000104361571005         HRDLICK MARY CECELIA9255 BELLBECK RD                        000N        CARE OF             
