FHDNNNN025005570005570005570N                                                                                           017243
RHD02176000NN00660130000000660000006401300130000179NY013001300130000300010000000000000000000001    07302015NY020000 N         
CUS0217600000102320808005         WELLS, DAVID        203 DEEPDENE RD                         000N        CARE OF             
MTR02176000001000000000000000RA              78942592    005800010000000100000360000003NN  NNW 000                       N    
RDG02176000WATR 000000004R00000000000000007000008192015170000N0003000000?0N         000000400R 10000000010000000000           
RFF0217600069052303      ERT      0000  956.44375000140000081920151700000000074048100W 1220000N                               
CUS0217600000102320809003         DENNIS J KUTZER & WF201 DEEPDENE RD                         000N        CARE OF             
MTR02176000001000000000000000RA              9684060     005800020000000200000570000003NN  NNW 000                       N    
RDG02176000WATRL000000004K00000000000000000000000000000000000 000000000000U         000000400  10000000010000006486           
CUS0217600000102320810001         POPE, CHRISTOPHER A 115 DEEPDENE RD                         000N        CARE OF             
MTR02176000001000000000000000RA              75613833    005800030000000300000360000003NN  NNW 000                       N    
RDG02176000WATR 000000004R00000000000000179000008192015190000N0003000000?0N         000000400R 10000000010000000164           
RFF0217600069010872      ERT      0000  956.44375000140000081920151900000001793661100W 1220000N                               
CUS0217600000102320811009         LOCKE, DAVID E      113 DEEPDENE RD                         000N        CARE OF             
MTR02176000001000000000000000RA              78942596    005800040000000400000360000003NN  NNW 000                       N    
RDG02176000WATR 000000004R00000000000000012000008192015180000N0003000000?0N         000000400R 10000000010000000000           
RFF0217600069052317      ERT      0000  956.44375000140000081920151800000000120879100W 1220000N                               
CUS0217600000102320812007         SIDNEY BROWER & WF  111 DEEPDENE RD                         000N        CARE OF             
MTR02176000001000000000000000RA              78942594    005800050000000500000360000003NN  NNW 000                       N    
RDG02176000WATR 000000004R00000000000000022000008192015190000N0003000000?0N         000000400R 10000000010000000000           
RFF0217600069052329      ERT      0000  956.44375000140000081920151900000000226010100W 1220000N                               
CUS0217600000102320813005         HARRIS III, EDWARD D109 DEEPDENE RD                         000N        CARE OF             
MTR02176000001000000000000000RA              78942610    005800060000000600000360000003NN  NNW 000                       N    
RDG02176000WATR 000000004R00000000000000023000008192015190000N0003000000?0N         000000400R 10000000010000000000           
RFF0217600069052279      ERT      0000  956.44375000140000081920151900000000237450100W 1220000N                               
CUS0217600000102320814003         MORRISON, ALFRED J  107 DEEPDENE RD                         000N        CARE OF             
MTR02176000001000000000000000RA              78942613    005800070000000700000360000003NN  NNW 000                       N    
RDG02176000WATR 000000004R00000000000000013000008192015190000N0003000000?0N         000000400R 10000000010000000000           
RFF0217600069052326      ERT      0000  956.44375000140000081920151900000000132243100W 1220000N                               
CUS0217600000102320815000         HEUISLER II, J STANL105 DEEPDENE RD                         000N        CARE OF             
MTR02176000001000000000000000RA              78942612    005800080000000800000360000003NN  NNW 000                       N    
RDG02176000WATR 000000004R00000000000000001000008192015180000N0003000000?0N         000000400R 10000000010000000000           
RFF0217600069052281      ERT      0000  956.44375000140000081920151800000000019032100W 1220000N                               
CUS0217600000102320816008         HOPKINS, FREDERICK M101 DEEPDENE RD                         000N        CARE OF             
MTR02176000001000000000000000RA              78942614    005800090000000900000360000003NN  NNW 000                       N    
RDG02176000WATR 000000004R00000000000000030000008192015170000N0003000000?0N         000000400R 10000000010000000000           
RFF0217600069052305      ERT      0000  956.44375000140000081920151700000000300860100W 1220000N                               
CUS0217600000102320817006         FRIED, MARY RUTH    603 CLUB RD                             000N        CARE OF             
MTR02176000001000000000000000RA              78942611    005800100000001000000360000003NN  NNW 000                       N    
RDG02176000WATR 000000004R00000000000000003000008192015180000N0003000000?0N         000000400R 10000000010000000000           
RFF0217600069052283      ERT      0000  956.44375000140000081920151800000000036294100W 1220000N                               
CUS0217600000102320818004         ROLAND PK COUNTRY SC3 DEEPDENE RD                           000N        CARE OF             
MTR02176000001000000000000000RA              78942527    005800110000001100000360000003NN  NNW 000                       N    
RDG02176000WATR 000000004R00000000000000011000008192015190000N0003000000?0N         000000400R 10000000010000000000           
RFF0217600069052258      ERT      0000  956.44375000140000081920151900000000116499100W 1220000N                               
CUS0217600000102320819002         ROLAND PARK COUNTRY 1 DEEPDENE RD                           000N        CARE OF             
MTR02176000001000000000000000RA              78942528    005800120000001200000360000003NN  NNW 000                       N    
RDG02176000WATR 000000004R00000000000000002000008192015190000N0003000000?0N         000000400R 10000000010000000000           
RFF0217600069052243      ERT      0000  956.44375000140000081920151900000000029210100W 1220000N                               
CUS0217600000102320820000         BUREAU BLDG PRATT LI5108 ROLAND AVE                         000N        CARE OF             
MTR02176000001000000000000000RA              01117261    000100130000001300000610000003NN  NNW 000                       N    
RDG02176000WATRL000000004K00000000000000116000108202015080329N000000000000U20       000000400K 10000000010000000116           
CUS0217600000102320821008         WOLFE, ANDREW M     4 LONGWOOD RD                           000N        CARE OF             
MTR02176000001000000000000000RA              33080918    005800140000001400000520000003NN  NNW 000                       N    
RDG02176000WATRL000000004K00000000000004748002008202015095334N000000000000U20       000660400K 10000000010000004724           
CUS0217600000102320822006         RICE, KENNETH L.    6 LONGWOOD RD                           000N        CARE OF             
MTR02176000001000000000000000RA              28766704    007500150000001500000520000003NY  NNW 000                       N    
MTM0217600028766704    79081458                                                                                               
RDG02176000WATRL000000004K00000000000000017001908202015095228N000300000010U20       000640400K 10000000010000005558           
CUS0217600000102320823004         SIGLER, RICHARD MEGA8 LONGWOOD RD                           000N        CARE OF             
MTR02176000001000000000000000RA              35100105    007500160000001600000520000003NY  NNW 000                       N    
MTM0217600035100105    79081460                                                                                               
RDG02176000WATRL000000004K00000000000000023001808202015095124N000300000010U20       000530400K 10000000010000004570           
CUS0217600000102320824002         MOBLEY, MAGDA       10 LONGWOOD RD                          000N        CARE OF             
MTR02176000001000000000000000RA              43904224    007500170000001700000520000003NY  NNW 000                       N    
MTM0217600043904224    79081459                                                                                               
RDG02176000WATRL000000004K00000000000000030001708202015095031N000300000010U20       015970400K 10000000010000002420           
CUS0217600000102320825009         ANDERSON, PAUL S.   100 LONGWOOD RD                         000N        CARE OF             
MTR02176000001000000000000000RA              01072101    005800180000001800000610000003NY  NNW 000                       N    
MTM0217600001072101    78874803                                                                                               
RDG02176000WATRL000000004K00000000000000041002508202015100324N000300000010U20       001420400K 10000000010000001475           
CUS0217600000102320826007         SENFT, WILLIAM W    102 LONGWOOD RD                         000N        CARE OF             
MTR02176000001000000000000000RA              01097913    007500190000001900000610000003NY  NNW 000                       N    
MTM0217600001097913    79081461                                                                                               
RDG02176000WATRL000000004K00000000000000032002608202015100409N000300000010U20       000450400K 10000000010000001513           
CUS0217600000102320827005         LEON J PODLES/WM. BR104 LONGWOOD RD                         000N        CARE OF             
MTR02176000001000000000000000RA              78876987    005800200000002000000360000003NN  NNW 000                       N    
RDG02176000WATR 000000004R00000000000000188000008192015190000N0003000000?0N         000000400R 10000000010000000000           
RFF0217600068869578      ERT      0000  956.44375000140000081920151900000001885852100W 1220000N                               
CUS0217600000102320828003         SHERMAN, SCOTT L.   106 LONGWOOD RD                         000N        CARE OF             
MTR02176000001000000000000000RA              30528139    007500210000002100000520000003NY  NNW 000                       N    
MTM0217600030528139    78876987                                                                                               
RDG02176000WATRL000000004K00000000000000188002708202015100507N000300000010U20       000580400K 10000000010000005276           
CUS0217600000102320829001         VIGLUCCI, JENNIFER  108 LONGWOOD RD                         000N        CARE OF             
MTR02176000001000000000000000RA              41257184    005800220000002200000520000003NY  NNW 000                       N    
MTM0217600041257184    79083497                                                                                               
RDG02176000WATRL000000004K00000000000000025002808202015100623N000300000010U20       000760400K 10000000010000003688           
CUS0217600000102320830009         EDWARD JAMES BRITT  110 LONGWOOD RD                         000N        CARE OF             
MTR02176000001000000000000000RA              39256997    007500230000002300000520000003NN  NNW 000                       N    
RDG02176000WATRL000000004K00000000000001877002908202015100848N000000000011U20       000930400K 10000000010000001866           
CUS0217600000102320831007         SUTCLIFFE, PETER A  112 LONGWOOD RD                         000N        CARE OF             
MTR02176000001000000000000000RA              48592993    005800240000002400000520000003NY  NNW 000                       N    
MTM0217600048592993    78876989                                                                                               
RDG02176000WATRL000000004K00000000000000020003008202015100956N000300000010U20       000680400K 10000000010000002146           
CUS0217600000102320832005         FRANK G CHARSHEE JR 200 LONGWOOD RD                         000N        CARE OF             
MTR02176000001000000000000000RA              35100070    007500250000002500000520000003NY  NNW 000                       N    
MTM0217600035100070    79081465                                                                                               
RDG02176000WATRL000000004K00000000000000012003208202015101143N000300000010U20       000630400K 10000000010000002947           
CUS0217600000102320833003         MERTZ, PIERRE HERVE'202 LONGWOOD RD                         000N        CARE OF             
MTR02176000001000000000000000RA              35108143    005800260000002600000520000003NY  NNW 000                       N    
MTM0217600035108143    78876985                                                                                               
RDG02176000WATRL000000004K00000000000000039003308202015101253N000300000010U20       000700400K 10000000010000002712           
CUS0217600000102320834001         SCHAMP, DAVID J.    204 LONGWOOD RD                         000N        CARE OF             
MTR02176000001000000000000000RA              33080920    005800270000002700000520000003NN  NNW 000                       N    
RDG02176000WATRL000000004K00000000000004116003408202015101404N000000000000U20       000710400K 10000000010000004104           
CUS0217600000102320835008         FOREMAN, JOHN ANTONY206 LONGWOOD RD                         000N        CARE OF             
MTR02176000001000000000000000RA              31582440    005800280000002800000520000003NY  NNW 000                       N    
MTM0217600031582440    78876984                                                                                               
RDG02176000WATRL000000004K00000000000000034003508202015101501N000300000010U20       000570400K 10000000010000003015           
CUS0217600000102320836006         SEMBA, RICHARD L    208 LONGWOOD RD                         000N        CARE OF             
MTR02176000001000000000000000RA              45388881    007500290000002900000520000003NN  NNW 000                       N    
RDG02176000WATRL000000004K00000000000001430003708202015101808N000400000020U20       000950400K 10000000010000001427           
CUS0217600000102320837004         BETTY W PARKER      210 LONGWOOD RD                         000N        CARE OF             
MTR02176000001000000000000000RA              35108144    005800300000003000000520000003NN  NNW 000                       N    
RDG02176000WATRL000000004K00000000000000000000000000000000000 000000000000U         000000400  10000000010000004412           
CUS0217600000102320838002         GLYNN, JOHN M       212 LONGWOOD RD                         000N        CARE OF             
MTR02176000001000000000000000RA              78028633    007500310000003100000360000000NN  NNW 000                       N    
RDG02176000WATRL000000004K00000000000000000003808202015101906N000000000000U20       000580400K 10000000010000000000           
CUS0217600000102320839000         BROWN, GEOFFREY F   214 LONGWOOD RD                         000N        CARE OF             
MTR02176000001000000000000000RA              14905861    005800320000003200000310000003NY  NNW 000                       N    
MTM0217600014905861    78945668                                                                                               
RDG02176000WATRL000000004K00000000000000008003908202015101950N000300000010U20       000440400K 10000000010000000768           
CUS0217600000102320840008         MOORE, NANCY P   (TR216 LONGWOOD RD                         000N        CARE OF             
MTR02176000001000000000000000RA              44002590    005800330000003300000520000003NY  NNW 000                       N    
MTM0217600044002590    78945667                                                                                               
RDG02176000WATRL000000004K00000000000000033004008202015102106N000000000010U20       000760400K 10000000010000002315           
CUS0217600000102320841006         ZEPP, ELIZABETH DELL218 LONGWOOD RD                         000N        CARE OF             
MTR02176000001000000000000000RA              78028490    007500340000003400000350000003NY  NNW 000                       N    
MTM0217600078028490    79083446                                                                                               
RDG02176000WATRL000000004K00000000000000033004108202015102207N000300000010U20       000610400K 10000000010000000061           
CUS0217600000102320842004         SAMSON, BENNETT     220 LONGWOOD RD                         000N        CARE OF             
MTR02176000001000000000000000RA              35108138    005800350000003500000520000003NY  NNW 000                       N    
MTM0217600035108138    78945665                                                                                               
RDG02176000WATRL000000004K00000000000000247004208202015102320N000300000020U20       000730400K 10000000010000004078           
CUS0217600000102320843002         YUROW, GARY         222 LONGWOOD RD                         000N        CARE OF             
MTR02176000001000000000000000RA              35108030    005800360000003600000520000003NN  NNW 000                       N    
RDG02176000WATRL000000004K00000000000004295004308202015102407N000000000000U20       000470400K 10000000010000004263           
CUS0217600000102320844000         SODY, TODD S        215 LONGWOOD RD                         000N        CARE OF             
MTR02176000001000000000000000RA              35100102    007500370000003700000520000003NY  NNW 000                       N    
MTM0217600035100102    79081462                                                                                               
RDG02176000WATRL000000004K00000000000000029004408202015102506N000300000010U20       000590400K 10000000010000006283           
CUS0217600000102320845007         OBRECHT, DAVID W.W. 211 LONGWOOD RD                         000N        CARE OF             
MTR02176000001000000000000000RA              76349772    007500380000003800000360000003NN  NNW 000                       N    
RDG02176000WATRL000000004R00000000000000000004508202015102532S001000000000U20       000260400R 10000000010000000346           
RFF0217600068868070      ERT      0000  956.4437500014000000000000000000                  0000N                               
CUS0217600000102320846005         MELCHIORRE, CAMILLO 207 LONGWOOD RD                         000N        CARE OF             
MTR02176000001000000000000000RA              35100054    007500390000003900000520000003NY  NNW 000                       N    
MTM0217600035100054    79081464                                                                                               
RDG02176000WATRL000000004K00000000000000059003608202015101633N000300000010U20       000920400K 10000000010000006660           
CUS0217600000102320847003         STEINER, KARL V     205 LONGWOOD RD                         000N        CARE OF             
MTR02176000001000000000000000RA              76349414    007500400000004000000360000003NN  NNW 000                       N    
RDG02176000WATR 000000004R00000000000000116000008192015190000N000000000000N         000000400R 10000000010000000102           
RFF0217600068868022      ERT      0000  956.44375000140000081920151900000001165996100W 1220000N                               
CUS0217600000102320848001         MAZA, JAMES         203 LONGWOOD RD                         000N        CARE OF             
MTR02176000001000000000000000RA              35100057    007500410000004100000520000003NY  NNW 000                       N    
MTM0217600035100057    79181463                                                                                               
RDG02176000WATRL000000004K00000000000000019004608202015102901N000300000010U20       002090400K 10000000010000002159           
CUS0217600000102320849009         PORTERFIELD, JAMES K201 LONGWOOD RD                         000N        CARE OF             
MTR02176000001000000000000000RA              76349515    007500420000004200000360000003NN  NNW 000                       N    
RDG02176000WATR 000000004R00000000000000152000008192015180000N000000000000N         000000400R 10000000010000000120           
RFF0217600068862499      ERT      0000  956.44375000140000081920151800000001520974100W 1220000N                               
CUS0217600000102380842001         SUMMERS, CARL J     4 ELMWOOD RD                            000N        CARE OF             
MTR02176000001000000000000000RA              32902027    005800430000004300000520000003NN  NNW 000                       N    
RDG02176000WATRL000000004K00000000000001805004708202015103136N000000000000U20       001550400K 10000000010000001766           
CUS0217600000102320850007         SALLY A ALLINSON    6 ELMWOOD RD                            000N        CARE OF             
MTR02176000001000000000000000RA              00137315    005800440000004400000570000003NY  NNW 000                       N    
MTM0217600000137315    78945728                                                                                               
RDG02176000WATRL000000004K00000000000000005004808202015103226N000300000010U20       000500400K 10000000010000000465           
CUS0217600000102320851005         GJERDE, DAVID       8 ELMWOOD RD                            000N        CARE OF             
MTR02176000001000000000000000RA              39290398    005800450000004500000520000003NY  NNW 000                       N    
MTM0217600039290398    78945726                                                                                               
RDG02176000WATRL000000004K00000000000000028004908202015103310N000300000010U20       000440400K 10000000010000001658           
CUS0217600000102320852003         HINER, MATTHEW C    10 ELMWOOD RD                           000N        CARE OF             
MTR02176000001000000000000000RA              29686569    005800460000004600000520000003NY  NNW 000                       N    
MTM0217600029686569    78945718                                                                                               
RDG02176000WATRL000000004K00000000000000028005008202015103409N000300000010U20       000590400K 10000000010000004437           
CUS0217600000102320853001         STANLE, MATTHEW R   12 ELMWOOD RD                           000N        CARE OF             
MTR02176000001000000000000000RA              35107383    005800470000004700000520000003NY  NNW 000                       N    
MTM0217600035107383    78945719                                                                                               
RDG02176000WATRL000000004K00000000000000016005108202015103515N000300000010U20       000660400K 10000000010000001610           
CUS0217600000102320854009         DEVEREAUX, PETER T  14 ELMWOOD RD                           000N        CARE OF             
MTR02176000001000000000000000RA              40320766    005800480000004800000520000003NY  NNW 000                       N    
MTM0217600040320766    78945717                                                                                               
RDG02176000WATRL000000004K00000000000000011005208202015103621N000300000010U20       000660400K 10000000010000001297           
CUS0217600000102320855006         ASSOUFID, LAHSEN   (16 ELMWOOD RD                           000N        CARE OF             
MTR02176000001000000000000000RA              39290401    005800490000004900000520000003NY  NNW 000                       N    
MTM0217600039290401    78945575                                                                                               
RDG02176000WATRL000000004K00000000000000006005308202015103723N000300000010U20       000620400K 10000000010000001359           
CUS0217600000102320856004         LERNER, DARIN M.    21 ELMWOOD RD                           000N        CARE OF             
MTR02176000001000000000000000RA              78942581    005800500000005000000360000003NN  NNW 000                       N    
RDG02176000WATR 000000004R00000000000000007000008192015190000N0003000000?0N         000000400R 10000000010000000000           
RFF0217600069050386      ERT      0000  956.44375000140000081920151900000000071558100W 1220000N                               
CUS0217600000102320857002         M ELIZABETH PORTH   19 ELMWOOD RD                           000N        CARE OF             
MTR02176000001000000000000000RA              79214871    007500510000005100000360000003NN  NNW 000                       N    
RDG02176000WATR 000000004R00000000000000022000008192015190000N0003000000?0N         000000400R 10000000010000000000           
RFF0217600069034031      ERT      0000  956.44375000140000081920151900000000225249100W 1220000N                               
CUS0217600000102320858000         ALICE D LOWE        17 ELMWOOD RD                           000N        CARE OF             
MTR02176000001000000000000000RA              35107384    005800520000005200000520000003NY  NNW 000                       N    
MTM0217600035107384    78942581                                                                                               
RDG02176000WATRL000000004K00000000000000007005408202015103839N000300000010U20       000760400K 10000000010000002398           
CUS0217600000102320859008         DR R H PEMBROKE JR  15 ELMWOOD RD                           000N        CARE OF             
MTR02176000001000000000000000RA              36688206    005800530000005300000520000003NY  NNW 000                       N    
MTM0217600036688206    79214871                                                                                               
RDG02176000WATRL000000004K00000000000000022005508202015103949N000300000010U20       000700400K 10000000010000003108           
CUS0217600000102320860006         TRUELOVE, RICHARD J 13 ELMWOOD RD                           000N        CARE OF             
MTR02176000001000000000000000RA              36689081    007500540000005400000520000003NY  NNW 000                       N    
MTM0217600036689081    78945721                                                                                               
RDG02176000WATRL000000004K00000000000000028005608202015104119N000300000010U20       000900400K 10000000010000004690           
CUS0217600000102320861004         MATTHEW B MARSH     11 ELMWOOD RD                           000N        CARE OF             
MTR02176000001000000000000000RA              33735907    005800550000005500000520000003NY  NNW 000                       N    
MTM0217600033735907    78945727                                                                                               
RDG02176000WATRL000000004K00000000000000026005708202015104418N000304100010U20       001790400K 10000000010000007600           
CUS0217600000102320862002         RAY, RUSSELL T      115 LONGWOOD RD                         000N        CARE OF             
MTR02176000001000000000000000RA              35100056    007500560000005600000520000003NY  NNW 000                       N    
MTM0217600035100056    79083495                                                                                               
RDG02176000WATRL000000004K00000000000000065003108202015101040N000300000010U20       000440400K 10000000010000004119           
CUS0217600000102320863000         MORTON J BAUM JR    4 MIDVALE RD                            000N        CARE OF             
MTR02176000001000000000000000RA              74938894    007500570000005700000360000003NN  NNW 000                       N    
RDG02176000WATR 000000004R00000000000000257000008192015190000N0003000000?0N         000000400R 10000000010000000217           
RFF0217600069010876      ERT      0000  956.44375000140000081920151900000002579928100W 1220000N                               
CUS0217600000102320864008         KOHLER, STEPHEN R   6 MIDVALE RD                            000N        CARE OF             
MTR02176000001000000000000000RA              78942595    005800580000005800000360000003NN  NNW 000                       N    
RDG02176000WATR 000000004R00000000000000040000008192015190000N0003000000?0N         000000400R 10000000010000000000           
RFF0217600069052272      ERT      0000  956.44375000140000081920151900000000406502100W 1220000N                               
CUS0217600000102320865005         STEPHEN F JENCKS    8 MIDVALE RD                            000N        CARE OF             
MTR02176000001000000000000000RA              79214163    007500590000005900000360000003NN  NNW 000                       N    
RDG02176000WATR 000000004R00000000000000016000008192015190000N0003000000?0N         000000400R 10000000010000000000           
RFF0217600069021558      ERT      0000  956.44375000140000081920151900000000163160100W 1220000N                               
CUS0217600000102320866003         DENTON, CAMERON B   10 MIDVALE RD                           000N        CARE OF             
MTR02176000001000000000000000RA              78942591    005800600000006000000360000003NN  NNW 000                       N    
RDG02176000WATR 000000004R00000000000000021000008192015190000N0003000000?0N         000000400R 10000000010000000000           
RFF0217600069052260      ERT      0000  956.44375000140000081920151900000000214260100W 1220000N                               
CUS0217600000102320867001         SAVAGE, PETER V     14 MIDVALE RD                           000N        CARE OF             
MTR02176000001000000000000000RA              00120666    007500610000006100000570000000NY  NNW 000                       N    
MTM0217600000120666    79214170                                                                                               
RDG02176000WATRL000000004K00000000000000024005808202015104749N000300000010U20       002110400K 10000000010000001815           
CUS0217600000102320868009         KOUWENHOVEN, NICHOLA16 MIDVALE RD                           000N        CARE OF             
MTR02176000001000000000000000RA              79214169    007500620000006200000360000003NN  NNW 000                       N    
RDG02176000WATR 000000004R00000000000000023000008192015190000N0003000000?0N         000000400R 10000000010000000000           
RFF0217600069023089      ERT      0000  956.44375000140000081920151900000000234851100W 1220000N                               
CUS0217600000102320869007         CHRISTOPHER MELLOT  18 MIDVALE RD                           000N        CARE OF             
MTR02176000001000000000000000RA              77544878    007500630000006300000360000003NN  NNW 000                       N    
RDG02176000WATR 000000004R00000000000000163000008192015190000N0003000000?0N         000000400R 10000000010000000136           
RFF0217600069010815      ERT      0000  956.44375000140000081920151900000001632174100W 1220000N                               
CUS0217600000102320870005         JEAN A.S. KOUWENHOVE17 MIDVALE RD                           000N        CARE OF             
MTR02176000001000000000000000RA              79214167    007500640000006400000360000003NN  NNW 000                       N    
RDG02176000WATR 000000004R00000000000000009000008192015190000N0003000000?0N         000000400R 10000000010000000000           
RFF0217600069023069      ERT      0000  956.44375000140000081920151900000000095467100W 1220000N                               
CUS0217600000102320871003         KOFF, ALEXANDER W.  15 MIDVALE RD                           000N        CARE OF             
MTR02176000001000000000000000RA              79214168    007500650000006500000360000003NN  NNW 000                       N    
RDG02176000WATR 000000004R00000000000000020000008192015190000N0003000000?0N         000000400R 10000000010000000000           
RFF0217600069023059      ERT      0000  956.44375000140000081920151900000000209093100W 1220000N                               
CUS0217600000102320872001         SHEEHY, DAVID A     13 MIDVALE RD                           000N        CARE OF             
MTR02176000001000000000000000RA              79214166    007500660000006600000360000003NN  NNW 000                       N    
RDG02176000WATR 000000004R00000000000000019000008192015190000N0003000000?0N         000000400R 10000000010000000000           
RFF0217600069021648      ERT      0000  956.44375000140000081920151900000000196297100W 1220000N                               
CUS0217600000102320873009         WAXTER III, THOMAS J9 MIDVALE RD                            000N        CARE OF             
MTR02176000001000000000000000RA              79214165    007500670000006700000360000003NN  NNW 000                       N    
RDG02176000WATR 000000004R00000000000000030000008192015190000N0003000000?0N         000000400R 10000000010000000000           
RFF0217600069021616      ERT      0000  956.44375000140000081920151900000000305174100W 1220000N                               
CUS0217600000102320874007         KERN, DAVID E       7 MIDVALE RD                            000N        CARE OF             
MTR02176000001000000000000000RA              79214186    007500680000006800000360000003NN  NNW 000                       N    
RDG02176000WATR 000000004R00000000000000027000008192015190000N0003000000?0N         000000400R 10000000010000000000           
RFF0217600069023058      ERT      0000  956.44375000140000081920151900000000273576100W 1220000N                               
CUS0217600000102320875004         MEHTA, XERXES       5 MIDVALE RD                            000N        CARE OF             
MTR02176000001000000000000000RA              79214183    007500690000006900000360000003NN  NNW 000                       N    
RDG02176000WATR 000000004R00000000000000046000008192015190000N0003000000?0N         000000400R 10000000010000000000           
RFF0217600069023062      ERT      0000  956.44375000140000081920151900000000463782100W 1220000N                               
CUS0217600000102320876002         JANET MARIE SMITH   3 MIDVALE RD                            000N        CARE OF             
MTR02176000001000000000000000RA              79214184    007500700000007000000360000003NN  NNW 000                       N    
RDG02176000WATR 000000004R00000000000000080000008192015190000N0003000000?0N         000000400R 10000000010000000000           
RFF0217600069023085      ERT      0000  956.44375000140000081920151900000000806834100W 1220000N                               
CUS0217600000102320877000         MASSON, ELIZABETH J 1 MIDVALE RD                            000N        CARE OF             
MTR02176000001000000000000000RA              79214185    007500710000007100000360000003NN  NNW 000                       N    
RDG02176000WATR 000000004R00000000000000020000008192015190000N0003000000?0N         000000400R 10000000010000000000           
RFF0217600069023036      ERT      0000  956.44375000140000081920151900000000203196100W 1220000N                               
CUS0217600000102320878008         YVONNE OTTAVIANO    109 LONGWOOD RD                         000N        CARE OF             
MTR02176000001000000000000000RA              35100106    007500720000007200000520000003NY  NNW 000                       N    
MTM0217600035100106    79081472                                                                                               
RDG02176000WATRL000000004K00000000000000038005908202015105034N000300000010U20       001650400K 10000000010000003993           
CUS0217600000102320879006         POGGI, MICHAEL W.   107 LONGWOOD RD                         000N        CARE OF             
MTR02176000001000000000000000RA              27819712    005800730000007300000520000003NY  NNW 000                       N    
MTM0217600027819712    78876986                                                                                               
RDG02176000WATRL000000004K00000000000000022006008202015105138N000300000010U20       000640400K 10000000010000005667           
CUS0217600000102320880004         PAUL T ENGLUND      105 LONGWOOD RD                         000N        CARE OF             
MTR02176000001000000000000000RA              35100103    007500740000007400000520000003NY  NNW 000                       N    
MTM0217600035100103    79083496                                                                                               
RDG02176000WATRL000000004K00000000000000028006108202015105301N000300000010U20       000830400K 10000000010000006672           
CUS0217600000102320881002         SHINGLETON, DAVIS H 103 LONGWOOD RD                         000N        CARE OF             
MTR02176000001000000000000000RA              35100051    007500750000007500000520000003NY  NNW 000                       N    
MTM0217600035100051    79083494                                                                                               
RDG02176000WATRL000000004K00000000000000009006208202015105358N000300000010U20       000570400K 10000000010000003812           
CUS0217600000102320882000         DICKINSON, GRETCHEN 101 LONGWOOD RD                         000N        CARE OF             
MTR02176000001000000000000000RA              45388385    007500760000007600000520000003NN  NNW 000                       N    
RDG02176000WATRL000000004K00000000000002955002408202015100102N000000000000U20       001910400K 10000000010000002926           
CUS0217600000102320883008         MONTAG, HELEN M     503 CLUB RD                             000N        CARE OF             
MTR02176000001000000000000000RA              35100066    007500770000007700000520000003NY  NNW 000                       N    
MTM0217600035100066    79214818                                                                                               
RDG02176000WATRL000000004K00000000000000020002308202015095751N000300000010U20       001030400K 10000000010000004617           
CUS0217600000102320884006         IGLEHART III, IREDEL7 LONGWOOD RD                           000N        CARE OF             
MTR02176000001000000000000000RA              14918735    005800780000007800000310000003NY  NNW 000                       N    
MTM0217600014918735    78874800                                                                                               
RDG02176000WATRL000000004K00000000000000041002208202015095608N000300000010U20       000820400K 10000000010000000747           
CUS0217600000102320885003         O'DONNELL, STEVEN F.5 LONGWOOD RD                           000N        CARE OF             
MTR02176000001000000000000000RA              75426454    005800790000007900000360000003NN  NNW 000                       N    
RDG02176000WATR 000000004R00000000000000343000008192015190000N000300000090N         000000400R 10000000010000000292           
RFF0217600068862474      ERT      0000  956.44375000140000081920151900000003434154100W 1220000N                               
CUS0217600000102320886001         MYERS, PAUL D       3 LONGWOOD RD                           000N        CARE OF             
MTR02176000001000000000000000RA              35108032    005800800000008000000520000003NN  NNW 000                       N    
RDG02176000WATRL000000004K00000000000002549002108202015095446N000000000000U20       000720400K 10000000010000002528           
CUS0217600000102320887009         ESHLEMAN, MATTHEW   5102 ROLAND AVE                         000N        CARE OF             
MTR02176000001000000000000000RA              78942609    005800810000008100000360000003NN  NNW 000                       N    
RDG02176000WATR 000000004R00000000000000020000008192015190000N0003000000?0N         000000400R 10000000010000000000           
RFF0217600069052284      ERT      0000  956.44375000140000081920151900000000200219100W 1220000N                               
CUS0217600000102320888007         WARD, JOHN T        5100 ROLAND AVE                         000N        CARE OF             
MTR02176000001000000000000000RA              78942582    005800820000008200000360000003NN  NNW 000                       N    
RDG02176000WATR 000000004R00000000000000011000008192015190000N0003000000?0N         000000400R 10000000010000000000           
RFF0217600069050472      ERT      0000  956.44375000140000081920151900000000111994100W 1220000N                               
CUS0217600000102320889005         FROH, RICHARD D     2 ST JOHNS RD                           000N        CARE OF             
MTR02176000001000000000000000RA              78942593    005800830000008300000360000003NN  NNW 000                       N    
RDG02176000WATR 000000004R00000000000000058000008192015190000N0003000000?0N         000000400R 10000000010000000000           
RFF0217600069052334      ERT      0000  956.44375000140000081920151900000000585367100W 1220000N                               
CUS0217600000102320890003         BRUCE P M HAMILTON &4 ST JOHNS RD                           000N        CARE OF             
MTR02176000001000000000000000RA              00163448    000100840000008400000570000003NY  NNW 000                       N    
MTM0217600000163448    78759875                                                                                               
RDG02176000WATRL000000004K00000000000000007000408202015080428N000304100010U20       000070400K 10000000010000000916           
CUS0217600000102320891001         PIRAINO, NICHOLAS   6 ST JOHNS RD                           000N        CARE OF             
MTR02176000001000000000000000RA              79085127    007500850000008500000360000003NN  NNW 000                       N    
RDG02176000WATR 000000004R00000000000000016000008192015190000N0003000000?0N         000000400R 10000000010000000000           
RFF0217600069023395      ERT      0000  956.44375000140000081920151900000000166409100W 1220000N                               
CUS0217600000102320892009         GREENE, JEREMY A    8 ST JOHNS RD                           000N        CARE OF             
MTR02176000001000000000000000RA              25762771    007500860000008600000520000003NN  NNW 000                       N    
RDG02176000WATRL000000004K00000000000003728000308202015080421N000000000000U20       000260400K 10000000010000003713           
CUS0217600000102320893007         CHNG, TIM THENG TENG100 ST JOHNS RD                         000N        CARE OF             
MTR02176000001000000000000000RA              79084994    007500870000008700000360000003NN  NNW 000                       N    
RDG02176000WATR 000000004R00000000000000017000008192015190000N0003000000?0N         000000400R 10000000010000000000           
RFF0217600069024395      ERT      0000  956.44375000140000081920151900000000175800100W 1220000N                               
CUS0217600000102320894005         WEBB, J.W. THOMPSON 104 ST JOHNS RD                         000N        CARE OF             
MTR02176000001000000000000000RA              79084995    007500880000008800000360000003NN  NNW 000                       N    
RDG02176000WATR 000000004R00000000000000014000008192015190000N0003000000?0N         000000400R 10000000010000000000           
RFF0217600069023253      ERT      0000  956.44375000140000081920151900000000144971100W 1220000N                               
CUS0217600000102320895002         PANITZ, CAROLINE H  108 ST JOHNS RD                         000N        CARE OF             
MTR02176000001000000000000000RA              41193417    007500890000008900000520000003NY  NNW 000                       N    
MTM0217600041193417    79084996                                                                                               
RDG02176000WATRL000000004K00000000000000051000208202015080355N000004100010U20       000260400K 10000000010000003703           
CUS0217600000102320896000         JOHN C CORCKRAN JR &112 ST JOHNS RD                         000N        CARE OF             
MTR02176000001000000000000000RA              79214864    007500900000009000000360000003NN  NNW 000                       N    
RDG02176000WATR 000000004R00000000000000060000008192015190000N0003000000?0N         000000400R 10000000010000000000           
RFF0217600069040758      ERT      0000  956.44375000140000081920151900000000609287100W 1220000N                               
CUS0217600000102320897008         SELLERS, DANIEL     114 ST JOHNS RD                         000N        CARE OF             
MTR02176000001000000000000000RA              78942584    005800910000009100000360000003NN  NNW 000                       N    
RDG02176000WATR 000000004R00000000000000012000008192015190000N0003000000?0N         000000400R 10000000010000000000           
RFF0217600069050508      ERT      0000  956.44375000140000081920151900000000126895100W 1220000N                               
CUS0217600000102320898006         SMITH, CRAIG R      116 ST JOHNS RD                         000N        CARE OF             
MTR02176000001000000000000000RA              79214865    007500920000009200000360000003NN  NNW 000                       N    
RDG02176000WATR 000000004R00000000000000011000008192015190000N0003000000?0N         000000400R 10000000010000000000           
RFF0217600069040764      ERT      0000  956.44375000140000081920151900000000110844100W 1220000N                               
CUS0217600000102320899004         PICKERING, GAIL L.  110 BEECHDALE RD                        000N        CARE OF             
MTR02176000001000000000000000RA              75427179    007500930000009300000360000003NN  NNW 000                       N    
RDG02176000WATR 000000004R00000000000000179000008192015190000N0003000000?0N         000000400R 10000000010000000133           
RFF0217600069010869      ERT      0000  956.44375000140000081920151900000001791995100W 1220000N                               
CUS0217600000102320900000         GARBARINO, EDWARD M.107 ST JOHNS RD                         000N        CARE OF             
MTR02176000001000000000000000RA              79214828    007500940000009400000360000003NN  NNW 000                       N    
RDG02176000WATR 000000004R00000000000000022000008192015190000N0003000000?0N         000000400R 10000000010000000000           
RFF0217600069040718      ERT      0000  956.44375000140000081920151900000000229698100W 1220000N                               
CUS0217600000102320901008         PEARRE, PETER       105 ST JOHNS RD                         000N        CARE OF             
MTR02176000001000000000000000RA              79214866    007500950000009500000360000003NN  NNW 000                       N    
RDG02176000WATR 000000004R00000000000000004000008192015190000N0003000000?0N         000000400R 10000000010000000000           
RFF0217600069040761      ERT      0000  956.44375000140000081920151900000000041816100W 1220000N                               
CUS0217600000102320902006         MCINTYRE, DANIEL E  103 ST JOHNS RD                         000N        CARE OF             
MTR02176000001000000000000000RA              79214863    007500960000009600000360000003NN  NNW 000                       N    
RDG02176000WATR 000000004R00000000000000024000008192015190000N0003000000?0N         000000400R 10000000010000000000           
RFF0217600069040264      ERT      0000  956.44375000140000081920151900000000245591100W 1220000N                               
CUS0217600000102320903004         JON C BAKER         101 ST JOHNS RD                         000N        CARE OF             
MTR02176000001000000000000000RA              79214815    007500970000009700000360000003NN  NNW 000                       N    
RDG02176000WATR 000000004R00000000000000055000008192015190000N0003000000?0N         000000400R 10000000010000000000           
RFF0217600069034030      ERT      0000  956.44375000140000081920151900000000556809100W 1220000N                               
CUS0217600000102320904002         HANSON-GRIFFITHS, DI403 CLUB RD                             000N        CARE OF             
MTR02176000001000000000000000RA              79214874    007500980000009800000360000003NN  NNW 000                       N    
RDG02176000WATR 000000004R00000000000000008000008192015190000N0003000000?0N         000000400R 10000000010000000000           
RFF0217600069033995      ERT      0000  956.44375000140000081920151900000000086296100W 1220000N                               
CUS0217600000102320905009         BARTLETT JR, EDWARD 9 ST JOHNS RD                           000N        CARE OF             
MTR02176000001000000000000000RA              79084997    007500990000009900000360000003NN  NNW 000                       N    
RDG02176000WATR 000000004R00000000000000013000008192015190000N0003000000?0N         000000400R 10000000010000000000           
RFF0217600069023335      ERT      0000  956.44375000140000081920151900000000130882100W 1220000N                               
CUS0217600000102320906007         ROBERT W HEARN & WF 7 ST JOHNS RD                           000N        CARE OF             
MTR02176000001000000000000000RA              78942580    005801000000010000000360000003NN  NNW 000                       N    
RDG02176000WATR 000000004R00000000000000014000008192015190000N0003000000?0N         000000400R 10000000010000000000           
RFF0217600069050455      ERT      0000  956.44375000140000081920151900000000145531100W 1220000N                               
CUS0217600000102320907005         COOPER III, ROBERT H5 ST JOHNS RD                           000N        CARE OF             
MTR02176000001000000000000000RA              79085128    007501010000010100000360000003NN  NNW 000                       N    
RDG02176000WATR 000000004R00000000000000035000008192015190000N0003000000?0N         000000400R 10000000010000000000           
RFF0217600069023413      ERT      0000  956.44375000140000081920151900000000354782100W 1220000N                               
CUS0217600000102320908003         BURTON, LYNDA COLCES3 ST JOHNS RD                           000N        CARE OF             
MTR02176000001000000000000000RA              79085126    007501020000010200000360000003NN  NNW 000                       N    
RDG02176000WATR 000000004R00000000000000003000008192015190000N0003000000?0N         000000400R 10000000010000000000           
RFF0217600069023404      ERT      0000  956.44375000140000081920151900000000033177100W 1220000N                               
CUS0217600000102320909001         WILLIAM G HELFRICH J1 ST JOHNS RD                           000N        CARE OF             
MTR02176000001000000000000000RA              79085129    007501030000010300000360000003NN  NNW 000                       N    
RDG02176000WATR 000000004R00000000000000041000008192015190000N0003000000?0N         000000400R 10000000010000000000           
RFF0217600069023353      ERT      0000  956.44375000140000081920151900000000419912100W 1220000N                               
CUS0217600000102320910009         EVANS, BENJAMIN D   5004 ROLAND AVE                         000N        CARE OF             
MTR02176000001000000000000000RA              79214817    007501040000010400000360000003NN  NNW 000                       N    
RDG02176000WATR 000000004R00000000000000015000008192015190000N0003000000?0N         000000400R 10000000010000000000           
RFF0217600069033977      ERT      0000  956.44375000140000081920151900000000156269100W 1220000N                               
CUS0217600000102320911007         KOPPELMAN, LAWRENCE 2 BEECHDALE RD                          000N        CARE OF             
MTR02176000001000000000000000RA              75613813    005801050000010500000360000003NN  NNW 000                       N    
RDG02176000WATR 000000004R00000000000000102000008192015190000N000000000000N         000000400R 10000000010000000091           
RFF0217600068867505      ERT      0000  956.44375000140000081920151900000001024685100W 1220000N                               
CUS0217600000102320912005         WOLOSON, BRADFORD D.4 BEECHDALE RD                          000N        CARE OF             
MTR02176000001000000000000000RA              33736557    007501060000010600000520000003NY  NNW 000                       N    
MTM0217600033736557    79083929                                                                                               
RDG02176000WATRL000000004K00000000000000146000508202015080451N000304100010U20       000230400K 10000000010000004075           
CUS0217600000102320913003         MORREL JR., WILLIAM 6 BEECHDALE RD                          000N        CARE OF             
MTR02176000001000000000000000RA              27066022    007501070000010700000520000003NY  NNW 000                       N    
MTM0217600027066022    79083928                                                                                               
RDG02176000WATRL000000004K00000000000000040000608202015080515N000300000010U20       000240400K 10000000010000008365           
CUS0217600000102320914001         HUNTOON, AMY K      8 BEECHDALE RD                          000N        CARE OF             
MTR02176000001000000000000000RA              75613832    005801080000010800000360000003NN  NNW 000                       N    
RDG02176000WATR 000000004R00000000000000111000008192015180000N000000000000N         000000400R 10000000010000000101           
RFF0217600068868094      ERT      0000  956.44375000140000081920151800000001110276100W 1220000N                               
CUS0217600000102320915008         SHERMAN, DAVIS V R  10 BEECHDALE RD                         000N        CARE OF             
MTR02176000001000000000000000RA              45378449    005801090000010900000520000003NY  NNW 000                       N    
MTM0217600045378449    78945663                                                                                               
RDG02176000WATRL000000004K00000000000000006000708202015092118N000300000010U20       045630400K 10000000010000001715           
CUS0217600000102320916006         JOHN P MILLER       12 BEECHDALE RD                         000N        CARE OF             
MTR02176000001000000000000000RA              35108873    005801100000011000000520000003NY  NNW 000                       N    
MTM0217600035108873    78945666                                                                                               
RDG02176000WATRL000000004K00000000000000027000808202015092142N000300000010U20       000240400K 10000000010000003831           
CUS0217600000102320917004         BURGIN, ANGUS R     100 BEECHDALE RD                        000N        CARE OF             
MTR02176000001000000000000000RA              78576620    000101110000011100000360000003NN  NNW 000                       N    
RDG02176000WATR 000000004R00000000000000014000008192015170000N0003000000?0N         000000400R 10000000010000000000           
RFF0217600069047361      ERT      0000  956.44375000140000081920151700000000143441100W 1220000N                               
CUS0217600000102320918002         TOMLINSON, DENISE A 108 BEECHDALE RD                        000N        CARE OF             
MTR02176000001000000000000000RA              79214830    007501120000011200000360000003NN  NNW 000                       N    
RDG02176000WATR 000000004R00000000000000011000008192015190000N0003000000?0N         000000400R 10000000010000000000           
RFF0217600069040798      ERT      0000  956.44375000140000081920151900000000115172100W 1220000N                               
CUS0217600000102320919000         NYE IV, ROBERT P    119 BEECHDALE RD                        000N        CARE OF             
MTR02176000001000000000000000RA              79214873    007501130000011300000360000003NN  NNW 000                       N    
RDG02176000WATR 000000004R00000000000000025000008192015180000N0003000000?0N         000000400R 10000000010000000000           
RFF0217600069034034      ERT      0000  956.44375000140000081920151800000000257562100W 1220000N                               
CUS0217600000102320920008         FREIBURG, ANJA      117 BEECHDALE RD                        000N        CARE OF             
MTR02176000001000000000000000RA              74938893    007501140000011400000350000003NY  NNW 000                       N    
MTM0217600074938893    74938893                                                                                               
RDG02176000WATRL000000004K00000000000000646000908202015092201N000304100010U20       000190400K 10000000010000003550           
CUS0217600000102320921006         CONNOLLY, STEPHEN H 115 BEECHDALE RD                        000N        CARE OF             
MTR02176000001000000000000000RA              79214872    007501150000011500000360000003NN  NNW 000                       N    
RDG02176000WATR 000000004R00000000000000077000008192015190000N0003000000?0N         000000400R 10000000010000000000           
RFF0217600069033917      ERT      0000  956.44375000140000081920151900000000770273100W 1220000N                               
CUS0217600000102320922004         GUTH, DAVID L       113 BEECHDALE RD                        000N        CARE OF             
MTR02176000001000000000000000RA              35104088    005801160000011600000520000003NN  NNW 000                       N    
RDG02176000WATRL000000004K00000000000003736001008202015092220N000000000000U20       000190400K 10000000010000003714           
CUS0217600000102320923002         BERNDT, RICHARD O   111 BEECHDALE RD                        000N        CARE OF             
MTR02176000001000000000000000RA              75615911    005801170000011700000360000003NN  NNW 000                       N    
RDG02176000WATR 000000004R00000000000000108000008192015190000N0003000000?0N         000000400R 10000000010000000074           
RFF0217600069010379      ERT      0000  956.44375000140000081920151900000001086492100W 1220000N                               
CUS0217600000102320924000         GOLDSTEIN, THOMAS   109 BEECHDALE RD                        000N        CARE OF             
MTR02176000001000000000000000RA              79214827    007501180000011800000360000003NN  NNW 000                       N    
RDG02176000WATR 000000004R00000000000000019000008192015190000N0003000000?0N         000000400R 10000000010000000000           
RFF0217600069040539      ERT      0000  956.44375000140000081920151900000000193586100W 1220000N                               
CUS0217600000102320925007         DANOFF, SONYE K.    107 BEECHDALE RD                        000N        CARE OF             
MTR02176000001000000000000000RA              79214829    007501190000011900000360000003NN  NNW 000                       N    
RDG02176000WATR 000000004R00000000000000016000008192015180000N0003000000?0N         000000400R 10000000010000000000           
RFF0217600069040783      ERT      0000  956.44375000140000081920151800000000165704100W 1220000N                               
CUS0217600000102320926005         MORTON, ROBERT J    105 BEECHDALE RD                        000N        CARE OF             
MTR02176000001000000000000000RA              78942583    005801200000012000000360000003NN  NNW 000                       N    
RDG02176000WATR 000000004R00000000000000012000008192015190000N0003000000?0N         000000400R 10000000010000000000           
RFF0217600069050465      ERT      0000  956.44375000140000081920151900000000129101100W 1220000N                               
CUS0217600000102320927003         BASS, BARBARA F     103 BEECHDALE RD                        000N        CARE OF             
MTR02176000001000000000000000RA              78942579    005801210000012100000360000003NN  NNW 000                       N    
RDG02176000WATR 000000004R00000000000000011000008192015190000N0003000000?0N         000000400R 10000000010000000000           
RFF0217600069050384      ERT      0000  956.44375000140000081920151900000000118160100W 1220000N                               
CUS0217600000102320928001         KELLY, MARY LUCINDA 11 BEECHDALE RD                         000N        CARE OF             
MTR02176000001000000000000000RA              31581342    005801220000012200000520000003NY  NNW 000                       N    
MTM0217600031581342    78945664                                                                                               
RDG02176000WATRL000000004K00000000000000011001108202015092223N000304100010U20       000030400K 10000000010000005488           
CUS0217600000102320929009         HELLER, CAROLYNN A. 9 BEECHDALE RD                          000N        CARE OF             
MTR02176000001000000000000000RA              33736580    007501230000012300000520000003NY  NNW 000                       N    
MTM0217600033736580    79083926                                                                                               
RDG02176000WATRL000000004K00000000000000025001208202015092244N000300000010U20       000210400K 10000000010000004100           
CUS0217600000102320930007         CORBETT, CHRISTOPHER7 BEECHDALE RD                          000N        CARE OF             
MTR02176000001000000000000000RA              24763456    005801240000012400000520000003NY  NNW 000                       N    
MTM0217600024763456    78874801                                                                                               
RDG02176000WATRL000000004K00000000000000025001308202015092254N000304100010U20       000100400K 10000000010000006525           
CUS0217600000102320931005         MCBRIDE, TERENCE W  5 BEECHDALE RD                          000N        CARE OF             
MTR02176000001000000000000000RA              22606274    005801250000012500000520000003NY  NNW 000                       N    
MTM0217600022606274    78945725                                                                                               
RDG02176000WATRL000000004K00000000000000022001408202015092326N000304100010U20       000320400K 10000000010000003612           
CUS0217600000102320932003         JAMES, THERESA MOORA3 BEECHDALE RD                          000N        CARE OF             
MTR02176000001000000000000000RA              35104092    005801260000012600000520000003NY  NNW 000                       N    
MTM0217600035104092    78945724                                                                                               
RDG02176000WATRL000000004K00000000000000013001508202015092343N000300000010U20       000170400K 10000000010000001534           
CUS0217600000102320933001         GONZALEZ, HECTOR A  1 BEECHDALE RD                          000N        CARE OF             
MTR02176000001000000000000000RA              35108900    005801270000012700000520000003NY  NNW 000                       N    
MTM0217600035108900    78945723                                                                                               
RDG02176000WATRL000000004K00000000000000020001608202015092354N000304100010U20       000110400K 10000000010000004462           
CUS0217600000102320935006         SPIVAK, JERRY L. (TR4904 ROLAND AVE                         000N        CARE OF             
MTR02176000001000000000000000RA              33736577    007501280000012800000520000003NN  NNW 000                       N    
RDG02176000WATRL000000004K00000000000003813006408202015110335N000000000000U20       000980400K 10000000010000003813           
CUS0217600000102320936004         WILLATS, STEVEN J   4902 ROLAND AVE                         000N        CARE OF             
MTR02176000001000000000000000RA              77894315    007501290000012900000360000003NN  NNW 000                       N    
RDG02176000WATRL000000004K00000000000000007006308202015110157N000000000000U20       004790400K 10000000010000000002           
CUS0217600000102320937002         W. ANDREW H. GANTT  4900 ROLAND AVE                         000N        CARE OF             
MTR02176000001000000000000000RA              35100876    007501300000013000000520000003NN  NNW 000                       N    
RDG02176000WATRL000000004K00000000000000000000000000000000000 000000000000U         000000400  10000000010000005170           
RTR02176000NN00660130000000660000006401300130000179NY013001300130000300010000000000000000000001    07302015NY020000 N         
RHD02162000NN00250191000000250000016601910191000164NY019101910191000600030000000000000000000001    07282015NY020000 N         
CUS0216200000102317759005         KENDALL, SARA B.    2505 CREST RD                           000N        CARE OF             
MTR02162000001000000000000000RA              26002581    005800010000000100000520000003NN  NNW 000                       N    
RDG02162000WATRL000000004K00000000000000000000000000000000000 000000000000U         000000400  10000000010000002661           
CUS0216200000102317760003         TRUPP, TERESA C     2503 CREST RD                           000N        CARE OF             
MTR02162000001000000000000000RA              27813375    005800020000000200000520000003NN  NNW 000                       N    
RDG02162000WATRL000000004K00000000000000000000000000000000000 000000000000U         000000400  10000000010000001449           
CUS0216200000102317761001         KLEIN, MARTIN I     2501 CREST RD                           000N        CARE OF             
MTR02162000001000000000000000RA              M531780     005800030000000300000570000003NN  NNW 000                       N    
RDG02162000WATRL000000004K00000000000000000000000000000000000 000000000000U         000000400  10000000010000004777           
CUS0216200000102317762009         DOUGLAS C PROCTOR & 5734 PIMLICO RD                         000N        CARE OF             
MTR02162000001000000000000000RA              77894660    007500040000000400000360000003NN  NNW 000                       N    
RDG02162000WATR 000000004R00000000000000010000008192015170000N0003000000A0N         000000400R 10000000010000000000           
RFF0216200069127961      ERT      0000  956.44375000140000081920151700000000106759100W 1220000N                               
CUS0216200000102317763007         PETER & TERRI MULLET5730 PIMLICO RD                         000N        CARE OF             
MTR02162000001000000000000000RA              78857828    005800050000000500000360000003NN  NNW 000                       N    
RDG02162000WATR 000000004R00000000000000003000008192015190000N0003000000A0N         000000400R 10000000010000000000           
RFF0216200069030611      ERT      0000  956.44375000140000081920151900000000038149100W 1220000N                               
CUS0216200000102317764005         SCHENK, ALVIN G.    5728 PIMLICO RD                         000N        CARE OF             
MTR02162000001000000000000000RA              75617505    005800060000000600000360000003NN  NNW 000                       N    
RDG02162000WATR 000000004R00000000000000032000008192015190000N0000000000:0N         000000400R 10000000010000000030           
RFF0216200069030401      ERT      0000  956.44375000140000081920151900000000321961100W 1220000N                               
CUS0216200000102317765002         JONES, MICHAEL A.   5726 PIMLICO RD                         000N        CARE OF             
MTR02162000001000000000000000RA              78856314    005800070000000700000360000003NN  NNW 000                       N    
RDG02162000WATR 000000004R00000000000000053000008192015190000N0003000000A0N         000000400R 10000000010000000011           
RFF0216200069028717      ERT      0000  956.44375000140000081920151900000000531576100W 1220000N                               
CUS0216200000102317766000         MARBROOK REALTY LIMI5720 PIMLICO RD                         000N        CARE OF             
MTR02162000001000000000000000RA              78857776    005800080000000800000360000003NN  NNW 000                       N    
RDG02162000WATR 000000004R00000000000000102000008192015190000N000000000000N         000000400R 10000000010000000025           
RFF0216200069029640      ERT      0000  956.44375000140000081920151900000001025582100W 1220000N                               
CUS0216200000102317767008         THE MARBROOK CORP   5718 PIMLICO RD                         000N        CARE OF             
MTR02162000001000000000000000RA              77894678    007500090000000900000360000003NN  NNW 000                       N    
RDG02162000WATRL000000004R00000000000007600000408202015084740N000300000010U80       002640400R 10000000010000000000           
RFF0216200069128437      ERT      0000  956.4437500014000408202015084737    877600100 W   0003N                               
CUS0216200000102317768006         STRAUSS, JESSICA    5712 PIMLICO RD                         000N        CARE OF             
MTR02162000001000000000000000RA              77894703    005800100000001000000360000003NN  NNW 000                       N    
RDG02162000WATR 000000004R00000000000000030000008192015170000N0003000000A0N         000000400R 10000000010000000000           
RFF0216200069126339      ERT      0000  956.44375000140000081920151700000000308623100W 1220000N                               
CUS0216200000102317769004         BROOKS MANAGEMENT CO5708 PIMLICO RD                         000N        CARE OF             
MTR02162000001000000000000000RA              77894704    007500110000001100000360000003NN  NNW 000                       N    
RDG02162000WATR 000000004R00000000000000079000008192015190000N0003000000A0N         000000400R 10000000010000000000           
RFF0216200069128410      ERT      0000  956.44375000140000081920151900000000791064100W 1220000N                               
CUS0216200000102317770002         STEARNS, MAXWELL L. 5704 PIMLICO RD                         000N        CARE OF             
MTR02162000001000000000000000RA              79217696    007500120000001200000360000003NN  NNW 000                       N    
RDG02162000WATR 000000004R00000000000000014000008192015190000N0003000000A0N         000000400R 10000000010000000000           
RFF0216200069114323      ERT      0000  956.44375000140000081920151900000000141782100W 1220000N                               
CUS0216200000102317771000         SMITH, MARK         5700 PIMLICO RD                         000N        CARE OF             
MTR02162000001000000000000000RA              79028454    000100130000001300000360000003NN  NNW 000                       N    
RDG02162000WATR 000000004R00000000000000015000008192015190000N0003000000A0N         000000400R 10000000010000000000           
RFF0216200069011292      ERT      0000  956.44375000140000081920151900000000153881100W 1220000N                               
CUS0216200000102317772008         KELEMEN, MARK D.    5620 PIMLICO RD                         000N        CARE OF             
MTR02162000001000000000000000RA              78027551    007500140000001400000360000003NN  NNW 000                       N    
RDG02162000WATR 000000004R00000000000000035000008192015160000N0003000000?0N         000000400R 10000000010000000000           
RFF0216200069126381      ERT      0000  956.44375000140000081920151600000000356528100W 1220000N                               
CUS0216200000102317773006         RHODES, PHILLIP J.  5616 PIMLICO RD                         000N        CARE OF             
MTR02162000001000000000000000RA              77894701    005800150000001500000360000003NN  NNW 000                       N    
RDG02162000WATRL000000004R00000000000008792000508202015084747N000300000010U80       000070400R 10000000010000000000           
RFF0216200069126348      ERT      0000  956.4437500014000408202015084743    388792100 W   0000N                               
CUS0216200000102317774004         BOND JR., FRANK     5606 PIMLICO RD                         000N        CARE OF             
MTR02162000001000000000000000RA              77894681    007500160000001600000360000003NN  NNW 000                       N    
RDG02162000WATR 000000004R00000000000000011000008192015190000N0003000000A0N         000000400R 10000000010000000000           
RFF0216200069126335      ERT      0000  956.44375000140000081920151900000000119297100W 1220000N                               
CUS0216200000102317775001         LEVEQUE, HUBERT     5600 PIMLICO RD                         000N        CARE OF             
MTR02162000001000000000000000RA              79217698    007500170000001700000360000003NN  NNW 000                       N    
RDG02162000WATR 000000004R00000000000000039000008192015190000N0003000000A0N         000000400R 10000000010000000000           
RFF0216200069114309      ERT      0000  956.44375000140000081920151900000000397313100W 1220000N                               
CUS0216200000102317776009         TEQUILA E LANGHAM   5510 PIMLICO RD                         000N        CARE OF             
MTR02162000001000000000000000RA              79041470    005800180000001800000360000003NN  NNW 000                       N    
RDG02162000WATR 000000004R00000000000000016000008192015190000N0003000000>0N         000000400R 10000000010000000000           
RFF0216200069131082      ERT      0000  956.44375000140000081920151900000000162299100W 1220000N                               
CUS0216200000102317777007         WILLIAMS, JURELL E  5508 PIMLICO RD                         000N        CARE OF             
MTR02162000001000000000000000RA              78856306    005800190000001900000360000003NN  NNW 000                       N    
RDG02162000WATR 000000004R00000000000000024000008192015180000N000000000000N         000000400R 10000000010000000011           
RFF0216200069030364      ERT      0000  956.44375000140000081920151800000000246421100W 1220000N                               
CUS0216200000102317778005         HOLTSCLAW, CHRISTINA2500 W ROGERS AVE                       000N        CARE OF             
MTR02162000001000000000000000RA              79216475    007500200000002000000360000003NN  NNW 000                       N    
RDG02162000WATR 000000004R00000000000000029000008192015190000N0003000000A0N         000000400R 10000000010000000000           
RFF0216200069114534      ERT      0000  956.44375000140000081920151900000000298567100W 1220000N                               
CUS0216200000102317779003         LAWS JR., ALFORD W  2502 W NORTHERN PKWY                    000N        CARE OF             
MTR02162000001000000000000000RA              79214880    007500210000002100000360000003NN  NNW 000                       N    
RDG02162000WATR 000000004R00000000000000070000008192015190000N0003000000A0N         000000400R 10000000010000000000           
RFF0216200069021577      ERT      0000  956.44375000140000081920151900000000702633100W 1220000N                               
CUS0216200000102317780001         ISABELLE, LARRY P   5503 RUSK AVE                           000N        CARE OF             
MTR02162000001000000000000000RA              78758460    007500220000002200000360000003NN  NNW 000                       N    
RDG02162000WATR 000000004R00000000000000051000008192015190000N0003000000A0N         000000400R 10000000010000000000           
RFF0216200069016686      ERT      0000  956.44375000140000081920151900000000513827100W 1220000N                               
CUS0216200000102317781009         CHARLES A KASKY     5505 RUSK AVE                           000N        CARE OF             
MTR02162000001000000000000000RA              78758463    007500230000002300000360000003NN  NNW 000                       N    
RDG02162000WATR 000000004R00000000000000035000008192015190000N000300000060N         000000400R 10000000010000000009           
RFF0216200069016622      ERT      0000  956.44375000140000081920151900000000350951100W 1220000N                               
CUS0216200000102317782007         DAYARAM, THAKOOR    2500 KEN OAK RD                         000N        CARE OF             
MTR02162000001000000000000000RA              79217872    007500240000002400000360000003NN  NNW 000                       N    
RDG02162000WATR 000000004R00000000000000014000008192015190000N0003000000A0N         000000400R 10000000010000000000           
RFF0216200069114375      ERT      0000  956.44375000140000081920151900000000145597100W 1220000N                               
CUS0216200000102317783005         ARI LEVI            2502 KEN OAK RD                         000N        CARE OF             
MTR02162000001000000000000000RA              78857031    005800250000002500000360000003NN  NNW 000                       N    
RDG02162000WATR 000000004R00000000000000011000008192015190000N0003000000A0N         000000400R 10000000010000000001           
RFF0216200069028128      ERT      0000  956.44375000140000081920151900000000112663100W 1220000N                               
CUS0216200000102317784003         HERMAN R MCLAWHORN 12505 MANHATTAN AVE                      000N        CARE OF             
MTR02162000001000000000000000RA              78857734    005800260000002600000360000003NN  NNW 000                       N    
RDG02162000WATR 000000004R00000000000000017000008192015190000N0003000000A0N         000000400R 10000000010000000000           
RFF0216200069030051      ERT      0000  956.44375000140000081920151900000000171582100W 1220000N                               
CUS0216200000102317785000         SHURKIN, JOEL N     2503 MANHATTAN AVE                      000N        CARE OF             
MTR02162000001000000000000000RA              78857737    005800270000002700000360000003NN  NNW 000                       N    
RDG02162000WATR 000000004R00000000000000044000008192015190000N0003000000=0N         000000400R 10000000010000000000           
RFF0216200069030070      ERT      0000  956.44375000140000081920151900000000441756100W 1220000N                               
CUS0216200000102317786008         DOWNS, JENNIFER     2501 MANHATTAN AVE                      000N        CARE OF             
MTR02162000001000000000000000RA              36692428    005800280000002800000520000003NN  NNW 000                       N    
RDG02162000WATRL000000004K00000000000002285000608202015090454N000000000000U80       010270400K 10000000010000002266           
CUS0216200000102317787006         CONTO, ANTHONY D    2500 MANHATTAN AVE                      000N        CARE OF             
MTR02162000001000000000000000RA              78940972    005800290000002900000360000003NY  NNW 000                       N    
MTM0216200078940972    BURIED                                                                                                 
RDG02162000WATRL000000004R00000000000000000000000000000000000 000000000000U         000000400  10000000010000000000           
RFF0216200069046299      ERT      0000  956.44375000140000000000000000000000000000        0000N                               
CUS0216200000102317788004         FISHKIN, DAVID      2504 MANHATTAN AVE                      000N        CARE OF             
MTR02162000001000000000000000RA              29679062    005800300000003000000520000003NN  NNW 000                       N    
RDG02162000WATRL000000004K00000000000007199000708202015090957N000000000000U80       003030400K 10000000010000007173           
CUS0216200000102317789002         CARPENTER, LISA R.  2505 WHITNEY AVE                        000N        CARE OF             
MTR02162000001000000000000000RA              77894682    005800310000003100000360000003NN  NNW 000                       N    
RDG02162000WATR 000000004R00000000000000000000008192015190000N0001000000@0N         000000400R 10000000010000000000           
RFF0216200069126380      ERT      0000  956.44375000140000081920151900000000000020100W 1220000N                               
CUS0216200000102317790000         SANGREE, SUZANNE    2503 WHITNEY AVE                        000N        CARE OF             
MTR02162000001000000000000000RA              41074458    005800320000003200000520000003NN  NNW 000                       N    
RDG02162000WATRL000000004K00000000000001599000308202015084316N000000000000U80       002220400K 10000000010000001588           
CUS0216200000102317791008         OMAKI, AKIRA        2501 WHITNEY AVE                        000N        CARE OF             
MTR02162000001000000000000000RA              78552091    005800330000003300000360000003NN  NNW 000                       N    
RDG02162000WATR 000000004R00000000000000015000008192015190000N000000000000N         000000400R 10000000010000000003           
RFF0216200069022626      ERT      0000  956.44375000140000081920151900000000155793100W 1220000N                               
CUS0216200000102317792006         STAUGAITIS, ROBERT M2500 WHITNEY AVE                        000N        CARE OF             
MTR02162000001000000000000000RA              78857682    005800340000003400000360000003NN  NNW 000                       N    
RDG02162000WATR 000000004R00000000000000036000008192015180000N000000000000N         000000400R 10000000010000000011           
RFF0216200069029638      ERT      0000  956.44375000140000081920151800000000363341100W 1220000N                               
CUS0216200000102317793004         DOUGHERTY, GEOFFREY 2502 WHITNEY AVE                        000N        CARE OF             
MTR02162000001000000000000000RA              78857017    005800350000003500000360000003NN  NNW 000                       N    
RDG02162000WATR 000000004R00000000000000017000008192015170000N0003000000A0N         000000400R 10000000010000000000           
RFF0216200069022821      ERT      0000  956.44375000140000081920151700000000173749100W 1220000N                               
CUS0216200000102317794002         ROBERT P PELTON     2504 WHITNEY AVE                        000N        CARE OF             
MTR02162000001000000000000000RA              78857683    005800360000003600000360000003NN  NNW 000                       N    
RDG02162000WATR 000000004R00000000000000023000008192015180000N000000000000N         000000400R 10000000010000000006           
RFF0216200069029612      ERT      0000  956.44375000140000081920151800000000232390100W 1220000N                               
CUS0216200000102317795009         YODER, CHARLES CHRIS5701 RUSK AVE                           000N        CARE OF             
MTR02162000001000000000000000RA              78856588    005800370000003700000360000003NN  NNW 000                       N    
RDG02162000WATR 000000004R00000000000000025000008192015190000N000000000000N         000000400R 10000000010000000009           
RFF0216200069022328      ERT      0000  956.44375000140000081920151900000000250036100W 1220000N                               
CUS0216200000102317796007         BECKER, DAVID       5703 RUSK AVE                           000N        CARE OF             
MTR02162000001000000000000000RA              11426833    005800380000003800000570000003NN  NNW 000                       N    
RDG02162000WATRL000000004K00000000000004857000208202015083934N000000000000U80       035070400K 10000000010000004844           
CUS0216200000102317797005         CECIL E KEEVE       5705 RUSK AVE                           000N        CARE OF             
MTR02162000001000000000000000RA              78856587    005800390000003900000360000003NN  NNW 000                       N    
RDG02162000WATR 000000004R00000000000000002000008192015180000N0003000000@0N         000000400R 10000000010000000000           
RFF0216200069022373      ERT      0000  956.44375000140000081920151800000000020595100W 1220000N                               
CUS0216200000102317798003         LAZARON PEGGY       5707 RUSK AVE                           000N        CARE OF             
MTR02162000001000000000000000RA              78857123    005800400000004000000360000003NN  NNW 000                       N    
RDG02162000WATR 000000004R00000000000000004000008192015190000N0003000000A0N         000000400R 10000000010000000000           
RFF0216200069030622      ERT      0000  956.44375000140000081920151900000000046242100W 1220000N                               
CUS0216200000102317799001         REID, JAMES M       5709 RUSK AVE                           000N        CARE OF             
MTR02162000001000000000000000RA              78857809    005800410000004100000360000003NN  NNW 000                       N    
RDG02162000WATR 000000004R00000000000000011000008192015190000N000000000000N         000000400R 10000000010000000002           
RFF0216200069029605      ERT      0000  956.44375000140000081920151900000000118532100W 1220000N                               
CUS0216200000102317800007         KUDRYAVTSEVA, VIKTOR5711 RUSK AVE                           000N        CARE OF             
MTR02162000001000000000000000RA              78857143    005800420000004200000360000003NN  NNW 000                       N    
RDG02162000WATR 000000004R00000000000000022000008192015170000N000000000000N         000000400R 10000000010000000005           
RFF0216200069029111      ERT      0000  956.44375000140000081920151700000000220930100W 1220000N                               
CUS0216200000102317801005         FLICKINGER, BRENTON 5713 RUSK AVE                           000N        CARE OF             
MTR02162000001000000000000000RA              78857825    005800430000004300000360000003NN  NNW 000                       N    
RDG02162000WATR 000000004R00000000000000020000008192015180000N000000000000N         000000400R 10000000010000000007           
RFF0216200069027930      ERT      0000  956.44375000140000081920151800000000207584100W 1220000N                               
CUS0216200000102317802003         JULIE LYNN          5715 RUSK AVE                           000N        CARE OF             
MTR02162000001000000000000000RA              78857823    005800440000004400000360000003NN  NNW 000                       N    
RDG02162000WATR 000000004R00000000000000016000008192015180000N000000000000N         000000400R 10000000010000000003           
RFF0216200069029717      ERT      0000  956.44375000140000081920151800000000169867100W 1220000N                               
CUS0216200000102317803001         BEANE, LINDSAY R.   5717 RUSK AVE                           000N        CARE OF             
MTR02162000001000000000000000RA              78857758    005800450000004500000360000003NN  NNW 000                       N    
RDG02162000WATR 000000004R00000000000000011000008192015180000N000000000000N         000000400R 10000000010000000002           
RFF0216200069029731      ERT      0000  956.44375000140000081920151800000000119394100W 1220000N                               
CUS0216200000102317804009         CALP, WALTER R (LIFE5719 RUSK AVE                           000N        CARE OF             
MTR02162000001000000000000000RA              78857142    005800460000004600000360000003NN  NNW 000                       N    
RDG02162000WATR 000000004R00000000000000012000008192015190000N000000000000N         000000400R 10000000010000000003           
RFF0216200069028257      ERT      0000  956.44375000140000081920151900000000123987100W 1220000N                               
CUS0216200000102317805006         KAHN, MARTA         2513 CREST RD                           000N        CARE OF             
MTR02162000001000000000000000RA              78856271    005800470000004700000360000003NN  NNW 000                       N    
RDG02162000WATR 000000004R00000000000000015000008192015190000N000000000000N         000000400R 10000000010000000004           
RFF0216200069029426      ERT      0000  956.44375000140000081920151900000000158623100W 1220000N                               
CUS0216200000102317806004         MINKE, JENNIFER M.  5716 RUSK AVE                           000N        CARE OF             
MTR02162000001000000000000000RA              78553803    005800480000004800000360000003NN  NNW 000                       N    
RDG02162000WATR 000000004R00000000000000031000008192015180000N000000000000N         000000400R 10000000010000000004           
RFF0216200068982698      ERT      0000  956.44375000140000081920151800000000312165100W 1220000N                               
CUS0216200000102317807002         JOSEPH SHECKELLS    5714 RUSK AVE                           000N        CARE OF             
MTR02162000001000000000000000RA              78758456    007500490000004900000360000003NN  NNW 000                       N    
RDG02162000WATR 000000004R00000000000000015000008192015190000N000000000000N         000000400R 10000000010000000004           
RFF0216200069030615      ERT      0000  956.44375000140000081920151900000000155570100W 1220000N                               
CUS0216200000102317808000         MORDHORST, MARK R.  5712 RUSK AVE                           000N        CARE OF             
MTR02162000001000000000000000RA              78754861    007500500000005000000360000003NN  NNW 000                       N    
RDG02162000WATR 000000004R00000000000000020000008192015190000N000000000000N         000000400R 10000000010000000005           
RFF0216200069016656      ERT      0000  956.44375000140000081920151900000000201764100W 1220000N                               
CUS0216200000102317809008         ROSSKOPF, VIRGINIA  5708 RUSK AVE                           000N        CARE OF             
MTR02162000001000000000000000RA              79214879    007500510000005100000360000003NN  NNW 000   VACANT PROPERTY     N    
RDG02162000WATR 000000004R00000000000000000000008192015180000N0001000000@0N         000000400R 10000000010000000000           
RFF0216200069021606      ERT      0000  956.44375000140000081920151800000000000019100W 1220000N                               
CUS0216200000102317810006         PERRETT, KEVIN E.   5704 RUSK AVE                           000N        CARE OF             
MTR02162000001000000000000000RA              78857810    005800520000005200000360000003NN  NNW 000                       N    
RDG02162000WATR 000000004R00000000000000020000008192015190000N000000000000N         000000400R 10000000010000000005           
RFF0216200069022332      ERT      0000  956.44375000140000081920151900000000209630100W 1220000N                               
CUS0216200000102317811004         SPEER, JODY L       5700 RUSK AVE                           000N        CARE OF             
MTR02162000001000000000000000RA              78857808    005800530000005300000360000003NN  NNW 000                       N    
RDG02162000WATR 000000004R00000000000000017000008192015180000N000000000000N         000000400R 10000000010000000004           
RFF0216200069029534      ERT      0000  956.44375000140000081920151800000000172067100W 1220000N                               
CUS0216200000102317812002         GROVE, EDWARD B     5528 RUSK AVE                           000N        CARE OF             
MTR02162000001000000000000000RA              78573181    007500540000005400000360000003NN  NNW 000                       N    
RDG02162000WATR 000000004R00000000000000013000008192015190000N000000000000N         000000400R 10000000010000000003           
RFF0216200069017815      ERT      0000  956.44375000140000081920151900000000135635100W 1220000N                               
CUS0216200000102317813000          RITSCHER, ANGELIKA 5506 RUSK AVE                           000N        CARE OF             
MTR02162000001000000000000000RA              75426836    007500550000005500000360000003NN  NNW 000                       N    
RDG02162000WATR 000000004R00000000000000325000008192015190000N000000000000N         000000400R 10000000010000000279           
RFF0216200069030421      ERT      0000  956.44375000140000081920151900000003259282100W 1220000N                               
CUS0216200000102317814008         DIXON, PAMELA Y     5503 STUART AVE                         000N        CARE OF             
MTR02162000001000000000000000RA              77894659    007500560000005600000360000003NN  NNW 000                       N    
RDG02162000WATR 000000004R00000000000000003000008192015190000N0003000000A0N         000000400R 10000000010000000000           
RFF0216200069128420      ERT      0000  956.44375000140000081920151900000000035800100W 1220000N                               
CUS0216200000102317815005         5505 STUART AVENUE, 5505 STUART AVE                         000N        CARE OF             
MTR02162000001000000000000000RA              77894675    007500570000005700000360000003NN  NNW 000                       N    
RDG02162000WATR 000000004R00000000000000000000008192015190000N0001000000A0N         000000400R 10000000010000000000           
RFF0216200069128429      ERT      0000  956.44375000140000081920151900000000000019100W 1220000N                               
CUS0216200000102317816003         ROSEMARY H BAIRD    5507 STUART AVE                         000N        CARE OF             
MTR02162000001000000000000000RA              14925320    005800580000005800000310000003NY  NNW 000                       N    
MTM0216200014925320    CLEAN OUT                                                                                              
RDG02162000WATRL000000004K00000000000000000000000000000000000 000000000000U         000000400  10000000010000001307           
CUS0216200000102317817001         KRYGIER, SCOTT ANTHO2600 KEN OAK RD                         000N        CARE OF             
MTR02162000001000000000000000RA              78856514    005800590000005900000360000003NN  NNW 000                       N    
RDG02162000WATR 000000004R00000000000000027000008192015190000N000000000000N         000000400R 10000000010000000005           
RFF0216200069029036      ERT      0000  956.44375000140000081920151900000000278984100W 1220000N                               
CUS0216200000102317818009         GROVE, EDWARD B     2602 KEN OAK RD                         000N        CARE OF             
MTR02162000001000000000000000RA              78857632    005800600000006000000360000003NN  NNW 000                       N    
RDG02162000WATR 000000004R00000000000000019000008192015190000N000000000000N         000000400R 10000000010000000005           
RFF0216200069029674      ERT      0000  956.44375000140000081920151900000000192047100W 1220000N                               
CUS0216200000102317819007         GAUZZA-LANGLIE, ANDR2604 KEN OAK RD                         000N        CARE OF             
MTR02162000001000000000000000RA              77894680    007500610000006100000360000003NN  NNW 000                       N    
RDG02162000WATR 000000004R00000000000000020000008192015180000N0003000000A0N         000000400R 10000000010000000000           
RFF0216200069128414      ERT      0000  956.44375000140000081920151800000000200652100W 1220000N                               
CUS0216200000102317820005         SNYDER, JOHN D      2606 KEN OAK RD                         000N        CARE OF             
MTR02162000001000000000000000RA              77894683    007500620000006200000360000003NN  NNW 000                       N    
RDG02162000WATR 000000004R00000000000000023000008192015190000N0003000000A0N         000000400R 10000000010000000000           
RFF0216200069128434      ERT      0000  956.44375000140000081920151900000000237625100W 1220000N                               
CUS0216200000102317821003         CANTOR, FAITH       2608 KEN OAK RD                         000N        CARE OF             
MTR02162000001000000000000000RA              79214882    007500630000006300000360000003NN  NNW 000                       N    
RDG02162000WATR 000000004R00000000000000006000008192015180000N0003000000A0N         000000400R 10000000010000000000           
RFF0216200069021629      ERT      0000  956.44375000140000081920151800000000067122100W 1220000N                               
CUS0216200000102317822001         NAOMI C BOOKER      2611 MANHATTAN AVE                      000N        CARE OF             
MTR02162000001000000000000000RA              78856574    005800640000006400000360000003NN  NNW 000                       N    
RDG02162000WATR 000000004R00000000000000011000008192015190000N0003000000A0N         000000400R 10000000010000000000           
RFF0216200069022374      ERT      0000  956.44375000140000081920151900000000119081100W 1220000N                               
CUS0216200000102317823009         CARMEL, PAULINE B (T2609 MANHATTAN AVE                      000N        CARE OF             
MTR02162000001000000000000000RA              78856592    005800650000006500000360000003NN  NNW 000                       N    
RDG02162000WATR 000000004R00000000000000001000008192015190000N0003000000A0N         000000400R 10000000010000000000           
RFF0216200069022221      ERT      0000  956.44375000140000081920151900000000011945100W 1220000N                               
CUS0216200000102317824007         LICHTMAN, JUDITH E. 2607 MANHATTAN AVE                      000N        CARE OF             
MTR02162000001000000000000000RA              41590849    005800660000006600000520000003NN  NNW 000                       N    
RDG02162000WATRL000000004K00000000000001079000808202015091140N000400000010U80       001030400K 10000000010000001078           
CUS0216200000102317825004         SALKOV, E GAVRIELLE 2601 MANHATTAN AVE                      000N        CARE OF             
MTR02162000001000000000000000RA              78758490    007500670000006700000360000003NN  NNW 000                       N    
RDG02162000WATR 000000004R00000000000000011000008192015190000N0003000000A0N         000000400R 10000000010000000000           
RFF0216200069016649      ERT      0000  956.44375000140000081920151900000000111836100W 1220000N                               
CUS0216200000102317826002         SMITH-WALSH, DAWN   2600 MANHATTAN AVE                      000N        CARE OF             
MTR02162000001000000000000000RA              24767824    005800680000006800000520000003NN  NNW 000                       N    
RDG02162000WATRL000000004K00000000000006888001308202015092556N000000000000U80       002650400K 10000000010000006888           
CUS0216200000102317827000         SMITH-WALSH, DAWN   2600 MANHATTAN AVE                      000N        CARE OF             
MTR02162000001000000000000000RA              00000000    005800690000006900000600000000NN  NNW 000                       N    
RDG02162000WATRL000000004K00000000000000000000908202015091338S002000000000U80       001180400K 10000000010000006888           
CUS0216200000102317828008         JOSEPH A MCCLINTOCK 2604 MANHATTAN AVE                      000N        CARE OF             
MTR02162000001000000000000000RA              78856569    005800700000007000000360000003NN  NNW 000                       N    
RDG02162000WATR 000000004R00000000000000017000008192015190000N0003000000A0N         000000400R 10000000010000000000           
RFF0216200069030360      ERT      0000  956.44375000140000081920151900000000178638100W 1220000N                               
CUS0216200000102317829006         REDGRAVE, GRAHAM WES2606 MANHATTAN AVE                      000N        CARE OF             
MTR02162000001000000000000000RA              78856686    005800710000007100000360000003NN  NNW 000                       N    
RDG02162000WATR 000000004R00000000000000025000008192015190000N0003000000A0N         000000400R 10000000010000000000           
RFF0216200069022922      ERT      0000  956.44375000140000081920151900000000256123100W 1220000N                               
CUS0216200000102317830004         LYLE, KISIAH (ETAL) 2608 MANHATTAN AVE                      000N        CARE OF             
MTR02162000001000000000000000RA              78856635    005800720000007200000360000003NN  NNW 000                       N    
RDG02162000WATR 000000004R00000000000000042000008192015190000N000000000000N         000000400R 10000000010000000011           
RFF0216200069022334      ERT      0000  956.44375000140000081920151900000000429746100W 1220000N                               
CUS0216200000102317831002         BECKFORD, WILLIAM L 2611 WHITNEY AVE                        000N        CARE OF             
