FHDNNNN048009932009932010078N                                                                                           031485
RHD09899000NN01460146000001460000000001120112000041NY011201120146000500030000000000000000000001    08062015NY020000 N         
CUS0989900000109440583004         BALTIMORE CO        9650 HONEYGO BLVD                       000N        CARE OF             
MTR09899000001000000000000000RA              14921045    001500010000000100000310000003NN  NNW 000                       N    
RDG09899000WATRL000000005K00000000000011232000108242015121611N000400000010U91       000000500K 10000000010000011231           
CUS0989900000109443616009         BALTIMORE COUNTY MAR9685 HONEYGO BLVD                       000N        CARE OF             
MTR09899000001000000000000000RA              0809812     000800020000000200000630000000NY  NNW 000                       N    
MTM098990000809812     TWO DIALS 000003               01004                                                                   
RDG09899000WATRL000000006K00000000000001004000208242015121747N000000000000U91       000960600K 10000000010000000966           
CUS0989900000109455623000         CONCESSION BUILDING 9201 HONEYGO BLVD                       000N        CARE OF             
MTR09899000001000000000000000RA              99999999    000300030000000300000440000000NN  NNW 000                       N    
RDG09899000WATRL000000005K00000000000001291000308242015121758N000000000010U91       000110500K 10000000010000000015           
CUS0989900000109455625005         CONCESSION BUILDING 9201 HONEYGO BLVD                       000N        CARE OF             
MTR09899000001000000000000000RA              99999999    000200040000000400000440000003NY  NNW 000                       N    
MTM0989900099999999    CL                                                                                                     
RDG09899000WATRL000000005K00000000000000000000000000000000000 000000000000U         000000500  10000000010000000000           
CUS0989900000109433707008         BALTIMORE COUNTY MAR9033 HONEYGO BLVD                       000N        CARE OF             
MTR09899000002000000000000000RA              0203989     000600050000000500000540000000NN  NNW 000                       N    
RDG09899000WATAL000000006K00000000000000000000408242015121852N000100000010U91       000540600K 10000000010000000000           
RDG09899000WATBL000000006K00000000000007844000508242015121859N000400000010U91       000070600K 10000000010000007341           
CUS0989900000109403589006         BOARD OF EDUCATION O8727 HONEYGO BLVD                       000N        CARE OF             
MTR09899000002000000000000000RA              8023174     000800060000000600000630000003NN  NNW 000                       N    
RDG09899000WATAL000000006K00000000000000001000608242015121940N000100000010U91       000410600K 10000000010000000001           
RDG09899000WATBL000000006K00000000000005247000708242015121951N000400000010U91       000110600K 10000000010000005133           
CUS0989900000109427200002         TURNER WADE H,TRUSTE8710 HONEYGO BLVD                       000N        CARE OF             
MTR09899000001000000000000000RA              00066914    001500070000000700000570000003NN  NNW 000                       N    
RDG09899000WATRL000000005K00000000000000229000808242015121956N000000000000U91       000050500K 10000000010000000227           
CUS0989900000109434124005         SILVER LAKE CONDO AS4902 MARCHWOOD CT                       000N        CARE OF             
MTR09899000002000000000000000RA              0209097     000800080000000800000630000003NN  NNW 000                       N    
RDG09899000WATAL000000006K00000000000000003000908242015122001N000100000010U91       000050600K 10000000010000000003           
RDG09899000WATBL000000006K00000000000020509001008242015122010N000400000010U91       000090600K 10000000010000019489           
CUS0989900000109432364009         HILLENDALE BIBLE CHA5040 FORGE RD                           000N        CARE OF             
MTR09899000002000000000000000RA              70050076    000600090000000900000560000003NN  NNW 000                       N    
RDG09899000WATAL000000006K00000000000000023001108242015122015N000100000010U91       000050600K 10000000010000000023           
RDG09899000WATBL000000006K00000000000000729001208242015122022N000400000010U91       000070600K 10000000010000000714           
CUS0989900000109435509006         HONEYGO VILLAGE COND5001-5103 CAMEO TER                     000N        CARE OF             
MTR09899000002000000000000000RA              0412163     000800100000001000000630000003NN  NNW 000                       N    
RDG09899000WATAL000000006K00000000000000000001308242015122027N000100000010U91       000050600K 10000000010000000000           
RDG09899000WATBL000000006K00000000000042198001408242015122040N000400000010U91       000130600K 10000000010000039618           
CUS0989900000109436887005         FIRST NATIONAL BANK 5000 HONEYGO CENTER DR                  000N        CARE OF             
MTR09899000001000000000000000RA              00163781    000100110000001100000570000003NN  NNW 000                       N    
RDG09899000WATRL000000004K00000000000000133001508242015122044N000000000000U91       000040400K 10000000010000000130           
CUS0989900000109440142009         HONEYGO VILLAGE CTR 5001 HONEYGO CENTER DR                  000N        CARE OF             
MTR09899000001000000000000000RA              14914785    001500120000001200000310000000NN  NNW 000                       N    
RDG09899000WATRL000000005K00000000000004101001608242015122050N000000000000U91       000060500K 10000000010000004101           
CUS0989900000109435505004         HONEYGO VILLAGE CENT5009 HONEYGO CENTER DR                  000N        CARE OF             
MTR09899000002000000000000000RA              0310381     000800130000001300000630000000NN  NNW 000                       N    
RDG09899000WATAL000000006K00000000000000007001708242015122056N000100000010U91       000060600K 10000000010000000007           
RDG09899000WATBL000000006K00000000000051931001808242015122106N000400000010U91       000100600K 10000000010000049551           
CUS0989900000109435511002         HONEYGO VILLAGE COND5000-5062 STRAWBRIDGE TER               000N        CARE OF             
MTR09899000002000000000000000RA              0110196     000800140000001400000630000000NN  NNW 000                       N    
RDG09899000WATAL000000006K00000000000000002001908242015122122N000100000010U91       000160600K 10000000010000000002           
RDG09899000WATBL000000006K00000000000049459002008242015122131N000400000010U91       000090600K 10000000010000048441           
CUS0989900000109435507000         HONEYGO VILLAGE     9300-9358 SCOTT MOORE WAY               000N        CARE OF             
MTR09899000002000000000000000RA              0109760     000800150000001500000630000000NN  NNW 000                       N    
RDG09899000WATAL000000006K00000000000000003002108242015122136N000100000010U91       000050600K 10000000010000000003           
RDG09899000WATBL000000006K00000000000062747002208242015122148N000400000010U91       000120600K 10000000010000061453           
CUS0989900000109435596003         HONEYGO VILLAGE CENT9400 SCOTT MOORE WAY                    000N        CARE OF             
MTR09899000001000000000000000RA              8048189     000600160000001600000380000000NN  NNW 000   FIRE SERVICE        N    
RDG09899000WATRL000000006K00000000000000023002308242015122152N000000000000U91       000040600K 10000000010000000023           
CUS0989900000109435598009         WEIS MARKETS INC    9400 SCOTT MOORE WAY                    000N        CARE OF             
MTR09899000001000000000000000RA              0911524     000300170000001700000640000000NN  NNW 000                       N    
RDG09899000WATRL000000005K00000000000007608002408242015122242N000000000000U91       000500500K 10000000010000007309           
CUS0989900000109438565005         HIGHS OF BALTIMORE L9414 SCOTT MOORE WAY                    000N        CARE OF             
MTR09899000001000000000000000RA              14914738    001500180000001800000310000000NN  NNW 000                       N    
RDG09899000WATRL000000005K00000000000008659002508242015122246N000000000000U91       000040500K 10000000010000008485           
CUS0989900000109456407007         BALTIMORE COUNTY MAR4905 E JOPPA RD                         000N        CARE OF             
MTR09899000001000000000000000RA              1200623     000400190000001900000410000003NN  NNW 000   FIRE SERVICE        N    
RDG09899000WATRL000000006K00000000000000000002608242015122250N000000000000U91       000040600K 10000000010000000000           
CUS0989900000109456409003         BALTIMORE COUNTY MAR4905 E JOPPA RD                         000N        CARE OF             
MTR09899000001000000000000000RA              70004363    001500200000002000000570000003NN  NNW 000                       N    
RDG09899000WATRL000000005K00000000000000039002708242015122255N000000000000U91       000050500K 10000000010000000037           
CUS0989900000109437373005         CAMP CHAPEL UNITED  5000 E JOPPA RD                         000N        CARE OF             
MTR09899000001000000000000000RA              8048947     000600210000002100000380000003NN  NNW 000   FIRE SERVICE        N    
RDG09899000WATRL000000006K00000000000000001002808242015122300N000000000010U91       000050600K 10000000010000000001           
CUS0989900000109437372007         CAMP CHAPEL UNITED  5000 E JOPPA RD                         000N        CARE OF             
MTR09899000001000000000000000RA              01105840    000200220000002200000610000003NN  NNW 000                       N    
RDG09899000WATRL000000005K00000000000001323002908242015122308N000300000010U91       000080500K 10000000010000001276           
CUS0989900000109445251003         PERRY HALL FAMILY   5125 E JOPPA RD                         000N        CARE OF             
MTR09899000001000000000000000RA              99999999    000100230000002300000440000000NN  NNW 000                       N    
RDG09899000WATRL000000004K00000000000000152003008242015122310N000000000000U91       000020400K 10000000010000000141           
CUS0989900000109445252001         PERRY HALL FAMILY   5125 E JOPPA RD                         000N        CARE OF             
MTR09899000001000000000000000RA              99999999    000600240000002400000440000000NN  NNW 000   FIRE SERVICE        N    
RDG09899000WATRL000000006K00000000000000001003108242015122313N000000000000U91       000030600K 10000000010000000001           
CUS0989900000109430893009         BALTO COUNTY BD OF  5200 E JOPPA RD                         000N        CARE OF             
MTR09899000001000000000000000RA              8046618     000600250000002500000380000003NN  NNW 000   FIRE SERVICE        N    
RDG09899000WATRL000000006K00000000000000010003208242015122316N000000000000U91       000030600K 10000000010000000010           
CUS0989900000109430895004         BALTO COUNTY BD OF  5200 E JOPPA RD                         000N        CARE OF             
MTR09899000001000000000000000RA              0910849     000400260000002600000630000003NN  NNW 000                       N    
RDG09899000WATRL000000006K00000000000005906003308242015122322N000400000010U91       000060600K 10000000010000005765           
CUS0989900000109077527001         VERIZON COMMUNICATIO9507 BELAIR RD                          000N        CARE OF             
MTR09899000002000000000000000RA              70248954    000300270000002700000460000003NN  NNW 000                       N    
RDG09899000WATAL000000005K00000000000000068000108222015131510N000400000010N44       000000500K 10000000010000000067           
RDG09899000WATBL000000005K00000000000000074000208222015131517N000400000010N44       000070500K 10000000010000000073           
CUS0989900000109077528009         PERRY HALL METH CHUR9515 BELAIR RD                          000N        CARE OF             
MTR09899000001000000000000000RA              36699558    000100280000002800000520000003NN  NNW 000                       N    
RDG09899000WATRL000000004K00000000000009816000308222015131522N000000000000N44       000050400K 10000000010000009766           
CUS0989900000109430290008         WALGREENS #5587     9621 BELAIR RD                          000N        CARE OF             
MTR09899000001000000000000000RA              8045281     000600290000002900000380000000NN  NNW 000   FIRE SERVICE        N    
RDG09899000WATRL000000006K00000000000000001000408222015131526N000000000000N44       000040600K 10000000010000000001           
CUS0989900000109430292004         WALGREENS #5587     9621 BELAIR RD                          000N        CARE OF             
MTR09899000001000000000000000RA              00066846    001500300000003000000570000000NN  NNW 000                       N    
RDG09899000WATRL000000005K00000000000001900000508222015131531N000000000000N44       000050500K 10000000010000001871           
CUS0989900000109429487003         PERRY HALL CENTER LL9639 BELAIR RD                          000N        CARE OF             
MTR09899000002000000000000000RA              70073521    000800310000003100000560000000NN  NNW 000                       N    
RDG09899000WATAL000000006K00000000000000000000608222015131550S022000000000N44       000190600K 10000000010000000005           
RDG09899000WATBL000000006K00000000000020973000708222015131608N000400000010N44       000180600K 10000000010000020284           
CUS0989900000109422164005         MADISON SQUARE FEDER9651 BELAIR RD                          000N        CARE OF             
MTR09899000001000000000000000RA              8041133     000600320000003200000380000003NN  NNW 000   FIRE SERVICE        N    
RDG09899000WATRL000000006K00000000000000005000808222015131612N000000000000N44       000040600K 10000000010000000005           
CUS0989900000109422166000         MADISON SQUARE FEDER9651 BELAIR RD                          000N        CARE OF             
MTR09899000001000000000000000RA              01105463    000200330000003300000610000003NN  NNW 000                       N    
RDG09899000WATRL000000005K00000000000000302000908222015131630N000400000010N44       000180500K 10000000010000000295           
CUS0989900000109446552003         CROSSROADS RESERVE L9653A BELAIR RD                         000N        CARE OF             
MTR09899000001000000000000000RA              00167155    000100340000003400000570000003NN  NNW 000                       N    
RDG09899000WATRL000000004K00000000000000534001008222015131634N000000000000N44       000040400K 10000000010000000522           
CUS0989900000109446553001         CROSSROADS RESERVE L9653A BELAIR RD                         000N        CARE OF             
MTR09899000001000000000000000RA              0007346     000600350000003500000570000003NN  NNW 000   FIRE SERVICE        N    
RDG09899000WATRL000000006K00000000000000000001108222015131640N000000000000N44       000060600K 10000000010000000000           
CUS0989900000109454031007         CROSSROADS RESERVE L9655-57 BELAIR RD                       000N        CARE OF             
MTR09899000001000000000000000RA              13908573    000800360000003600000390000003NY  NNW 000                       N    
MTM0989900013908573    TWO DIALS 000010               00023                                                                   
RDG09899000WATRL000000006K00000000000000023003408242015122623N000000000000U91       001810600K 10000000010000000023           
CUS0989900000109393268009         CHAPEL VILLAGE CONDO2 JULIET LN                             000N        CARE OF             
MTR09899000002000000000000000RA              7211417     000800370000003700000630000003NN  NNW 000                       N    
RDG09899000WATAL000000006K00000000000000057001208222015131717N000100000010N44       000370600K 10000000010000000057           
RDG09899000WATBL000000006K00000000000033204001308222015131750N000400000030N44       000330600K 10000000010000031385           
CUS0989900000109348224008         CHAPEL VALLEY REALTY1 CHAPEL RD                             000N        CARE OF             
MTR09899000002000000000000000RA              5977886     000800380000003800000540000003NN  NNW 000                       N    
RDG09899000WATAL000000006K00000000000000002003508242015122634N000100000010U91       000110600K 10000000010000000002           
RDG09899000WATBL000000006K00000000000091927003608242015122646N000400000010U91       000120600K 10000000010000087267           
CUS0989900000109077529007         CHAPEL MANOR APARTME4217-23 CHAPEL RD                       000N        CARE OF             
MTR09899000001000000000000000RA              0904249     000300390000003900000640000003NN  NNW 000                       N    
RDG09899000WATRL000000005K00000000000009924003708242015122651N000000000000U91       000050500K 10000000010000009187           
CUS0989900000109430785007         WINDSOR CONDO PERRY 9503 KINGSCROFT TER                     000N        CARE OF             
MTR09899000002000000000000000RA              0008833     000800400000004000000630000003NN  NNW 000                       N    
RDG09899000WATAL000000006K00000000000000700003808242015122716N000000000000U91       000250600K 10000000010000000042           
RDG09899000WATBL000000006K00000000000023720003908242015122729N000400000010U91       000130600K 10000000010000022357           
CUS0989900000109428557004         PERRY HALL FARMS    9600 HAVEN FARM RD                      000N        CARE OF             
MTR09899000002000000000000000RA              70067467    000800410000004100000560000003NN  NNW 000                       N    
RDG09899000WATAL000000006K00000000000001523004008242015122735N000100000010U91       000060600K 10000000010000001523           
RDG09899000WATBL000000006K00000000000032405004108242015122747N000400000010U91       000120600K 10000000010000030761           
CUS0989900000109077530005         CHAPEL MANOR APARTMEWS PERRY HALL BLVD                      000N        CARE OF             
MTR09899000002000000000000000RA              4913836     000600420000004200000540000003NN  NNW 000                       N    
RDG09899000WATAL000000006K00000000000000009004208242015122756N000400000010U91       000090600K 10000000010000000000           
RDG09899000WATBL000000006K00000000000008565004308242015122823N000300000010U91       000270600K 10000000010000144767           
CUS0989900000109077531003         CHAPEL MANOR APARTME9500-18 PERRY HALL BLVD                 000N        CARE OF             
MTR09899000002000000000000000RA              4913835     000600430000004300000540000003NN  NNW 000                       N    
RDG09899000WATAL000000006K00000000000002944004408242015122919N000000000000U91       000560600K 10000000010000000002           
RDG09899000WATBL000000006K00000000000008461004508242015122953N000300000010U91       000340600K 10000000010000023473           
CUS0989900000109077536002         MAREK CHARLES B,JR  9712-14 BELAIR RD                       000N        CARE OF             
MTR09899000001000000000000000RA              35101331    000200440000004400000520000003NN  NNW 000                       N    
RDG09899000WATRL000000005K00000000000009273004608242015123003N000000000000U91       000100500K 10000000010000009212           
CUS0989900000109077532001         PERRY HALL BAPTIST C3919 SCHROEDER AVE                      000N        CARE OF             
MTR09899000002000000000000000RA              5679527     000800450000004500000480000003NN  NNW 000   FIRE SERVICE        N    
RDG09899000WATAL000000006K00000000000000469004708242015123007N000000000000U91       000040600K 10000000010000000469           
RDG09899000WATBL000000006K00000000000000049004808242015123028N000100000010U91       000210600K 10000000010000000049           
CUS0989900000109077533009         PERRY HALL BAPTIST C3919 SCHROEDER AVE                      000N        CARE OF             
MTR09899000001000000000000000RA              14914897    001500460000004600000310000003NN  NNW 000                       N    
RDG09899000WATRL000000005K00000000000003493004908242015123032N000000000000U91       000040500K 10000000010000003325           
CUS0989900000109077535004         NORTHVIEW ASSOCIATIO9634 BELAIR RD                          000N        CARE OF             
MTR09899000001000000000000000RA              11800706    000300470000004700000460000003NN  NNW 000                       N    
RDG09899000WATRL000000005K00000000000010439005008242015123037N000000000000U91       000050500K 10000000010000009081           
CUS0989900000109077534007         NORTHVIEW ASSOCIATIO9634 BELAIR RD                          000N        CARE OF             
MTR09899000001000000000000000RA              4832847     000600480000004800000410000003NN  NNW 000   FIRE SERVICE        N    
RDG09899000WATRL000000006K00000000000000136005108242015123043N000000000000U91       000060600K 10000000010000000136           
CUS0989900000109454530008         9654 BELAIR ROAD INC9654 BELAIR RD                          000N        CARE OF             
MTR09899000001000000000000000RA              70000391    001500490000004900000570000000NN  NNW 000                       N    
RDG09899000WATRL000000005K00000000000002972005208242015123204N000300000010U91       000810500K 10000000010000001285           
CUS0989900000109454531006         9654 BELAIR ROAD INC9654 BELAIR RD                          000N        CARE OF             
MTR09899000001000000000000000RA              0006704     000400500000005000000570000000NN  NNW 000                       N    
RDG09899000WATRL000000006K00000000000000000005308242015123307N000000000000U91       000630600K 10000000010000000000           
CUS0989900000109445598007         ROSEDALE FED S&L ASS9616A BELAIR RD                         000N        CARE OF             
MTR09899000001000000000000000RA              90000208    000200510000005100000570000000NN  NNW 000                       N    
RDG09899000WATRL000000005K00000000000000294005408242015123310N000000000000U91       000030500K 10000000010000000276           
CUS0989900000109445599005         ROSEDALE FED S&L ASS9616A BELAIR RD                         000N        CARE OF             
MTR09899000001000000000000000RA              09054006    000600520000005200000380000000NN  NNW 000   FIRE SERVICE        N    
RDG09899000WATRL000000006K00000000000000000005508242015123313N000000000000U91       000030600K 10000000010000000000           
CUS0989900000109432882000         BOARD OF EDUCATION O9540 HOLIDAY MANOR RD                   000N        CARE OF             
MTR09899000001000000000000000RA              8047060     000600530000005300000380000000NN  NNW 000   FIRE SERVICE        N    
RDG09899000WATRL000000006K00000000000000003005608242015123320N000000000010U91       000070600K 10000000010000000002           
CUS0989900000109432884006         BALTO CO BOARD OF   9540 HOLIDAY MANOR RD                   000N        CARE OF             
MTR09899000001000000000000000RA              01026321    000300540000005400000460000000NN  NNW 000                       N    
RDG09899000WATRL000000005K00000000000012144005708242015123328N000300000010U91       000080500K 10000000010000010491           
CUS0989900000109077538008         ST MICHAELS CHURCH  9534 BELAIR RD                          000N        CARE OF             
MTR09899000001000000000000000RA              35101363    000200550000005500000520000003NY  NNW 000                       N    
MTM0989900035101363    NO NUT                                                                                                 
RDG09899000WATRL000000005K00000000000011642005808242015123500N000308508510U91       000920500K 10000000010000011383           
CUS0989900000109433472009         VARZANDEH JAVAD     9402 BELAIR RD                          000N        CARE OF             
MTR09899000001000000000000000RA              01105481    000200560000005600000610000000NN  NNW 000                       N    
RDG09899000WATRL000000005K00000000000004744005908242015123505N000000000000U91       000050500K 10000000010000004662           
CUS0989900000109352904008         MCDONALD'S OFFICE   9108 BELAIR RD                          000N        CARE OF             
MTR09899000001000000000000000RA              01105364    001500570000005700000610000003NN  NNW 000                       N    
RDG09899000WATRL000000005K00000000000012492006008242015123509N000000000000U91       000040500K 10000000010000012241           
CUS0989900000109077543008         HALLFIELD MANOR     SS SLATER AV 150 FT                     000N        CARE OF             
MTR09899000002000000000000000RA              27567887    000300580000005800000330000003NN  NNW 000                       N    
RDG09899000WATAL000000005K00000000000013085006108242015123516N000000000000U91       000070500K 10000000010000012577           
RDG09899000WATBL000000005K00000000000012745006208242015123526N000400000010U91       000100500K 10000000010000012261           
CUS0989900000109077515006         SILVER SPRING ASSOCI8641-73 BELAIR RD                       000N        CARE OF             
MTR09899000001000000000000000RA              1178555     000200590000005900000490000003NN  NNW 000                       N    
RDG09899000WATRL000000005K00000000000000000006308252015120135S005000000000U91       000000500K 10000000010000017177           
CUS0989900000109077514009         SILVER SPRING ASSOCI8641-73 BELAIR RD                       000N        CARE OF             
MTR09899000003000000000000000RA              5679524     000800600000006000000480000003NY  NNW 000   FIRE SERVICE        N    
MTM098990005679524     CS                                                                                                     
RDG09899000WATAL000000006K00000000000000033000208252015120141N000000000000U91       000060600K 10000000010000000033           
RDG09899000WATBL000000006K00000000000000000000000000000000000 000000000000U         000000600  10000000010000000007           
RDG09899000WATCL000000006K00000000000000000000000000000000000 000000000000U         000000600  10000000010000000009           
CUS0989900000109397912008         WHITE MARSH BAPTIST 4216C SILVER SPRING RD                  000N        CARE OF             
MTR09899000001000000000000000RA              90000017    000200610000006100000570000003NN  NNW 000                       N    
RDG09899000WATRL000000005K00000000000001504006408242015123744N000000000000U91       001340500K 10000000010000001464           
CUS0989900000109397904005         WHITE MARSH BAPTIST 4216C SILVER SPRING RD                  000N        CARE OF             
MTR09899000002000000000000000RA              7219062     000600620000006200000630000003NN  NNW 000   FIRE SERVICE        N    
RDG09899000WATAL000000006K00000000000000000006508242015123750N000100000010U91       000060600K 10000000010000000000           
RDG09899000WATBL000000006K00000000000000177006608242015123757N000400000010U91       000070600K 10000000010000000174           
CUS0989900000109394645007         COTTINGTON ROAD LTD 2 FLANDERS CT                           000N        CARE OF             
MTR09899000001000000000000000RA              01116831    000200630000006300000610000003NN  NNW 000                       N    
RDG09899000WATRL000000005K00000000000009730006708242015123801N000000000000U91       000040500K 10000000010000009218           
CUS0989900000109394628003         COTTINGTON ROAD LTD 2 HASPERT RD                            000N        CARE OF             
MTR09899000001000000000000000RA              01116797    000200640000006400000610000003NN  NNW 000                       N    
RDG09899000WATRL000000005K00000000000009044006808242015123809N000400000010U91       000080500K 10000000010000008916           
CUS0989900000109396255003         DURBAN ROAD LIMITED 6 HASPERT RD                            000N        CARE OF             
MTR09899000001000000000000000RA              00066917    001500650000006500000570000003NN  NNW 000                       N    
RDG09899000WATRL000000005K00000000000011056006908242015123820N000000000000U91       000110500K 10000000010000010833           
CUS0989900000109396256001         DURBAN ROAD RECREATI8800 YVONNE AVE                         000N        CARE OF             
MTR09899000001000000000000000RA              32905029    001500660000006600000520000003NN  NNW 000                       N    
RDG09899000WATRL000000005K00000000000016338007008242015123825N000000000000U91       000050500K 10000000010000015908           
CUS0989900000109396278005         DURBAN ROAD LIMITED 3 DURBAN CT                             000N        CARE OF             
MTR09899000001000000000000000RA              14914700    001500670000006700000310000003NN  NNW 000                       N    
RDG09899000WATRL000000005K00000000000007466007108242015123829N000000000000U91       000040500K 10000000010000007239           
CUS0989900000109396275001         DURBAN ROAD LIMITED 4 DURBAN CT                             000N        CARE OF             
MTR09899000001000000000000000RA              01104955    001500680000006800000610000003NN  NNW 000                       N    
RDG09899000WATRL000000005K00000000000009813007208242015123916N000000000000U91       000470500K 10000000010000009633           
CUS0989900000109396276009         DURBAN ROAD LIMITED 6 DURBAN CT                             000N        CARE OF             
MTR09899000001000000000000000RA              01105129    001500690000006900000610000003NN  NNW 000                       N    
RDG09899000WATRL000000005K00000000000009757007308242015123922N000000000000U91       000060500K 10000000010000009559           
CUS0989900000109396277007         DURBAN ROAD LIMITED 2 DURBAN CT                             000N        CARE OF             
MTR09899000001000000000000000RA              01105062    001500700000007000000610000003NN  NNW 000                       N    
RDG09899000WATRL000000005K00000000000007890007408242015123925N000000000000U91       000030500K 10000000010000007767           
CUS0989900000109388586001         COTTINGTON ROAD LTD 4 CAMERON CT                            000N        CARE OF             
MTR09899000001000000000000000RA              11800854    000300710000007100000640000003NN  NNW 000                       N    
RDG09899000WATRL000000005K00000000000019046007508242015123936N000000000000U91       000110500K 10000000010000017540           
CUS0989900000109388584006         COTTINGTON ROAD LTD 4 FALLON CT                             000N        CARE OF             
MTR09899000001000000000000000RA              9311831     000300720000007200000640000003NN  NNW 000                       N    
RDG09899000WATRL000000005K00000000000013247007608242015123942N000000000000U91       000060500K 10000000010000012182           
CUS0989900000109388585003         COTTINGTON ROAD LTD 3 FALLON CT                             000N        CARE OF             
MTR09899000001000000000000000RA              1215554     000300730000007300000490000003NN  NNW 000                       N    
RDG09899000WATRL000000005K00000000000007597007708242015123948N000000000000U91       000060500K 10000000010000006376           
CUS0989900000109403207005         KMF NOTTINGHAM LLC  4400 FREESTONE LN                       000N        CARE OF             
MTR09899000002000000000000000RA              8941682     000800740000007400000630000003NN  NNW 000                       N    
RDG09899000WATAL000000006K00000000000000002007808242015124016N000100000010U91       000280600K 10000000010000000002           
RDG09899000WATBL000000006K00000000000058909007908242015124025N000400000010U91       000090600K 10000000010000055611           
CUS0989900000109418262003         SOUTHFIELD AT WHITE 8378 CYPRESS MILL RD                    000N        CARE OF             
MTR09899000002000000000000000RA              9412062     000800750000007500000630000003NN  NNW 000                       N    
RDG09899000WATAL000000006K00000000000000002008008242015124032N000100000010U91       000070600K 10000000010000000002           
RDG09899000WATBL000000006K00000000000048840008108242015124040N000400000010U91       000080600K 10000000010000047460           
CUS0989900000109409523009         SOUTHFIELD AT WHITE 8 LAUREL PATH CT                        000N        CARE OF             
MTR09899000002000000000000000RA              9050637     000800760000007600000630000003NY  NNW 000                       N    
MTM098990009050637     BURIED                                                                                                 
RDG09899000WATAL000000006K00000000000000000000000000000000000 000000000000U         000000600  10000000010000000856           
RDG09899000WATBL000000006K00000000000000000000000000000000000 000000000000U         000000600  10000000010000029759           
CUS0989900000109412117005         SOUTHFIELD VILLAGE C4100 MAPLE PATH CIR                     000N        CARE OF             
MTR09899000002000000000000000RA              9216961     000800770000007700000630000003NN  NNW 000                       N    
RDG09899000WATAL000000006K00000000000000001008208242015124127N000100000010U91       000470600K 10000000010000000001           
RDG09899000WATBL000000006K00000000000058265008308242015124136N000400000010U91       000090600K 10000000010000056915           
CUS0989900000109077518000         BEACONSWOOD HOMEOWNESS BEACONSFIELD DR                      000N        CARE OF             
MTR09899000001000000000000000RA              70248951    000300780000007800000470000003NY  NNW 000                       N    
MTM0989900070248951    TWO DIALS 00999                0990                                                                    
RDG09899000WATRL000000005K00000000000000990008408242015124234N000000000000U91       000580500K 10000000010000000990           
CUS0989900000109357702001         MILLWOOD HOMEOWNERS 9999 W BEACONSWOOD CT                   000N        CARE OF             
MTR09899000002000000000000000RA              20628536    000300790000007900000460000003NN  NNW 000                       N    
RDG09899000WATAL000000005K00000000000016402008508242015124739N000400000021U91       002120500K 10000000010000016331           
RDG09899000WATBL000000005K00000000000000029008608242015124746N000100000010U91       000070500K 10000000010000000029           
CUS0989900000109357701003         MILLWOOD HOMEOWNERS 9999 E BEACONSWOOD CT                   000N        CARE OF             
MTR09899000001000000000000000RA              11800851    000300800000008000000640000003NN  NNW 000                       N    
RDG09899000WATRL000000005K00000000000016939008708242015124751N000000000000U91       000050500K 10000000010000015572           
CUS0989900000109077517002         BEACONSWOOD HOMEOWNESS BEACONSFIELD DR 117 FT               000N        CARE OF             
MTR09899000001000000000000000RA              1292468     000300810000008100000470000003NN  NNW 000                       N    
RDG09899000WATRL000000005K00000000000097320000308252015120334N000000000000U91       001130500K 10000000010000096609           
CUS0989900000109377749008         BURNAM WOODS LIMITED3 BEESON CT                             000N        CARE OF             
MTR09899000002000000000000000RA              7098163     000800820000008200000630000003NN  NNW 000                       N    
RDG09899000WATAL000000006K00000000000000068000408252015120342N000400000010U91       000080600K 10000000010000000063           
RDG09899000WATBL000000006K00000000000063382000508252015120350N000400000010U91       000080600K 10000000010000059865           
CUS0989900000109385382008         CR LINCOLN WOODS APT1 LINCOLN WOODS WAY                     000N        CARE OF             
MTR09899000002000000000000000RA              7135053     001000830000008300000480000003NN  NNW 000                       N    
RDG09899000WATAL000000007K00000000000000001000608252015120356N000100000010U91       000060700K 10000000010000000001           
RDG09899000WATBL000000007K00000000000059721000708252015120408N000400000010U91       000120700K 10000000010000056985           
CUS0989900000109389532004         CR QUAIL RIDGE APTS 4810 BERRYHILL CIR                      000N        CARE OF             
MTR09899000002000000000000000RA              7164739     000800840000008400000630000003NY  NNW 000                       N    
MTM098990007164739     OK                                                                                                     
RDG09899000WATAL000000006K00000000000000002000808252015120416N000400000010U91       000080600K 10000000010000000001           
RDG09899000WATBL000000006K00000000000000000000908252015120427N000300000010U91       000110600K 10000000010000015552           
CUS0989900000109389521007         QUAIL RIDGE APARTMEN8200 FEATHERHILL RD                     000N        CARE OF             
MTR09899000002000000000000000RA              7194733     000800850000008500000630000003NN  NNW 000                       N    
RDG09899000WATAL000000006K00000000000000006001008252015120434N000100000010U91       000070600K 10000000010000000006           
RDG09899000WATBL000000006K00000000000024481001108252015120444N000400000010U91       000100600K 10000000010000020073           
CUS0989900000109394993001         HUFFMAN RICHARD O   8650 WINDING WAY                        000N        CARE OF             
MTR09899000001000000000000000RA              01105590    000200860000008600000610000003NN  NNW 000                       N    
RDG09899000WATRL000000005K00000000000006372001208252015120453N000300000010U91       000090500K 10000000010000005297           
CUS0989900000109392706009         KNOWLEDGE LEARNING C4901 SILVER SPRING RD                   000N        CARE OF             
MTR09899000001000000000000000RA              99315188    000100870000008700000570000003NN  NNW 000                       N    
RDG09899000WATRL000000004K00000000000001544001308252015120511N000000000000U91       000180400K 10000000010000001270           
CUS0989900000109392704004         KC PROPCO LLC       4901 SILVER SPRING RD                   000N        CARE OF             
MTR09899000001000000000000000RA              E22914      000600880000008800000430000003NN  NNW 000   FIRE SERVICE        N    
RDG09899000WATRL000000006K00000000000000000001408252015120514N000000000000U91       000030600K 10000000010000000000           
CUS0989900000109410883004         RARDIN RESTURANTS IN8483 CORDON WAY                         000N        CARE OF             
MTR09899000001000000000000000RA              33734093    001500890000008900000520000003NN  NNW 000                       N    
RDG09899000WATRL000000005K00000000000023537001508252015120518N000000000000U91       000040500K 10000000010000023319           
CUS0989900000109378942008         4961 MERCANTILE ROAD4961 MERCANTILE RD                      000N        CARE OF             
MTR09899000001000000000000000RA              33084012    001500900000009000000520000003NN  NNW 000                       N    
RDG09899000WATRL000000005K00000000000005794001608252015120522N000000000000U91       000040500K 10000000010000005768           
CUS0989900000109378941000         4961 MERCANTILE ROAD4961 MERCANTILE RD                      000N        CARE OF             
MTR09899000001000000000000000RA              E18445      000600910000009100000430000003NN  NNW 000   FIRE SERVICE        N    
RDG09899000WATRL000000006K00000000000000000001708252015120526N000000000000U91       000040600K 10000000010000000000           
CUS0989900000109433238004         MCRB WHITE MARSH 3 T4980 MERCANTILE RD                      000N        CARE OF             
MTR09899000002000000000000000RA              0203843     000800920000009200000630000000NN  NNW 000                       N    
RDG09899000WATAL000000006K00000000000000002001808252015120531N000100000010U91       000050600K 10000000010000000002           
RDG09899000WATBL000000006K00000000000047585001908252015120545N000400000010U91       000140600K 10000000010000045276           
CUS0989900000109377317004         MERCANTILE ROAD LLC 4969 MERCANTILE RD                      000N        CARE OF             
MTR09899000001000000000000000RA              E18373      000600930000009300000430000003NN  NNW 000   FIRE SERVICE        N    
RDG09899000WATRL000000006K00000000000000000002008252015120548N000000000000U91       000030600K 10000000010000000000           
CUS0989900000109377319000         MERCANTILE ROAD LLC 4969 MERCANTILE RD                      000N        CARE OF             
MTR09899000001000000000000000RA              42847052    001500940000009400000520000003NN  NNW 000                       N    
RDG09899000WATRL000000005K00000000000019122002108252015120552N000000000000U91       000040500K 10000000010000018892           
CUS0989900000109386143003         MERCANTILE ROAD LLC 4979 MERCANTILE RD                      000N        CARE OF             
MTR09899000002000000000000000RA              7121242     000800950000009500000630000003NN  NNW 000                       N    
RDG09899000WATAL000000006K00000000000000000002208252015120557N000100000010U91       000050600K 10000000010000000000           
RDG09899000WATBL000000006K00000000000006397002308252015120603N000400000010U91       000060600K 10000000010000006332           
CUS0989900000109396205008         DAY GERALD THOMAS   4983 MERCANTILE RD                      000N        CARE OF             
MTR09899000001000000000000000RA              E22505      000600960000009600000430000003NN  NNW 000   FIRE SERVICE        N    
RDG09899000WATRL000000006K00000000000000003002408252015120607N000000000000U91       000040600K 10000000010000000003           
CUS0989900000109396207004         DUNBAR ARMORED MS #94983 MERCANTILE RD                      000N        CARE OF             
MTR09899000001000000000000000RA              35101293    001500970000009700000520000003NN  NNW 000                       N    
RDG09899000WATRL000000005K00000000000013346002508252015120616N000000000000U91       000090500K 10000000010000013231           
CUS0989900000109412587009         ROEBUCK CHARLES M,JR4987 MERCANTILE RD                      000N        CARE OF             
MTR09899000002000000000000000RA              5124971     000600980000009800000630000003NN  NNW 000                       N    
RDG09899000WATAL000000006K00000000000000000002608252015120622N000100000010U91       000060600K 10000000010000000000           
RDG09899000WATBL000000006K00000000000018600002708252015120632N000400000010U91       000100600K 10000000010000018460           
CUS0989900000104394230009         COTTINGTON ROAD LTD 1 HASPERT RD                            000N        CARE OF             
MTR09899000001000000000000000RA              01105135    001500990000009900000610000003NN  NNW 000                       N    
RDG09899000WATRL000000005K00000000000010106002808252015120636N000000000000U91       000040500K 10000000010000009961           
CUS0989900000104377879004         SOUTHSIDE OIL LLC   8485 HONEYGO BLVD                       000N        CARE OF             
MTR09899000001000000000000000RA              00119014    007501000000010000000570000003NN  NNW 000                       N    
RDG09899000WATRL000000004K00000000000009616002908252015120645N000300000010U91       000090400K 10000000010000003097           
CUS0989900000109442157005         WHITE MARSH MALL ASS8342 HONEYGO BLVD                       000N        CARE OF             
MTR09899000001000000000000000RA              0603283     000801010000010100000630000000NY  NNW 000                       N    
MTM098990000603283     TWO DIALS 000058               25584                                                                   
RDG09899000WATRL000000006K00000000000025584003008252015120731N000400000010U91       000460600K 10000000010000025580           
CUS0989900000109442161007         MCRB WHITE MARSH 4 L8477 CORDON WAY                         000N        CARE OF             
MTR09899000001000000000000000RA              0603281     000801020000010200000630000000NY  NNW 000                       N    
MTM098990000603281     TWO DIALS 000017               29838                                                                   
RDG09899000WATRL000000006K00000000000029838003108252015120816N000000000000U91       000450600K 10000000010000028356           
CUS0989900000102419120007         TRICON GLOBAL SERV G8475 CORDON WAY                         000N        CARE OF             
MTR09899000001000000000000000RA              99409683    000101030000010300000570000003NN  NNW 000                       N    
RDG09899000WATRL000000004K00000000000000786003208252015120820N000000000000U91       000040400K 10000000010000000652           
CUS0989900000104367934009         FR WHITE MARSH INC  4952 MERCANTILE RD                      000N        CARE OF             
MTR09899000001000000000000000RA              29074599    000101040000010400000520000003NN  NNW 000   FERRULE APPLIED     N    
RDG09899000WATRL000000004K00000000000000000003308252015120823S002000000000U91       000030400K 10000000010000000786           
CUS0989900000109456194001         FEDERAL REALTY      4952 MERCANTILE RD                      000N        CARE OF             
MTR09899000001000000000000000RA              1200654     000601050000010500000520000000NN  NNW 000   FIRE SERVICE        N    
RDG09899000WATRL000000006K00000000000000000003408252015120937N000000000000U91       000740600K 10000000010000000000           
CUS0989900000109456196006         FEDERAL REALTY      4952 MERCANTILE RD                      000N        CARE OF             
MTR09899000001000000000000000RA              78024135    005801060000010600000350000003NN  NNW 000                       N    
RDG09899000WATRL000000004K00000000000000024003508252015120940N000000000000U91       000030400K 10000000010000000015           
CUS0989900000109442154002         OBRIEN PROPERTIES LL4960 MERCANTILE RD                      000N        CARE OF             
MTR09899000001000000000000000RA              8051674     000401070000010700000380000000NN  NNW 000   FIRE SERVICE        N    
RDG09899000WATRL000000006K00000000000000011003608252015120944N000000000000U91       000040600K 10000000010000000011           
CUS0989900000109442156007         OBRIEN PROPERTIES LL4960 MERCANTILE RD                      000N        CARE OF             
MTR09899000001000000000000000RA              14921006    001501080000010800000310000000NN  NNW 000                       N    
RDG09899000WATRL000000005K00000000000004003003708252015120947N000000000000U91       000030500K 10000000010000003835           
CUS0989900000104404196000         UNITED STATE POSTAL 4990 MERCANTILE RD                      000N        CARE OF             
MTR09899000001000000000000000RA              00166603    000101090000010900000570000003NN  NNW 000                       N    
RDG09899000WATRL000000004K00000000000001448003808252015120951N000000000000U91       000040400K 10000000010000001401           
CUS0989900000109441813004         TARRAGON INC        9810 BELAIR RD                          000N        CARE OF             
MTR09899000002000000000000000RA              0703371     000801100000011000000390000000NN  NNW 000                       N    
RDG09899000WATAL000000006K00000000000000152003908252015120957N000100000010U91       000060600K 10000000010000000152           
RDG09899000WATBL000000006K00000000000001378004008252015121005N000400000010U91       000080600K 10000000010000001236           
CUS0989900000109441815009         CVS 6858 MD L L C   9820 BELAIR RD                          000N        CARE OF             
MTR09899000001000000000000000RA              8049917     000601110000011100000380000000NN  NNW 000   FIRE SERVICE        N    
RDG09899000WATRL000000006K00000000000000002004108252015121008N000000000000U91       000030600K 10000000010000000002           
CUS0989900000109441817005         CVS 6858 MD L L C   9820 BELAIR RD                          000N        CARE OF             
MTR09899000001000000000000000RA              00165581    000101120000011200000570000000NN  NNW 000                       N    
RDG09899000WATRL000000004K00000000000000521004208252015121011N000000000000U91       000030400K 10000000010000000506           
RTR09899000NN01460146000001460000000001120112000041NY011201120146000500030000000000000000000001    08062015NY020000 N         
RHD06344000NN00260228000000260000020202280228000067NY022802280228000100010000000000000000000002    08212015NY020000 N         
CUS0634400000106277991003         SISOLAK, JOHN B     4501 FRANKFORD AVE                      000N        CARE OF             
MTR06344000001000000000000000RA              79241373    005800010000000100000360000003NN  NNW 000                       N    
RDG06344000WATR 000000004R00000000000000000000008252015190000N000100000030N         000000400R 10000000010000000000           
RFF0634400069290179      ERT      0002  956.44375000140000082520151900000000000517100W 1220000N                               
CUS0634400000106277992001         WEST COAST SERVICING4511 FRANKFORD AVE                      000N        CARE OF             
MTR06344000001000000000000000RA              79241374    005800020000000200000360000003NN  NNW 000                       N    
RDG06344000WATR 000000004R00000000000000004000008252015190000N000300000030N         000000400R 10000000010000000000           
RFF0634400069290170      ERT      0003  956.44375000140000082520151900000000041410100W 1220000N                               
CUS0634400000106277993009         FIORINI, ANTHONY J. 4515 FRANKFORD AVE                      000N        CARE OF             
MTR06344000001000000000000000RA              79241375    005800030000000300000360000003NN  NNW 000                       N    
RDG06344000WATR 000000004R00000000000000008000008252015190000N000300000030N         000000400R 10000000010000000000           
RFF0634400069289690      ERT      0001  956.44375000140000082520151900000000088352100W 1220000N                               
CUS0634400000106277994007         ANTHONY F PRIVITERS 5209 PLAINFIELD AVE                     000N        CARE OF             
MTR06344000001000000000000000RA              13293889    005800040000000400000310000003NN  NNW 000                       N    
RDG06344000WATRL000000004K00000000000000616000108252015095405N000000000000U40       000000400K 10000000010000000593           
CUS0634400000106277995004         WALKER, TRINNETTE   5207 PLAINFIELD AVE                     000N        CARE OF             
MTR06344000001000000000000000RA              79259237    005800050000000500000360000003NN  NNW 000                       N    
RDG06344000WATR 000000004R00000000000000002000008252015190000N000300000030N         000000400R 10000000010000000000           
RFF0634400069375172      ERT      0001  956.44375000140000082520151900000000020311100W 1220000N                               
CUS0634400000106277996002         CRAWLEY, NICOLE D.  5205 PLAINFIELD AVE                     000N        CARE OF             
MTR06344000001000000000000000RA              79259238    005800060000000600000360000003NN  NNW 000                       N    
RDG06344000WATR 000000004R00000000000000008000008252015190000N000300000030N         000000400R 10000000010000000000           
RFF0634400069375176      ERT      0002  956.44375000140000082520151900000000080241100W 1220000N                               
CUS0634400000106277997000         COPELAND, RANDOLPH J5203 PLAINFIELD AVE                     000N        CARE OF             
MTR06344000001000000000000000RA              79259240    005800070000000700000360000003NN  NNW 000                       N    
RDG06344000WATR 000000004R00000000000000003000008252015190000N000300000030N         000000400R 10000000010000000000           
RFF0634400069375199      ERT      0001  956.44375000140000082520151900000000036402100W 1220000N                               
CUS0634400000106277998008         SHARON T THOMPSON   5201 PLAINFIELD AVE                     000N        CARE OF             
MTR06344000001000000000000000RA              13292412    005800080000000800000310000003NN  NNW 000                       N    
RDG06344000WATRL000000004K00000000000000653000208252015095711N000000000000U40       001860400K 10000000010000000644           
CUS0634400000106277999006         POWELL, WILLIAM A B 5115 PLAINFIELD AVE                     000N        CARE OF             
MTR06344000001000000000000000RA              79259233    005800090000000900000360000003NN  NNW 000                       N    
RDG06344000WATR 000000004R00000000000000036000008252015190000N000300000030N         000000400R 10000000010000000000           
RFF0634400069348782      ERT      0003  956.44375000140000082520151900000000361421100W 1220000N                               
CUS0634400000106278000002         MILAN, ELEANOR R.   5111 PLAINFIELD AVE                     000N        CARE OF             
MTR06344000001000000000000000RA              13293592    005800100000001000000310000003NN  NNW 000   VACANT PROPERTY     N    
RDG06344000WATRL000000004K00000000000000000000308252015095739N000000000000U40       000280400K 10000000010000000000           
CUS0634400000106410805003         SISTRUNK JR., ODIS L5101 PLAINFIELD AVE                     000N        CARE OF             
MTR06344000001000000000000000RA              79238889    005800110000001100000360000003NN  NNW 000                       N    
RDG06344000WATR 000000004R00000000000000003000008252015190000N000300000030N         000000400R 10000000010000000000           
RFF0634400069342180      ERT      0000  956.44375000140000082520151900000000036380100W 1220000N                               
CUS0634400000106278001000         STEPHENS, ROBERT B  5007 PLAINFIELD AVE                     000N        CARE OF             
MTR06344000001000000000000000RA              13263644    007500120000001200000310000003NN  NNW 000                       N    
RDG06344000WATRL000000004K00000000000000858000508252015100240N000000000000U40       000300400K 10000000010000000858           
CUS0634400000106278002008         GARVEY, DWIGHT D    5003 PLAINFIELD AVE                     000N        CARE OF             
MTR06344000001000000000000000RA              13293458    005800130000001300000310000003NY  NNW 000                       N    
MTM0634400013293458    79259368                                                                                               
RDG06344000WATRL000000004K00000000000000003000408252015100210N000304100010U40       002710400K 10000000010000000618           
CUS0634400000106278003006         DIGGS, DALE YVETTE  4600 PARKWOOD AVE                       000N        CARE OF             
MTR06344000001000000000000000RA              79241493    005800140000001400000360000003NN  NNW 000                       N    
RDG06344000WATR 000000004R00000000000000004000008252015190000N000300000030N         000000400R 10000000010000000000           
RFF0634400069290123      ERT      0001  956.44375000140000082520151900000000045608100W 1220000N                               
CUS0634400000106278004004         BILLIE L. DEAN      4602 PARKWOOD AVE                       000N        CARE OF             
MTR06344000001000000000000000RA              79241490    005800150000001500000360000003NN  NNW 000                       N    
RDG06344000WATR 000000004R00000000000000000000008252015190000N000100000030N         000000400R 10000000010000000000           
RFF0634400069288276      ERT      0003  956.44375000140000082520151900000000001818100W 1220000N                               
CUS0634400000106278005001         ATWOOD, RAHMEL J    4604 PARKWOOD AVE                       000N        CARE OF             
MTR06344000001000000000000000RA              79241491    005800160000001600000360000003NN  NNW 000                       N    
RDG06344000WATR 000000004R00000000000000003000008252015190000N000300000030N         000000400R 10000000010000000000           
RFF0634400069288256      ERT      0002  956.44375000140000082520151900000000037970100W 1220000N                               
CUS0634400000106278006009         CONSTANCE A WHEELER 4606 PARKWOOD AVE                       000N        CARE OF             
MTR06344000001000000000000000RA              79241358    005800170000001700000360000003NN  NNW 000                       N    
RDG06344000WATR 000000004R00000000000000000000008252015190000N000100000030N         000000400R 10000000010000000000           
RFF0634400069290405      ERT      0000  956.44375000140000082520151900000000006486100W 1220000N                               
CUS0634400000106278007007         BATTS, BELVA LEAH   4608 PARKWOOD AVE                       000N        CARE OF             
MTR06344000001000000000000000RA              79241572    005800180000001800000360000003NN  NNW 000                       N    
RDG06344000WATR 000000004R00000000000000002000008252015190000N000300000030N         000000400R 10000000010000000000           
RFF0634400069290765      ERT      0000  956.44375000140000082520151900000000029579100W 1220000N                               
CUS0634400000106278008005         MALOOLY, MARY BETH  4610 PARKWOOD AVE                       000N        CARE OF             
MTR06344000001000000000000000RA              79241573    005800190000001900000360000003NN  NNW 000                       N    
RDG06344000WATR 000000004R00000000000000001000008252015190000N000300000030N         000000400R 10000000010000000000           
RFF0634400069290782      ERT      0000  956.44375000140000082520151900000000016318100W 1220000N                               
CUS0634400000106278009003         JOHN E COLLINS JR & 4612 PARKWOOD AVE                       000N        CARE OF             
MTR06344000001000000000000000RA              79241570    005800200000002000000360000003NN  NNW 000                       N    
RDG06344000WATR 000000004R00000000000000002000008252015190000N000300000030N         000000400R 10000000010000000000           
RFF0634400069290761      ERT      0000  956.44375000140000082520151900000000023209100W 1220000N                               
CUS0634400000106278010001         DORSEY, GERALD A.   4614 PARKWOOD AVE                       000N        CARE OF             
MTR06344000001000000000000000RA              79241571    005800210000002100000360000003NN  NNW 000                       N    
RDG06344000WATR 000000004R00000000000000004000008252015190000N000300000030N         000000400R 10000000010000000000           
RFF0634400069290756      ERT      0000  956.44375000140000082520151900000000040293100W 1220000N                               
CUS0634400000106278011009         MCGILL, JUANITA     4700 PARKWOOD AVE                       000N        CARE OF             
MTR06344000001000000000000000RA              79241363    005800220000002200000360000003NN  NNW 000                       N    
RDG06344000WATR 000000004R00000000000000000000008252015190000N000100000030N         000000400R 10000000010000000000           
RFF0634400069290383      ERT      0001  956.44375000140000082520151900000000007954100W 1220000N                               
CUS0634400000106278012007         PATTERSON, JANICE L 4702 PARKWOOD AVE                       000N        CARE OF             
MTR06344000001000000000000000RA              79241359    005800230000002300000360000003NN  NNW 000                       N    
RDG06344000WATR 000000004R00000000000000000000008252015190000N000100000030N         000000400R 10000000010000000000           
RFF0634400069290398      ERT      0002  956.44375000140000082520151900000000003553100W 1220000N                               
CUS0634400000106278014003         COLLINS, MARSHA E   4705 PARKWOOD AVE                       000N        CARE OF             
MTR06344000001000000000000000RA              13293520    005800240000002400000310000000NN  NNW 000                       N    
RDG06344000WATRL000000004K00000000000000354000808252015100748N000000000000U40       001930400K 10000000010000000348           
CUS0634400000106278016008         MARSHALL, CHARLES E.4701 PARKWOOD AVE                       000N        CARE OF             
MTR06344000001000000000000000RA              79241360    005800250000002500000360000003NN  NNW 000                       N    
RDG06344000WATR 000000004R00000000000000000000008252015180000N000100000030N         000000400R 10000000010000000000           
RFF0634400069290672      ERT      0001  956.44375000140000082520151800000000005414100W 1220000N                               
CUS0634400000106454848000         HOUSING AUTHORITY OF4619 PARKWOOD AVE                       000N        CARE OF             
MTR06344000001000000000000000RA              76350266    000100260000002600000350000003NN  NNW 000                       N    
RDG06344000WATR 000000004R00000000000000020000008252015190000N000300000030N         000000400R 10000000010000000019           
RFF0634400069347179      ERT      0000  956.44375000140000082520151900000000205280100W 1220000N                               
CUS0634400000106454849008         HOUSING AUTHORITY OF4617 PARKWOOD AVE                       000N        CARE OF             
MTR06344000001000000000000000RA              76350104    000100270000002700000350000003NN  NNW 000                       N    
RDG06344000WATR 000000004R00000000000000053000008252015190000N000300000030N         000000400R 10000000010000000049           
RFF0634400069347155      ERT      0000  956.44375000140000082520151900000000530804100W 1220000N                               
CUS0634400000106278019002         PEOPLE ENCOURAGING P4615 PARKWOOD AVE                       000N        CARE OF             
MTR06344000001000000000000000RA              79241569    005800280000002800000360000003NN  NNW 000                       N    
RDG06344000WATR 000000004R00000000000000003000008252015180000N000300000030N         000000400R 10000000010000000000           
RFF0634400069290671      ERT      0000  956.44375000140000082520151800000000035946100W 1220000N                               
CUS0634400000106278020000         PEOPLE ENCOURAGING P4613 PARKWOOD AVE                       000N        CARE OF             
MTR06344000001000000000000000RA              79241568    005800290000002900000360000003NN  NNW 000                       N    
RDG06344000WATR 000000004R00000000000000006000008252015190000N000300000030N         000000400R 10000000010000000000           
RFF0634400069290781      ERT      0000  956.44375000140000082520151900000000065181100W 1220000N                               
CUS0634400000106278021008         JOHN ARGENTINO      4611 PARKWOOD AVE                       000N        CARE OF             
MTR06344000001000000000000000RA              79241361    005800300000003000000360000003NN  NNW 000                       N    
RDG06344000WATR 000000004R00000000000000001000008252015190000N000300000030N         000000400R 10000000010000000000           
RFF0634400069290417      ERT      0001  956.44375000140000082520151900000000019791100W 1220000N                               
CUS0634400000106278022006         BELL, IRA B.        4609 PARKWOOD AVE                       000N        CARE OF             
MTR06344000001000000000000000RA              79241362    005800310000003100000360000003NN  NNW 000                       N    
RDG06344000WATR 000000004R00000000000000002000008252015190000N000300000030N         000000400R 10000000010000000000           
RFF0634400069290445      ERT      0000  956.44375000140000082520151900000000022146100W 1220000N                               
CUS0634400000106278023004         JULES, RAYMOND      4607 PARKWOOD AVE                       000N        CARE OF             
MTR06344000001000000000000000RA              79241494    005800320000003200000360000003NN  NNW 000                       N    
RDG06344000WATR 000000004R00000000000000001000008252015190000N000300000030N         000000400R 10000000010000000000           
RFF0634400069288297      ERT      0001  956.44375000140000082520151900000000015706100W 1220000N                               
CUS0634400000106278024002         JACKSON, ROSETTA M. 4605 PARKWOOD AVE                       000N        CARE OF             
MTR06344000001000000000000000RA              79241495    005800330000003300000360000003NN  NNW 000                       N    
RDG06344000WATR 000000004R00000000000000002000008252015190000N000300000030N         000000400R 10000000010000000000           
RFF0634400069288283      ERT      0000  956.44375000140000082520151900000000020292100W 1220000N                               
CUS0634400000106278025009         KELLY, JEANETTA E   4603 PARKWOOD AVE                       000N        CARE OF             
MTR06344000001000000000000000RA              13293494    005800340000003400000310000003NN  NNW 000                       N    
RDG06344000WATRL000000004K00000000000001276000908252015101043N000000000000U40       001750400K 10000000010000001256           
CUS0634400000106278026007         JOSEPH, STEVE       4601 PARKWOOD AVE                       000N        CARE OF             
MTR06344000001000000000000000RA              79241492    005800350000003500000360000003NN  NNW 000                       N    
RDG06344000WATR 000000004R00000000000000021000008252015190000N000300000030N         000000400R 10000000010000000000           
RFF0634400069288245      ERT      0001  956.44375000140000082520151900000000216777100W 1220000N                               
CUS0634400000106278027005         SPEAKS, NIA M       4523 PARKWOOD AVE                       000N        CARE OF             
MTR06344000001000000000000000RA              79241534    005800360000003600000360000003NN  NNW 000                       N    
RDG06344000WATR 000000004R00000000000000005000008252015190000N000300000030N         000000400R 10000000010000000000           
RFF0634400069290794      ERT      0001  956.44375000140000082520151900000000052940100W 1220000N                               
CUS0634400000106278028003         JO ERNEST, CHRISTINE4521 PARKWOOD AVE                       000N        CARE OF             
MTR06344000001000000000000000RA              79241533    005800370000003700000360000003NN  NNW 000                       N    
RDG06344000WATR 000000004R00000000000000002000008252015190000N000300000030N         000000400R 10000000010000000000           
RFF0634400069290759      ERT      0001  956.44375000140000082520151900000000021731100W 1220000N                               
CUS0634400000106278029001         MAIN STREET HOUSING,4519 PARKWOOD AVE                       000N        CARE OF             
MTR06344000001000000000000000RA              79241535    005800380000003800000360000003NN  NNW 000                       N    
RDG06344000WATR 000000004R00000000000000002000008252015190000N000300000030N         000000400R 10000000010000000000           
RFF0634400069290777      ERT      0001  956.44375000140000082520151900000000026523100W 1220000N                               
CUS0634400000106278030009         THOMAS E SPENCER    4511 PARKWOOD AVE                       000N        CARE OF             
MTR06344000001000000000000000RA              13293455    005800390000003900000310000003NY  NNW 000                       N    
MTM0634400013293455    79241536                                                                                               
RDG06344000WATRL000000004K00000000000000002001008252015101238N000304100010U40       001150400K 10000000010000001438           
CUS0634400000106278031007         MILES, ARDEN J      4509 PARKWOOD AVE                       000N        CARE OF             
MTR06344000001000000000000000RA              79241537    005800400000004000000360000003NN  NNW 000                       N    
RDG06344000WATR 000000004R00000000000000002000008252015190000N000300000030N         000000400R 10000000010000000000           
RFF0634400069290784      ERT      0000  956.44375000140000082520151900000000023042100W 1220000N                               
CUS0634400000106278032005         COURTNEY, DEBORAH E 4507 PARKWOOD AVE                       000N        CARE OF             
MTR06344000001000000000000000RA              79259282    005800410000004100000360000003NN  NNW 000                       N    
RDG06344000WATR 000000004R00000000000000001000008252015180000N000300000030N         000000400R 10000000010000000000           
RFF0634400069349201      ERT      0001  956.44375000140000082520151800000000013514100W 1220000N                               
CUS0634400000106278033003         ADDISON, GENA E.    4505 PARKWOOD AVE                       000N        CARE OF             
MTR06344000001000000000000000RA              79241532    005800420000004200000360000003NN  NNW 000                       N    
RDG06344000WATR 000000004R00000000000000004000008252015180000N000300000030N         000000400R 10000000010000000000           
RFF0634400069290779      ERT      0001  956.44375000140000082520151800000000048185100W 1220000N                               
CUS0634400000106278034001         AARON, WAYNE        4503 PARKWOOD AVE                       000N        CARE OF             
MTR06344000001000000000000000RA              79241366    005800430000004300000360000003NN  NNW 000                       N    
RDG06344000WATR 000000004R00000000000000000000008252015190000N000100000030N         000000400R 10000000010000000000           
RFF0634400069290702      ERT      0001  956.44375000140000082520151900000000000630100W 1220000N                               
CUS0634400000106278035008         STEWART, EMILIO     4501 PARKWOOD AVE                       000N        CARE OF             
MTR06344000001000000000000000RA              79259280    005800440000004400000360000003NN  NNW 000                       N    
RDG06344000WATR 000000004R00000000000000004000008252015190000N000300000030N         000000400R 10000000010000000000           
RFF0634400069348464      ERT      0001  956.44375000140000082520151900000000044070100W 1220000N                               
CUS0634400000106278036006         LYLES, MARK ANTHONY 5000 PLAINFIELD AVE                     000N        CARE OF             
MTR06344000001000000000000000RA              13293519    005800450000004500000310000003NN  NNW 000                       N    
RDG06344000WATRL000000004K00000000000001216000608252015100358N000000000000U40       000780400K 10000000010000001189           
CUS0634400000106278037004         BUTLER, SHANICKA N. 5002 PLAINFIELD AVE                     000N        CARE OF             
MTR06344000001000000000000000RA              13293457    005800460000004600000310000003NN  NNW 000                       N    
RDG06344000WATRL000000004K00000000000000897000708252015100435N000400000010U40       000370400K 10000000010000000883           
CUS0634400000106278038002         JONES, DONNA        5004 PLAINFIELD AVE                     000N        CARE OF             
MTR06344000001000000000000000RA              79259366    005800470000004700000360000003NN  NNW 000                       N    
RDG06344000WATR 000000004R00000000000000007000008252015190000N000300000030N         000000400R 10000000010000000000           
RFF0634400069348456      ERT      0000  956.44375000140000082520151900000000076575100W 1220000N                               
CUS0634400000106278039000         TURRENTINE, DUANE T 5006 PLAINFIELD AVE                     000N        CARE OF             
MTR06344000001000000000000000RA              79259365    005800480000004800000360000003NN  NNW 000                       N    
RDG06344000WATR 000000004R00000000000000002000008252015190000N000300000030N         000000400R 10000000010000000000           
RFF0634400069348448      ERT      0000  956.44375000140000082520151900000000027577100W 1220000N                               
CUS0634400000106278040008         HILTON, ALICIA Y    5008 PLAINFIELD AVE                     000N        CARE OF             
MTR06344000001000000000000000RA              79259364    005800490000004900000360000003NN  NNW 000                       N    
RDG06344000WATR 000000004R00000000000000001000008252015190000N000300000030N         000000400R 10000000010000000000           
RFF0634400069348200      ERT      0000  956.44375000140000082520151900000000015887100W 1220000N                               
CUS0634400000106278041006         KANDY CRAM          5010 PLAINFIELD AVE                     000N        CARE OF             
MTR06344000001000000000000000RA              79259367    005800500000005000000360000003NN  NNW 000                       N    
RDG06344000WATR 000000004R00000000000000001000008252015190000N000300000030N         000000400R 10000000010000000000           
RFF0634400069348372      ERT      0003  956.44375000140000082520151900000000017126100W 1220000N                               
CUS0634400000106278042004         ADDISON, JOANA G    5012 PLAINFIELD AVE                     000N        CARE OF             
MTR06344000001000000000000000RA              79238891    005800510000005100000360000003NN  NNW 000                       N    
RDG06344000WATR 000000004R00000000000000009000008252015190000N000300000030N         000000400R 10000000010000000000           
RFF0634400069342210      ERT      0000  956.44375000140000082520151900000000095150100W 1220000N                               
CUS0634400000106278043002         BAYO & OLUFUNKE OSHI5100 PLAINFIELD AVE                     000N        CARE OF             
MTR06344000001000000000000000RA              79238888    005800520000005200000360000003NN  NNW 000                       N    
RDG06344000WATR 000000004R00000000000000000000008252015190000N000100000030N         000000400R 10000000010000000000           
RFF0634400069342190      ERT      0001  956.44375000140000082520151900000000000014100W 1220000N                               
CUS0634400000106278044000         SPENCER, ANTOINETTE 5102 PLAINFIELD AVE                     000N        CARE OF             
MTR06344000001000000000000000RA              79238886    005800530000005300000360000003NN  NNW 000                       N    
RDG06344000WATR 000000004R00000000000000004000008252015190000N000300000030N         000000400R 10000000010000000000           
RFF0634400069342197      ERT      0000  956.44375000140000082520151900000000045006100W 1220000N                               
CUS0634400000106278045007         FOULKES II, PHILLIP 5104 PLAINFIELD AVE                     000N        CARE OF             
MTR06344000001000000000000000RA              79238887    005800540000005400000360000003NN  NNW 000                       N    
RDG06344000WATR 000000004R00000000000000008000008252015190000N000300000030N         000000400R 10000000010000000000           
RFF0634400069342087      ERT      0001  956.44375000140000082520151900000000089812100W 1220000N                               
CUS0634400000106278046005         ELVIRA L YOUNG      5106 PLAINFIELD AVE                     000N        CARE OF             
MTR06344000001000000000000000RA              79259315    005800550000005500000360000003NN  NNW 000                       N    
RDG06344000WATR 000000004R00000000000000000000008242015180000N000100000020N         000000400R 10000000010000000000           
RFF0634400069375179      ERT      0000  956.44375000140000082420151800000000005944100W 1220000N                               
CUS0634400000106278047003         OWADINEKE, OBIEFULE 5108 PLAINFIELD AVE                     000N        CARE OF             
MTR06344000001000000000000000RA              79259316    005800560000005600000360000003NN  NNW 000                       N    
RDG06344000WATR 000000004R00000000000000000000008252015190000N000100000030N         000000400R 10000000010000000000           
RFF0634400069375215      ERT      0001  956.44375000140000082520151900000000004504100W 1220000N                               
CUS0634400000106278048001         MILANO, NICHOLAS D. 5110 PLAINFIELD AVE                     000N        CARE OF             
MTR06344000001000000000000000RA              79259320    005800570000005700000360000003NN  NNW 000                       N    
RDG06344000WATR 000000004R00000000000000000000008252015190000N000100000030N         000000400R 10000000010000000000           
RFF0634400069375219      ERT      0001  956.44375000140000082520151900000000000020100W 1220000N                               
CUS0634400000106278049009         KEITH NORMAN        5112 PLAINFIELD AVE                     000N        CARE OF             
MTR06344000001000000000000000RA              79259318    005800580000005800000360000003NN  NNW 000                       N    
RDG06344000WATR 000000004R00000000000000002000008252015190000N000300000030N         000000400R 10000000010000000000           
RFF0634400069375185      ERT      0001  956.44375000140000082520151900000000027295100W 1220000N                               
CUS0634400000106278050007         KEISHA GUICE        5114 PLAINFIELD AVE                     000N        CARE OF             
MTR06344000001000000000000000RA              79259319    005800590000005900000360000003NN  NNW 000                       N    
RDG06344000WATR 000000004R00000000000000005000008252015190000N000300000030N         000000400R 10000000010000000000           
RFF0634400069375181      ERT      0001  956.44375000140000082520151900000000054075100W 1220000N                               
CUS0634400000106278051005         CROCKETT, SEAN      5116 PLAINFIELD AVE                     000N        CARE OF             
MTR06344000001000000000000000RA              79259317    005800600000006000000360000003NN  NNW 000                       N    
RDG06344000WATR 000000004R00000000000000001000008252015190000N000300000030N         000000400R 10000000010000000000           
RFF0634400069375106      ERT      0002  956.44375000140000082520151900000000019633100W 1220000N                               
CUS0634400000106278052003         SZENDRO, RAPHAEL    5118 PLAINFIELD AVE                     000N        CARE OF             
MTR06344000001000000000000000RA              79259232    005800610000006100000360000003NN  NNW 000                       N    
RDG06344000WATR 000000004R00000000000000000000008252015190000N000100000030N         000000400R 10000000010000000000           
RFF0634400069348774      ERT      0003  956.44375000140000082520151900000000008465100W 1220000N                               
CUS0634400000106278053001         GARRISON, TRINA     5120 PLAINFIELD AVE                     000N        CARE OF             
MTR06344000001000000000000000RA              79259231    005800620000006200000360000003NN  NNW 000                       N    
RDG06344000WATR 000000004R00000000000000005000008252015190000N000300000030N         000000400R 10000000010000000000           
RFF0634400069348750      ERT      0003  956.44375000140000082520151900000000059660100W 1220000N                               
CUS0634400000106278054009         HAROLD HOWARD       5122 PLAINFIELD AVE                     000N        CARE OF             
MTR06344000001000000000000000RA              79259234    005800630000006300000360000003NN  NNW 000                       N    
RDG06344000WATR 000000004R00000000000000006000008252015190000N000300000030N         000000400R 10000000010000000000           
RFF0634400069348785      ERT      0000  956.44375000140000082520151900000000061468100W 1220000N                               
CUS0634400000106278055006         MORTON, TRINA Y.    5124 PLAINFIELD AVE                     000N        CARE OF             
MTR06344000001000000000000000RA              79259235    005800640000006400000360000003NN  NNW 000                       N    
RDG06344000WATR 000000004R00000000000000002000008252015190000N000300000030N         000000400R 10000000010000000000           
RFF0634400069348656      ERT      0000  956.44375000140000082520151900000000024733100W 1220000N                               
CUS0634400000106278056004         BEARD III, ALFRED B.5200 PLAINFIELD AVE                     000N        CARE OF             
MTR06344000001000000000000000RA              79259236    005800650000006500000360000003NN  NNW 000                       N    
RDG06344000WATR 000000004R00000000000000003000008252015190000N000300000030N         000000400R 10000000010000000000           
RFF0634400069348657      ERT      0003  956.44375000140000082520151900000000034935100W 1220000N                               
CUS0634400000106278057002         BRISBON, CHARLES D. 5202 PLAINFIELD AVE                     000N        CARE OF             
MTR06344000001000000000000000RA              79259242    005800660000006600000360000003NN  NNW 000                       N    
RDG06344000WATR 000000004R00000000000000004000008252015190000N000300000030N         000000400R 10000000010000000000           
RFF0634400069375198      ERT      0000  956.44375000140000082520151900000000040152100W 1220000N                               
CUS0634400000106278058000         TAGGART, PETER S.   5204 PLAINFIELD AVE                     000N        CARE OF             
MTR06344000001000000000000000RA              79259239    005800670000006700000360000003NN  NNW 000                       N    
RDG06344000WATR 000000004R00000000000000007000008252015190000N000300000030N         000000400R 10000000010000000000           
RFF0634400069374945      ERT      0001  956.44375000140000082520151900000000072599100W 1220000N                               
CUS0634400000106278059008         WATSON JR, GREGORY E5206 PLAINFIELD AVE                     000N        CARE OF             
MTR06344000001000000000000000RA              79259241    005800680000006800000360000003NN  NNW 000                       N    
RDG06344000WATR 000000004R00000000000000001000008252015190000N000300000030N         000000400R 10000000010000000000           
RFF0634400069375166      ERT      0003  956.44375000140000082520151900000000017577100W 1220000N                               
CUS0634400000106278060006         FIORINI, ANTHONY J  4601 FRANKFORD AVE                      000N        CARE OF             
MTR06344000001000000000000000RA              79241370    005800690000006900000360000003NN  NNW 000                       N    
RDG06344000WATR 000000004R00000000000000014000008252015190000N000300000030N         000000400R 10000000010000000000           
RFF0634400069290154      ERT      0000  956.44375000140000082520151900000000140713100W 1220000N                               
CUS0634400000106278061004         FIORINI, ANTHONY J. 4603 FRANKFORD AVE                      000N        CARE OF             
MTR06344000001000000000000000RA              79241372    005800700000007000000360000003NN  NNW 000                       N    
RDG06344000WATR 000000004R00000000000000002000008252015190000N000300000030N         000000400R 10000000010000000000           
RFF0634400069290028      ERT      0000  956.44375000140000082520151900000000024760100W 1220000N                               
CUS0634400000106278062002         FIORINI, ANTHONY J. 4607 FRANKFORD AVE                      000N        CARE OF             
MTR06344000001000000000000000RA              79241425    005800710000007100000360000003NN  NNW 000                       N    
RDG06344000WATR 000000004R00000000000000002000008252015190000N000300000030N         000000400R 10000000010000000000           
RFF0634400069290791      ERT      0000  956.44375000140000082520151900000000027206100W 1220000N                               
CUS0634400000106278063000         A & L FIORINI       4609 FRANKFORD AVE                      000N        CARE OF             
MTR06344000001000000000000000RA              79241384    005800720000007200000360000003NN  NNW 000                       N    
RDG06344000WATR 000000004R00000000000000005000008252015190000N000300000030N         000000400R 10000000010000000000           
RFF0634400069288295      ERT      0000  956.44375000140000082520151900000000055958100W 1220000N                               
CUS0634400000106278064008         VERONICA M HIRSCH &E4611 FRANKFORD AVE                      000N        CARE OF             
MTR06344000001000000000000000RA              79241385    005800730000007300000360000003NN  NNW 000                       N    
RDG06344000WATR 000000004R00000000000000000000008252015190000N000100000030N         000000400R 10000000010000000000           
RFF0634400069288277      ERT      0000  956.44375000140000082520151900000000003467100W 1220000N                               
CUS0634400000106278065005         REASON, ZOLA M      5210 STAAB TER                          000N        CARE OF             
MTR06344000001000000000000000RA              13292535    005800740000007400000310000003NN  NNW 000                       N    
RDG06344000WATRL000000004K00000000000000719001208252015101936N000000000000U40       001320400K 10000000010000000705           
CUS0634400000106278066003         HALL, JAMES C.      5211 STAAB TER                          000N        CARE OF             
MTR06344000001000000000000000RA              13292484    005800750000007500000310000003NN  NNW 000                       N    
RDG06344000WATRL000000004K00000000000000823001308252015102009N000000000000U40       000330400K 10000000010000000811           
CUS0634400000106278067001         LEONARD M RATAJCZAK 4613 FRANKFORD AVE                      000N        CARE OF             
MTR06344000001000000000000000RA              79241383    005800760000007600000360000003NN  NNW 000                       N    
RDG06344000WATR 000000004R00000000000000002000008252015190000N000300000030N         000000400R 10000000010000000000           
RFF0634400069288272      ERT      0000  956.44375000140000082520151900000000027855100W 1220000N                               
CUS0634400000106278068009         RUTH LORRAINE MEUSEL4615 FRANKFORD AVE                      000N        CARE OF             
MTR06344000001000000000000000RA              79241382    005800770000007700000360000003NN  NNW 000                       N    
RDG06344000WATR 000000004R00000000000000000000008252015190000N000100000030N         000000400R 10000000010000000000           
RFF0634400069288244      ERT      0003  956.44375000140000082520151900000000008151100W 1220000N                               
CUS0634400000106278069007         BIRD'S NEST AFTER HO4619 FRANKFORD AVE                      000N        CARE OF             
MTR06344000001000000000000000RA              13292521    005800780000007800000310000003NN  NNW 000   VACANT PROPERTY     N    
RDG06344000WATRL000000004K00000000000000413001108252015101724N000000000000U40       002860400K 10000000010000000413           
CUS0634400000106278070005         GIBSON, ANDREA D.   4600 MARGUERITE AVE                     000N        CARE OF             
MTR06344000001000000000000000RA              79258289    005800790000007900000360000003NN  NNW 000                       N    
RDG06344000WATR 000000004R00000000000000000000008252015190000N000100000030N         000000400R 10000000010000000000           
RFF0634400069355531      ERT      0000  956.44375000140000082520151900000000007759100W 1220000N                               
CUS0634400000106278071003         MRS JAMES HERGENHAHN4602 MARGUERITE AVE                     000N        CARE OF             
MTR06344000001000000000000000RA              79258290    005800800000008000000360000003NN  NNW 000                       N    
RDG06344000WATR 000000004R00000000000000002000008252015190000N000300000030N         000000400R 10000000010000000000           
RFF0634400069355542      ERT      0000  956.44375000140000082520151900000000020098100W 1220000N                               
CUS0634400000106278072001         JONES, ALLEN        4604 MARGUERITE AVE                     000N        CARE OF             
MTR06344000001000000000000000RA              79258293    005800810000008100000360000003NN  NNW 000                       N    
RDG06344000WATR 000000004R00000000000000002000008252015190000N000300000030N         000000400R 10000000010000000000           
RFF0634400069355526      ERT      0000  956.44375000140000082520151900000000027985100W 1220000N                               
CUS0634400000106278073009         COLEMAN, STARR C.   5214 MAYVIEW AVE                        000N        CARE OF             
MTR06344000001000000000000000RA              13292360    005800820000008200000310000003NY  NNW 000                       N    
MTM0634400013292360    CANTLOCATE                                                                                             
RDG06344000WATRL000000004K00000000000000000000000000000000000 000000000000U         000000400  10000000010000000882           
CUS0634400000102406706008         MOSES, DEBORAH D    5306 MAYVIEW AVE                        000N        CARE OF             
MTR06344000001000000000000000RA              79259376    005800830000008300000360000003NN  NNW 000                       N    
RDG06344000WATR 000000004R00000000000000004000008252015190000N000300000030N         000000400R 10000000010000000000           
RFF0634400069348410      ERT      0000  956.44375000140000082520151900000000046653100W 1220000N                               
CUS0634400000106409336002         HENRY D JONES       5304 MAYVIEW AVE                        000N        CARE OF             
MTR06344000001000000000000000RA              79259378    005800840000008400000360000003NN  NNW 000                       N    
RDG06344000WATR 000000004R00000000000000003000008252015190000N000300000030N         000000400R 10000000010000000000           
RFF0634400069348799      ERT      0000  956.44375000140000082520151900000000032646100W 1220000N                               
CUS0634400000106418195001         MUNFORD, JOHN A     5302 MAYVIEW AVE                        000N        CARE OF             
MTR06344000001000000000000000RA              79259363    005800850000008500000360000003NN  NNW 000                       N    
RDG06344000WATR 000000004R00000000000000002000008252015190000N000300000030N         000000400R 10000000010000000000           
RFF0634400069348445      ERT      0000  956.44375000140000082520151900000000020692100W 1220000N                               
CUS0634400000106278076002         JAMES S MASON       5305 MAYVIEW AVE                        000N        CARE OF             
MTR06344000001000000000000000RA              79259380    005800860000008600000360000003NN  NNW 000                       N    
RDG06344000WATR 000000004R00000000000000001000008252015190000N000300000030N         000000400R 10000000010000000000           
RFF0634400069348803      ERT      0000  956.44375000140000082520151900000000013841100W 1220000N                               
CUS0634400000106278077000         WILLIAM & CLARETHA S5307 MAYVIEW AVE                        000N        CARE OF             
MTR06344000001000000000000000RA              79259379    005800870000008700000360000003NN  NNW 000                       N    
RDG06344000WATR 000000004R00000000000000003000008252015190000N000300000030N         000000400R 10000000010000000000           
RFF0634400069348786      ERT      0000  956.44375000140000082520151900000000039549100W 1220000N                               
CUS0634400000106278078008         SMITH, WILLIAM      5309 MAYVIEW AVE                        000N        CARE OF             
MTR06344000001000000000000000RA              79259375    005800880000008800000360000003NN  NNW 000                       N    
RDG06344000WATR 000000004R00000000000000001000008252015190000N000300000030N         000000400R 10000000010000000000           
RFF0634400069348781      ERT      0000  956.44375000140000082520151900000000016420100W 1220000N                               
CUS0634400000106278079006         BARNES, RENE'E      5311 MAYVIEW AVE                        000N        CARE OF             
MTR06344000001000000000000000RA              79259377    005800890000008900000360000003NN  NNW 000                       N    
RDG06344000WATR 000000004R00000000000000002000008252015190000N000300000030N         000000400R 10000000010000000000           
RFF0634400069348780      ERT      0001  956.44375000140000082520151900000000022108100W 1220000N                               
CUS0634400000106278080004         THOMPSON, RUSSELL   4701 FRANKFORD AVE                      000N        CARE OF             
MTR06344000001000000000000000RA              79259341    005800900000009000000360000003NN  NNW 000                       N    
RDG06344000WATR 000000004R00000000000000000000008252015190000N000100000030N         000000400R 10000000010000000000           
RFF0634400069348759      ERT      0000  956.44375000140000082520151900000000006579100W 1220000N                               
CUS0634400000106278081002         JAMES L STEELE      4705 FRANKFORD AVE                      000N        CARE OF             
MTR06344000001000000000000000RA              79259340    005800910000009100000360000003NN  NNW 000                       N    
RDG06344000WATR 000000004R00000000000000001000008252015190000N000300000030N         000000400R 10000000010000000000           
RFF0634400069348749      ERT      0003  956.44375000140000082520151900000000018590100W 1220000N                               
CUS0634400000106278082000         HOVE, CHRISTOPHER H.4707 FRANKFORD AVE                      000N        CARE OF             
MTR06344000001000000000000000RA              79259339    005800920000009200000360000003NN  NNW 000                       N    
RDG06344000WATR 000000004R00000000000000000000008252015190000N000100000030N         000000400R 10000000010000000000           
RFF0634400069348755      ERT      0001  956.44375000140000082520151900000000000019100W 1220000N                               
CUS0634400000106278083008         SIMMONS, MARGOT     4709 FRANKFORD AVE                      000N        CARE OF             
MTR06344000001000000000000000RA              13292481    005800930000009300000310000003NY  NNW 000                       N    
MTM0634400013292481    79259284                                                                                               
RDG06344000WATRL000000004K00000000000000003001408252015102658N000304100010U40       004090400K 10000000010000000948           
CUS0634400000106278084006         JOHNSON, LATRICE K. 5314 BARBARA AVE                        000N        CARE OF             
MTR06344000001000000000000000RA              79259265    005800940000009400000360000003NN  NNW 000                       N    
RDG06344000WATR 000000004R00000000000000004000008252015190000N000300000030N         000000400R 10000000010000000000           
RFF0634400069374855      ERT      0000  956.44375000140000082520151900000000048547100W 1220000N                               
CUS0634400000106278085003         STEVENS III, CARL   5312 BARBARA AVE                        000N        CARE OF             
MTR06344000001000000000000000RA              79259264    005800950000009500000360000003NN  NNW 000   VACANT PROPERTY     N    
RDG06344000WATR 000000004R00000000000000000000008252015190000N000100000030N         000000400R 10000000010000000000           
RFF0634400069374779      ERT      0002  956.44375000140000082520151900000000000019100W 1220000N                               
CUS0634400000106278086001         HANSON, LORRAINE    5310 BARBARA AVE                        000N        CARE OF             
MTR06344000001000000000000000RA              79259218    005800960000009600000360000003NN  NNW 000                       N    
RDG06344000WATR 000000004R00000000000000003000008252015190000N000300000030N         000000400R 10000000010000000000           
RFF0634400069374051      ERT      0003  956.44375000140000082520151900000000039215100W 1220000N                               
CUS0634400000106278087009         TAORMINO, CELLINA AN5308 BARBARA AVE                        000N        CARE OF             
MTR06344000001000000000000000RA              79259217    005800970000009700000360000003NN  NNW 000                       N    
RDG06344000WATR 000000004R00000000000000000000008252015190000N000100000030N         000000400R 10000000010000000000           
RFF0634400069374132      ERT      0000  956.44375000140000082520151900000000000020100W 1220000N                               
CUS0634400000106278088007         GRUBMAN, JODI C.    5306 BARBARA AVE                        000N        CARE OF             
MTR06344000001000000000000000RA              79259214    005800980000009800000360000003NN  NNW 000                       N    
RDG06344000WATR 000000004R00000000000000003000008252015190000N000300000030N         000000400R 10000000010000000000           
RFF0634400069374108      ERT      0003  956.44375000140000082520151900000000032107100W 1220000N                               
CUS0634400000106278089005         STEPHEN, EVELYN OYIB5304 BARBARA AVE                        000N        CARE OF             
MTR06344000001000000000000000RA              79261481    005800990000009900000360000003NN  NNW 000                       N    
RDG06344000WATR 000000004R00000000000000002000008252015190000N000300000030N         000000400R 10000000010000000000           
RFF0634400069339221      ERT      0000  956.44375000140000082520151900000000023853100W 1220000N                               
CUS0634400000106278090003         BUTLER IV., CLIFTON 5302 BARBARA AVE                        000N        CARE OF             
MTR06344000001000000000000000RA              79261485    005801000000010000000360000003NN  NNW 000                       N    
RDG06344000WATR 000000004R00000000000000002000008252015190000N000300000030N         000000400R 10000000010000000000           
RFF0634400069339227      ERT      0002  956.44375000140000082520151900000000020546100W 1220000N                               
CUS0634400000106278091001         KAPANGE, MUTUMBA    5300 BARBARA AVE                        000N        CARE OF             
MTR06344000001000000000000000RA              79261482    005801010000010100000360000003NN  NNW 000                       N    
RDG06344000WATR 000000004R00000000000000003000008252015190000N000300000030N         000000400R 10000000010000000000           
RFF0634400069339288      ERT      0000  956.44375000140000082520151900000000037310100W 1220000N                               
CUS0634400000106278092009         COLLEEN V DARDEN    5212 BARBARA AVE                        000N        CARE OF             
MTR06344000001000000000000000RA              79261430    005801020000010200000360000003NN  NNW 000                       N    
RDG06344000WATR 000000004R00000000000000004000008252015190000N000300000030N         000000400R 10000000010000000000           
RFF0634400069338127      ERT      0001  956.44375000140000082520151900000000045380100W 1220000N                               
CUS0634400000106278093007         ANNA S BOLLINO      5208 BARBARA AVE                        000N        CARE OF             
MTR06344000001000000000000000RA              79259252    005801030000010300000360000003NN  NNW 000                       N    
RDG06344000WATR 000000004R00000000000000001000008252015190000N000300000030N         000000400R 10000000010000000000           
RFF0634400069374126      ERT      0000  956.44375000140000082520151900000000014721100W 1220000N                               
CUS0634400000106278094005         LEROY WILLIS 3RD    5206 BARBARA AVE                        000N        CARE OF             
MTR06344000001000000000000000RA              79259251    005801040000010400000360000003NN  NNW 000                       N    
