FHDNNNN021004766004766004766N                                                                                           014675
RHD02645800NN02270227000002270000000002270227000252NY022702270227000200000000000000000000000001    08052015NY020000 N         
CUS0264580000102411984004         MILLMAN SAMUEL      1 STRIDESHAM CT                         000N        CARE OF             
MTR02645800001000000000000000RA              44782116    000100010000000100000520000003NN  NNW 000                       N    
RDG02645800WATRL000000004K00000000000002168013708202015124125N000000000000N20       000230400K 10000000010000002153           
CUS0264580000102411985001         WEINBERG LESLIE F   3 STRIDESHAM CT                         000N        CARE OF             
MTR02645800001000000000000000RA              44782031    000100020000000200000520000003NN  NNW 000                       N    
RDG02645800WATRL000000004K00000000000001946013608202015124102N000000000000N20       000040400K 10000000010000001936           
CUS0264580000102411986009         FISH NANCY J        5 STRIDESHAM CT                         000N        CARE OF             
MTR02645800001000000000000000RA              44782027    000100030000000300000520000003NN  NNW 000                       N    
RDG02645800WATRL000000004K00000000000000950013508202015124058N000000000000N20       000180400K 10000000010000000942           
CUS0264580000102411987007         ORSINI JACKIE       7 STRIDESHAM CT                         000N        CARE OF             
MTR02645800001000000000000000RA              44782032    000100040000000400000520000003NN  NNW 000                       N    
RDG02645800WATRL000000004K00000000000002237013408202015124040N000000000000N20       000470400K 10000000010000002224           
CUS0264580000102411988005         DUBIN WENDY L       9 STRIDESHAM CT                         000N        CARE OF             
MTR02645800001000000000000000RA              44782046    000100050000000500000520000003NN  NNW 000                       N    
RDG02645800WATRL000000004K00000000000000641013308202015123953N000000000000N20       000640400K 10000000010000000639           
CUS0264580000102411909001         VAYNER ARKADIY      11 STRIDESHAM CT                        000N        CARE OF             
MTR02645800001000000000000000RA              44782187    000100060000000600000520000003NN  NNW 000                       N    
RDG02645800WATRL000000004K00000000000001354013208202015123849N000000000000N20       000270400K 10000000010000001336           
CUS0264580000102411908003         WILLIAMS ROBIN E    13 STRIDESHAM CT                        000N        CARE OF             
MTR02645800001000000000000000RA              44782154    000100070000000700000520000003NN  NNW 000                       N    
RDG02645800WATRL000000004K00000000000000973013108202015123822N000000000000N20       000030400K 10000000010000000962           
CUS0264580000102411907005         LOONEY MARK R       15 STRIDESHAM CT                        000N        CARE OF             
MTR02645800001000000000000000RA              44782177    000100080000000800000520000003NN  NNW 000                       N    
RDG02645800WATRL000000004K00000000000001399013008202015123819N000000000000N20       000340400K 10000000010000001379           
CUS0264580000102411919000         YU HYUN AH          17 STRIDESHAM CT                        000N        CARE OF             
MTR02645800001000000000000000RA              44782126    000100090000000900000520000003NN  NNW 000                       N    
RDG02645800WATRL000000004K00000000000002506012908202015123745N000000000000N20       000020400K 10000000010000002489           
CUS0264580000102411918002         GILAD A EICHHORN    19 STRIDESHAM CT                        000N        CARE OF             
MTR02645800001000000000000000RA              44782155    000100100000001000000520000003NN  NNW 000                       N    
RDG02645800WATRL000000004K00000000000001208012808202015123743N000000000000N20       000410400K 10000000010000001203           
CUS0264580000102412456002         SHIPARGA SVYATOSLAV 21 STRIDESHAM CT                        000N        CARE OF             
MTR02645800001000000000000000RA              48581107    000100110000001100000520000003NN  NNW 000                       N    
RDG02645800WATRL000000004K00000000000001553012708202015123702N000000000000N20       000190400K 10000000010000001531           
CUS0264580000102412457000         DIAMOND ARNOLD      23 STRIDESHAM CT                        000N        CARE OF             
MTR02645800001000000000000000RA              44782176    000100120000001200000520000003NN  NNW 000                       N    
RDG02645800WATRL000000004K00000000000000987012608202015123643N000000000000N20       000330400K 10000000010000000980           
CUS0264580000102412458008         BECKER PATRICE M    25 STRIDESHAM CT                        000N        CARE OF             
MTR02645800001000000000000000RA              44782225    000100130000001300000520000003NN  NNW 000                       N    
RDG02645800WATRL000000004K00000000000000482012508202015123610N000000000000N20       000290400K 10000000010000000473           
CUS0264580000102412460004         JADS REALTY III LLC 27 STRIDESHAM CT                        000N        CARE OF             
MTR02645800001000000000000000RA              44782158    000100140000001400000520000003NN  NNW 000                       N    
RDG02645800WATRL000000004K00000000000001512012408202015123541N000000000000N20       000020400K 10000000010000001507           
CUS0264580000102412462000         YE LINGXIANG        29 STRIDESHAM CT                        000N        CARE OF             
MTR02645800001000000000000000RA              44782132    000100150000001500000520000003NN  NNW 000                       N    
RDG02645800WATRL000000004K00000000000002033012308202015123539N000000000000N20       000210400K 10000000010000002013           
CUS0264580000102412471001         GOLDEN MICHAEL S    31 STRIDESHAM CT                        000N        CARE OF             
MTR02645800001000000000000000RA              44782117    000100160000001600000520000003NN  NNW 000                       N    
RDG02645800WATRL000000004K00000000000001370012208202015123518N000000000000N20       000020400K 10000000010000001362           
CUS0264580000102412480002         LAWRENCE DEBRA      33 STRIDESHAM CT                        000N        CARE OF             
MTR02645800001000000000000000RA              44782167    000100170000001700000520000003NN  NNW 000                       N    
RDG02645800WATRL000000004K00000000000001302012108202015123516N000000000000N20       000320400K 10000000010000001289           
CUS0264580000102412472009         KAHN HOWARD M       35 STRIDESHAM CT                        000N        CARE OF             
MTR02645800001000000000000000RA              44782218    000100180000001800000520000003NN  NNW 000                       N    
RDG02645800WATRL000000004K00000000000001314012008202015123444N000000000000N20       000260400K 10000000010000001307           
CUS0264580000102412473007         SHIN YOON SOO       37 STRIDESHAM CT                        000N        CARE OF             
MTR02645800001000000000000000RA              44782209    000100190000001900000520000003NN  NNW 000                       N    
RDG02645800WATRL000000004K00000000000002399011908202015123418N000000000000N20       000210400K 10000000010000002379           
CUS0264580000102412474005         LONDON SCOTT DAVID  39 STRIDESHAM CT                        000N        CARE OF             
MTR02645800001000000000000000RA              44782202    000100200000002000000520000003NN  NNW 000                       N    
RDG02645800WATRL000000004K00000000000001675011808202015123357N000000000000N20       000030400K 10000000010000001665           
CUS0264580000102412475002         CHENG GUOZHANG      41 STRIDESHAM CT                        000N        CARE OF             
MTR02645800001000000000000000RA              44782261    000100210000002100000520000003NN  NNW 000                       N    
RDG02645800WATRL000000004K00000000000001289011708202015123354N000000000010N20       000310400K 10000000010000001272           
CUS0264580000102412476000         YOUSSEF YASSAR      43 STRIDESHAM CT                        000N        CARE OF             
MTR02645800001000000000000000RA              44782211    000100220000002200000520000003NN  NNW 000                       N    
RDG02645800WATRL000000004K00000000000000313011608202015123323N000000000000N20       000260400K 10000000010000000313           
CUS0264580000102412477008         ABRAMOVITZ DEBORAH J45 STRIDESHAM CT                        000N        CARE OF             
MTR02645800001000000000000000RA              47377004    000100230000002300000520000003NN  NNW 000                       N    
RDG02645800WATRL000000004K00000000000001068011508202015123257N000000000000N20       000020400K 10000000010000001061           
CUS0264580000102412478006         SWERDLIN JILL B     47 STRIDESHAM CT                        000N        CARE OF             
MTR02645800001000000000000000RA              47377089    000100240000002400000520000003NN  NNW 000                       N    
RDG02645800WATRL000000004K00000000000001380011408202015123255N000000000000N20       000190400K 10000000010000001380           
CUS0264580000102412479004         LEE CLARA J         49 STRIDESHAM CT                        000N        CARE OF             
MTR02645800001000000000000000RA              76350053    000100250000002500000360000003NN  NNW 000                       N    
RDG02645800WATRL000000004K00000000000000000011308202015123236N000000000000N20       000600400K 10000000010000000000           
CUS0264580000102412454007         SHEVTSOVA VIKTORIYA 52 STRIDESHAM CT                        000N        CARE OF             
MTR02645800001000000000000000RA              44782260    000100260000002600000520000003NN  NNW 000                       N    
RDG02645800WATRL000000004K00000000000001955011208202015123136N000000000000N20       000030400K 10000000010000001931           
CUS0264580000102412455004         MCNEILL ROSE A      50 STRIDESHAM CT                        000N        CARE OF             
MTR02645800001000000000000000RA              44782221    000100270000002700000520000003NN  NNW 000                       N    
RDG02645800WATRL000000004K00000000000001290011108202015123133N000400000010N20       000360400K 10000000010000001289           
CUS0264580000102412470003         CASEY FINKELSTEIN   48 STRIDESHAM CT                        000N        CARE OF             
MTR02645800001000000000000000RA              44782208    000100280000002800000520000003NN  NNW 000                       N    
RDG02645800WATRL000000004K00000000000001275011008202015123057N000000000000N20       000020400K 10000000010000001268           
CUS0264580000102412469005         KAREN KANTOR EGORIN 46 STRIDESHAM CT                        000N        CARE OF             
MTR02645800001000000000000000RA              44782203    000100290000002900000520000003NN  NNW 000                       N    
RDG02645800WATRL000000004K00000000000001705010908202015123055N000000000000N20       000280400K 10000000010000001688           
CUS0264580000102412468007         WALDMAN EDWARD J    44 STRIDESHAM CT                        000N        CARE OF             
MTR02645800001000000000000000RA              44782264    000100300000003000000520000003NN  NNW 000                       N    
RDG02645800WATRL000000004K00000000000001973010808202015123027N000300000010N20       000410400K 10000000010000001948           
CUS0264580000102412467009         EHRLICH HENRY I     40 STRIDESHAM CT                        000N        CARE OF             
MTR02645800001000000000000000RA              44782163    000100310000003100000520000003NN  NNW 000                       N    
RDG02645800WATRL000000004K00000000000002217010708202015122946N000000000000N20       000330400K 10000000010000002177           
CUS0264580000102412466001         LOBE BERNARD R      38 STRIDESHAM CT                        000N        CARE OF             
MTR02645800001000000000000000RA              44782204    000100320000003200000520000003NN  NNW 000                       N    
RDG02645800WATRL000000004K00000000000001491010608202015122913N000000000000N20       000070400K 10000000010000001481           
CUS0264580000102412465003         BARABASH VLADIMIR   36 STRIDESHAM CT                        000N        CARE OF             
MTR02645800001000000000000000RA              44782204    000100330000003300000520000003NN  NNW 000                       N    
RDG02645800WATRL000000004K00000000000001772010508202015122906N000000000000N20       000270400K 10000000010000001754           
CUS0264580000102412464006         ESHKENAZI NISSIM    34 STRIDESHAM CT                        000N        CARE OF             
MTR02645800001000000000000000RA              44782162    000100340000003400000520000003NN  NNW 000                       N    
RDG02645800WATRL000000004K00000000000001919010408202015122839N000000000000N20       000210400K 10000000010000001906           
CUS0264580000102411910009         SPIGEL ARIE         32 STRIDESHAM CT                        000N        CARE OF             
MTR02645800001000000000000000RA              44782183    000100350000003500000520000003NN  NNW 000                       N    
RDG02645800WATRL000000004K00000000000001978010308202015122818N000000000000N20       000260400K 10000000010000001957           
CUS0264580000102411911007         BAGIROV LEV         30 STRIDESHAM CT                        000N        CARE OF             
MTR02645800001000000000000000RA              48581248    000100360000003600000520000003NN  NNW 000                       N    
RDG02645800WATRL000000004K00000000000001526010208202015122752N000000000000N20       000070400K 10000000010000001508           
CUS0264580000102411912005         GREENBERG JEFFREY   28 STRIDESHAM CT                        000N        CARE OF             
MTR02645800001000000000000000RA              48581876    000100370000003700000520000003NN  NNW 000                       N    
RDG02645800WATRL000000004K00000000000003260010108202015122745N000400000010N20       000450400K 10000000010000003246           
CUS0264580000102411913003         JOSHUA SCHUMER      26 STRIDESHAM CT                        000N        CARE OF             
MTR02645800001000000000000000RA              44782289    000100380000003800000520000003NN  NNW 000                       N    
RDG02645800WATRL000000004K00000000000001483010008202015122700N000000000000N20       000020400K 10000000010000001468           
CUS0264580000102411914001         MAIMON DAVID        24 STRIDESHAM CT                        000N        CARE OF             
MTR02645800001000000000000000RA              44782278    000100390000003900000520000003NN  NNW 000                       N    
RDG02645800WATRL000000004K00000000000001510009908202015122658N000000000000N20       000310400K 10000000010000001501           
CUS0264580000102411915008         ABY CHERNYAUSKY     22 STRIDESHAM CT                        000N        CARE OF             
MTR02645800001000000000000000RA              47377019    000100400000004000000520000003NN  NNW 000                       N    
RDG02645800WATRL000000004K00000000000001080009808202015122627N000000000000N20       000020400K 10000000010000001079           
CUS0264580000102411916006         HAWTOF DANIEL A     20 STRIDESHAM CT                        000N        CARE OF             
MTR02645800001000000000000000RA              47377018    000100410000004100000520000003NN  NNW 000                       N    
RDG02645800WATRL000000004K00000000000002388009708202015122625N000000000000N20       000220400K 10000000010000002360           
CUS0264580000102411917004         GUTMAN ALEKSANDR    18 STRIDESHAM CT                        000N        CARE OF             
MTR02645800001000000000000000RA              44782279    000100420000004200000520000003NN  NNW 000                       N    
RDG02645800WATRL000000004K00000000000002238009608202015122603N000000000000N20       000210400K 10000000010000002216           
CUS0264580000102411991009         LANG DARRYL PETER   16 STRIDESHAM CT                        000N        CARE OF             
MTR02645800001000000000000000RA              46288040    000100430000004300000520000003NN  NNW 000                       N    
RDG02645800WATRL000000004K00000000000002334009508202015122542N000000000000N20       000240400K 10000000010000002319           
CUS0264580000102411992007         SHEYNMAN DMITRY     14 STRIDESHAM CT                        000N        CARE OF             
MTR02645800001000000000000000RA              46288093    000100440000004400000520000003NN  NNW 000                       N    
RDG02645800WATRL000000004K00000000000001080009408202015122518N000000000000N20       000020400K 10000000010000001071           
CUS0264580000102411993005         DOMINIQUE/NICHOLE ME12 STRIDESHAM CT                        000N        CARE OF             
MTR02645800001000000000000000RA              46288092    000100450000004500000520000003NN  NNW 000                       N    
RDG02645800WATRL000000004K00000000000001466009308202015122516N000000000000N20       000310400K 10000000010000001445           
CUS0264580000102411994003         GILLESPIE VERNON,JR 10 STRIDESHAM CT                        000N        CARE OF             
MTR02645800001000000000000000RA              46288095    000100460000004600000520000003NN  NNW 000                       N    
RDG02645800WATRL000000004K00000000000001592009208202015122445N000000000000N20       000040400K 10000000010000001582           
CUS0264580000102411995000         SILVERBERG SANDRA RA8 STRIDESHAM CT                         000N        CARE OF             
MTR02645800001000000000000000RA              46288094    000100470000004700000520000003NN  NNW 000                       N    
RDG02645800WATRL000000004K00000000000000922009108202015122441N000000000000N20       000130400K 10000000010000000917           
CUS0264580000102411996008         RAYTHATHA JIGAR     6 STRIDESHAM CT                         000N        CARE OF             
MTR02645800001000000000000000RA              46288184    000100480000004800000520000003NN  NNW 000                       N    
RDG02645800WATRL000000004K00000000000001389009008202015122428N000000000000N20       000020400K 10000000010000001370           
CUS0264580000102411990001         TREPETIN LEO        4 STRIDESHAM CT                         000N        CARE OF             
MTR02645800001000000000000000RA              46288177    000100490000004900000520000003NN  NNW 000                       N    
RDG02645800WATRL000000004K00000000000001574008908202015122426N000000000000N20       000390400K 10000000010000001560           
CUS0264580000102411989003         RUBIN BARRY L       2 STRIDESHAM CT                         000N        CARE OF             
MTR02645800001000000000000000RA              46288176    000100500000005000000520000003NN  NNW 000                       N    
RDG02645800WATRL000000004K00000000000001688008808202015122347N000000000000N20       001100400K 10000000010000001668           
CUS0264580000102401784000         ERIC TABB           2 CHASEMOUNT CT                         000N        CARE OF             
MTR02645800001000000000000000RA              41075123    005800510000005100000520000003NN  NNW 000                       N    
RDG02645800WATRL000000004K00000000000002729008708202015122157N000300000010N20       000950400K 10000000010000002700           
CUS0264580000102401785007         ZUKERBERG JORDAN    4 CHASEMOUNT CT                         000N        CARE OF             
MTR02645800001000000000000000RA              41075326    005800520000005200000520000003NN  NNW 000                       N    
RDG02645800WATRL000000004K00000000000002718008608202015122022N000300000010N20       000040400K 10000000010000002498           
CUS0264580000102401786005         ONTMAN CATHERINE    6 CHASEMOUNT CT                         000N        CARE OF             
MTR02645800001000000000000000RA              48583268    005800530000005300000520000003NN  NNW 000                       N    
RDG02645800WATRL000000004K00000000000001464008508202015122018N000000000000N20       000210400K 10000000010000001452           
CUS0264580000102401787003         COHEN ZVI           8 CHASEMOUNT CT                         000N        CARE OF             
MTR02645800001000000000000000RA              41075279    005800540000005400000520000003NN  NNW 000                       N    
RDG02645800WATRL000000004K00000000000002490008408202015121957N000000000000N20       000040400K 10000000010000002472           
CUS0264580000102401788001         JADS REALTY II LLC  10 CHASEMOUNT CT                        000N        CARE OF             
MTR02645800001000000000000000RA              41075096    005800550000005500000520000003NN  NNW 000                       N    
RDG02645800WATRL000000004K00000000000003397008308202015121953N000000000000N20       000250400K 10000000010000003376           
CUS0264580000102401738006         KERR LYNN A         12 CHASEMOUNT CT                        000N        CARE OF             
MTR02645800001000000000000000RA              41075163    005800560000005600000520000003NN  NNW 000                       N    
RDG02645800WATRL000000004K00000000000002374008208202015121928N000300000010N20       000170400K 10000000010000001703           
CUS0264580000102401737008         TALIS MIKHAIL       14 CHASEMOUNT CT                        000N        CARE OF             
MTR02645800001000000000000000RA              41075175    005800570000005700000520000003NN  NNW 000                       N    
RDG02645800WATRL000000004K00000000000002443008108202015121911N000000000000N20       001120400K 10000000010000002425           
CUS0264580000102402890004         CAPLAN HENNIE M     1 HUNTCHASE CT                          000N        CARE OF             
MTR02645800001000000000000000RA              41087956    005800580000005800000520000003NN  NNW 000                       N    
RDG02645800WATRL000000004K00000000000002556008008202015121719N000000000000N20       000360400K 10000000010000002541           
CUS0264580000102402891002         NASH YVETTE         3 HUNTCHASE CT                          000N        CARE OF             
MTR02645800001000000000000000RA              41087961    005800590000005900000520000003NN  NNW 000                       N    
RDG02645800WATRL000000004K00000000000001494007908202015121643N000000000000N20       000050400K 10000000010000001480           
CUS0264580000102402892000         TIEDEMAN LONNY A    5 HUNTCHASE CT                          000N        CARE OF             
MTR02645800001000000000000000RA              41088046    005800600000006000000520000003NN  NNW 000                       N    
RDG02645800WATRL000000004K00000000000003406007808202015121638N000000000000N20       000320400K 10000000010000003372           
CUS0264580000102402893008         MEKILIESKY BRIAN S  7 HUNTCHASE CT                          000N        CARE OF             
MTR02645800001000000000000000RA              41086555    005800610000006100000520000003NN  NNW 000                       N    
RDG02645800WATRL000000004K00000000000002848007708202015121606N000000000000N20       000020400K 10000000010000002815           
CUS0264580000102402894006         EINHORN STEVEN J    9 HUNTCHASE CT                          000N        CARE OF             
MTR02645800001000000000000000RA              44086466    005800620000006200000520000003NN  NNW 000                       N    
RDG02645800WATRL000000004K00000000000002462007608202015121604N000000000000N20       000190400K 10000000010000002436           
CUS0264580000102402895003         JEREMY ZINN         11 HUNTCHASE CT                         000N        CARE OF             
MTR02645800001000000000000000RA              41082926    005800630000006300000520000003NN  NNW 000                       N    
RDG02645800WATRL000000004K00000000000002314007508202015121545N000000000000N20       000710400K 10000000010000002299           
CUS0264580000102402896001         LICHTER EDWARD B    15 HUNTCHASE CT                         000N        CARE OF             
MTR02645800001000000000000000RA              41081966    005800640000006400000520000003NN  NNW 000                       N    
RDG02645800WATRL000000004K00000000000002983007008202015121318N000000000000N20       000880400K 10000000010000002960           
CUS0264580000102402899005         ZILBERMAN ALLA      17 HUNTCHASE CT                         000N        CARE OF             
MTR02645800001000000000000000RA              41081919    005800650000006500000520000003NN  NNW 000                       N    
RDG02645800WATRL000000004K00000000000001475007108202015121340N000000000000N20       000220400K 10000000010000001466           
CUS0264580000102402897009         ORLOV IRINA         19 HUNTCHASE CT                         000N        CARE OF             
MTR02645800001000000000000000RA              41082936    005800660000006600000520000003NN  NNW 000                       N    
RDG02645800WATRL000000004K00000000000001904007208202015121400N000000000000N20       000200400K 10000000010000001886           
CUS0264580000102402900001         SACHS GREGORY A     21 HUNTCHASE CT                         000N        CARE OF             
MTR02645800001000000000000000RA              41082927    005800670000006700000520000003NN  NNW 000                       N    
RDG02645800WATRL000000004K00000000000001224007308202015121413N000000000000N20       000130400K 10000000010000001215           
CUS0264580000102402898007         BECKWITH ELISA/TODD 23 HUNTCHASE CT                         000N        CARE OF             
MTR02645800001000000000000000RA              41081914    005800680000006800000520000003NN  NNW 000                       N    
RDG02645800WATRL000000004K00000000000002443007408202015121434N000000000000N20       000210400K 10000000010000002428           
CUS0264580000102401746009         DEMATTOS JOSEPH,JR  18 CHASEMOUNT CT                        000N        CARE OF             
MTR02645800001000000000000000RA              41074984    005800690000006900000520000003NN  NNW 000                       N    
RDG02645800WATRL000000004K00000000000002944006908202015121150N000000000000N20       000040400K 10000000010000002920           
CUS0264580000102401747007         WHITE CRAIG WILLIAM 20 CHASEMOUNT CT                        000N        CARE OF             
MTR02645800001000000000000000RA              41075127    005800700000007000000520000003NN  NNW 000                       N    
RDG02645800WATRL000000004K00000000000001778006808202015121146N000000000000N20       000240400K 10000000010000001767           
CUS0264580000102401748005         ASHMAN DONNA M      22 CHASEMOUNT CT                        000N        CARE OF             
MTR02645800001000000000000000RA              41075170    005800710000007100000520000003NN  NNW 000                       N    
RDG02645800WATRL000000004K00000000000002478006708202015121122N000000000000N20       000090400K 10000000010000002462           
CUS0264580000102401749003         SMITH KHALID R      24 CHASEMOUNT CT                        000N        CARE OF             
MTR02645800001000000000000000RA              41075108    005800720000007200000520000003NN  NNW 000                       N    
RDG02645800WATRL000000004K00000000000002112006608202015121113N000000000000N20       000390400K 10000000010000002084           
CUS0264580000102401750001         TRACY FRIEDLANDER   26 CHASEMOUNT CT                        000N        CARE OF             
MTR02645800001000000000000000RA              41075174    005800730000007300000520000003NN  NNW 000                       N    
RDG02645800WATRL000000004K00000000000001770006508202015121034N000000000000N20       000280400K 10000000010000001756           
CUS0264580000102401754003         SCHWARTZMAN ALFRED  27 CHASEMOUNT CT                        000N        CARE OF             
MTR02645800001000000000000000RA              41075093    005800740000007400000520000003NN  NNW 000                       N    
RDG02645800WATRL000000004K00000000000001429006408202015121006N000000000000N20       000210400K 10000000010000001417           
CUS0264580000102401753005         BIRENBAUM IRVIN B   25 CHASEMOUNT CT                        000N        CARE OF             
MTR02645800001000000000000000RA              01077050    005800750000007500000610000003NN  NNW 000                       N    
RDG02645800WATRL000000004K00000000000001219006308202015120945N000000000000N20       000150400K 10000000010000001204           
CUS0264580000102401752007         JOSEPH ROMANIK      23 CHASEMOUNT CT                        000N        CARE OF             
MTR02645800001000000000000000RA              14921509    005800760000007600000310000003NN  NNW 000                       N    
RDG02645800WATRL000000004K00000000000001008006208202015120930N000000000000N20       000180400K 10000000010000000975           
CUS0264580000102401751009         SAAKYAN SERGEY      21 CHASEMOUNT CT                        000N        CARE OF             
MTR02645800001000000000000000RA              41075122    005800770000007700000520000003NN  NNW 000                       N    
RDG02645800WATRL000000004K00000000000001627006108202015120912N000000000000N20       000330400K 10000000010000001613           
CUS0264580000102401739004         STEFAN ADES         19 CHASEMOUNT CT                        000N        CARE OF             
MTR02645800001000000000000000RA              01090260    005800780000007800000610000003NN  NNW 000                       N    
RDG02645800WATRL000000004K00000000000000631006008202015120839N000400000010N20       000250400K 10000000010000000619           
CUS0264580000102401740002         CAPLAN JUSTIN       17 CHASEMOUNT CT                        000N        CARE OF             
MTR02645800001000000000000000RA              41075172    005800790000007900000520000003NN  NNW 000                       N    
RDG02645800WATRL000000004K00000000000003207005908202015120814N000300000010N20       000230400K 10000000010000002856           
CUS0264580000102401741000         HEYMAN TRACY K      15 CHASEMOUNT CT                        000N        CARE OF             
MTR02645800001000000000000000RA              41075159    005800800000008000000520000003NN  NNW 000   VACANT / LOT        N    
RDG02645800WATRL000000004K00000000000001222005808202015120751N000000000010N20       000170400K 10000000010000001219           
CUS0264580000102401789009         MARTSINOVSKY LYUDMIL13 CHASEMOUNT CT                        000N        CARE OF             
MTR02645800001000000000000000RA              41075092    005800810000008100000520000003NN  NNW 000                       N    
RDG02645800WATRL000000004K00000000000001798005708202015120734N000000000000N20       000220400K 10000000010000001787           
CUS0264580000102401742008         MILLER BROOKS J     11 CHASEMOUNT CT                        000N        CARE OF             
MTR02645800001000000000000000RA              41075095    005800820000008200000520000003NN  NNW 000                       N    
RDG02645800WATRL000000004K00000000000001462005608202015120712N000000000000N20       000150400K 10000000010000001443           
CUS0264580000102401743006         LEVIN BRUCE C       9 CHASEMOUNT CT                         000N        CARE OF             
MTR02645800001000000000000000RA              40781836    005800830000008300000520000003NN  NNW 000                       N    
RDG02645800WATRL000000004K00000000000002644005508202015120657N000000000011N20       000170400K 10000000010000002620           
CUS0264580000102401744004         CRISALLI, MATHEW    7 CHASEMOUNT CT                         000N        CARE OF             
MTR02645800001000000000000000RA              30515019    005800840000008400000520000003NN  NNW 000                       N    
RDG02645800WATRL000000004K00000000000003620005408202015120624N000000000000N20       000650400K 10000000010000003604           
CUS0264580000102401745001         JOLSON TODD A       5 CHASEMOUNT CT                         000N        CARE OF             
MTR02645800001000000000000000RA              41075107    005800850000008500000520000000NN  NNW 000                       N    
RDG02645800WATRL000000004K00000000000001976005308202015120519N000000000000N20       000480400K 10000000010000001967           
CUS0264580000102401790007         SALKIN JAMES S      3 CHASEMOUNT CT                         000N        CARE OF             
MTR02645800001000000000000000RA              42809580    005800860000008600000520000003NN  NNW 000                       N    
RDG02645800WATRL000000004K00000000000001941005208202015120431N000000000000N20       000240400K 10000000010000001933           
CUS0264580000102401791005         DARREN M SCHEINBERG 1 CHASEMOUNT CT                         000N        CARE OF             
MTR02645800001000000000000000RA              01100413    005800870000008700000610000003NN  NNW 000                       N    
RDG02645800WATRL000000004K00000000000000653005108202015120407N000000000000N20       002950400K 10000000010000000638           
CUS0264580000102401808007         FRUMAN NEAL         2 STABLEMERE CT                         000N        CARE OF             
MTR02645800001000000000000000RA              44003663    005800880000008800000520000000NN  NNW 000                       N    
RDG02645800WATRL000000004K00000000000002902005008202015115912N000000000000N20       000030400K 10000000010000002886           
CUS0264580000102401809005         PEARLMAN HINDA JOY  4 STABLEMERE CT                         000N        CARE OF             
MTR02645800001000000000000000RA              44003654    005800890000008900000520000003NN  NNW 000                       N    
RDG02645800WATRL000000004K00000000000001741004908202015115909N000000000000N20       000190400K 10000000010000001733           
CUS0264580000102401810003         VURGAFTMAN YEVGENIY 6 STABLEMERE CT                         000N        CARE OF             
MTR02645800001000000000000000RA              44089802    005800900000009000000520000000NN  NNW 000                       N    
RDG02645800WATRL000000004K00000000000002952004808202015115850N000000000000N20       000030400K 10000000010000002925           
CUS0264580000102401811001         FRANKS JAMES D      8 STABLEMERE CT                         000N        CARE OF             
MTR02645800001000000000000000RA              10012818    005800910000009100000570000003NN  NNW 000                       N    
RDG02645800WATRL000000004K00000000000000582004708202015115847N000000000000N20       000230400K 10000000010000000539           
CUS0264580000102401812009         MIKHAYLENKO SERGEY  10 STABLEMERE CT                        000N        CARE OF             
MTR02645800001000000000000000RA              44087117    005800920000009200000520000003NN  NNW 000                       N    
RDG02645800WATRL000000004K00000000000002864004608202015115824N000000000000N20       000030400K 10000000010000002843           
CUS0264580000102401813007         JASON KWICIEN       12 STABLEMERE CT                        000N        CARE OF             
MTR02645800001000000000000000RA              44087118    005800930000009300000520000003NN  NNW 000                       N    
RDG02645800WATRL000000004K00000000000002530004508202015115821N000400000010N20       000460400K 10000000010000002518           
CUS0264580000102401814005         FOX ALEX B          14 STABLEMERE CT                        000N        CARE OF             
MTR02645800001000000000000000RA              00137548    005800940000009400000570000003NN  NNW 000                       N    
RDG02645800WATRL000000004K00000000000002019004408202015115735N000000000000N20       000040400K 10000000010000001996           
CUS0264580000102401815002         SHKLYAN VARTAN      16 STABLEMERE CT                        000N        CARE OF             
MTR02645800001000000000000000RA              00137547    005800950000009500000570000003NN  NNW 000                       N    
RDG02645800WATRL000000004K00000000000001147004308202015115731N000000000000N20       000320400K 10000000010000001137           
CUS0264580000102401816000         ROYTMAN ALEXANDER   18 STABLEMERE CT                        000N        CARE OF             
MTR02645800001000000000000000RA              44086359    005800960000009600000520000003NN  NNW 000                       N    
RDG02645800WATRL000000004K00000000000001169004208202015115659N000000000000N20       000040400K 10000000010000001159           
CUS0264580000102401817008         SARA R. BROWN       20 STABLEMERE CT                        000N        CARE OF             
MTR02645800001000000000000000RA              44086354    005800970000009700000520000003NN  NNW 000                       N    
RDG02645800WATRL000000004K00000000000001804004108202015115655N000000000000N20       000240400K 10000000010000001786           
CUS0264580000102401818006         BIRNBAUM DANIEL     22 STABLEMERE CT                        000N        CARE OF             
MTR02645800001000000000000000RA              10012527    005800980000009800000570000003NN  NNW 000                       N    
RDG02645800WATRL000000004K00000000000000117004008202015115631N000000000000N20       000010400K 10000000010000000113           
CUS0264580000102401819004         CAZAC AURICA        24 STABLEMERE CT                        000N        CARE OF             
MTR02645800001000000000000000RA              36692659    005800990000009900000520000003NN  NNW 000                       N    
RDG02645800WATRL000000004K00000000000002611003908202015115630N000000000000N20       000660400K 10000000010000002582           
CUS0264580000102401820002         RUDO STANLEY        26 STABLEMERE CT                        000N        CARE OF             
MTR02645800001000000000000000RA              44173823    005801000000010000000520000003NN  NNW 000                       N    
RDG02645800WATRL000000004K00000000000001858003808202015115524N000000000000N20       000020400K 10000000010000001842           
CUS0264580000102401821000         LIVIO MARIO         28 STABLEMERE CT                        000N        CARE OF             
MTR02645800001000000000000000RA              44173848    005801010000010100000520000003NN  NNW 000                       N    
RDG02645800WATRL000000004K00000000000001553003708202015115522N000000000000N20       000360400K 10000000010000001540           
CUS0264580000102401822008         SHPIGEL FAINA       30 STABLEMERE CT                        000N        CARE OF             
MTR02645800001000000000000000RA              44173851    005801020000010200000520000003NN  NNW 000                       N    
RDG02645800WATRL000000004K00000000000001863003608202015115446N000000000000N20       000040400K 10000000010000001849           
CUS0264580000102401823006         OPARA CLAY C        32 STABLEMERE CT                        000N        CARE OF             
MTR02645800001000000000000000RA              44173819    005801030000010300000520000003NN  NNW 000                       N    
RDG02645800WATRL000000004K00000000000002083003508202015115442N000000000000N20       000260400K 10000000010000002072           
CUS0264580000102401824004         DRUSKIN MALCOLM S   34 STABLEMERE CT                        000N        CARE OF             
MTR02645800001000000000000000RA              52288541    005801040000010400000520000000NN  NNW 000                       N    
RDG02645800WATRL000000004K00000000000000995003408202015115416N000000000000N20       000400400K 10000000010000000982           
CUS0264580000102401825001         PANCHENKO SERGEY D  35 STABLEMERE CT                        000N        CARE OF             
MTR02645800001000000000000000RA              44089799    005801050000010500000520000003NN  NNW 000                       N    
RDG02645800WATRL000000004K00000000000002485003308202015115336N000000000000N20       000030400K 10000000010000002465           
CUS0264580000102401826009         JADS REALTY LLC     33 STABLEMERE CT                        000N        CARE OF             
MTR02645800001000000000000000RA              44089798    005801060000010600000520000003NN  NNW 000                       N    
RDG02645800WATRL000000004K00000000000002083003208202015115333N000000000000N20       000290400K 10000000010000002068           
CUS0264580000102401827007         FRIZNER BENJAMIN    31 STABLEMERE CT                        000N        CARE OF             
MTR02645800001000000000000000RA              45386188    005801070000010700000520000003NN  NNW 000                       N    
RDG02645800WATRL000000004K00000000000002228003108202015115304N000000000000N20       000030400K 10000000010000002208           
CUS0264580000102401828005         PASCAL VICTOR H     29 STABLEMERE CT                        000N        CARE OF             
MTR02645800001000000000000000RA              44089816    005801080000010800000520000003NN  NNW 000                       N    
RDG02645800WATRL000000004K00000000000002590003008202015115301N000000000000N20       000330400K 10000000010000002578           
CUS0264580000102401829003         TARAN IGOR          27 STABLEMERE CT                        000N        CARE OF             
MTR02645800001000000000000000RA              44175801    005801090000010900000520000003NN  NNW 000                       N    
RDG02645800WATRL000000004K00000000000001874002908202015115228N000000000000N20       000150400K 10000000010000001858           
CUS0264580000102401830001         SCHWARTZ KAREN E    25 STABLEMERE CT                        000N        CARE OF             
MTR02645800001000000000000000RA              44175807    005801100000011000000520000003NN  NNW 000                       N    
RDG02645800WATRL000000004K00000000000001738002808202015115213N000000000000N20       000170400K 10000000010000001712           
CUS0264580000102401831009         JEFFREY E BURCHMAN  23 STABLEMERE CT                        000N        CARE OF             
MTR02645800001000000000000000RA              44175802    005801110000011100000520000003NN  NNW 000                       N    
RDG02645800WATRL000000004K00000000000002319002708202015115156N000000000000N20       000230400K 10000000010000002309           
CUS0264580000102401832007         SCHWARTZ-RODRIGUEZ L21 STABLEMERE CT                        000N        CARE OF             
MTR02645800001000000000000000RA              44175798    005801120000011200000520000003NN  NNW 000                       N    
RDG02645800WATRL000000004K00000000000001538002608202015115133N000000000000N20       000210400K 10000000010000001521           
CUS0264580000102401833005         LESIA M TRICKETT    19 STABLEMERE CT                        000N        CARE OF             
MTR02645800001000000000000000RA              44175803    005801130000011300000520000003NN  NNW 000                       N    
RDG02645800WATRL000000004K00000000000002528002508202015115112N000000000000N20       000200400K 10000000010000002506           
CUS0264580000102401834003         SOKOLOV NAUM  SOKOLO17 STABLEMERE CT                        000N        CARE OF             
MTR02645800001000000000000000RA              45373669    005801140000011400000520000000NN  NNW 000                       N    
RDG02645800WATRL000000004K00000000000001449002408202015115052N000000000000N20       000070400K 10000000010000001435           
CUS0264580000102401835000         EDELMAN JONATHAN    15 STABLEMERE CT                        000N        CARE OF             
MTR02645800001000000000000000RA              44175993    005801150000011500000520000003NN  NNW 000                       N    
RDG02645800WATRL000000004K00000000000001888002308202015115045N000000000000N20       000390400K 10000000010000001870           
CUS0264580000102401836008         WILLIAMSON JAMES    13 STABLEMERE CT                        000N        CARE OF             
MTR02645800001000000000000000RA              10002948    005801160000011600000570000000NN  NNW 000                       N    
RDG02645800WATRL000000004K00000000000000712002208202015115006N000000000000N20       000200400K 10000000010000000689           
CUS0264580000102401837006         SASS STEVEN M       11 STABLEMERE CT                        000N        CARE OF             
MTR02645800001000000000000000RA              44175995    005801170000011700000520000003NN  NNW 000                       N    
RDG02645800WATRL000000004K00000000000001466002108202015114946N000000000000N20       000180400K 10000000010000001452           
CUS0264580000102401838004         KATHARINE THURLOW   9 STABLEMERE CT                         000N        CARE OF             
MTR02645800001000000000000000RA              44089818    005801180000011800000520000003NN  NNW 000                       N    
RDG02645800WATRL000000004K00000000000001992002008202015114928N000000000000N20       000120400K 10000000010000001982           
CUS0264580000102401839002         ZWAGIL NORMAN       7 STABLEMERE CT                         000N        CARE OF             
MTR02645800001000000000000000RA              44089819    005801190000011900000520000003NN  NNW 000                       N    
RDG02645800WATRL000000004K00000000000001703001908202015114916N000000000000N20       000090400K 10000000010000001690           
CUS0264580000102401840000         JARED LAMB          5 STABLEMERE CT                         000N        CARE OF             
MTR02645800001000000000000000RA              44089820    005801200000012000000520000003NN  NNW 000                       N    
RDG02645800WATRL000000004K00000000000002105001808202015114907N000000000000N20       000300400K 10000000010000002082           
CUS0264580000102401841008         COHEN BRIAN         3 STABLEMERE CT                         000N        CARE OF             
MTR02645800001000000000000000RA              44089817    005801210000012100000520000003NN  NNW 000                       N    
RDG02645800WATRL000000004K00000000000001480001708202015114837N000300000010N20       000230400K 10000000010000001469           
CUS0264580000102401842006         ZIAI WENDY C        1 STABLEMERE CT                         000N        CARE OF             
MTR02645800001000000000000000RA              44089821    005801220000012200000520000003NN  NNW 000                       N    
RDG02645800WATRL000000004K00000000000001478001608202015114814N000000000000N20       001340400K 10000000010000001472           
CUS0264580000102416344006         MAREINISS DARREN P  100 LANCEFIELD RD                       000N        CARE OF             
MTR02645800001000000000000000RA              46288263    000101230000012300000520000003NN  NNW 000                       N    
RDG02645800WATRL000000004K00000000000000905000208202015114231N000000000000N20       002290400K 10000000010000000886           
CUS0264580000102416345003         TIZENBERG NAUM      102 LANCEFIELD RD                       000N        CARE OF             
MTR02645800001000000000000000RA              46288114    000101240000012400000520000003NN  NNW 000                       N    
RDG02645800WATRL000000004K00000000000001725000308202015114233N000000000000N20       000020400K 10000000010000001709           
CUS0264580000102416346001         EUGENE & OKSU CHOO  104 LANCEFIELD RD                       000N        CARE OF             
MTR02645800001000000000000000RA              47377077    000101250000012500000520000003NN  NNW 000                       N    
RDG02645800WATRL000000004K00000000000000605000408202015114253N000000000000N20       000200400K 10000000010000000590           
CUS0264580000102416347009         HO JOSHUA J         106 LANCEFIELD RD                       000N        CARE OF             
MTR02645800001000000000000000RA              47377002    000101260000012600000520000003NN  NNW 000                       N    
RDG02645800WATRL000000004K00000000000001231000508202015114255N000000000000N20       000020400K 10000000010000001222           
CUS0264580000102416348007         NAST BENJAMIN J     108 LANCEFIELD RD                       000N        CARE OF             
MTR02645800001000000000000000RA              46288262    000101270000012700000520000003NN  NNW 000                       N    
RDG02645800WATRL000000004K00000000000000901000608202015114321N000000000000N20       000260400K 10000000010000000891           
CUS0264580000102416349005         WAKEFIELD NINA S    110 LANCEFIELD RD                       000N        CARE OF             
MTR02645800001000000000000000RA              46288115    000101280000012800000520000003NN  NNW 000                       N    
RDG02645800WATRL000000004K00000000000001176000708202015114323N000000000000N20       000020400K 10000000010000001170           
CUS0264580000102416350003         KOFMAN ILYA         112 LANCEFIELD RD                       000N        CARE OF             
MTR02645800001000000000000000RA              47377063    000101290000012900000520000003NN  NNW 000                       N    
RDG02645800WATRL000000004K00000000000001009000808202015114341N000000000000N20       000180400K 10000000010000001003           
CUS0264580000102416351001         ZATZ ALAN           20 TAVERNGREEN CT                       000N        CARE OF             
MTR02645800001000000000000000RA              50384290    000101300000013000000520000003NN  NNW 000                       N    
RDG02645800WATRL000000004K00000000000001144000808212015105734N000000000000U20       000030400K 10000000010000001129           
CUS0264580000102416352009         RUBIN DAVID H       22 TAVERNGREEN CT                       000N        CARE OF             
MTR02645800001000000000000000RA              50384291    000101310000013100000520000003NN  NNW 000                       N    
RDG02645800WATRL000000004K00000000000000041000708212015105731N000000000000U20       000250400K 10000000010000000041           
CUS0264580000102416353007         GELMAN ROMAN        24 TAVERNGREEN CT                       000N        CARE OF             
MTR02645800001000000000000000RA              50384516    000101320000013200000520000003NN  NNW 000                       N    
RDG02645800WATRL000000004K00000000000002801000608212015105706N000300000010U20       000050400K 10000000010000002855           
CUS0264580000102416354005         LIBERMAN IRINA      26 TAVERNGREEN CT                       000N        CARE OF             
MTR02645800001000000000000000RA              47377101    000101330000013300000520000003NN  NNW 000                       N    
RDG02645800WATRL000000004K00000000000001024000508212015105701N000000000000U20       000220400K 10000000010000001013           
CUS0264580000102416355002         KHRANOVICH IRINA    28 TAVERNGREEN CT                       000N        CARE OF             
MTR02645800001000000000000000RA              50384441    000101340000013400000520000003NN  NNW 000                       N    
RDG02645800WATRL000000004K00000000000001271000408212015105639N000000000000U20       000050400K 10000000010000001259           
CUS0264580000102416356000         KINSTLINGER MICHAEL 30 TAVERNGREEN CT                       000N        CARE OF             
MTR02645800001000000000000000RA              50384440    000101350000013500000520000003NN  NNW 000                       N    
RDG02645800WATRL000000004K00000000000001184000308212015105634N000000000000U20       000260400K 10000000010000001177           
CUS0264580000102416357008         GERBER NEIL         32 TAVERNGREEN CT                       000N        CARE OF             
MTR02645800001000000000000000RA              50384517    000101360000013600000520000003NN  NNW 000                       N    
RDG02645800WATRL000000004K00000000000001224000208212015105608N000000000000U20       091850400K 10000000010000001216           
CUS0264580000102416358006         LANGBAUM GERALD I   36 TAVERNGREEN CT                       000N        CARE OF             
MTR02645800001000000000000000RA              48581999    000101370000013700000520000003NN  NNW 000                       N    
RDG02645800WATRL000000004K00000000000000986004708212015111157N000000000010U20       000230400K 10000000010000000975           
CUS0264580000102416359004         TILSON TAMMY J      38 TAVERNGREEN CT                       000N        CARE OF             
MTR02645800001000000000000000RA              50384249    000101380000013800000520000003NN  NNW 000                       N    
RDG02645800WATRL000000004K00000000000001487004608212015111134N000000000000U20       000030400K 10000000010000001477           
CUS0264580000102416360002         EKELCHIK SHARI A    40 TAVERNGREEN CT                       000N        CARE OF             
MTR02645800001000000000000000RA              50384283    000101390000013900000520000003NN  NNW 000                       N    
RDG02645800WATRL000000004K00000000000001531004508212015111131N000000000000U20       000350400K 10000000010000001522           
CUS0264580000102416361000         SORRENTINO MARK A   42 TAVERNGREEN CT                       000N        CARE OF             
MTR02645800001000000000000000RA              50384244    000101400000014000000520000003NN  NNW 000                       N    
RDG02645800WATRL000000004K00000000000002002004308212015111036N000000000000U20       000020400K 10000000010000001983           
CUS0264580000102416362008         KIERSON RICHARD B   44 TAVERNGREEN CT                       000N        CARE OF             
MTR02645800001000000000000000RA              50384271    000101410000014100000520000003NN  NNW 000                       N    
RDG02645800WATRL000000004K00000000000001532004208212015111034N000000000000U20       000410400K 10000000010000001519           
CUS0264580000102416363006         CIERLER NEAL A      46 TAVERNGREEN CT                       000N        CARE OF             
MTR02645800001000000000000000RA              50384285    000101420000014200000520000003NN  NNW 000                       N    
RDG02645800WATRL000000004K00000000000001869004408212015111056N000000000000U20       000200400K 10000000010000001854           
CUS0264580000102416364004         LEE INSONG          48 TAVERNGREEN CT                       000N        CARE OF             
MTR02645800001000000000000000RA              47377131    000101430000014300000520000003NN  NNW 000                       N    
RDG02645800WATRL000000004K00000000000001849004108212015110953N000000000000U20       000190400K 10000000010000001833           
CUS0264580000102416365001         TARMIN LILA         50 TAVERNGREEN CT                       000N        CARE OF             
MTR02645800001000000000000000RA              48581229    000101440000014400000520000003NN  NNW 000                       N    
RDG02645800WATRL000000004K00000000000000901004008212015110934N000000000000U20       000280400K 10000000010000000894           
CUS0264580000102416366009         BERMAN WULFRED      52 TAVERNGREEN CT                       000N        CARE OF             
MTR02645800001000000000000000RA              99258817    000101450000014500000570000003NN  NNW 000                       N    
RDG02645800WATRL000000004K00000000000000809003908212015110906N000000000000U20       000010400K 10000000010000000795           
CUS0264580000102416367007         KASHLINSKAYA ALLA   54 TAVERNGREEN CT                       000N        CARE OF             
MTR02645800001000000000000000RA              27775197    000101460000014600000520000003NN  NNW 000                       N    
RDG02645800WATRL000000004K00000000000001743003808212015110905N000000000000U20       000490400K 10000000010000001718           
CUS0264580000102416368005         BRODSKAYA TATYANA   56 TAVERNGREEN CT                       000N        CARE OF             
MTR02645800001000000000000000RA              25374069    000101470000014700000520000003NN  NNW 000                       N    
RDG02645800WATRL000000004K00000000000001467003708212015110816N000000000000U20       000540400K 10000000010000001462           
CUS0264580000102416369003         GOROVITS SARA       58 TAVERNGREEN CT                       000N        CARE OF             
MTR02645800001000000000000000RA              74816954    000101480000014800000350000003NN  NNW 000                       N    
RDG02645800WATRL000000004K00000000000000000000108212015082303N000000000000U20       000000400K 10000000010000000000           
CUS0264580000102416370001         LONSDALE VILMA M    60 TAVERNGREEN CT                       000N        CARE OF             
MTR02645800001000000000000000RA              00165158    000101490000014900000570000003NN  NNW 000                       N    
RDG02645800WATRL000000004K00000000000000223003608212015110722N000000000000U20       000150400K 10000000010000000217           
CUS0264580000102416371009         PRUSH IRENE D       62 TAVERNGREEN CT                       000N        CARE OF             
MTR02645800001000000000000000RA              27775211    000101500000015000000520000003NN  NNW 000                       N    
RDG02645800WATRL000000004K00000000000000949003508212015110707N000000000000U20       000300400K 10000000010000000938           
CUS0264580000102416372007         LUKIN JOSHUA        64 TAVERNGREEN CT                       000N        CARE OF             
MTR02645800001000000000000000RA              46288051    000101510000015100000520000003NN  NNW 000                       N    
RDG02645800WATRL000000004K00000000000001336003408212015110637N000000000000U20       000270400K 10000000010000001321           
CUS0264580000102416373005         CHANDRA VIKRAM      67 TAVERNGREEN CT                       000N        CARE OF             
MTR02645800001000000000000000RA              48581710    000101520000015200000520000003NN  NNW 000                       N    
RDG02645800WATRL000000004K00000000000001160003208212015110608N000000000000U20       000530400K 10000000010000001133           
CUS0264580000102416374003         AHN EDWARD SANGHOON 65 TAVERNGREEN CT                       000N        CARE OF             
MTR02645800001000000000000000RA              76350145    000101530000015300000350000003NN  NNW 000                       N    
RDG02645800WATRL000000004K00000000000000069003308212015110610N000000000000U20       000020400K 10000000010000000053           
CUS0264580000102416375000         JADS REALTY LLC     63 TAVERNGREEN CT                       000N        CARE OF             
MTR02645800001000000000000000RA              74816612    000101540000015400000350000003NN  NNW 000                       N    
RDG02645800WATRL000000004K00000000000000209003108212015110515N000000000000U20       000040400K 10000000010000000190           
CUS0264580000102416376008         PRABHUGARI RAKESH R 61 TAVERNGREEN CT                       000N        CARE OF             
MTR02645800001000000000000000RA              00163592    000101550000015500000570000003NN  NNW 000                       N    
RDG02645800WATRL000000004K00000000000000742003008212015110511N000000000000U20       000230400K 10000000010000000732           
CUS0264580000102416377006         PRUZHININ ALBERT    59 TAVERNGREEN CT                       000N        CARE OF             
MTR02645800001000000000000000RA              48581712    000101560000015600000520000003NN  NNW 000                       N    
RDG02645800WATRL000000004K00000000000001396002908212015110448N000000000000U20       000280400K 10000000010000001385           
CUS0264580000102416378004         RAZUMOVSKY ANDREW   57 TAVERNGREEN CT                       000N        CARE OF             
MTR02645800001000000000000000RA              50384147    000101570000015700000520000003NN  NNW 000                       N    
RDG02645800WATRL000000004K00000000000001976002808212015110420N000000000000U20       000150400K 10000000010000001954           
CUS0264580000102416379002         SHENER SLAVA        55 TAVERNGREEN CT                       000N        CARE OF             
MTR02645800001000000000000000RA              50384146    000101580000015800000520000003NN  NNW 000                       N    
RDG02645800WATRL000000004K00000000000001420002708212015110405N000000000000U20       000080400K 10000000010000001403           
CUS0264580000102416380000         MILLER JOAN         53 TAVERNGREEN CT                       000N        CARE OF             
MTR02645800001000000000000000RA              76350057    000101590000015900000360000003NN  NNW 000                       N    
RDG02645800WATRL000000004K00000000000000005002608212015110357N000000000010U20       000280400K 10000000010000000000           
CUS0264580000102416381008         FINK JEFFREY C      51 TAVERNGREEN CT                       000N        CARE OF             
MTR02645800001000000000000000RA              48581588    000101600000016000000520000003NN  NNW 000                       N    
RDG02645800WATRL000000004K00000000000001727002508212015110329N000000000000U20       000860400K 10000000010000001703           
CUS0264580000102416382006         FOLAND SHELLEY      15 TAVERNGREEN CT                       000N        CARE OF             
MTR02645800001000000000000000RA              48581104    000101610000016100000520000003NN  NNW 000                       N    
RDG02645800WATRL000000004K00000000000001562002408212015110203N000000000000U20       000180400K 10000000010000001554           
CUS0264580000102416383004         RICHTER RONALD C    13 TAVERNGREEN CT                       000N        CARE OF             
MTR02645800001000000000000000RA              48581190    000101620000016200000520000003NN  NNW 000                       N    
RDG02645800WATRL000000004K00000000000001167002308212015110145N000000000000U20       000020400K 10000000010000001157           
CUS0264580000102416384002         SARMA SUNDHAR V     11 TAVERNGREEN CT                       000N        CARE OF             
MTR02645800001000000000000000RA              48581176    000101630000016300000520000003NN  NNW 000                       N    
RDG02645800WATRL000000004K00000000000001948002208212015110143N000000000000U20       000020400K 10000000010000001938           
CUS0264580000102416385009         AISENBERG FLORA     9 TAVERNGREEN CT                        000N        CARE OF             
MTR02645800001000000000000000RA              48581131    000101640000016400000520000003NN  NNW 000                       N    
RDG02645800WATRL000000004K00000000000000338002108212015110141N000100000010U20       000220400K 10000000010000000338           
CUS0264580000102416386007         LAZARY-DAGAN ADI    7 TAVERNGREEN CT                        000N        CARE OF             
MTR02645800001000000000000000RA              46288113    000101650000016500000520000003NN  NNW 000                       N    
RDG02645800WATRL000000004K00000000000001174002008212015110119N000000000000U20       000160400K 10000000010000001162           
CUS0264580000102416387005         SIMON GOLDSEKER     5 TAVERNGREEN CT                        000N        CARE OF             
MTR02645800001000000000000000RA              48581021    000101660000016600000520000003NN  NNW 000                       N    
RDG02645800WATRL000000004K00000000000001446001908212015110103N000000000000U20       000100400K 10000000010000001434           
CUS0264580000102416388003         SCHERR SCOTT R      3 TAVERNGREEN CT                        000N        CARE OF             
MTR02645800001000000000000000RA              48581020    000101670000016700000520000003NN  NNW 000                       N    
RDG02645800WATRL000000004K00000000000001470001808212015110053N000000000000U20       000180400K 10000000010000001455           
CUS0264580000102416389001         ABRAMOVITZ LEE      1 TAVERNGREEN CT                        000N        CARE OF             
MTR02645800001000000000000000RA              48581178    000101680000016800000520000003NN  NNW 000                       N    
RDG02645800WATRL000000004K00000000000002381001708212015110035N000000000000U20       000280400K 10000000010000002375           
CUS0264580000102416390009         KIRK BRANDON        2 TAVERNGREEN CT                        000N        CARE OF             
MTR02645800001000000000000000RA              48581892    000101690000016900000520000003NN  NNW 000                       N    
RDG02645800WATRL000000004K00000000000002237001608212015110007N000000000000U20       000200400K 10000000010000002213           
CUS0264580000102416391007         SCOTT BRIAN CHERRY  4 TAVERNGREEN CT                        000N        CARE OF             
MTR02645800001000000000000000RA              48581285    000101700000017000000520000003NN  NNW 000                       N    
RDG02645800WATRL000000004K00000000000001829001508212015105947N000000000000U20       000040400K 10000000010000001817           
CUS0264580000102416392005         THIERMAN JONATHAN S 6 TAVERNGREEN CT                        000N        CARE OF             
MTR02645800001000000000000000RA              48581260    000101710000017100000520000003NN  NNW 000                       N    
RDG02645800WATRL000000004K00000000000001711001408212015105943N000300000010U20       000240400K 10000000010000001702           
CUS0264580000102416393003         GAMERMAN STEPHEN H  8 TAVERNGREEN CT                        000N        CARE OF             
MTR02645800001000000000000000RA              48581269    000101720000017200000520000003NN  NNW 000                       N    
RDG02645800WATRL000000004K00000000000001701001308212015105919N000000000000U20       000010400K 10000000010000001687           
CUS0264580000102416394001         ELROM SAMMY         10 TAVERNGREEN CT                       000N        CARE OF             
MTR02645800001000000000000000RA              48581270    000101730000017300000520000003NN  NNW 000                       N    
RDG02645800WATRL000000004K00000000000002327001208212015105918N000000000000U20       000320400K 10000000010000002299           
CUS0264580000102416395008         DABBAH DANIEL       12 TAVERNGREEN CT                       000N        CARE OF             
MTR02645800001000000000000000RA              48581287    000101740000017400000520000003NN  NNW 000                       N    
RDG02645800WATRL000000004K00000000000001646001108212015105846N000000000000U20       000020400K 10000000010000001632           
CUS0264580000102416396006         KOLODKIN JEROME     14 TAVERNGREEN CT                       000N        CARE OF             
MTR02645800001000000000000000RA              48581282    000101750000017500000520000003NN  NNW 000                       N    
RDG02645800WATRL000000004K00000000000000859001008212015105844N000000000000U20       000280400K 10000000010000000852           
CUS0264580000102416397004         SHAPSAY EDWARD I    16 TAVERNGREEN CT                       000N        CARE OF             
MTR02645800001000000000000000RA              48581286    000101760000017600000520000003NN  NNW 000                       N    
RDG02645800WATRL000000004K00000000000003125000908212015105816N000000000000U20       000420400K 10000000010000003114           
CUS0264580000102416398002         GREGORY M. MOGILEVSK109 LANCEFIELD RD                       000N        CARE OF             
MTR02645800001000000000000000RA              47377072    000101770000017700000520000003NN  NNW 000                       N    
RDG02645800WATRL000000004K00000000000001453001208202015114453N000400000010N20       000150400K 10000000010000001446           
CUS0264580000102416399000         YE FEI              113 LANCEFIELD RD                       000N        CARE OF             
MTR02645800001000000000000000RA              47377020    000101780000017800000520000003NN  NNW 000                       N    
RDG02645800WATRL000000004K00000000000001258000908202015114410N000000000000N20       000290400K 10000000010000001254           
CUS0264580000102416400006         POBERESKY ALEX      111 LANCEFIELD RD                       000N        CARE OF             
MTR02645800001000000000000000RA              47377006    000101790000017900000520000003NN  NNW 000                       N    
RDG02645800WATRL000000004K00000000000001301001008202015114458N000000000001N20       000050400K 10000000010000001285           
CUS0264580000102416401004         ROMBRO RANDI P      107 LANCEFIELD RD                       000N        CARE OF             
MTR02645800001000000000000000RA              47377079    000101800000018000000520000003NN  NNW 000                       N    
RDG02645800WATRL000000004K00000000000001899001108202015114533N000000000011N20       000350400K 10000000010000001884           
CUS0264580000102416402002         STERN SHELDON A     105 LANCEFIELD RD                       000N        CARE OF             
MTR02645800001000000000000000RA              47377062    000101810000018100000520000003NN  NNW 000                       N    
RDG02645800WATRL000000004K00000000000001011001308202015114534N000000000000N20       000010400K 10000000010000001002           
CUS0264580000102416342000         HESS GARY           103 LANCEFIELD RD                       000N        CARE OF             
MTR02645800001000000000000000RA              47377035    000101820000018200000520000003NN  NNW 000                       N    
RDG02645800WATRL000000004K00000000000001226001408202015114558N000000000000N20       000240400K 10000000010000001217           
CUS0264580000102416343008         JONATHAN M. STEIN   101 LANCEFIELD RD                       000N        CARE OF             
MTR02645800001000000000000000RA              47377040    000101830000018300000520000003NN  NNW 000                       N    
RDG02645800WATRL000000004K00000000000001556001508202015114600N000000000000N20       000020400K 10000000010000001542           
CUS0264580000102404183002         SUMMIT CHASE RECREAT2405 GREEN SUMMIT RD                    000N        CARE OF             
MTR02645800001000000000000000RA              29724246    001501840000018400000520000003NN  NNW 000                       N    
RDG02645800WATRL000000005K00000000000007078000108202015113842N000400000010N20       000000500K 10000000010000007037           
CUS0264580000102406471009         JACOBSON JAMES J    2 COACHMONT CT                          000N        CARE OF             
MTR02645800001000000000000000RA              45382809    005801850000018500000520000003NN  NNW 000                       N    
RDG02645800WATRL000000004K00000000000002191008808212015113344N000000000000U20       000610400K 10000000010000002181           
CUS0264580000102406472007         MICHAELSON DANIEL E 4 COACHMONT CT                          000N        CARE OF             
MTR02645800001000000000000000RA              45384231    005801860000018600000520000003NN  NNW 000                       N    
RDG02645800WATRL000000004K00000000000000000000000000000000000 000000000000U         000000400  10000000010000003870           
CUS0264580000102406473005         CIMORELLI BRYAN D   6 COACHMONT CT                          000N        CARE OF             
MTR02645800001000000000000000RA              45382760    005801870000018700000520000003NN  NNW 000                       N    
RDG02645800WATRL000000004K00000000000000000000000000000000000 000000000000U         000000400  10000000010000001175           
CUS0264580000102406474003         WEINER BRANDON      8 COACHMONT CT                          000N        CARE OF             
MTR02645800001000000000000000RA              45382808    005801880000018800000520000003NN  NNW 000                       N    
RDG02645800WATRL000000004K00000000000001533008708212015113243N000000000000U20       000060400K 10000000010000001521           
CUS0264580000102406475000         TAYLOR DEBORAH L    10 COACHMONT CT                         000N        CARE OF             
MTR02645800001000000000000000RA              45382747    005801890000018900000520000003NN  NNW 000                       N    
RDG02645800WATRL000000004K00000000000001988008608212015113237N000000000000U20       000060400K 10000000010000001972           
CUS0264580000102406476008         JACQEULINE V WALDMAN12 COACHMONT CT                         000N        CARE OF             
MTR02645800001000000000000000RA              45382794    005801900000019000000520000003NN  NNW 000                       N    
RDG02645800WATRL000000004K00000000000001766008508212015113231N000000000000U20       000090400K 10000000010000001755           
CUS0264580000102406477006         LOYBMAN MIKHAIL     14 COACHMONT CT                         000N        CARE OF             
MTR02645800001000000000000000RA              45382780    005801910000019100000520000003NN  NNW 000                       N    
RDG02645800WATRL000000004K00000000000001755008408212015113222N000000000000U20       000360400K 10000000010000001740           
CUS0264580000102406478004         WALTER HAROLD M     16 COACHMONT CT                         000N        CARE OF             
MTR02645800001000000000000000RA              45382749    005801920000019200000520000003NN  NNW 000                       N    
RDG02645800WATRL000000004K00000000000001809008308212015113146N000000000000U20       000120400K 10000000010000001786           
CUS0264580000102406479002         MICHELSON DAVID M   18 COACHMONT CT                         000N        CARE OF             
MTR02645800001000000000000000RA              45386077    005801930000019300000520000003NN  NNW 000                       N    
RDG02645800WATRL000000004K00000000000002414008008212015112945N000000000000U20       000330400K 10000000010000002395           
CUS0264580000102406480000         SCAR DIANE E        20 COACHMONT CT                         000N        CARE OF             
MTR02645800001000000000000000RA              45386076    005801940000019400000520000003NN  NNW 000                       N    
RDG02645800WATRL000000004K00000000000001988008108212015113129N000000000000U20       001040400K 10000000010000001976           
CUS0264580000102406481008         FISHER DOUGLAS      22 COACHMONT CT                         000N        CARE OF             
MTR02645800001000000000000000RA              45386075    005801950000019500000520000003NN  NNW 000                       N    
RDG02645800WATRL000000004K00000000000002084008208212015113134N000000000000U20       000050400K 10000000010000002072           
CUS0264580000102406482006         BERNSTEIN SHERRY L  24 COACHMONT CT                         000N        CARE OF             
MTR02645800001000000000000000RA              35119201    005801960000019600000520000003NN  NNW 000                       N    
RDG02645800WATRL000000004K00000000000001810007908212015112912N000000000000U20       000140400K 10000000010000001801           
CUS0264580000102406483004         OTT BRIAN M         26 COACHMONT CT                         000N        CARE OF             
MTR02645800001000000000000000RA              41087535    005801970000019700000520000003NN  NNW 000                       N    
RDG02645800WATRL000000004K00000000000002596007808212015112858N000000000000U20       000380400K 10000000010000002566           
CUS0264580000102406484002         MAHESHWARI ANURAG   28 COACHMONT CT                         000N        CARE OF             
MTR02645800001000000000000000RA              45386079    005801980000019800000520000003NN  NNW 000                       N    
RDG02645800WATRL000000004K00000000000001802007708212015112820N000000000000U20       000060400K 10000000010000001785           
CUS0264580000102406485009         MAHESHWARI ANURAG   30 COACHMONT CT                         000N        CARE OF             
MTR02645800001000000000000000RA              45386074    005801990000019900000520000003NN  NNW 000                       N    
RDG02645800WATRL000000004K00000000000002706007608212015112814N000000000000U20       001150400K 10000000010000002690           
CUS0264580000102406492005         SURMAK ANDREW J     2 HOUNDSWOOD CT                         000N        CARE OF             
MTR02645800001000000000000000RA              44174941    005802000000020000000520000003NN  NNW 000                       N    
RDG02645800WATRL000000004K00000000000002501006508212015112219N000000000000U20       001690400K 10000000010000002481           
CUS0264580000102406491007         ROBERT ALAN HELMS   4 HOUNDSWOOD CT                         000N        CARE OF             
MTR02645800001000000000000000RA              30513710    005802010000020100000520000003NN  NNW 000                       N    
RDG02645800WATRL000000004K00000000000003714006608212015112324N000000000000U20       000650400K 10000000010000003688           
CUS0264580000102406490009         GORODE JOANNE W     6 HOUNDSWOOD CT                         000N        CARE OF             
MTR02645800001000000000000000RA              52286574    005802020000020200000520000003NN  NNW 000                       N    
RDG02645800WATRL000000004K00000000000000422006708212015112330N000000000020U20       000060400K 10000000010000000417           
CUS0264580000102406489001         EIGHT HOUNDSWOOD SUM8 HOUNDSWOOD CT                         000N        CARE OF             
MTR02645800001000000000000000RA              45386054    005802030000020300000520000003NN  NNW 000                       N    
RDG02645800WATRL000000004K00000000000001228006808212015112341N000400000010U20       000110400K 10000000010000001226           
CUS0264580000102406488003         GOGEL-CHADO DEBRA   10 HOUNDSWOOD CT                        000N        CARE OF             
MTR02645800001000000000000000RA              35117425    005802040000020400000520000003NN  NNW 000                       N    
RDG02645800WATRL000000004K00000000000002356006908212015112345N000000000000U20       000040400K 10000000010000002352           
CUS0264580000102406487005         BLOOM IRA T         12 HOUNDSWOOD CT                        000N        CARE OF             
MTR02645800001000000000000000RA              41259990    005802050000020500000520000003NN  NNW 000                       N    
RDG02645800WATRL000000004K00000000000002229007008212015112426N000000000000U20       000410400K 10000000010000002202           
CUS0264580000102406486007         DMITRI ARSENJEV     14 HOUNDSWOOD CT                        000N        CARE OF             
MTR02645800001000000000000000RA              32899993    005802060000020600000520000003NN  NNW 000                       N    
RDG02645800WATRL000000004K00000000000003089007108212015112540N000000000000U20       000740400K 10000000010000003074           
CUS0264580000102406496006         ROSENFELD MARK E    16 HOUNDSWOOD CT                        000N        CARE OF             
MTR02645800001000000000000000RA              39291785    005802070000020700000520000003NN  NNW 000                       N    
RDG02645800WATRL000000004K00000000000002896007208212015112548N000000000020U20       000080400K 10000000010000002870           
CUS0264580000102406495008         BROOKS VANESSA JAYNE18 HOUNDSWOOD CT                        000N        CARE OF             
MTR02645800001000000000000000RA              46876215    005802080000020800000520000003NN  NNW 000                       N    
RDG02645800WATRL000000004K00000000000001978007308212015112552N000000000000U20       000040400K 10000000010000001949           
CUS0264580000102406494001         ATTMAN PHYLLIS      20 HOUNDSWOOD CT                        000N        CARE OF             
MTR02645800001000000000000000RA              46876212    005802090000020900000520000003NN  NNW 000                       N    
RDG02645800WATRL000000004K00000000000001771007408212015112554N000000000000U20       000020400K 10000000010000001758           
CUS0264580000102406493003         SHWARTZ MARINA      22 HOUNDSWOOD CT                        000N        CARE OF             
MTR02645800001000000000000000RA              44176038    005802100000021000000520000003NN  NNW 000                       N    
RDG02645800WATRL000000004K00000000000002644007508212015112619N000000000000U20       000250400K 10000000010000002630           
CUS0264580000102408915003         MASON J BARISH      1 HURDLEFORD CT                         000N        CARE OF             
MTR02645800001000000000000000RA              35097327    005802110000021100000520000003NN  NNW 000                       N    
RDG02645800WATRL000000004K00000000000003115006408212015111930N000000000000U20       000100400K 10000000010000003099           
CUS0264580000102408916001         KRINSKY ROBERT BRUCE3 HURDLEFORD CT                         000N        CARE OF             
MTR02645800001000000000000000RA              45379663    005802120000021200000520000003NN  NNW 000                       N    
RDG02645800WATRL000000004K00000000000001302006308212015111920N000000000000U20       000040400K 10000000010000001284           
CUS0264580000102408917009         EDWARD R LEVY       5 HURDLEFORD CT                         000N        CARE OF             
MTR02645800001000000000000000RA              45379678    005802130000021300000520000003NN  NNW 000                       N    
RDG02645800WATRL000000004K00000000000002151006208212015111916N000000000000U20       000280400K 10000000010000002134           
CUS0264580000102408918007         JANG YOON YOUNG     7 HURDLEFORD CT                         000N        CARE OF             
MTR02645800001000000000000000RA              45379665    005802140000021400000520000003NN  NNW 000                       N    
RDG02645800WATRL000000004K00000000000002001006108212015111848N000000000000U20       000050400K 10000000010000001986           
CUS0264580000102408919005         BLANK LILLIAN LURIE 9 HURDLEFORD CT                         000N        CARE OF             
MTR02645800001000000000000000RA              45379661    005802150000021500000520000003NN  NNW 000                       N    
RDG02645800WATRL000000004K00000000000001822006008212015111843N000000000000U20       000400400K 10000000010000001805           
CUS0264580000102408920003         GITELMAN MIKHAIL    11 HURDLEFORD CT                        000N        CARE OF             
MTR02645800001000000000000000RA              38985032    005802160000021600000520000003NN  NNW 000                       N    
RDG02645800WATRL000000004K00000000000002519005808212015111754N000000000000U20       000290400K 10000000010000002504           
CUS0264580000102408921001         POWERS DIANE GOLUB  13 HURDLEFORD CT                        000N        CARE OF             
MTR02645800001000000000000000RA              14914547    005802170000021700000310000003NN  NNW 000                       N    
RDG02645800WATRL000000004K00000000000000211005908212015111803N000000000020U20       000090400K 10000000010000000210           
CUS0264580000102408922009         SKLAR ROBERT        15 HURDLEFORD CT                        000N        CARE OF             
MTR02645800001000000000000000RA              45379444    005802180000021800000520000003NN  NNW 000                       N    
RDG02645800WATRL000000004K00000000000002470005708212015111725N000000000000U20       000260400K 10000000010000002449           
CUS0264580000102408923007         MEEKYOUNG M YANG    2 HURDLEFORD CT                         000N        CARE OF             
MTR02645800001000000000000000RA              44179254    005802190000021900000520000003NN  NNW 000                       N    
RDG02645800WATRL000000004K00000000000003522004808212015111427N000000000000U20       001500400K 10000000010000003506           
CUS0264580000102408924005         ABOSCH JASON        4 HURDLEFORD CT                         000N        CARE OF             
MTR02645800001000000000000000RA              44179257    005802200000022000000520000003NN  NNW 000                       N    
RDG02645800WATRL000000004K00000000000000890004908212015111447N000000000000U20       000200400K 10000000010000000887           
CUS0264580000102408925002         WRIGHT FRANCES A    6 HURDLEFORD CT                         000N        CARE OF             
MTR02645800001000000000000000RA              45373627    005802210000022100000520000003NN  NNW 000                       N    
RDG02645800WATRL000000004K00000000000001131005008212015111503N000000000000U20       000160400K 10000000010000001111           
CUS0264580000102408926000         KING RODERICK A     8 HURDLEFORD CT                         000N        CARE OF             
MTR02645800001000000000000000RA              44179258    005802220000022200000520000003NN  NNW 000                       N    
RDG02645800WATRL000000004K00000000000001608005108212015111516N000000000000U20       000130400K 10000000010000001590           
CUS0264580000102408927008         SHACH LAURA I       10 HURDLEFORD CT                        000N        CARE OF             
MTR02645800001000000000000000RA              44179259    005802230000022300000520000003NN  NNW 000                       N    
RDG02645800WATRL000000004K00000000000001542005208212015111543N000000000000U20       000270400K 10000000010000001527           
CUS0264580000102408928006         HENCH DON STEVEN    12 HURDLEFORD CT                        000N        CARE OF             
MTR02645800001000000000000000RA              44179256    005802240000022400000520000003NN  NNW 000                       N    
RDG02645800WATRL000000004K00000000000001014005308212015111554N000000000000U20       000110400K 10000000010000001010           
CUS0264580000102408929004         PIEL HUNTER         14 HURDLEFORD CT                        000N        CARE OF             
MTR02645800001000000000000000RA              44179255    005802250000022500000520000003NN  NNW 000                       N    
RDG02645800WATRL000000004K00000000000002556005408212015111621N000000000000U20       000270400K 10000000010000002545           
CUS0264580000102408930002         LOBE MINDY          16 HURDLEFORD CT                        000N        CARE OF             
MTR02645800001000000000000000RA              44179226    005802260000022600000520000003NN  NNW 000                       N    
RDG02645800WATRL000000004K00000000000001812005508212015111643N000000000000U20       000220400K 10000000010000001806           
CUS0264580000102408931000         SULTAN ELIZABETH A,T18 HURDLEFORD CT                        000N        CARE OF             
MTR02645800001000000000000000RA              44179228    005802270000022700000520000003NN  NNW 000                       N    
RDG02645800WATRL000000004K00000000000001700005608212015111659N000000000000U20       000160400K 10000000010000001685           
RTR02645800NN02270227000002270000000002270227000252NY022702270227000200000000000000000000000001    08052015NY020000 N         
RHD02659000NN03330333000003330000000003330333000154NY033303330333000300000000000000000000000001    08172015NY020000 N         
CUS0265900000102056670009         ANNIS ERIK C        427 DUNKIRK RD                          000N        CARE OF             
MTR02659000001000000000000000RA              50787263    005800010000000100000520000003NN  NNW 000                       N    
RDG02659000WATRL000000004K00000000000001924000208242015064302N000000000000N23       000170400K 10000000010000001910           
CUS0265900000102056671007         HOWARD LEA ANN      425 DUNKIRK RD                          000N        CARE OF             
MTR02659000001000000000000000RA              50787260    005800020000000200000520000003NN  NNW 000                       N    
RDG02659000WATRL000000004K00000000000001652000108242015064245N000000000000N23       000000400K 10000000010000001637           
CUS0265900000102056672005         KOMOSA JOHN M       423 DUNKIRK RD                          000N        CARE OF             
MTR02659000001000000000000000RA              39923340    005800030000000300000520000003NN  NNW 000                       N    
RDG02659000WATRL000000004K00000000000002266000308242015064353N000000000000N23       000510400K 10000000010000002246           
CUS0265900000102056673003         KESSLER GEORGE E    421 DUNKIRK RD                          000N        CARE OF             
MTR02659000001000000000000000RA              39923333    005800040000000400000520000003NN  NNW 000                       N    
RDG02659000WATRL000000004K00000000000001892000408242015064356N000000000000N23       000030400K 10000000010000001883           
CUS0265900000102056674001         OTTEY JEAN B        419 DUNKIRK RD                          000N        CARE OF             
MTR02659000001000000000000000RA              27833344    005800050000000500000520000003NN  NNW 000                       N    
RDG02659000WATRL000000004K00000000000003013000508242015064449N000400000010N23       000530400K 10000000010000003007           
CUS0265900000102056675008         TILLMAN BRYAN M     417 DUNKIRK RD                          000N        CARE OF             
MTR02659000001000000000000000RA              35102281    005800060000000600000520000003NN  NNW 000                       N    
RDG02659000WATRL000000004K00000000000002469000608242015064455N000000000000N23       000060400K 10000000010000002454           
CUS0265900000102056676006         RYAN JAMES          415 DUNKIRK RD                          000N        CARE OF             
MTR02659000001000000000000000RA              40047421    005800070000000700000520000003NN  NNW 000                       N    
RDG02659000WATRL000000004K00000000000002169000708242015064549N000000000000N23       000540400K 10000000010000002155           
CUS0265900000102056677004         HODGES EDWARD T     413 DUNKIRK RD                          000N        CARE OF             
MTR02659000001000000000000000RA              40047286    005800080000000800000520000003NN  NNW 000                       N    
RDG02659000WATRL000000004K00000000000002524000808242015064557N000000000000N23       000080400K 10000000010000002514           
CUS0265900000102056678002         MAY-SACHS LISA      411 DUNKIRK RD                          000N        CARE OF             
MTR02659000001000000000000000RA              48591918    005800090000000900000520000003NN  NNW 000                       N    
RDG02659000WATRL000000004K00000000000002059000908242015064636N000000000010N23       000390400K 10000000010000002043           
CUS0265900000102056679000         HERMAN BRUCE JASCHIK409 DUNKIRK RD                          000N        CARE OF             
MTR02659000001000000000000000RA              33080172    005800100000001000000520000003NN  NNW 000                       N    
RDG02659000WATRL000000004K00000000000003996001008242015064646N000000000000N23       000100400K 10000000010000003979           
CUS0265900000102056680008         CARTER JASON A      407 DUNKIRK RD                          000N        CARE OF             
MTR02659000001000000000000000RA              40047420    005800110000001100000520000003NN  NNW 000                       N    
RDG02659000WATRL000000004K00000000000002084001108242015064726N000000000000N23       000400400K 10000000010000002044           
CUS0265900000102056681006         SEGALL BARBARA C    405 DUNKIRK RD                          000N        CARE OF             
MTR02659000001000000000000000RA              48583197    005800120000001200000520000003NN  NNW 000                       N    
RDG02659000WATRL000000004K00000000000000903001208242015064732N000000000000N23       000060400K 10000000010000000901           
CUS0265900000102056682004         WALDRON MICHAEL S   403 DUNKIRK RD                          000N        CARE OF             
MTR02659000001000000000000000RA              01081507    005800130000001300000610000003NN  NNW 000                       N    
RDG02659000WATRL000000004K00000000000001117001308242015064802N000000000000N23       000300400K 10000000010000001102           
CUS0265900000102056683002         GASKINS RANDAL L    401 DUNKIRK RD                          000N        CARE OF             
MTR02659000001000000000000000RA              00133050    005800140000001400000570000003NN  NNW 000                       N    
RDG02659000WATRL000000004K00000000000001159001408242015064829N000000000011N23       000130400K 10000000010000001148           
CUS0265900000102056684000         FORE THOMAS B       331 DUNKIRK RD                          000N        CARE OF             
MTR02659000001000000000000000RA              44002733    005800150000001500000520000003NN  NNW 000                       N    
RDG02659000WATRL000000004K00000000000005701001508242015064946N000400000010N23       000770400K 10000000010000005700           
CUS0265900000102056685007         JUNKER LISA K       329 DUNKIRK RD                          000N        CARE OF             
MTR02659000001000000000000000RA              44002689    005800160000001600000520000003NN  NNW 000                       N    
RDG02659000WATRL000000004K00000000000002353001608242015064949N000000000000N23       000030400K 10000000010000002340           
CUS0265900000102056686005         DOUCE DENISE        327 DUNKIRK RD                          000N        CARE OF             
MTR02659000001000000000000000RA              27825355    005800170000001700000520000003NN  NNW 000                       N    
RDG02659000WATRL000000004K00000000000003906001708242015065058N000000000000N23       000690400K 10000000010000003886           
CUS0265900000102056687003         TRIVAS MITCHELL P   325 DUNKIRK RD                          000N        CARE OF             
MTR02659000001000000000000000RA              27825354    005800180000001800000520000003NN  NNW 000                       N    
RDG02659000WATRL000000004K00000000000002637001808242015065102N000000000000N23       000040400K 10000000010000002620           
CUS0265900000102056688001         WITTENBERG GEORGE   323 DUNKIRK RD                          000N        CARE OF             
MTR02659000001000000000000000RA              27820243    005800190000001900000520000003NN  NNW 000                       N    
RDG02659000WATRL000000004K00000000000002506001908242015065223N000000000000N23       000810400K 10000000010000002482           
CUS0265900000102056689009         ROCCO CONIGLIO-COMMI321 DUNKIRK RD                          000N        CARE OF             
MTR02659000001000000000000000RA              29685744    005800200000002000000520000003NN  NNW 000                       N    
RDG02659000WATRL000000004K00000000000004171002008242015065351N000000000000N23       000880400K 10000000010000004162           
CUS0265900000102056690007         SIMPSON JOHN S      319 DUNKIRK RD                          000N        CARE OF             
MTR02659000001000000000000000RA              29686749    005800210000002100000520000003NN  NNW 000                       N    
RDG02659000WATRL000000004K00000000000002607002108242015065422N000000000000N23       000310400K 10000000010000002596           
CUS0265900000102056691005         SHAWN MARSHALL      317 DUNKIRK RD                          000N        CARE OF             
MTR02659000001000000000000000RA              45373344    005800220000002200000520000003NN  NNW 000                       N    
RDG02659000WATRL000000004K00000000000001293002208242015065455N000000000000N23       000330400K 10000000010000001279           
CUS0265900000102056692003         HUTCHINS C RAYMOND  315 DUNKIRK RD                          000N        CARE OF             
MTR02659000001000000000000000RA              27133273    005800230000002300000520000003NN  NNW 000                       N    
RDG02659000WATRL000000004K00000000000001502002308242015065502N000000000010N23       000070400K 10000000010000001501           
CUS0265900000102056693001         RUTZ STEPHEN F,JR   313 DUNKIRK RD                          000N        CARE OF             
MTR02659000001000000000000000RA              14900410    005800240000002400000310000003NN  NNW 000                       N    
RDG02659000WATRL000000004K00000000000000771002408242015065612N000000000000N23       000700400K 10000000010000000756           
CUS0265900000102056694009         HEALY JULIE         311 DUNKIRK RD                          000N        CARE OF             
MTR02659000001000000000000000RA              14900411    005800250000002500000310000003NN  NNW 000                       N    
RDG02659000WATRL000000004K00000000000001182002508242015065614N000000000000N23       000020400K 10000000010000001136           
CUS0265900000102056695006         ANZALONE JAMES B    309 DUNKIRK RD                          000N        CARE OF             
MTR02659000001000000000000000RA              45376124    005800260000002600000520000003NN  NNW 000                       N    
RDG02659000WATRL000000004K00000000000003543002608242015065654N000000000000N23       000400400K 10000000010000003523           
CUS0265900000102056696004         NEISSER JASON A     307 DUNKIRK RD                          000N        CARE OF             
MTR02659000001000000000000000RA              10016882    005800270000002700000570000003NN  NNW 000                       N    
RDG02659000WATRL000000004K00000000000000285002708242015065702N000000000000N23       000080400K 10000000010000000269           
CUS0265900000102056697002         MORTON WILLIAM W,4TH305 DUNKIRK RD                          000N        CARE OF             
MTR02659000001000000000000000RA              14901405    005800280000002800000310000003NN  NNW 000                       N    
RDG02659000WATRL000000004K00000000000000732002808242015065735N000000000000N23       000330400K 10000000010000000714           
CUS0265900000102056698000         BURRELL MARK R      303 DUNKIRK RD                          000N        CARE OF             
MTR02659000001000000000000000RA              14901406    005800290000002900000310000003NN  NNW 000                       N    
RDG02659000WATRL000000004K00000000000000650002908242015065750N000300000011N23       000150400K 10000000010000000679           
CUS0265900000102056699008         OHNMACHT JOHN       301 DUNKIRK RD                          000N        CARE OF             
MTR02659000001000000000000000RA              45373343    005800300000003000000520000003NN  NNW 000                       N    
RDG02659000WATRL000000004K00000000000002256003008242015065826N000000000000N23       000360400K 10000000010000002230           
CUS0265900000102056700004         HAZLETT ANDREW WILSO231 DUNKIRK RD                          000N        CARE OF             
MTR02659000001000000000000000RA              32176272    005800310000003100000520000003NN  NNW 000                       N    
RDG02659000WATRL000000004K00000000000001641003108242015065911N000400000010N23       000450400K 10000000010000001631           
CUS0265900000102056701002         MEDAIRY BERNARD JOHN229 DUNKIRK RD                          000N        CARE OF             
MTR02659000001000000000000000RA              40047453    005800320000003200000520000003NN  NNW 000                       N    
RDG02659000WATRL000000004K00000000000002546003208242015070002N000400000020N23       000510400K 10000000010000002538           
CUS0265900000102056702000         FRANZEN RACHEL E    227 DUNKIRK RD                          000N        CARE OF             
MTR02659000001000000000000000RA              48593285    005800330000003300000520000003NN  NNW 000                       N    
RDG02659000WATRL000000004K00000000000001455003308242015070005N000000000000N23       000030400K 10000000010000001445           
CUS0265900000102056703008         LACHER DANIEL J     225 DUNKIRK RD                          000N        CARE OF             
MTR02659000001000000000000000RA              39584059    005800340000003400000520000003NN  NNW 000                       N    
RDG02659000WATRL000000004K00000000000001276003408242015070034N000000000000N23       000290400K 10000000010000001255           
