FHDNNNN032005303005303005481N                                                                                           016293
RHD09920200NN01160116000001160000000000800080000030NY008000800116001000060000000000000000000001    08102015NY020000 N         
CUS0992020000109091842006         MARYLAND            2701 EASTERN BLVD                       000N        CARE OF             
MTR09920200002000000000000000RA              1929564     000800010000000100000630000003NN  NNW 000                       N    
RDG09920200WATAL000000006K00000000000000752000108282015122949N000100000010N91       000000600K 10000000010000000752           
RDG09920200WATBL000000006K00000000000014803000208282015122956N000400000010N91       000070600K 10000000010000014609           
CUS0992020000109357841007         ST OF MD MILITARY DE2701 EASTERN BLVD                       000N        CARE OF             
MTR09920200002000000000000000RA              6030942     001000020000000200000480000003NY  NNW 000                       N    
MTM099202006030942     NO ACCESS                                                                                              
RDG09920200WATAL000000007K00000000000000000000000000000000000 000000000000U         000000700  10000000010000000010           
RDG09920200WATBL000000007K00000000000000000000000000000000000 000000000000U         000000700  10000000010000020561           
CUS0992020000109454406001         STATE OF MD MILITARY2701 EASTERN BLVD                       000N        CARE OF             
MTR09920200001000000000000000RA              13802081    000800030000000300000480000003NY  NNW 000                       N    
MTM0992020013802081    TWO DIALS 000178               04974                                                                   
RDG09920200WATRL000000006K00000000000004974000308282015123050N000300000010N91       000540600K 10000000010000000762           
CUS0992020000109091844002         STATE AVIATION ADM  SWC EASTERN BLVD &                      000N        CARE OF             
MTR09920200002000000000000000RA              2030967     000800040000000400000390000003NN  NNW 000   FIRE SERVICE        N    
RDG09920200WATAL000000006K00000000000000000000408282015123055S002000000000N91       000050600K 10000000010000000012           
RDG09920200WATBL000000006K00000000000000000000508282015123102S002000000000N91       000070600K 10000000010000000519           
CUS0992020000109091843004         STATE AVIATION ADM  SWC EASTERN BLVD &                      000N        CARE OF             
MTR09920200001000000000000000RA              32898234    005800050000000500000520000003NN  NNW 000   FERRULE APPLIED     N    
RDG09920200WATRL000000004K00000000000000000000608282015123104S002000000000N91       000020400K 10000000010000001482           
CUS0992020000109091845009         DELTA ASSOCIATES LLP10 EMALA AVE                            000N        CARE OF             
MTR09920200002000000000000000RA              5417364     000600060000000600000480000003NN  NNW 000   FIRE SERVICE        N    
RDG09920200WATAL000000006K00000000000000000000708282015123110N000000000000N91       000060600K 10000000010000000000           
RDG09920200WATBL000000006K00000000000000000000808282015123114N000100000010N91       000040600K 10000000010000000000           
CUS0992020000109091846007         DELTA ASSOCIATES LLP10 EMALA AVE                            000N        CARE OF             
MTR09920200001000000000000000RA              35113565    007500070000000700000520000003NN  NNW 000                       N    
RDG09920200WATRL000000004K00000000000003632000908282015123122N000400000010N91       000080400K 10000000010000003623           
CUS0992020000109406217001         GOLDEN RING YACHT BA595 EDWARDS LN                          000N        CARE OF             
MTR09920200002000000000000000RA              7163019     000600080000000800000630000003NY  NNW 000                       N    
MTM099202007163019     OK                                                                                                     
RDG09920200WATAL000000006K00000000000000000001008282015123139N000100000010N91       000170600K 10000000010000000000           
RDG09920200WATBL000000006K00000000000011283001108282015123149N000300000010N91       000100600K 10000000010000012516           
CUS0992020000109091849001         CARROLL ISLAND ASSOCWS BOWLEYS QTRS RD                      000N        CARE OF             
MTR09920200001000000000000000RA              1178037     000200090000000900000490000003NN  NNW 000                       N    
RDG09920200WATRL000000005K00000000000050965001208282015123240N000000000000N91       000510500K 10000000010000050338           
CUS0992020000109091848003         CARROLL ISLAND ASSOCWS BOWLEYS QTRS RD                      000N        CARE OF             
MTR09920200003000000000000000RA              5417377     000800100000001000000480000003NN  NNW 000   FIRE SERVICE        N    
RDG09920200WATAL000000006K00000000000000072001308282015123244N000000000000N91       000040600K 10000000010000000072           
RDG09920200WATBL000000006K00000000000000854001408282015123252N000400000010N91       000080600K 10000000010000000779           
RDG09920200WATCL000000006K00000000000000277001508282015123256N000300000010N91       000040600K 10000000010000000279           
CUS0992020000109414372004         BOWLEYS QUARTERS CON1700 BOWLEYS QTRS RD                    000N        CARE OF             
MTR09920200001000000000000000RA              35116837    000200110000001100000520000003NN  NNW 000                       N    
RDG09920200WATRL000000005K00000000000022073001608282015123300N000000000000N91       000040500K 10000000010000021702           
CUS0992020000109091851007         STND SENECA BAY BALTWS CARROLLWOOD RD 430FT                 000N        CARE OF             
MTR09920200002000000000000000RA              4913830     000600120000001200000540000003NN  NNW 000                       N    
RDG09920200WATAL000000006K00000000000000000001708282015123305N000100000010N91       000050600K 10000000010000000000           
RDG09920200WATBL000000006K00000000000052311001808282015123315N000400000010N91       000100600K 10000000010000049003           
CUS0992020000109385420006         BALTO CO PUBLIC SCHO545 CARROLLWOOD RD                      000N        CARE OF             
MTR09920200001000000000000000RA              77859851    000300130000001300000000000003NN  NNW 000                       N    
RDG09920200WATRL000000005K00000000000001021001908282015123318N000000000000N91       000030500K 10000000010000000797           
CUS0992020000109385419008         BOARD OF ED OF BALTO545 CARROLLWOOD RD                      000N        CARE OF             
MTR09920200001000000000000000RA              E21183      000600140000001400000430000003NN  NNW 000   FIRE SERVICE        N    
RDG09920200WATRL000000006K00000000000000015002008282015123325N000000000000N91       000070600K 10000000010000000015           
CUS0992020000109091850009         STND SENECA BAY BALT514 CARROLLWOOD RD                      000N        CARE OF             
MTR09920200001000000000000000RA              77897280    000300150000001500000640000003NN  NNW 000                       N    
RDG09920200WATRL000000005K00000000000009003002108282015123452N000000000000N91       000870500K 10000000010000006606           
CUS0992020000109091853003         CONSTELLATION POWER SEC CARROLL ISLAND RD &                 000N        CARE OF             
MTR09920200002000000000000000RA              3865052     000600160000001600000540000003NN  NNW 000                       N    
RDG09920200WATAL000000006K00000000000008517002208282015123459N000100000010N91       000070600K 10000000010000008517           
RDG09920200WATBL000000006K00000000000038505002308282015123509N000400000010N91       000100600K 10000000010000018519           
CUS0992020000109091854001         BALTIMORE COUNTY MD NS CARROLL ISLAND RD                    000N        CARE OF             
MTR09920200001000000000000000RA              46889624    007500170000001700000520000003NN  NNW 000                       N    
RDG09920200WATRL000000004K00000000000007554002408282015123524N000000000000N91       000150400K 10000000010000007554           
CUS0992020000109439382004         CGS DEV LLC         105 CARROLL ISLAND RD                   000N        CARE OF             
MTR09920200001000000000000000RA              14921049    001500180000001800000310000000NN  NNW 000                       N    
RDG09920200WATRL000000005K00000000000002254002508282015123531N000300000010N91       000070500K 10000000010000001967           
CUS0992020000109433939007         WAL-MART 3481       112 CARROLL ISLAND RD                   000N        CARE OF             
MTR09920200002000000000000000RA              70048562    001000190000001900000560000003NN  NNW 000                       N    
RDG09920200WATAL000000007K00000000000000178000108292015123610N000100000010U91       000000700K 10000000010000000178           
RDG09920200WATBL000000007K00000000000004977000208292015123625N000400000010U91       000150700K 10000000010000004748           
CUS0992020000109352222005         RICARDO RAMTAHAL    400 KOSOAK RD                           000N        CARE OF             
MTR09920200002000000000000000RA              6029509     000800200000002000000540000003NN  NNW 000                       N    
RDG09920200WATAL000000006K00000000000000025002608282015123538N000400000010N91       000070600K 10000000010000000018           
RDG09920200WATBL000000006K00000000000098023002708282015123545N000400000010N91       000070600K 10000000010000093581           
CUS0992020000109091855008         CARROLL PARK HOLDINGNS CARROLL ISLAND RD                    000N        CARE OF             
MTR09920200002000000000000000RA              5417359     000600210000002100000540000003NN  NNW 000                       N    
RDG09920200WATAL000000006K00000000000000050000308292015123803N000100000010U91       000980600K 10000000010000000050           
RDG09920200WATBL000000006K00000000000045057000408292015123813N000400000010U91       000100600K 10000000010000043827           
CUS0992020000109442309002         SERENDIPITY CREEK LL519 SCHMIDT RD                          000N        CARE OF             
MTR09920200002000000000000000RA              0200750     000600220000002200000630000000NY  NNW 000                       N    
MTM099202000200750     NO ACCESS                                                                                              
RDG09920200WATAL000000006K00000000000000000000000000000000000 000000000000U         000000600  10000000010000000205           
RDG09920200WATBL000000006K00000000000000000000000000000000000 000000000000U         000000600  10000000010000000363           
CUS0992020000109091856006         BALTIMORE COUNTY, MAES EASTERN AV 100 FT                    000N        CARE OF             
MTR09920200001000000000000000RA              36700274    001500230000002300000520000003NN  NNW 000                       N    
RDG09920200WATRL000000005K00000000000001974000508292015123901N000400000010U91       000480500K 10000000010000001973           
CUS0992020000109438282007         11650 EASTERN AVE LL11650 EASTERN AVE                       000N        CARE OF             
MTR09920200001000000000000000RA              00120470    007500240000002400000570000000NN  NNW 000                       N    
RDG09920200WATRL000000004K00000000000000486000608292015123906N000000000000U91       000050400K 10000000010000000478           
CUS0992020000109432281005         BOARD OF EDUCATION  11701 EASTERN AVE                       000N        CARE OF             
MTR09920200001000000000000000RA              77859837    000300250000002500000440000003NY  NNW 000                       N    
MTM0992020077859837    NO HOLES                                                                                               
RDG09920200WATRL000000005K00000000000000000000000000000000000 000000000000U         000000500  10000000010000051534           
CUS0992020000109432282003         BOARD OF EDUCATION  11701 EASTERN AVE                       000N        CARE OF             
MTR09920200001000000000000000RA              99999999    000600260000002600000440000003NY  NNW 000   FIRE SERVICE        N    
MTM0992020099999999    NO HOLES                                                                                               
RDG09920200WATRL000000006K00000000000000000000000000000000000 000000000000U         000000600  10000000010000000000           
CUS0992020000109432358001         BALTIMORE COUNTY MAR11723 EASTERN AVE                       000N        CARE OF             
MTR09920200002000000000000000RA              0109485     000800270000002700000630000000NN  NNW 000                       N    
RDG09920200WATAL000000006K00000000000000001000708292015124028N000100000010U91       000820600K 10000000010000000001           
RDG09920200WATBL000000006K00000000000000843000808292015124036N000400000010U91       000080600K 10000000010000000778           
CUS0992020000109091858002         DUNDEE I LIMITED PARSS EASTERN AV 1540 FT                   000N        CARE OF             
MTR09920200002000000000000000RA              3133416     001000280000002800000540000003NN  NNW 000                       N    
RDG09920200WATAL000000007K00000000000000001000908292015124043N000100000010U91       000070700K 10000000010000000001           
RDG09920200WATBL000000007K00000000000169968001008292015124055N000400000010U91       000120700K 10000000010000162051           
CUS0992020000109433605004         LODGE FOREST LLLP   7523 CLEAR LAKE LN                      000N        CARE OF             
MTR09920200002000000000000000RA              0203192     000800290000002900000630000003NN  NNW 000                       N    
RDG09920200WATAL000000006K00000000000000029001108292015124143N000400000010U91       000480600K 10000000010000000028           
RDG09920200WATBL000000006K00000000000009589001208292015124153N000400000010U91       000100600K 10000000010000005124           
CUS0992020000109427765004         BALTIMORE COUNTY MAR7130 MARSHY POINT RD                    000N        CARE OF             
MTR09920200002000000000000000RA              70052692    000800300000003000000560000003NN  NNW 000                       N    
RDG09920200WATAL000000006K00000000000026036001308292015124223N000300000010U91       000300600K 10000000010000026038           
RDG09920200WATBL000000006K00000000000003756001408292015124239N000400000010U91       000160600K 10000000010000003721           
CUS0992020000109091859000         MD DEPT OF NATURAL R7200 GRACES QUARTERS RD                 000N        CARE OF             
MTR09920200002000000000000000RA              5124967     000600310000003100000630000003NN  NNW 000                       N    
RDG09920200WATAL000000006K00000000000000000001508292015124504N000100000010U91       001450600K 10000000010000000000           
RDG09920200WATBL000000006K00000000000031061001608292015124511N000400000010U91       000070600K 10000000010000029714           
CUS0992020000109414956004         MD DEPT OF NATURAL R7200 GRACES QUARTERS RD                 000N        CARE OF             
MTR09920200002000000000000000RA              6047502     000800320000003200000630000003NN  NNW 000                       N    
RDG09920200WATAL000000006K00000000000000001001708292015124534N000100000010U91       000230600K 10000000010000000001           
RDG09920200WATBL000000006K00000000000001426001808292015124541N000400000010U91       000070600K 10000000010000001347           
CUS0992020000109358041003         BALTO CO PUBLIC SCHO12912 CUNNINGHILL COVE RD               000N        CARE OF             
MTR09920200001000000000000000RA              01116862    000200330000003300000610000003NN  NNW 000                       N    
RDG09920200WATRL000000005K00000000000003853001908292015124558N000000000000U91       000170500K 10000000010000003694           
CUS0992020000109358040005         BOARD OF ED BALTO CO12912 CUNNINGHILL COVE RD               000N        CARE OF             
MTR09920200001000000000000000RA              E13529      000600340000003400000430000003NN  NNW 000   FIRE SERVICE        N    
RDG09920200WATRL000000006K00000000000000000002008292015124601N000000000000U91       000030600K 10000000010000000000           
CUS0992020000109386622006         MHC OPERATING L.P   3702-A EASTERN AVE                      000N        CARE OF             
MTR09920200003000000000000000RA              7121237     000800350000003500000630000003NY  NNW 000                       N    
MTM099202007121237     OK                                                                                                     
RDG09920200WATAL000000006K00000000000000001002108292015124735N000300000021U91       000340600K 10000000010000000015           
RDG09920200WATBL000000006K00000000000000015002208292015124741N000300000021U91       000060600K 10000000010000002198           
RDG09920200WATCL000000000K00000000000005982002308292015124800N000400000010U91       000191000K 10000000010000000000           
CUS0992020000109443802005         TWO FARMS INC       3320 EASTERN AVE                        000N        CARE OF             
MTR09920200001000000000000000RA              01117277    000200360000003600000610000000NY  NNW 000                       N    
MTM0992020001117277    OK                                                                                                     
RDG09920200WATRL000000005K00000000000000019002408292015124808N000000000000U91       000080500K 10000000010000000019           
CUS0992020000109441861003         SAHOPOPATH MARYLAND 1200 BENGIES RD                         000N        CARE OF             
MTR09920200002000000000000000RA              0609863     001200370000003700000390000000NN  NNW 000                       N    
RDG09920200WATAL000000007K00000000000000241002808282015123611N000100000010N91       000260700K 10000000010000000241           
RDG09920200WATBL000000000K00000000000001034002908282015123620N000400000010N91       000091000K 10000000010000000996           
CUS0992020000109441863009         FIRST INDUSTRIAL LP 1225 BENGIES RD                         000N        CARE OF             
MTR09920200002000000000000000RA              0702494     001000380000003800000390000000NN  NNW 000                       N    
RDG09920200WATAL000000007K00000000000000290003008282015123629N000400000010N91       000090700K 10000000010000000274           
RDG09920200WATBL000000007K00000000000002731003108282015123637N000400000010N91       000080700K 10000000010000002657           
CUS0992020000109091862004         MHC OPERATING L.P   ES BENGIES RD 1180 FT                   000N        CARE OF             
MTR09920200002000000000000000RA              5124990     000800390000003900000540000003NN  NNW 000                       N    
RDG09920200WATAL000000006K00000000000000078002508292015124906N000400000010U91       000580600K 10000000010000000071           
RDG09920200WATBL000000006K00000000000132396002608292015124921N000400000010U91       000150600K 10000000010000127930           
CUS0992020000109399399006         MHC OPERATING L.P   2 RASPBERRY CT                          000N        CARE OF             
MTR09920200002000000000000000RA              7233183     000800400000004000000540000003NN  NNW 000                       N    
RDG09920200WATAL000000006K00000000000001774002708292015125002N000000000000U91       000410600K 10000000010000000004           
RDG09920200WATBL000000006K00000000000002217002808292015125025N000300000010U91       000230600K 10000000010000018352           
CUS0992020000109410237003         MHC OPERATING L.P   3100 EASTERN BLVD                       000N        CARE OF             
MTR09920200002000000000000000RA              4022760     000800410000004100000630000003NN  NNW 000                       N    
RDG09920200WATAL000000006K00000000000000006002908292015125036N000400000010U91       000110600K 10000000010000000002           
RDG09920200WATBL000000006K00000000000007023003008292015125044N000400000010U91       000080600K 10000000010000005732           
CUS0992020000109091864000         WASKEY MILLS LLC    3026 EASTERN BLVD                       000N        CARE OF             
MTR09920200001000000000000000RA              30478222    000200420000004200000520000003NN  NNW 000                       N    
RDG09920200WATRL000000005K00000000000010735003208282015123648N000000000000N91       000110500K 10000000010000010709           
CUS0992020000109406870007         CTC ASSOCIATES LLC  2700 EASTERN BLVD                       000N        CARE OF             
MTR09920200002000000000000000RA              9103210     000800430000004300000630000003NY  NNW 000   FIRE SERVICE        N    
MTM099202009103210     NO ACCESS                                                                                              
RDG09920200WATAL000000006K00000000000000000000000000000000000 000000000000U         000000600  10000000010000000001           
RDG09920200WATBL000000006K00000000000000000000000000000000000 000000000000U         000000600  10000000010000000000           
CUS0992020000109406872003         CTC ASSOCIATES LLC  2700 EASTERN BLVD                       000N        CARE OF             
MTR09920200001000000000000000RA              41193063    007500440000004400000520000003NY  NNW 000                       N    
MTM0992020041193063    NO ACCESS                                                                                              
RDG09920200WATRL000000004K00000000000000000000000000000000000 000000000000U         000000400  10000000010000001122           
CUS0992020000109450422002         BC AREA 6 LOT LLC   11501 POCOMOKE CT                       000N        CARE OF             
MTR09920200001000000000000000RA              11807196    001000450000004500000390000003NN  NNW 000                       N    
RDG09920200WATRL000000007K00000000000000389003308282015123703N000000000000N91       000150700K 10000000010000000275           
CUS0992020000109446086002         STATE OF MARYLAND   2700 EASTERN BLVD                       000N        CARE OF             
MTR09920200002000000000000000RA              10802552    001000460000004600000390000000NN  NNW 000                       N    
RDG09920200WATAL000000007K00000000000000014003408292015125155N000100000010U91       000710700K 10000000010000000014           
RDG09920200WATBL000000000K00000000000000594003208292015125208N000400000010U91       000131000K 10000000010000000545           
CUS0992020000109442692001         BC AREA 8 LOT 1 LLC 1401-09 TANGIER DR                      000N        CARE OF             
MTR09920200001000000000000000RA              0710253     001000470000004700000390000003NY  NNW 000                       N    
MTM099202000710253     TWO DIALS 000209              008879                                                                   
RDG09920200WATRL000000007K00000000000008879003508282015123754N000000000000N91       000420700K 10000000010000008626           
CUS0992020000109442865003         BC AREA 2 LOT 15B LL720 CONCOURSE CI                        000N        CARE OF             
MTR09920200002000000000000000RA              0703369     000800480000004800000390000003NN  NNW 000                       N    
RDG09920200WATAL000000006K00000000000000010003608282015123802N000100000010N91       000080600K 10000000010000000010           
RDG09920200WATBL000000006K00000000000012051003708282015123809N000400000010N91       000070600K 10000000010000011108           
CUS0992020000109441198000         BC AREA 2 LOT 5 LLC 415 WILLIAMS CT                         000N        CARE OF             
MTR09920200002000000000000000RA              0603287     000800490000004900000630000003NN  NNW 000                       N    
RDG09920200WATAL000000006K00000000000000042003808282015123824N000100000010N91       000150600K 10000000010000000042           
RDG09920200WATBL000000006K00000000000019391003908282015123831N000400000010N91       000070600K 10000000010000017293           
CUS0992020000109445250005         BC AREA 2 LOT 3 LLC 445 WILLIAMS CT                         000N        CARE OF             
MTR09920200002000000000000000RA              0811041     000800500000005000000630000003NN  NNW 000                       N    
RDG09920200WATAL000000006K00000000000000000004008282015123834N000000000000N91       000030600K 10000000010000000000           
RDG09920200WATBL000000006K00000000000000002004108282015123838N000400000010N91       000040600K 10000000010000000001           
CUS0992020000109444478003         BC AREA 2 LOT 3 LLC 460 WILLIAMS CT                         000N        CARE OF             
MTR09920200001000000000000000RA              99999999    000800510000005100000440000000NN  NNW 000   FERRULE APPLIED     N    
RDG09920200WATRL000000006K00000000000000000004208282015123842S002000000000N91       000040600K 10000000010000000000           
CUS0992020000109091865007         MIDDLE RIVER STATION2800 EASTERN BLVD                       000N        CARE OF             
MTR09920200002000000000000000RA              1878385     001000520000005200000540000003NN  NNW 000                       N    
RDG09920200WATAL000000007K00000000000027720003308292015125232N000400000010U91       000240700K 10000000010000027685           
RDG09920200WATBL000000007K00000000000064250003408292015125241N000400000010U91       000090700K 10000000010000063941           
CUS0992020000109091866005         LMC PROPERTIES INC  EASTERN AV &                            000N        CARE OF             
MTR09920200002000000000000000RA              5895160     001000530000005300000540000003NY  NNW 000                       N    
MTM099202005895160     ERT                                                                                                    
RDG09920200WATAL000000007K00000000000000000003508292015125249N000300000010U91       000080700K 10000000010000000030           
RDG09920200WATBL000000007K00000000000000000000000000000000000 000000000000U         000000700  10000000010000159995           
CUS0992020000109091868001         RICHARDSON WILEY T  19 HARRISON AVE                         000N        CARE OF             
MTR09920200001000000000000000RA              52292946    007500540000005400000520000003NN  NNW 000                       N    
RDG09920200WATRL000000004K00000000000005649004308282015123851N000000000000N91       000090400K 10000000010000005588           
CUS0992020000109091867003         RICHARDSON WILEY T  19 HARRISON AVE                         000N        CARE OF             
MTR09920200001000000000000000RA              4247156     000400550000005500000410000003NN  NNW 000   FIRE SERVICE        N    
RDG09920200WATRL000000006K00000000000000000004408282015123854N000000000000N91       000030600K 10000000010000000000           
CUS0992020000109091871005         HAWTHORNE INC       2109 EASTERN BLVD                       000N        CARE OF             
MTR09920200001000000000000000RA              1178417     001500560000005600000490000003NN  NNW 000                       N    
RDG09920200WATRL000000005K00000000000055573004508282015123857N000000000000N91       000030500K 10000000010000053533           
CUS0992020000109360202007         HAWTHORNE INC       40 KINGSTON RD                          000N        CARE OF             
MTR09920200001000000000000000RA              30509409    001500570000005700000520000003NN  NNW 000                       N    
RDG09920200WATRL000000005K00000000000001040004608282015123901N000000000000N91       000040500K 10000000010000001033           
CUS0992020000109360201009         HAWTHORNE INC       40 KINGSTON RD                          000N        CARE OF             
MTR09920200001000000000000000RA              E13814      000800580000005800000430000003NN  NNW 000   FIRE SERVICE        N    
RDG09920200WATRL000000006K00000000000000000004708282015123903N000000000000N91       000020600K 10000000010000000000           
CUS0992020000109431689000         BALTO CO BOARD OF   125 KINGSTON RD                         000N        CARE OF             
MTR09920200001000000000000000RA              8046036     000600590000005900000380000000NN  NNW 000   FIRE SERVICE        N    
RDG09920200WATRL000000006K00000000000000009004808282015123906N000000000000N91       000030600K 10000000010000000009           
CUS0992020000109431691006         BALTO CO BOARD OF   125 KINGSTON RD                         000N        CARE OF             
MTR09920200001000000000000000RA              77859853    000300600000006000000000000000NN  NNW 000                       N    
RDG09920200WATRL000000005K00000000000001381004908282015123909N000000000000N91       000030500K 10000000010000001200           
CUS0992020000109091869009         DANAN HOLDING CORPORES GRAYTHORN RD                         000N        CARE OF             
MTR09920200001000000000000000RA              30479029    000200610000006100000520000003NN  NNW 000                       N    
RDG09920200WATRL000000005K00000000000017177005008282015123913N000000000000N91       000040500K 10000000010000017177           
CUS0992020000109091872003         1907EASTERN AVE MARI1907 LOUELLA AVE                        000N        CARE OF             
MTR09920200001000000000000000RA              01117091    000200620000006200000610000003NN  NNW 000                       N    
RDG09920200WATRL000000005K00000000000013356003608292015125306N000000000000U91       000170500K 10000000010000013352           
CUS0992020000109436218003         HUMPHREY MANAGEMENT 1900 GROVE MANOR DR                     000N        CARE OF             
MTR09920200002000000000000000RA              70048565    001000630000006300000560000003NN  NNW 000                       N    
RDG09920200WATAL000000007K00000000000000278003708292015125314N000100000010U91       000080700K 10000000010000000278           
RDG09920200WATBL000000007K00000000000021431003808292015125322N000400000010U91       000080700K 10000000010000020721           
CUS0992020000109350881000         CHESAPEAKE-OXFORD CO3 BRETT CT                              000N        CARE OF             
MTR09920200002000000000000000RA              5977890     000800640000006400000630000003NY  NNW 000                       N    
MTM099202005977890     OK                                                                                                     
RDG09920200WATAL000000006K00000000000000002003908292015125327N000100000010U91       000050600K 10000000010000000002           
RDG09920200WATBL000000006K00000000000005381004008292015125351N000304204210U91       000240600K 10000000010000021819           
CUS0992020000109091873001         OUR LADY OF MT CARME1704 EASTERN BLVD                       000N        CARE OF             
MTR09920200001000000000000000RA              7121915     000300650000006500000640000003NN  NNW 000                       N    
RDG09920200WATRL000000005K00000000000007711004108292015125448N000000000000U91       000570500K 10000000010000007629           
CUS0992020000109091874009         MARS RIVERDALE LLC  1800-12 EARHART RD                      000N        CARE OF             
MTR09920200001000000000000000RA              1209005     001500660000006600000490000003NN  NNW 000                       N    
RDG09920200WATRL000000005K00000000000000000004208292015125453S022000000000U91       000050500K 10000000010000040512           
CUS0992020000109091875006         BALTO CO PUBLIC SCHOWS BENNETT RD                           000N        CARE OF             
MTR09920200001000000000000000RA              7163295     000300670000006700000640000003NN  NNW 000                       N    
RDG09920200WATRL000000005K00000000000000032004308292015125537N000000000000U91       000440500K 10000000010000000032           
CUS0992020000109431677005         BOARD OF EDUCATION  142 BENNETT RD                          000N        CARE OF             
MTR09920200001000000000000000RA              8046060     000600680000006800000380000000NN  NNW 000   FIRE SERVICE        N    
RDG09920200WATRL000000006K00000000000000007004408292015125544N000000000010U91       000070600K 10000000010000000005           
CUS0992020000109431679001         BOARD OF EDUCATION  142 BENNETT RD                          000N        CARE OF             
MTR09920200001000000000000000RA              11806678    000300690000006900000460000000NN  NNW 000                       N    
RDG09920200WATRL000000005K00000000000002104004508292015125551N000400000010U91       000070500K 10000000010000001996           
CUS0992020000109091877002         BOARD OF EDUCATION ONS STEMMERS RUN RD                      000N        CARE OF             
MTR09920200001000000000000000RA              31588328    000200700000007000000520000003NN  NNW 000                       N    
RDG09920200WATRL000000005K00000000000060763005108282015123953N000000000000N91       000400500K 10000000010000059846           
CUS0992020000109091879008         BALTO CO PUBLIC SCHOWS STEMMERS RUN RD                      000N        CARE OF             
MTR09920200001000000000000000RA              9310138     000400710000007100000640000003NN  NNW 000                       N    
RDG09920200WATRL000000006K00000000000000000005208282015123957S022000000000N91       000040600K 10000000010000003176           
CUS0992020000109427199006         JAO PROPERTIES LLC  616 STEMMERS RUN RD                     000N        CARE OF             
MTR09920200001000000000000000RA              54353557    000100720000007200000520000003NN  NNW 000                       N    
RDG09920200WATRL000000004K00000000000002086005308282015124001N000000000000N91       000040400K 10000000010000002061           
CUS0992020000109425803005         BCPS/PHYS/FAC KENWOO501 STEMMERS RUN RD                     000N        CARE OF             
MTR09920200002000000000000000RA              70048561    001000730000007300000560000003NN  NNW 000                       N    
RDG09920200WATAL000000007K00000000000001280005408282015124010N000100000010N91       000090700K 10000000010000001280           
RDG09920200WATBL000000007K00000000000016152005508282015124019N000400000010N91       000090700K 10000000010000015724           
CUS0992020000109393266003         CH OF JESUS CHRIST O120 STEMMERS RUN RD                     000N        CARE OF             
MTR09920200001000000000000000RA              99314692    000100740000007400000570000003NN  NNW 000                       N    
RDG09920200WATRL000000004K00000000000002636005608282015124046N000300000010N91       000270400K 10000000010000002663           
CUS0992020000109393264008         CORP OF THE PRESDNG 120 STEMMERS RUN RD                     000N        CARE OF             
MTR09920200001000000000000000RA              E22923      000600750000007500000430000003NN  NNW 000   FIRE SERVICE        N    
RDG09920200WATRL000000006K00000000000000000005708282015124050N000000000000N91       000040600K 10000000010000000000           
CUS0992020000109091880006         GIANT FOOD INC. #73 110 STEMMERS RUN RD                     000N        CARE OF             
MTR09920200001000000000000000RA              26567451    000200760000007600000520000003NN  NNW 000                       N    
RDG09920200WATRL000000005K00000000000023520004608292015125600N000000000000U91       000090500K 10000000010000022963           
CUS0992020000109401946000         EASTERN LODGING INC 98 STEMMERS RUN RD                      000N        CARE OF             
MTR09920200001000000000000000RA              7234959     000600770000007700000340000003NN  NNW 000   FIRE SERVICE        N    
RDG09920200WATRL000000006K00000000000000009004708292015125604N000000000000U91       000040600K 10000000010000000009           
CUS0992020000109401948006         PRAMUKH SWAMI LLC   98 STEMMERS RUN RD                      000N        CARE OF             
MTR09920200001000000000000000RA              35112635    000200780000007800000520000003NN  NNW 000                       N    
RDG09920200WATRL000000005K00000000000053762004808292015125620N000300000010U91       000160500K 10000000010000052813           
CUS0992020000109091876004         R AND B DEVELOPMENT ES STEMMERS RUN RD                      000N        CARE OF             
MTR09920200001000000000000000RA              1133826     000200790000007900000490000003NN  NNW 000                       N    
RDG09920200WATRL000000005K00000000000046677004908292015125633N000100000010U91       000130500K 10000000010000046677           
CUS0992020000109091881004         M & T BANK          809 EASTERN BLVD                        000N        CARE OF             
MTR09920200001000000000000000RA              31602187    000200800000008000000520000003NN  NNW 000                       N    
RDG09920200WATRL000000005K00000000000008596005008292015125638N000000000000U91       000050500K 10000000010000008509           
RTR09920200NN01160116000001160000000000800080000030NY008000800116001000060000000000000000000001    08102015NY020000 N         
RHD09930300NN00950095000000950000000000750075000037NY007500750095001500080000000000000000000001    08102015NY020000 N         
CUS0993030000109428863006         STATE OF MD         9000 BAY SHORE RD                       000N        CARE OF             
MTR09930300001000000000000000RA              35112682    000200010010000100100490000000NN  NNW 000                       N    
RDG09930300WATRL000000005K00000000000003360000108272015115447N000400000010N44       000000500K 10000000010000003318           
CUS0993030000109096644001         BAYWOOD MOBILE HOME SHORE RD SOUTH END                      000N        CARE OF             
MTR09930300001000000000000000RA              1133818     000200020000000200000490000003NN  NNW 000                       N    
RDG09930300WATRL000000005K00000000000079216000208272015115454N000000000000N44       000070500K 10000000010000077199           
CUS0993030000109096646006         FRANK LEE BAUER     2801 BAUERS FARM RD                     000N        CARE OF             
MTR09930300001000000000000000RA              36700169    001500030000000300000520000003NN  NNW 000                       N    
RDG09930300WATRL000000005K00000000000017411000308272015115459N000000000000N44       000050500K 10000000010000017377           
CUS0993030000109352223003         BEACON POINTE LLC   2800 NATHANIEL WAY                      000N        CARE OF             
MTR09930300002000000000000000RA              5948871     000600040000000400000540000003NY  NNW 000                       N    
MTM099303005948871     OK ERT                                                                                                 
RDG09930300WATAL000000006K00000000000000014000108282015122209N000000000010U44       000000600K 10000000010000000015           
RDG09930300WATBL000000006K00000000000000000000000000000000000 000000000000U         000000600  10000000010000000000           
CUS0993030000109433542009         FOOD LION #2560     7514 NORTH POINT RD                     000N        CARE OF             
MTR09930300002000000000000000RA              0203191     000800050000000500000630000000NN  NNW 000                       N    
RDG09930300WATAL000000006K00000000000000135000408272015115524N000100000010N44       000250600K 10000000010000000135           
RDG09930300WATBL000000006K00000000000000613000508272015115530N000400000010N44       000060600K 10000000010000000330           
CUS0993030000109096648002         FOOD LION #2560     7500-06 N POINT RD                      000N        CARE OF             
MTR09930300001000000000000000RA              01105261    001500060000000600000610000003NY  NNW 000                       N    
MTM0993030001105261    OK                                                                                                     
RDG09930300WATRL000000005K00000000000004091000608272015115551N000300000010N44       000210500K 10000000010000001517           
CUS0993030000109430859000         NORTH POINT EDGEMERE7500 N POINT RD                         000N        CARE OF             
MTR09930300001000000000000000RA              8042353     000600070000000700000380000000NN  NNW 000   FIRE SERVICE        N    
RDG09930300WATRL000000006K00000000000000001000708272015115557N000000000000N44       000060600K 10000000010000000001           
CUS0993030000109430861006         NORTH POINT EDGEMERE7500 N POINT RD                         000N        CARE OF             
MTR09930300001000000000000000RA              99168603    001500080000000800000570000000NN  NNW 000                       N    
RDG09930300WATRL000000005K00000000000002499000808272015115602N000000000000N44       000050500K 10000000010000002428           
CUS0993030000109441216000         BOARD OF ED         7400 NORTH POINT RD                     000N        CARE OF             
MTR09930300001000000000000000RA              77859860    000300090000000900000000000000NY  NNW 000                       N    
MTM0993030077859860    OK                                                                                                     
RDG09930300WATRL000000005K00000000000004410000908272015115611N000000000000N44       000090500K 10000000010000001952           
CUS0993030000109441215002         BOARD OF ED         7400 NORTH POINT RD                     000N        CARE OF             
MTR09930300001000000000000000RA              8047261     000600100000001000000380000000NN  NNW 000   FIRE SERVICE        N    
RDG09930300WATRL000000006K00000000000000013001008272015115618N000000000010N44       000070600K 10000000010000000012           
CUS0993030000109410365002         BALTO CO DEPT OF    6800 NORTH POINT RD                     000N        CARE OF             
MTR09930300002000000000000000RA              9207798     000400110000001100000630000003NN  NNW 000                       N    
RDG09930300WATAL000000006K00000000000000000001108272015115635N000100000010N44       000170600K 10000000010000000000           
RDG09930300WATBL000000006K00000000000000006001208272015115640N000100000010N44       000050600K 10000000010000000006           
CUS0993030000109425484004         BALTIMORE COUNTY MAR6600 NORTH POINT RD                     000N        CARE OF             
MTR09930300001000000000000000RA              8042222     000400120000001200000380000003NN  NNW 000   FIRE SERVICE        N    
RDG09930300WATRL000000006K00000000000000387001308272015115649N000000000010N44       000090600K 10000000010000000386           
CUS0993030000109425486009         BALTIMORE COUNTY MAR6600 NORTH POINT RD                     000N        CARE OF             
MTR09930300001000000000000000RA              99170693    000200130000001300000570000003NN  NNW 000                       N    
RDG09930300WATRL000000005K00000000000001334001408272015115655N000000000000N44       000060500K 10000000010000001297           
CUS0993030000109386256003         WELLS-MCCOMAS POST 26521 NORTH POINT RD                     000N        CARE OF             
MTR09930300003000000000000000RA              7120834     000600140000001400000630000003NY  NNW 000                       N    
MTM099303007120834     ERT  ERT                                                                                               
RDG09930300WATAL000000006K00000000000000007000208282015122239N000000000000U44       000300600K 10000000010000000007           
RDG09930300WATBL000000006K00000000000000000000000000000000000 000000000000U         000000600  10000000010000000000           
RDG09930300WATCL000000000K00000000000000000000000000000000000 000000000000U         000001000  10000000010000000000           
CUS0993030000109423200006         BOARD OF EDUCATION  7201 NORTH POINT RD                     000N        CARE OF             
MTR09930300003000000000000000RA              9709569     000600150000001500000630000003NY  NNW 000                       N    
MTM099303009709569     ERT  ERT                                                                                               
RDG09930300WATAL000000006K00000000000000001000308282015122300N000000000000U44       000210600K 10000000010000000001           
RDG09930300WATBL000000006K00000000000000000000000000000000000 000000000000U         000000600  10000000010000000000           
RDG09930300WATCL000000000K00000000000000000000000000000000000 000000000000U         000001000  10000000010000000000           
CUS0993030000109096651006         WASSALL USA ACQUISIT4630 NORTH POINT BLVD                   000N        CARE OF             
MTR09930300002000000000000000RA              5275680     001000160000001600000480000003NN  NNW 000   FIRE SERVICE        N    
RDG09930300WATAL000000007K00000000000000000001508272015120001N000000000000N44       001860700K 10000000010000000000           
RDG09930300WATBL000000007K00000000000000010001608272015120006N000400000010N44       000050700K 10000000010000000000           
CUS0993030000109096652004         WASSALL USA ACQUISIT4630 NORTH POINT BLVD                   000N        CARE OF             
MTR09930300001000000000000000RA              73818968    000400170000001700000540000003NY  NNW 000                       N    
MTM0993030073818968    ERT OK                                                                                                 
RDG09930300WATRL000000006K00000000000002665001708272015120148N000000000010N44       001020600K 10000000010000000000           
CUS0993030000109096653002         VERIZON MARYLAND INCES NORTH POINT BLVD                     000N        CARE OF             
MTR09930300001000000000000000RA              01105437    000200180000001800000610000003NY  NNW 000                       N    
MTM0993030001105437    BURIED                                                                                                 
RDG09930300WATRL000000005K00000000000000000000000000000000000 000000000000U         000000500  10000000010000002951           
CUS0993030000109386142005         BOARD OF EDUCATION  4242 NORTH POINT RD                     000N        CARE OF             
MTR09930300002000000000000000RA              7132461     001000190000001900000540000003NY  NNW 000                       N    
MTM099303007132461     ERT                                                                                                    
RDG09930300WATAL000000007K00000000000000000000408282015122352N000000000000U44       000520700K 10000000010000000000           
RDG09930300WATBL000000007K00000000000000000000000000000000000 000000000000U         000000700  10000000010000000000           
CUS0993030000109432308006         BALTIMORE COUNTY MAR4021 N POINT BLVD                       000N        CARE OF             
MTR09930300001000000000000000RA              00066751    000200200000002000000570000003NN  NNW 000                       N    
RDG09930300WATRL000000005K00000000000001233001808272015120204N000400000010N44       000160500K 10000000010000001227           
CUS0993030000109432309004         BALTIMORE COUNTY MAR4021 N POINT BLVD                       000N        CARE OF             
MTR09930300001000000000000000RA              8046037     000600210000002100000380000003NN  NNW 000   FIRE SERVICE        N    
RDG09930300WATRL000000006K00000000000000001001908272015120208N000000000000N44       000040600K 10000000010000000001           
CUS0993030000109351870002         7-ELEVEN INC 35757  4000 N POINT BLVD                       000N        CARE OF             
MTR09930300001000000000000000RA              01105209    001500220000002200000610000003NN  NNW 000                       N    
RDG09930300WATRL000000005K00000000000003826002008272015120215N000000000000N44       000070500K 10000000010000003745           
CUS0993030000109422576000         NEWPORT ENTERPRISES 16 CHRISTINA CT                         000N        CARE OF             
MTR09930300001000000000000000RA              43905937    007500230000002300000520000003NY  NNW 000                       N    
MTM0993030043905937    OK                                                                                                     
RDG09930300WATRL000000004K00000000000000483002108272015120233N000000000001N44       000180400K 10000000010000000483           
CUS0993030000109411724009         GOETZINGER FAMILY LL10 CHRISTINA CT                         000N        CARE OF             
MTR09930300001000000000000000RA              43904907    007500240000002400000520000003NN  NNW 000                       N    
RDG09930300WATRL000000004K00000000000004099002208272015120239N000000000000N44       000060400K 10000000010000004052           
CUS0993030000106416464003         NEWPORT ENTERPRISES 4 CHRISTINA CT                          000N        CARE OF             
MTR09930300001000000000000000RA              45388030    007500250000002500000520000003NN  NNW 000                       N    
RDG09930300WATRL000000004K00000000000000105002308272015120251N000000000000N44       000120400K 10000000010000000092           
CUS0993030000109096655007         MATRO PROPERTIES LLC4070 N POINT RD                         000N        CARE OF             
MTR09930300001000000000000000RA              31588373    000200260000002600000520000003NN  NNW 000                       N    
RDG09930300WATRL000000005K00000000000010811002408272015120256N000000000000N44       000050500K 10000000010000010776           
CUS0993030000109430890005         BOARD OF EDUCATION O7828 ST PATRICIA LN                     000N        CARE OF             
MTR09930300001000000000000000RA              8046633     000600270000002700000380000000NN  NNW 000   FIRE SERVICE        N    
RDG09930300WATRL000000006K00000000000000005002508272015120300N000000000000N44       000040600K 10000000010000000005           
CUS0993030000109430892001         BOARD OF EDUCATION O7828 ST PATRICIA LN                     000N        CARE OF             
MTR09930300001000000000000000RA              77859876    000300280000002800000000000000NN  NNW 000                       N    
RDG09930300WATRL000000005K00000000000000811002608272015120305N000000000000N44       000050500K 10000000010000000493           
CUS0993030000109096658001         4001 NORTH POINT BUS4001 N POINT BLVD                       000N        CARE OF             
MTR09930300001000000000000000RA              99999999    001500290000002900000520000003NN  NNW 000   FERRULE APPLIED     N    
RDG09930300WATRL000000005K00000000000000000002708272015120308S002000000000N44       000030500K 10000000010000004624           
CUS0993030000109456931006         GOLDEN ARCH REALTY, 3954 N POINT BLVD                       000N        CARE OF             
MTR09930300001000000000000000RA              99999999    000600300000003000000440000000NY  NNW 000   FIRE SERVICE        N    
MTM0993030099999999    C/L                                                                                                    
RDG09930300WATRL000000006K00000000000000000000000000000000000 000000000000U         000000600  10000000010000000000           
CUS0993030000109456933002         GOLDEN ARCH REALTY, 3954 N POINT BLVD                       000N        CARE OF             
MTR09930300001000000000000000RA              99999999    001500310000003100000440000000NY  NNW 000   **NEW ACCOUNT**     N    
MTM0993030099999999    C/L                                                                                                    
RDG09930300WATRL000000005K00000000000000000000000000000000000 000000000000U         000000500  10000000010000000000           
CUS0993030000109096661005         8203 FISCHER ROAD LL8203 FISCHER RD                         000N        CARE OF             
MTR09930300001000000000000000RA              42847055    001500320000003200000520000003NY  NNW 000                       N    
MTM0993030042847055    B/T                                                                                                    
RDG09930300WATRL000000005K00000000000000000000000000000000000 000000000000U         000000500  10000000010000024272           
CUS0993030000109397161002         FORWARD DEVELOPMENT 8200 BLETZER RD                         000N        CARE OF             
MTR09930300002000000000000000RA              6050063     000600330000003300000480000003NY  NNW 000   FIRE SERVICE        N    
MTM099303006050063     ERT OK                                                                                                 
RDG09930300WATAL000000006K00000000000000027002808282015085123O000000000010N44       000460600K 10000000010000000027           
RDG09930300WATBL000000006K00000000000000115002908272015120401N000400000010N44       000070600K 10000000010000000021           
CUS0993030000109397163008         FORWARD DEVELOPMENT 8200 BLETZER RD                         000N        CARE OF             
MTR09930300001000000000000000RA              33415999    001500340000003400000520000003NY  NNW 000                       N    
MTM0993030033415999    ERT OK                                                                                                 
RDG09930300WATRL000000005K00000000000050242003008282015084843O000300000010N47       000210500K 10000000010000049440           
CUS0993030000109386019005         ROMADKA JEAN A,ET AL8201 BLETZER RD                         000N        CARE OF             
MTR09930300001000000000000000RA              01105543    000200350000003500000610000003NN  NNW 000                       N    
RDG09930300WATRL000000005K00000000000058786000508282015122515N000000000000U44       000830500K 10000000010000057808           
CUS0993030000109356830001         8203 FISCHER ROAD LL8203 FISCHER RD                         000N        CARE OF             
MTR09930300001000000000000000RA              1681984     000800360000003600000390000003NY  NNW 000   FIRE SERVICE        N    
MTM099303001681984     DIAL 1 000057           DIAL 2  00000                                                                  
RDG09930300WATRL000000006K00000000000000000003108272015120609N000300000010N44       001070600K 10000000010000000580           
CUS0993030000109356831009         8203 FISCHER ROAD LL8203 FISCHER RD                         000N        CARE OF             
MTR09930300001000000000000000RA              1250995     001500370000003700000490000003NN  NNW 000                       N    
RDG09930300WATRL000000005K00000000000000099003208272015120616N000000000010N44       000070500K 10000000010000000098           
CUS0993030000109457650001         QRS OF MARYLAND, LLC8203 FISCHER RD                         000N        CARE OF             
MTR09930300001000000000000000RA              99999999    001000370010003700100440000000NY  NNW 000   **NEW ACCOUNT**     N    
MTM0993030099999999    C/L                                                                                                    
RDG09930300WATRL000000007K00000000000000000000000000000000000 000000000000U         000000700  10000000010000000000           
CUS0993030000109427733002         AMERICAN YEAST CORPO8215 BEACHWOOD RD                       000N        CARE OF             
MTR09930300001000000000000000RA              8040131     000800380000003800000380000000NN  NNW 000   FIRE SERVICE        N    
RDG09930300WATRL000000006K00000000000000028003308272015120636N000000000000N44       000200600K 10000000010000000028           
CUS0993030000109427735007         AMERICAN YEAST CORPO8215 BEACHWOOD RD                       000N        CARE OF             
MTR09930300001000000000000000RA              70297751    000600390000003900000640000003NY  NNW 000                       N    
MTM0993030070297751    OK                                                                                                     
RDG09930300WATRL000000006K00000000000042969003408272015120708N000000000000N44       000320600K 10000000010000018047           
CUS0993030000109427902003         AMERICAN YEAST CORPO8215 BEACHWOOD RD                       000N        CARE OF             
MTR09930300001000000000000000RA              54353527    000100400000004000000520000000NN  NNW 000                       N    
RDG09930300WATRL000000004K00000000000002643003508272015120714N000000000000N44       000060400K 10000000010000002599           
CUS0993030000109428029004         AMERICAN YEAST CORPO8215 BEACHWOOD RD                       000N        CARE OF             
MTR09930300001000000000000000RA              50384256    000100410000004100000520000000NY  NNW 000                       N    
MTM0993030050384256    C/L                                                                                                    
RDG09930300WATRL000000004K00000000000000000000000000000000000 000000000000U         000000400  10000000010000000479           
CUS0993030000109096663001         8200 FISCHER ROAD LL8200 FISCHER RD                         000N        CARE OF             
MTR09930300002000000000000000RA              3991221     001000420000004200000390000003NN  NNW 000   FIRE SERVICE        N    
RDG09930300WATAL000000007K00000000000000000000608282015122616N000100000010U44       000610700K 10000000010000000000           
RDG09930300WATBL000000007K00000000000000115000708282015122622N000400000010U44       000060700K 10000000010000000110           
CUS0993030000109096664009         8200 FISCHER ROAD LL8200 FISCHER RD                         000N        CARE OF             
MTR09930300001000000000000000RA              77859900    000400430000004300000000000003NN  NNW 000                       N    
RDG09930300WATRL000000006K00000000000002722000808282015122629N000300000010U44       000070600K 10000000010000001394           
CUS0993030000109096665006         COVE ROAD LLC       3809 EDGEWATER PL                       000N        CARE OF             
MTR09930300001000000000000000RA              E9985       000600440000004400000430000003NN  NNW 000   FIRE SERVICE        N    
RDG09930300WATRL000000006K00000000000000000000908282015122635N000000000000U44       000060600K 10000000010000000000           
CUS0993030000109096666004         COVE ROAD LLC       3809 EDGEWATER PL                       000N        CARE OF             
MTR09930300001000000000000000RA              26796037    007500450000004500000520000003NN  NNW 000                       N    
RDG09930300WATRL000000004K00000000000004961001008282015122641N000000000000U44       000060400K 10000000010000004908           
CUS0993030000109096667002         D K I ACQUISITION CO3600 N POINT BLVD                       000N        CARE OF             
MTR09930300003000000000000000RA              3113750     000800460000004600000390000003NN  NNW 000   FIRE SERVICE        N    
RDG09930300WATAL000000006K00000000000000000001108282015122657S005000000000U44       000160600K 10000000010000000093           
RDG09930300WATBL000000006K00000000000000000001208282015122702S005000000000U44       000050600K 10000000010000000028           
RDG09930300WATCL000000006K00000000000000000001308282015122706S005000000000U44       000040600K 10000000010000002799           
CUS0993030000109096668000         D K I ACQUISITION CO3600 N POINT BLVD                       000N        CARE OF             
MTR09930300001000000000000000RA              9216214     000400470000004700000640000003NN  NNW 000                       N    
RDG09930300WATRL000000006K00000000000003090001408282015122737N000000000000U44       000310600K 10000000010000002986           
CUS0993030000109456197004         STATE OF MD MILITARY2101 NORTH POINT BLVD                   000N        CARE OF             
MTR09930300001000000000000000RA              14276047    000800480000004800000390000003NY  NNW 000                       N    
MTM0993030014276047    DIAL 1 000044           DIAL 2  00428                                                                  
RDG09930300WATRL000000006K00000000000000428003608272015120829N000000000000N44       000750600K 10000000010000000274           
CUS0993030000109442932001         STATE OF MD MILTITAR1218 NORTH POINT RD                     000N        CARE OF             
MTR09930300001000000000000000RA              0703368     000800490000004900000390000003NY  NNW 000                       N    
MTM099303000703368     DIAL 1 000000           DIAL 2  00254                                                                  
RDG09930300WATRL000000006K00000000000000254003708272015120902N000000000000N44       000330600K 10000000010000000241           
CUS0993030000109096669008         SRH CHARLESMONT LLC 7815-33 E COLLINGHAM DR                 000N        CARE OF             
MTR09930300001000000000000000RA              1133821     000200500000005000000490000003NN  NNW 000                       N    
RDG09930300WATRL000000005K00000000000014941001508282015122842N000000000000U44       000650500K 10000000010000014389           
CUS0993030000109096670006         BALTO CO PUBLIC SCHO7800 W COLLINGHAM DR                    000N        CARE OF             
MTR09930300001000000000000000RA              0908605     000400510000005100000640000003NN  NNW 000                       N    
RDG09930300WATRL000000006K00000000000006974001608282015122848N000000000000U44       000060600K 10000000010000006838           
CUS0993030000109432603000         BOARD OF EDUCA      7800 W COLLINGHAM DR                    000N        CARE OF             
MTR09930300001000000000000000RA              99999999    000600520000005200000440000000NY  NNW 000   FIRE SERVICE        N    
MTM0993030099999999    C/L                                                                                                    
RDG09930300WATRL000000006K00000000000000000000000000000000000 000000000000U         000000600  10000000010000002632           
CUS0993030000109432606003         BOARD OF EDUCA      7800 W COLLINGHAM DR                    000N        CARE OF             
MTR09930300001000000000000000RA              99999999    000400530000005300000440000000NY  NNW 000                       N    
MTM0993030099999999    C/L                                                                                                    
RDG09930300WATRL000000006K00000000000000000000000000000000000 000000000000U         000000600  10000000010000015621           
CUS0993030000109096671004         SRH CHARLESMONT LLC 7811-21 E COLLINGHAM DR                 000N        CARE OF             
MTR09930300001000000000000000RA              1199155     000300540000005400000490000003NN  NNW 000                       N    
RDG09930300WATRL000000005K00000000000027212001708282015123752N000000000000U44       005440500K 10000000010000021686           
CUS0993030000109096672002         SRH CHARLESMONT LLC SWC WALLFORD DR &                       000N        CARE OF             
MTR09930300001000000000000000RA              1327067     000200550000005500000490000003NN  NNW 000                       N    
RDG09930300WATRL000000005K00000000000083496001808282015123818N000000000000U44       000260500K 10000000010000082682           
CUS0993030000109096673000         SRH CHARLESMONT LLC SS TRAPPE RD OPPOSITE                   000N        CARE OF             
MTR09930300001000000000000000RA              1218829     000300560000005600000490000003NN  NNW 000                       N    
RDG09930300WATRL000000005K00000000000035325003808272015120921N000000000000N44       000190500K 10000000010000031586           
CUS0993030000109096674008         BOARD OF ED.BALTO.CO7855 TRAPPE RD                          000N        CARE OF             
MTR09930300001000000000000000RA              4672926     000600570000005700000410000003NN  NNW 000   FIRE SERVICE        N    
RDG09930300WATRL000000006K00000000000000002003908272015120953N000000000000N44       000320600K 10000000010000000002           
CUS0993030000109096675005         BALTO CO PUBLIC SCHO7855 TRAPPE RD                          000N        CARE OF             
MTR09930300001000000000000000RA              77859849    000300580000005800000000000003NN  NNW 000                       N    
RDG09930300WATRL000000005K00000000000000978004008272015121001N000400000010N44       000080500K 10000000010000000864           
CUS0993030000109430150004         VANDERVOORT CONCETTA7723 TRAPPE RD                          000N        CARE OF             
MTR09930300001000000000000000RA              8044786     000400590000005900000380000000NN  NNW 000   FIRE SERVICE        N    
RDG09930300WATRL000000006K00000000000000000004108272015121004N000000000000N44       000030600K 10000000010000000000           
CUS0993030000109430152000         VANDERVOORT CONCETTA7723 TRAPPE RD                          000N        CARE OF             
MTR09930300001000000000000000RA              99080266    007500600000006000000570000003NN  NNW 000                       N    
RDG09930300WATRL000000004K00000000000001201004208272015121012N000400000010N44       000080400K 10000000010000001186           
CUS0993030000109096676003         BALTIMORE COUNTY    SS TRAPPE RD 50 FT                      000N        CARE OF             
MTR09930300001000000000000000RA              01117093    000200610000006100000610000003NN  NNW 000   FERRULE APPLIED     N    
RDG09930300WATRL000000005K00000000000000000004308272015121015S002000000000N44       000030500K 10000000010000010058           
CUS0993030000109096677001         BALTIMORE COUNTY MD ES LYNCH RD 90 FT                       000N        CARE OF             
MTR09930300001000000000000000RA              01117194    000200620000006200000610000003NY  NNW 000                       N    
MTM0993030001117194    STEEL  PLATE                                                                                           
RDG09930300WATRL000000005K00000000000000000000000000000000000 000000000000U         000000500  10000000010000022491           
CUS0993030000109096678009         BALTIMORE COUNTY MARSS PARKWOOD RD 600 FT                   000N        CARE OF             
MTR09930300002000000000000000RA              40000023    000400630000006300000460000003NN  NNW 000                       N    
RDG09930300WATAL000000006K00000000000000009001908282015124048N000100000010U44       001500600K 10000000010000000009           
RDG09930300WATBL000000006K00000000000000328002008282015124102N000400000010U44       000140600K 10000000010000000320           
CUS0993030000109346146005         VEI DUNDALK L L C   1400 MERRITT BLVD                       000N        CARE OF             
MTR09930300002000000000000000RA              6012985     000800640000006400000480000003NY  NNW 000   FIRE SERVICE        N    
MTM099303006012985     ERT OK                                                                                                 
RDG09930300WATAL000000006K00000000000000005004408272015121104N000000000000N44       000490600K 10000000010000000005           
RDG09930300WATBL000000006K00000000000099999004508272015121114N000000000000N44       000100600K 10000000010000000000           
CUS0993030000109348225005         VEI DUNDALK L L C   1400 MERRITT BLVD                       000N        CARE OF             
MTR09930300001000000000000000RA              01105694    000200650000006500000610000003NN  NNW 000                       N    
RDG09930300WATRL000000005K00000000000026746004608272015121120N000000000000N44       000060500K 10000000010000026370           
CUS0993030000109346147003         PIZZA HUT OF MARYLAN1400 MERRITT BLVD                       000N        CARE OF             
MTR09930300001000000000000000RA              39267047    000100660000006600000520000003NN  NNW 000                       N    
RDG09930300WATRL000000004K00000000000004688004708272015121124N000000000000N44       000040400K 10000000010000004626           
CUS0993030000109096679007         MERRITT BOULEVARD LISS WESTFIELD RD 390 FT                  000N        CARE OF             
MTR09930300002000000000000000RA              5498419     000600670000006700000630000003NN  NNW 000                       N    
RDG09930300WATAL000000006K00000000000000003004808272015121130N000100000010N44       000060600K 10000000010000000003           
RDG09930300WATBL000000006K00000000000020527004908272015121139N000400000010N44       000090600K 10000000010000020148           
CUS0993030000109360054002         HERITAGE ASSOCIATES 7232 GERMAN HILL RD                     000N        CARE OF             
MTR09930300001000000000000000RA              E13440      000600680000006800000430000003NN  NNW 000   FIRE SERVICE        N    
RDG09930300WATRL000000006K00000000000000000005008272015121143N000000000000N44       000040600K 10000000010000000000           
CUS0993030000109096680005         OEKOS DUNDALK LLC   SS GERMAN HILL RD 410FT                 000N        CARE OF             
MTR09930300003000000000000000RA              4542090     000800690000006900000390000003NN  NNW 000   FIRE SERVICE        N    
RDG09930300WATAL000000006K00000000000000000005108282015124150S005000000000U44       000480600K 10000000010000000030           
RDG09930300WATBL000000006K00000000000000000005208282015124153S005000000000U44       000030600K 10000000010000001067           
RDG09930300WATCL000000006K00000000000000000005308282015124155S005000000000U44       000020600K 10000000010000006103           
CUS0993030000109360055009         HERITAGE ASSOCIATES 7232 GERMAN HILL RD                     000N        CARE OF             
MTR09930300001000000000000000RA              1257032     001500700000007000000490000003NY  NNW 000                       N    
MTM099303001257032     OK                                                                                                     
RDG09930300WATRL000000005K00000000000095298005408272015121212N000000000000N44       000140500K 10000000010000095298           
CUS0993030000109096681003         OEKOS DUNDALK LLC   SS GERMAN HILL RD 410FT                 000N        CARE OF             
MTR09930300001000000000000000RA              31938320    000200710000007100000520000003NN  NNW 000                       N    
RDG09930300WATRL000000005K00000000000063097005508272015121223N000400000010N44       000110500K 10000000010000062830           
CUS0993030000109096682001         TAILORED REALTY INVE7705 GERMAN HILL RD                     000N        CARE OF             
MTR09930300001000000000000000RA              01105769    000200720000007200000610000003NN  NNW 000                       N    
RDG09930300WATRL000000005K00000000000002988005608272015121231N000400000011N44       000080500K 10000000010000002971           
CUS0993030000109096683009         MERRITT MANOR, LLC  NEC GERMAN HILL RD &                    000N        CARE OF             
MTR09930300002000000000000000RA              2024878     000600730000007300000460000003NN  NNW 000                       N    
RDG09930300WATAL000000006K00000000000000000005708272015121236N000100000010N44       000050600K 10000000010000000000           
RDG09930300WATBL000000006K00000000000006294005808272015121244N000400000010N44       000080600K 10000000010000005855           
CUS0993030000109456370007         17 CHRISTINA COURT L17 CHRISTINA CT                         000N        CARE OF             
MTR09930300002000000000000000RA              14276053    000800740000007400000390000003NN  NNW 000                       N    
RDG09930300WATAL000000006K00000000000000131005908272015121251N000100000010N44       000070600K 10000000010000000131           
RDG09930300WATBL000000006K00000000000000179006008272015121258N000400000010N44       000070600K 10000000010000000144           
RTR09930300NN00950095000000950000000000750075000037NY007500750095001500080000000000000000000001    08102015NY020000 N         
RHD09930700NN00650065000000650000000000520052000100NY005200520065001000050000000000000000000001    08102015NY020000 N         
CUS0993070000109423194001         MIDDLESEX ASSOCIATES1200 EASTERN BLVD                       000N        CARE OF             
MTR09930700002000000000000000RA              9706683     000800010000000100000630000003NN  NNW 000                       N    
RDG09930700WATAL000000006K00000000000000001000108292015125351N000100000010N44       000000600K 10000000010000000001           
RDG09930700WATBL000000006K00000000000000889000208292015125357N000400000010N44       000060600K 10000000010000000739           
CUS0993070000109096659009         A G G REALTY JOINT V1200-10 EASTERN BLVD                    000N        CARE OF             
MTR09930700001000000000000000RA              99999999    000600020000000200000620000003NN  NNW 000   FIRE SERVICE        N    
RDG09930700WATRL000000006K00000000000000000000308292015125402N000000000000N44       000050600K 10000000010000000000           
CUS0993070000109096783007         MIDDLESEX ASSOCIATES1340 EASTERN BLVD                       000N        CARE OF             
MTR09930700001000000000000000RA              01105628    000200030000000300000610000003NN  NNW 000                       N    
RDG09930700WATRL000000005K00000000000003416000408292015125408N000300000010N44       000060500K 10000000010000003092           
CUS0993070000109096784005         A G G REALTY JOINT V1300-06 EASTERN BLVD                    000N        CARE OF             
MTR09930700001000000000000000RA              5275689     000600040000000400000410000003NN  NNW 000   FIRE SERVICE        N    
RDG09930700WATRL000000006K00000000000000000000508292015125411N000000000000N44       000030600K 10000000010000000000           
CUS0993070000109096785002         MIDDLESEX ASSOCIATES1300-06 EASTERN BLVD                    000N        CARE OF             
MTR09930700001000000000000000RA              29724371    001500050000000500000520000003NN  NNW 000                       N    
RDG09930700WATRL000000005K00000000000019304000608292015125416N000000000000N44       000050500K 10000000010000019011           
CUS0993070000109096786000         BALTIMORE COUNTY    NS MYRTH AV 665 FT                      000N        CARE OF             
MTR09930700001000000000000000RA              99169922    000200060000000600000570000003NN  NNW 000                       N    
RDG09930700WATRL000000005K00000000000003782000708292015125419N000000000000N44       000030500K 10000000010000003718           
CUS0993070000109096787008         BALTIMORE COUNTY    216 N MARLYN AVE                        000N        CARE OF             
MTR09930700001000000000000000RA              01117310    000200070000000700000610000003NN  NNW 000                       N    
RDG09930700WATRL000000005K00000000000005514000808292015125426N000000000000N44       000070500K 10000000010000005429           
CUS0993070000109357844001         ESSEX NON-PROFIT    1000 FRANKLIN AVE                       000N        CARE OF             
MTR09930700003000000000000000RA              6086445     000800080000000800000480000003NY  NNW 000   FIRE SERVICE        N    
MTM099307006086445                 C/S                                                                                        
RDG09930700WATAL000000006K00000000000000030000908312015103727N000000000000U44       000000600K 10000000010000000030           
RDG09930700WATBL000000006K00000000000000000000000000000000000 000000000000U         000000600  10000000010000000118           
RDG09930700WATCL000000006K00000000000000254001008312015103750N000100000010U44       000230600K 10000000010000000254           
CUS0993070000109357845008         ESSEX NON-PROFIT    1000 FRANKLIN AVE                       000N        CARE OF             
MTR09930700001000000000000000RA              10803517    000300090000000900000640000003NN  NNW 000                       N    
RDG09930700WATRL000000005K00000000000033268001108292015125454N000000000000N44       000050500K 10000000010000031330           
CUS0993070000109096788006         ST CLARE ROMAN CATH 718 MYRTH AVE                           000N        CARE OF             
MTR09930700001000000000000000RA              9305945     000300100000001000000640000003NN  NNW 000                       N    
RDG09930700WATRL000000005K00000000000007630001208292015125458N000000000000N44       000040500K 10000000010000007042           
CUS0993070000109096789004         ALEXANDER HOMER     801 DORSEY AVE                          000N        CARE OF             
MTR09930700001000000000000000RA              14904092    005800110000001100000310000003NY  NNW 000                       N    
MTM0993070014904092    C/O/V                                                                                                  
RDG09930700WATRL000000004K00000000000000000000000000000000000 000000000000U         000000400  10000000010000000109           
CUS0993070000109374188002         BALTIMORE COUNTY MD 600 DORSEY AVE                          000N        CARE OF             
MTR09930700001000000000000000RA              E16518      000600120000001200000430000003NN  NNW 000   FIRE SERVICE        N    
RDG09930700WATRL000000006K00000000000000000001308292015125502N000000000000N44       000040600K 10000000010000000000           
CUS0993070000109374189000         BALTIMORE COUNTY MD 600 DORSEY AVE                          000N        CARE OF             
MTR09930700001000000000000000RA              31938018    000100130000001300000520000003NN  NNW 000                       N    
RDG09930700WATRL000000004K00000000000001141001408292015125506N000000000000N44       000040400K 10000000010000001084           
CUS0993070000109096790002         URBAN DESIGN INC    620-26 FRANKLIN AVE                     000N        CARE OF             
MTR09930700001000000000000000RA              01105274    001500140000001400000610000003NN  NNW 000                       N    
RDG09930700WATRL000000005K00000000000002118001508292015125509N000000000000N44       000030500K 10000000010000002065           
CUS0993070000109096792008         BALTO CO PUBLIC SCHO1100 MACE AVE                           000N        CARE OF             
MTR09930700002000000000000000RA              5003409     000600150000001500000630000003NN  NNW 000                       N    
RDG09930700WATAL000000006K00000000000000111001608292015125517N000100000010N44       000080600K 10000000010000000111           
RDG09930700WATBL000000006K00000000000004272001708292015125523N000400000010N44       000060600K 10000000010000003264           
CUS0993070000109396969009         GT LAND LLC         8250 EASTERN BLVD                       000N        CARE OF             
MTR09930700002000000000000000RA              7222961     001000160000001600000480000003NN  NNW 000                       N    
RDG09930700WATAL000000007K00000000000000001001808292015125529N000100000010N44       000060700K 10000000010000000001           
RDG09930700WATBL000000007K00000000000001771001908292015125537N000400000010N44       000080700K 10000000010000001687           
CUS0993070000109096794004         MIRABILE RUSSELL R  400 MIRABILE LN                         000N        CARE OF             
MTR09930700001000000000000000RA              1178421     001500170000001700000490000003NN  NNW 000                       N    
RDG09930700WATRL000000005K00000000000008400002008292015125555N000000000000N44       000180500K 10000000010000008400           
CUS0993070000109096796009         GEM OF BALTIMORE - E7930 EASTERN BLVD                       000N        CARE OF             
MTR09930700001000000000000000RA              4087008     001000180000001800000410000003NN  NNW 000   FIRE SERVICE        N    
RDG09930700WATRL000000007K00000000000000000000308312015103920S005000000000U44       000900700K 10000000010000000000           
CUS0993070000109096797007         GEM OF BALTIMORE - E7930 EASTERN BLVD                       000N        CARE OF             
MTR09930700001000000000000000RA              01105542    000200190000001900000610000003NN  NNW 000                       N    
RDG09930700WATRL000000005K00000000000016496002108292015125602N000000000000N44       000070500K 10000000010000016023           
CUS0993070000109349015009         GEM OF BALTIMORE - E7928 EASTERN AVE                        000N        CARE OF             
MTR09930700001000000000000000RA              1257018     001500200000002000000490000003NN  NNW 000                       N    
RDG09930700WATRL000000005K00000000000000448002208292015125605N000000000000N44       000030500K 10000000010000000431           
CUS0993070000109349016007         GEM OF BALTIMORE - E7928 EASTERN AVE                        000N        CARE OF             
MTR09930700003000000000000000RA              5977887     000800210000002100000480000003NY  NNW 000   FIRE SERVICE        N    
MTM099307005977887                                         COND                                                               
RDG09930700WATAL000000006K00000000000000000000408312015104008S005000000000U44       000480600K 10000000010000000012           
RDG09930700WATBL000000006K00000000000000160002308312015104015N000400000010U44       000070600K 10000000010000000147           
RDG09930700WATCL000000006K00000000000000000000000000000000000 000000000000U         000000600  10000000010000000142           
CUS0993070000109096798005         BELLAS HERMANAS LLC 7900 EASTERN AVE                        000N        CARE OF             
MTR09930700001000000000000000RA              32575092    001500220000002200000520000003NN  NNW 000                       N    
RDG09930700WATRL000000005K00000000000042655002408292015125635N000000000000N44       000190500K 10000000010000042148           
CUS0993070000109096800009         SCP-EBC LLC         7998 E BALTIMORE ST                     000N        CARE OF             
MTR09930700001000000000000000RA              28966919    000200230000002300000520000003NN  NNW 000                       N    
RDG09930700WATRL000000005K00000000000047294002508292015125646N000000000010N44       000110500K 10000000010000046869           
CUS0993070000109436120001         BALTIMORE BUSINESS P7700 ROLLING MILL RD                    000N        CARE OF             
MTR09930700002000000000000000RA              0005287     001200240000002400000630000000NY  NNW 000                       N    
MTM099307000005287                ERT                                                                                         
RDG09930700WATAL000000007K00000000000002426000608312015104415N000300000010U44       002400700K 10000000010000000046           
RDG09930700WATBL000000007K00000000000002426002608292015125701N000400000010U44       000150700K 10000000010000001199           
CUS0993070000109096801007         J & G REALTY LLC    7600 ROLLING MILL RD                    000N        CARE OF             
MTR09930700001000000000000000RA              01105456    000200250000002500000610000003NN  NNW 000                       N    
RDG09930700WATRL000000005K00000000000004952000708312015104434N000000000000U44       000190500K 10000000010000004854           
CUS0993070000109096802005         FISH LIPS LLC       7211 ROLLING MILL RD                    000N        CARE OF             
MTR09930700001000000000000000RA              5705136     000600260000002600000410000003NY  NNW 000   FIRE SERVICE        N    
MTM099307005705136     C/O/V                                                                                                  
RDG09930700WATRL000000006K00000000000000000000000000000000000 000000000000U         000000600  10000000010000000000           
CUS0993070000109096803003         FISH LIPS LLC       7211 ROLLING MILL RD                    000N        CARE OF             
MTR09930700001000000000000000RA              00118372    007500270000002700000570000003NN  NNW 000                       N    
RDG09930700WATRL000000004K00000000000000000000808312015104504N000000000000U44       000300400K 10000000010000000000           
CUS0993070000109096804001         DEJANA REALTY OF MAR6901 ROLLING MILL RD                    000N        CARE OF             
MTR09930700001000000000000000RA              1608672     000400280000002800000490000003NN  NNW 000                       N    
RDG09930700WATRL000000006K00000000000003294003208312015121541N000000000000U44       018300600K 10000000010000002558           
CUS0993070000109370936008         SANDERS JOHN W,JR   7117 ROLLING MILL RD                    000N        CARE OF             
MTR09930700001000000000000000RA              4108370     000600290000002900000410000003NN  NNW 000   FIRE SERVICE        N    
RDG09930700WATRL000000006K00000000000000000000908312015113635S005000000000U44       030910600K 10000000010000000000           
CUS0993070000109370937006         SANDERS JOHN W,JR   7117 ROLLING MILL RD                    000N        CARE OF             
MTR09930700001000000000000000RA              00118370    007500300000003000000570000003NN  NNW 000                       N    
RDG09930700WATRL000000004K00000000000000519001008312015113642N000000000000U44       000070400K 10000000010000000512           
CUS0993070000109096805008         MP PROPERTY LLC     7201 ROLLING MILL RD                    000N        CARE OF             
MTR09930700001000000000000000RA              5246556     000800310000003100000410000003NN  NNW 000   FIRE SERVICE        N    
RDG09930700WATRL000000006K00000000000000452001108312015113650N000400000010U44       000080600K 10000000010000000451           
CUS0993070000109096806006         MP PROPERTY ,LLC    7201 ROLLING MILL RD                    000N        CARE OF             
MTR09930700001000000000000000RA              36696476    005800320000003200000520000003NN  NNW 000                       N    
RDG09930700WATRL000000004K00000000000002609001208312015113657N000300000010U44       000070400K 10000000010000002592           
CUS0993070000109096807004         7670 CCD LLC        7670 CANTON CENTER DR                   000N        CARE OF             
MTR09930700001000000000000000RA              4913593     000800330000003300000410000003NN  NNW 000   FIRE SERVICE        N    
RDG09930700WATRL000000006K00000000000000000001308312015113718S005000000000U44       000210600K 10000000010000000001           
CUS0993070000109096808002         7670 CCD LLC        7670 CANTON CENTER DR                   000N        CARE OF             
MTR09930700001000000000000000RA              33416939    007500340000003400000520000003NN  NNW 000                       N    
RDG09930700WATRL000000004K00000000000008910001408312015113725N000000000000U44       000070400K 10000000010000008900           
CUS0993070000109352998000         DUNBAR MS #09       7675 CANTON CENTER DR                   000N        CARE OF             
MTR09930700001000000000000000RA              30610281    000100350000003500000670000003NN  NNW 000                       N    
RDG09930700WATRL000000004K00000000000017378001508312015113914N000300000010U44       001090500K 10000000010000017258           
CUS0993070000109096809000         CANTON CENTER DRIVE 7646 CANTON CENTER DR                   000N        CARE OF             
MTR09930700001000000000000000RA              4733205     000800360000003600000410000003NN  NNW 000   FIRE SERVICE        N    
RDG09930700WATRL000000006K00000000000003170001608312015113927N000000000010U44       000130600K 10000000010000003165           
CUS0993070000109096810008         CANTON CENTER DRIVE 7646 CANTON CENTER DR                   000N        CARE OF             
MTR09930700001000000000000000RA              33416942    007500370000003700000520000003NN  NNW 000                       N    
RDG09930700WATRL000000004K00000000000009940001708312015113935N000000000000U44       000080400K 10000000010000009927           
CUS0993070000109096811006         OVERSEAS DISTRIBUTOR7636 CANTON CENTER DR                   000N        CARE OF             
MTR09930700001000000000000000RA              5003373     000800380000003800000410000003NN  NNW 000   FIRE SERVICE        N    
RDG09930700WATRL000000006K00000000000000000001808312015113959S005000000000U44       000240600K 10000000010000000101           
CUS0993070000109096812004         OVERSEAS DISTRIBUTOR7636 CANTON CENTER DR                   000N        CARE OF             
MTR09930700001000000000000000RA              46890555    007500390000003900000520000003NN  NNW 000                       N    
RDG09930700WATRL000000004K00000000000002107001908312015114006N000000000000U44       000070400K 10000000010000002089           
CUS0993070000109373781005         KRK TITLE HOLDER LP 7616 CANTON CENTER DR                   000N        CARE OF             
MTR09930700002000000000000000RA              7045816     000800400000004000000630000003NY  NNW 000   FIRE SERVICE        N    
MTM099307007045816     G/L  N/A  VAC                                                                                          
RDG09930700WATAL000000006K00000000000000000000000000000000000 000000000000U         000000600  10000000010000000004           
RDG09930700WATBL000000006K00000000000000000000000000000000000 000000000000U         000000600  10000000010000000005           
CUS0993070000109373853002         KRK TITLE HOLDER LP 7616 CANTON CENTER DR                   000N        CARE OF             
MTR09930700001000000000000000RA              31588089    001500410000004100000520000003NY  NNW 000                       N    
MTM0993070031588089    G/L  N/A  VAC                                                                                          
RDG09930700WATRL000000005K00000000000000000000000000000000000 000000000000U         000000500  10000000010000028242           
CUS0993070000109096813002         CANTON CENTER ASSOC 7677 CANTON CENTER DR                   000N        CARE OF             
MTR09930700001000000000000000RA              36700301    001500420000004200000520000003NN  NNW 000                       N    
RDG09930700WATRL000000005K00000000000003471002008312015114147N000400000010U44       001010500K 10000000010000003469           
CUS0993070000109096814000         KMART #04330        SWC BALTIMORE & 51ST ST                 000N        CARE OF             
MTR09930700003000000000000000RA              5467234     000800430000004300000480000003NN  NNW 000   FIRE SERVICE        N    
RDG09930700WATAL000000006K00000000000000015002108312015114155N000000000000U44       000080600K 10000000010000000015           
RDG09930700WATBL000000006K00000000000000670002208312015114202N000100000010U44       000070600K 10000000010000000670           
RDG09930700WATCL000000006K00000000000000274002308312015114209N000100000010U44       000070600K 10000000010000000274           
CUS0993070000109096815007         K-MART#04330        SWC BALTIMORE & 51ST ST                 000N        CARE OF             
MTR09930700001000000000000000RA              31588448    000200440000004400000520000003NN  NNW 000                       N    
RDG09930700WATRL000000005K00000000000053952002408312015114214N000000000000U44       000050500K 10000000010000053835           
CUS0993070000109096816005         BOARD OF EDUCATION  SS GOUGH ST 124 FT                      000N        CARE OF             
MTR09930700001000000000000000RA              35116886    000200450000004500000520000003NN  NNW 000                       N    
RDG09930700WATRL000000005K00000000000012850002508312015114223N000400000010U44       000090500K 10000000010000012809           
CUS0993070000109096817003         AGNL CONSOLIDATED LL7100 E BALTIMORE ST                     000N        CARE OF             
MTR09930700002000000000000000RA              4091710     001000460000004600000390000003NY  NNW 000   FIRE SERVICE        N    
MTM099307004091710     CAR                                                                                                    
RDG09930700WATAL000000007K00000000000000000000000000000000000 000000000000U         000000700  10000000010000000000           
RDG09930700WATBL000000007K00000000000000000000000000000000000 000000000000U         000000700  10000000010000000000           
CUS0993070000109096818001         AGNL CONSOLIDATED LL7100 E BALTIMORE ST                     000N        CARE OF             
MTR09930700001000000000000000RA              1183927     000600470000004700000490000003NY  NNW 000                       N    
MTM099307001183927     CAR                                                                                                    
RDG09930700WATRL000000006K00000000000000000000000000000000000 000000000000U         000000600  10000000010000003951           
CUS0993070000109096819009         7014 EAST BALTIMORE 7014 BALTIMORE ST                       000N        CARE OF             
MTR09930700001000000000000000RA              5275703     000800480000004800000410000003NN  NNW 000   FIRE SERVICE        N    
RDG09930700WATRL000000006K00000000000000476002608312015114406N000000000010U44       001030600K 10000000010000000462           
CUS0993070000109096820007         7014 EAST BALTIMORE 7014 BALTIMORE ST                       000N        CARE OF             
MTR09930700001000000000000000RA              01116891    000200490000004900000610000003NN  NNW 000                       N    
RDG09930700WATRL000000005K00000000000003353002708312015114415N000000000000U44       000090500K 10000000010000003267           
CUS0993070000109096821005         BALTO CO PUBLIC SCHO428 WESTHAM WAY                         000N        CARE OF             
MTR09930700001000000000000000RA              9215532     000300500000005000000640000003NN  NNW 000                       N    
RDG09930700WATRL000000005K00000000000001577002808312015114457N000300000010U44       000420500K 10000000010000001554           
CUS0993070000109432670009         BOARD OF EDUCATION O428 WESTHAM WAY                         000N        CARE OF             
MTR09930700002000000000000000RA              70048342    000600510000005100000560000000NN  NNW 000   FIRE SERVICE        N    
RDG09930700WATAL000000006K00000000000000016002908312015114501N000000000000U44       000040600K 10000000010000000016           
RDG09930700WATBL000000006K00000000000000001003008312015114506N000100000010U44       000050600K 10000000010000000001           
CUS0993070000104388836001         WESTERN OILFIELDS SU7677 ROLLING MILL RD                    000N        CARE OF             
MTR09930700001000000000000000RA              36700079    001500520000005200000520000003NN  NNW 000                       N    
RDG09930700WATRL000000005K00000000000006692003108312015114511N000000000000U44       000050500K 10000000010000006655           
RTR09930700NN00650065000000650000000000520052000100NY005200520065001000050000000000000000000001    08102015NY020000 N         
RHD09930900NN00790079000000790000000000580058000023NY005800580079000900050000000000000000000001    08102015NY020000 N         
CUS0993090000106443689002         TBR-MCB EASTPOINT LL7907 EASTERN AVE                        000N        CARE OF             
MTR09930900001000000000000000RA              14928267    007500010000000100000310000003NN  NNW 000                       N    
RDG09930900WATRL000000004K00000000000001655000108312015121946N000300000010N44       000000400K 10000000010000001587           
CUS0993090000108438403001         GEORGE R NORRIS INC 925 MERRITT BLVD                        000N        CARE OF             
MTR09930900001000000000000000RA              0008072     000800020000000200000630000000NN  NNW 000   FERRULE APPLIED     N    
RDG09930900WATRL000000006K00000000000000000000208312015121949S002000000000N44       000030600K 10000000010000005480           
CUS0993090000106443690000         TRP-MCB EASTPOINT LL7907 EASTERN AVE                        000N        CARE OF             
MTR09930900001000000000000000RA              00166065    000100030000000300000570000003NN  NNW 000                       N    
RDG09930900WATRL000000004K00000000000005311000308312015121956N000000000000N44       000070400K 10000000010000005133           
CUS0993090000109096684007         MERRITT MANOR LLC   1131 MERRITT BLVD                       000N        CARE OF             
MTR09930900002000000000000000RA              77897306    000800040000000400000570000003NY  NNW 000   FIRE SERVICE        N    
MTM0993090077897306    OK  ERT                                                                                                
RDG09930900WATAL000000006K00000000000000050000408312015122136N000000000010N44       001000600K 10000000010000000000           
RDG09930900WATBL000000006K00000000000000000000508312015122141N000100000010N44       000050600K 10000000010000000000           
CUS0993090000106443691008         TRP-MCB EASTPOINT LL7905 EASTERN AVE                        000N        CARE OF             
MTR09930900001000000000000000RA              14914820    001500050000000500000310000000NN  NNW 000                       N    
RDG09930900WATRL000000005K00000000000002314000608312015122153N000000000000N44       000120500K 10000000010000002216           
CUS0993090000109096685004         MERRITT MANOR, LLC  1131 MERRITT BLVD                       000N        CARE OF             
MTR09930900001000000000000000RA              78365734    000300060000000600000460000003NY  NNW 000                       N    
MTM0993090078365734    ERT  OK                                                                                                
RDG09930900WATRL000000005K00000000000000562000708312015122239N000000000010N44       000460500K 10000000010000000000           
CUS0993090000109096686002         LICHTMAN HARRY      2807 N POINT RD                         000N        CARE OF             
MTR09930900001000000000000000RA              5125010     000600070000000700000410000003NN  NNW 000   FIRE SERVICE        N    
RDG09930900WATRL000000006K00000000000000000000808312015122324N000000000000N44       000450600K 10000000010000000000           
CUS0993090000109096687000         LICHTMAN HARRY      2807 N POINT RD                         000N        CARE OF             
MTR09930900001000000000000000RA              35100973    007500080000000800000520000003NN  NNW 000                       N    
RDG09930900WATRL000000004K00000000000009968000908312015122334N000300000010N44       000100400K 10000000010000009857           
CUS0993090000109096688008         BYUNG J CHOI        2825 N POINT RD                         000N        CARE OF             
MTR09930900001000000000000000RA              4913607     000600090000000900000410000003NY  NNW 000   FIRE SERVICE        N    
MTM099309004913607     C/O/V                                                                                                  
RDG09930900WATRL000000006K00000000000000000000000000000000000 000000000000U         000000600  10000000010000000044           
CUS0993090000109096689006         BYUNG JOO CHOI      2825 N POINT RD                         000N        CARE OF             
MTR09930900001000000000000000RA              50477726    005800100000001000000520000003NN  NNW 000                       N    
RDG09930900WATRL000000004K00000000000006706001008312015122418N000400000010N44       000440400K 10000000010000006699           
CUS0993090000109096690004         8124 NORRIS LANE LLC8124 NORRIS LN                          000N        CARE OF             
MTR09930900001000000000000000RA              99170757    001500110000001100000570000003NN  NNW 000                       N    
RDG09930900WATRL000000005K00000000000000982001108312015122425N000400000010N44       000070500K 10000000010000000977           
CUS0993090000109096691002         BOBS TRANSPORT AND S8130 NORRIS LN                          000N        CARE OF             
MTR09930900001000000000000000RA              01105640    000200120000001200000610000003NN  NNW 000                       N    
RDG09930900WATRL000000005K00000000000000592001208312015122430N000000000000N44       000050500K 10000000010000000581           
CUS0993090000109096692000         BROWNING-FERRIS INC 8150 TRAPPE RD                          000N        CARE OF             
MTR09930900003000000000000000RA              5649258     000800130000001300000480000003NY  NNW 000   FIRE SERVICE        N    
