FHDNNNN032006610006610006610N                                                                                           020065
RHD04756000NN01960196000001960000000001960196000120NY019601960196000200010000000000000000000001    08122015NY020000 N         
CUS0475600000104135446005         HARTLEY DIANNA J    8413 GREENWAY RD                        000N        CARE OF             
MTR04756000001000000000000000RA              33731567    007500010000000100000520000003NN  NNW 000                       N    
RDG04756000WATRL000000004K00000000000002174000109022015063955N000000000000N40       000000400K 10000000010000002161           
CUS0475600000104135447003         MIHALIK JOSEPH J,TRU8415 GREENWAY RD                        000N        CARE OF             
MTR04756000001000000000000000RA              30526176    007500020000000200000520000003NN  NNW 000                       N    
RDG04756000WATRL000000004K00000000000002982000209022015064036N000000000000N40       000410400K 10000000010000002981           
CUS0475600000104135448001         AMES TIMOTHY J      8417 GREENWAY RD                        000N        CARE OF             
MTR04756000001000000000000000RA              99411630    007500030000000300000570000003NN  NNW 000                       N    
RDG04756000WATRL000000004K00000000000000640000309022015064129N000000000000N40       000530400K 10000000010000000632           
CUS0475600000104135449009         TROY M. PETERS      8419 GREENWAY RD                        000N        CARE OF             
MTR04756000001000000000000000RA              37690473    007500040000000400000520000003NN  NNW 000                       N    
RDG04756000WATRL000000004K00000000000002168000409022015064210N000000000000N40       000410400K 10000000010000002160           
CUS0475600000104135450007         KIM SEON HUI        8421 GREENWAY RD                        000N        CARE OF             
MTR04756000001000000000000000RA              37690471    007500050000000500000520000003NN  NNW 000                       N    
RDG04756000WATRL000000004K00000000000003146000509022015064318N000000000000N40       000680400K 10000000010000003122           
CUS0475600000104135451005         DAVIS KENNETH G     8423 GREENWAY RD                        000N        CARE OF             
MTR04756000001000000000000000RA              37690468    007500060000000600000520000003NN  NNW 000                       N    
RDG04756000WATRL000000004K00000000000002893000609022015064354N000000000000N40       000360400K 10000000010000002844           
CUS0475600000104135452003         BRUBAKER CHARLES H  8425 GREENWAY RD                        000N        CARE OF             
MTR04756000001000000000000000RA              27333391    007500070000000700000520000003NN  NNW 000                       N    
RDG04756000WATRL000000004K00000000000002034000709022015064439N000000000000N40       000450400K 10000000010000002023           
CUS0475600000104135453001         HIGHTOWER CORY D    8427 GREENWAY RD                        000N        CARE OF             
MTR04756000001000000000000000RA              14928326    007500080000000800000310000003NN  NNW 000                       N    
RDG04756000WATRL000000004K00000000000000477000809022015064502N000000000000N40       000230400K 10000000010000000445           
CUS0475600000104135454009         JOHN ROSS PORTER    8429 GREENWAY RD                        000N        CARE OF             
MTR04756000001000000000000000RA              29121749    007500090000000900000520000003NN  NNW 000                       N    
RDG04756000WATRL000000004K00000000000002718000909022015064623N000300000010N40       000810400K 10000000010000002714           
CUS0475600000104135455006         SCOTT R HIATT       8431 GREENWAY RD                        000N        CARE OF             
MTR04756000001000000000000000RA              35113691    007500100000001000000520000003NN  NNW 000                       N    
RDG04756000WATRL000000004K00000000000002585001009022015064700N000000000001N40       000370400K 10000000010000002577           
CUS0475600000104135456004         TURBOT CREEK PROP LL8433 GREENWAY RD                        000N        CARE OF             
MTR04756000001000000000000000RA              99375603    007500110000001100000570000003NN  NNW 000                       N    
RDG04756000WATRL000000004K00000000000000462001109022015064749N000000000000N40       000490400K 10000000010000000426           
CUS0475600000104135457002         YEAGLEY RICHARD B,JR8435 GREENWAY RD                        000N        CARE OF             
MTR04756000001000000000000000RA              00120869    007500120000001200000570000003NN  NNW 000                       N    
RDG04756000WATRL000000004K00000000000001274001209022015064857N000000000000N40       000680400K 10000000010000001242           
CUS0475600000104135458000         DAVID CHIRINOS      1721 EDGEWOOD RD                        000N        CARE OF             
MTR04756000001000000000000000RA              33730447    005800130000001300000520000003NN  NNW 000                       N    
RDG04756000WATRL000000004K00000000000002489001309022015065112N000000000010N40       001350400K 10000000010000002453           
CUS0475600000104135459008         DILONARDO JOANNE C  1723 EDGEWOOD RD                        000N        CARE OF             
MTR04756000001000000000000000RA              42810134    005800140000001400000520000003NN  NNW 000                       N    
RDG04756000WATRL000000004K00000000000000873001409022015065155N000400000010N40       000430400K 10000000010000000872           
CUS0475600000104135460006         BRADY DOUGLAS B,JR  1725 EDGEWOOD RD                        000N        CARE OF             
MTR04756000001000000000000000RA              26013806    005800150000001500000520000003NN  NNW 000                       N    
RDG04756000WATRL000000004K00000000000003495001509022015065200N000000000000N40       000050400K 10000000010000003479           
CUS0475600000104135461004         NELSON WILLIAM B    1727 EDGEWOOD RD                        000N        CARE OF             
MTR04756000001000000000000000RA              24773910    005800160000001600000520000003NN  NNW 000                       N    
RDG04756000WATRL000000004K00000000000004629001609022015065245N000400000010N40       000450400K 10000000010000004628           
CUS0475600000104135462002         BROWN ELIZABETH W   1729 EDGEWOOD RD                        000N        CARE OF             
MTR04756000001000000000000000RA              26007273    005800170000001700000520000003NN  NNW 000                       N    
RDG04756000WATRL000000004K00000000000004880001709022015065254N000100000010N40       000090400K 10000000010000004880           
CUS0475600000104135463000         PHILIP A. WEIMER    1731 EDGEWOOD RD                        000N        CARE OF             
MTR04756000001000000000000000RA              33730416    005800180000001800000520000003NN  NNW 000                       N    
RDG04756000WATRL000000004K00000000000000852001809022015065353N000000000000N40       000590400K 10000000010000000840           
CUS0475600000104135464008         ALLEN CHRISTOPHER L 1733 EDGEWOOD RD                        000N        CARE OF             
MTR04756000001000000000000000RA              23056196    005800190000001900000520000003NN  NNW 000                       N    
RDG04756000WATRL000000004K00000000000003442001909022015065454N000000000000N40       000610400K 10000000010000003431           
CUS0475600000104135465005         GILCHRIST KAREN     1735 EDGEWOOD RD                        000N        CARE OF             
MTR04756000001000000000000000RA              23056180    005800200000002000000520000003NN  NNW 000                       N    
RDG04756000WATRL000000004K00000000000004144002009022015065506N000400000010N40       000120400K 10000000010000004132           
CUS0475600000104135466003         PASKO JOHN J,JR     1737 EDGEWOOD RD                        000N        CARE OF             
MTR04756000001000000000000000RA              29404051    005800210000002100000520000003NN  NNW 000                       N    
RDG04756000WATRL000000004K00000000000004900002109022015065557N000300000010N40       000510400K 10000000010000004868           
CUS0475600000104135467001         BARNES WADE H       1739 EDGEWOOD RD                        000N        CARE OF             
MTR04756000001000000000000000RA              33730448    005800220000002200000520000003NN  NNW 000                       N    
RDG04756000WATRL000000004K00000000000001839002209022015065622N000400000010N40       000250400K 10000000010000001832           
CUS0475600000104135468009         GUTHALL GEORGE J    1741 EDGEWOOD RD                        000N        CARE OF             
MTR04756000001000000000000000RA              23027127    005800230000002300000520000003NN  NNW 000                       N    
RDG04756000WATRL000000004K00000000000003809002309022015065651N000000000000N40       000290400K 10000000010000003791           
CUS0475600000104135469007         STEPHANIE ARCONTI   1701 KENNOWAY RD                        000N        CARE OF             
MTR04756000001000000000000000RA              36699327    007500240000002400000520000003NN  NNW 000                       N    
RDG04756000WATRL000000004K00000000000002389002409022015065753N000000000000N40       000620400K 10000000010000002370           
CUS0475600000104135470005         RICHARDSON LA SHELL 1703 KENNOWAY RD                        000N        CARE OF             
MTR04756000001000000000000000RA              35113674    007500250000002500000520000003NN  NNW 000                       N    
RDG04756000WATRL000000004K00000000000003984002509022015065809N000000000000N40       000160400K 10000000010000003959           
CUS0475600000104135471003         LAUFERSWEILER-HANF N1705 KENNOWAY RD                        000N        CARE OF             
MTR04756000001000000000000000RA              37690004    007500260000002600000520000003NN  NNW 000                       N    
RDG04756000WATRL000000004K00000000000001337002609022015065911N000000000000N40       000620400K 10000000010000001318           
CUS0475600000104135472001         BALDWIN JOEL M      1707 KENNOWAY RD                        000N        CARE OF             
MTR04756000001000000000000000RA              37690005    007500270000002700000520000003NN  NNW 000                       N    
RDG04756000WATRL000000004K00000000000002053002709022015065926N000000000000N40       000150400K 10000000010000002040           
CUS0475600000104135473009         ROANE ADRIANA       1709 KENNOWAY RD                        000N        CARE OF             
MTR04756000001000000000000000RA              99411927    007500280000002800000570000003NN  NNW 000                       N    
RDG04756000WATRL000000004K00000000000000754002809022015070000N000000000000N40       000340400K 10000000010000000740           
CUS0475600000104135474007         PIGOTT NEIL AUSTIN  1711 KENNOWAY RD                        000N        CARE OF             
MTR04756000001000000000000000RA              30001887    007500290000002900000570000003NN  NNW 000                       N    
RDG04756000WATRL000000004K00000000000000332002909022015070019N000000000000N40       000190400K 10000000010000000313           
CUS0475600000104135475004         SULLIVAN SHAWN M    1713 KENNOWAY RD                        000N        CARE OF             
MTR04756000001000000000000000RA              30000686    007500300000003000000570000003NY  NNW 000                       N    
MTM0475600030000686    DONT SEE                                                                                               
RDG04756000WATRL000000004K00000000000000000000000000000000000 000000000000U         000000400  10000000010000000329           
CUS0475600000104135476002         WAGNER LAURA A      1715 KENNOWAY RD                        000N        CARE OF             
MTR04756000001000000000000000RA              37690076    007500310000003100000520000003NN  NNW 000                       N    
RDG04756000WATRL000000004K00000000000002447003009022015070116N000000000000N40       000570400K 10000000010000002436           
CUS0475600000104135477000         MERCHANT MICHAEL L  1717 KENNOWAY RD                        000N        CARE OF             
MTR04756000001000000000000000RA              99411631    007500320000003200000570000003NN  NNW 000                       N    
RDG04756000WATRL000000004K00000000000001405003109022015070324N000000000000N40       001280400K 10000000010000001392           
CUS0475600000104135478008         ROWLAND CHRISTOPHER 1719 KENNOWAY RD                        000N        CARE OF             
MTR04756000001000000000000000RA              24625306    007500330000003300000520000003NN  NNW 000                       N    
RDG04756000WATRL000000004K00000000000002889003209022015070356N000000000000N40       000320400K 10000000010000002869           
CUS0475600000104135479006         SULLIVAN JEFFREY P  1721 KENNOWAY RD                        000N        CARE OF             
MTR04756000001000000000000000RA              01098658    007500340000003400000610000003NN  NNW 000                       N    
RDG04756000WATRL000000004K00000000000000673003309022015070441N000300000010N40       000450400K 10000000010000000633           
CUS0475600000104135480004         SCHUSTER KERSTIN M  1723 KENNOWAY RD                        000N        CARE OF             
MTR04756000001000000000000000RA              37690067    007500350000003500000520000003NN  NNW 000                       N    
RDG04756000WATRL000000004K00000000000001882003409022015070504N000000000000N40       000230400K 10000000010000001876           
CUS0475600000104135481002         SAWICKI JOSEPH C    1716 KENNOWAY RD                        000N        CARE OF             
MTR04756000001000000000000000RA              00120867    007500360000003600000570000003NN  NNW 000                       N    
RDG04756000WATRL000000004K00000000000001187003509022015070553N000000000000N40       000490400K 10000000010000001129           
CUS0475600000104135482000         HAYNES JAMES B      1714 KENNOWAY RD                        000N        CARE OF             
MTR04756000001000000000000000RA              36699326    007500370000003700000520000003NN  NNW 000                       N    
RDG04756000WATRL000000004K00000000000004260003609022015070608N000000000000N40       000150400K 10000000010000004211           
CUS0475600000104135483008         KERFOOT ELLEN A     1712 KENNOWAY RD                        000N        CARE OF             
MTR04756000001000000000000000RA              30528625    007500380000003800000520000003NN  NNW 000                       N    
RDG04756000WATRL000000004K00000000000003237003709022015070643N000000000000N40       000350400K 10000000010000003223           
CUS0475600000104135484006         BENNETT MATTHEW     1710 KENNOWAY RD                        000N        CARE OF             
MTR04756000001000000000000000RA              36699330    007500390000003900000520000003NN  NNW 000                       N    
RDG04756000WATRL000000004K00000000000002775003809022015070712N000000000000N40       000290400K 10000000010000002759           
CUS0475600000104135485003         KELLER DOUGLAS C    1708 KENNOWAY RD                        000N        CARE OF             
MTR04756000001000000000000000RA              27338636    007500400000004000000520000003NN  NNW 000                       N    
RDG04756000WATRL000000004K00000000000002910003909022015070750N000000000000N40       000380400K 10000000010000002905           
CUS0475600000104135486001         BROWN CORNELL S,JR  1706 KENNOWAY RD                        000N        CARE OF             
MTR04756000001000000000000000RA              27333634    007500410000004100000520000003NN  NNW 000                       N    
RDG04756000WATRL000000004K00000000000003087004009022015070843N000000000000N40       000530400K 10000000010000003079           
CUS0475600000104135487009         TILLMAN JOCELYN D   1704 KENNOWAY RD                        000N        CARE OF             
MTR04756000001000000000000000RA              36699332    007500420000004200000520000003NN  NNW 000                       N    
RDG04756000WATRL000000004K00000000000002260004109022015070903N000000000000N40       000200400K 10000000010000002252           
CUS0475600000104135488007         HILL SYLVESTER      1702 KENNOWAY RD                        000N        CARE OF             
MTR04756000001000000000000000RA              74815219    007500430000004300000350000003NN  NNW 000                       N    
RDG04756000WATRL000000004K00000000000000286004209022015070933N000400000010N40       000300400K 10000000010000000276           
CUS0475600000104135489005         WONG LORA H         1700 KENNOWAY RD                        000N        CARE OF             
MTR04756000001000000000000000RA              36699324    007500440000004400000520000003NN  NNW 000                       N    
RDG04756000WATRL000000004K00000000000002326004309022015071003N000000000000N40       000300400K 10000000010000002314           
CUS0475600000104135490003         U.S BANK TRUST N.A  1801 EDGEWOOD RD                        000N        CARE OF             
MTR04756000001000000000000000RA              44174816    005800450000004500000520000003NN  NNW 000                       N    
RDG04756000WATRL000000004K00000000000003513004409022015071126N000100000010N40       000830400K 10000000010000003513           
CUS0475600000104135491001         RUDOLF STEVEN       1803 EDGEWOOD RD                        000N        CARE OF             
MTR04756000001000000000000000RA              14929714    005800460000004600000310000003NN  NNW 000                       N    
RDG04756000WATRL000000004K00000000000000741004509022015071153N000000000000N40       000270400K 10000000010000000698           
CUS0475600000104135492009         NANCY J. BISHOP     1805 EDGEWOOD RD                        000N        CARE OF             
MTR04756000001000000000000000RA              24762907    005800470000004700000520000003NN  NNW 000                       N    
RDG04756000WATRL000000004K00000000000005313004609022015071252N000000000000N40       000590400K 10000000010000005295           
CUS0475600000104135493007         DONNELLY JOSEPH V   1807 EDGEWOOD RD                        000N        CARE OF             
MTR04756000001000000000000000RA              10005628    005800480000004800000570000003NN  NNW 000                       N    
RDG04756000WATRL000000004K00000000000000747004709022015071300N000000000000N40       000080400K 10000000010000000723           
CUS0475600000104135494005         NEWSOME SYLVIA A    1809 EDGEWOOD RD                        000N        CARE OF             
MTR04756000001000000000000000RA              33730387    005800490000004900000520000003NN  NNW 000                       N    
RDG04756000WATRL000000004K00000000000003615004809022015071431N000000000000N40       000910400K 10000000010000003593           
CUS0475600000104135495002         CUTHBERT JONATHAN D 1811 EDGEWOOD RD                        000N        CARE OF             
MTR04756000001000000000000000RA              75617719    005800500000005000000350000003NN  NNW 000                       N    
RDG04756000WATRL000000004K00000000000000120004909022015071451N000000000000N40       000200400K 10000000010000000108           
CUS0475600000104135496000         JACQUELINE D BLINKE 1813 EDGEWOOD RD                        000N        CARE OF             
MTR04756000001000000000000000RA              39584488    005800510000005100000520000003NN  NNW 000                       N    
RDG04756000WATRL000000004K00000000000001123005009022015071531N000000000000N40       000400400K 10000000010000001112           
CUS0475600000104135497008         FREDA KRISTIN M     1815 EDGEWOOD RD                        000N        CARE OF             
MTR04756000001000000000000000RA              50476450    005800520000005200000520000003NN  NNW 000                       N    
RDG04756000WATRL000000004K00000000000001939005109022015071558N000000000000N40       000270400K 10000000010000001923           
CUS0475600000104135498006         PLACK PAUL L,JR     1817 EDGEWOOD RD                        000N        CARE OF             
MTR04756000001000000000000000RA              14907688    005800530000005300000310000003NN  NNW 000                       N    
RDG04756000WATRL000000004K00000000000000513005209022015071602N000000000000N40       000040400K 10000000010000000504           
CUS0475600000104135499004         GAHAGAN JOSEPH L    1819 EDGEWOOD RD                        000N        CARE OF             
MTR04756000001000000000000000RA              27813039    005800540000005400000520000003NN  NNW 000                       N    
RDG04756000WATRL000000004K00000000000003210005309022015071732N000000000000N40       000900400K 10000000010000003205           
CUS0475600000104135500009         BRANTLEY VERONICA   1821 EDGEWOOD RD                        000N        CARE OF             
MTR04756000001000000000000000RA              14907684    005800550000005500000310000003NN  NNW 000                       N    
RDG04756000WATRL000000004K00000000000000848005409022015071735N000000000000N40       000030400K 10000000010000000838           
CUS0475600000104135501007         HAYES THOMAS J,JR   1823 EDGEWOOD RD                        000N        CARE OF             
MTR04756000001000000000000000RA              01107347    005800560000005600000610000003NN  NNW 000                       N    
RDG04756000WATRL000000004K00000000000000579005509022015071828N000000000000N40       000530400K 10000000010000000569           
CUS0475600000104135502005         HERRMAN WILLIAM     1825 EDGEWOOD RD                        000N        CARE OF             
MTR04756000001000000000000000RA              01107346    005800570000005700000610000003NN  NNW 000                       N    
RDG04756000WATRL000000004K00000000000000767005609022015071832N000000000000N40       000040400K 10000000010000000753           
CUS0475600000104135503003         RADOMSKY PATRICK MIC1827 EDGEWOOD RD                        000N        CARE OF             
MTR04756000001000000000000000RA              14902179    005800580000005800000310000003NN  NNW 000                       N    
RDG04756000WATRL000000004K00000000000000989005709022015071918N000000000000N40       000460400K 10000000010000000969           
CUS0475600000104135504001         JOHNSON MICHELLE R  1829 EDGEWOOD RD                        000N        CARE OF             
MTR04756000001000000000000000RA              33083506    005800590000005900000520000003NN  NNW 000                       N    
RDG04756000WATRL000000004K00000000000001404005809022015071925N000000000000N40       000070400K 10000000010000001385           
CUS0475600000104135505008         WIESSNER MARK P     1831 EDGEWOOD RD                        000N        CARE OF             
MTR04756000001000000000000000RA              31583889    005800600000006000000520000003NN  NNW 000                       N    
RDG04756000WATRL000000004K00000000000002767005909022015072021N000000000000N40       000560400K 10000000010000002745           
CUS0475600000104135506006         LEEDY CHARLES A     1833 EDGEWOOD RD                        000N        CARE OF             
MTR04756000001000000000000000RA              54351544    005800610000006100000520000003NN  NNW 000                       N    
RDG04756000WATRL000000004K00000000000001729006009022015072106N000000000000N40       000450400K 10000000010000001717           
CUS0475600000104135507004         BOCIAN STEPHEN ANTHO1835 EDGEWOOD RD                        000N        CARE OF             
MTR04756000001000000000000000RA              33730417    005800620000006200000520000003NN  NNW 000                       N    
RDG04756000WATRL000000004K00000000000002357006109022015072148N000000000000N40       000420400K 10000000010000002346           
CUS0475600000104135508002         HICKSON BRIAN       1837 EDGEWOOD RD                        000N        CARE OF             
MTR04756000001000000000000000RA              50789317    005800630000006300000520000003NN  NNW 000                       N    
RDG04756000WATRL000000004K00000000000001281006209022015072152N000000000000N40       000040400K 10000000010000001266           
CUS0475600000104135509000         MORGAN STEVEN B  MOR1839 EDGEWOOD RD                        000N        CARE OF             
MTR04756000001000000000000000RA              33730339    005800640000006400000520000003NN  NNW 000                       N    
RDG04756000WATRL000000004K00000000000001445006309022015072238N000000000000N40       000460400K 10000000010000001433           
CUS0475600000104135510008         BRADLEY THOMAS JOSEP1841 EDGEWOOD RD                        000N        CARE OF             
MTR04756000001000000000000000RA              99999999    005800650000006500000620000003NN  NNW 000                       N    
RDG04756000WATRL000000004K00000000000001577006409022015072243N000000000000N40       000050400K 10000000010000001561           
CUS0475600000104135511006         KARANI MAXAMED A    1843 EDGEWOOD RD                        000N        CARE OF             
MTR04756000001000000000000000RA              33730473    005800660000006600000520000003NN  NNW 000                       N    
RDG04756000WATRL000000004K00000000000001925006509022015072312N000300000010N40       000290400K 10000000010000001907           
CUS0475600000104135512004         SHAMER KATHERINE A  1845 EDGEWOOD RD                        000N        CARE OF             
MTR04756000001000000000000000RA              33730362    005800670000006700000520000003NN  NNW 000                       N    
RDG04756000WATRL000000004K00000000000003198006609022015072345N000000000001N40       000330400K 10000000010000003168           
CUS0475600000104135513002         DUKE DANA LEE       1847 EDGEWOOD RD                        000N        CARE OF             
MTR04756000001000000000000000RA              40048201    005800680000006800000520000003NN  NNW 000                       N    
RDG04756000WATRL000000004K00000000000003100006709022015072456N000000000000N40       000710400K 10000000010000003070           
CUS0475600000104135514000         ZELLER DANIEL JOSEPH1849 EDGEWOOD RD                        000N        CARE OF             
MTR04756000001000000000000000RA              40048199    005800690000006900000520000003NN  NNW 000                       N    
RDG04756000WATRL000000004K00000000000001792006809022015072520N000400000010N40       000240400K 10000000010000001785           
CUS0475600000104135515007         COYNE MARLENE CZARNE1851 EDGEWOOD RD                        000N        CARE OF             
MTR04756000001000000000000000RA              30515706    005800700000007000000520000003NN  NNW 000                       N    
RDG04756000WATRL000000004K00000000000002459006909022015072653N000300000010N40       000930400K 10000000010000002433           
CUS0475600000104135516005         MORRIS CYNTHIA A    1853 EDGEWOOD RD                        000N        CARE OF             
MTR04756000001000000000000000RA              31580365    005800710000007100000520000003NN  NNW 000                       N    
RDG04756000WATRL000000004K00000000000003149007009022015072700N000000000000N40       000070400K 10000000010000003131           
CUS0475600000104135517003         CARRIE HEATH        1855 EDGEWOOD RD                        000N        CARE OF             
MTR04756000001000000000000000RA              25783928    005800720000007200000520000003NN  NNW 000                       N    
RDG04756000WATRL000000004K00000000000003144007109022015072821N000400000010N40       000810400K 10000000010000003140           
CUS0475600000104135518001         WEAVER ROBERT       1857 EDGEWOOD RD                        000N        CARE OF             
MTR04756000001000000000000000RA              33730475    005800730000007300000520000003NN  NNW 000                       N    
RDG04756000WATRL000000004K00000000000001878007209022015072844N000000000000N40       000230400K 10000000010000001862           
CUS0475600000104135519009         CRUISE NATHAN J     1859 EDGEWOOD RD                        000N        CARE OF             
MTR04756000001000000000000000RA              00139699    005800740000007400000570000003NN  NNW 000                       N    
RDG04756000WATRL000000004K00000000000001824007309022015072938N000000000000N40       000540400K 10000000010000001823           
CUS0475600000104135520007         BAKER JOSEPH A      1861 EDGEWOOD RD                        000N        CARE OF             
MTR04756000001000000000000000RA              00139831    005800750000007500000570000003NN  NNW 000                       N    
RDG04756000WATRL000000004K00000000000002234007409022015072943N000000000000N40       000050400K 10000000010000002203           
CUS0475600000104135521005         VANDERLIP BRIAN     1863 EDGEWOOD RD                        000N        CARE OF             
MTR04756000001000000000000000RA              33730375    005800760000007600000520000003NN  NNW 000                       N    
RDG04756000WATRL000000004K00000000000002365007509022015073032N000300000010N40       000490400K 10000000010000002367           
CUS0475600000104135522003         CAROL DAVIS HAMILTON1865 EDGEWOOD RD                        000N        CARE OF             
MTR04756000001000000000000000RA              33730393    005800770000007700000520000003NN  NNW 000                       N    
RDG04756000WATRL000000004K00000000000001156007609022015073037N000000000000N40       000050400K 10000000010000001156           
CUS0475600000104135523001         BROMWELL EDWARD,JR  1867 EDGEWOOD RD                        000N        CARE OF             
MTR04756000001000000000000000RA              33730420    005800780000007800000520000003NN  NNW 000                       N    
RDG04756000WATRL000000004K00000000000002289007709022015073135N000400000010N40       000580400K 10000000010000002286           
CUS0475600000104135524009         KIRKLEY MATTHEW     1869 EDGEWOOD RD                        000N        CARE OF             
MTR04756000001000000000000000RA              33730232    005800790000007900000520000003NN  NNW 000                       N    
RDG04756000WATRL000000004K00000000000003164007809022015073326N000000000000N40       001110400K 10000000010000003150           
CUS0475600000104135525006         ROSSBACH KEVIN P,2ND1871 EDGEWOOD RD                        000N        CARE OF             
MTR04756000001000000000000000RA              33730196    005800800000008000000520000003NN  NNW 000                       N    
RDG04756000WATRL000000004K00000000000001360007909022015073419N000000000000N40       000530400K 10000000010000001349           
CUS0475600000104135526004         COURTNEY S MITCHELL 1873 EDGEWOOD RD                        000N        CARE OF             
MTR04756000001000000000000000RA              33730246    005800810000008100000520000003NN  NNW 000                       N    
RDG04756000WATRL000000004K00000000000002254008009022015073426N000000000000N40       000070400K 10000000010000002236           
CUS0475600000104135527002         BURKE DORIS H       1875 EDGEWOOD RD                        000N        CARE OF             
MTR04756000001000000000000000RA              46882731    005800820000008200000520000003NN  NNW 000                       N    
RDG04756000WATRL000000004K00000000000000944008109022015073511N000000000000N40       000450400K 10000000010000000939           
CUS0475600000104135528000         BENEDICT ROBERT J   1877 EDGEWOOD RD                        000N        CARE OF             
MTR04756000001000000000000000RA              48593380    005800830000008300000520000003NN  NNW 000                       N    
RDG04756000WATRL000000004K00000000000002046008209022015073515N000000000000N40       000040400K 10000000010000002026           
CUS0475600000104135529008         BRIAN K CLEGG       1879 EDGEWOOD RD                        000N        CARE OF             
MTR04756000001000000000000000RA              33730158    005800840000008400000520000003NN  NNW 000                       N    
RDG04756000WATRL000000004K00000000000002612008309022015073603N000000000000N40       000480400K 10000000010000002604           
CUS0475600000104135530006         BAKER WARREN W      1881 EDGEWOOD RD                        000N        CARE OF             
MTR04756000001000000000000000RA              33730251    005800850000008500000520000003NN  NNW 000                       N    
RDG04756000WATRL000000004K00000000000002158008409022015073641N000000000000N40       000380400K 10000000010000002158           
CUS0475600000104135531004         DREHER JOANNE L     1883 EDGEWOOD RD                        000N        CARE OF             
MTR04756000001000000000000000RA              33730228    005800860000008600000520000003NN  NNW 000                       N    
RDG04756000WATRL000000004K00000000000003882008509022015073739N000000000000N40       000580400K 10000000010000003863           
CUS0475600000104135532002         HUNTER DAVID LAISURE1885 EDGEWOOD RD                        000N        CARE OF             
MTR04756000001000000000000000RA              33730474    005800870000008700000520000003NN  NNW 000                       N    
RDG04756000WATRL000000004K00000000000002957008609022015073755N000000000000N40       000160400K 10000000010000002949           
CUS0475600000104135533000         HALL MATTHEW        1921 EDGEWOOD RD                        000N        CARE OF             
MTR04756000001000000000000000RA              29684675    005800880000008800000520000003NN  NNW 000                       N    
RDG04756000WATRL000000004K00000000000002208008709022015073917N000000000000N40       000820400K 10000000010000002198           
CUS0475600000104135534008         REID G RIGHAM       1923 EDGEWOOD RD                        000N        CARE OF             
MTR04756000001000000000000000RA              40049531    005800890000008900000520000003NN  NNW 000                       N    
RDG04756000WATRL000000004K00000000000000939008809022015073926N000300000010N40       000090400K 10000000010000000928           
CUS0475600000104135535005         HOLLEY MATT         1925 EDGEWOOD RD                        000N        CARE OF             
MTR04756000001000000000000000RA              33730449    005800900000009000000520000003NN  NNW 000                       N    
RDG04756000WATRL000000004K00000000000002061008909022015074012N000000000000N40       000460400K 10000000010000002042           
CUS0475600000104135536003         MILLER PATRICIA C   1927 EDGEWOOD RD                        000N        CARE OF             
MTR04756000001000000000000000RA              32771495    005800910000009100000520000003NN  NNW 000                       N    
RDG04756000WATRL000000004K00000000000002541009009022015074106N000000000000N40       000540400K 10000000010000002536           
CUS0475600000104135537001         ROTH TIMOTHY P      1929 EDGEWOOD RD                        000N        CARE OF             
MTR04756000001000000000000000RA              33730229    005800920000009200000520000003NN  NNW 000                       N    
RDG04756000WATRL000000004K00000000000001848009109022015074200N000000000000N40       000540400K 10000000010000001840           
CUS0475600000104135538009         IAN HAUPT           1931 EDGEWOOD RD                        000N        CARE OF             
MTR04756000001000000000000000RA              33730388    005800930000009300000520000003NN  NNW 000                       N    
RDG04756000WATRL000000004K00000000000003359009209022015074205N000000000000N40       000050400K 10000000010000003338           
CUS0475600000104135539007         RODOLFO M GOMES     1937 EDGEWOOD RD                        000N        CARE OF             
MTR04756000001000000000000000RA              46889600    007500940000009400000520000003NN  NNW 000                       N    
RDG04756000WATRL000000004K00000000000001530009309022015074408N000000000000N40       001230400K 10000000010000001492           
CUS0475600000104135540005         HAWKINS RUSSELL LEE 1939 EDGEWOOD RD                        000N        CARE OF             
MTR04756000001000000000000000RA              9693097     007500950000009500000570000003NN  NNW 000                       N    
RDG04756000WATRL000000004K00000000000004052009409022015074440N000000000000N40       000320400K 10000000010000004029           
CUS0475600000104135541003         MONTAGUE TAVON D    1941 EDGEWOOD RD                        000N        CARE OF             
MTR04756000001000000000000000RA              43904503    007500960000009600000520000003NN  NNW 000                       N    
RDG04756000WATRL000000004K00000000000001585009509022015074528N000000000000N40       000480400K 10000000010000001563           
CUS0475600000104135542001         FANARAS STANLEY     1943 EDGEWOOD RD                        000N        CARE OF             
MTR04756000001000000000000000RA              43904159    007500970000009700000520000003NN  NNW 000                       N    
RDG04756000WATRL000000004K00000000000002585009709022015074703N000000000000N40       000350400K 10000000010000002585           
CUS0475600000104135543009         FREINBERG SCOTT     1945 EDGEWOOD RD                        000N        CARE OF             
MTR04756000001000000000000000RA              25448384    007500980000009800000520000003NN  NNW 000                       N    
RDG04756000WATRL000000004K00000000000004645009609022015074628N000000000000N40       000600400K 10000000010000004631           
CUS0475600000104135544007         RUSSELL BRENDAN M   1947 EDGEWOOD RD                        000N        CARE OF             
MTR04756000001000000000000000RA              37690210    007500990000009900000520000003NN  NNW 000                       N    
RDG04756000WATRL000000004K00000000000003522009809022015074731N000000000000N40       000280400K 10000000010000003508           
CUS0475600000104135545004         MISKIMON ROBERT SCOT1910 GLEN KEITH BLVD                    000N        CARE OF             
MTR04756000001000000000000000RA              30000629    007501000000010000000570000003NN  NNW 000                       N    
RDG04756000WATRL000000004K00000000000000232009909022015074811N000000000000N40       000400400K 10000000010000000225           
CUS0475600000104135546002         HOWARD F LAMBORN    1908 GLEN KEITH BLVD                    000N        CARE OF             
MTR04756000001000000000000000RA              39080430    007501010000010100000520000003NN  NNW 000                       N    
RDG04756000WATRL000000004K00000000000002617010009022015074833N000000000000N40       000220400K 10000000010000002594           
CUS0475600000104135547000         ABBOTT GERARD R     1906 GLEN KEITH BLVD                    000N        CARE OF             
MTR04756000001000000000000000RA              78028157    007501020000010200000350000003NN  NNW 000                       N    
RDG04756000WATRL000000004K00000000000000024010109022015074904N000000000000N40       000310400K 10000000010000000018           
CUS0475600000104135548008         BOSSLE PAUL C       1904 GLEN KEITH BLVD                    000N        CARE OF             
MTR04756000001000000000000000RA              52292578    007501030000010300000520000003NN  NNW 000                       N    
RDG04756000WATRL000000004K00000000000001439010209022015075004N000000000000N40       000600400K 10000000010000001413           
CUS0475600000104135549006         SMITH MICHAEL JOSEPH1902 GLEN KEITH BLVD                    000N        CARE OF             
MTR04756000001000000000000000RA              99411653    007501040000010400000570000003NN  NNW 000                       N    
RDG04756000WATRL000000004K00000000000001663010309022015075038N000000000000N40       000340400K 10000000010000001648           
CUS0475600000104135550004         TAMESHA TOWNSEND    1900 GLEN KEITH BLVD                    000N        CARE OF             
MTR04756000001000000000000000RA              01098294    007501050000010500000610000003NN  NNW 000                       N    
RDG04756000WATRL000000004K00000000000000215010409022015075105N000000000000N40       000270400K 10000000010000000206           
CUS0475600000104135551002         JEDEDIAH MCCORMICK  1966 EDGEWOOD RD                        000N        CARE OF             
MTR04756000001000000000000000RA              99411652    005801060000010600000570000003NN  NNW 000                       N    
RDG04756000WATRL000000004K00000000000000291010509022015075621N000000000000N40       003160400K 10000000010000000282           
CUS0475600000104135552000         MANGANILLO QING     1964 EDGEWOOD RD                        000N        CARE OF             
MTR04756000001000000000000000RA              43904105    007501070000010700000520000003NN  NNW 000                       N    
RDG04756000WATRL000000004K00000000000001435010609022015075649N000000000000N40       000280400K 10000000010000001413           
CUS0475600000104135553008         COLE GARY E         1962 EDGEWOOD RD                        000N        CARE OF             
MTR04756000001000000000000000RA              31345800    007501080000010800000520000003NN  NNW 000                       N    
RDG04756000WATRL000000004K00000000000003470010709022015075726N000000000010N40       000370400K 10000000010000003388           
CUS0475600000104135554006         WHITNEY LOUIS C/WHIT1960 EDGEWOOD RD                        000N        CARE OF             
MTR04756000001000000000000000RA              99411650    007501090000010900000570000003NN  NNW 000                       N    
RDG04756000WATRL000000004K00000000000000353010809022015075820N000000000010N40       000540400K 10000000010000000347           
CUS0475600000104135555003         FORREY SHANE        1958 EDGEWOOD RD                        000N        CARE OF             
MTR04756000001000000000000000RA              27893433    007501100000011000000520000003NN  NNW 000                       N    
RDG04756000WATRL000000004K00000000000001749010909022015075906N000000000000N40       000460400K 10000000010000001730           
CUS0475600000104135556001         MERRILL CHRIS       1956 EDGEWOOD RD                        000N        CARE OF             
MTR04756000001000000000000000RA              27065207    007501110000011100000520000003NN  NNW 000                       N    
RDG04756000WATRL000000004K00000000000003126011009022015075937N000300000010N40       000310400K 10000000010000003112           
CUS0475600000104135557009         BAKER JOSEPH E      1954 EDGEWOOD RD                        000N        CARE OF             
MTR04756000001000000000000000RA              35100711    007501120000011200000520000003NN  NNW 000                       N    
RDG04756000WATRL000000004K00000000000002231011109022015080011N000000000000N40       000340400K 10000000010000002216           
CUS0475600000104135558007         FAZIO JOSEPH F,JR   1952 EDGEWOOD RD                        000N        CARE OF             
MTR04756000001000000000000000RA              26795963    007501130000011300000520000003NN  NNW 000                       N    
RDG04756000WATRL000000004K00000000000002393011209022015080032N000000000000N40       000210400K 10000000010000002388           
CUS0475600000104135559005         LAKE RICHARD        1950 EDGEWOOD RD                        000N        CARE OF             
MTR04756000001000000000000000RA              26795959    007501140000011400000520000003NN  NNW 000                       N    
RDG04756000WATRL000000004K00000000000002929011309022015080101N000000000000N40       000290400K 10000000010000002894           
CUS0475600000104135560003         MARROW ANGELA PIERRE1948 EDGEWOOD RD                        000N        CARE OF             
MTR04756000001000000000000000RA              43904492    007501150000011500000520000003NN  NNW 000                       N    
RDG04756000WATRL000000004K00000000000002121011409022015080133N000000000000N40       000320400K 10000000010000002106           
CUS0475600000104135561001         SIMONS JANET        1946 EDGEWOOD RD                        000N        CARE OF             
MTR04756000001000000000000000RA              35105319    007501160000011600000520000003NN  NNW 000                       N    
RDG04756000WATRL000000004K00000000000001333011509022015080200N000000000000N40       000270400K 10000000010000001329           
CUS0475600000104135562009         SCHOR ALEXANDER     1944 EDGEWOOD RD                        000N        CARE OF             
MTR04756000001000000000000000RA              46889357    007501170000011700000520000003NN  NNW 000                       N    
RDG04756000WATRL000000004K00000000000001833011609022015080221N000000000000N40       000210400K 10000000010000001817           
CUS0475600000104135563007         SHER JAVIN          1942 EDGEWOOD RD                        000N        CARE OF             
MTR04756000001000000000000000RA              30000639    007501180000011800000570000003NN  NNW 000                       N    
RDG04756000WATRL000000004K00000000000000356011709022015080252N000000000000N40       000310400K 10000000010000000329           
CUS0475600000104135564005         FAISON MICHELLE     1940 EDGEWOOD RD                        000N        CARE OF             
MTR04756000001000000000000000RA              00118985    007501190000011900000570000003NN  NNW 000                       N    
RDG04756000WATRL000000004K00000000000002221011809022015080316N000000000000N40       000240400K 10000000010000002219           
CUS0475600000104135565002         LONDON TONYA L      1938 EDGEWOOD RD                        000N        CARE OF             
MTR04756000001000000000000000RA              41089464    007501200000012000000520000003NN  NNW 000                       N    
RDG04756000WATRL000000004K00000000000002676011909022015080349N000000000000N40       000330400K 10000000010000002660           
CUS0475600000104135566000         VOELKER BRUCE T     1936 EDGEWOOD RD                        000N        CARE OF             
MTR04756000001000000000000000RA              99411654    007501210000012100000570000003NN  NNW 000                       N    
RDG04756000WATRL000000004K00000000000001065012009022015080423N000000000000N40       000340400K 10000000010000001051           
CUS0475600000104135567008         WELLS FARGO HOME MOR1934 EDGEWOOD RD                        000N        CARE OF             
MTR04756000001000000000000000RA              28766817    007501220000012200000520000003NN  NNW 000                       N    
RDG04756000WATRL000000004K00000000000002490012109022015080502N000000000000N40       000390400K 10000000010000002490           
CUS0475600000104135568006         RICHARDSON SHEILA L 1932 EDGEWOOD RD                        000N        CARE OF             
MTR04756000001000000000000000RA              28766818    007501230000012300000520000003NN  NNW 000                       N    
RDG04756000WATRL000000004K00000000000001594012209022015080529N000300000010N40       000270400K 10000000010000001584           
CUS0475600000104135569004         BEVANS ROBERT C,SR  1930 EDGEWOOD RD                        000N        CARE OF             
MTR04756000001000000000000000RA              33730394    005801240000012400000520000003NN  NNW 000                       N    
RDG04756000WATRL000000004K00000000000003198012309022015080604N000000000000N40       000350400K 10000000010000003183           
CUS0475600000104135570002         KLEIN CARL W,JR     1928 EDGEWOOD RD                        000N        CARE OF             
MTR04756000001000000000000000RA              24758977    005801250000012500000520000003NN  NNW 000                       N    
RDG04756000WATRL000000004K00000000000002194012409022015080637N000000000000N40       000330400K 10000000010000002194           
CUS0475600000104135571000         LANGAN JOHN J,JR    1926 EDGEWOOD RD                        000N        CARE OF             
MTR04756000001000000000000000RA              33730391    005801260000012600000520000003NN  NNW 000                       N    
RDG04756000WATRL000000004K00000000000003100012509022015080639N000000000000N40       000020400K 10000000010000003075           
CUS0475600000104135572008         SNYDER TIARRA C     1924 EDGEWOOD RD                        000N        CARE OF             
MTR04756000001000000000000000RA              33730341    005801270000012700000520000003NN  NNW 000                       N    
RDG04756000WATRL000000004K00000000000002661012609022015080702N000000000000N40       000230400K 10000000010000002649           
CUS0475600000104135573006         MCCULLY JENNIFER C  1922 EDGEWOOD RD                        000N        CARE OF             
MTR04756000001000000000000000RA              33730363    005801280000012800000520000003NN  NNW 000                       N    
RDG04756000WATRL000000004K00000000000001304012709022015080708N000000000000N40       000060400K 10000000010000001288           
CUS0475600000104135574004         CANTELA ANGELINA    1920 EDGEWOOD RD                        000N        CARE OF             
MTR04756000001000000000000000RA              33730392    005801290000012900000520000003NN  NNW 000                       N    
RDG04756000WATRL000000004K00000000000001950012809022015080739N000000000000N40       000310400K 10000000010000001938           
CUS0475600000104135575001         MATTHEWS KEITH D    1918 EDGEWOOD RD                        000N        CARE OF             
MTR04756000001000000000000000RA              14907681    005801300000013000000310000003NN  NNW 000                       N    
RDG04756000WATRL000000004K00000000000000751012909022015080833N000000000000N40       000540400K 10000000010000000740           
CUS0475600000104135576009         FREINBERG SCOTT     1916 EDGEWOOD RD                        000N        CARE OF             
MTR04756000001000000000000000RA              76344674    005801310000013100000350000003NN  NNW 000                       N    
RDG04756000WATRL000000004K00000000000000130013009022015080842N000300000010N40       000090400K 10000000010000000103           
CUS0475600000104135577007         EHMAN RAE M         1914 EDGEWOOD RD                        000N        CARE OF             
MTR04756000001000000000000000RA              26014869    005801320000013200000520000003NN  NNW 000                       N    
RDG04756000WATRL000000004K00000000000002654013109022015080928N000000000000N40       000460400K 10000000010000002640           
CUS0475600000104135578005         SHUCOSKY ANTHONY C J1912 EDGEWOOD RD                        000N        CARE OF             
MTR04756000001000000000000000RA              26014838    005801330000013300000520000003NN  NNW 000                       N    
RDG04756000WATRL000000004K00000000000005342013209022015080935N000000000000N40       000070400K 10000000010000005325           
CUS0475600000104135579003         CARTER MARYANN J    1910 EDGEWOOD RD                        000N        CARE OF             
MTR04756000001000000000000000RA              27833414    005801340000013400000520000003NN  NNW 000                       N    
RDG04756000WATRL000000004K00000000000004321013309022015081015N000000000000N40       000400400K 10000000010000004309           
CUS0475600000104135580001         PEALS ROBERT,JR     1908 EDGEWOOD RD                        000N        CARE OF             
MTR04756000001000000000000000RA              31583897    005801350000013500000520000003NN  NNW 000                       N    
RDG04756000WATRL000000004K00000000000004129013409022015081059N000300000010N40       000440400K 10000000010000004090           
CUS0475600000104135581009         WAUGH DYLAN  WAUGH G1906 EDGEWOOD RD                        000N        CARE OF             
MTR04756000001000000000000000RA              52285039    005801360000013600000520000003NN  NNW 000                       N    
RDG04756000WATRL000000004K00000000000001270013509022015081107N000000000000N40       000080400K 10000000010000001246           
CUS0475600000104135582007         MORRIS EDWIN L      1904 EDGEWOOD RD                        000N        CARE OF             
MTR04756000001000000000000000RA              33730374    005801370000013700000520000003NN  NNW 000                       N    
RDG04756000WATRL000000004K00000000000002440013609022015081155N000000000000N40       000480400K 10000000010000002419           
CUS0475600000104135583005         BAGDON FRANK JOHN,JR1902 EDGEWOOD RD                        000N        CARE OF             
MTR04756000001000000000000000RA              33730386    005801380000013800000520000003NN  NNW 000                       N    
RDG04756000WATRL000000004K00000000000004525013709022015081159N000000000000N40       000040400K 10000000010000004509           
CUS0475600000104135584003         MOULDEN CARL R      1890 EDGEWOOD RD                        000N        CARE OF             
MTR04756000001000000000000000RA              23057478    005801390000013900000520000003NN  NNW 000                       N    
RDG04756000WATRL000000004K00000000000003638013809022015081250N000000000000N40       000510400K 10000000010000003618           
CUS0475600000104135585000         WHEELER HOLLY ANN   1888 EDGEWOOD RD                        000N        CARE OF             
MTR04756000001000000000000000RA              11426767    005801400000014000000570000003NN  NNW 000                       N    
RDG04756000WATRL000000004K00000000000000000013909022015081305S001000000000N40       000150400K 10000000010000003224           
CUS0475600000104135586008         TODD W MOORE        1886 EDGEWOOD RD                        000N        CARE OF             
MTR04756000001000000000000000RA              33730209    005801410000014100000520000003NN  NNW 000                       N    
RDG04756000WATRL000000004K00000000000002794014009022015081354N000000000000N40       000490400K 10000000010000002781           
CUS0475600000104135587006         TRESSA L. ALLISON   1884 EDGEWOOD RD                        000N        CARE OF             
MTR04756000001000000000000000RA              54350908    005801420000014200000520000003NN  NNW 000                       N    
RDG04756000WATRL000000004K00000000000001746014109022015081401N000000000000N40       000070400K 10000000010000001735           
CUS0475600000104135588004         DURAND BETHANY J    1882 EDGEWOOD RD                        000N        CARE OF             
MTR04756000001000000000000000RA              32177413    005801430000014300000520000003NN  NNW 000                       N    
RDG04756000WATRL000000004K00000000000002435014209022015081457N000000000000N40       000560400K 10000000010000002429           
CUS0475600000104135589002         BENJAMIN DELISLE    1880 EDGEWOOD RD                        000N        CARE OF             
MTR04756000001000000000000000RA              32177415    005801440000014400000520000003NN  NNW 000                       N    
RDG04756000WATRL000000004K00000000000002909014309022015081505N000000000000N40       000080400K 10000000010000002895           
CUS0475600000104135590000         BACON-MEISTER LAURIE1878 EDGEWOOD RD                        000N        CARE OF             
MTR04756000001000000000000000RA              33730342    005801450000014500000520000003NN  NNW 000                       N    
RDG04756000WATRL000000004K00000000000002091014409022015081540N000000000000N40       000350400K 10000000010000002083           
CUS0475600000104135591008         MATTHEWS VIRGINIA   1876 EDGEWOOD RD                        000N        CARE OF             
MTR04756000001000000000000000RA              10002357    005801460000014600000570000003NN  NNW 000                       N    
RDG04756000WATRL000000004K00000000000000431014509022015081610N000000000000N40       000300400K 10000000010000000412           
CUS0475600000104135592006         CAMPBELL PAMELA ANN 1874 EDGEWOOD RD                        000N        CARE OF             
MTR04756000001000000000000000RA              33730446    005801470000014700000520000003NN  NNW 000                       N    
RDG04756000WATRL000000004K00000000000001392014609022015081616N000000000000N40       000060400K 10000000010000001384           
CUS0475600000104135593004         BAILEY HERMAN S     1872 EDGEWOOD RD                        000N        CARE OF             
MTR04756000001000000000000000RA              33730395    005801480000014800000520000003NN  NNW 000                       N    
RDG04756000WATRL000000004K00000000000002365014709022015081722N000300000021N40       000130400K 10000000010000002356           
CUS0475600000104135594002         FLATLEY JOHN W      1870 EDGEWOOD RD                        000N        CARE OF             
MTR04756000001000000000000000RA              46875257    005801490000014900000520000003NN  NNW 000                       N    
RDG04756000WATRL000000004K00000000000001690014809022015081727N000000000000N40       000050400K 10000000010000001673           
CUS0475600000104135595009         REESE DORIS W       1868 EDGEWOOD RD                        000N        CARE OF             
MTR04756000001000000000000000RA              33730389    005801500000015000000520000003NN  NNW 000                       N    
RDG04756000WATRL000000004K00000000000002015014909022015081758N000300000010N40       000310400K 10000000010000002006           
CUS0475600000104135596007         FAY HELEN P         1866 EDGEWOOD RD                        000N        CARE OF             
MTR04756000001000000000000000RA              10004124    005801510000015100000570000003NN  NNW 000                       N    
RDG04756000WATRL000000004K00000000000000001015009022015081834N000100000010N40       000360400K 10000000010000000001           
CUS0475600000104135597005         WATERS MARILYN W    1864 EDGEWOOD RD                        000N        CARE OF             
MTR04756000001000000000000000RA              14912179    005801520000015200000310000003NN  NNW 000                       N    
RDG04756000WATRL000000004K00000000000001779015109022015081904N000000000000N40       000300400K 10000000010000001742           
CUS0475600000104135598003         ATKINSON LESLEY S   1862 EDGEWOOD RD                        000N        CARE OF             
MTR04756000001000000000000000RA              14912224    005801530000015300000310000003NN  NNW 000                       N    
RDG04756000WATRL000000004K00000000000001400015209022015081907N000000000000N40       000030400K 10000000010000001369           
CUS0475600000104135599001         BARKSDALE MICHAEL   1860 EDGEWOOD RD                        000N        CARE OF             
MTR04756000001000000000000000RA              23056195    005801540000015400000520000003NN  NNW 000                       N    
RDG04756000WATRL000000004K00000000000002990015309022015081944N000000000000N40       000370400K 10000000010000002966           
CUS0475600000104135600007         BEATTIE JEREMIAH C  1858 EDGEWOOD RD                        000N        CARE OF             
MTR04756000001000000000000000RA              01092813    005801550000015500000610000000NN  NNW 000                       N    
RDG04756000WATRL000000004K00000000000002032015409022015081947N000000000000N40       000030400K 10000000010000001986           
CUS0475600000104135601005         TARBERT PATRICIA A  1856 EDGEWOOD RD                        000N        CARE OF             
MTR04756000001000000000000000RA              41258800    005801560000015600000520000003NN  NNW 000                       N    
RDG04756000WATRL000000004K00000000000002694015509022015082021N000000000000N40       000340400K 10000000010000002683           
CUS0475600000104135602003         ZOLLICOFFER THELMA A1854 EDGEWOOD RD                        000N        CARE OF             
MTR04756000001000000000000000RA              14912174    005801570000015700000310000003NN  NNW 000                       N    
RDG04756000WATRL000000004K00000000000000399015609022015082112N000000000000N40       000510400K 10000000010000000393           
CUS0475600000104135603001         SHEESLEY HARRY J    1852 EDGEWOOD RD                        000N        CARE OF             
MTR04756000001000000000000000RA              14912178    005801580000015800000310000003NN  NNW 000                       N    
RDG04756000WATRL000000004K00000000000000486015709022015082202N000000000000N40       000500400K 10000000010000000472           
CUS0475600000104135604009         BUTTON ALVINA O     1850 EDGEWOOD RD                        000N        CARE OF             
MTR04756000001000000000000000RA              14912175    005801590000015900000310000003NN  NNW 000                       N    
RDG04756000WATRL000000004K00000000000000506015809022015082209N000100000010N40       000070400K 10000000010000000506           
CUS0475600000104135605006         GIBSON CYNTHIA ANN  1848 EDGEWOOD RD                        000N        CARE OF             
MTR04756000001000000000000000RA              14912177    005801600000016000000310000003NN  NNW 000                       N    
RDG04756000WATRL000000004K00000000000000499015909022015082233N000000000000N40       000240400K 10000000010000000499           
CUS0475600000104135606004         KLINE DAWN M        1846 EDGEWOOD RD                        000N        CARE OF             
MTR04756000001000000000000000RA              14912176    005801610000016100000310000003NN  NNW 000                       N    
RDG04756000WATRL000000004K00000000000001381016009022015082238N000000000000N40       000050400K 10000000010000001359           
CUS0475600000104135607002         JUNG BERTHOLD       1844 EDGEWOOD RD                        000N        CARE OF             
MTR04756000001000000000000000RA              33730781    005801620000016200000520000003NY  NNW 000                       N    
MTM0475600033730781    DONT SEE                                                                                               
RDG04756000WATRL000000004K00000000000000000000000000000000000 000000000000U         000000400  10000000010000002609           
CUS0475600000104135608000         NORMAN PAUL W       1842 EDGEWOOD RD                        000N        CARE OF             
MTR04756000001000000000000000RA              33730774    005801630000016300000520000003NN  NNW 000                       N    
RDG04756000WATRL000000004K00000000000002903016109022015082451N000300000010N40       001330400K 10000000010000002877           
CUS0475600000104135609008         DAVID ASHER         1840 EDGEWOOD RD                        000N        CARE OF             
MTR04756000001000000000000000RA              00129581    005801640000016400000570000003NN  NNW 000                       N    
RDG04756000WATRL000000004K00000000000000792016209022015082611N000000000000N40       000800400K 10000000010000000776           
CUS0475600000104135610006         HODGIN WILLIAM M,JR 1838 EDGEWOOD RD                        000N        CARE OF             
MTR04756000001000000000000000RA              00129584    005801650000016500000570000003NN  NNW 000                       N    
RDG04756000WATRL000000004K00000000000000669016309022015082617N000000000000N40       000060400K 10000000010000000662           
CUS0475600000104135611004         CREWS EBONY JEWEL   1836 EDGEWOOD RD                        000N        CARE OF             
MTR04756000001000000000000000RA              46886990    005801660000016600000520000003NN  NNW 000                       N    
RDG04756000WATRL000000004K00000000000001563016409022015082649N000000000000N40       000320400K 10000000010000001549           
CUS0475600000104135612002         VAZQUEZ ISABEL C    1834 EDGEWOOD RD                        000N        CARE OF             
MTR04756000001000000000000000RA              32903135    005801670000016700000520000003NN  NNW 000                       N    
RDG04756000WATRL000000004K00000000000002045016509022015082654N000400000010N40       000050400K 10000000010000002044           
CUS0475600000104135613000         KOKONAS CHRIS & PATR1832 EDGEWOOD RD                        000N        CARE OF             
MTR04756000001000000000000000RA              33730791    005801680000016800000520000003NN  NNW 000                       N    
RDG04756000WATRL000000004K00000000000002105016609022015082725N000000000000N40       000310400K 10000000010000002091           
CUS0475600000104135614008         NAFT ANDREA         1830 EDGEWOOD RD                        000N        CARE OF             
MTR04756000001000000000000000RA              45378362    005801690000016900000520000003NN  NNW 000                       N    
RDG04756000WATRL000000004K00000000000001709016709022015082912N000000000010N40       001070400K 10000000010000001667           
CUS0475600000104135615005         BRANDT HOLLY ANNE   1828 EDGEWOOD RD                        000N        CARE OF             
MTR04756000001000000000000000RA              33730796    005801700000017000000520000003NN  NNW 000                       N    
RDG04756000WATRL000000004K00000000000001705016809022015082946N000000000000N40       000340400K 10000000010000001670           
CUS0475600000104135616003         SALTER JULIETTE S   1826 EDGEWOOD RD                        000N        CARE OF             
MTR04756000001000000000000000RA              10004125    005801710000017100000570000003NN  NNW 000                       N    
RDG04756000WATRL000000004K00000000000000002016909022015082951N000100000010N40       000050400K 10000000010000000002           
CUS0475600000104135617001         TAYLOR LAURENCE ROLA1824 EDGEWOOD RD                        000N        CARE OF             
MTR04756000001000000000000000RA              52770780    005801720000017200000520000003NN  NNW 000                       N    
RDG04756000WATRL000000004K00000000000000637017009022015083031N000100000010N40       000400400K 10000000010000000637           
CUS0475600000104135618009         GEORGE ANITA G      1822 EDGEWOOD RD                        000N        CARE OF             
MTR04756000001000000000000000RA              00139830    005801730000017300000570000003NN  NNW 000                       N    
RDG04756000WATRL000000004K00000000000000853017109022015083046N000400000010N40       000150400K 10000000010000000846           
CUS0475600000104135619007         FERTITTA NANCY JEAN 1820 EDGEWOOD RD                        000N        CARE OF             
MTR04756000001000000000000000RA              99287513    005801740000017400000570000003NN  NNW 000                       N    
RDG04756000WATRL000000004K00000000000000541017209022015083118N000000000000N40       000320400K 10000000010000000535           
CUS0475600000104135620005         SHOCK JOSEPH F      1818 EDGEWOOD RD                        000N        CARE OF             
MTR04756000001000000000000000RA              33730770    005801750000017500000520000003NN  NNW 000                       N    
RDG04756000WATRL000000004K00000000000002450017309022015083150N000000000000N40       000320400K 10000000010000002428           
CUS0475600000104135621003         COWAN JAMESON       1816 EDGEWOOD RD                        000N        CARE OF             
MTR04756000001000000000000000RA              26011205    005801760000017600000520000003NN  NNW 000                       N    
RDG04756000WATRL000000004K00000000000003506017409022015083216N000000000000N40       000260400K 10000000010000003482           
CUS0475600000104135622001         WILKINS LAKRAMON G,J1814 EDGEWOOD RD                        000N        CARE OF             
MTR04756000001000000000000000RA              26011093    005801770000017700000520000003NN  NNW 000                       N    
RDG04756000WATRL000000004K00000000000004472017509022015083219N000000000000N40       000030400K 10000000010000004456           
CUS0475600000104135623009         SCHMINKE KENNETH J  1812 EDGEWOOD RD                        000N        CARE OF             
MTR04756000001000000000000000RA              33730272    005801780000017800000520000003NN  NNW 000                       N    
RDG04756000WATRL000000004K00000000000002807017609022015083250N000000000000N40       000310400K 10000000010000002794           
CUS0475600000104135624007         MEUS LAUREN M       1810 EDGEWOOD RD                        000N        CARE OF             
MTR04756000001000000000000000RA              33730788    005801790000017900000520000003NN  NNW 000                       N    
RDG04756000WATRL000000004K00000000000001798017709022015083254N000000000000N40       000040400K 10000000010000001791           
CUS0475600000104135625004         GARY A WAUGH        1808 EDGEWOOD RD                        000N        CARE OF             
MTR04756000001000000000000000RA              33730794    005801800000018000000520000003NN  NNW 000                       N    
RDG04756000WATRL000000004K00000000000003199017809022015083331N000000000000N40       000370400K 10000000010000003187           
CUS0475600000104135626002         BRENDAN M. MOULDER  1806 EDGEWOOD RD                        000N        CARE OF             
MTR04756000001000000000000000RA              31586794    005801810000018100000520000003NN  NNW 000                       N    
RDG04756000WATRL000000004K00000000000002966017909022015083430N000000000000N40       000590400K 10000000010000002956           
CUS0475600000104135627000         GERDING BETTE JAYNE 1804 EDGEWOOD RD                        000N        CARE OF             
MTR04756000001000000000000000RA              33730798    005801820000018200000520000003NN  NNW 000                       N    
RDG04756000WATRL000000004K00000000000001179018009022015083457N000000000000N40       000270400K 10000000010000001170           
CUS0475600000104135628008         BASSETTI JEANNETTE S1802 EDGEWOOD RD                        000N        CARE OF             
MTR04756000001000000000000000RA              46884979    005801830000018300000520000003NN  NNW 000                       N    
RDG04756000WATRL000000004K00000000000001687018109022015083502N000000000000N40       000050400K 10000000010000001669           
CUS0475600000104135629006         BERNIER EDITH MARIE 1800 EDGEWOOD RD                        000N        CARE OF             
MTR04756000001000000000000000RA              00139835    005801840000018400000570000003NN  NNW 000                       N    
RDG04756000WATRL000000004K00000000000000819018209022015083525N000000000000N40       000230400K 10000000010000000813           
CUS0475600000104135630004         WATSON KEITH        1742 EDGEWOOD RD                        000N        CARE OF             
MTR04756000001000000000000000RA              00125434    005801850000018500000570000003NN  NNW 000                       N    
RDG04756000WATRL000000004K00000000000000872018309022015083641N000100000010N40       000760400K 10000000010000000872           
CUS0475600000104135631002         REINHARDT DANIEL J  1740 EDGEWOOD RD                        000N        CARE OF             
MTR04756000001000000000000000RA              27813021    005801860000018600000520000003NN  NNW 000                       N    
RDG04756000WATRL000000004K00000000000004457018409022015083720N000000000000N40       000390400K 10000000010000004424           
CUS0475600000104135632000         NOLDER PHILIP E     1738 EDGEWOOD RD                        000N        CARE OF             
MTR04756000001000000000000000RA              27813022    005801870000018700000520000003NN  NNW 000                       N    
RDG04756000WATRL000000004K00000000000005059018509022015083740N000000000000N40       000200400K 10000000010000005038           
CUS0475600000104135633008         RUTH ROBERT C       1736 EDGEWOOD RD                        000N        CARE OF             
MTR04756000001000000000000000RA              00139832    005801880000018800000570000003NN  NNW 000                       N    
RDG04756000WATRL000000004K00000000000001430018609022015083829N000000000000N40       000490400K 10000000010000001410           
CUS0475600000104135634006         BISHOP DOUGLAS T    1734 EDGEWOOD RD                        000N        CARE OF             
MTR04756000001000000000000000RA              00139833    005801890000018900000570000003NN  NNW 000                       N    
RDG04756000WATRL000000004K00000000000000800018709022015083834N000000000000N40       000050400K 10000000010000000774           
CUS0475600000104135635003         JASMOND WALKER      1732 EDGEWOOD RD                        000N        CARE OF             
MTR04756000001000000000000000RA              33730773    005801900000019000000520000003NN  NNW 000                       N    
RDG04756000WATRL000000004K00000000000002817018809022015083902N000000000000N40       000280400K 10000000010000002794           
CUS0475600000104135636001         JONES MARK D        1730 EDGEWOOD RD                        000N        CARE OF             
MTR04756000001000000000000000RA              99188546    005801910000019100000570000003NN  NNW 000                       N    
RDG04756000WATRL000000004K00000000000003013018909022015083937N000000000000N40       000350400K 10000000010000002980           
CUS0475600000104135637009         BROWN STEWART ERIC  1728 EDGEWOOD RD                        000N        CARE OF             
MTR04756000001000000000000000RA              27818158    005801920000019200000520000003NN  NNW 000                       N    
RDG04756000WATRL000000004K00000000000001860019009022015084003N000000000000N40       000260400K 10000000010000001848           
CUS0475600000104135638007         TRAILL JOSEPH C     1726 EDGEWOOD RD                        000N        CARE OF             
MTR04756000001000000000000000RA              27818159    005801930000019300000520000003NN  NNW 000                       N    
RDG04756000WATRL000000004K00000000000002820019109022015084006N000000000000N40       000030400K 10000000010000002807           
CUS0475600000104135639005         DAILY M DIANE       1724 EDGEWOOD RD                        000N        CARE OF             
MTR04756000001000000000000000RA              33730780    005801940000019400000520000003NN  NNW 000                       N    
RDG04756000WATRL000000004K00000000000002696019209022015084040N000000000000N40       000340400K 10000000010000002681           
CUS0475600000104135640003         WHITING VAN R       1722 EDGEWOOD RD                        000N        CARE OF             
MTR04756000001000000000000000RA              33730772    005801950000019500000520000003NN  NNW 000                       N    
RDG04756000WATRL000000004K00000000000002614019309022015084047N000000000000N40       000070400K 10000000010000002594           
CUS0475600000104135641001         BANDELL MARY CATHERI1720 EDGEWOOD RD                        000N        CARE OF             
MTR04756000001000000000000000RA              33730767    005801960000019600000520000003NN  NNW 000                       N    
RDG04756000WATRL000000004K00000000000001279019409022015084122N000000000000N40       000350400K 10000000010000001276           
RTR04756000NN01960196000001960000000001960196000120NY019601960196000200010000000000000000000001    08122015NY020000 N         
RHD04771000NN01980198000001980000000001980198000129NY019801980198000000020000000000000000000001    08172015NY020000 N         
CUS0477100000104141259004         CASTELLANO GIUSEPPE 2616 TAYLOR AVE                         000N        CARE OF             
MTR04771000001000000000000000RA              33735540    005800010000000100000520000003NN  NNW 000                       N    
RDG04771000WATRL000000004K00000000000003715000109022015070203N000000000060N91       000000400K 10000000010000003674           
CUS0477100000104141260002         LUTZ ROBERT BRIAN   2614 TAYLOR AV REAR                     000N        CARE OF             
MTR04771000001000000000000000RA              01075587    005800020000000200000610000003NN  NNW 000                       N    
RDG04771000WATRL000000004K00000000000000189000209022015070933N000000000010N91       004500400K 10000000010000000189           
CUS0477100000104141261000         SARAH L PHILLIPSON  2614 TAYLOR AVE                         000N        CARE OF             
MTR04771000001000000000000000RA              74689740    005800030000000300000350000003NN  NNW 000                       N    
RDG04771000WATRL000000004K00000000000000116000309022015070941N000000000000N91       000080400K 10000000010000000110           
CUS0477100000104141262008         GREGG HARROW        2612 TAYLOR AVE                         000N        CARE OF             
MTR04771000001000000000000000RA              44178964    005800040000000400000520000003NN  NNW 000                       N    
RDG04771000WATRL000000004K00000000000002359000409022015070949N000000000000N91       000080400K 10000000010000002348           
CUS0477100000104141263006         RETTIG DANIEL L     2610 TAYLOR AVE                         000N        CARE OF             
MTR04771000001000000000000000RA              24232574    005800050000000500000520000003NN  NNW 000                       N    
RDG04771000WATRL000000004K00000000000003314000509022015071028N000000000000N91       000390400K 10000000010000003303           
CUS0477100000104141264004         CYNTHIA S CALDWELL  7801 ELMHURST AVE                       000N        CARE OF             
MTR04771000001000000000000000RA              50786737    005800060000000600000520000003NN  NNW 000                       N    
RDG04771000WATRL000000004K00000000000001189000609022015071616N000000000000N91       003480400K 10000000010000001178           
CUS0477100000104141265001         MANN CHRISTIAAN P   7803 ELMHURST AVE                       000N        CARE OF             
MTR04771000001000000000000000RA              01073044    005800070000000700000610000003NN  NNW 000                       N    
RDG04771000WATRL000000004K00000000000002123000709022015071635N000000000000N91       000190400K 10000000010000002110           
CUS0477100000104141266009         ZIEMANN RITA        7805 ELMHURST AVE                       000N        CARE OF             
MTR04771000001000000000000000RA              76349148    005800080000000800000350000003NN  NNW 000                       N    
RDG04771000WATRL000000004K00000000000000020000809022015071944N000000000010N91       001890400K 10000000010000000020           
CUS0477100000104141267007         BELL EMILY          7807 ELMHURST AVE                       000N        CARE OF             
MTR04771000001000000000000000RA              26011849    005800090000000900000520000003NN  NNW 000                       N    
RDG04771000WATRL000000004K00000000000003619000909022015071951N000000000000N91       000070400K 10000000010000003607           
CUS0477100000104141268005         CARDIN NATALIE J    7809 ELMHURST AVE                       000N        CARE OF             
MTR04771000001000000000000000RA              99187594    005800100000001000000570000003NN  NNW 000                       N    
RDG04771000WATRL000000004K00000000000000581001009022015072111N000000000000N91       000800400K 10000000010000000567           
CUS0477100000104141269003         PORTER NADIA        7811 ELMHURST AVE                       000N        CARE OF             
MTR04771000001000000000000000RA              14912397    005800110000001100000310000003NN  NNW 000                       N    
RDG04771000WATRL000000004K00000000000001169001109022015072125N000000000000N91       000140400K 10000000010000001157           
CUS0477100000104141270001         HASTINGS ELIZABETH  7813 ELMHURST AVE                       000N        CARE OF             
MTR04771000001000000000000000RA              14916007    005800120000001200000310000003NN  NNW 000                       N    
RDG04771000WATRL000000004K00000000000000189001209022015072138N000000000000N91       000130400K 10000000010000000178           
CUS0477100000104141271009         CUMERMA LINDA L     7815 ELMHURST AVE                       000N        CARE OF             
MTR04771000001000000000000000RA              24761869    005800130000001300000520000003NN  NNW 000                       N    
RDG04771000WATRL000000004K00000000000003367001309022015072337N000000000061N91       000220400K 10000000010000003367           
CUS0477100000104141272007         SMITH PHILLIP D     7817 ELMHURST AVE                       000N        CARE OF             
MTR04771000001000000000000000RA              48587376    005800140000001400000520000003NN  NNW 000                       N    
RDG04771000WATRL000000004K00000000000001653001409022015072450N000000000040N91       000730400K 10000000010000001633           
CUS0477100000104141273005         BRIGHT ELMER J,JR   7819 ELMHURST AVE                       000N        CARE OF             
MTR04771000001000000000000000RA              44086139    005800150000001500000520000003NN  NNW 000                       N    
RDG04771000WATRL000000004K00000000000000883001509022015072516N000000000000N91       000260400K 10000000010000000871           
CUS0477100000104141274003         KOOY JESSICA H      7901 ELMHURST AVE                       000N        CARE OF             
MTR04771000001000000000000000RA              48586901    005800160000001600000520000003NN  NNW 000                       N    
RDG04771000WATRL000000004K00000000000002012001609022015072531N000000000010N91       000150400K 10000000010000001999           
CUS0477100000104141275000         HEFFNER MICHAEL L,JR7903 ELMHURST AVE                       000N        CARE OF             
MTR04771000001000000000000000RA              36698888    005800170000001700000520000003NN  NNW 000                       N    
RDG04771000WATRL000000004K00000000000002043001709022015072540N000000000000N91       000090400K 10000000010000002031           
CUS0477100000104141276008         DIGGS VERNON J      7905 ELMHURST AVE                       000N        CARE OF             
MTR04771000001000000000000000RA              9595471     005800180000001800000570000003NN  NNW 000                       N    
RDG04771000WATRL000000004K00000000000008212001809022015072632N000000000030N91       000520400K 10000000010000008194           
CUS0477100000104141277006         TILLETT WINIFRED E  7907 ELMHURST AVE                       000N        CARE OF             
MTR04771000001000000000000000RA              36693896    005800190000001900000520000003NN  NNW 000                       N    
RDG04771000WATRL000000004K00000000000003803001909022015073054N000000000000N91       002620400K 10000000010000003792           
CUS0477100000104141278004         AGOSTINO JOSEPH L   7909 ELMHURST AVE                       000N        CARE OF             
MTR04771000001000000000000000RA              27816884    005800200000002000000520000003NN  NNW 000                       N    
RDG04771000WATRL000000004K00000000000003363002009022015073059N000000000000N91       000050400K 10000000010000003352           
CUS0477100000104141279002         DELANEY MARTIN J    7911 ELMHURST AVE                       000N        CARE OF             
MTR04771000001000000000000000RA              24230290    005800210000002100000520000003NN  NNW 000                       N    
RDG04771000WATRL000000004K00000000000005282002109022015073125N000000000040N91       000260400K 10000000010000005253           
CUS0477100000104141280000         WHITE CATHLEEN VERDO7913 ELMHURST AVE                       000N        CARE OF             
MTR04771000001000000000000000RA              01113405    005800220000002200000610000003NN  NNW 000                       N    
RDG04771000WATRL000000004K00000000000000743002209022015073140N000000000010N91       000150400K 10000000010000000743           
CUS0477100000104141281008         JAGER DEAN L        7915 ELMHURST AVE                       000N        CARE OF             
MTR04771000001000000000000000RA              29403368    005800230000002300000520000003NN  NNW 000                       N    
RDG04771000WATRL000000004K00000000000002388002309022015073145N000000000000N91       000050400K 10000000010000002377           
CUS0477100000104141282006         HENDERSON DONALD J  2614 RADER AVE                          000N        CARE OF             
MTR04771000001000000000000000RA              24771562    005800240000002400000520000003NN  NNW 000                       N    
RDG04771000WATRL000000004K00000000000003145002409022015073221N000000000021N91       000180400K 10000000010000003145           
CUS0477100000104141283004         SACKER DOROTHY A    2612 RADER AVE                          000N        CARE OF             
MTR04771000001000000000000000RA              10014411    005800250000002500000570000003NN  NNW 000                       N    
RDG04771000WATRL000000004K00000000000000326002509022015073242N000000000020N91       000210400K 10000000010000000311           
CUS0477100000104141284002         FORNILI KATHERINE S 2610 RADER AVE                          000N        CARE OF             
MTR04771000001000000000000000RA              01073056    005800260000002600000610000003NN  NNW 000                       N    
RDG04771000WATRL000000004K00000000000001329002609022015073515N000000000010N91       001530400K 10000000010000001318           
CUS0477100000104141285009         RINGUS DAVID J      8001 HARRIS AVE                         000N        CARE OF             
MTR04771000001000000000000000RA              14901872    005800270000002700000310000003NN  NNW 000                       N    
RDG04771000WATRL000000004K00000000000000977002709022015073542N000000000000N91       000270400K 10000000010000000964           
CUS0477100000104141286007         RAUENZAHN DALE R    8003 HARRIS AVE                         000N        CARE OF             
MTR04771000001000000000000000RA              14921219    005800280000002800000310000003NN  NNW 000                       N    
RDG04771000WATRL000000004K00000000000000771002809022015073550N000000000000N91       000080400K 10000000010000000759           
CUS0477100000104141287005         MATTER VIRGINIA H   8005 HARRIS AVE                         000N        CARE OF             
MTR04771000001000000000000000RA              45386684    005800290000002900000520000003NN  NNW 000                       N    
RDG04771000WATRL000000004K00000000000001066002909022015073844N000000000000N91       001740400K 10000000010000001055           
CUS0477100000104141288003         HOWARD HARRIS       8007 HARRIS AVE                         000N        CARE OF             
MTR04771000001000000000000000RA              9691242     005800300000003000000570000003NN  NNW 000                       N    
RDG04771000WATRL000000004K00000000000006223003009022015073854N000000000010N91       000100400K 10000000010000006223           
CUS0477100000104141289001         HUBBARD TARA N      8009 HARRIS AVE                         000N        CARE OF             
MTR04771000001000000000000000RA              40047250    005800310000003100000520000003NN  NNW 000                       N    
RDG04771000WATRL000000004K00000000000002106003109022015073904N000000000000N91       000100400K 10000000010000002094           
CUS0477100000104141290009         PFEFFER WILLIAM HENR8011 HARRIS AVE                         000N        CARE OF             
MTR04771000001000000000000000RA              31580767    005800320000003200000520000003NN  NNW 000                       N    
RDG04771000WATRL000000004K00000000000003493003209022015074101N000000000070N91       001170400K 10000000010000003465           
CUS0477100000104141291007         MILLER ELAYNE A     8013 HARRIS AVE                         000N        CARE OF             
MTR04771000001000000000000000RA              99286579    005800330000003300000570000003NN  NNW 000                       N    
RDG04771000WATRL000000004K00000000000002545003309022015074239N000000000070N91       000980400K 10000000010000002520           
CUS0477100000104141292005         WIECZOREK HENRY     8015 HARRIS AVE                         000N        CARE OF             
MTR04771000001000000000000000RA              27833413    005800340000003400000520000003NN  NNW 000                       N    
RDG04771000WATRL000000004K00000000000005554003409022015074425N000000000091N91       000500400K 10000000010000005515           
CUS0477100000104141293003         WARCHUS CATHERINE L 2601 IVY PL                             000N        CARE OF             
MTR04771000001000000000000000RA              35112337    005800350000003500000520000003NN  NNW 000                       N    
RDG04771000WATRL000000004K00000000000003121003509022015074456N000000000030N91       000310400K 10000000010000003101           
CUS0477100000104141294001         FISHER JEFFREY M    2603 IVY PL                             000N        CARE OF             
MTR04771000001000000000000000RA              14921853    005800360000003600000310000003NN  NNW 000                       N    
RDG04771000WATRL000000004K00000000000001112003609022015074956N000000000020N91       003000400K 10000000010000001091           
CUS0477100000104141295008         WILLINGHAN DIANE M  8110 EVERGREEN DR                       000N        CARE OF             
MTR04771000001000000000000000RA              44092114    005800370000003700000520000003NN  NNW 000                       N    
RDG04771000WATRL000000004K00000000000002360003709022015075001N000000000000N91       000050400K 10000000010000002348           
CUS0477100000104141296006         RAUSCH RUSSELL LEE  8108 EVERGREEN DR                       000N        CARE OF             
MTR04771000001000000000000000RA              44092066    005800380000003800000520000003NN  NNW 000                       N    
RDG04771000WATRL000000004K00000000000001386003809022015075005N000000000000N91       000040400K 10000000010000001371           
CUS0477100000104141297004         HEIMBACH LOLITA A   8106 EVERGREEN DR                       000N        CARE OF             
MTR04771000001000000000000000RA              27832972    005800390000003900000520000003NN  NNW 000                       N    
RDG04771000WATRL000000004K00000000000004639003909022015075020N000000000030N91       000150400K 10000000010000004621           
CUS0477100000104141298002         RIESCHER STEPHEN T  8104 EVERGREEN DR                       000N        CARE OF             
MTR04771000001000000000000000RA              10015249    005800400000004000000570000003NN  NNW 000                       N    
RDG04771000WATRL000000004K00000000000000229004009022015075028N000000000000N91       000080400K 10000000010000000220           
CUS0477100000104141299000         DALLATEZZA CHESTER  8102 EVERGREEN DR                       000N        CARE OF             
MTR04771000001000000000000000RA              50786098    005800410000004100000520000003NN  NNW 000                       N    
RDG04771000WATRL000000004K00000000000002693004109022015075041N000000000020N91       000130400K 10000000010000002676           
CUS0477100000104141300006         SMITH DAVID         8100 EVERGREEN DR                       000N        CARE OF             
MTR04771000001000000000000000RA              19461890    005800420000004200000520000003NN  NNW 000                       N    
RDG04771000WATRL000000004K00000000000005732004209022015075049N000000000000N91       000080400K 10000000010000005721           
CUS0477100000104141301004         FOX SEAN M          2601 JOHN DR                            000N        CARE OF             
MTR04771000001000000000000000RA              40048370    005800430000004300000520000003NN  NNW 000                       N    
RDG04771000WATRL000000004K00000000000003570004309022015075557N000000000000N91       003080400K 10000000010000003560           
CUS0477100000104141302002         ARMADA PETER A      2603 JOHN DR                            000N        CARE OF             
MTR04771000001000000000000000RA              9686870     005800440000004400000570000003NN  NNW 000                       N    
RDG04771000WATRL000000004K00000000000004883004409022015075603N000000000000N91       000060400K 10000000010000004871           
CUS0477100000104141303000         REIDER ROBERT       2605 JOHN DR                            000N        CARE OF             
MTR04771000001000000000000000RA              14912339    005800450000004500000310000003NN  NNW 000                       N    
RDG04771000WATRL000000004K00000000000000844004509022015075607N000000000000N91       000040400K 10000000010000000836           
CUS0477100000104141304008         CULTON KERI         2607 JOHN DR                            000N        CARE OF             
MTR04771000001000000000000000RA              24761864    005800460000004600000520000003NN  NNW 000                       N    
RDG04771000WATRL000000004K00000000000003699004609022015075615N000000000000N91       000080400K 10000000010000003684           
CUS0477100000104141305005         WALTER CHRISTOPHER R2606 JOHN DR                            000N        CARE OF             
MTR04771000001000000000000000RA              32900954    005800470000004700000520000003NN  NNW 000                       N    
RDG04771000WATRL000000004K00000000000003410004709022015075641N000000000040N91       000260400K 10000000010000003390           
CUS0477100000104141306003         BUBIEN, KENNETH A   2604 JOHN DR                            000N        CARE OF             
MTR04771000001000000000000000RA              44003715    005800480000004800000520000003NN  NNW 000                       N    
RDG04771000WATRL000000004K00000000000002766004809022015075802N000000000071N91       000380400K 10000000010000002756           
CUS0477100000104141307001         JOHNSON EDWARD S    2602 JOHN DR                            000N        CARE OF             
MTR04771000001000000000000000RA              23644003    005800490000004900000520000003NN  NNW 000                       N    
RDG04771000WATRL000000004K00000000000004409004909022015075806N000000000000N91       000040400K 10000000010000004399           
CUS0477100000104141308009         RUCK GREGORY A      2600 JOHN DR                            000N        CARE OF             
MTR04771000001000000000000000RA              45386672    005800500000005000000520000003NN  NNW 000                       N    
RDG04771000WATRL000000004K00000000000002389005009022015075826N000000000030N91       000200400K 10000000010000002367           
CUS0477100000104141309007         SHAPROW WILLIAM H   2607 IVY PL                             000N        CARE OF             
MTR04771000001000000000000000RA              11471786    005800510000005100000570000003NN  NNW 000                       N    
RDG04771000WATRL000000004K00000000000005536005109022015075832N000000000000N91       000060400K 10000000010000005523           
CUS0477100000104141310005         CERINO GLORIA CAIN  2609 IVY PL                             000N        CARE OF             
MTR04771000001000000000000000RA              45386669    005800520000005200000520000003NN  NNW 000                       N    
RDG04771000WATRL000000004K00000000000000800005209022015075840N000000000000N91       000080400K 10000000010000000789           
CUS0477100000104141311003         MROZINSKI ROBERT C  2611 IVY PL                             000N        CARE OF             
MTR04771000001000000000000000RA              99291717    005800530000005300000570000003NN  NNW 000                       N    
RDG04771000WATRL000000004K00000000000001423005309022015080008N000000000040N91       000880400K 10000000010000001402           
CUS0477100000104141312001         HUD                 2613 IVY PL                             000N        CARE OF             
MTR04771000001000000000000000RA              01073043    005800540000005400000610000003NN  NNW 000                       N    
RDG04771000WATRL000000004K00000000000001195005409022015080148N000000000030N91       001000400K 10000000010000001195           
CUS0477100000104141313009         BERRY BRIAN D       2615 IVY PL                             000N        CARE OF             
MTR04771000001000000000000000RA              10017608    005800550000005500000570000003NN  NNW 000                       N    
RDG04771000WATRL000000004K00000000000000230005509022015080240N000000000000N91       000520400K 10000000010000000219           
CUS0477100000104141314007         GOODWIN ARTHUR D    2612 IVY PL                             000N        CARE OF             
MTR04771000001000000000000000RA              14920427    005800560000005600000310000003NN  NNW 000                       N    
RDG04771000WATRL000000004K00000000000000613005609022015080303N000000000020N91       000230400K 10000000010000000610           
CUS0477100000104141315004         STACHOWSKI DENNIS J 2610 IVY PL                             000N        CARE OF             
MTR04771000001000000000000000RA              01073053    005800570000005700000610000003NN  NNW 000                       N    
RDG04771000WATRL000000004K00000000000000506005709022015080339N000000000000N91       000360400K 10000000010000000493           
CUS0477100000104141316002         DOUGLAS A.CHRISTOPHE2608 IVY PL                             000N        CARE OF             
MTR04771000001000000000000000RA              10006393    005800580000005800000570000003NN  NNW 000                       N    
RDG04771000WATRL000000004K00000000000000223005809022015080409N000000000000N91       000300400K 10000000010000000213           
CUS0477100000104141317000         BRISCOE MARVIN M    2606 IVY PL                             000N        CARE OF             
MTR04771000001000000000000000RA              23644518    005800590000005900000520000003NN  NNW 000                       N    
RDG04771000WATRL000000004K00000000000006021005909022015080449N000000000040N91       000400400K 10000000010000005992           
CUS0477100000104141318008         REED LARRY          8020 HARRIS AVE                         000N        CARE OF             
MTR04771000001000000000000000RA              50479927    005800600000006000000520000003NN  NNW 000                       N    
RDG04771000WATRL000000004K00000000000001775006009022015080456N000000000000N91       000070400K 10000000010000001762           
CUS0477100000104141319006         NESS ERVIN B        8018 HARRIS AVE                         000N        CARE OF             
MTR04771000001000000000000000RA              35112303    005800610000006100000520000003NN  NNW 000                       N    
RDG04771000WATRL000000004K00000000000002658006109022015080511N000000000000N91       000150400K 10000000010000002641           
CUS0477100000104141320004         BIANCONI WILLIAM J  8016 HARRIS AVE                         000N        CARE OF             
MTR04771000001000000000000000RA              33081754    005800620000006200000520000003NN  NNW 000                       N    
RDG04771000WATRL000000004K00000000000002059006209022015080532N000000000011N91       000100400K 10000000010000002048           
CUS0477100000104141321002         SARHANGI REZA       8014 HARRIS AVE                         000N        CARE OF             
MTR04771000001000000000000000RA              26018034    005800630000006300000520000003NN  NNW 000                       N    
RDG04771000WATRL000000004K00000000000002823006309022015080550N000000000020N91       000180400K 10000000010000002805           
CUS0477100000104141322000         CARR MARY B         8012 HARRIS AVE                         000N        CARE OF             
MTR04771000001000000000000000RA              26015245    005800640000006400000520000003NN  NNW 000                       N    
RDG04771000WATRL000000004K00000000000003286006409022015080600N000000000000N91       000100400K 10000000010000003274           
CUS0477100000104141323008         GUDE MARY ELLEN     8010 HARRIS AVE                         000N        CARE OF             
