FHDNNNN028006017006017006017N                                                                                           018576
RHD04755500NN02520252000002520000000002520252000228YY025202520252000400160000000000000000000001    08172015NY020000 I         
CUS0475550000104135194001         WEEMS JOHN E,JR     1834 ABERDEEN RD                        000N        CARE OF             
MTR04755500001000000000000000RA              40248277    007500010000000100000520000003NN  NNW 000                       N    
RDG04755500WATRL000000004K00000000000002042024809042015104846N000000000000N40       000390400K 10000000010000002026           
CUS0475550000104135195008         BARDOFF SHELBI R    1832 ABERDEEN RD                        000N        CARE OF             
MTR04755500001000000000000000RA              27678385    007500020000000200000520000003NN  NNW 000                       N    
RDG04755500WATRL000000004K00000000000000670024709042015104807N000000000000N40       000390400K 10000000010000000660           
CUS0475550000104135196006         ELLER ANN S         1830 ABERDEEN RD                        000N        CARE OF             
MTR04755500001000000000000000RA              39256563    007500030000000300000520000003NN  NNW 000                       N    
RDG04755500WATRL000000004K00000000000001445024609042015104728N000000000000N40       000150400K 10000000010000001435           
CUS0475550000104135197004         SHANE VIRGINIA      1828 ABERDEEN RD                        000N        CARE OF             
MTR04755500001000000000000000RA              39256611    007500040000000400000520000003NN  NNW 000                       N    
RDG04755500WATRL000000004K00000000000001264024509042015104713N000000000000N40       000520400K 10000000010000001257           
CUS0475550000104135198002         SAUER JOHN G        1826 ABERDEEN RD                        000N        CARE OF             
MTR04755500001000000000000000RA              99411641    007500050000000500000570000003NN  NNW 000                       N    
RDG04755500WATRL000000004K00000000000000517024409042015104621N000000000000N40       000340400K 10000000010000000517           
CUS0475550000104135199000         BOCK RICHARD M      1824 ABERDEEN RD                        000N        CARE OF             
MTR04755500001000000000000000RA              99411640    007500060000000600000570000003NN  NNW 000                       N    
RDG04755500WATRL000000004K00000000000000872024309042015104547N000000000000N40       000260400K 10000000010000000859           
CUS0475550000104135200006         MCDONOUGH JEREMY    1822 ABERDEEN RD                        000N        CARE OF             
MTR04755500001000000000000000RA              39256245    007500070000000700000520000003NN  NNW 000                       N    
RDG04755500WATRL000000004K00000000000000081024209042015104521N000000000000N40       000180400K 10000000010000000070           
CUS0475550000104135201004         GONZALEZ RAYMOND C  1820 ABERDEEN RD                        000N        CARE OF             
MTR04755500001000000000000000RA              99411626    007500080000000800000570000003NN  NNW 000                       N    
RDG04755500WATRL000000004K00000000000000204024109042015104503N000000000000N40       000230400K 10000000010000000201           
CUS0475550000104135202002         ALEXANDER RACHELLE  1818 ABERDEEN RD                        000N        CARE OF             
MTR04755500001000000000000000RA              99411651    007500090000000900000570000003NN  NNW 000                       N    
RDG04755500WATRL000000004K00000000000001190024009042015104440N000000000000N40       000300400K 10000000010000001177           
CUS0475550000104135203000         SCHILL LYLE P       1816 ABERDEEN RD                        000N        CARE OF             
MTR04755500001000000000000000RA              27893770    007500100000001000000520000003NN  NNW 000                       N    
RDG04755500WATRL000000004K00000000000002702023909042015104410N000000000000N40       000360400K 10000000010000002693           
CUS0475550000104135204008         LIN WEI TING        1814 ABERDEEN RD                        000N        CARE OF             
MTR04755500001000000000000000RA              35106103    007500110000001100000520000003NN  NNW 000                       N    
RDG04755500WATRL000000004K00000000000002088023809042015104334N000000000000N40       000350400K 10000000010000002045           
CUS0475550000104135205005         GAGEN LEE ANN       1812 ABERDEEN RD                        000N        CARE OF             
MTR04755500001000000000000000RA              33731484    007500120000001200000520000003NN  NNW 000                       N    
RDG04755500WATRL000000004K00000000000001742023709042015104259N000000000000N40       000420400K 10000000010000001735           
CUS0475550000104135206003         GARRISON DARLENE    1810 ABERDEEN RD                        000N        CARE OF             
MTR04755500001000000000000000RA              00121044    007500130000001300000570000003NN  NNW 000                       N    
RDG04755500WATRL000000004K00000000000001283023609042015104217N000000000000N40       000240400K 10000000010000001273           
CUS0475550000104135207001         CAMPBELL VALKIM     1808 ABERDEEN RD                        000N        CARE OF             
MTR04755500001000000000000000RA              30528126    007500140000001400000520000003NN  NNW 000                       N    
RDG04755500WATRL000000004K00000000000003326023509042015104153N000000000000N40       000210400K 10000000010000003301           
CUS0475550000104135208009         CHASE CATHERINE     1806 ABERDEEN RD                        000N        CARE OF             
MTR04755500001000000000000000RA              43904201    007500150000001500000520000003NN  NNW 000                       N    
RDG04755500WATRL000000004K00000000000002021023409042015104132N000000000000N40       000350400K 10000000010000002000           
CUS0475550000104135209007         BOTTIGER HOWARD A   1804 ABERDEEN RD                        000N        CARE OF             
MTR04755500001000000000000000RA              99411643    007500160000001600000570000003NN  NNW 000                       N    
RDG04755500WATRL000000004K00000000000001801023309042015104057N000000000000N40       000290400K 10000000010000001779           
CUS0475550000104135210005         RUBY KAREN J        1802 ABERDEEN RD                        000N        CARE OF             
MTR04755500001000000000000000RA              77894296    007500170000001700000360000003NN  NNW 000                       N    
RDG04755500WATRL000000004K00000000000000000023209042015104028S001000000000N40       000050400K 10000000010000000016           
CUS0475550000104135211003         SPENCER WILLIAM R   1800 ABERDEEN RD                        000N        CARE OF             
MTR04755500001000000000000000RA              99411638    007500180000001800000570000003NN  NNW 000                       N    
RDG04755500WATRL000000004K00000000000001067023109042015104023N000000000000N40       000450400K 10000000010000001055           
CUS0475550000104135212001         MURRAY SALLY B      1752 ABERDEEN RD                        000N        CARE OF             
MTR04755500001000000000000000RA              35100713    007500190000001900000520000003NN  NNW 000                       N    
RDG04755500WATRL000000004K00000000000001625023009042015103938N000000000000N40       000840400K 10000000010000001617           
CUS0475550000104135213009         JACK N. STOUT SR    1750 ABERDEEN RD                        000N        CARE OF             
MTR04755500001000000000000000RA              99376291    007500200000002000000570000003NN  NNW 000                       N    
RDG04755500WATRL000000004K00000000000000000000000000000000000 000000000000U         000000400  10000000010000000518           
CUS0475550000104135214007         STEWART PATRICIA GUN1748 ABERDEEN RD                        000N        CARE OF             
MTR04755500001000000000000000RA              43904103    007500210000002100000520000003NN  NNW 000                       N    
RDG04755500WATRL000000004K00000000000001719022909042015103814N000400000010N40       000240400K 10000000010000001710           
CUS0475550000104135215004         FORTHUBER MARY K    1746 ABERDEEN RD                        000N        CARE OF             
MTR04755500001000000000000000RA              39256560    007500220000002200000520000003NN  NNW 000                       N    
RDG04755500WATRL000000004K00000000000000808022809042015103750N000000000000N40       000310400K 10000000010000000802           
CUS0475550000104135216002         WILLIE L LEWIS      1744 ABERDEEN RD                        000N        CARE OF             
MTR04755500001000000000000000RA              75427277    007500230000002300000350000003NN  NNW 000                       N    
RDG04755500WATRL000000004K00000000000000119022709042015103719N000000000000N40       000320400K 10000000010000000105           
CUS0475550000104135217000         TISCHINGER JOHN C   1742 ABERDEEN RD                        000N        CARE OF             
MTR04755500001000000000000000RA              35105884    007500240000002400000520000003NN  NNW 000                       N    
RDG04755500WATRL000000004K00000000000002454022609042015103647N000000000000N40       000610400K 10000000010000002440           
CUS0475550000104135218008         REED ANN M          1740 ABERDEEN RD                        000N        CARE OF             
MTR04755500001000000000000000RA              30791677    007500250000002500000520000003NN  NNW 000                       N    
RDG04755500WATRL000000004K00000000000000000000000000000000000 000000000000U         000000400  10000000010000001490           
CUS0475550000104135219006         BANE JOHN           1738 ABERDEEN RD                        000N        CARE OF             
MTR04755500001000000000000000RA              30791674    007500260000002600000520000003NN  NNW 000                       N    
RDG04755500WATRL000000004K00000000000003060022509042015103546N000000000000N40       000600400K 10000000010000003060           
CUS0475550000104135220004         STEVEN STEINBACHER  1801 DEVERON RD                         000N        CARE OF             
MTR04755500001000000000000000RA              46890360    007500270000002700000520000003NN  NNW 000                       N    
RDG04755500WATRL000000004K00000000000000519022409042015103446N000000000010N40       000280400K 10000000010000000501           
CUS0475550000104135221002         BEARES DONNA K      1803 DEVERON RD                         000N        CARE OF             
MTR04755500001000000000000000RA              39080943    007500280000002800000520000003NN  NNW 000                       N    
RDG04755500WATRL000000004K00000000000002045022309042015103418N000000000000N40       000290400K 10000000010000002032           
CUS0475550000104135222000         NEWNAM PROPERTIES,LL1805 DEVERON RD                         000N        CARE OF             
MTR04755500001000000000000000RA              39080946    007500290000002900000520000003NN  NNW 000                       N    
RDG04755500WATRL000000004K00000000000002817022209042015103349N000100000010N40       000500400K 10000000010000002817           
CUS0475550000104135223008         VOITH AMIE          1807 DEVERON RD                         000N        CARE OF             
MTR04755500001000000000000000RA              39080936    007500300000003000000520000003NN  NNW 000                       N    
RDG04755500WATRL000000004K00000000000002933022109042015103259N000000000000N40       000370400K 10000000010000002933           
CUS0475550000104135224006         HAYES KEARA         1809 DEVERON RD                         000N        CARE OF             
MTR04755500001000000000000000RA              27676616    007500310000003100000520000003NN  NNW 000                       N    
RDG04755500WATRL000000004K00000000000002612022009042015103222N000000000000N40       000390400K 10000000010000002603           
CUS0475550000104135225003         DOUGLAS MARCUS D,3RD1811 DEVERON RD                         000N        CARE OF             
MTR04755500001000000000000000RA              43904500    007500320000003200000520000003NN  NNW 000                       N    
RDG04755500WATRL000000004K00000000000002413021909042015103143N000000000000N40       000360400K 10000000010000002384           
CUS0475550000104135226001         ERICA PLUMMER       1813 DEVERON RD                         000N        CARE OF             
MTR04755500001000000000000000RA              33416002    007500330000003300000520000003NN  NNW 000                       N    
RDG04755500WATRL000000004K00000000000003101021809042015103107N000000000000N40       000270400K 10000000010000003090           
CUS0475550000104135227009         PETRIDES GEORGE     1815 DEVERON RD                         000N        CARE OF             
MTR04755500001000000000000000RA              19462839    007500340000003400000520000003NN  NNW 000                       N    
RDG04755500WATRL000000004K00000000000008445021709042015103040N000000000000N40       000180400K 10000000010000008425           
CUS0475550000104135228007         WADLER NEAL S       1817 DEVERON RD                         000N        CARE OF             
MTR04755500001000000000000000RA              43904501    007500350000003500000520000003NN  NNW 000                       N    
RDG04755500WATRL000000004K00000000000002297021609042015103022N000000000000N40       000260400K 10000000010000002285           
CUS0475550000104135229005         FORET CHRISTOPHER J 1819 DEVERON RD                         000N        CARE OF             
MTR04755500001000000000000000RA              43904533    007500360000003600000520000003NN  NNW 000                       N    
RDG04755500WATRL000000004K00000000000001629021509042015102956N000400000010N40       000520400K 10000000010000001626           
CUS0475550000104135230003         ROGALSKI ALEXANDER S1821 DEVERON RD                         000N        CARE OF             
MTR04755500001000000000000000RA              41193012    007500370000003700000520000003NN  NNW 000                       N    
RDG04755500WATRL000000004K00000000000001233021409042015102904N000000000000N40       000400400K 10000000010000001220           
CUS0475550000104135231001         POTTER DONALD D     1823 DEVERON RD                         000N        CARE OF             
MTR04755500001000000000000000RA              99411642    007500380000003800000570000003NY  NNW 000                       N    
MTM0475550099411642    VAC                                                                                                    
RDG04755500WATRL000000004K00000000000000740021309042015102824N000400000010N40       000380400K 10000000010000000739           
CUS0475550000104135232009         JOHNSON JOHN L      1825 DEVERON RD                         000N        CARE OF             
MTR04755500001000000000000000RA              35100420    007500390000003900000520000003NN  NNW 000                       N    
RDG04755500WATRL000000004K00000000000002717021209042015102746N000000000000N40       000440400K 10000000010000002711           
CUS0475550000104135233007         LOLITA D MITCHELL   1827 DEVERON RD                         000N        CARE OF             
MTR04755500001000000000000000RA              43904499    007500400000004000000520000003NN  NNW 000                       N    
RDG04755500WATRL000000004K00000000000002677021109042015102702N000300000010N40       000340400K 10000000010000002673           
CUS0475550000104135234005         STANO JENNIFER D    1829 DEVERON RD                         000N        CARE OF             
MTR04755500001000000000000000RA              00120735    007500410000004100000570000003NN  NNW 000                       N    
RDG04755500WATRL000000004K00000000000000778021009042015102628N000000000000N40       000420400K 10000000010000000760           
CUS0475550000104135235002         TOWNSEND DENISE LYNN1831 DEVERON RD                         000N        CARE OF             
MTR04755500001000000000000000RA              29121900    007500420000004200000520000003NN  NNW 000                       N    
RDG04755500WATRL000000004K00000000000003590020909042015102546N000000000000N40       000210400K 10000000010000003527           
CUS0475550000104135236000         TURNBAUGH DAVID T   1833 DEVERON RD                         000N        CARE OF             
MTR04755500001000000000000000RA              35105281    007500430000004300000520000003NN  NNW 000                       N    
RDG04755500WATRL000000004K00000000000004128020809042015102525N000000000000N40       000300400K 10000000010000004102           
CUS0475550000104135237008         MIDDLETON NATASHA D 1835 DEVERON RD                         000N        CARE OF             
MTR04755500001000000000000000RA              78028529    007500440000004400000350000003NN  NNW 000                       N    
RDG04755500WATRL000000004K00000000000000000020709042015102455S001000000000N40       000040400K 10000000010000000047           
CUS0475550000104135238006         WALSH ANNAMARIA M   1837 DEVERON RD                         000N        CARE OF             
MTR04755500001000000000000000RA              43904106    007500450000004500000520000003NN  NNW 000                       N    
RDG04755500WATRL000000004K00000000000002470020609042015102451N000000000000N40       000370400K 10000000010000002450           
CUS0475550000104135239004         PATRICK J. CROW     1839 DEVERON RD                         000N        CARE OF             
MTR04755500001000000000000000RA              39256608    007500460000004600000520000003NN  NNW 000                       N    
RDG04755500WATRL000000004K00000000000001703020509042015102414N000000000000N40       000360400K 10000000010000001695           
CUS0475550000104135240002         BENSON DAVID A      1841 DEVERON RD                         000N        CARE OF             
MTR04755500001000000000000000RA              35105757    007500470000004700000520000003NN  NNW 000                       N    
RDG04755500WATRL000000004K00000000000001401020409042015102338N000400000010N40       000320400K 10000000010000001399           
CUS0475550000104135241000         ROBERT PRZBYLSKI JR 1843 DEVERON RD                         000N        CARE OF             
MTR04755500001000000000000000RA              78028156    007500480000004800000350000003NN  NNW 000                       N    
RDG04755500WATRL000000004K00000000000000000020309042015102306S001000000000N40       000100400K 10000000010000000048           
CUS0475550000104135242008         DAVID MICHAEL HAILE 1845 DEVERON RD                         000N        CARE OF             
MTR04755500001000000000000000RA              43904523    007500490000004900000520000003NN  NNW 000                       N    
RDG04755500WATRL000000004K00000000000001815020209042015102256N000000000000N40       000430400K 10000000010000001803           
CUS0475550000104135243006         CHARLES A KIRBY ,3RD1850 DEVERON RD                         000N        CARE OF             
MTR04755500001000000000000000RA              36699329    007500500000005000000520000003NN  NNW 000                       N    
RDG04755500WATRL000000004K00000000000002809020109042015102213N000000000000N40       000320400K 10000000010000002790           
CUS0475550000104135244004         PETRELLA JOSEPH A   1848 DEVERON RD                         000N        CARE OF             
MTR04755500001000000000000000RA              78028179    007500510000005100000350000003NN  NNW 000                       N    
RDG04755500WATRL000000004K00000000000000000020009042015102141S001000000000N40       000050400K 10000000010000000034           
CUS0475550000104135245001         HARRISON DECARLO D S1846 DEVERON RD                         000N        CARE OF             
MTR04755500001000000000000000RA              27893670    007500520000005200000520000000NN  NNW 000                       N    
RDG04755500WATRL000000004K00000000000002489019809042015102059N000000000000N40       000790400K 10000000010000002468           
CUS0475550000104135246009         WILLIAMS SEAN M     1844 DEVERON RD                         000N        CARE OF             
MTR04755500001000000000000000RA              33736291    007500530000005300000520000000NN  NNW 000                       N    
RDG04755500WATRL000000004K00000000000002600019909042015102136N000000000000N40       000370400K 10000000010000002583           
CUS0475550000104135247007         STEVENSON JASON M   1842 DEVERON RD                         000N        CARE OF             
MTR04755500001000000000000000RA              99411632    007500540000005400000570000003NN  NNW 000                       N    
RDG04755500WATRL000000004K00000000000001067019709042015101940N000000000000N40       000400400K 10000000010000001054           
CUS0475550000104135248005         JOHN D TODD III     1840 DEVERON RD                         000N        CARE OF             
MTR04755500001000000000000000RA              99411502    007500550000005500000570000003NN  NNW 000                       N    
RDG04755500WATRL000000004K00000000000000918019609042015101900N000000000000N40       000310400K 10000000010000000902           
CUS0475550000104135249003         PFEIFER AMIE M      1838 DEVERON RD                         000N        CARE OF             
MTR04755500001000000000000000RA              99411500    007500560000005600000570000003NN  NNW 000                       N    
RDG04755500WATRL000000004K00000000000000657019509042015101829N000000000000N40       000300400K 10000000010000000651           
CUS0475550000104135250001         SERGI LOUIS         1836 DEVERON RD                         000N        CARE OF             
MTR04755500001000000000000000RA              33736404    007500570000005700000520000003NN  NNW 000                       N    
RDG04755500WATRL000000004K00000000000001849019409042015101759N000000000000N40       000340400K 10000000010000001843           
CUS0475550000104135251009         FOWLER SARAH B      1834 DEVERON RD                         000N        CARE OF             
MTR04755500001000000000000000RA              33736401    007500580000005800000520000003NN  NNW 000                       N    
RDG04755500WATRL000000004K00000000000002028019309042015101725N000000000000N40       000220400K 10000000010000002020           
CUS0475550000104135252007         DANIEL L VANCE      1832 DEVERON RD                         000N        CARE OF             
MTR04755500001000000000000000RA              33736444    007500590000005900000520000003NN  NNW 000                       N    
RDG04755500WATRL000000004K00000000000002867019209042015101703N000000000000N40       000350400K 10000000010000002853           
CUS0475550000104135253005         KREITZ TIMOTHY W    1830 DEVERON RD                         000N        CARE OF             
MTR04755500001000000000000000RA              33736288    007500600000006000000520000003NN  NNW 000                       N    
RDG04755500WATRL000000004K00000000000001856019109042015101628N000000000000N40       000310400K 10000000010000001850           
CUS0475550000104135254003         BOTTIGER HOWARD A,JR1828 DEVERON RD                         000N        CARE OF             
MTR04755500001000000000000000RA              00120825    007500610000006200010570000003NN  NNW 000                       N    
RDG04755500WATRL000000004K00000000000001277019009042015101557N000000000000N40       000620400K 10000000010000001256           
CUS0475550000104135255000         RANDALL ADRIAN      1826 DEVERON RD                         000N        CARE OF             
MTR04755500001000000000000000RA              33736526    007500620000006200000520000003NN  NNW 000                       N    
RDG04755500WATRL000000004K00000000000003096018909042015101455N000400000010N40       000220400K 10000000010000003079           
CUS0475550000104135256008         KOUYOUMJIAN KIMBERLY1824 DEVERON RD                         000N        CARE OF             
MTR04755500001000000000000000RA              33736446    007500630000006300000520000003NN  NNW 000                       N    
RDG04755500WATRL000000004K00000000000002274018809042015101433N000000000000N40       000340400K 10000000010000002261           
CUS0475550000104135257006         PATRY RICHARD       1822 DEVERON RD                         000N        CARE OF             
MTR04755500001000000000000000RA              36699173    007500640000006400000520000003NN  NNW 000                       N    
RDG04755500WATRL000000004K00000000000004652018709042015101359N000400000010N40       000360400K 10000000010000004643           
CUS0475550000104135258004         COLLEEN GINLESBERGER1820 DEVERON RD                         000N        CARE OF             
MTR04755500001000000000000000RA              41193537    007500650000006500000520000003NN  NNW 000                       N    
RDG04755500WATRL000000004K00000000000004049018609042015101323N000000000000N40       000380400K 10000000010000004037           
CUS0475550000104135259002         LOPEZ MARIA M       1818 DEVERON RD                         000N        CARE OF             
MTR04755500001000000000000000RA              35105280    007500660000006600000520000003NN  NNW 000                       N    
RDG04755500WATRL000000004K00000000000004645018509042015101245N000000000000N40       000440400K 10000000010000004623           
CUS0475550000104135260000         SMITH JOYCE A       1816 DEVERON RD                         000N        CARE OF             
MTR04755500001000000000000000RA              35105278    007500670000006700000520000003NN  NNW 000                       N    
RDG04755500WATRL000000004K00000000000001948018409042015101201N000000000000N40       000500400K 10000000010000001920           
CUS0475550000104135261008         LARGENT CHERYL ANN H1814 DEVERON RD                         000N        CARE OF             
MTR04755500001000000000000000RA              30000789    007500680000006800000570000003NN  NNW 000                       N    
RDG04755500WATRL000000004K00000000000000073018309042015101111N000000000000N40       000350400K 10000000010000000064           
CUS0475550000104135262006         SARTORI PETER,JR    1812 DEVERON RD                         000N        CARE OF             
MTR04755500001000000000000000RA              39080937    007500690000006900000520000003NN  NNW 000                       N    
RDG04755500WATRL000000004K00000000000001924018209042015101036N000000000000N40       000280400K 10000000010000001920           
CUS0475550000104135263004         MORAN TERRY L       1810 DEVERON RD                         000N        CARE OF             
MTR04755500001000000000000000RA              39080940    007500700000007000000520000003NN  NNW 000                       N    
RDG04755500WATRL000000004K00000000000001213018109042015101008N000000000000N40       000320400K 10000000010000001198           
CUS0475550000104135264002         BENJAMIN NATHAN     1808 DEVERON RD                         000N        CARE OF             
MTR04755500001000000000000000RA              39080941    007500710000007100000520000003NN  NNW 000                       N    
RDG04755500WATRL000000004K00000000000001981018009042015100936N000000000000N40       000570400K 10000000010000001965           
CUS0475550000104135265009         CHANA BALWINDER S   1806 DEVERON RD                         000N        CARE OF             
MTR04755500001000000000000000RA              00121090    007500720000007200000570000003NN  NNW 000                       N    
RDG04755500WATRL000000004K00000000000000776017909042015100839N000000000000N40       000340400K 10000000010000000767           
CUS0475550000104135266007         VARIPATIS MICHAEL S 1804 DEVERON RD                         000N        CARE OF             
MTR04755500001000000000000000RA              39080947    007500730000007300000520000003NN  NNW 000                       N    
RDG04755500WATRL000000004K00000000000002165017809042015100805N000000000000N40       000330400K 10000000010000002142           
CUS0475550000104135267005         KACZMAREK RAYMOND F,1802 DEVERON RD                         000N        CARE OF             
MTR04755500001000000000000000RA              39080942    007500740000007400000520000003NN  NNW 000                       N    
RDG04755500WATRL000000004K00000000000001974017709042015100732N000000000000N40       000330400K 10000000010000001953           
CUS0475550000104135268003         BARNES ELMER L,3RD  1800 DEVERON RD                         000N        CARE OF             
MTR04755500001000000000000000RA              39080945    007500750000007500000520000003NN  NNW 000                       N    
RDG04755500WATRL000000004K00000000000002660017609042015100659N000000000000N40       000560400K 10000000010000002637           
CUS0475550000104135269001         MARCONE SIAN        1736 ABERDEEN RD                        000N        CARE OF             
MTR04755500001000000000000000RA              27893434    007500760000007600000520000003NN  NNW 000                       N    
RDG04755500WATRL000000004K00000000000003124017509042015100603N000000000000N40       000210400K 10000000010000003111           
CUS0475550000104135270009         SHIELDS TIERSA      1734 ABERDEEN RD                        000N        CARE OF             
MTR04755500001000000000000000RA              35106194    007500770000007700000520000003NN  NNW 000                       N    
RDG04755500WATRL000000004K00000000000002516017409042015100542N000000000000N40       000480400K 10000000010000002486           
CUS0475550000104135271007         LAWERENCE B BASIGNAN1732 ABERDEEN RD                        000N        CARE OF             
MTR04755500001000000000000000RA              43904198    007500780000007800000520000003NN  NNW 000                       N    
RDG04755500WATRL000000004K00000000000001538017309042015100454N000000000000N40       000390400K 10000000010000001527           
CUS0475550000104135272005         ONEIL CHRISTOPHER J 1730 ABERDEEN RD                        000N        CARE OF             
MTR04755500001000000000000000RA              35105315    007500790000007900000520000003NN  NNW 000                       N    
RDG04755500WATRL000000004K00000000000004507017209042015100415N000000000000N40       000440400K 10000000010000004481           
CUS0475550000104135273003         MORGERETH ANGELA M  1728 ABERDEEN RD                        000N        CARE OF             
MTR04755500001000000000000000RA              39256271    007500800000008000000520000003NN  NNW 000                       N    
RDG04755500WATRL000000004K00000000000003534017109042015100331N000000000000N40       000290400K 10000000010000003524           
CUS0475550000104135274001         ROY LINDA RAE       1726 ABERDEEN RD                        000N        CARE OF             
MTR04755500001000000000000000RA              99411374    007500810000008100000570000003NN  NNW 000                       N    
RDG04755500WATRL000000004K00000000000001814017009042015100302N000000000000N40       000350400K 10000000010000001697           
CUS0475550000104135275008         HARRISON ROGER CRAIG1724 ABERDEEN RD                        000N        CARE OF             
MTR04755500001000000000000000RA              33731503    007500820000008200000520000003NN  NNW 000                       N    
RDG04755500WATRL000000004K00000000000001920016909042015100227N000000000000N40       000310400K 10000000010000001911           
CUS0475550000104135276006         MARANTO JOHN J      1722 ABERDEEN RD                        000N        CARE OF             
MTR04755500001000000000000000RA              28432965    007500830000008300000520000003NN  NNW 000                       N    
RDG04755500WATRL000000004K00000000000005219016809042015100156N000000000000N40       006540400K 10000000010000005200           
CUS0475550000104135277004         SHAWN M SPENCER     1811 LOCH SHIEL RD                      000N        CARE OF             
MTR04755500001000000000000000RA              30528895    007500840000008400000520000003NN  NNW 000                       N    
RDG04755500WATRL000000004K00000000000003737016709042015095102N000000000000N40       000280400K 10000000010000003727           
CUS0475550000104135278002         BILZ RAYMOND        1813 LOCH SHIEL RD                      000N        CARE OF             
MTR04755500001000000000000000RA              27333390    007500850000008500000520000003NN  NNW 000                       N    
RDG04755500WATRL000000004K00000000000004462016609042015095034N000000000000N40       000340400K 10000000010000004424           
CUS0475550000104135279000         FOX RYAN            1815 LOCH SHIEL RD                      000N        CARE OF             
MTR04755500001000000000000000RA              99411503    007500860000008600000570000003NN  NNW 000                       N    
RDG04755500WATRL000000004K00000000000000806016509042015095000N000000000000N40       000030400K 10000000010000000795           
CUS0475550000104135280008         REMBOLD LISA M      1817 LOCH SHIEL RD                      000N        CARE OF             
MTR04755500001000000000000000RA              27333602    007500870000008700000520000003NN  NNW 000                       N    
RDG04755500WATRL000000004K00000000000001954016409042015094957N000000000000N40       000980400K 10000000010000001949           
CUS0475550000104135281006         LEVY RYAN J         1819 LOCH SHIEL RD                      000N        CARE OF             
MTR04755500001000000000000000RA              41089093    007500880000008800000520000003NN  NNW 000                       N    
RDG04755500WATRL000000004K00000000000001489016309042015094819N000000000000N40       000200400K 10000000010000001471           
CUS0475550000104135282004         LEWIS CAROL E       1821 LOCH SHIEL RD                      000N        CARE OF             
MTR04755500001000000000000000RA              78028172    007500890000008900000350000003NN  NNW 000                       N    
RDG04755500WATRL000000004K00000000000000000016209042015094759S001000000000N40       000280400K 10000000010000000040           
CUS0475550000104135283002         VILLE SUSAN J       1823 LOCH SHIEL RD                      000N        CARE OF             
MTR04755500001000000000000000RA              33181026    007500900000009000000520000003NN  NNW 000                       N    
RDG04755500WATRL000000004K00000000000003518016109042015094731N000000000000N40       000330400K 10000000010000003481           
CUS0475550000104135284000         CARSON DARYL M      1825 LOCH SHIEL RD                      000N        CARE OF             
MTR04755500001000000000000000RA              77544811    007500910000009100000350000003NN  NNW 000                       N    
RDG04755500WATRL000000004K00000000000000033016009042015094658N000000000000N40       000310400K 10000000010000000032           
CUS0475550000104135285007         PELUSO PAUL A       1827 LOCH SHIEL RD                      000N        CARE OF             
MTR04755500001000000000000000RA              39256562    007500920000009200000520000003NN  NNW 000                       N    
RDG04755500WATRL000000004K00000000000002153015909042015094627N000000000000N40       000240400K 10000000010000002132           
CUS0475550000104135286005         LIBERTINI ROBERT I/S1829 LOCH SHIEL RD                      000N        CARE OF             
MTR04755500001000000000000000RA              99411505    007500930000009300000570000003NN  NNW 000                       N    
RDG04755500WATRL000000004K00000000000000719015809042015094603N000000000000N40       000490400K 10000000010000000709           
CUS0475550000104135287003         DAUGHERTY LAURA     1831 LOCH SHIEL RD                      000N        CARE OF             
MTR04755500001000000000000000RA              99411379    007500940000009400000570000003NN  NNW 000                       N    
RDG04755500WATRL000000004K00000000000001632015709042015094514N000000000000N40       000240400K 10000000010000001614           
CUS0475550000104135288001         BRATHWAITE KELVIN F 1833 LOCH SHIEL RD                      000N        CARE OF             
MTR04755500001000000000000000RA              25762856    007500950000009500000520000003NN  NNW 000                       N    
RDG04755500WATRL000000004K00000000000003986015609042015094450N000000000000N40       000360400K 10000000010000003961           
CUS0475550000104135289009         FRANKER MARK W      1835 LOCH SHIEL RD                      000N        CARE OF             
MTR04755500001000000000000000RA              78028535    007500960000009600000350000003NN  NNW 000                       N    
RDG04755500WATRL000000004K00000000000000000015509042015094414S001000000000N40       000040400K 10000000010000000061           
CUS0475550000104135290007         DRING ANDREW R      1837 LOCH SHIEL RD                      000N        CARE OF             
MTR04755500001000000000000000RA              35105318    007500970000009700000520000003NN  NNW 000                       N    
RDG04755500WATRL000000004K00000000000001918015409042015094410N000000000000N40       000530400K 10000000010000001904           
CUS0475550000104135291005         THE VENETIA HOLLAND 1839 LOCH SHIEL RD                      000N        CARE OF             
MTR04755500001000000000000000RA              78028173    007500980000009800000350000003NN  NNW 000                       N    
RDG04755500WATRL000000004K00000000000000000015309042015094317S001000000000N40       000050400K 10000000010000000038           
CUS0475550000104135292003         FINN EILEEN         1841 LOCH SHIEL RD                      000N        CARE OF             
MTR04755500001000000000000000RA              99411378    007500990000009900000570000003NN  NNW 000                       N    
RDG04755500WATRL000000004K00000000000001089015209042015094312N000000000000N40       000190400K 10000000010000001078           
CUS0475550000104135293001         HILLARY GEORGE D    1843 LOCH SHIEL RD                      000N        CARE OF             
MTR04755500001000000000000000RA              99411376    007501000000010000000570000003NN  NNW 000                       N    
RDG04755500WATRL000000004K00000000000000950015109042015094253N000000000000N40       000330400K 10000000010000000923           
CUS0475550000104135294009         STRAIN RUTH J       1845 LOCH SHIEL RD                      000N        CARE OF             
MTR04755500001000000000000000RA              39256561    007501010000010100000520000003NN  NNW 000                       N    
RDG04755500WATRL000000004K00000000000001331015009042015094220N000000000000N40       000200400K 10000000010000001318           
CUS0475550000104135295006         SEIPP RYAN D        1847 LOCH SHIEL RD                      000N        CARE OF             
MTR04755500001000000000000000RA              99411377    007501020000010200000570000003NN  NNW 000                       N    
RDG04755500WATRL000000004K00000000000001288014909042015094200N000000000000N40       000300400K 10000000010000001235           
CUS0475550000104135296004         MANZ JOSEPH H       1849 LOCH SHIEL RD                      000N        CARE OF             
MTR04755500001000000000000000RA              99411375    007501030000010300000570000003NN  NNW 000                       N    
RDG04755500WATRL000000004K00000000000000579014809042015094130N000000000000N40       000270400K 10000000010000000574           
CUS0475550000104135297002         LESLIE A SULT       1851 LOCH SHIEL RD                      000N        CARE OF             
MTR04755500001000000000000000RA              99376036    007501040000010400000570000003NN  NNW 000                       N    
RDG04755500WATRL000000004K00000000000000961014709042015094103N000000000000N40       000520400K 10000000010000000940           
CUS0475550000104135298000         RAMSBURG LOUIS A,JR 1853 LOCH SHIEL RD                      000N        CARE OF             
MTR04755500001000000000000000RA              43904849    007501050000010500000520000003NN  NNW 000                       N    
RDG04755500WATRL000000004K00000000000002425014609042015094011N000000000000N40       000210400K 10000000010000002407           
CUS0475550000104135299008         BAXTER ADAM         1855 LOCH SHIEL RD                      000N        CARE OF             
MTR04755500001000000000000000RA              78028175    007501060000010600000350000003NN  NNW 000                       N    
RDG04755500WATRL000000004K00000000000000000014509042015093950S001000000000N40       000100400K 10000000010000000032           
CUS0475550000104135300004         MCCART MAUREEN M    1857 LOCH SHIEL RD                      000N        CARE OF             
MTR04755500001000000000000000RA              78028176    007501070000010700000350000003NN  NNW 000                       N    
RDG04755500WATRL000000004K00000000000000000014409042015093940S001000000000N40       000090400K 10000000010000000026           
CUS0475550000104135301002         COX MICHAEL T       1859 LOCH SHIEL RD                      000N        CARE OF             
MTR04755500001000000000000000RA              43904850    007501080000010800000520000003NN  NNW 000                       N    
RDG04755500WATRL000000004K00000000000001749014309042015093931N000000000000N40       000330400K 10000000010000001731           
CUS0475550000104135302000         CRONIN KAREN        1861 LOCH SHIEL RD                      000N        CARE OF             
MTR04755500001000000000000000RA              35113066    007501090000010900000520000003NN  NNW 000                       N    
RDG04755500WATRL000000004K00000000000001430014209042015093858N000000000000N40       000500400K 10000000010000001420           
CUS0475550000104135303008         AHUJA GURMINDER S   1863 LOCH SHIEL RD                      000N        CARE OF             
MTR04755500001000000000000000RA              99376038    007501100000011000000570000003NN  NNW 000                       N    
RDG04755500WATRL000000004K00000000000000575014109042015093808N000300000010N40       000550400K 10000000010000000870           
CUS0475550000104135304006         TOSTI MARK A        1865 LOCH SHIEL RD                      000N        CARE OF             
MTR04755500001000000000000000RA              19462907    007501110000011100000520000003NN  NNW 000                       N    
RDG04755500WATRL000000004K00000000000009149014009042015093713N000000000000N40       000550400K 10000000010000009130           
CUS0475550000104135305003         WOLF E RUSSELL,JR   1867 LOCH SHIEL RD                      000N        CARE OF             
MTR04755500001000000000000000RA              78028170    007501120000011200000350000003NN  NNW 000                       N    
RDG04755500WATRL000000004K00000000000000000013909042015093618S001000000000N40       000300400K 10000000010000000000           
CUS0475550000104135306001         EUSTICE JUANITA L   1869 LOCH SHIEL RD                      000N        CARE OF             
MTR04755500001000000000000000RA              39256558    007501130000011300000520000003NN  NNW 000                       N    
RDG04755500WATRL000000004K00000000000002322013809042015093548N000000000000N40       000370400K 10000000010000002313           
CUS0475550000104135307009         PHILLIPS LANCE C    1871 LOCH SHIEL RD                      000N        CARE OF             
MTR04755500001000000000000000RA              29682429    005801140000011400000520000003NN  NNW 000                       N    
RDG04755500WATRL000000004K00000000000003007013709042015093511N000000000000N40       000290400K 10000000010000002989           
CUS0475550000104135308007         PHILLIPS GERALD LYNN1873 LOCH SHIEL RD                      000N        CARE OF             
MTR04755500001000000000000000RA              29121574    007501150000011500000520000003NN  NNW 000                       N    
RDG04755500WATRL000000004K00000000000002843013609042015093442N000000000000N40       000360400K 10000000010000002833           
CUS0475550000104135309005         HAYES MIKESHA CHRIST1875 LOCH SHIEL RD                      000N        CARE OF             
MTR04755500001000000000000000RA              78028175    007501160000011600000350000003NN  NNW 000   VACANT / LOT        N    
RDG04755500WATRL000000004K00000000000000000013509042015093406S001000000000N40       000040400K 10000000010000000000           
CUS0475550000104135310003         PORTER CHARLES R    1877 LOCH SHIEL RD                      000N        CARE OF             
MTR04755500001000000000000000RA              78028177    007501170000011700000350000003NN  NNW 000                       N    
RDG04755500WATRL000000004K00000000000000000013409042015093402S001000000000N40       000340400K 10000000010000000000           
CUS0475550000104135311001         WRIGHT STACEY A     1874 LOCH SHIEL RD                      000N        CARE OF             
MTR04755500001000000000000000RA              24624756    007501180000011800000520000003NN  NNW 000                       N    
RDG04755500WATRL000000004K00000000000003888004409042015072701N000000000000N40       000780400K 10000000010000003879           
CUS0475550000104135312009         JORDAN R TAYLOR     1872 LOCH SHIEL RD                      000N        CARE OF             
MTR04755500001000000000000000RA              99411633    007501190000011900000570000003NN  NNW 000                       N    
RDG04755500WATRL000000004K00000000000000723004309042015072543N000000000000N40       000350400K 10000000010000000714           
CUS0475550000104135313007         LANG KIMBERLEY M    1870 LOCH SHIEL RD                      000N        CARE OF             
MTR04755500001000000000000000RA              27065038    007501200000012000000520000003NN  NNW 000                       N    
RDG04755500WATRL000000004K00000000000001205004209042015072508N000000000000N40       000370400K 10000000010000001199           
CUS0475550000104135314005         MICHAEL A BAIER     1868 LOCH SHIEL RD                      000N        CARE OF             
MTR04755500001000000000000000RA              35113667    007501210000012100000520000003NN  NNW 000                       N    
RDG04755500WATRL000000004K00000000000003573004109042015072431N000000000000N40       001030400K 10000000010000003551           
CUS0475550000104135315002         DRISCOLL BARBARA A  1866 LOCH SHIEL RD                      000N        CARE OF             
MTR04755500001000000000000000RA              37690145    007501220000012200000520000003NN  NNW 000                       N    
RDG04755500WATRL000000004K00000000000003048013309042015093328N000000000000N40       000470400K 10000000010000003037           
CUS0475550000104135316000         KELLY DIONNE L      1864 LOCH SHIEL RD                      000N        CARE OF             
MTR04755500001000000000000000RA              35105755    007501230000012300000520000003NN  NNW 000                       N    
RDG04755500WATRL000000004K00000000000002160013209042015093241N000000000000N40       000380400K 10000000010000002149           
CUS0475550000104135317008         LITTLE WILLIAM D    1862 LOCH SHIEL RD                      000N        CARE OF             
MTR04755500001000000000000000RA              37690144    007501240000012400000520000003NN  NNW 000                       N    
RDG04755500WATRL000000004K00000000000003823013109042015093203N000000000000N40       000510400K 10000000010000003665           
CUS0475550000104135318006         RUFFIN WILLIAM BROOK1860 LOCH SHIEL RD                      000N        CARE OF             
MTR04755500001000000000000000RA              37690148    007501250000012500000520000003NN  NNW 000                       N    
RDG04755500WATRL000000004K00000000000002350013009042015093112N000000000000N40       000320400K 10000000010000002339           
CUS0475550000104135319004         GILBERT JACQUELINE N1858 LOCH SHIEL RD                      000N        CARE OF             
MTR04755500001000000000000000RA              00120452    007501260000012600000570000003NN  NNW 000                       N    
RDG04755500WATRL000000004K00000000000000742012909042015093040N000000000000N40       000680400K 10000000010000000737           
CUS0475550000104135320002         KEENAN VINCENT I    1856 LOCH SHIEL RD                      000N        CARE OF             
MTR04755500001000000000000000RA              37690146    007501270000012700000520000003NN  NNW 000                       N    
RDG04755500WATRL000000004K00000000000003254012809042015092932N000000000000N40       000340400K 10000000010000003244           
CUS0475550000104135321000         DUGENT CHARLES A    1854 LOCH SHIEL RD                      000N        CARE OF             
MTR04755500001000000000000000RA              37690157    007501280000012800000520000003NN  NNW 000                       N    
RDG04755500WATRL000000004K00000000000002863012709042015092858N000000000000N40       000290400K 10000000010000002852           
CUS0475550000104135322008         DIPIETRO CARA N     1852 LOCH SHIEL RD                      000N        CARE OF             
MTR04755500001000000000000000RA              41089744    007501290000012900000520000003NN  NNW 000                       N    
RDG04755500WATRL000000004K00000000000001321012609042015092829N000000000000N40       000560400K 10000000010000001310           
CUS0475550000104135323006         MISKIMON SHANNON    1850 LOCH SHIEL RD                      000N        CARE OF             
MTR04755500001000000000000000RA              27893669    007501300000013000000520000003NN  NNW 000                       N    
RDG04755500WATRL000000004K00000000000004154012509042015092733N000000000000N40       000450400K 10000000010000004138           
CUS0475550000104135324004         FORSYTH JAMES       1848 LOCH SHIEL RD                      000N        CARE OF             
MTR04755500001000000000000000RA              99411639    007501310000013100000570000003NN  NNW 000                       N    
RDG04755500WATRL000000004K00000000000003295012409042015092648N000400000010N40       000370400K 10000000010000003289           
CUS0475550000104135325001         MANN FLORAMAE       1846 LOCH SHIEL RD                      000N        CARE OF             
MTR04755500001000000000000000RA              31086146    007501320000013200000520000003NN  NNW 000                       N    
RDG04755500WATRL000000004K00000000000006184012309042015092611N000000000000N40       000030400K 10000000010000006140           
CUS0475550000104135326009         WATERS LAWRENCE JOSE1844 LOCH SHIEL RD                      000N        CARE OF             
MTR04755500001000000000000000RA              24624948    007501330000013300000520000003NN  NNW 000                       N    
RDG04755500WATRL000000004K00000000000003139012209042015092608N000400000010N40       000590400K 10000000010000003130           
CUS0475550000104135327007         EAGLE INVESTMENTS LL1842 LOCH SHIEL RD                      000N        CARE OF             
MTR04755500001000000000000000RA              30000640    007501340000013400000570000003NN  NNW 000                       N    
RDG04755500WATRL000000004K00000000000000667012109042015092509N000000000000N40       000230400K 10000000010000000667           
CUS0475550000104135328005         GREEN DAVID H,JR    1840 LOCH SHIEL RD                      000N        CARE OF             
MTR04755500001000000000000000RA              78028174    007501350000013500000350000003NN  NNW 000                       N    
RDG04755500WATRL000000004K00000000000000000012009042015092446S001000000000N40       000290400K 10000000010000000011           
CUS0475550000104135329003         KEOHANAM PHATH      1838 LOCH SHIEL RD                      000N        CARE OF             
MTR04755500001000000000000000RA              37690156    007501360000013600000520000003NN  NNW 000                       N    
RDG04755500WATRL000000004K00000000000003773011909042015092417N000000000000N40       000480400K 10000000010000003739           
CUS0475550000104135330001         PENN GINA E         1836 LOCH SHIEL RD                      000N        CARE OF             
MTR04755500001000000000000000RA              37690158    007501370000013700000520000003NN  NNW 000                       N    
RDG04755500WATRL000000004K00000000000003360011809042015092329N000000000000N40       000500400K 10000000010000003340           
CUS0475550000104135331009         BINFORD JEFFREY R   1834 LOCH SHIEL RD                      000N        CARE OF             
MTR04755500001000000000000000RA              37690159    007501380000013800000520000003NN  NNW 000                       N    
RDG04755500WATRL000000004K00000000000002959011709042015092239N000400000010N40       000370400K 10000000010000002934           
CUS0475550000104135332007         ANGIELSKI MARK T    1832 LOCH SHIEL RD                      000N        CARE OF             
MTR04755500001000000000000000RA              27678279    007501390000013900000520000003NN  NNW 000                       N    
RDG04755500WATRL000000004K00000000000002863011609042015092202N000000000000N40       000560400K 10000000010000002844           
CUS0475550000104135333005         JAMES A OUDIN       1830 LOCH SHIEL RD                      000N        CARE OF             
MTR04755500001000000000000000RA              37690160    007501400000014000000520000003NN  NNW 000                       N    
RDG04755500WATRL000000004K00000000000002584011509042015092106N000000000000N40       000470400K 10000000010000002574           
CUS0475550000104135334003         SWANSON BARBARA T   1828 LOCH SHIEL RD                      000N        CARE OF             
MTR04755500001000000000000000RA              37690213    007501410000014100000520000003NN  NNW 000                       N    
RDG04755500WATRL000000004K00000000000002028011409042015092019N000000000000N40       000590400K 10000000010000002021           
CUS0475550000104135335000         KRAUSS JENYFER A    1826 LOCH SHIEL RD                      000N        CARE OF             
MTR04755500001000000000000000RA              37690211    007501420000014200000520000003NN  NNW 000                       N    
RDG04755500WATRL000000004K00000000000001433011309042015091920N000000000000N40       000470400K 10000000010000001428           
CUS0475550000104135336008         WONG YUE PAK  WONG Y1824 LOCH SHIEL RD                      000N        CARE OF             
MTR04755500001000000000000000RA              37690214    007501430000014300000520000003NN  NNW 000                       N    
RDG04755500WATRL000000004K00000000000003412011209042015091833N000000000000N40       000290400K 10000000010000003373           
CUS0475550000104135337006         CONLEY LAWRENCE E   1822 LOCH SHIEL RD                      000N        CARE OF             
MTR04755500001000000000000000RA              99411634    007501440000014400000570000003NN  NNW 000                       N    
RDG04755500WATRL000000004K00000000000001203011109042015091804N000000000000N40       000280400K 10000000010000001197           
CUS0475550000104135338004         DANIELS SHELTON T   1820 LOCH SHIEL RD                      000N        CARE OF             
MTR04755500001000000000000000RA              99411637    007501450000014500000570000003NN  NNW 000                       N    
RDG04755500WATRL000000004K00000000000000892011009042015091736N000000000000N40       000240400K 10000000010000000885           
CUS0475550000104135339002         ERPENSTEIN JOANNE P 1818 LOCH SHIEL RD                      000N        CARE OF             
MTR04755500001000000000000000RA              99375955    007501460000014600000570000003NN  NNW 000                       N    
RDG04755500WATRL000000004K00000000000001094010909042015091712N000000000000N40       000240400K 10000000010000001082           
CUS0475550000104135340000         PROBST MICHAEL A    1816 LOCH SHIEL RD                      000N        CARE OF             
MTR04755500001000000000000000RA              37690074    007501470000014700000520000003NN  NNW 000                       N    
RDG04755500WATRL000000004K00000000000002739010809042015091648N000000000000N40       000230400K 10000000010000002716           
CUS0475550000104135341008         MILANO MICHAEL A    1814 LOCH SHIEL RD                      000N        CARE OF             
MTR04755500001000000000000000RA              78028171    007501480000014800000350000003NN  NNW 000                       N    
RDG04755500WATRL000000004K00000000000000000010709042015091625S001000000000N40       000250400K 10000000010000000076           
CUS0475550000104135342006         JENNIFER PORTER     1812 LOCH SHIEL RD                      000N        CARE OF             
MTR04755500001000000000000000RA              78028531    007501490000014900000350000003NN  NNW 000                       N    
RDG04755500WATRL000000004K00000000000000000010609042015091600S001000000000N40       000170400K 10000000010000000023           
CUS0475550000104135343004         HARRISON JOHN L  HAR1810 LOCH SHIEL RD                      000N        CARE OF             
MTR04755500001000000000000000RA              37690071    007501500000015000000520000003NN  NNW 000                       N    
RDG04755500WATRL000000004K00000000000002191010509042015091543N000000000000N40       000300400K 10000000010000002177           
CUS0475550000104135344002         HERWIG GARY STEVEN  1808 LOCH SHIEL RD                      000N        CARE OF             
MTR04755500001000000000000000RA              37690066    007501510000015100000520000003NN  NNW 000                       N    
RDG04755500WATRL000000004K00000000000001556010409042015091513N000000000000N40       000300400K 10000000010000001544           
CUS0475550000104135345009         PERRY ROBERT N  PERR1806 LOCH SHIEL RD                      000N        CARE OF             
MTR04755500001000000000000000RA              78028533    007501520000015200000350000003NN  NNW 000                       N    
RDG04755500WATRL000000004K00000000000000000010309042015091443S001000000000N40       000560400K 10000000010000000029           
CUS0475550000104135346007         PAMELA SUE HALL     1804 LOCH SHIEL RD                      000N        CARE OF             
MTR04755500001000000000000000RA              37690068    007501530000015300000520000003NN  NNW 000                       N    
RDG04755500WATRL000000004K00000000000002641010209042015091347N000000000000N40       000560400K 10000000010000002607           
CUS0475550000104135347005         WESTBROOK MICHAEL A,1802 LOCH SHIEL RD                      000N        CARE OF             
MTR04755500001000000000000000RA              37690069    007501540000015400000520000003NN  NNW 000                       N    
RDG04755500WATRL000000004K00000000000003481010109042015091251N000400000010N40       000450400K 10000000010000003427           
CUS0475550000104135348003         CARROLL KEVIN       1800 LOCH SHIEL RD                      000N        CARE OF             
MTR04755500001000000000000000RA              37690075    007501550000015500000520000003NN  NNW 000                       N    
RDG04755500WATRL000000004K00000000000005162010009042015091206N000000000010N40       000490400K 10000000010000005153           
CUS0475550000104135349001         SHIPMAN BONNIE      1720 ABERDEEN RD                        000N        CARE OF             
MTR04755500001000000000000000RA              9692617     007501560000015600000570000003NN  NNW 000                       N    
RDG04755500WATRL000000004K00000000000004004009909042015091117N000000000000N40       000470400K 10000000010000003982           
CUS0475550000104135350009         ANDERSON VIRGINIA D 1718 ABERDEEN RD                        000N        CARE OF             
MTR04755500001000000000000000RA              29994955    007501570000015700000520000003NN  NNW 000                       N    
RDG04755500WATRL000000004K00000000000002559009809042015091030N000400000010N40       000290400K 10000000010000002542           
CUS0475550000104135351007         JONES ALBERT T      1716 ABERDEEN RD                        000N        CARE OF             
MTR04755500001000000000000000RA              00121263    007501580000015800000570000003NN  NNW 000                       N    
RDG04755500WATRL000000004K00000000000000512009709042015091001N000000000000N40       000310400K 10000000010000000504           
CUS0475550000104135352005         SCOTT THERESA       1714 ABERDEEN RD                        000N        CARE OF             
MTR04755500001000000000000000RA              99411636    007501590000015900000570000003NN  NNW 000                       N    
RDG04755500WATRL000000004K00000000000000893009609042015090930N000000000000N40       000340400K 10000000010000000880           
CUS0475550000104135353003         TOWNER GEORGE W,JR  1712 ABERDEEN RD                        000N        CARE OF             
MTR04755500001000000000000000RA              31937511    007501600000016000000520000003NN  NNW 000                       N    
RDG04755500WATRL000000004K00000000000003707009509042015090856N000000000000N40       000350400K 10000000010000003689           
CUS0475550000104135354001         SWISHER JAMES D  SWI1710 ABERDEEN RD                        000N        CARE OF             
MTR04755500001000000000000000RA              31346057    007501610000016100000520000003NN  NNW 000                       N    
RDG04755500WATRL000000004K00000000000003437009409042015090821N000000000000N40       000330400K 10000000010000003419           
CUS0475550000104135355008         HOMMEL MARY SHECKLS 1708 ABERDEEN RD                        000N        CARE OF             
MTR04755500001000000000000000RA              39080863    007501620000016200000520000003NY  NNW 000                       N    
MTM0475550039080863    VAC                                                                                                    
RDG04755500WATRL000000004K00000000000000824009309042015090748N000000000010N40       000600400K 10000000010000000823           
CUS0475550000104135356006         WARD ELLEN E        1706 ABERDEEN RD                        000N        CARE OF             
MTR04755500001000000000000000RA              43904683    007501630000016300000520000003NN  NNW 000                       N    
RDG04755500WATRL000000004K00000000000001634009209042015090648N000000000000N40       000350400K 10000000010000001624           
CUS0475550000104135357004         TOSI BYRON GEOFFREY,1704 ABERDEEN RD                        000N        CARE OF             
MTR04755500001000000000000000RA              41089234    007501640000016400000520000003NN  NNW 000                       N    
RDG04755500WATRL000000004K00000000000002588009109042015090613N000000000000N40       000360400K 10000000010000002581           
CUS0475550000104135358002         MEAGHER SEAN P      1702 ABERDEEN RD                        000N        CARE OF             
MTR04755500001000000000000000RA              41089236    007501650000016500000520000003NN  NNW 000                       N    
RDG04755500WATRL000000004K00000000000003643009009042015090537N000400000010N40       000500400K 10000000010000003620           
CUS0475550000104135359000         CUOMO FREDERICK J  C1700 ABERDEEN RD                        000N        CARE OF             
MTR04755500001000000000000000RA              41089239    007501660000016600000520000003NN  NNW 000                       N    
RDG04755500WATRL000000004K00000000000001322008909042015090447N000000000000N40       041890400K 10000000010000001313           
CUS0475550000104135360008         BOWEN LAURA J       1701 GLEN RIDGE RD                      000N        CARE OF             
MTR04755500001000000000000000RA              36699290    007501670000016700000520000003NN  NNW 000                       N    
RDG04755500WATRL000000004K00000000000002633008809042015075458N000400000010N40       000480400K 10000000010000002623           
CUS0475550000104135361006         STUEHLER DEBORAH K  1703 GLEN RIDGE RD                      000N        CARE OF             
MTR04755500001000000000000000RA              30000372    007501680000016800000570000003NN  NNW 000                       N    
RDG04755500WATRL000000004K00000000000000393008709042015075410N000000000000N40       000300400K 10000000010000000376           
CUS0475550000104135362004         MICHAEL R GREEN     1705 GLEN RIDGE RD                      000N        CARE OF             
MTR04755500001000000000000000RA              99376446    007501690000016900000570000003NN  NNW 000                       N    
RDG04755500WATRL000000004K00000000000000904008609042015075340N000000000000N40       000270400K 10000000010000000890           
CUS0475550000104135363002         BULL SUE ANN        1707 GLEN RIDGE RD                      000N        CARE OF             
MTR04755500001000000000000000RA              36699292    007501700000017000000520000003NN  NNW 000                       N    
RDG04755500WATRL000000004K00000000000002305008509042015075313N000000000000N40       000390400K 10000000010000002283           
CUS0475550000104135364000         SCHMIDT DIANE MARIE 1709 GLEN RIDGE RD                      000N        CARE OF             
MTR04755500001000000000000000RA              36699170    007501710000017100000520000003NN  NNW 000                       N    
RDG04755500WATRL000000004K00000000000001689008409042015075234N000400000010N40       000380400K 10000000010000001681           
CUS0475550000104135365007         LEHNHOFF ROBERT     1711 GLEN RIDGE RD                      000N        CARE OF             
MTR04755500001000000000000000RA              27066037    007501720000017200000520000003NN  NNW 000                       N    
RDG04755500WATRL000000004K00000000000002164008309042015075156N000000000000N40       000450400K 10000000010000002164           
CUS0475550000104135366005         UNEZE RICHARD       1713 GLEN RIDGE RD                      000N        CARE OF             
MTR04755500001000000000000000RA              31937273    007501730000017300000520000003NN  NNW 000                       N    
RDG04755500WATRL000000004K00000000000004026008209042015075111N000000000000N40       000960400K 10000000010000004004           
CUS0475550000104135367003         GUBA ALEXANDER MICHA1715 GLEN RIDGE RD                      000N        CARE OF             
MTR04755500001000000000000000RA              99412221    007501740000017400000570000003NN  NNW 000                       N    
RDG04755500WATRL000000004K00000000000001210008109042015074935N000000000000N40       000320400K 10000000010000001181           
CUS0475550000104135368001         ANDREA S. LENTOCHA  1717 GLEN RIDGE RD                      000N        CARE OF             
MTR04755500001000000000000000RA              36699289    007501750000017500000520000003NN  NNW 000                       N    
RDG04755500WATRL000000004K00000000000001830008009042015074903N000000000000N40       000260400K 10000000010000001825           
CUS0475550000104135369009         WOOD CALVIN COOLIDGE1719 GLEN RIDGE RD                      000N        CARE OF             
MTR04755500001000000000000000RA              25592040    007501760000017600000520000003NN  NNW 000                       N    
RDG04755500WATRL000000004K00000000000002772007909042015074837N000000000000N40       000350400K 10000000010000002763           
CUS0475550000104135370007         ROBINSON LEROY L,JR 1721 GLEN RIDGE RD                      000N        CARE OF             
MTR04755500001000000000000000RA              35113555    007501770000017700000520000003NN  NNW 000                       N    
RDG04755500WATRL000000004K00000000000002851007809042015074802N000400000011N40       000730400K 10000000010000002826           
CUS0475550000104135371005         WHERLEY STEVEN      1723 GLEN RIDGE RD                      000N        CARE OF             
MTR04755500001000000000000000RA              35113552    007501780000017800000520000003NN  NNW 000                       N    
RDG04755500WATRL000000004K00000000000001226007709042015074649N000000000000N40       000250400K 10000000010000001219           
CUS0475550000104135372003         WEDEKINK CHARLES JOS1725 GLEN RIDGE RD                      000N        CARE OF             
MTR04755500001000000000000000RA              36699293    007501790000017900000520000003NN  NNW 000                       N    
RDG04755500WATRL000000004K00000000000003418007609042015074624N000000000000N40       000330400K 10000000010000003390           
CUS0475550000104135373001         FLEMING ALEXANDRA S 1727 GLEN RIDGE RD                      000N        CARE OF             
MTR04755500001000000000000000RA              33731722    007501800000018000000520000003NN  NNW 000                       N    
RDG04755500WATRL000000004K00000000000001594007509042015074551N000000000000N40       000410400K 10000000010000001587           
CUS0475550000104135374009         TRACEY MEAGHAN A    1729 GLEN RIDGE RD                      000N        CARE OF             
MTR04755500001000000000000000RA              27066035    007501810000018100000520000003NN  NNW 000                       N    
RDG04755500WATRL000000004K00000000000002804007409042015074510N000400000010N40       000400400K 10000000010000002802           
CUS0475550000104135375006         KEHRING DENNIS M    1731 GLEN RIDGE RD                      000N        CARE OF             
MTR04755500001000000000000000RA              99411655    007501820000018200000570000003NN  NNW 000                       N    
RDG04755500WATRL000000004K00000000000001780007309042015074430N000000000000N40       000250400K 10000000010000001762           
CUS0475550000104135376004         WARFIELD DOROTHY E  1733 GLEN RIDGE RD                      000N        CARE OF             
MTR04755500001000000000000000RA              36699265    007501830000018300000520000003NN  NNW 000                       N    
RDG04755500WATRL000000004K00000000000002032007209042015074405N000000000000N40       000330400K 10000000010000002027           
CUS0475550000104135377002         MURDOCK JAMES STEPHE1735 GLEN RIDGE RD                      000N        CARE OF             
MTR04755500001000000000000000RA              28765467    007501840000018400000520000003NN  NNW 000                       N    
RDG04755500WATRL000000004K00000000000003997007109042015074332N000000000000N40       000260400K 10000000010000003985           
CUS0475550000104135378000         MANNING TONI RUTH   1737 GLEN RIDGE RD                      000N        CARE OF             
MTR04755500001000000000000000RA              28988173    007501850000018500000520000003NN  NNW 000                       N    
RDG04755500WATRL000000004K00000000000001551007009042015074306N000000000000N40       000410400K 10000000010000001549           
CUS0475550000104135379008         DACHILLE PAMELA L   1739 GLEN RIDGE RD                      000N        CARE OF             
MTR04755500001000000000000000RA              27681816    007501860000018600000520000003NN  NNW 000                       N    
RDG04755500WATRL000000004K00000000000002911006909042015074225N000000000000N40       000310400K 10000000010000002894           
CUS0475550000104135380006         BLAIR CAMILLE       1741 GLEN RIDGE RD                      000N        CARE OF             
MTR04755500001000000000000000RA              29995131    007501870000018700000520000003NN  NNW 000                       N    
RDG04755500WATRL000000004K00000000000002440006809042015074154N000000000000N40       000340400K 10000000010000002401           
CUS0475550000104135381004         WINSTON DETRIA L    1743 GLEN RIDGE RD                      000N        CARE OF             
MTR04755500001000000000000000RA              52771237    007501880000018800000520000003NN  NNW 000                       N    
RDG04755500WATRL000000004K00000000000002093006709042015074120N000000000000N40       000550400K 10000000010000002068           
CUS0475550000104135382002         BARBER RODERICK D   1745 GLEN RIDGE RD                      000N        CARE OF             
MTR04755500001000000000000000RA              33416004    007501890000018900000520000003NN  NNW 000                       N    
RDG04755500WATRL000000004K00000000000002740006609042015074025N000000000000N40       000790400K 10000000010000002719           
CUS0475550000104135383000         GLEN RIDGE LLC      1747 GLEN RIDGE RD                      000N        CARE OF             
MTR04755500001000000000000000RA              31086489    007501900000019000000520000003NN  NNW 000                       N    
RDG04755500WATRL000000004K00000000000002347006509042015073906N000000000000N40       000400400K 10000000010000002333           
CUS0475550000104135384008         STEIL ROBERT E      1749 GLEN RIDGE RD                      000N        CARE OF             
MTR04755500001000000000000000RA              30249103    007501910000019100000520000003NN  NNW 000                       N    
RDG04755500WATRL000000004K00000000000003474006409042015073826N000000000000N40       000250400K 10000000010000003463           
CUS0475550000104135385005         JAUNDOO MONICA L    1751 GLEN RIDGE RD                      000N        CARE OF             
MTR04755500001000000000000000RA              37690239    007501920000019200000520000003NN  NNW 000                       N    
RDG04755500WATRL000000004K00000000000001605006309042015073801N000000000000N40       000290400K 10000000010000001568           
CUS0475550000104135386003         SCHMUFF FREDERICK,3R1801 GLEN RIDGE RD                      000N        CARE OF             
MTR04755500001000000000000000RA              76349873    007501930000019300000350000003NN  NNW 000                       N    
RDG04755500WATRL000000004K00000000000000017006209042015073732N000000000000N40       000220400K 10000000010000000015           
CUS0475550000104135387001         MCDONOUGH MICHAEL J 1803 GLEN RIDGE RD                      000N        CARE OF             
MTR04755500001000000000000000RA              99412234    007501940000019400000570000003NN  NNW 000                       N    
RDG04755500WATRL000000004K00000000000001491006109042015073710N000000000000N40       000410400K 10000000010000001439           
CUS0475550000104135388009         ROLLER DAVID T      1805 GLEN RIDGE RD                      000N        CARE OF             
MTR04755500001000000000000000RA              24624924    007501950000019500000520000003NN  NNW 000                       N    
RDG04755500WATRL000000004K00000000000003753006009042015073629N000000000000N40       000500400K 10000000010000003729           
CUS0475550000104135389007         LEAK WEATHERSPOON TO1807 GLEN RIDGE RD                      000N        CARE OF             
MTR04755500001000000000000000RA              30000092    007501960000019600000570000003NN  NNW 000                       N    
RDG04755500WATRL000000004K00000000000000448005909042015073539N000000000000N40       000320400K 10000000010000000423           
CUS0475550000104135390005         WALLACE JOHN RAYMOND1809 GLEN RIDGE RD                      000N        CARE OF             
MTR04755500001000000000000000RA              00120453    007501970000019700000570000003NN  NNW 000                       N    
RDG04755500WATRL000000004K00000000000000678005809042015073507N000000000000N40       000490400K 10000000010000000664           
CUS0475550000104135391003         DUBAY JOHN F        1811 GLEN RIDGE RD                      000N        CARE OF             
MTR04755500001000000000000000RA              00121119    007501980000019800000570000003NN  NNW 000                       N    
RDG04755500WATRL000000004K00000000000000952005709042015073418N000000000000N40       000390400K 10000000010000000936           
CUS0475550000104135392001         SHIRLEY TALYA P     1813 GLEN RIDGE RD                      000N        CARE OF             
MTR04755500001000000000000000RA              10017915    005801990000019900000570000003NN  NNW 000                       N    
RDG04755500WATRL000000004K00000000000000394005609042015073339N000000000000N40       000400400K 10000000010000000364           
CUS0475550000104135393009         WITMYER, DONNA MAE  1815 GLEN RIDGE RD                      000N        CARE OF             
MTR04755500001000000000000000RA              30001368    007502000000020000000570000003NN  NNW 000                       N    
RDG04755500WATRL000000004K00000000000000637005509042015073259N000000000000N40       000400400K 10000000010000000590           
CUS0475550000104135394007         GRUNDMAN, GAIL M    1817 GLEN RIDGE RD                      000N        CARE OF             
MTR04755500001000000000000000RA              37690042    007502010000020100000520000003NN  NNW 000                       N    
RDG04755500WATRL000000004K00000000000001736005409042015073219N000000000000N40       000260400K 10000000010000001721           
CUS0475550000104135395004         BABE MICHAEL R      1819 GLEN RIDGE RD                      000N        CARE OF             
MTR04755500001000000000000000RA              77544837    007502020000020200000350000003NN  NNW 000                       N    
RDG04755500WATRL000000004K00000000000000106005309042015073153N000000000000N40       000440400K 10000000010000000079           
CUS0475550000104135396002         SMITH WOODWARD R    1821 GLEN RIDGE RD                      000N        CARE OF             
MTR04755500001000000000000000RA              33416590    007502030000020300000520000003NN  NNW 000                       N    
RDG04755500WATRL000000004K00000000000002103005209042015073109N000300000010N40       000240400K 10000000010000002074           
CUS0475550000104135397000         MAENNER AMANDA B    1823 GLEN RIDGE RD                      000N        CARE OF             
MTR04755500001000000000000000RA              37690008    007502040000020400000520000003NN  NNW 000                       N    
RDG04755500WATRL000000004K00000000000001880005109042015073045N000000000000N40       000370400K 10000000010000001859           
CUS0475550000104135398008         JOSEPH SALZILLO JR  1825 GLEN RIDGE RD                      000N        CARE OF             
MTR04755500001000000000000000RA              37690011    007502050000020500000520000003NN  NNW 000                       N    
RDG04755500WATRL000000004K00000000000002449005009042015073008N000000000000N40       000230400K 10000000010000002426           
CUS0475550000104135399006         SU-MEI LEE          1827 GLEN RIDGE RD                      000N        CARE OF             
MTR04755500001000000000000000RA              00120746    007502060000020600000570000003NN  NNW 000                       N    
RDG04755500WATRL000000004K00000000000000892004909042015072945N000300000010N40       000340400K 10000000010000000898           
CUS0475550000104135400002         TIMOTHY J. MURPHY   1829 GLEN RIDGE RD                      000N        CARE OF             
MTR04755500001000000000000000RA              00120826    007502070000020700000570000003NN  NNW 000                       N    
RDG04755500WATRL000000004K00000000000000206004809042015072911N000000000000N40       000240400K 10000000010000000205           
CUS0475550000104135401000         KABLIS JOHN W       1831 GLEN RIDGE RD                      000N        CARE OF             
MTR04755500001000000000000000RA              43905695    007502080000020800000520000003NN  NNW 000                       N    
RDG04755500WATRL000000004K00000000000001810004709042015072847N000000000000N40       000300400K 10000000010000001801           
CUS0475550000104135402008         NAPIER DONALD       1833 GLEN RIDGE RD                      000N        CARE OF             
MTR04755500001000000000000000RA              99308864    007502090000020900000570000003NN  NNW 000                       N    
RDG04755500WATRL000000004K00000000000001119004609042015072817N000000000000N40       000240400K 10000000010000001109           
CUS0475550000104135403006         ALAN W COLLICK      1835 GLEN RIDGE RD                      000N        CARE OF             
MTR04755500001000000000000000RA              27066034    007502100000021000000520000003NN  NNW 000                       N    
RDG04755500WATRL000000004K00000000000003490004509042015072753N000400000010N40       000520400K 10000000010000003486           
CUS0475550000104135404004         KIRSCH ED RAMOND    1901 GLEN RIDGE RD                      000N        CARE OF             
MTR04755500001000000000000000RA              99412225    007502110000021100000570000003NN  NNW 000                       N    
RDG04755500WATRL000000004K00000000000000812004009042015072248N000000000000N40       000250400K 10000000010000000797           
CUS0475550000104135405001         ATTAR VERONICA/SAFUH1903 GLEN RIDGE RD                      000N        CARE OF             
MTR04755500001000000000000000RA              37690000    007502120000021200000520000003NN  NNW 000                       N    
RDG04755500WATRL000000004K00000000000001444003909042015072223N000000000000N40       000290400K 10000000010000001432           
CUS0475550000104135406009         WEATHERBY RICHARD   1905 GLEN RIDGE RD                      000N        CARE OF             
MTR04755500001000000000000000RA              31345161    007502130000021300000520000003NN  NNW 000                       N    
RDG04755500WATRL000000004K00000000000002222003809042015072154N000000000000N40       000680400K 10000000010000002214           
CUS0475550000104135407007         HUGHES ELIZABETH P  1907 GLEN RIDGE RD                      000N        CARE OF             
MTR04755500001000000000000000RA              35105752    007502140000021400000520000003NN  NNW 000                       N    
RDG04755500WATRL000000004K00000000000002923003709042015072046N000000000000N40       000360400K 10000000010000002915           
CUS0475550000104135408005         DEMAREST HARRY E    1906 GLEN RIDGE RD                      000N        CARE OF             
MTR04755500001000000000000000RA              37690007    007502150000021500000520000003NN  NNW 000                       N    
RDG04755500WATRL000000004K00000000000001930003609042015072010N000300000010N40       000410400K 10000000010000001946           
CUS0475550000104135409003         MALASHUK ELLIS J    1904 GLEN RIDGE RD                      000N        CARE OF             
MTR04755500001000000000000000RA              99080240    007502160000021600000570000003NN  NNW 000                       N    
RDG04755500WATRL000000004K00000000000000773003509042015071929N000000000000N40       000320400K 10000000010000000766           
CUS0475550000104135410001         LOWTHER STEVEN F    1902 GLEN RIDGE RD                      000N        CARE OF             
MTR04755500001000000000000000RA              37690010    007502170000021700000520000003NN  NNW 000                       N    
RDG04755500WATRL000000004K00000000000002284003409042015071857N000000000000N40       000290400K 10000000010000002268           
CUS0475550000104135411009         BRAYTON ROSE K      1900 GLEN RIDGE RD                      000N        CARE OF             
MTR04755500001000000000000000RA              45389280    007502180000021800000520000003NN  NNW 000                       N    
RDG04755500WATRL000000004K00000000000001280003309042015071828N000300000010N40       000870400K 10000000010000001264           
CUS0475550000104135412007         SCHNEPF DANA L      1846 GLEN RIDGE RD                      000N        CARE OF             
MTR04755500001000000000000000RA              37690002    007502190000021900000520000003NN  NNW 000                       N    
RDG04755500WATRL000000004K00000000000002809003209042015071701N000000000000N40       000330400K 10000000010000002785           
CUS0475550000104135413005         DIMAKAKOS ANDREANA P1844 GLEN RIDGE RD                      000N        CARE OF             
MTR04755500001000000000000000RA              30001844    007502200000022000000570000003NN  NNW 000                       N    
RDG04755500WATRL000000004K00000000000000162003109042015071628N000000000000N40       000340400K 10000000010000000142           
CUS0475550000104135414003         MICHAEL D. DUNN     1842 GLEN RIDGE RD                      000N        CARE OF             
MTR04755500001000000000000000RA              27894096    007502210000022100000520000003NN  NNW 000                       N    
RDG04755500WATRL000000004K00000000000003384003009042015071554N000000000010N40       000430400K 10000000010000003375           
CUS0475550000104135415000         FALBO JOSEPH        1840 GLEN RIDGE RD                      000N        CARE OF             
MTR04755500001000000000000000RA              27894095    007502220000022200000520000003NN  NNW 000                       N    
RDG04755500WATRL000000004K00000000000002856002909042015071511N000000000000N40       000370400K 10000000010000002841           
CUS0475550000104135416008         LEGO RICHARD B      1838 GLEN RIDGE RD                      000N        CARE OF             
MTR04755500001000000000000000RA              46890357    007502230000022300000520000003NN  NNW 000                       N    
RDG04755500WATRL000000004K00000000000001037002809042015071434N000000000000N40       000600400K 10000000010000000958           
CUS0475550000104135417006         DURHAM TONI         1836 GLEN RIDGE RD                      000N        CARE OF             
MTR04755500001000000000000000RA              37690001    007502240000022400000520000003NN  NNW 000                       N    
RDG04755500WATRL000000004K00000000000002209002709042015071334N000000000000N40       000310400K 10000000010000002198           
CUS0475550000104135418004         CURRAN RAYMOND J,JR 1834 GLEN RIDGE RD                      000N        CARE OF             
MTR04755500001000000000000000RA              46889668    007502250000022500000520000003NN  NNW 000                       N    
RDG04755500WATRL000000004K00000000000001543002609042015071303N000000000000N40       000030400K 10000000010000001528           
CUS0475550000104135419002         MINK JOHNNY H,3RD   1832 GLEN RIDGE RD                      000N        CARE OF             
MTR04755500001000000000000000RA              45389150    007502260000022600000520000003NN  NNW 000                       N    
RDG04755500WATRL000000004K00000000000001178002509042015071300N000000000000N40       000650400K 10000000010000001172           
CUS0475550000104135420000         JOYCE MICHAEL W     1830 GLEN RIDGE RD                      000N        CARE OF             
MTR04755500001000000000000000RA              39256606    007502270000022700000520000003NN  NNW 000                       N    
RDG04755500WATRL000000004K00000000000003553002409042015071155N000400000010N40       000050400K 10000000010000003535           
CUS0475550000104135421008         MROSS KIMBERLY A    1828 GLEN RIDGE RD                      000N        CARE OF             
MTR04755500001000000000000000RA              46890084    007502280000022800000520000003NN  NNW 000                       N    
RDG04755500WATRL000000004K00000000000000858002309042015071150N000000000000N40       000440400K 10000000010000000844           
CUS0475550000104135422006         SAGLIMBENI ANTOINETT1826 GLEN RIDGE RD                      000N        CARE OF             
MTR04755500001000000000000000RA              00117448    007502290000022900000570000003NN  NNW 000                       N    
RDG04755500WATRL000000004K00000000000000559002209042015071106N000400000010N40       000350400K 10000000010000000553           
CUS0475550000104135423004         BRIAN E. CUBBAGE    1824 GLEN RIDGE RD                      000N        CARE OF             
MTR04755500001000000000000000RA              00117447    007502300000023000000570000003NN  NNW 000                       N    
RDG04755500WATRL000000004K00000000000001058002109042015071031N000400000010N40       000380400K 10000000010000001046           
CUS0475550000104135424002         HOWARD WILLIAM,JR   1822 GLEN RIDGE RD                      000N        CARE OF             
MTR04755500001000000000000000RA              24674785    007502310000023100000520000003NN  NNW 000                       N    
RDG04755500WATRL000000004K00000000000003275002009042015070953N000400000010N40       000050400K 10000000010000003262           
CUS0475550000104135425009         BROWN STACEY L      1820 GLEN RIDGE RD                      000N        CARE OF             
MTR04755500001000000000000000RA              36699331    007502320000023200000520000003NN  NNW 000                       N    
RDG04755500WATRL000000004K00000000000001903001909042015070948N000000000000N40       000490400K 10000000010000001888           
CUS0475550000104135426007         SHAFFER STEFANIE J  1818 GLEN RIDGE RD                      000N        CARE OF             
MTR04755500001000000000000000RA              36699325    007502330000023300000520000003NN  NNW 000                       N    
RDG04755500WATRL000000004K00000000000002135001809042015070859N000000000000N40       000230400K 10000000010000002125           
CUS0475550000104135427005         LITTLE JACQUELINE C 1816 GLEN RIDGE RD                      000N        CARE OF             
MTR04755500001000000000000000RA              36699333    007502340000023400000520000003NN  NNW 000                       N    
RDG04755500WATRL000000004K00000000000003025001709042015070836N000000000000N40       000260400K 10000000010000002998           
CUS0475550000104135428003         CRAWFORD JENNIFER V 1814 GLEN RIDGE RD                      000N        CARE OF             
MTR04755500001000000000000000RA              27681819    007502350000023500000520000003NN  NNW 000                       N    
RDG04755500WATRL000000004K00000000000002946001609042015070810N000000000000N40       000030400K 10000000010000002921           
CUS0475550000104135429001         KETCHUM ROBIN M     1812 GLEN RIDGE RD                      000N        CARE OF             
MTR04755500001000000000000000RA              27066039    007502360000023600000520000003NN  NNW 000                       N    
RDG04755500WATRL000000004K00000000000002680001509042015070807N000000000000N40       000610400K 10000000010000002670           
CUS0475550000104135430009         FRANK T SNYDER      1810 GLEN RIDGE RD                      000N        CARE OF             
MTR04755500001000000000000000RA              37690038    007502370000023700000520000003NN  NNW 000                       N    
RDG04755500WATRL000000004K00000000000001602001409042015070706N000000000000N40       000020400K 10000000010000001594           
CUS0475550000104135431007         EGBIREMOLEN JOYCE O 1808 GLEN RIDGE RD                      000N        CARE OF             
MTR04755500001000000000000000RA              74938868    007502380000023800000350000003NN  NNW 000                       N    
RDG04755500WATRL000000004K00000000000000209001309042015070704N000000000000N40       000420400K 10000000010000000185           
CUS0475550000104135432005         MCCLEARY JOSEPH RYAN1806 GLEN RIDGE RD                      000N        CARE OF             
MTR04755500001000000000000000RA              37690036    007502390000023900000520000003NN  NNW 000                       N    
RDG04755500WATRL000000004K00000000000001986001209042015070622N000000000000N40       000040400K 10000000010000001970           
CUS0475550000104135433003         BARKER DERRICK T    1804 GLEN RIDGE RD                      000N        CARE OF             
MTR04755500001000000000000000RA              35113226    007502400000024000000520000003NN  NNW 000                       N    
RDG04755500WATRL000000004K00000000000003258001109042015070618N000000000000N40       000340400K 10000000010000003247           
CUS0475550000104135434001         POWELL CHRISTOPHER B1802 GLEN RIDGE RD                      000N        CARE OF             
MTR04755500001000000000000000RA              37690041    007502410000024100000520000003NN  NNW 000                       N    
RDG04755500WATRL000000004K00000000000002631001009042015070544N000000000000N40       000030400K 10000000010000002625           
CUS0475550000104135435008         PARSONS PAUL        1800 GLEN RIDGE RD                      000N        CARE OF             
MTR04755500001000000000000000RA              37690039    007502420000024200000520000003NN  NNW 000                       N    
RDG04755500WATRL000000004K00000000000001176000909042015070541N000000000000N40       000430400K 10000000010000001169           
CUS0475550000104135436006         GADO KIMBERLY       1748 GLEN RIDGE RD                      000N        CARE OF             
MTR04755500001000000000000000RA              99412223    007502430000024300000570000003NN  NNW 000                       N    
RDG04755500WATRL000000004K00000000000000761000809042015070458N000000000000N40       000030400K 10000000010000000750           
CUS0475550000104135437004         JP MORGAN CHASE     1746 GLEN RIDGE RD                      000N        CARE OF             
MTR04755500001000000000000000RA              99308781    007502440000024400000570000003NN  NNW 000                       N    
RDG04755500WATRL000000004K00000000000001918000709042015070455N000000000000N40       000340400K 10000000010000001885           
CUS0475550000104135438002         HAYMAN CHAUNECE  HAY1744 GLEN RIDGE RD                      000N        CARE OF             
MTR04755500001000000000000000RA              30000094    007502450000024500000570000003NN  NNW 000                       N    
RDG04755500WATRL000000004K00000000000001103000609042015070421N000000000000N40       000230400K 10000000010000001047           
CUS0475550000104135439000         JORGE CLAURE        1742 GLEN RIDGE RD                      000N        CARE OF             
MTR04755500001000000000000000RA              30000095    007502460000024600000570000003NN  NNW 000                       N    
RDG04755500WATRL000000004K00000000000000406000509042015070358N000000000000N40       000300400K 10000000010000000406           
CUS0475550000104135440008         STOUT JACK N        1740 GLEN RIDGE RD                      000N        CARE OF             
MTR04755500001000000000000000RA              30526152    007502470000024700000520000003NN  NNW 000                       N    
RDG04755500WATRL000000004K00000000000002798000409042015070328N000400000010N40       000400400K 10000000010000002792           
CUS0475550000104135441006         GORDON WAYNE        1738 GLEN RIDGE RD                      000N        CARE OF             
MTR04755500001000000000000000RA              30526150    007502480000024800000520000003NN  NNW 000                       N    
RDG04755500WATRL000000004K00000000000004301000309042015070248N000000000000N40       001310400K 10000000010000004301           
CUS0475550000104135442004         BETHANY FISHWICK    1736 GLEN RIDGE RD                      000N        CARE OF             
MTR04755500001000000000000000RA              27893609    007502490000024900000520000003NY  NNW 000                       N    
MTM0475550027893609    CLEAN OUT VAULT                                                                                        
RDG04755500WATRL000000004K00000000000000000000000000000000000 000000000000U         000000400  10000000010000002816           
CUS0475550000104135443002         LEWIS THOMAS M      1734 GLEN RIDGE RD                      000N        CARE OF             
MTR04755500001000000000000000RA              27813608    007502500000025000000520000003NY  NNW 000                       N    
MTM0475550027813608    CLEAN OUT VAULT                                                                                        
RDG04755500WATRL000000004K00000000000000000000000000000000000 000000000000U         000000400  10000000010000004938           
CUS0475550000104135444000         PARR JEREMY D       1732 GLEN RIDGE RD                      000N        CARE OF             
MTR04755500001000000000000000RA              41193434    007502510000025100000520000003NN  NNW 000                       N    
RDG04755500WATRL000000004K00000000000002087000209042015070037N000000000000N40       000040400K 10000000010000002066           
CUS0475550000104135445007         BRINEGAR LINDA S    1730 GLEN RIDGE RD                      000N        CARE OF             
MTR04755500001000000000000000RA              46889598    007502520000025200000520000003NN  NNW 000                       N    
RDG04755500WATRL000000004K00000000000001388000109042015070033N000000000000N40       000000400K 10000000010000001380           
RTR04755500NN02520252000002520000000002520252000228YY025202520252000400160000000000000000000001    08172015NY020000 I         
RHD04837000NN01590159000001590000000001590159000110NY015901590159000000040000000000000000000001    08172015NY020000 N         
CUS0483700000104072501002         FARABAUGH MICHAEL J 6301 FIELDVALE RD                       000N        CARE OF             
MTR04837000001000000000000000RA              39924795    005800010000000100000520000003NN  NNW 000                       N    
RDG04837000WATRL000000004K00000000000002283000109042015064232N000000000000N91       000000400K 10000000010000002270           
CUS0483700000104072502000         WILCOX DAISY DUKE   6303 FIELDVALE RD                       000N        CARE OF             
MTR04837000001000000000000000RA              01100398    005800020000000200000610000003NN  NNW 000                       N    
RDG04837000WATRL000000004K00000000000001407000209042015064324N000000000000N91       000520400K 10000000010000001381           
CUS0483700000104072503008         MIKLEWSKI MATTHEW S 6305 FIELDVALE RD                       000N        CARE OF             
MTR04837000001000000000000000RA              99187373    005800030000000300000570000003NN  NNW 000                       N    
RDG04837000WATRL000000004K00000000000002163000309042015064419N000000000020N91       000550400K 10000000010000002150           
CUS0483700000104072504006         GIBSON B THERESA    6307 FIELDVALE RD                       000N        CARE OF             
MTR04837000001000000000000000RA              38983267    005800040000000400000520000003NN  NNW 000                       N    
RDG04837000WATRL000000004K00000000000002395000409042015064437N000000000000N91       000180400K 10000000010000002388           
CUS0483700000104072505003         EDWARD & LUCY GYAMFI6309 FIELDVALE RD                       000N        CARE OF             
MTR04837000001000000000000000RA              10023574    005800050000000500000570000003NN  NNW 000                       N    
RDG04837000WATRL000000004K00000000000000222000509042015064511N000000000000N91       000340400K 10000000010000000209           
CUS0483700000104072506001         LOFTEN WILLIAM E,JR 6311 FIELDVALE RD                       000N        CARE OF             
MTR04837000001000000000000000RA              10007223    005800060000000600000570000003NN  NNW 000                       N    
RDG04837000WATRL000000004K00000000000000463000609042015064545N000000000000N91       000340400K 10000000010000000443           
CUS0483700000104072507009         MALECKI CARROLL J, S6313 FIELDVALE RD                       000N        CARE OF             
MTR04837000001000000000000000RA              9690490     005800070000000700000570000003NN  NNW 000                       N    
RDG04837000WATRL000000004K00000000000007188000709042015064643N000300000010N91       000580400K 10000000010000007155           
CUS0483700000104072508007         CRAWFORD LYNN M     1801 HANFORD RD                         000N        CARE OF             
MTR04837000001000000000000000RA              00125414    005800080000000800000570000003NN  NNW 000                       N    
