FHDNNNN035007288007288007288N                                                                                           022450
RHD04811100NN01130113000001130000000001130113000062NY011301130113000200010000000000000000000001    08172015NY020000 N         
CUS0481110000104065548002         ROLLO THERESA ANN   4803 VICKY RD                           000N        CARE OF             
MTR04811100001000000000000000RA              48591465    005800010000000100000520000003NN  NNW 000                       N    
RDG04811100WATRL000000004K00000000000000692000109092015062949N000000000000N40       000000400K 10000000010000000684           
CUS0481110000104065549000         SCHADTY WILLIAM H   9116 BOWLINE RD                         000N        CARE OF             
MTR04811100001000000000000000RA              26006386    005800020000000200000520000003NN  NNW 000                       N    
RDG04811100WATRL000000004K00000000000003933000209092015063046N000000000000N40       000570400K 10000000010000003919           
CUS0481110000104065550008         MORROW JAMES V      9114 BOWLINE RD                         000N        CARE OF             
MTR04811100001000000000000000RA              26006317    005800030000000300000520000003NN  NNW 000                       N    
RDG04811100WATRL000000004K00000000000006048000309092015063118N000000000000N40       000320400K 10000000010000006023           
CUS0481110000104065551006         GRABER JEFFREY CRAIG9112 BOWLINE RD                         000N        CARE OF             
MTR04811100001000000000000000RA              01083455    005800040000000400000610000003NN  NNW 000                       N    
RDG04811100WATRL000000004K00000000000001636000409092015063144N000000000000N40       000260400K 10000000010000001618           
CUS0481110000104065552004         REED VICTOR J       9110 BOWLINE RD                         000N        CARE OF             
MTR04811100001000000000000000RA              76344415    005800050000000500000350000003NN  NNW 000                       N    
RDG04811100WATRL000000004K00000000000000067000509092015063210N000000000000N40       000260400K 10000000010000000054           
CUS0481110000104065553002         FLETCHER BOWERS     9108 BOWLINE RD                         000N        CARE OF             
MTR04811100001000000000000000RA              26006459    005800060000000600000520000003NN  NNW 000                       N    
RDG04811100WATRL000000004K00000000000002626000609092015063237N000000000000N40       000270400K 10000000010000002606           
CUS0481110000104065554000         URQUIETA RAMIRO A   9106 BOWLINE RD                         000N        CARE OF             
MTR04811100001000000000000000RA              26006385    005800070000000700000520000003NN  NNW 000                       N    
RDG04811100WATRL000000004K00000000000004408000709092015063311N000000000000N40       000340400K 10000000010000004389           
CUS0481110000104065555007         GREGORY & TONI M    9104 BOWLINE RD                         000N        CARE OF             
MTR04811100001000000000000000RA              36690742    005800080000000800000520000003NN  NNW 000                       N    
RDG04811100WATRL000000004K00000000000001280000809092015063348N000000000000N40       000370400K 10000000010000001266           
CUS0481110000104065556005         JUNE A EASTRIDGE    9102 BOWLINE RD                         000N        CARE OF             
MTR04811100001000000000000000RA              27825653    005800090000000900000520000003NN  NNW 000                       N    
RDG04811100WATRL000000004K00000000000004180000909092015063420N000000000000N40       000320400K 10000000010000004164           
CUS0481110000104065557003         ROUTZOUNIS VASILIOS 9100 BOWLINE RD                         000N        CARE OF             
MTR04811100001000000000000000RA              39291473    005800100000001000000520000003NN  NNW 000                       N    
RDG04811100WATRL000000004K00000000000002848001009092015063441N000000000000N40       000210400K 10000000010000002816           
CUS0481110000104065558001         ENGEIKE CATHERINE N 9101 BOWLINE RD                         000N        CARE OF             
MTR04811100001000000000000000RA              27826965    005800110000001100000520000003NN  NNW 000                       N    
RDG04811100WATRL000000004K00000000000000000000000000000000000 000000000000U         000000400  10000000010000005848           
CUS0481110000104065559009         ZAPF GEORGE F       9103 BOWLINE RD                         000N        CARE OF             
MTR04811100001000000000000000RA              26006466    005800120000001200000520000003NN  NNW 000                       N    
RDG04811100WATRL000000004K00000000000004037001109092015063545N000000000000N40       000640400K 10000000010000003980           
CUS0481110000104065560007         LIBERTO DAVID M     9105 BOWLINE RD                         000N        CARE OF             
MTR04811100001000000000000000RA              50481067    005800130000001300000520000003NN  NNW 000                       N    
RDG04811100WATRL000000004K00000000000002120001209092015063603N000000000000N40       000180400K 10000000010000002095           
CUS0481110000104065561005         FARROW SHARON R     9107 BOWLINE RD                         000N        CARE OF             
MTR04811100001000000000000000RA              48596473    005800140000001400000520000003NN  NNW 000                       N    
RDG04811100WATRL000000004K00000000000001604001309092015063659N000000000000N40       000560400K 10000000010000001592           
CUS0481110000104065562003         BEVANS VERNON M     9109 BOWLINE RD                         000N        CARE OF             
MTR04811100001000000000000000RA              00130455    005800150000001500000570000003NN  NNW 000                       N    
RDG04811100WATRL000000004K00000000000001475001409092015063730N000000000000N40       000310400K 10000000010000001453           
CUS0481110000104065563001         DECERBO ANTHONY     9111 BOWLINE RD                         000N        CARE OF             
MTR04811100001000000000000000RA              50477679    005800160000001600000520000003NN  NNW 000                       N    
RDG04811100WATRL000000004K00000000000000000001509092015063817S063000000000N40       000470400K 10000000010000003242           
CUS0481110000104065564009         BARLOW FRANKLIN G,JR9113 BOWLINE RD                         000N        CARE OF             
MTR04811100001000000000000000RA              10023778    005800170000001700000570000003NN  NNW 000                       N    
RDG04811100WATRL000000004K00000000000000304001609092015063838N000000000000N40       000210400K 10000000010000000257           
CUS0481110000104065565006         JOSEPH R DEL PILAR  9115 BOWLINE RD                         000N        CARE OF             
MTR04811100001000000000000000RA              26006467    005800180000001800000520000003NN  NNW 000                       N    
RDG04811100WATRL000000004K00000000000004086001709092015063927N000000000000N40       000490400K 10000000010000004051           
CUS0481110000104065566004         HERSHBERGER JOHN W,24809 VICKY RD                           000N        CARE OF             
MTR04811100001000000000000000RA              14915393    005800190000001900000310000003NN  NNW 000                       N    
RDG04811100WATRL000000004K00000000000001334001809092015064015N000000000000N40       000480400K 10000000010000001298           
CUS0481110000104065567002         EDWARD A WIEDORFER J4811 VICKY RD                           000N        CARE OF             
MTR04811100001000000000000000RA              26017078    005800200000002000000520000003NN  NNW 000                       N    
RDG04811100WATRL000000004K00000000000005295001909092015064047N000000000000N40       000320400K 10000000010000005269           
CUS0481110000104065568000         BRIAN A BUSATTI     4813 VICKY RD                           000N        CARE OF             
MTR04811100001000000000000000RA              26016434    005800210000002100000520000003NN  NNW 000                       N    
RDG04811100WATRL000000004K00000000000005060002009092015064113N000000000000N40       000260400K 10000000010000005045           
CUS0481110000104065569008         WILLIAM M CAMPBELL  4815 VICKY RD                           000N        CARE OF             
MTR04811100001000000000000000RA              10016592    005800220000002200000570000003NN  NNW 000                       N    
RDG04811100WATRL000000004K00000000000000295002109092015064141N000000000000N40       000280400K 10000000010000000262           
CUS0481110000104065570006         JOHN E BOND         4817 VICKY RD                           000N        CARE OF             
MTR04811100001000000000000000RA              26016456    005800230000002300000520000003NN  NNW 000                       N    
RDG04811100WATRL000000004K00000000000004926002209092015064210N000000000000N40       000290400K 10000000010000004908           
CUS0481110000104065571004         LINGENFELTER JEFFREY4819 VICKY RD                           000N        CARE OF             
MTR04811100001000000000000000RA              29403149    005800240000002400000520000003NN  NNW 000                       N    
RDG04811100WATRL000000004K00000000000004544002709092015064500N000000000000N40       000440400K 10000000010000004524           
CUS0481110000104065572002         DONNELLY BRUCE      4821 VICKY RD                           000N        CARE OF             
MTR04811100001000000000000000RA              75615701    005800250000002500000350000003NN  NNW 000                       N    
RDG04811100WATRL000000004K00000000000000202002809092015064530N000000000000N40       000300400K 10000000010000000172           
CUS0481110000104065573000         CALVERT DONALD F    4823 VICKY RD                           000N        CARE OF             
MTR04811100001000000000000000RA              14908139    005800260000002600000310000003NN  NNW 000                       N    
RDG04811100WATRL000000004K00000000000001281002909092015064553N000000000000N40       000230400K 10000000010000001259           
CUS0481110000104065574008         MCCAULEY LAURIE M   4825 VICKY RD                           000N        CARE OF             
MTR04811100001000000000000000RA              44174232    005800270000002700000520000003NN  NNW 000                       N    
RDG04811100WATRL000000004K00000000000004661003009092015064640N000000000000N40       000470400K 10000000010000004638           
CUS0481110000104065575005         JOHN A MULKERN      4827 VICKY RD                           000N        CARE OF             
MTR04811100001000000000000000RA              32903802    005800280000002800000520000003NN  NNW 000                       N    
RDG04811100WATRL000000004K00000000000003688003109092015064745N000000000000N40       000650400K 10000000010000003675           
CUS0481110000104065576003         JOSEPH D PIZZA      4 VICKY CT                              000N        CARE OF             
MTR04811100001000000000000000RA              01107836    005800290000002900000610000003NN  NNW 000                       N    
RDG04811100WATRL000000004K00000000000001889002609092015064416N000000000000N40       000290400K 10000000010000001859           
CUS0481110000104065577001         KEVIN HEVER         6 VICKY CT                              000N        CARE OF             
MTR04811100001000000000000000RA              10012575    005800300000003000000570000003NN  NNW 000                       N    
RDG04811100WATRL000000004K00000000000000178002509092015064347N000000000000N40       000270400K 10000000010000000171           
CUS0481110000104065578009         DIMIDIS DEMETRIOS   5 VICKY CT                              000N        CARE OF             
MTR04811100001000000000000000RA              11335917    005800310000003100000520000003NN  NNW 000                       N    
RDG04811100WATRL000000004K00000000000007124002409092015064320N000000000000N40       000190400K 10000000010000007088           
CUS0481110000104065579007         MCCALL CORNELIUS    3 VICKY CT                              000N        CARE OF             
MTR04811100001000000000000000RA              26010243    005800320000003200000520000003NN  NNW 000                       N    
RDG04811100WATRL000000004K00000000000004667002309092015064301N000000000000N40       000510400K 10000000010000004652           
CUS0481110000104065580005         WEISS CHARLES K     4829 VICKY RD                           000N        CARE OF             
MTR04811100001000000000000000RA              14908545    005800330000003300000310000003NN  NNW 000                       N    
RDG04811100WATRL000000004K00000000000000538003209092015064810N000000000000N40       000250400K 10000000010000000532           
CUS0481110000104065581003         LANG TAMARA L       4831 VICKY RD                           000N        CARE OF             
MTR04811100001000000000000000RA              10013405    005800340000003400000570000003NN  NNW 000                       N    
RDG04811100WATRL000000004K00000000000000973003309092015064840N000300000010N40       000300400K 10000000010000000845           
CUS0481110000104065582001         STINTZ ELIZABETH    4833 VICKY RD                           000N        CARE OF             
MTR04811100001000000000000000RA              14908546    005800350000003500000310000003NN  NNW 000                       N    
RDG04811100WATRL000000004K00000000000001528003409092015064906N000000000000N40       000260400K 10000000010000001497           
CUS0481110000104065583009         CITI MORTGAGE       4835 VICKY RD                           000N        CARE OF             
MTR04811100001000000000000000RA              01115624    005800360000003600000610000003NN  NNW 000                       N    
RDG04811100WATRL000000004K00000000000000962003509092015064939N000000000000N40       000330400K 10000000010000000944           
CUS0481110000104065584007         KIM VINCENT G       4837 VICKY RD                           000N        CARE OF             
MTR04811100001000000000000000RA              35117890    005800370000003700000520000003NN  NNW 000                       N    
RDG04811100WATRL000000004K00000000000003003003609092015065009N000300000010N40       000300400K 10000000010000002944           
CUS0481110000104065585004         RUSSELL ALISTAIR J M4839 VICKY RD                           000N        CARE OF             
MTR04811100001000000000000000RA              26019536    005800380000003800000520000003NN  NNW 000                       N    
RDG04811100WATRL000000004K00000000000005295003709092015065041N000000000000N40       000320400K 10000000010000005284           
CUS0481110000104065586002         HOPKINS DONALD W    4841 VICKY RD                           000N        CARE OF             
MTR04811100001000000000000000RA              10014267    005800390000003900000570000003NN  NNW 000                       N    
RDG04811100WATRL000000004K00000000000000241003809092015065109N000000000000N40       000280400K 10000000010000000227           
CUS0481110000104065587000         BANNASCH CARL DAVID 4843 VICKY RD                           000N        CARE OF             
MTR04811100001000000000000000RA              01083450    005800400000004000000610000003NN  NNW 000                       N    
RDG04811100WATRL000000004K00000000000002804003909092015065156N000000000000N40       000470400K 10000000010000002759           
CUS0481110000104065588008         MAGGIO VALERIE      4847 VICKY RD                           000N        CARE OF             
MTR04811100001000000000000000RA              26019564    005800410000004100000520000003NN  NNW 000                       N    
RDG04811100WATRL000000004K00000000000004053004109092015065257N000000000000N40       000290400K 10000000010000004023           
CUS0481110000104065589006         JOSEPH NARALAKATTU  4845 VICKY RD                           000N        CARE OF             
MTR04811100001000000000000000RA              01097740    005800420000004200000610000003NN  NNW 000                       N    
RDG04811100WATRL000000004K00000000000001788004009092015065228N000400000010N40       000320400K 10000000010000001748           
CUS0481110000104065590004         KINCH ROBERT        4840 VICKY RD                           000N        CARE OF             
MTR04811100001000000000000000RA              00126315    005800430000004300000570000003NN  NNW 000                       N    
RDG04811100WATRL000000004K00000000000001512004209092015065357N000000000000N40       000600400K 10000000010000001493           
CUS0481110000104065591002         ROBIER DAVID A      4834 VICKY RD                           000N        CARE OF             
MTR04811100001000000000000000RA              14902613    005800440000004400000310000003NN  NNW 000                       N    
RDG04811100WATRL000000004K00000000000001177004309092015065427N000000000000N40       000300400K 10000000010000001159           
CUS0481110000104065592000         DAVIS HARRY J       4832 VICKY RD                           000N        CARE OF             
MTR04811100001000000000000000RA              36692883    005800450000004500000520000003NN  NNW 000                       N    
RDG04811100WATRL000000004K00000000000003578004409092015065515N000000000000N40       000480400K 10000000010000003560           
CUS0481110000104065593008         JAMES E BAKER JR    4830 VICKY RD                           000N        CARE OF             
MTR04811100001000000000000000RA              14908548    005800460000004600000310000003NN  NNW 000                       N    
RDG04811100WATRL000000004K00000000000000901004509092015065542N000000000000N40       000270400K 10000000010000000887           
CUS0481110000104065594006         KARANIKOLIS VASELIKE4828 VICKY RD                           000N        CARE OF             
MTR04811100001000000000000000RA              44176500    005800470000004700000520000003NN  NNW 000                       N    
RDG04811100WATRL000000004K00000000000002176004609092015065625N000000000000N40       000430400K 10000000010000002161           
CUS0481110000104065595003         ARMETTA MARY ALICE/A4826 VICKY RD                           000N        CARE OF             
MTR04811100001000000000000000RA              99189147    005800480000004800000570000003NN  NNW 000                       N    
RDG04811100WATRL000000004K00000000000001809004709092015065703N000000000000N40       000380400K 10000000010000001784           
CUS0481110000104065596001         MEGHAN LEPLEY       4824 VICKY RD                           000N        CARE OF             
MTR04811100001000000000000000RA              14908138    005800490000004900000310000003NN  NNW 000                       N    
RDG04811100WATRL000000004K00000000000000592004809092015065749N000000000000N40       000460400K 10000000010000000580           
CUS0481110000104065597009         USA JONES           4822 VICKY RD                           000N        CARE OF             
MTR04811100001000000000000000RA              14908136    005800500000005000000310000003NN  NNW 000                       N    
RDG04811100WATRL000000004K00000000000000986004909092015065834N000000000000N40       000450400K 10000000010000000955           
CUS0481110000104065598007         DONALD A KILDUFF    4820 VICKY RD                           000N        CARE OF             
MTR04811100001000000000000000RA              50481611    005800510000005100000520000003NN  NNW 000                       N    
RDG04811100WATRL000000004K00000000000002358005009092015065910N000000000000N40       000360400K 10000000010000002330           
CUS0481110000104065599005         RIGGINS MARY C      4818 VICKY RD                           000N        CARE OF             
MTR04811100001000000000000000RA              14924667    005800520000005200000310000003NN  NNW 000                       N    
RDG04811100WATRL000000004K00000000000000829005109092015065930N000000000000N40       000200400K 10000000010000000805           
CUS0481110000104065600001         HOOD THOMAS S       4816 VICKY RD                           000N        CARE OF             
MTR04811100001000000000000000RA              14924352    005800530000005300000310000003NN  NNW 000                       N    
RDG04811100WATRL000000004K00000000000000857005209092015065955N000000000000N40       000250400K 10000000010000000842           
CUS0481110000104065601009         MAHON MARK D        4814 VICKY RD                           000N        CARE OF             
MTR04811100001000000000000000RA              54349402    005800540000005400000520000003NN  NNW 000                       N    
RDG04811100WATRL000000004K00000000000002589005309092015070022N000000000000N40       000270400K 10000000010000002561           
CUS0481110000104065602007         GETZ JOSEPH J       4812 VICKY RD                           000N        CARE OF             
MTR04811100001000000000000000RA              50481625    005800550000005500000520000003NN  NNW 000                       N    
RDG04811100WATRL000000004K00000000000001698005409092015070058N000000000000N40       000360400K 10000000010000001679           
CUS0481110000104065603005         LAYMAN JAMES L      4810 VICKY RD                           000N        CARE OF             
MTR04811100001000000000000000RA              10020692    005800560000005600000570000003NN  NNW 000                       N    
RDG04811100WATRL000000004K00000000000000508005509092015070137N000000000000N40       000390400K 10000000010000000477           
CUS0481110000104065604003         SACCENTI BRIAN M    4804 VICKY RD                           000N        CARE OF             
MTR04811100001000000000000000RA              54348379    005800570000005700000520000003NN  NNW 000                       N    
RDG04811100WATRL000000004K00000000000001768011009092015073142N000000000000N40       000450400K 10000000010000001749           
CUS0481110000104065605000         DIPAOLO VINCENT D   4802 VICKY RD                           000N        CARE OF             
MTR04811100001000000000000000RA              26006409    005800580000005800000520000003NN  NNW 000                       N    
RDG04811100WATRL000000004K00000000000004107011109092015073206N000000000000N40       000240400K 10000000010000004081           
CUS0481110000104065606008         TYSZKO  STEVE       9201 BOWLINE RD                         000N        CARE OF             
MTR04811100001000000000000000RA              27132372    005800590000005900000520000003NN  NNW 000                       N    
RDG04811100WATRL000000004K00000000000004804005609092015070237N000300000010N40       000600400K 10000000010000004780           
CUS0481110000104065607006         S THOMAS BURNHAM    9203 BOWLINE RD                         000N        CARE OF             
MTR04811100001000000000000000RA              27132373    005800600000006000000520000003NN  NNW 000                       N    
RDG04811100WATRL000000004K00000000000002866005709092015070305N000000000000N40       000280400K 10000000010000002857           
CUS0481110000104065608004         MARY GOLDUP         9205 BOWLINE RD                         000N        CARE OF             
MTR04811100001000000000000000RA              50477594    005800610000006100000520000003NN  NNW 000                       N    
RDG04811100WATRL000000004K00000000000001778005809092015070334N000000000000N40       000290400K 10000000010000001757           
CUS0481110000104065609002         HILL KENNETH J      9207 BOWLINE RD                         000N        CARE OF             
MTR04811100001000000000000000RA              38886922    005800620000006200000520000003NN  NNW 000                       N    
RDG04811100WATRL000000004K00000000000002269005909092015070403N000000000000N40       000290400K 10000000010000002264           
CUS0481110000104065610000         SCHAUER RANDY       9209 BOWLINE RD                         000N        CARE OF             
MTR04811100001000000000000000RA              10022087    005800630000006300000570000003NN  NNW 000                       N    
RDG04811100WATRL000000004K00000000000000196006009092015070441N000000000000N40       000380400K 10000000010000000183           
CUS0481110000104065611008         HARRY OPPENHAUSER   9211 BOWLINE RD                         000N        CARE OF             
MTR04811100001000000000000000RA              27132328    005800640000006400000520000003NN  NNW 000                       N    
RDG04811100WATRL000000004K00000000000004983006109092015070524N000000000000N40       000430400K 10000000010000004970           
CUS0481110000104065612006         SANTORO ANTHONY P,JR9213 BOWLINE RD                         000N        CARE OF             
MTR04811100001000000000000000RA              27132330    005800650000006500000520000003NN  NNW 000                       N    
RDG04811100WATRL000000004K00000000000003639006209092015070549N000000000000N40       000250400K 10000000010000003625           
CUS0481110000104065613004         HAMMERBACHER ERIC J 9215 BOWLINE RD                         000N        CARE OF             
MTR04811100001000000000000000RA              99387918    005800660000006600000570000003NN  NNW 000                       N    
RDG04811100WATRL000000004K00000000000001387006309092015070615N000000000000N40       000260400K 10000000010000001358           
CUS0481110000104065614002         PHILLIP AMRHEIM     9217 BOWLINE RD                         000N        CARE OF             
MTR04811100001000000000000000RA              27132332    005800670000006700000520000003NN  NNW 000                       N    
RDG04811100WATRL000000004K00000000000003125006409092015070643N000000000000N40       000280400K 10000000010000003119           
CUS0481110000104065615009         KOSTAKIS GEORGE     9219 BOWLINE RD                         000N        CARE OF             
MTR04811100001000000000000000RA              48591466    005800680000006800000520000003NN  NNW 000                       N    
RDG04811100WATRL000000004K00000000000001278006509092015070702N000000000000N40       000190400K 10000000010000001265           
CUS0481110000104065616007         CZAJKOWSKI JOSEPH D 9221 BOWLINE RD                         000N        CARE OF             
MTR04811100001000000000000000RA              10006450    005800690000006900000570000003NN  NNW 000                       N    
RDG04811100WATRL000000004K00000000000000458006609092015070744N000000000000N40       000420400K 10000000010000000446           
CUS0481110000104065617005         CASSERLY JAMES J,JR 9223 BOWLINE RD                         000N        CARE OF             
MTR04811100001000000000000000RA              46877235    005800700000007000000520000003NN  NNW 000                       N    
RDG04811100WATRL000000004K00000000000002426006709092015070804N000000000000N40       000200400K 10000000010000002414           
CUS0481110000104065618003         SESSA FRANCIS M,JR  9225 BOWLINE RD                         000N        CARE OF             
MTR04811100001000000000000000RA              27822416    005800710000007100000520000003NN  NNW 000                       N    
RDG04811100WATRL000000004K00000000000005409006809092015070843N000000000000N40       000390400K 10000000010000005393           
CUS0481110000104065619001         BROWN CORNELL S,JR  9227 BOWLINE RD                         000N        CARE OF             
MTR04811100001000000000000000RA              50476485    005800720000007200000520000003NN  NNW 000                       N    
RDG04811100WATRL000000004K00000000000001744006909092015070906N000000000000N40       000230400K 10000000010000001712           
CUS0481110000104065620009         HERNANDEZ CATHERINE 9229 BOWLINE RD                         000N        CARE OF             
MTR04811100001000000000000000RA              27819503    005800730000007300000520000003NN  NNW 000                       N    
RDG04811100WATRL000000004K00000000000002745007009092015070952N000000000000N40       000460400K 10000000010000002729           
CUS0481110000104065621007         CYNTHIA L JAMES     9231 BOWLINE RD                         000N        CARE OF             
MTR04811100001000000000000000RA              27132417    005800740000007400000520000003NN  NNW 000                       N    
RDG04811100WATRL000000004K00000000000001974007109092015071018N000000000000N40       000260400K 10000000010000001967           
CUS0481110000104065622005         VITEK DAVID A       9233 BOWLINE RD                         000N        CARE OF             
MTR04811100001000000000000000RA              10024417    005800750000007500000570000003NN  NNW 000                       N    
RDG04811100WATRL000000004K00000000000000328007209092015071039N000000000000N40       000210400K 10000000010000000317           
CUS0481110000104065623003         TYDINGS VERNON F,JR 9235 BOWLINE RD                         000N        CARE OF             
MTR04811100001000000000000000RA              45383398    005800760000007600000520000003NN  NNW 000                       N    
RDG04811100WATRL000000004K00000000000003074007309092015071055N000000000000N40       000160400K 10000000010000003051           
CUS0481110000104065624001         UDE ROBERT H        9234 BOWLINE RD                         000N        CARE OF             
MTR04811100001000000000000000RA              27132641    005800770000007700000520000003NN  NNW 000                       N    
RDG04811100WATRL000000004K00000000000004540007409092015071119N000000000000N40       000240400K 10000000010000004530           
CUS0481110000104065625008         RAQUENO TEOFILO     9232 BOWLINE RD                         000N        CARE OF             
MTR04811100001000000000000000RA              27132413    005800780000007800000520000003NN  NNW 000                       N    
RDG04811100WATRL000000004K00000000000004148007509092015071145N000000000000N40       000260400K 10000000010000004139           
CUS0481110000104065626006         MEADOWCROFT PAMELA A9230 BOWLINE RD                         000N        CARE OF             
MTR04811100001000000000000000RA              10023042    005800790000007900000570000003NN  NNW 000                       N    
RDG04811100WATRL000000004K00000000000000170007609092015071208N000000000000N40       000230400K 10000000010000000158           
CUS0481110000104065627004         MANK PATRICIA A     9228 BOWLINE RD                         000N        CARE OF             
MTR04811100001000000000000000RA              27823313    005800800000008000000520000003NN  NNW 000                       N    
RDG04811100WATRL000000004K00000000000003437007709092015071242N000000000000N40       000340400K 10000000010000003421           
CUS0481110000104065628002         WELLS JENNIFER A    9226 BOWLINE RD                         000N        CARE OF             
MTR04811100001000000000000000RA              45378849    005800810000008100000520000003NN  NNW 000                       N    
RDG04811100WATRL000000004K00000000000003441007809092015071314N000000000000N40       000320400K 10000000010000003406           
CUS0481110000104065629000         FERRARI MARK EDWARD 9224 BOWLINE RD                         000N        CARE OF             
MTR04811100001000000000000000RA              10013103    005800820000008200000570000003NN  NNW 000                       N    
RDG04811100WATRL000000004K00000000000000283007909092015071339N000000000000N40       000250400K 10000000010000000265           
CUS0481110000104065630008         YAROSHEVICH ANDREW  9222 BOWLINE RD                         000N        CARE OF             
MTR04811100001000000000000000RA              10012753    005800830000008300000570000003NN  NNW 000                       N    
RDG04811100WATRL000000004K00000000000000154008009092015071423N000000000000N40       000440400K 10000000010000000148           
CUS0481110000104065631006         QUIGLEY JAMES G     9220 BOWLINE RD                         000N        CARE OF             
MTR04811100001000000000000000RA              99999999    005800840000008400000570000003NN  NNW 000                       N    
RDG04811100WATRL000000004K00000000000007430008109092015071519N000000000000N40       000560400K 10000000010000007398           
CUS0481110000104065632004         FAUS EDWIN F        9218 BOWLINE RD                         000N        CARE OF             
MTR04811100001000000000000000RA              27132644    005800850000008500000520000003NN  NNW 000                       N    
RDG04811100WATRL000000004K00000000000004120008209092015071552N000000000000N40       000330400K 10000000010000004108           
CUS0481110000104065633002         OSCAR A RADAM       9216 BOWLINE RD                         000N        CARE OF             
MTR04811100001000000000000000RA              10013404    005800860000008600000570000003NN  NNW 000                       N    
RDG04811100WATRL000000004K00000000000000285008309092015071625N000000000000N40       000330400K 10000000010000000268           
CUS0481110000104065634000         LEPPERT JOSEPH      4822 GALLEY RD                          000N        CARE OF             
MTR04811100001000000000000000RA              19460970    005800870000008700000520000003NN  NNW 000                       N    
RDG04811100WATRL000000004K00000000000003984008409092015071702N000000000000N40       000370400K 10000000010000003968           
CUS0481110000104065635007         BRETT L GOLDFADIM   4815 GALLEY RD                          000N        CARE OF             
MTR04811100001000000000000000RA              50477676    005800880000008800000520000003NN  NNW 000                       N    
RDG04811100WATRL000000004K00000000000001726010109092015072621N000000000000N40       000450400K 10000000010000001710           
CUS0481110000104065636005         HERBERT CADLE       2 BOWLINE CT                            000N        CARE OF             
MTR04811100001000000000000000RA              27828001    005800890000008900000520000003NN  NNW 000                       N    
RDG04811100WATRL000000004K00000000000003939010209092015072708N000000000000N40       000470400K 10000000010000003916           
CUS0481110000104065637003         RICHAR SUIGER       1 BOWLINE CT                            000N        CARE OF             
MTR04811100001000000000000000RA              14909855    005800900000009000000310000003NN  NNW 000                       N    
RDG04811100WATRL000000004K00000000000000587010809092015073028N000400000010N40       000490400K 10000000010000000586           
CUS0481110000104065638001         GREENWOOD WILLIAM M 4806 VICKY RD                           000N        CARE OF             
MTR04811100001000000000000000RA              27213624    005800910000009100000520000003NN  NNW 000                       N    
RDG04811100WATRL000000004K00000000000005619010909092015073057N000000000000N40       000290400K 10000000010000005596           
CUS0481110000104065639009         TRENT BERNARD A     4820 GALLEY RD                          000N        CARE OF             
MTR04811100001000000000000000RA              50476908    005800920000009200000520000003NN  NNW 000                       N    
RDG04811100WATRL000000004K00000000000001196008509092015071751N000000000000N40       000490400K 10000000010000001184           
CUS0481110000104065640007         HEISS JANICE M      4818 GALLEY RD                          000N        CARE OF             
MTR04811100001000000000000000RA              26010242    005800930000009300000520000003NN  NNW 000                       N    
RDG04811100WATRL000000004K00000000000004218008609092015071811N000000000000N40       000200400K 10000000010000004190           
CUS0481110000104065641005         MOSMILLER DAVID M   4816 GALLEY RD                          000N        CARE OF             
MTR04811100001000000000000000RA              27817651    005800940000009400000520000003NN  NNW 000                       N    
RDG04811100WATRL000000004K00000000000004287008709092015071836N000000000000N40       000250400K 10000000010000004260           
CUS0481110000104065642003         PREMNATH BHATIA     4814 GALLEY RD                          000N        CARE OF             
MTR04811100001000000000000000RA              26013590    005800950000009500000520000003NN  NNW 000                       N    
RDG04811100WATRL000000004K00000000000004494008809092015071909N000000000000N40       000330400K 10000000010000004482           
CUS0481110000104065643001         ATM DELWAR HOSSAIN  4812 GALLEY RD                          000N        CARE OF             
MTR04811100001000000000000000RA              26010207    005800960000009600000520000003NN  NNW 000                       N    
RDG04811100WATRL000000004K00000000000005765008909092015071947N000400000010N40       000380400K 10000000010000005740           
CUS0481110000104065644009         BOCIANOWSKI FRANK G 4810 GALLEY RD                          000N        CARE OF             
MTR04811100001000000000000000RA              27817650    005800970000009700000520000003NN  NNW 000                       N    
RDG04811100WATRL000000004K00000000000005156009009092015072023N000000000000N40       000360400K 10000000010000005136           
CUS0481110000104065645006         ANGIL THEODORE J    4808 GALLEY RD                          000N        CARE OF             
MTR04811100001000000000000000RA              26012521    005800980000009800000520000003NN  NNW 000                       N    
RDG04811100WATRL000000004K00000000000004113009109092015072043N000000000000N40       000200400K 10000000010000004077           
CUS0481110000104065646004         MARTIN G ENGLE      4806 GALLEY RD                          000N        CARE OF             
MTR04811100001000000000000000RA              27825349    005800990000009900000520000003NN  NNW 000                       N    
RDG04811100WATRL000000004K00000000000004099009209092015072130N000000000000N40       000470400K 10000000010000004075           
CUS0481110000104065647002         JAMES W CARBERRY    4804 GALLEY RD                          000N        CARE OF             
MTR04811100001000000000000000RA              26013589    005801000000010000000520000003NN  NNW 000                       N    
RDG04811100WATRL000000004K00000000000004562009309092015072203N000000000000N40       000330400K 10000000010000004562           
CUS0481110000104065648000         TRAVERS RONALD L    4802 GALLEY RD                          000N        CARE OF             
MTR04811100001000000000000000RA              26013592    005801010000010100000520000003NN  NNW 000                       N    
RDG04811100WATRL000000004K00000000000004746009409092015072226N000000000000N40       000230400K 10000000010000004717           
CUS0481110000104065649008         THOMSEN JONATHAN M  4803 GALLEY RD                          000N        CARE OF             
MTR04811100001000000000000000RA              48596293    005801020000010200000520000003NN  NNW 000                       N    
RDG04811100WATRL000000004K00000000000000961009509092015072255N000000000000N40       000290400K 10000000010000000940           
CUS0481110000104065650006         MOWRY ROBERT L      4805 GALLEY RD                          000N        CARE OF             
MTR04811100001000000000000000RA              26010244    005801030000010300000520000003NN  NNW 000                       N    
RDG04811100WATRL000000004K00000000000004606009609092015072338N000000000000N40       000430400K 10000000010000004589           
CUS0481110000104065651004         CHRISTOPHER C LINZ  4807 GALLEY RD                          000N        CARE OF             
MTR04811100001000000000000000RA              26010241    005801040000010400000520000003NN  NNW 000                       N    
RDG04811100WATRL000000004K00000000000004803009709092015072403N000000000000N40       000250400K 10000000010000004760           
CUS0481110000104065652002         ALISON L HOVATTER   4809 GALLEY RD                          000N        CARE OF             
MTR04811100001000000000000000RA              26010240    005801050000010500000520000003NN  NNW 000                       N    
RDG04811100WATRL000000004K00000000000003518009809092015072433N000000000000N40       000300400K 10000000010000003493           
CUS0481110000104065653000         WATTERS DAVID LYNN  4811 GALLEY RD                          000N        CARE OF             
MTR04811100001000000000000000RA              10016637    005801060000010600000570000003NN  NNW 000                       N    
RDG04811100WATRL000000004K00000000000000269009909092015072505N000000000000N40       000320400K 10000000010000000251           
CUS0481110000104065654008         DAWN(HAGENS-ABEL)KAH4813 GALLEY RD                          000N        CARE OF             
MTR04811100001000000000000000RA              46877890    005801070000010700000520000003NN  NNW 000                       N    
RDG04811100WATRL000000004K00000000000001887010009092015072536N000000000000N40       000310400K 10000000010000001853           
CUS0481110000104065655005         LILLIAN SIDRAK      4 BOWLINE CT                            000N        CARE OF             
MTR04811100001000000000000000RA              10002954    005801080000010800000570000003NN  NNW 000                       N    
RDG04811100WATRL000000004K00000000000000293010309092015072750N000000000000N40       000420400K 10000000010000000276           
CUS0481110000104065656003         HELWIG BURT R       6 BOWLINE CT                            000N        CARE OF             
MTR04811100001000000000000000RA              50480516    005801090000010900000520000003NN  NNW 000                       N    
RDG04811100WATRL000000004K00000000000002030010409092015072808N000000000000N40       000180400K 10000000010000002016           
CUS0481110000104065657001         BURKE WILLIAM E JR  8 BOWLINE CT                            000N        CARE OF             
MTR04811100001000000000000000RA              26017047    005801100000011000000520000003NN  NNW 000                       N    
RDG04811100WATRL000000004K00000000000005507010509092015072841N000000000000N40       000330400K 10000000010000005475           
CUS0481110000104065658009         PERZAN TIMOTHY A    7 BOWLINE CT                            000N        CARE OF             
MTR04811100001000000000000000RA              26008599    005801110000011100000520000003NN  NNW 000                       N    
RDG04811100WATRL000000004K00000000000000000000000000000000000 000000000000U         000000400  10000000010000005431           
CUS0481110000104065659007         REHRMANN ANGELA     5 BOWLINE CT                            000N        CARE OF             
MTR04811100001000000000000000RA              54348366    005801120000011200000520000003NN  NNW 000                       N    
RDG04811100WATRL000000004K00000000000000985010609092015072921N000000000000N40       000400400K 10000000010000000981           
CUS0481110000104065660005         ROBERT C NEWTON     3 BOWLINE CT                            000N        CARE OF             
MTR04811100001000000000000000RA              50481660    005801130000011300000520000003NN  NNW 000                       N    
RDG04811100WATRL000000004K00000000000002124010709092015072939N000000000000N40       000180400K 10000000010000002115           
RTR04811100NN01130113000001130000000001130113000062NY011301130113000200010000000000000000000001    08172015NY020000 N         
RHD04826500NN01640164000001640000000001640164000314NY016401640164000200040000000000000000000001    08172015NY020000 N         
CUS0482650000104069978007         GIBBONS MARY M      4501 RASPE AVE                          000N        CARE OF             
MTR04826500001000000000000000RA              35102738    005800010000000100000520000003NN  NNW 000                       N    
RDG04826500WATRL000000004K00000000000001073000109092015120706N000000000000U40       133500400K 10000000010000001055           
CUS0482650000104069979005         SEDONIA TILLEY      4503 RASPE AVE                          000N        CARE OF             
MTR04826500001000000000000000RA              01086537    005800020000000200000610000003NN  NNW 000                       N    
RDG04826500WATRL000000004K00000000000000965001709092015120708N000000000000U40       000020400K 10000000010000000953           
CUS0482650000104069980003         FISH BENJAMIN W     4505 RASPE AVE                          000N        CARE OF             
MTR04826500001000000000000000RA              01071206    005800030000000300000610000003NN  NNW 000                       N    
RDG04826500WATRL000000004K00000000000001069001609092015120709N000000000000U40       000010400K 10000000010000001058           
CUS0482650000104069981001         EICHHORN NICOLE/JEAN4507 RASPE AVE                          000N        CARE OF             
MTR04826500001000000000000000RA              14930705    005800040000000400000310000003NN  NNW 000                       N    
RDG04826500WATRL000000004K00000000000000423001509092015120711N000000000000U40       000020400K 10000000010000000407           
CUS0482650000104069982009         POLLOCK WALTER F,JR 4509 RASPE AVE                          000N        CARE OF             
MTR04826500001000000000000000RA              52290296    005800050000000500000520000003NN  NNW 000                       N    
RDG04826500WATRL000000004K00000000000002726001409092015120713N000000000000U40       000020400K 10000000010000002676           
CUS0482650000104069983007         SUMMERS CHARLES P   4511 RASPE AVE                          000N        CARE OF             
MTR04826500001000000000000000RA              10009268    005800060000000600000570000003NN  NNW 000                       N    
RDG04826500WATRL000000004K00000000000000226001309092015120714N000000000000U40       000010400K 10000000010000000216           
CUS0482650000104069984005         GALIANO DONNA M     4513 RASPE AVE                          000N        CARE OF             
MTR04826500001000000000000000RA              14919910    005800070000000700000310000003NN  NNW 000                       N    
RDG04826500WATRL000000004K00000000000000994001209092015120716N000000000000U40       000020400K 10000000010000000984           
CUS0482650000104069985002         MICHAEL CHESLOCK    4515 RASPE AVE                          000N        CARE OF             
MTR04826500001000000000000000RA              19460289    005800080000000800000520000003NN  NNW 000                       N    
RDG04826500WATRL000000004K00000000000006556001109092015120718N000000000000U40       000020400K 10000000010000006551           
CUS0482650000104069986000         POLEC M ROBIN       117 RASPE AVE                           000N        CARE OF             
MTR04826500001000000000000000RA              75616403    005800090000000900000350000003NN  NNW 000                       N    
RDG04826500WATRL000000004K00000000000000223001009092015120720N000000000000U40       000020400K 10000000010000000197           
CUS0482650000104069987008         PETER TENNEY        4519 RASPE AVE                          000N        CARE OF             
MTR04826500001000000000000000RA              48594318    005800100000001000000520000003NN  NNW 000                       N    
RDG04826500WATRL000000004K00000000000001988000909092015120722N000000000000U40       000020400K 10000000010000001973           
CUS0482650000104069988006         ENFIELD ANDREW C    4521 RASPE AVE                          000N        CARE OF             
MTR04826500001000000000000000RA              46878707    005800110000001100000520000003NN  NNW 000                       N    
RDG04826500WATRL000000004K00000000000002411000809092015120730N000000000010U40       000080400K 10000000010000002400           
CUS0482650000104069989004         STEIMETZ DIANE      4523 RASPE AVE                          000N        CARE OF             
MTR04826500001000000000000000RA              01071201    005800120000001200000610000003NN  NNW 000                       N    
RDG04826500WATRL000000004K00000000000001779000709092015120732N000000000000U40       000020400K 10000000010000001746           
CUS0482650000104069990002         DAVIS TIM           4525 RASPE AVE                          000N        CARE OF             
MTR04826500001000000000000000RA              25781616    005800130000001300000520000003NN  NNW 000                       N    
RDG04826500WATRL000000004K00000000000003242000609092015120734N000000000000U40       000020400K 10000000010000003221           
CUS0482650000104069991000         MCDOUGALL MARY C    4527 RASPE AVE                          000N        CARE OF             
MTR04826500001000000000000000RA              10000834    005800140000001400000570000003NN  NNW 000                       N    
RDG04826500WATRL000000004K00000000000000570000509092015120736N000000000000U40       000020400K 10000000010000000546           
CUS0482650000104069992008         SAGE TERRY A,JR     4529 RASPE AVE                          000N        CARE OF             
MTR04826500001000000000000000RA              50791668    005800150000001500000520000003NN  NNW 000                       N    
RDG04826500WATRL000000004K00000000000001643000409092015120737N000000000000U40       000010400K 10000000010000001616           
CUS0482650000104069993006         KELLY TIMOTHY J     4601 RASPE AVE                          000N        CARE OF             
MTR04826500001000000000000000RA              29084367    005800160000001600000520000003NN  NNW 000                       N    
RDG04826500WATRL000000004K00000000000005231000309092015120748N000400000020U40       000110400K 10000000010000005195           
CUS0482650000104069994004         RAYON G THOMPSON    4603 RASPE AVE                          000N        CARE OF             
MTR04826500001000000000000000RA              19460491    005800170000001700000520000003NN  NNW 000                       N    
RDG04826500WATRL000000004K00000000000003406000209092015120751N000000000000U40       000030400K 10000000010000003392           
CUS0482650000104069995001         CARTER STANFORD G,JR6134 MARGLENN AVE                       000N        CARE OF             
MTR04826500001000000000000000RA              14910557    005800180000001800000310000003NN  NNW 000                       N    
RDG04826500WATRL000000004K00000000000000703008509092015120756N000000000000U40       000050400K 10000000010000000696           
CUS0482650000104069996009         CERO EVELYN         6132 MARGLENN AVE                       000N        CARE OF             
MTR04826500001000000000000000RA              01113258    005800190000001900000610000003NN  NNW 000                       N    
RDG04826500WATRL000000004K00000000000000951008409092015120758N000000000000U40       000020400K 10000000010000000947           
CUS0482650000104069997007         MR & MRS ALVAN WILLI6130 MARGLENN AVE                       000N        CARE OF             
MTR04826500001000000000000000RA              23648071    005800200000002000000520000003NN  NNW 000                       N    
RDG04826500WATRL000000004K00000000000007772008309092015120800N000000000000U40       000020400K 10000000010000007741           
CUS0482650000104069998005         OLESZCZUK ANTHONY W 6128 MARGLENN AVE                       000N        CARE OF             
MTR04826500001000000000000000RA              14908115    005800210000002100000310000003NN  NNW 000                       N    
RDG04826500WATRL000000004K00000000000001424007909092015120802N000000000000U40       000020400K 10000000010000001417           
CUS0482650000104069999003         HARTMAN PHILIP J    6126 MARGLENN AVE                       000N        CARE OF             
MTR04826500001000000000000000RA              24768308    005800220000002200000520000003NN  NNW 000                       N    
RDG04826500WATRL000000004K00000000000004351007809092015120804N000000000000U40       000020400K 10000000010000004324           
CUS0482650000104070000007         ADAMS BARBARA T     4602 SPRINGWOOD AVE                     000N        CARE OF             
MTR04826500001000000000000000RA              50790719    005800230000002300000520000003NN  NNW 000                       N    
RDG04826500WATRL000000004K00000000000001107002509092015120806N000000000000U40       000020400K 10000000010000001092           
CUS0482650000104070001005         PATTERSON BRIAN C   4600 SPRINGWOOD AVE                     000N        CARE OF             
MTR04826500001000000000000000RA              19460280    005800240000002400000520000003NN  NNW 000                       N    
RDG04826500WATRL000000004K00000000000005618002409092015120808N000000000000U40       000020400K 10000000010000005608           
CUS0482650000104070002003         SHARON SCHNECK      4530 SPRINGWOOD AVE                     000N        CARE OF             
MTR04826500001000000000000000RA              45377692    005800250000002500000520000003NN  NNW 000                       N    
RDG04826500WATRL000000004K00000000000001454002309092015120810N000000000000U40       000020400K 10000000010000001433           
CUS0482650000104070003001         ROSE VINCENT J,JR   4528 SPRINGWOOD AVE                     000N        CARE OF             
MTR04826500001000000000000000RA              01071205    005800260000002600000610000003NN  NNW 000                       N    
RDG04826500WATRL000000004K00000000000000651002209092015120811N000000000000U40       000010400K 10000000010000000647           
CUS0482650000104070004009         COX CAROLE JEAN     4526 SPRINGWOOD AVE                     000N        CARE OF             
MTR04826500001000000000000000RA              44176121    005800270000002700000520000003NN  NNW 000                       N    
RDG04826500WATRL000000004K00000000000002021002109092015120813N000000000000U40       000020400K 10000000010000001989           
CUS0482650000104070005006         STUPAK JOHN WILLIAM,4524 SPRINGWOOD AVE                     000N        CARE OF             
MTR04826500001000000000000000RA              99287902    005800280000002800000570000003NN  NNW 000                       N    
RDG04826500WATRL000000004K00000000000002469002009092015120814N000000000000U40       000010400K 10000000010000002461           
CUS0482650000104070006004         CLARK GREGORY M     4522 SPRINGWOOD AVE                     000N        CARE OF             
MTR04826500001000000000000000RA              01079178    005800290000002900000610000003NN  NNW 000                       N    
RDG04826500WATRL000000004K00000000000000500001909092015120902N000300000010U40       000480400K 10000000010000000555           
CUS0482650000104070007002         TORIELLO DOMINIC O  4520 SPRINGWOOD AVE                     000N        CARE OF             
MTR04826500001000000000000000RA              00128894    005800300000003000000570000003NN  NNW 000                       N    
RDG04826500WATRL000000004K00000000000000809001809092015120904N000000000000U40       000020400K 10000000010000000799           
CUS0482650000104070008000         WELSHKO THOMAS G    4518 SPRINGWOOD AVE                     000N        CARE OF             
MTR04826500001000000000000000RA              01070447    005800310000003100000610000003NN  NNW 000                       N    
RDG04826500WATRL000000004K00000000000001469003109032015092137N000000000000N40       000200400K 10000000010000001456           
CUS0482650000104070009008         DUFEL RYAN D        4516 SPRINGWOOD AVE                     000N        CARE OF             
MTR04826500001000000000000000RA              45387741    005800320000003200000520000003NN  NNW 000                       N    
RDG04826500WATRL000000004K00000000000001002003209032015092211N000000000000N40       000340400K 10000000010000000994           
CUS0482650000104070010006         ANDREW DEFINBAUGH   4514 SPRINGWOOD AVE                     000N        CARE OF             
MTR04826500001000000000000000RA              38983305    005800330000003300000520000003NN  NNW 000                       N    
RDG04826500WATRL000000004K00000000000002055003309032015092239N000000000000N40       000280400K 10000000010000002033           
CUS0482650000104070011004         MURPHY JOSEPH PATRIC4512 SPRINGWOOD AVE                     000N        CARE OF             
MTR04826500001000000000000000RA              50791039    005800340000003400000520000003NN  NNW 000                       N    
RDG04826500WATRL000000004K00000000000002451003409032015092309N000000000000N40       000300400K 10000000010000002438           
CUS0482650000104070012002         VITO MICHAEL L      4510 SPRINGWOOD AVE                     000N        CARE OF             
MTR04826500001000000000000000RA              01114035    005800350000003500000610000003NN  NNW 000                       N    
RDG04826500WATRL000000004K00000000000000776003509032015092343N000000000000N40       000340400K 10000000010000000774           
CUS0482650000104070013000         ANDERSEN GERARD     4508 SPRINGWOOD AVE                     000N        CARE OF             
MTR04826500001000000000000000RA              35106552    005800360000003600000520000003NN  NNW 000                       N    
RDG04826500WATRL000000004K00000000000002617003609032015092412N000000000000N40       000290400K 10000000010000002597           
CUS0482650000104070014008         JACKSON DOROTHY A   4506 SPRINGWOOD AVE                     000N        CARE OF             
MTR04826500001000000000000000RA              01070155    005800370000003700000610000003NN  NNW 000                       N    
RDG04826500WATRL000000004K00000000000002368003709032015092502N000000000000N40       000500400K 10000000010000002321           
CUS0482650000104070015005         DOUGLAS E MALEY     4504 SPRINGWOOD AVE                     000N        CARE OF             
MTR04826500001000000000000000RA              01070781    005800380000003800000610000003NN  NNW 000                       N    
RDG04826500WATRL000000004K00000000000001955003809032015092547N000000000000N40       000450400K 10000000010000001930           
CUS0482650000104070016003         BRECHT JOYCE ANN    4502 SPRINGWOOD AVE                     000N        CARE OF             
MTR04826500001000000000000000RA              76348374    005800390000003900000350000003NN  NNW 000                       N    
RDG04826500WATRL000000004K00000000000000009003909032015092616N000000000000N40       000290400K 10000000010000000008           
CUS0482650000104070017001         ADAMO WILLIAM P     4500 SPRINGWOOD AVE                     000N        CARE OF             
MTR04826500001000000000000000RA              44091160    005800400000004000000520000003NN  NNW 000                       N    
RDG04826500WATRL000000004K00000000000001561004009032015092645N000000000000N40       000290400K 10000000010000001550           
CUS0482650000104070018009         LEPPERT MICHAEL B   6024 MANNINGTON AVE                     000N        CARE OF             
MTR04826500001000000000000000RA              10010819    005800410000004100000570000003NN  NNW 000                       N    
RDG04826500WATRL000000004K00000000000000574007609032015095732N000400000010N40       000770400K 10000000010000000564           
CUS0482650000104070019007         WILLIAMS ERIC M     6022 MANNINGTON AVE                     000N        CARE OF             
MTR04826500001000000000000000RA              01071204    005800420000004200000610000003NN  NNW 000                       N    
RDG04826500WATRL000000004K00000000000001677007709032015095803N000000000000N40       000310400K 10000000010000001638           
CUS0482650000104070020005         KOZERA WALTER T     6020 MANNINGTON AVE                     000N        CARE OF             
MTR04826500001000000000000000RA              48594527    005800430000004300000520000003NN  NNW 000                       N    
RDG04826500WATRL000000004K00000000000001668007809032015095829N000000000000N40       000260400K 10000000010000001662           
CUS0482650000104070021003         LAUREN N. ZAWICKI   6018 MANNINGTON AVE                     000N        CARE OF             
MTR04826500001000000000000000RA              11329127    005800440000004400000570000003NN  NNW 000                       N    
RDG04826500WATRL000000004K00000000000002472007909032015095900N000000000000N40       000310400K 10000000010000002462           
CUS0482650000104070022001         HEMRIC JACK W       6016 MANNINGTON AVE                     000N        CARE OF             
MTR04826500001000000000000000RA              46882020    005800450000004500000520000003NN  NNW 000                       N    
RDG04826500WATRL000000004K00000000000000736008009032015095925N000000000000N40       000250400K 10000000010000000731           
CUS0482650000104070023009         JONES BARON F       6014 MANNINGTON AVE                     000N        CARE OF             
MTR04826500001000000000000000RA              01070783    005800460000004600000610000003NN  NNW 000                       N    
RDG04826500WATRL000000004K00000000000001670008109032015100000N000000000000N40       000350400K 10000000010000001645           
CUS0482650000104070024007         BOLING CHARLES C    6012 MANNINGTON AVE                     000N        CARE OF             
MTR04826500001000000000000000RA              01070876    005800470000004700000610000003NN  NNW 000                       N    
RDG04826500WATRL000000004K00000000000000449008209032015100035N000000000000N40       000350400K 10000000010000000436           
CUS0482650000104070025004         SCHAFER JOSHUA JOSEP6010 MANNINGTON AVE                     000N        CARE OF             
MTR04826500001000000000000000RA              39290432    005800480000004800000520000003NN  NNW 000                       N    
RDG04826500WATRL000000004K00000000000001862008309032015100101N000000000000N40       000260400K 10000000010000001858           
CUS0482650000104070026002         ALBAUGH HIRAM N,JR  6008 MANNINGTON AVE                     000N        CARE OF             
MTR04826500001000000000000000RA              77888779    005800490000004900000360000003NN  NNW 000                       N    
RDG04826500WATRL000000004K00000000000000000008409032015100121S001000000000N40       000200400K 10000000010000000000           
CUS0482650000104070027000         LAMOND PAUL K       6006 MANNINGTON AVE                     000N        CARE OF             
MTR04826500001000000000000000RA              48594569    005800500000005000000520000003NN  NNW 000                       N    
RDG04826500WATRL000000004K00000000000001361008509032015100200N000000000000N40       000390400K 10000000010000001352           
CUS0482650000104070028008         VANESSA T MICHAEL   6004 MANNINGTON AVE                     000N        CARE OF             
MTR04826500001000000000000000RA              48596711    005800510000005100000520000003NN  NNW 000                       N    
RDG04826500WATRL000000004K00000000000002086008609032015100235N000400000010N40       000350400K 10000000010000002069           
CUS0482650000104070029006         VEADER NATHAN       6002 MANNINGTON AVE                     000N        CARE OF             
MTR04826500001000000000000000RA              00139659    005800520000005200000570000003NN  NNW 000                       N    
RDG04826500WATRL000000004K00000000000001302008709032015100309N000000000000N40       000340400K 10000000010000001276           
CUS0482650000104070030004         FISCHER JOAN G C    6000 MANNINGTON AVE                     000N        CARE OF             
MTR04826500001000000000000000RA              27822676    005800530000005300000520000003NN  NNW 000                       N    
RDG04826500WATRL000000004K00000000000004867008809032015100345N000000000000N40       000360400K 10000000010000004856           
CUS0482650000104070031002         MICHELLE STUPAK     5901 WESTWOOD AVE                       000N        CARE OF             
MTR04826500001000000000000000RA              23644239    005800540000005400000520000003NN  NNW 000                       N    
RDG04826500WATRL000000004K00000000000003223008909032015100446N000000000000N40       000610400K 10000000010000003205           
CUS0482650000104070032000         JONES PAUL H        6001 WESTWOOD AVE                       000N        CARE OF             
MTR04826500001000000000000000RA              45387809    005800550000005500000520000003NN  NNW 000                       N    
RDG04826500WATRL000000004K00000000000001400009009032015100543N000000000000N40       000570400K 10000000010000001395           
CUS0482650000104070033008         TERESI MERLE        6003 WESTWOOD AVE                       000N        CARE OF             
MTR04826500001000000000000000RA              10006274    005800560000005600000570000003NN  NNW 000                       N    
RDG04826500WATRL000000004K00000000000000285009109032015100606N000000000000N40       000230400K 10000000010000000278           
CUS0482650000104070034006         LAWS EDDIE          6005 WESTWOOD AVE                       000N        CARE OF             
MTR04826500001000000000000000RA              24769311    005800570000005700000520000003NN  NNW 000                       N    
RDG04826500WATRL000000004K00000000000005372009209032015100643N000000000000N40       000370400K 10000000010000005296           
CUS0482650000104070035003         GREEN JOSEPH L      6007 WESTWOOD AVE                       000N        CARE OF             
MTR04826500001000000000000000RA              25780810    005800580000005800000520000003NN  NNW 000                       N    
RDG04826500WATRL000000004K00000000000003609009309032015100800N000000000000N40       000770400K 10000000010000003596           
CUS0482650000104433627009         LAUTENSCHLAGER GERAL5854 N HAZELWOOD AVE                    000N        CARE OF             
MTR04826500001000000000000000RA              01101361    005800590000005900000610000003NN  NNW 000                       N    
RDG04826500WATRL000000004K00000000000001192003009092015082136N000400000010U40       000420400K 10000000010000001165           
CUS0482650000104070036001         PREMICK STANLEY J   4601 CHARLES AVE                        000N        CARE OF             
MTR04826500001000000000000000RA              10018118    005800600000006000000570000003NN  NNW 000                       N    
RDG04826500WATRL000000004K00000000000000362009409032015100921N000000000000N40       000810400K 10000000010000000346           
CUS0482650000104435197001         DAWODU EUNICE O     4603 CHARLES AVE                        000N        CARE OF             
MTR04826500001000000000000000RA              01100316    005800610000006100000610000003NN  NNW 000                       N    
RDG04826500WATRL000000004K00000000000000701009509032015100950N000000000000N40       000290400K 10000000010000000685           
CUS0482650000104437627005         WILEY LARRY         5850A N HAZELWOOD AVE                   000N        CARE OF             
MTR04826500001000000000000000RA              14909521    005800620000006200000310000003NN  NNW 000                       N    
RDG04826500WATRL000000004K00000000000000503003209092015082009N000000000000U40       000350400K 10000000010000000491           
CUS0482650000104070076007         MIDDLEBROOKS ANTHONY5850 N HAZELWOOD AVE                    000N        CARE OF             
MTR04826500001000000000000000RA              14909188    005800630000006300000310000003NN  NNW 000                       N    
RDG04826500WATRL000000004K00000000000001438003109092015081934N000000000000U40       000380400K 10000000010000001409           
CUS0482650000104070037009         BEECY DENNIS E      5830 N HAZELWOOD AVE                    000N        CARE OF             
MTR04826500001000000000000000RA              75614641    005800640000006400000350000003NN  NNW 000                       N    
RDG04826500WATRL000000004K00000000000000197003309092015081856N000000000000U40       000290400K 10000000010000000175           
CUS0482650000104070038007         CONNORS MICHAEL JOSE5828 N HAZELWOOD AVE                    000N        CARE OF             
MTR04826500001000000000000000RA              10006389    005800650000006500000570000003NN  NNW 000                       N    
RDG04826500WATRL000000004K00000000000000305003409092015081827N000000000000U40       000230400K 10000000010000000292           
CUS0482650000104070039005         HOBBLE NICOLE       5826 N HAZELWOOD AVE                    000N        CARE OF             
MTR04826500001000000000000000RA              01078014    005800660000006600000610000003NN  NNW 000                       N    
RDG04826500WATRL000000004K00000000000000896003509092015081804N000000000000U40       000270400K 10000000010000000862           
CUS0482650000104070040003         CAPPOLLONI EDEN MEND5824 N HAZELWOOD AVE                    000N        CARE OF             
MTR04826500001000000000000000RA              01079827    005800670000006700000610000003NN  NNW 000                       N    
RDG04826500WATRL000000004K00000000000001277003609092015081737N000000000000U40       000190400K 10000000010000001266           
CUS0482650000104070041001         BAIRD ROBERT B      5822 N HAZELWOOD AVE                    000N        CARE OF             
MTR04826500001000000000000000RA              33078767    005800680000006800000520000003NN  NNW 000                       N    
RDG04826500WATRL000000004K00000000000003378003709092015081718N000000000000U40       000180400K 10000000010000003367           
CUS0482650000104070042009         JULE PERRY JR.      5820 N HAZELWOOD AVE                    000N        CARE OF             
MTR04826500001000000000000000RA              01078011    005800690000006900000610000003NN  NNW 000                       N    
RDG04826500WATRL000000004K00000000000001280003809092015081700N000000000000U40       000360400K 10000000010000001259           
CUS0482650000104070043007         STONE JENNIE A      5818 N HAZELWOOD AVE                    000N        CARE OF             
MTR04826500001000000000000000RA              38887097    005800700000007000000520000003NN  NNW 000                       N    
RDG04826500WATRL000000004K00000000000002261003909092015081624N000000000000U40       000160400K 10000000010000002257           
CUS0482650000104070044005         HAMPER EARL T       5816 N HAZELWOOD AVE                    000N        CARE OF             
MTR04826500001000000000000000RA              36696325    005800710000007100000520000003NN  NNW 000                       N    
RDG04826500WATRL000000004K00000000000002810004009092015081608N000000000000U40       000420400K 10000000010000002795           
CUS0482650000104070045002         ELWAYS BRIAN        5812 N HAZELWOOD AVE                    000N        CARE OF             
MTR04826500001000000000000000RA              14922158    005800720000007200000310000003NN  NNW 000                       N    
RDG04826500WATRL000000004K00000000000000969004109092015081526N000300000010U40       000310400K 10000000010000000917           
CUS0482650000104070046000         SCHAFER GEORGE F,JR 5810 N HAZELWOOD AVE                    000N        CARE OF             
MTR04826500001000000000000000RA              26005501    005800730000007300000520000003NN  NNW 000                       N    
RDG04826500WATRL000000004K00000000000002889004209092015081455N000000000000U40       000330400K 10000000010000002883           
CUS0482650000104070047008         BORITS MICHAEL G    5808 N HAZELWOOD AVE                    000N        CARE OF             
MTR04826500001000000000000000RA              32176719    005800740000007400000520000003NN  NNW 000                       N    
RDG04826500WATRL000000004K00000000000005732004309092015081422N000000000000U40       000230400K 10000000010000005687           
CUS0482650000104070048006         PRITCHARD JACLYN E  5806 N HAZELWOOD AVE                    000N        CARE OF             
MTR04826500001000000000000000RA              01113263    005800750000007500000610000003NN  NNW 000                       N    
RDG04826500WATRL000000004K00000000000001968004409092015081359N000000000000U40       000320400K 10000000010000001915           
CUS0482650000104434437002         TIBBS SUSAN         5800 N HAZELWOOD AVE                    000N        CARE OF             
MTR04826500001000000000000000RA              01094575    005800760000007600000610000003NN  NNW 000                       N    
RDG04826500WATRL000000004K00000000000001437004509082015114530N000400000010U40       001530400K 10000000010000001417           
CUS0482650000104348644008         WILLOUGHBY WILLIAM  5807 N HAZELWOOD AVE                    000N        CARE OF             
MTR04826500001000000000000000RA              27265334    005800770000007700000520000003NN  NNW 000                       N    
RDG04826500WATRL000000004K00000000000003482004609092015081327N000000000000U40       000340400K 10000000010000003441           
CUS0482650000104070049004         HABICHT F LEONARD,JR5809 N HAZELWOOD AVE                    000N        CARE OF             
MTR04826500001000000000000000RA              01078169    005800780000007800000610000003NN  NNW 000                       N    
RDG04826500WATRL000000004K00000000000002603004709092015081253N000000000000U40       000180400K 10000000010000002572           
CUS0482650000104070050002         BACZYNSKYJ ROMAN    5811 N HAZELWOOD AVE                    000N        CARE OF             
MTR04826500001000000000000000RA              01078050    005800790000007900000610000003NN  NNW 000                       N    
RDG04826500WATRL000000004K00000000000000525004809092015081235N000000000000U40       000220400K 10000000010000000521           
CUS0482650000104070051000         PALLANCK STEVE A    5813 N HAZELWOOD AVE                    000N        CARE OF             
MTR04826500001000000000000000RA              01078013    005800800000008000000610000003NN  NNW 000                       N    
RDG04826500WATRL000000004K00000000000001217004909092015081213N000000000000U40       000200400K 10000000010000001198           
CUS0482650000104407823006         ASPELMEIER ROBERT J 5817 N HAZELWOOD AVE                    000N        CARE OF             
MTR04826500001000000000000000RA              44179216    005800810000008100000520000003NN  NNW 000                       N    
RDG04826500WATRL000000004K00000000000001422005009092015081153N000000000000U40       000250400K 10000000010000001418           
CUS0482650000104411580006         MOSLEY DANIEL L     5817-1/2 N HAZELWOOD AVE                000N        CARE OF             
MTR04826500001000000000000000RA              46880021    005800820000008200000520000003NN  NNW 000                       N    
RDG04826500WATRL000000004K00000000000002777005109092015081128N000000000000U40       000220400K 10000000010000002742           
CUS0482650000104070052008         AYLOR PAULA J       5819 N HAZELWOOD AVE                    000N        CARE OF             
MTR04826500001000000000000000RA              01078193    005800830000008300000610000003NN  NNW 000                       N    
RDG04826500WATRL000000004K00000000000002162005209092015081106N000000000000U40       000300400K 10000000010000002110           
CUS0482650000104070053006         LATTIK EUNICE J     5823 N HAZELWOOD AVE                    000N        CARE OF             
MTR04826500001000000000000000RA              14930113    005800840000008400000310000003NN  NNW 000                       N    
RDG04826500WATRL000000004K00000000000001271005309092015081036N000000000000U40       000810400K 10000000010000001229           
CUS0482650000104070054004         CHAMBERS JACKSON K,S5825 N HAZELWOOD AVE                    000N        CARE OF             
MTR04826500001000000000000000RA              M542144     005800850000008500000570000003NY  NNW 000                       N    
MTM04826500M542144     CAN'T LOCATE                                                                                           
RDG04826500WATRL000000004K00000000000000000000000000000000000 000000000000U         000000400  10000000010000003777           
CUS0482650000104070055001         SINKLER TIMOTHY D   5827 N HAZELWOOD AVE                    000N        CARE OF             
MTR04826500001000000000000000RA              10010816    005800860000008600000570000003NN  NNW 000                       N    
RDG04826500WATRL000000004K00000000000000668005409092015080915N000400000010U40       000210400K 10000000010000000653           
CUS0482650000104070056009         MCDERMOTT DENNIS C  5829 N HAZELWOOD AVE                    000N        CARE OF             
MTR04826500001000000000000000RA              14923845    005800870000008700000310000003NN  NNW 000                       N    
RDG04826500WATRL000000004K00000000000000563005509092015080854N000000000000U40       000220400K 10000000010000000551           
CUS0482650000104070057007         ANTHONY J DAMBROSIO 5831 N HAZELWOOD AVE                    000N        CARE OF             
MTR04826500001000000000000000RA              41257774    005800880000008800000520000003NN  NNW 000                       N    
RDG04826500WATRL000000004K00000000000002588005609092015080832N000000000000U40       000380400K 10000000010000002573           
CUS0482650000104070058005         NANCY J SKINNER     5835 N HAZELWOOD AVE                    000N        CARE OF             
MTR04826500001000000000000000RA              99411388    007500890000008900000570000003NN  NNW 000                       N    
RDG04826500WATRL000000004K00000000000000865005709092015080754N000400000010U40       000240400K 10000000010000000859           
CUS0482650000104070059003         PACK PHILLIP JEROD  5837 N HAZELWOOD AVE                    000N        CARE OF             
MTR04826500001000000000000000RA              22609012    005800900000009000000520000003NN  NNW 000                       N    
RDG04826500WATRL000000004K00000000000004263005809092015080730N000000000000U40       000260400K 10000000010000004247           
CUS0482650000104070060001         ROSE WAYNE WILLIAM  5839 N HAZELWOOD AVE                    000N        CARE OF             
MTR04826500001000000000000000RA              11337780    005800910000009100000570000003NN  NNW 000                       N    
RDG04826500WATRL000000004K00000000000005329005909092015080704N000000000000U40       000280400K 10000000010000005311           
CUS0482650000104070061009         KOLB THOMAS R       5841 N HAZELWOOD AVE                    000N        CARE OF             
MTR04826500001000000000000000RA              35097474    005800920000009200000520000003NN  NNW 000                       N    
RDG04826500WATRL000000004K00000000000003840006009092015080636N000000000000U40       000410400K 10000000010000003828           
CUS0482650000104070062007         OTIS CADOGAN        5852 N HAZELWOOD AVE                    000N        CARE OF             
MTR04826500001000000000000000RA              27825132    005800930000009300000520000003NN  NNW 000                       N    
RDG04826500WATRL000000004K00000000000004853006109092015082054N000000000000U40       000450400K 10000000010000004842           
CUS0482650000104070063005         ZITTINGER MICHAEL C 4607 CHARLES AVE                        000N        CARE OF             
MTR04826500001000000000000000RA              01080514    005800940000009400000610000003NN  NNW 000                       N    
RDG04826500WATRL000000004K00000000000001341006209092015080555N000000000000U40       000770400K 10000000010000001329           
CUS0482650000104070064003         DAVIS MELVIN        4615 CHARLES AVE                        000N        CARE OF             
MTR04826500001000000000000000RA              35106629    005800950000009500000520000003NN  NNW 000                       N    
RDG04826500WATRL000000004K00000000000001708006309092015080438N000000000000U40       000660400K 10000000010000001706           
CUS0482650000104070065000         WILLIAMS FRANCIS X  4617 CHARLES AVE                        000N        CARE OF             
MTR04826500001000000000000000RA              46882577    005800960000009600000520000003NY  NNW 000                       N    
MTM0482650046882577    CLEAN OUT                                                                                              
RDG04826500WATRL000000004K00000000000000000000000000000000000 000000000000U         000000400  10000000010000001477           
CUS0482650000104070066008         ERONDU NATHAN U     4619 CHARLES AVE                        000N        CARE OF             
MTR04826500001000000000000000RA              10023756    005800970000009700000570000003NN  NNW 000                       N    
RDG04826500WATRL000000004K00000000000000358006409092015080332N000000000000U40       000190400K 10000000010000000331           
CUS0482650000104070067006         CHRISTOPHER REHAK   4620 CHARLES AVE                        000N        CARE OF             
MTR04826500001000000000000000RA              9686271     005800980000009800000570000003NN  NNW 000                       N    
RDG04826500WATRL000000004K00000000000004659006509092015080313N000000000000U40       000460400K 10000000010000004638           
CUS0482650000104070068004         GRIGUOLO CLOTILDE   4618 CHARLES AVE                        000N        CARE OF             
MTR04826500001000000000000000RA              01114027    005800990000009900000610000003NN  NNW 000                       N    
RDG04826500WATRL000000004K00000000000001470006609092015080227N000100000010U40       000390400K 10000000010000001470           
CUS0482650000104070069002         BOER TRACEY ANNE    4616 CHARLES AVE                        000N        CARE OF             
MTR04826500001000000000000000RA              36691451    005801000000010000000520000003NN  NNW 000                       N    
RDG04826500WATRL000000004K00000000000003060006709092015080148N000000000000U40       000180400K 10000000010000003038           
CUS0482650000104070070000         WILLIS SAMUEL       4614 CHARLES AVE                        000N        CARE OF             
MTR04826500001000000000000000RA              27825133    005801010000010100000520000003NN  NNW 000                       N    
RDG04826500WATRL000000004K00000000000003972006809092015080130N000000000000U40       000340400K 10000000010000003954           
CUS0482650000104070071008         BALTIMORE ASSOCIATIO4610 CHARLES AVE                        000N        CARE OF             
MTR04826500001000000000000000RA              52286830    005801020000010200000520000003NN  NNW 000                       N    
RDG04826500WATRL000000004K00000000000003275006909092015080056N000000000000U40       000450400K 10000000010000003245           
CUS0482650000104070072006         EWERS GORDON C      4604 CHARLES AVE                        000N        CARE OF             
MTR04826500001000000000000000RA              44092068    005801030000010300000520000003NN  NNW 000                       N    
RDG04826500WATRL000000004K00000000000003315002909092015080011N000000000000U40       000310400K 10000000010000003296           
CUS0482650000104070073004         LIBERTO RICHARD D   6009 WESTWOOD AVE                       000N        CARE OF             
MTR04826500001000000000000000RA              45379325    005801040000010400000520000003NN  NNW 000                       N    
RDG04826500WATRL000000004K00000000000003338009609032015101153N000000000000N40       001230400K 10000000010000003297           
CUS0482650000104070074002         THOMAS LORRAINE     6011 WESTWOOD AVE                       000N        CARE OF             
MTR04826500001000000000000000RA              24224763    005801050000010500000520000003NN  NNW 000                       N    
RDG04826500WATRL000000004K00000000000003812009709032015101221N000000000000N40       000280400K 10000000010000003790           
CUS0482650000104070075009         SCHMITT ANDREW J    6013 WESTWOOD AVE                       000N        CARE OF             
MTR04826500001000000000000000RA              29682327    005801060000010600000520000003NN  NNW 000                       N    
RDG04826500WATRL000000004K00000000000002054009809032015101254N000000000000N40       000330400K 10000000010000002045           
CUS0482650000104070077005         BASSARAGH ANGELLA   6010 WESTWOOD AVE                       000N        CARE OF             
MTR04826500001000000000000000RA              99290759    005801070000010700000570000003NN  NNW 000                       N    
RDG04826500WATRL000000004K00000000000001228005709032015094130N000000000000N40       000810400K 10000000010000001208           
CUS0482650000104070078003         PREVOSTO PHILIP A,JR6008 WESTWOOD AVE                       000N        CARE OF             
MTR04826500001000000000000000RA              11337085    005801080000010800000570000003NN  NNW 000                       N    
RDG04826500WATRL000000004K00000000000004574005809032015094159N000000000000N40       000290400K 10000000010000004564           
CUS0482650000104070079001         GEBHARDT KIMBERLY A 6006 WESTWOOD AVE                       000N        CARE OF             
MTR04826500001000000000000000RA              01080790    005801090000010900000610000003NN  NNW 000                       N    
RDG04826500WATRL000000004K00000000000001820005909032015094258N000000000000N40       000590400K 10000000010000001806           
CUS0482650000104070080009         KLEINOTA LUCAS J    6004 WESTWOOD AVE                       000N        CARE OF             
MTR04826500001000000000000000RA              01070006    005801100000011000000610000003NN  NNW 000                       N    
RDG04826500WATRL000000004K00000000000001502006009032015094337N000000000000N40       000390400K 10000000010000001480           
CUS0482650000104070081007         BARDON VENTURES, LLC6002 WESTWOOD AVE                       000N        CARE OF             
MTR04826500001000000000000000RA              99290867    005801110000011100000570000003NN  NNW 000                       N    
RDG04826500WATRL000000004K00000000000001375006109032015094515N000000000000N40       000980400K 10000000010000001361           
CUS0482650000104070082005         MACGREGOR IAN EDWARD6000 WESTWOOD AVE                       000N        CARE OF             
MTR04826500001000000000000000RA              01080700    005801120000011200000610000003NN  NNW 000                       N    
RDG04826500WATRL000000004K00000000000001273006209032015094552N000000000000N40       000370400K 10000000010000001264           
CUS0482650000104070083003         COX DENNIS J        6001 MANNINGTON AVE                     000N        CARE OF             
MTR04826500001000000000000000RA              00139662    005801130000011300000570000003NN  NNW 000                       N    
RDG04826500WATRL000000004K00000000000001263006309032015094629N000000000000N40       000370400K 10000000010000001237           
CUS0482650000104070084001         ELLIOT CLINTON C    6003 MANNINGTON AVE                     000N        CARE OF             
MTR04826500001000000000000000RA              01080518    005801140000011400000610000003NN  NNW 000                       N    
RDG04826500WATRL000000004K00000000000001337006409032015094705N000000000000N40       000360400K 10000000010000001317           
CUS0482650000104070085008         EVERETT WILLIAM E   6005 MANNINGTON AVE                     000N        CARE OF             
MTR04826500001000000000000000RA              01080706    005801150000011500000610000003NN  NNW 000                       N    
RDG04826500WATRL000000004K00000000000001142006509032015094755N000000000000N40       000500400K 10000000010000001126           
CUS0482650000104070086006         HERNE SHAWN M       6007 MANNINGTON AVE                     000N        CARE OF             
MTR04826500001000000000000000RA              10021820    005801160000011600000570000003NN  NNW 000                       N    
RDG04826500WATRL000000004K00000000000000098006609032015094858N000000000000N40       000630400K 10000000010000000092           
CUS0482650000104070087004         MORNEAULT NATHAN E  6009 MANNINGTON AVE                     000N        CARE OF             
MTR04826500001000000000000000RA              44086141    005801170000011700000520000003NN  NNW 000                       N    
RDG04826500WATRL000000004K00000000000003282006709032015095001N000000000000N40       000630400K 10000000010000003258           
CUS0482650000104070088002         TRISHIA L FAYALL    6011 MANNINGTON AVE                     000N        CARE OF             
MTR04826500001000000000000000RA              26001670    005801180000011800000520000003NN  NNW 000                       N    
RDG04826500WATRL000000004K00000000000003554006809032015095041N000000000000N40       000400400K 10000000010000003531           
CUS0482650000104070089000         MANSPERGER JOHN A   6013 MANNINGTON AVE                     000N        CARE OF             
MTR04826500001000000000000000RA              01108290    005801190000011900000610000003NN  NNW 000                       N    
RDG04826500WATRL000000004K00000000000000402006909032015095110N000000000000N40       000290400K 10000000010000000395           
CUS0482650000104070090008         RACHEL HORENSKY     6015 MANNINGTON AVE                     000N        CARE OF             
MTR04826500001000000000000000RA              01080704    005801200000012000000610000003NN  NNW 000                       N    
RDG04826500WATRL000000004K00000000000000621007009032015095221N000000000000N40       000710400K 10000000010000000606           
CUS0482650000104070091006         SHONTEA PAIGE       6017 MANNINGTON AVE                     000N        CARE OF             
MTR04826500001000000000000000RA              10015286    005801210000012100000570000003NN  NNW 000                       N    
RDG04826500WATRL000000004K00000000000000191007109032015095330N000000000000N40       000690400K 10000000010000000178           
CUS0482650000104070092004         HASLUP DARLENE M    6019 MANNINGTON AVE                     000N        CARE OF             
MTR04826500001000000000000000RA              01070972    005801220000012200000610000003NN  NNW 000                       N    
RDG04826500WATRL000000004K00000000000001108007209032015095418N000000000000N40       000480400K 10000000010000001090           
CUS0482650000104070093002         MCKAY JOHN A        6021 MANNINGTON AVE                     000N        CARE OF             
MTR04826500001000000000000000RA              10012284    005801230000012300000570000003NN  NNW 000                       N    
RDG04826500WATRL000000004K00000000000000202007309032015095500N000000000000N40       000420400K 10000000010000000199           
CUS0482650000104070094000         ANESZEWSKI JOHN E   6023 MANNINGTON AVE                     000N        CARE OF             
MTR04826500001000000000000000RA              01070971    005801240000012400000610000003NN  NNW 000                       N    
RDG04826500WATRL000000004K00000000000000275007409032015095535N000000000000N40       000350400K 10000000010000000271           
CUS0482650000104070095007         TURNER ALGIE L,JR   6025 MANNINGTON AVE                     000N        CARE OF             
MTR04826500001000000000000000RA              48594565    005801250000012500000520000003NN  NNW 000                       N    
RDG04826500WATRL000000004K00000000000001649007509032015095615N000000000000N40       000400400K 10000000010000001638           
CUS0482650000104070096005         SCHULER GERTRUDE    4501 SPRINGWOOD AVE                     000N        CARE OF             
MTR04826500001000000000000000RA              99287391    005801260000012600000570000003NN  NNW 000                       N    
RDG04826500WATRL000000004K00000000000000498004109032015092733N000100000010N40       000480400K 10000000010000000498           
CUS0482650000104070097003         RUPP ROBERT         4503 SPRINGWOOD AVE                     000N        CARE OF             
MTR04826500001000000000000000RA              40779944    005801270000012700000520000003NN  NNW 000                       N    
RDG04826500WATRL000000004K00000000000002818004209032015092829N000000000000N40       000560400K 10000000010000002791           
CUS0482650000104070098001         CAMPBELL LARRY LEE  4505 SPRINGWOOD AVE                     000N        CARE OF             
MTR04826500001000000000000000RA              01070974    005801280000012800000610000003NN  NNW 000                       N    
RDG04826500WATRL000000004K00000000000000872004309032015092902N000000000000N40       000330400K 10000000010000000863           
CUS0482650000104070099009         SHANICKA WEST       4507 SPRINGWOOD AVE                     000N        CARE OF             
MTR04826500001000000000000000RA              01113264    005801290000012900000610000003NN  NNW 000                       N    
RDG04826500WATRL000000004K00000000000000791004409032015092946N000300000010N40       000440400K 10000000010000000750           
CUS0482650000104070100005         BURRESS FRANCES D   4509 SPRINGWOOD AVE                     000N        CARE OF             
MTR04826500001000000000000000RA              23644174    005801300000013000000520000003NN  NNW 000                       N    
RDG04826500WATRL000000004K00000000000004053004509032015093011N000000000000N40       000250400K 10000000010000004033           
CUS0482650000104070101003         SPINA BRIAN T       4511 SPRINGWOOD AVE                     000N        CARE OF             
MTR04826500001000000000000000RA              01114029    005801310000013100000610000003NN  NNW 000                       N    
RDG04826500WATRL000000004K00000000000001118004609032015093046N000000000000N40       000350400K 10000000010000001103           
CUS0482650000104070102001         RIFKIN JOSEPH A     6100 SPRINGWOOD CT                      000N        CARE OF             
MTR04826500001000000000000000RA              48583857    005801320000013200000520000003NN  NNW 000                       N    
RDG04826500WATRL000000004K00000000000001915004709032015093145N000000000000N40       000590400K 10000000010000001895           
CUS0482650000104070103009         JORDAN MARLENE D    6102 SPRINGWOOD CT                      000N        CARE OF             
MTR04826500001000000000000000RA              14908447    005801330000013300000310000003NN  NNW 000                       N    
RDG04826500WATRL000000004K00000000000000939004809032015093214N000000000000N40       000290400K 10000000010000000903           
CUS0482650000104070104007         HAMILTON OVERLEA ROS6104 SPRINGWOOD CT                      000N        CARE OF             
MTR04826500001000000000000000RA              50477202    005801340000013400000520000003NN  NNW 000                       N    
RDG04826500WATRL000000004K00000000000001897004909032015093309N000000000000N40       000550400K 10000000010000001884           
CUS0482650000104070105004         ACKERMAN KENNETH M  6105 SPRINGWOOD CT                      000N        CARE OF             
MTR04826500001000000000000000RA              14909891    005801350000013500000310000003NY  NNW 000                       N    
MTM0482650014909891    CLEAN OUT                                                                                              
RDG04826500WATRL000000004K00000000000000000005709092015082436S001000000000U40       000240400K 10000000010000000475           
CUS0482650000104070106002         ANEKA B WINSTEAD    6103 SPRINGWOOD CT                      000N        CARE OF             
MTR04826500001000000000000000RA              14909888    005801360000013600000310000003NN  NNW 000                       N    
RDG04826500WATRL000000004K00000000000000664005009032015093405N000000000000N40       000560400K 10000000010000000642           
CUS0482650000104070107000         POWERS TIMOTHY A    6101 SPRINGWOOD CT                      000N        CARE OF             
MTR04826500001000000000000000RA              9691317     005801370000013700000570000003NN  NNW 000                       N    
RDG04826500WATRL000000004K00000000000006579005109032015093434N000000000000N40       000290400K 10000000010000006554           
CUS0482650000104070108008         JESSE R. PLOTTS     4515 SPRINGWOOD AVE                     000N        CARE OF             
MTR04826500001000000000000000RA              19460107    005801380000013800000520000003NN  NNW 000                       N    
RDG04826500WATRL000000004K00000000000004817005209032015093625N000000000000N40       001110400K 10000000010000004804           
CUS0482650000104070109006         TALMADGE BENJAMIN D/4517 SPRINGWOOD AVE                     000N        CARE OF             
MTR04826500001000000000000000RA              01113257    005801390000013900000610000003NN  NNW 000                       N    
RDG04826500WATRL000000004K00000000000000906005309032015093747N000000000000N40       000820400K 10000000010000000892           
CUS0482650000104070110004         MORRIS JASON        4519 SPRINGWOOD AVE                     000N        CARE OF             
MTR04826500001000000000000000RA              10005336    005801400000014000000570000003NN  NNW 000                       N    
RDG04826500WATRL000000004K00000000000000455005409032015093857N000000000000N40       000700400K 10000000010000000438           
CUS0482650000104070111002         DAVID M WALKER      4521 SPRINGWOOD AVE                     000N        CARE OF             
MTR04826500001000000000000000RA              50790587    005801410000014100000520000003NN  NNW 000                       N    
RDG04826500WATRL000000004K00000000000000948005509032015093943N000000000000N40       000460400K 10000000010000000941           
CUS0482650000104070112000         THESS ERIC N        4523 SPRINGWOOD AVE                     000N        CARE OF             
MTR04826500001000000000000000RA              01070973    005801420000014200000610000003NN  NNW 000                       N    
RDG04826500WATRL000000004K00000000000002849005609032015094009N000000000000N40       000260400K 10000000010000002815           
CUS0482650000104070113008         PETRUCCY LARRY W JR 4601 SPRINGWOOD AVE                     000N        CARE OF             
MTR04826500001000000000000000RA              2600271     005801430000014300000520000003NN  NNW 000                       N    
RDG04826500WATRL000000004K00000000000002626009909032015101559N000000000010N40       001850400K 10000000010000002620           
CUS0482650000104070114006         STARLETTE N BRAXTON 4603 SPRINGWOOD AVE                     000N        CARE OF             
MTR04826500001000000000000000RA              14905415    005801440000014400000310000003NN  NNW 000                       N    
RDG04826500WATRL000000004K00000000000000949010009032015101644N000000000000N40       000450400K 10000000010000000920           
CUS0482650000104070115003         BEIL LISA A         4605 SPRINGWOOD AVE                     000N        CARE OF             
MTR04826500001000000000000000RA              00138137    005801450000014500000570000003NN  NNW 000                       N    
RDG04826500WATRL000000004K00000000000000943010109032015101727N000000000000N40       000430400K 10000000010000000929           
CUS0482650000104070116001         HAYDEN JOHN J,JR    4607 SPRINGWOOD AVE                     000N        CARE OF             
MTR04826500001000000000000000RA              9595407     005801460000014600000570000003NN  NNW 000                       N    
RDG04826500WATRL000000004K00000000000004847010209032015101822N000000000000N40       000550400K 10000000010000004826           
CUS0482650000104070117009         CHARLES FITZGERALD  4609 SPRINGWOOD AVE                     000N        CARE OF             
MTR04826500001000000000000000RA              01070875    005801470000014700000610000003NN  NNW 000                       N    
RDG04826500WATRL000000004K00000000000000855010309032015101917N000000000000N40       000550400K 10000000010000000828           
