FHDNNNN034006399006399006399N                                                                                           019439
RHD08605000NN01840184000001840000000001840184000177NY018401840184000000000000000000000000000002    08242015NY020000 N         
CUS0860500000108034028004         CONWAY JOSEPH E     3609 CAMPFIELD RD                       000N        CARE OF             
MTR08605000001000000000000000RA              01074713    005800010000000100000610000003NN  NNW 000                       N    
RDG08605000WATRL000000004K00000000000000644000109082015123159N000000000000N84       000000400K 10000000010000000636           
CUS0860500000108034029002         JASHNANI INDRU      3611 CAMPFIELD RD                       000N        CARE OF             
MTR08605000001000000000000000RA              39289856    005800020000000200000520000003NN  NNW 000                       N    
RDG08605000WATRL000000004K00000000000000900000209082015123308N000000000000N84       000690400K 10000000010000000884           
CUS0860500000108034030000         GRIMES LENWOOD      3613 CAMPFIELD RD                       000N        CARE OF             
MTR08605000001000000000000000RA              01074712    005800030000000300000610000003NN  NNW 000                       N    
RDG08605000WATRL000000004K00000000000000652000309082015123351N000000000000N84       000430400K 10000000010000000630           
CUS0860500000108034031008         THOMPSON-HOWARD REGI3615 CAMPFIELD RD                       000N        CARE OF             
MTR08605000001000000000000000RA              30525238    005800040000000400000520000003NN  NNW 000                       N    
RDG08605000WATRL000000004K00000000000003107000409082015123422N000000000000N84       000310400K 10000000010000003065           
CUS0860500000108034032006         BUCHANAN MARY       3617 CAMPFIELD RD                       000N        CARE OF             
MTR08605000001000000000000000RA              54348161    005800050000000500000520000003NN  NNW 000                       N    
RDG08605000WATRL000000004K00000000000001563000509082015123931N000000000000N84       003090400K 10000000010000001541           
CUS0860500000108034033004         SESSON RANDOLPH,JR  3619 CAMPFIELD RD                       000N        CARE OF             
MTR08605000001000000000000000RA              32178610    005800060000000600000520000003NN  NNW 000                       N    
RDG08605000WATRL000000004K00000000000002912000609082015124009N000000000000N84       000380400K 10000000010000002889           
CUS0860500000108034034002         NELSON GLORIA R     3621 CAMPFIELD RD                       000N        CARE OF             
MTR08605000001000000000000000RA              41259189    005800070000000700000520000003NN  NNW 000                       N    
RDG08605000WATRL000000004K00000000000002803000709082015124041N000000000000N84       000320400K 10000000010000002790           
CUS0860500000108034035009         OLIVER COLUMBUS,SR  3627 CAMPFIELD RD                       000N        CARE OF             
MTR08605000001000000000000000RA              01074714    005800080000000800000610000003NN  NNW 000                       N    
RDG08605000WATRL000000004K00000000000001097000809082015124105N000000000000N84       000240400K 10000000010000001076           
CUS0860500000108034036007         WALLACE A SIMPSON   3601 CEDAR DR                           000N        CARE OF             
MTR08605000001000000000000000RA              14907927    005800090000000900000310000003NN  NNW 000                       N    
RDG08605000WATRL000000004K00000000000000884000909082015124202N000000000000N84       000570400K 10000000010000000860           
CUS0860500000108034037005         CHEWNING VICTOR L   3600 CEDAR DR                           000N        CARE OF             
MTR08605000001000000000000000RA              31587548    005800100000001000000520000003NN  NNW 000                       N    
RDG08605000WATRL000000004K00000000000007746001009082015124247N000300000010N84       000450400K 10000000010000007701           
CUS0860500000108034038003         JOHNSON PERNELL JAME3635 CAMPFIELD RD                       000N        CARE OF             
MTR08605000001000000000000000RA              01074719    005800110000001100000610000003NN  NNW 000                       N    
RDG08605000WATRL000000004K00000000000001057001109082015124317N000000000000N84       000300400K 10000000010000001044           
CUS0860500000108034039001         HAIRSTON EUBELIA P  3641 CAMPFIELD RD                       000N        CARE OF             
MTR08605000001000000000000000RA              01074718    005800120000001200000610000003NN  NNW 000                       N    
RDG08605000WATRL000000004K00000000000002014001209082015124409N000300000010N84       000520400K 10000000010000001974           
CUS0860500000108034040009         MCMILLIAN THELMA YVO3643 CAMPFIELD RD                       000N        CARE OF             
MTR08605000001000000000000000RA              48592813    005800130000001300000520000003NN  NNW 000                       N    
RDG08605000WATRL000000004K00000000000000741001309082015124437N000400000010N84       000280400K 10000000010000000738           
CUS0860500000108034041007         ANTONIO D M AGUILAR 3645 CAMPFIELD RD                       000N        CARE OF             
MTR08605000001000000000000000RA              52768456    005800140000001400000520000003NN  NNW 000                       N    
RDG08605000WATRL000000004K00000000000000994001409082015124453N000000000000N84       000160400K 10000000010000000969           
CUS0860500000108034042005         CHRISTY BRIAN       3647 CAMPFIELD RD                       000N        CARE OF             
MTR08605000001000000000000000RA              32573167    005800150000001500000520000003NN  NNW 000                       N    
RDG08605000WATRL000000004K00000000000002156001509082015124545N000000000000N84       000520400K 10000000010000002150           
CUS0860500000108034043003         MURRAY DENIECE      3649 CAMPFIELD RD                       000N        CARE OF             
MTR08605000001000000000000000RA              10022104    005800160000001600000570000003NN  NNW 000                       N    
RDG08605000WATRL000000004K00000000000000458001609082015124615N000000000000N84       000300400K 10000000010000000427           
CUS0860500000108034044001         SMITH DENISE L      3651 CAMPFIELD RD                       000N        CARE OF             
MTR08605000001000000000000000RA              24229398    005800170000001700000520000003NN  NNW 000                       N    
RDG08605000WATRL000000004K00000000000003599001709082015124647N000000000000N84       000320400K 10000000010000003553           
CUS0860500000108034045008         JOSEPH DAHLIA       3653 CAMPFIELD RD                       000N        CARE OF             
MTR08605000001000000000000000RA              27815788    005800180000001800000520000003NY  NNW 000                       N    
MTM0860500027815788    15 inch                                                                                                
RDG08605000WATRL000000004K00000000000003441001809082015124722N000000000000N84       000350400K 10000000010000003423           
CUS0860500000108428529005         LOGAN JOYCE M       3703 CAMPFIELD RD                       000N        CARE OF             
MTR08605000001000000000000000RA              99315032    000100190000001900000570000003NN  NNW 000                       N    
RDG08605000WATRL000000004K00000000000000416001909082015124818N000000000000N84       000560400K 10000000010000000408           
CUS0860500000108428530003         SMITH KENTL         3705 CAMPFIELD RD                       000N        CARE OF             
MTR08605000001000000000000000RA              99315114    000100200000002000000570000003NN  NNW 000                       N    
RDG08605000WATRL000000004K00000000000000933002009082015124843N000000000010N84       000250400K 10000000010000000926           
CUS0860500000108428531001         LINDSEY MARCUS      3707 CAMPFIELD RD                       000N        CARE OF             
MTR08605000001000000000000000RA              99315262    000100210000002100000570000003NN  NNW 000                       N    
RDG08605000WATRL000000004K00000000000001890002109082015124908N000300000010N84       000250400K 10000000010000001807           
CUS0860500000108428532009         BLACK SAMUEL T      3709 CAMPFIELD RD                       000N        CARE OF             
MTR08605000001000000000000000RA              99258810    000100220000002200000570000003NN  NNW 000                       N    
RDG08605000WATRL000000004K00000000000001487002209082015124930N000000000000N84       000220400K 10000000010000001461           
CUS0860500000108428533007         ROBERTS CHARLES     3711 CAMPFIELD RD                       000N        CARE OF             
MTR08605000001000000000000000RA              99408572    000100230000002300000570000003NN  NNW 000                       N    
RDG08605000WATRL000000004K00000000000000756002309082015124956N000000000000N84       000260400K 10000000010000000745           
CUS0860500000108428534005         NNAKAENYI JOSEPH    3713 CAMPFIELD RD                       000N        CARE OF             
MTR08605000001000000000000000RA              99314742    000100240000002400000570000003NN  NNW 000                       N    
RDG08605000WATRL000000004K00000000000001476002409082015125028N000000000000N84       000320400K 10000000010000001442           
CUS0860500000108428535002         HEYLIGER RUSSELL V  3715 CAMPFIELD RD                       000N        CARE OF             
MTR08605000001000000000000000RA              99408657    000100250000002500000570000003NN  NNW 000                       N    
RDG08605000WATRL000000004K00000000000000449002509082015125054N000000000000N84       000260400K 10000000010000000445           
CUS0860500000108428536000         GUTHRIE DWIGHT      3717 CAMPFIELD RD                       000N        CARE OF             
MTR08605000001000000000000000RA              52291937    000100260000002600000520000003NN  NNW 000                       N    
RDG08605000WATRL000000004K00000000000000540002609082015125117N000000000000N84       000230400K 10000000010000000534           
CUS0860500000108428537008         JOYNES MARYANNE     3719 CAMPFIELD RD                       000N        CARE OF             
MTR08605000001000000000000000RA              50384961    000100270000002700000520000003NN  NNW 000                       N    
RDG08605000WATRL000000004K00000000000000719002709082015125140N000000000000N84       000230400K 10000000010000000703           
CUS0860500000108428538006         JENNETTE JONES E    3721 CAMPFIELD RD                       000N        CARE OF             
MTR08605000001000000000000000RA              50384961    000100280000002800000520000003NN  NNW 000                       N    
RDG08605000WATRL000000004K00000000000000758002809082015125204N000000000000N84       000240400K 10000000010000000745           
CUS0860500000108034048002         BROWN LEONARD R     6700 CAMPFIELD RD                       000N        CARE OF             
MTR08605000001000000000000000RA              10024187    005800290000002900000570000003NN  NNW 000                       N    
RDG08605000WATRL000000004K00000000000000166002909082015125245N000000000000N84       000410400K 10000000010000000146           
CUS0860500000108034049000         JOHNSON CLINTON     6702 CAMPFIELD RD                       000N        CARE OF             
MTR08605000001000000000000000RA              41259982    005800300000003000000520000003NN  NNW 000                       N    
RDG08605000WATRL000000004K00000000000005090005209082015132329N000000000000N84       009970400K 10000000010000005061           
CUS0860500000108034050008         PROUDFOOT JAMES W   6704 CAMPFIELD RD                       000N        CARE OF             
MTR08605000001000000000000000RA              01078057    005800310000003100000610000003NN  NNW 000                       N    
RDG08605000WATRL000000004K00000000000001142003009082015125443N000000000000N84       001180400K 10000000010000001132           
CUS0860500000108034051006         BOYD MELISSA A      3805 SOUTHERN CROSS DR                  000N        CARE OF             
MTR08605000001000000000000000RA              9595880     005800320000003200000520000003NN  NNW 000                       N    
RDG08605000WATRL000000004K00000000000005219013209102015102239N000300000010U84       002620400K 10000000010000005174           
CUS0860500000108034052004         FAISON CHARLES A    3807 SOUTHERN CROSS DR                  000N        CARE OF             
MTR08605000001000000000000000RA              35106753    005800330000003300000520000003NN  NNW 000                       N    
RDG08605000WATRL000000004K00000000000002999000109102015081435N000300000010U84       000000400K 10000000010000002948           
CUS0860500000108034053002         ANDREWS RAYMOND     3809 SOUTHERN CROSS DR                  000N        CARE OF             
MTR08605000001000000000000000RA              27814287    005800340000003400000520000003NN  NNW 000                       N    
RDG08605000WATRL000000004K00000000000002913000209102015081510N000300000010U84       000350400K 10000000010000002894           
CUS0860500000108034054000         STEIN STUART M      3811 SOUTHERN CROSS DR                  000N        CARE OF             
MTR08605000001000000000000000RA              01073228    005800350000003500000610000003NN  NNW 000                       N    
RDG08605000WATRL000000004K00000000000001249000309102015081530N000000000000U84       000200400K 10000000010000001235           
CUS0860500000108034055007         WILLIAMS JOSEPH R,JR3813 SOUTHERN CROSS DR                  000N        CARE OF             
MTR08605000001000000000000000RA              01074245    005800360000003600000610000003NN  NNW 000                       N    
RDG08605000WATRL000000004K00000000000002218000409102015081615N000300000010U84       000450400K 10000000010000002128           
CUS0860500000108034056005         BOSSARD MARVIN L    3815 SOUTHERN CROSS DR                  000N        CARE OF             
MTR08605000001000000000000000RA              24758766    005800370000003700000520000003NN  NNW 000                       N    
RDG08605000WATRL000000004K00000000000004046000509102015081638N000300000010U84       000230400K 10000000010000004012           
CUS0860500000108034057003         HORTON BARBER A     3817 SOUTHERN CROSS DR                  000N        CARE OF             
MTR08605000001000000000000000RA              01074422    005800380000003800000610000003NN  NNW 000                       N    
RDG08605000WATRL000000004K00000000000001110000609102015081721N000000000010U84       000430400K 10000000010000001093           
CUS0860500000108034058001         REBAR ROBERT F      3819 SOUTHERN CROSS DR                  000N        CARE OF             
MTR08605000001000000000000000RA              01073246    005800390000003900000610000003NN  NNW 000                       N    
RDG08605000WATRL000000004K00000000000000491000709102015081832N000000000000U84       000710400K 10000000010000000485           
CUS0860500000108034059009         EPPS NATASHA L      3821 SOUTHERN CROSS DR                  000N        CARE OF             
MTR08605000001000000000000000RA              01073247    005800400000004000000610000003NN  NNW 000                       N    
RDG08605000WATRL000000004K00000000000001486000809102015081907N000000000000U84       000350400K 10000000010000001468           
CUS0860500000108034060007         MORGAN TARA A       3823 SOUTHERN CROSS DR                  000N        CARE OF             
MTR08605000001000000000000000RA              10015925    005800410000004100000570000003NN  NNW 000                       N    
RDG08605000WATRL000000004K00000000000000182000909102015081927N000300000010U84       000200400K 10000000010000000167           
CUS0860500000108034061005         WARREN TRACY E      3825 SOUTHERN CROSS DR                  000N        CARE OF             
MTR08605000001000000000000000RA              54348242    005800420000004200000520000003NN  NNW 000                       N    
RDG08605000WATRL000000004K00000000000001321001009102015082118N000000000000U84       001110400K 10000000010000001300           
CUS0860500000108034062003         LASHLEY LYDIA R     3827 SOUTHERN CROSS DR                  000N        CARE OF             
MTR08605000001000000000000000RA              01073248    005800430000004300000610000003NN  NNW 000                       N    
RDG08605000WATRL000000004K00000000000001942001109102015082218N000300000010U84       000600400K 10000000010000001900           
CUS0860500000108034063001         NEAL JAMES ALBERT   3829 SOUTHERN CROSS DR                  000N        CARE OF             
MTR08605000001000000000000000RA              45373394    005800440000004400000520000003NN  NNW 000                       N    
RDG08605000WATRL000000004K00000000000002318001209102015082306N000000000000U84       000480400K 10000000010000002305           
CUS0860500000108034064009         WHITE ERIC L        3831 SOUTHERN CROSS DR                  000N        CARE OF             
MTR08605000001000000000000000RA              35118418    005800450000004500000520000003NN  NNW 000                       N    
RDG08605000WATRL000000004K00000000000003477001309102015082327N000000000000U84       000210400K 10000000010000003439           
CUS0860500000108034065006         NICHOLS CORNELIA A  3833 SOUTHERN CROSS DR                  000N        CARE OF             
MTR08605000001000000000000000RA              24220734    005800460000004600000520000003NN  NNW 000                       N    
RDG08605000WATRL000000004K00000000000003626001409102015082422N000300000010U84       000550400K 10000000010000003554           
CUS0860500000108034066004         MONTGOMERY JILL  KEL3835 SOUTHERN CROSS DR                  000N        CARE OF             
MTR08605000001000000000000000RA              41258298    005800470000004700000520000003NN  NNW 000                       N    
RDG08605000WATRL000000004K00000000000003118001509102015082454N000000000000U84       000320400K 10000000010000003111           
CUS0860500000108034067002         RUFFIN WILLIE LEE   3837 SOUTHERN CROSS DR                  000N        CARE OF             
MTR08605000001000000000000000RA              01073243    005800480000004800000610000003NN  NNW 000                       N    
RDG08605000WATRL000000004K00000000000001394001609102015082519N000000000000U84       000250400K 10000000010000001351           
CUS0860500000108034068000         RONEY JERRY LEVINE  3839 SOUTHERN CROSS DR                  000N        CARE OF             
MTR08605000001000000000000000RA              27833426    005800490000004900000520000003NN  NNW 000                       N    
RDG08605000WATRL000000004K00000000000004436001709102015082612N000300000010U84       000530400K 10000000010000004397           
CUS0860500000108034069008         JACKSON DEBRA A     3841 SOUTHERN CROSS DR                  000N        CARE OF             
MTR08605000001000000000000000RA              35097601    005800500000005000000520000003NN  NNW 000                       N    
RDG08605000WATRL000000004K00000000000003802001809102015082639N000000000000U84       000270400K 10000000010000003780           
CUS0860500000108034070006         WHITAKER CHARLES W  3843 SOUTHERN CROSS DR                  000N        CARE OF             
MTR08605000001000000000000000RA              27813912    005800510000005100000520000003NN  NNW 000                       N    
RDG08605000WATRL000000004K00000000000004495001909102015082750N000000000000U84       000710400K 10000000010000004482           
CUS0860500000108034071004         BULLOCK JERRY E     3845 SOUTHERN CROSS DR                  000N        CARE OF             
MTR08605000001000000000000000RA              41259188    005800520000005200000520000003NN  NNW 000                       N    
RDG08605000WATRL000000004K00000000000001936002009102015082819N000000000000U84       000290400K 10000000010000001936           
CUS0860500000108034072002         GRANT LORI M        6820 ALTER ST                           000N        CARE OF             
MTR08605000001000000000000000RA              54348289    005800530000005300000520000003NN  NNW 000                       N    
RDG08605000WATRL000000004K00000000000002447002909102015083633N000300000010U84       000750400K 10000000010000002451           
CUS0860500000108034073000         AKALU ESSAIAS       6854 WESTRIDGE RD                       000N        CARE OF             
MTR08605000001000000000000000RA              01076878    005800540000005400000610000003NN  NNW 000                       N    
RDG08605000WATRL000000004K00000000000001100009009102015095614N000000000000U84       003650400K 10000000010000001090           
CUS0860500000108034074008         JAMES E. SCOTT      6852 WESTRIDGE RD                       000N        CARE OF             
MTR08605000001000000000000000RA              99290177    005800550000005500000570000003NN  NNW 000                       N    
RDG08605000WATRL000000004K00000000000000628009109102015095617N000000000000U84       000030400K 10000000010000000618           
CUS0860500000108034075005         FORD CHESTER,JR     6850 WESTRIDGE RD                       000N        CARE OF             
MTR08605000001000000000000000RA              01100121    005800560000005600000610000003NN  NNW 000                       N    
RDG08605000WATRL000000004K00000000000000525009209102015095620N000000000000U84       000030400K 10000000010000000515           
CUS0860500000108034076003         HANDY RODERICK L    6848 WESTRIDGE RD                       000N        CARE OF             
MTR08605000001000000000000000RA              39925215    005800570000005700000520000003NN  NNW 000                       N    
RDG08605000WATRL000000004K00000000000001302009309102015101735N000000000001U84       000350400K 10000000010000001284           
CUS0860500000108034077001         GRIFFIN EMBERTO     6846 WESTRIDGE RD                       000N        CARE OF             
MTR08605000001000000000000000RA              14926580    005800580000005800000310000003NN  NNW 000                       N    
RDG08605000WATRL000000004K00000000000000426009409102015101817N000000000001U84       000420400K 10000000010000000408           
CUS0860500000108034078009         PEVIA LINDA F       6844 WESTRIDGE RD                       000N        CARE OF             
MTR08605000001000000000000000RA              10024689    005800590000005900000570000003NN  NNW 000                       N    
RDG08605000WATRL000000004K00000000000000546009509102015101700N000300000011U84       000890400K 10000000010000000489           
CUS0860500000108034079007         WYATT REBECCA D     6842 WESTRIDGE RD                       000N        CARE OF             
MTR08605000001000000000000000RA              99290636    005800600000006000000570000000NN  NNW 000                       N    
RDG08605000WATRL000000004K00000000000002298009609102015095633N000000000000U84       000020400K 10000000010000002288           
CUS0860500000108034080005         RUTLEY KIMBERLY CAME6840 WESTRIDGE RD                       000N        CARE OF             
MTR08605000001000000000000000RA              01078018    005800610000006100000610000003NN  NNW 000                       N    
RDG08605000WATRL000000004K00000000000000995009709102015101531N000000000001U84       001040400K 10000000010000000979           
CUS0860500000108034081003         DANIELS ODIS D,4TH  6838 WESTRIDGE RD                       000N        CARE OF             
MTR08605000001000000000000000RA              01078198    005800620000006200000610000003NN  NNW 000                       N    
RDG08605000WATRL000000004K00000000000001192009809102015095640N000000000000U84       000040400K 10000000010000001182           
CUS0860500000108034082001         MITCHELL LORRAINE CH6836 WESTRIDGE RD                       000N        CARE OF             
MTR08605000001000000000000000RA              54348237    005800630000006300000520000003NN  NNW 000                       N    
RDG08605000WATRL000000004K00000000000000667009909102015095645N000000000000U84       000050400K 10000000010000000657           
CUS0860500000108034083009         BURGESS MYRNA M     6834 WESTRIDGE RD                       000N        CARE OF             
MTR08605000001000000000000000RA              01078194    005800640000006400000610000000NN  NNW 000                       N    
RDG08605000WATRL000000004K00000000000000451010009102015095656N000000000000U84       000110400K 10000000010000000441           
CUS0860500000108034084007         HOWARD WILLIAM H    6832 WESTRIDGE RD                       000N        CARE OF             
MTR08605000001000000000000000RA              33077209    005800650000006500000520000003NN  NNW 000                       N    
RDG08605000WATRL000000004K00000000000001976010109102015095658N000000000000U84       000020400K 10000000010000001966           
CUS0860500000108034085004         PANIEL FANNIE M     6830 WESTRIDGE RD                       000N        CARE OF             
MTR08605000001000000000000000RA              23841027    005800660000006600000520000003NN  NNW 000                       N    
RDG08605000WATRL000000004K00000000000003738010209102015095701N000000000000U84       000030400K 10000000010000003728           
CUS0860500000108034086002         MCNEILL OTIS S      6828 WESTRIDGE RD                       000N        CARE OF             
MTR08605000001000000000000000RA              32178615    005800670000006700000520000003NN  NNW 000                       N    
RDG08605000WATRL000000004K00000000000001677010309102015095704N000000000000U84       000030400K 10000000010000001667           
CUS0860500000108034087000         GARNER JOSEPH HORACE6826 WESTRIDGE RD                       000N        CARE OF             
MTR08605000001000000000000000RA              01078197    005800680000006800000610000003NN  NNW 000                       N    
RDG08605000WATRL000000004K00000000000001575010409102015095708N000000000000U84       000040400K 10000000010000001565           
CUS0860500000108034088008         VANCE MICHAEL S     6824 WESTRIDGE RD                       000N        CARE OF             
MTR08605000001000000000000000RA              01078163    005800690000006900000610000003NN  NNW 000                       N    
RDG08605000WATRL000000004K00000000000000897010509102015095713N000000000000U84       000050400K 10000000010000000887           
CUS0860500000108034089006         DORSEY JOHN ADRIAN,S6822 WESTRIDGE RD                       000N        CARE OF             
MTR08605000001000000000000000RA              10001464    005800700000007000000570000003NN  NNW 000                       N    
RDG08605000WATRL000000004K00000000000000266010609102015095718N000000000000U84       000050400K 10000000010000000256           
CUS0860500000108034090004         DANIEL F SCHWAB     6820 WESTRIDGE RD                       000N        CARE OF             
MTR08605000001000000000000000RA              44089625    005800710000007100000520000003NN  NNW 000                       N    
RDG08605000WATRL000000004K00000000000002220010709102015095721N000000000000U84       000030400K 10000000010000002210           
CUS0860500000108034091002         JOHNSON OLLIE       6818 WESTRIDGE RD                       000N        CARE OF             
MTR08605000001000000000000000RA              38985770    005800720000007200000520000003NN  NNW 000                       N    
RDG08605000WATRL000000004K00000000000003027010809102015095725N000000000000U84       000040400K 10000000010000003017           
CUS0860500000108034092000         SHABAZZ JIHADA      6816 WESTRIDGE RD                       000N        CARE OF             
MTR08605000001000000000000000RA              01078350    005800730000007300000610000003NN  NNW 000                       N    
RDG08605000WATRL000000004K00000000000001046010909102015095728N000000000000U84       000030400K 10000000010000001036           
CUS0860500000108034093008         DRAKE EVORIA        6814 WESTRIDGE RD                       000N        CARE OF             
MTR08605000001000000000000000RA              23054221    005800740000007400000520000003NN  NNW 000                       N    
RDG08605000WATRL000000004K00000000000001906011009102015095732N000000000000U84       000040400K 10000000010000001896           
CUS0860500000108034094006         GILMORE TERRELL     6812 WESTRIDGE RD                       000N        CARE OF             
MTR08605000001000000000000000RA              99392317    005800750000007500000570000003NN  NNW 000                       N    
RDG08605000WATRL000000004K00000000000003074011109102015095740N000000000010U84       000080400K 10000000010000003059           
CUS0860500000108034095003         JOHN R FEASTER      6810 WESTRIDGE RD                       000N        CARE OF             
MTR08605000001000000000000000RA              01078010    005800760000007600000610000003NN  NNW 000                       N    
RDG08605000WATRL000000004K00000000000000801011209102015095743N000000000000U84       000030400K 10000000010000000791           
CUS0860500000108034096001         SHAW TANYA R        6808 WESTRIDGE RD                       000N        CARE OF             
MTR08605000001000000000000000RA              33077172    005800770000007700000520000003NN  NNW 000                       N    
RDG08605000WATRL000000004K00000000000003849011309102015095758N000000000020U84       000150400K 10000000010000003834           
CUS0860500000108034097009         S&S MARYLAND LLC    6806 WESTRIDGE RD                       000N        CARE OF             
MTR08605000001000000000000000RA              23055120    005800780000007800000520000003NN  NNW 000                       N    
RDG08605000WATRL000000004K00000000000005613008509102015093041N000000000000U84       000850400K 10000000010000005577           
CUS0860500000108034098007         GOLDFARB DORCELLA A 6802 WESTRIDGE RD                       000N        CARE OF             
MTR08605000001000000000000000RA              46877656    005800790000007900000520000003NN  NNW 000                       N    
RDG08605000WATRL000000004K00000000000000867008609102015093051N000000000000U84       000100400K 10000000010000000857           
CUS0860500000108034099005         HAFIZ MOHAMMAD      6800 WESTRIDGE RD                       000N        CARE OF             
MTR08605000001000000000000000RA              52286002    005800800000008000000520000003NN  NNW 000                       N    
RDG08605000WATRL000000004K00000000000002529008709102015093133N000000000000U84       000420400K 10000000010000002483           
CUS0860500000108034100001         MCKNIGHT ELEX J     6801 WESTRIDGE RD                       000N        CARE OF             
MTR08605000001000000000000000RA              01078355    005800810000008100000610000003NN  NNW 000                       N    
RDG08605000WATRL000000004K00000000000000669008209102015092736N000000000000U84       000530400K 10000000010000000657           
CUS0860500000108034101009         BARRETT ASHLEY      6803 WESTRIDGE RD                       000N        CARE OF             
MTR08605000001000000000000000RA              01073311    005800820000008200000610000003NN  NNW 000                       N    
RDG08605000WATRL000000004K00000000000002058008309102015092827N000000000000U84       000510400K 10000000010000002048           
CUS0860500000108034102007         EISENBERG AMY RACHAE6805 WESTRIDGE RD                       000N        CARE OF             
MTR08605000001000000000000000RA              01073317    005800830000008300000610000003NN  NNW 000                       N    
RDG08605000WATRL000000004K00000000000000915008409102015092916N000300000010U84       000490400K 10000000010000000888           
CUS0860500000108034103005         CHEATHAM ROBERT L   6807 WESTRIDGE RD                       000N        CARE OF             
MTR08605000001000000000000000RA              24228443    005800840000008400000520000003NN  NNW 000                       N    
RDG08605000WATRL000000004K00000000000004282011409102015095807N000000000000U84       000090400K 10000000010000004272           
CUS0860500000108034104003         HONG CHARLES LEE,JR 6809 WESTRIDGE RD                       000N        CARE OF             
MTR08605000001000000000000000RA              45373393    005800850000008500000520000003NN  NNW 000                       N    
RDG08605000WATRL000000004K00000000000000820011509102015095810N000000000000U84       000030400K 10000000010000000810           
CUS0860500000108034105000         MCCRAY JOHN W       6811 WESTRIDGE RD                       000N        CARE OF             
MTR08605000001000000000000000RA              45376581    005800860000008600000520000003NN  NNW 000                       N    
RDG08605000WATRL000000004K00000000000001743011609102015095812N000000000000U84       000020400K 10000000010000001733           
CUS0860500000108034106008         WARFIELD WILLIAM DEN6813 WESTRIDGE RD                       000N        CARE OF             
MTR08605000001000000000000000RA              30516346    005800870000008700000520000003NN  NNW 000                       N    
RDG08605000WATRL000000004K00000000000001664011709102015095815N000000000000U84       000030400K 10000000010000001654           
CUS0860500000108034107006         TERRELL SEAN A      6815 WESTRIDGE RD                       000N        CARE OF             
MTR08605000001000000000000000RA              01073156    005800880000008800000610000003NN  NNW 000                       N    
RDG08605000WATRL000000004K00000000000000962011809102015095817N000000000000U84       000020400K 10000000010000000952           
CUS0860500000108034108004         MARKS WOODSON H,3RD 6817 WESTRIDGE RD                       000N        CARE OF             
MTR08605000001000000000000000RA              01073159    005800890000008900000610000003NN  NNW 000                       N    
RDG08605000WATRL000000004K00000000000001890011909102015095820N000000000000U84       000030400K 10000000010000001880           
CUS0860500000108034109002         MCKINLEY RENNISSE   6819 WESTRIDGE RD                       000N        CARE OF             
MTR08605000001000000000000000RA              01073499    005800900000009000000610000003NN  NNW 000                       N    
RDG08605000WATRL000000004K00000000000000651012009102015095825N000000000010U84       000050400K 10000000010000000641           
CUS0860500000108034110000         GOINES VADA M       6821 WESTRIDGE RD                       000N        CARE OF             
MTR08605000001000000000000000RA              27813616    005800910000009100000520000003NN  NNW 000                       N    
RDG08605000WATRL000000004K00000000000005322013109102015101347N000400000070U84       000880400K 10000000010000005321           
CUS0860500000108034111008         JONES JOHNNIE MAE   6823 WESTRIDGE RD                       000N        CARE OF             
MTR08605000001000000000000000RA              01073314    005800920000009200000610000003NN  NNW 000                       N    
RDG08605000WATRL000000004K00000000000000893012109102015101219N000000000001U84       000490400K 10000000010000000874           
CUS0860500000108034112006         REDMOND EDWARD L    6825 WESTRIDGE RD                       000N        CARE OF             
MTR08605000001000000000000000RA              01074482    005800930000009300000610000003NN  NNW 000                       N    
RDG08605000WATRL000000004K00000000000001064012209102015101130N000000000001U84       000200400K 10000000010000001040           
CUS0860500000108034113004         ANDRE M FREDERICK   6827 WESTRIDGE RD                       000N        CARE OF             
MTR08605000001000000000000000RA              01074487    005800940000009400000610000003NN  NNW 000                       N    
RDG08605000WATRL000000004K00000000000001817012309102015101110N000000000001U84       000630400K 10000000010000001792           
CUS0860500000108034114002         TOWE EARLIE EDWIN,JR6829 WESTRIDGE RD                       000N        CARE OF             
MTR08605000001000000000000000RA              36690641    005800950000009500000520000003NY  NNW 000                       N    
MTM0860500036690641    occ                                                                                                    
RDG08605000WATRL000000004K00000000000001989012609102015100002N000000000020U84       000070400K 10000000010000001989           
CUS0860500000108034115009         HANSBORO JOHN BEVERL6831 WESTRIDGE RD                       000N        CARE OF             
MTR08605000001000000000000000RA              01074488    005800960000009600000610000003NN  NNW 000                       N    
RDG08605000WATRL000000004K00000000000001931012409102015101007N000000000001U84       001120400K 10000000010000001916           
CUS0860500000108034116007         PRAILEAU EDWARD,JR  6833 WESTRIDGE RD                       000N        CARE OF             
MTR08605000001000000000000000RA              29084478    005800970000009700000520000003NY  NNW 000                       N    
MTM0860500029084478    occ                                                                                                    
RDG08605000WATRL000000004K00000000000004363012509102015095955N000000000010U84       000070400K 10000000010000004363           
CUS0860500000108034117005         KIMBROW RAHSAAN     6835 WESTRIDGE RD                       000N        CARE OF             
MTR08605000001000000000000000RA              42808221    005800980000009800000520000003NN  NNW 000                       N    
RDG08605000WATRL000000004K00000000000001607013009102015100815N000300000010U84       000950400K 10000000010000001591           
CUS0860500000108034118003         LISA ADAMS TYUS     6837 WESTRIDGE RD                       000N        CARE OF             
MTR08605000001000000000000000RA              10011866    005800990000009900000570000000NN  NNW 000                       N    
RDG08605000WATRL000000004K00000000000000327012909102015100640N000000000000U84       000890400K 10000000010000000270           
CUS0860500000108034119001         TURNIPSEED JERROD ER6839 WESTRIDGE RD                       000N        CARE OF             
MTR08605000001000000000000000RA              99290175    005801000000010000000570000003NN  NNW 000                       N    
RDG08605000WATRL000000004K00000000000001744012809102015100511N000000000000U84       000630400K 10000000010000001712           
CUS0860500000108034120009         MARION LEE E        6841 WESTRIDGE RD                       000N        CARE OF             
MTR08605000001000000000000000RA              46877657    005801010000010100000520000003NN  NNW 000                       N    
RDG08605000WATRL000000004K00000000000001692012709102015100408N000000000000U84       002460400K 10000000010000001669           
CUS0860500000108428005006         BALTO COUNTY        6838 ALTER ST                           000N        CARE OF             
MTR08605000001000000000000000RA              54353753    000101020000010200000520000003NN  NNW 000                       N    
RDG08605000WATRL000000004K00000000000003426008909102015095009N000000000000U84       010530400K 10000000010000003372           
CUS0860500000108034121007         CARPENTER LINDBERGH 6816 ALTER ST                           000N        CARE OF             
MTR08605000001000000000000000RA              52285427    005801030000010300000520000003NN  NNW 000                       N    
RDG08605000WATRL000000004K00000000000003282002809102015083518N000000000000U84       000530400K 10000000010000003249           
CUS0860500000108034122005         COOPER WAYNE STANLEY6814 ALTER ST                           000N        CARE OF             
MTR08605000001000000000000000RA              10017189    005801040000010400000570000003NN  NNW 000                       N    
RDG08605000WATRL000000004K00000000000000063002709102015083425N000000000010U84       000300400K 10000000010000000062           
CUS0860500000108034123003         JONES DEMASCEO      6812 ALTER ST                           000N        CARE OF             
MTR08605000001000000000000000RA              27828796    005801050000010500000520000003NN  NNW 000                       N    
RDG08605000WATRL000000004K00000000000003255002609102015083355N000000000000U84       000400400K 10000000010000003231           
CUS0860500000108034124001         MCCLELLAND JACK,JR  6810 ALTER ST                           000N        CARE OF             
MTR08605000001000000000000000RA              24769900    005801060000010600000520000003NN  NNW 000                       N    
RDG08605000WATRL000000004K00000000000004020002509102015083315N000300000010U84       000750400K 10000000010000004022           
CUS0860500000108034125008         JACKSON JOYCE V     3832 BYFIELD RD                         000N        CARE OF             
MTR08605000001000000000000000RA              50788740    005801070000010700000520000003NN  NNW 000                       N    
RDG08605000WATRL000000004K00000000000001443003009102015083952N000300000010U84       001990400K 10000000010000001448           
CUS0860500000108034126006         BACON BENJAMIN      3830 BYFIELD RD                         000N        CARE OF             
MTR08605000001000000000000000RA              35118171    005801080000010800000520000003NN  NNW 000                       N    
RDG08605000WATRL000000004K00000000000005330003109102015084032N000000000000U84       000400400K 10000000010000005306           
CUS0860500000108034127004         SMITH JENNIFER SUSAN3828 BYFIELD RD                         000N        CARE OF             
MTR08605000001000000000000000RA              54348160    005801090000010900000520000003NN  NNW 000                       N    
RDG08605000WATRL000000004K00000000000001530003209102015084113N000300000010U84       000410400K 10000000010000001431           
CUS0860500000108034128002         COOK HARRY          3826 BYFIELD RD                         000N        CARE OF             
MTR08605000001000000000000000RA              52770516    005801100000011000000520000003NN  NNW 000                       N    
RDG08605000WATRL000000004K00000000000001434003309102015084214N000300000010U84       000610400K 10000000010000001399           
CUS0860500000108034129000         PITTMAN GLENN       3824 BYFIELD RD                         000N        CARE OF             
MTR08605000001000000000000000RA              54348145    005801110000011100000520000003NN  NNW 000                       N    
RDG08605000WATRL000000004K00000000000001908003409102015084241N000000000000U84       000270400K 10000000010000001862           
CUS0860500000108034130008         MOORE HARRY G,3RD   3822 BYFIELD RD                         000N        CARE OF             
MTR08605000001000000000000000RA              54348245    005801120000011200000520000003NN  NNW 000                       N    
RDG08605000WATRL000000004K00000000000000681003509102015084421N000300000010U84       001000400K 10000000010000000688           
CUS0860500000108034131006         ROBERSON BESSIE M   3820 BYFIELD RD                         000N        CARE OF             
MTR08605000001000000000000000RA              11331479    005801130000011300000570000003NN  NNW 000                       N    
RDG08605000WATRL000000004K00000000000002532003609102015084516N000300000020U84       000550400K 10000000010000002513           
CUS0860500000108034132004         CAMPBELL STEPHEN ALA3818 BYFIELD RD                         000N        CARE OF             
MTR08605000001000000000000000RA              23427407    005801140000011400000520000003NN  NNW 000                       N    
RDG08605000WATRL000000004K00000000000004526003709102015084611N000300000010U84       000550400K 10000000010000004531           
CUS0860500000108034133002         HALL TERRY          3816 BYFIELD RD                         000N        CARE OF             
MTR08605000001000000000000000RA              40321395    005801150000011500000520000003NN  NNW 000                       N    
RDG08605000WATRL000000004K00000000000001153003809102015084739N000400000010U84       000880400K 10000000010000001151           
CUS0860500000108034134000         LEDBETTER ARLINE C  3814 BYFIELD RD                         000N        CARE OF             
MTR08605000001000000000000000RA              39923324    005801160000011600000520000003NN  NNW 000                       N    
RDG08605000WATRL000000004K00000000000002507003909102015084925N000300000010U84       001060400K 10000000010000002512           
CUS0860500000108034135007         WELLS WILLIAM E     3812 BYFIELD RD                         000N        CARE OF             
MTR08605000001000000000000000RA              46881441    005801170000011700000520000003NN  NNW 000                       N    
RDG08605000WATRL000000004K00000000000002946004009102015085026N000300000010U84       000610400K 10000000010000002895           
CUS0860500000108034136005         CROSBY ELWOOD R     3810 BYFIELD RD                         000N        CARE OF             
MTR08605000001000000000000000RA              54348243    005801180000011800000520000003NN  NNW 000                       N    
RDG08605000WATRL000000004K00000000000002275004109102015085131N000300000010U84       000650400K 10000000010000002243           
CUS0860500000108034137003         LINTON LETHEL E  LIN3808 BYFIELD RD                         000N        CARE OF             
MTR08605000001000000000000000RA              46881439    005801190000011900000520000003NN  NNW 000                       N    
RDG08605000WATRL000000004K00000000000003386004209102015085254N000000000000U84       000830400K 10000000010000003368           
CUS0860500000108034138001         THOMAS LAMONT L     3806 BYFIELD RD                         000N        CARE OF             
MTR08605000001000000000000000RA              23055116    005801200000012000000520000003NN  NNW 000                       N    
RDG08605000WATRL000000004K00000000000002500004409102015085451N000400000010U84       000610400K 10000000010000002498           
CUS0860500000108034139009         HALL BRADLEY LEROY  3804 BYFIELD RD                         000N        CARE OF             
MTR08605000001000000000000000RA              41590291    005801210000012100000520000003NN  NNW 000                       N    
RDG08605000WATRL000000004K00000000000001926004309102015085350N000000000000U84       000560400K 10000000010000001918           
CUS0860500000108034140007         CHEATHAM VINCENT L  3802 BYFIELD RD                         000N        CARE OF             
MTR08605000001000000000000000RA              32898277    005801220000012200000520000003NN  NNW 000                       N    
RDG08605000WATRL000000004K00000000000002829004509102015085558N000000000000U84       000670400K 10000000010000002815           
CUS0860500000108034141005         VAUGHN LINWOOD C    3803 BYFIELD RD                         000N        CARE OF             
MTR08605000001000000000000000RA              46881442    005801230000012300000520000003NN  NNW 000                       N    
RDG08605000WATRL000000004K00000000000001035004609102015085720N000000000000U84       000820400K 10000000010000001029           
CUS0860500000108034142003         HALL TALEA S        3805 BYFIELD RD                         000N        CARE OF             
MTR08605000001000000000000000RA              36697011    005801240000012400000520000003NN  NNW 000                       N    
RDG08605000WATRL000000004K00000000000000788004709102015085908N000000000000U84       001080400K 10000000010000000770           
CUS0860500000108034143001         TAYLOR FORREST CASTP3807 BYFIELD RD                         000N        CARE OF             
MTR08605000001000000000000000RA              24768180    005801250000012500000520000003NN  NNW 000                       N    
RDG08605000WATRL000000004K00000000000005538004809102015085937N000000000000U84       000290400K 10000000010000005504           
CUS0860500000108034144009         WASHINGTON CLAYTON G3809 BYFIELD RD                         000N        CARE OF             
MTR08605000001000000000000000RA              01073315    005801260000012600000610000003NN  NNW 000                       N    
RDG08605000WATRL000000004K00000000000001250004909102015090057N000300000010U84       000800400K 10000000010000001215           
CUS0860500000108034145006         JONES THOMAS WALTER 3811 BYFIELD RD                         000N        CARE OF             
MTR08605000001000000000000000RA              42808227    005801270000012700000520000003NN  NNW 000                       N    
RDG08605000WATRL000000004K00000000000003744005009102015090214N000300000010U84       000770400K 10000000010000003713           
CUS0860500000108034146004         GROSS CLIFTON GREGOR3813 BYFIELD RD                         000N        CARE OF             
MTR08605000001000000000000000RA              46881438    005801280000012800000520000003NY  NNW 000                       N    
MTM0860500046881438    occ                                                                                                    
RDG08605000WATRL000000004K00000000000000674005109102015090342N000000000000U84       000880400K 10000000010000000674           
CUS0860500000108034147002         MASON DONALD ALVIN  3815 BYFIELD RD                         000N        CARE OF             
MTR08605000001000000000000000RA              01074249    005801290000012900000610000003NN  NNW 000                       N    
RDG08605000WATRL000000004K00000000000002356005209102015090416N000300000010U84       000340400K 10000000010000002304           
CUS0860500000108034148000         NESBIT EARL I       3817 BYFIELD RD                         000N        CARE OF             
MTR08605000001000000000000000RA              40321595    005801300000013000000520000003NN  NNW 000                       N    
RDG08605000WATRL000000004K00000000000002380005309102015090509N000300000010U84       000530400K 10000000010000002352           
CUS0860500000108034149008         SULLIVAN CHARLES    3819 BYFIELD RD                         000N        CARE OF             
MTR08605000001000000000000000RA              25783461    005801310000013100000520000003NN  NNW 000                       N    
RDG08605000WATRL000000004K00000000000003351005409102015090544N000000000000U84       000350400K 10000000010000003345           
CUS0860500000108034150006         MILLER VAN ERIC,SR  3821 BYFIELD RD                         000N        CARE OF             
MTR08605000001000000000000000RA              35107966    005801320000013200000520000003NN  NNW 000                       N    
RDG08605000WATRL000000004K00000000000001379005509102015090628N000300000010U84       000440400K 10000000010000001357           
CUS0860500000108034151004         LEWIS JENNIFER J    3823 BYFIELD RD                         000N        CARE OF             
MTR08605000001000000000000000RA              23052222    005801330000013300000520000003NN  NNW 000                       N    
RDG08605000WATRL000000004K00000000000002962005609102015090645N000000000000U84       000170400K 10000000010000002950           
CUS0860500000108034152002         KLEIN CHARLES H     3825 BYFIELD RD                         000N        CARE OF             
MTR08605000001000000000000000RA              01073242    005801340000013400000610000003NN  NNW 000                       N    
RDG08605000WATRL000000004K00000000000000576005709102015090756N000000000000U84       000710400K 10000000010000000565           
CUS0860500000108034153000         WATFORD CLARENCE    3827 BYFIELD RD                         000N        CARE OF             
MTR08605000001000000000000000RA              26016811    005801350000013500000520000003NN  NNW 000                       N    
RDG08605000WATRL000000004K00000000000004214005809102015090836N000400000010U84       000400400K 10000000010000004210           
CUS0860500000108034154008         MAURO EUGENE A/EILEE3829 BYFIELD RD                         000N        CARE OF             
MTR08605000001000000000000000RA              24764565    005801360000013600000520000000NN  NNW 000                       N    
RDG08605000WATRL000000004K00000000000004588005909102015090902N000000000000U84       000260400K 10000000010000004562           
CUS0860500000108034155005         ALTISOURCE SINGLE FA3831 BYFIELD RD                         000N        CARE OF             
MTR08605000001000000000000000RA              14907627    005801370000013700000310000003NN  NNW 000                       N    
RDG08605000WATRL000000004K00000000000000332006009102015090956N000000000010U84       000540400K 10000000010000000329           
CUS0860500000108034156003         NANTON MAKEDA       3833 BYFIELD RD                         000N        CARE OF             
MTR08605000001000000000000000RA              22608965    005801380000013800000520000003NN  NNW 000                       N    
RDG08605000WATRL000000004K00000000000002252006109102015091030N000000000000U84       000340400K 10000000010000002235           
CUS0860500000108034157001         MONROE HUBERT       3835 BYFIELD RD                         000N        CARE OF             
MTR08605000001000000000000000RA              27828899    005801390000013900000520000003NN  NNW 000                       N    
RDG08605000WATRL000000004K00000000000004172006209102015091056N000000000000U84       000260400K 10000000010000004159           
CUS0860500000108034158009         PETTY WILLIE J,SR   6806 ALTER ST                           000N        CARE OF             
MTR08605000001000000000000000RA              35106510    005801400000014000000520000003NN  NNW 000                       N    
RDG08605000WATRL000000004K00000000000003478002409102015083200N000000000000U84       000420400K 10000000010000003440           
CUS0860500000108034159007         LATHAM MICHEAL T    6804 ALTER ST                           000N        CARE OF             
MTR08605000001000000000000000RA              48583765    005801410000014100000520000003NN  NNW 000                       N    
RDG08605000WATRL000000004K00000000000001835002309102015083118N000000000000U84       000460400K 10000000010000001823           
CUS0860500000108034160005         GIDDENS SANTONIO L  6802 ALTER ST                           000N        CARE OF             
MTR08605000001000000000000000RA              24765462    005801420000014200000520000003NN  NNW 000                       N    
RDG08605000WATRL000000004K00000000000002969002209102015083032N000400000010U84       000590400K 10000000010000002967           
CUS0860500000108034161003         BRACE JAMES MICHAEL 3846 SOUTHERN CROSS DR                  000N        CARE OF             
MTR08605000001000000000000000RA              31580904    005801430000014300000520000003NN  NNW 000                       N    
RDG08605000WATRL000000004K00000000000003136002109102015082933N000000000000U84       000740400K 10000000010000003122           
CUS0860500000108034162001         MARTIN HOWARD       3844 SOUTHERN CROSS DR                  000N        CARE OF             
MTR08605000001000000000000000RA              41588214    005801440000014400000520000003NY  NNW 000                       N    
MTM0860500041588214    occ                                                                                                    
RDG08605000WATRL000000004K00000000000001922006309102015091346N000000000000U84       001700400K 10000000010000001922           
CUS0860500000108034163009         JOHNSON REGINALD E,S3842 SOUTHERN CROSS DR                  000N        CARE OF             
MTR08605000001000000000000000RA              27812983    005801450000014500000520000003NN  NNW 000                       N    
RDG08605000WATRL000000004K00000000000002916006409102015091606N000300000010U84       001400400K 10000000010000002773           
CUS0860500000108034164007         SHERLEAN A TURRANT  3840 SOUTHERN CROSS DR                  000N        CARE OF             
MTR08605000001000000000000000RA              01074481    005801460000014600000610000003NN  NNW 000                       N    
RDG08605000WATRL000000004K00000000000000425006509102015091643N000000000000U84       000370400K 10000000010000000410           
CUS0860500000108034165004         DAVISON DANA E      3838 SOUTHERN CROSS DR                  000N        CARE OF             
MTR08605000001000000000000000RA              10000396    005801470000014700000570000003NN  NNW 000                       N    
RDG08605000WATRL000000004K00000000000000176006609102015091744N000300000010U84       000610400K 10000000010000000149           
CUS0860500000108034166002         ANDREWS RICHARD W,JR3836 SOUTHERN CROSS DR                  000N        CARE OF             
MTR08605000001000000000000000RA              27133210    005801480000014800000520000003NN  NNW 000                       N    
RDG08605000WATRL000000004K00000000000005710006709102015091819N000000000000U84       000350400K 10000000010000005692           
CUS0860500000108034167000         KHAN KHORSHED  CHENO3834 SOUTHERN CROSS DR                  000N        CARE OF             
MTR08605000001000000000000000RA              01074492    005801490000014900000610000003NN  NNW 000                       N    
RDG08605000WATRL000000004K00000000000001645006809102015091849N000300000010U84       000300400K 10000000010000001592           
CUS0860500000108034168008         MOORE BRENDA B      3832 SOUTHERN CROSS DR                  000N        CARE OF             
MTR08605000001000000000000000RA              54350511    005801500000015000000520000003NN  NNW 000                       N    
RDG08605000WATRL000000004K00000000000001357006909102015091912N000000000000U84       000230400K 10000000010000001342           
CUS0860500000108034169006         KEYS MARGO          3830 SOUTHERN CROSS DR                  000N        CARE OF             
MTR08605000001000000000000000RA              46882661    005801510000015100000520000003NN  NNW 000                       N    
RDG08605000WATRL000000004K00000000000002799007009102015092003N000300000010U84       000510400K 10000000010000002737           
CUS0860500000108034170004         PATTERSON NORMAN A  3828 SOUTHERN CROSS DR                  000N        CARE OF             
MTR08605000001000000000000000RA              45380268    005801520000015200000520000003NN  NNW 000                       N    
RDG08605000WATRL000000004K00000000000003012007109102015092031N000000000000U84       000280400K 10000000010000002983           
CUS0860500000108034171002         HALL LARRY E        3826 SOUTHERN CROSS DR                  000N        CARE OF             
MTR08605000001000000000000000RA              41259187    005801530000015300000520000003NN  NNW 000                       N    
RDG08605000WATRL000000004K00000000000003062007209102015092100N000300000010U84       000290400K 10000000010000003021           
CUS0860500000108034172000         LANGLEY MARVIN      3824 SOUTHERN CROSS DR                  000N        CARE OF             
MTR08605000001000000000000000RA              11429410    005801540000015400000570000003NN  NNW 000                       N    
RDG08605000WATRL000000004K00000000000004547007309102015092154N000000000000U84       000540400K 10000000010000004536           
CUS0860500000108034173008         ARVIN ERIC J        3822 SOUTHERN CROSS DR                  000N        CARE OF             
MTR08605000001000000000000000RA              45373390    005801550000015500000520000003NN  NNW 000                       N    
RDG08605000WATRL000000004K00000000000002568007409102015092214N000300000010U84       000200400K 10000000010000002515           
CUS0860500000108034174006         DRUMMOND JAMES W,JR 3820 SOUTHERN CROSS DR                  000N        CARE OF             
MTR08605000001000000000000000RA              01074932    005801560000015600000610000003NN  NNW 000                       N    
RDG08605000WATRL000000004K00000000000001050007509102015092230N000300000010U84       000160400K 10000000010000001020           
CUS0860500000108034175003         SCOTT REGINALD C    3818 SOUTHERN CROSS DR                  000N        CARE OF             
MTR08605000001000000000000000RA              01074934    005801570000015700000610000003NN  NNW 000                       N    
RDG08605000WATRL000000004K00000000000001859007609102015092301N000000000000U84       000310400K 10000000010000001824           
CUS0860500000108034176001         MARSHALL LATANYA P  3816 SOUTHERN CROSS DR                  000N        CARE OF             
MTR08605000001000000000000000RA              40781829    005801580000015800000520000003NN  NNW 000                       N    
RDG08605000WATRL000000004K00000000000002637007709102015092331N000400000010U84       000300400K 10000000010000002635           
CUS0860500000108034177009         VINCENT IRVIN D     3814 SOUTHERN CROSS DR                  000N        CARE OF             
MTR08605000001000000000000000RA              40781826    005801590000015900000520000003NN  NNW 000                       N    
RDG08605000WATRL000000004K00000000000001819007809102015092359N000300000010U84       000280400K 10000000010000001793           
CUS0860500000108034178007         NELSON BARBARA ANNE 3812 SOUTHERN CROSS DR                  000N        CARE OF             
MTR08605000001000000000000000RA              41259184    005801600000016000000520000003NN  NNW 000                       N    
RDG08605000WATRL000000004K00000000000001796007909102015092515N000300000010U84       000760400K 10000000010000001819           
CUS0860500000108034179005         BILLUPS CHARLES     3810 SOUTHERN CROSS DR                  000N        CARE OF             
MTR08605000001000000000000000RA              45373422    005801610000016100000520000003NN  NNW 000                       N    
RDG08605000WATRL000000004K00000000000001946008009102015092549N000300000010U84       000340400K 10000000010000001947           
CUS0860500000108034180003         JOYNES DAVID G      3808 SOUTHERN CROSS DR                  000N        CARE OF             
MTR08605000001000000000000000RA              31936357    005801620000016200000520000003NN  NNW 000                       N    
RDG08605000WATRL000000004K00000000000005454008109102015092643N000000000000U84       000540400K 10000000010000005423           
CUS0860500000108034181001         HARVEY WARREN E  HAR3804 SOUTHERN CROSS DR                  000N        CARE OF             
MTR08605000001000000000000000RA              19461523    005801630000016300000520000003NN  NNW 000                       N    
RDG08605000WATRL000000004K00000000000004696008809102015093236N000000000000U84       000630400K 10000000010000004674           
CUS0860500000108034182009         MITCHELL CONNIE ELIZ3802 SOUTHERN CROSS DR                  000N        CARE OF             
MTR08605000001000000000000000RA              36697838    005801640000016400000520000003NN  NNW 000                       N    
RDG08605000WATRL000000004K00000000000001358003109082015125550N000000000000N84       000670400K 10000000010000001350           
CUS0860500000108034183007         JONES TAMMY T       3800 SOUTHERN CROSS DR                  000N        CARE OF             
MTR08605000001000000000000000RA              54348158    005801650000016500000520000003NN  NNW 000                       N    
RDG08605000WATRL000000004K00000000000001323003209082015125646N000000000000N84       000560400K 10000000010000001307           
CUS0860500000108034184005         HARRIS SYLVIA M     6710 CAMPFIELD RD                       000N        CARE OF             
MTR08605000001000000000000000RA              54348156    005801660000016600000520000003NN  NNW 000                       N    
RDG08605000WATRL000000004K00000000000000800003309082015125713N000400000010N84       000270400K 10000000010000000796           
CUS0860500000108034185002         DORSEY TOMMIE L     6716 CAMPFIELD RD                       000N        CARE OF             
MTR08605000001000000000000000RA              01074917    005801670000016700000610000003NN  NNW 000                       N    
RDG08605000WATRL000000004K00000000000001561003409082015125803N000000000000N84       000500400K 10000000010000001541           
CUS0860500000108034186000         SEWARD MELVIN D     6720 CAMPFIELD RD                       000N        CARE OF             
MTR08605000001000000000000000RA              01074911    005801680000016800000610000003NN  NNW 000                       N    
RDG08605000WATRL000000004K00000000000000859003509082015125857N000300000010N84       000540400K 10000000010000000867           
CUS0860500000108034187008         STENHOUSE TERRACHELL6722 CAMPFIELD RD                       000N        CARE OF             
MTR08605000001000000000000000RA              01074937    005801690000016900000610000003NN  NNW 000                       N    
RDG08605000WATRL000000004K00000000000001201003609082015125924N000000000000N84       000270400K 10000000010000001190           
CUS0860500000108034188006         JANICE MOSELEY      6724 CAMPFIELD RD                       000N        CARE OF             
MTR08605000001000000000000000RA              36689760    005801700000017000000520000003NN  NNW 000                       N    
RDG08605000WATRL000000004K00000000000008271003709082015125948N000000000000N84       000240400K 10000000010000008250           
CUS0860500000108034189004         KIM HOLLY           6726 CAMPFIELD RD                       000N        CARE OF             
MTR08605000001000000000000000RA              01074933    005801710000017100000610000003NN  NNW 000                       N    
RDG08605000WATRL000000004K00000000000001317003809082015130001N000000000000N84       000130400K 10000000010000001267           
CUS0860500000108034190002         COLE JOSHUA J       6728 CAMPFIELD RD                       000N        CARE OF             
MTR08605000001000000000000000RA              29679873    005801720000017200000520000003NN  NNW 000                       N    
RDG08605000WATRL000000004K00000000000005323003909082015130034N000000000000N84       000330400K 10000000010000005315           
CUS0860500000108034191000         WILNER ALAN M       6808 CAMPFIELD RD                       000N        CARE OF             
MTR08605000001000000000000000RA              19461754    005801730000017300000520000003NN  NNW 000                       N    
RDG08605000WATRL000000004K00000000000005292004009082015130106N000000000000N84       000320400K 10000000010000005282           
CUS0860500000108034192008         LEWIS GLENN DARRYL  6810 CAMPFIELD RD                       000N        CARE OF             
MTR08605000001000000000000000RA              23057407    005801740000017400000520000003NN  NNW 000                       N    
RDG08605000WATRL000000004K00000000000007113004109082015130141N000300000010N84       000350400K 10000000010000007027           
CUS0860500000108034193006         QUINN THEODORE C    6812 CAMPFIELD RD                       000N        CARE OF             
MTR08605000001000000000000000RA              01078052    005801750000017500000610000003NN  NNW 000                       N    
RDG08605000WATRL000000004K00000000000000326004209082015130216N000400000010N84       000350400K 10000000010000000324           
CUS0860500000108034194004         PRESSMAN RICHARD HAN6814 CAMPFIELD RD                       000N        CARE OF             
MTR08605000001000000000000000RA              30523536    005801760000017600000520000003NN  NNW 000                       N    
RDG08605000WATRL000000004K00000000000001500004309082015130244N000000000000N84       000280400K 10000000010000001496           
CUS0860500000108034195001         SHOWELL ROMEL       6816 CAMPFIELD RD                       000N        CARE OF             
MTR08605000001000000000000000RA              01078353    005801770000017700000610000003NN  NNW 000                       N    
RDG08605000WATRL000000004K00000000000001307004409082015130333N000000000000N84       000490400K 10000000010000001281           
CUS0860500000108034196009         BINDRA SCHEDANA S   6818 CAMPFIELD RD                       000N        CARE OF             
MTR08605000001000000000000000RA              01078377    005801780000017800000610000003NN  NNW 000                       N    
RDG08605000WATRL000000004K00000000000001715004509082015130405N000000000010N84       000320400K 10000000010000001713           
CUS0860500000108034197007         WILLIAMS ELZENIA G  6820 CAMPFIELD RD                       000N        CARE OF             
MTR08605000001000000000000000RA              27828990    005801790000017900000520000003NN  NNW 000                       N    
RDG08605000WATRL000000004K00000000000004310004609082015130429N000000000000N84       000240400K 10000000010000004300           
CUS0860500000108034198005         WILLIAMS JAMES W,JR 6822 CAMPFIELD RD                       000N        CARE OF             
MTR08605000001000000000000000RA              01078358    005801800000018000000610000003NN  NNW 000                       N    
RDG08605000WATRL000000004K00000000000001768004709082015130457N000000000000N84       000280400K 10000000010000001721           
CUS0860500000108034199003         SERIO JOHN C        6824 CAMPFIELD RD                       000N        CARE OF             
MTR08605000001000000000000000RA              50481117    005801810000018100000520000003NN  NNW 000                       N    
RDG08605000WATRL000000004K00000000000000342004809082015130525N000400000010N84       000280400K 10000000010000000341           
CUS0860500000108034200009         DUARTE MEZA HENRY JO6826 CAMPFIELD RD                       000N        CARE OF             
MTR08605000001000000000000000RA              22608627    005801820000018200000520000003NN  NNW 000                       N    
RDG08605000WATRL000000004K00000000000002332004909082015130559N000000000000N84       000340400K 10000000010000002306           
CUS0860500000108034201007         RAHMING FREDERICK SE6828 CAMPFIELD RD                       000N        CARE OF             
MTR08605000001000000000000000RA              32903141    005801830000018300000520000003NN  NNW 000                       N    
RDG08605000WATRL000000004K00000000000004839005009082015130650N000300000010N84       000510400K 10000000010000004723           
CUS0860500000108034202005         BALTO CO CENTRAL SERSEC CAMPFIELD RD &                      000N        CARE OF             
MTR08605000001000000000000000RA              99999999    007501840000018400000620000003NN  NNW 000                       N    
RDG08605000WATRL000000004K00000000000004086005109082015130652N000000000000N84       000020400K 10000000010000004086           
RTR08605000NN01840184000001840000000001840184000177NY018401840184000000000000000000000000000002    08242015NY020000 N         
RHD08606500NN01610161000001610000000001610161000238NY016101610161000000000000000000000000000002    08242015NY020000 N         
CUS0860650000108034392004         MILTON JOHN K       7121 CAMPFIELD RD                       000N        CARE OF             
MTR08606500001000000000000000RA              41259563    005800010000000100000520000003NN  NNW 000                       N    
RDG08606500WATRL000000004K00000000000002240000109102015103449N000000000010N84       000000400K 10000000010000002225           
CUS0860650000108034391006         SMITH JOAN A        7123 CAMPFIELD RD                       000N        CARE OF             
MTR08606500001000000000000000RA              41259527    005800020000000200000520000003NN  NNW 000                       N    
RDG08606500WATRL000000004K00000000000002215000209102015105503N000000000001N84       000320400K 10000000010000002208           
CUS0860650000108034390008         ROXANA Y HENRIQUEZ  7125 CAMPFIELD RD                       000N        CARE OF             
MTR08606500001000000000000000RA              41259671    005800030000000300000520000003NN  NNW 000                       N    
RDG08606500WATRL000000004K00000000000000696000309102015105431N000000000011N84       002650400K 10000000010000000680           
CUS0860650000108400296003         BERKLEY HERBERT,SR  7141 CAMPFIELD RD                       000N        CARE OF             
MTR08606500001000000000000000RA              41589148    005800040000000400000520000000NN  NNW 000                       N    
RDG08606500WATRL000000004K00000000000001443000409102015105801N000000000001N84       000360400K 10000000010000001430           
CUS0860650000108034393002         DEFREITAS CECILY F  4132 BUCKINGHAM RD                      000N        CARE OF             
MTR08606500001000000000000000RA              27821180    005800050000000500000520000003NN  NNW 000                       N    
RDG08606500WATRL000000004K00000000000002622000509102015105725N000000000001N84       001420400K 10000000010000002610           
CUS0860650000108034394000         CALHOUN ANTHONY W,SR4130 BUCKINGHAM RD                      000N        CARE OF             
MTR08606500001000000000000000RA              10020871    005800060000000600000570000003NN  NNW 000                       N    
RDG08606500WATRL000000004K00000000000000264000609102015105930N000000000021N84       000890400K 10000000010000000250           
CUS0860650000108034395007         GREEN HEATHER       4128 BUCKINGHAM RD                      000N        CARE OF             
MTR08606500001000000000000000RA              41258750    005800070000000700000520000003NN  NNW 000                       N    
RDG08606500WATRL000000004K00000000000003460000709102015105958N000000000010N84       000280400K 10000000010000003433           
CUS0860650000108034396005         FOSTER DAVID EDWARD 4126 BUCKINGHAM RD                      000N        CARE OF             
MTR08606500001000000000000000RA              99187130    005800080000000800000570000003NN  NNW 000                       N    
RDG08606500WATRL000000004K00000000000001292000809102015110043N000400000010N84       000450400K 10000000010000001285           
CUS0860650000108034397003         WHITE MICHAEL J     4124 BUCKINGHAM RD                      000N        CARE OF             
MTR08606500001000000000000000RA              01074651    005800090000000900000610000003NN  NNW 000                       N    
RDG08606500WATRL000000004K00000000000000465000909102015110114N000400000010N84       000310400K 10000000010000000456           
CUS0860650000108034398001         ATKINS THOMAS ALVIS 4122 BUCKINGHAM RD                      000N        CARE OF             
MTR08606500001000000000000000RA              41258749    005800100000001000000520000003NN  NNW 000                       N    
RDG08606500WATRL000000004K00000000000003592001009102015110137N000000000000N84       000230400K 10000000010000003581           
CUS0860650000108034399009         FERGUSON STANFORD L 4120 BUCKINGHAM RD                      000N        CARE OF             
MTR08606500001000000000000000RA              23427422    005800110000001100000520000003NN  NNW 000                       N    
RDG08606500WATRL000000004K00000000000003794001109102015110229N000000000000N84       000520400K 10000000010000003794           
CUS0860650000108034400005         BOWMAN PAUL M       4118 BUCKINGHAM RD                      000N        CARE OF             
MTR08606500001000000000000000RA              29683998    005800120000001200000520000003NN  NNW 000                       N    
RDG08606500WATRL000000004K00000000000003493001209102015110400N000000000000N84       000910400K 10000000010000003484           
CUS0860650000108034401003         WILLIAMS RICHARD BER4116 BUCKINGHAM RD                      000N        CARE OF             
MTR08606500001000000000000000RA              35112377    005800130000001300000520000003NN  NNW 000                       N    
RDG08606500WATRL000000004K00000000000002796001309102015110435N000000000000N84       000350400K 10000000010000002783           
CUS0860650000108034402001         JACKSON-CHAPMAN LENO4114 BUCKINGHAM RD                      000N        CARE OF             
MTR08606500001000000000000000RA              26002569    005800140000001400000520000003NN  NNW 000                       N    
RDG08606500WATRL000000004K00000000000006630006509102015121358N000000000000N84       007370400K 10000000010000006620           
CUS0860650000108034403009         JONES ARNETT        4112 BUCKINGHAM RD                      000N        CARE OF             
MTR08606500001000000000000000RA              33082688    005800150000001500000520000003NN  NNW 000                       N    
RDG08606500WATRL000000004K00000000000001832006609102015121400N000000000000N84       000020400K 10000000010000001822           
CUS0860650000108034404007         TURNER MICHELLE     4110 BUCKINGHAM RD                      000N        CARE OF             
MTR08606500001000000000000000RA              01084473    005800160000001600000610000003NN  NNW 000                       N    
RDG08606500WATRL000000004K00000000000000769001409102015110718N000300000010N84       001630400K 10000000010000000764           
CUS0860650000108034405004         MARK S. DALY        4106 BUCKINGHAM RD                      000N        CARE OF             
MTR08606500001000000000000000RA              26016791    005800170000001700000520000003NN  NNW 000                       N    
RDG08606500WATRL000000004K00000000000002332001509102015110743N000000000000N84       000250400K 10000000010000002320           
CUS0860650000108034406002         CARTER MICHAEL D    4104 BUCKINGHAM RD                      000N        CARE OF             
MTR08606500001000000000000000RA              41258732    005800180000001800000520000003NN  NNW 000                       N    
RDG08606500WATRL000000004K00000000000001884001609102015110839N000000000000N84       000560400K 10000000010000001861           
CUS0860650000108034407000         THOMAS JAMES F      4100 BUCKINGHAM RD                      000N        CARE OF             
MTR08606500001000000000000000RA              01074653    005800190000001900000610000003NN  NNW 000                       N    
RDG08606500WATRL000000004K00000000000001524001709102015110928N000000000000N84       000490400K 10000000010000001502           
CUS0860650000108034408008         TURNBULL DAVID C    4014 BUCKINGHAM RD                      000N        CARE OF             
MTR08606500001000000000000000RA              41258763    005800200000002000000520000003NN  NNW 000                       N    
RDG08606500WATRL000000004K00000000000001300001809102015111018N000000000000N84       000500400K 10000000010000001291           
CUS0860650000108415318008         STREET JAMES H,JR   4012 BUCKINGHAM RD                      000N        CARE OF             
MTR08606500001000000000000000RA              36699592    000100210000002100000520000000NN  NNW 000                       N    
RDG08606500WATRL000000004K00000000000006884001909102015111108N000000000000N84       000500400K 10000000010000006752           
CUS0860650000108421175004         STREET KIMBERLY A/JA4010 BUCKINGHAM RD                      000N        CARE OF             
MTR08606500001000000000000000RA              42847061    001500220000002200000520000003NN  NNW 000                       N    
RDG08606500WATRL000000005K00000000000006589002009102015111149N000000000000N84       000410500K 10000000010000006559           
CUS0860650000108034411002         CUTAIR DENISE D     4008 BUCKINGHAM RD                      000N        CARE OF             
MTR08606500001000000000000000RA              48585335    005800230000002300000520000003NN  NNW 000                       N    
RDG08606500WATRL000000004K00000000000001819002109102015111251N000000000000N84       000620400K 10000000010000001808           
CUS0860650000108034412000         POWELL WILLIAM EDWAR4000 BUCKINGHAM RD                      000N        CARE OF             
MTR08606500001000000000000000RA              26007359    005800240000002400000520000003NN  NNW 000                       N    
RDG08606500WATRL000000004K00000000000004541002209102015111507N000000000000N84       001360400K 10000000010000004513           
CUS0860650000108034413008         SILBERG EDGAR M     7302 ROCKRIDGE RD                       000N        CARE OF             
MTR08606500001000000000000000RA              40322334    005800250000002500000520000003NY  NNW 000                       N    
MTM0860650040322334    vac                                                                                                    
RDG08606500WATRL000000004K00000000000001937002309102015111551N000000000000N84       000440400K 10000000010000001937           
CUS0860650000108034414006         ATKINS PHILIP O,JR  7304 ROCKRIDGE RD                       000N        CARE OF             
MTR08606500001000000000000000RA              31936286    005800260000002600000520000003NN  NNW 000                       N    
RDG08606500WATRL000000004K00000000000002607002409102015111642N000000000000N84       000510400K 10000000010000002594           
CUS0860650000108034415003         WALLACE SANDRA E    7306 ROCKRIDGE RD                       000N        CARE OF             
MTR08606500001000000000000000RA              33082301    005800270000002700000520000003NN  NNW 000                       N    
RDG08606500WATRL000000004K00000000000004408002509102015111740N000000000000N84       000580400K 10000000010000004371           
CUS0860650000108034416001         LYLES CEDRIC L      7310 ROCKRIDGE RD                       000N        CARE OF             
MTR08606500001000000000000000RA              31580814    005800280000002800000520000003NN  NNW 000                       N    
RDG08606500WATRL000000004K00000000000001786002609102015111820N000000000000N84       000400400K 10000000010000001774           
CUS0860650000108034417009         RICE ROBERT GREGORY 7312 ROCKRIDGE RD                       000N        CARE OF             
MTR08606500001000000000000000RA              76348988    005800290000002900000350000003NN  NNW 000                       N    
RDG08606500WATRL000000004K00000000000000027002709102015111853N000000000000N84       000330400K 10000000010000000020           
CUS0860650000108034418007         KIYONNA SMITH       7314 ROCKRIDGE RD                       000N        CARE OF             
MTR08606500001000000000000000RA              41259609    005800300000003000000520000003NN  NNW 000                       N    
RDG08606500WATRL000000004K00000000000002989002809102015111934N000000000000N84       000410400K 10000000010000002978           
CUS0860650000108034419005         HOWARD KENNTH D     7316 ROCKRIDGE RD                       000N        CARE OF             
MTR08606500001000000000000000RA              41259530    005800310000003100000520000003NN  NNW 000                       N    
RDG08606500WATRL000000004K00000000000002465002909102015111936N000000000000N84       000020400K 10000000010000002416           
CUS0860650000108034420003         WERTHEIMER NATASHA K7320 ROCKRIDGE RD                       000N        CARE OF             
MTR08606500001000000000000000RA              48585538    005800320000003200000520000003NN  NNW 000                       N    
RDG08606500WATRL000000004K00000000000000861003009102015112038N000000000000N84       000620400K 10000000010000000857           
CUS0860650000108034421001         DYER DARA D         4101 BEDFORD RD                         000N        CARE OF             
MTR08606500001000000000000000RA              14929242    005800330000003300000310000003NN  NNW 000                       N    
RDG08606500WATRL000000004K00000000000000252006409102015120141N000000000000N84       001550400K 10000000010000000240           
CUS0860650000108034422009         BREWER HILDA M      4103 BEDFORD RD                         000N        CARE OF             
MTR08606500001000000000000000RA              26007356    005800340000003400000520000003NN  NNW 000                       N    
RDG08606500WATRL000000004K00000000000001575003109102015112403N000000000000N84       002050400K 10000000010000001557           
CUS0860650000108034423007         TAYLOR NETTIE B, TRU4105 BEDFORD RD                         000N        CARE OF             
MTR08606500001000000000000000RA              29402128    005800350000003500000520000003NN  NNW 000                       N    
RDG08606500WATRL000000004K00000000000002993006309102015115906N000300000010N84       009520400K 10000000010000002943           
CUS0860650000108034424005         EISENHOUR GARY R    4107 BEDFORD RD                         000N        CARE OF             
MTR08606500001000000000000000RA              26007439    005800360000003600000520000003NN  NNW 000                       N    
RDG08606500WATRL000000004K00000000000003086003509102015112803N000000000000N84       000730400K 10000000010000003075           
CUS0860650000108034425002         WOLF GEORGE CRAIG   4109 BEDFORD RD                         000N        CARE OF             
MTR08606500001000000000000000RA              75615327    005800370000003700000350000003NN  NNW 000                       N    
RDG08606500WATRL000000004K00000000000000091003609102015112817N000000000000N84       000140400K 10000000010000000083           
CUS0860650000108034426000         MACE PATRICK B      4111 BEDFORD RD                         000N        CARE OF             
MTR08606500001000000000000000RA              26007938    005800380000003800000520000003NN  NNW 000                       N    
RDG08606500WATRL000000004K00000000000003226003709102015112911N000000000000N84       000540400K 10000000010000003197           
CUS0860650000108034427008         RAMKHALAWAN IVAN    4113 BEDFORD RD                         000N        CARE OF             
MTR08606500001000000000000000RA              41258731    005800390000003900000520000003NN  NNW 000                       N    
RDG08606500WATRL000000004K00000000000002128003809102015112945N000000000000N84       000340400K 10000000010000002123           
CUS0860650000108034428006         MAKEL MICHELLE I    4115 BEDFORD RD                         000N        CARE OF             
MTR08606500001000000000000000RA              50477459    005800400000004000000520000003NN  NNW 000                       N    
RDG08606500WATRL000000004K00000000000001501004209102015113148N000400000010N84       000670400K 10000000010000001493           
CUS0860650000108034429004         HIGGINS SHELLY      4117 BEDFORD RD                         000N        CARE OF             
MTR08606500001000000000000000RA              23645429    005800410000004100000520000003NN  NNW 000                       N    
RDG08606500WATRL000000004K00000000000003906004309102015113202N000400000010N84       000140400K 10000000010000003905           
CUS0860650000108034430002         PALANISWAMY RADHAKRI4119 BEDFORD RD                         000N        CARE OF             
MTR08606500001000000000000000RA              41258739    005800420000004200000520000003NN  NNW 000                       N    
RDG08606500WATRL000000004K00000000000003754004409102015113233N000300000010N84       000310400K 10000000010000003748           
CUS0860650000108034431000         JOHNSON ANTHONY     4121 BEDFORD RD                         000N        CARE OF             
MTR08606500001000000000000000RA              41258738    005800430000004300000520000003NN  NNW 000                       N    
RDG08606500WATRL000000004K00000000000003910004509102015113236N000000000000N84       000030400K 10000000010000003896           
CUS0860650000108034432008         PETERSON MICHAEL    4123 BEDFORD RD                         000N        CARE OF             
MTR08606500001000000000000000RA              24220180    005800440000004400000520000003NN  NNW 000                       N    
RDG08606500WATRL000000004K00000000000004156004809102015113519N000000000000N84       000680400K 10000000010000004123           
CUS0860650000108034433006         JOLLY WINSTON L     4125 BEDFORD RD                         000N        CARE OF             
MTR08606500001000000000000000RA              24220693    005800450000004500000520000003NN  NNW 000                       N    
RDG08606500WATRL000000004K00000000000003928004909102015113523N000000000000N84       000040400K 10000000010000003913           
CUS0860650000108034434004         SANDERS THERESA M   4127 BEDFORD RD                         000N        CARE OF             
MTR08606500001000000000000000RA              23427392    005800460000004600000520000003NN  NNW 000                       N    
RDG08606500WATRL000000004K00000000000002897005209102015113654N000000000000N84       000230400K 10000000010000002881           
CUS0860650000108034435001         PRICE KIM A         4129 BEDFORD RD                         000N        CARE OF             
MTR08606500001000000000000000RA              99288444    005800470000004700000570000003NN  NNW 000                       N    
RDG08606500WATRL000000004K00000000000001282005309102015113722N000000000000N84       000280400K 10000000010000001267           
CUS0860650000108034436009         DESMOND C.IZQUIERDO 4131 BEDFORD RD                         000N        CARE OF             
MTR08606500001000000000000000RA              33082522    005800480000004800000520000003NN  NNW 000                       N    
RDG08606500WATRL000000004K00000000000002241005709102015113929N000000000010N84       000380400K 10000000010000002226           
CUS0860650000108400349000         MAXINE CAMPBELL     4133 BEDFORD RD                         000N        CARE OF             
MTR08606500001000000000000000RA              41259275    005800490000004900000520000003NN  NNW 000                       N    
RDG08606500WATRL000000004K00000000000003360005809102015114026N000000000000N84       000570400K 10000000010000003337           
CUS0860650000108034437007         MCLAIN MARVIN HUBERT7205 CAMPFIELD RD                       000N        CARE OF             
MTR08606500001000000000000000RA              41259528    005800500000005000000520000003NN  NNW 000                       N    
RDG08606500WATRL000000004K00000000000003288006209102015114314N000000000000N84       000410400K 10000000010000003265           
CUS0860650000108034438005         JOHNSON BEVERLY H   7203 CAMPFIELD RD                       000N        CARE OF             
MTR08606500001000000000000000RA              48583052    005800510000005100000520000003NN  NNW 000                       N    
RDG08606500WATRL000000004K00000000000002740006109102015114233N000000000000N84       000300400K 10000000010000002723           
CUS0860650000108034439003         KOGER EDWARD        7201 CAMPFIELD RD                       000N        CARE OF             
MTR08606500001000000000000000RA              48592062    005800520000005200000520000003NN  NNW 000                       N    
RDG08606500WATRL000000004K00000000000002461006009102015114203N000000000000N84       000710400K 10000000010000002412           
CUS0860650000108034440001         LEWIS MICHAEL       4130 BEDFORD RD                         000N        CARE OF             
MTR08606500001000000000000000RA              26016790    005800530000005300000520000003NN  NNW 000                       N    
RDG08606500WATRL000000004K00000000000003069005909102015114052N000000000000N84       000260400K 10000000010000003048           
CUS0860650000108034441009         ROSS SHANE          4128 BEDFORD RD                         000N        CARE OF             
MTR08606500001000000000000000RA              26016786    005800540000005400000520000003NN  NNW 000                       N    
RDG08606500WATRL000000004K00000000000001976005609102015113851N000000000000N84       000160400K 10000000010000001961           
CUS0860650000108364288004         WHITE ELLA VIRGINIA 4126-1/2 BEDFORD RD                     000N        CARE OF             
MTR08606500001000000000000000RA              75615433    005800550000005500000350000003NN  NNW 000                       N    
RDG08606500WATRL000000004K00000000000000000005509102015113835N000000000010N84       000290400K 10000000010000000003           
CUS0860650000108034442007         WHITE ELLA VIRGINIA 4126 BEDFORD RD                         000N        CARE OF             
MTR08606500001000000000000000RA              01100070    005800560000005600000610000003NY  NNW 000                       N    
MTM0860650001100070    occ                                                                                                    
RDG08606500WATRL000000004K00000000000000037005409102015113806N000000000000N84       000440400K 10000000010000000037           
CUS0860650000108034443005         BUTLER MARLENE S    4126A BEDFORD RD                        000N        CARE OF             
MTR08606500001000000000000000RA              26007350    005800570000005700000520000003NN  NNW 000                       N    
RDG08606500WATRL000000004K00000000000003409005109102015113631N000400000010N84       000490400K 10000000010000003408           
CUS0860650000108034444003         NANCY STRIFFLER     4124 BEDFORD RD                         000N        CARE OF             
MTR08606500001000000000000000RA              26007435    005800580000005800000520000003NN  NNW 000                       N    
RDG08606500WATRL000000004K00000000000003243005009102015113542N000000000000N84       000190400K 10000000010000003232           
CUS0860650000108034445000         PINDER MARGARET A   4122 BEDFORD RD                         000N        CARE OF             
MTR08606500001000000000000000RA              26007361    005800590000005900000520000003NN  NNW 000                       N    
RDG08606500WATRL000000004K00000000000004366004709102015113411N000000000000N84       000500400K 10000000010000004354           
CUS0860650000108034446008         KISER ANTHONY       4120 BEDFORD RD                         000N        CARE OF             
MTR08606500001000000000000000RA              30514430    005800600000006000000520000003NN  NNW 000                       N    
RDG08606500WATRL000000004K00000000000003238004609102015113321N000000000000N84       000450400K 10000000010000003220           
CUS0860650000108034447006         BROWN ANDRE F,JR    4118 BEDFORD RD                         000N        CARE OF             
MTR08606500001000000000000000RA              20968221    005800610000006100000520000003NN  NNW 000                       N    
RDG08606500WATRL000000004K00000000000006669004109102015113041N000400000010N84       000270400K 10000000010000006657           
CUS0860650000108034448004         INTERVALS RESIDENTIA4116 BEDFORD RD                         000N        CARE OF             
MTR08606500001000000000000000RA              41258729    005800620000006200000520000003NN  NNW 000                       N    
RDG08606500WATRL000000004K00000000000003591004009102015113014N000000000000N84       000170400K 10000000010000003554           
CUS0860650000108034449002         SYDNOR WILLIAM H,SR 4112 BEDFORD RD                         000N        CARE OF             
MTR08606500001000000000000000RA              27827323    005800630000006300000520000003NN  NNW 000                       N    
RDG08606500WATRL000000004K00000000000007189003909102015112957N000000000000N84       000120400K 10000000010000007176           
CUS0860650000108034450000         THOMPSON RODNEY WILL4110 BEDFORD RD                         000N        CARE OF             
MTR08606500001000000000000000RA              29402120    005800640000006400000520000003NN  NNW 000                       N    
RDG08606500WATRL000000004K00000000000002529003409102015112650N000000000000N84       000160400K 10000000010000002496           
CUS0860650000108034451008         ROSE DRANNIN B      4108 BEDFORD RD                         000N        CARE OF             
MTR08606500001000000000000000RA              36696991    005800650000006500000520000003NN  NNW 000                       N    
RDG08606500WATRL000000004K00000000000003782003309102015112634N000000000000N84       000070400K 10000000010000003753           
CUS0860650000108034452006         CHAPPELLE RITA      4100 BEDFORD RD                         000N        CARE OF             
MTR08606500001000000000000000RA              99291316    005800660000006600000570000003NY  NNW 000                       N    
MTM0860650099291316    vac                                                                                                    
RDG08606500WATRL000000004K00000000000001996003209102015112627N000000000000N84       001440400K 10000000010000001996           
CUS0860650000108034453004         JOPPY SHAWN         7330 ROCKRIDGE RD                       000N        CARE OF             
MTR08606500001000000000000000RA              99187674    005800670000006700000570000003NN  NNW 000                       N    
RDG08606500WATRL000000004K00000000000002998006709102015121422N000000000020N84       000220400K 10000000010000002983           
CUS0860650000108034454002         BRIAN W ARNOLD      7332 ROCKRIDGE RD                       000N        CARE OF             
MTR08606500001000000000000000RA              99187128    005800680000006800000570000003NN  NNW 000                       N    
RDG08606500WATRL000000004K00000000000000912006809102015121428N000000000000N84       000060400K 10000000010000000902           
CUS0860650000108034455009         KIM WALLER          7334 ROCKRIDGE RD                       000N        CARE OF             
MTR08606500001000000000000000RA              26016865    005800690000006900000520000003NN  NNW 000                       N    
RDG08606500WATRL000000004K00000000000003002006909102015121438N000000000020N84       000100400K 10000000010000002987           
CUS0860650000108034456007         SPEARS WANDA        4101 RALEIGH RD                         000N        CARE OF             
MTR08606500001000000000000000RA              01084042    005800700000007000000610000003NN  NNW 000                       N    
RDG08606500WATRL000000004K00000000000000558007009102015121448N000000000010N84       000100400K 10000000010000000548           
CUS0860650000108034457005         BANK OF AMERICA     4105 RALEIGH RD                         000N        CARE OF             
MTR08606500001000000000000000RA              01084775    005800710000007100000610000003NY  NNW 000                       N    
MTM0860650001084775    occ                                                                                                    
RDG08606500WATRL000000004K00000000000000888007109102015121452N000000000000N84       000040400K 10000000010000000888           
CUS0860650000108034458003         HARRIS SHELI E      4107 RALEIGH RD                         000N        CARE OF             
MTR08606500001000000000000000RA              01084897    005800720000007200000610000003NN  NNW 000                       N    
RDG08606500WATRL000000004K00000000000001822007209102015121536N000000000040N84       000440400K 10000000010000001802           
CUS0860650000108034459001         BEVE CARL-ERIC      4109 RALEIGH RD                         000N        CARE OF             
MTR08606500001000000000000000RA              01084891    005800730000007300000610000003NN  NNW 000                       N    
RDG08606500WATRL000000004K00000000000000496007309102015121541N000000000000N84       000050400K 10000000010000000486           
CUS0860650000108034460009         HAMLIN ARTHUR EARL  4111 RALEIGH RD                         000N        CARE OF             
MTR08606500001000000000000000RA              36689040    005800740000007400000520000003NN  NNW 000                       N    
RDG08606500WATRL000000004K00000000000003853007409102015121804N000000000040N84       001430400K 10000000010000003833           
