FHDNNNN028003829003829003829N                                                                                           011701
RHD08607400NN01130113000001130000000001130113000165NY011301130113000000000000000000000000000002    08242015NY020000 N         
CUS0860740000108439891006         HARRY S BROWN, 3RD  4101 BROOKSIDE OAKS RD                  000N        CARE OF             
MTR08607400001000000000000000RA              14914625    005800010000000100000310000003NN  NNW 000                       N    
RDG08607400WATRL000000004K00000000000002406000109102015111218N000000000000U85       000000400K 10000000010000002308           
CUS0860740000108439894000         HOGAN JONATHAN SCOTT4103 BROOKSIDE OAKS RD                  000N        CARE OF             
MTR08607400001000000000000000RA              10019204    005800020000000200000570000003NN  NNW 000                       N    
RDG08607400WATRL000000004K00000000000000344000209102015111317N000000000000U85       000590400K 10000000010000000326           
CUS0860740000108439896005         NTIEGE EMILE        4105 BROOKSIDE OAKS RD                  000N        CARE OF             
MTR08607400001000000000000000RA              14929436    005800030000000300000310000003NN  NNW 000                       N    
RDG08607400WATRL000000004K00000000000001299000309102015111341N000000000000U85       000240400K 10000000010000001214           
CUS0860740000108439897003         LANSEY JOSEPH LINCOL4107 BROOKSIDE OAKS RD                  000N        CARE OF             
MTR08607400001000000000000000RA              14929434    005800040000000400000310000003NN  NNW 000                       N    
RDG08607400WATRL000000004K00000000000000886000409102015111431N000000000000U85       000500400K 10000000010000000862           
CUS0860740000106439835007         HOWARD HUGH C,JR    9111 AMBER OAKS WAY                     000N        CARE OF             
MTR08607400001000000000000000RA              14925560    005800050000000500000310000003NN  NNW 000                       N    
RDG08607400WATRL000000004K00000000000001246000109092015121805N000000000000N85       000000400K 10000000010000001182           
CUS0860740000108439834006         WYCHE NORMAN R,JR   9109 AMBER OAKS WAY                     000N        CARE OF             
MTR08607400001000000000000000RA              14923764    005800060000000600000310000003NN  NNW 000                       N    
RDG08607400WATRL000000004K00000000000001470000209092015121851N000000000000N85       000460400K 10000000010000001417           
CUS0860740000108439787006         GEORGE TESSA S      9108 AMBER OAKS WAY                     000N        CARE OF             
MTR08607400001000000000000000RA              14921639    005800070000000700000310000003NN  NNW 000                       N    
RDG08607400WATRL000000004K00000000000000824000309092015121923N000000000000N85       000320400K 10000000010000000799           
CUS0860740000108439832000         BRYANT PATRICIA E   9110 AMBER OAKS WAY                     000N        CARE OF             
MTR08607400001000000000000000RA              14918880    005800080000000800000310000003NN  NNW 000                       N    
RDG08607400WATRL000000004K00000000000001424000409092015122007N000000000000N85       000440400K 10000000010000001387           
CUS0860740000108439833008         WALKER ELBERT       9112 AMBER OAKS WAY                     000N        CARE OF             
MTR08607400001000000000000000RA              14921642    005800090000000900000310000003NN  NNW 000                       N    
RDG08607400WATRL000000004K00000000000001273000509092015122036N000000000000N85       000290400K 10000000010000001216           
CUS0860740000108439900005         JACKSON DESMOND D   4113 BROOKSIDE OAKS RD                  000N        CARE OF             
MTR08607400001000000000000000RA              14929652    005800100000001000000310000003NN  NNW 000                       N    
RDG08607400WATRL000000004K00000000000001206000509102015111513N000000000000U85       000420400K 10000000010000001186           
CUS0860740000108439906002         ADEOLA OMOLARA      4117 BROOKSIDE OAKS RD                  000N        CARE OF             
MTR08607400001000000000000000RA              14914624    005800110000001100000310000003NN  NNW 000                       N    
RDG08607400WATRL000000004K00000000000000826000609102015111731N000000000000U85       001380400K 10000000010000000802           
CUS0860740000108439908008         HAROLD TAMAYO       4119 BROOKSIDE OAKS RD                  000N        CARE OF             
MTR08607400001000000000000000RA              14914606    005800120000001200000310000003NN  NNW 000                       N    
RDG08607400WATRL000000004K00000000000001377000709102015111813N000000000000U85       000420400K 10000000010000001340           
CUS0860740000108439917009         FOFANAH ABUBAKAR S  4123 BROOKSIDE OAKS RD                  000N        CARE OF             
MTR08607400001000000000000000RA              14917749    005800130000001300000310000003NN  NNW 000                       N    
RDG08607400WATRL000000004K00000000000000460000809102015111909N000000000000U85       000560400K 10000000010000000442           
CUS0860740000108439919005         SHAIKH WAQQAR H  SHA4125 BROOKSIDE OAKS RD                  000N        CARE OF             
MTR08607400001000000000000000RA              14914656    005800140000001400000310000003NN  NNW 000                       N    
RDG08607400WATRL000000004K00000000000002277000909102015111945N000000000000U85       000360400K 10000000010000002183           
CUS0860740000108439922009         SEHI WALI           4129 BROOKSIDE OAKS RD                  000N        CARE OF             
MTR08607400001000000000000000RA              14915498    005800150000001500000310000003NN  NNW 000                       N    
RDG08607400WATRL000000004K00000000000002337001009102015112237N000000000000U85       001720400K 10000000010000002283           
CUS0860740000108439923007         MARABLE CASSANDRA   4131 BROOKSIDE OAKS RD                  000N        CARE OF             
MTR08607400001000000000000000RA              14915499    005800160000001600000310000003NN  NNW 000                       N    
RDG08607400WATRL000000004K00000000000000722001109102015112304N000000000000U85       000270400K 10000000010000000689           
CUS0860740000108439924005         ANUFORO JOHN        4135 BROOKSIDE OAKS RD                  000N        CARE OF             
MTR08607400001000000000000000RA              14915496    005800170000001700000310000003NN  NNW 000                       N    
RDG08607400WATRL000000004K00000000000001309001209102015112418N000000000000U85       000740400K 10000000010000001246           
CUS0860740000108439925002         HATTON MANATHIUS    4137 BROOKSIDE OAKS RD                  000N        CARE OF             
MTR08607400001000000000000000RA              14919950    005800180000001800000310000003NN  NNW 000                       N    
RDG08607400WATRL000000004K00000000000000709001309102015112509N000000000000U85       000510400K 10000000010000000668           
CUS0860740000108439927008         WILLIAMS ANTWAN A   4201 BROOKSIDE OAKS RD                  000N        CARE OF             
MTR08607400001000000000000000RA              14915787    005800190000001900000310000003NN  NNW 000                       N    
RDG08607400WATRL000000004K00000000000001419001409102015113234N000000000000U85       004450400K 10000000010000001377           
CUS0860740000108439929004         SMITH LESLIE        4203 BROOKSIDE OAKS RD                  000N        CARE OF             
MTR08607400001000000000000000RA              14918989    005800200000002000000310000003NN  NNW 000                       N    
RDG08607400WATRL000000004K00000000000000447001509102015113311N000000000000U85       000370400K 10000000010000000433           
CUS0860740000108439788004         ALLAN HILL JR       4205 BROOKSIDE OAKS RD                  000N        CARE OF             
MTR08607400001000000000000000RA              14917828    005800210000002100000310000003NN  NNW 000                       N    
RDG08607400WATRL000000004K00000000000000818001609102015113431N000000000000U85       000800400K 10000000010000000801           
CUS0860740000108439790000         GREEN EDWARD D  GREE4207 BROOKSIDE OAKS RD                  000N        CARE OF             
MTR08607400001000000000000000RA              14917822    005800220000002200000310000003NN  NNW 000                       N    
RDG08607400WATRL000000004K00000000000001516001709102015113502N000000000000U85       000310400K 10000000010000001482           
CUS0860740000108439794002         GARY V WILLIAMS     4211 BROOKSIDE OAKS RD                  000N        CARE OF             
MTR08607400001000000000000000RA              14916115    005800230000002300000310000003NN  NNW 000                       N    
RDG08607400WATRL000000004K00000000000000842001909102015113626N000000000000U85       000520400K 10000000010000000807           
CUS0860740000108439792006         ANGELA ANDERSON     4209 BROOKSIDE OAKS RD                  000N        CARE OF             
MTR08607400001000000000000000RA              14917756    005800240000002400000310000003NN  NNW 000                       N    
RDG08607400WATRL000000004K00000000000000496001809102015113534N000000000000U85       000320400K 10000000010000000485           
CUS0860740000108439797005         NOEL JASON          4215 BROOKSIDE OAKS RD                  000N        CARE OF             
MTR08607400001000000000000000RA              14917426    005800250000002500000310000003NN  NNW 000                       N    
RDG08607400WATRL000000004K00000000000000548002009102015113730N000000000000U85       000640400K 10000000010000000529           
CUS0860740000108439800007         WRIGHT TRINA L      4219 BROOKSIDE OAKS RD                  000N        CARE OF             
MTR08607400001000000000000000RA              14917844    005800260000002600000310000003NN  NNW 000                       N    
RDG08607400WATRL000000004K00000000000001759002109102015113903N000000000000U85       000930400K 10000000010000001698           
CUS0860740000108439802003         RICE SHANEE MONROE  4221 BROOKSIDE OAKS RD                  000N        CARE OF             
MTR08607400001000000000000000RA              14918979    005800270000002700000570000003NN  NNW 000                       N    
RDG08607400WATRL000000004K00000000000001609002209102015114052N000000000010U85       001090400K 10000000010000001500           
CUS0860740000108439804009         LECONTE C STOVER    4223 BROOKSIDE OAKS RD                  000N        CARE OF             
MTR08607400001000000000000000RA              14919389    005800280000002800000310000003NN  NNW 000                       N    
RDG08607400WATRL000000004K00000000000000823002509152015095158N000000000010U20       000600400K 10000000010000000807           
CUS0860740000108439806004         DARRON D. MCKINNEY  4225 BROOKSIDE OAKS RD                  000N        CARE OF             
MTR08607400001000000000000000RA              14919392    005800290000002900000310000003NN  NNW 000                       N    
RDG08607400WATRL000000004K00000000000000839002609152015095225N000000000000U20       000270400K 10000000010000000807           
CUS0860740000108439808000         KERUBO HAPPINESS KIN4227 BROOKSIDE OAKS RD                  000N        CARE OF             
MTR08607400001000000000000000RA              14919390    005800300000003000000310000003NN  NNW 000                       N    
RDG08607400WATRL000000004K00000000000001282002909152015095432N000000000000U20       000520400K 10000000010000001210           
CUS0860740000108439810006         BAILEY ALLEN W,JR   4229 BROOKSIDE OAKS RD                  000N        CARE OF             
MTR08607400001000000000000000RA              14919034    005800310000003100000310000003NN  NNW 000                       N    
RDG08607400WATRL000000004K00000000000001242003109152015095640N000000000000U20       000780400K 10000000010000001212           
CUS0860740000108439839005         GIPSON QUINTON A    9102 SHIRE OAKS RD                      000N        CARE OF             
MTR08607400001000000000000000RA              14919030    005800320000003200000310000003NN  NNW 000                       N    
RDG08607400WATRL000000004K00000000000000769003409152015100009N000000000000U20       001330400K 10000000010000000752           
CUS0860740000108439783005         IWEHA ENYINNAYA B   9108 SHIRE OAKS RD                      000N        CARE OF             
MTR08607400001000000000000000RA              14923439    005800330000003300000310000003NN  NNW 000                       N    
RDG08607400WATRL000000004K00000000000000950003509152015100130N000000000000U20       000810400K 10000000010000000905           
CUS0860740000108439786008         MAURICE C SHORT     9109 SHIRE OAKS RD                      000N        CARE OF             
MTR08607400001000000000000000RA              14919297    005800340000003400000310000003NN  NNW 000                       N    
RDG08607400WATRL000000004K00000000000000737003609152015100150N000000000000U20       000200400K 10000000010000000714           
CUS0860740000108439785000         KING MARY S         9107 SHIRE OAKS RD                      000N        CARE OF             
MTR08607400001000000000000000RA              10004529    005800350000003500000570000003NN  NNW 000                       N    
RDG08607400WATRL000000004K00000000000001368003709152015100222N000000000010U20       000320400K 10000000010000001368           
CUS0860740000108439784003         HARRIS PATRICK      9103 SHIRE OAKS RD                      000N        CARE OF             
MTR08607400001000000000000000RA              14918142    005800360000003600000310000003NN  NNW 000                       N    
RDG08607400WATRL000000004K00000000000001008003809152015100343N000000000000U20       000810400K 10000000010000001006           
CUS0860740000108439765002         ALLEN LILLIAN       4301 BROOKSIDE OAKS RD                  000N        CARE OF             
MTR08607400001000000000000000RA              14918150    005800370000003700000310000003NN  NNW 000                       N    
RDG08607400WATRL000000004K00000000000000281003909152015100458N000000000010U20       000750400K 10000000010000000276           
CUS0860740000108439782007         LANCASTER LENARD    4303 BROOKSIDE OAKS RD                  000N        CARE OF             
MTR08607400001000000000000000RA              14923863    005800380000003800000310000003NN  NNW 000                       N    
RDG08607400WATRL000000004K00000000000000988004209152015100703N000000000000U20       000460400K 10000000010000000953           
CUS0860740000108439768006         FRIEND ANTOINE      4305 BROOKSIDE OAKS RD                  000N        CARE OF             
MTR08607400001000000000000000RA              14919017    005800390000003900000440000003NN  NNW 000                       N    
RDG08607400WATRL000000004K00000000000000833004309152015100747N000000000000U20       000440400K 10000000010000000812           
CUS0860740000108439771000         HILL ARETHA B       4309 BROOKSIDE OAKS RD                  000N        CARE OF             
MTR08607400001000000000000000RA              14918145    005800400000004000000310000003NN  NNW 000                       N    
RDG08607400WATRL000000004K00000000000000784004809152015101215N000000000000U20       000790400K 10000000010000000765           
CUS0860740000108439773006         EYEGUOKAN DORIS M   4311 BROOKSIDE OAKS RD                  000N        CARE OF             
MTR08607400001000000000000000RA              14919032    005800410000004100000310000003NN  NNW 000                       N    
RDG08607400WATRL000000004K00000000000001412004909152015101241N000000000000U20       000260400K 10000000010000001374           
CUS0860740000108439775001         MORANT JOHN D,JR    4313 BROOKSIDE OAKS RD                  000N        CARE OF             
MTR08607400001000000000000000RA              14918990    005800420000004200000310000003NN  NNW 000                       N    
RDG08607400WATRL000000004K00000000000001468005209152015101426N000300000010U20       000390400K 10000000010000001435           
CUS0860740000108439777007         DAVIS MINNIE A      4315 BROOKSIDE OAKS RD                  000N        CARE OF             
MTR08607400001000000000000000RA              14918992    005800430000004300000310000003NN  NNW 000                       N    
RDG08607400WATRL000000004K00000000000000661005309152015101519N000300000030U20       000530400K 10000000010000000521           
CUS0860740000108439781009         RAYMOND HARRIS      4322 BROOKSIDE OAKS RD                  000N        CARE OF             
MTR08607400001000000000000000RA              14926796    005800440000004400000310000003NN  NNW 000                       N    
RDG08607400WATRL000000004K00000000000000397005409152015101559N000000000000U20       000400400K 10000000010000000390           
CUS0860740000108439780001         WILLIAMS GBENGA M   4320 BROOKSIDE OAKS RD                  000N        CARE OF             
MTR08607400001000000000000000RA              14921109    005800450000004500000310000003NN  NNW 000                       N    
RDG08607400WATRL000000004K00000000000001217005109152015101347N000400000010U20       000370400K 10000000010000001207           
CUS0860740000108439779003         ADAMS TIMOTHY       4318 BROOKSIDE OAKS RD                  000N        CARE OF             
MTR08607400001000000000000000RA              14919026    005800460000004600000310000003NN  NNW 000                       N    
RDG08607400WATRL000000004K00000000000000598005009152015101310N000000000000U20       000290400K 10000000010000000579           
CUS0860740000108439778005         BREWER CHARLOTTE    4316 BROOKSIDE OAKS RD                  000N        CARE OF             
MTR08607400001000000000000000RA              14917747    005800470000004700000310000003NN  NNW 000                       N    
RDG08607400WATRL000000004K00000000000000806004709152015101056N000000000000U20       000530400K 10000000010000000786           
CUS0860740000108439776009         JONES RYAN          4314 BROOKSIDE OAKS RD                  000N        CARE OF             
MTR08607400001000000000000000RA              14918147    005800480000004800000310000003NN  NNW 000                       N    
RDG08607400WATRL000000004K00000000000000944004609152015101003N000000000000U20       000580400K 10000000010000000894           
CUS0860740000108439774004         POWELL KENNETH,SR   4312 BROOKSIDE OAKS RD                  000N        CARE OF             
MTR08607400001000000000000000RA              77883478    005800490000004900000360000003NN  NNW 000                       N    
RDG08607400WATRL000000004K00000000000000000000109152015083646N000000000000U20       000000400K 10000000010000000000           
CUS0860740000108439772008         ALLEN SHAWN         4310 BROOKSIDE OAKS RD                  000N        CARE OF             
MTR08607400001000000000000000RA              14918148    005800500000005000000310000003NN  NNW 000                       N    
RDG08607400WATRL000000004K00000000000001101004509152015100905N000000000000U20       000380400K 10000000010000001070           
CUS0860740000108439770002         DAVIS ANTHONY J     4308 BROOKSIDE OAKS RD                  000N        CARE OF             
MTR08607400001000000000000000RA              14918149    005800510000005100000310000003NN  NNW 000                       N    
RDG08607400WATRL000000004K00000000000001374004409152015100827N000000000000U20       000400400K 10000000010000001316           
CUS0860740000108439769004         MBAH NDUBUISI       4306 BROOKSIDE OAKS RD                  000N        CARE OF             
MTR08607400001000000000000000RA              14921105    005800520000005200000310000003NN  NNW 000                       N    
RDG08607400WATRL000000004K00000000000001232004109152015100617N000000000000U20       000370400K 10000000010000001191           
CUS0860740000108439767008         CARR LEON,3RD       4304 BROOKSIDE OAKS RD                  000N        CARE OF             
MTR08607400001000000000000000RA              14918152    005800530000005300000310000003NN  NNW 000                       N    
RDG08607400WATRL000000004K00000000000001046004009152015100540N000000000000U20       000420400K 10000000010000000995           
CUS0860740000108439766000         BRONSON STEFANIE A  4302 BROOKSIDE OAKS RD                  000N        CARE OF             
MTR08607400001000000000000000RA              14921945    005800540000005400000440000003NN  NNW 000                       N    
RDG08607400WATRL000000004K00000000000000303003309152015095756N000000000000U20       000320400K 10000000010000000282           
CUS0860740000108439764005         WILSON MICHEAL L    4300 BROOKSIDE OAKS RD                  000N        CARE OF             
MTR08607400001000000000000000RA              14919018    005800550000005500000310000003NN  NNW 000                       N    
RDG08607400WATRL000000004K00000000000000935003209152015095724N000000000000U20       000440400K 10000000010000000909           
CUS0860740000108441048009         SMITH TRAIG J       4238 BROOKSIDE OAKS RD                  000N        CARE OF             
MTR08607400001000000000000000RA              14919033    005800560000005600000310000003NN  NNW 000                       N    
RDG08607400WATRL000000004K00000000000000807003009152015095522N000000000000U20       000500400K 10000000010000000779           
CUS0860740000108439814008         RANSOM CORNELIUS,JR 4236 BROOKSIDE OAKS RD                  000N        CARE OF             
MTR08607400001000000000000000RA              14923670    005800570000005700000310000003NN  NNW 000                       N    
RDG08607400WATRL000000004K00000000000000959002809152015095340N000000000000U20       000380400K 10000000010000000924           
CUS0860740000108439813000         KEITA AISSATA       4234 BROOKSIDE OAKS RD                  000N        CARE OF             
MTR08607400001000000000000000RA              14923667    005800580000005800000310000003NN  NNW 000                       N    
RDG08607400WATRL000000004K00000000000001087002709152015095302N000000000000U20       000370400K 10000000010000001049           
CUS0860740000108439812002         CUMMINGS CHRISTOPHER4232 BROOKSIDE OAKS RD                  000N        CARE OF             
MTR08607400001000000000000000RA              14923668    005800590000005900000310000003NN  NNW 000                       N    
RDG08607400WATRL000000004K00000000000000775002409152015095058N000000000000U20       000260400K 10000000010000000738           
CUS0860740000108439811004         MCINTYRE TINA O     4230 BROOKSIDE OAKS RD                  000N        CARE OF             
MTR08607400001000000000000000RA              14920699    005800600000006000000310000003NN  NNW 000                       N    
RDG08607400WATRL000000004K00000000000001262002309152015095032N000000000000U20       000290400K 10000000010000001193           
CUS0860740000108439809008         CHARLIE ABLES       4228 BROOKSIDE OAKS RD                  000N        CARE OF             
MTR08607400001000000000000000RA              10024530    005800610000006100000570000003NN  NNW 000                       N    
RDG08607400WATRL000000004K00000000000000187002209152015095003N000000000000U20       000270400K 10000000010000000159           
CUS0860740000108439807002         BAMIGBADE FOLAKE    4226 BROOKSIDE OAKS RD                  000N        CARE OF             
MTR08607400001000000000000000RA              14918879    005800620000006200000310000003NN  NNW 000                       N    
RDG08607400WATRL000000004K00000000000001780002109152015094936N000000000000U20       000360400K 10000000010000001578           
CUS0860740000108439805006         SCARBOROUGH DARLENE 4224 BROOKSIDE OAKS RD                  000N        CARE OF             
MTR08607400001000000000000000RA              14919023    005800630000006300000310000003NN  NNW 000                       N    
RDG08607400WATRL000000004K00000000000001162002009152015094900N000000000000U20       000480400K 10000000010000001102           
CUS0860740000108439803001         PORTER-HOLMES OREN E4222 BROOKSIDE OAKS RD                  000N        CARE OF             
MTR08607400001000000000000000RA              14917843    005800640000006400000310000003NN  NNW 000                       N    
RDG08607400WATRL000000004K00000000000000609001909152015094812N000000000000U20       000760400K 10000000010000000528           
CUS0860740000108439801005         RAVULAPALLI RAJ     4220 BROOKSIDE OAKS RD                  000N        CARE OF             
MTR08607400001000000000000000RA              14916084    005800650000006500000310000003NN  NNW 000                       N    
RDG08607400WATRL000000004K00000000000000857001809152015094656N000000000000U20       000420400K 10000000010000000829           
CUS0860740000108439799001         BRENT J HOPKINS     4218 BROOKSIDE OAKS RD                  000N        CARE OF             
MTR08607400001000000000000000RA              14915873    005800660000006600000310000003NN  NNW 000                       N    
RDG08607400WATRL000000004K00000000000000743001709152015094614N000000000000U20       000280400K 10000000010000000732           
CUS0860740000108439798003         BRUAN RAUL          4216 BROOKSIDE OAKS RD                  000N        CARE OF             
MTR08607400001000000000000000RA              14915879    005800670000006700000310000003NN  NNW 000                       N    
RDG08607400WATRL000000004K00000000000000874001609152015094546N000000000000U20       000340400K 10000000010000000847           
CUS0860740000108439796007         BANK OF AMERICA     4214 BROOKSIDE OAKS RD                  000N        CARE OF             
MTR08607400001000000000000000RA              14922278    005800680000006800000310000003NN  NNW 000                       N    
RDG08607400WATRL000000004K00000000000000711001509152015094512N000000000000U20       000370400K 10000000010000000661           
CUS0860740000108439795009         ADEYIGA OLUSOLA R   4212 BROOKSIDE OAKS RD                  000N        CARE OF             
MTR08607400001000000000000000RA              14922279    005800690000006900000570000003NN  NNW 000                       N    
RDG08607400WATRL000000004K00000000000000552001409152015094435N000000000000U20       000280400K 10000000010000000527           
CUS0860740000108439793004         MATHIS TIFFANY      4210 BROOKSIDE OAKS RD                  000N        CARE OF             
MTR08607400001000000000000000RA              14922888    005800700000007000000310000003NN  NNW 000                       N    
RDG08607400WATRL000000004K00000000000000389001309152015094407N000000000000U20       000630400K 10000000010000000373           
CUS0860740000108439791008         DAVENPORT JOHN E    4208 BROOKSIDE OAKS RD                  000N        CARE OF             
MTR08607400001000000000000000RA              14923767    005800710000007100000310000003NN  NNW 000                       N    
RDG08607400WATRL000000004K00000000000001165001209152015094304N000000000000U20       000470400K 10000000010000001112           
CUS0860740000108439789002         WARNER MICHELLE D   4206 BROOKSIDE OAKS RD                  000N        CARE OF             
MTR08607400001000000000000000RA              14922606    005800720000007200000570000003NN  NNW 000                       N    
RDG08607400WATRL000000004K00000000000000388001109152015094217N000000000000U20       000400400K 10000000010000000372           
CUS0860740000108439930002         MALIK AMIR R        4204 BROOKSIDE OAKS RD                  000N        CARE OF             
MTR08607400001000000000000000RA              14916478    005800730000007300000310000003NN  NNW 000                       N    
RDG08607400WATRL000000004K00000000000001916001009152015094137N000000000000U20       000450400K 10000000010000001862           
CUS0860740000108439928006         TAYLOR CANDRA       4202 BROOKSIDE OAKS RD                  000N        CARE OF             
MTR08607400001000000000000000RA              14917845    005800740000007400000570000003NN  NNW 000                       N    
RDG08607400WATRL000000004K00000000000000709000909152015094052N000000000000U20       000380400K 10000000010000000678           
CUS0860740000108439926000         KWENDE JANET A      4200 BROOKSIDE OAKS RD                  000N        CARE OF             
MTR08607400001000000000000000RA              14924360    005800750000007500000310000003NN  NNW 000                       N    
RDG08607400WATRL000000004K00000000000000441000809152015094014N000000000000U20       000600400K 10000000010000000416           
CUS0860740000108439921001         NWAFOR KINGSLEY E   4128 BROOKSIDE OAKS RD                  000N        CARE OF             
MTR08607400001000000000000000RA              14929435    005800760000007600000310000003NN  NNW 000                       N    
RDG08607400WATRL000000004K00000000000001033000709152015093914N000000000000U20       000370400K 10000000010000000994           
CUS0860740000108439920003         THOMAS FOLAKE R     4126 BROOKSIDE OAKS RD                  000N        CARE OF             
MTR08607400001000000000000000RA              14916107    005800770000007700000310000003NN  NNW 000                       N    
RDG08607400WATRL000000004K00000000000000958000609152015093837N000000000000U20       000520400K 10000000010000000930           
CUS0860740000108439918007         KING-BAKER LISA Y   4124 BROOKSIDE OAKS RD                  000N        CARE OF             
MTR08607400001000000000000000RA              14919795    005800780000007800000310000003NN  NNW 000                       N    
RDG08607400WATRL000000004K00000000000001141000509152015093745N000000000010U20       000460400K 10000000010000001070           
CUS0860740000108439910004         EKAMKI BLESSING B   4122 BROOKSIDE OAKS RD                  000N        CARE OF             
MTR08607400001000000000000000RA              14915495    005800790000007900000310000003NN  NNW 000                       N    
RDG08607400WATRL000000004K00000000000000832000409152015093659N000000000000U20       000320400K 10000000010000000816           
CUS0860740000108439909006         GEORGINA D AYE      4120 BROOKSIDE OAKS RD                  000N        CARE OF             
MTR08607400001000000000000000RA              14914653    005800800000008000000310000003NN  NNW 000                       N    
RDG08607400WATRL000000004K00000000000000801000309152015093627N000000000000U20       000410400K 10000000010000000785           
CUS0860740000108439907000         HARRIS, CHRISTOPHER 4118 BROOKSIDE OAKS RD                  000N        CARE OF             
MTR08607400001000000000000000RA              10009459    005800810000008100000570000003NN  NNW 000                       N    
RDG08607400WATRL000000004K00000000000000831000209152015093546N000000000000U20       035400400K 10000000010000000809           
CUS0860740000108439905004         BROWN KENYA N       4116 BROOKSIDE OAKS RD                  000N        CARE OF             
MTR08607400001000000000000000RA              14921107    005800820000008200000310000003NN  NNW 000                       N    
RDG08607400WATRL000000004K00000000000001812005609152015102244N000000000000U20       000350400K 10000000010000001812           
CUS0860740000108439901003         WILLIAMS-FAULKNER AN4114 BROOKSIDE OAKS RD                  000N        CARE OF             
MTR08607400001000000000000000RA              14919989    005800830000008300000310000003NN  NNW 000                       N    
RDG08607400WATRL000000004K00000000000000695005509152015102209N000000000000U20       003700400K 10000000010000000678           
CUS0860740000108439899009         MARTIN MELISHA MARIE4110 BROOKSIDE OAKS RD                  000N        CARE OF             
MTR08607400001000000000000000RA              14919952    005800840000008400000310000003NN  NNW 000                       N    
RDG08607400WATRL000000004K00000000000001327005709152015102357N000000000000U20       000730400K 10000000010000001287           
CUS0860740000108439898001         WHITE LAVERNE A     4108 BROOKSIDE OAKS RD                  000N        CARE OF             
MTR08607400001000000000000000RA              14914630    005800850000008500000310000003NN  NNW 000                       N    
RDG08607400WATRL000000004K00000000000002219005809152015102525N000400000010U20       000880400K 10000000010000002208           
CUS0860740000108441325001         MENDEZ-TELLEZ FRANCI9202 AMBER OAKS WAY                     000N        CARE OF             
MTR08607400001000000000000000RA              14924358    005800860000008600000310000003NN  NNW 000                       N    
RDG08607400WATRL000000004K00000000000000423006109152015102827N000000000000U20       000530400K 10000000010000000407           
CUS0860740000108441327007         MAYERS IAN P        9204 AMBER OAKS WAY                     000N        CARE OF             
MTR08607400001000000000000000RA              14924361    005800870000008700000310000003NN  NNW 000                       N    
RDG08607400WATRL000000004K00000000000000509006209152015102903N000000000000U20       000360400K 10000000010000000488           
CUS0860740000108441328005         ALANNA WATSON       9206 AMBER OAKS WAY                     000N        CARE OF             
MTR08607400001000000000000000RA              99999999    005800880000008800000440000003NN  NNW 000                       N    
RDG08607400WATRL000000004K00000000000001192006309152015102934N000000000000U20       000310400K 10000000010000001151           
CUS0860740000108441330001         MILLS TAWANDA A     9208 AMBER OAKS WAY                     000N        CARE OF             
MTR08607400001000000000000000RA              14924853    005800890000008900000310000003NN  NNW 000                       N    
RDG08607400WATRL000000004K00000000000000351006409152015103006N000000000000U20       000320400K 10000000010000000343           
CUS0860740000108441331009         BOONE KARL          9210 AMBER OAKS WAY                     000N        CARE OF             
MTR08607400001000000000000000RA              14921640    005800900000009000000310000003NN  NNW 000                       N    
RDG08607400WATRL000000004K00000000000000801006509152015103036N000000000000U20       000300400K 10000000010000000779           
CUS0860740000108441333005         WHITE CHARLES       9212 AMBER OAKS WAY                     000N        CARE OF             
MTR08607400001000000000000000RA              14924556    005800910000009100000310000003NN  NNW 000                       N    
RDG08607400WATRL000000004K00000000000000688006609152015103104N000000000000U20       000280400K 10000000010000000658           
CUS0860740000108441335000         RODRIGUEZ HAROLD    9214 AMBER OAKS WAY                     000N        CARE OF             
MTR08607400001000000000000000RA              14924859    005800920000009200000310000003NN  NNW 000                       N    
RDG08607400WATRL000000004K00000000000000737006709152015103310N000000000000U20       001260400K 10000000010000000701           
CUS0860740000108441337006         ACKERMAN KENNETH    9218 AMBER OAKS WAY                     000N        CARE OF             
MTR08607400001000000000000000RA              14925373    005800930000009300000310000003NN  NNW 000                       N    
RDG08607400WATRL000000004K00000000000000812006809152015103432N000000000000U20       000820400K 10000000010000000787           
CUS0860740000108441338004         WASHINGTON JONES    9220 AMBER OAKS WAY                     000N        CARE OF             
MTR08607400001000000000000000RA              14921950    005800940000009400000310000003NN  NNW 000                       N    
RDG08607400WATRL000000004K00000000000001214006909152015103507N000000000000U20       000350400K 10000000010000001197           
CUS0860740000108441339002         ELIAS EUGENE ODEL,JR9222 AMBER OAKS WAY                     000N        CARE OF             
MTR08607400001000000000000000RA              14929938    005800950000009500000310000003NN  NNW 000                       N    
RDG08607400WATRL000000004K00000000000000984007009152015103541N000000000000U20       000340400K 10000000010000000948           
CUS0860740000108441340000         NGUYEN VUONG  NGUYEN9224 AMBER OAKS WAY                     000N        CARE OF             
MTR08607400001000000000000000RA              10000374    005800960000009600000570000003NN  NNW 000                       N    
RDG08607400WATRL000000004K00000000000000523007109152015103614N000000000000U20       000330400K 10000000010000000483           
CUS0860740000108441341008         THERESA M SCOTT     9226 AMBER OAKS WAY                     000N        CARE OF             
MTR08607400001000000000000000RA              10003735    005800970000009700000570000003NN  NNW 000                       N    
RDG08607400WATRL000000004K00000000000000449007209152015103656N000000000000U20       000420400K 10000000010000000430           
CUS0860740000108441342006         FENNER KENNETH H    9230 AMBER OAKS WAY                     000N        CARE OF             
MTR08607400001000000000000000RA              14928636    005800980000009800000310000003NN  NNW 000                       N    
RDG08607400WATRL000000004K00000000000001171007309152015103747N000000000010U20       000510400K 10000000010000001147           
CUS0860740000108441343004         BREWSTER MARK A     9232 AMBER OAKS WAY                     000N        CARE OF             
MTR08607400001000000000000000RA              14929392    005800990000009900000310000003NN  NNW 000                       N    
RDG08607400WATRL000000004K00000000000000850007709152015104041N000000000020U20       000270400K 10000000010000000825           
CUS0860740000108441344002         WEST-AARONS DALVERIN9234 AMBER OAKS WAY                     000N        CARE OF             
MTR08607400001000000000000000RA              14929396    005801000000010000000310000003NN  NNW 000                       N    
RDG08607400WATRL000000004K00000000000002351007409152015103855N000000000000U20       000680400K 10000000010000002253           
CUS0860740000108441353003         CLANZY GREGORY L    9237 AMBER OAKS WAY                     000N        CARE OF             
MTR08607400001000000000000000RA              14929561    005801010000010100000310000003NN  NNW 000                       N    
RDG08607400WATRL000000004K00000000000000758007509152015103938N000000000000U20       000430400K 10000000010000000717           
CUS0860740000108441352005         EMELOGU VICTORIA    9235 AMBER OAKS WAY                     000N        CARE OF             
MTR08607400001000000000000000RA              14929395    005801020000010200000310000003NN  NNW 000                       N    
RDG08607400WATRL000000004K00000000000001199007609152015104014N000000000000U20       000360400K 10000000010000001154           
CUS0860740000108441351007         ALFORD KATHY        9233 AMBER OAKS WAY                     000N        CARE OF             
MTR08607400001000000000000000RA              14929603    005801030000010300000310000003NN  NNW 000                       N    
RDG08607400WATRL000000004K00000000000000998007809152015104109N000000000000U20       000280400K 10000000010000000960           
CUS0860740000108441349001         JACKSON BURTON      9229 AMBER OAKS WAY                     000N        CARE OF             
MTR08607400001000000000000000RA              10000370    005801040000010400000570000003NN  NNW 000                       N    
RDG08607400WATRL000000004K00000000000000292007909152015104218N000000000000U20       000690400K 10000000010000000281           
CUS0860740000108441348003         BAJULAIYE EMMANUEL A9227 AMBER OAKS WAY                     000N        CARE OF             
MTR08607400001000000000000000RA              10000392    005801050000010500000570000003NN  NNW 000                       N    
RDG08607400WATRL000000004K00000000000000573008009152015104251N000000000000U20       000330400K 10000000010000000541           
CUS0860740000108441350009         MAYNOR ERIKA M      9231 AMBER OAKS WAY                     000N        CARE OF             
MTR08607400001000000000000000RA              10000363    005801060000010600000570000003NN  NNW 000                       N    
RDG08607400WATRL000000004K00000000000000671008209152015104412N000000000010U20       000080400K 10000000010000000639           
CUS0860740000108441347005         CHRISTIANA BONSU    9225 AMBER OAKS WAY                     000N        CARE OF             
MTR08607400001000000000000000RA              10000372    005801070000010700000570000003NN  NNW 000                       N    
RDG08607400WATRL000000004K00000000000000408008109152015104404N000000000000U20       000730400K 10000000010000000385           
CUS0860740000108441345009         THOMPSON DIANE CENTU9205 AMBER OAKS WAY                     000N        CARE OF             
MTR08607400001000000000000000RA              14921641    005801080000010800000310000003NN  NNW 000                       N    
RDG08607400WATRL000000004K00000000000001119005909152015102653N000000000000U20       000880400K 10000000010000001071           
CUS0860740000108441346007         TOMMIE L JENKINS    9203 AMBER OAKS WAY                     000N        CARE OF             
MTR08607400001000000000000000RA              14922450    005801090000010900000440000003NN  NNW 000                       N    
RDG08607400WATRL000000004K00000000000000553006009152015102734N000000000000U20       000410400K 10000000010000000510           
CUS0860740000108441336008         FLEET CHARLES P,JR  9216 AMBER OAKS WAY                     000N        CARE OF             
MTR08607400001000000000000000RA              14922449    005801100000011000000310000003NN  NNW 000                       N    
RDG08607400WATRL000000004K00000000000001101008309152015104418N000000000000U20       000060400K 10000000010000001066           
CUS0860740000108439895007         TALLEY LARRY,SR     4104 BROOKSIDE OAKS RD                  000N        CARE OF             
MTR08607400001000000000000000RA              14916469    005801110000011100000310000003NN  NNW 000                       N    
RDG08607400WATRL000000004K00000000000001360008409152015104926N000300000040U20       003080400K 10000000010000001308           
CUS0860740000108439893002         APRIL WILSON        4102 BROOKSIDE OAKS RD                  000N        CARE OF             
MTR08607400001000000000000000RA              14924330    005801120000011200000310000003NN  NNW 000                       N    
RDG08607400WATRL000000004K00000000000000885008509152015105040N000000000010U20       000740400K 10000000010000000857           
CUS0860740000108439889000         BEST TYRONE A       4100 BROOKSIDE OAKS RD                  000N        CARE OF             
MTR08607400001000000000000000RA              14914276    005801130000011300000310000003NN  NNW 000                       N    
RDG08607400WATRL000000004K00000000000001159008609152015105111N000000000000U20       000310400K 10000000010000001120           
RTR08607400NN01130113000001130000000001130113000165NY011301130113000000000000000000000000000002    08242015NY020000 N         
RHD08608100NN01900190000001900000000001900190000191NY019001900190000200000000000000000000000002    08242015NY020000 N         
CUS0860810000108041160006         QUENUM CLAUDE       8200 DAREN CT                           000N        CARE OF             
MTR08608100001000000000000000RA              01086426    005800010000000100000570000003NN  NNW 000                       N    
RDG08608100WATRL000000004K00000000000005013000609102015083848N000000000000U81       000440400K 10000000010000005013           
CUS0860810000108041161004         SANNI MUSTAPHA M    8202 DAREN CT                           000N        CARE OF             
MTR08608100001000000000000000RA              30517777    005800020000000200000520000003NN  NNW 000                       N    
RDG08608100WATRL000000004K00000000000003184000709102015083950N000000000000U81       000620400K 10000000010000003163           
CUS0860810000108041162002         CHEESE LARRY,JR     8204 DAREN CT                           000N        CARE OF             
MTR08608100001000000000000000RA              10021853    005800030000000300000570000003NN  NNW 000                       N    
RDG08608100WATRL000000004K00000000000000453000809102015084053N000400000010U81       000630400K 10000000010000000433           
CUS0860810000108041163000         MCDONALD RASHIDA    8206 DAREN CT                           000N        CARE OF             
MTR08608100001000000000000000RA              14928756    005800040000000400000310000003NN  NNW 000                       N    
RDG08608100WATRL000000004K00000000000000391000909102015084056N000000000000U81       000030400K 10000000010000000360           
CUS0860810000108041164008         SANDERS DARRELL D   8207 DAREN CT                           000N        CARE OF             
MTR08608100001000000000000000RA              9595808     005800050000000500000570000003NN  NNW 000                       N    
RDG08608100WATRL000000004K00000000000004363001009102015084134N000000000000U81       000380400K 10000000010000004353           
CUS0860810000108041165005         BATTLE DELORES R    8205 DAREN CT                           000N        CARE OF             
MTR08608100001000000000000000RA              44175604    005800060000000600000520000003NN  NNW 000                       N    
RDG08608100WATRL000000004K00000000000002041001109102015084206N000000000000U81       000320400K 10000000010000002030           
CUS0860810000108041166003         JACKSON HERMAN L    8203 DAREN CT                           000N        CARE OF             
MTR08608100001000000000000000RA              00139192    005800070000000700000570000003NN  NNW 000                       N    
RDG08608100WATRL000000004K00000000000001409001209102015084234N000000000000U81       000280400K 10000000010000001403           
CUS0860810000108041167001         WEINER BERYL E      4534 MARYKNOLL RD                       000N        CARE OF             
MTR08608100001000000000000000RA              35103056    005800080000000800000520000003NN  NNW 000                       N    
RDG08608100WATRL000000004K00000000000002619001309102015084358N000000000001U81       000840400K 10000000010000002608           
CUS0860810000108041168009         CARTER TRACY L      4536 MARYKNOLL RD                       000N        CARE OF             
MTR08608100001000000000000000RA              24229635    005800090000000900000520000003NN  NNW 000                       N    
RDG08608100WATRL000000004K00000000000004390001409102015084456N000000000000U81       000580400K 10000000010000004338           
CUS0860810000108041169007         TRIPLIN TYRONE E    8200 SCOTTS LEVEL RD                    000N        CARE OF             
MTR08608100001000000000000000RA              01085084    005800100000001000000610000003NN  NNW 000                       N    
RDG08608100WATRL000000004K00000000000001531000109092015123119N000000000000N81       000000400K 10000000010000001505           
CUS0860810000108041170005         PAIGE JEFFERE       8202 SCOTTS LEVEL RD                    000N        CARE OF             
MTR08608100001000000000000000RA              41088297    005800110000001100000520000003NN  NNW 000                       N    
RDG08608100WATRL000000004K00000000000002088000209092015123157N000000000000N81       000380400K 10000000010000002061           
CUS0860810000108041171003         FRANK STANCIL       8204 SCOTTS LEVEL RD                    000N        CARE OF             
MTR08608100001000000000000000RA              45381120    005800120000001200000520000003NN  NNW 000                       N    
RDG08608100WATRL000000004K00000000000002796000309092015123236N000000000000N81       000390400K 10000000010000002790           
CUS0860810000108041172001         JAMES D LEWIS SR    8200 AUTRIM LN                          000N        CARE OF             
MTR08608100001000000000000000RA              10019038    005800130000001300000570000003NN  NNW 000                       N    
RDG08608100WATRL000000004K00000000000000213000409092015123320N000000000000N81       000440400K 10000000010000000200           
CUS0860810000108041173009         KENDALL COOPER      8202 AUTRIM LN                          000N        CARE OF             
MTR08608100001000000000000000RA              22606547    005800140000001400000520000003NN  NNW 000                       N    
RDG08608100WATRL000000004K00000000000002531000509092015123445N000000000000N81       000850400K 10000000010000002522           
CUS0860810000108041174007         MOSES-ABNEY ROSITA M8204 AUTRIM LN                          000N        CARE OF             
MTR08608100001000000000000000RA              01112885    005800150000001500000610000003NN  NNW 000                       N    
RDG08608100WATRL000000004K00000000000000855000609092015123531N000000000000N81       000460400K 10000000010000000843           
CUS0860810000108041175004         JACKSON SHIRLEY A   8206 AUTRIM LN                          000N        CARE OF             
MTR08608100001000000000000000RA              01112064    005800160000001600000610000003NN  NNW 000                       N    
RDG08608100WATRL000000004K00000000000000562000709092015123603N000000000000N81       000320400K 10000000010000000555           
CUS0860810000108041176002         BROWN TROY M        8223 BRATTLE RD                         000N        CARE OF             
MTR08608100001000000000000000RA              41081828    005800170000001700000520000003NN  NNW 000                       N    
RDG08608100WATRL000000004K00000000000003835000809092015123720N000000000000N81       000770400K 10000000010000003715           
CUS0860810000108041177000         GAYLE S EMERSON     8205 AUTRIM LN                          000N        CARE OF             
MTR08608100001000000000000000RA              27133301    005800180000001800000520000003NN  NNW 000                       N    
RDG08608100WATRL000000004K00000000000003873000909092015123816N000000000000N81       000560400K 10000000010000003857           
CUS0860810000108041178008         JACKSON MAURICE P   8203 AUTRIM LN                          000N        CARE OF             
MTR08608100001000000000000000RA              46879211    005800190000001900000520000003NN  NNW 000                       N    
RDG08608100WATRL000000004K00000000000003457001009092015123857N000000000000N81       000410400K 10000000010000003413           
CUS0860810000108041179006         HENRY ANDRE M       8210 SCOTTS LEVEL RD                    000N        CARE OF             
MTR08608100001000000000000000RA              00139266    005800200000002000000570000003NN  NNW 000                       N    
RDG08608100WATRL000000004K00000000000001327001109092015124017N000000000000N81       000800400K 10000000010000001304           
CUS0860810000108041180004         BRENDA HUBBARD      8212 SCOTTS LEVEL RD                    000N        CARE OF             
MTR08608100001000000000000000RA              11428264    005800210000002100000570000003NN  NNW 000                       N    
RDG08608100WATRL000000004K00000000000006184001209092015124052N000000000000N81       000350400K 10000000010000006174           
CUS0860810000108041181002         MCMILLION JOSEPH P  8214 SCOTTS LEVEL RD                    000N        CARE OF             
MTR08608100001000000000000000RA              00139265    005800220000002200000570000003NN  NNW 000                       N    
RDG08608100WATRL000000004K00000000000003397001309092015124136N000000000000N81       000440400K 10000000010000003339           
CUS0860810000108041182000         HARVEY HAROLD T     8211 SCOTTS LEVEL RD                    000N        CARE OF             
MTR08608100001000000000000000RA              29680674    005800230000002300000520000003NN  NNW 000                       N    
RDG08608100WATRL000000004K00000000000003439001409092015124231N000000000000N81       000550400K 10000000010000003426           
CUS0860810000108041183008         BRACY MELVIN O      8209 SCOTTS LEVEL RD                    000N        CARE OF             
MTR08608100001000000000000000RA              00139059    005800240000002400000570000003NN  NNW 000                       N    
RDG08608100WATRL000000004K00000000000000511001509092015124333N000000000000N81       000620400K 10000000010000000500           
CUS0860810000108041184006         DRENNON ROBERTA E   8207 SCOTTS LEVEL RD                    000N        CARE OF             
MTR08608100001000000000000000RA              44091391    005800250000002500000520000003NN  NNW 000                       N    
RDG08608100WATRL000000004K00000000000004243001609092015124401N000000000000N81       000280400K 10000000010000004205           
CUS0860810000108041185003         DILLARD SAUNDRA JONE8205 SCOTTS LEVEL RD                    000N        CARE OF             
MTR08608100001000000000000000RA              41086771    005800260000002600000520000003NN  NNW 000                       N    
RDG08608100WATRL000000004K00000000000002904001709092015124435N000000000000N81       000340400K 10000000010000002887           
CUS0860810000108041186001         VIVIAN BRAUN        8203 SCOTTS LEVEL RD                    000N        CARE OF             
MTR08608100001000000000000000RA              00139260    005800270000002700000570000003NN  NNW 000                       N    
RDG08608100WATRL000000004K00000000000001123001809092015124505N000000000000N81       000300400K 10000000010000001108           
CUS0860810000108041187009         PARKS GORDON W      8201 SCOTTS LEVEL RD                    000N        CARE OF             
MTR08608100001000000000000000RA              45373709    005800280000002800000520000003NN  NNW 000                       N    
RDG08608100WATRL000000004K00000000000002436001909092015124553N000000000000N81       000480400K 10000000010000002422           
CUS0860810000108037077008         WILSEY SHARON LEE   8151 SCOTTS LEVEL RD                    000N        CARE OF             
MTR08608100001000000000000000RA              77887304    005800290000002900000360000003NN  NNW 000                       N    
RDG08608100WATRL000000004K00000000000000026002009092015124750N000000000000N81       001170400K 10000000010000000016           
CUS0860810000108037078006         WALTERS DONALD D    8149 SCOTTS LEVEL RD                    000N        CARE OF             
MTR08608100001000000000000000RA              23059639    005800300000003000000520000003NN  NNW 000                       N    
RDG08608100WATRL000000004K00000000000005458002109092015124829N000000000000N81       000390400K 10000000010000005438           
CUS0860810000108037079004         COOPER SIDNEY M     8147 SCOTTS LEVEL RD                    000N        CARE OF             
MTR08608100001000000000000000RA              00139262    005800310000003100000570000003NN  NNW 000                       N    
RDG08608100WATRL000000004K00000000000002540002209092015124919N000000000000N81       000500400K 10000000010000002502           
CUS0860810000108037080002         MILLER MARVIN S     8145 SCOTTS LEVEL RD                    000N        CARE OF             
MTR08608100001000000000000000RA              00139259    005800320000003200000570000003NN  NNW 000                       N    
RDG08608100WATRL000000004K00000000000000872002309092015124944N000000000000N81       000250400K 10000000010000000862           
CUS0860810000108037081000         MOTEN RHONDA E      8143 SCOTTS LEVEL RD                    000N        CARE OF             
MTR08608100001000000000000000RA              9487634     005800330000003300000570000003NN  NNW 000                       N    
RDG08608100WATRL000000004K00000000000006466002409092015125210N000000000000N81       001460400K 10000000010000006437           
CUS0860810000108037082008         GARNETT KENNETH     8141 SCOTTS LEVEL RD                    000N        CARE OF             
MTR08608100001000000000000000RA              00139257    005800340000003400000570000003NN  NNW 000                       N    
RDG08608100WATRL000000004K00000000000003618006109092015131704N000000000000N81       001150400K 10000000010000003581           
CUS0860810000108037083006         PINSON CLARICE      8139 SCOTTS LEVEL RD                    000N        CARE OF             
MTR08608100001000000000000000RA              01082201    005800350000003500000610000003NN  NNW 000                       N    
RDG08608100WATRL000000004K00000000000006039002509092015125611N000300000010N81       002410400K 10000000010000005902           
CUS0860810000108037084004         WOMBLE BETTY A      8137 SCOTTS LEVEL RD                    000N        CARE OF             
MTR08608100001000000000000000RA              11334524    005800360000003600000570000003NN  NNW 000                       N    
RDG08608100WATRL000000004K00000000000004650002609092015125656N000000000000N81       000450400K 10000000010000004641           
CUS0860810000108037085001         GREBOW MARYLAND LLC 8135 SCOTTS LEVEL RD                    000N        CARE OF             
MTR08608100001000000000000000RA              32574132    005800370000003700000520000003NN  NNW 000                       N    
RDG08608100WATRL000000004K00000000000002004002709092015125704N000000000000N81       000080400K 10000000010000001985           
CUS0860810000108037086009         CHANEY STEPHEN      8133 SCOTTS LEVEL RD                    000N        CARE OF             
MTR08608100001000000000000000RA              23059979    005800380000003800000520000003NN  NNW 000                       N    
RDG08608100WATRL000000004K00000000000003481002809092015125757N000000000000N81       000530400K 10000000010000003468           
CUS0860810000108037087007         MORGAN JOHN P       8131 SCOTTS LEVEL RD                    000N        CARE OF             
MTR08608100001000000000000000RA              32771905    005800390000003900000520000003NN  NNW 000                       N    
RDG08608100WATRL000000004K00000000000003201002909092015125803N000000000000N81       000060400K 10000000010000003185           
CUS0860810000108037088005         BROWN WILLIAM,JR    8129 SCOTTS LEVEL RD                    000N        CARE OF             
MTR08608100001000000000000000RA              41074292    005800400000004000000520000003NN  NNW 000                       N    
RDG08608100WATRL000000004K00000000000002529003009092015125855N000000000000N81       000520400K 10000000010000002511           
CUS0860810000108037089003         SMITH SHELIA        8127 SCOTTS LEVEL RD                    000N        CARE OF             
MTR08608100001000000000000000RA              01082202    005800410000004100000610000003NN  NNW 000                       N    
RDG08608100WATRL000000004K00000000000000837003109092015125901N000300000010N81       000060400K 10000000010000000800           
CUS0860810000108037090001         BAKER SHIRLEY C     8125 SCOTTS LEVEL RD                    000N        CARE OF             
MTR08608100001000000000000000RA              46879204    005800420000004200000520000003NN  NNW 000                       N    
RDG08608100WATRL000000004K00000000000001908003209092015125957N000000000000N81       000560400K 10000000010000001899           
CUS0860810000108037091009         JOINER PATRICE M    8123 SCOTTS LEVEL RD                    000N        CARE OF             
MTR08608100001000000000000000RA              00138936    005800430000004300000570000003NN  NNW 000                       N    
RDG08608100WATRL000000004K00000000000001252003309092015130005N000000000000N81       000080400K 10000000010000001238           
CUS0860810000108037092007         D J FEIERSTEIN      8121 SCOTTS LEVEL RD                    000N        CARE OF             
MTR08608100001000000000000000RA              23059995    005800440000004400000520000003NN  NNW 000                       N    
RDG08608100WATRL000000004K00000000000004064003409092015130058N000300000010N81       000530400K 10000000010000003907           
CUS0860810000108037093005         PRISCILLA CHIN      8119 SCOTTS LEVEL RD                    000N        CARE OF             
MTR08608100001000000000000000RA              41074304    005800450000004500000520000003NN  NNW 000                       N    
RDG08608100WATRL000000004K00000000000002897003509092015130103N000000000000N81       000050400K 10000000010000002769           
CUS0860810000108037094003         RYAN ROGER V        8117 SCOTTS LEVEL RD                    000N        CARE OF             
MTR08608100001000000000000000RA              32573673    005800460000004600000520000003NN  NNW 000                       N    
RDG08608100WATRL000000004K00000000000003492003609092015130142N000000000000N81       000390400K 10000000010000003449           
CUS0860810000108037095000         CAPLE PAMELA J      8115 SCOTTS LEVEL RD                    000N        CARE OF             
MTR08608100001000000000000000RA              23059998    005800470000004700000520000003NN  NNW 000                       N    
RDG08608100WATRL000000004K00000000000003908003709092015130145N000000000000N81       000030400K 10000000010000003890           
CUS0860810000108037050005         FOWLKES BESSIE M    4507 SCOTTS LEVEL CT                    000N        CARE OF             
MTR08608100001000000000000000RA              44090304    005800480000004800000520000003NN  NNW 000                       N    
RDG08608100WATRL000000004K00000000000001893003809092015130258N000000000000N81       000730400K 10000000010000001890           
CUS0860810000108037051003         SINGLETON ANTHONY R 4505 SCOTTS LEVEL CT                    000N        CARE OF             
MTR08608100001000000000000000RA              27826682    005800490000004900000520000003NN  NNW 000                       N    
RDG08608100WATRL000000004K00000000000004404003909092015130301N000000000000N81       000030400K 10000000010000004393           
CUS0860810000108037052001         BURR WENDELL E,SR   4503 SCOTTS LEVEL CT                    000N        CARE OF             
MTR08608100001000000000000000RA              23058477    005800500000005000000520000003NN  NNW 000                       N    
RDG08608100WATRL000000004K00000000000006842004009092015130352N000000000000N81       000510400K 10000000010000006815           
CUS0860810000108037053009         CHASE-COLEMAN RHONDA4501 SCOTTS LEVEL CT                    000N        CARE OF             
MTR08608100001000000000000000RA              23059083    005800510000005100000520000003NN  NNW 000                       N    
RDG08608100WATRL000000004K00000000000003008004109092015130401N000000000000N81       000090400K 10000000010000002993           
CUS0860810000108037054007         ANTHONY  JAMES      4500 SCOTTS LEVEL CT                    000N        CARE OF             
MTR08608100001000000000000000RA              14902304    005800520000005200000310000003NN  NNW 000                       N    
RDG08608100WATRL000000004K00000000000000754004209092015130429N000000000000N81       000280400K 10000000010000000747           
CUS0860810000108037055004         DANIEL MCMICHAEL JR 4502 SCOTTS LEVEL CT                    000N        CARE OF             
MTR08608100001000000000000000RA              14902306    005800530000005300000310000003NN  NNW 000                       N    
RDG08608100WATRL000000004K00000000000000992004309092015130432N000000000000N81       000030400K 10000000010000000980           
CUS0860810000108037056002         RICH LARRY J        4504 SCOTTS LEVEL CT                    000N        CARE OF             
MTR08608100001000000000000000RA              41257433    005800540000005400000520000003NN  NNW 000                       N    
RDG08608100WATRL000000004K00000000000001499004409092015130535N000000000000N81       000630400K 10000000010000001491           
CUS0860810000108037057000         GLORIA D WASHINGTON 4506 SCOTTS LEVEL CT                    000N        CARE OF             
MTR08608100001000000000000000RA              26016268    005800550000005500000520000003NN  NNW 000                       N    
RDG08608100WATRL000000004K00000000000003171004509092015130545N000000000000N81       000100400K 10000000010000003163           
CUS0860810000108037058008         COLEMAN WILLIAM B,JR8114 SCOTTS LEVEL RD                    000N        CARE OF             
MTR08608100001000000000000000RA              23059993    005800560000005600000520000003NN  NNW 000                       N    
RDG08608100WATRL000000004K00000000000003824004609092015130723N000000000000N81       000980400K 10000000010000003772           
CUS0860810000108037059006         FARLEY JAMES M      8116 SCOTTS LEVEL RD                    000N        CARE OF             
MTR08608100001000000000000000RA              41058953    005800570000005700000520000003NN  NNW 000                       N    
RDG08608100WATRL000000004K00000000000003161004709092015130726N000000000000N81       000030400K 10000000010000003154           
CUS0860810000108037060004         WYCHE JAMES E,3RD   8118 SCOTTS LEVEL RD                    000N        CARE OF             
MTR08608100001000000000000000RA              10005645    005800580000005800000570000003NN  NNW 000                       N    
RDG08608100WATRL000000004K00000000000000593004809092015130813N000000000000N81       000470400K 10000000010000000571           
CUS0860810000108037061002         ROBINSON DAVID,JR   8120 SCOTTS LEVEL RD                    000N        CARE OF             
MTR08608100001000000000000000RA              44090288    005800590000005900000520000003NN  NNW 000                       N    
RDG08608100WATRL000000004K00000000000004238004909092015130824N000000000000N81       000110400K 10000000010000004217           
CUS0860810000108037062000         DORIS EMELDA SCOTT  8122 SCOTTS LEVEL RD                    000N        CARE OF             
MTR08608100001000000000000000RA              23059977    005800600000006000000520000003NN  NNW 000                       N    
RDG08608100WATRL000000004K00000000000003454005009092015130906N000000000000N81       000420400K 10000000010000003445           
CUS0860810000108037063008         APRIL E JOHNSON     8124 SCOTTS LEVEL RD                    000N        CARE OF             
MTR08608100001000000000000000RA              23059629    005800610000006100000520000003NN  NNW 000                       N    
RDG08608100WATRL000000004K00000000000005732005109092015130914N000000000000N81       000080400K 10000000010000005702           
CUS0860810000108037064006         DUNCAN KAREN A      8126 SCOTTS LEVEL RD                    000N        CARE OF             
MTR08608100001000000000000000RA              36687081    005800620000006200000520000003NN  NNW 000                       N    
RDG08608100WATRL000000004K00000000000001064005209092015131002N000000000000N81       000480400K 10000000010000001058           
CUS0860810000108037065003         SHAW VELMA          8128 SCOTTS LEVEL RD                    000N        CARE OF             
MTR08608100001000000000000000RA              41257165    005800630000006300000520000003NN  NNW 000                       N    
RDG08608100WATRL000000004K00000000000001360005309092015131004N000000000000N81       000020400K 10000000010000001348           
CUS0860810000108037066001         BARRY ANDRE M       8130 SCOTTS LEVEL RD                    000N        CARE OF             
MTR08608100001000000000000000RA              23059984    005800640000006400000520000003NN  NNW 000                       N    
RDG08608100WATRL000000004K00000000000003899005409092015131050N000000000000N81       000460400K 10000000010000003878           
CUS0860810000108037067009         LINGHAM TAMARA D    8132 SCOTTS LEVEL RD                    000N        CARE OF             
MTR08608100001000000000000000RA              41074098    005800650000006500000520000003NN  NNW 000                       N    
RDG08608100WATRL000000004K00000000000003304005509092015131053N000000000000N81       000030400K 10000000010000003270           
CUS0860810000108037068007         ROBINSON ANTHONY W  8134 SCOTTS LEVEL RD                    000N        CARE OF             
MTR08608100001000000000000000RA              45388294    007500660000006600000520000003NN  NNW 000                       N    
RDG08608100WATRL000000004K00000000000003368005609092015131144N000000000000N81       000510400K 10000000010000003345           
CUS0860810000108037069005         WORKMAN DEBORAH A   8136 SCOTTS LEVEL RD                    000N        CARE OF             
MTR08608100001000000000000000RA              41589968    005800670000006700000520000003NN  NNW 000                       N    
RDG08608100WATRL000000004K00000000000001715005709092015131235N000000000000N81       000510400K 10000000010000001705           
CUS0860810000108037070003         AUGUSTUS SAMUELS    8138 SCOTTS LEVEL RD                    000N        CARE OF             
MTR08608100001000000000000000RA              32574131    005800680000006800000520000003NN  NNW 000                       N    
RDG08608100WATRL000000004K00000000000003042005809092015131238N000000000000N81       000030400K 10000000010000003030           
CUS0860810000108037071001         ANGELA LANCE        8140 SCOTTS LEVEL RD                    000N        CARE OF             
MTR08608100001000000000000000RA              50788136    005800690000006900000520000003NN  NNW 000                       N    
RDG08608100WATRL000000004K00000000000001299005909092015131420N000000000000N81       001020400K 10000000010000001293           
CUS0860810000108037072009         LEWIS JABEZ R       8142 SCOTTS LEVEL RD                    000N        CARE OF             
MTR08608100001000000000000000RA              41074302    005800700000007000000520000003NN  NNW 000                       N    
RDG08608100WATRL000000004K00000000000002585006009092015131509N000000000000N81       000490400K 10000000010000002555           
CUS0860810000108037073007         ANDERSON JANET      4534 TAPSCOTT RD                        000N        CARE OF             
MTR08608100001000000000000000RA              35111276    005800710000007100000520000003NN  NNW 000                       N    
RDG08608100WATRL000000004K00000000000004593006209092015131854N000000000000N81       001100400K 10000000010000004578           
CUS0860810000108037074005         CANTEEN YOLANDA     8148 SCOTTS LEVEL RD                    000N        CARE OF             
MTR08608100001000000000000000RA              33077626    005800720000007200000520000003NN  NNW 000                       N    
RDG08608100WATRL000000004K00000000000002529006309092015131938N000000000000N81       000440400K 10000000010000002516           
CUS0860810000108037075002         MICHEL ALLEN        8150 SCOTTS LEVEL RD                    000N        CARE OF             
MTR08608100001000000000000000RA              9594834     005800730000007300000570000003NN  NNW 000                       N    
RDG08608100WATRL000000004K00000000000006354006409092015132024N000000000000N81       000460400K 10000000010000006328           
CUS0860810000108037076000         BANNERMAN AARON L   8152 SCOTTS LEVEL RD                    000N        CARE OF             
MTR08608100001000000000000000RA              44087356    005800740000007400000520000003NN  NNW 000                       N    
RDG08608100WATRL000000004K00000000000001575006509092015132113N000000000000N81       000490400K 10000000010000001537           
CUS0860810000108041188007         SCHNEIDER JEROME    4537 MARYKNOLL RD                       000N        CARE OF             
MTR08608100001000000000000000RA              11334927    005800750000007500000570000003NN  NNW 000                       N    
RDG08608100WATRL000000004K00000000000004624000109102015083523N000000000000U81       000000400K 10000000010000004608           
CUS0860810000108041189005         BALTIMORE ASSOCIATIO4535 MARYKNOLL RD                       000N        CARE OF             
MTR08608100001000000000000000RA              10015763    005800760000007600000570000003NN  NNW 000                       N    
RDG08608100WATRL000000004K00000000000000663000209102015083618N000000000000U81       000550400K 10000000010000000634           
CUS0860810000108041190003         ISRAEL BRAVNER      4533 MARYKNOLL RD                       000N        CARE OF             
MTR08608100001000000000000000RA              00139195    005800770000007700000570000003NN  NNW 000                       N    
RDG08608100WATRL000000004K00000000000001220000309102015083646N000000000000U81       000280400K 10000000010000001207           
CUS0860810000108041191001         POWELL BARRY W      4531 MARYKNOLL RD                       000N        CARE OF             
MTR08608100001000000000000000RA              10017009    005800780000007800000570000003NN  NNW 000                       N    
RDG08608100WATRL000000004K00000000000000269000409102015083723N000000000000U81       000370400K 10000000010000000250           
CUS0860810000108041192009         FOSTER SHAWN        4529 MARYKNOLL RD                       000N        CARE OF             
MTR08608100001000000000000000RA              27827122    005800790000007900000520000003NN  NNW 000                       N    
RDG08608100WATRL000000004K00000000000002850000509102015083804N000000000000U81       000410400K 10000000010000002838           
CUS0860810000108041193007         REUBEN ORMAN        4527 MARYKNOLL RD                       000N        CARE OF             
MTR08608100001000000000000000RA              01083133    005800800000008000000610000003NN  NNW 000                       N    
RDG08608100WATRL000000004K00000000000002193001509102015084932N000000000000U81       002760400K 10000000010000002155           
CUS0860810000108041194005         WIGGINS KEVIN D     4525 MARYKNOLL RD                       000N        CARE OF             
MTR08608100001000000000000000RA              33078626    005800810000008100000520000003NN  NNW 000                       N    
RDG08608100WATRL000000004K00000000000003553001609102015085023N000000000000U81       000510400K 10000000010000003510           
CUS0860810000108041195002         LARKIN YVETTE S     4523 MARYKNOLL RD                       000N        CARE OF             
MTR08608100001000000000000000RA              41076525    005800820000008200000520000003NN  NNW 000                       N    
RDG08608100WATRL000000004K00000000000001641001709102015085101N000000000000U81       000380400K 10000000010000001624           
CUS0860810000108041196000         HOLLOWAY CARELEN    4521 MARYKNOLL RD                       000N        CARE OF             
MTR08608100001000000000000000RA              41257042    005800830000008300000520000003NN  NNW 000                       N    
RDG08608100WATRL000000004K00000000000002480001809102015085153N000000000000U81       000520400K 10000000010000002452           
CUS0860810000108041197008         DANIELS KARL E,JR   4519 MARYKNOLL RD                       000N        CARE OF             
MTR08608100001000000000000000RA              76346803    005800840000008400000350000003NN  NNW 000                       N    
RDG08608100WATRL000000004K00000000000000122001909102015085706N000000000000U81       003130400K 10000000010000000104           
CUS0860810000108041198006         BOWMAN KENNETH J    4517 MARYKNOLL RD                       000N        CARE OF             
MTR08608100001000000000000000RA              26019254    005800850000008500000520000003NN  NNW 000                       N    
RDG08608100WATRL000000004K00000000000007242002009102015085757N000000000000U81       000510400K 10000000010000007213           
CUS0860810000108041199004         CHANCE LUCYNETHIA Z 4515 MARYKNOLL RD                       000N        CARE OF             
MTR08608100001000000000000000RA              24762444    005800860000008600000520000003NN  NNW 000                       N    
RDG08608100WATRL000000004K00000000000005394002109102015085917N000000000000U81       000800400K 10000000010000005358           
CUS0860810000108041200000         ROBINSON DAVID      4513 MARYKNOLL RD                       000N        CARE OF             
MTR08608100001000000000000000RA              24764023    005800870000008700000520000003NN  NNW 000                       N    
RDG08608100WATRL000000004K00000000000003118002209102015090039N000000000000U81       000820400K 10000000010000003106           
CUS0860810000108041201008         HOUSE CHRISTOPHER H 4511 MARYKNOLL RD                       000N        CARE OF             
MTR08608100001000000000000000RA              35108626    005800880000008800000520000003NY  NNW 000                       N    
MTM0860810035108626    construction                                                                                           
RDG08608100WATRL000000004K00000000000000000000000000000000000 000000000000U         000000400  10000000010000002599           
CUS0860810000108041202006         CUPID FAITH M       4509 MARYKNOLL RD                       000N        CARE OF             
MTR08608100001000000000000000RA              52285872    005800890000008900000520000003NN  NNW 000                       N    
RDG08608100WATRL000000004K00000000000000336002309102015090641N000000000000U81       003620400K 10000000010000000331           
CUS0860810000108041203004         HANCOCK RICHARD     4507 MARYKNOLL RD                       000N        CARE OF             
MTR08608100001000000000000000RA              00139060    005800900000009000000570000003NN  NNW 000                       N    
RDG08608100WATRL000000004K00000000000001139002409102015090728N000000000000U81       000470400K 10000000010000001118           
CUS0860810000108041204002         RHONDA NIXON        4505 MARYKNOLL RD                       000N        CARE OF             
MTR08608100001000000000000000RA              01099777    005800910000009100000610000003NN  NNW 000                       N    
RDG08608100WATRL000000004K00000000000000376002509102015090827N000000000000U81       000590400K 10000000010000000372           
CUS0860810000108041205009         SWEREN STEVEN ALAN  4503 MARYKNOLL RD                       000N        CARE OF             
MTR08608100001000000000000000RA              46882670    005800920000009200000520000003NN  NNW 000                       N    
RDG08608100WATRL000000004K00000000000002243002609102015090915N000000000000U81       000480400K 10000000010000002238           
CUS0860810000108041206007         MILLS RUBY A        4501 MARYKNOLL RD                       000N        CARE OF             
MTR08608100001000000000000000RA              50788040    005800930000009300000520000003NN  NNW 000                       N    
RDG08608100WATRL000000004K00000000000001816002709102015091845N000000000000U81       005700400K 10000000010000001803           
CUS0860810000108041207005         BAGLEY FELICIA A    8117 STREAMWOOD DR                      000N        CARE OF             
MTR08608100001000000000000000RA              10006296    005800940000009400000570000003NN  NNW 000                       N    
RDG08608100WATRL000000004K00000000000001164002809102015091926N000000000000U81       000410400K 10000000010000001093           
CUS0860810000108041208003         EMERGE INC          8115 STREAMWOOD DR                      000N        CARE OF             
MTR08608100001000000000000000RA              01082203    005800950000009500000610000003NN  NNW 000                       N    
RDG08608100WATRL000000004K00000000000003774002909102015092020N000000000000U81       000540400K 10000000010000003738           
CUS0860810000108041209001         DAVID PERRY         4500 TAPSCOTT RD                        000N        CARE OF             
MTR08608100001000000000000000RA              50789165    005800960000009600000520000003NN  NNW 000                       N    
RDG08608100WATRL000000004K00000000000008934003009102015092157N000000000000U81       000970400K 10000000010000008923           
CUS0860810000108041210009         IWU ANTHONIA C      4502 TAPSCOTT RD                        000N        CARE OF             
MTR08608100001000000000000000RA              41590718    005800970000009700000520000003NN  NNW 000                       N    
RDG08608100WATRL000000004K00000000000003359003109102015092242N000300000020U81       000450400K 10000000010000003354           
CUS0860810000108041211007         WILLIAMS RUTH E     4504 TAPSCOTT RD                        000N        CARE OF             
MTR08608100001000000000000000RA              23059053    005800980000009800000520000003NN  NNW 000                       N    
RDG08608100WATRL000000004K00000000000004859003209102015092310N000400000010U81       000280400K 10000000010000004845           
CUS0860810000108041212005         LUTHER BRICKERS     4506 TAPSCOTT RD                        000N        CARE OF             
MTR08608100001000000000000000RA              10003789    005800990000009900000570000003NN  NNW 000                       N    
RDG08608100WATRL000000004K00000000000000371003309102015092334N000000000000U81       000240400K 10000000010000000364           
CUS0860810000108041213003         OJIMI JACOB A       4508 TAPSCOTT RD                        000N        CARE OF             
MTR08608100001000000000000000RA              48593156    005801000000010000000520000003NN  NNW 000                       N    
RDG08608100WATRL000000004K00000000000001622003409102015092410N000000000000U81       000360400K 10000000010000001595           
CUS0860810000108041214001         AYERS MARTHA        4510 TAPSCOTT RD                        000N        CARE OF             
MTR08608100001000000000000000RA              41074097    005801010000010100000520000003NN  NNW 000                       N    
RDG08608100WATRL000000004K00000000000003125003509102015092437N000000000000U81       000270400K 10000000010000003095           
CUS0860810000108041215008         BURNS HENRY L       4512 TAPSCOTT RD                        000N        CARE OF             
MTR08608100001000000000000000RA              26019257    005801020000010200000520000003NN  NNW 000                       N    
RDG08608100WATRL000000004K00000000000004451003609102015092516N000000000000U81       000390400K 10000000010000004430           
CUS0860810000108041216006         DELLA SAIONTZ       4514 TAPSCOTT RD                        000N        CARE OF             
MTR08608100001000000000000000RA              38881784    005801030000010300000520000003NN  NNW 000                       N    
RDG08608100WATRL000000004K00000000000002474003709102015092550N000000000000U81       000340400K 10000000010000002434           
CUS0860810000108041217004         REYNOLDS JEANEAN D  4516 TAPSCOTT RD                        000N        CARE OF             
MTR08608100001000000000000000RA              00138831    005801040000010400000570000003NN  NNW 000                       N    
RDG08608100WATRL000000004K00000000000001250003809102015092627N000000000000U81       000370400K 10000000010000001237           
CUS0860810000108041218002         ADAMS BENJAMIN,3RD  4518 TAPSCOTT RD                        000N        CARE OF             
MTR08608100001000000000000000RA              00139258    005801050000010500000570000003NN  NNW 000                       N    
RDG08608100WATRL000000004K00000000000001868003909102015092707N000000000000U81       000400400K 10000000010000001843           
CUS0860810000108041219000         JONES ORRICK W      4520 TAPSCOTT RD                        000N        CARE OF             
MTR08608100001000000000000000RA              32573864    005801060000010600000520000003NN  NNW 000                       N    
RDG08608100WATRL000000004K00000000000003040004009102015092739N000000000000U81       000320400K 10000000010000002982           
CUS0860810000108041220008         BROWN LORENZO A     4522 TAPSCOTT RD                        000N        CARE OF             
MTR08608100001000000000000000RA              27133303    005801070000010700000520000003NN  NNW 000                       N    
RDG08608100WATRL000000004K00000000000004477004109102015092809N000000000000U81       000300400K 10000000010000004468           
CUS0860810000108041221006         LANG LEWIS TIMOTHY  4524 TAPSCOTT RD                        000N        CARE OF             
MTR08608100001000000000000000RA              00138964    005801080000010800000570000003NN  NNW 000                       N    
RDG08608100WATRL000000004K00000000000001378004209102015092853N000000000000U81       000440400K 10000000010000001367           
CUS0860810000108041222004         WILLIAM LEWIS       4526 TAPSCOTT RD                        000N        CARE OF             
MTR08608100001000000000000000RA              00138935    005801090000010900000570000003NN  NNW 000                       N    
RDG08608100WATRL000000004K00000000000001374004309102015092925N000000000000U81       000320400K 10000000010000001358           
CUS0860810000108041223002         HYPOLITE JANICE     4528 TAPSCOTT RD                        000N        CARE OF             
MTR08608100001000000000000000RA              01099802    005801100000011000000610000003NN  NNW 000                       N    
RDG08608100WATRL000000004K00000000000002763004409102015093006N000000000000U81       000410400K 10000000010000002717           
CUS0860810000108041224000         SHIRLEY POTTER      4530 TAPSCOTT RD                        000N        CARE OF             
MTR08608100001000000000000000RA              14922528    005801110000011100000310000003NN  NNW 000                       N    
RDG08608100WATRL000000004K00000000000000889004509102015093117N000000000000U81       000710400K 10000000010000000855           
CUS0860810000108041225007         KATZ BENJAMIN       4532 TAPSCOTT RD                        000N        CARE OF             
MTR08608100001000000000000000RA              01102989    005801120000011200000610000003NN  NNW 000                       N    
RDG08608100WATRL000000004K00000000000000226004609102015093449N000000000000U81       002120400K 10000000010000000191           
CUS0860810000108041226005         CARR DUANE D        4531 TAPSCOTT RD                        000N        CARE OF             
MTR08608100001000000000000000RA              01081849    005801130000011300000610000003NN  NNW 000                       N    
RDG08608100WATRL000000004K00000000000002025004709102015093504N000000000000U81       000150400K 10000000010000002001           
CUS0860810000108041227003         SMITH CHARLES TIMOTH4529 TAPSCOTT RD                        000N        CARE OF             
MTR08608100001000000000000000RA              76345779    005801140000011400000350000003NN  NNW 000                       N    
RDG08608100WATRL000000004K00000000000000082004809102015093541N000000000000U81       000370400K 10000000010000000070           
CUS0860810000108041228001         SMITH MICHAEL L     4527 TAPSCOTT RD                        000N        CARE OF             
MTR08608100001000000000000000RA              54348420    005801150000011500000520000003NN  NNW 000                       N    
RDG08608100WATRL000000004K00000000000002585004909102015093631N000400000010U81       000500400K 10000000010000002583           
CUS0860810000108041229009         GJS REALTY LLC      4525 TAPSCOTT RD                        000N        CARE OF             
MTR08608100001000000000000000RA              00138934    005801160000011600000570000003NN  NNW 000                       N    
RDG08608100WATRL000000004K00000000000000759005009102015093720N000000000000U81       000490400K 10000000010000000739           
CUS0860810000108041230007         OTTO THOMAS E       4523 TAPSCOTT RD                        000N        CARE OF             
MTR08608100001000000000000000RA              00138937    005801170000011700000570000003NN  NNW 000                       N    
RDG08608100WATRL000000004K00000000000002375005109102015093758N000000000000U81       000380400K 10000000010000002282           
CUS0860810000108041231005         TREVOR G SMITH      4521 TAPSCOTT RD                        000N        CARE OF             
MTR08608100001000000000000000RA              00138968    005801180000011800000570000003NN  NNW 000                       N    
RDG08608100WATRL000000004K00000000000003889005209102015093841N000000000000U81       000430400K 10000000010000003785           
CUS0860810000108041232003         CLAY DEWAN          8101 TAPSCOTT CT                        000N        CARE OF             
MTR08608100001000000000000000RA              30513809    005801190000011900000520000003NN  NNW 000                       N    
RDG08608100WATRL000000004K00000000000003230005309102015094107N000000000000U81       001460400K 10000000010000003205           
CUS0860810000108041233001         TIGGLE HAMILTON LEE 8100 TAPSCOTT CT                        000N        CARE OF             
MTR08608100001000000000000000RA              14926517    005801200000012000000310000003NN  NNW 000                       N    
RDG08608100WATRL000000004K00000000000000495005409102015094128N000000000000U81       000210400K 10000000010000000468           
CUS0860810000108041234009         GRIFFIN ALONZO      8102 TAPSCOTT CT                        000N        CARE OF             
MTR08608100001000000000000000RA              52290020    005801210000012100000520000003NN  NNW 000                       N    
RDG08608100WATRL000000004K00000000000001506005509102015094154N000000000000U81       000260400K 10000000010000001484           
CUS0860810000108041235006         BENSON WILLIAM,JR   8104 TAPSCOTT CT                        000N        CARE OF             
MTR08608100001000000000000000RA              00139064    005801220000012200000570000003NN  NNW 000                       N    
RDG08608100WATRL000000004K00000000000001203005609102015094211N000000000000U81       000170400K 10000000010000001189           
CUS0860810000108041236004         ALEXANDER FERNANDEZ 4515 TAPSCOTT RD                        000N        CARE OF             
MTR08608100001000000000000000RA              36687082    005801230000012300000520000003NN  NNW 000                       N    
RDG08608100WATRL000000004K00000000000001919005709102015094320N000000000000U81       000690400K 10000000010000001912           
CUS0860810000108041237002         LINDSAY JOANNE D    4513 TAPSCOTT RD                        000N        CARE OF             
MTR08608100001000000000000000RA              31936659    005801240000012400000520000003NN  NNW 000                       N    
RDG08608100WATRL000000004K00000000000002445005809102015094354N000000000000U81       000340400K 10000000010000002430           
CUS0860810000108041238000         DUPREY JOY M        4511 TAPSCOTT RD                        000N        CARE OF             
MTR08608100001000000000000000RA              38887160    005801250000012500000520000003NN  NNW 000                       N    
RDG08608100WATRL000000004K00000000000003178005909102015094434N000000000000U81       000400400K 10000000010000003164           
CUS0860810000108041239008         NOLLEY LILLIAN L    4500 DRESDEN RD                         000N        CARE OF             
MTR08608100001000000000000000RA              00138655    005801260000012600000570000003NN  NNW 000                       N    
RDG08608100WATRL000000004K00000000000000642006009102015094558N000000000000U81       000840400K 10000000010000000634           
CUS0860810000108041240006         AIKEN HELEN B TRUSTE4502 DRESDEN RD                         000N        CARE OF             
MTR08608100001000000000000000RA              77883572    005801270000012700000360000003NN  NNW 000   VACANT / LOT        N    
RDG08608100WATRL000000004K00000000000000008006109102015094655N000000000010U81       000570400K 10000000010000000000           
CUS0860810000108041241004         DOROTHY PRYOR       4504 DRESDEN RD                         000N        CARE OF             
MTR08608100001000000000000000RA              41257407    005801280000012800000520000003NN  NNW 000                       N    
RDG08608100WATRL000000004K00000000000006034006209102015094759N000000000000U81       000640400K 10000000010000005994           
CUS0860810000108041242002         DELANE BERNIE       4506 DRESDEN RD                         000N        CARE OF             
MTR08608100001000000000000000RA              00138531    005801290000012900000570000003NN  NNW 000                       N    
RDG08608100WATRL000000004K00000000000001284006309102015094836N000000000010U81       000370400K 10000000010000001275           
CUS0860810000108041243000         AGNES INOCENCION    4508 DRESDEN RD                         000N        CARE OF             
MTR08608100001000000000000000RA              00138654    005801300000013000000570000003NN  NNW 000                       N    
RDG08608100WATRL000000004K00000000000001093006409102015094921N000000000000U81       000450400K 10000000010000001079           
CUS0860810000108041244008         ENGLER JAMES F,SR  E4510 DRESDEN RD                         000N        CARE OF             
MTR08608100001000000000000000RA              00138653    005801310000013100000570000003NN  NNW 000                       N    
RDG08608100WATRL000000004K00000000000001186006509102015095024N000000000000U81       000630400K 10000000010000001177           
CUS0860810000108041245005         JOSEPH & FAY HUTCHIN4512 DRESDEN RD                         000N        CARE OF             
MTR08608100001000000000000000RA              00138656    005801320000013200000570000003NN  NNW 000                       N    
RDG08608100WATRL000000004K00000000000001451006609102015095122N000000000000U81       000580400K 10000000010000001437           
CUS0860810000108041246003         BUTLER LEOANRD T    4514 DRESDEN RD                         000N        CARE OF             
MTR08608100001000000000000000RA              00138536    005801330000013300000570000003NN  NNW 000                       N    
RDG08608100WATRL000000004K00000000000000403006709102015095209N000000000000U81       000470400K 10000000010000000395           
CUS0860810000108041247001         JEWISH FAMILY SERVIC4516 DRESDEN RD                         000N        CARE OF             
MTR08608100001000000000000000RA              00138535    005801340000013400000570000003NY  NNW 000                       N    
MTM0860810000138535    clean out vault                                                                                        
RDG08608100WATRL000000004K00000000000000000000000000000000000 000000000000U         000000400  10000000010000002200           
CUS0860810000108041248009         RUCKER KEVIN WILLIAM4518 DRESDEN RD                         000N        CARE OF             
MTR08608100001000000000000000RA              00138498    005801350000013500000570000003NN  NNW 000                       N    
RDG08608100WATRL000000004K00000000000002082006809102015095431N000300000020U81       001420400K 10000000010000002071           
CUS0860810000108041249007         PHILLIPS WENDY R    4525 DRESDEN RD                         000N        CARE OF             
MTR08608100001000000000000000RA              45374312    005801360000013600000520000003NN  NNW 000                       N    
RDG08608100WATRL000000004K00000000000002136006909102015095608N000000000000U81       000970400K 10000000010000002117           
CUS0860810000108041250005         ANNA F CASTILLO     4523 DRESDEN RD                         000N        CARE OF             
MTR08608100001000000000000000RA              00138500    005801370000013700000570000003NN  NNW 000                       N    
RDG08608100WATRL000000004K00000000000001680007009102015095657N000000000000U81       000490400K 10000000010000001665           
CUS0860810000108041251003         LEWIS DELORIS L     4521 DRESDEN RD                         000N        CARE OF             
MTR08608100001000000000000000RA              00138497    005801380000013800000570000003NN  NNW 000                       N    
RDG08608100WATRL000000004K00000000000001090007109102015095756N000000000000U81       000590400K 10000000010000001072           
CUS0860810000108041252001         HOLMES MELVIN       4519 DRESDEN RD                         000N        CARE OF             
MTR08608100001000000000000000RA              00138280    005801390000013900000570000003NN  NNW 000                       N    
RDG08608100WATRL000000004K00000000000002599007209102015095821N000000000000U81       000250400K 10000000010000002552           
CUS0860810000108041253009         NORMAN BERGER       4517 DRESDEN RD                         000N        CARE OF             
MTR08608100001000000000000000RA              00138495    005801400000014000000570000003NN  NNW 000                       N    
RDG08608100WATRL000000004K00000000000000890007309102015095930N000000000000U81       000690400K 10000000010000000846           
CUS0860810000108041254007         RAEBURN-ALLEN CAROL 4515 DRESDEN RD                         000N        CARE OF             
MTR08608100001000000000000000RA              00138279    005801410000014100000570000003NN  NNW 000                       N    
RDG08608100WATRL000000004K00000000000001005007409102015100004N000000000000U81       000340400K 10000000010000001000           
CUS0860810000108041255004         WATKINS DALE L      4513 DRESDEN RD                         000N        CARE OF             
MTR08608100001000000000000000RA              00138281    005801420000014200000570000003NN  NNW 000                       N    
RDG08608100WATRL000000004K00000000000001487007509102015100029N000000000000U81       000250400K 10000000010000001473           
CUS0860810000108041256002         LYLES KYRA DENISE   4511 DRESDEN RD                         000N        CARE OF             
MTR08608100001000000000000000RA              00138285    005801430000014300000570000003NN  NNW 000                       N    
RDG08608100WATRL000000004K00000000000001482007609102015100106N000000000000U81       000370400K 10000000010000001457           
CUS0860810000108041257000         SANTILLAN OLIVIA C  4509 DRESDEN RD                         000N        CARE OF             
MTR08608100001000000000000000RA              00138283    005801440000014400000570000003NN  NNW 000                       N    
RDG08608100WATRL000000004K00000000000001338007709102015100136N000000000000U81       000300400K 10000000010000001297           
CUS0860810000108041258008         DYETT MALACHI S,JR  4507 DRESDEN RD                         000N        CARE OF             
MTR08608100001000000000000000RA              41257444    005801450000014500000520000003NN  NNW 000                       N    
RDG08608100WATRL000000004K00000000000002608007809102015100209N000000000000U81       000330400K 10000000010000002543           
CUS0860810000108041259006         LESSER LUCILA P     4505 DRESDEN RD                         000N        CARE OF             
MTR08608100001000000000000000RA              00138282    005801460000014600000570000003NN  NNW 000                       N    
RDG08608100WATRL000000004K00000000000000990007909102015100245N000300000010U81       000360400K 10000000010000000972           
CUS0860810000108041260004         LAND STEVEN M       4503 DRESDEN RD                         000N        CARE OF             
MTR08608100001000000000000000RA              00138284    005801470000014700000570000003NN  NNW 000                       N    
RDG08608100WATRL000000004K00000000000001672008009102015100320N000000000000U81       000350400K 10000000010000001659           
CUS0860810000108041261002         QUENTINA S HARMON   4501 DRESDEN RD                         000N        CARE OF             
