FHDNNNN023004761004761004761N                                                                                           015146
RHD06929500NN01820182000001820000000001820182000015NY018201820182000400020000000000000000000002    08122015NY020000 N         
CUS0692950000106149956002         TAYLOR CAROL A      7460 MANCHESTER RD                      000N        CARE OF             
MTR06929500001000000000000000RA              46879579    005800010000000100000520000003NN  NNW 000                       N    
RDG06929500WATRL000000004K00000000000002459000109102015084547N000000000000N40       000000400K 10000000010000002428           
CUS0692950000106149957000         ONEY STACEY L       7458 MANCHESTER RD                      000N        CARE OF             
MTR06929500001000000000000000RA              24767184    005800020000000200000520000003NN  NNW 000                       N    
RDG06929500WATRL000000004K00000000000002629000209102015084553N000100000010N40       000060400K 10000000010000002629           
CUS0692950000106149958008         HERBERT C ALT       7456 MANCHESTER RD                      000N        CARE OF             
MTR06929500001000000000000000RA              24767185    005800030000000300000520000003NN  NNW 000                       N    
RDG06929500WATRL000000004K00000000000005044000309102015084555N000000000000N40       000020400K 10000000010000005029           
CUS0692950000106149959006         G. & J. STECKLER    7454 MANCHESTER RD                      000N        CARE OF             
MTR06929500001000000000000000RA              14907325    005800040000000400000310000003NN  NNW 000                       N    
RDG06929500WATRL000000004K00000000000000816000409102015084558N000000000000N40       000030400K 10000000010000000802           
CUS0692950000106149960004         W E TAYLOR          7452 MANCHESTER RD                      000N        CARE OF             
MTR06929500001000000000000000RA              45378102    005800050000000500000520000003NN  NNW 000                       N    
RDG06929500WATRL000000004K00000000000001800000509102015084600N000000000000N40       000020400K 10000000010000001790           
CUS0692950000106149961002         SHADBOLT NANETTE D S7450 MANCHESTER RD                      000N        CARE OF             
MTR06929500001000000000000000RA              45378155    005800060000000600000520000003NN  NNW 000                       N    
RDG06929500WATRL000000004K00000000000001009000609102015084603N000000000000N40       000030400K 10000000010000000980           
CUS0692950000106149962000         DENNIS & PATRICIA LU7448 MANCHESTER RD                      000N        CARE OF             
MTR06929500001000000000000000RA              00128924    005800070000000700000570000003NN  NNW 000                       N    
RDG06929500WATRL000000004K00000000000002421000709102015084606N000000000000N40       000030400K 10000000010000002368           
CUS0692950000106149963008         LAUER EDWARD J      7446 MANCHESTER RD                      000N        CARE OF             
MTR06929500001000000000000000RA              00128923    005800080000000800000570000003NN  NNW 000                       N    
RDG06929500WATRL000000004K00000000000000933000809102015084608N000000000000N40       000020400K 10000000010000000929           
CUS0692950000106149964006         G. & J. STECKLER    7444 MANCHESTER RD                      000N        CARE OF             
MTR06929500001000000000000000RA              41080899    005800090000000900000520000003NN  NNW 000                       N    
RDG06929500WATRL000000004K00000000000003181000909102015084612N000000000000N40       000040400K 10000000010000003142           
CUS0692950000106149965003         UMBERGER RICKY E    7442 MANCHESTER RD                      000N        CARE OF             
MTR06929500001000000000000000RA              41080840    005800100000001000000520000003NN  NNW 000                       N    
RDG06929500WATRL000000004K00000000000000833001009102015084614N000000000000N40       000020400K 10000000010000000818           
CUS0692950000106149966001         SROKA ELEANOR A     7440 MANCHESTER RD                      000N        CARE OF             
MTR06929500001000000000000000RA              44002878    005800110000001100000520000003NN  NNW 000                       N    
RDG06929500WATRL000000004K00000000000001599001109102015084616N000000000000N40       000020400K 10000000010000001591           
CUS0692950000106149967009         FRANKLAND ROBERT S,J7438 MANCHESTER RD                      000N        CARE OF             
MTR06929500001000000000000000RA              00128921    005800120000001200000570000003NN  NNW 000                       N    
RDG06929500WATRL000000004K00000000000001126001209102015084619N000000000000N40       000030400K 10000000010000001115           
CUS0692950000106149968007         BEACH TIMOTHY       7436 MANCHESTER RD                      000N        CARE OF             
MTR06929500001000000000000000RA              99288131    005800130000001300000570000003NN  NNW 000                       N    
RDG06929500WATRL000000004K00000000000002508000009212015100155O000000000000U01       000000400K 10000000010000002487           
CUS0692950000106149969005         AYRES MICHAEL A     7434 MANCHESTER RD                      000N        CARE OF             
MTR06929500001000000000000000RA              75618227    005800140000001400000350000003NN  NNW 000                       N    
RDG06929500WATRL000000004K00000000000000074001309102015084725N000000000000N40       000660400K 10000000010000000064           
CUS0692950000106149970003         ROSIER NELSON       7432 MANCHESTER RD                      000N        CARE OF             
MTR06929500001000000000000000RA              24767132    005800150000001500000520000003NN  NNW 000                       N    
RDG06929500WATRL000000004K00000000000004531001409102015084728N000000000000N40       000030400K 10000000010000004519           
CUS0692950000106149971001         TICER KEITH D       7430 MANCHESTER RD                      000N        CARE OF             
MTR06929500001000000000000000RA              38985011    005800160000001600000520000003NN  NNW 000                       N    
RDG06929500WATRL000000004K00000000000001467001509102015084737N000400000010N40       000090400K 10000000010000001464           
CUS0692950000106149972009         EVERS GEORGE H,JR   7428 MANCHESTER RD                      000N        CARE OF             
MTR06929500001000000000000000RA              30524963    005800170000001700000520000003NN  NNW 000                       N    
RDG06929500WATRL000000004K00000000000001401001609102015084747N000000000000N40       000100400K 10000000010000001394           
CUS0692950000106149973007         KAROL W SKOTARSKI   7426 MANCHESTER RD                      000N        CARE OF             
MTR06929500001000000000000000RA              24767107    005800180000001800000520000003NN  NNW 000                       N    
RDG06929500WATRL000000004K00000000000003207001709102015084749N000000000000N40       000020400K 10000000010000003199           
CUS0692950000106149974005         ROBERT W MARTIN     7424 MANCHESTER RD                      000N        CARE OF             
MTR06929500001000000000000000RA              24767128    005800190000001900000520000003NN  NNW 000                       N    
RDG06929500WATRL000000004K00000000000003591001809102015084757N000100000010N40       000080400K 10000000010000003591           
CUS0692950000106149975002         NELSON JOHN WAYNE   7422 MANCHESTER RD                      000N        CARE OF             
MTR06929500001000000000000000RA              24767130    005800200000002000000520000003NN  NNW 000                       N    
RDG06929500WATRL000000004K00000000000002562001909102015084802N000000000000N40       000050400K 10000000010000002549           
CUS0692950000106149976000         KATHLEEN E MCTIGUE  7420 MANCHESTER RD                      000N        CARE OF             
MTR06929500001000000000000000RA              27820296    005800210000002100000520000003NN  NNW 000                       N    
RDG06929500WATRL000000004K00000000000003406002009102015084805N000000000000N40       000030400K 10000000010000003374           
CUS0692950000106149977008         PARKER GERALD W     7366 MANCHESTER RD                      000N        CARE OF             
MTR06929500001000000000000000RA              50788945    005800220000002200000520000003NN  NNW 000                       N    
RDG06929500WATRL000000004K00000000000002146002109102015084807N000000000000N40       000020400K 10000000010000002136           
CUS0692950000106149978006         CHOLEWCZYNSKI J H   7360 MANCHESTER RD                      000N        CARE OF             
MTR06929500001000000000000000RA              35108351    005800230000002300000520000003NN  NNW 000                       N    
RDG06929500WATRL000000004K00000000000006885002209102015084814N000000000000N40       000070400K 10000000010000006830           
CUS0692950000106149979004         COOK CAROLYN L      7358 MANCHESTER RD                      000N        CARE OF             
MTR06929500001000000000000000RA              24767109    005800240000002400000520000003NN  NNW 000                       N    
RDG06929500WATRL000000004K00000000000003533002309102015084816N000000000000N40       000020400K 10000000010000003527           
CUS0692950000106149980002         SIBISKI JOHN J,SR   7356 MANCHESTER RD                      000N        CARE OF             
MTR06929500001000000000000000RA              24767925    005800250000002500000520000003NN  NNW 000                       N    
RDG06929500WATRL000000004K00000000000003206002409102015084819N000000000000N40       000030400K 10000000010000003193           
CUS0692950000106149981000         MITCHELL STEVEN P   7352 MANCHESTER RD                      000N        CARE OF             
MTR06929500001000000000000000RA              52289457    005800260000002600000520000003NN  NNW 000                       N    
RDG06929500WATRL000000004K00000000000001800000009212015100320O000300000000U01       000000400K 10000000010000002351           
CUS0692950000106149982008         FLORIAN BUDZIK      7350 MANCHESTER RD                      000N        CARE OF             
MTR06929500001000000000000000RA              24767920    005800270000002700000520000003NN  NNW 000                       N    
RDG06929500WATRL000000004K00000000000005304002509102015084824N000000000000N40       000050400K 10000000010000005290           
CUS0692950000106149983006         GATTUS MELVIN J     7348 MANCHESTER RD                      000N        CARE OF             
MTR06929500001000000000000000RA              54348228    005800280000002800000520000003NN  NNW 000                       N    
RDG06929500WATRL000000004K00000000000000962002609102015084827N000000000000N40       000030400K 10000000010000000948           
CUS0692950000106149984004         CAROLINE D. WEEKS   7344 MANCHESTER RD                      000N        CARE OF             
MTR06929500001000000000000000RA              24767931    005800290000002900000570000003NN  NNW 000                       N    
RDG06929500WATRL000000004K00000000000002627002709102015084833N000000000010N40       000060400K 10000000010000002624           
CUS0692950000106149985001         DIETSCH JAMES C     7342 MANCHESTER RD                      000N        CARE OF             
MTR06929500001000000000000000RA              14907562    005800300000003000000310000003NN  NNW 000                       N    
RDG06929500WATRL000000004K00000000000001132002809102015084837N000300000010N40       000040400K 10000000010000001090           
CUS0692950000106149986009         DIETSCH, JAMES & SHI7340 MANCHESTER RD                      000N        CARE OF             
MTR06929500001000000000000000RA              99999999    005800310000003100000620000000NN  NNW 000   FERRULE APPLIED     N    
RDG06929500WATRL000000004K00000000000000000002909102015084845S002000000000N40       000080400K 10000000010000001578           
CUS0692950000106149987007         DANIELCZYK DENNIS   7338-A MANCHESTER RD                    000N        CARE OF             
MTR06929500001000000000000000RA              24767926    005800320000003200000520000003NN  NNW 000                       N    
RDG06929500WATRL000000004K00000000000002927000009212015100353O000300000000U01       000000400K 10000000010000003627           
CUS0692950000106398139003         DENNIS DANIELCZYK   7338 MANCHESTER RD                      000N        CARE OF             
MTR06929500001000000000000000RA              40048827    005800330000003300000520000003NN  NNW 000                       N    
RDG06929500WATRL000000004K00000000000001696003009102015084911N000000000000N40       000260400K 10000000010000001676           
CUS0692950000106149988005         COLLINS BRYAN P     7336 MANCHESTER RD                      000N        CARE OF             
MTR06929500001000000000000000RA              45384617    005800340000003400000520000003NN  NNW 000                       N    
RDG06929500WATRL000000004K00000000000001755003109102015084914N000000000000N40       000030400K 10000000010000001739           
CUS0692950000106149989003         KLEINSMITH ROBERT A,7334 MANCHESTER RD                      000N        CARE OF             
MTR06929500001000000000000000RA              75618226    005800350000003500000350000003NN  NNW 000                       N    
RDG06929500WATRL000000004K00000000000000174003209102015084917N000000000000N40       000030400K 10000000010000000156           
CUS0692950000106149990001         ANTHONY MICHALAK    7332 MANCHESTER RD                      000N        CARE OF             
MTR06929500001000000000000000RA              75618222    005800360000003600000350000003NN  NNW 000                       N    
RDG06929500WATRL000000004K00000000000000133003309102015084919N000000000000N40       000020400K 10000000010000000113           
CUS0692950000106149991009         ROSE MARY CHERRY    7330 MANCHESTER RD                      000N        CARE OF             
MTR06929500001000000000000000RA              11471429    005800370000003700000570000003NN  NNW 000                       N    
RDG06929500WATRL000000004K00000000000003826003409102015084922N000000000000N40       000030400K 10000000010000003800           
CUS0692950000106149992007         COOKE ROBERT R      7328B MANCHESTER RD                     000N        CARE OF             
MTR06929500001000000000000000RA              22607523    005800380000003800000520000003NN  NNW 000                       N    
RDG06929500WATRL000000004K00000000000000000000000000000000000 000000000000U         000000400  10000000010000003103           
CUS0692950000106149993005         DEMSKI ANTHONY      7328 MANCHESTER RD                      000N        CARE OF             
MTR06929500001000000000000000RA              01108402    005800390000003900000610000003NN  NNW 000                       N    
RDG06929500WATRL000000004K00000000000000827000009212015100456O000300000000U01       000000400K 10000000010000000947           
CUS0692950000106149994003         BARR CHRISTOPHER,JR 7326 MANCHESTER RD                      000N        CARE OF             
MTR06929500001000000000000000RA              24767928    005800400000004000000520000003NN  NNW 000                       N    
RDG06929500WATRL000000004K00000000000004460003509102015084927N000000000000N40       000050400K 10000000010000004436           
CUS0692950000106149995000         TOLLEY TROY T       7322 MANCHESTER RD                      000N        CARE OF             
MTR06929500001000000000000000RA              24764503    005800410000004100000520000003NN  NNW 000                       N    
RDG06929500WATRL000000004K00000000000001996003609102015084930N000000000000N40       000030400K 10000000010000001968           
CUS0692950000106149996008         HIGGINS JAMES WILLIA7312 MANCHESTER RD                      000N        CARE OF             
MTR06929500001000000000000000RA              24767929    005800420000004200000520000003NN  NNW 000                       N    
RDG06929500WATRL000000004K00000000000003592003709102015084932N000000000000N40       000020400K 10000000010000003573           
CUS0692950000106149997006         GOETZINGER MATTHEW M7308 MANCHESTER RD                      000N        CARE OF             
MTR06929500001000000000000000RA              14916043    005800430000004300000310000003NN  NNW 000                       N    
RDG06929500WATRL000000004K00000000000000802003809102015084934N000000000000N40       000020400K 10000000010000000765           
CUS0692950000106149998004         LAWRENCE W BLISCHE  7306 MANCHESTER RD                      000N        CARE OF             
MTR06929500001000000000000000RA              29084725    005800440000004400000520000003NN  NNW 000                       N    
RDG06929500WATRL000000004K00000000000001611003909102015084941N000400000010N40       000070400K 10000000010000001610           
CUS0692950000106149999002         COLLINS THOMAS A,SR 7304 MANCHESTER RD                      000N        CARE OF             
MTR06929500001000000000000000RA              00128824    005800450000004500000570000003NN  NNW 000                       N    
RDG06929500WATRL000000004K00000000000001437004009102015084946N000000000000N40       000050400K 10000000010000001401           
CUS0692950000106150000005         SACCO NANCY D       7302 MANCHESTER RD                      000N        CARE OF             
MTR06929500001000000000000000RA              24767927    005800460000004600000520000003NN  NNW 000                       N    
RDG06929500WATRL000000004K00000000000003514004109102015084949N000000000000N40       000030400K 10000000010000003501           
CUS0692950000106150001003         OAK LAWN CEMETERY OF7300 MANCHESTER RD                      000N        CARE OF             
MTR06929500001000000000000000RA              24767909    005800470000004700000520000003NN  NNW 000                       N    
RDG06929500WATRL000000004K00000000000004063004209102015084954N000300000010N40       000050400K 10000000010000004042           
CUS0692950000106096360000         DIANE J MAXWELL REVO7300 GERMAN HILL RD                     000N        CARE OF             
MTR06929500001000000000000000RA              14907308    005800480000004800000310000003NN  NNW 000                       N    
RDG06929500WATRL000000004K00000000000000452004309102015084959N000000000000N40       000050400K 10000000010000000448           
CUS0692950000106096361008         JUSTICE DOROTHY JEAN717 BEVERLY RD                          000N        CARE OF             
MTR06929500001000000000000000RA              75615726    005800490000004900000350000003NN  NNW 000                       N    
RDG06929500WATRL000000004K00000000000000087004409102015085002N000000000000N40       000030400K 10000000010000000076           
CUS0692950000106096362006         ADAMS DAVID         715 BEVERLY RD                          000N        CARE OF             
MTR06929500001000000000000000RA              14907998    005800500000005000000310000003NN  NNW 000                       N    
RDG06929500WATRL000000004K00000000000001030004509102015085004N000000000000N40       000020400K 10000000010000001014           
CUS0692950000106096363004         MICHAEL N CARDIGES  713 BEVERLY RD                          000N        CARE OF             
MTR06929500001000000000000000RA              24767222    005800510000005100000520000003NN  NNW 000                       N    
RDG06929500WATRL000000004K00000000000003701004609102015085006N000000000000N40       000020400K 10000000010000003698           
CUS0692950000106096364002         SPARACCO JAMES V    711 BEVERLY RD                          000N        CARE OF             
MTR06929500001000000000000000RA              39925210    005800520000005200000520000003NN  NNW 000                       N    
RDG06929500WATRL000000004K00000000000002718004709102015085010N000000000000N40       000040400K 10000000010000002679           
CUS0692950000106096365009         SKARLATOS SPERO E   709 BEVERLY RD                          000N        CARE OF             
MTR06929500001000000000000000RA              41081134    005800530000005300000520000003NN  NNW 000                       N    
RDG06929500WATRL000000004K00000000000002339004809102015085012N000000000000N40       000020400K 10000000010000002298           
CUS0692950000106096366007         HERBERT ALLEN       707 BEVERLY RD                          000N        CARE OF             
MTR06929500001000000000000000RA              19459863    005800540000005400000520000003NN  NNW 000                       N    
RDG06929500WATRL000000004K00000000000005801004909102015085015N000000000000N40       000030400K 10000000010000005782           
CUS0692950000106096367005         PURDIE SHEELAGH D   705 BEVERLY RD                          000N        CARE OF             
MTR06929500001000000000000000RA              24767241    005800550000005500000520000003NN  NNW 000                       N    
RDG06929500WATRL000000004K00000000000003040005009102015085018N000000000000N40       000030400K 10000000010000003030           
CUS0692950000106096368003         JOHN M SEEBERGER    7301 MANCHESTER RD                      000N        CARE OF             
MTR06929500001000000000000000RA              46886705    005800560000005600000520000003NN  NNW 000                       N    
RDG06929500WATRL000000004K00000000000000000000000000000000000 000000000000U         000000400  10000000010000003088           
CUS0692950000106096369001         SZYMANSKI MICHAEL J,7305 MANCHESTER RD                      000N        CARE OF             
MTR06929500001000000000000000RA              45377494    005800570000005700000520000003NN  NNW 000                       N    
RDG06929500WATRL000000004K00000000000002049005109102015085022N000000000000N40       000040400K 10000000010000002007           
CUS0692950000106096370009         JOHN VALENTI &WF    7307 MANCHESTER RD                      000N        CARE OF             
MTR06929500001000000000000000RA              24767470    005800580000005800000520000003NN  NNW 000                       N    
RDG06929500WATRL000000004K00000000000005108005209102015085028N000000000010N40       000060400K 10000000010000005098           
CUS0692950000106096371007         LINDROSS RAUNI E    7309 MANCHESTER RD                      000N        CARE OF             
MTR06929500001000000000000000RA              52285074    005800590000005900000520000003NN  NNW 000                       N    
RDG06929500WATRL000000004K00000000000001970005309102015085033N000000000010N40       000050400K 10000000010000001915           
CUS0692950000106096372005         LINDROSS MARIE R    7311 MANCHESTER RD                      000N        CARE OF             
MTR06929500001000000000000000RA              99291234    005800600000006000000570000003NN  NNW 000                       N    
RDG06929500WATRL000000004K00000000000000968005409102015085041N000300000010N40       000080400K 10000000010000000951           
CUS0692950000106096373003         SROKA EDWARD ALPHONS7319 MANCHESTER RD                      000N        CARE OF             
MTR06929500001000000000000000RA              14907310    005800610000006100000310000003NN  NNW 000                       N    
RDG06929500WATRL000000004K00000000000001303005509102015085043N000000000000N40       000020400K 10000000010000001282           
CUS0692950000106096374001         CALVERY BAPTIST CHUR7321 MANCHESTER RD                      000N        CARE OF             
MTR06929500001000000000000000RA              01080073    005800620000006200000610000003NN  NNW 000                       N    
RDG06929500WATRL000000004K00000000000004678005609102015085047N000000000000N40       000040400K 10000000010000004594           
CUS0692950000106096375008         CALVARY BAPTIST CHUR7327 MANCHESTER RD                      000N        CARE OF             
MTR06929500001000000000000000RA              14911748    005800630000006300000310000003NN  NNW 000                       N    
RDG06929500WATRL000000004K00000000000000769005709102015085051N000000000000N40       000040400K 10000000010000000749           
CUS0692950000106096376006         CALVARY BAPTIST CHUR7329 MANCHESTER RD                      000N        CARE OF             
MTR06929500001000000000000000RA              01104138    005800640000006400000610000003NN  NNW 000                       N    
RDG06929500WATRL000000004K00000000000000376005809102015085054N000000000000N40       000030400K 10000000010000000376           
CUS0692950000106096377004         ZAMENSKI KELLY      7331 MANCHESTER RD                      000N        CARE OF             
MTR06929500001000000000000000RA              45377753    005800650000006500000520000003NN  NNW 000                       N    
RDG06929500WATRL000000004K00000000000002641005909102015085059N000300000010N40       000050400K 10000000010000002591           
CUS0692950000106096378002         FAULHABER ANDREW ROB7333 MANCHESTER RD                      000N        CARE OF             
MTR06929500001000000000000000RA              26016351    005800660000006600000520000003NN  NNW 000                       N    
RDG06929500WATRL000000004K00000000000002554006009102015085103N000000000000N40       000040400K 10000000010000002544           
CUS0692950000106096379000         FRESHOUR JAMES L,JR 7335 MANCHESTER RD                      000N        CARE OF             
MTR06929500001000000000000000RA              46881877    005800670000006700000520000003NN  NNW 000                       N    
RDG06929500WATRL000000004K00000000000003566006109102015085106N000000000000N40       000030400K 10000000010000003529           
CUS0692950000106096380008         RICKETTS HARRY C    7337 MANCHESTER RD                      000N        CARE OF             
MTR06929500001000000000000000RA              46881821    005800680000006800000520000003NN  NNW 000                       N    
RDG06929500WATRL000000004K00000000000001178006209102015085108N000000000000N40       000020400K 10000000010000001167           
CUS0692950000106096381006         JOSEPH G CRISTY     7339 MANCHESTER RD                      000N        CARE OF             
MTR06929500001000000000000000RA              24767526    005800690000006900000520000003NN  NNW 000                       N    
RDG06929500WATRL000000004K00000000000003759006309102015085111N000000000000N40       000030400K 10000000010000003744           
CUS0692950000106096382004         ANDES CARL M        7341 MANCHESTER RD                      000N        CARE OF             
MTR06929500001000000000000000RA              48595049    005800700000007000000520000003NN  NNW 000                       N    
RDG06929500WATRL000000004K00000000000001555006409102015085113N000000000000N40       000020400K 10000000010000001544           
CUS0692950000106096383002         BRAUER ALBERT W,JR  7343 MANCHESTER RD                      000N        CARE OF             
MTR06929500001000000000000000RA              41075484    005800710000007100000520000003NN  NNW 000                       N    
RDG06929500WATRL000000004K00000000000002067006509102015085117N000000000000N40       000040400K 10000000010000002027           
CUS0692950000106096384000         JOSEPH KMOCH        7345 MANCHESTER RD                      000N        CARE OF             
MTR06929500001000000000000000RA              45377713    005800720000007200000520000003NN  NNW 000                       N    
RDG06929500WATRL000000004K00000000000000805006609102015085119N000000000000N40       000020400K 10000000010000000802           
CUS0692950000106096385007         LYNN MARIE MCTIGUE  7347 MANCHESTER RD                      000N        CARE OF             
MTR06929500001000000000000000RA              14907561    005800730000007300000310000003NN  NNW 000                       N    
RDG06929500WATRL000000004K00000000000001321006709102015085121N000000000000N40       000020400K 10000000010000001297           
CUS0692950000106096386005         BARBARA CZUBERNAT   704 MARGO RD                            000N        CARE OF             
MTR06929500001000000000000000RA              26005973    005800740000007400000520000003NN  NNW 000                       N    
RDG06929500WATRL000000004K00000000000003554006809102015085123N000000000000N40       000020400K 10000000010000003524           
CUS0692950000106096387003         STRUMKE JOHN G      712 MARGO RD                            000N        CARE OF             
MTR06929500001000000000000000RA              42808632    005800750000007500000520000003NN  NNW 000                       N    
RDG06929500WATRL000000004K00000000000002425006909102015085126N000000000000N40       000030400K 10000000010000002406           
CUS0692950000106096388001         ARCHER RALPH W,JR   714 MARGO RD                            000N        CARE OF             
MTR06929500001000000000000000RA              45378176    005800760000007600000520000003NN  NNW 000                       N    
RDG06929500WATRL000000004K00000000000003070007009212015100644O000000000000U01       000000400K 10000000010000003026           
CUS0692950000106096389009         AIRES PAUL W,JR     716 MARGO RD                            000N        CARE OF             
MTR06929500001000000000000000RA              10015587    005800770000007700000570000003NN  NNW 000                       N    
RDG06929500WATRL000000004K00000000000000380007109102015085200N000000000000N40       000290400K 10000000010000000355           
CUS0692950000106096390007         KIRKPATRICK CHESLEY 719 MARGO RD                            000N        CARE OF             
MTR06929500001000000000000000RA              24759259    005800780000007800000520000003NN  NNW 000                       N    
RDG06929500WATRL000000004K00000000000005176007209102015085203N000000000000N40       000030400K 10000000010000005160           
CUS0692950000106096391005         MCNEW LOYNETTE A    717 MARGO RD                            000N        CARE OF             
MTR06929500001000000000000000RA              24767522    005800790000007900000520000003NN  NNW 000                       N    
RDG06929500WATRL000000004K00000000000006311007309102015085207N000300000010N40       000040400K 10000000010000006127           
CUS0692950000106096392003         GEORGE J BEHR JR    715 MARGO RD                            000N        CARE OF             
MTR06929500001000000000000000RA              24767525    005800800000008000000520000003NN  NNW 000                       N    
RDG06929500WATRL000000004K00000000000004281007409102015085213N000000000000N40       000060400K 10000000010000004262           
CUS0692950000106096393001         D PONIAOWSKI        713 MARGO RD                            000N        CARE OF             
MTR06929500001000000000000000RA              24767518    005800810000008100000520000003NN  NNW 000                       N    
RDG06929500WATRL000000004K00000000000005009007509102015085216N000000000000N40       000030400K 10000000010000004980           
CUS0692950000106096394009         MARSTON ROBERT E    711 MARGO RD                            000N        CARE OF             
MTR06929500001000000000000000RA              24757727    005800820000008200000520000003NN  NNW 000                       N    
RDG06929500WATRL000000004K00000000000005641007609102015085220N000000000000N40       000040400K 10000000010000005604           
CUS0692950000106096395006         BROWN PATRICIA ANN  709 MARGO RD                            000N        CARE OF             
MTR06929500001000000000000000RA              24758031    005800830000008300000520000003NN  NNW 000                       N    
RDG06929500WATRL000000004K00000000000004677007709102015085223N000000000000N40       000030400K 10000000010000004649           
CUS0692950000106096396004         LUDWIG CLARENCE J,JR707 MARGO RD                            000N        CARE OF             
MTR06929500001000000000000000RA              24767473    005800840000008400000520000003NN  NNW 000                       N    
RDG06929500WATRL000000004K00000000000003250007809102015085227N000000000000N40       000040400K 10000000010000003235           
CUS0692950000106096397002         LOUANN SAVARESE/I BR705 MARGO RD                            000N        CARE OF             
MTR06929500001000000000000000RA              24767521    005800850000008500000520000003NN  NNW 000                       N    
RDG06929500WATRL000000004K00000000000004598007909102015085232N000300000010N40       000050400K 10000000010000004612           
CUS0692950000106096398000         BROWN GARRETT JOSEPH703 MARGO RD                            000N        CARE OF             
MTR06929500001000000000000000RA              24767528    005800860000008600000520000003NN  NNW 000                       N    
RDG06929500WATRL000000004K00000000000006191008009212015100832O000000000000U01       000000400K 10000000010000006161           
CUS0692950000106096399008         HOWELL THERESA      701 MARGO RD                            000N        CARE OF             
MTR06929500001000000000000000RA              45378233    005800870000008700000520000003NN  NNW 000                       N    
RDG06929500WATRL000000004K00000000000002419008109102015085255N000000000000N40       000170400K 10000000010000002375           
CUS0692950000106096400004         WILLIAM & JANICE LUT7353 MANCHESTER RD                      000N        CARE OF             
MTR06929500001000000000000000RA              41589849    005800880000008800000520000003NN  NNW 000                       N    
RDG06929500WATRL000000004K00000000000000618008209102015085258N000000000000N40       000030400K 10000000010000000617           
CUS0692950000106096401002         MELANIE LANIER      7355 MANCHESTER RD                      000N        CARE OF             
MTR06929500001000000000000000RA              52289452    005800890000008900000520000003NN  NNW 000                       N    
RDG06929500WATRL000000004K00000000000000818008309102015085301N000000000000N40       000030400K 10000000010000000777           
CUS0692950000106096402000         JOSEPH DUNPHY       7357 MANCHESTER RD                      000N        CARE OF             
MTR06929500001000000000000000RA              52289454    005800900000009000000520000003NN  NNW 000                       N    
RDG06929500WATRL000000004K00000000000001710008409102015085304N000000000000N40       000030400K 10000000010000001683           
CUS0692950000106096403008         G. & P. STECKLER    7359 MANCHESTER RD                      000N        CARE OF             
MTR06929500001000000000000000RA              41081145    005800910000009100000520000003NN  NNW 000                       N    
RDG06929500WATRL000000004K00000000000002852008509102015085308N000000000000N40       000040400K 10000000010000002821           
CUS0692950000106096404006         HESS BEVERLY M      7361 MANCHESTER RD                      000N        CARE OF             
MTR06929500001000000000000000RA              41080690    005800920000009200000520000003NN  NNW 000                       N    
RDG06929500WATRL000000004K00000000000001418008609212015100903O000300000000U01       000000400K 10000000010000001670           
CUS0692950000106096405003         LAPETINA BERNARD A  7363 MANCHESTER RD                      000N        CARE OF             
MTR06929500001000000000000000RA              33082842    005800930000009300000520000003NN  NNW 000                       N    
RDG06929500WATRL000000004K00000000000003060008709102015085343N000000000000N40       000270400K 10000000010000003048           
CUS0692950000106096406001         MICHAEL ROMANOWSKI  7365 MANCHESTER RD                      000N        CARE OF             
MTR06929500001000000000000000RA              27816016    005800940000009400000520000003NN  NNW 000                       N    
RDG06929500WATRL000000004K00000000000002379008809102015085346N000000000000N40       000030400K 10000000010000002372           
CUS0692950000106096407009         WRIGHT MARLENE M    7367 MANCHESTER RD                      000N        CARE OF             
MTR06929500001000000000000000RA              50478603    005800950000009500000520000003NN  NNW 000                       N    
RDG06929500WATRL000000004K00000000000001193008909102015085351N000000000010N40       000050400K 10000000010000001187           
CUS0692950000106096408007         PRICE JOHN MICHAEL,S7369 MANCHESTER RD                      000N        CARE OF             
MTR06929500001000000000000000RA              33734779    005800960000009600000520000003NN  NNW 000                       N    
RDG06929500WATRL000000004K00000000000003927009009102015085355N000000000000N40       000040400K 10000000010000003907           
CUS0692950000106096409005         RAFAEL C MANZO      7371 MANCHESTER RD                      000N        CARE OF             
MTR06929500001000000000000000RA              50481350    005800970000009700000520000003NN  NNW 000                       N    
RDG06929500WATRL000000004K00000000000002209009109102015085402N000000000010N40       000070400K 10000000010000002144           
CUS0692950000106096410003         ROMANOWSKI DANIEL JO7401 MANCHESTER RD                      000N        CARE OF             
MTR06929500001000000000000000RA              45377892    005800980000009800000520000003NN  NNW 000                       N    
RDG06929500WATRL000000004K00000000000000000000000000000000000 000000000000U         000000400  10000000010000003469           
CUS0692950000106096411001         RILEY ROBERT JOHN   7403 MANCHESTER RD                      000N        CARE OF             
MTR06929500001000000000000000RA              24767494    005800990000009900000520000000NN  NNW 000                       N    
RDG06929500WATRL000000004K00000000000004414009209102015085409N000000000000N40       000070400K 10000000010000004398           
CUS0692950000106096412009         TURDO GLORIA B      7405 MANCHESTER RD                      000N        CARE OF             
MTR06929500001000000000000000RA              24228149    005801000000010000000520000003NN  NNW 000                       N    
RDG06929500WATRL000000004K00000000000005450009309102015085412N000000000000N40       000030400K 10000000010000005436           
CUS0692950000106096413007         JERMY WARGA         7407 MANCHESTER RD                      000N        CARE OF             
MTR06929500001000000000000000RA              24767510    005801010000010100000520000003NN  NNW 000                       N    
RDG06929500WATRL000000004K00000000000003596009409212015101229O000000000000U01       000000400K 10000000010000003585           
CUS0692950000106096414005         MILTON L FENLOCK    603 ALDWORTH RD                         000N        CARE OF             
MTR06929500001000000000000000RA              54351921    005801020000010200000520000003NN  NNW 000                       N    
RDG06929500WATRL000000004K00000000000001516009509102015085548N000000000000N40       000910400K 10000000010000001510           
CUS0692950000106096415002         SHAVER SARAH RUTH   601 ALDWORTH RD                         000N        CARE OF             
MTR06929500001000000000000000RA              24767509    005801030000010300000520000003NN  NNW 000                       N    
RDG06929500WATRL000000004K00000000000003794009609102015085555N000000000010N40       000070400K 10000000010000003799           
CUS0692950000106096416000         CROSS GARY WAYNE    7443 MANCHESTER RD                      000N        CARE OF             
MTR06929500001000000000000000RA              24767465    005801040000010400000520000003NN  NNW 000                       N    
RDG06929500WATRL000000004K00000000000004034009709102015085604N000300000010N40       000090400K 10000000010000004020           
CUS0692950000106096417008         WILLIAM DURST       7445 MANCHESTER RD                      000N        CARE OF             
MTR06929500001000000000000000RA              24233638    005801050000010500000520000003NN  NNW 000                       N    
RDG06929500WATRL000000004K00000000000003435009809102015085606N000000000000N40       000020400K 10000000010000003426           
CUS0692950000106096418006         ELVIN A STUDY JR    7447 MANCHESTER RD                      000N        CARE OF             
MTR06929500001000000000000000RA              45377714    005801060000010600000520000003NN  NNW 000                       N    
RDG06929500WATRL000000004K00000000000002111009909102015085609N000000000000N40       000030400K 10000000010000002092           
CUS0692950000106096419004         MIKOLAICHIK DAVID F 7449 MANCHESTER RD                      000N        CARE OF             
MTR06929500001000000000000000RA              38984277    005801070000010700000520000003NN  NNW 000                       N    
RDG06929500WATRL000000004K00000000000002852010009102015085611N000000000000N40       000020400K 10000000010000002852           
CUS0692950000106096420002         SCHIEFER THERESE M  7451 MANCHESTER RD                      000N        CARE OF             
MTR06929500001000000000000000RA              38984311    005801080000010800000520000003NN  NNW 000                       N    
RDG06929500WATRL000000004K00000000000001534010109102015085614N000000000000N40       000030400K 10000000010000001520           
CUS0692950000106096421000         TIERRA N PEREZ      7453 MANCHESTER RD                      000N        CARE OF             
MTR06929500001000000000000000RA              24767507    005801090000010900000520000003NN  NNW 000                       N    
RDG06929500WATRL000000004K00000000000003131010209102015085617N000000000000N40       000030400K 10000000010000003079           
CUS0692950000106096422008         WM. L VANDANIKER SR 7455 MANCHESTER RD                      000N        CARE OF             
MTR06929500001000000000000000RA              24767499    005801100000011000000520000003NN  NNW 000                       N    
RDG06929500WATRL000000004K00000000000005302010309102015085623N000300000010N40       000060400K 10000000010000005295           
CUS0692950000106096423006         HARRY SCARPULLIA    7457 MANCHESTER RD                      000N        CARE OF             
MTR06929500001000000000000000RA              46886706    005801110000011100000520000003NN  NNW 000                       N    
RDG06929500WATRL000000004K00000000000002806010409102015085625N000000000000N40       000020400K 10000000010000002777           
CUS0692950000106096424004         CROSS BERNICE E     7459 MANCHESTER RD                      000N        CARE OF             
MTR06929500001000000000000000RA              24767374    005801120000011200000520000003NN  NNW 000                       N    
RDG06929500WATRL000000004K00000000000005473010509102015085629N000000000000N40       000040400K 10000000010000005457           
CUS0692950000106096425001         BONADIO DOLORES     7461 MANCHESTER RD                      000N        CARE OF             
MTR06929500001000000000000000RA              24767469    005801130000011300000520000003NN  NNW 000                       N    
RDG06929500WATRL000000004K00000000000003595010609102015085632N000000000000N40       000030400K 10000000010000003586           
CUS0692950000106096426009         NANCY K.TREMPE      7463 MANCHESTER RD                      000N        CARE OF             
MTR06929500001000000000000000RA              45377987    005801140000011400000520000000NN  NNW 000                       N    
RDG06929500WATRL000000004K00000000000001858010709102015085637N000000000010N40       000050400K 10000000010000001853           
CUS0692950000106096427007         WEBB JOHN G/SMITH NA7465 MANCHESTER RD                      000N        CARE OF             
MTR06929500001000000000000000RA              32898700    005801150000011500000520000003NN  NNW 000                       N    
RDG06929500WATRL000000004K00000000000003408010809102015085641N000000000000N40       000040400K 10000000010000003388           
CUS0692950000106096428005         MIGUEL A. CAREL RODR7458 DURWOOD RD                         000N        CARE OF             
MTR06929500001000000000000000RA              99188494    005801160000011600000570000003NN  NNW 000                       N    
RDG06929500WATRL000000004K00000000000001538010909102015085645N000000000000N40       000040400K 10000000010000001521           
CUS0692950000106096429003         LUBINSKI DAVID J    7456 DURWOOD RD                         000N        CARE OF             
MTR06929500001000000000000000RA              99188493    005801170000011700000570000003NN  NNW 000                       N    
RDG06929500WATRL000000004K00000000000001873011009102015085648N000000000000N40       000030400K 10000000010000001854           
CUS0692950000106096430001         CLARK DAVID MICHAEL 7454 DURWOOD RD                         000N        CARE OF             
MTR06929500001000000000000000RA              24767255    005801180000011800000520000003NN  NNW 000                       N    
RDG06929500WATRL000000004K00000000000004500011109102015085650N000000000000N40       000020400K 10000000010000004478           
CUS0692950000106096431009         MARTINI WILLIAM D   7452 DURWOOD RD                         000N        CARE OF             
MTR06929500001000000000000000RA              10012623    005801190000011900000570000003NN  NNW 000                       N    
RDG06929500WATRL000000004K00000000000000296011209102015085653N000000000000N40       000030400K 10000000010000000296           
CUS0692950000106096432007         CHARM CITY HOLDINGS 7450 DURWOOD RD                         000N        CARE OF             
MTR06929500001000000000000000RA              14910024    005801200000012000000310000003NN  NNW 000                       N    
RDG06929500WATRL000000004K00000000000001845011309102015085656N000000000000N40       000030400K 10000000010000001807           
CUS0692950000106096433005         CARR JAMES E,SR     7448 DURWOOD RD                         000N        CARE OF             
MTR06929500001000000000000000RA              14928767    005801210000012100000310000003NN  NNW 000                       N    
RDG06929500WATRL000000004K00000000000000315011409102015085702N000100000010N40       000060400K 10000000010000000315           
CUS0692950000106096434003         GRANT THOMAS L      7446 DURWOOD RD                         000N        CARE OF             
MTR06929500001000000000000000RA              75613957    005801220000012200000350000003NN  NNW 000                       N    
RDG06929500WATRL000000004K00000000000000155011509102015085705N000000000000N40       000030400K 10000000010000000128           
CUS0692950000106096435000         STROM HERMAN        7444 DURWOOD RD                         000N        CARE OF             
MTR06929500001000000000000000RA              24767264    005801230000012300000520000003NN  NNW 000                       N    
RDG06929500WATRL000000004K00000000000000000011609102015085713S005000000000U40       000080400K 10000000010000002520           
CUS0692950000106096436008         KLIMA RUDOLPH E,SR  7442 DURWOOD RD                         000N        CARE OF             
MTR06929500001000000000000000RA              14903597    005801240000012400000310000003NN  NNW 000                       N    
RDG06929500WATRL000000004K00000000000000497011709102015085717N000000000000N40       000040400K 10000000010000000489           
CUS0692950000106096437006         KUSER THOMAS R,SR   7440 DURWOOD RD                         000N        CARE OF             
MTR06929500001000000000000000RA              14903596    005801250000012500000310000003NN  NNW 000                       N    
RDG06929500WATRL000000004K00000000000000530011809102015085722N000400000010N40       000050400K 10000000010000000522           
CUS0692950000106096438004         PETRELLI MARY       7438 DURWOOD RD                         000N        CARE OF             
MTR06929500001000000000000000RA              24767265    005801260000012600000520000003NN  NNW 000                       N    
RDG06929500WATRL000000004K00000000000003493011909102015085724N000000000000N40       000020400K 10000000010000003481           
CUS0692950000106096439002         SURRATT SHEILA      7436 DURWOOD RD                         000N        CARE OF             
MTR06929500001000000000000000RA              24767257    005801270000012700000520000003NN  NNW 000                       N    
RDG06929500WATRL000000004K00000000000003142012009102015085726N000000000000N40       000020400K 10000000010000003125           
CUS0692950000106096440000         WOOD JOANNE J,TRUSTE7434 DURWOOD RD                         000N        CARE OF             
MTR06929500001000000000000000RA              24767254    005801280000012800000520000003NN  NNW 000                       N    
RDG06929500WATRL000000004K00000000000003827012109102015085733N000300000010N40       000070400K 10000000010000003818           
CUS0692950000106096441008         WISCHHUSEN MICHELLE 7435 DURWOOD RD                         000N        CARE OF             
MTR06929500001000000000000000RA              24767258    005801290000012900000520000000NN  NNW 000                       N    
RDG06929500WATRL000000004K00000000000003114012209102015085743N000000000000N40       000100400K 10000000010000003097           
CUS0692950000106096442006         WLAJNITZ CHARLES    7437 DURWOOD RD                         000N        CARE OF             
MTR06929500001000000000000000RA              52285072    005801300000013000000520000003NN  NNW 000                       N    
RDG06929500WATRL000000004K00000000000001086012309102015085746N000000000000N40       000030400K 10000000010000001075           
CUS0692950000106096443004         SAFEGUARD PROP MANAG7439 DURWOOD RD                         000N        CARE OF             
MTR06929500001000000000000000RA              52285264    005801310000013100000520000003NN  NNW 000                       N    
RDG06929500WATRL000000004K00000000000000889012409212015101745O000300000000U01       000000400K 10000000010000000868           
CUS0692950000106096444002         OBRIEN MARY CAROLYN 7441 DURWOOD RD                         000N        CARE OF             
MTR06929500001000000000000000RA              24767280    005801320000013200000520000003NN  NNW 000                       N    
RDG06929500WATRL000000004K00000000000005400012509102015085818N000000000000N40       000270400K 10000000010000005387           
CUS0692950000106096445009         HUGHES JOHN E,SR    7443 DURWOOD RD                         000N        CARE OF             
MTR06929500001000000000000000RA              24767229    005801330000013300000520000003NN  NNW 000                       N    
RDG06929500WATRL000000004K00000000000002750012609102015085821N000000000000N40       000030400K 10000000010000002729           
CUS0692950000106096446007         SUPER BRENDA L      7445 DURWOOD RD                         000N        CARE OF             
MTR06929500001000000000000000RA              24767227    005801340000013400000520000003NN  NNW 000                       N    
RDG06929500WATRL000000004K00000000000004435012709102015085824N000000000000N40       000030400K 10000000010000004413           
CUS0692950000106096447005         CRANE HENRY F       7447 DURWOOD RD                         000N        CARE OF             
MTR06929500001000000000000000RA              45378131    005801350000013500000520000003NN  NNW 000                       N    
RDG06929500WATRL000000004K00000000000001282012809102015085827N000000000000N40       000030400K 10000000010000001278           
CUS0692950000106096448003         MARTIN PHILLIP J    7449 DURWOOD RD                         000N        CARE OF             
MTR06929500001000000000000000RA              50786392    005801360000013600000520000003NN  NNW 000                       N    
RDG06929500WATRL000000004K00000000000002470012909102015085830N000000000000N40       000030400K 10000000010000002456           
CUS0692950000106096449001         CLARK JOSEPH        7451 DURWOOD RD                         000N        CARE OF             
MTR06929500001000000000000000RA              50786381    005801370000013700000520000003NN  NNW 000                       N    
RDG06929500WATRL000000004K00000000000001756013009102015085833N000000000000N40       000030400K 10000000010000001749           
CUS0692950000106096450009         ISAACS JOHN         7453 DURWOOD RD                         000N        CARE OF             
MTR06929500001000000000000000RA              75616289    005801380000013800000350000003NN  NNW 000                       N    
RDG06929500WATRL000000004K00000000000000000013109102015085835N000000000000N40       000020400K 10000000010000000000           
CUS0692950000106096451007         SCHNEEMAN SCOTT W   7455 DURWOOD RD                         000N        CARE OF             
MTR06929500001000000000000000RA              24767096    005801390000013900000520000003NN  NNW 000                       N    
RDG06929500WATRL000000004K00000000000004620013209102015085839N000000000000N40       000040400K 10000000010000004596           
CUS0692950000106096452005         WESTMORLAND DEBRA   7457 DURWOOD RD                         000N        CARE OF             
MTR06929500001000000000000000RA              24767066    005801400000014000000520000003NN  NNW 000                       N    
RDG06929500WATRL000000004K00000000000004378013309102015085843N000000000000N40       000040400K 10000000010000004343           
CUS0692950000106096453003         EFF NICOLE MICHELLE 7459 DURWOOD RD                         000N        CARE OF             
MTR06929500001000000000000000RA              24767034    005801410000014100000520000003NN  NNW 000                       N    
RDG06929500WATRL000000004K00000000000004987013409102015085846N000000000000N40       000030400K 10000000010000004953           
CUS0692950000106096454001         JOHN STEEDMAN       7461 DURWOOD RD                         000N        CARE OF             
MTR06929500001000000000000000RA              46880259    005801420000014200000520000003NN  NNW 000                       N    
RDG06929500WATRL000000004K00000000000002635013509102015085848N000000000000N40       000020400K 10000000010000002619           
CUS0692950000106096455008         CHARLES H EVERS     7463 DURWOOD RD                         000N        CARE OF             
MTR06929500001000000000000000RA              46880257    005801430000014300000520000003NN  NNW 000                       N    
RDG06929500WATRL000000004K00000000000001700013609102015085850N000000000000N40       000020400K 10000000010000001689           
CUS0692950000106096456006         SCELSI STACEY       7465 DURWOOD RD                         000N        CARE OF             
MTR06929500001000000000000000RA              99286769    005801440000014400000570000003NN  NNW 000                       N    
RDG06929500WATRL000000004K00000000000000962013709102015085852N000000000000N40       000020400K 10000000010000000962           
CUS0692950000106096457004         BAGGERLY RAYMOND J  7467 DURWOOD RD                         000N        CARE OF             
MTR06929500001000000000000000RA              32898207    005801450000014500000520000003NN  NNW 000                       N    
RDG06929500WATRL000000004K00000000000005775013809102015085856N000000000000N40       000040400K 10000000010000005755           
CUS0692950000106096458002         REX A FROST         7469 DURWOOD RD                         000N        CARE OF             
MTR06929500001000000000000000RA              24767036    005801460000014600000520000003NN  NNW 000                       N    
RDG06929500WATRL000000004K00000000000004934013909102015085901N000400000010N40       000050400K 10000000010000004932           
CUS0692950000106096459000         ASHTON TAMMY A      7501 DURWOOD RD                         000N        CARE OF             
MTR06929500001000000000000000RA              14923623    005801470000014700000310000003NN  NNW 000                       N    
RDG06929500WATRL000000004K00000000000000810014009102015085903N000000000000N40       000020400K 10000000010000000763           
CUS0692950000106096460008         EDWARD WALTER SNIADA7503 DURWOOD RD                         000N        CARE OF             
MTR06929500001000000000000000RA              24767062    005801480000014800000520000003NN  NNW 000                       N    
RDG06929500WATRL000000004K00000000000001665014109102015085906N000000000000N40       000030400K 10000000010000001656           
CUS0692950000106096461006         G. & P. STECKLER    7505 DURWOOD RD                         000N        CARE OF             
MTR06929500001000000000000000RA              24767064    005801490000014900000520000003NN  NNW 000                       N    
RDG06929500WATRL000000004K00000000000003149014209102015085909N000000000000N40       000030400K 10000000010000003126           
CUS0692950000106096462004         WOOD DEBORAH ANN    7507 DURWOOD RD                         000N        CARE OF             
MTR06929500001000000000000000RA              24767063    005801500000015000000520000003NN  NNW 000                       N    
RDG06929500WATRL000000004K00000000000007847014309212015101810O000300000000U01       000000400K 10000000010000007662           
CUS0692950000106096463002         BUCKSON ANITA J     7509 DURWOOD RD                         000N        CARE OF             
MTR06929500001000000000000000RA              24767033    005801510000015100000520000003NN  NNW 000                       N    
RDG06929500WATRL000000004K00000000000004036014409102015085940N000300000010N40       000250400K 10000000010000004024           
CUS0692950000106096464000         MINGE SANDRA        7511 DURWOOD RD                         000N        CARE OF             
MTR06929500001000000000000000RA              24767057    005801520000015200000520000003NN  NNW 000                       N    
RDG06929500WATRL000000004K00000000000003365014509102015085941N000000000000N40       000010400K 10000000010000003365           
CUS0692950000106096465007         MR WAYNE KEENER     7513 DURWOOD RD                         000N        CARE OF             
MTR06929500001000000000000000RA              24767060    005801530000015300000520000003NN  NNW 000                       N    
RDG06929500WATRL000000004K00000000000005606014609102015085944N000000000000N40       000030400K 10000000010000005587           
CUS0692950000106096466005         CHARLOTTE O'BRIEN   7515 DURWOOD RD                         000N        CARE OF             
MTR06929500001000000000000000RA              24767035    005801540000015400000520000003NN  NNW 000                       N    
RDG06929500WATRL000000004K00000000000003388014709102015085948N000000000000N40       000040400K 10000000010000003346           
CUS0692950000106096467003         GIBBS LARRY C       7517 DURWOOD RD                         000N        CARE OF             
MTR06929500001000000000000000RA              26011536    005801550000015500000520000003NN  NNW 000                       N    
RDG06929500WATRL000000004K00000000000005689014809102015085951N000000000000N40       000030400K 10000000010000005671           
CUS0692950000106096468001         ABENDSCHOEN MICHAEL 7519 DURWOOD RD                         000N        CARE OF             
MTR06929500001000000000000000RA              01081971    005801560000015600000610000003NN  NNW 000                       N    
RDG06929500WATRL000000004K00000000000001481014909102015085954N000000000000N40       000030400K 10000000010000001456           
CUS0692950000106096469009         7521 DURWOOD LLC    7521 DURWOOD RD                         000N        CARE OF             
MTR06929500001000000000000000RA              01081975    005801570000015700000610000003NN  NNW 000                       N    
RDG06929500WATRL000000004K00000000000002180015009102015085956N000000000000N40       000020400K 10000000010000002142           
CUS0692950000106096470007         SZUMLA RICHARD PAUL 7523 DURWOOD RD                         000N        CARE OF             
MTR06929500001000000000000000RA              48592217    005801580000015800000520000003NN  NNW 000                       N    
RDG06929500WATRL000000004K00000000000000914015109102015085959N000000000000N40       000030400K 10000000010000000851           
CUS0692950000106096471005         MICHAEL MIODUSZEWSKI7525 DURWOOD RD                         000N        CARE OF             
MTR06929500001000000000000000RA              41257697    005801590000015900000520000003NN  NNW 000                       N    
RDG06929500WATRL000000004K00000000000003520015209102015090002N000000000000N40       000030400K 10000000010000003464           
CUS0692950000106096472003         WEBB JOHN O,JR      7527 DURWOOD RD                         000N        CARE OF             
MTR06929500001000000000000000RA              44174596    005801600000016000000520000003NN  NNW 000                       N    
RDG06929500WATRL000000004K00000000000000922015309102015090004N000000000000N40       000020400K 10000000010000000908           
CUS0692950000106096473001         MOUTANNI AICHA      7529 DURWOOD RD                         000N        CARE OF             
MTR06929500001000000000000000RA              24767234    005801610000016100000520000003NN  NNW 000                       N    
RDG06929500WATRL000000004K00000000000002711015409102015090016N000000000010N40       000120400K 10000000010000002708           
CUS0692950000106096474009         HAYDEN BRANDY L     7531 DURWOOD RD                         000N        CARE OF             
MTR06929500001000000000000000RA              01112612    005801620000016200000610000003NN  NNW 000                       N    
RDG06929500WATRL000000004K00000000000000489015509102015090021N000000000000N40       000050400K 10000000010000000486           
CUS0692950000106096475006         FINNERTY CAROLYN JEA7533 DURWOOD RD                         000N        CARE OF             
MTR06929500001000000000000000RA              01112606    005801630000016300000610000003NN  NNW 000                       N    
RDG06929500WATRL000000004K00000000000000488015609102015090027N000000000000N40       000060400K 10000000010000000483           
CUS0692950000106096476004         FRANK J SOBCZYNSKI J7535 DURWOOD RD                         000N        CARE OF             
MTR06929500001000000000000000RA              41075596    005801640000016400000520000003NN  NNW 000                       N    
RDG06929500WATRL000000004K00000000000001441015709102015090030N000000000000N40       000030400K 10000000010000001435           
CUS0692950000106096477002         MCNEILL TROY J      7534 DURWOOD RD                         000N        CARE OF             
MTR06929500001000000000000000RA              36688695    005801650000016500000520000003NN  NNW 000                       N    
RDG06929500WATRL000000004K00000000000002536000009212015101840O000000000000U01       000000400K 10000000010000002506           
CUS0692950000106096478000         GRIEB CHARLOTTE J   7532 DURWOOD RD                         000N        CARE OF             
MTR06929500001000000000000000RA              36688692    005801660000016600000520000003NN  NNW 000                       N    
RDG06929500WATRL000000004K00000000000003080000009212015101854O000000000000U01       000000400K 10000000010000003062           
CUS0692950000106096479008         DAVID KOSLOREK      7530 DURWOOD RD                         000N        CARE OF             
MTR06929500001000000000000000RA              76348107    005801670000016700000350000003NN  NNW 000                       N    
RDG06929500WATRL000000004K00000000000000019015809102015090043N000000000000N40       000130400K 10000000010000000014           
CUS0692950000106096480006         GOUDY WADE N        7528 DURWOOD RD                         000N        CARE OF             
MTR06929500001000000000000000RA              99188491    005801680000016800000570000003NN  NNW 000                       N    
RDG06929500WATRL000000004K00000000000000588015909102015090045N000000000000N40       000020400K 10000000010000000584           
CUS0692950000106096481004         LORRIE SIMONS       7526 DURWOOD RD                         000N        CARE OF             
MTR06929500001000000000000000RA              01090791    005801690000016900000610000003NN  NNW 000                       N    
RDG06929500WATRL000000004K00000000000001824016009102015090048N000000000000N40       000030400K 10000000010000001797           
CUS0692950000106096482002         THEODORE E STAAB    7524 DURWOOD RD                         000N        CARE OF             
MTR06929500001000000000000000RA              50791602    005801700000017000000520000003NN  NNW 000                       N    
RDG06929500WATRL000000004K00000000000000000000000000000000000 000000000000U         000000400  10000000010000001519           
CUS0692950000106096483000         ARTHUR DOUGLAS      7522 DURWOOD RD                         000N        CARE OF             
MTR06929500001000000000000000RA              45378130    005801710000017100000520000003NN  NNW 000                       N    
RDG06929500WATRL000000004K00000000000001892016109102015090057N000000000010N40       000090400K 10000000010000001830           
CUS0692950000106096484008         LEBRUN JOSEPH JOHN  7520 DURWOOD RD                         000N        CARE OF             
MTR06929500001000000000000000RA              46880310    005801720000017200000520000003NN  NNW 000                       N    
RDG06929500WATRL000000004K00000000000001876016209102015090100N000000000000N40       000030400K 10000000010000001869           
CUS0692950000106096485005         SHEIKO CHRISTINE M  7518 DURWOOD RD                         000N        CARE OF             
MTR06929500001000000000000000RA              46880285    005801730000017300000520000003NN  NNW 000                       N    
RDG06929500WATRL000000004K00000000000001410016309102015090104N000000000000N40       000040400K 10000000010000001407           
CUS0692950000106096486003         FOSTER RUBY         7516 DURWOOD RD                         000N        CARE OF             
MTR06929500001000000000000000RA              01104134    005801740000017400000610000003NN  NNW 000                       N    
RDG06929500WATRL000000004K00000000000001710016409102015090107N000000000000N40       000030400K 10000000010000001620           
CUS0692950000106096487001         BROOKS VINCENT PETER7514 DURWOOD RD                         000N        CARE OF             
MTR06929500001000000000000000RA              24767235    005801750000017500000520000003NN  NNW 000                       N    
RDG06929500WATRL000000004K00000000000001401016509102015090110N000000000000N40       000030400K 10000000010000001392           
CUS0692950000106096488009         PAUGH RICHARD EARL  7512 DURWOOD RD                         000N        CARE OF             
MTR06929500001000000000000000RA              24767220    005801760000017600000520000003NN  NNW 000                       N    
RDG06929500WATRL000000004K00000000000003074016609102015090113N000000000000N40       000030400K 10000000010000003065           
CUS0692950000106096489007         LAUREN RUPKEY       7510 DURWOOD RD                         000N        CARE OF             
MTR06929500001000000000000000RA              21194585    005801770000017700000520000003NN  NNW 000                       N    
RDG06929500WATRL000000004K00000000000004784016709102015090118N000400000010N40       000050400K 10000000010000004780           
CUS0692950000106096490005         PUPEK DAVID B/MICHEL7508 DURWOOD RD                         000N        CARE OF             
MTR06929500001000000000000000RA              45378149    005801780000017800000520000003NN  NNW 000                       N    
RDG06929500WATRL000000004K00000000000002384016809102015090125N000400000010N40       000070400K 10000000010000002357           
CUS0692950000106096491003         DEBRIDGET THOMAS ANT7506 DURWOOD RD                         000N        CARE OF             
MTR06929500001000000000000000RA              10003832    005801790000017900000570000003NN  NNW 000                       N    
RDG06929500WATRL000000004K00000000000000319016909102015090128N000000000000N40       000030400K 10000000010000000306           
CUS0692950000106096492001         KASTINA WALTER      7504 DURWOOD RD                         000N        CARE OF             
MTR06929500001000000000000000RA              24767196    005801800000018000000520000003NN  NNW 000                       N    
RDG06929500WATRL000000004K00000000000000269017009102015090130N000000000000N40       000020400K 10000000010000000252           
CUS0692950000106096493009         LAURA R. MICHAEL    7502 DURWOOD RD                         000N        CARE OF             
MTR06929500001000000000000000RA              10012625    005801810000018100000570000003NN  NNW 000                       N    
RDG06929500WATRL000000004K00000000000000136017109102015090132N000000000000N40       000020400K 10000000010000000129           
CUS0692950000106096494007         JAMES H FREIDLINE   7500 DURWOOD RD                         000N        CARE OF             
MTR06929500001000000000000000RA              2476194     005801820000018200000520000003NN  NNW 000                       N    
RDG06929500WATRL000000004K00000000000005800017209102015090134N000000000000N40       000020400K 10000000010000005780           
RTR06929500NN01820182000001820000000001820182000015NY018201820182000400020000000000000000000002    08122015NY020000 N         
RHD06951400NN01730173000001730000000001730173000077NY017301730173000000030000000000000000000002    08142015NY020000 N         
CUS0695140000106104886004         KLANK MORRIS ELSWORT1700 LANGPORT AVE                       000N        CARE OF             
MTR06951400001000000000000000RA              41258469    005800010000000100000520000003NN  NNW 000                       N    
RDG06951400WATRL000000004K00000000000003463000109112015075932N000000000000N93       000000400K 10000000010000003453           
CUS0695140000106104887002         FOEHRKOLB MICHAEL   1702 LANGPORT AVE                       000N        CARE OF             
MTR06951400001000000000000000RA              00133221    005800020000000200000570000003NN  NNW 000                       N    
RDG06951400WATRL000000004K00000000000001568000209112015075935N000000000000N93       000030400K 10000000010000001552           
CUS0695140000106104888000         BANDY DANIEL W,JR   1704 LANGPORT AVE                       000N        CARE OF             
MTR06951400001000000000000000RA              99286684    005800030000000300000570000003NN  NNW 000                       N    
RDG06951400WATRL000000004K00000000000001109000309112015080011N000000000000N93       000360400K 10000000010000001084           
CUS0695140000106104889008         WHEELER THOMAS G    1706 LANGPORT AVE                       000N        CARE OF             
MTR06951400001000000000000000RA              29403437    005800040000000400000520000003NN  NNW 000                       N    
RDG06951400WATRL000000004K00000000000003142000409112015080045N000300000010N93       000340400K 10000000010000003051           
CUS0695140000106104890006         BEACH ANNA E        1708 LANGPORT AVE                       000N        CARE OF             
MTR06951400001000000000000000RA              29403359    005800050000000500000520000003NN  NNW 000                       N    
RDG06951400WATRL000000004K00000000000001443000509112015080115N000000000010N93       000300400K 10000000010000001454           
CUS0695140000106104891004         BURDETTE KATHLEEN H 1710 LANGPORT AVE                       000N        CARE OF             
MTR06951400001000000000000000RA              31936378    005800060000000600000520000003NN  NNW 000                       N    
RDG06951400WATRL000000004K00000000000002258000609112015080140N000000000000N93       000250400K 10000000010000002249           
CUS0695140000106104892002         RENEE FOEHRKOLB     1712 LANGPORT AVE                       000N        CARE OF             
MTR06951400001000000000000000RA              31936383    005800070000000700000520000003NN  NNW 000                       N    
RDG06951400WATRL000000004K00000000000004086000709112015080152N000000000000N93       000120400K 10000000010000004063           
CUS0695140000106104893000         WICHNER NEIL H      1714 LANGPORT AVE                       000N        CARE OF             
MTR06951400001000000000000000RA              23050928    005800080000000800000520000003NN  NNW 000                       N    
RDG06951400WATRL000000004K00000000000004174000809112015080211N000000000000N93       000190400K 10000000010000004160           
CUS0695140000106104894008         JULIAN CATHY        1716 LANGPORT AVE                       000N        CARE OF             
MTR06951400001000000000000000RA              52770393    005800090000000900000520000003NN  NNW 000                       N    
RDG06951400WATRL000000004K00000000000001308000909112015080233N000000000000N93       000220400K 10000000010000001239           
CUS0695140000106104895005         MCGAINEY RICHARD J,S1718 LANGPORT AVE                       000N        CARE OF             
MTR06951400001000000000000000RA              52770390    005800100000001000000520000003NN  NNW 000                       N    
RDG06951400WATRL000000004K00000000000001779001009112015080235N000000000000N93       000020400K 10000000010000001734           
CUS0695140000106104896003         GLAMOND MARK R      1720 LANGPORT AVE                       000N        CARE OF             
MTR06951400001000000000000000RA              32904832    005800110000001100000520000003NN  NNW 000                       N    
RDG06951400WATRL000000004K00000000000004740001109112015080309N000000000000N93       000340400K 10000000010000004699           
CUS0695140000106104897001         HOM BOCK H          1722 LANGPORT AVE                       000N        CARE OF             
MTR06951400001000000000000000RA              30513428    005800120000001200000520000003NN  NNW 000                       N    
RDG06951400WATRL000000004K00000000000001720001209112015080311N000000000000N93       000020400K 10000000010000001716           
CUS0695140000106104898009         TULLY JOSEPH F      1724 LANGPORT AVE                       000N        CARE OF             
MTR06951400001000000000000000RA              35110796    005800130000001300000520000003NN  NNW 000                       N    
RDG06951400WATRL000000004K00000000000001499001309112015080329N000000000000N93       000180400K 10000000010000001492           
CUS0695140000106104899007         RYAN JACK GWALTNEY  1726 LANGPORT AVE                       000N        CARE OF             
MTR06951400001000000000000000RA              14908521    005800140000001400000310000003NN  NNW 000                       N    
RDG06951400WATRL000000004K00000000000000585001409112015080350N000400000010N93       000210400K 10000000010000000562           
CUS0695140000106104900003         JARVIS EARL FRANK   1728 LANGPORT AVE                       000N        CARE OF             
MTR06951400001000000000000000RA              14908520    005800150000001500000310000003NN  NNW 000                       N    
RDG06951400WATRL000000004K00000000000001184001509112015080405N000400000010N93       000150400K 10000000010000001160           
CUS0695140000106104901001         MOONEY SEAN P       1730 LANGPORT AVE                       000N        CARE OF             
MTR06951400001000000000000000RA              10023998    005800160000001600000570000003NN  NNW 000                       N    
RDG06951400WATRL000000004K00000000000000307000009212015102734O000000000000U01       000000400K 10000000010000000283           
CUS0695140000106104902009         PALASIK CHARLES F,JR1732 LANGPORT AVE                       000N        CARE OF             
MTR06951400001000000000000000RA              01094281    005800170000001700000610000003NN  NNW 000                       N    
RDG06951400WATRL000000004K00000000000000689000009212015102756O000000000000U01       000000400K 10000000010000000683           
CUS0695140000106104903007         KRAUSZ EARL K       1734 LANGPORT AVE                       000N        CARE OF             
MTR06951400001000000000000000RA              23648581    005800180000001800000520000003NN  NNW 000                       N    
RDG06951400WATRL000000004K00000000000004232001609112015080531N000000000000N93       000860400K 10000000010000004219           
CUS0695140000106104904005         GENTRY JAMIE N      1736 LANGPORT AVE                       000N        CARE OF             
MTR06951400001000000000000000RA              32574266    005800190000001900000520000003NN  NNW 000                       N    
RDG06951400WATRL000000004K00000000000002386001709112015080603N000000000000N93       000320400K 10000000010000002379           
CUS0695140000106104905002         KRAEMER HARRY E,JR  1738 LANGPORT AVE                       000N        CARE OF             
MTR06951400001000000000000000RA              35117524    005800200000002000000520000003NN  NNW 000                       N    
RDG06951400WATRL000000004K00000000000001674001809112015080617N000300000010N93       000140400K 10000000010000001658           
CUS0695140000106104906000         PUHLICK ROBERT A    1740 LANGPORT AVE                       000N        CARE OF             
MTR06951400001000000000000000RA              35118859    005800210000002100000520000003NN  NNW 000                       N    
RDG06951400WATRL000000004K00000000000001760001909112015080621N000000000000N93       000040400K 10000000010000001750           
CUS0695140000106104907008         NIGHTENGALE SHARAN M1742 LANGPORT AVE                       000N        CARE OF             
MTR06951400001000000000000000RA              41082535    005800220000002200000520000003NY  NNW 000                       N    
MTM0695140041082535    cloudy                                                                                                 
RDG06951400WATRL000000004K00000000000002439000009212015102816O000300000000U01       000000400K 10000000010000002416           
CUS0695140000106104908006         CITYSIDE MANAGEMENT 1744 LANGPORT AVE                       000N        CARE OF             
MTR06951400001000000000000000RA              44174783    005800230000002300000520000003NN  NNW 000                       N    
RDG06951400WATRL000000004K00000000000002722002009112015080711N000000000000N93       000500400K 10000000010000002722           
CUS0695140000106104909004         MCCOY DONALD R,2ND  1746 LANGPORT AVE                       000N        CARE OF             
MTR06951400001000000000000000RA              30523968    005800240000002400000520000003NY  NNW 000                       N    
MTM0695140030523968    dirt                                                                                                   
RDG06951400WATRL000000004K00000000000003147000009212015102845O000300000000U01       000000400K 10000000010000003159           
CUS0695140000106104910002         NOVAK FRANCIS W     1748 LANGPORT AVE                       000N        CARE OF             
MTR06951400001000000000000000RA              76349244    005800250000002500000350000003NN  NNW 000                       N    
RDG06951400WATRL000000004K00000000000000131002109112015080928N000000000000N93       001370400K 10000000010000000106           
CUS0695140000106104911000         WHITE RICHARD EDWARD1750 LANGPORT AVE                       000N        CARE OF             
MTR06951400001000000000000000RA              99389145    005800260000002600000570000003NN  NNW 000                       N    
RDG06951400WATRL000000004K00000000000001366002209112015080930N000000000000N93       000020400K 10000000010000001348           
CUS0695140000106104912008         STAKIAS SOTIRIOS M  1752 LANGPORT AVE                       000N        CARE OF             
MTR06951400001000000000000000RA              00133224    005800270000002700000570000003NN  NNW 000                       N    
RDG06951400WATRL000000004K00000000000001852002309112015081001N000400000010N93       000310400K 10000000010000001815           
CUS0695140000106104913006         WILMOTH ELIZABETH P 1754 LANGPORT AVE                       000N        CARE OF             
MTR06951400001000000000000000RA              00133222    005800280000002800000570000003NN  NNW 000                       N    
RDG06951400WATRL000000004K00000000000001581002409112015081006N000400000010N93       000050400K 10000000010000001550           
CUS0695140000106104914004         MCCORMICK LYNDA C   1756 LANGPORT AVE                       000N        CARE OF             
MTR06951400001000000000000000RA              00133223    005800290000002900000570000003NN  NNW 000                       N    
RDG06951400WATRL000000004K00000000000007934002509112015081046N000000000000N93       000400400K 10000000010000007931           
CUS0695140000106104915001         FERRARI PASQUALINA S1758 LANGPORT AVE                       000N        CARE OF             
MTR06951400001000000000000000RA              45383166    005800300000003000000520000003NN  NNW 000                       N    
RDG06951400WATRL000000004K00000000000002791002609112015081107N000000000000N93       000210400K 10000000010000002769           
CUS0695140000106104916009         NATIONSTAR MORTGAGE 1760 LANGPORT AVE                       000N        CARE OF             
MTR06951400001000000000000000RA              45383165    005800310000003100000520000003NN  NNW 000                       N    
RDG06951400WATRL000000004K00000000000001967002709112015081113N000100000010N93       000060400K 10000000010000001967           
CUS0695140000106104917007         BIALECKI MARY M     1762 LANGPORT AVE                       000N        CARE OF             
MTR06951400001000000000000000RA              50478722    005800320000003200000520000003NN  NNW 000                       N    
RDG06951400WATRL000000004K00000000000001080002809112015081156N000000000000N93       000430400K 10000000010000001065           
CUS0695140000106104918005         LANE JAMES DAVID    1764 LANGPORT AVE                       000N        CARE OF             
MTR06951400001000000000000000RA              50478716    005800330000003300000520000003NY  NNW 000                       N    
MTM0695140050478716    yoke                                                                                                   
RDG06951400WATRL000000004K00000000000000000000009212015102908S022000000000U01       000000400K 10000000010000000940           
CUS0695140000106104919003         MCCORMACK ELAINE    1766 LANGPORT AVE                       000N        CARE OF             
MTR06951400001000000000000000RA              52290478    005800340000003400000520000003NN  NNW 000                       N    
RDG06951400WATRL000000004K00000000000001143002909112015081234N000000000000N93       000380400K 10000000010000001136           
CUS0695140000106104920001         COLSTON DAVID G     1768 LANGPORT AVE                       000N        CARE OF             
MTR06951400001000000000000000RA              24757848    005800350000003500000520000003NN  NNW 000                       N    
RDG06951400WATRL000000004K00000000000002799003009112015081253N000000000000N93       000190400K 10000000010000002779           
CUS0695140000106104921009         REGINALD COLMORE    1770 LANGPORT AVE                       000N        CARE OF             
MTR06951400001000000000000000RA              29403936    005800360000003600000520000003NN  NNW 000                       N    
RDG06951400WATRL000000004K00000000000003018003109112015081310N000000000000N93       000170400K 10000000010000002999           
CUS0695140000106104922007         WOOD EARLE A        1772 LANGPORT AVE                       000N        CARE OF             
MTR06951400001000000000000000RA              29403932    005800370000003700000520000003NN  NNW 000                       N    
RDG06951400WATRL000000004K00000000000005289003209112015081322N000400000010N93       000120400K 10000000010000005276           
CUS0695140000106104923005         WAJBEL DALE A       1774 LANGPORT AVE                       000N        CARE OF             
MTR06951400001000000000000000RA              29681601    005800380000003800000520000003NN  NNW 000                       N    
RDG06951400WATRL000000004K00000000000003525003309112015081350N000100000010N93       000280400K 10000000010000003525           
CUS0695140000106104924003         SMITH ELLEN M       1776 LANGPORT AVE                       000N        CARE OF             
MTR06951400001000000000000000RA              50787397    005800390000003900000520000003NN  NNW 000                       N    
RDG06951400WATRL000000004K00000000000001380003409112015081424N000000000000N93       000340400K 10000000010000001367           
CUS0695140000106104925000         DODGE HARRY M       1777 STOKESLEY RD                       000N        CARE OF             
MTR06951400001000000000000000RA              76349360    005800400000004000000350000003NN  NNW 000                       N    
RDG06951400WATRL000000004K00000000000000057003509112015081609N000000000000N93       001050400K 10000000010000000046           
CUS0695140000106104926008         LEAF STEVEN L       1775 STOKESLEY RD                       000N        CARE OF             
MTR06951400001000000000000000RA              42810548    005800410000004100000520000003NN  NNW 000                       N    
RDG06951400WATRL000000004K00000000000001580003609112015081611N000000000000N93       000020400K 10000000010000001565           
CUS0695140000106104927006         KATHELEEN O'MAY     1773 STOKESLEY RD                       000N        CARE OF             
MTR06951400001000000000000000RA              14904452    005800420000004200000310000003NN  NNW 000                       N    
RDG06951400WATRL000000004K00000000000000446003709112015081653N000000000010N93       000420400K 10000000010000000452           
CUS0695140000106104928004         MCCAULEY JOSEPH W,SR1771 STOKESLEY RD                       000N        CARE OF             
MTR06951400001000000000000000RA              14904456    005800430000004300000310000003NN  NNW 000                       N    
RDG06951400WATRL000000004K00000000000000899003809112015081655N000000000000N93       000020400K 10000000010000000883           
CUS0695140000106104929002         WEAKLAND ANDREW H   1769 STOKESLEY RD                       000N        CARE OF             
MTR06951400001000000000000000RA              50478747    005800440000004400000520000003NN  NNW 000                       N    
RDG06951400WATRL000000004K00000000000002102003909112015081719N000000000000N93       000240400K 10000000010000002087           
CUS0695140000106104930000         EDWARDS RONALD L,JR 1767 STOKESLEY RD                       000N        CARE OF             
MTR06951400001000000000000000RA              50478718    005800450000004500000520000003NN  NNW 000                       N    
RDG06951400WATRL000000004K00000000000001441004009112015081722N000000000000N93       000030400K 10000000010000001399           
CUS0695140000106104931008         CICHY MILTON M(DEC) 1765 STOKESLEY RD                       000N        CARE OF             
MTR06951400001000000000000000RA              99388347    005800460000004600000570000003NY  NNW 000                       N    
MTM0695140099388347    dirt                                                                                                   
RDG06951400WATRL000000004K00000000000000065000009212015103034O000300000000U01       000000400K 10000000010000000060           
CUS0695140000106104932006         BEVERLY BRIANNA M   1763 STOKESLEY RD                       000N        CARE OF             
MTR06951400001000000000000000RA              35103194    005800470000004700000520000003NY  NNW 000                       N    
MTM0695140035103194    dirt                                                                                                   
RDG06951400WATRL000000004K00000000000003286000009212015103151O000000000000U01       000000400K 10000000010000003257           
CUS0695140000106104933004         MALVASO RICKY BRYANT1761 STOKESLEY RD                       000N        CARE OF             
MTR06951400001000000000000000RA              41088090    005800480000004800000520000003NN  NNW 000                       N    
RDG06951400WATRL000000004K00000000000001527004109112015081841N000000000000N93       000790400K 10000000010000001512           
CUS0695140000106104934002         BERNACKI RENEE      1759 STOKESLEY RD                       000N        CARE OF             
MTR06951400001000000000000000RA              41088108    005800490000004900000520000003NN  NNW 000                       N    
RDG06951400WATRL000000004K00000000000002670004209112015081843N000000000000N93       000020400K 10000000010000002657           
CUS0695140000106104935009         JARRELL MELINDA F   1757 STOKESLEY RD                       000N        CARE OF             
MTR06951400001000000000000000RA              52289712    005800500000005000000520000003NN  NNW 000                       N    
RDG06951400WATRL000000004K00000000000003173004309112015081908N000000000000N93       000250400K 10000000010000003099           
CUS0695140000106104936007         ERVIN JUSTIN M      1755 STOKESLEY RD                       000N        CARE OF             
MTR06951400001000000000000000RA              29403965    005800510000005100000520000003NN  NNW 000                       N    
RDG06951400WATRL000000004K00000000000001843004409112015081910N000000000000N93       000020400K 10000000010000001829           
CUS0695140000106104937005         MIKOLAICHIK BASIL   1753 STOKESLEY RD                       000N        CARE OF             
MTR06951400001000000000000000RA              14908522    005800520000005200000310000003NN  NNW 000                       N    
RDG06951400WATRL000000004K00000000000000642004509112015081940N000000000000N93       000300400K 10000000010000000642           
CUS0695140000106104938003         MILBOURNE ROY M     1751 STOKESLEY RD                       000N        CARE OF             
MTR06951400001000000000000000RA              14908524    005800530000005300000310000003NN  NNW 000                       N    
RDG06951400WATRL000000004K00000000000000347004609112015081942N000000000000N93       000020400K 10000000010000000325           
CUS0695140000106104939001         NUZZO MARK A        1749 STOKESLEY RD                       000N        CARE OF             
MTR06951400001000000000000000RA              52287015    005800540000005400000520000003NN  NNW 000                       N    
RDG06951400WATRL000000004K00000000000002512004709112015081958N000000000000N93       000160400K 10000000010000002497           
CUS0695140000106104940009         SPERRY JEROME D     1747 STOKESLEY RD                       000N        CARE OF             
MTR06951400001000000000000000RA              50481870    005800550000005500000520000003NN  NNW 000                       N    
RDG06951400WATRL000000004K00000000000003050004809112015082000N000000000000N93       000020400K 10000000010000003035           
CUS0695140000106104941007         MERTENS AMANDA      1745 STOKESLEY RD                       000N        CARE OF             
MTR06951400001000000000000000RA              39923828    005800560000005600000520000003NN  NNW 000                       N    
RDG06951400WATRL000000004K00000000000003240004909112015082030N000000000000N93       000300400K 10000000010000003233           
CUS0695140000106104942005         PHELPS NANCY L      1743 STOKESLEY RD                       000N        CARE OF             
MTR06951400001000000000000000RA              39923931    005800570000005700000520000003NN  NNW 000                       N    
RDG06951400WATRL000000004K00000000000003414005009112015082032N000000000000N93       000020400K 10000000010000003391           
CUS0695140000106104943003         BOSSE RAYMONDA M    1741 STOKESLEY RD                       000N        CARE OF             
MTR06951400001000000000000000RA              00132254    005800580000005800000570000003NN  NNW 000                       N    
RDG06951400WATRL000000004K00000000000000795005109112015082102N000000000010N93       000300400K 10000000010000000796           
CUS0695140000106104944001         HOM BOCK H          1739 STOKESLEY RD                       000N        CARE OF             
MTR06951400001000000000000000RA              00132298    005800590000005900000570000003NN  NNW 000                       N    
RDG06951400WATRL000000004K00000000000002014005209112015082105N000000000000N93       000030400K 10000000010000001987           
CUS0695140000106104945008         LAMBDIN LAURENCE F  1737 STOKESLEY RD                       000N        CARE OF             
MTR06951400001000000000000000RA              00132249    005800600000006000000570000003NN  NNW 000                       N    
RDG06951400WATRL000000004K00000000000000567005309112015082129N000000000000N93       000240400K 10000000010000000560           
CUS0695140000106104946006         THOMAS EARNEST A    1735 STOKESLEY RD                       000N        CARE OF             
MTR06951400001000000000000000RA              00132252    005800610000006100000570000003NN  NNW 000                       N    
RDG06951400WATRL000000004K00000000000000941005409112015082131N000000000000N93       000020400K 10000000010000000935           
CUS0695140000106104947004         MOORE SHAWN D       1733 STOKESLEY RD                       000N        CARE OF             
MTR06951400001000000000000000RA              35111537    005800620000006200000520000003NN  NNW 000                       N    
RDG06951400WATRL000000004K00000000000001837005509112015082206N000000000010N93       000350400K 10000000010000001833           
CUS0695140000106104948002         ARROYO LUIS A       1731 STOKESLEY RD                       000N        CARE OF             
MTR06951400001000000000000000RA              35111539    005800630000006300000520000003NN  NNW 000                       N    
RDG06951400WATRL000000004K00000000000003628005609112015082208N000000000000N93       000020400K 10000000010000003607           
CUS0695140000106104949000         SZYMANIK HELEN FRANC1729 STOKESLEY RD                       000N        CARE OF             
MTR06951400001000000000000000RA              00131899    005800640000006400000570000003NN  NNW 000                       N    
RDG06951400WATRL000000004K00000000000000798005709112015082251N000000000000N93       000430400K 10000000010000000764           
CUS0695140000106104950008         STANOWSKI SUSAN M   1727 STOKESLEY RD                       000N        CARE OF             
MTR06951400001000000000000000RA              00129578    005800650000006500000570000003NN  NNW 000                       N    
RDG06951400WATRL000000004K00000000000001716005809112015082256N000400000010N93       000050400K 10000000010000001684           
CUS0695140000106104951006         MITCHELL PHILLIP W  1725 STOKESLEY RD                       000N        CARE OF             
MTR06951400001000000000000000RA              52290480    005800660000006600000520000003NY  NNW 000                       N    
MTM0695140052290480    dirt                                                                                                   
RDG06951400WATRL000000004K00000000000000746000009212015103210O000300000000U01       000000400K 10000000010000000758           
CUS0695140000106104952004         VIANDS KRISTIE L    1723 STOKESLEY RD                       000N        CARE OF             
MTR06951400001000000000000000RA              48586757    005800670000006700000520000003NY  NNW 000                       N    
MTM0695140048586757    dirt                                                                                                   
RDG06951400WATRL000000004K00000000000002929005909112015082427N000008400000N93       000910400K 10000000010000002899           
CUS0695140000106104953002         WOZNIAK EDWARD J    1721 STOKESLEY RD                       000N        CARE OF             
MTR06951400001000000000000000RA              76344390    005800680000006800000350000003NN  NNW 000                       N    
RDG06951400WATRL000000004K00000000000000094006009112015082450N000000000000N93       000230400K 10000000010000000079           
CUS0695140000106104954000         WERNER STACEY M     1719 STOKESLEY RD                       000N        CARE OF             
MTR06951400001000000000000000RA              14909135    005800690000006900000310000003NN  NNW 000                       N    
RDG06951400WATRL000000004K00000000000000576006109112015082518N000000000000N93       000280400K 10000000010000000562           
CUS0695140000106104955007         OMAY JEANNE M       1717 STOKESLEY RD                       000N        CARE OF             
MTR06951400001000000000000000RA              14909136    005800700000007000000310000003NN  NNW 000                       N    
RDG06951400WATRL000000004K00000000000000773006209112015082520N000000000000N93       000020400K 10000000010000000746           
CUS0695140000106104956005         JAWORSKI MARK LEE   1715 STOKESLEY RD                       000N        CARE OF             
MTR06951400001000000000000000RA              52290481    005800710000007100000520000003NY  NNW 000                       N    
MTM0695140052290481    dirt                                                                                                   
RDG06951400WATRL000000004K00000000000002286000009212015103301O000400000000U01       000000400K 10000000010000002268           
CUS0695140000106104957003         BATES JAMES RUSSELL,1713 STOKESLEY RD                       000N        CARE OF             
MTR06951400001000000000000000RA              40321906    005800720000007200000520000003NN  NNW 000                       N    
RDG06951400WATRL000000004K00000000000006312006309112015082605N000400000010N93       000450400K 10000000010000006293           
CUS0695140000106104958001         SWEAT CORY          1711 STOKESLEY RD                       000N        CARE OF             
MTR06951400001000000000000000RA              40321862    005800730000007300000520000003NN  NNW 000                       N    
RDG06951400WATRL000000004K00000000000001300006409112015082607N000000000000N93       000020400K 10000000010000001288           
CUS0695140000106104959009         FAJKOWSKI JOSEPH M  1709 STOKESLEY RD                       000N        CARE OF             
MTR06951400001000000000000000RA              38985478    005800740000007400000520000003NN  NNW 000                       N    
RDG06951400WATRL000000004K00000000000001361006509112015082632N000000000000N93       000250400K 10000000010000001354           
CUS0695140000106104960007         WALLACE TONYA R     1707 STOKESLEY RD                       000N        CARE OF             
MTR06951400001000000000000000RA              14920227    005800750000007500000310000003NN  NNW 000                       N    
RDG06951400WATRL000000004K00000000000000533006609112015082634N000000000000N93       000020400K 10000000010000000502           
CUS0695140000106104961005         ROMINE RICHARD W    1705 STOKESLEY RD                       000N        CARE OF             
MTR06951400001000000000000000RA              00132250    005800760000007600000570000003NN  NNW 000                       N    
RDG06951400WATRL000000004K00000000000001074006709112015082650N000000000000N93       000160400K 10000000010000001053           
CUS0695140000106104962003         BONNELL GERALD PATTO1703 STOKESLEY RD                       000N        CARE OF             
