FHDNNNN026005594005594005594N                                                                                           020720
RHD06308800NN00780078000000780000000000780078000044NY007800780078000000090000000000000000000002    07152015NY020000 N         
CUS0630880000106368113004         ROMERO, EVA VIRGINIA822 N MILTON AVE                        000N        CARE OF             
MTR06308800001000000000000000RA              74688133    005800010000000100000350000003NN  NNW 000   VACANT PROPERTY     N    
RDG06308800WATRL000000004K00000000000000000000110012015065657N000000000000U40       000000400K 10000000010000000000           
CUS0630880000106189516005         LAPRADE-NEAL, ANGELA814 N MILTON AVE                        000N        CARE OF             
MTR06308800001000000000000000RA              74688092    005800020000000200000350000003NN  NNW 000                       N    
RDG06308800WATRL000000004K00000000000000000000210012015065738N000000000000U40       000410400K 10000000010000000000           
CUS0630880000106189517003         COUNTRY WALK ENTERPR812 N MILTON AVE                        000N        CARE OF             
MTR06308800001000000000000000RA              75613602    005800030000000300000350000003NN  NNW 000                       N    
RDG06308800WATRL000000004K00000000000000482000310012015065809N000300000010U40       000310400K 10000000010000000435           
CUS0630880000106189519009         BRIGITTE D N BLAKE  808 N MILTON AVE                        000N        CARE OF             
MTR06308800001000000000000000RA              74688129    005800040000000400000350000003NN  NNW 000                       N    
RDG06308800WATRL000000004K00000000000000025000410012015065836N000000000010U40       000270400K 10000000010000000022           
CUS0630880000106189520007         JOAN JEFFERSON      806 N MILTON AVE                        000N        CARE OF             
MTR06308800001000000000000000RA              74688128    005800050000000500000350000003NN  NNW 000                       N    
RDG06308800WATRL000000004K00000000000000122000510012015065907N000000000000U40       000310400K 10000000010000000103           
CUS0630880000106189522003         GLADYS M EDGES      802 N MILTON AVE                        000N        CARE OF             
MTR06308800001000000000000000RA              74688093    005800060000000600000350000003NN  NNW 000                       N    
RDG06308800WATRL000000004K00000000000000116000610012015065942N000300000010U40       000350400K 10000000010000000094           
CUS0630880000106357338000         BANK OF AMERICA, NA 2428 E MADISON ST                       000N        CARE OF             
MTR06308800001000000000000000RA              21723251    005800070000000700000590000003NN  NNW 000                       N    
RDG06308800WATRL000000004K00000000000000000000710012015070018S022000000000U40       000360400K 10000000010000000461           
CUS0630880000106373125001         PETERSON, ALETT LINN2426 E MADISON ST                       000N        CARE OF             
MTR06308800001000000000000000RA              75422214    005800080000000800000350000003NN  NNW 000                       N    
RDG06308800WATRL000000004K00000000000000209000810012015070041N000000000000U40       000230400K 10000000010000000156           
CUS0630880000106355339000         RDA LLC             807 N PORT ST                           000N        CARE OF             
MTR06308800001000000000000000RA              78023765    005800090000000900000360000003NN  NNW 000                       N    
RDG06308800WATRL000000004K00000000000000000000910012015070151N000000000000U40       000700400K 10000000010000000000           
CUS0630880000106189530006         DUNN RENTALS, LLC   809 N PORT ST                           000N        CARE OF             
MTR06308800001000000000000000RA              78023448    005800100000001000000350000003NN  NNW 000                       N    
RDG06308800WATRL000000004K00000000000000000001010012015070234S001000000000U40       000430400K 10000000010000000000           
CUS0630880000106366012000         DUNN MANAGEMENT, LLC813 N PORT ST                           000N        CARE OF             
MTR06308800001000000000000000RA              74689165    005800110000001100000350000003NN  NNW 000                       N    
RDG06308800WATRL000000004K00000000000000317001110012015070300N000000000000U40       000260400K 10000000010000000293           
CUS0630880000106189532002         WILLIAMS, LAURA C   819 N PORT ST                           000N        CARE OF             
MTR06308800001000000000000000RA              74689111    005800120000001200000350000003NN  NNW 000                       N    
RDG06308800WATRL000000004K00000000000000206001210012015070326N000000000000U40       000260400K 10000000010000000145           
CUS0630880000106353772004         821 N. PORT ST., LLC821 N PORT ST                           000N        CARE OF             
MTR06308800001000000000000000RA              74689162    005800130000001300000350000003NN  NNW 000   VACANT PROPERTY     N    
RDG06308800WATRL000000004K00000000000000000001310012015070356N000000000000U40       000300400K 10000000010000000000           
CUS0630880000106357046009         ACTON, NOEL P.      823 N PORT ST                           000N        CARE OF             
MTR06308800001000000000000000RA              74689229    005800140000001400000350000003NN  NNW 000   VACANT PROPERTY     N    
RDG06308800WATRL000000004K00000000000000000001410012015070420N000000000000U40       000240400K 10000000010000000000           
CUS0630880000106356986007         DUNN HOMES, LLC     825 N PORT ST                           000N        CARE OF             
MTR06308800001000000000000000RA              77878502    005800150000001500000360000003NN  NNW 000                       N    
RDG06308800WATRL000000004K00000000000000024001510012015070441N000000000000U40       000210400K 10000000010000000002           
CUS0630880000106353912006         DUNN LEASEHOLD LLC  822 N PORT ST                           000N        CARE OF             
MTR06308800001000000000000000RA              74689109    005800160000001600000350000003NN  NNW 000                       N    
RDG06308800WATRL000000004K00000000000000226001610012015070504N000000000000U40       000230400K 10000000010000000211           
CUS0630880000106189534008         PORT 2007 PROPERTIES818 N PORT ST                           000N        CARE OF             
MTR06308800001000000000000000RA              74689103    005800170000001700000350000003NN  NNW 000                       N    
RDG06308800WATRL000000004K00000000000000000001710012015070519N000000000000U40       000150400K 10000000010000000000           
CUS0630880000106189535005         DUNN INVESTMENTS, LL816 N PORT ST                           000N        CARE OF             
MTR06308800001000000000000000RA              10012065    005800180000001800000570000003NN  NNW 000                       N    
RDG06308800WATRL000000004K00000000000000000001810012015070556N000000000010U40       000370400K 10000000010000000185           
CUS0630880000106366025002         COLE, MICHAEL       2400 E MADISON ST                       000N        CARE OF             
MTR06308800001000000000000000RA              74689200    005800190000001900000350000003NN  NNW 000                       N    
RDG06308800WATRL000000004K00000000000000213001910012015070719N000300000010U40       000830400K 10000000010000000189           
CUS0630880000106355284008         BRETON, ELAYNE L.   819 N MONTFORD AVE                      000N        CARE OF             
MTR06308800001000000000000000RA              74690941    005800200000002000000350000003NN  NNW 000                       N    
RDG06308800WATRL000000004K00000000000000134002010012015070820N000000000000U40       000610400K 10000000010000000110           
CUS0630880000106189538009         E ROSS LONG & ASSOC 829 N MONTFORD AVE                      000N        CARE OF             
MTR06308800001000000000000000RA              76345135    005800210000002100000350000003NN  NNW 000   VACANT PROPERTY     N    
RDG06308800WATRL000000004K00000000000000000002110012015070845N000000000000U40       000250400K 10000000010000000000           
CUS0630880000106349433000         EMPIRE PROPERTY MANA833 N MONTFORD AVE                      000N        CARE OF             
MTR06308800001000000000000000RA              75617459    005800220000002200000350000003NN  NNW 000                       N    
RDG06308800WATRL000000004K00000000000000211002210012015070911N000000000000U40       000260400K 10000000010000000188           
CUS0630880000106189541003         LINDSEY, KAREN A.   843 N MONTFORD AVE                      000N        CARE OF             
MTR06308800001000000000000000RA              74690983    005800230000002300000350000003NN  NNW 000                       N    
RDG06308800WATRL000000004K00000000000000703002310012015070950N000000000000U40       000390400K 10000000010000000624           
CUS0630880000106350479009         DOMINION RENTALS, LL814 N MONTFORD AVE                      000N        CARE OF             
MTR06308800001000000000000000RA              75613599    005800240000002400000350000003NN  NNW 000                       N    
RDG06308800WATRL000000004K00000000000000140002410012015071042N000300000010U40       000520400K 10000000010000000104           
CUS0630880000106189545004         GEORGE, MICHAEL L   810 N MONTFORD AVE                      000N        CARE OF             
MTR06308800001000000000000000RA              74690982    005800250000002500000350000003NN  NNW 000                       N    
RDG06308800WATRL000000004K00000000000000108002510012015071118N000000000000U40       000360400K 10000000010000000090           
CUS0630880000106189546002         GRAVES, BRENDA Y.   808 N MONTFORD AVE                      000N        CARE OF             
MTR06308800001000000000000000RA              74690997    005800260000002600000350000003NN  NNW 000                       N    
RDG06308800WATRL000000004K00000000000000048002610012015071148N000000000010U40       000300400K 10000000010000000032           
CUS0630880000106367783005         LEATHERWOOD, DAVID L806 N MONTFORD AVE                      000N        CARE OF             
MTR06308800001000000000000000RA              74690978    005800270000002700000350000003NN  NNW 000                       N    
RDG06308800WATRL000000004K00000000000000100002710012015071212N000000000000U40       000240400K 10000000010000000083           
CUS0630880000106366859004         DUNN MANAGEMENT, LLC2330 E MADISON ST                       000N        CARE OF             
MTR06308800001000000000000000RA              74689228    005800280000002800000350000003NN  NNW 000                       N    
RDG06308800WATRL000000004K00000000000000154002810012015071307N000300000010U40       000550400K 10000000010000000162           
CUS0630880000106349437001         MAYOR & CITY COUNCIL807 N BRADFORD ST                       000N        CARE OF             
MTR06308800001000000000000000RA              99999999    005800290000002900000620000003NN  NNW 000                       N    
RDG06308800WATRL000000004K00000000000000000002910012015071355S022000000000U40       000480400K 10000000010000001829           
CUS0630880000106189559005         DAVID WEBB          815 N BRADFORD ST                       000N        CARE OF             
MTR06308800001000000000000000RA              75617268    005800300000003000000350000003NN  NNW 000   INVALID DAC         N    
RDG06308800WATRL000000004K00000000000000000003010012015071431S022000000000U40       000360400K 10000000010000000000           
CUS0630880000106349436003         WHITENER, JEROME    819 N BRADFORD ST                       000N        CARE OF             
MTR06308800001000000000000000RA              74691544    005800310000003100000350000003NN  NNW 000                       N    
RDG06308800WATRL000000004K00000000000000122003110012015071454N000100000010U40       000230400K 10000000010000000122           
CUS0630880000106376910003         BEBBER, PAUL        827 N BRADFORD ST                       000N        CARE OF             
MTR06308800001000000000000000RA              75617270    005800320000003200000350000003NN  NNW 000   VACANT PROPERTY     N    
RDG06308800WATRL000000004K00000000000000000003210012015071506S022000000000U40       000120400K 10000000010000000000           
CUS0630880000106189562009         ROSA JETER          824 N BRADFORD ST                       000N        CARE OF             
MTR06308800001000000000000000RA              74691543    005800330000003300000350000003NN  NNW 000                       N    
RDG06308800WATRL000000004K00000000000000136003310012015071534N000000000000U40       000280400K 10000000010000000112           
CUS0630880000106189564005         REBECCA J HILL      816 N BRADFORD ST                       000N        CARE OF             
MTR06308800001000000000000000RA              74691547    005800340000003400000350000003NN  NNW 000                       N    
RDG06308800WATRL000000004K00000000000000000003410012015071550N000000000000U40       000160400K 10000000010000000000           
CUS0630880000106350505001         SYKES, ANTOINETTE A 2300 E MADISON ST                       000N        CARE OF             
MTR06308800001000000000000000RA              74689224    005800350000003500000350000003NN  NNW 000                       N    
RDG06308800WATRL000000004K00000000000000663003510012015071711N000000000000U40       000810400K 10000000010000000603           
CUS0630880000106189572008         JOHNSON, LOUISA M.  2303 E MADISON ST                       000N        CARE OF             
MTR06308800001000000000000000RA              75617181    005800360000003600000350000003NN  NNW 000                       N    
RDG06308800WATRL000000004K00000000000000098003610012015071758N000000000000U40       000470400K 10000000010000000067           
CUS0630880000106189574004         KING, MARY L.       2311 E MADISON ST                       000N        CARE OF             
MTR06308800001000000000000000RA              99999999    005800370000003700000620000003NN  NNW 000                       N    
RDG06308800WATRL000000004K00000000000000000003710012015071817S022000000000U40       000190400K 10000000010000004629           
CUS0630880000106189575001         RELIABLE PROP MANG O2315 E MADISON ST                       000N        CARE OF             
MTR06308800001000000000000000RA              76345957    005800380000003800000350000003NN  NNW 000                       N    
RDG06308800WATRL000000004K00000000000000041003810012015071842N000300000010U40       000250400K 10000000010000000016           
CUS0630880000106189576009         ROBERT E BOMGARDNER 2317 E MADISON ST                       000N        CARE OF             
MTR06308800001000000000000000RA              99999999    005800390000003900000620000003NN  NNW 000   INVALID DAC         N    
RDG06308800WATRL000000004K00000000000000000003910012015071846S022000000000U40       000040400K 10000000010000000859           
CUS0630880000106189578005         BARNES, ANITA       2325 E MADISON ST                       000N        CARE OF             
MTR06308800001000000000000000RA              75422165    005800400000004000000350000003NN  NNW 000                       N    
RDG06308800WATRL000000004K00000000000000669004010012015071923N000000000000U40       000370400K 10000000010000000650           
CUS0630880000106357009007         GRANT, SIMON        2329 E MADISON ST                       000N        CARE OF             
MTR06308800001000000000000000RA              75422416    005800410000004100000350000003NN  NNW 000   VACANT PROPERTY     N    
RDG06308800WATRL000000004K00000000000000000004110012015071930N000000000000U40       000070400K 10000000010000000000           
CUS0630880000106371800001         TRF DP HOLDINGS LLC 2413 E MADISON ST                       000N        CARE OF             
MTR06308800001000000000000000RA              99999999    005800420000004200000620000003NN  NNW 000   VACANT PROPERTY     N    
RDG06308800WATRL000000004K00000000000000000004210012015072055S022000000000U40       000850400K 10000000010000000000           
CUS0630880000106371799005         DOMINION MANAGEMENT 2421 E MADISON ST                       000N        CARE OF             
MTR06308800001000000000000000RA              75426007    005800430000004300000350000003NN  NNW 000                       N    
RDG06308800WATRL000000004K00000000000000239004310012015072131N000300000010U40       000360400K 10000000010000000181           
CUS0630880000106357414009         ROBISON, CHARLES    2431 E MADISON ST                       000N        CARE OF             
MTR06308800001000000000000000RA              75422445    005800440000004400000350000003NN  NNW 000   VACANT PROPERTY     N    
RDG06308800WATRL000000004K00000000000000000005210012015072653N000000000000U40       000420400K 10000000010000000000           
CUS0630880000106351325003         MCDANIEL, MOSES     2515 E MADISON ST                       000N        CARE OF             
MTR06308800001000000000000000RA              75422379    005800450000004500000350000003NN  NNW 000                       N    
RDG06308800WATRL000000004K00000000000000109006010012015073218N000000000000U40       000890400K 10000000010000000091           
CUS0630880000106189581009         CREO PROPERTIES, LLC2525 E MADISON ST                       000N        CARE OF             
MTR06308800001000000000000000RA              75422444    005800460000004600000350000003NN  NNW 000                       N    
RDG06308800WATRL000000004K00000000000000478006110012015073249N000000000000U40       000310400K 10000000010000000427           
CUS0630880000106353797001         PATTERSON PARK V, LL718 N LUZERNE AVE                       000N        CARE OF             
MTR06308800001000000000000000RA              74688192    005800470000004700000350000003NN  NNW 000                       N    
RDG06308800WATRL000000004K00000000000000592006210012015073352N000000000000U40       000630400K 10000000010000000526           
CUS0630880000106353799007         KKU ESTATE INVESTORS716 N LUZERNE AVE                       000N        CARE OF             
MTR06308800001000000000000000RA              74688119    005800480000004800000350000003NN  NNW 000                       N    
RDG06308800WATRL000000004K00000000000000160006310012015073413N000400000010U40       000210400K 10000000010000000151           
CUS0630880000106189583005         RESIDENTIAL DREAMS, 714 N LUZERNE AVE                       000N        CARE OF             
MTR06308800001000000000000000RA              74688139    005800490000004900000350000003NN  NNW 000                       N    
RDG06308800WATRL000000004K00000000000000063006410012015073440N000300000010U40       000270400K 10000000010000000019           
CUS0630880000106353795005         PEPPER, MARY V      706 N LUZERNE AVE                       000N        CARE OF             
MTR06308800001000000000000000RA              74688121    005800500000005000000350000003NN  NNW 000                       N    
RDG06308800WATRL000000004K00000000000000164006510012015073517N000000000000U40       000370400K 10000000010000000137           
CUS0630880000106189584003         HOPKINS SR., JOSEPH 704 N LUZERNE AVE                       000N        CARE OF             
MTR06308800001000000000000000RA              74688117    005800510000005100000350000003NN  NNW 000                       N    
RDG06308800WATRL000000004K00000000000000154006610012015073534N000000000000U40       000170400K 10000000010000000153           
CUS0630880000106353880005         HENRIQUEZ, WILSON TO702 N LUZERNE AVE                       000N        CARE OF             
MTR06308800001000000000000000RA              74688109    005800520000005200000350000003NN  NNW 000                       N    
RDG06308800WATRL000000004K00000000000000133006710012015073559N000000000000U40       000250400K 10000000010000000099           
CUS0630880000106353704007         MARY C REESE        705 N ROSE ST                           000N        CARE OF             
MTR06308800001000000000000000RA              74690642    005800530000005300000350000003NN  NNW 000                       N    
RDG06308800WATRL000000004K00000000000000040006810012015073725N000000000000U40       000860400K 10000000010000000034           
CUS0630880000106345419003         SADIQ, NABILA       707 N ROSE ST                           000N        CARE OF             
MTR06308800001000000000000000RA              74690624    005800540000005400000350000003NN  NNW 000   VACANT PROPERTY     N    
RDG06308800WATRL000000004K00000000000000072006910012015073758N000000000000U40       000330400K 10000000010000000072           
CUS0630880000106355295004         JOHN A SWAIN JR     709 N ROSE ST                           000N        CARE OF             
MTR06308800001000000000000000RA              74690626    005800550000005500000350000003NN  NNW 000                       N    
RDG06308800WATRL000000004K00000000000000096007010012015073821N000000000000U40       000230400K 10000000010000000079           
CUS0630880000106353705004         O.C. REALTY GROUP LL713 N ROSE ST                           000N        CARE OF             
MTR06308800001000000000000000RA              74690647    005800560000005600000350000003NN  NNW 000                       N    
RDG06308800WATRL000000004K00000000000000000007310012015073921N000000000000U40       000390400K 10000000010000000000           
CUS0630880000106355296002         SMITH, JAMES G.L.   715 N ROSE ST                           000N        CARE OF             
MTR06308800001000000000000000RA              74690639    005800570000005700000350000003NN  NNW 000   VACANT PROPERTY     N    
RDG06308800WATRL000000004K00000000000000000007410012015073951N000000000010U40       000300400K 10000000010000000019           
CUS0630880000106353706002         ROUMBEDAKIS, JORGE J717 N ROSE ST                           000N        CARE OF             
MTR06308800001000000000000000RA              75613586    005800580000005800000350000003NN  NNW 000   VACANT PROPERTY     N    
RDG06308800WATRL000000004K00000000000000024007510012015074030N000000000010U40       000390400K 10000000010000000000           
CUS0630880000106374631007         NGUYEN, TUYEN       719 N ROSE ST                           000N        CARE OF             
MTR06308800001000000000000000RA              74690636    005800590000005900000350000003NN  NNW 000                       N    
RDG06308800WATRL000000004K00000000000000000007610012015074041N000000000000U40       000110400K 10000000010000000000           
CUS0630880000106350507007         FOSTER INVESTMENT PR716 N ROSE ST                           000N        CARE OF             
MTR06308800001000000000000000RA              75613593    005800600000006000000350000003NN  NNW 000                       N    
RDG06308800WATRL000000004K00000000000000000007810012015074149S005000000000U40       000280400K 10000000010000000103           
CUS0630880000106353703009         CR CAPITAL INVESTORS714 N ROSE ST                           000N        CARE OF             
MTR06308800001000000000000000RA              74690641    005800610000006100000350000003NN  NNW 000                       N    
RDG06308800WATRL000000004K00000000000000680007710012015074121N000300000010U40       000400400K 10000000010000000469           
CUS0630880000106353690008         OC REALTY GROUP LLC 710 N ROSE ST                           000N        CARE OF             
MTR06308800001000000000000000RA              74690628    005800620000006200000350000003NN  NNW 000                       N    
RDG06308800WATRL000000004K00000000000000000007210012015073842N000000000000U40       000060400K 10000000010000000000           
CUS0630880000106365683009         SERGIO CUNOLO       708 N ROSE ST                           000N        CARE OF             
MTR06308800001000000000000000RA              74690646    005800630000006300000350000003NN  NNW 000                       N    
RDG06308800WATRL000000004K00000000000000000007110012015073836N000000000000U40       000150400K 10000000010000000000           
CUS0630880000106355279008         LONG VIST PROPERTIES725 N MILTON AVE                        000N        CARE OF             
MTR06308800001000000000000000RA              74690867    005800640000006400000350000003NN  NNW 000                       N    
RDG06308800WATRL000000004K00000000000000271005710012015072954N000300000010U40       000570400K 10000000010000000258           
CUS0630880000106353918003         AT HOME AGAIN, L.L.C727 N MILTON AVE                        000N        CARE OF             
MTR06308800001000000000000000RA              74690865    005800650000006500000350000003NN  NNW 000                       N    
RDG06308800WATRL000000004K00000000000000280005810012015073011N000000000000U40       000170400K 10000000010000000268           
CUS0630880000106355278000         ERICKSON ASSOCIATES 733 N MILTON AVE                        000N        CARE OF             
MTR06308800001000000000000000RA              74690864    005800660000006600000350000003NN  NNW 000                       N    
RDG06308800WATRL000000004K00000000000000007005910012015073049N000000000010U40       000380400K 10000000010000000000           
CUS0630880000106189588004         EVANS TEMPLE MEM CH 722 N MILTON AVE                        000N        CARE OF             
MTR06308800001000000000000000RA              74690874    005800670000006700000350000003NN  NNW 000                       N    
RDG06308800WATRL000000004K00000000000000217005310012015072753N000000000000U40       000600400K 10000000010000000174           
CUS0630880000106345502006         CORNEJO, DIEGO      718 N MILTON AVE                        000N        CARE OF             
MTR06308800001000000000000000RA              74690868    005800680000006800000350000003NN  NNW 000                       N    
RDG06308800WATRL000000004K00000000000000123005410012015072817N000000000010U40       000240400K 10000000010000000106           
CUS0630880000106355297000         RICHARD D VALENTINE 712 N MILTON AVE                        000N        CARE OF             
MTR06308800001000000000000000RA              75617274    005800690000006900000350000003NN  NNW 000   VACANT PROPERTY     N    
RDG06308800WATRL000000004K00000000000000000005510012015072822N000000000000U40       000050400K 10000000010000000000           
CUS0630880000106189589002         MILTON CHILDRENS TRU704 N MILTON AVE                        000N        CARE OF             
MTR06308800001000000000000000RA              74690866    005800700000007000000350000003NN  NNW 000                       N    
RDG06308800WATRL000000004K00000000000000295005610012015072857N000000000000U40       000350400K 10000000010000000250           
CUS0630880000106189593004         SR INVESTMENTS, LLC 703 N PORT ST                           000N        CARE OF             
MTR06308800001000000000000000RA              78023447    005800710000007100000350000003NN  NNW 000                       N    
RDG06308800WATRL000000004K00000000000000000004610012015072359N000000000000U40       000300400K 10000000010000000000           
CUS0630880000106189594002         PREMIER PPTY MGMT LL705 N PORT ST                           000N        CARE OF             
MTR06308800001000000000000000RA              74689161    005800720000007200000350000003NN  NNW 000                       N    
RDG06308800WATRL000000004K00000000000000214004710012015072420N000000000000U40       000210400K 10000000010000000163           
CUS0630880000106349766003         GARRISON INVESTMENTS707 N PORT ST                           000N        CARE OF             
MTR06308800001000000000000000RA              74689163    005800730000007300000350000003NN  NNW 000                       N    
RDG06308800WATRL000000004K00000000000000209004810012015072449N000000000000U40       000290400K 10000000010000000209           
CUS0630880000106189596007         CHIVALRY INVESTMENTS713 N PORT ST                           000N        CARE OF             
MTR06308800001000000000000000RA              75616424    005800740000007400000350000003NN  NNW 000                       N    
RDG06308800WATRL000000004K00000000000000249004910012015072516N000000000010U40       000270400K 10000000010000000226           
CUS0630880000106189600007         PREMIER PPTY MGMT LL721 N PORT ST                           000N        CARE OF             
MTR06308800001000000000000000RA              14918789    005800750000007500000310000003NN  NNW 000                       N    
RDG06308800WATRL000000004K00000000000000015005010012015072549N000300000010U40       000330400K 10000000010000000622           
CUS0630880000106189601005         VG PROPERTY MANAGEME723 N PORT ST                           000N        CARE OF             
MTR06308800001000000000000000RA              74689158    005800760000007600000350000003NN  NNW 000                       N    
RDG06308800WATRL000000004K00000000000000084005110012015072611N000000000010U40       000220400K 10000000010000000087           
CUS0630880000106345503004         CHIVALRY INVESTMENTS708 N PORT ST                           000N        CARE OF             
MTR06308800001000000000000000RA              75614436    005800770000007700000350000003NN  NNW 000                       N    
RDG06308800WATRL000000004K00000000000000113004410012015072252N000000000000U40       000810400K 10000000010000000082           
CUS0630880000106189605006         VG PROPERTY MANANGEM700 N PORT ST                           000N        CARE OF             
MTR06308800001000000000000000RA              75613584    005800780000007800000350000003NN  NNW 000                       N    
RDG06308800WATRL000000004K00000000000000630004510012015072329N000300000010U40       000370400K 10000000010000000633           
RTR06308800NN00780078000000780000000000780078000044NY007800780078000000090000000000000000000002    07152015NY020000 N         
RHD06328200NN00210158000000210000013701580158000048NY015801580158000200040000000000000000000002    09222015NY020000 N         
CUS0632820000106199477008         HARFORD 5901, LLC   5901 HARFORD RD                         000N        CARE OF             
MTR06328200001000000000000000RA              79190792    000100010000000100000360000003NN  NNW 000   VACANT PROPERTY     N    
RDG06328200WATRL000000004R00000000000000000000110022015100622S001000000000U40       000000400K 10000000010000000000           
RFF0632820069478795      ERT      0000  956.4437500014000000000000000000                  0001N                               
CUS0632820000106199476000         HARFORD 5901, LLC   5903 HARFORD RD                         000N        CARE OF             
MTR06328200001000000000000000RA              00121034    007500020000000200000570000003NN  NNW 000   VACANT PROPERTY     N    
RDG06328200WATRL000000004R00000000000000000000210022015100640S001000000000U40       000180400K 10000000010000001492           
RFF0632820069282232      ERT      0000  956.4437500014000000000000000000                  0001N                               
CUS0632820000106199475002         HARFORD 5901, LLC   5905 HARFORD RD                         000N        CARE OF             
MTR06328200001000000000000000RA              33416594    007500030000000300000520000003NN  NNW 000   VACANT PROPERTY     N    
RDG06328200WATRL000000004R00000000000000000000310022015100656S001000000000U40       000160400K 10000000010000000000           
RFF0632820069283255      ERT      0000  956.4437500014000000000000000000                  0001N                               
CUS0632820000106199474005         HARFORD 5901, LLC   5907-13 HARFORD RD                      000N        CARE OF             
MTR06328200001000000000000000RA              31588078    001500040000000400000520000003NN  NNW 000                       N    
RDG06328200WATRL000000005K00000000000000000000109302015085050N000000000010U40       000000500K 10000000010000007746           
CUS0632820000106199473007         HARFORD 5901, LLC   5915-21 HARFORD RD                      000N        CARE OF             
MTR06328200001000000000000000RA              76347654    005800050000000500000350000003NN  NNW 000   VACANT PROPERTY     N    
RDG06328200WATR 000000004R00000000000000000000010042015190000N000100000090N         000000400R 10000000010000000000           
RFF0632820069344218      ERT      0000  956.44375000140000100420151900000000000003100W 1220000N                               
CUS0632820000106199472009         2D-MN, LLC          3005 GLENMORE AVE                       000N        CARE OF             
MTR06328200001000000000000000RA              77987897    005800060000000600000360000003NN  NNW 000                       N    
RDG06328200WATR 000000004R00000000000000000000010042015190000N000100000090N         000000400R 10000000010000000000           
RFF0632820069280422      ERT      0000  956.44375000140000100420151900000000000020100W 1220000N                               
CUS0632820000106199471001         GARRETT SR, JOHN H. 3007 GLENMORE AVE                       000N        CARE OF             
MTR06328200001000000000000000RA              79240366    005800070000000700000360000003NN  NNW 000                       N    
RDG06328200WATR 000000004R00000000000000025000010042015190000N000300000090N         000000400R 10000000010000000000           
RFF0632820069231157      ERT      0000  956.44375000140000100420151900000000250653100W 1220000N                               
CUS0632820000106199470003         SCALES, CHARLES J.  3009 GLENMORE AVE                       000N        CARE OF             
MTR06328200001000000000000000RA              79240364    005800080000000800000360000003NN  NNW 000                       N    
RDG06328200WATR 000000004R00000000000000012000010042015180000N000300000090N         000000400R 10000000010000000000           
RFF0632820069231224      ERT      0000  956.44375000140000100420151800000000123232100W 1220000N                               
CUS0632820000106199469005         HOLLIDAY, CALLIE    3011 GLENMORE AVE                       000N        CARE OF             
MTR06328200001000000000000000RA              79240362    005800090000000900000360000003NN  NNW 000                       N    
RDG06328200WATR 000000004R00000000000000027000010042015190000N000300000090N         000000400R 10000000010000000000           
RFF0632820069231212      ERT      0000  956.44375000140000100420151900000000279968100W 1220000N                               
CUS0632820000106199468007         DEWALD, NICOLE      3013 GLENMORE AVE                       000N        CARE OF             
MTR06328200001000000000000000RA              79240346    005800100000001000000360000003NN  NNW 000                       N    
RDG06328200WATR 000000004R00000000000000003000010042015190000N000300000090N         000000400R 10000000010000000000           
RFF0632820069344331      ERT      0000  956.44375000140000100420151900000000039258100W 1220000N                               
CUS0632820000106199467009         PINCUS, AMY L       3015 GLENMORE AVE                       000N        CARE OF             
MTR06328200001000000000000000RA              78005827    005800110000001100000360000003NN  NNW 000                       N    
RDG06328200WATRL000000004K00000000000000002000209302015085218N000000000010U40       000880400K 10000000010000000000           
CUS0632820000106199466001         KUGLER, GREGORY V.  3017 GLENMORE AVE                       000N        CARE OF             
MTR06328200001000000000000000RA              79240347    005800120000001200000360000003NN  NNW 000                       N    
RDG06328200WATR 000000004R00000000000000007000010042015190000N000300000090N         000000400R 10000000010000000000           
RFF0632820069344313      ERT      0000  956.44375000140000100420151900000000071433100W 1220000N                               
CUS0632820000106199465003         VIJAYAN, ROOPESH    3019 GLENMORE AVE                       000N        CARE OF             
MTR06328200001000000000000000RA              79240349    005800130000001300000360000003NN  NNW 000                       N    
RDG06328200WATR 000000004R00000000000000009000010042015190000N000300000090N         000000400R 10000000010000000000           
RFF0632820069344312      ERT      0000  956.44375000140000100420151900000000099398100W 1220000N                               
CUS0632820000106199464006         LUCE, KELLY P.      3021 GLENMORE AVE                       000N        CARE OF             
MTR06328200001000000000000000RA              79240475    005800140000001400000360000003NN  NNW 000                       N    
RDG06328200WATR 000000004R00000000000000005000010042015190000N000300000090N         000000400R 10000000010000000000           
RFF0632820069231167      ERT      0000  956.44375000140000100420151900000000050816100W 1220000N                               
CUS0632820000106199463008         HARRIS, KYLE W      3023 GLENMORE AVE                       000N        CARE OF             
MTR06328200001000000000000000RA              78022480    005800150000001500000360000003NN  NNW 000                       N    
RDG06328200WATR 000000004R00000000000000074000010042015190000N000100000090N         000000400R 10000000010000000074           
RFF0632820069280347      ERT      0000  956.44375000140000100420151900000000747468100W 1220000N                               
CUS0632820000106199462000         WILLIAM T SOMERVILLE3025 GLENMORE AVE                       000N        CARE OF             
MTR06328200001000000000000000RA              79240474    005800160000001600000360000003NN  NNW 000                       N    
RDG06328200WATR 000000004R00000000000000001000010042015190000N000300000090N         000000400R 10000000010000000000           
RFF0632820069231179      ERT      0000  956.44375000140000100420151900000000018500100W 1220000N                               
CUS0632820000106199461002         LASSITER, THOMAS E  3027 GLENMORE AVE                       000N        CARE OF             
MTR06328200001000000000000000RA              79240383    005800170000001700000360000003NN  NNW 000                       N    
RDG06328200WATR 000000004R00000000000000019000010042015190000N000300000090N         000000400R 10000000010000000000           
RFF0632820069231132      ERT      0000  956.44375000140000100420151900000000198082100W 1220000N                               
CUS0632820000106199719003         CHARLES & ALISON MOR3028 GLENMORE AVE                       000N        CARE OF             
MTR06328200001000000000000000RA              79267960    007500180000001800000360000003NN  NNW 000                       N    
RDG06328200WATR 000000004R00000000000000023000010042015180000N000300000090N         000000400R 10000000010000000000           
RFF0632820069273767      ERT      0000  956.44375000140000100420151800000000239293100W 1220000N                               
CUS0632820000106199720001         TOLSON, LATARSHA L  3026 GLENMORE AVE                       000N        CARE OF             
MTR06328200001000000000000000RA              79240471    005800190000001900000360000003NN  NNW 000                       N    
RDG06328200WATR 000000004R00000000000000018000010042015190000N000300000090N         000000400R 10000000010000000000           
RFF0632820069231139      ERT      0000  956.44375000140000100420151900000000186900100W 1220000N                               
CUS0632820000106199721009         LEE, PATRICK D.     3024 GLENMORE AVE                       000N        CARE OF             
MTR06328200001000000000000000RA              79240470    005800200000002000000360000003NN  NNW 000                       N    
RDG06328200WATR 000000004R00000000000000008000010042015190000N000300000090N         000000400R 10000000010000000000           
RFF0632820069231166      ERT      0000  956.44375000140000100420151900000000085633100W 1220000N                               
CUS0632820000106199722007         PINCUS, SHAWNA      3022 GLENMORE AVE                       000N        CARE OF             
MTR06328200001000000000000000RA              79240472    005800210000002100000360000003NN  NNW 000                       N    
RDG06328200WATR 000000004R00000000000000019000010042015180000N000300000090N         000000400R 10000000010000000000           
RFF0632820069231170      ERT      0000  956.44375000140000100420151800000000192738100W 1220000N                               
CUS0632820000106199723005         FULLER, SHAWN D     3020 GLENMORE AVE                       000N        CARE OF             
MTR06328200001000000000000000RA              25448421    007500220000002200000520000003NN  NNW 000                       N    
RDG06328200WATRL000000004K00000000000000007000309302015085323N000000000010U40       000650400K 10000000010000002569           
CUS0632820000106199724003         PRATT, ALYSON K     3018 GLENMORE AVE                       000N        CARE OF             
MTR06328200001000000000000000RA              79240473    005800230000002300000360000003NN  NNW 000                       N    
RDG06328200WATR 000000004R00000000000000013000010042015190000N000300000090N         000000400R 10000000010000000000           
RFF0632820069231164      ERT      0000  956.44375000140000100420151900000000134819100W 1220000N                               
CUS0632820000106199725000         RHODES, TIMOTHY     3016 GLENMORE AVE                       000N        CARE OF             
MTR06328200001000000000000000RA              79240348    005800240000002400000360000003NN  NNW 000                       N    
RDG06328200WATR 000000004R00000000000000007000010042015190000N000300000090N         000000400R 10000000010000000000           
RFF0632820069344332      ERT      0000  956.44375000140000100420151900000000070197100W 1220000N                               
CUS0632820000106199726008         FELDMAN, KAREN      3014 GLENMORE AVE                       000N        CARE OF             
MTR06328200001000000000000000RA              79240345    005800250000002500000360000003NN  NNW 000                       N    
RDG06328200WATR 000000004R00000000000000013000010042015190000N000300000090N         000000400R 10000000010000000000           
RFF0632820069344310      ERT      0000  956.44375000140000100420151900000000130044100W 1220000N                               
CUS0632820000106199727006         ROBERT J KING JR    3012 GLENMORE AVE                       000N        CARE OF             
MTR06328200001000000000000000RA              79240344    005800260000002600000360000003NN  NNW 000                       N    
RDG06328200WATR 000000004R00000000000000008000010042015180000N000300000090N         000000400R 10000000010000000000           
RFF0632820069344338      ERT      0000  956.44375000140000100420151800000000088448100W 1220000N                               
CUS0632820000106199728004         QUESADA JR., JORGE  3010 GLENMORE AVE                       000N        CARE OF             
MTR06328200001000000000000000RA              79240367    005800270000002700000360000003NN  NNW 000                       N    
RDG06328200WATR 000000004R00000000000000008000010042015190000N000300000090N         000000400R 10000000010000000000           
RFF0632820069231182      ERT      0000  956.44375000140000100420151900000000089162100W 1220000N                               
CUS0632820000106199729002         ROYAL PARK REALTY, L3008 GLENMORE AVE                       000N        CARE OF             
MTR06328200001000000000000000RA              79240365    005800280000002800000360000003NN  NNW 000                       N    
RDG06328200WATR 000000004R00000000000000026000010042015190000N000300000090N         000000400R 10000000010000000000           
RFF0632820069231195      ERT      0000  956.44375000140000100420151900000000267881100W 1220000N                               
CUS0632820000106199730000         WELLS, STEPHEN A    3006 GLENMORE AVE                       000N        CARE OF             
MTR06328200001000000000000000RA              79240363    005800290000002900000360000003NN  NNW 000                       N    
RDG06328200WATR 000000004R00000000000000000000010042015190000N000100000090N         000000400R 10000000010000000000           
RFF0632820069230795      ERT      0000  956.44375000140000100420151900000000000020100W 1220000N                               
CUS0632820000106199731008         7-ELEVEN MARKET 11636001 HARFORD RD                         000N        CARE OF             
MTR06328200001000000000000000RA              79240286    005800300000003000000360000003NN  NNW 000                       N    
RDG06328200WATR 000000004R00000000000000019000010042015190000N000300000090N         000000400R 10000000010000000000           
RFF0632820069231347      ERT      0000  956.44375000140000100420151900000000191576100W 1220000N                               
CUS0632820000106199733004         MPM PROPERTY MANAGEM6009 HARFORD RD                         000N        CARE OF             
MTR06328200001000000000000000RA              79077344    005800310000003100000360000003NN  NNW 000                       N    
RDG06328200WATR 000000004R00000000000000014000010042015190000N000300000090N         000000400R 10000000010000000000           
RFF0632820069234014      ERT      0000  956.44375000140000100420151900000000143443100W 1220000N                               
CUS0632820000106199734002         REIP VENTURE 8, LLC 3007 ROSELAWN AVE                       000N        CARE OF             
MTR06328200001000000000000000RA              79240384    005800320000003200000360000003NN  NNW 000                       N    
RDG06328200WATR 000000004R00000000000000000000010042015190000N000100000090N         000000400R 10000000010000000000           
RFF0632820069231060      ERT      0000  956.44375000140000100420151900000000000019100W 1220000N                               
CUS0632820000106199735009         GERTRUDE FRITSCHE   3009 ROSELAWN AVE                       000N        CARE OF             
MTR06328200001000000000000000RA              79240298    005800330000003300000360000003NN  NNW 000                       N    
RDG06328200WATR 000000004R00000000000000023000010042015190000N000300000090N         000000400R 10000000010000000000           
RFF0632820069231803      ERT      0000  956.44375000140000100420151900000000231869100W 1220000N                               
CUS0632820000106199736007         PELLIGRINI, NINETTA 3011 ROSELAWN AVE                       000N        CARE OF             
MTR06328200001000000000000000RA              79240299    005800340000003400000360000003NN  NNW 000                       N    
RDG06328200WATR 000000004R00000000000000007000010042015180000N000300000090N         000000400R 10000000010000000000           
RFF0632820069231535      ERT      0000  956.44375000140000100420151800000000070525100W 1220000N                               
CUS0632820000106199737005         TONEY JR, BENJAMIN S3013 ROSELAWN AVE                       000N        CARE OF             
MTR06328200001000000000000000RA              9987356     005800350000003500000570000003NN  NNW 000                       N    
RDG06328200WATRL000000004K00000000000003319000409302015085629N000000000000U40       001860400K 10000000010000003319           
CUS0632820000106199738003         STASUK, MARK T      3022 ROSELAWN AVE                       000N        CARE OF             
MTR06328200001000000000000000RA              79240300    005800360000003600000360000003NN  NNW 000                       N    
RDG06328200WATR 000000004R00000000000000003000010042015180000N000300000090N         000000400R 10000000010000000000           
RFF0632820069231540      ERT      0000  956.44375000140000100420151800000000034681100W 1220000N                               
CUS0632820000106199739001         WILKINSON, LINDA ANN3020 ROSELAWN AVE                       000N        CARE OF             
MTR06328200001000000000000000RA              79240297    005800370000003700000360000003NN  NNW 000                       N    
RDG06328200WATR 000000004R00000000000000071000010042015190000N000300000090N         000000400R 10000000010000000000           
RFF0632820069231559      ERT      0000  956.44375000140000100420151900000000716767100W 1220000N                               
CUS0632820000106199740009         MEREDITH II, JOEL J 3018 ROSELAWN AVE                       000N        CARE OF             
MTR06328200001000000000000000RA              79240301    005800380000003800000360000003NN  NNW 000                       N    
RDG06328200WATR 000000004R00000000000000014000010042015190000N000300000090N         000000400R 10000000010000000000           
RFF0632820069231517      ERT      0000  956.44375000140000100420151900000000143964100W 1220000N                               
CUS0632820000106199741007         MICHAEL L GREEN     3016 ROSELAWN AVE                       000N        CARE OF             
MTR06328200001000000000000000RA              79240296    005800390000003900000360000003NN  NNW 000                       N    
RDG06328200WATR 000000004R00000000000000006000010042015190000N000300000090N         000000400R 10000000010000000000           
RFF0632820069231531      ERT      0000  956.44375000140000100420151900000000067584100W 1220000N                               
CUS0632820000106199742005         HAYNES, ANGELA E    3014 ROSELAWN AVE                       000N        CARE OF             
MTR06328200001000000000000000RA              79240385    005800400000004000000360000003NN  NNW 000                       N    
RDG06328200WATR 000000004R00000000000000053000010042015180000N000300000090N         000000400R 10000000010000000000           
RFF0632820069231100      ERT      0000  956.44375000140000100420151800000000531582100W 1220000N                               
CUS0632820000106199743003         WAGSTAFF III, KELLY 3012 ROSELAWN AVE                       000N        CARE OF             
MTR06328200001000000000000000RA              79240382    005800410000004100000360000003NN  NNW 000                       N    
RDG06328200WATR 000000004R00000000000000011000010042015190000N000300000090N         000000400R 10000000010000000000           
RFF0632820069231172      ERT      0000  956.44375000140000100420151900000000115537100W 1220000N                               
CUS0632820000106199744001         DOWD, DARNELL       3010 ROSELAWN AVE                       000N        CARE OF             
MTR06328200001000000000000000RA              79240380    005800420000004200000360000003NN  NNW 000                       N    
RDG06328200WATR 000000004R00000000000000008000010042015190000N000300000090N         000000400R 10000000010000000000           
RFF0632820069231091      ERT      0000  956.44375000140000100420151900000000086850100W 1220000N                               
CUS0632820000106199745008         SATTERFIELD, LATASHI3008 ROSELAWN AVE                       000N        CARE OF             
MTR06328200001000000000000000RA              79077225    005800430000004300000360000003NN  NNW 000                       N    
RDG06328200WATR 000000004R00000000000000008000010042015190000N000300000090N         000000400R 10000000010000000000           
RFF0632820069234449      ERT      0000  956.44375000140000100420151900000000089256100W 1220000N                               
CUS0632820000106199746006         APPLE AUTO, LTD     6013 HARFORD RD                         000N        CARE OF             
MTR06328200001000000000000000RA              79240284    005800440000004400000360000003NN  NNW 000                       N    
RDG06328200WATR 000000004R00000000000000004000010042015190000N000300000090N         000000400R 10000000010000000000           
RFF0632820069231373      ERT      0000  956.44375000140000100420151900000000041949100W 1220000N                               
CUS0632820000106199747004         MIDAS REALTY CORP.  6017 HARFORD RD                         000N        CARE OF             
MTR06328200001000000000000000RA              79240287    005800450000004500000360000003NN  NNW 000   VACANT PROPERTY     N    
RDG06328200WATR 000000004R00000000000000000000010042015190000N000100000090N         000000400R 10000000010000000000           
RFF0632820069227555      ERT      0000  956.44375000140000100420151900000000000020100W 1220000N                               
CUS0632820000106199748002         KLEIN SR, ROBERT M  6055 HARFORD RD                         000N        CARE OF             
MTR06328200001000000000000000RA              79240417    005800460000004600000360000003NN  NNW 000                       N    
RDG06328200WATR 000000004R00000000000000024000010042015190000N000300000090N         000000400R 10000000010000000000           
RFF0632820069344333      ERT      0000  956.44375000140000100420151900000000245328100W 1220000N                               
CUS0632820000106199749000         DAVE, RAJESH R      6057 HARFORD RD                         000N        CARE OF             
MTR06328200001000000000000000RA              79240289    005800470000004700000360000003NN  NNW 000                       N    
RDG06328200WATR 000000004R00000000000000025000010042015190000N000300000090N         000000400R 10000000010000000000           
RFF0632820069227030      ERT      0000  956.44375000140000100420151900000000251854100W 1220000N                               
CUS0632820000106199750008         DAVE, RAJESH R      6059 HARFORD RD                         000N        CARE OF             
MTR06328200001000000000000000RA              79240421    005800480000004800000360000003NN  NNW 000                       N    
RDG06328200WATR 000000004R00000000000000003000010042015190000N000300000090N         000000400R 10000000010000000000           
RFF0632820069344298      ERT      0000  956.44375000140000100420151900000000039179100W 1220000N                               
CUS0632820000106199751006         JONEWS, TONYA       6061 HARFORD RD                         000N        CARE OF             
MTR06328200001000000000000000RA              79240419    005800490000004900000360000003NN  NNW 000                       N    
RDG06328200WATR 000000004R00000000000000028000010042015190000N000300000090N         000000400R 10000000010000000000           
RFF0632820069344318      ERT      0000  956.44375000140000100420151900000000289456100W 1220000N                               
CUS0632820000106199752004         CUTTING IMAGE, LLC T6063 HARFORD RD                         000N        CARE OF             
MTR06328200001000000000000000RA              532107      005800500000005000000520000003NN  NNW 000                       N    
RDG06328200WATRL000000004K00000000000002718000509302015085821N000000000000U40       001120400K 10000000010000002706           
CUS0632820000106199753002         TARA A VIZZI P.A.   6065 HARFORD RD                         000N        CARE OF             
MTR06328200001000000000000000RA              9596639     005800510000005100000570000003NN  NNW 000                       N    
RDG06328200WATRL000000004K00000000000001917000609302015085825N000000000000U40       000040400K 10000000010000001914           
CUS0632820000106199754000         CHILDREN'S CHOICE   6067 HARFORD RD                         000N        CARE OF             
MTR06328200001000000000000000RA              79240418    005800520000005200000360000003NN  NNW 000                       N    
RDG06328200WATR 000000004R00000000000000003000010042015180000N000300000090N         000000400R 10000000010000000000           
RFF0632820069343057      ERT      0000  956.44375000140000100420151800000000037560100W 1220000N                               
CUS0632820000106199755007         JOHN BUTZ &         6077 HARFORD RD                         000N        CARE OF             
MTR06328200001000000000000000RA              79239851    005800530000005300000360000003NN  NNW 000                       N    
RDG06328200WATR 000000004R00000000000000011000010042015190000N000300000090N         000000400R 10000000010000000000           
RFF0632820069344155      ERT      0000  956.44375000140000100420151900000000118420100W 1220000N                               
CUS0632820000106199756005         GLASS, CHRISTINE ELL3001 CHRISTOPHER AVE                    000N        CARE OF             
MTR06328200001000000000000000RA              79240334    005800540000005400000360000003NN  NNW 000                       N    
RDG06328200WATR 000000004R00000000000000008000010042015190000N000300000090N         000000400R 10000000010000000000           
RFF0632820069340310      ERT      0000  956.44375000140000100420151900000000084742100W 1220000N                               
CUS0632820000106199757003         MILES, GEORGE B     3003 CHRISTOPHER AVE                    000N        CARE OF             
MTR06328200001000000000000000RA              79240333    005800550000005500000360000003NN  NNW 000                       N    
RDG06328200WATR 000000004R00000000000000006000010042015190000N000300000090N         000000400R 10000000010000000000           
RFF0632820069340275      ERT      0000  956.44375000140000100420151900000000069882100W 1220000N                               
CUS0632820000106199758001         J A SILVESTRI JR & W3005 CHRISTOPHER AVE                    000N        CARE OF             
MTR06328200001000000000000000RA              79240332    005800560000005600000360000003NN  NNW 000                       N    
RDG06328200WATR 000000004R00000000000000002000010042015190000N000300000090N         000000400R 10000000010000000000           
RFF0632820069340328      ERT      0000  956.44375000140000100420151900000000026550100W 1220000N                               
CUS0632820000106199759009         JOHNSTON, SUSAN B.  3007 CHRISTOPHER AVE                    000N        CARE OF             
MTR06328200001000000000000000RA              77884615    005800570000005700000360000003NY  NNW 000                       N    
MTM0632820077884615    NO TOP                                                                                                 
RDG06328200WATRL000000004K00000000000000000000410022015100659S001000000000U40       000030400K 10000000010000000000           
CUS0632820000106199760007         TUMINELLO, MARK     3009 CHRISTOPHER AVE                    000N        CARE OF             
MTR06328200001000000000000000RA              79240461    005800580000005800000360000003NN  NNW 000                       N    
RDG06328200WATR 000000004R00000000000000006000010042015170000N000300000090N         000000400R 10000000010000000000           
RFF0632820069231156      ERT      0000  956.44375000140000100420151700000000066481100W 1220000N                               
CUS0632820000106199761005         BRAVO, CRYSTAL C.   3011 CHRISTOPHER AVE                    000N        CARE OF             
MTR06328200001000000000000000RA              79240395    005800590000005900000360000003NN  NNW 000                       N    
RDG06328200WATR 000000004R00000000000000008000010042015180000N000300000090N         000000400R 10000000010000000000           
RFF0632820069231137      ERT      0000  956.44375000140000100420151800000000083430100W 1220000N                               
CUS0632820000106199762003         MONTANEZ, JENNIFER  3013 CHRISTOPHER AVE                    000N        CARE OF             
MTR06328200001000000000000000RA              79240463    005800600000006000000360000003NN  NNW 000                       N    
RDG06328200WATR 000000004R00000000000000007000010042015190000N000300000090N         000000400R 10000000010000000000           
RFF0632820069231134      ERT      0000  956.44375000140000100420151900000000071865100W 1220000N                               
CUS0632820000106199763001         WORKMAN, REBECCA    3015 CHRISTOPHER AVE                    000N        CARE OF             
MTR06328200001000000000000000RA              79240394    005800610000006100000360000003NN  NNW 000                       N    
RDG06328200WATR 000000004R00000000000000005000010042015190000N000300000090N         000000400R 10000000010000000000           
RFF0632820069231154      ERT      0000  956.44375000140000100420151900000000059101100W 1220000N                               
CUS0632820000106199764009         HOWARD, JAMES C (TR)3017 CHRISTOPHER AVE                    000N        CARE OF             
MTR06328200001000000000000000RA              79240392    005800620000006200000360000003NN  NNW 000                       N    
RDG06328200WATR 000000004R00000000000000006000010042015180000N000300000090N         000000400R 10000000010000000000           
RFF0632820069231151      ERT      0000  956.44375000140000100420151800000000068425100W 1220000N                               
CUS0632820000106199765006         STURM, DANIEL       3022 CHRISTOPHER AVE                    000N        CARE OF             
MTR06328200001000000000000000RA              547107      005800630000006300000570000003NY  NNW 000                       N    
MTM06328200547107      no access buried                                                                                       
RDG06328200WATRL000000004K00000000000000000000000000000000000 000000000000U         000000400  10000000010000002380           
CUS0632820000106199766004         HOWARD, KARIMA JAMIL3020 CHRISTOPHER AVE                    000N        CARE OF             
MTR06328200001000000000000000RA              9688311     005800640000006400000570000003NN  NNW 000                       N    
RDG06328200WATRL000000004K00000000000000641000709302015090418N000000000000U40       003530400K 10000000010000000621           
CUS0632820000106199767002         MANN, FLORAMAE      3018 CHRISTOPHER AVE                    000N        CARE OF             
MTR06328200001000000000000000RA              79240393    005800650000006500000360000003NN  NNW 000                       N    
RDG06328200WATR 000000004R00000000000000002000010042015190000N000300000090N         000000400R 10000000010000000000           
RFF0632820069231148      ERT      0000  956.44375000140000100420151900000000028075100W 1220000N                               
CUS0632820000106199768000         STEVENS, AMANDA J   3016 CHRISTOPHER AVE                    000N        CARE OF             
MTR06328200001000000000000000RA              79240397    005800660000006600000360000003NN  NNW 000                       N    
RDG06328200WATR 000000004R00000000000000001000010042015190000N000300000090N         000000400R 10000000010000000000           
RFF0632820069231146      ERT      0000  956.44375000140000100420151900000000016484100W 1220000N                               
CUS0632820000106199769008         JEFFERSON, JOSEPH   3014 CHRISTOPHER AVE                    000N        CARE OF             
MTR06328200001000000000000000RA              79240458    005800670000006700000360000003NN  NNW 000                       N    
RDG06328200WATR 000000004R00000000000000002000010042015180000N000300000090N         000000400R 10000000010000000000           
RFF0632820069231159      ERT      0000  956.44375000140000100420151800000000026628100W 1220000N                               
CUS0632820000106199770006         JONES, DE ANDRE     3012 CHRISTOPHER AVE                    000N        CARE OF             
MTR06328200001000000000000000RA              79240460    005800680000006800000360000003NN  NNW 000                       N    
RDG06328200WATR 000000004R00000000000000000000010042015190000N000100000090N         000000400R 10000000010000000000           
RFF0632820069231150      ERT      0000  956.44375000140000100420151900000000001378100W 1220000N                               
CUS0632820000106199771004         DUVAL, KEVIN E      3010 CHRISTOPHER AVE                    000N        CARE OF             
MTR06328200001000000000000000RA              79240459    005800690000006900000360000003NN  NNW 000                       N    
RDG06328200WATR 000000004R00000000000000007000010042015190000N000300000090N         000000400R 10000000010000000000           
RFF0632820069231165      ERT      0000  956.44375000140000100420151900000000078768100W 1220000N                               
CUS0632820000106199772002         DALTON, ANN ELIZABET3008 CHRISTOPHER AVE                    000N        CARE OF             
MTR06328200001000000000000000RA              79240336    005800700000007000000360000003NN  NNW 000                       N    
RDG06328200WATR 000000004R00000000000000005000010042015190000N000300000090N         000000400R 10000000010000000000           
RFF0632820069340300      ERT      0000  956.44375000140000100420151900000000055258100W 1220000N                               
CUS0632820000106199773000         HAMILTON, VERNON    3006 CHRISTOPHER AVE                    000N        CARE OF             
MTR06328200001000000000000000RA              79240337    005800710000007100000360000003NN  NNW 000                       N    
RDG06328200WATR 000000004R00000000000000009000010042015190000N000300000090N         000000400R 10000000010000000000           
RFF0632820069340304      ERT      0000  956.44375000140000100420151900000000095667100W 1220000N                               
CUS0632820000106199774008         PALIY, VIKTOR S.    3004 CHRISTOPHER AVE                    000N        CARE OF             
MTR06328200001000000000000000RA              79240335    005800720000007200000360000003NN  NNW 000                       N    
RDG06328200WATR 000000004R00000000000000018000010042015190000N000300000090N         000000400R 10000000010000000000           
RFF0632820069340313      ERT      0000  956.44375000140000100420151900000000187651100W 1220000N                               
CUS0632820000106199777001         MARSHALL, RICHARD   3009 ROYSTON AVE                        000N        CARE OF             
MTR06328200001000000000000000RA              2476680     005800730000007300000520000003NY  NNW 000                       N    
MTM063282002476680     BURIED                                                                                                 
RDG06328200WATRL000000004K00000000000002424000510022015101920N000000000000U40       007410400K 10000000010000002412           
CUS0632820000106199778009         WILLIAM J GLEASON JR3013 ROYSTON AVE                        000N        CARE OF             
MTR06328200001000000000000000RA              79077323    005800740000007400000360000003NN  NNW 000                       N    
RDG06328200WATR 000000004R00000000000000001000010042015190000N000300000090N         000000400R 10000000010000000000           
RFF0632820069233656      ERT      0000  956.44375000140000100420151900000000017929100W 1220000N                               
CUS0632820000106199779007         THOMAS, ROBERT K.   3015 ROYSTON AVE                        000N        CARE OF             
MTR06328200001000000000000000RA              79077322    005800750000007500000360000003NN  NNW 000                       N    
RDG06328200WATR 000000004R00000000000000008000010042015190000N000300000090N         000000400R 10000000010000000000           
RFF0632820069234025      ERT      0000  956.44375000140000100420151900000000084656100W 1220000N                               
CUS0632820000106199780005         CARRINGTON, DAVID L 3017 ROYSTON AVE                        000N        CARE OF             
MTR06328200001000000000000000RA              79077320    005800760000007600000360000003NN  NNW 000                       N    
RDG06328200WATR 000000004R00000000000000026000010042015190000N000300000090N         000000400R 10000000010000000000           
RFF0632820069233670      ERT      0000  956.44375000140000100420151900000000264192100W 1220000N                               
CUS0632820000106199781003         JAMES F UHLIK       3019 ROYSTON AVE                        000N        CARE OF             
MTR06328200001000000000000000RA              79077318    005800770000007700000360000003NN  NNW 000                       N    
RDG06328200WATR 000000004R00000000000000015000010042015190000N000300000090N         000000400R 10000000010000000000           
RFF0632820069233981      ERT      0000  956.44375000140000100420151900000000155038100W 1220000N                               
CUS0632820000106199782001         WOODS, KAREN D.     3021 ROYSTON AVE                        000N        CARE OF             
MTR06328200001000000000000000RA              79077219    005800780000007800000360000003NN  NNW 000                       N    
RDG06328200WATR 000000004R00000000000000009000010042015190000N000300000090N         000000400R 10000000010000000000           
RFF0632820069233972      ERT      0000  956.44375000140000100420151900000000096865100W 1220000N                               
CUS0632820000106199783009         DEVLIN, JOHN C.     6111 RICHARD AVE                        000N        CARE OF             
MTR06328200001000000000000000RA              79077224    005800790000007900000360000003NN  NNW 000                       N    
RDG06328200WATR 000000004R00000000000000006000010042015190000N000300000090N         000000400R 10000000010000000000           
RFF0632820069234450      ERT      0000  956.44375000140000100420151900000000061976100W 1220000N                               
CUS0632820000106199784007         ADAM, JASON         3101 ROYSTON AVE                        000N        CARE OF             
MTR06328200001000000000000000RA              24766803    005800800000008000000520000003NN  NNW 000                       N    
RDG06328200WATRL000000004K00000000000000000000809302015090954N000000000010U40       003360400K 10000000010000001022           
CUS0632820000106199785004         HOLLEY, DENISE Y.   3103 ROYSTON AVE                        000N        CARE OF             
MTR06328200001000000000000000RA              79077218    005800810000008100000360000003NN  NNW 000                       N    
RDG06328200WATR 000000004R00000000000000019000010042015190000N000300000090N         000000400R 10000000010000000000           
RFF0632820069234016      ERT      0000  956.44375000140000100420151900000000197500100W 1220000N                               
CUS0632820000106199786002         EARL E BROWN & WF   3105 ROYSTON AVE                        000N        CARE OF             
MTR06328200001000000000000000RA              79077221    005800820000008200000360000003NN  NNW 000                       N    
RDG06328200WATR 000000004R00000000000000011000010042015190000N000300000090N         000000400R 10000000010000000000           
RFF0632820069233660      ERT      0000  956.44375000140000100420151900000000110136100W 1220000N                               
CUS0632820000106199787000         SCALISE, ANTHONY GAR3107 ROYSTON AVE                        000N        CARE OF             
MTR06328200001000000000000000RA              79077316    005800830000008300000360000003NN  NNW 000                       N    
RDG06328200WATR 000000004R00000000000000007000010042015190000N000300000090N         000000400R 10000000010000000000           
RFF0632820069232123      ERT      0000  956.44375000140000100420151900000000078500100W 1220000N                               
CUS0632820000106199788008         MOSCA, GUS V        3109 ROYSTON AVE                        000N        CARE OF             
MTR06328200001000000000000000RA              79077312    005800840000008400000360000003NN  NNW 000                       N    
RDG06328200WATR 000000004R00000000000000024000010042015190000N000300000090N         000000400R 10000000010000000000           
RFF0632820069232139      ERT      0000  956.44375000140000100420151900000000246463100W 1220000N                               
CUS0632820000106199789006         BURNETT, SHRENE E.  3111 ROYSTON AVE                        000N        CARE OF             
MTR06328200001000000000000000RA              79077313    005800850000008500000360000003NN  NNW 000                       N    
RDG06328200WATR 000000004R00000000000000011000010042015180000N000300000090N         000000400R 10000000010000000000           
RFF0632820069231896      ERT      0000  956.44375000140000100420151800000000111073100W 1220000N                               
CUS0632820000106199790004         AIKIN, GRANT R.     3113 ROYSTON AVE                        000N        CARE OF             
MTR06328200001000000000000000RA              79077338    005800860000008600000360000003NN  NNW 000                       N    
RDG06328200WATR 000000004R00000000000000011000010042015190000N000300000090N         000000400R 10000000010000000000           
RFF0632820069234439      ERT      0000  956.44375000140000100420151900000000117094100W 1220000N                               
CUS0632820000106199791002         OLIPHANT, JOHN T    3115 ROYSTON AVE                        000N        CARE OF             
MTR06328200001000000000000000RA              79077339    005800870000008700000360000003NN  NNW 000                       N    
RDG06328200WATR 000000004R00000000000000012000010042015180000N000300000090N         000000400R 10000000010000000000           
RFF0632820069234487      ERT      0000  956.44375000140000100420151800000000120261100W 1220000N                               
CUS0632820000106199792000         SNYDER, LAWRENCE R (3119 ROYSTON AVE                        000N        CARE OF             
MTR06328200001000000000000000RA              14905601    005800880000008800000310000003NY  NNW 000                       N    
MTM0632820014905601    clean out vault                                                                                        
RDG06328200WATRL000000004K00000000000000000000000000000000000 000000000000U         000000400  10000000010000000816           
CUS0632820000106433147003         SHONDA WILLIAMS     3121 ROYSTON AVE                        000N        CARE OF             
MTR06328200001000000000000000RA              79077341    005800890000008900000360000003NN  NNW 000                       N    
RDG06328200WATR 000000004R00000000000000012000010042015190000N000300000090N         000000400R 10000000010000000000           
RFF0632820069234441      ERT      0000  956.44375000140000100420151900000000122600100W 1220000N                               
CUS0632820000106199793008         JOANNE BERTI        6201 EUNICE AVE                         000N        CARE OF             
MTR06328200001000000000000000RA              79077340    005800900000009000000360000003NN  NNW 000                       N    
RDG06328200WATR 000000004R00000000000000009000010042015190000N000300000090N         000000400R 10000000010000000000           
RFF0632820069234438      ERT      0000  956.44375000140000100420151900000000091403100W 1220000N                               
CUS0632820000106199794006         THOMAS, TIMOTHY A   6203 EUNICE AVE                         000N        CARE OF             
MTR06328200001000000000000000RA              9595474     005800910000009100000570000003NY  NNW 000                       N    
MTM063282009595474     STUCK                                                                                                  
RDG06328200WATRL000000004K00000000000007639000710022015102401N000000000000U40       001640400K 10000000010000007596           
CUS0632820000106199795003         WENDY DAVIS         6205 EUNICE AVE                         000N        CARE OF             
MTR06328200001000000000000000RA              79077336    005800920000009200000360000003NN  NNW 000                       N    
RDG06328200WATR 000000004R00000000000000004000010042015180000N000300000090N         000000400R 10000000010000000000           
RFF0632820069234498      ERT      0000  956.44375000140000100420151800000000043085100W 1220000N                               
CUS0632820000106199796001         JOHNSON, CHANEL T.  6207 EUNICE AVE                         000N        CARE OF             
MTR06328200001000000000000000RA              79077405    005800930000009300000360000003NN  NNW 000                       N    
RDG06328200WATR 000000004R00000000000000011000010042015190000N000300000090N         000000400R 10000000010000000000           
RFF0632820069232118      ERT      0000  956.44375000140000100420151900000000116147100W 1220000N                               
CUS0632820000106199797009         WAMPLER, ROSALIE    6209 EUNICE AVE                         000N        CARE OF             
MTR06328200001000000000000000RA              9987273     005800940000009400000570000003NN  NNW 000                       N    
RDG06328200WATRL000000004K00000000000002372001009302015091607N000000000000U40       003650400K 10000000010000002364           
CUS0632820000106199798007         SCELSI, JACQUELINE R6211 EUNICE AVE                         000N        CARE OF             
MTR06328200001000000000000000RA              79077402    005800950000009500000360000003NN  NNW 000                       N    
RDG06328200WATR 000000004R00000000000000013000010042015190000N000300000090N         000000400R 10000000010000000000           
RFF0632820069232091      ERT      0000  956.44375000140000100420151900000000137307100W 1220000N                               
CUS0632820000106199799005         KRAFT, HERBERT C    6213 EUNICE AVE                         000N        CARE OF             
MTR06328200001000000000000000RA              79077403    005800960000009600000360000003NN  NNW 000                       N    
RDG06328200WATR 000000004R00000000000000011000010042015190000N000300000090N         000000400R 10000000010000000000           
RFF0632820069232113      ERT      0000  956.44375000140000100420151900000000116762100W 1220000N                               
CUS0632820000106199800001         FREDERICK FORSYTH & 3114 ROYSTON AVE                        000N        CARE OF             
MTR06328200001000000000000000RA              75618075    005800970000009700000350000003NN  NNW 000                       N    
RDG06328200WATR 000000004R00000000000000290000010042015190000N000300000090N         000000400R 10000000010000000265           
RFF0632820069116845      ERT      0000  956.44375000140000100420151900000002900567100W 1220000N                               
CUS0632820000106199801009         MILLS, ALISA        3112 ROYSTON AVE                        000N        CARE OF             
MTR06328200001000000000000000RA              79077337    005800980000009800000360000003NN  NNW 000                       N    
RDG06328200WATR 000000004R00000000000000007000010042015190000N000300000090N         000000400R 10000000010000000000           
RFF0632820069234496      ERT      0000  956.44375000140000100420151900000000073659100W 1220000N                               
CUS0632820000106199802007         WITHERSPOON, JOHNNY 3110 ROYSTON AVE                        000N        CARE OF             
MTR06328200001000000000000000RA              79077317    005800990000009900000360000003NN  NNW 000                       N    
RDG06328200WATR 000000004R00000000000000020000010042015190000N000300000090N         000000400R 10000000010000000000           
RFF0632820069232128      ERT      0000  956.44375000140000100420151900000000207771100W 1220000N                               
CUS0632820000106199803005         BOWMAN, STACIE L.   3106 ROYSTON AVE                        000N        CARE OF             
MTR06328200001000000000000000RA              79077315    005801000000010000000360000003NN  NNW 000                       N    
RDG06328200WATR 000000004R00000000000000006000010042015180000N000300000090N         000000400R 10000000010000000000           
RFF0632820069232155      ERT      0000  956.44375000140000100420151800000000063164100W 1220000N                               
CUS0632820000106199804003         FEDERAL HOME LOAN MO3104 ROYSTON AVE                        000N        CARE OF             
MTR06328200001000000000000000RA              79077314    005801010000010100000360000003NN  NNW 000                       N    
RDG06328200WATR 000000004R00000000000000006000010042015190000N000300000090N         000000400R 10000000010000000000           
RFF0632820069232144      ERT      0000  956.44375000140000100420151900000000064347100W 1220000N                               
CUS0632820000106199805000         WILLIAMS, STEPHEN P 3102 ROYSTON AVE                        000N        CARE OF             
MTR06328200001000000000000000RA              2476683     005801020000010200000520000003NN  NNW 000                       N    
RDG06328200WATRL000000004K00000000000002594000909302015091002N000000000000U40       000080400K 10000000010000002575           
CUS0632820000106199806008         NETZER, MARY A.     3100 ROYSTON AVE                        000N        CARE OF             
MTR06328200001000000000000000RA              79077220    005801030000010300000360000003NN  NNW 000                       N    
RDG06328200WATR 000000004R00000000000000006000010042015180000N000300000090N         000000400R 10000000010000000000           
RFF0632820069233492      ERT      0000  956.44375000140000100420151800000000069564100W 1220000N                               
CUS0632820000106199807006         JOHN P KANE         3020 ROYSTON AVE                        000N        CARE OF             
MTR06328200001000000000000000RA              79077216    005801040000010400000360000003NN  NNW 000                       N    
RDG06328200WATR 000000004R00000000000000020000010042015190000N000300000090N         000000400R 10000000010000000000           
RFF0632820069233986      ERT      0000  956.44375000140000100420151900000000203312100W 1220000N                               
CUS0632820000106199808004         SANDERS, MITCH      3016 ROYSTON AVE                        000N        CARE OF             
MTR06328200001000000000000000RA              79077319    005801050000010500000360000003NN  NNW 000                       N    
RDG06328200WATR 000000004R00000000000000006000010042015190000N000300000090N         000000400R 10000000010000000000           
RFF0632820069233638      ERT      0000  956.44375000140000100420151900000000066109100W 1220000N                               
CUS0632820000106199809002         GILMORE, CHARLES A  3014 ROYSTON AVE                        000N        CARE OF             
MTR06328200001000000000000000RA              79077321    005801060000010600000360000003NN  NNW 000                       N    
RDG06328200WATR 000000004R00000000000000002000010042015190000N000300000090N         000000400R 10000000010000000000           
RFF0632820069233627      ERT      0000  956.44375000140000100420151900000000021489100W 1220000N                               
CUS0632820000106199810000         JUMANS DEVELOPMENT A3012 ROYSTON AVE                        000N        CARE OF             
MTR06328200001000000000000000RA              79240452    005801070000010700000360000003NN  NNW 000                       N    
RDG06328200WATR 000000004R00000000000000010000010042015190000N000300000090N         000000400R 10000000010000000000           
RFF0632820069231175      ERT      0000  956.44375000140000100420151900000000101674100W 1220000N                               
CUS0632820000106199811008         CHARLES W SNYDER    3010 ROYSTON AVE                        000N        CARE OF             
MTR06328200001000000000000000RA              79240456    005801080000010800000360000003NN  NNW 000                       N    
RDG06328200WATR 000000004R00000000000000004000010042015180000N000300000090N         000000400R 10000000010000000000           
RFF0632820069230827      ERT      0000  956.44375000140000100420151800000000040346100W 1220000N                               
CUS0632820000106199812006         MOORE, JASON        3008 ROYSTON AVE                        000N        CARE OF             
MTR06328200001000000000000000RA              79240457    005801090000010900000360000003NN  NNW 000                       N    
RDG06328200WATR 000000004R00000000000000032000010042015180000N000300000090N         000000400R 10000000010000000000           
RFF0632820069231173      ERT      0000  956.44375000140000100420151800000000326486100W 1220000N                               
CUS0632820000106199813004         BURGE, JAMES H      6201-03 HARFORD RD                      000N        CARE OF             
MTR06328200001000000000000000RA              79240420    005801100000011000000360000003NN  NNW 000                       N    
RDG06328200WATR 000000004R00000000000000064000010042015190000N000300000090N         000000400R 10000000010000000000           
RFF0632820069344286      ERT      0000  956.44375000140000100420151900000000642049100W 1220000N                               
CUS0632820000106199814002         BEST PROPERTY I, LLC6205 HARFORD RD                         000N        CARE OF             
MTR06328200001000000000000000RA              79240305    005801110000011100000360000003NN  NNW 000                       N    
RDG06328200WATR 000000004R00000000000000020000010042015190000N000300000090N         000000400R 10000000010000000000           
RFF0632820069231326      ERT      0000  956.44375000140000100420151900000000207817100W 1220000N                               
CUS0632820000106199815009         MCBEE SR., ETAL RONA6207 HARFORD RD                         000N        CARE OF             
MTR06328200001000000000000000RA              79240307    005801120000011200000360000003NN  NNW 000                       N    
RDG06328200WATR 000000004R00000000000000001000010042015190000N000300000090N         000000400R 10000000010000000000           
RFF0632820069231445      ERT      0000  956.44375000140000100420151900000000012729100W 1220000N                               
CUS0632820000106199816007         HERGENHAHN, JOSEPH R6209 HARFORD RD                         000N        CARE OF             
MTR06328200001000000000000000RA              79240306    005801130000011300000360000003NN  NNW 000                       N    
RDG06328200WATR 000000004R00000000000000000000010042015190000N000100000090N         000000400R 10000000010000000000           
RFF0632820069231546      ERT      0000  956.44375000140000100420151900000000000019100W 1220000N                               
CUS0632820000106199817005         BROWN, TAIWO        6211 HARFORD RD                         000N        CARE OF             
MTR06328200001000000000000000RA              77886861    005801140000011400000360000003NN  NNW 000                       N    
RDG06328200WATR 000000004R00000000000000008000010042015180000N000300000090N         000000400R 10000000010000000006           
RFF0632820069342503      ERT      0000  956.44375000140000100420151800000000081130100W 1220000N                               
CUS0632820000106199818003         VALERIE MELVIN      6215 HARFORD RD                         000N        CARE OF             
MTR06328200001000000000000000RA              77882059    005801150000011500000360000003NN  NNW 000                       N    
RDG06328200WATR 000000004R00000000000000019000010042015190000N000300000090N         000000400R 10000000010000000012           
RFF0632820069342507      ERT      0000  956.44375000140000100420151900000000198512100W 1220000N                               
CUS0632820000106199819001         MONTILLA JR, LINO M 6217 HARFORD RD                         000N        CARE OF             
MTR06328200001000000000000000RA              79240303    005801160000011600000360000003NN  NNW 000                       N    
RDG06328200WATR 000000004R00000000000000003000010042015190000N000300000090N         000000400R 10000000010000000000           
RFF0632820069231434      ERT      0000  956.44375000140000100420151900000000038709100W 1220000N                               
CUS0632820000106199820009         KOUTELIS, ADAM A.   6219 HARFORD RD                         000N        CARE OF             
MTR06328200001000000000000000RA              79077342    005801170000011700000360000003NN  NNW 000                       N    
RDG06328200WATR 000000004R00000000000000101000010042015190000N000300000090N         000000400R 10000000010000000000           
RFF0632820069234006      ERT      0000  956.44375000140000100420151900000001010975100W 1220000N                               
CUS0632820000106199821007         101 GENEVA, LLC     3005 LOUISE AVE                         000N        CARE OF             
MTR06328200001000000000000000RA              52769992    005801180000011800000520000000NN  NNW 000                       N    
RDG06328200WATRL000000004K00000000000000003001109302015091949N000300000031U40       001320400K 10000000010000001433           
CUS0632820000106199822005         BMW CONSULTING, LLC 3007 LOUISE AVE                         000N        CARE OF             
MTR06328200001000000000000000RA              79077242    005801190000011900000360000003NN  NNW 000                       N    
RDG06328200WATR 000000004R00000000000000043000010042015190000N000300000090N         000000400R 10000000010000000000           
RFF0632820069231591      ERT      0000  956.44375000140000100420151900000000431276100W 1220000N                               
CUS0632820000106199823003         SPRUIELL, DINA MICHE3009 LOUISE AVE                         000N        CARE OF             
MTR06328200001000000000000000RA              79077244    005801200000012000000360000003NN  NNW 000                       N    
RDG06328200WATR 000000004R00000000000000005000010042015190000N000300000090N         000000400R 10000000010000000000           
RFF0632820069232136      ERT      0000  956.44375000140000100420151900000000053190100W 1220000N                               
CUS0632820000106199824001         WALTER GR WIRSCHING&3013 LOUISE AVE                         000N        CARE OF             
MTR06328200001000000000000000RA              79240401    005801210000012100000360000003NN  NNW 000   VACANT PROPERTY     N    
RDG06328200WATR 000000004R00000000000000000000010042015190000N000100000090N         000000400R 10000000010000000000           
RFF0632820069231088      ERT      0000  956.44375000140000100420151900000000000083100W 1220000N                               
CUS0632820000106199825008         HUMPHRIES, CHRISTINE3015 LOUISE AVE                         000N        CARE OF             
MTR06328200001000000000000000RA              79240400    005801220000012200000360000003NN  NNW 000                       N    
RDG06328200WATR 000000004R00000000000000010000010042015180000N000300000090N         000000400R 10000000010000000000           
RFF0632820069231062      ERT      0000  956.44375000140000100420151800000000109839100W 1220000N                               
CUS0632820000106199826006         SNOW-CROFT, SHEILA  3017 LOUISE AVE                         000N        CARE OF             
MTR06328200001000000000000000RA              79240399    005801230000012300000360000003NN  NNW 000                       N    
RDG06328200WATR 000000004R00000000000000010000010042015180000N000300000090N         000000400R 10000000010000000000           
RFF0632820069231064      ERT      0000  956.44375000140000100420151800000000107780100W 1220000N                               
CUS0632820000106199827004         FIGUEIREDO, ALEXANDE3101 LOUISE AVE                         000N        CARE OF             
MTR06328200001000000000000000RA              79240414    005801240000012400000360000003NN  NNW 000                       N    
RDG06328200WATR 000000004R00000000000000008000010042015180000N000300000090N         000000400R 10000000010000000000           
RFF0632820069343085      ERT      0000  956.44375000140000100420151800000000085282100W 1220000N                               
CUS0632820000106199828002         FIGUEIREDO, MARINALD3103 LOUISE AVE                         000N        CARE OF             
MTR06328200001000000000000000RA              79240412    005801250000012500000360000003NN  NNW 000                       N    
RDG06328200WATR 000000004R00000000000000006000010042015190000N000300000090N         000000400R 10000000010000000000           
RFF0632820069343106      ERT      0000  956.44375000140000100420151900000000067196100W 1220000N                               
CUS0632820000106199829000         STEINBERG, AARON M. 3105 LOUISE AVE                         000N        CARE OF             
MTR06328200001000000000000000RA              79240293    005801260000012600000360000003NN  NNW 000   VACANT PROPERTY     N    
RDG06328200WATR 000000004R00000000000000000000010042015190000N000100000090N         000000400R 10000000010000000000           
RFF0632820069231331      ERT      0000  956.44375000140000100420151900000000000020100W 1220000N                               
CUS0632820000106199830008         SHEFFIELD, JULIUS T.3107 LOUISE AVE                         000N        CARE OF             
MTR06328200001000000000000000RA              79240291    005801270000012700000360000003NN  NNW 000                       N    
RDG06328200WATR 000000004R00000000000000009000010042015190000N000300000090N         000000400R 10000000010000000000           
RFF0632820069231385      ERT      0000  956.44375000140000100420151900000000096371100W 1220000N                               
CUS0632820000106199831006         REJAS, GISELLE      3109 LOUISE AVE                         000N        CARE OF             
MTR06328200001000000000000000RA              75614563    005801280000012800000350000003NN  NNW 000                       N    
RDG06328200WATR 000000004R00000000000000206000010042015190000N000300000090N         000000400R 10000000010000000187           
RFF0632820069280373      ERT      0000  956.44375000140000100420151900000002065393100W 1220000N                               
CUS0632820000106199832004         GOON, KIMBERLY      3111 LOUISE AVE                         000N        CARE OF             
MTR06328200001000000000000000RA              79240292    005801290000012900000360000003NN  NNW 000                       N    
RDG06328200WATR 000000004R00000000000000009000010042015190000N000300000090N         000000400R 10000000010000000000           
RFF0632820069231398      ERT      0000  956.44375000140000100420151900000000098162100W 1220000N                               
CUS0632820000106199833002         FEUSTEL, EDWARD     3113 LOUISE AVE                         000N        CARE OF             
MTR06328200001000000000000000RA              9685114     005801300000013000000570000003NN  NNW 000                       N    
RDG06328200WATRL000000004K00000000000001956001209302015091737N000100000010U40       000060400K 10000000010000001956           
CUS0632820000106199478006         BOEHMER, CHRISTINA  6301 EUNICE AVE                         000N        CARE OF             
MTR06328200001000000000000000RA              79077407    005801310000013100000360000003NN  NNW 000                       N    
RDG06328200WATR 000000004R00000000000000014000010042015190000N000300000090N         000000400R 10000000010000000000           
RFF0632820069232093      ERT      0000  956.44375000140000100420151900000000147878100W 1220000N                               
CUS0632820000106199479004         CEVALLOS, ROBERT E. 6303 EUNICE AVE                         000N        CARE OF             
MTR06328200001000000000000000RA              79077406    005801320000013200000360000003NN  NNW 000                       N    
RDG06328200WATR 000000004R00000000000000014000010042015190000N000300000090N         000000400R 10000000010000000000           
RFF0632820069232094      ERT      0000  956.44375000140000100420151900000000146692100W 1220000N                               
CUS0632820000106199480002         HARRINGTON, JAMES C 6305 EUNICE AVE                         000N        CARE OF             
MTR06328200001000000000000000RA              79077404    005801330000013300000360000003NN  NNW 000                       N    
RDG06328200WATR 000000004R00000000000000008000010042015190000N000300000090N         000000400R 10000000010000000000           
RFF0632820069232079      ERT      0000  956.44375000140000100420151900000000082047100W 1220000N                               
CUS0632820000106199481000         URBANSKI, ROBERT F  6307 EUNICE AVE                         000N        CARE OF             
MTR06328200001000000000000000RA              79077222    005801340000013400000360000003NN  NNW 000                       N    
RDG06328200WATR 000000004R00000000000000003000010042015180000N000300000090N         000000400R 10000000010000000000           
RFF0632820069232107      ERT      0000  956.44375000140000100420151800000000031390100W 1220000N                               
CUS0632820000106199482008         FREY, CAROL         6309 EUNICE AVE                         000N        CARE OF             
MTR06328200001000000000000000RA              79077223    005801350000013500000360000003NN  NNW 000                       N    
RDG06328200WATR 000000004R00000000000000026000010042015190000N000300000090N         000000400R 10000000010000000000           
RFF0632820069234479      ERT      0000  956.44375000140000100420151900000000260156100W 1220000N                               
CUS0632820000106199483006         EVERETT, DANIEL A   6302 EUNICE AVE                         000N        CARE OF             
MTR06328200001000000000000000RA              79077227    005801360000013600000360000003NN  NNW 000                       N    
RDG06328200WATR 000000004R00000000000000008000010042015190000N000300000090N         000000400R 10000000010000000000           
RFF0632820069232101      ERT      0000  956.44375000140000100420151900000000084081100W 1220000N                               
CUS0632820000106199484004         LEVENDOSKY, ROBERT F6300 EUNICE AVE                         000N        CARE OF             
MTR06328200001000000000000000RA              79077226    005801370000013700000360000003NN  NNW 000                       N    
RDG06328200WATR 000000004R00000000000000011000010042015190000N000300000090N         000000400R 10000000010000000000           
RFF0632820069234285      ERT      0000  956.44375000140000100420151900000000112556100W 1220000N                               
CUS0632820000106199485001         ROSS, CALVIN        3114 LOUISE AVE                         000N        CARE OF             
MTR06328200001000000000000000RA              79240396    005801380000013800000360000003NN  NNW 000                       N    
RDG06328200WATR 000000004R00000000000000000000010042015190000N000100000090N         000000400R 10000000010000000000           
RFF0632820069231178      ERT      0000  956.44375000140000100420151900000000000020100W 1220000N                               
CUS0632820000106199486009         GEORGE F KURGAN JR  3112 LOUISE AVE                         000N        CARE OF             
MTR06328200001000000000000000RA              79240295    005801390000013900000360000003NN  NNW 000                       N    
RDG06328200WATR 000000004R00000000000000008000010042015190000N000300000090N         000000400R 10000000010000000000           
RFF0632820069231310      ERT      0000  956.44375000140000100420151900000000088201100W 1220000N                               
CUS0632820000106199487007         PRIVATEER, CARLA M. 3110 LOUISE AVE                         000N        CARE OF             
MTR06328200001000000000000000RA              79240290    005801400000014000000360000003NN  NNW 000   VACANT PROPERTY     N    
RDG06328200WATR 000000004R00000000000000000000010042015180000N000100000090N         000000400R 10000000010000000000           
RFF0632820069231351      ERT      0000  956.44375000140000100420151800000000000233100W 1220000N                               
CUS0632820000106199488005         MARSHALLSAY, TIMOTHY3106 LOUISE AVE                         000N        CARE OF             
