FHDNNNN022005359005359005413N                                                                                           020884
RHD09003600NN01040104000001040000000000890089000066NY008900890104001500070000000000000000000001    09212015NY020000 N         
CUS0900360000109256732000         GENESIS HEALTH CARE 3330 WILKENS AVE                        000N        CARE OF             
MTR09003600001000000000000000RA              9310133     000400010010000100100640000003NY  NNW 000                       N    
MTM090036009310133     buried                                                                                                 
RDG09003600WATRL000000006K00000000000000000000000000000000000 000000000000U         000000600  10000000010000020461           
CUS0900360000109256733008         AMUL PROPERTIES, LLC3434-48 WILKENS AVE                     000N        CARE OF             
MTR09003600001000000000000000RA              29768435    000200020000000200000520000003NN  NNW 000                       N    
RDG09003600WATRL000000005K00000000000054009000110102015115542N000000000000N83       000000500K 10000000010000053920           
CUS0900360000109417416006         LOUDON PARK MEMORIAL3620 WILKENS AVE                        000N        CARE OF             
MTR09003600001000000000000000RA              01105430    000200030000000300000610000003NY  NNW 000                       N    
MTM0900360001105430    buried                                                                                                 
RDG09003600WATRL000000005K00000000000000000000000000000000000 000000000000U         000000500  10000000010000001850           
CUS0900360000109256743007         KUNTZ, HUGO L (TR) (3801 SOUTHWESTERN BLVD                  000N        CARE OF             
MTR09003600001000000000000000RA              99376002    007500040000000400000570000003NN  NNW 000                       N    
RDG09003600WATRL000000004K00000000000000007000210102015115621N000304104110N83       000390400K 10000000010000002998           
CUS0900360000109256738007         NUWAY REALTY CORP   1000 HAVERHILL RD                       000N        CARE OF             
MTR09003600001000000000000000RA              5275698     000800050000000500000410000000NY  NNW 000   FIRE SERVICE        N    
MTM090036005275698     clean out                                                                                              
RDG09003600WATRL000000006K00000000000000000000000000000000000 000000000000U         000000600  10000000010000000004           
CUS0900360000109256739005         NUWAY REALTY CORP   1000 HAVERHILL RD                       000N        CARE OF             
MTR09003600001000000000000000RA              31345980    007500060000000600000520000003NN  NNW 000                       N    
RDG09003600WATRL000000004K00000000000000000000000000000000000 000000000000U         000000400  10000000010000007823           
CUS0900360000109256744005         MAYOR & CITY COUNCIL1011 JOH AVE                            000N        CARE OF             
MTR09003600001000000000000000RA              26100859    001500070000000700000520000003NN  NNW 000                       N    
RDG09003600WATRL000000005K00000000000029444000310102015115632N000000000000N83       000110500K 10000000010000029444           
CUS0900360000109256735003         BUREAU OF EDUCATION 1207 PINE HTS AVE                       000N        CARE OF             
MTR09003600002000000000000000RA              5417362     000600080000000800000630000003NN  NNW 000                       N    
RDG09003600WATAL000000006K00000000000000000000410102015115848N000100000010N83       001360600K 10000000010000000000           
RDG09003600WATBL000000006K00000000000001268000510102015115854N000400000010N83       000060600K 10000000010000001142           
CUS0900360000109256737009         BUREAU OF INSPECTION1207 PINE HTS AVE                       000N        CARE OF             
MTR09003600001000000000000000RA              01105725    000200090000000900000610000003NY  NNW 000                       N    
MTM0900360001105725    CLEAN OUT                                                                                              
RDG09003600WATRL000000005K00000000000000000000000000000000000 000000000000U         000000500  10000000010000003944           
CUS0900360000109386662002         3421 BENSON AVENUE, 3421 BENSON AVE                         000N        CARE OF             
MTR09003600001000000000000000RA              9500847     000400100000001000000640000003NN  NNW 000                       N    
RDG09003600WATRL000000006K00000000000002985000610102015115920N000000000000N83       000260600K 10000000010000002913           
CUS0900360000109386661004         3421 BENSON AVENUE, 3421 BENSON AVE                         000N        CARE OF             
MTR09003600001000000000000000RA              E21173      000600110000001100000430000003NN  NNW 000   FIRE SERVICE        N    
RDG09003600WATRL000000006K00000000000000000000710102015115922N000000000000N83       000020600K 10000000010000000000           
CUS0900360000109410130000         CATHOLIC CHARITIESC 1000 S CATON AVE                        000N        CARE OF             
MTR09003600002000000000000000RA              9058241     000800120000001200000630000003NN  NNW 000                       N    
RDG09003600WATAL000000006K00000000000000000000810102015115936N000300000010N83       000140600K 10000000010000000042           
RDG09003600WATBL000000006K00000000000040882000910102015115943N000400000010N83       000070600K 10000000010000037139           
CUS0900360000109397552002         SDC NEW RIDGE PKWY&B3431 BENSON AVE                         000N        CARE OF             
MTR09003600001000000000000000RA              35116841    000200130000001300000520000003NN  NNW 000                       N    
RDG09003600WATRL000000005K00000000000010736001010102015115949N000000000000N83       000060500K 10000000010000010693           
CUS0900360000109397550006         SDC NEW RIDGE PKWY/B3431 BENSON AVE                         000N        CARE OF             
MTR09003600001000000000000000RA              7196576     000800140000001400000340000000NY  NNW 000   FIRE SERVICE        N    
MTM090036007196576     OK                                                                                                     
RDG09003600WATRL000000006K00000000000000000001110102015120202N000000000010N83       001330600K 10000000010000000002           
CUS0900360000109256725004         FF & D, LLC         3501 BENSON AVE                         000N        CARE OF             
MTR09003600001000000000000000RA              41588810    005800150000001500000520000003NN  NNW 000                       N    
RDG09003600WATRL000000004K00000000000005752001210102015120254N000000000000N83       000520400K 10000000010000005708           
CUS0900360000109256724007         FF & D, LLC         3501 BENSON AVE                         000N        CARE OF             
MTR09003600001000000000000000RA              2029101     000600160000001600000410000003NN  NNW 000   FIRE SERVICE        N    
RDG09003600WATRL000000006K00000000000000000001310132015120709S005000000000U91       000000600K 10000000010000000019           
CUS0900360000109256722001         CALEAST NAT, LLC    3639 BENSON AVE                         000N        CARE OF             
MTR09003600001000000000000000RA              01116698    000200170000001700000610000003NN  NNW 000                       N    
RDG09003600WATRL000000005K00000000000002925001410102015120334N000000000000N83       000230500K 10000000010000002878           
CUS0900360000109256721003         CALEAST NAT, LLC    3639 BENSON AVE                         000N        CARE OF             
MTR09003600002000000000000000RA              5003424     000600180000001800000630000003NN  NNW 000   FIRE SERVICE        N    
RDG09003600WATAL000000006K00000000000000000001510102015120337N000000000000N83       000030600K 10000000010000000000           
RDG09003600WATBL000000006K00000000000000015001610102015120343N000400000010N83       000060600K 10000000010000000014           
CUS0900360000109256723009         DOKA USA, LTD.      3665 BENSON AVE                         000N        CARE OF             
MTR09003600001000000000000000RA              01105451    000200190000001900000610000003NN  NNW 000                       N    
RDG09003600WATRL000000005K00000000000005846001710102015120350N000000000000N83       000070500K 10000000010000005580           
CUS0900360000109442293008         FF&D LTD PARTNERSHIP3601 BENSON AVE                         000N        CARE OF             
MTR09003600001000000000000000RA              8051032     000800200000002000000410000000NN  NNW 000   FIRE SERVICE        N    
RDG09003600WATRL000000006K00000000000000077001810102015120358N000000000000N83       000080600K 10000000010000000075           
CUS0900360000109442294006         FF&D, LLC           3601 BENSON AVE                         000N        CARE OF             
MTR09003600001000000000000000RA              99999999    007500210000002100000620000000NN  NNW 000                       N    
RDG09003600WATRL000000004K00000000000000234001910102015120401N000000000000N83       000030400K 10000000010000000226           
CUS0900360000109385662003         1420 JOH AVENUE, LLC1420 JOH AVE                            000N        CARE OF             
MTR09003600002000000000000000RA              7135771     000800220000002200000480000003NY  NNW 000   FIRE SERVICE        N    
MTM090036007135771     ERT                                                                                                    
RDG09003600WATAL000000006K00000000000000003002010132015120808N000000000000U91       000590600K 10000000010000000003           
RDG09003600WATBL000000006K00000000000000000000000000000000000 000000000000U         000000600  10000000010000000085           
CUS0900360000109385663001         1420 JOH AVENUE, LLC1420 JOH AVE                            000N        CARE OF             
MTR09003600001000000000000000RA              35105031    001500230000002300000520000003NN  NNW 000                       N    
RDG09003600WATRL000000005K00000000000036505002110102015120558N000000000000N83       000850500K 10000000010000036318           
CUS0900360000109428607007         MARCH PROPERTIES,LLC1440 JOH AVE                            000N        CARE OF             
MTR09003600002000000000000000RA              70067472    000800240000002400000560000003NY  NNW 000                       N    
MTM0900360070067472    OK                                                                                                     
RDG09003600WATAL000000006K00000000000000032002210102015120605N000100000010N83       000070600K 10000000010000000032           
RDG09003600WATBL000000006K00000000000000756002310102015120633N000300000010N83       000280600K 10000000010000000758           
CUS0900360000109388469000         MDK TRIANGLE LLC    1500 JOH AVE                            000N        CARE OF             
MTR09003600002000000000000000RA              7180022     000800250000002500000630000003NN  NNW 000                       N    
RDG09003600WATAL000000006K00000000000000005002410102015120639N000100000010N83       000060600K 10000000010000000005           
RDG09003600WATBL000000006K00000000000002127002510102015120657N000400000010N83       000180600K 10000000010000001943           
CUS0900360000109400681004         HIGHROAD LLC        1520 S CATON AVE                        000N        CARE OF             
MTR09003600001000000000000000RA              01105741    000200260000002600000610000003NN  NNW 000                       N    
RDG09003600WATRL000000005K00000000000008832002610102015120708N000000000000N83       000110500K 10000000010000008688           
CUS0900360000109400679008         HIGHROAD LLC        1520 S CATON AVE                        000N        CARE OF             
MTR09003600001000000000000000RA              E23071      000600270000002700000430000003NN  NNW 000   FIRE SERVICE        N    
RDG09003600WATRL000000006K00000000000000000002710102015120711N000000000000N83       000030600K 10000000010000000000           
CUS0900360000109380890005         CLOVERLEAF PROPERTY 1521-31 EDGEWOOD ST                     000N        CARE OF             
MTR09003600001000000000000000RA              01105869    000200280000002800000610000003NN  NNW 000                       N    
RDG09003600WATRL000000005K00000000000003109002810102015120718N000100000010N83       000070500K 10000000010000003109           
CUS0900360000109388579006         CLOVERLEAF PROPERTY 1501 S EDGEWOOD ST                      000N        CARE OF             
MTR09003600001000000000000000RA              01105588    000200290000002900000610000003NY  NNW 000                       N    
MTM0900360001105588    OK                                                                                                     
RDG09003600WATRL000000005K00000000000001143002910102015120729N000100000010N83       000110500K 10000000010000001143           
CUS0900360000109438287006         UNITED STATES POSTAL1500 CHERRY HILL RD                     000N        CARE OF             
MTR09003600001000000000000000RA              01117218    000200300000003000000610000000NN  NNW 000                       N    
RDG09003600WATRL000000005K00000000000001530008210102015125314N000000000000N83       017920500K 10000000010000001495           
CUS0900360000109438285000         UNITED STATES POSTAL1500 CHERRY HILL RD                     000N        CARE OF             
MTR09003600001000000000000000RA              8049414     000600310000003100000380000003NN  NNW 000   FIRE SERVICE        N    
RDG09003600WATRL000000006K00000000000000006008310102015125317N000000000000N83       000030600K 10000000010000000006           
CUS0900360000109377544003         1500 SOUTH EDGEWOOD,1500 S EDGEWOOD ST                      000N        CARE OF             
MTR09003600001000000000000000RA              9305911     000300320000003200000640000003NN  NNW 000                       N    
RDG09003600WATRL000000005K00000000000000001003010102015120800N000304104110N83       000310500K 10000000010000000182           
CUS0900360000109377543005         1500 SOUTH EDGEWOOD,1500 S EDGEWOOD ST                      000N        CARE OF             
MTR09003600002000000000000000RA              6029521     000600330000003300000480000003NY  NNW 000   FIRE SERVICE        N    
MTM090036006029521     OK                                                                                                     
RDG09003600WATAL000000006K00000000000000001003110132015120955N000000000010U91       001070600K 10000000010000000053           
RDG09003600WATBL000000006K00000000000000000003210132015120958S005000000000U91       000030600K 10000000010000000089           
CUS0900360000109382369008         CATONS HOSPITALITY, 1401 BLOOMFIELD AVE                     000N        CARE OF             
MTR09003600002000000000000000RA              7116929     000800340000003400000480000003NN  NNW 000   FIRE SERVICE        N    
RDG09003600WATAL000000006K00000000000000163003310102015120914N000000000000N83       000070600K 10000000010000000163           
RDG09003600WATBL000000006K00000000000000000003410102015120921N000100000010N83       000070600K 10000000010000000000           
CUS0900360000109382483007         CATONS HOSPITALITY, 1401 BLOOMFIELD AVE                     000N        CARE OF             
MTR09003600001000000000000000RA              1400017     000400350000003500000490000003NN  NNW 000                       N    
RDG09003600WATRL000000006K00000000000023528000510132015121014N000000000000U91       000160600K 10000000010000021027           
CUS0900360000109371668006         BOYD HALETHORPE GSA,3701 KOPPERS ST                         000N        CARE OF             
MTR09003600001000000000000000RA              11800695    000300360000003600000460000003NN  NNW 000                       N    
RDG09003600WATRL000000005K00000000000000675003510102015120931N000000000000N83       000100500K 10000000010000000559           
CUS0900360000109371667008         BOYD HALETHORPE GSA,3701 KOPPERS ST                         000N        CARE OF             
MTR09003600001000000000000000RA              E16514      000600370000003700000430000003NN  NNW 000   FIRE SERVICE        N    
RDG09003600WATRL000000006K00000000000000000003610102015120935N000000000000N83       000040600K 10000000010000000000           
CUS0900360000109369887006         THE MUELLER PARTNERS1401 S EDGEWOOD ST                      000N        CARE OF             
MTR09003600001000000000000000RA              00066726    000200380000003800000570000003NN  NNW 000                       N    
RDG09003600WATRL000000005K00000000000002237003710102015120937N000000000000N83       000020500K 10000000010000002203           
CUS0900360000109415420000         ENVIROTEST          1411 S EDGEWOOD ST                      000N        CARE OF             
MTR09003600001000000000000000RA              44030433    007500390000003900000520000003NN  NNW 000                       N    
RDG09003600WATRL000000004K00000000000006107003810102015120942N000000000000N83       000050400K 10000000010000006096           
CUS0900360000109256720005         KOPPERS PROPERTY, LL3700 KOPPERS ST                         000N        CARE OF             
MTR09003600001000000000000000RA              31602186    000200400000004000000520000003NN  NNW 000                       N    
RDG09003600WATRL000000005K00000000000041864000610132015121025N000000000000U91       000110500K 10000000010000041696           
CUS0900360000109256719007         KOPPERS PROPERTY, LL3700 KOPPERS ST                         000N        CARE OF             
MTR09003600001000000000000000RA              5603842     000600410000004100000410000003NY  NNW 000   FIRE SERVICE        N    
MTM090036005603842     CEMENT IN VAULT                                                                                        
RDG09003600WATRL000000006K00000000000000000000000000000000000 000000000000U         000000600  10000000010000000042           
CUS0900360000109256727000         ELECTRO CIRCUITS    1202-12 S CATON AVE                     000N        CARE OF             
MTR09003600001000000000000000RA              71810996    000200420000004200000490000003NN  NNW 000                       N    
RDG09003600WATRL000000005K00000000000002170000710132015121129N000000000000U91       000640500K 10000000010000002161           
CUS0900360000109256728008         ARCHBISHOP KEOUGH   1201 S CATON AVE                        000N        CARE OF             
MTR09003600002000000000000000RA              4234290     000600430000004300000630000003NN  NNW 000                       N    
RDG09003600WATAL000000006K00000000000000000003910102015121058N000100000010N83       000760600K 10000000010000000000           
RDG09003600WATBL000000006K00000000000004356004010102015121104N000400000010N83       000060600K 10000000010000004029           
CUS0900360000109438608003         SMO INC             1517-23 S CATON AVE                     000N        CARE OF             
MTR09003600001000000000000000RA              01105234    001500440000004400000610000000NN  NNW 000                       N    
RDG09003600WATRL000000005K00000000000003202004110102015121109N000000000000N83       000050500K 10000000010000003147           
CUS0900360000109416853001         ROBERTS OXYGEN CO IN1601 S CATON AVE                        000N        CARE OF             
MTR09003600001000000000000000RA              44030769    007500450000004500000520000003NN  NNW 000                       N    
RDG09003600WATRL000000004K00000000000002790004210102015121113N000000000000N83       000040400K 10000000010000002762           
CUS0900360000109416851005         ROBERTS OXYGEN CO IN1601 S CATON AVE                        000N        CARE OF             
MTR09003600001000000000000000RA              8034929     000600460000004600000380000003NN  NNW 000   FIRE SERVICE        N    
RDG09003600WATRL000000006K00000000000000003004310102015121117N000000000000N83       000040600K 10000000010000000003           
CUS0900360000109256726002         GIBBONS COMMONS, LLC3201-25 WILKENS AVE                     000N        CARE OF             
MTR09003600001000000000000000RA              12937839    000300470000004700000460000003NN  NNW 000   VACANT PROPERTY     N    
RDG09003600WATRL000000005K00000000000000002004410102015121120N000000000000N83       000030500K 10000000010000000002           
CUS0900360000109443922001         ST AGNES HEALTHCARE 3409 WILKENS AVE                        000N        CARE OF             
MTR09003600002000000000000000RA              0713151     001200480000004800000390000003NY  NNW 000                       N    
MTM090036000713151     OK                                                                                                     
RDG09003600WATAL000000007K00000000000000274004510102015121226N000400000010N83       000660700K 10000000010000000160           
RDG09003600WATBL000000007K00000000000000939004610102015121237N000300000010N83       000110700K 10000000010000297558           
CUS0900360000109457670009         BON SECOURS GIBBONS 900 DESOTO RD                           000N        CARE OF             
MTR09003600001000000000000000RA              99999999    000600480010004800100440000000NY  NNW 000   FIRE SERVICE        N    
MTM0900360099999999    CONSTR                                                                                                 
RDG09003600WATRL000000006K00000000000000000000000000000000000 000000000000U         000000600  10000000010000000000           
CUS0900360000109457675008         BON SECOURS GIBBONS 900 DESOTO RD                           000N        CARE OF             
MTR09003600001000000000000000RA              99999999    000300480020004800200440000000NY  NNW 000   **NEW ACCOUNT**     N    
MTM0900360099999999    CONSTR                                                                                                 
RDG09003600WATRL000000005K00000000000000000000000000000000000 000000000000U         000000500  10000000010000000000           
CUS0900360000109256691008         REALTY ASSOC FUND X,950 DESOTO RD                           000N        CARE OF             
MTR09003600001000000000000000RA              9012816     000300490000004900000640000003NN  NNW 000                       N    
RDG09003600WATRL000000005K00000000000005849000810132015121242N000000000000U91       000730500K 10000000010000005152           
CUS0900360000109256690000         REALTY ASSOC FUND X.950 DESOTO RD                           000N        CARE OF             
MTR09003600002000000000000000RA              5492077     001000500000005000000480000003NY  NNW 000   FIRE SERVICE        N    
MTM090036005492077     CS CS                                                                                                  
RDG09003600WATAL000000007K00000000000000000000000000000000000 000000000000U         000000700  10000000010000000080           
RDG09003600WATBL000000007K00000000000000000000000000000000000 000000000000U         000000700  10000000010000000080           
CUS0900360000109256688004         REALTY ASSOC FUND X,1101 DESOTO RD                          000N        CARE OF             
MTR09003600001000000000000000RA              33084109    000200510000005100000520000003NN  NNW 000                       N    
RDG09003600WATRL000000005K00000000000013787004710102015121304N000000000000N83       000270500K 10000000010000013764           
CUS0900360000109256689002         REALTY ASSOC FUND X,1101 DESOTO RD                          000N        CARE OF             
MTR09003600001000000000000000RA              3719122     001000520000005200000410000003NN  NNW 000   FIRE SERVICE        N    
RDG09003600WATRL000000007K00000000000000000004810132015121333S005000000000U91       000510700K 10000000010000001083           
CUS0900360000109256695009         REALTY ASSOC FUND X,950 DESOTO RD                           000N        CARE OF             
MTR09003600001000000000000000RA              9305946     000300530000005300000640000003NN  NNW 000                       N    
RDG09003600WATRL000000005K00000000000007643004910102015121335N000300000010N83       000280500K 10000000010000003921           
CUS0900360000109256694002         REALTY ASSOC FUND X,950 DESOTO RD                           000N        CARE OF             
MTR09003600002000000000000000RA              5549919     001000540000005400000480000003NN  NNW 000   FIRE SERVICE        N    
RDG09003600WATAL000000007K00000000000000000005010102015121340N000000000000N83       000050700K 10000000010000000000           
RDG09003600WATBL000000007K00000000000000021005110102015121348N000400000010N83       000080700K 10000000010000000000           
CUS0900360000109256693004         MERRITT - DJ1, LLC  1400 DESOTO RD                          000N        CARE OF             
MTR09003600001000000000000000RA              1476479     000200550000005500000490000003NN  NNW 000                       N    
RDG09003600WATRL000000005K00000000000033471005210102015121445N000400000010N83       000570500K 10000000010000033424           
CUS0900360000109256692006         MERRITT - DJ1, LLC  1400 DESOTO RD                          000N        CARE OF             
MTR09003600003000000000000000RA              5467236     000800560000005600000480000003NY  NNW 000   FIRE SERVICE        N    
MTM090036005467236     CS   CS                                                                                                
RDG09003600WATAL000000006K00000000000000000001010132015121348S005000000000U91       000150600K 10000000010000000807           
RDG09003600WATBL000000006K00000000000000000000000000000000000 000000000000U         000000600  10000000010000001824           
RDG09003600WATCL000000006K00000000000000000000000000000000000 000000000000U         000000600  10000000010000001081           
CUS0900360000109400682002         2600 GEORGETOWN ROAD2600 GEORGETOWN RD                      000N        CARE OF             
MTR09003600001000000000000000RA              E23072      000600570000005700000430000003NN  NNW 000   FIRE SERVICE        N    
RDG09003600WATRL000000006K00000000000000000005310102015121458N000000000000N83       000130600K 10000000010000000000           
CUS0900360000109407043000         CSX TRANS, INC      2402 GEORGETOWN RD                      000N        CARE OF             
MTR09003600001000000000000000RA              31588417    000200580000005800000520000003NY  NNW 000                       N    
MTM0900360031588417    CL                                                                                                     
RDG09003600WATRL000000005K00000000000000000000000000000000000 000000000000U         000000500  10000000010000033530           
CUS0900360000109256682007         UP-TO-DATE LAUNDRY, 1215-21 DESOTO RD                       000N        CARE OF             
MTR09003600001000000000000000RA              50791761    005800590000005900000520000003NN  NNW 000                       N    
RDG09003600WATRL000000004K00000000000000000005410132015121540S005000000000U91       001120400K 10000000010000005402           
CUS0900360000109256684003         RONALD L KAUFMAN & W2915 WILMARCO AVE                       000N        CARE OF             
MTR09003600001000000000000000RA              4135376     000800600000006000000410000003NY  NNW 000   FIRE SERVICE        N    
MTM090036004135376     CLEAN OUT                                                                                              
RDG09003600WATRL000000006K00000000000000000000000000000000000 000000000000U         000000600  10000000010000000871           
CUS0900360000109256685000         RONALD L KAUFMAN & W2915 WILMARCO AVE                       000N        CARE OF             
MTR09003600001000000000000000RA              1303749     000200610000006100000490000003NN  NNW 000                       N    
RDG09003600WATRL000000005K00000000000021710001210132015121625N000000000000U91       000450500K 10000000010000021370           
CUS0900360000109256686008         1125 DESOTO ROAD, LL3110 WILMARCO AVE                       000N        CARE OF             
MTR09003600001000000000000000RA              4018025     000800620000006200000410000003NN  NNW 000   FIRE SERVICE        N    
RDG09003600WATRL000000006K00000000000000002005510102015121710N000000000000N83       001230600K 10000000010000000002           
CUS0900360000109256687006         1125 DESOTO ROAD, LL3110 WILMARCO AVE                       000N        CARE OF             
MTR09003600001000000000000000RA              29121651    007500630000006300000520000003NN  NNW 000                       N    
RDG09003600WATRL000000004K00000000000000000005610102015121728N000304104110N83       000180400K 10000000010000000674           
CUS0900360000109403742001         CRG REALTY LLC      1120 WHISTLER AVE                       000N        CARE OF             
MTR09003600001000000000000000RA              42810133    005800640000006400000520000003NN  NNW 000                       N    
RDG09003600WATRL000000004K00000000000000103005710102015121731N000000000000N83       000030400K 10000000010000000087           
CUS0900360000109403740005         CRG REALTY LLC      1120 WHISTLER AVE                       000N        CARE OF             
MTR09003600001000000000000000RA              7234624     000600650000006500000340000003NN  NNW 000   FIRE SERVICE        N    
RDG09003600WATRL000000006K00000000000000006005810102015121737N000000000000N83       000060600K 10000000010000000006           
CUS0900360000109347550007         MILLER, ET. AL., L.L1207 BERNARD DR                         000N        CARE OF             
MTR09003600001000000000000000RA              29069228    007500660000006600000520000003NY  NNW 000                       N    
MTM0900360029069228    OK                                                                                                     
RDG09003600WATRL000000004K00000000000008883005910102015121753N000300000010N83       000160400K 10000000010000008894           
CUS0900360000109347549009         MILLER, ET. AL., L.L1207 BERNARD DR                         000N        CARE OF             
MTR09003600001000000000000000RA              6029442     000600670000006700000410000003NN  NNW 000   FIRE SERVICE        N    
RDG09003600WATRL000000006K00000000000000000006010132015121735S005000000000U91       000700600K 10000000010000000428           
CUS0900360000109256746000         BOND ASSOCIATES     1220 BERNARD DR                         000N        CARE OF             
MTR09003600001000000000000000RA              31346524    001500680000006800000520000003NN  NNW 000                       N    
RDG09003600WATRL000000005K00000000000008170006110102015121820N000000000000N83       000240500K 10000000010000008022           
CUS0900360000109256745002         BOND ASSOCIATES     1220 BERNARD DR                         000N        CARE OF             
MTR09003600001000000000000000RA              5910405     000800690000006900000410000003NN  NNW 000   FIRE SERVICE        N    
RDG09003600WATRL000000006K00000000000000000006210102015121823N000000000000N83       000030600K 10000000010000000000           
CUS0900360000109352129002         BEECH CRAB LLC      1211 BERNARD DR                         000N        CARE OF             
MTR09003600001000000000000000RA              5910407     000800700000007000000410000003NN  NNW 000   FIRE SERVICE        N    
RDG09003600WATRL000000006K00000000000000053006310102015121828N000000000010N83       000050600K 10000000010000000052           
CUS0900360000109352130000         BEECH CRAB LLC      1211 BERNARD DR                         000N        CARE OF             
MTR09003600001000000000000000RA              35109411    000200710000007100000520000003NN  NNW 000                       N    
RDG09003600WATRL000000005K00000000000042389006410102015121838N000000000000N83       000100500K 10000000010000042221           
CUS0900360000109349247008         MAURO/MILES PARTNERS1221 BERNARD DR                         000N        CARE OF             
MTR09003600001000000000000000RA              5910398     000600720000007200000410000003NN  NNW 000   FIRE SERVICE        N    
RDG09003600WATRL000000006K00000000000000000006510102015121843N000000000000N83       000050600K 10000000010000000000           
CUS0900360000109349248006         MAURO/MILES PARTNERS1221 BERNARD DR                         000N        CARE OF             
MTR09003600001000000000000000RA              30528300    007500730000007300000520000003NN  NNW 000                       N    
RDG09003600WATRL000000004K00000000000005743006610102015121846N000000000000N83       000030400K 10000000010000005516           
CUS0900360000109256680001         ANDERSON, ALLEN E.  2601 GEORGETOWN RD                      000N        CARE OF             
MTR09003600001000000000000000RA              14925498    005800740000007400000310000003NN  NNW 000                       N    
RDG09003600WATRL000000004K00000000000000815006710102015121851N000000000000N83       000050400K 10000000010000000811           
CUS0900360000109362091002         TWENTY-SEVEN SAC SEL2929 WASHINGTON BLVD                    000N        CARE OF             
MTR09003600001000000000000000RA              99375953    007500750000007500000570000003NN  NNW 000                       N    
RDG09003600WATRL000000004K00000000000001876006810102015121913N000300000010N83       000220400K 10000000010000001768           
CUS0900360000109361993000         TWENTY-SEVEN SAC SEL2929 WASHINGTON BLVD                    000N        CARE OF             
MTR09003600001000000000000000RA              E13822      000800760000007600000430000003NN  NNW 000   FIRE SERVICE        N    
RDG09003600WATRL000000006K00000000000000002006910102015121925N000000000000N83       000120600K 10000000010000000002           
CUS0900360000109349251000         BUREAU OF OPERATIONS2947 WASHINGTON BLVD                    000N        CARE OF             
MTR09003600001000000000000000RA              14914880    001500770000007700000310000003NN  NNW 000                       N    
RDG09003600WATRL000000005K00000000000002379007010102015121929N000000000000N83       000040500K 10000000010000002290           
CUS0900360000109349250002         BUREAU OF OPERATIONS2947 WASHINGTON BLVD                    000N        CARE OF             
MTR09003600002000000000000000RA              5899519     000600780000007800000480000003NY  NNW 000   CITY FIRE SERV      N    
MTM090036005899519     OK                                                                                                     
RDG09003600WATAL000000006K00000000000000001007110102015122047N000304104110N83       000780600K 10000000010000009317           
RDG09003600WATBL000000006K00000000000000176007210102015122108N000300000010N83       000210600K 10000000010000009510           
CUS0900360000109256709008         1ST MGMT BALTIMORE L2931 WHITTINGTON AVE                    000N        CARE OF             
MTR09003600001000000000000000RA              29768440    000200790000007900000520000003NN  NNW 000                       N    
RDG09003600WATRL000000005K00000000000002151007310102015122145N000000000000N83       000370500K 10000000010000002095           
CUS0900360000109256710006         FIRST MANAGEMENT BAL2915 WHITTINGTON AVE                    000N        CARE OF             
MTR09003600001000000000000000RA              22774005    000100800000008000000520000003NN  NNW 000   VACANT PROPERTY     N    
RDG09003600WATRL000000004K00000000000001632007410102015122149N000000000000N83       000040400K 10000000010000001632           
CUS0900360000109256711004         FION AGUS ARAN, LLC 2905 WHITTINGTON AVE                    000N        CARE OF             
MTR09003600001000000000000000RA              1750122     000600810000008100000410000003NN  NNW 000   FIRE SERVICE        N    
RDG09003600WATRL000000006K00000000000000000007510132015121809S005000000000U91       000340600K 10000000010000000014           
CUS0900360000109256712002         FION AGUS ARAN, LLC 2905 WHITTINGTON AVE                    000N        CARE OF             
MTR09003600001000000000000000RA              36369399    000100820000008200000520000003NN  NNW 000                       N    
RDG09003600WATRL000000004K00000000000004306007610102015122202N000000000000N83       000110400K 10000000010000004120           
CUS0900360000102223431004         PASSAS, ANDRE       2821 WILKENS AVE                        000N        CARE OF             
MTR09003600001000000000000000RA              10021711    005800830000008300000570000003NN  NNW 000                       N    
RDG09003600WATRL000000004K00000000000000085007710102015122242N000300000011N83       000360400K 10000000010000000086           
CUS0900360000102223433000         PASSAS ETAL, HELEN  2801 WILKENS AVE                        000N        CARE OF             
MTR09003600001000000000000000RA              30001372    007500840000008400000570000003NN  NNW 000                       N    
RDG09003600WATRL000000004K00000000000000088007810102015122246N000000000000N83       000040400K 10000000010000000082           
CUS0900360000102223436003         R & H BUILDING SUPPL2793 WILKENS AVE                        000N        CARE OF             
MTR09003600001000000000000000RA              99999999    005800850000008500000620000003NY  NNW 000                       N    
MTM0900360099999999    OK                                                                                                     
RDG09003600WATRL000000004K00000000000000015007910102015122301N000000000010N83       000150400K 10000000010000000043           
CUS0900360000102223435005         BINDU ENTERPRISES, L1201 BERNARD DR                         000N        CARE OF             
MTR09003600001000000000000000RA              2733515     007500860000008600000520000003NN  NNW 000                       N    
RDG09003600WATRL000000004K00000000000003345008010102015122317N000300000010N83       000160400K 10000000010000003323           
CUS0900360000108349205008         MILLER, ET.AL., L.L.1209 BERNARD DR                         000N        CARE OF             
MTR09003600001000000000000000RA              28154079    007500870000008700000520000003NN  NNW 000                       N    
RDG09003600WATRL000000004K00000000000009971008110102015122322N000000000000N83       000050400K 10000000010000009966           
RTR09003600NN01040104000001040000000000890089000066NY008900890104001500070000000000000000000001    09212015NY020000 N         
RHD09003500NN00700070000000700000000000700070000029NY007000700070000300030000000000000000000001    09212015NY020000 N         
CUS0900350000109388296007         G FLAT LLC          211 STOCKHOLM ST                        000N        CARE OF             
MTR09003500001000000000000000RA              E21247      000800010000000100000430000003NN  NNW 000   FIRE SERVICE        N    
RDG09003500WATRL000000006K00000000000000000000110092015112947N000000000000N84       000000600K 10000000010000000000           
CUS0900350000109388298003         G FLAT LLC          211 STOCKHOLM ST                        000N        CARE OF             
MTR09003500001000000000000000RA              01105297    001500020000000200000610000003NN  NNW 000                       N    
RDG09003500WATRL000000005K00000000000001178000210092015112951N000000000000N84       000040500K 10000000010000001145           
CUS0900350000109256545006         CAPLAN BROTHERS, INC700 W HAMBURG ST                        000N        CARE OF             
MTR09003500001000000000000000RA              5910406     000800030000000300000410000003NY  NNW 000   FIRE SERVICE        N    
MTM090035005910406     c/o/v                                                                                                  
RDG09003500WATRL000000006K00000000000000000000000000000000000 000000000000U         000000600  10000000010000000000           
CUS0900350000109256546004         CAPLAN BROTHERS, INC700 W HAMBURG ST                        000N        CARE OF             
MTR09003500001000000000000000RA              35105182    000200040000000400000520000003NN  NNW 000                       N    
RDG09003500WATRL000000005K00000000000018291000310092015113024N000000000000N84       000330500K 10000000010000018196           
CUS0900350000109256548000         MR JERROLD MALAMUT  1300-10 RUSSELL ST                      000N        CARE OF             
MTR09003500001000000000000000RA              01105860    000200050000000500000610000003NN  NNW 000                       N    
RDG09003500WATRL000000005K00000000000004880000410092015113052N000000000000N84       000280500K 10000000010000004723           
CUS0900350000109256549008         RUSSELL STREET DATA 515 STOCKHOLM ST                        000N        CARE OF             
MTR09003500001000000000000000RA              1739214     000800060000000600000410000003NN  NNW 000   FIRE SERVICE        N    
RDG09003500WATRL000000006K00000000000000000000510092015113100N000000000000N84       000080600K 10000000010000000000           
CUS0900350000109256550006         RUSSELL STREET DATA 515 STOCKHOLM ST                        000N        CARE OF             
MTR09003500001000000000000000RA              01105866    000200070000000700000610000003NN  NNW 000                       N    
RDG09003500WATRL000000005K00000000000001055000610092015113106N000000000000N84       000060500K 10000000010000001021           
CUS0900350000109379718001         ANIMAL CONTROL      301 STOCKHOLM ST                        000N        CARE OF             
MTR09003500001000000000000000RA              1395685     000200080000000800000490000003NN  NNW 000                       N    
RDG09003500WATRL000000005K00000000000022090000710092015113111N000000000000N84       000050500K 10000000010000021752           
CUS0900350000109256551004         THE CAPITOL CAKE COM1400 RUSSELL ST                         000N        CARE OF             
MTR09003500001000000000000000RA              14904307    005800090000000900000310000003NN  NNW 000                       N    
RDG09003500WATRL000000004K00000000000001374000810092015113121N000400000010N84       000100400K 10000000010000001373           
CUS0900350000109454586000         CBAC GAMING, LLC    1525 RUSSELL ST                         000N        CARE OF             
MTR09003500001000000000000000RA              0006811     000800100000001000000310000003NY  NNW 000   FIRE SERVICE        N    
MTM090035000006811     ok                                                                                                     
RDG09003500WATRL000000006K00000000000000074000910092015113300N000300000010N84       000990600K 10000000010000000154           
CUS0900350000109454588006         CBAC GAMING, LLC    1525 RUSSELL ST                         000N        CARE OF             
MTR09003500001000000000000000RA              74033010    000600110000001100000000000003NY  NNW 000                       N    
MTM0900350074033010    ok                                                                                                     
RDG09003500WATRL000000006K00000000000023678001010092015113336N000300000010N84       000360600K 10000000010000000444           
CUS0900350000109256554008         SMO INC             1500 RUSSELL ST                         000N        CARE OF             
MTR09003500001000000000000000RA              99409675    000100120000001200000570000003NN  NNW 000                       N    
RDG09003500WATRL000000004K00000000000001913001110092015113456N000000000000N84       000800400K 10000000010000001887           
CUS0900350000109256555005         TWO FARMS, INC. #1381530 RUSSELL ST                         000N        CARE OF             
MTR09003500001000000000000000RA              00066821    001500130000001300000570000003NN  NNW 000                       N    
RDG09003500WATRL000000005K00000000000002622001210092015113500N000000000000N84       000040500K 10000000010000002447           
CUS0900350000109425744001         SOUTHSIDE OIL       1800 RUSSELL ST                         000N        CARE OF             
MTR09003500001000000000000000RA              51447215    000100140000001400000520000000NN  NNW 000                       N    
RDG09003500WATRL000000004K00000000000005640001310092015113506N000000000000N84       000060400K 10000000010000005570           
CUS0900350000109256556003         1547 RIDGELY, LLC.  1567 RIDGELY ST                         000N        CARE OF             
MTR09003500001000000000000000RA              E9984       000600150000001500000430000003NN  NNW 000   FIRE SERVICE        N    
RDG09003500WATRL000000006K00000000000000000001410092015113509N000000000000N84       000030600K 10000000010000000000           
CUS0900350000109256557001         1547 RIDGELY, LLC.  1567 RIDGELY ST                         000N        CARE OF             
MTR09003500001000000000000000RA              54353673    000100160000001600000520000003NN  NNW 000                       N    
RDG09003500WATRL000000004K00000000000001092001510092015113514N000000000000N84       000050400K 10000000010000001081           
CUS0900350000108454585004         HORSESHOE/CAESARS EN1555 WARNER ST                          000N        CARE OF             
MTR09003500001000000000000000RA              70000418    001500170000001700000570000003NN  NNW 000                       N    
RDG09003500WATRL000000005K00000000000000345001610092015113528N000000000000N84       000140500K 10000000010000000331           
CUS0900350000109456120006         BALTIMORE RUSSELL LL1415 RUSSELL ST                         000N        CARE OF             
MTR09003500001000000000000000RA              8047800     001000180000001800000570000003NN  NNW 000   FIRE SERVICE        N    
RDG09003500WATRL000000007K00000000000000000001710092015113532N000000000000N84       000040700K 10000000010000000000           
CUS0900350000109456119008         BALTIMORE-RUSSELL LL1415 RUSSELL ST                         000N        CARE OF             
MTR09003500001000000000000000RA              90000508    000200190000001900000570000003NN  NNW 000                       N    
RDG09003500WATRL000000005K00000000000000055001810092015113540N000000000000N84       000080500K 10000000010000000033           
CUS0900350000109425487007         W.W. GRAINGER, INC  2100 HAINES ST                          000N        CARE OF             
MTR09003500001000000000000000RA              01117226    000200200000002000000610000000NN  NNW 000                       N    
RDG09003500WATRL000000005K00000000000000000001910092015113559S022000000000N84       000190500K 10000000010000000278           
CUS0900350000109439415002         W.W. GRAINGER INC.  2100 HAINES ST                          000N        CARE OF             
MTR09003500001000000000000000RA              01117160    000200210000002100000610000000NN  NNW 000                       N    
RDG09003500WATRL000000005K00000000000000332002010092015113708N000000000000N84       000690500K 10000000010000000325           
CUS0900350000109439413007         BALTIMORE GAS AND EL2100 HAINES ST                          000N        CARE OF             
MTR09003500001000000000000000RA              8042230     000800220000002200000380000000NN  NNW 000   FIRE SERVICE        N    
RDG09003500WATRL000000006K00000000000000022002110092015113713N000000000000N84       000050600K 10000000010000000022           
CUS0900350000109454582009         CBAC GAMING, LLC    2105 HAINES ST                          000N        CARE OF             
MTR09003500001000000000000000RA              1200256     000600230000002300000380000003NN  NNW 000   FIRE SERVICE        N    
RDG09003500WATRL000000006K00000000000000003002210092015113720N000000000010N84       000070600K 10000000010000000002           
CUS0900350000109454584005         CBAC GAMING,LLC     2105 HAINES ST                          000N        CARE OF             
MTR09003500001000000000000000RA              71429407    000300240000002400000440000000NY  NNW 000                       N    
MTM0900350071429407    ert                                                                                                    
RDG09003500WATRL000000005K00000000000000000000000000000000000 000000000000U         000000500  10000000010000000019           
CUS0900350000109256569006         1701 RUSSELL STREET,1701-25 RUSSELL ST                      000N        CARE OF             
MTR09003500001000000000000000RA              9500849     000400250000002500000640000003NN  NNW 000                       N    
RDG09003500WATRL000000006K00000000000026557002310092015113738N000000000000N84       000180600K 10000000010000025472           
CUS0900350000109256570004         HSR PROPERTIES, LLC 1900 BAYARD ST                          000N        CARE OF             
MTR09003500001000000000000000RA              99168616    001500260000002600000570000003NN  NNW 000                       N    
RDG09003500WATRL000000005K00000000000003740002410092015113750N000000000000N84       000120500K 10000000010000003465           
CUS0900350000109256571002         NICHOLAS JR., LESTER1801 BAYARD ST                          000N        CARE OF             
MTR09003500001000000000000000RA              5275690     000600270000002700000410000003NN  NNW 000   FIRE SERVICE        N    
RDG09003500WATRL000000006K00000000000000154002510092015113802N000000000010N84       000120600K 10000000010000000148           
CUS0900350000109256572000         NICHOLAS JR., LESTER1801 BAYARD ST                          000N        CARE OF             
MTR09003500001000000000000000RA              33731740    007500280000002800000520000003NN  NNW 000                       N    
RDG09003500WATRL000000004K00000000000004371002610092015113820N000000000000N84       000180400K 10000000010000004329           
CUS0900350000109256573008         BULTRUST BALTIMORE, 1600-20 RIDGELY ST                      000N        CARE OF             
MTR09003500001000000000000000RA              01105876    000200290000002900000610000003NN  NNW 000                       N    
RDG09003500WATRL000000005K00000000000004569002710092015113930N000000000000N84       000700500K 10000000010000004555           
CUS0900350000109256574006         1501 RIDGELY STREET 1541 RIDGELY ST                         000N        CARE OF             
MTR09003500001000000000000000RA              46890695    007500300000003000000520000003NN  NNW 000   VACANT PROPERTY     N    
RDG09003500WATRL000000004K00000000000000046002810092015113938N000000000000N84       000080400K 10000000010000000046           
CUS0900350000109256575003         B & E LIMITED LIABIL1401-23 RIDGELY ST                      000N        CARE OF             
MTR09003500001000000000000000RA              3903551     000600310000003100000410000003NN  NNW 000   FIRE SERVICE        N    
RDG09003500WATRL000000006K00000000000000000002910092015113942N000000000000N84       000040600K 10000000010000000000           
CUS0900350000109256576001         B & E LIMITED LIABIL1401-23 RIDGELY ST                      000N        CARE OF             
MTR09003500001000000000000000RA              31086175    007500320000003200000520000003NN  NNW 000                       N    
RDG09003500WATRL000000004K00000000000007998003010092015114024N000000000000N84       000420400K 10000000010000007966           
CUS0900350000109430413006         LHB BENSON, LLC     1552 RIDGELY ST                         000N        CARE OF             
MTR09003500001000000000000000RA              99170704    000200330000003300000570000000NN  NNW 000                       N    
RDG09003500WATRL000000005K00000000000001681003110092015115230N000000000000N84       007260500K 10000000010000001665           
CUS0900350000109256578007         DOUGHERTY, MARILYN  1830R WORCESTER ST                      000N        CARE OF             
MTR09003500001000000000000000RA              2476243     001000340000003400000410000003NN  NNW 000   FIRE SERVICE        N    
RDG09003500WATRL000000007K00000000000001614003210092015115237N000000000000N84       000070700K 10000000010000001614           
CUS0900350000109256579005         DOUGHERTY, MARILYN  1830R WORCESTER ST                      000N        CARE OF             
MTR09003500001000000000000000RA              29768597    000200350000003500000520000003NN  NNW 000                       N    
RDG09003500WATRL000000005K00000000000009754003310092015115244N000000000000N84       000070500K 10000000010000009664           
CUS0900350000109256582009         LWS, LLC.           1800 BAYARD ST                          000N        CARE OF             
MTR09003500001000000000000000RA              40027054    000100360000003600000520000003NN  NNW 000                       N    
RDG09003500WATRL000000004K00000000000007958003410092015115255N000000000000N84       000110400K 10000000010000007840           
CUS0900350000109256585002         GAS LIGHT SQUARE, LL1700 BAYARD ST                          000N        CARE OF             
MTR09003500001000000000000000RA              01105536    000200370000003700000610000003NN  NNW 000                       N    
RDG09003500WATRL000000005K00000000000004484003510092015115301N000000000000N84       000060500K 10000000010000004400           
CUS0900350000109256586000         BERG BROTHERS CO    1434-38 WICOMICO ST                     000N        CARE OF             
MTR09003500001000000000000000RA              1241177     000600380000003800000410000003NY  NNW 000   FIRE SERVICE        N    
MTM090035001241177     c/o/v                                                                                                  
RDG09003500WATRL000000006K00000000000000000000000000000000000 000000000000U         000000600  10000000010000000059           
CUS0900350000109256587008         BERG BROTHERS COMPAN1434-38 WICOMICO ST                     000N        CARE OF             
MTR09003500001000000000000000RA              14921024    001500390000003900000310000003NN  NNW 000   FERRULE APPLIED     N    
RDG09003500WATRL000000005K00000000000001536003610092015115337N000000000000N84       000360500K 10000000010000001536           
CUS0900350000109256588006         WM. T BURNETT & CO.,1501-09 BUSH ST                         000N        CARE OF             
MTR09003500001000000000000000RA              00066783    001500400000004000000570000003NN  NNW 000                       N    
RDG09003500WATRL000000005K00000000000000742003710092015115344N000000000000N84       000070500K 10000000010000000695           
CUS0900350000109256589004         1415 BUSH STREET, IN1415 BUSH ST                            000N        CARE OF             
MTR09003500001000000000000000RA              2638423     000800410000004100000410000003NN  NNW 000   FIRE SERVICE        N    
RDG09003500WATRL000000006K00000000000000000003810092015115405S005000000000U84       000210600K 10000000010000000007           
CUS0900350000109256590002         1415 BUSH STREET,LLC1415 BUSH ST                            000N        CARE OF             
MTR09003500001000000000000000RA              99315092    000100420000004200000570000003NN  NNW 000                       N    
RDG09003500WATRL000000004K00000000000006160003910092015115411N000000000000N84       000060400K 10000000010000006111           
CUS0900350000109395700009         BRADCO REALTY CORP  1303 W HAMBURG ST                       000N        CARE OF             
MTR09003500001000000000000000RA              E22504      000600430000004300000430000003NN  NNW 000   FIRE SERVICE        N    
RDG09003500WATRL000000006K00000000000000033004010092015115417N000000000000N84       000060600K 10000000010000000033           
CUS0900350000109395702005         BRADCO REALTY CORP  1303 W HAMBURG ST                       000N        CARE OF             
MTR09003500001000000000000000RA              52292947    007500440000004400000520000003NN  NNW 000                       N    
RDG09003500WATRL000000004K00000000000000585004110092015115423N000000000000N84       000060400K 10000000010000000577           
CUS0900350000109256591000         PRIORITY CONSTRUCTIO1305-15 W HAMBURG ST                    000N        CARE OF             
MTR09003500001000000000000000RA              01117053    000200450000004500000520000003NN  NNW 000                       N    
RDG09003500WATRL000000005K00000000000000737004210092015115429N000000000000N84       000060500K 10000000010000000699           
CUS0900350000109256592008         RIDDLEBERGER, BENJAM1415 BAYARD ST                          000N        CARE OF             
MTR09003500001000000000000000RA              00120950    007500460000004600000570000003NN  NNW 000                       N    
RDG09003500WATRL000000005K00000000000000369004310092015115435N000000000000N84       000060500K 10000000010000000366           
CUS0900350000109256593006         MAR REALTY, LLC     1327 BAYARD ST                          000N        CARE OF             
MTR09003500001000000000000000RA              4701094     000800470000004700000410000003NN  NNW 000   FIRE SERVICE        N    
RDG09003500WATRL000000006K00000000000000080004410092015115444N000000000010N84       000090600K 10000000010000000075           
CUS0900350000109256594004         MAR REALTY, LLC     1327 BAYARD ST                          000N        CARE OF             
MTR09003500001000000000000000RA              43904946    007500480000004800000520000003NN  NNW 000                       N    
RDG09003500WATRL000000004K00000000000005600004510092015115454N000300000010N84       000100400K 10000000010000005249           
CUS0900350000109436658000         CONSTRUCTION FINANCE1214 BAYARD ST                          000N        CARE OF             
MTR09003500001000000000000000RA              01116979    000200490000004900000610000000NN  NNW 000                       N    
RDG09003500WATRL000000005K00000000000000706004610092015115518N000000000000N84       000240500K 10000000010000000679           
CUS0900350000109256595001         1415 BUSH STREET, IN1415 BUSH ST                            000N        CARE OF             
MTR09003500001000000000000000RA              3422978     000800500000005000000410000003NN  NNW 000   FIRE SERVICE        N    
RDG09003500WATRL000000006K00000000000000000004710092015115521N000000000000N84       000030600K 10000000010000000000           
CUS0900350000109256596009         1415 BUSH STREET,LLC1415 BUSH ST                            000N        CARE OF             
MTR09003500001000000000000000RA              2639322     005800510000005100000320000003NY  NNW 000                       N    
MTM090035002639322     ok                                                                                                     
RDG09003500WATRL000000004K00000000000000000004810092015115539N000300000010N84       000180400K 10000000010000000110           
CUS0900350000109256597007         ELLICOTT MACHINE COR1601-11 BUSH ST                         000N        CARE OF             
MTR09003500001000000000000000RA              11800781    000800520000005200000390000003NN  NNW 000   FIRE SERVICE        N    
RDG09003500WATRL000000006K00000000000000006004910092015115550N000000000010N84       000110600K 10000000010000000002           
CUS0900350000109256598005         ELLICOTT PLANT LLC  1601-11 BUSH ST                         000N        CARE OF             
MTR09003500001000000000000000RA              01092790    005800530000005300000610000003NY  NNW 000                       N    
MTM0900350001092790    ok                                                                                                     
RDG09003500WATRL000000004K00000000000000000005010092015115602N000000000000N84       000120400K 10000000010000000000           
CUS0900350000109256600009         BDC WICOMICO LLC    1100-50 WICOMICO ST                     000N        CARE OF             
MTR09003500001000000000000000RA              1170646     000300540000005400000490000003NN  NNW 000                       N    
RDG09003500WATRL000000005K00000000000013495005110092015115609N000000000000N84       000070500K 10000000010000013047           
CUS0900350000109256601007         OSTEND SIMM-KEE,II L1208 WICOMICO ST                        000N        CARE OF             
MTR09003500001000000000000000RA              1171179     000200550000005500000490000003NN  NNW 000                       N    
RDG09003500WATRL000000005K00000000000000963005210092015115618N000300000010N84       000090500K 10000000010000000932           
CUS0900350000109256602005         OSTEND SIMM-KEE,II L1208 WICOMICO ST                        000N        CARE OF             
MTR09003500001000000000000000RA              2580695     000600560000005600000410000003NN  NNW 000   FIRE SERVICE        N    
RDG09003500WATRL000000006K00000000000000168005310092015115628N000000000000N84       000100600K 10000000010000000168           
CUS0900350000109256605008         DDC DEVELOPMENT, LLC1201-1301 WICOMICO ST                   000N        CARE OF             
MTR09003500001000000000000000RA              52293040    000200570000005700000520000003NN  NNW 000                       N    
RDG09003500WATRL000000005K00000000000028665005410092015115639N000400000010N84       000110500K 10000000010000028577           
CUS0900350000109256609000         SCHLOSS REAL ESTATE 1200 W HAMBURG ST                       000N        CARE OF             
MTR09003500001000000000000000RA              2399338     000600580000005800000410000003NN  NNW 000   FIRE SERVICE        N    
RDG09003500WATRL000000006K00000000000000000005510092015115642N000000000000N84       000030600K 10000000010000000000           
CUS0900350000109256610008         SCHLOSS REAL ESTATE 1200 W HAMBURG ST                       000N        CARE OF             
MTR09003500001000000000000000RA              14914810    001500590000005900000310000003NN  NNW 000                       N    
RDG09003500WATRL000000005K00000000000002093005610092015115649N000000000000N84       000070500K 10000000010000002025           
CUS0900350000109256611006         WAREHEIM, LINDA F   1162 SCOTT ST                           000N        CARE OF             
MTR09003500001000000000000000RA              1097743     000600600000006000000410000003NN  NNW 000   FIRE SERVICE        N    
RDG09003500WATRL000000006K00000000000000009005710092015115654N000000000000N84       000050600K 10000000010000000009           
CUS0900350000109256612004         WAREHEIM, LINDA F   1162 SCOTT ST                           000N        CARE OF             
MTR09003500001000000000000000RA              43905594    007500610000006100000520000003NY  NNW 000                       N    
MTM0900350043905594    ok                                                                                                     
RDG09003500WATRL000000004K00000000000002363005810092015115731N000303600010N84       000370400K 10000000010000000647           
CUS0900350000109396869001         MAYOR & CITY COUNCIL800 SCOTT ST                            000N        CARE OF             
MTR09003500001000000000000000RA              5204122     000400620000006200000410000003NN  NNW 000   CITY FIRE SERV      N    
RDG09003500WATRL000000006K00000000000000000005910092015115736N000000000000N84       000050600K 10000000010000000000           
CUS0900350000109396868003         BUR OF CONST MGMT   800 SCOTT ST                            000N        CARE OF             
MTR09003500001000000000000000RA              10806666    000300630000006300000460000003NN  NNW 000                       N    
RDG09003500WATRL000000005K00000000000005275006010092015115747N000000000000N84       000110500K 10000000010000004642           
CUS0900350000109428483003         PAUL'S PLACE INC    1118 WARD ST                            000N        CARE OF             
MTR09003500001000000000000000RA              8043581     000400640000006400000380000003NN  NNW 000   FIRE SERVICE        N    
RDG09003500WATRL000000006K00000000000000001006110092015115757N000000000000N84       000100600K 10000000010000000001           
CUS0900350000109428485008         PAUL'S PLACE INC    1118 WARD ST                            000N        CARE OF             
MTR09003500001000000000000000RA              99169966    000200650000006500000570000003NN  NNW 000                       N    
RDG09003500WATRL000000005K00000000000005188006210092015115809N000000000000N84       000120500K 10000000010000005046           
CUS0900350000109256617003         LF REAL ESTATE, LLC 1205 S CAREY ST                         000N        CARE OF             
MTR09003500001000000000000000RA              4633846     000600660000006600000410000003NN  NNW 000   FIRE SERVICE        N    
RDG09003500WATRL000000006K00000000000000000006310092015115813S005000000000U84       000040600K 10000000010000000015           
CUS0900350000109256618001         LF REAL ESTATE, LLC 1205 S CAREY ST                         000N        CARE OF             
MTR09003500001000000000000000RA              99188531    005800670000006700000570000003NN  NNW 000                       N    
RDG09003500WATRL000000004K00000000000000338006410092015115818N000000000000N84       000050400K 10000000010000000333           
CUS0900350000109435986006         GREYHOUND LINES     2110 HAINES ST                          000N        CARE OF             
MTR09003500001000000000000000RA              8047263     000600680000006800000380000000NY  NNW 000   FIRE SERVICE        N    
MTM090035008047263     ok                                                                                                     
RDG09003500WATRL000000006K00000000000000420006510092015115836N000000000010N84       000180600K 10000000010000000005           
CUS0900350000109435988002         438500 FIRST GRP/MAI2110 HAINES ST                          000N        CARE OF             
MTR09003500001000000000000000RA              01117168    000200690000006900000610000000NN  NNW 000                       N    
RDG09003500WATRL000000005K00000000000040562006610092015115844N000000000000N84       000080500K 10000000010000040262           
CUS0900350000108250244004         WHITE, MELISSA      1531 BUSH ST                            000N        CARE OF             
MTR09003500001000000000000000RA              01082653    005800700000007000000610000003NN  NNW 000                       N    
RDG09003500WATRL000000004K00000000000000433006710092015115848N000000000000N84       000040400K 10000000010000000429           
RTR09003500NN00700070000000700000000000700070000029NY007000700070000300030000000000000000000001    09212015NY020000 N         
RHD09003400NN01170117000001170000000000940094000020NY009400940117001200230000000000000000000001    09212015NY020000 N         
CUS0900340000109256503005         WASHINGTON-MONROE, L1000 S MONROE ST                        000N        CARE OF             
MTR09003400001000000000000000RA              7177006     000400010000000100000640000003NN  NNW 000                       N    
RDG09003400WATRL000000006K00000000000060151000110072015120041N000000000000N93       000000600K 10000000010000057665           
CUS0900340000109256504003         WASHINGTON-MONROE, L1000 S MONROE ST                        000N        CARE OF             
MTR09003400001000000000000000RA              1092328     000800020000000200000430000003NN  NNW 000   FIRE SERVICE        N    
RDG09003400WATRL000000006K00000000000000096000210072015120048N000000000000N93       000070600K 10000000010000000096           
CUS0900340000109256490005         GREEN PROPERTIES    1300 S MONROE ST                        000N        CARE OF             
MTR09003400001000000000000000RA              32772068    000200030000000300000520000003NN  NNW 000                       N    
RDG09003400WATRL000000005K00000000000019641000310072015120056N000000000000N93       000080500K 10000000010000019587           
CUS0900340000109256489007         GREEN PROPERTIES    1300 S MONROE ST                        000N        CARE OF             
MTR09003400001000000000000000RA              2647600     001000040000000400000410000003NN  NNW 000   FIRE SERVICE        N    
RDG09003400WATRL000000007K00000000000000304000410072015120102N000000000000N93       000060700K 10000000010000000304           
CUS0900340000109395038004         MARYLAND TRANSIT ADM1430 S MONROE ST                        000N        CARE OF             
MTR09003400001000000000000000RA              00066679    000200050000000500000570000003NN  NNW 000                       N    
RDG09003400WATRL000000005K00000000000000153000510072015120108N000000000000N93       000060500K 10000000010000000153           
CUS0900340000109395036008         MARYLAND TRANSIT ADM1430 S MONROE ST                        000N        CARE OF             
MTR09003400001000000000000000RA              E22935      000800060000000600000430000003NN  NNW 000   FIRE SERVICE        N    
RDG09003400WATRL000000006K00000000000000000000610072015120112N000000000000N93       000040600K 10000000010000000000           
CUS0900340000109395673008         MARYLAND TRANSIT ADM1530 S MONROE ST                        000N        CARE OF             
MTR09003400002000000000000000RA              5519869     000800070000000700000480000003NN  NNW 000   FIRE SERVICE        N    
RDG09003400WATAL000000006K00000000000000000000710072015120115N000000000000N93       000030600K 10000000010000000000           
RDG09003400WATBL000000006K00000000000000004000810072015120122N000100000010N93       000070600K 10000000010000000004           
CUS0900340000109395675003         MARYLAND TRANSIT ADM1530 S MONROE ST                        000N        CARE OF             
MTR09003400001000000000000000RA              24403478    000300080000000800000470000003NN  NNW 000                       N    
RDG09003400WATRL000000005K00000000000000000000910072015120125N000000000000N93       000030500K 10000000010000000000           
CUS0900340000109414121005         PATREC LAND L.L.C   1801 S MONROE ST                        000N        CARE OF             
MTR09003400001000000000000000RA              1316752     000600090000000900000490000000NN  NNW 000                       N    
RDG09003400WATRL000000006K00000000000001806001010072015120130N000000000000N93       000050600K 10000000010000001421           
CUS0900340000109256466005         ROSEDA BEEF PROPERTI1805 WICOMICO ST                        000N        CARE OF             
MTR09003400001000000000000000RA              1253687     000300100000001000000470000003NN  NNW 000                       N    
RDG09003400WATRL000000005K00000000000011707001110072015120136N000000000000N93       000060500K 10000000010000011493           
CUS0900340000109256468001         NISC/PENSKE         1711 WICOMICO ST                        000N        CARE OF             
MTR09003400002000000000000000RA              70262966    000300110000001100000460000003NN  NNW 000                       N    
RDG09003400WATAL000000005K00000000000000000000110082015113941S001000000000U93       000000500K 10000000010000000055           
RDG09003400WATBL000000005K00000000000000000000210082015113944S001000000000U93       000030500K 10000000010000006419           
CUS0900340000109256467003         PENSKE TRUCK LEASING1711 WICOMICO ST                        000N        CARE OF             
MTR09003400001000000000000000RA              5183742     000600120000001200000410000003NN  NNW 000   FIRE SERVICE        N    
RDG09003400WATRL000000006K00000000000000002001310072015120209N000000000000N93       000210600K 10000000010000000002           
CUS0900340000109256472003         WICOMICO 1601, LLC  1601-27 WICOMICO ST                     000N        CARE OF             
MTR09003400001000000000000000RA              1197204     000400130000001300000490000003NN  NNW 000   FERRULE APPLIED     N    
RDG09003400WATRL000000006K00000000000000000000310082015113949S005000000000U93       000050600K 10000000010000000137           
CUS0900340000109256470007         WICOMICO 1601, LLC  1601-27 WICOMICO ST                     000N        CARE OF             
MTR09003400001000000000000000RA              1154033     000400140000001400000490000003NN  NNW 000   FERRULE APPLIED     N    
RDG09003400WATRL000000006K00000000000000000000410082015113953S002000000000U93       000040600K 10000000010000000089           
CUS0900340000109256469009         WICOMICO 1601, LLC  1601-27 WICOMICO ST                     000N        CARE OF             
MTR09003400002000000000000000RA              11800782    000800150000001500000390000003NN  NNW 000   FIRE SERVICE        N    
RDG09003400WATAL000000006K00000000000000000001410072015120221N000000000000N93       000120600K 10000000010000000000           
RDG09003400WATBL000000006K00000000000000198001510072015120231N000300000010N93       000100600K 10000000010000001078           
CUS0900340000109456817007         WICOMICO 1601 LLC   1601-27 WICOMICO ST                     000N        CARE OF             
MTR09003400001000000000000000RA              99999999    005800160000001600000440000000NN  NNW 000                       N    
RDG09003400WATRL000000004K00000000000000266001610072015120237N000000000000N93       000060400K 10000000010000000107           
CUS0900340000109456818005         WICOMICO 1601 LLC   1601-27 WICOMICO ST                     000N        CARE OF             
MTR09003400001000000000000000RA              99999999    005800170000001700000440000000NN  NNW 000                       N    
RDG09003400WATRL000000004K00000000000000000000510082015114009N000000000000U93       000160400K 10000000010000000000           
CUS0900340000109256456006         WM. T. BURNETT & CO.1500 BUSH ST                            000N        CARE OF             
MTR09003400001000000000000000RA              01092791    005800180000001800000610000003NN  NNW 000                       N    
RDG09003400WATRL000000004K00000000000000000001710072015120255N000000000000N93       000180400K 10000000010000000000           
CUS0900340000109256473001         BALTIMORE FABRICATOR1600 BUSH ST                            000N        CARE OF             
MTR09003400001000000000000000RA              01117047    000200190000001900000610000003NN  NNW 000   VACANT PROPERTY     N    
RDG09003400WATRL000000005K00000000000000000001810072015120257N000000000000N93       000020500K 10000000010000000000           
CUS0900340000109394023007         MASS TRANSIT ADM    1331 S MONROE ST                        000N        CARE OF             
MTR09003400001000000000000000RA              37690942    000100200000002000000520000003NN  NNW 000                       N    
RDG09003400WATRL000000004K00000000000009850001910072015120309N000000000000N93       000120400K 10000000010000009809           
CUS0900340000109394021001         MASS TRANSIT ADM    1331 S MONROE ST                        000N        CARE OF             
MTR09003400001000000000000000RA              E22910      000600210000002100000430000003NN  NNW 000   FIRE SERVICE        N    
RDG09003400WATRL000000006K00000000000000000002010072015120312N000000000000N93       000030600K 10000000010000000000           
CUS0900340000109256487001         1701 LLC            1701 WASHINGTON BLVD                    000N        CARE OF             
MTR09003400001000000000000000RA              35109294    000100220000002200000520000003NN  NNW 000                       N    
RDG09003400WATRL000000004K00000000000001609002110072015120325N000400000010N93       000130400K 10000000010000001598           
CUS0900340000109256488009         1701 LLC            1701 WASHINGTON BLVD                    000N        CARE OF             
MTR09003400001000000000000000RA              3353501     000400230000002300000410000003NN  NNW 000   FIRE SERVICE        N    
RDG09003400WATRL000000006K00000000000000003002210072015120330N000000000000N93       000050600K 10000000010000000003           
CUS0900340000109407154005         MASS TRANSIT ADM    1601 WASHINGTON BLVD                    000N        CARE OF             
MTR09003400001000000000000000RA              0910924     000600240000002400000630000003NN  NNW 000                       N    
RDG09003400WATRL000000006K00000000000023140002310072015120337N000000000000N93       000070600K 10000000010000021560           
CUS0900340000109407152009         MASS TRANSIT ADM    1601 WASHINGTON BLVD                    000N        CARE OF             
MTR09003400001000000000000000RA              6029432     001000250000002500000410000003NN  NNW 000   FIRE SERVICE        N    
RDG09003400WATRL000000007K00000000000003805002410072015120346N000100000010N93       000090700K 10000000010000003805           
CUS0900340000109256496002         BOARD OF PARK COMM. 1500 WASHINGTON BLVD                    000N        CARE OF             
MTR09003400001000000000000000RA              00066755    000200260000002600000570000003NN  NNW 000                       N    
RDG09003400WATRL000000005K00000000000014894002510072015120352N000000000000N93       000060500K 10000000010000014892           
CUS0900340000109256498008         BUREAU OF PARKS     1500 WASHINGTON BLVD                    000N        CARE OF             
MTR09003400002000000000000000RA              6029528     000600270000002700000630000003NN  NNW 000                       N    
RDG09003400WATAL000000006K00000000000000000002610072015120402N000300000010N93       000100600K 10000000010000000005           
RDG09003400WATBL000000006K00000000000099820002710072015120409N000000000000N93       000070600K 10000000010000003974           
CUS0900340000109256495004         BUREAU OF INSPECTION1500 WASHINGTON BLVD                    000N        CARE OF             
MTR09003400001000000000000000RA              01105435    000200280000002800000610000003NN  NNW 000                       N    
RDG09003400WATRL000000005K00000000000001986002810072015120418N000000000000N93       000090500K 10000000010000001983           
CUS0900340000109256494007         DEPT OF EDUCATION   1300 HERKIMER ST                        000N        CARE OF             
MTR09003400001000000000000000RA              1215532     000300290000002900000490000003NN  NNW 000                       N    
RDG09003400WATRL000000005K00000000000000000000610082015114020S005000000000U93       000110500K 10000000010000073509           
CUS0900340000109256493009         HOUSING AUTHORITY   1300 WASHINGTON BLVD                    000N        CARE OF             
MTR09003400002000000000000000RA              5295729     000400300000003000000630000003NN  NNW 000                       N    
RDG09003400WATAL000000006K00000000000000000002910072015120429N000100000010N93       000110600K 10000000010000000000           
RDG09003400WATBL000000006K00000000000001914003010072015120439N000400000010N93       000100600K 10000000010000001883           
CUS0900340000109256492001         BUR CONSTR MGT      1339 WASHINGTON BLVD                    000N        CARE OF             
MTR09003400002000000000000000RA              70263204    000400310000003100000630000003NN  NNW 000                       N    
RDG09003400WATAL000000006K00000000000000000000710082015114040S001000000000U93       000200600K 10000000010000000574           
RDG09003400WATBL000000006K00000000000000000000810082015114043S001000000000U93       000030600K 10000000010000003100           
CUS0900340000109256491003         BUR CONSTR MGT      1339 WASHINGTON BLVD                    000N        CARE OF             
MTR09003400001000000000000000RA              5705135     000600320000003200000410000003NN  NNW 000   CITY FIRE SERV      N    
RDG09003400WATRL000000006K00000000000000020003110072015120446N000000000000N93       000070600K 10000000010000000020           
CUS0900340000109256451007         MASS TRANSIT ADMINS 1601 WASHINGTON BLVD                    000N        CARE OF             
MTR09003400001000000000000000RA              1453150     000300330000003300000490000003NY  NNW 000                       N    
MTM090034001453150     read ok                                                                                                
RDG09003400WATRL000000005K00000000000001887003210072015120508N000300000010N93       000220500K 10000000010000003581           
CUS0900340000109256452005         MARYLAND TRANSIT ADM1300 BUSH ST                            000N        CARE OF             
MTR09003400001000000000000000RA              33084013    001500340000003400000520000003NN  NNW 000                       N    
RDG09003400WATRL000000005K00000000000025970003310072015120523N000000000000N93       000150500K 10000000010000025970           
CUS0900340000109423954008         WM. T. BURNETT & CO.1500 BUSH ST                            000N        CARE OF             
MTR09003400001000000000000000RA              99999999    000800350000003500000440000003NY  NNW 000   FIRE SERVICE        N    
MTM0900340099999999    cl                                                                                                     
RDG09003400WATRL000000006K00000000000000000000000000000000000 000000000000U         000000600  10000000010000000000           
CUS0900340000109256455008         WM. T. BURNETT & CO.1500-20 BUSH ST                         000N        CARE OF             
MTR09003400001000000000000000RA              29372235    000200360000003600000520000003NN  NNW 000                       N    
RDG09003400WATRL000000005K00000000000005572003410072015120531N000000000000N93       000080500K 10000000010000005461           
CUS0900340000109256474009         SOUTHERN GALVANIZING1620 BUSH ST                            000N        CARE OF             
MTR09003400001000000000000000RA              29256940    001500370000003700000520000003NN  NNW 000                       N    
RDG09003400WATRL000000005K00000000000025594003510072015120537N000000000000N93       000060500K 10000000010000025333           
CUS0900340000109256475006         ELLICOTT PLANT LLC  1601-11 BUSH ST                         000N        CARE OF             
MTR09003400002000000000000000RA              90000132    000200380000003800000570000003NN  NNW 000                       N    
RDG09003400WATAL000000005K00000000000002898003610072015120546N000400000010N93       000090500K 10000000010000002835           
RDG09003400WATBL000000005K00000000000002125003710072015120554N000400000010N93       000080500K 10000000010000002077           
CUS0900340000109256476004         BGH, LLC            1620 BUSH ST                            000N        CARE OF             
MTR09003400001000000000000000RA              00163402    000100390000003900000570000003NN  NNW 000                       N    
RDG09003400WATRL000000004K00000000000001021003810072015120620N000300000010N93       000260400K 10000000010000000971           
CUS0900340000109256477002         BGH, LLC            1620 BUSH ST                            000N        CARE OF             
MTR09003400001000000000000000RA              3353502     000400400000004000000410000003NN  NNW 000   FIRE SERVICE        N    
RDG09003400WATRL000000006K00000000000000055003910072015120624N000000000000N93       000040600K 10000000010000000055           
CUS0900340000109256478000         ELLICOTT DREDGES LLC1501 SEVERN ST                          000N        CARE OF             
MTR09003400001000000000000000RA              35109416    000200410000004100000520000003NN  NNW 000                       N    
RDG09003400WATRL000000005K00000000000006373004010072015120629N000000000000N93       000050500K 10000000010000006281           
CUS0900340000109387466007         BGH, LLC            1620 BUSH ST                            000N        CARE OF             
MTR09003400001000000000000000RA              35112657    000200420000004200000520000003NN  NNW 000                       N    
RDG09003400WATRL000000005K00000000000037017004110072015120634N000000000000N93       000050500K 10000000010000036949           
CUS0900340000109256481004         DEPSCO SERVICES INC 1701 RIDGELY ST                         000N        CARE OF             
MTR09003400001000000000000000RA              00166122    000100430000004300000570000003NY  NNW 000                       N    
MTM0900340000166122    car                                                                                                    
RDG09003400WATRL000000004K00000000000000000000000000000000000 000000000000U         000000400  10000000010000005558           
CUS0900340000109256482002         D.S.I. LLC          1701 RIDGELY ST                         000N        CARE OF             
MTR09003400001000000000000000RA              1074037     000600440000004400000430000003NY  NNW 000   FIRE SERVICE        N    
MTM090034001074037     car                                                                                                    
RDG09003400WATRL000000006K00000000000000000000000000000000000 000000000000U         000000600  10000000010000000000           
CUS0900340000109256480006         S C PROPERTY, LLC   1700-10 RIDGELY ST                      000N        CARE OF             
MTR09003400001000000000000000RA              1313674     000400450000004500000490000003NY  NNW 000                       N    
MTM090034001313674     not working                                                                                            
RDG09003400WATRL000000006K00000000000000000000910082015114145S001000000000U93       000620600K 10000000010000000980           
CUS0900340000109256479008         S C PROPERTY, LLC   1700-10 RIDGELY ST                      000N        CARE OF             
MTR09003400001000000000000000RA              3955208     001000460000004600000410000003NY  NNW 000   FIRE SERVICE        N    
MTM090034003955208     cs                                                                                                     
RDG09003400WATRL000000007K00000000000000000000000000000000000 000000000000U         000000700  10000000010000004096           
CUS0900340000109256484008         S C PROPERTY, LLC   1700-10 RIDGELY ST                      000N        CARE OF             
MTR09003400001000000000000000RA              17190489    007500470000004700000440000003NN  NNW 000                       N    
RDG09003400WATRL000000004K00000000000000000001010082015114238S005000000000U93       000530400K 10000000010000000698           
CUS0900340000109256483000         S C PROPERTY, LLC   1700-10 RIDGELY ST                      000N        CARE OF             
MTR09003400001000000000000000RA              4055400     000600480000004800000410000003NN  NNW 000   FIRE SERVICE        N    
RDG09003400WATRL000000006K00000000000000000001110082015114243S005000000000U93       000050600K 10000000010000002814           
CUS0900340000108445726006         TWO FARMS, INC. #1591801 WASHINGTON BLVD                    000N        CARE OF             
MTR09003400001000000000000000RA              14914917    001500490000004900000310000000NN  NNW 000                       N    
RDG09003400WATRL000000005K00000000000002603004210072015120702N000400000010N93       000280500K 10000000010000002482           
CUS0900340000109256499006         DEBOIS 1835, LLC    1835 WASHINGTON BLVD                    000N        CARE OF             
MTR09003400001000000000000000RA              5603869     000800500000005000000410000003NN  NNW 000   FIRE SERVICE        N    
RDG09003400WATRL000000006K00000000000000001004310072015120709N000000000000N93       000070600K 10000000010000000001           
CUS0900340000109256505000         WASHINGTON-MONROE, L1900 WASHINGTON BLVD                    000N        CARE OF             
MTR09003400003000000000000000RA              3540590     001000510000005100000390000003NY  NNW 000   FIRE SERVICE        N    
MTM090034003540590     no dial 2 or 3                                                                                         
RDG09003400WATAL000000007K00000000000000137001210082015114255N000300000010U93       000120700K 10000000010000000044           
RDG09003400WATBL000000007K00000000000000000001310082015114320S022000000000U93       000250700K 10000000010000006987           
RDG09003400WATCL000000007K00000000000000000001410082015114323S022000000000U93       000030700K 10000000010000000560           
CUS0900340000109447617003         PUTNAM CROSSING, LLC1900 WASHINGTON BLVD                    000N        CARE OF             
MTR09003400001000000000000000RA              99999999    001500520000005200000440000000NN  NNW 000                       N    
RDG09003400WATRL000000005K00000000000003409004410072015120722N000000000000N93       000130500K 10000000010000002744           
CUS0900340000109256508004         2015 WASHINGTON LLC 1907-2015 WASHINGTON BLVD               000N        CARE OF             
MTR09003400001000000000000000RA              01117330    000200530000005300000610000003NN  NNW 000                       N    
RDG09003400WATRL000000005K00000000000007398004510072015120727N000000000000N93       000050500K 10000000010000007398           
CUS0900340000109256507006         NAVISTAR INTERNATION1907-2015 WASHINGTON BLVD               000N        CARE OF             
MTR09003400001000000000000000RA              2242258     000800540000005400000410000003NN  NNW 000   FIRE SERVICE        N    
RDG09003400WATRL000000006K00000000000000192004610072015120733N000000000000N93       000060600K 10000000010000000192           
CUS0900340000109398307000         DCT PROPERTY MGMT LL1325 WESTERN AVE                        000N        CARE OF             
MTR09003400001000000000000000RA              01116883    000200550000005500000610000003NN  NNW 000                       N    
RDG09003400WATRL000000005K00000000000000000000000000000000000 000000000000U         000000500  10000000010000009405           
CUS0900340000109398305004         DCT PROPERTY MGMT LL1325 WESTERN AVE                        000N        CARE OF             
MTR09003400002000000000000000RA              0910931     001000560000005600000630000003NN  NNW 000   FIRE SERVICE        N    
RDG09003400WATAL000000007K00000000000000000000000000000000000 000000000000U         000000700  10000000010000000000           
RDG09003400WATBL000000007K00000000000000000000000000000000000 000000000000U         000000700  10000000010000000025           
CUS0900340000109256678005         MORRELL FINANCIAL LL1820 SPENCE ST                          000N        CARE OF             
MTR09003400002000000000000000RA              5124966     000400570000005700000480000003NN  NNW 000                       N    
RDG09003400WATAL000000006K00000000000000000004710072015120752N000100000010N93       000190600K 10000000010000000000           
RDG09003400WATBL000000006K00000000000016749004810072015120801N000400000010N93       000090600K 10000000010000016321           
CUS0900340000109256515009         SCHOOL #220         2601 TOLLEY ST                          000N        CARE OF             
MTR09003400002000000000000000RA              5649256     000800580000005800000630000003NY  NNW 000                       N    
MTM090034005649256     read ok                                                                                                
RDG09003400WATAL000000006K00000000000000000001510082015114433N000300000011U93       000700600K 10000000010000000002           
RDG09003400WATBL000000006K00000000000000000001610082015114447S001000000000U93       000140600K 10000000010000001707           
CUS0900340000109447515009         MAYOR & CITY COUNCIL2601 TOLLEY ST                          000N        CARE OF             
MTR09003400001000000000000000RA              99999999    000400590000005900000440000003NN  NNW 000   FIRE SERVICE        N    
RDG09003400WATRL000000006K00000000000000001004910072015120809N000000000000N93       000080600K 10000000010000000001           
CUS0900340000109447517005         MAYOR & CITY COUNCIL2601 TOLLEY ST                          000N        CARE OF             
MTR09003400001000000000000000RA              99999999    000200600000006000000440000003NN  NNW 000                       N    
RDG09003400WATRL000000005K00000000000000103005010072015120812N000000000000N93       000030500K 10000000010000000089           
CUS0900340000109256514002         WALTERHOEFER WASHING2331 WASHINGTON BLVD                    000N        CARE OF             
MTR09003400001000000000000000RA              46889186    007500610000006100000520000003NY  NNW 000                       N    
MTM0900340046889186    mud                                                                                                    
RDG09003400WATRL000000004K00000000000000000000000000000000000 000000000000U         000000400  10000000010000001631           
CUS0900340000109256513004         WALTERHOEFER WASHING2331 WASHINGTON BLVD                    000N        CARE OF             
MTR09003400001000000000000000RA              4781653     000800620000006200000410000003NY  NNW 000   FIRE SERVICE        N    
MTM090034004781653     mud                                                                                                    
RDG09003400WATRL000000006K00000000000000000000000000000000000 000000000000U         000000600  10000000010000000020           
CUS0900340000109256521007         DIRT EXPRESS COMPANY2036 HOLLINS FERRY RD                   000N        CARE OF             
MTR09003400002000000000000000RA              1832791     000400630000006300000540000003NN  NNW 000   VACANT PROPERTY     N    
RDG09003400WATAL000000006K00000000000000000005110072015120820N000000000000N93       000080600K 10000000010000000000           
RDG09003400WATBL000000006K00000000000000000005210072015120825N000100000010N93       000050600K 10000000010000000000           
CUS0900340000109256516007         BROKEN WING II LLC  2121 WICOMICO ST                        000N        CARE OF             
MTR09003400002000000000000000RA              2114653     000800640000006400000390000003NN  NNW 000   FIRE SERVICE        N    
RDG09003400WATAL000000006K00000000000000000001710082015114524S005000000000U93       000370600K 10000000010000000000           
RDG09003400WATBL000000006K00000000000000000001810082015114531S005000000000U93       000070600K 10000000010000000009           
CUS0900340000109256517005         BROKEN WING II LLC  2121 WICOMICO ST                        000N        CARE OF             
MTR09003400002000000000000000RA              60798796    000400650000006500000470000003NN  NNW 000                       N    
RDG09003400WATAL000000006K00000000000000000001910082015114615S022000000001U93       000360600K 10000000010000001526           
RDG09003400WATBL000000006K00000000000000000002010082015114621S022000000000U93       000060600K 10000000010000005609           
CUS0900340000109256518003         BROKEN WING II LLC  2121 WICOMICO ST                        000N        CARE OF             
MTR09003400002000000000000000RA              1353907     000600660000006600000390000003NN  NNW 000   FIRE SERVICE        N    
RDG09003400WATAL000000006K00000000000000000002110082015114627S005000000000U93       000060600K 10000000010000006682           
RDG09003400WATBL000000006K00000000000000000002210082015114629S005000000000U93       000020600K 10000000010000000167           
CUS0900340000109256519001         BROKEN WING II LLC  2121 WICOMICO ST                        000N        CARE OF             
MTR09003400001000000000000000RA              40000014    000400670000006700000460000003NN  NNW 000   VACANT PROPERTY     N    
RDG09003400WATRL000000006K00000000000000003005310072015120843N000000000000N93       000180600K 10000000010000000003           
CUS0900340000109256520009         DECKER SR., MICHAEL 2007 ONTARIO AVE                        000N        CARE OF             
MTR09003400001000000000000000RA              00066891    001500680000006800000570000003NY  NNW 000                       N    
MTM0900340000066891    cl                                                                                                     
RDG09003400WATRL000000005K00000000000000000000000000000000000 000000000000U         000000500  10000000010000000000           
CUS0900340000109256635005         PETRA VANCE ETAL    2229 HOLLINS FERRY RD                   000N        CARE OF             
MTR09003400001000000000000000RA              99170705    000200690000006900000570000003NN  NNW 000                       N    
RDG09003400WATRL000000005K00000000000001324005410072015120854N000000000000N93       000110500K 10000000010000001287           
CUS0900340000109433473007         PATAPSCO VALLEY SALE2700 HOLLINS FERRY RD                   000N        CARE OF             
MTR09003400001000000000000000RA              8046857     000800700000007000000380000000NY  NNW 000   FIRE SERVICE        N    
MTM090034008046857     cs                                                                                                     
RDG09003400WATRL000000006K00000000000000000002410082015114653S001000000000U93       000020600K 10000000010000001628           
CUS0900340000109433475002         PATAPSCO VALLEY SALE2700 HOLLINS FERRY RD                   000N        CARE OF             
MTR09003400002000000000000000RA              70262645    000300710000007100000460000000NN  NNW 000                       N    
RDG09003400WATAL000000005K00000000000000000002310082015114651S001000000000U93       000220500K 10000000010000000418           
RDG09003400WATBL000000005K00000000000000000002510082015114653S001000000000U93       000000500K 10000000010000000115           
CUS0900340000109440156009         L.I.F.E., INC.      2822 HOLLINS FERRY RD                   000N        CARE OF             
MTR09003400001000000000000000RA              8050609     000400720000007200000380000000NN  NNW 000   FIRE SERVICE        N    
RDG09003400WATRL000000006K00000000000000001005510072015120902N000000000000N93       000080600K 10000000010000000001           
CUS0900340000109440155001         L.I.F.E., INC.      2822 HOLLINS FERRY RD                   000N        CARE OF             
MTR09003400001000000000000000RA              01117154    000200730000007300000610000000NN  NNW 000                       N    
RDG09003400WATRL000000005K00000000000002188005610072015120912N000000000000N93       000100500K 10000000010000002077           
CUS0900340000109256535007         MERRITT, LEROY      2830-2838 ANNAPOLIS RD                  000N        CARE OF             
MTR09003400003000000000000000RA              5275681     001000740000007400000480000003NY  NNW 000   FIRE SERVICE        N    
MTM090034005275681     cs                                                                                                     
RDG09003400WATAL000000007K00000000000000187002610082015114703N000000000000U93       000100700K 10000000010000000187           
RDG09003400WATBL000000007K00000000000000000000000000000000000 000000000000U         000000700  10000000010000000608           
RDG09003400WATCL000000007K00000000000000000000000000000000000 000000000000U         000000700  10000000010000001642           
CUS0900340000109256536005         MERRITT, LEROY      2830-2838 ANNAPOLIS RD                  000N        CARE OF             
MTR09003400001000000000000000RA              1115137     000200750000007500000490000003NN  NNW 000                       N    
RDG09003400WATRL000000005K00000000000041082005710072015120923N000000000000N93       000110500K 10000000010000040345           
CUS0900340000109256537003         2323 BANGER LLC     2325 BANGER ST                          000N        CARE OF             
MTR09003400001000000000000000RA              01081669    005800760000007600000610000003NN  NNW 000                       N    
RDG09003400WATRL000000004K00000000000000866005810072015120935N000000000000N93       000120400K 10000000010000000859           
