FHDNNNN014002813002813002837N                                                                                           009332
RHD06383900NN00220095000000220000007300950095000030NY009500950095000000150000000000000000000002    10192015NY020000 N         
CUS0638390000106287683004         WILEY TYSON & WF    1822 N CASTLE ST                        000N        CARE OF             
MTR06383900001000000000000000RA              99999999    005800010000000100000620000003NN  NNW 000   VACANT PROPERTY     N    
RDG06383900WATRL000000004K00000000000000000000110202015073540S022000000000U61       000000400K 10000000010000002295           
CUS0638390000106287694001         FELIX, JEROME C     2028 E LAFAYETTE AVE                    000N        CARE OF             
MTR06383900001000000000000000RA              75613609    005800020000000200000350000003NN  NNW 000   VACANT PROPERTY     N    
RDG06383900WATRL000000004R00000000000000000000210202015073825S002000000000U61       001650400K 10000000010000000000           
RFF0638390069372546      ERT      0000  956.4437500014000000000000000000                  0001N                               
CUS0638390000106287696006         BUTLER, KEVIN       2024 E LAFAYETTE AVE                    000N        CARE OF             
MTR06383900001000000000000000RA              75613625    005800030000000300000350000003NN  NNW 000                       N    
RDG06383900WATR 000000004R00000000000000114000010202015190000N000000000000N         000000400R 10000000010000000106           
RFF0638390069372391      ERT      0000  956.44375000140000102020151900000001147130100W 1220000N                               
CUS0638390000106287698002         KMCI-LLC            2020 E LAFAYETTE AVE                    000N        CARE OF             
MTR06383900001000000000000000RA              75613671    005800040000000400000350000003NN  NNW 000                       N    
RDG06383900WATR 000000004R00000000000000267000010202015190000N000000000000N         000000400R 10000000010000000238           
RFF0638390069372404      ERT      0000  956.44375000140000102020151900000002677271100W 1220000N                               
CUS0638390000106287700006         OCWEN FEDERAL BANK  2016 E LAFAYETTE AVE                    000N        CARE OF             
MTR06383900001000000000000000RA              75613622    005800050000000500000350000003NN  NNW 000                       N    
RDG06383900WATR 000000004R00000000000000000000010202015190000N000100000020N         000000400R 10000000010000000000           
RFF0638390069372542      ERT      0000  956.44375000140000102020151900000000000004100W 1220000N                               
CUS0638390000106287701004         ALLEN, CEDRIC       2014 E LAFAYETTE AVE                    000N        CARE OF             
MTR06383900001000000000000000RA              75613624    005800060000000600000350000003NN  NNW 000                       N    
RDG06383900WATR 000000004R00000000000000114000010202015190000N000000000000N         000000400R 10000000010000000105           
RFF0638390069372398      ERT      0000  956.44375000140000102020151900000001146744100W 1220000N                               
CUS0638390000106287703000         WOLDEMARIAM, MEHARI 2010 E LAFAYETTE AVE                    000N        CARE OF             
MTR06383900001000000000000000RA              75613669    005800070000000700000350000003NN  NNW 000                       N    
RDG06383900WATRL000000004R00000000000000000000310202015073924S002000000000U61       000590400K 10000000010000000118           
RFF0638390069369289      ERT      0000  956.4437500014000000000000000000                  0001N                               
CUS0638390000106287706003         CITY HOMES, INC.    2004 E LAFAYETTE AVE                    000N        CARE OF             
MTR06383900001000000000000000RA              76345018    005800080000000800000350000003NN  NNW 000                       N    
RDG06383900WATR 000000004R00000000000000143000010202015190000N000000000000N         000000400R 10000000010000000134           
RFF0638390069369583      ERT      0000  956.44375000140000102020151900000001437186100W 1220000N                               
CUS0638390000106287710005         SYLVESTER CHERRY & W2007 E LAFAYETTE AVE                    000N        CARE OF             
MTR06383900001000000000000000RA              75613668    005800090000000900000350000003NN  NNW 000                       N    
RDG06383900WATRL000000004K00000000000000194000410202015074003N000000000000U61       000390400K 10000000010000000174           
CUS0638390000106287712001         IRENE DIGGS         2011 E LAFAYETTE AVE                    000N        CARE OF             
MTR06383900001000000000000000RA              75616587    005800100000001000000350000003NN  NNW 000   VACANT PROPERTY     N    
RDG06383900WATRL000000004K00000000000000000000510202015074027S002000000000U61       000240400K 10000000010000000000           
CUS0638390000106287713009         DOROTHY M ALFORD    2015 E LAFAYETTE AVE                    000N        CARE OF             
MTR06383900001000000000000000RA              75613612    005800110000001100000350000003NN  NNW 000                       N    
RDG06383900WATRL000000004K00000000000000336000610202015074102N000000000000U61       000350400K 10000000010000000332           
CUS0638390000106287714007         FLOREE JORDAN ETAL  2017 E LAFAYETTE AVE                    000N        CARE OF             
MTR06383900001000000000000000RA              75613672    005800120000001200000350000003NN  NNW 000                       N    
RDG06383900WATRL000000004K00000000000000109000710202015074140N000000000000U61       000380400K 10000000010000000102           
CUS0638390000106287715004         BATTLE, BRAIN A     2019 E LAFAYETTE AVE                    000N        CARE OF             
MTR06383900001000000000000000RA              79211421    005800130000001300000360000003NN  NNW 000                       N    
RDG06383900WATR 000000004R00000000000000000000010202015190000N000100000020N         000000400R 10000000010000000000           
RFF0638390069370624      ERT      0000  956.44375000140000102020151900000000000020100W 1220000N                               
CUS0638390000106287716002         MOUNT HOPE EVANGELIS1752 N CHESTER ST                       000N        CARE OF             
MTR06383900001000000000000000RA              75613887    005800140000001400000350000003NN  NNW 000   VACANT PROPERTY     N    
RDG06383900WATRL000000004K00000000000000000001210202015074832S002000000000U61       000070400K 10000000010000000000           
CUS0638390000106287717000         ISIAH CLAIBORNE ETAL1750 N CHESTER ST                       000N        CARE OF             
MTR06383900001000000000000000RA              75616589    005800150000001500000350000003NN  NNW 000   VACANT PROPERTY     N    
RDG06383900WATRL000000004K00000000000000000001110202015074825S002000000000U61       001270400K 10000000010000000000           
CUS0638390000106353806000         FERGUSON, DARRYL    1742 N CHESTER ST                       000N        CARE OF             
MTR06383900001000000000000000RA              75614569    005800160000001600000350000003NN  NNW 000                       N    
RDG06383900WATR 000000004R00000000000000147000010202015190000N000000000000N         000000400R 10000000010000000134           
RFF0638390069369568      ERT      0000  956.44375000140000102020151900000001471693100W 1220000N                               
CUS0638390000106287722000         MOORES INC          1736 N CHESTER ST                       000N        CARE OF             
MTR06383900001000000000000000RA              75616536    005800170000001700000350000003NN  NNW 000                       N    
RDG06383900WATR 000000004R00000000000000027000010202015190000N000000000000N         000000400R 10000000010000000013           
RFF0638390069369536      ERT      0000  956.44375000140000102020151900000000277436100W 1220000N                               
CUS0638390000106287723008         NEWTON, LEONIDAS G. 1734 N CHESTER ST                       000N        CARE OF             
MTR06383900001000000000000000RA              79212441    005800180000001800000360000003NN  NNW 000                       N    
RDG06383900WATR 000000004R00000000000000039000010202015190000N000000000000N         000000400R 10000000010000000009           
RFF0638390069370560      ERT      0000  956.44375000140000102020151900000000395637100W 1220000N                               
CUS0638390000106287727009         R & D PROPERTIES, IN1726 N CHESTER ST                       000N        CARE OF             
MTR06383900001000000000000000RA              75617336    005800190000001900000350000003NN  NNW 000                       N    
RDG06383900WATR 000000004R00000000000001659000010202015190000N000400000020N         000000400R 10000000010000001456           
RFF0638390069369581      ERT      0000  956.44375000140000102020151900000016596498100W 1220000N                               
CUS0638390000106287728007         HABC/LUV            1724 N CHESTER ST                       000N        CARE OF             
MTR06383900001000000000000000RA              75617335    005800200000002000000350000003NN  NNW 000                       N    
RDG06383900WATR 000000004R00000000000000294000010202015190000N000400000020N         000000400R 10000000010000000293           
RFF0638390069369603      ERT      0000  956.44375000140000102020151900000002944384100W 1220000N                               
CUS0638390000106287730003         MARY E BOYD         2038 E LANVALE ST                       000N        CARE OF             
MTR06383900001000000000000000RA              74692006    005800210000002100000350000003NN  NNW 000                       N    
RDG06383900WATR 000000004R00000000000000240000010202015190000N000000000000N         000000400R 10000000010000000230           
RFF0638390069368851      ERT      0000  956.44375000140000102020151900000002407365100W 1220000N                               
CUS0638390000106353916007         ALFRED JOHNSON      2030 E LANVALE ST                       000N        CARE OF             
MTR06383900001000000000000000RA              74691963    005800220000002200000350000003NN  NNW 000   VACANT PROPERTY     N    
RDG06383900WATR 000000004R00000000000000000000010202015190000N000100000020N         000000400R 10000000010000000000           
RFF0638390069368866      ERT      0000  956.44375000140000102020151900000000000697100W 1220000N                               
CUS0638390000106353728006         MCCLARTY LUCINDA    1733 N CASTLE ST                        000N        CARE OF             
MTR06383900001000000000000000RA              21724317    005800230000002300000590000003NN  NNW 000   VACANT PROPERTY     N    
RDG06383900WATRL000000004K00000000000000000000910202015074404S022000000000U61       000050400K 10000000010000002804           
CUS0638390000106366532007         MASSOUD R REZAIE    1718 N CASTLE ST                        000N        CARE OF             
MTR06383900001000000000000000RA              75615217    005800240000002400000350000003NN  NNW 000   VACANT PROPERTY     N    
RDG06383900WATRL000000004R00000000000000000000810202015074359S002000000000U61       001390400K 10000000010000000000           
RFF0638390069372647      ERT      0000  956.4437500014000000000000000000                  0001N                               
CUS0638390000106287748005         FAULKNER, WILLIAM E 1716 N CASTLE ST                        000N        CARE OF             
MTR06383900001000000000000000RA              74691201    005800250000002500000350000003NN  NNW 000                       N    
RDG06383900WATR 000000004R00000000000000478000010202015190000N000000000000N         000000400R 10000000010000000454           
RFF0638390069372717      ERT      0000  956.44375000140000102020151900000004781481100W 1220000N                               
CUS0638390000106287750001         RICHARD SHROPSHIRE  1712 N CASTLE ST                        000N        CARE OF             
MTR06383900001000000000000000RA              79211427    005800260000002600000360000003NN  NNW 000                       N    
RDG06383900WATR 000000004R00000000000000000000010202015190000N000100000020N         000000400R 10000000010000000000           
RFF0638390069370622      ERT      0000  956.44375000140000102020151900000000006261100W 1220000N                               
CUS0638390000106287751009         HOPKINS, DOROTHY E  1708 N CASTLE ST                        000N        CARE OF             
MTR06383900001000000000000000RA              75615204    005800270000002700000350000003NN  NNW 000                       N    
RDG06383900WATR 000000004R00000000000000000000010202015190000N000100000020N         000000400R 10000000010000000000           
RFF0638390069372384      ERT      0000  956.44375000140000102020151900000000000005100W 1220000N                               
CUS0638390000106287754003         JOHNSON, VERTLEE M  1702 N CASTLE ST                        000N        CARE OF             
MTR06383900001000000000000000RA              75615221    005800280000002800000350000003NN  NNW 000                       N    
RDG06383900WATR 000000004R00000000000000000000010202015190000N000100000020N         000000400R 10000000010000000000           
RFF0638390069372710      ERT      0000  956.44375000140000102020151900000000000003100W 1220000N                               
CUS0638390000106287756008         CADVOC REALTY MANAGE2018 E LANVALE ST                       000N        CARE OF             
MTR06383900001000000000000000RA              21189993    005800290000002900000590000003NY  NNW 000                       N    
MTM0638390021189993    79212473                                                                                               
RDG06383900WATRL000000004K00000000000000024001010202015074618N000000000010U61       001340400K 10000000010000000000           
CUS0638390000106287758004         CLARA M BLACK       2014 E LANVALE ST                       000N        CARE OF             
MTR06383900001000000000000000RA              76344636    005800300000003000000350000003NN  NNW 000                       N    
RDG06383900WATR 000000004R00000000000000000000010202015190000N000100000020N         000000400R 10000000010000000000           
RFF0638390069372691      ERT      0000  956.44375000140000102020151900000000004684100W 1220000N                               
CUS0638390000106287759002         HEWLETT GLADEEN     2012 E LANVALE ST                       000N        CARE OF             
MTR06383900001000000000000000RA              74691984    005800310000003100000350000003NN  NNW 000                       N    
RDG06383900WATR 000000004R00000000000000108000010202015190000N000000000000N         000000400R 10000000010000000101           
RFF0638390069372396      ERT      0000  956.44375000140000102020151900000001080172100W 1220000N                               
CUS0638390000106287761008         ELAINE MORRISON     2006 E LANVALE ST                       000N        CARE OF             
MTR06383900001000000000000000RA              75615095    005800320000003200000350000003NN  NNW 000                       N    
RDG06383900WATR 000000004R00000000000000157000010202015190000N000000000000N         000000400R 10000000010000000149           
RFF0638390069372729      ERT      0000  956.44375000140000102020151900000001575045100W 1220000N                               
CUS0638390000106287762006         ROLES, FANNIE P     2004 E LANVALE ST                       000N        CARE OF             
MTR06383900001000000000000000RA              74691967    005800330000003300000350000003NN  NNW 000                       N    
RDG06383900WATR 000000004R00000000000000070000010202015190000N000000000000N         000000400R 10000000010000000065           
RFF0638390069372518      ERT      0000  956.44375000140000102020151900000000707651100W 1220000N                               
CUS0638390000106287764002         JOHNSON, ELMER J    2000 E LANVALE ST                       000N        CARE OF             
MTR06383900001000000000000000RA              74691985    005800340000003400000350000003NN  NNW 000                       N    
RDG06383900WATR 000000004R00000000000000206000010202015190000N000000000000N         000000400R 10000000010000000192           
RFF0638390069372696      ERT      0000  956.44375000140000102020151900000002068597100W 1220000N                               
CUS0638390000106287765009         CREIGHTON, PATRICIA 2005 E LANVALE ST                       000N        CARE OF             
MTR06383900001000000000000000RA              74691981    005800350000003500000350000003NN  NNW 000                       N    
RDG06383900WATR 000000004R00000000000000182000010202015190000N000000000000N         000000400R 10000000010000000164           
RFF0638390069372690      ERT      0000  956.44375000140000102020151900000001821800100W 1220000N                               
CUS0638390000106287766007         BENJAMIN A SMITH    2007 E LANVALE ST                       000N        CARE OF             
MTR06383900001000000000000000RA              74691977    005800360000003600000350000003NN  NNW 000                       N    
RDG06383900WATR 000000004R00000000000000166000010202015190000N000000000000N         000000400R 10000000010000000150           
RFF0638390069371424      ERT      0000  956.44375000140000102020151900000001668276100W 1220000N                               
CUS0638390000106287767005         PRIOLEAU, CATHERINE 2009 E LANVALE ST                       000N        CARE OF             
MTR06383900001000000000000000RA              77886877    005800370000003700000360000003NN  NNW 000                       N    
RDG06383900WATR 000000004R00000000000000009000010202015190000N000000000000N         000000400R 10000000010000000005           
RFF0638390069372679      ERT      0000  956.44375000140000102020151900000000093026100W 1220000N                               
CUS0638390000106287768003         KOGER, DELORES      2011 E LANVALE ST                       000N        CARE OF             
MTR06383900001000000000000000RA              77886867    005800380000003800000360000003NN  NNW 000                       N    
RDG06383900WATR 000000004R00000000000000011000010202015190000N000000000000N         000000400R 10000000010000000007           
RFF0638390069372428      ERT      0000  956.44375000140000102020151900000000111967100W 1220000N                               
CUS0638390000106287770009         DAVID E HOPKINS & WF2021 E LANVALE ST                       000N        CARE OF             
MTR06383900001000000000000000RA              74692002    005800390000003900000350000003NN  NNW 000                       N    
RDG06383900WATR 000000004R00000000000000076000010202015190000N000000000000N         000000400R 10000000010000000070           
RFF0638390069368930      ERT      0000  956.44375000140000102020151900000000760147100W 1220000N                               
CUS0638390000106287771007         ROBERT MACK & WF    2023 E LANVALE ST                       000N        CARE OF             
MTR06383900001000000000000000RA              74692004    005800400000004000000350000003NN  NNW 000                       N    
RDG06383900WATR 000000004R00000000000000190000010202015190000N000100000020N         000000400R 10000000010000000190           
RFF0638390069372387      ERT      0000  956.44375000140000102020151900000001901022100W 1220000N                               
CUS0638390000106287772005         BETTE PARKER        2025 E LANVALE ST                       000N        CARE OF             
MTR06383900001000000000000000RA              75614095    005800410000004100000350000003NN  NNW 000                       N    
RDG06383900WATR 000000004R00000000000000202000010202015190000N000000000000N         000000400R 10000000010000000163           
RFF0638390069370795      ERT      0000  956.44375000140000102020151900000002028045100W 1220000N                               
CUS0638390000106351426009         MARY HARVIN CENTER  2030 E FEDERAL ST                       000N        CARE OF             
MTR06383900001000000000000000RA              99999999    005800420000004200000620000003NN  NNW 000                       N    
RDG06383900WATRL000000004K00000000000000000001510202015075734S022000000000U61       002880400K 10000000010000000000           
CUS0638390000106377492001         EDB ENTERPRISES, LLC1633 N WASHINGTON ST                    000N        CARE OF             
MTR06383900001000000000000000RA              74690788    005800430000004300000350000003NN  NNW 000                       N    
RDG06383900WATR 000000004R00000000000000098000010202015190000N000000000000N         000000400R 10000000010000000088           
RFF0638390069368941      ERT      0000  956.44375000140000102020151900000000982819100W 1220000N                               
CUS0638390000106287782004         WOLDEMICHAEL, ALEMSE1703 N WASHINGTON ST                    000N        CARE OF             
MTR06383900001000000000000000RA              76346301    005800440000004400000350000003NN  NNW 000                       N    
RDG06383900WATR 000000004R00000000000000010000010202015190000N000300000020N         000000400R 10000000010000000004           
RFF0638390069368903      ERT      0000  956.44375000140000102020151900000000106063100W 1220000N                               
CUS0638390000106287784000         FLEB ENTERPRISES, LL1707 N WASHINGTON ST                    000N        CARE OF             
MTR06383900001000000000000000RA              74690802    005800450000004500000350000003NN  NNW 000                       N    
RDG06383900WATR 000000004R00000000000000121000010202015190000N000000000000N         000000400R 10000000010000000114           
RFF0638390069368943      ERT      0000  956.44375000140000102020151900000001217459100W 1220000N                               
CUS0638390000106287786005         ALLEN-DYSON, LINDA  1711 N WASHINGTON ST                    000N        CARE OF             
MTR06383900001000000000000000RA              74690799    005800460000004600000350000003NN  NNW 000                       N    
RDG06383900WATR 000000004R00000000000000108000010202015190000N000000000000N         000000400R 10000000010000000103           
RFF0638390069368861      ERT      0000  956.44375000140000102020151900000001089849100W 1220000N                               
CUS0638390000106287788001         GULBRANSON ENTERPRIS1715 N WASHINGTON ST                    000N        CARE OF             
MTR06383900001000000000000000RA              75614783    005800470000004700000350000003NN  NNW 000                       N    
RDG06383900WATR 000000004R00000000000000198000010202015190000N000000000000N         000000400R 10000000010000000192           
RFF0638390069368853      ERT      0000  956.44375000140000102020151900000001985762100W 1220000N                               
CUS0638390000106287791005         HUBBARD, ISABELLE G.1721 N WASHINGTON ST                    000N        CARE OF             
MTR06383900001000000000000000RA              74690787    005800480000004800000350000003NN  NNW 000                       N    
RDG06383900WATR 000000004R00000000000000114000010202015190000N000000000000N         000000400R 10000000010000000104           
RFF0638390069370808      ERT      0000  956.44375000140000102020151900000001144575100W 1220000N                               
CUS0638390000106287792003         UP4 BUSINESS TRUST  1723 N WASHINGTON ST                    000N        CARE OF             
MTR06383900001000000000000000RA              75426635    005800490000004900000350000003NN  NNW 000                       N    
RDG06383900WATR 000000004R00000000000000200000010202015190000N000100000020N         000000400R 10000000010000000200           
RFF0638390069370794      ERT      0000  956.44375000140000102020151900000002009225100W 1220000N                               
CUS0638390000106287796004         THE LORD'S HOUSE OF 1731 N WASHINGTON ST                    000N        CARE OF             
MTR06383900001000000000000000RA              74690792    005800500000005000000350000003NN  NNW 000   VACANT PROPERTY     N    
RDG06383900WATR 000000004R00000000000000000000010202015190000N000100000020N         000000400R 10000000010000000000           
RFF0638390069368953      ERT      0000  956.44375000140000102020151900000000000000100W 1220000N                               
CUS0638390000106287800004         GWALTNEY, ROSETTA E 1803 N WASHINGTON ST                    000N        CARE OF             
MTR06383900001000000000000000RA              75422040    005800510000005100000350000003NN  NNW 000                       N    
RDG06383900WATR 000000004R00000000000000085000010202015190000N000000000000N         000000400R 10000000010000000080           
RFF0638390069370744      ERT      0000  956.44375000140000102020151900000000852981100W 1220000N                               
CUS0638390000106287804006         MORRIS, LOGAN L.    1811 N WASHINGTON ST                    000N        CARE OF             
MTR06383900001000000000000000RA              75422042    005800520000005200000350000003NN  NNW 000                       N    
RDG06383900WATR 000000004R00000000000000094000010202015190000N000000000000N         000000400R 10000000010000000087           
RFF0638390069368857      ERT      0000  956.44375000140000102020151900000000942400100W 1220000N                               
CUS0638390000106366557004         QUEKETA PAYTON      1815 N WASHINGTON ST                    000N        CARE OF             
MTR06383900001000000000000000RA              75422041    005800530000005300000350000003NN  NNW 000   VACANT PROPERTY     N    
RDG06383900WATR 000000004R00000000000000000000010202015190000N000100000020N         000000400R 10000000010000000000           
RFF0638390069368846      ERT      0000  956.44375000140000102020151900000000000856100W 1220000N                               
CUS0638390000106287811001         WILKINS-BAILEY, LEST1829 N WASHINGTON ST                    000N        CARE OF             
MTR06383900001000000000000000RA              75422044    005800540000005400000350000003NN  NNW 000                       N    
RDG06383900WATR 000000004R00000000000000000000010202015190000N000100000020N         000000400R 10000000010000000000           
RFF0638390069368845      ERT      0000  956.44375000140000102020151900000000004425100W 1220000N                               
CUS0638390000106287812009         GLADYS C WILLIAMS   1831 N WASHINGTON ST                    000N        CARE OF             
MTR06383900001000000000000000RA              75422043    005800550000005500000350000003NN  NNW 000                       N    
RDG06383900WATR 000000004R00000000000000146000010202015190000N000000000000N         000000400R 10000000010000000134           
RFF0638390069368899      ERT      0000  956.44375000140000102020151900000001464237100W 1220000N                               
CUS0638390000106287818006         MARY WILSON EST. OF 1830 N WASHINGTON ST                    000N        CARE OF             
MTR06383900001000000000000000RA              75422036    005800560000005600000350000003NN  NNW 000                       N    
RDG06383900WATRL000000004R00000000000000000001410202015075246S002000000000U61       000650400K 10000000010000000000           
RFF0638390069368858      ERT      0000  956.4437500014000000000000000000                  0001N                               
CUS0638390000106287819004         DIAMOND FINANCIAL MO1828 N WASHINGTON ST                    000N        CARE OF             
MTR06383900001000000000000000RA              75422033    005800570000005700000350000003NN  NNW 000                       N    
RDG06383900WATR 000000004R00000000000000054000010202015190000N000100000020N         000000400R 10000000010000000054           
RFF0638390069370743      ERT      0000  956.44375000140000102020151900000000543302100W 1220000N                               
CUS0638390000106287820002         NOVOGRAD, JACK  (TR)1826 N WASHINGTON ST                    000N        CARE OF             
MTR06383900001000000000000000RA              75422037    005800580000005800000350000003NN  NNW 000                       N    
RDG06383900WATR 000000004R00000000000000008000010202015190000N000100000020N         000000400R 10000000010000000008           
RFF0638390069368865      ERT      0000  956.44375000140000102020151900000000089125100W 1220000N                               
CUS0638390000106287821000         TAYOS ELECTRIC      1824 N WASHINGTON ST                    000N        CARE OF             
MTR06383900001000000000000000RA              75426469    005800590000005900000350000003NN  NNW 000                       N    
RDG06383900WATR 000000004R00000000000000285000010202015190000N000000000000N         000000400R 10000000010000000263           
RFF0638390069368830      ERT      0000  956.44375000140000102020151900000002852989100W 1220000N                               
CUS0638390000106287822008         HOME RENTAL SERVICES1822 N WASHINGTON ST                    000N        CARE OF             
MTR06383900001000000000000000RA              75426650    005800600000006000000350000003NN  NNW 000                       N    
RDG06383900WATR 000000004R00000000000000161000010202015190000N000000000000N         000000400R 10000000010000000150           
RFF0638390069368887      ERT      0000  956.44375000140000102020151900000001613584100W 1220000N                               
CUS0638390000106287823006         HILL JR., CHARLES E 1820 N WASHINGTON ST                    000N        CARE OF             
MTR06383900001000000000000000RA              75422035    005800610000006100000350000003NN  NNW 000                       N    
RDG06383900WATR 000000004R00000000000000234000010202015190000N000000000000N         000000400R 10000000010000000218           
RFF0638390069368914      ERT      0000  956.44375000140000102020151900000002343436100W 1220000N                               
CUS0638390000106287824004         TERRY, LONNIE L     1818 N WASHINGTON ST                    000N        CARE OF             
MTR06383900001000000000000000RA              75422390    005800620000006200000350000003NN  NNW 000                       N    
RDG06383900WATR 000000004R00000000000000153000010202015190000N000000000000N         000000400R 10000000010000000142           
RFF0638390069372558      ERT      0000  956.44375000140000102020151900000001533194100W 1220000N                               
CUS0638390000106287825001         GLENN, KENNETH C.   1814 N WASHINGTON ST                    000N        CARE OF             
MTR06383900001000000000000000RA              75426680    005800630000006300000350000003NN  NNW 000                       N    
RDG06383900WATR 000000004R00000000000000094000010202015190000N000000000000N         000000400R 10000000010000000087           
RFF0638390069372548      ERT      0000  956.44375000140000102020151900000000949039100W 1220000N                               
CUS0638390000106287826009         WRIGHT JR, WILLIAM  1812 N WASHINGTON ST                    000N        CARE OF             
MTR06383900001000000000000000RA              75422039    005800640000006400000350000003NN  NNW 000                       N    
RDG06383900WATR 000000004R00000000000000267000010202015190000N000300000020N         000000400R 10000000010000000263           
RFF0638390069372551      ERT      0000  956.44375000140000102020151900000002676750100W 1220000N                               
CUS0638390000106287827007         RUTH V FRANKLIN     1810 N WASHINGTON ST                    000N        CARE OF             
MTR06383900001000000000000000RA              21397625    005800650000006500000590000003NN  NNW 000                       N    
RDG06383900WATRL000000004K00000000000000000001310202015075141S018000000000U61       001890400K 10000000010000000000           
CUS0638390000106287834003         TAYLOR, TRACY L     1930 E LAFAYETTE AVE                    000N        CARE OF             
MTR06383900001000000000000000RA              74691883    005800660000006600000350000003NN  NNW 000                       N    
RDG06383900WATRL000000004K00000000000000132001610202015075914N000000000000U61       001000400K 10000000010000000123           
CUS0638390000106287835000         WINDSTAR PROPERTIES,1928 E LAFAYETTE AVE                    000N        CARE OF             
MTR06383900001000000000000000RA              74691888    005800670000006700000350000003NN  NNW 000                       N    
RDG06383900WATRL000000004K00000000000000356001710202015075937N000000000000U61       000230400K 10000000010000000346           
CUS0638390000106369533002         DAVIS, JACQUELINE   1924 E LAFAYETTE AVE                    000N        CARE OF             
MTR06383900001000000000000000RA              76344585    005800680000006800000350000003NN  NNW 000                       N    
RDG06383900WATRL000000004K00000000000000073001810202015080033N000000000010U61       000560400K 10000000010000000067           
CUS0638390000106369001000         RAYMOND KATZEN ETAL 1922 E LAFAYETTE AVE                    000N        CARE OF             
MTR06383900001000000000000000RA              74688186    005800690000006900000350000003NN  NNW 000                       N    
RDG06383900WATRL000000004K00000000000000191001910202015080056N000000000000U61       000230400K 10000000010000000191           
CUS0638390000106374148002         HAZEL D JONES       1920 E LAFAYETTE AVE                    000N        CARE OF             
MTR06383900001000000000000000RA              74690795    005800700000007000000350000003NN  NNW 000                       N    
RDG06383900WATRL000000004K00000000000000022002010202015080123N000000000000U61       000270400K 10000000010000000021           
CUS0638390000106287839002         MAGGIE M SYDNOR ETAL1805 N CHAPEL ST                        000N        CARE OF             
MTR06383900001000000000000000RA              74691047    005800710000007100000350000003NN  NNW 000                       N    
RDG06383900WATR 000000004R00000000000000487000010202015190000N000000000000N         000000400R 10000000010000000464           
RFF0638390069369284      ERT      0000  956.44375000140000102020151900000004874863100W 1220000N                               
CUS0638390000106287840000         RINATI LAVI INTERIOR1811 N CHAPEL ST                        000N        CARE OF             
MTR06383900001000000000000000RA              75613893    005800720000007200000350000003NN  NNW 000                       N    
RDG06383900WATR 000000004R00000000000000101000010202015190000N000000000000N         000000400R 10000000010000000092           
RFF0638390069369489      ERT      0000  956.44375000140000102020151900000001014879100W 1220000N                               
CUS0638390000106287842006         ALLEN, CEDRIC       1815 N CHAPEL ST                        000N        CARE OF             
MTR06383900001000000000000000RA              74691130    005800730000007300000350000003NN  NNW 000                       N    
RDG06383900WATR 000000004R00000000000000158000010202015190000N000000000000N         000000400R 10000000010000000150           
RFF0638390069368993      ERT      0000  956.44375000140000102020151900000001585604100W 1220000N                               
CUS0638390000106287845009         DAISY E. JOHNSON    1821 N CHAPEL ST                        000N        CARE OF             
MTR06383900001000000000000000RA              75613885    005800740000007400000350000003NN  NNW 000   VACANT PROPERTY     N    
RDG06383900WATRL000000004R00000000000000000002410202015080502N000000000000U61       000490400K 10000000010000000000           
RFF0638390069373718      ERT      0000  956.4437500014000000000000000000                  0002Y                               
CUS0638390000106287846007         ALLEN, CEDRIC       1823 N CHAPEL ST                        000N        CARE OF             
MTR06383900001000000000000000RA              74691052    005800750000007500000350000003NN  NNW 000                       N    
RDG06383900WATR 000000004R00000000000000075000010202015190000N000000000000N         000000400R 10000000010000000070           
RFF0638390069373736      ERT      0000  956.44375000140000102020151900000000751166100W 1220000N                               
CUS0638390000106287847005         SD-34 CORPORATION   1825 N CHAPEL ST                        000N        CARE OF             
MTR06383900001000000000000000RA              75616588    005800760000007600000350000003NN  NNW 000                       N    
RDG06383900WATR 000000004R00000000000000000000010202015190000N000100000020N         000000400R 10000000010000000000           
RFF0638390069373708      ERT      0000  956.44375000140000102020151900000000000003100W 1220000N                               
CUS0638390000106287851007         ALLEN, CEDRIC B.    1833 N CHAPEL ST                        000N        CARE OF             
MTR06383900001000000000000000RA              75614570    005800770000007700000350000003NN  NNW 000                       N    
RDG06383900WATR 000000004R00000000000000096000010202015190000N000400000020N         000000400R 10000000010000000093           
RFF0638390069373723      ERT      0000  956.44375000140000102020151900000000962844100W 1220000N                               
CUS0638390000106287854001         EVANS, ANGELA       1839 N CHAPEL ST                        000N        CARE OF             
MTR06383900001000000000000000RA              74691050    005800780000007800000350000003NN  NNW 000                       N    
RDG06383900WATRL000000004K00000000000000000002610202015080620S002000000000U61       000400400K 10000000010000000000           
CUS0638390000106287856006         UP3 BUSINESS TRUST  1840 N CHAPEL ST                        000N        CARE OF             
MTR06383900001000000000000000RA              21397632    005800790000007900000590000003NN  NNW 000   VACANT PROPERTY     N    
RDG06383900WATRL000000004K00000000000000000002710202015080627S019000000000U61       000070400K 10000000010000004539           
CUS0638390000106353770008         GLOVER, THERESA     1838 N CHAPEL ST                        000N        CARE OF             
MTR06383900001000000000000000RA              74691051    005800800000008000000350000003NN  NNW 000                       N    
RDG06383900WATR 000000004R00000000000000334000010202015190000N000000000000N         000000400R 10000000010000000317           
RFF0638390069373711      ERT      0000  956.44375000140000102020151900000003345543100W 1220000N                               
CUS0638390000106287858002         ALLEN SR., CEDRIC   1834 N CHAPEL ST                        000N        CARE OF             
MTR06383900001000000000000000RA              74691102    005800810000008100000350000003NN  NNW 000                       N    
RDG06383900WATR 000000004R00000000000000135000010202015190000N000000000000N         000000400R 10000000010000000107           
RFF0638390069373733      ERT      0000  956.44375000140000102020151900000001351264100W 1220000N                               
CUS0638390000106287861006         THE 400 GROUP       1828 N CHAPEL ST                        000N        CARE OF             
MTR06383900001000000000000000RA              50001139    005800820000008200000670000003NN  NNW 000   VACANT PROPERTY     N    
RDG06383900WATRL000000004K00000000000000000002510202015080540S019000000000U61       000380400K 10000000010000001710           
CUS0638390000106287862004         BLAIR, JAMES        1826 N CHAPEL ST                        000N        CARE OF             
MTR06383900001000000000000000RA              74691046    005800830000008300000350000003NN  NNW 000                       N    
RDG06383900WATR 000000004R00000000000000036000010202015190000N000000000000N         000000400R 10000000010000000035           
RFF0638390069373596      ERT      0000  956.44375000140000102020151900000000369012100W 1220000N                               
CUS0638390000106287865007         ROYSTER, CARRIE LEE 1818 N CHAPEL ST                        000N        CARE OF             
MTR06383900001000000000000000RA              74691090    005800840000008400000350000003NN  NNW 000                       N    
RDG06383900WATR 000000004R00000000000000078000010202015190000N000000000000N         000000400R 10000000010000000073           
RFF0638390069373721      ERT      0000  956.44375000140000102020151900000000789730100W 1220000N                               
CUS0638390000106287866005         CASSANDRA L GROSS   1816 N CHAPEL ST                        000N        CARE OF             
MTR06383900001000000000000000RA              74691132    005800850000008500000350000003NN  NNW 000                       N    
RDG06383900WATR 000000004R00000000000000114000010202015190000N000000000000N         000000400R 10000000010000000105           
RFF0638390069369296      ERT      0000  956.44375000140000102020151900000001143635100W 1220000N                               
CUS0638390000106287868001         SYDNOR, HEMPSAL     1812 N CHAPEL ST                        000N        CARE OF             
MTR06383900001000000000000000RA              74691131    005800860000008600000350000003NN  NNW 000                       N    
RDG06383900WATR 000000004R00000000000000047000010202015190000N000000000000N         000000400R 10000000010000000045           
RFF0638390069369510      ERT      0000  956.44375000140000102020151900000000472971100W 1220000N                               
CUS0638390000106287870007         HEMPSAL SYDNOR      1808 N CHAPEL ST                        000N        CARE OF             
MTR06383900001000000000000000RA              74691091    005800870000008700000350000003NN  NNW 000                       N    
RDG06383900WATR 000000004R00000000000000361000010202015190000N000400000020N         000000400R 10000000010000000342           
RFF0638390069373735      ERT      0000  956.44375000140000102020151900000003612467100W 1220000N                               
CUS0638390000106354432004         ROSETTA MARKS       1806 N CHAPEL ST                        000N        CARE OF             
MTR06383900001000000000000000RA              74691128    005800880000008800000350000003NN  NNW 000   VACANT PROPERTY     N    
RDG06383900WATRL000000004K00000000000000000002310202015080413S002000000000U61       000170400K 10000000010000000000           
CUS0638390000106287871005         PARKER, MARY A.     1802 N CHAPEL ST                        000N        CARE OF             
MTR06383900001000000000000000RA              74691045    005800890000008900000350000003NN  NNW 000                       N    
RDG06383900WATRL000000004K00000000000000101002210202015080356N000100000010U61       001170400K 10000000010000000101           
CUS0638390000106287873001         EVELYN N BRACEY     1916 E LAFAYETTE AVE                    000N        CARE OF             
MTR06383900001000000000000000RA              74691887    005800900000009000000350000003NN  NNW 000                       N    
RDG06383900WATRL000000004K00000000000000113002110202015080159N000000000000U61       000360400K 10000000010000000113           
CUS0638390000106287876004         NOVOGRAD, JACK  (TR)1910 E LAFAYETTE AVE                    000N        CARE OF             
MTR06383900001000000000000000RA              74688181    005800910000009100000350000003NN  NNW 000   VACANT PROPERTY     N    
RDG06383900WATR 000000004R00000000000000000000010202015190000N000100000020N         000000400R 10000000010000000000           
RFF0638390069372409      ERT      0000  956.44375000140000102020151900000000000003100W 1220000N                               
CUS0638390000106287877002         HENRY GREEN LIVING T1908 E LAFAYETTE AVE                    000N        CARE OF             
MTR06383900001000000000000000RA              74691871    005800920000009200000350000003NN  NNW 000                       N    
RDG06383900WATR 000000004R00000000000000058000010202015190000N000000000000N         000000400R 10000000010000000054           
RFF0638390069372392      ERT      0000  956.44375000140000102020151900000000584495100W 1220000N                               
CUS0638390000106287878000         APEX HOME BUYERS, LL1906 E LAFAYETTE AVE                    000N        CARE OF             
MTR06383900001000000000000000RA              74688188    005800930000009300000350000003NN  NNW 000                       N    
RDG06383900WATR 000000004R00000000000000213000010202015190000N000000000000N         000000400R 10000000010000000193           
RFF0638390069372549      ERT      0000  956.44375000140000102020151900000002134084100W 1220000N                               
CUS0638390000106287879008         424 53RD, LLC.      1902 E LAFAYETTE AVE                    000N        CARE OF             
MTR06383900001000000000000000RA              75426645    005800940000009400000350000003NN  NNW 000                       N    
RDG06383900WATR 000000004R00000000000000120000010202015190000N000000000000N         000000400R 10000000010000000109           
RFF0638390069372413      ERT      0000  956.44375000140000102020151900000001208432100W 1220000N                               
CUS0638390000106369002008         JONES, LEON         1900 E LAFAYETTE AVE                    000N        CARE OF             
MTR06383900001000000000000000RA              74688179    005800950000009500000350000003NN  NNW 000                       N    
RDG06383900WATR 000000004R00000000000000248000010202015190000N000400000020N         000000400R 10000000010000000244           
RFF0638390069372540      ERT      0000  956.44375000140000102020151900000002488166100W 1220000N                               
RTR06383900NN00220095000000220000007300950095000030NY009500950095000000150000000000000000000002    10192015NY020000 N         
RHD06384100NN00130072000000130000005900720072000021NY007200720072000000180000000000000000000002    10192015NY020000 N         
CUS0638410000106330696003         MASON, EDWARD       2006 E HOFFMAN ST                       000N        CARE OF             
MTR06384100001000000000000000RA              75422417    005800010000000100000350000003NN  NNW 000                       N    
RDG06384100WATR 000000004R00000000000000067000010202015190000N000400000020N         000000400R 10000000010000000066           
RFF0638410069372780      ERT      0000  956.44375000140000102020151900000000674881100W 1220000N                               
CUS0638410000106350803000         MAYOR AND CITY COUNC2024 E HOFFMAN ST                       000N        CARE OF             
MTR06384100001000000000000000RA              21734080    005800020000000200000590000003NN  NNW 000                       N    
RDG06384100WATRL000000004K00000000000000000000310202015081202S022000000000U61       000450400K 10000000010000004864           
CUS0638410000106350808009         MAYOR AND CITY COUNC2038 E HOFFMAN ST                       000N        CARE OF             
MTR06384100001000000000000000RA              21739802    005800030000000300000590000003NN  NNW 000                       N    
RDG06384100WATRL000000004K00000000000000000000210202015081117S022000000000U61       000090400K 10000000010000005103           
CUS0638410000106330711000         HABC/RH             2046 E HOFFMAN ST                       000N        CARE OF             
MTR06384100001000000000000000RA              75422078    005800040000000400000350000003NN  NNW 000                       N    
RDG06384100WATR 000000004R00000000000000042000010202015190000N000100000020N         000000400R 10000000010000000042           
RFF0638410069372764      ERT      0000  956.44375000140000102020151900000000420122100W 1220000N                               
CUS0638410000106330714004         REBECCA L FLEMING   2052 E HOFFMAN ST                       000N        CARE OF             
MTR06384100001000000000000000RA              21734903    005800050000000500000590000003NN  NNW 000   VACANT PROPERTY     N    
RDG06384100WATRL000000004K00000000000000000000110202015081108S022000000001U61       000100400K 10000000010000003265           
CUS0638410000106367044002         LUCY M DUCK         2056 E HOFFMAN ST                       000N        CARE OF             
MTR06384100001000000000000000RA              75617213    005800060000000600000350000003NN  NNW 000   INVALID DAC         N    
RDG06384100WATR 000000004R00000000000000000000010202015190000N000100000020N         000000400R 10000000010000000000           
RFF0638410069372773      ERT      0000  956.44375000140000102020151900000000000002100W 1220000N                               
CUS0638410000106330716009         JESSE VICE JR       2058 E HOFFMAN ST                       000N        CARE OF             
MTR06384100001000000000000000RA              75423074    005800070000000700000350000003NN  NNW 000                       N    
RDG06384100WATR 000000004R00000000000000000000010202015190000N000100000020N         000000400R 10000000010000000000           
RFF0638410069372759      ERT      0000  956.44375000140000102020151900000000000004100W 1220000N                               
CUS0638410000106330719003         MARGARET CROWELL    2106 E HOFFMAN ST                       000N        CARE OF             
MTR06384100001000000000000000RA              75422080    005800080000000800000350000003NN  NNW 000                       N    
RDG06384100WATR 000000004R00000000000000099000010202015190000N000000000000N         000000400R 10000000010000000092           
RFF0638410069372775      ERT      0000  956.44375000140000102020151900000000991083100W 1220000N                               
CUS0638410000106330726008         HOLLEY,RANDOLPH/CYNT2120 E HOFFMAN ST                       000N        CARE OF             
MTR06384100001000000000000000RA              74689702    005800090000000900000350000003NN  NNW 000                       N    
RDG06384100WATR 000000004R00000000000000640000010202015190000N000000000000N         000000400R 10000000010000000600           
RFF0638410069372693      ERT      0000  956.44375000140000102020151900000006403178100W 1220000N                               
CUS0638410000106330727006         OATHER M JONES & WF 2126 E HOFFMAN ST                       000N        CARE OF             
MTR06384100001000000000000000RA              75422086    005800100000001000000350000003NN  NNW 000                       N    
RDG06384100WATR 000000004R00000000000000109000010202015190000N000000000000N         000000400R 10000000010000000100           
RFF0638410069372774      ERT      0000  956.44375000140000102020151900000001097044100W 1220000N                               
CUS0638410000106377834004         OATHER JONES        2128 E HOFFMAN ST                       000N        CARE OF             
MTR06384100001000000000000000RA              75422077    005800110000001100000350000003NN  NNW 000                       N    
RDG06384100WATR 000000004R00000000000000000000010202015190000N000100000020N         000000400R 10000000010000000000           
RFF0638410069372733      ERT      0000  956.44375000140000102020151900000000000003100W 1220000N                               
CUS0638410000106330731008         ALSTON, JEAN HARRIET2110 LLEWELYN AVE                       000N        CARE OF             
MTR06384100001000000000000000RA              75614114    005800120000001200000350000003NN  NNW 000                       N    
RDG06384100WATR 000000004R00000000000000073000010202015190000N000400000020N         000000400R 10000000010000000067           
RFF0638410069371811      ERT      0000  956.44375000140000102020151900000000736483100W 1220000N                               
CUS0638410000106377480006         SHARON M CHEATHAM   1416 N COLLINGTON AVE                   000N        CARE OF             
MTR06384100001000000000000000RA              75422085    005800130000001300000350000003NN  NNW 000                       N    
RDG06384100WATR 000000004R00000000000000176000010202015190000N000000000000N         000000400R 10000000010000000161           
RFF0638410069371838      ERT      0000  956.44375000140000102020151900000001764865100W 1220000N                               
CUS0638410000106330743003         ALCEMA, STCLAIR     2127 E OLIVER ST                        000N        CARE OF             
MTR06384100001000000000000000RA              74691549    005800140000001400000350000003NN  NNW 000                       N    
RDG06384100WATR 000000004R00000000000000000000010202015190000N000100000020N         000000400R 10000000010000000000           
RFF0638410069372749      ERT      0000  956.44375000140000102020151900000000000005100W 1220000N                               
CUS0638410000106353856005         TYNES, MARCELENE V. 2121 E OLIVER ST                        000N        CARE OF             
MTR06384100001000000000000000RA              74691564    005800150000001500000350000003NN  NNW 000                       N    
RDG06384100WATR 000000004R00000000000000148000010202015190000N000000000000N         000000400R 10000000010000000138           
RFF0638410069372751      ERT      0000  956.44375000140000102020151900000001482639100W 1220000N                               
CUS0638410000106368924004         BUTLER, KEITH A     2119 E OLIVER ST                        000N        CARE OF             
MTR06384100001000000000000000RA              79209537    005800160000001600000360000003NN  NNW 000   VACANT PROPERTY     N    
RDG06384100WATR 000000004R00000000000000000000010202015190000N000100000020N         000000400R 10000000010000000000           
RFF0638410069369942      ERT      0000  956.44375000140000102020151900000000001201100W 1220000N                               
CUS0638410000106330746006         MICHAEL F EQUBAY    2109 E OLIVER ST                        000N        CARE OF             
MTR06384100001000000000000000RA              76347139    005800170000001700000350000003NN  NNW 000                       N    
RDG06384100WATR 000000004R00000000000000023000010202015190000N000000000000N         000000400R 10000000010000000019           
RFF0638410069371819      ERT      0000  956.44375000140000102020151900000000238744100W 1220000N                               
CUS0638410000106330747004         TYRANGAEL PROPERTIES2107 E OLIVER ST                        000N        CARE OF             
MTR06384100001000000000000000RA              74691480    005800180000001800000350000003NN  NNW 000                       N    
RDG06384100WATR 000000004R00000000000000487000010202015190000N000000000000N         000000400R 10000000010000000458           
RFF0638410069371888      ERT      0000  956.44375000140000102020151900000004872937100W 1220000N                               
CUS0638410000106330749000         WATKINS, DARRYL     2103 E OLIVER ST                        000N        CARE OF             
MTR06384100001000000000000000RA              74691553    005800190000001900000350000003NN  NNW 000                       N    
RDG06384100WATR 000000004R00000000000000182000010202015190000N000000000000N         000000400R 10000000010000000179           
RFF0638410069371840      ERT      0000  956.44375000140000102020151900000001827522100W 1220000N                               
CUS0638410000106330752004         TATE, BRETT         1417 N CHESTER ST                       000N        CARE OF             
MTR06384100001000000000000000RA              75422385    005800200000002000000350000003NN  NNW 000   VACANT PROPERTY     N    
RDG06384100WATRL000000004R00000000000000000000410202015081516S002000000000U61       001940400K 10000000010000000000           
RFF0638410069371815      ERT      0000  956.4437500014000000000000000000                  0001N                               
CUS0638410000106330753002         LEWIS COLEY         1413 N CHESTER ST                       000N        CARE OF             
MTR06384100001000000000000000RA              75423076    005800210000002100000350000003NN  NNW 000   VACANT PROPERTY     N    
RDG06384100WATRL000000004R00000000000000000000510202015081549S002000000000U61       000330400K 10000000010000000000           
RFF0638410069371817      ERT      0000  956.4437500014000000000000000000                  0001N                               
CUS0638410000106330754000         FITZGERALD, MICHAEL 1411 N CHESTER ST                       000N        CARE OF             
MTR06384100001000000000000000RA              75422081    005800220000002200000350000003NN  NNW 000                       N    
RDG06384100WATR 000000004R00000000000000082000010202015190000N000000000000N         000000400R 10000000010000000078           
RFF0638410069371856      ERT      0000  956.44375000140000102020151900000000821819100W 1220000N                               
CUS0638410000106330758001         MAYOR AND CITY COUNC1408 N CHESTER ST                       000N        CARE OF             
MTR06384100001000000000000000RA              99999999    005800230000002300000620000003NN  NNW 000                       N    
RDG06384100WATRL000000004K00000000000000000000610202015081615S002000000000U61       000260400K 10000000010000000000           
CUS0638410000106330783009         THOMAS, ROBERT      1414 N CHESTER ST                       000N        CARE OF             
MTR06384100001000000000000000RA              99999999    005800240000002400000620000003NN  NNW 000   INVALID DAC         N    
RDG06384100WATRL000000004K00000000000000000000710202015081632S022000000000U61       000170400K 10000000010000002474           
CUS0638410000106330785004         SHEFFIELD, DAVID W  1418 N CHESTER ST                       000N        CARE OF             
MTR06384100001000000000000000RA              75617227    005800250000002500000350000003NN  NNW 000                       N    
RDG06384100WATR 000000004R00000000000000000000010202015190000N000100000020N         000000400R 10000000010000000000           
RFF0638410069371818      ERT      0000  956.44375000140000102020151900000000000004100W 1220000N                               
CUS0638410000106330788008         SEAN BRENNAN        2039 E OLIVER ST                        000N        CARE OF             
MTR06384100001000000000000000RA              75614079    005800260000002600000350000003NN  NNW 000                       N    
RDG06384100WATR 000000004R00000000000000032000010202015190000N000000000000N         000000400R 10000000010000000030           
RFF0638410069371839      ERT      0000  956.44375000140000102020151900000000323755100W 1220000N                               
CUS0638410000106330789006         MAURO J ALVES/E.GOLL2037 E OLIVER ST                        000N        CARE OF             
MTR06384100001000000000000000RA              74691548    005800270000002700000350000003NN  NNW 000   VACANT PROPERTY     N    
RDG06384100WATRL000000004K00000000000000000000810202015081922S002000000000U61       001700400K 10000000010000000000           
CUS0638410000106330791002         BELLAMY, EFFIERINE  2029 E OLIVER ST                        000N        CARE OF             
MTR06384100001000000000000000RA              77891914    005800280000002800000360000003NN  NNW 000                       N    
RDG06384100WATR 000000004R00000000000000024000010202015190000N000000000000N         000000400R 10000000010000000015           
RFF0638410069371878      ERT      0000  956.44375000140000102020151900000000246847100W 1220000N                               
CUS0638410000106330794006         JAMES R LEWIS & WF  2023 E OLIVER ST                        000N        CARE OF             
MTR06384100001000000000000000RA              75616585    005800290000002900000350000003NN  NNW 000   VACANT PROPERTY     N    
RDG06384100WATRL000000004K00000000000000000000910202015082016S002000000000U61       000540400K 10000000010000000000           
CUS0638410000106330797009         PORT HOMES, LLC     2017 E OLIVER ST                        000N        CARE OF             
MTR06384100001000000000000000RA              75616405    005800300000003000000350000003NN  NNW 000   VACANT PROPERTY     N    
RDG06384100WATR 000000004R00000000000000000000010202015190000N000100000020N         000000400R 10000000010000000000           
RFF0638410069372786      ERT      0000  956.44375000140000102020151900000000000005100W 1220000N                               
CUS0638410000106350810005         HABC/LUV            1417 N WASHINGTON ST                    000N        CARE OF             
MTR06384100001000000000000000RA              75423075    005800310000003100000350000003NN  NNW 000                       N    
RDG06384100WATR 000000004R00000000000000364000010202015190000N000000000000N         000000400R 10000000010000000280           
RFF0638410069372767      ERT      0000  956.44375000140000102020151900000003647503100W 1220000N                               
CUS0638410000106330800001         ILN DEV CORP        1409 N WASHINGTON ST                    000N        CARE OF             
MTR06384100001000000000000000RA              21184159    005800320000003200000590000003NN  NNW 000   VACANT PROPERTY     N    
RDG06384100WATRL000000004K00000000000000000001310202015082801S022000000000U61       001910400K 10000000010000001587           
CUS0638410000106330801009         THOMAS A TERRY      1407 N WASHINGTON ST                    000N        CARE OF             
MTR06384100001000000000000000RA              21713561    005800330000003300000590000003NN  NNW 000   VACANT PROPERTY     N    
RDG06384100WATRL000000004K00000000000000000001410202015082805S022000000000U61       000040400K 10000000010000001949           
CUS0638410000106330802007         THE 400 GROUP       1405 N WASHINGTON ST                    000N        CARE OF             
MTR06384100001000000000000000RA              21733174    005800340000003400000590000003NN  NNW 000   VACANT PROPERTY     N    
RDG06384100WATRL000000004K00000000000000000001510202015082810S022000000000U61       000050400K 10000000010000000488           
CUS0638410000106330803005         ISABEL C MCELVOY ETA1403 N WASHINGTON ST                    000N        CARE OF             
MTR06384100001000000000000000RA              75422928    005800350000003500000350000003NN  NNW 000                       N    
RDG06384100WATR 000000004R00000000000000000000010202015190000N000100000020N         000000400R 10000000010000000000           
RFF0638410069372754      ERT      0000  956.44375000140000102020151900000000000004100W 1220000N                               
CUS0638410000106330804003         CITY HOMES CENTRAL I1401 N WASHINGTON ST                    000N        CARE OF             
MTR06384100001000000000000000RA              75422930    005800360000003600000350000003NN  NNW 000                       N    
RDG06384100WATR 000000004R00000000000000136000010202015190000N000100000020N         000000400R 10000000010000000136           
RFF0638410069372743      ERT      0000  956.44375000140000102020151900000001367204100W 1220000N                               
CUS0638410000106368166002         SLATE, GREGORY A    1424 N GAY ST                           000N        CARE OF             
MTR06384100001000000000000000RA              75422932    005800370000003700000350000003NN  NNW 000   VACANT PROPERTY     N    
RDG06384100WATR 000000004R00000000000000000000010202015190000N000100000020N         000000400R 10000000010000000000           
RFF0638410069372784      ERT      0000  956.44375000140000102020151900000000000005100W 1220000N                               
CUS0638410000106330806008         MORGAN, RICHARD C   1911 E OLIVER ST                        000N        CARE OF             
MTR06384100001000000000000000RA              74691479    005800380000003800000350000003NN  NNW 000   VACANT PROPERTY     N    
RDG06384100WATR 000000004R00000000000000078000010202015190000N000300000020N         000000400R 10000000010000000077           
RFF0638410069372771      ERT      0000  956.44375000140000102020151900000000780940100W 1220000N                               
CUS0638410000106330808004         ANSARI, CARLA       1907 E OLIVER ST                        000N        CARE OF             
MTR06384100001000000000000000RA              74691595    005800390000003900000350000003NN  NNW 000                       N    
RDG06384100WATRL000000004R00000000000000000001010202015082348S002000000000U61       002120400K 10000000010000000000           
RFF0638410069372782      ERT      0000  956.4437500014000000000000000000                  0001N                               
CUS0638410000106330813004         KONA PROPERTIES, LLC1906 E OLIVER ST                        000N        CARE OF             
MTR06384100001000000000000000RA              75617490    005800400000004000000350000003NN  NNW 000                       N    
RDG06384100WATRL000000004R00000000000000000001110202015082424S002000000000U61       000360400K 10000000010000000000           
RFF0638410069371881      ERT      0000  956.4437500014000000000000000000                  0001N                               
CUS0638410000106366333000         COLE, BREONNA       1910 E OLIVER ST                        000N        CARE OF             
MTR06384100001000000000000000RA              75614091    005800410000004100000350000003NN  NNW 000                       N    
RDG06384100WATRL000000004R00000000000000000001210202015082450S002000000000U61       000260400K 10000000010000000000           
RFF0638410069372768      ERT      0000  956.4437500014000000000000000000                  0001N                               
CUS0638410000106366335005         THADDEUS & DENISE WI1912 E OLIVER ST                        000N        CARE OF             
MTR06384100001000000000000000RA              75617495    005800420000004200000350000003NN  NNW 000                       N    
RDG06384100WATR 000000004R00000000000000122000010202015190000N000000000000N         000000400R 10000000010000000116           
RFF0638410069372776      ERT      0000  956.44375000140000102020151900000001227532100W 1220000N                               
CUS0638410000106366341003         GARLAND, ROBERT     2138 E OLIVER ST                        000N        CARE OF             
MTR06384100001000000000000000RA              75616409    005800430000004300000350000003NN  NNW 000                       N    
RDG06384100WATR 000000004R00000000000000130000010202015190000N000000000000N         000000400R 10000000010000000111           
RFF0638410069371887      ERT      0000  956.44375000140000102020151900000001304603100W 1220000N                               
CUS0638410000106330825008         GRANT, ANTONIO LEE  2222 E OLIVER ST                        000N        CARE OF             
MTR06384100001000000000000000RA              74691500    005800440000004400000350000003NN  NNW 000   VACANT PROPERTY     N    
RDG06384100WATR 000000004R00000000000000218000010202015190000N000100000020N         000000400R 10000000010000000218           
RFF0638410069371871      ERT      0000  956.44375000140000102020151900000002181305100W 1220000N                               
CUS0638410000106330829000         HABC                2232 E OLIVER ST                        000N        CARE OF             
MTR06384100001000000000000000RA              74691503    005800450000004500000350000003NN  NNW 000                       N    
RDG06384100WATR 000000004R00000000000000099000010202015190000N000400000020N         000000400R 10000000010000000097           
RFF0638410069371903      ERT      0000  956.44375000140000102020151900000000994439100W 1220000N                               
CUS0638410000106330830008         TESFAMICHAEL, SIMON 2234 E OLIVER ST                        000N        CARE OF             
MTR06384100001000000000000000RA              79212254    005800460000004600000360000003NN  NNW 000                       N    
RDG06384100WATR 000000004R00000000000000036000010202015190000N000000000000N         000000400R 10000000010000000014           
RFF0638410069370546      ERT      0000  956.44375000140000102020151900000000365301100W 1220000N                               
CUS0638410000106330833002         GREENIDGE, JOEL     1502 N PATTERSON PK AVE                 000N        CARE OF             
MTR06384100001000000000000000RA              76345753    005800470000004700000350000003NN  NNW 000                       N    
RDG06384100WATR 000000004R00000000000000176000010202015190000N000000000000N         000000400R 10000000010000000155           
RFF0638410069371909      ERT      0000  956.44375000140000102020151900000001767478100W 1220000N                               
CUS0638410000106330835007         FOXWOOD NATIONAL, LL1506 N PATTERSON PK AVE                 000N        CARE OF             
MTR06384100001000000000000000RA              77884501    005800480000004800000360000003NN  NNW 000                       N    
RDG06384100WATR 000000004R00000000000000005000010202015190000N000300000020N         000000400R 10000000010000000000           
RFF0638410069371841      ERT      0000  956.44375000140000102020151900000000051545100W 1220000N                               
CUS0638410000106330836005         HOPEWELL, HILDA     1508 N PATTERSON PK AVE                 000N        CARE OF             
MTR06384100001000000000000000RA              76346249    005800490000004900000350000003NN  NNW 000                       N    
RDG06384100WATR 000000004R00000000000000151000010202015190000N000000000000N         000000400R 10000000010000000140           
RFF0638410069371854      ERT      0000  956.44375000140000102020151900000001516606100W 1220000N                               
CUS0638410000106330837003         E LINE PROPERTY MANA1510 N PATTERSON PK AVE                 000N        CARE OF             
MTR06384100001000000000000000RA              76345748    005800500000005000000350000003NN  NNW 000                       N    
RDG06384100WATR 000000004R00000000000000331000010202015190000N000000000000N         000000400R 10000000010000000312           
RFF0638410069371844      ERT      0000  956.44375000140000102020151900000003318178100W 1220000N                               
CUS0638410000106330841005         HHMBAL LLC.         1518 N PATTERSON PK AVE                 000N        CARE OF             
MTR06384100001000000000000000RA              76346251    005800510000005100000350000003NN  NNW 000   VACANT PROPERTY     N    
RDG06384100WATR 000000004R00000000000000056000010202015190000N000100000020N         000000400R 10000000010000000056           
RFF0638410069371882      ERT      0000  956.44375000140000102020151900000000566429100W 1220000N                               
CUS0638410000106330844009         E LINE PROPERTY MANA1528 N PATTERSON PK AVE                 000N        CARE OF             
MTR06384100001000000000000000RA              76345558    005800520000005200000350000003NN  NNW 000                       N    
RDG06384100WATR 000000004R00000000000000184000010202015190000N000400000020N         000000400R 10000000010000000183           
RFF0638410069372085      ERT      0000  956.44375000140000102020151900000001842421100W 1220000N                               
CUS0638410000106330846004         DEUTSCHE NATIONAL TR1534 N PATTERSON PK AVE                 000N        CARE OF             
MTR06384100001000000000000000RA              75614105    005800530000005300000350000003NN  NNW 000   VACANT PROPERTY     N    
RDG06384100WATR 000000004R00000000000000000000010202015190000N000100000020N         000000400R 10000000010000000000           
RFF0638410069372070      ERT      0000  956.44375000140000102020151900000000000003100W 1220000N                               
CUS0638410000106330847002         JONES JAMES         1538 N PATTERSON PK AVE                 000N        CARE OF             
MTR06384100001000000000000000RA              75614100    005800540000005400000350000003NN  NNW 000                       N    
RDG06384100WATR 000000004R00000000000000105000010202015190000N000000000000N         000000400R 10000000010000000094           
RFF0638410069371877      ERT      0000  956.44375000140000102020151900000001053904100W 1220000N                               
CUS0638410000106370603000         TUCK, OTIS          1540 N PATTERSON PK AVE                 000N        CARE OF             
MTR06384100001000000000000000RA              76345681    005800550000005500000350000003NN  NNW 000                       N    
RDG06384100WATR 000000004R00000000000000032000010202015190000N000100000020N         000000400R 10000000010000000032           
RFF0638410069371901      ERT      0000  956.44375000140000102020151900000000324800100W 1220000N                               
CUS0638410000106330848000         ERVIN ROZIER & WF   2237 E FEDERAL ST                       000N        CARE OF             
MTR06384100001000000000000000RA              75425663    005800560000005600000350000003NN  NNW 000                       N    
RDG06384100WATR 000000004R00000000000000269000010202015190000N000100000020N         000000400R 10000000010000000269           
RFF0638410069371897      ERT      0000  956.44375000140000102020151900000002694649100W 1220000N                               
CUS0638410000106350822000         HOUSING AUTHORITY   2229 E FEDERAL ST                       000N        CARE OF             
MTR06384100001000000000000000RA              75615141    005800570000005700000350000003NN  NNW 000                       N    
RDG06384100WATR 000000004R00000000000000525000010202015190000N000100000020N         000000400R 10000000010000000525           
RFF0638410069372076      ERT      0000  956.44375000140000102020151900000005252065100W 1220000N                               
CUS0638410000106370605005         VERZAMEL DEVELOPMENT1521 N MADEIRA ST                       000N        CARE OF             
MTR06384100001000000000000000RA              21741873    005800580000005800000590000003NN  NNW 000   VACANT PROPERTY     N    
RDG06384100WATRL000000004K00000000000000000001610202015083150S022000000000U61       002200400K 10000000010000000074           
CUS0638410000106330860005         MADEIRA PLACE, LLC  1528 N MADEIRA ST                       000N        CARE OF             
MTR06384100001000000000000000RA              75617492    005800590000005900000350000003NN  NNW 000   VACANT PROPERTY     N    
RDG06384100WATRL000000004K00000000000000000001710202015083154S022000000000U61       000040400K 10000000010000000000           
CUS0638410000106330861003         MADEIRA PLACE, LLC  1530 N MADEIRA ST                       000N        CARE OF             
MTR06384100001000000000000000RA              21187597    005800600000006000000590000003NN  NNW 000   VACANT PROPERTY     N    
RDG06384100WATRL000000004K00000000000000000001810202015083158S022000000000U61       000040400K 10000000010000002664           
CUS0638410000106330863009         HALL, SHIRLEY       2207 E FEDERAL ST                       000N        CARE OF             
MTR06384100001000000000000000RA              75426158    005800610000006100000350000003NN  NNW 000                       N    
RDG06384100WATR 000000004R00000000000000009000010202015190000N000000000000N         000000400R 10000000010000000006           
RFF0638410069371896      ERT      0000  956.44375000140000102020151900000000093995100W 1220000N                               
CUS0638410000106330864007         COLEY, FRANCINE     2205 E FEDERAL ST                       000N        CARE OF             
MTR06384100001000000000000000RA              74691940    005800620000006200000350000003NN  NNW 000   VACANT PROPERTY     N    
RDG06384100WATR 000000004R00000000000000000000010202015190000N000100000020N         000000400R 10000000010000000000           
RFF0638410069371837      ERT      0000  956.44375000140000102020151900000000000003100W 1220000N                               
CUS0638410000106368642002         COUSIN, IVANHOE   (E1521 N COLLINGTON AVE                   000N        CARE OF             
MTR06384100001000000000000000RA              75422418    005800630000006300000350000003NN  NNW 000                       N    
RDG06384100WATR 000000004R00000000000000094000010202015190000N000000000000N         000000400R 10000000010000000089           
RFF0638410069372087      ERT      0000  956.44375000140000102020151900000000942553100W 1220000N                               
CUS0638410000106330865004         BROWN, CATHERINE H  1519 N COLLINGTON AVE                   000N        CARE OF             
MTR06384100001000000000000000RA              75422384    005800640000006400000350000003NN  NNW 000                       N    
RDG06384100WATR 000000004R00000000000000070000010202015190000N000400000020N         000000400R 10000000010000000065           
RFF0638410069371835      ERT      0000  956.44375000140000102020151900000000702788100W 1220000N                               
CUS0638410000106330866002         BRYAN, LIZABETH     1517 N COLLINGTON AVE                   000N        CARE OF             
MTR06384100001000000000000000RA              75422388    005800650000006500000350000003NN  NNW 000                       N    
RDG06384100WATR 000000004R00000000000000210000010202015190000N000000000000N         000000400R 10000000010000000203           
RFF0638410069371853      ERT      0000  956.44375000140000102020151900000002109478100W 1220000N                               
CUS0638410000106330875003         MELTON, MICHAEL     1506 N COLLINGTON AVE                   000N        CARE OF             
MTR06384100001000000000000000RA              75422419    005800660000006600000350000003NN  NNW 000                       N    
RDG06384100WATR 000000004R00000000000000073000010202015190000N000000000000N         000000400R 10000000010000000068           
RFF0638410069371884      ERT      0000  956.44375000140000102020151900000000730284100W 1220000N                               
CUS0638410000106330876001         RICHARDSON, TROY    1508 N COLLINGTON AVE                   000N        CARE OF             
MTR06384100001000000000000000RA              75422075    005800670000006700000350000003NN  NNW 000                       N    
RDG06384100WATR 000000004R00000000000000106000010202015190000N000000000000N         000000400R 10000000010000000095           
RFF0638410069371886      ERT      0000  956.44375000140000102020151900000001067859100W 1220000N                               
CUS0638410000106330882009         TRINITY INVESTMENT G1522 N COLLINGTON AVE                   000N        CARE OF             
MTR06384100001000000000000000RA              75616877    005800680000006800000350000003NN  NNW 000                       N    
RDG06384100WATR 000000004R00000000000000000000010202015190000N000100000020N         000000400R 10000000010000000000           
RFF0638410069371842      ERT      0000  956.44375000140000102020151900000000000003100W 1220000N                               
CUS0638410000106330883007         INNOVATIVE MANAGEMEN2137 E FEDERAL ST                       000N        CARE OF             
MTR06384100001000000000000000RA              77891742    005800690000006900000360000003NN  NNW 000                       N    
RDG06384100WATR 000000004R00000000000000008000010202015190000N000000000000N         000000400R 10000000010000000005           
RFF0638410069371872      ERT      0000  956.44375000140000102020151900000000081457100W 1220000N                               
CUS0638410000106330885002         ELLIS, AUDREY       2129 E FEDERAL ST                       000N        CARE OF             
MTR06384100001000000000000000RA              77882064    005800700000007000000360000003NN  NNW 000                       N    
RDG06384100WATR 000000004R00000000000000014000010202015190000N000000000000N         000000400R 10000000010000000008           
RFF0638410069372069      ERT      0000  956.44375000140000102020151900000000142354100W 1220000N                               
CUS0638410000106330886000         TEJAS H.& TEJAL SHUK2125 E FEDERAL ST                       000N        CARE OF             
MTR06384100001000000000000000RA              75615091    005800710000007100000350000003NN  NNW 000                       N    
RDG06384100WATR 000000004R00000000000000171000010202015190000N000400000020N         000000400R 10000000010000000166           
RFF0638410069371891      ERT      0000  956.44375000140000102020151900000001715059100W 1220000N                               
CUS0638410000106330889004         ERROL G BARNES      2111 E FEDERAL ST                       000N        CARE OF             
MTR06384100001000000000000000RA              75615511    005800720000007200000350000003NN  NNW 000                       N    
RDG06384100WATR 000000004R00000000000000132000010202015190000N000000000000N         000000400R 10000000010000000116           
RFF0638410069372075      ERT      0000  956.44375000140000102020151900000001324925100W 1220000N                               
RTR06384100NN00130072000000130000005900720072000021NY007200720072000000180000000000000000000002    10192015NY020000 N         
RHD09006100NN01670181000001670000001401660166000083NY016601660181001700210000000000000000000001    09212015NY020000 N         
CUS0900610000109439975005         ENGINEERS SOCIETY OF11 W MT VERNON PL                       000N        CARE OF             
MTR09006100001000000000000000RA              60876250    000200010000000100000670000003NN  NNW 000                       N    
RDG09006100WATR 000000005R00000000000000860000110202015190000N000000000021N84       000400500R 10000000020000000571           
RFF0900610068314665      ERT      0000  956.44375000140000102020151900000000860105100W 1210001N                               
CUS0900610000109439977001         ENGINEERS SOCIETY OF11 W MT VERNON PL                       000N        CARE OF             
MTR09006100001000000000000000RA              8048831     000600020000000200000380000000NN  NNW 000   FIRE SERVICE        N    
RDG09006100WATRL000000006K00000000000000000000210142015122227S022000000000N84       000060600K 10000000010000000337           
CUS0900610000109290457002         THE PEABODY INSTITUT1 E MT VERNON PL                        000N        CARE OF             
MTR09006100001000000000000000RA              70296082    000200030000000300000380000003NN  NNW 000                       N    
RDG09006100WATR 000000005R00000000000000791000310202015190000N000000000000N84       000950500R 10000000020000000625           
RFF0900610068417739      ERT      0000  956.44375000140000102020151900000000791708100W 1210001N                               
CUS0900610000109290456004         THE PEABODY INSTITUT1 E MT VERNON PL                        000N        CARE OF             
MTR09006100001000000000000000RA              4651022     000600040000000400000410000003NN  NNW 000   FIRE SERVICE        N    
RDG09006100WATRL000000006K00000000000000000000410162015112708S005000000000U84       000000600K 10000000010000005767           
CUS0900610000109290455006         LATROBE BUILDING, LL2-4 E READ ST                           000N        CARE OF             
MTR09006100001000000000000000RA              1292463     000300050000000500000470000003NN  NNW 000                       N    
RDG09006100WATRL000000005K00000000000033147000510142015122508N000000000000N84       000070500K 10000000010000033101           
CUS0900610000109290454009         SALVATORE & EMILIA R6-8 E READ ST                           000N        CARE OF             
MTR09006100001000000000000000RA              01105565    000200060000000600000610000003NY  NNW 000                       N    
MTM0900610001105565    N/A/C                                                                                                  
RDG09006100WATRL000000005K00000000000000000000000000000000000 000000000000U         000000500  10000000010000024638           
CUS0900610000109290452003         MADISON APARTMENT AS817-25 ST PAUL ST                       000N        CARE OF             
MTR09006100001000000000000000RA              7177071     000400070000000700000640000003NY  NNW 000                       N    
MTM090061007177071     ERT OK                                                                                                 
RDG09006100WATRL000000006K00000000000000726000610142015122553N000300000010N84       000450600K 10000000010000032467           
CUS0900610000109290451005         809 ST PAUL LLC     806-08 ST PAUL ST                       000N        CARE OF             
MTR09006100001000000000000000RA              1328231     000200080000000800000490000003NY  NNW 000                       N    
MTM090061001328231     OK                                                                                                     
RDG09006100WATRL000000005K00000000000000918000710142015122610N000000000000N84       000170500K 10000000010000000918           
CUS0900610000109290450007         808 SAINT PAUL, LLC 806-08 ST PAUL ST                       000N        CARE OF             
MTR09006100001000000000000000RA              78030012    000600090000000900000550000003NN  NNW 000   FIRE SERVICE        N    
RDG09006100WATR 000000004R00000000000000000000810202015190000N000100000050N84       000200400R 10000000010000000000           
RFF0900610068618976      ERT      0000  956.44375000140000102020151900000000000013100W 1220001N                               
CUS0900610000109290447003         ST IGNATIUS HISTORIC801 ST PAUL ST                          000N        CARE OF             
MTR09006100001000000000000000RA              31058551    000200100000001000000520000003NY  NNW 000                       N    
MTM0900610031058551    N/A/C                                                                                                  
RDG09006100WATRL000000005K00000000000000000000000000000000000 000000000000U         000000500  10000000010000002494           
CUS0900610000109398328006         PEABODY CONSERVATORY1-21 E MT VERNON PL                     000N        CARE OF             
MTR09006100001000000000000000RA              E22887      000600110000001100000430000003NY  NNW 000   FIRE SERVICE        N    
MTM09006100E22887      C/S                                                                                                    
RDG09006100WATRL000000006K00000000000000000000000000000000000 000000000000U         000000600  10000000010000000000           
CUS0900610000109398330002         PEABODY CONSERVATORY1-21 E MT VERNON PL                     000N        CARE OF             
MTR09006100002000000000000000RA              70225917    000300120000001200000470000003NY  NNW 000                       N    
MTM0900610070225917    ERT                    1 DIAL                                                                          
RDG09006100WATAL000000005K00000000000000000000210162015112843S022000000000U84       000950500K 10000000010000000470           
RDG09006100WATBL000000005K00000000000000000000310162015112848N000000000000U84       000050500K 10000000010000000765           
CUS0900610000109290459008         THE PEABODY INSTITUT1 E MT VERNON PL                        000N        CARE OF             
MTR09006100001000000000000000RA              1150308     000300130000001300000490000003NY  NNW 000                       N    
MTM090061001150308     C/O/V                                                                                                  
RDG09006100WATRL000000005K00000000000000000000000000000000000 000000000000U         000000500  10000000010000061948           
CUS0900610000109290458000         THE PEABODY INSTITUT1 E MT VERNON PL                        000N        CARE OF             
MTR09006100001000000000000000RA              2724549     000600140000001400000410000003NY  NNW 000   FIRE SERVICE        N    
MTM090061002724549     C/O/V                                                                                                  
RDG09006100WATRL000000006K00000000000000000000000000000000000 000000000000U         000000600  10000000010000000373           
CUS0900610000109255755002         611 PARK AVENUE, LLC611 PARK AVE                            000N        CARE OF             
MTR09006100001000000000000000RA              7176900     000400150000001500000640000003NN  NNW 000                       N    
RDG09006100WATRL000000006K00000000000038542000910142015122727N000000000000N84       000570600K 10000000010000036402           
CUS0900610000109404199003         WBI ASSOCIATES LP   601-97 ST PAUL ST                       000N        CARE OF             
MTR09006100002000000000000000RA              3279953     000600160000001600000410000003NY  NNW 000                       N    
MTM090061003279953     N/A/G/P                                                                                                
RDG09006100WATAL000000006K00000000000000000000000000000000000 000000000000U         000000600  10000000010000000897           
RDG09006100WATBL000000006K00000000000000000000000000000000000 000000000000U         000000600  10000000010000072149           
CUS0900610000109428414008         FRANKLIN COMMERCIAL,18-20 E FRANKLIN ST                     000N        CARE OF             
MTR09006100001000000000000000RA              60876278    000200170000001700000670000003NY  NNW 000                       N    
MTM0900610060876278    OK                                                                                                     
RDG09006100WATR 000000005R00000000000000008001010202015190000N000100000050N84       000510500R 10000000020000000008           
RFF0900610068261399      ERT      0000  956.44375000140000102020151900000000008183100W 1210001N                               
CUS0900610000109428412002         FRANKLIN COMMERCIAL,18-20 E FRANKLIN ST                     000N        CARE OF             
MTR09006100001000000000000000RA              78029986    000600180000001800000550000003NN  NNW 000   FIRE SERVICE        N    
RDG09006100WATR 000000004R00000000000000000001110202015190000N000100000050N84       000420400R 10000000010000000000           
RFF0900610068695461      ERT      0000  956.44375000140000102020151900000000000043100W 1220001N                               
CUS0900610000109428905005         BENNETT LIMITED     14 E FRANKLIN ST                        000N        CARE OF             
MTR09006100001000000000000000RA              78029940    000400190000001900000550000003NN  NNW 000   FIRE SERVICE        N    
RDG09006100WATR 000000004R00000000000000012001210202015190000N000300000060N84       000340400R 10000000010000000001           
RFF0900610068646583      ERT      0000  956.44375000140000102020151900000000123015100W 1220001N                               
CUS0900610000109428907001         BENNETT LIMITED     14 E FRANKLIN ST                        000N        CARE OF             
MTR09006100001000000000000000RA              42847092    001500200000002000000520000000NY  NNW 000                       N    
MTM0900610042847092    ERT OK                                                                                                 
RDG09006100WATRL000000005K00000000000000666001310142015123013N000300000010N84       000390500K 10000000010000012075           
CUS0900610000109443736005         BLUE OCEAN REALTY   514 ST PAUL ST                          000N        CARE OF             
MTR09006100001000000000000000RA              01117262    000200210000002100000610000003NY  NNW 000                       N    
MTM0900610001117262    N/A/C                                                                                                  
RDG09006100WATRL000000005K00000000000000000000000000000000000 000000000000U         000000500  10000000010000001996           
CUS0900610000109290460006         TIO PEPE, INC       8-10 E FRANKLIN ST                      000N        CARE OF             
MTR09006100001000000000000000RA              70296078    000200220000002200000610000003NN  NNW 000                       N    
RDG09006100WATR 000000005R00000000000003256001410202015190000N000000000000N84       000210500R 10000000020000001694           
RFF0900610068261362      ERT      0000  956.44375000140000102020151900000003256261100W 1210001N                               
CUS0900610000109444358007         526 SPP, LLC        526-30 ST PAUL PL                       000N        CARE OF             
MTR09006100001000000000000000RA              60876270    000200230000002300000670000003NN  NNW 000                       N    
RDG09006100WATR 000000005R00000000000000019001510202015190000N000000000000N84       000160500R 10000000020000000010           
RFF0900610068346003      ERT      0000  956.44375000140000102020151900000000019424100W 1210001N                               
CUS0900610000109444356001         526 SPP, LLC        526-30 ST PAUL PL                       000N        CARE OF             
MTR09006100001000000000000000RA              78029982    000100240000002400000360000003NN  NNW 000   FIRE SERVICE        N    
RDG09006100WATR 000000004R00000000000000000001610202015190000N000100000050N84       000210400R 10000000010000000000           
RFF0900610068696115      ERT      0000  956.44375000140000102020151900000000000021100W 1220001N                               
CUS0900610000109290436006         521 ST PAUL STREET, 521-45 ST PAUL ST                       000N        CARE OF             
MTR09006100001000000000000000RA              01116928    000200250000002500000610000003NN  NNW 000                       N    
RDG09006100WATRL000000005K00000000000004236001710142015123117N000000000000N84       000060500K 10000000010000003698           
CUS0900610000109290435008         521 ST PAUL STREET, 521-45 ST PAUL ST                       000N        CARE OF             
MTR09006100001000000000000000RA              2291843     000600260000002600000410000003NN  NNW 000   FIRE SERVICE        N    
RDG09006100WATRL000000006K00000000000000000001810162015113229S005000000000U84       002210600K 10000000010000000064           
CUS0900610000109352135009         MD-NORTH CALVERT STR501 N CALVERT ST                        000N        CARE OF             
MTR09006100001000000000000000RA              27213835    005800270000002700000520000003NN  NNW 000   VACANT PROPERTY     N    
RDG09006100WATRL000000004K00000000000000000000510162015113237N000000000000U84       000080400K 10000000010000000000           
CUS0900610000109352161005         MD-NORTH CALVERT STR501 N CALVERT ST                        000N        CARE OF             
MTR09006100001000000000000000RA              5427380     001000280000002800000410000003NN  NNW 000   FIRE SERVICE        N    
RDG09006100WATRL000000007K00000000000003763000610162015113243N000000000000U84       000060700K 10000000010000003761           
CUS0900610000109420620008         BUREAU OF GENL SERVI414 N CALVERT ST                        000N        CARE OF             
MTR09006100001000000000000000RA              8037216     000400290000002900000380000003NN  NNW 000   CITY FIRE SERV      N    
RDG09006100WATRL000000006K00000000000009999001910142015123139N000000000000N84       000160600K 10000000010000009999           
CUS0900610000109420622004         BUREAU OF GENL SERVI414 N CALVERT ST                        000N        CARE OF             
MTR09006100001000000000000000RA              42847040    001500300000003000000520000003NN  NNW 000                       N    
RDG09006100WATRL000000005K00000000000009129002010142015123144N000000000000N84       000050500K 10000000010000009080           
CUS0900610000109290440008         MD DEPT OF GENERAL S500 N CALVERT ST                        000N        CARE OF             
MTR09006100001000000000000000RA              5246560     000800310000003100000410000003NN  NNW 000   FIRE SERVICE        N    
RDG09006100WATRL000000006K00000000000000523000710162015113250N000000000000U84       000070600K 10000000010000000523           
CUS0900610000109290441006         MD. DEPT OF GENERAL 500 N CALVERT ST                        000N        CARE OF             
MTR09006100001000000000000000RA              0911530     000300320000003200000640000003NN  NNW 000                       N    
RDG09006100WATRL000000005K00000000000017548000810162015113256N000000000000U84       000060500K 10000000010000016289           
CUS0900610000109290434001         501 ST PAUL STREET,L116-22 E FRANKLIN ST                    000N        CARE OF             
MTR09006100001000000000000000RA              9310127     000400330000003300000640000003NN  NNW 000                       N    
RDG09006100WATRL000000006K00000000000022751000110152015121939N000000000000U84       000000600K 10000000010000021499           
CUS0900610000109290446005         CENTER STAGE        700-22 N CALVERT ST                     000N        CARE OF             
MTR09006100002000000000000000RA              70225916    000300340000003400000470000003NN  NNW 000                       N    
RDG09006100WATAL000000005K00000000000002017000910162015113437N000400000010U84       001010500K 10000000010000001937           
RDG09006100WATBL000000005K00000000000002985001010162015113446N000400000010U84       000090500K 10000000010000002976           
CUS0900610000109290445007         CENTER STAGE        700-22 N CALVERT ST                     000N        CARE OF             
MTR09006100001000000000000000RA              5603848     000600350000003500000410000003NY  NNW 000   FIRE SERVICE        N    
MTM090061005603848     C/S                                                                                                    
RDG09006100WATRL000000006K00000000000000000000000000000000000 000000000000U         000000600  10000000010000000089           
CUS0900610000104163662002         MAYOR & CITY COUNCIL414-24 N CALVERT ST                     000N        CARE OF             
MTR09006100001000000000000000RA              99999999    000100360000003600000620000003NN  NNW 000                       N    
RDG09006100WATRL000000004K00000000000000000000210152015122000S022000000000U84       000210400K 10000000010000000000           
CUS0900610000109415328005         ANNIE E. CASEY FOUND701 ST PAUL ST                          000N        CARE OF             
MTR09006100001000000000000000RA              78029981    000100370000003700000360000003NN  NNW 000   FIRE SERVICE        N    
RDG09006100WATR 000000004R00000000000000000000010202015190000N0001000000F0N         000000400R 10000000010000000000           
RFF0900610068697431      ERT      0000  956.44375000140000102020151900000000001806100W 1220000N                               
CUS0900610000109415330001         ANNIE E. CASEY FOUND701 ST PAUL ST                          000N        CARE OF             
MTR09006100001000000000000000RA              60876257    000200380000003800000670000003NN  NNW 000                       N    
RDG09006100WATR 000000005R00000000000000673000010202015190000N000000000060N         000000500R 10000000020000000409           
RFF0900610068314676      ERT      0000  956.44375000140000102020151900000000673213100W 1210000N                               
CUS0900610000109444195003         PRAMUKH SWAMI MAHARA723 ST PAUL ST                          000N        CARE OF             
MTR09006100001000000000000000RA              78029978    000100390000003900000360000003NN  NNW 000                       N    
RDG09006100WATR 000000004R00000000000000499000010202015190000N000000000000N         000000400R 10000000010000000315           
RFF0900610068391227      ERT      0000  956.44375000140000102020151900000004991085100W 1220000N                               
CUS0900610000109444193008         PRAMUKH SWAMI MAHARA723 ST PAUL ST                          000N        CARE OF             
MTR09006100001000000000000000RA              8052002     000400400000004000000410000003NN  NNW 000   FIRE SERVICE        N    
