FHDNNNN027006759006759006759N                                                                                           024821
RHD02638000NN04300430000004300000000004300430000530NY043004300430000400070000000000000000000001    10062015NY020000 N         
CUS0263800000102047433004         FLAYHART WILLIAM H  4719 BUTLER RD                          000N        CARE OF             
MTR02638000001000000000000000RA              10010256    005800010000000100000570000003NN  NNW 000                       N    
RDG02638000WATRL000000004K00000000000000327004410132015100642N000000000000U40       000420400K 10000000010000000310           
CUS0263800000102047434002         MORRIS JOHN A       4715 BUTLER RD                          000N        CARE OF             
MTR02638000001000000000000000RA              10013442    005800020000000200000570000003NN  NNW 000                       N    
RDG02638000WATRL000000004K00000000000000295004310132015100600N000000000000U40       000450400K 10000000010000000278           
CUS0263800000102047435009         GLYNDON U M CHURCH  4713 BUTLER RD                          000N        CARE OF             
MTR02638000001000000000000000RA              99412205    007500030000000300000570000003NN  NNW 000                       N    
RDG02638000WATRL000000004K00000000000003882004110132015100452N000000000000U40       000610400K 10000000010000003797           
CUS0263800000102047436007         DONATELLI ERIC A    4711 BUTLER RD                          000N        CARE OF             
MTR02638000001000000000000000RA              24769194    005800040000000400000520000003NN  NNW 000                       N    
RDG02638000WATRL000000004K00000000000002945004210132015100515N000000000000U40       000230400K 10000000010000002924           
CUS0263800000102047437005         OTTEY LEO W,JR      4709 BUTLER RD                          000N        CARE OF             
MTR02638000001000000000000000RA              46882358    005800050000000500000520000003NN  NNW 000                       N    
RDG02638000WATRL000000004K00000000000002602004010132015100351N000000000000U40       000260400K 10000000010000002566           
CUS0263800000102047438003         FEDERAL NATIONAL MOR4707 BUTLER RD                          000N        CARE OF             
MTR02638000001000000000000000RA              14901937    005800060000000600000310000003NN  NNW 000                       N    
RDG02638000WATRL000000004K00000000000000586003910132015100325N000000000000U40       001830400K 10000000010000000556           
CUS0263800000102047439001         BULLOCK RUSSELL S   4705 BUTLER RD                          000N        CARE OF             
MTR02638000001000000000000000RA              10024674    005800070000000700000570000003NN  NNW 000                       N    
RDG02638000WATRL000000004K00000000000000305003710132015095904N000000000000U40       002210400K 10000000010000000277           
CUS0263800000108425677005         ZAK ERIC            401 BUTLER RD                           000N        CARE OF             
MTR02638000001000000000000000RA              99287255    005800080000000800000570000003NN  NNW 000                       N    
RDG02638000WATRL000000004K00000000000001407006510132015102328N000000000000U40       000030400K 10000000010000001382           
CUS0263800000108425678003         VAN HOVEN JONATHAN P403 BUTLER RD                           000N        CARE OF             
MTR02638000001000000000000000RA              52286799    005800090000000900000520000003NN  NNW 000                       N    
RDG02638000WATRL000000004K00000000000001646006410132015102325N000000000000U40       000430400K 10000000010000001626           
CUS0263800000108425679001         LAPIDERIO RENATO S,J405 BUTLER RD                           000N        CARE OF             
MTR02638000001000000000000000RA              52286796    005800100000001000000520000003NN  NNW 000                       N    
RDG02638000WATRL000000004K00000000000001411006310132015102242N000000000000U40       000050400K 10000000010000001395           
CUS0263800000108425680009         RASKIN JODI         407 BUTLER RD                           000N        CARE OF             
MTR02638000001000000000000000RA              52286126    005800110000001100000520000003NN  NNW 000                       N    
RDG02638000WATRL000000004K00000000000001853006210132015102237N000000000011U40       000060400K 10000000010000001833           
CUS0263800000108425681007         FRANZ ROBERT P      409 BUTLER RD                           000N        CARE OF             
MTR02638000001000000000000000RA              52286795    005800120000001200000520000003NN  NNW 000                       N    
RDG02638000WATRL000000004K00000000000001137006110132015102149N000000000000U40       000050400K 10000000010000001117           
CUS0263800000108425682005         BARANAUSKAS JOSEPH F411 BUTLER RD                           000N        CARE OF             
MTR02638000001000000000000000RA              52286797    005800130000001300000520000003NN  NNW 000                       N    
RDG02638000WATRL000000004K00000000000002347006010132015102144N000000000000U40       000840400K 10000000010000002307           
CUS0263800000102047440009         GAMBRILL MARY C     4701 BUTLER RD                          000N        CARE OF             
MTR02638000001000000000000000RA              10014894    005800140000001400000570000003NN  NNW 000   VACANT / LOT        N    
RDG02638000WATRL000000004K00000000000000000003810132015100022N000000000000U40       000780400K 10000000010000000000           
CUS0263800000102047441007         WOMANS CLUB OF GLYND130 BUTLER RD                           000N        CARE OF             
MTR02638000001000000000000000RA              26014759    005800150000001500000520000003NN  NNW 000                       N    
RDG02638000WATRL000000004K00000000000000000000000000000000000 000000000000U         000000400  10000000010000000824           
CUS0263800000102047442005         BAILEY DANIEL       23 FISKE AVE                            000N        CARE OF             
MTR02638000001000000000000000RA              26004558    005800160000001600000520000003NN  NNW 000                       N    
RDG02638000WATRL000000004K00000000000002626001710132015093332N000000000000U40       000400400K 10000000010000002613           
CUS0263800000102047443003         ROSE EUNICE E       12 FISKE AVE                            000N        CARE OF             
MTR02638000001000000000000000RA              26004559    005800170000001700000520000003NN  NNW 000                       N    
RDG02638000WATRL000000004K00000000000002238001610132015093252N000400000021U40       000160400K 10000000010000002226           
CUS0263800000102047444001         RYAN MATTHEW KLEIN  11 FISKE AVE                            000N        CARE OF             
MTR02638000001000000000000000RA              26002877    005800180000001800000520000003NN  NNW 000                       N    
RDG02638000WATRL000000004K00000000000001381001510132015093158N000000000000U40       000360400K 10000000010000001372           
CUS0263800000102047445008         LEVY MITCHELL       10 FISKE AVE                            000N        CARE OF             
MTR02638000001000000000000000RA              29679583    005800190000001900000520000003NN  NNW 000                       N    
RDG02638000WATRL000000004K00000000000002153001410132015093122N000000000000U40       000270400K 10000000010000002144           
CUS0263800000102047446006         WROE ALLEN H        9 FISKE AVE                             000N        CARE OF             
MTR02638000001000000000000000RA              26004561    005800200000002000000520000003NN  NNW 000                       N    
RDG02638000WATRL000000004K00000000000002771001210132015093020N000000000000U40       000270400K 10000000010000002756           
CUS0263800000102405883006         MARK GRASSO         9A FISKE AVE                            000N        CARE OF             
MTR02638000001000000000000000RA              44087657    005800210000002100000520000003NN  NNW 000                       N    
RDG02638000WATRL000000004K00000000000000815001310132015093055N000000000000U40       000350400K 10000000010000000806           
CUS0263800000102047447004         ABIGAIL W COOLEY    8 FISKE AVE                             000N        CARE OF             
MTR02638000001000000000000000RA              75615056    005800220000002200000350000003NN  NNW 000                       N    
RDG02638000WATRL000000004K00000000000000068001110132015092953N000000000000U40       000360400K 10000000010000000060           
CUS0263800000102047448002         SHANKLE NORMAN H    7 FISKE AVE                             000N        CARE OF             
MTR02638000001000000000000000RA              27815225    005800230000002300000520000003NN  NNW 000                       N    
RDG02638000WATRL000000004K00000000000002282001010132015092917N000000000000U40       000500400K 10000000010000002267           
CUS0263800000102047449000         ONEILL JOHN MICHAEL 6 FISKE AVE                             000N        CARE OF             
MTR02638000001000000000000000RA              26004763    005800240000002400000520000003NN  NNW 000                       N    
RDG02638000WATRL000000004K00000000000002805000910132015092827N000000000000U40       000380400K 10000000010000002791           
CUS0263800000102047450008         STEARNS GEORGE A    5 FISKE AVE                             000N        CARE OF             
MTR02638000001000000000000000RA              26004556    005800250000002500000520000003NN  NNW 000                       N    
RDG02638000WATRL000000004K00000000000001881000810132015092749N000000000000U40       000280400K 10000000010000001873           
CUS0263800000102047451006         BEAVER RAYMOND E    4 FISKE AVE                             000N        CARE OF             
MTR02638000001000000000000000RA              26003383    005800260000002600000520000003NN  NNW 000                       N    
RDG02638000WATRL000000004K00000000000002403000710132015092721N000400000010U40       000220400K 10000000010000002400           
CUS0263800000102047452004         FIORENZA MICHAEL A  3 FISKE AVE                             000N        CARE OF             
MTR02638000001000000000000000RA              01084006    005800270000002700000610000003NN  NNW 000                       N    
RDG02638000WATRL000000004K00000000000000898000610132015092659N000000000000U40       000260400K 10000000010000000880           
CUS0263800000102047453002         OBICI STEPHEN C     2 FISKE AVE                             000N        CARE OF             
MTR02638000001000000000000000RA              9689938     005800280000002800000570000003NN  NNW 000                       N    
RDG02638000WATRL000000004K00000000000002971000510132015092633N000000000000U40       000700400K 10000000010000002964           
CUS0263800000102047454000         LOWERY JOHN C       11 WORTHINGTON HILL DR                  000N        CARE OF             
MTR02638000001000000000000000RA              24767606    005800290000002900000520000003NN  NNW 000                       N    
RDG02638000WATRL000000004K00000000000003222002710132015094621N000000000000U40       000500400K 10000000010000003215           
CUS0263800000102047455007         MANSER DANIEL B     13 WORTHINGTON HILL DR                  000N        CARE OF             
MTR02638000001000000000000000RA              24769148    005800300000003000000520000003NN  NNW 000                       N    
RDG02638000WATRL000000004K00000000000002561002610132015094531N000000000000U40       000410400K 10000000010000002537           
CUS0263800000102047456005         MOORE DONALD        15 WORTHINGTON HILL DR                  000N        CARE OF             
MTR02638000001000000000000000RA              24225124    005800310000003100000520000003NN  NNW 000                       N    
RDG02638000WATRL000000004K00000000000002400002910132015094902N000000000000U40       000350400K 10000000010000002387           
CUS0263800000102047457003         JONES GARY R        17 WORTHINGTON HILL DR                  000N        CARE OF             
MTR02638000001000000000000000RA              30527342    005800320000003200000520000003NN  NNW 000                       N    
RDG02638000WATRL000000004K00000000000004135003610132015095523N000000000000U40       000730400K 10000000010000004102           
CUS0263800000102047458001         BULLOCK JOSEPH MICHA19 WORTHINGTON HILL DR                  000N        CARE OF             
MTR02638000001000000000000000RA              99188731    005800330000003300000570000003NN  NNW 000                       N    
RDG02638000WATRL000000004K00000000000000822003510132015095410N000000000000U40       000390400K 10000000010000000807           
CUS0263800000102047459009         JOSEPH M. BULLOCK   21 WORTHINGTON HILL DR                  000N        CARE OF             
MTR02638000001000000000000000RA              01084008    005800340000003400000610000003NN  NNW 000                       N    
RDG02638000WATRL000000004K00000000000000961003410132015095331N000000000000U40       000570400K 10000000010000000943           
CUS0263800000102047460007         PAUL ANTHONY LAFFERT4501 BUTLER RD                          000N        CARE OF             
MTR02638000001000000000000000RA              01084078    005800350000003500000610000003NN  NNW 000                       N    
RDG02638000WATRL000000004K00000000000000381003110132015095123N000400000011U40       000360400K 10000000010000000370           
CUS0263800000102047461005         C CHILCOAT & G CHILC4511 WORTHINGTON HILL DR                000N        CARE OF             
MTR02638000001000000000000000RA              24769121    005800360000003600000520000003NN  NNW 000                       N    
RDG02638000WATRL000000004K00000000000006037003010132015095047N000000000000U40       001050400K 10000000010000006030           
CUS0263800000102047462003         KARABELAS EFFIE     4435 WORTHINGTON HILL DR                000N        CARE OF             
MTR02638000001000000000000000RA              14902751    005800370000003700000310000003NN  NNW 000                       N    
RDG02638000WATRL000000004K00000000000000738003210132015095153N000000000000U40       000300400K 10000000010000000725           
CUS0263800000102047463001         SILVERS PERRY CHRISTNS WORTHINGTON HILL DR                  000N        CARE OF             
MTR02638000001000000000000000RA              75617682    005800380000003800000350000003NN  NNW 000                       N    
RDG02638000WATRL000000004K00000000000001044003310132015095234N000000000000U40       000410400K 10000000010000001028           
CUS0263800000102047464009         TAYLOR ELEANOR H    16 WORTHINGTON HILL DR                  000N        CARE OF             
MTR02638000001000000000000000RA              10023015    005800390000003900000570000003NN  NNW 000                       N    
RDG02638000WATRL000000004K00000000000000018002810132015094827N000300000020U40       001260400K 10000000010000000017           
CUS0263800000102047465006         FELDMAN JORDAN S    12 WORTHINGTON HILL DR                  000N        CARE OF             
MTR02638000001000000000000000RA              27826834    005800400000004000000520000003NN  NNW 000                       N    
RDG02638000WATRL000000004K00000000000003721002510132015094450N000000000000U40       000580400K 10000000010000003703           
CUS0263800000102047466004         SHAW SCOTT A        10 WORTHINGTON HILL DR                  000N        CARE OF             
MTR02638000001000000000000000RA              14902752    005800410000004100000310000003NN  NNW 000                       N    
RDG02638000WATRL000000004K00000000000000701002410132015094352N000000000000U40       000340400K 10000000010000000687           
CUS0263800000102047467002         WROE JANET J        8 WORTHINGTON HILL DR                   000N        CARE OF             
MTR02638000001000000000000000RA              24767583    005800420000004200000520000003NN  NNW 000                       N    
RDG02638000WATRL000000004K00000000000003426002310132015094318N000000000000U40       000280400K 10000000010000003420           
CUS0263800000102047468000         BIERER I JARED  BIER6 WORTHINGTON HILL DR                   000N        CARE OF             
MTR02638000001000000000000000RA              24769118    005800430000004300000520000003NN  NNW 000                       N    
RDG02638000WATRL000000004K00000000000003973002210132015094250N000000000000U40       000540400K 10000000010000003965           
CUS0263800000102047469008         PORTER DAVID M      NS WORTHINGTON HILL DR                  000N        CARE OF             
MTR02638000001000000000000000RA              10023385    005800440000004400000570000003NN  NNW 000                       N    
RDG02638000WATRL000000004K00000000000000223002110132015094156N000000000000U40       001010400K 10000000010000000207           
CUS0263800000102047470006         CROSS GERARD C      4624 BUTLER RD                          000N        CARE OF             
MTR02638000001000000000000000RA              52770436    005800450000004500000520000003NN  NNW 000                       N    
RDG02638000WATRL000000004K00000000000001170002010132015094015N000000000000U40       000530400K 10000000010000001157           
CUS0263800000102047471004         HIMELFARB AMY E     4626 BUTLER RD                          000N        CARE OF             
MTR02638000001000000000000000RA              24769147    005800460000004600000520000003NN  NNW 000                       N    
RDG02638000WATRL000000004K00000000000001775001910132015093922N000000000000U40       000460400K 10000000010000001768           
CUS0263800000102047472002         GREENRIVER CAPITAL  2 WAUGH AVE                             000N        CARE OF             
MTR02638000001000000000000000RA              27131636    005800470000004700000520000003NN  NNW 000                       N    
RDG02638000WATRL000000004K00000000000007836001810132015093836N000300000010U40       003040400K 10000000010000007824           
CUS0263800000102047473000         BAUMANN TAMARA LYNN 1 FISKE AVE                             000N        CARE OF             
MTR02638000001000000000000000RA              48596837    005800480000004800000520000003NN  NNW 000                       N    
RDG02638000WATRL000000004K00000000000000890000410132015092523N000000000000U40       005360400K 10000000010000000847           
CUS0263800000102047474008         MAEVERS KARL F      4615 PROSPECT AVE                       000N        CARE OF             
MTR02638000001000000000000000RA              76347584    005800490000004900000350000003NN  NNW 000                       N    
RDG02638000WATRL000000004K00000000000000055001610132015094247N000000000000U40       003030400K 10000000010000000041           
CUS0263800000102047475005         BEHAR JEFFREY M     4611 PROSPECT AVE                       000N        CARE OF             
MTR02638000001000000000000000RA              01114387    005800500000005000000610000003NN  NNW 000                       N    
RDG02638000WATRL000000004K00000000000000739001810132015094506N000000000000U40       000570400K 10000000010000000726           
CUS0263800000102047476003         MONTANYE THOMAS R   4609 PROSPECT AVE                       000N        CARE OF             
MTR02638000001000000000000000RA              01084004    005800510000005100000610000003NN  NNW 000                       N    
RDG02638000WATRL000000004K00000000000001931001910132015094617N000000000000U40       000710400K 10000000010000001886           
CUS0263800000102047477001         TOWLES MARK         4607 PROSPECT AVE                       000N        CARE OF             
MTR02638000001000000000000000RA              14903640    005800520000005200000310000003NN  NNW 000                       N    
RDG02638000WATRL000000004K00000000000001084002210132015094911N000000000000U40       000530400K 10000000010000001072           
CUS0263800000102047478009         STEVEN M FRADKIN    4605 PROSPECT AVE                       000N        CARE OF             
MTR02638000001000000000000000RA              14903638    005800530000005300000310000003NN  NNW 000                       N    
RDG02638000WATRL000000004K00000000000000916002310132015095000N000000000000U40       000490400K 10000000010000000894           
CUS0263800000102047479007         RAMZI K HEMADY      4603 PROSPECT AVE                       000N        CARE OF             
MTR02638000001000000000000000RA              35101171    001500540000005400000520000003NN  NNW 000                       N    
RDG02638000WATRL000000005K00000000000006337002510132015095204N000000000000U40       000650500K 10000000010000006322           
CUS0263800000102047480005         WELSH CHARLES F     4601 PROSPECT AVE                       000N        CARE OF             
MTR02638000001000000000000000RA              75615562    005800550000005500000350000003NN  NNW 000                       N    
RDG02638000WATRL000000004K00000000000000386002610132015095318N000000000000U40       000740400K 10000000010000000368           
CUS0263800000102047481003         GETTIER MONTANYE INC4600 PROSPECT AVE                       000N        CARE OF             
MTR02638000001000000000000000RA              35101268    001500560000005600000520000003NN  NNW 000                       N    
RDG02638000WATRL000000005K00000000000007976002710132015095536N000300000020U40       001380500K 10000000010000007869           
CUS0263800000102047482001         ACLE SERGIO A       4606 PROSPECT AVE                       000N        CARE OF             
MTR02638000001000000000000000RA              14903639    005800570000005700000310000003NN  NNW 000                       N    
RDG02638000WATRL000000004K00000000000001344002410132015095059N000000000000U40       000590400K 10000000010000001313           
CUS0263800000102047483009         WILLIAMS THOMAS L   4610 PROSPECT AVE                       000N        CARE OF             
MTR02638000001000000000000000RA              14903641    005800580000005800000310000003NN  NNW 000                       N    
RDG02638000WATRL000000004K00000000000000716002110132015094818N000000000000U40       000490400K 10000000010000000698           
CUS0263800000102047484007         GEHMAN ROBERT K,SR  4612 PROSPECT AVE                       000N        CARE OF             
MTR02638000001000000000000000RA              23647531    005800590000005900000520000003NN  NNW 000                       N    
RDG02638000WATRL000000004K00000000000003792002010132015094729N000000000000U40       000720400K 10000000010000003777           
CUS0263800000102432077002         EBELEIN RONALD L    4614 PROSPECT AVE                       000N        CARE OF             
MTR02638000001000000000000000RA              01084541    005800600000006000000570000003NN  NNW 000                       N    
RDG02638000WATRL000000004K00000000000000737001710132015094409N000000000000U40       000820400K 10000000010000000723           
CUS0263800000102403575000         PRISTOOP MICHAEL ALA4 WAUGH AVE                             000N        CARE OF             
MTR02638000001000000000000000RA              44090461    005800610000006100000520000003NN  NNW 000                       N    
RDG02638000WATRL000000004K00000000000002639000110132015092329N000000000000U40       000000400K 10000000010000002629           
CUS0263800000102047485004         SMITH ATWOOD R      8 WAUGH AVE                             000N        CARE OF             
MTR02638000001000000000000000RA              01084005    005800620000006200000610000003NN  NNW 000                       N    
RDG02638000WATRL000000004K00000000000001766000810132015093000N000000000000U40       000490400K 10000000010000001752           
CUS0263800000102047486002         GROVER ROBERT O     29 WAUGH AVE                            000N        CARE OF             
MTR02638000001000000000000000RA              14912766    005800630000006300000310000003NN  NNW 000                       N    
RDG02638000WATRL000000004K00000000000000609001510132015093744N000000000000U40       000600400K 10000000010000000593           
CUS0263800000102047487000         WROE CLARK LEE      10 WAUGH AVE                            000N        CARE OF             
MTR02638000001000000000000000RA              10013381    005800640000006400000570000003NN  NNW 000                       N    
RDG02638000WATRL000000004K00000000000000489000910132015093113N000000000010U40       000730400K 10000000010000000465           
CUS0263800000102047488008         WRZESIEN JOSEPH R   23 WAUGH AVE                            000N        CARE OF             
MTR02638000001000000000000000RA              26005031    005800650000006500000520000003NN  NNW 000                       N    
RDG02638000WATRL000000004K00000000000002533001210132015093343N000000000000U40       000470400K 10000000010000002516           
CUS0263800000102047489006         GREBB CHRISTOPHER JA25 WAUGH AVE                            000N        CARE OF             
MTR02638000001000000000000000RA              26005030    005800660000006600000520000003NN  NNW 000                       N    
RDG02638000WATRL000000004K00000000000003588001310132015093512N000000000000U40       000890400K 10000000010000003553           
CUS0263800000102047490004         JOHN T VACCA        21 WAUGH AVE                            000N        CARE OF             
MTR02638000001000000000000000RA              9686649     005800670000006700000570000003NN  NNW 000                       N    
RDG02638000WATRL000000004K00000000000004683001110132015093256N000000000000U40       000540400K 10000000010000004670           
CUS0263800000102047491002         CASHEN ROBERT J,JR  19 WAUGH AVE                            000N        CARE OF             
MTR02638000001000000000000000RA              26005035    005800680000006800000520000003NN  NNW 000                       N    
RDG02638000WATRL000000004K00000000000002277001010132015093202N000000000000U40       000490400K 10000000010000002246           
CUS0263800000102047492000         POWERS JOSEPH B,JR  26 WAUGH AVE                            000N        CARE OF             
MTR02638000001000000000000000RA              24225121    005800690000006900000520000003NN  NNW 000                       N    
RDG02638000WATRL000000004K00000000000006698001410132015093644N000000000000U40       000920400K 10000000010000006684           
CUS0263800000102047493008         CHILCOAT JANON MARSH13 WAUGH AVE                            000N        CARE OF             
MTR02638000001000000000000000RA              22610262    005800700000007000000520000003NN  NNW 000                       N    
RDG02638000WATRL000000004K00000000000001056000710132015092911N000000000000U40       000520400K 10000000010000001046           
CUS0263800000102047494006         JONES MARY ADELE    11 WAUGH AVE                            000N        CARE OF             
MTR02638000001000000000000000RA              14919896    005800710000007100000310000003NN  NNW 000                       N    
RDG02638000WATRL000000004K00000000000000494000610132015092819N000300000010U40       000480400K 10000000010000000482           
CUS0263800000102047495003         KNIGHT JEANNE B     9 WAUGH AVE                             000N        CARE OF             
MTR02638000001000000000000000RA              26005033    005800720000007200000520000003NN  NNW 000                       N    
RDG02638000WATRL000000004K00000000000002296000510132015092731N000000000000U40       000530400K 10000000010000002283           
CUS0263800000102047496001         MOATS MICHAEL D     7 WAUGH AVE                             000N        CARE OF             
MTR02638000001000000000000000RA              24757236    005800730000007300000520000003NN  NNW 000                       N    
RDG02638000WATRL000000004K00000000000003167000410132015092638N000000000000U40       000480400K 10000000010000003158           
CUS0263800000102047497009         SHAEFFER JAMES W,JR 5 WAUGH AVE                             000N        CARE OF             
MTR02638000001000000000000000RA              26004576    005800740000007400000520000003NN  NNW 000                       N    
RDG02638000WATRL000000004K00000000000003969000310132015092550N000000000000U40       000480400K 10000000010000003938           
CUS0263800000102047498007         EHRENPREIS STEVE    3 WAUGH AVE                             000N        CARE OF             
MTR02638000001000000000000000RA              26018296    005800750000007500000520000003NN  NNW 000                       N    
RDG02638000WATRL000000004K00000000000003479000210132015092502N000000000000U40       000930400K 10000000010000003461           
CUS0263800000102047499005         WHITMAN N LYON      1 WAUGH AVE                             000N        CARE OF             
MTR02638000001000000000000000RA              99999999    005800760000007600000620000003NN  NNW 000   VACANT / LOT        N    
RDG02638000WATRL000000004K00000000000000000002810132015095620S022000000000U40       000440400K 10000000010000000064           
CUS0263800000102047500000         CARROLL CAROLE J    4700 BUTLER RD                          000N        CARE OF             
MTR02638000001000000000000000RA              24769119    005800770000007700000520000003NN  NNW 000                       N    
RDG02638000WATRL000000004K00000000000006007002910132015100059N000000000000U40       002790400K 10000000010000005966           
CUS0263800000102047501008         WHITMAN N LYON      4702 BUTLER RD                          000N        CARE OF             
MTR02638000001000000000000000RA              48582777    005800780000007800000520000003NN  NNW 000                       N    
RDG02638000WATRL000000004K00000000000002111003010132015100133N000000000000U40       000340400K 10000000010000002094           
CUS0263800000102047502006         LYNCH DENNIS F      125 BUTLER RD                           000N        CARE OF             
MTR02638000001000000000000000RA              24769117    005800790000007900000520000003NN  NNW 000                       N    
RDG02638000WATRL000000004K00000000000003072003110132015100255N000000000000U40       000820400K 10000000010000003056           
CUS0263800000102047503004         WHITMAN N LYON      NS BUTLER RD                            000N        CARE OF             
MTR02638000001000000000000000RA              00000000    005800800000008000000600000000NN  NNW 000                       N    
RDG02638000WATRL000000004K00000000000000000003210132015100301S022000000000U40       000060400K 10000000010000000033           
CUS0263800000102047504002         SANBORN JEFFREY M   4708 BUTLER RD                          000N        CARE OF             
MTR02638000001000000000000000RA              32904067    005800810000008100000520000003NN  NNW 000                       N    
RDG02638000WATRL000000004K00000000000003913003310132015100407N000000000000U40       000660400K 10000000010000003892           
CUS0263800000102047505009         CERVINO KAREN W     4716 BUTLER RD                          000N        CARE OF             
MTR02638000001000000000000000RA              75617575    005800820000008200000350000003NN  NNW 000                       N    
RDG02638000WATRL000000004K00000000000000110003410132015100548N000000000000U40       001010400K 10000000010000000099           
CUS0263800000102047506007         LENZ GARY W         4722 BUTLER RD                          000N        CARE OF             
MTR02638000001000000000000000RA              10023863    005800830000008300000570000003NN  NNW 000                       N    
RDG02638000WATRL000000004K00000000000000515003510132015100920N000000000000U40       002120400K 10000000010000000469           
CUS0263800000102047507005         LONG KEVIN E        4724 BUTLER RD                          000N        CARE OF             
MTR02638000001000000000000000RA              7226890     005800840000008400000580000003NN  NNW 000                       N    
RDG02638000WATRL000000004K00000000000003060004610132015100845N000000000000U40       000340400K 10000000010000003060           
CUS0263800000102047508003         WROE GEORGE BERRY   33 BUTLER RD                            000N        CARE OF             
MTR02638000001000000000000000RA              76346836    005800850000008500000350000003NN  NNW 000                       N    
RDG02638000WATRL000000004K00000000000000278004710132015101013N000000000000U40       000880400K 10000000010000000236           
CUS0263800000102047509001         ROBERT S/CAROLYN TAR32 BUTLER RD                            000N        CARE OF             
MTR02638000001000000000000000RA              24769248    005800860000008600000520000003NN  NNW 000                       N    
RDG02638000WATRL000000004K00000000000003903005010132015101239N000000000000U40       000640400K 10000000010000003882           
CUS0263800000102047510009         VINSON TERENCE D    4806 BUTLER RD                          000N        CARE OF             
MTR02638000001000000000000000RA              24767591    005800870000008700000520000003NN  NNW 000                       N    
RDG02638000WATRL000000004K00000000000003504004910132015101135N000000000000U40       000460400K 10000000010000003489           
CUS0263800000102047511007         FLETCHER MATTHEW R  26 BUTLER RD                            000N        CARE OF             
MTR02638000001000000000000000RA              24769150    005800880000008800000520000003NN  NNW 000                       N    
RDG02638000WATRL000000004K00000000000002244005110132015101332N000000000000U40       000530400K 10000000010000002213           
CUS0263800000102047512005         BENSON BRYAN K      4813 BUTLER RD                          000N        CARE OF             
MTR02638000001000000000000000RA              10002510    005800890000008900000570000003NN  NNW 000                       N    
RDG02638000WATRL000000004K00000000000000604005210132015101401N000000000000U40       000290400K 10000000010000000574           
CUS0263800000102047513003         GLYNDON VOLUNTEER   19 BUTLER RD                            000N        CARE OF             
MTR02638000001000000000000000RA              24769249    005800900000009000000520000003NY  NNW 000                       N    
MTM0263800024769249    VACANT                                                                                                 
RDG02638000WATRL000000004K00000000000004972005710132015101736N000000000000U40       000510400K 10000000010000004972           
CUS0263800000102047514001         MACLELLAN JAMES A   20 BUTLER RD                            000N        CARE OF             
MTR02638000001000000000000000RA              22609075    005800910000009100000520000003NN  NNW 000                       N    
RDG02638000WATRL000000004K00000000000003813005310132015101421N000003600000U40       000200400K 10000000010000003793           
CUS0263800000108392678002         WROE JAMES D        4804 BUTLER RD                          000N        CARE OF             
MTR02638000001000000000000000RA              10015379    005800920000009200000570000003NN  NNW 000                       N    
RDG02638000WATRL000000004K00000000000000190004810132015101049N000000000000U40       000360400K 10000000010000000177           
CUS0263800000102047515008         CLINTON JANET KAY HO4808 BUTLER RD                          000N        CARE OF             
MTR02638000001000000000000000RA              10015380    005800930000009300000570000003NN  NNW 000                       N    
RDG02638000WATRL000000004K00000000000000209003610132015101205N000000000000U40       001650400K 10000000010000000193           
CUS0263800000102047516006         GLYNDON VOLUNTEER   17 BUTLER RD                            000N        CARE OF             
MTR02638000001000000000000000RA              9691709     007500940000009400000320000003NN  NNW 000                       N    
RDG02638000WATRL000000004K00000000000003049005510132015101606N000000000000U40       000400400K 10000000010000003049           
CUS0263800000102047517004         TOTH JAY C          4817 BUTLER RD                          000N        CARE OF             
MTR02638000001000000000000000RA              50786551    005800950000009500000520000003NN  NNW 000                       N    
RDG02638000WATRL000000004K00000000000002387005410132015101526N000000000000U40       000650400K 10000000010000002350           
CUS0263800000102047518002         GLYNDON SQUARE LLC  4825 BUTLER RD                          000N        CARE OF             
MTR02638000001000000000000000RA              99999999    005800960000009600000620000003NN  NNW 000   VACANT / LOT        N    
RDG02638000WATRL000000004K00000000000000000005610132015101645S022000000000U40       000390400K 10000000010000008250           
CUS0263800000102047519000         LAKEN MARK R        4900 BUTLER RD                          000N        CARE OF             
MTR02638000001000000000000000RA              14919448    005800970000009700000310000003NN  NNW 000                       N    
RDG02638000WATRL000000004K00000000000000537005910132015102020N000000000000U40       000320400K 10000000010000000534           
CUS0263800000102369703000         LAKEN MARK R        4902 BUTLER RD                          000N        CARE OF             
MTR02638000001000000000000000RA              52289153    005800980000009800000520000003NN  NNW 000   VACANT / LOT        N    
RDG02638000WATRL000000004K00000000000002702005810132015101948N000000000000U40       001320400K 10000000010000002702           
CUS0263800000102047521006         SCANLAN MARTHA J    397 BUTLER RD                           000N        CARE OF             
MTR02638000001000000000000000RA              14923287    005800990000009900000310000003NN  NNW 000                       N    
RDG02638000WATRL000000004K00000000000000492006610132015102440N000000000000U40       000720400K 10000000010000000466           
CUS0263800000102047522004         STANTON DELORES MAE 395 BUTLER RD                           000N        CARE OF             
MTR02638000001000000000000000RA              26004528    005801000000010000000520000003NN  NNW 000                       N    
RDG02638000WATRL000000004K00000000000001681006710132015102507N000000000000U40       000270400K 10000000010000001668           
CUS0263800000102047523002         JOHNSTON LESLIE DORO393 BUTLER RD                           000N        CARE OF             
MTR02638000001000000000000000RA              10021728    005801010000010100000570000003NN  NNW 000                       N    
RDG02638000WATRL000000004K00000000000000140006810132015102539N000000000000U40       000320400K 10000000010000000129           
CUS0263800000102047524000         ALI TAMER M         391 BUTLER RD                           000N        CARE OF             
MTR02638000001000000000000000RA              26004592    005801020000010200000520000003NY  NNW 000                       N    
MTM0263800026004592    VACANT                                                                                                 
RDG02638000WATRL000000004K00000000000000723006910132015102610N000000000000U40       000310400K 10000000010000000723           
CUS0263800000102047525007         SMITH GEOFFREY M    307 BUTLER RD                           000N        CARE OF             
MTR02638000001000000000000000RA              11331347    005801030000010300000570000003NN  NNW 000                       N    
RDG02638000WATRL000000004K00000000000005526007010132015102701N000000000000U40       000510400K 10000000010000005515           
CUS0263800000102047526005         KELLEY MEEIA        305 BUTLER RD                           000N        CARE OF             
MTR02638000001000000000000000RA              01084013    005801040000010400000610000003NN  NNW 000                       N    
RDG02638000WATRL000000004K00000000000000363007110132015102722N000000000000U40       000210400K 10000000010000000353           
CUS0263800000102047528001         ALBAN SHERYL A      301 BUTLER RD                           000N        CARE OF             
MTR02638000001000000000000000RA              26004527    005801050000010500000520000003NN  NNW 000                       N    
RDG02638000WATRL000000004K00000000000001498007210132015102832N000000000000U40       000700400K 10000000010000001493           
CUS0263800000108441145003         THOMAS J DILORENZO  101 3RD AVE                             000N        CARE OF             
MTR02638000001000000000000000RA              14917359    005801060000010600000310000003NN  NNW 000                       N    
RDG02638000WATRL000000004K00000000000000647000210132015091556N000000000000U40       003790400K 10000000010000000582           
CUS0263800000108441146001         KENWORTHY JOHN CHRIS103 3RD AVE                             000N        CARE OF             
MTR02638000001000000000000000RA              14917360    005801070000010700000310000003NN  NNW 000                       N    
RDG02638000WATRL000000004K00000000000000611000310132015091627N000300000010U40       000310400K 10000000010000000538           
CUS0263800000108006523008         BLOCKINGER DONALD E 105 3RD AVE                             000N        CARE OF             
MTR02638000001000000000000000RA              77989454    005801080000010800000350000003NY  NNW 000                       N    
MTM0263800077989454    52289183 SENSUS RD 2077                                                                                
RDG02638000WATRL000000004K00000000000000000000000000000000000 000000000000U         000000400  10000000010000000082           
CUS0263800000102047529009         HARANT LOYAL J      211 3RD AVE                             000N        CARE OF             
MTR02638000001000000000000000RA              9683871     005801090000010900000570000003NN  NNW 000                       N    
RDG02638000WATRL000000004K00000000000005322009510132015104622N000000000000U40       000240400K 10000000010000005301           
CUS0263800000102047530007         LIBOWITZ WENDY      213 3RD AVE                             000N        CARE OF             
MTR02638000001000000000000000RA              01084490    005801100000011000000610000003NY  NNW 000                       N    
MTM0263800001084490    15 INCH PLATE                                                                                          
RDG02638000WATRL000000004K00000000000001240009410132015104558N000000000000U40       000610400K 10000000010000001224           
CUS0263800000102047531005         JENNIFER D YOUNG INC212 3RD AVE                             000N        CARE OF             
MTR02638000001000000000000000RA              26004557    005801110000011100000520000003NN  NNW 000                       N    
RDG02638000WATRL000000004K00000000000001957009310132015104457N000000000000U40       000490400K 10000000010000001937           
CUS0263800000102047532003         STARCHER DAVID L    112 NEEL AVE                            000N        CARE OF             
MTR02638000001000000000000000RA              26004677    005801120000011200000520000003NN  NNW 000                       N    
RDG02638000WATRL000000004K00000000000003644009110132015104335N000000000000U40       000470400K 10000000010000003626           
CUS0263800000102047533001         DAMBO MOUSSA        110 NEEL AVE                            000N        CARE OF             
MTR02638000001000000000000000RA              52769904    005801130000011300000520000003NN  NNW 000                       N    
RDG02638000WATRL000000004K00000000000007887008810132015104102N000000000000U40       000460400K 10000000010000007845           
CUS0263800000102349083002         ZAMECKI MICHAEL EUGE108 NEEL AVE                            000N        CARE OF             
MTR02638000001000000000000000RA              01083720    005801140000011400000610000003NN  NNW 000                       N    
RDG02638000WATRL000000004K00000000000000855008510132015103911N000000000000U40       000450400K 10000000010000000840           
CUS0263800000102047534009         KELCH DONALD W      100 NEEL AVE                            000N        CARE OF             
MTR02638000001000000000000000RA              26004730    005801150000011500000520000003NN  NNW 000                       N    
RDG02638000WATRL000000004K00000000000003294008310132015103747N000000000000U40       000250400K 10000000010000003277           
CUS0263800000102047535006         EMILY E NICHIPOR    101 NEEL AVE                            000N        CARE OF             
MTR02638000001000000000000000RA              26004733    005801160000011600000520000003NN  NNW 000                       N    
RDG02638000WATRL000000004K00000000000000902008210132015103722N000000000000U40       001240400K 10000000010000000898           
CUS0263800000102047536004         GRIFFIN BRYAN       103 NEEL AVE                            000N        CARE OF             
MTR02638000001000000000000000RA              26004732    005801170000011700000520000003NN  NNW 000                       N    
RDG02638000WATRL000000004K00000000000001670008410132015103826N000000000000U40       000390400K 10000000010000001666           
CUS0263800000102047537002         GEAGLEY RONALD P    105 NEEL AVE                            000N        CARE OF             
MTR02638000001000000000000000RA              26004735    005801180000011800000520000003NN  NNW 000                       N    
RDG02638000WATRL000000004K00000000000002319008610132015103946N000000000000U40       000350400K 10000000010000002308           
CUS0263800000102047538000         BACHARACH JENNIFER W107 NEEL AVE                            000N        CARE OF             
MTR02638000001000000000000000RA              9688274     005801190000011900000570000003NN  NNW 000                       N    
RDG02638000WATRL000000004K00000000000002520008710132015104016N000000000000U40       000300400K 10000000010000002516           
CUS0263800000102047539008         BANK OF AMERICA     109 NEEL AVE                            000N        CARE OF             
MTR02638000001000000000000000RA              26004680    005801200000012000000520000003NY  NNW 000                       N    
MTM0263800026004680    VACANT                                                                                                 
RDG02638000WATRL000000004K00000000000002576008910132015104155N000000000000U40       000530400K 10000000010000002576           
CUS0263800000102047540006         CLYDE B MILLER      111 NEEL AVE                            000N        CARE OF             
MTR02638000001000000000000000RA              11336576    005801210000012100000320000003NN  NNW 000                       N    
RDG02638000WATRL000000004K00000000000000090009010132015104248N000000000000U40       000530400K 10000000010000000085           
CUS0263800000102047541004         ALLEN ARTHUR MICHAEL113 NEEL AVE                            000N        CARE OF             
MTR02638000001000000000000000RA              24228733    005801220000012200000520000003NN  NNW 000                       N    
RDG02638000WATRL000000004K00000000000002035009210132015104408N000000000000U40       000330400K 10000000010000002027           
CUS0263800000102047542002         LIBOWITZ IRA J      115 NEEL AVE                            000N        CARE OF             
MTR02638000001000000000000000RA              26004681    005801230000012300000520000003NN  NNW 000                       N    
RDG02638000WATRL000000004K00000000000003001009610132015104629N000000000000U40       000070400K 10000000010000002991           
CUS0263800000102415387006         BOND WILLIAM H      211 BUTLER RD                           000N        CARE OF             
MTR02638000001000000000000000RA              46887369    005801240000012400000520000003NN  NNW 000                       N    
RDG02638000WATRL000000004K00000000000001334007310132015102923N000000000000U40       000510400K 10000000010000001323           
CUS0263800000102047543000         BURDOCK ELIZABETH J 209 BUTLER RD                           000N        CARE OF             
MTR02638000001000000000000000RA              24760306    005801250000012500000520000003NN  NNW 000                       N    
RDG02638000WATRL000000004K00000000000003848007410132015102955N000000000000U40       000320400K 10000000010000003829           
CUS0263800000102047544008         CONNOR KEVIN R      203 BUTLER RD                           000N        CARE OF             
MTR02638000001000000000000000RA              26004526    005801260000012600000520000003NN  NNW 000                       N    
RDG02638000WATRL000000004K00000000000002631007510132015103055N000000000000U40       000600400K 10000000010000002615           
CUS0263800000102047545005         HOPE GARRIS         109 BUTLER RD                           000N        CARE OF             
MTR02638000001000000000000000RA              26004530    005801270000012700000520000003NN  NNW 000                       N    
RDG02638000WATRL000000004K00000000000002667007610132015103146N000000000000U40       000510400K 10000000010000002661           
CUS0263800000102047546003         MURRY FRANCIS       107 BUTLER RD                           000N        CARE OF             
MTR02638000001000000000000000RA              26004512    005801280000012800000520000003NN  NNW 000   VACANT / LOT        N    
RDG02638000WATRL000000004K00000000000003082007710132015103235N000000000000U40       000490400K 10000000010000003082           
CUS0263800000102047547001         BARNES TROY A       105 BUTLER RD                           000N        CARE OF             
MTR02638000001000000000000000RA              10011868    005801290000012900000570000003NN  NNW 000                       N    
RDG02638000WATRL000000004K00000000000000299007810132015103300N000000000000U40       000250400K 10000000010000000289           
CUS0263800000102047548009         PAFFENBACK WILLIAM R103 BUTLER RD                           000N        CARE OF             
MTR02638000001000000000000000RA              78022562    005801300000013000000350000003NN  NNW 000                       N    
RDG02638000WATRL000000004K00000000000000152007910132015103347N000000000000U40       000470400K 10000000010000000115           
CUS0263800000102047549007         LAMDIN EUGENE R,SR  101 BUTLER RD                           000N        CARE OF             
MTR02638000001000000000000000RA              01084002    005801310000013100000610000003NN  NNW 000                       N    
RDG02638000WATRL000000004K00000000000001373008010132015103429N000000000000U40       000420400K 10000000010000001348           
CUS0263800000102047550005         KATHERINE W LIVINGST15 BUTLER RD                            000N        CARE OF             
MTR02638000001000000000000000RA              26004511    005801320000013200000520000003NN  NNW 000                       N    
RDG02638000WATRL000000004K00000000000001388008110132015103518N000000000000U40       000490400K 10000000010000001367           
CUS0263800000102047551003         MAUREEN GLANCY      13 BUTLER RD                            000N        CARE OF             
MTR02638000001000000000000000RA              11329330    005801330000013300000570000003NN  NNW 000                       N    
RDG02638000WATRL000000004K00000000000004164004010132015103454N000400000010U40       005380400K 10000000010000004160           
CUS0263800000102047552001         CAITLIN K CABEZAS   11 BUTLER RD                            000N        CARE OF             
MTR02638000001000000000000000RA              25782699    005801340000013400000520000003NN  NNW 000                       N    
RDG02638000WATRL000000004K00000000000003279003910132015102556N000000000000U40       000440400K 10000000010000003268           
CUS0263800000102047553009         MONNETT MARTIN D    9 BUTLER RD                             000N        CARE OF             
MTR02638000001000000000000000RA              26004510    005801350000013500000520000003NY  NNW 000                       N    
MTM0263800026004510    OCC                                                                                                    
RDG02638000WATRL000000004K00000000000003079003810132015102512N000000000000U40       000500400K 10000000010000003079           
CUS0263800000102047554007         PUMPHREY ANN COE  GI7 BUTLER RD                             000N        CARE OF             
MTR02638000001000000000000000RA              01084364    005801360000013600000610000003NN  NNW 000                       N    
RDG02638000WATRL000000004K00000000000002287003710132015102422N000000000000U40       007370400K 10000000010000002261           
CUS0263800000102047555004         HTW LLC             119 HANOVER RD                          000N        CARE OF             
MTR02638000001000000000000000RA              48584784    005801370000013700000520000003NN  NNW 000                       N    
RDG02638000WATRL000000004K00000000000003174004110132015105053N000300000010U40       009590400K 10000000010000003184           
CUS0263800000102047556002         DONAHO SCOTT W      117 HANOVER RD                          000N        CARE OF             
MTR02638000001000000000000000RA              26004483    005801380000013800000520000003NN  NNW 000                       N    
RDG02638000WATRL000000004K00000000000002753004210132015105244N000000000000U40       001110400K 10000000010000002750           
CUS0263800000102047557000         GARY BOSLEY         115 HANOVER RD                          000N        CARE OF             
MTR02638000001000000000000000RA              01112880    005801390000013900000610000003NN  NNW 000                       N    
RDG02638000WATRL000000004K00000000000001062004310132015105353N000000000000U40       000690400K 10000000010000001045           
CUS0263800000102047558008         KALBACH GERALD L    111 HANOVER RD                          000N        CARE OF             
MTR02638000001000000000000000RA              99999999    005801400000014000000610000003NN  NNW 000                       N    
RDG02638000WATRL000000004K00000000000000766004410132015105439N000000000010U40       000460400K 10000000010000000742           
CUS0263800000102047559006         THOMPSON DEAN C     103 HANOVER RD                          000N        CARE OF             
MTR02638000001000000000000000RA              77890773    005801410000014100000360000003NN  NNW 000                       N    
RDG02638000WATRL000000004K00000000000000012004510132015105531N000400000010U40       000520400K 10000000010000000010           
CUS0263800000102047560004         HACKMAN ANDRE       81 HANOVER RD                           000N        CARE OF             
MTR02638000001000000000000000RA              26004479    005801420000014200000520000003NN  NNW 000                       N    
RDG02638000WATRL000000004K00000000000004238004610132015105615N000000000000U40       000440400K 10000000010000004217           
CUS0263800000102430709002         HONG T HA           101 WESTGATE WAY                        000N        CARE OF             
MTR02638000001000000000000000RA              00137854    005801430000014300000570000003NN  NNW 000                       N    
RDG02638000WATRL000000004K00000000000000906009710132015105134N000000000000U40       003050400K 10000000010000000881           
CUS0263800000102430710000         ZIEGLER GEORGE W,JR 103 WESTGATE WAY                        000N        CARE OF             
MTR02638000001000000000000000RA              00137857    005801440000014400000570000003NN  NNW 000                       N    
RDG02638000WATRL000000004K00000000000000619009810132015105158N000000000000U40       000240400K 10000000010000000603           
CUS0263800000102430711008         BRANDT MARK A       105 WESTGATE WAY                        000N        CARE OF             
MTR02638000001000000000000000RA              10002512    005801450000014500000570000003NN  NNW 000                       N    
RDG02638000WATRL000000004K00000000000000228009910132015105241N000000000000U40       000430400K 10000000010000000217           
CUS0263800000102430712006         RICH AARON J        107 WESTGATE WAY                        000N        CARE OF             
MTR02638000001000000000000000RA              01084544    005801460000014600000610000003NN  NNW 000                       N    
RDG02638000WATRL000000004K00000000000000703010010132015105300N000000000000U40       000190400K 10000000010000000693           
CUS0263800000102430713004         JOHN SADLER         109 WESTGATE WAY                        000N        CARE OF             
MTR02638000001000000000000000RA              01071979    005801470000014700000610000003NN  NNW 000                       N    
RDG02638000WATRL000000004K00000000000000934010110132015105313N000000000000U40       000130400K 10000000010000000924           
CUS0263800000102430714002         BROOKS WILLIAM G    111 WESTGATE WAY                        000N        CARE OF             
MTR02638000001000000000000000RA              01082457    005801480000014800000610000003NN  NNW 000                       N    
RDG02638000WATRL000000004K00000000000002021010210132015105334N000000000000U40       000210400K 10000000010000001956           
CUS0263800000102430715009         SCHER MARY          113 WESTGATE WAY                        000N        CARE OF             
MTR02638000001000000000000000RA              01082456    005801490000014900000610000003NN  NNW 000                       N    
RDG02638000WATRL000000004K00000000000001101010310132015105347N000000000000U40       000130400K 10000000010000001091           
CUS0263800000102430728002         COHEN PAUL          116 WESTGATE WAY                        000N        CARE OF             
MTR02638000001000000000000000RA              01077921    005801500000015000000610000003NN  NNW 000                       N    
RDG02638000WATRL000000004K00000000000001023010410132015105411N000000000000U40       000240400K 10000000010000001005           
CUS0263800000102430707006         JAH ERIC REID       114 WESTGATE WAY                        000N        CARE OF             
MTR02638000001000000000000000RA              00133963    005801510000015100000570000003NN  NNW 000                       N    
RDG02638000WATRL000000004K00000000000001334010510132015105430N000000000000U40       000190400K 10000000010000001322           
CUS0263800000102430708004         FERGUSON WILLIAM    112 WESTGATE WAY                        000N        CARE OF             
MTR02638000001000000000000000RA              01082453    005801520000015200000610000003NN  NNW 000                       N    
RDG02638000WATRL000000004K00000000000001587010610132015105459N000000000000U40       000290400K 10000000010000001567           
CUS0263800000102430730008         RIEHL RICHARD       110 WESTGATE WAY                        000N        CARE OF             
MTR02638000001000000000000000RA              00137853    005801530000015300000570000003NN  NNW 000                       N    
RDG02638000WATRL000000004K00000000000002223010710132015105529N000000000000U40       000300400K 10000000010000002195           
CUS0263800000102430731006         LEPPO STERLING L    108 WESTGATE WAY                        000N        CARE OF             
MTR02638000001000000000000000RA              01092295    005801540000015400000610000003NN  NNW 000                       N    
RDG02638000WATRL000000004K00000000000000988010810132015105546N000000000000U40       000170400K 10000000010000000969           
CUS0263800000102430729000         ARMAN ROBIN         106 WESTGATE WAY                        000N        CARE OF             
MTR02638000001000000000000000RA              00130584    005801550000015500000570000003NN  NNW 000                       N    
RDG02638000WATRL000000004K00000000000001830010910132015105626N000000000000U40       000400400K 10000000010000001806           
CUS0263800000102047561002         MARK HALL           73 HANOVER RD                           000N        CARE OF             
MTR02638000001000000000000000RA              27827026    005801560000015600000520000003NN  NNW 000                       N    
RDG02638000WATRL000000004K00000000000001120004710132015105745N000000000000U40       000900400K 10000000010000001106           
CUS0263800000102047562000         HOPPA CHARLES G     69 HANOVER RD                           000N        CARE OF             
MTR02638000001000000000000000RA              50480851    005801570000015700000520000003NN  NNW 000                       N    
RDG02638000WATRL000000004K00000000000001904004810132015105808N000000000000U40       000230400K 10000000010000001883           
CUS0263800000102047563008         NOLASCO BRENDA E    65 HANOVER RD                           000N        CARE OF             
MTR02638000001000000000000000RA              10011865    005801580000015800000570000003NN  NNW 000                       N    
RDG02638000WATRL000000004K00000000000000345004910132015105912N000000000000U40       000640400K 10000000010000000320           
CUS0263800000102047564006         WRATCHFORD THOMAS W 63 HANOVER RD                           000N        CARE OF             
MTR02638000001000000000000000RA              29679346    005801590000015900000520000003NN  NNW 000                       N    
RDG02638000WATRL000000004K00000000000002011005010132015105953N000000000000U40       000410400K 10000000010000002003           
CUS0263800000102047565003         KIEFER RANDOLPH S   59 HANOVER RD                           000N        CARE OF             
MTR02638000001000000000000000RA              26004517    005801600000016000000520000003NN  NNW 000                       N    
RDG02638000WATRL000000004K00000000000006372005110132015110039N000000000000U40       000460400K 10000000010000006353           
CUS0263800000102047566001         LATIMER WILLIAM G,SR55 HANOVER RD                           000N        CARE OF             
MTR02638000001000000000000000RA              26004515    005801610000016100000520000003NN  NNW 000                       N    
RDG02638000WATRL000000004K00000000000002503005210132015110105N000000000000U40       000260400K 10000000010000002491           
CUS0263800000102047567009         SCHULTZ EDWARD C B  51 HANOVER RD                           000N        CARE OF             
MTR02638000001000000000000000RA              26004516    005801620000016200000520000003NN  NNW 000                       N    
RDG02638000WATRL000000004K00000000000002561005310132015110138N000000000000U40       000330400K 10000000010000002553           
CUS0263800000102047568007         HAWLEY STEPHEN LEE  47 HANOVER RD                           000N        CARE OF             
MTR02638000001000000000000000RA              26004518    005801630000016300000520000003NN  NNW 000                       N    
RDG02638000WATRL000000004K00000000000001911005410132015110219N000000000000U40       000410400K 10000000010000001891           
CUS0263800000102047569005         LATIMER ROBERT W    43 HANOVER RD                           000N        CARE OF             
MTR02638000001000000000000000RA              76348767    005801640000016400000350000003NN  NNW 000                       N    
RDG02638000WATRL000000004K00000000000000064005510132015110246N000000000000U40       000270400K 10000000010000000052           
CUS0263800000102047570003         LATIMER ROBERT W    37 HANOVER RD                           000N        CARE OF             
MTR02638000001000000000000000RA              26004272    005801650000016500000520000003NN  NNW 000                       N    
RDG02638000WATRL000000004K00000000000002710005610132015110353N000400000010U40       000670400K 10000000010000002709           
CUS0263800000102047571001         ASHLEY CHRIS        33 HANOVER RD                           000N        CARE OF             
MTR02638000001000000000000000RA              25782700    005801660000016600000520000003NN  NNW 000                       N    
RDG02638000WATRL000000004K00000000000003324005710132015110436N000000000000U40       000430400K 10000000010000003312           
CUS0263800000102047572009         DYKE STEPHANIE CAPPS31 HANOVER RD                           000N        CARE OF             
MTR02638000001000000000000000RA              26004437    005801670000016700000520000003NN  NNW 000                       N    
RDG02638000WATRL000000004K00000000000001727005810132015110458N000000000000U40       000220400K 10000000010000001710           
CUS0263800000102047573007         BURNS PAUL B        27 HANOVER RD                           000N        CARE OF             
MTR02638000001000000000000000RA              26004440    005801680000016800000520000003NN  NNW 000                       N    
RDG02638000WATRL000000004K00000000000002456005910132015110558N000000000000U40       000600400K 10000000010000002428           
CUS0263800000102047574005         EVELYN CURANQUEO    23 HANOVER RD                           000N        CARE OF             
MTR02638000001000000000000000RA              26004514    005801690000016900000520000003NN  NNW 000                       N    
RDG02638000WATRL000000004K00000000000002570006010132015110726N000000000000U40       000880400K 10000000010000002555           
CUS0263800000102047575002         HEIM JOHN D         19 HANOVER RD                           000N        CARE OF             
MTR02638000001000000000000000RA              30513698    005801700000017000000520000003NN  NNW 000                       N    
RDG02638000WATRL000000004K00000000000005462006110132015110914N000000000010U40       001080400K 10000000010000005456           
CUS0263800000102047576000         ELIAS RIZAKOS       17 HANOVER RD                           000N        CARE OF             
MTR02638000001000000000000000RA              75617506    005801710000017100000350000003NN  NNW 000                       N    
RDG02638000WATRL000000004K00000000000000591006210132015110954N000000000000U40       000400400K 10000000010000000537           
CUS0263800000102382065007         ROYAL FARMS #34     15 HANOVER RD                           000N        CARE OF             
MTR02638000001000000000000000RA              33731671    007501720000017200000520000003NN  NNW 000                       N    
RDG02638000WATRL000000004K00000000000007199006310132015111047N000000000000U40       000530400K 10000000010000007128           
CUS0263800000102047579004         GIES DOUGLAS MORGAN 14-20 WESTMINSTER RD                    000N        CARE OF             
MTR02638000001000000000000000RA              70000422    001501730000017300000350000003NN  NNW 000                       N    
RDG02638000WATRL000000005K00000000000000090006410132015111326N000000000000U40       001590500K 10000000010000000082           
CUS0263800000102047580002         REISTERSTOWN AUTO PA24 WESTMINSTER RD                       000N        CARE OF             
MTR02638000001000000000000000RA              78022870    005801740000017400000360000003NY  NNW 000                       N    
MTM0263800078022870    NEED PLATE                                                                                             
RDG02638000WATRL000000004K00000000000000028006510132015111458N000000000000U40       000920400K 10000000010000000016           
CUS0263800000102047581000         RONALD WAYNE SYMONDS42 WESTMINSTER RD                       000N        CARE OF             
MTR02638000001000000000000000RA              23647724    005801750000017500000520000003NN  NNW 000                       N    
RDG02638000WATRL000000004K00000000000007301006610132015111758N000000000000U40       001800400K 10000000010000007234           
CUS0263800000102047582008         WESTERBERG SCOTT W  44 WESTMINSTER RD                       000N        CARE OF             
MTR02638000001000000000000000RA              26004714    005801760000017600000520000003NN  NNW 000                       N    
RDG02638000WATRL000000004K00000000000001118006710132015111836N000000000000U40       000380400K 10000000010000001114           
CUS0263800000102047583006         46 WESTMINSTER ROAD 46 WESTMINSTER RD                       000N        CARE OF             
MTR02638000001000000000000000RA              26004715    005801770000017700000520000003NN  NNW 000                       N    
RDG02638000WATRL000000004K00000000000001156006810132015111929N000000000000U40       000530400K 10000000010000001152           
CUS0263800000102047584004         TIRALLAS INC        50 WESTMINSTER RD                       000N        CARE OF             
MTR02638000001000000000000000RA              26004712    005801780000017800000520000003NN  NNW 000                       N    
RDG02638000WATRL000000004K00000000000002145006910132015112041N000000000000U40       000720400K 10000000010000002140           
CUS0263800000102430724001         BROWN IRVIN         4 WOLF AVE                              000N        CARE OF             
MTR02638000001000000000000000RA              00133297    005801790000017900000570000003NN  NNW 000                       N    
RDG02638000WATRL000000004K00000000000000788007010132015112212N000000000000U40       000910400K 10000000010000000778           
CUS0263800000102047585001         MYERS THOMAS L      6 WOLF AVE                              000N        CARE OF             
MTR02638000001000000000000000RA              26004716    005801800000018000000520000003NN  NNW 000                       N    
RDG02638000WATRL000000004K00000000000002173007110132015112246N000000000000U40       000340400K 10000000010000002141           
CUS0263800000102047586009         BROWN-JONES SHANTERR23 WOLF AVE                             000N        CARE OF             
MTR02638000001000000000000000RA              26004678    005801810000018100000520000003NN  NNW 000                       N    
RDG02638000WATRL000000004K00000000000002589007610132015112911N000300000010U40       001020400K 10000000010000002378           
CUS0263800000102047587007         HAINES ROBERT LYLE  17 WOLF AVE                             000N        CARE OF             
MTR02638000001000000000000000RA              24228627    005801820000018200000520000003NN  NNW 000                       N    
RDG02638000WATRL000000004K00000000000002497007710132015112944N000000000010U40       000330400K 10000000010000002490           
CUS0263800000102047588005         JANIS K BEAM        10 WOLF AVE                             000N        CARE OF             
MTR02638000001000000000000000RA              48593316    005801830000018300000520000003NN  NNW 000                       N    
RDG02638000WATRL000000004K00000000000000941007310132015112517N000000000000U40       000670400K 10000000010000000930           
CUS0263800000102047589003         POULSEN GENEVA V    12 WOLF AVE                             000N        CARE OF             
MTR02638000001000000000000000RA              26004465    005801840000018400000520000003NN  NNW 000                       N    
RDG02638000WATRL000000004K00000000000000944007410132015112549N000000000000U40       000320400K 10000000010000000942           
CUS0263800000102047590001         ALMONY MYRON N,SR   15 WOLF AVE                             000N        CARE OF             
MTR02638000001000000000000000RA              14928634    005801850000018500000310000003NN  NNW 000                       N    
RDG02638000WATRL000000004K00000000000000355007510132015112729N000000000000U40       001000400K 10000000010000000330           
CUS0263800000102047591009         ALMONY MYRON N,SR   13 WOLF AVE                             000N        CARE OF             
MTR02638000001000000000000000RA              48593321    005801860000018600000520000003NN  NNW 000                       N    
RDG02638000WATRL000000004K00000000000001008013510132015112806N000000000000U40       001330400K 10000000010000000998           
CUS0263800000102047592007         ALMONY MYRON N,SR   11 WOLF AVE                             000N        CARE OF             
MTR02638000001000000000000000RA              22610282    005801870000018700000520000003NN  NNW 000                       N    
RDG02638000WATRL000000004K00000000000002521013610132015112838N000000000000U40       000320400K 10000000010000002513           
CUS0263800000102047593005         GOLDMAN DAVID J     9 WOLF AVE                              000N        CARE OF             
MTR02638000001000000000000000RA              50476743    005801880000018800000520000003NN  NNW 000                       N    
RDG02638000WATRL000000004K00000000000001942007210132015112410N000000000000U40       000840400K 10000000010000001930           
CUS0263800000102047594003         RONALD SAUNDERS, JR.7 WOLF AVE                              000N        CARE OF             
MTR02638000001000000000000000RA              50477553    005801890000018900000520000003NN  NNW 000                       N    
RDG02638000WATRL000000004K00000000000000622013710132015112955N000000000000U40       000770400K 10000000010000000617           
CUS0263800000102047595000         WOLF AVENUE LIMITED 100 WESTMINSTER RD                      000N        CARE OF             
MTR02638000001000000000000000RA              48593854    005801900000019000000520000003NN  NNW 000                       N    
RDG02638000WATRL000000004K00000000000001136013410132015112553N000000000000U40       000810400K 10000000010000001132           
CUS0263800000102047596008         LONG ROLIN WILLIAM  8 WOLF AVE                              000N        CARE OF             
MTR02638000001000000000000000RA              50476168    005801910000019100000520000003NN  NNW 000                       N    
RDG02638000WATRL000000004K00000000000000000000000000000000000 000000000000U         000000400  10000000010000000623           
CUS0263800000102047597006         NEEDEL FRED M       108 WESTMINSTER RD                      000N        CARE OF             
MTR02638000001000000000000000RA              99999999    005801920000019200000620000003NN  NNW 000                       N    
RDG02638000WATRL000000004K00000000000000000012610132015111438S002000000000U40       000190400K 10000000010000001404           
CUS0263800000102047600008         SHANEYBROOK HARRY O,144 WESTMINSTER RD                      000N        CARE OF             
MTR02638000001000000000000000RA              48595401    005801930000019300000520000003NN  NNW 000                       N    
RDG02638000WATRL000000004K00000000000001334012510132015111419N000000000000U40       000750400K 10000000010000001306           
CUS0263800000102047601006         SHANEYBROOK DORIS M,146 WESTMINSTER RD                      000N        CARE OF             
MTR02638000001000000000000000RA              11471080    005801940000019400000570000003NN  NNW 000                       N    
RDG02638000WATRL000000004K00000000000000000012410132015111304S002000000000U40       000100400K 10000000010000000151           
CUS0263800000102047602004         SHANEYBROOK HARRY O,150 WESTMINSTER RD                      000N        CARE OF             
MTR02638000001000000000000000RA              26009671    005801950000019500000520000003NN  NNW 000                       N    
RDG02638000WATRL000000004K00000000000005515012310132015111254N000000000000U40       000320400K 10000000010000005502           
CUS0263800000102047603002         CLEARSPRING ENTERPRI152 WESTMINSTER RD                      000N        CARE OF             
MTR02638000001000000000000000RA              26004622    005801960000019600000520000003NN  NNW 000                       N    
RDG02638000WATRL000000004K00000000000001963012210132015111222N000000000000U40       000330400K 10000000010000001957           
CUS0263800000102047604000         INVESTOR HOMES LLC  154 WESTMINSTER RD                      000N        CARE OF             
MTR02638000001000000000000000RA              26004602    005801970000019700000520000003NN  NNW 000                       N    
RDG02638000WATRL000000004K00000000000002357012110132015111149N000000000000U40       000490400K 10000000010000002348           
CUS0263800000102047608001         NORTHWEST BAPTIST CH300 WESTMINSTER RD                      000N        CARE OF             
MTR02638000001000000000000000RA              24232271    005801980000019800000520000003NN  NNW 000                       N    
RDG02638000WATRL000000004K00000000000008547011010132015110029N000000000000U40       002430400K 10000000010000008498           
CUS0263800000102047609009         NORTHWEST BAPTIST CH302 WESTMINSTER RD                      000N        CARE OF             
MTR02638000001000000000000000RA              99999999    005801990000019900000620000003NN  NNW 000                       N    
RDG02638000WATRL000000004K00000000000000000011110132015110125S022000000000U40       000560400K 10000000010000001143           
CUS0263800000102047610007         RICHARD M SAINTCROSS312 WESTMINSTER RD                      000N        CARE OF             
MTR02638000001000000000000000RA              52768000    005802000000020000000520000003NN  NNW 000                       N    
RDG02638000WATRL000000004K00000000000002161011210132015110136N000000000000U40       000110400K 10000000010000002123           
CUS0263800000102047611005         NORTHWEST BAPTIST CH320 WESTMINSTER RD                      000N        CARE OF             
MTR02638000001000000000000000RA              35110578    005802010000020100000520000003NN  NNW 000   VACANT / LOT        N    
RDG02638000WATRL000000004K00000000000001487011310132015110242N000000000000U40       000660400K 10000000010000001487           
CUS0263800000102429579002         JEFFREY PAUL M      307 NEW AVE                             000N        CARE OF             
MTR02638000001000000000000000RA              99999999    005802020000020200000570000003NN  NNW 000                       N    
RDG02638000WATRL000000004K00000000000000947000110132015090937N000000000000U40       000000400K 10000000010000000933           
CUS0263800000102047618000         JOHN J SCHUSTER,JR C149 WESTMINSTER RD                      000N        CARE OF             
MTR02638000001000000000000000RA              50476230    005802030000020300000520000003NN  NNW 000                       N    
RDG02638000WATRL000000004K00000000000001059012010132015111100N000000000000U40       000330400K 10000000010000001049           
CUS0263800000102379353002         HAINES JAMES E  HAIN141 WESTMINSTER RD                      000N        CARE OF             
MTR02638000001000000000000000RA              33078158    005802040000020400000520000003NN  NNW 000                       N    
RDG02638000WATRL000000004K00000000000001800011910132015111027N000000000000U40       000420400K 10000000010000001791           
CUS0263800000102047619008         HAINES JAMES E  HAIN139 WESTMINSTER RD                      000N        CARE OF             
MTR02638000001000000000000000RA              26004675    005802050000020500000520000003NN  NNW 000                       N    
RDG02638000WATRL000000004K00000000000001097011810132015110945N000000000000U40       000440400K 10000000010000001083           
CUS0263800000102047620006         JOANAL LLC          137 WESTMINSTER RD                      000N        CARE OF             
MTR02638000001000000000000000RA              26004672    005802060000020600000520000003NN  NNW 000                       N    
RDG02638000WATRL000000004K00000000000001281011710132015110901N000000000000U40       000370400K 10000000010000001281           
CUS0263800000102047621004         MENSH STEPHEN       129 WESTMINSTER RD                      000N        CARE OF             
MTR02638000001000000000000000RA              11329796    005802070000020700000320000003NN  NNW 000                       N    
RDG02638000WATRL000000004K00000000000003051011610132015111659N000100000021U40       000390400K 10000000010000003051           
CUS0263800000102047622002         WESTMINSTER ROAD II 135 WESTMINSTER RD                      000N        CARE OF             
MTR02638000001000000000000000RA              26004673    005802080000020800000520000003NN  NNW 000   VACANT / LOT        N    
RDG02638000WATRL000000004K00000000000002341011510132015110743N000000000000U40       000430400K 10000000010000002341           
CUS0263800000102047623000         WESTMINSTER ROAD II 133 WESTMINSTER RD                      000N        CARE OF             
MTR02638000001000000000000000RA              26004670    005802090000020900000520000003NY  NNW 000                       N    
MTM0263800026004670    VACANT LOT                                                                                             
RDG02638000WATRL000000004K00000000000002812011410132015110700N000000000000U40       002580400K 10000000010000002812           
CUS0263800000102047624008         DHMH                131 WESTMINSTER RD                      000N        CARE OF             
MTR02638000001000000000000000RA              26004740    005802100000021000000520000003NN  NNW 000                       N    
RDG02638000WATRL000000004K00000000000004209012710132015111620N000000000000U40       001020400K 10000000010000004209           
CUS0263800000102047626003         SCHUSTER JOHN J,JR  111 WESTMINSTER RD                      000N        CARE OF             
MTR02638000001000000000000000RA              31582807    005802110000021100000520000003NN  NNW 000                       N    
RDG02638000WATRL000000004K00000000000001752012810132015111831N000000000010U40       000920400K 10000000010000001743           
CUS0263800000102047627001         STRANG CLYDE        107 WESTMINSTER RD                      000N        CARE OF             
MTR02638000001000000000000000RA              14918767    005802120000021200000310000003NN  NNW 000                       N    
RDG02638000WATRL000000004K00000000000000388012910132015111909N000000000000U40       000380400K 10000000010000000380           
CUS0263800000102047628009         STRANG CLYDE        103 WESTMINSTER RD                      000N        CARE OF             
MTR02638000001000000000000000RA              31583057    005802130000021300000520000003NN  NNW 000                       N    
RDG02638000WATRL000000004K00000000000002537013010132015111958N000000000000U40       000490400K 10000000010000002526           
CUS0263800000102047629007         STRANG CLYDE        101 WESTMINSTER RD                      000N        CARE OF             
MTR02638000001000000000000000RA              01116357    005802140000021400000610000003NN  NNW 000                       N    
RDG02638000WATRL000000004K00000000000000729013110132015112123N000000000000U40       000850400K 10000000010000000713           
CUS0263800000102423768007         GLYNDON DEV LLC     300 SAMSMILL RD                         000N        CARE OF             
MTR02638000001000000000000000RA              30001201    007502150000021500000570000003NN  NNW 000                       N    
RDG02638000WATRL000000004K00000000000000084000110092015084736N000000000000N40       000000400K 10000000010000000080           
CUS0263800000102423767009         BALTIMORE COUNTY MAR313 SAMSMILL RD                         000N        CARE OF             
MTR02638000001000000000000000RA              99377590    005802160000021600000570000003NN  NNW 000                       N    
RDG02638000WATRL000000004K00000000000000000000210092015084811S002000000000N40       000350400K 10000000010000000244           
CUS0263800000102422360004         MORGUNOV OLEG       241 CAROLSTOWNE RD                      000N        CARE OF             
MTR02638000001000000000000000RA              52291354    000102170000021700000520000003NN  NNW 000                       N    
RDG02638000WATRL000000004K00000000000002058000110092015085108N000000000000N80       000000400K 10000000010000002035           
CUS0263800000102422339008         TYLER J JANOWITZ    239 CAROLSTOWNE RD                      000N        CARE OF             
MTR02638000001000000000000000RA              51447188    000102180000021800000520000003NN  NNW 000                       N    
RDG02638000WATRL000000004K00000000000001211000210092015085202N000400000010N80       000540400K 10000000010000001207           
CUS0263800000102422340006         GOLDMAN KARON       237 CAROLSTOWNE RD                      000N        CARE OF             
MTR02638000001000000000000000RA              78030225    000102190000021900000360000003NN  NNW 000                       N    
RDG02638000WATRL000000004K00000000000000030000310092015085223N000000000000N80       000210400K 10000000010000000023           
CUS0263800000102422341004         TIMOTHY JORDAN      235 CAROLSTOWNE RD                      000N        CARE OF             
MTR02638000001000000000000000RA              51447189    000102200000022000000520000003NN  NNW 000                       N    
RDG02638000WATRL000000004K00000000000000688000410092015085310N000000000000N80       000470400K 10000000010000000674           
CUS0263800000102422342002         TALMADGE CATHERINE A233 CAROLSTOWNE RD                      000N        CARE OF             
MTR02638000001000000000000000RA              51447176    000102210000022100000520000003NN  NNW 000                       N    
RDG02638000WATRL000000004K00000000000001447000510092015085312N000000000000N80       000020400K 10000000010000001420           
CUS0263800000102422343000         JAMES ZAKIYA T      231 CAROLSTOWNE RD                      000N        CARE OF             
MTR02638000001000000000000000RA              52291355    000102220000022200000520000003NN  NNW 000                       N    
RDG02638000WATRL000000004K00000000000001041000610092015085351N000000000000N80       000390400K 10000000010000001034           
CUS0263800000102422344008         SHARON SPINOSO      229 CAROLSTOWNE RD                      000N        CARE OF             
MTR02638000001000000000000000RA              52291352    000102230000022300000520000003NN  NNW 000                       N    
RDG02638000WATRL000000004K00000000000000894000710092015085358N000000000000N80       000070400K 10000000010000000883           
CUS0263800000102422345005         JACKSON CASSANDRA Y 227 CAROLSTOWNE RD                      000N        CARE OF             
MTR02638000001000000000000000RA              54353079    000102240000022400000520000003NN  NNW 000                       N    
RDG02638000WATRL000000004K00000000000000758000810092015085441N000000000000N80       000430400K 10000000010000000727           
CUS0263800000102422346003         POL EDNA D          225 CAROLSTOWNE RD                      000N        CARE OF             
MTR02638000001000000000000000RA              54353128    000102250000022500000520000003NN  NNW 000                       N    
RDG02638000WATRL000000004K00000000000001544000910092015085450N000000000000N80       000090400K 10000000010000001514           
CUS0263800000102422347001         MECHANIC JOSHUA     223 CAROLSTOWNE RD                      000N        CARE OF             
MTR02638000001000000000000000RA              52291863    000102260000022600000520000003NN  NNW 000                       N    
RDG02638000WATRL000000004K00000000000001559001010092015085543N000300000010N80       000530400K 10000000010000002543           
CUS0263800000102422348009         ANGELOZZI JEANNE M  221 CAROLSTOWNE RD                      000N        CARE OF             
MTR02638000001000000000000000RA              54353028    000102270000022700000520000003NN  NNW 000                       N    
RDG02638000WATRL000000004K00000000000001158001110092015085552N000000000000N80       000090400K 10000000010000001143           
CUS0263800000102422349007         MUGANLINSKAYA NAILYA219 CAROLSTOWNE RD                      000N        CARE OF             
MTR02638000001000000000000000RA              00167039    000102280000022800000570000003NN  NNW 000                       N    
RDG02638000WATRL000000004K00000000000000007001210092015085636N000000000000N80       000440400K 10000000010000000003           
CUS0263800000102422350005         DUTTON LINDSAY      217 CAROLSTOWNE RD                      000N        CARE OF             
MTR02638000001000000000000000RA              54353104    000102290000022900000520000003NN  NNW 000                       N    
RDG02638000WATRL000000004K00000000000000872001310092015085655N000000000000N80       000190400K 10000000010000000857           
CUS0263800000102422351003         COPELAND MARGIE     215 CAROLSTOWNE RD                      000N        CARE OF             
MTR02638000001000000000000000RA              54353026    000102300000023000000520000003NN  NNW 000                       N    
RDG02638000WATRL000000004K00000000000000830001410092015085728N000000000000N80       000330400K 10000000010000000820           
CUS0263800000102422352001         CRUSSE HENRY J      213 CAROLSTOWNE RD                      000N        CARE OF             
MTR02638000001000000000000000RA              52291776    000102310000023100000520000003NN  NNW 000                       N    
RDG02638000WATRL000000004K00000000000001209001510092015085732N000000000000N80       000040400K 10000000010000001194           
CUS0263800000102422353009         LANG ROBERT R       211 CAROLSTOWNE RD                      000N        CARE OF             
MTR02638000001000000000000000RA              54353319    000102320000023200000520000003NN  NNW 000                       N    
RDG02638000WATRL000000004K00000000000001003001610092015085810N000000000000N80       000380400K 10000000010000000993           
CUS0263800000102422354007         MARTINETZ SERGY     209 CAROLSTOWNE RD                      000N        CARE OF             
MTR02638000001000000000000000RA              54353373    000102330000023300000520000003NN  NNW 000                       N    
RDG02638000WATRL000000004K00000000000001142001710092015085814N000000000000N80       000040400K 10000000010000001109           
CUS0263800000102422355004         MAHMOOD NASIR       207 CAROLSTOWNE RD                      000N        CARE OF             
MTR02638000001000000000000000RA              54353318    000102340000023400000520000003NN  NNW 000                       N    
RDG02638000WATRL000000004K00000000000001674001810092015085855N000000000000N80       000410400K 10000000010000001646           
CUS0263800000102422356002         SMITH ELLEN         205 CAROLSTOWNE RD                      000N        CARE OF             
MTR02638000001000000000000000RA              54353331    000102350000023500000520000003NN  NNW 000                       N    
RDG02638000WATRL000000004K00000000000000648001910092015085923N000000000010N80       000280400K 10000000010000000642           
CUS0263800000102422357000         KATHERINE LIVINGOOD 203 CAROLSTOWNE RD                      000N        CARE OF             
MTR02638000001000000000000000RA              54353345    000102360000023600000520000003NN  NNW 000                       N    
RDG02638000WATRL000000004K00000000000000953002010092015085955N000000000000N80       000320400K 10000000010000000945           
CUS0263800000102422358008         AYNBINDER ALEKSANDR 201 CAROLSTOWNE RD                      000N        CARE OF             
MTR02638000001000000000000000RA              54353351    000102370000023700000520000003NN  NNW 000                       N    
RDG02638000WATRL000000004K00000000000001224002110092015090004N000000000000N80       000090400K 10000000010000001200           
CUS0263800000102429018001         FELDER DAVID        2 BENSMILL CT                           000N        CARE OF             
MTR02638000001000000000000000RA              99408404    000102380000023800000570000003NN  NNW 000                       N    
RDG02638000WATRL000000004K00000000000000770002210092015090110N000300000010N80       000660400K 10000000010000000760           
CUS0263800000102429019009         KLAUZA KEVIN L      4 BENSMILL CT                           000N        CARE OF             
MTR02638000001000000000000000RA              99315203    000102390000023900000570000003NN  NNW 000                       N    
RDG02638000WATRL000000004K00000000000000766002310092015090136N000000000000N80       000260400K 10000000010000000753           
CUS0263800000102429020007         SHATS VLADIMIR      6 BENSMILL CT                           000N        CARE OF             
MTR02638000001000000000000000RA              99408385    000102400000024000000570000003NN  NNW 000                       N    
RDG02638000WATRL000000004K00000000000001350002410092015090204N000000000000N80       000280400K 10000000010000001321           
CUS0263800000102429021005         YOUNG EARL W        8 BENSMILL CT                           000N        CARE OF             
MTR02638000001000000000000000RA              99315184    000102410000024100000520000003NN  NNW 000                       N    
RDG02638000WATRL000000004K00000000000001089002510092015090206N000000000000N80       000020400K 10000000010000001071           
CUS0263800000102429022003         GAFOS GEORGE A      10 BENSMILL CT                          000N        CARE OF             
MTR02638000001000000000000000RA              99315177    000102420000024200000570000003NN  NNW 000                       N    
RDG02638000WATRL000000004K00000000000000992002610092015090247N000000000000N80       000410400K 10000000010000000982           
CUS0263800000102429023001         STAHL RONALD C      12 BENSMILL CT                          000N        CARE OF             
MTR02638000001000000000000000RA              99315201    000102430000024300000570000003NN  NNW 000                       N    
RDG02638000WATRL000000004K00000000000000724002710092015090252N000000000000N80       000050400K 10000000010000000721           
CUS0263800000102429024009         KRASNITSKIY SERGEY  14 BENSMILL CT                          000N        CARE OF             
MTR02638000001000000000000000RA              99315238    000102440000024400000570000003NN  NNW 000                       N    
RDG02638000WATRL000000004K00000000000001062002810092015090341N000000000000N80       000490400K 10000000010000001051           
CUS0263800000102429025006         BHAVIN K PATEL      16 BENSMILL CT                          000N        CARE OF             
MTR02638000001000000000000000RA              99315221    000102450000024500000570000003NN  NNW 000                       N    
RDG02638000WATRL000000004K00000000000000835002910092015090345N000000000000N80       000040400K 10000000010000000788           
CUS0263800000102429026004         BROMBERG IGOR       18 BENSMILL CT                          000N        CARE OF             
MTR02638000001000000000000000RA              99315224    000102460000024600000570000003NN  NNW 000                       N    
RDG02638000WATRL000000004K00000000000000753003010092015090419N000000000000N80       000340400K 10000000010000000739           
CUS0263800000102429027002         MZAEROFF PAUL       20 BENSMILL CT                          000N        CARE OF             
MTR02638000001000000000000000RA              99315239    000102470000024700000570000003NN  NNW 000                       N    
RDG02638000WATRL000000004K00000000000000718003110092015090429N000300000010N80       000100400K 10000000010000000703           
CUS0263800000102429028000         THOMPSON JAMES      22 BENSMILL CT                          000N        CARE OF             
MTR02638000001000000000000000RA              99314644    000102480000024800000570000003NN  NNW 000                       N    
RDG02638000WATRL000000004K00000000000000834003210092015090507N000000000000N80       000380400K 10000000010000000819           
CUS0263800000102429029008         COMMUNITY DEVEP ADMI24 BENSMILL CT                          000N        CARE OF             
MTR02638000001000000000000000RA              99315237    000102490000024900000570000003NN  NNW 000                       N    
RDG02638000WATRL000000004K00000000000001076003310092015090510N000000000000N80       000030400K 10000000010000001060           
CUS0263800000102429030006         TADROS STEVE        28 BENSMILL CT                          000N        CARE OF             
MTR02638000001000000000000000RA              99314685    000102500000025000000570000003NN  NNW 000                       N    
RDG02638000WATRL000000004K00000000000001121003410092015090546N000000000000N80       000360400K 10000000010000001103           
CUS0263800000102429031004         LANGE DYLAN         30 BENSMILL CT                          000N        CARE OF             
MTR02638000001000000000000000RA              99314888    000102510000025100000570000003NN  NNW 000                       N    
RDG02638000WATRL000000004K00000000000000727003510092015090550N000000000000N80       000040400K 10000000010000000711           
CUS0263800000102429032002         BRISKMAN ARKADI     32 BENSMILL CT                          000N        CARE OF             
MTR02638000001000000000000000RA              99314953    000102520000025200000570000003NN  NNW 000                       N    
RDG02638000WATRL000000004K00000000000001165003610092015090620N000000000000N80       000300400K 10000000010000001135           
CUS0263800000102429033000         BRUNSTEIN GARY      34 BENSMILL CT                          000N        CARE OF             
MTR02638000001000000000000000RA              99314954    000102530000025300000570000003NN  NNW 000                       N    
RDG02638000WATRL000000004K00000000000001171003710092015090625N000000000000N80       000050400K 10000000010000001153           
CUS0263800000102429034008         WEST CHIRSTOPHER B  36 BENSMILL CT                          000N        CARE OF             
MTR02638000001000000000000000RA              99314906    000102540000025400000570000003NN  NNW 000                       N    
RDG02638000WATRL000000004K00000000000000699003810092015090657N000000000000N80       000320400K 10000000010000000690           
CUS0263800000102429035005         JOHNSON CANDACE     38 BENSMILL CT                          000N        CARE OF             
MTR02638000001000000000000000RA              99314908    000102550000025500000570000003NN  NNW 000                       N    
RDG02638000WATRL000000004K00000000000001104003910092015090701N000000000000N80       000040400K 10000000010000001082           
CUS0263800000102429036003         IVANOV ANDREY       40 BENSMILL CT                          000N        CARE OF             
MTR02638000001000000000000000RA              99314827    000102560000025600000570000000NN  NNW 000                       N    
RDG02638000WATRL000000004K00000000000001930004010092015090737N000000000000N80       000360400K 10000000010000001918           
CUS0263800000102429037001         NEY VLADIMIR  ROVNER42 BENSMILL CT                          000N        CARE OF             
MTR02638000001000000000000000RA              00166382    000102570000025700000570000003NN  NNW 000                       N    
RDG02638000WATRL000000004K00000000000000457004110092015090807N000000000000N80       000300400K 10000000010000000447           
CUS0263800000102429038009         MATHEWS MIJI A      44 BENSMILL CT                          000N        CARE OF             
MTR02638000001000000000000000RA              99314791    000102580000025800000570000003NN  NNW 000                       N    
RDG02638000WATRL000000004K00000000000001031004210092015090816N000000000010N80       000090400K 10000000010000001020           
CUS0263800000102429039007         WARRAICH JENNIFER S 46 BENSMILL CT                          000N        CARE OF             
MTR02638000001000000000000000RA              99314792    000102590000025900000570000003NN  NNW 000                       N    
RDG02638000WATRL000000004K00000000000001347004310092015090857N000400000010N80       000410400K 10000000010000001341           
