FHDNNNN047009525009525009720N                                                                                           031257
RHD09004200NN00780089000000780000001100850085000026NY008500850089000300050000000000000000000001    10212015NY020000 N         
CUS0900420000109257166000         ASHBURTON LAND, LLLP3006 DRUID PARK DR                      000N        CARE OF             
MTR09004200001000000000000000RA              27065581    007500010000000100000520000003NN  NNW 000                       N    
RDG09004200WATRL000000004K00000000000006342000110222015114326N000000000000N84       000000400K 10000000010000006328           
CUS0900420000109386664008         BACK TO BIBLE APOSTO2900 LIBERTY HTS AVE                    000N        CARE OF             
MTR09004200001000000000000000RA              00166955    000100020000000200000570000003NN  NNW 000                       N    
RDG09004200WATRL000000004K00000000000003742000210222015114334N000300000010N84       000080400K 10000000010000003668           
CUS0900420000109386663000         BACK TO BIBLE APOSTO2900 LIBERTY HTS AVE                    000N        CARE OF             
MTR09004200001000000000000000RA              E21153      000600030000000300000430000003NN  NNW 000   FIRE SERVICE        N    
RDG09004200WATRL000000006K00000000000000000000310222015114340N000000000000N84       000060600K 10000000010000000000           
CUS0900420000109365040006         MTA                 2925 SEQUOIA AVE                        000N        CARE OF             
MTR09004200002000000000000000RA              7026381     000800040000000400000630000003NY  NNW 000   FIRE SERVICE        N    
MTM090042007026381     OK                                                                                                     
RDG09004200WATAL000000006K00000000000000244000410222015114442N000000000000N84       000620600K 10000000010000000244           
RDG09004200WATBL000000006K00000000000001398000510222015114452N000100000010N84       000100600K 10000000010000001398           
CUS0900420000109409480002         MD-3400 CARLINS PARK3400 CARLINS PARK DR                    000N        CARE OF             
MTR09004200001000000000000000RA              46890305    007500050000000500000520000003NN  NNW 000                       N    
RDG09004200WATRL000000004K00000000000001896000610222015114502N000000000000N84       000100400K 10000000010000001882           
CUS0900420000109257169004         DIETZ & WATSON, INC.3300 TOWANDA AVE                        000N        CARE OF             
MTR09004200001000000000000000RA              00066664    000200060000000600000570000003NY  NNW 000                       N    
MTM0900420000066664    OK                                                                                                     
RDG09004200WATRL000000005K00000000000000714000710222015114510N000000000000N84       000080500K 10000000010000000714           
CUS0900420000109257168006         DIETZ & WATSON, INC.3300 TOWANDA AVE                        000N        CARE OF             
MTR09004200001000000000000000RA              4228319     000600070000000700000410000003NN  NNW 000   FIRE SERVICE        N    
RDG09004200WATRL000000006K00000000000000000000810222015114516S005000000000U84       000060600K 10000000010000000023           
CUS0900420000109257171000         DIETZ & WATSON, INC.3310 TOWANDA AVE                        000N        CARE OF             
MTR09004200001000000000000000RA              1171177     000200080000000800000490000003NN  NNW 000                       N    
RDG09004200WATRL000000005K00000000000034675000910222015114524N000000000000N84       000080500K 10000000010000034674           
CUS0900420000109257170002         DIETZ & WATSON, INC.3310 TOWANDA AVE                        000N        CARE OF             
MTR09004200001000000000000000RA              4228320     000600090000000900000410000003NN  NNW 000   FIRE SERVICE        N    
RDG09004200WATRL000000006K00000000000000000001010222015114530N000000000000N84       000060600K 10000000010000000000           
CUS0900420000109427377008         SOCIETY OF SAINT VIN3445 PARK HTS AVE                       000N        CARE OF             
MTR09004200001000000000000000RA              8042225     000400100000001000000380000003NN  NNW 000   FIRE SERVICE        N    
RDG09004200WATRL000000006K00000000000000000001110222015114533N000000000000N84       000030600K 10000000010000000000           
CUS0900420000109427379004         SOCIETY OF SAINT VIN3445 PARK HTS AVE                       000N        CARE OF             
MTR09004200001000000000000000RA              54375008    001500110000001100000520000003NN  NNW 000                       N    
RDG09004200WATRL000000005K00000000000002745001210222015114538N000000000000N84       000050500K 10000000010000002737           
CUS0900420000109427578001         GOOD SHEPHERD BAPTIS3459 PARK HTS AVE                       000N        CARE OF             
MTR09004200001000000000000000RA              8042500     000600120000001200000380000003NN  NNW 000   FIRE SERVICE        N    
RDG09004200WATRL000000006K00000000000000022001310222015114542N000000000000N84       000040600K 10000000010000000022           
CUS0900420000109427580007         GOOD SHEPHERD BAPTIS3459 PARK HTS AVE                       000N        CARE OF             
MTR09004200001000000000000000RA              54375044    001500130000001300000520000003NN  NNW 000                       N    
RDG09004200WATRL000000005K00000000000002307001410222015114551N000300000010N84       000090500K 10000000010000002286           
CUS0900420000109445492003         RESTORATION GARDENS,3701 COTTAGE AVE                        000N        CARE OF             
MTR09004200001000000000000000RA              09053750    000600140000001400000380000000NN  NNW 000   FIRE SERVICE        N    
RDG09004200WATRL000000006K00000000000000001001510222015114559N000000000000N84       000080600K 10000000010000000001           
CUS0900420000109445495006         RESTORATION GARDENS,3701 COTTAGE AVE                        000N        CARE OF             
MTR09004200001000000000000000RA              90000160    000200150000001500000570000000NN  NNW 000                       N    
RDG09004200WATRL000000005K00000000000013294001610222015114605N000000000000N84       000060500K 10000000010000012967           
CUS0900420000109257175001         BALTO ALUMNAE CHP OF2501 SPRINGHILL AVE                     000N        CARE OF             
MTR09004200001000000000000000RA              30479013    000200160000001600000520000003NY  NNW 000                       N    
MTM0900420030479013    OK                                                                                                     
RDG09004200WATRL000000005K00000000000005240001710222015114703N000300000010N84       000580500K 10000000010000005280           
CUS0900420000109425145001         PARK-REIST CORRIDOR 3901-03 PARK HTS AVE                    000N        CARE OF             
MTR09004200001000000000000000RA              8038700     000400170000001700000380000003NN  NNW 000   FIRE SERVICE        N    
RDG09004200WATRL000000006K00000000000000000001810222015114734N000000000000N84       000310600K 10000000010000000000           
CUS0900420000109425147007         PARK-REIST CORRIDOR 3901-03 PARK HTS AVE                    000N        CARE OF             
MTR09004200001000000000000000RA              50000224    000100180000001800000570000003NN  NNW 000                       N    
RDG09004200WATRL000000004K00000000000000345001910222015114742N000300000010N84       000080400K 10000000010000000110           
CUS0900420000109420788003         GILLIS MEMORIAL CHRI4016-30 PARK HTS AVE                    000N        CARE OF             
MTR09004200001000000000000000RA              42847011    001500190000001900000520000003NN  NNW 000                       N    
RDG09004200WATRL000000005K00000000000004281002010222015114758N000000000000N84       000160500K 10000000010000004273           
CUS0900420000109420786007         GILLIS MEMORIAL CHRI4016-30 PARK HTS AVE                    000N        CARE OF             
MTR09004200001000000000000000RA              4918925     000400200000002000000410000003NN  NNW 000   FIRE SERVICE        N    
RDG09004200WATRL000000006K00000000000000000002110222015114803N000000000000N84       000050600K 10000000010000000000           
CUS0900420000109440201003         PARK HTS COMMUNITY  4151 PARK HTS AVE                       000N        CARE OF             
MTR09004200001000000000000000RA              8048948     000600210000002100000380000000NN  NNW 000   FIRE SERVICE        N    
RDG09004200WATRL000000006K00000000000000001002210222015114810N000000000000N84       000070600K 10000000010000000001           
CUS0900420000109440202001         PARK HEIGHTS COMMUNI4151 PARK HTS AVE                       000N        CARE OF             
MTR09004200001000000000000000RA              01116908    000200220000002200000610000000NN  NNW 000                       N    
RDG09004200WATRL000000005K00000000000000520002310222015114815N000000000000N84       000050500K 10000000010000000502           
CUS0900420000109257180001         HABC CON 16-62      2601 OSWEGO AVE                         000N        CARE OF             
MTR09004200001000000000000000RA              35105112    000200230000002300000520000003NN  NNW 000                       N    
RDG09004200WATRL000000005K00000000000009093002410222015114824N000400000010N84       000090500K 10000000010000008644           
CUS0900420000109257177007         NEW HORIZON DELIVERA2620 SHIRLEY AVE                        000N        CARE OF             
MTR09004200001000000000000000RA              5003388     000400240000002400000410000003NN  NNW 000   FIRE SERVICE        N    
RDG09004200WATRL000000006K00000000000000002002510222015114828N000000000000N84       000040600K 10000000010000000002           
CUS0900420000109257181009         NEW LIFE INSPIRATION2621 OSWEGO AVE                         000N        CARE OF             
MTR09004200001000000000000000RA              31058518    000200250000002500000520000003NN  NNW 000                       N    
RDG09004200WATRL000000005K00000000000001769002610222015114840N000000000000N84       000120500K 10000000010000001765           
CUS0900420000109257179003         HOUSING AUTHORITY OF2601 OSWEGO AVE                         000N        CARE OF             
MTR09004200001000000000000000RA              1394185     000200260000002600000490000003NY  NNW 000                       N    
MTM090042001394185     OK                                                                                                     
RDG09004200WATRL000000005K00000000000060887002710222015114905N000100000010N84       000250500K 10000000010000060887           
CUS0900420000109454075004         RENAISSANCE GARDENS,4311 PIMLICO RD                         000N        CARE OF             
MTR09004200001000000000000000RA              0006930     000600270000002700000490000003NN  NNW 000   FIRE SERVICE        N    
RDG09004200WATRL000000006K00000000000000000002810222015114909N000000000000N84       000040600K 10000000010000000000           
CUS0900420000109454083008         RENAISSANCE GARDENS,4311 PIMLICO RD                         000N        CARE OF             
MTR09004200002000000000000000RA              70262956    000300280000002800000420000003NY  NNW 000                       N    
MTM0900420070262956    OK                  OCC                                                                                
RDG09004200WATAL000000005K00000000000000000002910222015114920N000000000000N84       000110500K 10000000010000000000           
RDG09004200WATBL000000005K00000000000000000003010222015114927N000100000010N84       000070500K 10000000010000000000           
CUS0900420000109441804003         THE HOLY NATIVITY   4330 PIMLICO RD                         000N        CARE OF             
MTR09004200001000000000000000RA              8045216     000400290000002900000380000000NN  NNW 000   FIRE SERVICE        N    
RDG09004200WATRL000000006K00000000000000012003110222015114932N000000000000N84       000050600K 10000000010000000012           
CUS0900420000109441802007         THE HOLY NATIVITY   4330 PIMLICO RD                         000N        CARE OF             
MTR09004200001000000000000000RA              01117109    000200300000003000000610000000NN  NNW 000                       N    
RDG09004200WATRL000000005K00000000000004054003210222015114942N000300000010N84       000100500K 10000000010000003491           
CUS0900420000109436995006         JAI MEDICAL FACILITY4340 PARK HTS AVE                       000N        CARE OF             
MTR09004200001000000000000000RA              8048822     000600310000003100000380000003NN  NNW 000   FIRE SERVICE        N    
RDG09004200WATRL000000006K00000000000000004003310222015115003N000000000000N84       000210600K 10000000010000000004           
CUS0900420000109436997002         JAI MEDICAL FACILITY4340 PARK HTS AVE                       000N        CARE OF             
MTR09004200001000000000000000RA              01105634    000200320000003200000610000003NN  NNW 000                       N    
RDG09004200WATRL000000005K00000000000001771003410222015115008N000000000000N84       000050500K 10000000010000001718           
CUS0900420000109257183005         ROYAL, DAVE         4341 PARK HTS AVE                       000N        CARE OF             
MTR09004200001000000000000000RA              01117174    000200330000003300000610000003NN  NNW 000                       N    
RDG09004200WATRL000000005K00000000000006754003510222015115025N000000000000N84       000170500K 10000000010000006703           
CUS0900420000109445482004         PV REALTY-NORTHWEST,4601 PALL MALL RD                       000N        CARE OF             
MTR09004200001000000000000000RA              60876190    000200340000003400000670000003NN  NNW 000                       N    
RDG09004200WATR 000000005R00000000000001952003610222015190000N000000000000N84       000250500R 10000000020000001215           
RFF0900420068314656      ERT      0000  956.44375000140000102220151900000001952491100W 1210001N                               
CUS0900420000109445480008         PV REALTY-NORTHWEST,4601 PALL MALL RD                       000N        CARE OF             
MTR09004200001000000000000000RA              9053752     000600350000003500000380000003NY  NNW 000   FIRE SERVICE        N    
MTM090042009053752     NO LID                                                                                                 
RDG09004200WATR 000000004R00000000000000001000010222015190000N000100000020N         000000400R 10000000010000000001           
RFF0900420068695465      ERT      0000  956.44375000140000102220151900000000014185100W 1220000N                               
CUS0900420000109440322007         ST AMBROSE R C CHURC4500 PARK HTS AVE                       000N        CARE OF             
MTR09004200001000000000000000RA              8050613     000400360000003600000640000000NN  NNW 000   FIRE SERVICE        N    
RDG09004200WATRL000000006K00000000000000000003710222015115216N000000000000N84       000860600K 10000000010000000000           
CUS0900420000109440323005         ST.AMBROSE CATHOLIC 4500 PARK HTS AVE                       000N        CARE OF             
MTR09004200001000000000000000RA              01116909    000200370000003700000610000000NN  NNW 000                       N    
RDG09004200WATRL000000005K00000000000006158003810222015115222N000000000000N84       000060500K 10000000010000006028           
CUS0900420000109428164009         ST AMBROSE SCHOOL   4500-06 PARK HTS AVE                    000N        CARE OF             
MTR09004200001000000000000000RA              8043189     000400380000003800000380000003NN  NNW 000   FIRE SERVICE        N    
RDG09004200WATRL000000006K00000000000000000003910222015115225N000000000000N84       000030600K 10000000010000000000           
CUS0900420000109428166004         ST AMBROSE SCHOOL   4500-06 PARK HTS AVE                    000N        CARE OF             
MTR09004200001000000000000000RA              0908803     000400390000003900000630000003NY  NNW 000                       N    
MTM090042000908803     OK                                                                                                     
RDG09004200WATRL000000006K00000000000001749004010222015115233N000000000000N84       000080600K 10000000010000001749           
CUS0900420000109257187006         GAUDENIZA, INC.     4613 PARK HTS AVE                       000N        CARE OF             
MTR09004200001000000000000000RA              31842480    001500400000004000000520000003NY  NNW 000   VACANT PROPERTY     N    
MTM0900420031842480    OK OCC                                                                                                 
RDG09004200WATRL000000005K00000000000000975004110222015115316N000000000010N84       000430500K 10000000010000013323           
CUS0900420000109257186008         GAUDENIZA, INC.     4613 PARK HTS AVE                       000N        CARE OF             
MTR09004200001000000000000000RA              2179786     000600410000004100000410000003NY  NNW 000   FIRE SERVICE        N    
MTM090042002179786     OK                                                                                                     
RDG09004200WATRL000000006K00000000000000000004210222015115417N000000000010N84       000610600K 10000000010000000001           
CUS0900420000109257188004         GAUDENZIA FOUNDATION4615 PARK HTS AVE                       000N        CARE OF             
MTR09004200001000000000000000RA              9012813     000300420000004200000640000003NN  NNW 000                       N    
RDG09004200WATRL000000005K00000000000028984004310222015115423N000000000000N84       000060500K 10000000010000026848           
CUS0900420000109257191008         MAYOR & CITY COUNCIL4910 PARK HTS AVE                       000N        CARE OF             
MTR09004200001000000000000000RA              9104326     000400430000004300000640000003NY  NNW 000                       N    
MTM090042009104326     CONST                                                                                                  
RDG09004200WATRL000000006K00000000000000000000000000000000000 000000000000U         000000600  10000000010000012244           
CUS0900420000109436790001         MAYOR & CITY COUNCIL4910 PARK HTS AVE                       000N        CARE OF             
MTR09004200001000000000000000RA              8048802     000600440000004400000380000003NN  NNW 000   FIRE SERVICE        N    
RDG09004200WATR 000000004R00000000000000000004410222015190000N000100000010N84       001240400R 10000000010000000000           
RFF0900420068618955      ERT      0000  956.44375000140000102220151900000000000834100W 1220001N                               
CUS0900420000109436792007         JANE ADDAMS RECOURCE4910 PARK HTS AVE                       000N        CARE OF             
MTR09004200001000000000000000RA              60876285    000200450000004500000670000003NN  NNW 000                       N    
RDG09004200WATR 000000005R00000000000000045004510222015190000N000000000000N84       000150500R 10000000020000000029           
RFF0900420068531923      ERT      0000  956.44375000140000102220151900000000045430100W 1210001N                               
CUS0900420000109421640005         BLUE OCEAN 4900 PH, 4900-02 PARK HTS AVE                    000N        CARE OF             
MTR09004200001000000000000000RA              60876192    000200460000004600000670000003NN  NNW 000                       N    
RDG09004200WATR 000000005R00000000000002035004610222015190000N000000000000N84       000180500R 10000000020000001411           
RFF0900420068531908      ERT      0000  956.44375000140000102220151900000002035949100W 1210001N                               
CUS0900420000109442621000         PARKTOWN APARTMENTS 4637 PARK HTS AVE                       000N        CARE OF             
MTR09004200001000000000000000RA              8051878     000600470000004700000410000000NN  NNW 000   FIRE SERVICE        N    
RDG09004200WATRL000000006K00000000000000028004710222015115705N000000000000N84       000050600K 10000000010000000028           
CUS0900420000109442623006         PARKTOWN APARTMENTS 4637 PARK HTS AVE                       000N        CARE OF             
MTR09004200001000000000000000RA              01117041    000200480000004800000610000000NN  NNW 000                       N    
RDG09004200WATRL000000005K00000000000020728004810222015115710N000000000000N84       000050500K 10000000010000020169           
CUS0900420000109257190000         PALMER COURT APARTME4801 PALMER AVE                         000N        CARE OF             
MTR09004200001000000000000000RA              0609464     000300490000004900000640000003NN  NNW 000                       N    
RDG09004200WATRL000000005K00000000000020204004910222015115731N000300000010N84       000210500K 10000000010000017809           
CUS0900420000109352133004         FULL GOSPHEL CHURCH 5005-21 PARK HTS AVE                    000N        CARE OF             
MTR09004200001000000000000000RA              43904456    007500500000005000000520000003NN  NNW 000                       N    
RDG09004200WATRL000000004K00000000000007886005010222015115834N000300000010N84       000630400K 10000000010000007529           
CUS0900420000109352132006         KAPILOFF, BERNARD   5005-21 PARK HTS AVE                    000N        CARE OF             
MTR09004200001000000000000000RA              5921536     000600510000005100000410000003NN  NNW 000   FIRE SERVICE        N    
RDG09004200WATRL000000004R00000000000000000005110222015115847N000000000000N84       000130400K 10000000010000000000           
RFF0900420068618963      ERT      0000  956.4437500014000000000000000000                  0001Y                               
CUS0900420000109389806002         MD JOCKEY CLUB      5201 PARK HTS AVE                       000N        CARE OF             
MTR09004200001000000000000000RA              1183951     000600520000005200000490000003NN  NNW 000                       N    
RDG09004200WATRL000000006K00000000000021215005210222015115916N000300000010N84       000290600K 10000000010000014564           
CUS0900420000109432696004         MARYLAND JOCKEY CLUB5201 PARK HTS AVE                       000N        CARE OF             
MTR09004200002000000000000000RA              0201037     000800530000005300000630000000NY  NNW 000   FIRE SERVICE        N    
MTM090042000201037     ERT OK                                                                                                 
RDG09004200WATAL000000006K00000000000000000005310222015115950N000000000010N84       000340600K 10000000010000000089           
RDG09004200WATBL000000006K00000000000000000005410222015115954N000300000010N84       000040600K 10000000010000000128           
CUS0900420000109408932003         FIRST BAPTIST CHR   5301 BEAUFORT AVE                       000N        CARE OF             
MTR09004200001000000000000000RA              60876253    000200540000005400000670000003NN  NNW 000                       N    
RDG09004200WATR 000000005R00000000000000029005510222015190000N000000000000N84       000240500R 10000000020000000020           
RFF0900420068314673      ERT      0000  956.44375000140000102220151900000000029435100W 1210001N                               
CUS0900420000109257224007         PARK WEST MEDICAL CT3301-19 W BELVEDERE AVE                 000N        CARE OF             
MTR09004200001000000000000000RA              1414378     000300550000005500000490000003NY  NNW 000                       N    
MTM090042001414378     OK                                                                                                     
RDG09004200WATRL000000005K00000000000000999005610222015120059N000306700010N84       000410500K 10000000010000003443           
CUS0900420000109432720002         TRIALLIANCE CONSTRUC3319 W BELVEDERE AVE                    000N        CARE OF             
MTR09004200001000000000000000RA              8046522     000400560000005600000380000003NN  NNW 000   FIRE SERVICE        N    
RDG09004200WATR 000000004R00000000000000000005710222015160000N000100000010N84       000300400R 10000000010000000000           
RFF0900420068618956      ERT      0000  956.44375000140000102220151600000000000020100W 1220001N                               
CUS0900420000109432719004         PARK WEST MEDICAL   3319 W BELVEDERE AVE                    000N        CARE OF             
MTR09004200001000000000000000RA              90000338    000200570000005700000570000000NY  NNW 000                       N    
MTM0900420090000338    ERT OK                                                                                                 
RDG09004200WATRL000000005K00000000000000008005810222015120151N000000000010N84       000220500K 10000000010000000442           
CUS0900420000109376151008         HAPPY PARK HEIGHTS R5146 PARK HTS AVE                       000N        CARE OF             
MTR09004200001000000000000000RA              E18372      000600580000005800000430000003NN  NNW 000   FIRE SERVICE        N    
RDG09004200WATR 000000004R00000000000000000005910222015120206N000000000000N84       000150400K 10000000010000000000           
RFF0900420068618951      ERT      0000  956.4437500014000000000000000000                  0001Y                               
CUS0900420000109257218009         COBBLESTONE DEVELOPM5132-34 PARK HTS AVE                    000N        CARE OF             
MTR09004200001000000000000000RA              35116829    000200590000005900000520000003NN  NNW 000                       N    
RDG09004200WATRL000000005K00000000000000000006010222015120215S005000000000U84       000090500K 10000000010000006315           
CUS0900420000109257219007         MAYOR AND CITY COUNC4946 DENMORE AVE                        000N        CARE OF             
MTR09004200001000000000000000RA              99999999    001500600000006000000620000003NN  NNW 000                       N    
RDG09004200WATRL000000005K00000000000000000006110222015120221S022000000000N84       000060500K 10000000010000020201           
CUS0900420000109257222001         PHOENIX GARDEN, LLC 5018 DENMORE AVE                        000N        CARE OF             
MTR09004200001000000000000000RA              01025975    000300610000006100000460000003NY  NNW 000                       N    
MTM0900420001025975    N/A/G/P                                                                                                
RDG09004200WATRL000000005K00000000000000000000000000000000000 000000000000U         000000500  10000000010000015177           
CUS0900420000109257223009         BROWN'S MEMORIAL    3213-15 W BELVEDERE AVE                 000N        CARE OF             
MTR09004200001000000000000000RA              60876251    000200620000006200000670000003NN  NNW 000                       N    
RDG09004200WATR 000000005R00000000000000117006210222015190000N000400000020N84       000440500R 10000000020000000086           
RFF0900420068314670      ERT      0000  956.44375000140000102220151900000000117844100W 1210001N                               
CUS0900420000109257210006         WOODLANDS APARTMENTS3503-05 WOODLAND AVE                    000N        CARE OF             
MTR09004200001000000000000000RA              29768415    000200630000006300000520000003NN  NNW 000                       N    
RDG09004200WATRL000000005K00000000000034429006310222015120315N000400000010N84       000100500K 10000000010000034384           
CUS0900420000109257209008         WOODLANDS APARTMENTS3507-09 WOODLAND AVE                    000N        CARE OF             
MTR09004200001000000000000000RA              32905165    000200640000006400000520000003NN  NNW 000                       N    
RDG09004200WATRL000000005K00000000000070646006410222015120324N000300000010N84       000090500K 10000000010000069814           
CUS0900420000109257195009         RITE AID OF MARYLAND2701-05 W COLD SPRING LN                000N        CARE OF             
MTR09004200001000000000000000RA              35100978    007500650000006500000520000003NN  NNW 000                       N    
RDG09004200WATRL000000004K00000000000004464006510222015120336N000300000010N84       000120400K 10000000010000004437           
CUS0900420000109257194002         BAINES MANAGEMENT CO2701-05 W COLD SPRING LN                000N        CARE OF             
MTR09004200001000000000000000RA              4913602     000600660000006600000410000003NN  NNW 000   FIRE SERVICE        N    
RDG09004200WATRL000000006K00000000000000000006610222015120338S005000000000U84       000020600K 10000000010000000017           
CUS0900420000109428769005         BMM I, LLC          2707 W COLD SPRING LN                   000N        CARE OF             
MTR09004200001000000000000000RA              35105132    000200670000006700000520000000NN  NNW 000                       N    
RDG09004200WATRL000000005K00000000000010970006710222015120349N000300000010N84       000110500K 10000000010000010743           
CUS0900420000109442669009         ALLEGHENY EAST CONF 3006 W COLD SPRING LN                   000N        CARE OF             
MTR09004200001000000000000000RA              8051956     000600680000006800000410000000NN  NNW 000   FIRE SERVICE        N    
RDG09004200WATRL000000006K00000000000000000006810222015120352N000000000000N84       000030600K 10000000010000000000           
CUS0900420000109442671005         ALLEGHENY EAST CONF 3006 W COLD SPRING LN                   000N        CARE OF             
MTR09004200001000000000000000RA              01117059    000200690000006900000610000000NN  NNW 000                       N    
RDG09004200WATRL000000005K00000000000000175006910222015120359N000400000010N84       000070500K 10000000010000000174           
CUS0900420000109257197005         MAYOR & CITY COUNCIL3939 REISTERSTOWN RD                    000N        CARE OF             
MTR09004200001000000000000000RA              0911520     000300700000007000000640000003NN  NNW 000                       N    
RDG09004200WATRL000000005K00000000000001415007010222015120409N000300000010N84       000100500K 10000000010000001287           
CUS0900420000109404357007         ALCOTT PLACE, LLC   2702 KEYWORTH AVE                       000N        CARE OF             
MTR09004200001000000000000000RA              25956907    001500710000007100000520000003NN  NNW 000                       N    
RDG09004200WATRL000000005K00000000000066454007110222015120418N000400000010N84       000090500K 10000000010000066346           
CUS0900420000109404355001         ALCOTT PLACE, LLC   2702 KEYWORTH AVE                       000N        CARE OF             
MTR09004200001000000000000000RA              7235103     000600720000007200000340000003NN  NNW 000   FIRE SERVICE        N    
RDG09004200WATRL000000006K00000000000000001007210222015120432N000000000000N84       000140600K 10000000010000000001           
CUS0900420000109257198003         BUREAU OF INSPECTION2810 SHIRLEY AVE                        000N        CARE OF             
MTR09004200002000000000000000RA              5077430     000400730000007300000480000003NN  NNW 000                       N    
RDG09004200WATAL000000006K00000000000000000007310222015120443N000100000010N84       000110600K 10000000010000000000           
RDG09004200WATBL000000006K00000000000002173007410222015120502N000400000010N84       000190600K 10000000010000002035           
CUS0900420000109257200007         BUREAU OF           4100 TOWANDA AVE                        000N        CARE OF             
MTR09004200001000000000000000RA              28945443    000200740000007400000520000003NN  NNW 000                       N    
RDG09004200WATRL000000005K00000000000000669007510222015120535N000300000010N84       000330500K 10000000010000000598           
CUS0900420000109257199001         DEPT. OF RECREATION 4100 TOWANDA AVE                        000N        CARE OF             
MTR09004200001000000000000000RA              1329442     000200750000007500000490000003NY  NNW 000                       N    
MTM090042001329442     OK                                                                                                     
RDG09004200WATRL000000005K00000000000031917007610222015120632N000400000010N84       000570500K 10000000010000000708           
CUS0900420000109257201005         VICTORIOUS LIFE MINI2807 GRANTLEY AVE                       000N        CARE OF             
MTR09004200001000000000000000RA              52287276    005800760000007600000520000003NN  NNW 000                       N    
RDG09004200WATRL000000004K00000000000003413007710222015120642N000300000010N84       000100400K 10000000010000003380           
CUS0900420000109357490003         MASS TRANSIT ADM    3105 W COLD SPRING LN                   000N        CARE OF             
MTR09004200001000000000000000RA              35109402    000200770000007700000520000003NN  NNW 000                       N    
RDG09004200WATRL000000005K00000000000000517007810222015120650N000300000010N84       000080500K 10000000010000000501           
CUS0900420000109257207002         BALTO CONCRETE PROD 3009-21 W COLD SPRING LN                000N        CARE OF             
MTR09004200001000000000000000RA              35115401    005800780000007800000520000003NN  NNW 000                       N    
RDG09004200WATRL000000004K00000000000006878007910222015120659N000000000000N84       000090400K 10000000010000006839           
CUS0900420000109257206004         BALTO CONCRETE PROD 3009-21 W COLD SPRING LN                000N        CARE OF             
MTR09004200001000000000000000RA              5204134     000600790000007900000410000003NN  NNW 000   FIRE SERVICE        N    
RDG09004200WATRL000000006K00000000000000000008010222015120732S005000000000U84       000330600K 10000000010000000708           
CUS0900420000109257205006         LANE APTS.          2924-38 W COLD SPRING LN                000N        CARE OF             
MTR09004200001000000000000000RA              1236832     000200800000008000000490000003NY  NNW 000                       N    
MTM090042001236832     OK                                                                                                     
RDG09004200WATRL000000005K00000000000003947008110222015120800N000000000000N84       000280500K 10000000010000001920           
CUS0900420000109257204009         LANE APTS.          2900-14 W COLD SPRING LN                000N        CARE OF             
MTR09004200001000000000000000RA              1171157     000200810000008100000490000003NN  NNW 000                       N    
RDG09004200WATRL000000005K00000000000027370008210222015120820N000300000010N84       000200500K 10000000010000026380           
CUS0900420000102425750003         HAPPY PARK HEIGHTS R5146 PARK HTS AVE                       000N        CARE OF             
MTR09004200001000000000000000RA              60876074    001500820000008200000670000003NN  NNW 000                       N    
RDG09004200WATR 000000005R00000000000000150008310222015190000N000400000020N84       000230500R 10000000020000000118           
RFF0900420068532124      ERT      0000  956.44375000140000102220151900000000150400100W 1210001N                               
CUS0900420000102311720003         TOP BEAUTY, INC     5116-20 PARK HTS AVE                    000N        CARE OF             
MTR09004200001000000000000000RA              30001804    007500830000008300000570000003NY  NNW 000                       N    
MTM0900420030001804    OK                                                                                                     
RDG09004200WATRL000000004K00000000000000014008410222015120928N000300000010N84       000450400K 10000000010000000135           
CUS0900420000102307589008         BALTIMORE CONCRETE R3025 W COLD SPRING LN                   000N        CARE OF             
MTR09004200001000000000000000RA              14925515    005800840000008400000310000003NY  NNW 000                       N    
MTM0900420014925515    OK                                                                                                     
RDG09004200WATRL000000004K00000000000001376008510222015120937N000000000000N84       000090400K 10000000010000001376           
CUS0900420000102306319001         CONCRETE REALTY, LLC3006 BOARMAN AVE                        000N        CARE OF             
MTR09004200001000000000000000RA              9692829     007500850000008500000570000003NY  NNW 000                       N    
MTM090042009692829     BURIED                                                                                                 
RDG09004200WATRL000000004K00000000000000000000000000000000000 000000000000U         000000400  10000000010000003358           
RTR09004200NN00780089000000780000001100850085000026NY008500850089000300050000000000000000000001    10212015NY020000 N         
RHD09004300NN01780179000001780000000101510151000066NY015101510179001100060000000000000000000001    10212015NY020000 N         
CUS0900430000109444010004         BALTIMORE CITY HEALT4501-31 REISTERSTOWN RD                 000N        CARE OF             
MTR09004300001000000000000000RA              01116957    000200010000000100000610000000NN  NNW 000                       N    
RDG09004300WATRL000000005K00000000000000791000110222015114447N000000000000N93       000000500K 10000000010000000749           
CUS0900430000109444008008         CARE                4501-31 REISTERSTOWN RD                 000N        CARE OF             
MTR09004300001000000000000000RA              8052987     000400020000000200000410000000NN  NNW 000   FIRE SERVICE        N    
RDG09004300WATRL000000006K00000000000000242000210222015114454N000400000010N93       000070600K 10000000010000000241           
CUS0900430000109447621005         REV IZZEL CRUMP     5101 REISTERSTOWN RD                    000N        CARE OF             
MTR09004300001000000000000000RA              0006928     000600030000000300000410000003NN  NNW 000   FIRE SERVICE        N    
RDG09004300WATRL000000006K00000000000000000000310222015114457N000000000000N93       000030600K 10000000010000000000           
CUS0900430000109447623001         REV IZZEL CRUMP     5101 REISTERSTOWN RD                    000N        CARE OF             
MTR09004300001000000000000000RA              70000028    001500040000000400000570000003NN  NNW 000                       N    
RDG09004300WATRL000000005K00000000000000046000410222015114500N000000000000N93       000030500K 10000000010000000044           
CUS0900430000109257316001         FUTERMAN, ELI N. (TR5213-15 FAIRLAWN AVE                    000N        CARE OF             
MTR09004300001000000000000000RA              60876242    000200050000000500000670000003NN  NNW 000                       N    
RDG09004300WATR 000000005R00000000000000000000510222015190000N000100000010N93       000260500R 10000000020000000000           
RFF0900430068531503      ERT      0000  956.44375000140000102220151900000000000003100W 1210001N                               
CUS0900430000109257314006         GOERTLER, JOHN      4120-30 HAYWARD AVE                     000N        CARE OF             
MTR09004300001000000000000000RA              00066780    001500060000000600000570000003NN  NNW 000                       N    
RDG09004300WATRL000000005K00000000000002341000610222015114534N000300000010N93       000080500K 10000000010000002140           
CUS0900430000109257313008         GOERTLER, JOHN      4120-30 HAYWARD AVE                     000N        CARE OF             
MTR09004300001000000000000000RA              1459829     000800070000000700000410000003NN  NNW 000   FIRE SERVICE        N    
RDG09004300WATRL000000006K00000000000000003000710222015114539N000000000000N93       000050600K 10000000010000000003           
CUS0900430000109353205009         MASS TRANSIT ADM    4599 N ROGERS AVE                       000N        CARE OF             
MTR09004300001000000000000000RA              01105332    001500080000000800000610000003NN  NNW 000                       N    
RDG09004300WATRL000000005K00000000000000000000110232015115708S005000000000U93       000000500K 10000000010000001266           
CUS0900430000109257301003         ARC PROPERTIES      5712-20 REISTERSTOWN RD                 000N        CARE OF             
MTR09004300001000000000000000RA              31588048    001500090000000900000520000003NN  NNW 000                       N    
RDG09004300WATRL000000005K00000000000018076000810222015114548N000000000000N93       000090500K 10000000010000018001           
CUS0900430000109257300005         BAZ, MALIK GUL      5712-18 REISTERSTOWN RD                 000N        CARE OF             
MTR09004300001000000000000000RA              2809148     000600100000001000000410000003NN  NNW 000   FIRE SERVICE        N    
RDG09004300WATRL000000006K00000000000000000000910222015114552N000000000000N93       000040600K 10000000010000000000           
CUS0900430000109428549001         SAPERO & COMPANY LLP4001 7 MILE LN                          000N        CARE OF             
MTR09004300001000000000000000RA              8043064     000600110000001100000380000003NN  NNW 000   FIRE SERVICE        N    
RDG09004300WATRL000000006K00000000000000001001010222015114556N000000000000N93       000040600K 10000000010000000001           
CUS0900430000109428551007         SAPERO & COMPANY LLP4001 7 MILE LN                          000N        CARE OF             
MTR09004300001000000000000000RA              99168667    001500120000001200000520000003NN  NNW 000                       N    
RDG09004300WATRL000000005K00000000000006351001110222015114600N000000000000N93       000040500K 10000000010000006260           
CUS0900430000109257278003         TRIANGLE REALTY &   3909 SEVEN MILE LN                      000N        CARE OF             
MTR09004300001000000000000000RA              9103022     000300130000001300000640000003NN  NNW 000                       N    
RDG09004300WATRL000000005K00000000000008684001210222015114605N000000000000N93       000050500K 10000000010000008246           
CUS0900430000109257277005         SOUTHERN MGMT SITE C3800 SEVEN MILE LN                      000N        CARE OF             
MTR09004300001000000000000000RA              26567470    000200140000001400000520000003NN  NNW 000                       N    
RDG09004300WATRL000000005K00000000000067314001310222015114612N000000000000N93       000070500K 10000000010000067080           
CUS0900430000109257276007         SOUTHERN MGMT SITE C3900 SEVEN MILE LN                      000N        CARE OF             
MTR09004300001000000000000000RA              01116747    000200150000001500000610000003NN  NNW 000                       N    
RDG09004300WATRL000000005K00000000000022814001410222015114617N000000000000N93       000050500K 10000000010000021904           
CUS0900430000109257275009         SOUTHERN MGMT SITE C3800 SEVEN MILE LN                      000N        CARE OF             
MTR09004300002000000000000000RA              5124976     000600160000001600000630000003NN  NNW 000                       N    
RDG09004300WATAL000000006K00000000000000000001510222015114622N000100000010N93       000050600K 10000000010000000000           
RDG09004300WATBL000000006K00000000000021698001610222015114631N000400000010N93       000090600K 10000000010000020702           
CUS0900430000109257274002         3703 SEVEN MILE LANE3703 SEVEN MILE LN                      000N        CARE OF             
MTR09004300001000000000000000RA              01116785    000200170000001700000610000003NN  NNW 000                       N    
RDG09004300WATRL000000005K00000000000011932001710222015114643N000000000000N93       000120500K 10000000010000011493           
CUS0900430000109257273004         3623 SEVEN MILE LANE3623 SEVEN MILE LN                      000N        CARE OF             
MTR09004300001000000000000000RA              01116782    000200180000001800000610000003NN  NNW 000                       N    
RDG09004300WATRL000000005K00000000000013474001810222015114648N000000000000N93       000050500K 10000000010000013040           
CUS0900430000109433480002         HOME DEPOT 2584     6512-6790 REISTERSTOWN RD               000N        CARE OF             
MTR09004300002000000000000000RA              70073691    001000190000001900000560000000NY  NNW 000   FIRE SERVICE        N    
MTM0900430070073691    reads reversed                                                                                         
RDG09004300WATAL000000007K00000000000000285001910222015114744N000000000052N93       000200700K 10000000010000000033           
RDG09004300WATBL000000007K00000000000000035002010222015114751N000300000011N93       000070700K 10000000010000000283           
CUS0900430000109433482008         HOME DEPOT USA      6512-6790 REISTERSTOWN RD               000N        CARE OF             
MTR09004300001000000000000000RA              00066774    001500200000002000000570000000NY  NNW 000                       N    
MTM0900430000066774    read ok                                                                                                
RDG09004300WATRL000000005K00000000000011258002110222015114830N000300000030N93       000390500K 10000000010000011265           
CUS0900430000109257279001         FALLSTAFF CENTER, LL6812-62 REISTERSTOWN RD                 000N        CARE OF             
MTR09004300001000000000000000RA              0911543     000300210000002100000640000003NN  NNW 000                       N    
RDG09004300WATRL000000005K00000000000008846002210222015121916N000000000000N93       018460500K 10000000010000008436           
CUS0900430000109257281007         FALLSTAFF CENTER, LL6812 REISTERSTOWN RD                    000N        CARE OF             
MTR09004300001000000000000000RA              28855650    000100220000002200000520000003NN  NNW 000                       N    
RDG09004300WATRL000000004K00000000000006048002310222015121937N000400000010N93       000210400K 10000000010000005979           
CUS0900430000109257280009         FALLSTAFF CENTER, LL6812 REISTERSTOWN RD                    000N        CARE OF             
MTR09004300001000000000000000RA              3955230     000800230000002300000410000003NN  NNW 000   FIRE SERVICE        N    
RDG09004300WATRL000000006K00000000000000021002410222015121941N000000000000N93       000040600K 10000000010000000021           
CUS0900430000109420114002         PEP BOYS            6501 REISTERSTOWN RD                    000N        CARE OF             
MTR09004300001000000000000000RA              8036335     000600240000002400000380000003NN  NNW 000   FIRE SERVICE        N    
RDG09004300WATRL000000006K00000000000000000002510222015121946N000000000000N93       000050600K 10000000010000000000           
CUS0900430000109420116007         AUTO ZONE STORE# 5256501 REISTERSTOWN RD                    000N        CARE OF             
MTR09004300001000000000000000RA              00066711    000200250000002500000570000003NN  NNW 000                       N    
RDG09004300WATRL000000005K00000000000000721002610222015121950N000000000000N93       000040500K 10000000010000000705           
CUS0900430000109257282005         REISTERSTOWN PLAZA A6500 REISTERSTOWN RD                    000N        CARE OF             
MTR09004300002000000000000000RA              3874088     001000260000002600000540000003NY  NNW 000                       N    
MTM090043003874088     read ok                                                                                                
RDG09004300WATAL000000007K00000000000000000002710222015122006N000300000010N93       000160700K 10000000010000000003           
RDG09004300WATBL000000007K00000000000979947002810222015122038N000300000010N93       000320700K 10000000010000001124           
CUS0900430000109257283003         REISTERSTOWN PLAZA A6500 REISTERSTOWN RD                    000N        CARE OF             
MTR09004300002000000000000000RA              3919155     001000270000002700000630000003NN  NNW 000                       N    
RDG09004300WATAL000000007K00000000000000091002910222015122046N000100000010N93       000080700K 10000000010000000091           
RDG09004300WATBL000000007K00000000000126377003010222015122057N000400000010N93       000110700K 10000000010000114648           
CUS0900430000109257284001         REISTERSTOWN SQUARE 4300 PATTERSON AVE                      000N        CARE OF             
MTR09004300002000000000000000RA              4542089     000800280000002800000540000003NN  NNW 000                       N    
RDG09004300WATAL000000006K00000000000000438003110222015122106N000400000010N93       000090600K 10000000010000000436           
RDG09004300WATBL000000006K00000000000150464003210222015122125N000400000010N93       000190600K 10000000010000138091           
CUS0900430000109447318008         JBG/BALTIMORE SSA, L6100 WABASH AVE                         000N        CARE OF             
MTR09004300002000000000000000RA              01026360    000600290000002900000460000003NY  NNW 000                       N    
MTM0900430001026360    cl                                                                                                     
RDG09004300WATAL000000006K00000000000000000003300000000000000 000000000000U         000000600  10000000010000000089           
RDG09004300WATBL000000006K00000000000000000003400000000000000 000000000000U         000000600  10000000010000000076           
CUS0900430000109447319006         JBG/BALTIMORE SSA, L6100 WABASH AVE                         000N        CARE OF             
MTR09004300001000000000000000RA              30002570    005800300000003000000570000003NY  NNW 000                       N    
MTM0900430030002570    read ok                                                                                                
RDG09004300WATRL000000004K00000000000000000003510222015122503N000300000010N93       001670400K 10000000010000000105           
CUS0900430000109447321002         JBG/BALTIMORE SSA, L6100 WABASH AVE                         000N        CARE OF             
MTR09004300001000000000000000RA              12800390    000800310000003100000570000003NY  NNW 000   FIRE SERVICE        N    
MTM0900430012800390    2 dial meter defaced              00176                                                                
RDG09004300WATRL000000006K00000000000000176003610222015122618N000000000010N93       000750600K 10000000010000002400           
CUS0900430000109447323008         JBG/BALTIMORE SSA, L6100 WABASH AVE                         000N        CARE OF             
MTR09004300001000000000000000RA              12800385    000800320000003200000390000003NY  NNW 000   FIRE SERVICE        N    
MTM0900430012800385    cl                                                                                                     
RDG09004300WATRL000000006K00000000000000000000000000000000000 000000000000U         000000600  10000000010000002400           
CUS0900430000109382370006         STATE OF MARYLAND   5800 WABASH AVE                         000N        CARE OF             
MTR09004300003000000000000000RA              7116763     000800330000003300000480000003NN  NNW 000   FIRE SERVICE        N    
RDG09004300WATAL000000006K00000000000000010003710222015122701N000000000000N93       000430600K 10000000010000000010           
RDG09004300WATBL000000006K00000000000000045003810222015122706N000100000010N93       000050600K 10000000010000000045           
RDG09004300WATCL000000006K00000000000000637003910222015122713N000100000010N93       000070600K 10000000010000000637           
CUS0900430000109382482009         MD. DEPT OF GENERAL 5800 WABASH AVE                         000N        CARE OF             
MTR09004300001000000000000000RA              1421658     000300340000003400000470000003NN  NNW 000                       N    
RDG09004300WATRL000000005K00000000000007831004010222015122720N000000000000N93       000070500K 10000000010000007348           
CUS0900430000109454543001         ARLINGTON II NON-PRO5500 WABASH AVE                         000N        CARE OF             
MTR09004300001000000000000000RA              1200238     000600350000003500000470000003NN  NNW 000   FIRE SERVICE        N    
RDG09004300WATRL000000006K00000000000000019004110222015122723N000000000000N93       000030600K 10000000010000000019           
CUS0900430000109454545006         ARLINGTON II NON-PRO5500 WABASH AVE                         000N        CARE OF             
MTR09004300001000000000000000RA              71429405    000300360000003600000440000003NN  NNW 000                       N    
RDG09004300WATRL000000005K00000000000000000000210232015120000S001000000000U93       001720500K 10000000010000002105           
CUS0900430000109257310004         NORTHWEST PLAZA ASSO4500 W NORTHERN PKWY                    000N        CARE OF             
MTR09004300001000000000000000RA              99409554    000100370000003700000570000003NN  NNW 000                       N    
RDG09004300WATRL000000004K00000000000000596004210222015122731N000000000000N93       000080400K 10000000010000000594           
CUS0900430000109257311002         NORTHWEST PLAZA ASSO4600 W NORTHERN PKWY                    000N        CARE OF             
MTR09004300003000000000000000RA              5480056     001000380000003800000480000003NY  NNW 000   FIRE SERVICE        N    
MTM090043005480056     cs                                                                                                     
RDG09004300WATAL000000007K00000000000000000000000000000000000 000000000000U         000000700  10000000010000001186           
RDG09004300WATBL000000007K00000000000000000000000000000000000 000000000000U         000000700  10000000010000002278           
RDG09004300WATCL000000007K00000000000000000000000000000000000 000000000000U         000000700  10000000010000001513           
CUS0900430000109257312000         NORTHWEST PLAZA ASSO4600 W NORTHERN PKWY                    000N        CARE OF             
MTR09004300001000000000000000RA              61381505    000400390000003900000470000003NN  NNW 000                       N    
RDG09004300WATRL000000006K00000000000015750004310222015122746N000000000000N93       000150600K 10000000010000015434           
CUS0900430000109435899001         ARLINGTON NON-PROFIT4601 W NORTHERN PKWY                    000N        CARE OF             
MTR09004300002000000000000000RA              0310068     000800400000004000000630000000NN  NNW 000   FIRE SERVICE        N    
RDG09004300WATAL000000006K00000000000000005004410222015122751N000000000000N93       000050600K 10000000010000000005           
RDG09004300WATBL000000006K00000000000000039004510222015122759N000100000010N93       000080600K 10000000010000000039           
CUS0900430000109435901005         ARLINGTON NON-PROFIT4601 W NORTHERN PKWY                    000N        CARE OF             
MTR09004300002000000000000000RA              14931007    000400410000004100000450000003NN  NNW 000                       N    
RDG09004300WATAL000000006K00000000000000863004610222015122806N000400000010N93       000070600K 10000000010000000817           
RDG09004300WATBL000000006K00000000000000553004710222015122814N000400000010N93       000080600K 10000000010000000087           
CUS0900430000109386023007         MASS TRANSIT ADM    4401 MT HOPE DR                         000N        CARE OF             
MTR09004300001000000000000000RA              9203904     000400420000004200000640000003NY  NNW 000                       N    
MTM090043009203904     sod                                                                                                    
RDG09004300WATRL000000006K00000000000000000000000000000000000 000000000000U         000000600  10000000010000026920           
CUS0900430000109386022009         MASS TRANSIT ADM    4401 MT HOPE DR                         000N        CARE OF             
MTR09004300001000000000000000RA              E186744     000800430000004300000430000003NY  NNW 000   FIRE SERVICE        N    
MTM09004300E186744     sod                                                                                                    
RDG09004300WATRL000000006K00000000000000000000000000000000000 000000000000U         000000600  10000000010000000000           
CUS0900430000109421583007         COMCAST CABLE COMM  5801 METRO DR                           000N        CARE OF             
MTR09004300002000000000000000RA              9700160     000800440000004400000630000003NY  NNW 000   FIRE SERVICE        N    
MTM090043009700160     read ok                                                                                                
RDG09004300WATAL000000006K00000000000000026004810222015122828N000000000010N93       000140600K 10000000010000000030           
RDG09004300WATBL000000006K00000000000000808004910222015122845N000400000010N93       000170600K 10000000010000000034           
CUS0900430000109421585002         COMCAST CABLE COMM  5801 METRO DR                           000N        CARE OF             
MTR09004300001000000000000000RA              51476597    000200450000004500000520000003NN  NNW 000                       N    
RDG09004300WATRL000000005K00000000000007483005010222015122853N000300000010N93       000080500K 10000000010000007491           
CUS0900430000109388853005         5601 METRO DRIVE, LL5601 METRO DR                           000N        CARE OF             
MTR09004300001000000000000000RA              35105199    000200460000004600000520000003NN  NNW 000                       N    
RDG09004300WATRL000000005K00000000000035007005110222015122858N000000000000N93       000050500K 10000000010000034906           
CUS0900430000109388851009         5601 METRO DRIVE, LL5601 METRO DR                           000N        CARE OF             
MTR09004300001000000000000000RA              E21242      000800470000004700000430000003NN  NNW 000   FIRE SERVICE        N    
RDG09004300WATRL000000006K00000000000000046005210222015122903N000000000000N93       000050600K 10000000010000000046           
CUS0900430000109396964000         BALTIMORE SETON LLC 4601-4701 MT HOPE DR                    000N        CARE OF             
MTR09004300003000000000000000RA              7219055     000800480000004800000480000003NN  NNW 000   FIRE SERVICE        N    
RDG09004300WATAL000000006K00000000000000012005310222015122925N000000000000N93       000220600K 10000000010000000012           
RDG09004300WATBL000000006K00000000000000084005410222015122932N000100000010N93       000070600K 10000000010000000084           
RDG09004300WATCL000000006K00000000000000093005510222015122937N000400000010N93       000050600K 10000000010000000092           
CUS0900430000109396966005         BALTO SETON LLC     4601-4701 MT HOPE DR                    000N        CARE OF             
MTR09004300001000000000000000RA              90000094    000200490000004900000570000003NN  NNW 000                       N    
RDG09004300WATRL000000005K00000000000019625005610222015122942N000000000000N93       000050500K 10000000010000018648           
CUS0900430000109397716003         AMERICAN RED CROSS  4700 MT HOPE DR                         000N        CARE OF             
MTR09004300002000000000000000RA              7122103     000600500000005000000630000003NN  NNW 000                       N    
RDG09004300WATAL000000006K00000000000000001005710222015122947N000100000010N93       000050600K 10000000010000000001           
RDG09004300WATBL000000006K00000000000021329005810222015122955N000400000010N93       000080600K 10000000010000021083           
CUS0900430000109435856001         RED CROSS           4800 MT HOPE DR                         000N        CARE OF             
MTR09004300001000000000000000RA              8047228     000600510000005100000380000000NN  NNW 000   FIRE SERVICE        N    
RDG09004300WATRL000000006K00000000000000003005910222015122958N000000000000N93       000030600K 10000000010000000003           
CUS0900430000109435858007         RED CROSS           4800 MT HOPE DR                         000N        CARE OF             
MTR09004300001000000000000000RA              01117171    000200520000005200000610000000NN  NNW 000                       N    
RDG09004300WATRL000000005K00000000000003410006010222015123002N000000000000N93       000040500K 10000000010000003356           
CUS0900430000109445219000         NEW PSALMIST BAPTIST6020 MARIAN DR                          000N        CARE OF             
MTR09004300002000000000000000RA              0807196     000800530000005300000390000000NN  NNW 000                       N    
RDG09004300WATAL000000006K00000000000000020006110222015123008N000100000010N93       000060600K 10000000010000000020           
RDG09004300WATBL000000000K00000000000006994006210222015123020N000400000010N93       000121000K 10000000010000006669           
CUS0900430000109388022007         6000 METRO LLC      6000 METRO DR                           000N        CARE OF             
MTR09004300002000000000000000RA              7164758     000800540000005400000630000003NN  NNW 000   FIRE SERVICE        N    
RDG09004300WATAL000000006K00000000000000061006310222015123032N000100000010N93       000120600K 10000000010000000061           
RDG09004300WATBL000000006K00000000000000062006410222015123038N000400000010N93       000060600K 10000000010000000046           
CUS0900430000109388023005         6000 METRO LLC      6000 METRO DR                           000N        CARE OF             
MTR09004300001000000000000000RA              1414392     000300550000005500000490000003NN  NNW 000                       N    
RDG09004300WATRL000000005K00000000000004299006510222015123042N000000000000N93       000040500K 10000000010000004181           
CUS0900430000109429367007         BALTIMORE ASSOCIATIO6151 METRO DR                           000N        CARE OF             
MTR09004300002000000000000000RA              70073525    000800560000005600000560000003NN  NNW 000                       N    
RDG09004300WATAL000000006K00000000000005337006610222015123051N000100000010N93       000090600K 10000000010000005337           
RDG09004300WATBL000000006K00000000000030114006710222015123105N000400000010N93       000140600K 10000000010000029582           
CUS0900430000109388119001         NAACP               4805 MT HOPE DR                         000N        CARE OF             
MTR09004300002000000000000000RA              99999999    000800570000005700000440000003NN  NNW 000   FIRE SERVICE        N    
RDG09004300WATAL000000006K00000000000000015006810222015123109N000000000000N93       000040600K 10000000010000000015           
RDG09004300WATBL000000006K00000000000000924006910222015123116N000100000010N93       000070600K 10000000010000000924           
CUS0900430000109388120009         NAACP               4805 MT HOPE DR                         000N        CARE OF             
MTR09004300001000000000000000RA              9305950     000300580000005800000640000003NN  NNW 000                       N    
RDG09004300WATRL000000005K00000000000013228007010222015123121N000000000000N93       000050500K 10000000010000013086           
CUS0900430000109435271003         HEARING AND SPEECH A5900 METRO DR                           000N        CARE OF             
MTR09004300001000000000000000RA              8047536     000600590000005900000380000000NN  NNW 000   FIRE SERVICE        N    
RDG09004300WATRL000000006K00000000000000005007110222015123127N000000000000N93       000060600K 10000000010000000005           
CUS0900430000109435273009         HEARING AND SPEECH A5900 METRO DR                           000N        CARE OF             
MTR09004300001000000000000000RA              60795966    000300600000006000000470000000NN  NNW 000                       N    
RDG09004300WATRL000000005K00000000000001155007210222015123140N000300000010N93       000130500K 10000000010000001115           
CUS0900430000109388428006         BTU LOCAL 340       5800 METRO DR                           000N        CARE OF             
MTR09004300001000000000000000RA              99169956    000200610000006100000570000003NN  NNW 000                       N    
RDG09004300WATRL000000005K00000000000003709007310222015123144N000000000000N93       000040500K 10000000010000003652           
CUS0900430000109382487008         LOCHEARN NURSING HOM4800 SETON DR                           000N        CARE OF             
MTR09004300002000000000000000RA              7116847     000800620000006200000630000003NN  NNW 000                       N    
RDG09004300WATAL000000006K00000000000000039007410222015123152N000100000010N93       000080600K 10000000010000000039           
RDG09004300WATBL000000006K00000000000038892007510222015123204N000400000010N93       000120600K 10000000010000036119           
CUS0900430000109382031004         MERRITT-072, LLC    4820 SETON DR                           000N        CARE OF             
MTR09004300002000000000000000RA              7102432     000800630000006300000540000003NN  NNW 000   FIRE SERVICE        N    
RDG09004300WATAL000000006K00000000000000003007610222015123208N000000000000N93       000040600K 10000000010000000003           
RDG09004300WATBL000000006K00000000000000021007710222015123215N000400000010N93       000070600K 10000000010000000010           
CUS0900430000109382032002         MERRITT-072, LLC    4820 SETON DR                           000N        CARE OF             
MTR09004300001000000000000000RA              1332582     001500640000006400000490000003NN  NNW 000                       N    
RDG09004300WATRL000000005K00000000000002753007810222015123229N000000000000N93       000140500K 10000000010000002652           
CUS0900430000109361989008         MASS TRANSIT ADM    6401 WABASH AVE                         000N        CARE OF             
MTR09004300001000000000000000RA              01105569    000200650000006500000610000000NN  NNW 000                       N    
RDG09004300WATRL000000005K00000000000001283007910222015123234N000000000000N93       000050500K 10000000010000001245           
CUS0900430000109396824006         GOVERNMENT PROPERTIE4201 PATTERSON AVE                      000N        CARE OF             
MTR09004300001000000000000000RA              0911535     000300660000006600000640000003NN  NNW 000                       N    
RDG09004300WATRL000000005K00000000000005540008010222015123244N000000000000N93       000100500K 10000000010000005336           
CUS0900430000109396825003         GOVERNMENT PROPERTIE4201 PATTERSON AVE                      000N        CARE OF             
MTR09004300001000000000000000RA              E23077      000600670000006700000430000003NN  NNW 000   FIRE SERVICE        N    
RDG09004300WATRL000000006K00000000000000000008110222015123246N000000000000N93       000020600K 10000000010000000000           
CUS0900430000109257286006         P & R ASSOCIATES    4115-73 PATTERSON AVE                   000N        CARE OF             
MTR09004300001000000000000000RA              01105830    000200680000006800000610000003NN  NNW 000                       N    
RDG09004300WATRL000000005K00000000000021167008210222015123318N000000000000N93       000320500K 10000000010000020743           
CUS0900430000109407150003         RESNICK, GLENN C    6144 REISTERSTOWN RD                    000N        CARE OF             
MTR09004300001000000000000000RA              00066911    001500690000006900000570000003NN  NNW 000                       N    
RDG09004300WATRL000000005K00000000000000599008310222015123322N000000000000N93       000040500K 10000000010000000588           
CUS0900430000109407148007         RESNICK, GLENN C    6144 REISTERSTOWN RD                    000N        CARE OF             
MTR09004300001000000000000000RA              8026530     000600700000007000000340000003NN  NNW 000   FIRE SERVICE        N    
RDG09004300WATRL000000006K00000000000000004008410222015123329N000000000000N93       000070600K 10000000010000000004           
CUS0900430000109402674007         FILAMACIC PROPERTIES4115 AMOS AVE                           000N        CARE OF             
MTR09004300001000000000000000RA              47377000    000100710000007100000520000003NN  NNW 000                       N    
RDG09004300WATRL000000004K00000000000002280008510222015123335N000000000000N93       000060400K 10000000010000002268           
CUS0900430000109402672001         FILAMACIC PROPERTIES4115 AMOS AVE                           000N        CARE OF             
MTR09004300001000000000000000RA              5183737     000600720000007200000410000003NN  NNW 000   FIRE SERVICE        N    
RDG09004300WATRL000000006K00000000000000000008610222015123337N000000000000N93       000020600K 10000000010000000000           
CUS0900430000109406972001         FILAMATIC PROPERTIES4130 AMOS AVE                           000N        CARE OF             
MTR09004300001000000000000000RA              29256925    001500730000007300000520000003NN  NNW 000                       N    
RDG09004300WATRL000000005K00000000000008021008710222015123545N000000000000N93       001280500K 10000000010000007966           
CUS0900430000109406970005         FILAMATIC PROPERTIES4130 AMOS AVE                           000N        CARE OF             
MTR09004300001000000000000000RA              8027340     000800740000007400000340000003NN  NNW 000   FIRE SERVICE        N    
RDG09004300WATRL000000006K00000000000000008008810222015123548N000000000000N93       000030600K 10000000010000000008           
CUS0900430000109257292004         MENLO INDUSTRIAL PAR4121-37 AMOS AVE                        000N        CARE OF             
MTR09004300001000000000000000RA              27065386    007500750000007500000520000003NN  NNW 000                       N    
RDG09004300WATRL000000004K00000000000002719008910222015123552N000000000000N93       000040400K 10000000010000002698           
CUS0900430000109257291006         WARD-HAINES PARTNERS4121-37 AMOS AVE                        000N        CARE OF             
MTR09004300001000000000000000RA              5921543     000800760000007600000410000003NN  NNW 000   FIRE SERVICE        N    
RDG09004300WATRL000000006K00000000000000085009010222015123557N000000000000N93       000050600K 10000000010000000085           
CUS0900430000109401196002         MENLO INDUSTRIAL PK 6123-27 OAKLEAF AVE                     000N        CARE OF             
MTR09004300001000000000000000RA              41074379    005800770000007700000520000003NN  NNW 000   VACANT PROPERTY     N    
RDG09004300WATRL000000004K00000000000000000009110222015123600N000000000000N93       000030400K 10000000010000000000           
CUS0900430000109401194007         MENLO INDUSTRIAL PK 6123-27 OAKLEAF AVE                     000N        CARE OF             
MTR09004300001000000000000000RA              7197180     000800780000007800000340000003NN  NNW 000   FIRE SERVICE        N    
RDG09004300WATRL000000006K00000000000000000009210222015123602N000000000000N93       000020600K 10000000010000000000           
CUS0900430000109257290008         ABRAHAM BAMBERGER & 4110-12 PINKNEY RD                      000N        CARE OF             
MTR09004300001000000000000000RA              35105445    007500790000007900000520000003NY  NNW 000                       N    
MTM0900430035105445    trailer                                                                                                
RDG09004300WATRL000000004K00000000000000000000000000000000000 000000000000U         000000400  10000000010000003794           
CUS0900430000109257289000         ABRAHAM BAMBERGER & 4110-12 PINKNEY RD                      000N        CARE OF             
MTR09004300001000000000000000RA              4373446     000600800000008000000410000003NY  NNW 000   FIRE SERVICE        N    
MTM090043004373446     trailer                                                                                                
RDG09004300WATRL000000006K00000000000000000000000000000000000 000000000000U         000000600  10000000010000000000           
CUS0900430000109257293002         MENLO INDUST PK INC 6101 OAKLEAF AVE                        000N        CARE OF             
MTR09004300001000000000000000RA              30001811    007500810000008100000570000003NN  NNW 000                       N    
RDG09004300WATRL000000004K00000000000000353009310222015123621N000000000000N93       000190400K 10000000010000000341           
CUS0900430000109257299009         SCHLEIDER, J. LEONAR5805 OAKLEAF AVE                        000N        CARE OF             
MTR09004300001000000000000000RA              99170711    000200820000008200000570000003NN  NNW 000                       N    
RDG09004300WATRL000000005K00000000000009211009410222015123625N000000000000N93       000040500K 10000000010000009117           
CUS0900430000109400016003         PEOPLE ENCOURAGING P4201 PRIMROSE AVE                       000N        CARE OF             
MTR09004300001000000000000000RA              29066898    000200830000008300000520000003NN  NNW 000                       N    
RDG09004300WATRL000000005K00000000000018677009510222015123631N000000000000N93       000060500K 10000000010000018534           
CUS0900430000109400014008         PEOPLE ENCOURAGING  4201 PRIMROSE AVE                       000N        CARE OF             
MTR09004300001000000000000000RA              7197055     000400840000008400000340000003NN  NNW 000   FIRE SERVICE        N    
RDG09004300WATRL000000006K00000000000000000009610222015123634N000000000000N93       000030600K 10000000010000000000           
CUS0900430000109257298001         DEE KAY & SONS, LLC 5810 REISTERSTOWN RD                    000N        CARE OF             
MTR09004300001000000000000000RA              1414380     000300850000008500000490000003NN  NNW 000                       N    
RDG09004300WATRL000000005K00000000000022280009710222015123638N000000000000N93       000040500K 10000000010000021163           
CUS0900430000109257295007         ETERNAL LIFE FULL GO4207 MENLO DR                           000N        CARE OF             
MTR09004300001000000000000000RA              33731357    007500860000008600000520000003NN  NNW 000   VACANT PROPERTY     N    
RDG09004300WATRL000000004K00000000000009700009810222015123643N000000000000N93       000050400K 10000000010000009700           
CUS0900430000109257294000         ETERNAL LIFE FULL GO4207 MENLO DR                           000N        CARE OF             
MTR09004300001000000000000000RA              4832848     000600870000008700000410000003NN  NNW 000   FIRE SERVICE        N    
RDG09004300WATRL000000006K00000000000000397009910222015123656N000000000000N93       000130600K 10000000010000000397           
CUS0900430000109257303009         SOUTHSIDE OIL, LLC  5600-04 REISTERSTOWN RD                 000N        CARE OF             
MTR09004300001000000000000000RA              44782186    000100880000008800000520000003NN  NNW 000                       N    
RDG09004300WATRL000000004K00000000000000286010010222015123704N000000000000N93       000080400K 10000000010000000182           
CUS0900430000109438052004         AFRAM INC           5450-58 REISTERSTOWN RD                 000N        CARE OF             
MTR09004300001000000000000000RA              8049350     000400890000008900000380000000NN  NNW 000   FIRE SERVICE        N    
RDG09004300WATRL000000006K00000000000000000010110222015123707N000000000000N93       000030600K 10000000010000000000           
CUS0900430000109257304007         EMPOWERMENT TEMPLE, 4214 MORTIMER AVE                       000N        CARE OF             
MTR09004300001000000000000000RA              99170709    000200900000009000000570000003NY  NNW 000                       N    
MTM0900430099170709    no access                                                                                              
RDG09004300WATRL000000005K00000000000000000000000000000000000 000000000000U         000000500  10000000010000001658           
CUS0900430000109257306002         EMPOWERMENT TEMPLE, 4214 MORTIMER AVE                       000N        CARE OF             
MTR09004300001000000000000000RA              99409945    000100910000009100000570000003NN  NNW 000                       N    
RDG09004300WATRL000000004K00000000000002720010210222015123718N000000000000N93       000110400K 10000000010000002720           
CUS0900430000109257305004         EMPOWERMENT TEMPLE, 4214 MORTIMER AVE                       000N        CARE OF             
MTR09004300001000000000000000RA              2530353     000600920000009200000410000003NN  NNW 000   FIRE SERVICE        N    
RDG09004300WATRL000000006K00000000000000001010310222015123722N000000000000N93       000040600K 10000000010000000001           
CUS0900430000109257309006         MCDONALD'S #2099/ ST4205-15 MORTIMER AVE                    000N        CARE OF             
MTR09004300001000000000000000RA              31938297    001500930000009300000520000003NN  NNW 000                       N    
RDG09004300WATRL000000005K00000000000026437010410222015123741N000000000000N93       000190500K 10000000010000026250           
CUS0900430000109257308008         S S S PARTNERSHIP   4205-15 MORTIMER AVE                    000N        CARE OF             
MTR09004300001000000000000000RA              2919367     000400940000009400000410000003NN  NNW 000   FIRE SERVICE        N    
RDG09004300WATRL000000006K00000000000000018010510222015123749N000100000010N93       000080600K 10000000010000000018           
CUS0900430000109358966001         MASS TRANSIT ADMINS 4390 W NORTHERN PKWY                    000N        CARE OF             
MTR09004300001000000000000000RA              70915845    000600950000009500000470000003NN  NNW 000                       N    
RDG09004300WATRL000000006K00000000000006555010610222015123800N000400000010N93       000110600K 10000000010000006439           
CUS0900430000109358965003         MASS TRAN ADM       4390 W NORTHERN PKWY                    000N        CARE OF             
MTR09004300002000000000000000RA              7012515     001000960000009600000480000003NN  NNW 000   FIRE SERVICE        N    
RDG09004300WATAL000000007K00000000000000000010710222015123820N000000000000N93       000200700K 10000000010000000000           
RDG09004300WATBL000000007K00000000000000181010810222015123834N000100000010N93       000140700K 10000000010000000181           
CUS0900430000109257315003         DEPT. OF EDUCATION  5545 KENNISON AVE                       000N        CARE OF             
MTR09004300001000000000000000RA              11800794    000400970000009700000640000003NN  NNW 000                       N    
RDG09004300WATRL000000006K00000000000002504000310232015120257N000300000010U93       001770600K 10000000010000001209           
CUS0900430000109257317009         TILLMAN, SANDRA C   4805 GARRISON BLVD                      000N        CARE OF             
MTR09004300001000000000000000RA              00165731    000100980000009800000570000003NN  NNW 000                       N    
RDG09004300WATRL000000004K00000000000001930000410232015120307N000300000010U93       000100400K 10000000010000000699           
CUS0900430000109257318007         BLUE OCEAN BELVIEU, 3915-21 BELVIEU AVE                     000N        CARE OF             
MTR09004300001000000000000000RA              90000511    000200990000009900000570000003NN  NNW 000                       N    
RDG09004300WATRL000000005K00000000000000981000510232015120315N000000000000U93       000080500K 10000000010000000817           
CUS0900430000109257319005         BLUE OCEAN BELVIEU, 4610-14 WALLINGTON AVE                  000N        CARE OF             
MTR09004300001000000000000000RA              14921052    001501000000010000000310000003NN  NNW 000                       N    
RDG09004300WATRL000000005K00000000000000000000610232015120322S005000000000U93       000070500K 10000000010000011242           
CUS0900430000109257328006         DOLFIELD COURT, LLC 3917 DOLFIELD AVE                       000N        CARE OF             
MTR09004300001000000000000000RA              31938329    000201010000010100000520000003NN  NNW 000                       N    
RDG09004300WATRL000000005K00000000000027405000710232015120329N000000000000U93       000070500K 10000000010000026942           
CUS0900430000109257331000         MILTON EZRINE ETAL  5000 WABASH AVE                         000N        CARE OF             
MTR09004300001000000000000000RA              35115400    005801020000010200000520000003NN  NNW 000                       N    
RDG09004300WATRL000000004K00000000000004687000810232015120333N000000000000U93       000040400K 10000000010000004568           
CUS0900430000109257330002         MILTON EZRINE ETAL  5000 WABASH AVE                         000N        CARE OF             
MTR09004300001000000000000000RA              4913603     000601030000010300000410000003NN  NNW 000   FIRE SERVICE        N    
RDG09004300WATRL000000006K00000000000008002000910232015120344N000000000000U93       000110600K 10000000010000007963           
CUS0900430000109257333006         MILTON EZRINE ETAL  5000 WABASH AVE                         000N        CARE OF             
MTR09004300001000000000000000RA              45388858    007501040000010400000520000003NN  NNW 000                       N    
RDG09004300WATRL000000004K00000000000001531001010232015120402N000400000021U93       000110400K 10000000010000001485           
CUS0900430000109433874006         ST TIMOTHY BAPTIST C4005 GROVELAND AVE                      000N        CARE OF             
MTR09004300001000000000000000RA              8046049     000401050000010500000380000000NN  NNW 000   FIRE SERVICE        N    
RDG09004300WATRL000000006K00000000000000590001110232015120411N000000000000U93       000090600K 10000000010000000590           
CUS0900430000109433873008         ST TIMOTHY BAPTIST C4005 GROVELAND AVE                      000N        CARE OF             
MTR09004300001000000000000000RA              00066752    000201060000010600000570000000NN  NNW 000                       N    
RDG09004300WATRL000000005K00000000000001371001210232015120415N000000000000U93       000040500K 10000000010000001292           
CUS0900430000109435353009         BRINTON WOODS SENIOR3939 PENHURST AVE                       000N        CARE OF             
MTR09004300001000000000000000RA              0911739     000401070000010700000640000003NN  NNW 000                       N    
RDG09004300WATRL000000006K00000000000011468001310232015120426N000000000000U93       000110600K 10000000010000010630           
CUS0900430000109257323007         DEPT. OF EDUCATION  3915 FERNHILL AVE                       000N        CARE OF             
MTR09004300001000000000000000RA              33734226    000201080000010800000520000003NN  NNW 000                       N    
RDG09004300WATRL000000005K00000000000013535001410232015120432N000000000000U93       000060500K 10000000010000013135           
CUS0900430000109435351003         HAVEN NURSING HOME  3939 PENHURST AVE                       000N        CARE OF             
MTR09004300001000000000000000RA              8047262     000601090000010900000380000003NN  NNW 000   FIRE SERVICE        N    
RDG09004300WATRL000000006K00000000000000042001510232015120437N000000000000U93       000050600K 10000000010000000042           
CUS0900430000109257322009         BUR OF CONSTRUCT MGM4411 GARRISON BLVD                      000N        CARE OF             
MTR09004300002000000000000000RA              4574058     000601100000011000000630000003NN  NNW 000                       N    
RDG09004300WATAL000000006K00000000000000097001610232015120443N000100000010U93       000060600K 10000000010000000097           
RDG09004300WATBL000000006K00000000000004912001710232015120453N000400000010U93       000100600K 10000000010000004692           
CUS0900430000109257327008         ECOVA INC MS-3699   3917 W COLD SPRING LN                   000N        CARE OF             
MTR09004300001000000000000000RA              35101283    001501110000011100000520000003NN  NNW 000                       N    
RDG09004300WATRL000000005K00000000000062284001810232015120459N000000000000U93       000060500K 10000000010000062224           
CUS0900430000109257324005         NARAYANSWARUP, LLC  3911 W COLD SPRING LN                   000N        CARE OF             
MTR09004300001000000000000000RA              3051279     000401120000011200000410000003NN  NNW 000   FIRE SERVICE        N    
RDG09004300WATRL000000006K00000000000000000001910232015120506N000000000000U93       000070600K 10000000010000000000           
CUS0900430000109257326000         C&P TELEPHONE CO    3917 W COLD SPRING LN                   000N        CARE OF             
MTR09004300001000000000000000RA              4918921     000401130000011300000410000003NN  NNW 000   FIRE SERVICE        N    
RDG09004300WATRL000000006K00000000000000094002010232015120509N000000000000U93       000030600K 10000000010000000094           
CUS0900430000109257325002         NARAYANSWARUP, LLC  3911 W COLD SPRING LN                   000N        CARE OF             
MTR09004300001000000000000000RA              32905069    001501140000011400000520000003NN  NNW 000   VACANT PROPERTY     N    
RDG09004300WATRL000000005K00000000000000507002110232015120513N000000000000U93       000040500K 10000000010000000507           
CUS0900430000109434493004         ALDI INC            3601 W COLD SPRING LN                   000N        CARE OF             
MTR09004300001000000000000000RA              8047551     000601150000011500000380000000NN  NNW 000   FIRE SERVICE        N    
RDG09004300WATRL000000006K00000000000000000002210232015120516N000000000000U93       000030600K 10000000010000000000           
CUS0900430000109434495009         ALDI INC-#31        3601 W COLD SPRING LN                   000N        CARE OF             
MTR09004300001000000000000000RA              99412385    007501160000011600000570000000NN  NNW 000                       N    
RDG09004300WATRL000000004K00000000000001280002310232015120518N000000000000U93       000020400K 10000000010000001245           
CUS0900430000109257335001         BUR OF INSPECTION   3701 FERNHILL AVE                       000N        CARE OF             
MTR09004300001000000000000000RA              7121837     000401170000011700000640000003NN  NNW 000                       N    
RDG09004300WATRL000000006K00000000000012079002410232015120529N000000000000U93       000110600K 10000000010000010426           
CUS0900430000109257329004         DOLFIELD REALTY LLC 3701-63 CRESTFIELD CT                   000N        CARE OF             
MTR09004300001000000000000000RA              7126083     000301180000011800000640000003NN  NNW 000                       N    
RDG09004300WATRL000000005K00000000000096175002510232015120536N000000000000U93       000070500K 10000000010000095356           
CUS0900430000109257334004         DOLFIELD REALTY LLC 3701-57 DOLFIELD AVE                    000N        CARE OF             
MTR09004300001000000000000000RA              1362078     000301190000011900000490000003NN  NNW 000                       N    
RDG09004300WATRL000000005K00000000000053831002610232015120545N000100000010U93       000090500K 10000000010000053831           
CUS0900430000109257332008         BUREAU OF GENERAL SE4410 LEWIN AVE                          000N        CARE OF             
MTR09004300001000000000000000RA              99170734    000201200000012000000570000003NN  NNW 000                       N    
RDG09004300WATRL000000005K00000000000001078002710232015120556N000000000000U93       000110500K 10000000010000001070           
CUS0900430000109257336009         FLEMING TRANSPORTATI4411 WABASH AVE                         000N        CARE OF             
MTR09004300001000000000000000RA              71810997    000201210000012100000490000003NN  NNW 000                       N    
RDG09004300WATRL000000005K00000000000000245002810232015120604N000000000000U93       000080500K 10000000010000000224           
CUS0900430000109257339003         UNITED STATES POSTAL3500 DOLFIELD AVE                       000N        CARE OF             
MTR09004300001000000000000000RA              31058591    001501220000012200000520000003NN  NNW 000                       N    
RDG09004300WATRL000000005K00000000000014347002910232015120640N000000000001U93       000250500K 10000000010000014287           
CUS0900430000109257338005         U S POSTAL SERVICE  3500 DOLFIELD AVE                       000N        CARE OF             
MTR09004300001000000000000000RA              2939974     000601230000012300000410000003NN  NNW 000   FIRE SERVICE        N    
RDG09004300WATRL000000006K00000000000000000003010232015120615N000000000000U93       000060600K 10000000010000000000           
CUS0900430000109430215005         EPSILON OMEGA FOUNDA3515 DOLFIELD AVE                       000N        CARE OF             
MTR09004300002000000000000000RA              7180224     000401240000012400000630000003NN  NNW 000                       N    
RDG09004300WATAL000000006K00000000000000000003110232015120649N000100000010U93       000090600K 10000000010000000000           
RDG09004300WATBL000000006K00000000000000247003210232015120656N000400000010U93       000070600K 10000000010000000235           
CUS0900430000109385486007         MARCH INVESTMENT    4300 WABASH AVE                         000N        CARE OF             
MTR09004300001000000000000000RA              35101376    000201250000012500000520000003NN  NNW 000                       N    
RDG09004300WATRL000000005K00000000000011404003310232015120701N000000000000U93       000050500K 10000000010000011333           
CUS0900430000109385485009         MARCH INVESTMENT    4300 WABASH AVE                         000N        CARE OF             
MTR09004300001000000000000000RA              E17891      000401260000012600000430000003NN  NNW 000   FIRE SERVICE        N    
RDG09004300WATRL000000006K00000000000000000003410232015120704N000000000000U93       000030600K 10000000010000000000           
CUS0900430000109257341009         ASHBURTON WOODS LTD 3901-03 EDGEWOOD RD                     000N        CARE OF             
MTR09004300001000000000000000RA              1414251     000201270000012700000490000003NN  NNW 000                       N    
RDG09004300WATRL000000005K00000000000063140003510232015120710N000000000000U93       000060500K 10000000010000062090           
CUS0900430000109257342007         ASHBURTON WOODS LTD 3905-09 EDGEWOOD RD                     000N        CARE OF             
MTR09004300001000000000000000RA              1236825     000201280000012800000490000003NN  NNW 000                       N    
RDG09004300WATRL000000005K00000000000058415003610232015120724N000000000000U93       000140500K 10000000010000057451           
CUS0900430000109420446008         DEP OF EDUCATION    3935 HILTON RD                          000N        CARE OF             
MTR09004300001000000000000000RA              8037162     000801290000012900000380000003NN  NNW 000   CITY FIRE SERV      N    
RDG09004300WATRL000000006K00000000000007582003710232015120734N000100000010U93       000100600K 10000000010000007582           
CUS0900430000109420448004         DEPT OF EDUCATION   3935 HILTON RD                          000N        CARE OF             
MTR09004300002000000000000000RA              14931008    000401300000013000000630000003NY  NNW 000                       N    
MTM0900430014931008    read ok                                                                                                
RDG09004300WATAL000000006K00000000000000000003810232015120747N000300000010U93       000130600K 10000000010000000005           
RDG09004300WATBL000000006K00000000000006888003910232015120804N000400000010U93       000170600K 10000000010000006001           
CUS0900430000109257344003         ASHBURTON WOODS LTD 3300-18 DOLFIELD AVE                    000N        CARE OF             
MTR09004300001000000000000000RA              31588450    000201310000013100000520000003NN  NNW 000                       N    
RDG09004300WATRL000000005K00000000000090516004010232015120810N000000000000U93       000060500K 10000000010000090069           
CUS0900430000109257345000         WABASH MANOR, LLC   3801-11 WABASH AVE                      000N        CARE OF             
MTR09004300001000000000000000RA              1151959     000301320000013200000490000003NN  NNW 000                       N    
RDG09004300WATRL000000005K00000000000009664004110232015120815N000000000000U93       000050500K 10000000010000008470           
CUS0900430000109257346008         STABNOW, WILLIAM R  3520 HILTON RD                          000N        CARE OF             
MTR09004300001000000000000000RA              99409613    000101330000013300000570000003NN  NNW 000                       N    
RDG09004300WATRL000000004K00000000000001016004210232015120820N000000000000U93       000050400K 10000000010000001011           
CUS0900430000109427183000         MADISON BISHOP S C T3401 EDGEWOOD RD                        000N        CARE OF             
MTR09004300001000000000000000RA              8042477     000601340000013400000380000003NN  NNW 000   FIRE SERVICE        N    
RDG09004300WATRL000000006K00000000000000014004310232015120828N000100000010U93       000080600K 10000000010000000014           
CUS0900430000109427185005         MADISON BISHOP S.C. 3401 EDGEWOOD RD                        000N        CARE OF             
MTR09004300001000000000000000RA              61858448    000401350000013500000470000003NN  NNW 000                       N    
RDG09004300WATRL000000006K00000000000011001004410232015120852N000000000010U93       000240600K 10000000010000010933           
CUS0900430000109257348004         BALTO CITY COMMUNITY2901 LIBERTY HTS AVE                    000N        CARE OF             
MTR09004300002000000000000000RA              4085399     000801360000013600000540000003NY  NNW 000                       N    
MTM090043004085399     read ok                                                                                                
RDG09004300WATAL000000006K00000000000000012004510232015120910N000300000010U93       000180600K 10000000010000000019           
RDG09004300WATBL000000006K00000000000045557004610232015120927N000400000010U93       000170600K 10000000010000040326           
CUS0900430000109257350000         THE ROUSE COMPANY   2435 LIBERTY HTS AVE                    000N        CARE OF             
MTR09004300001000000000000000RA              1153307     000401370000013700000490000003NN  NNW 000                       N    
RDG09004300WATRL000000006K00000000000037878004710232015120934N000000000000U93       000070600K 10000000010000034425           
CUS0900430000109457399005         JACK MOTT HOSPITALIT2401 LIBERTY HTS AVE                    000N        CARE OF             
MTR09004300001000000000000000RA              60900637    000201380000013800000570000003NN  NNW 000                       N    
RDG09004300WATRL000000005K00000000000000000004810232015120938N000000000000U93       000040500K 10000000010000000000           
CUS0900430000109457397009         JACK MOTT HOSPITALIT2401 LIBERTY HTS AVE                    000N        CARE OF             
MTR09004300001000000000000000RA              1200825     000601390000013900000570000003NN  NNW 000   FIRE SERVICE        N    
RDG09004300WATRL000000006K00000000000000000004910232015120943N000000000000U93       000050600K 10000000010000000000           
CUS0900430000109428811005         BON SECOURS LIBERTY 3000 TOWANDA AVE                        000N        CARE OF             
MTR09004300001000000000000000RA              8043971     000601400000014000000380000000NN  NNW 000   FIRE SERVICE        N    
RDG09004300WATRL000000006K00000000000000000005010232015120947N000000000000U93       000040600K 10000000010000000000           
CUS0900430000109428813001         BON SECOURS LBRTY VI3000 TOWANDA AVE                        000N        CARE OF             
MTR09004300001000000000000000RA              9012807     000301410000014100000640000000NN  NNW 000                       N    
RDG09004300WATRL000000005K00000000000004364005110232015121005N000300000010U93       000180500K 10000000010000004368           
CUS0900430000109257354002         STATE OF MARYLAND   3101 TOWANDA AVE                        000N        CARE OF             
MTR09004300001000000000000000RA              0911529     000301420000014200000640000003NN  NNW 000                       N    
RDG09004300WATRL000000005K00000000000003519005210232015121031N000300000010U93       000260500K 10000000010000003111           
CUS0900430000109257358003         MICHAEL FELDER      3230 REISTERSTOWN RD                    000N        CARE OF             
MTR09004300001000000000000000RA              35109414    000201430000014300000520000003NN  NNW 000   VACANT PROPERTY     N    
RDG09004300WATRL000000005K00000000000000000005310232015121036S005000000000U93       000050500K 10000000010000008452           
CUS0900430000109257359001         3000 REISTERSTOWN RO3000 REISTERSTOWN RD                    000N        CARE OF             
MTR09004300001000000000000000RA              14920988    001501440000014400000310000003NN  NNW 000                       N    
RDG09004300WATRL000000005K00000000000024037005410232015121042N000000000000U93       000060500K 10000000010000023372           
CUS0900430000109257357005         2910 REISTERSTOWN LL2906-10 REISTERSTOWN RD                 000N        CARE OF             
MTR09004300001000000000000000RA              1178033     000201450000014500000490000003NN  NNW 000                       N    
RDG09004300WATRL000000005K00000000000000448005510232015121054N000300000010U93       000120500K 10000000010000000080           
CUS0900430000109398871005         NURAD TECHNOLOGICS I3310 CARLINS PARK DR                    000N        CARE OF             
MTR09004300001000000000000000RA              0911527     000301460000014600000640000003NN  NNW 000                       N    
RDG09004300WATRL000000005K00000000000003115005610232015121105N000000000000U93       000110500K 10000000010000003015           
CUS0900430000109398869009         NURAD TECHOLOGIES IN3310 CARLINS PARK DR                    000N        CARE OF             
MTR09004300001000000000000000RA              E22886      000601470000014700000430000003NN  NNW 000   FIRE SERVICE        N    
RDG09004300WATRL000000006K00000000000009998005710232015121110N000000000000U93       000050600K 10000000010000009998           
CUS0900430000109257355009         PARK CIRCLE BUSINESS2901 DRUID PARK DR                      000N        CARE OF             
MTR09004300001000000000000000RA              24625534    000201480000014800000520000003NN  NNW 000                       N    
RDG09004300WATRL000000005K00000000000022742005810232015121116N000000000000U93       000060500K 10000000010000022742           
CUS0900430000109368800000         PARK CIRCLE BUSINESS2901 DRUID PARK DR                      000N        CARE OF             
MTR09004300001000000000000000RA              01105777    000201490000014900000610000003NN  NNW 000                       N    
RDG09004300WATRL000000005K00000000000006900005910232015121120N000000000000U93       000040500K 10000000010000006767           
CUS0900430000109368832003         PARK CIRCLE BUSINESS2901 DRUID PARK DR                      000N        CARE OF             
MTR09004300001000000000000000RA              E16213      000601500000015000000430000003NN  NNW 000   FIRE SERVICE        N    
RDG09004300WATRL000000006K00000000000000000006010232015121129N000000000010U93       000090600K 10000000010000000008           
