FHDNNNN018004554004554004554N                                                                                           016201
RHD08514000NN01750175000001750000000001750175000272NY017501750175000200010000000000000000000002    10072015NY020000 N         
CUS0851400000108006122009         WIENER ROBERT L     1901 HAMMONDS FERRY RD                  000N        CARE OF             
MTR08514000001000000000000000RA              30524791    005800010000000100000520000003NN  NNW 000                       N    
RDG08514000WATRL000000004K00000000000001666000310192015090135N000400000010U40       000430400K 10000000010000001663           
CUS0851400000108006123007         ROBERTS WILLIAM P,3R1900 HAMMONDS FERRY RD                  000N        CARE OF             
MTR08514000001000000000000000RA              3504241     005800020000000200000530000003NN  NNW 000                       N    
RDG08514000WATRL000000004K00000000000000614000210192015090052N000000000010U40       000540400K 10000000010000000698           
CUS0851400000108006124005         ROBERTS WILLIAM P,3R1902 HAMMONDS FERRY RD                  000N        CARE OF             
MTR08514000001000000000000000RA              99289762    005800030000000300000570000003NN  NNW 000   VACANT / LOT        N    
RDG08514000WATRL000000004K00000000000000000000110192015085958N000000000000U40       000000400K 10000000010000000000           
CUS0851400000108006125002         HEIM JUSTIN         1903 HAMMONDS FERRY RD                  000N        CARE OF             
MTR08514000001000000000000000RA              24234047    005800040000000400000520000003NN  NNW 000                       N    
RDG08514000WATRL000000004K00000000000003721000510192015090233N000300000010U40       000140400K 10000000010000003701           
CUS0851400000108006126000         APPLEBY ANDRES L    1905 HAMMONDS FERRY RD                  000N        CARE OF             
MTR08514000001000000000000000RA              26012251    005800050000000500000520000003NN  NNW 000                       N    
RDG08514000WATRL000000004K00000000000002001000410192015090219N000000000000U40       000440400K 10000000010000002001           
CUS0851400000108006127008         HENSLEY JEFFREY A   1907 HAMMONDS FERRY RD                  000N        CARE OF             
MTR08514000001000000000000000RA              36691228    005800060000000600000520000003NN  NNW 000                       N    
RDG08514000WATRL000000004K00000000000002372003310192015092203N000300000010U40       001330400K 10000000010000002381           
CUS0851400000108006128006         FERRIS DANNY A      3218 ROSALIE RD                         000N        CARE OF             
MTR08514000001000000000000000RA              27828310    005800070000000700000520000003NN  NNW 000                       N    
RDG08514000WATRL000000004K00000000000002907000610192015090350N000000000000U40       000770400K 10000000010000002886           
CUS0851400000108006129004         WILLIAMS BARBARA J/R3216 ROSALIE RD                         000N        CARE OF             
MTR08514000001000000000000000RA              31584854    005800080000000800000520000003NN  NNW 000                       N    
RDG08514000WATRL000000004K00000000000001518000910192015090551N000000000000U40       000380400K 10000000010000001502           
CUS0851400000108006130002         MELDROM ROBERT T    3214 ROSALIE RD                         000N        CARE OF             
MTR08514000001000000000000000RA              99290013    005800090000000900000570000003NN  NNW 000                       N    
RDG08514000WATRL000000004K00000000000000799001110192015090730N000300000010U40       000580400K 10000000010000000785           
CUS0851400000108006131000         CUNNINGHAM GLEN D   3212 STANLEY RD                         000N        CARE OF             
MTR08514000001000000000000000RA              11337502    005800100000001000000570000003NN  NNW 000                       N    
RDG08514000WATRL000000004K00000000000004132001210192015090734N000000000000U40       000040400K 10000000010000004123           
CUS0851400000108006132008         HATMAKER VAUGHN RAY 3210 STANLEY RD                         000N        CARE OF             
MTR08514000001000000000000000RA              52769452    005800110000001100000520000003NN  NNW 000                       N    
RDG08514000WATRL000000004K00000000000001814001310192015090810N000000000000U40       000360400K 10000000010000001807           
CUS0851400000108006133006         RIFKIN DAVID        3208 STANLEY RD                         000N        CARE OF             
MTR08514000001000000000000000RA              27132264    005800120000001200000520000003NN  NNW 000                       N    
RDG08514000WATRL000000004K00000000000002185001410192015090851N000000000000U40       000410400K 10000000010000002169           
CUS0851400000108006134004         CLARK RICHARD H     3206 STANLEY RD                         000N        CARE OF             
MTR08514000001000000000000000RA              24764185    005800130000001300000520000003NN  NNW 000                       N    
RDG08514000WATRL000000004K00000000000004380001510192015090928N000300000021U40       000190400K 10000000010000004337           
CUS0851400000108006135001         HORAN VINCENT PATRIC3207 STANLEY RD                         000N        CARE OF             
MTR08514000001000000000000000RA              78021614    005800140000001400000360000003NN  NNW 000                       N    
RDG08514000WATRL000000004K00000000000000000001610192015091009N000000000000U40       000410400K 10000000010000000000           
CUS0851400000108006136009         GILMAN TIMOTHY J,JR 3209 STANLEY RD                         000N        CARE OF             
MTR08514000001000000000000000RA              99287592    005800150000001500000570000003NN  NNW 000                       N    
RDG08514000WATRL000000004K00000000000000806001210242015115519N000000000000U86       002930400K 10000000010000000801           
CUS0851400000108006137007         POTEET MARGARET B   3212 ROSELIE RD                         000N        CARE OF             
MTR08514000001000000000000000RA              27822789    005800160000001600000520000003NN  NNW 000                       N    
RDG08514000WATRL000000004K00000000000002097001810192015091256N000000000000U40       000590400K 10000000010000002080           
CUS0851400000108006138005         BASE CARL V         3210 ROSALIE RD                         000N        CARE OF             
MTR08514000001000000000000000RA              32902434    005800170000001700000520000003NN  NNW 000                       N    
RDG08514000WATRL000000004K00000000000002746001910192015091319N000000000000U40       000230400K 10000000010000002725           
CUS0851400000108006139003         JONES CARL E,3RD    3208 ROSALIE RD                         000N        CARE OF             
MTR08514000001000000000000000RA              27822828    005800180000001800000520000003NN  NNW 000                       N    
RDG08514000WATRL000000004K00000000000003087002010192015091344N000000000000U40       000250400K 10000000010000003076           
CUS0851400000108006140001         GUTIERREZ YADISEL   3206 ROSALIE RD                         000N        CARE OF             
MTR08514000001000000000000000RA              27831304    005800190000001900000520000003NN  NNW 000                       N    
RDG08514000WATRL000000004K00000000000003157002110192015091410N000000000000U40       000260400K 10000000010000003144           
CUS0851400000108006141009         AGUILAR JUAN A      3209 ROSALIE RD                         000N        CARE OF             
MTR08514000001000000000000000RA              01100335    005800200000002000000610000003NN  NNW 000                       N    
RDG08514000WATRL000000004K00000000000000793002210192015091530N000000000000U40       000800400K 10000000010000000774           
CUS0851400000108006142007         ADELSBERGER LEANNE M3211 ROSALIE RD                         000N        CARE OF             
MTR08514000001000000000000000RA              01102064    005800210000002100000610000003NN  NNW 000                       N    
RDG08514000WATRL000000004K00000000000001177002310192015091536N000000000000U40       000060400K 10000000010000001155           
CUS0851400000108006143005         THOMPSON DONALD MELV3213 ROSALIE RD                         000N        CARE OF             
MTR08514000001000000000000000RA              30515587    005800220000002200000520000003NN  NNW 000                       N    
RDG08514000WATRL000000004K00000000000002957002410192015091605N000000000000U40       000290400K 10000000010000002946           
CUS0851400000108006144003         PAPPAS PETE         3215 ROSALIE RD                         000N        CARE OF             
MTR08514000001000000000000000RA              99289529    005800230000002300000570000003NN  NNW 000                       N    
RDG08514000WATRL000000004K00000000000000786002510192015091623N000300000010U40       000180400K 10000000010000000768           
CUS0851400000108006145000         FAYAK KENNETH A     3217 ROSALIE RD                         000N        CARE OF             
MTR08514000001000000000000000RA              11336838    005800240000002400000570000003NN  NNW 000                       N    
RDG08514000WATRL000000004K00000000000001897002610192015091703N000400000020U40       000400400K 10000000010000001895           
CUS0851400000108006146008         DONOGHUE DAVID M    3219 ROSALIE RD                         000N        CARE OF             
MTR08514000001000000000000000RA              44172549    005800250000002500000520000003NN  NNW 000                       N    
RDG08514000WATRL000000004K00000000000000000002710192015091716N000300000010U40       000130400K 10000000010000001083           
CUS0851400000108006147006         SMITH JOHN M        3221 ROSALIE RD                         000N        CARE OF             
MTR08514000001000000000000000RA              52289829    005800260000002600000520000003NN  NNW 000                       N    
RDG08514000WATRL000000004K00000000000001274002810192015091752N000400000010U40       000360400K 10000000010000001265           
CUS0851400000108006148004         MCDONALD JOANN E    3223 ROSALIE RD                         000N        CARE OF             
MTR08514000001000000000000000RA              52768027    005800270000002700000520000003NN  NNW 000                       N    
RDG08514000WATRL000000004K00000000000001879002910192015091816N000000000000U40       000240400K 10000000010000001863           
CUS0851400000108006149002         NOVAK TAMMY L       3225 ROSALIE RD                         000N        CARE OF             
MTR08514000001000000000000000RA              00128318    005800280000002800000570000003NN  NNW 000                       N    
RDG08514000WATRL000000004K00000000000001610003010192015091855N000000000000U40       000390400K 10000000010000001595           
CUS0851400000108006150000         MEEHAN JOSEPH P     3227 ROSALIE RD                         000N        CARE OF             
MTR08514000001000000000000000RA              42809151    005800290000002900000520000003NN  NNW 000                       N    
RDG08514000WATRL000000004K00000000000001670003110192015091915N000000000000U40       000200400K 10000000010000001655           
CUS0851400000108006151008         YOUNG JEFFREY       3229 ROSALIE RD                         000N        CARE OF             
MTR08514000001000000000000000RA              42809107    005800300000003000000520000003NN  NNW 000                       N    
RDG08514000WATRL000000004K00000000000001554003210192015091950N000000000000U40       000350400K 10000000010000001543           
CUS0851400000108006152006         NITSCH MICHAEL LOUIS3231 ROSALIE RD                         000N        CARE OF             
MTR08514000001000000000000000RA              35109040    005800310000003100000520000003NN  NNW 000                       N    
RDG08514000WATRL000000004K00000000000003941001010192015090632N000000000000U40       000410400K 10000000010000003920           
CUS0851400000108006153004         SALYERS PAUL D      3233 ROSALIE RD                         000N        CARE OF             
MTR08514000001000000000000000RA              41087025    005800320000003200000520000003NN  NNW 000                       N    
RDG08514000WATRL000000004K00000000000002343000810192015090513N000000000000U40       000550400K 10000000010000002321           
CUS0851400000108006154002         SPANGENBERG GREGORY 3235 ROSALIE RD                         000N        CARE OF             
MTR08514000001000000000000000RA              27831301    005800330000003300000520000003NN  NNW 000                       N    
RDG08514000WATRL000000004K00000000000002632000710192015090418N000000000000U40       000280400K 10000000010000002624           
CUS0851400000108006155009         FOWLER REMONA G     1909 HAMMONDS FERRY RD                  000N        CARE OF             
MTR08514000001000000000000000RA              40780216    005800340000003400000520000003NN  NNW 000                       N    
RDG08514000WATRL000000004K00000000000001674003410192015092436N000300000010U40       001530400K 10000000010000001397           
CUS0851400000108006156007         MILLER FRANCES  MILL1911 HAMMONDS FERRY RD                  000N        CARE OF             
MTR08514000001000000000000000RA              24767786    005800350000003500000520000003NN  NNW 000                       N    
RDG08514000WATRL000000004K00000000000003976003510192015092629N000000000000U40       001130400K 10000000010000003969           
CUS0851400000108006157005         JOSEPH T & MATTHEW P3301-05 MICHELE CT                      000N        CARE OF             
MTR08514000001000000000000000RA              37690865    000100360000003600000520000003NN  NNW 000                       N    
RDG08514000WATRL000000004K00000000000003689005610192015094704N000000000000U40       001410400K 10000000010000003596           
CUS0851400000108006158003         EMILY N  TOLLE      3214 HILLTOP AVE                        000N        CARE OF             
MTR08514000001000000000000000RA              41075436    005800370000003700000520000000NN  NNW 000                       N    
RDG08514000WATRL000000004K00000000000003651003610192015092850N000000000000U40       001410400K 10000000010000003630           
CUS0851400000108006159001         BLOCKSTON FRANCIS L 3212 HILLTOP AVE                        000N        CARE OF             
MTR08514000001000000000000000RA              01115985    005800380000003800000610000003NN  NNW 000                       N    
RDG08514000WATRL000000004K00000000000002614003910192015093148N000000000000U40       000600400K 10000000010000002561           
CUS0851400000108006160009         BLACK NANCY         3208 HILLTOP AVE                        000N        CARE OF             
MTR08514000001000000000000000RA              9685831     005800390000003900000570000003NN  NNW 000                       N    
RDG08514000WATRL000000004K00000000000002839003710192015093009N000000000000U40       000790400K 10000000010000002817           
CUS0851400000108006161007         MICHAEL SARAH L     3202 HILLTOP AVE                        000N        CARE OF             
MTR08514000001000000000000000RA              10015280    005800400000004000000570000003NN  NNW 000                       N    
RDG08514000WATRL000000004K00000000000001204004210192015093506N000000000000U40       001200400K 10000000010000001195           
CUS0851400000108006162005         STANOVICH STEVEN R  3206 HILLTOP AVE                        000N        CARE OF             
MTR08514000001000000000000000RA              9687933     005800410000004100000570000003NN  NNW 000                       N    
RDG08514000WATRL000000004K00000000000000452004010192015093217N000000000000U40       000290400K 10000000010000000439           
CUS0851400000108006163003         HINKS HARRY H       3204 HILLTOP AVE                        000N        CARE OF             
MTR08514000001000000000000000RA              00128313    005800420000004200000570000003NN  NNW 000                       N    
RDG08514000WATRL000000004K00000000000000715003810192015093252N000000000001U40       000350400K 10000000010000000701           
CUS0851400000108006164001         ALDER JOSHUA PAUL   3118 HILLTOP AVE                        000N        CARE OF             
MTR08514000001000000000000000RA              44173459    005800430000004300000520000003NN  NNW 000                       N    
RDG08514000WATRL000000004K00000000000002536004110192015093601N000000000011U40       000550400K 10000000010000002526           
CUS0851400000108006165008         ASTLE PATRICK M     3116 HILLTOP AVE                        000N        CARE OF             
MTR08514000001000000000000000RA              00128317    005800440000004400000570000003NN  NNW 000                       N    
RDG08514000WATRL000000004K00000000000000396004310192015093607N000000000000U40       000060400K 10000000010000000392           
CUS0851400000108006166006         DELFICO PAUL        3114 HILLTOP AVE                        000N        CARE OF             
MTR08514000001000000000000000RA              41590815    005800450000004500000520000003NN  NNW 000                       N    
RDG08514000WATRL000000004K00000000000003730004410192015093639N000000000000U40       000320400K 10000000010000003701           
CUS0851400000108396677000         KRUG ERIC           3110 HILLTOP AVE                        000N        CARE OF             
MTR08514000001000000000000000RA              52288914    005800460000004600000520000003NN  NNW 000                       N    
RDG08514000WATRL000000004K00000000000001146004510192015093748N000000000000U40       000690400K 10000000010000001129           
CUS0851400000108006167004         PARSONS JOAN        3113 HILLTOP AVE                        000N        CARE OF             
MTR08514000001000000000000000RA              26012980    005800470000004700000520000003NN  NNW 000                       N    
RDG08514000WATRL000000004K00000000000003747004610192015093753N000000000000U40       000050400K 10000000010000003718           
CUS0851400000108006168002         JOHNSON TROY        3115 HILLTOP AVE                        000N        CARE OF             
MTR08514000001000000000000000RA              26016957    005800480000004800000520000003NN  NNW 000                       N    
RDG08514000WATRL000000004K00000000000003615004710192015093943N000400000010U40       001100400K 10000000010000003613           
CUS0851400000108006169000         LYTWYNEC DAVID T    3117 HILLTOP AVE                        000N        CARE OF             
MTR08514000001000000000000000RA              41081411    005800490000004900000520000003NN  NNW 000                       N    
RDG08514000WATRL000000004K00000000000001152004810192015094045N000000000000U40       000620400K 10000000010000001144           
CUS0851400000108006170008         LANAHAN TIMOTHY STEP2003 FORD LN                            000N        CARE OF             
MTR08514000001000000000000000RA              44176269    005800500000005000000520000003NN  NNW 000                       N    
RDG08514000WATRL000000004K00000000000001661004910192015094108N000000000000U40       000230400K 10000000010000001650           
CUS0851400000108006171006         RANKIN CRAIG A      3201 HILLTOP AVE                        000N        CARE OF             
MTR08514000001000000000000000RA              26016703    005800510000005100000520000003NN  NNW 000                       N    
RDG08514000WATRL000000004K00000000000004959005010192015094158N000000000000U40       000500400K 10000000010000004937           
CUS0851400000108006172004         MARKS DAVID A       3203 HILLTOP AVE                        000N        CARE OF             
MTR08514000001000000000000000RA              99289144    005800520000005200000570000003NN  NNW 000                       N    
RDG08514000WATRL000000004K00000000000001277005110192015094256N000000000000U40       000580400K 10000000010000001266           
CUS0851400000108006173002         DAVID GARDNER       3205 HILLTOP AVE                        000N        CARE OF             
MTR08514000001000000000000000RA              41080935    005800530000005300000520000003NN  NNW 000                       N    
RDG08514000WATRL000000004K00000000000000838005210192015094321N000000000000U40       000250400K 10000000010000000831           
CUS0851400000108006174000         SCHEINER ERIC JAY   3207 HILLTOP AVE                        000N        CARE OF             
MTR08514000001000000000000000RA              44002473    005800540000005400000520000003NN  NNW 000                       N    
RDG08514000WATRL000000004K00000000000002369005310192015094347N000000000000U40       000260400K 10000000010000002355           
CUS0851400000108006175007         SICKLE DENNIS MICHEA3209 HILLTOP AVE                        000N        CARE OF             
MTR08514000001000000000000000RA              38887609    005800550000005500000520000003NN  NNW 000                       N    
RDG08514000WATRL000000004K00000000000003428005410192015094418N000000000000U40       000310400K 10000000010000003412           
CUS0851400000108006176005         ADAMS LEROY C       3211 HILLTOP AVE                        000N        CARE OF             
MTR08514000001000000000000000RA              00138416    005800560000005600000570000003NN  NNW 000                       N    
RDG08514000WATRL000000004K00000000000001339005510192015094443N000000000000U40       000250400K 10000000010000001328           
CUS0851400000108006177003         MILLER BERNARD J,JR 2003 HAMMONDS FERRY RD                  000N        CARE OF             
MTR08514000001000000000000000RA              31587915    005800570000005700000520000003NN  NNW 000                       N    
RDG08514000WATRL000000004K00000000000002842000110162015122228N000000000000N40       000000400K 10000000010000002818           
CUS0851400000108006178001         JEFFRIES CHRISTOPHER2005 HAMMONDS FERRY RD                  000N        CARE OF             
MTR08514000001000000000000000RA              32901676    005800580000005800000520000003NN  NNW 000                       N    
RDG08514000WATRL000000004K00000000000002056000210162015122339N000000000000N40       000710400K 10000000010000002048           
CUS0851400000108006179009         BROWN WENDELL       2007 HAMMONDS FERRY RD                  000N        CARE OF             
MTR08514000001000000000000000RA              35110206    005800590000005900000520000003NN  NNW 000                       N    
RDG08514000WATRL000000004K00000000000002876000310162015122531N000000000000N40       001120400K 10000000010000002861           
CUS0851400000108006180007         BRIAN K. ROSS       2009 HAMMONDS FERRY RD                  000N        CARE OF             
MTR08514000001000000000000000RA              31585293    005800600000006000000520000003NN  NNW 000                       N    
RDG08514000WATRL000000004K00000000000001443000410162015122717N000000000000N40       001060400K 10000000010000001427           
CUS0851400000108006181005         KUS GLENN M         3204 GARDEN AVE                         000N        CARE OF             
MTR08514000001000000000000000RA              10000161    005800610000006100000570000003NN  NNW 000                       N    
RDG08514000WATRL000000004K00000000000000195001010162015123734N000000000000N40       000320400K 10000000010000000191           
CUS0851400000108006182003         MCGOVERN KARL J     3201 GARDEN AVE                         000N        CARE OF             
MTR08514000001000000000000000RA              27822733    005800620000006200000520000003NN  NNW 000                       N    
RDG08514000WATRL000000004K00000000000002127001110162015123824N000300000010N40       000500400K 10000000010000002130           
CUS0851400000108006183001         BRITTON BRIAN D     3203 GARDEN AVE                         000N        CARE OF             
MTR08514000001000000000000000RA              24767784    005800630000006300000520000003NN  NNW 000                       N    
RDG08514000WATRL000000004K00000000000004522001210162015123912N000000000000N40       000480400K 10000000010000004492           
CUS0851400000108006184009         VERNEL MCDADE       3205 GARDEN AVE                         000N        CARE OF             
MTR08514000001000000000000000RA              36692631    005800640000006400000520000003NN  NNW 000                       N    
RDG08514000WATRL000000004K00000000000002123001310162015123955N000400000010N40       000430400K 10000000010000002111           
CUS0851400000108006185006         STEPHANIE N. VENCIL 3207 GARDEN AVE                         000N        CARE OF             
MTR08514000001000000000000000RA              44002919    005800650000006500000520000003NN  NNW 000                       N    
RDG08514000WATRL000000004K00000000000002642001410162015124030N000000000000N40       000350400K 10000000010000002632           
CUS0851400000108006186004         HOANG NGUYEN        3202 GARDEN AVE                         000N        CARE OF             
MTR08514000001000000000000000RA              39924103    005800660000006600000520000003NN  NNW 000                       N    
RDG08514000WATRL000000004K00000000000002662000910162015123702N000000000000N40       001460400K 10000000010000002637           
CUS0851400000108006187002         PATRICIA E. MCGEE   2017 FLOWER LN                          000N        CARE OF             
MTR08514000001000000000000000RA              26008193    005800670000006700000520000003NN  NNW 000                       N    
RDG08514000WATRL000000004K00000000000000668001510162015124224N000000000000N40       001140400K 10000000010000000643           
CUS0851400000108006188000         WHITE JAMES R & WF  2019 FLOWER LN                          000N        CARE OF             
MTR08514000001000000000000000RA              24773080    005800680000006800000520000003NN  NNW 000                       N    
RDG08514000WATRL000000004K00000000000003876001610162015124255N000000000000N40       000310400K 10000000010000003872           
CUS0851400000108006189008         KESECKER DURWIN RICK2011 HAMMONDS FERRY RD                  000N        CARE OF             
MTR08514000001000000000000000RA              26012238    005800690000006900000520000003NY  NNW 000                       N    
MTM0851400026012238    VAC                                                                                                    
RDG08514000WATRL000000004K00000000000003732000110242015111637N000100000010U86       000000400K 10000000010000003732           
CUS0851400000108006190006         COOKE ROBERT WAYNE  2013 HAMMONDS FERRY RD                  000N        CARE OF             
MTR08514000001000000000000000RA              00128390    005800700000007000000570000003NN  NNW 000                       N    
RDG08514000WATRL000000004K00000000000000369000510162015122937N000000000000N40       001400400K 10000000010000000367           
CUS0851400000108006191004         SCHRADER DEWEY R    2015 HAMMONDS FERRY RD                  000N        CARE OF             
MTR08514000001000000000000000RA              35097900    005800710000007100000520000003NN  NNW 000                       N    
RDG08514000WATRL000000004K00000000000001631000610162015123100N000000000000N40       000830400K 10000000010000001624           
CUS0851400000108006192002         GRUBE EDWARD G      2017 HAMMONDS FERRY RD                  000N        CARE OF             
MTR08514000001000000000000000RA              9685137     005800720000007200000570000003NN  NNW 000                       N    
RDG08514000WATRL000000004K00000000000002712000810162015123436N000000000010N40       000780400K 10000000010000002711           
CUS0851400000108006193000         DORSEY MARK A       2019 HAMMONDS FERRY RD                  000N        CARE OF             
MTR08514000001000000000000000RA              00128315    005800730000007300000570000003NN  NNW 000                       N    
RDG08514000WATRL000000004K00000000000000559000710162015123318N000000000000N40       001380400K 10000000010000000545           
CUS0851400000108006194008         TRUSTEES CHURCH OF GSEC NELWAY & SMITH AVE                  000N        CARE OF             
MTR08514000001000000000000000RA              14901680    005800740000007400000310000003NN  NNW 000                       N    
RDG08514000WATRL000000004K00000000000000816005710192015095353N000000000000U40       004090400K 10000000010000000771           
CUS0851400000108006215001         GRACE J DENNIS      2201 HAMMONDS FERRY RD                  000N        CARE OF             
MTR08514000001000000000000000RA              24226263    005800750000007500000520000003NN  NNW 000                       N    
RDG08514000WATRL000000004K00000000000007358005810192015095724N000000000001U40       002110400K 10000000010000007346           
CUS0851400000108006216009         GRACE J DENNIS      2207 HAMMONDS FERRY RD                  000N        CARE OF             
MTR08514000001000000000000000RA              48590426    005800760000007600000520000003NN  NNW 000                       N    
RDG08514000WATRL000000004K00000000000002033013810192015122614N000000000000U40       000110400K 10000000010000002025           
CUS0851400000108006217007         COUNCILMAN HARVEY S 2209 HAMMONDS FERRY RD                  000N        CARE OF             
MTR08514000001000000000000000RA              10004516    005800770000007700000570000003NN  NNW 000                       N    
RDG08514000WATRL000000004K00000000000000363013710192015122603N000000000010U40       001250400K 10000000010000000355           
CUS0851400000108006218005         DTMPTKIC, LLC       2200 HAMMONDS FERRY RD                  000N        CARE OF             
MTR08514000001000000000000000RA              39290168    005800780000007800000520000003NN  NNW 000                       N    
RDG08514000WATRL000000004K00000000000002971005910192015095915N000000000000U40       001110400K 10000000010000002963           
CUS0851400000108006219003         DTMPTKJC L L C      2208 HAMMONDS FERRY RD                  000N        CARE OF             
MTR08514000001000000000000000RA              26004308    005800790000007900000520000003NN  NNW 000                       N    
RDG08514000WATRL000000004K00000000000003480013910192015122733N000000000000U40       000790400K 10000000010000003466           
CUS0851400000108006220001         SACHS CHARLES EDWARD2212 HAMMONDS FERRY RD                  000N        CARE OF             
MTR08514000001000000000000000RA              24773128    005800800000008000000520000003NN  NNW 000                       N    
RDG08514000WATRL000000004K00000000000003365014010192015122828N000000000000U40       000550400K 10000000010000003348           
CUS0851400000108006221009         CHRISTOPOLUS DENISE 2216 HAMMONDS FERRY RD                  000N        CARE OF             
MTR08514000001000000000000000RA              31584176    005800810000008100000520000003NN  NNW 000                       N    
RDG08514000WATRL000000004K00000000000005080014110192015122916N000000000000U40       000480400K 10000000010000005049           
CUS0851400000108006222007         MELIDA OCHOA        2222 HAMMONDS FERRY RD                  000N        CARE OF             
MTR08514000001000000000000000RA              24765786    005800820000008200000520000003NN  NNW 000                       N    
RDG08514000WATRL000000004K00000000000003251014210192015123014N000000000000U40       000580400K 10000000010000003246           
CUS0851400000108006223005         PRICE LEON E,JR     2219 HAMMONDS FERRY RD                  000N        CARE OF             
MTR08514000001000000000000000RA              10024078    005800830000008300000570000003NN  NNW 000                       N    
RDG08514000WATRL000000004K00000000000000144013410192015122213N000000000000U40       000430400K 10000000010000000132           
CUS0851400000108006224003         PENNINGTON AMANDA CH2223 HAMMONDS FERRY RD                  000N        CARE OF             
MTR08514000001000000000000000RA              26009891    005800840000008400000520000003NN  NNW 000                       N    
RDG08514000WATRL000000004K00000000000002684013310192015122130N000000000000U40       003390400K 10000000010000002669           
CUS0851400000108006225000         QUINLAN ETHEL FRANCE2225 HAMMONDS FERRY RD                  000N        CARE OF             
MTR08514000001000000000000000RA              00138411    005800850000008500000570000003NN  NNW 000                       N    
RDG08514000WATRL000000004K00000000000001002014310192015123124N000100000010U40       000700400K 10000000010000001002           
CUS0851400000108006226008         SPARKS FREDERICK C  2211 HAMMONDS FERRY RD                  000N        CARE OF             
MTR08514000001000000000000000RA              30527519    005800860000008600000520000003NN  NNW 000                       N    
RDG08514000WATRL000000004K00000000000004111013610192015122358N000000000001U40       000140400K 10000000010000004101           
CUS0851400000108006227006         FUGETT CHARLES L    2213 HAMMONDS FERRY RD                  000N        CARE OF             
MTR08514000001000000000000000RA              30527522    005800870000008700000520000003NN  NNW 000                       N    
RDG08514000WATRL000000004K00000000000001864013510192015122344N000000000000U40       000910400K 10000000010000001864           
CUS0851400000108006228004         BURNS CHARLES W     8 RIDGE AVE                             000N        CARE OF             
MTR08514000001000000000000000RA              00133418    005800880000008800000570000003NN  NNW 000                       N    
RDG08514000WATRL000000004K00000000000002809007110192015102042N000000000000U40       002060400K 10000000010000002762           
CUS0851400000108006229002         ASHMORE ROBERT WAYNE6 RIDGE AVE                             000N        CARE OF             
MTR08514000001000000000000000RA              00128364    005800890000008900000570000003NN  NNW 000                       N    
RDG08514000WATRL000000004K00000000000001623007310192015102337N000000000000U40       000810400K 10000000010000001603           
CUS0851400000108006230000         MILLER BRYANT G     104-1/2 RIDGE AVE                       000N        CARE OF             
MTR08514000001000000000000000RA              44173513    005800900000009000000520000003NN  NNW 000                       N    
RDG08514000WATRL000000004K00000000000003309007010192015101716N000000000000U40       000320400K 10000000010000003264           
CUS0851400000108006209004         BOONE JOSEPH E      102 RIDGE AVE                           000N        CARE OF             
MTR08514000001000000000000000RA              26191940    007500910000009100000520000003NN  NNW 000                       N    
RDG08514000WATRL000000004K00000000000003814013210192015121551N000000000000U40       000070400K 10000000010000003809           
CUS0851400000108006208006         PAT HIBAN REAL ESTAT104 RIDGE AVE                           000N        CARE OF             
MTR08514000001000000000000000RA              77889131    005800920000009200000360000003NN  NNW 000                       N    
RDG08514000WATRL000000004K00000000000000001013110192015121544N000100000010U40       002420400K 10000000010000000001           
CUS0851400000108006231008         HARTMAN HENRY J     108 RIDGE AVE                           000N        CARE OF             
MTR08514000001000000000000000RA              44173408    005800930000009300000520000003NN  NNW 000                       N    
RDG08514000WATRL000000004K00000000000001408006510192015101100N000000000000U40       000420400K 10000000010000001396           
CUS0851400000108006232006         HARTMAN HENRY J,JR  112 RIDGE AVE                           000N        CARE OF             
MTR08514000001000000000000000RA              01081747    005800940000009400000610000003NN  NNW 000                       N    
RDG08514000WATRL000000004K00000000000000754006210192015100732N000000000000U40       000130400K 10000000010000000740           
CUS0851400000108006233004         BLOCKSTON JAMES W,JR114 RIDGE AVE                           000N        CARE OF             
MTR08514000001000000000000000RA              35097774    005800950000009500000520000003NN  NNW 000                       N    
RDG08514000WATRL000000004K00000000000002621006110192015100719N000000000001U40       001630400K 10000000010000002606           
CUS0851400000108006234002         PETRUSIK SUSAN A    121 RIDGE AVE                           000N        CARE OF             
MTR08514000001000000000000000RA              14906843    005800960000009600000310000003NN  NNW 000                       N    
RDG08514000WATRL000000004K00000000000000637006010192015100436N000000000000U40       003210400K 10000000010000000629           
CUS0851400000108006235009         BLAIR ERIC J        117 RIDGE AVE                           000N        CARE OF             
MTR08514000001000000000000000RA              44088143    005800970000009700000520000003NY  NNW 000                       N    
MTM0851400044088143    CLEAN OUT                                                                                              
RDG08514000WATRL000000004K00000000000002661000210242015112420N000308403510U86       004630400K 10000000010000002669           
CUS0851400000108006236007         BREITSCHWERDT SHARON113 RIDGE AVE                           000N        CARE OF             
MTR08514000001000000000000000RA              00128400    005800980000009800000570000003NN  NNW 000                       N    
RDG08514000WATRL000000004K00000000000002066006310192015100836N000000000010U40       000640400K 10000000010000002048           
CUS0851400000108006237005         LANCELLOTTI HARRY J 111 RIDGE AVE                           000N        CARE OF             
MTR08514000001000000000000000RA              29680663    005800990000009900000520000003NN  NNW 000                       N    
RDG08514000WATRL000000004K00000000000003631006410192015101018N000000000000U40       001020400K 10000000010000003620           
CUS0851400000108006238003         BAILEY ERNEST EDWARD109 RIDGE AVE                           000N        CARE OF             
MTR08514000001000000000000000RA              32176534    005801000000010000000520000003NN  NNW 000                       N    
RDG08514000WATRL000000004K00000000000004256006610192015101134N000000000000U40       000340400K 10000000010000004236           
CUS0851400000108006239001         MILLER THOMAS J     107 RIDGE AVE                           000N        CARE OF             
MTR08514000001000000000000000RA              14903725    005801010000010100000310000003NN  NNW 000                       N    
RDG08514000WATRL000000004K00000000000000614006710192015101453N000000000000U40       001990400K 10000000010000000595           
CUS0851400000108006240009         MCINNIS CHRISTOPHER 105 RIDGE AVE                           000N        CARE OF             
MTR08514000001000000000000000RA              00128402    005801020000010200000570000003NN  NNW 000                       N    
RDG08514000WATRL000000004K00000000000001296006810192015101559N000000000000U40       000660400K 10000000010000001257           
CUS0851400000108006241007         CRANE STEPHEN G     103 RIDGE AVE                           000N        CARE OF             
MTR08514000001000000000000000RA              26009889    005801030000010300000520000003NN  NNW 000                       N    
RDG08514000WATRL000000004K00000000000003435006910192015101644N000000000000U40       000450400K 10000000010000003420           
CUS0851400000108006242005         HOOE ROBERT E       101 RIDGE AVE                           000N        CARE OF             
MTR08514000001000000000000000RA              26009786    005801040000010400000520000003NN  NNW 000                       N    
RDG08514000WATRL000000004K00000000000002301007210192015102216N000000000000U40       000940400K 10000000010000002262           
CUS0851400000108434821008         ROBERT K STEGMAN 3RD122 AMERICAN AVE                        000N        CARE OF             
MTR08514000001000000000000000RA              01108725    005801050000010500000610000003NN  NNW 000                       N    
RDG08514000WATRL000000004K00000000000000356012210192015115944N000000000001U40       005110400K 10000000010000000351           
CUS0851400000108006243003         CORBETT GEORGE E    128 AMERICAN AVE                        000N        CARE OF             
MTR08514000001000000000000000RA              27831077    005801060000010600000520000003NN  NNW 000                       N    
RDG08514000WATRL000000004K00000000000002800012310192015120153N000000000000U40       001290400K 10000000010000002791           
CUS0851400000108006244001         GERBER MATTHEW  GERB139 AMERICAN AVE                        000N        CARE OF             
MTR08514000001000000000000000RA              27132294    005801070000010700000520000003NN  NNW 000   VACANT / LOT        N    
RDG08514000WATRL000000004K00000000000002925012410192015120217N000000000000U40       000240400K 10000000010000002925           
CUS0851400000108006245008         CUNNINGHAM GLEN DOUG135 AMERICAN AVE                        000N        CARE OF             
MTR08514000001000000000000000RA              75615184    005801080000010800000350000003NN  NNW 000                       N    
RDG08514000WATRL000000004K00000000000000215000310242015112751N000000000000U86       002110400K 10000000010000000196           
CUS0851400000108006246006         FILIPIAK ELISE      131 AMERICAN AVE                        000N        CARE OF             
MTR08514000001000000000000000RA              00127992    005801090000010900000570000003NN  NNW 000                       N    
RDG08514000WATRL000000004K00000000000001031012510192015120345N000000000000U40       000880400K 10000000010000001023           
CUS0851400000108006247004         BUIGE EVELYN M      127 AMERICAN AVE                        000N        CARE OF             
MTR08514000001000000000000000RA              10006981    005801100000011000000570000003NN  NNW 000                       N    
RDG08514000WATRL000000004K00000000000000603012610192015120544N000400000010U40       001190400K 10000000010000000585           
CUS0851400000108419783009         AUSTIN ROBERT FRANCI123 AMERICAN AVE                        000N        CARE OF             
MTR08514000001000000000000000RA              44086995    005801110000011100000520000000NN  NNW 000                       N    
RDG08514000WATRL000000004K00000000000002199012710192015120601N000000000000U40       000170400K 10000000010000002172           
CUS0851400000108422307002         BROTHERS PAUL       119 AMERICAN AVE                        000N        CARE OF             
MTR08514000001000000000000000RA              01086791    005801120000011200000610000003NN  NNW 000                       N    
RDG08514000WATRL000000004K00000000000000940012810192015120647N000000000000U40       000460400K 10000000010000000938           
CUS0851400000108006248002         GONZALO ROCHA       117 AMERICAN AVE                        000N        CARE OF             
MTR08514000001000000000000000RA              36698532    005801130000011300000520000003NN  NNW 000                       N    
RDG08514000WATRL000000004K00000000000002588012910192015120711N000000000000U40       000240400K 10000000010000002536           
CUS0851400000108006249000         GRACE BROS INC      111 AMERICAN AVE                        000N        CARE OF             
MTR08514000001000000000000000RA              3775735     005801140000011400000530000003NY  NNW 000                       N    
MTM085140003775735     CANT LOCATE                                                                                            
RDG08514000WATRL000000004K00000000000000000000000000000000000 000000000000U         000000400  10000000010000001251           
CUS0851400000108006250008         NOVAK JESSICA       7 RIDGE AVE                             000N        CARE OF             
MTR08514000001000000000000000RA              24771165    005801150000011500000520000003NN  NNW 000                       N    
RDG08514000WATRL000000004K00000000000006457013010192015121142N000000000000U40       002710400K 10000000010000006440           
CUS0851400000108006252004         BLAMBERG CLYDE J    2307 HAMMONDS FERRY RD                  000N        CARE OF             
MTR08514000001000000000000000RA              30523773    005801160000011600000520000003NN  NNW 000                       N    
RDG08514000WATRL000000004K00000000000000792014510192015123502N000000000000U40       000560400K 10000000010000000741           
CUS0851400000108006253002         BLAMBERG CLYDE J    2309 HAMMONDS FERRY RD                  000N        CARE OF             
MTR08514000001000000000000000RA              31580720    005801170000011700000520000003NN  NNW 000                       N    
RDG08514000WATRL000000004K00000000000002379014410192015123406N000000000000U40       001620400K 10000000010000002372           
CUS0851400000108006254000         GRACE BROS INC      2319 HAMMONDS FERRY RD                  000N        CARE OF             
MTR08514000001000000000000000RA              99412496    007501180000011800000570000003NN  NNW 000                       N    
RDG08514000WATRL000000004K00000000000005220014610192015123619N000300000010U40       000770400K 10000000010000004947           
CUS0851400000108006258001         SMITH ROBERT FRANCIS101 BALTIMORE AVE                       000N        CARE OF             
MTR08514000001000000000000000RA              40780148    005801190000011900000520000003NN  NNW 000                       N    
RDG08514000WATRL000000004K00000000000002327001110242015115026N000000000000U86       001290400K 10000000010000002322           
CUS0851400000108404162003         HARDESTY JEFFREY WAY104 MINE BANK LN                        000N        CARE OF             
MTR08514000001000000000000000RA              42808841    005801200000012000000520000003NN  NNW 000                       N    
RDG08514000WATRL000000004K00000000000003727007810192015104854N000000000000U40       003210400K 10000000010000003688           
CUS0851400000108006272002         MILLER MICHAEL E    108 MINE BANK LN                        000N        CARE OF             
MTR08514000001000000000000000RA              00128438    005801210000012100000570000003NN  NNW 000                       N    
RDG08514000WATRL000000004K00000000000001734008310192015105301N000000000000U40       000700400K 10000000010000001704           
CUS0851400000108006273000         BLACKWELL RALPH EDWA110 MINE BANK LN                        000N        CARE OF             
MTR08514000001000000000000000RA              48586069    005801220000012200000520000003NN  NNW 000                       N    
RDG08514000WATRL000000004K00000000000002671008510192015105351N000000000000U40       000250400K 10000000010000002657           
CUS0851400000108006270006         KITTLE DENISE       112 MINE BANK LN                        000N        CARE OF             
MTR08514000001000000000000000RA              19461920    005801230000012300000520000003NN  NNW 000                       N    
RDG08514000WATRL000000004K00000000000004878008410192015105326N000000000000U40       000250400K 10000000010000004619           
CUS0851400000108006271004         WESLEY WATKINS      114 MINE BANK LN                        000N        CARE OF             
MTR08514000001000000000000000RA              00128362    005801240000012400000570000003NN  NNW 000                       N    
RDG08514000WATRL000000004K00000000000000471008610192015105509N000000000000U40       000780400K 10000000010000000451           
CUS0851400000108006264009         WEEDON DORIS ANN    167 STAFFORD ST                         000N        CARE OF             
MTR08514000001000000000000000RA              14925650    005801250000012500000310000003NN  NNW 000                       N    
RDG08514000WATRL000000004K00000000000001376008710192015110204N000000000000U40       004150400K 10000000010000001338           
CUS0851400000108006274008         BIDEN GARY W        202 MINE BANK LN                        000N        CARE OF             
MTR08514000001000000000000000RA              46875649    005801260000012600000520000003NN  NNW 000                       N    
RDG08514000WATRL000000004K00000000000001738008810192015110311N000000000000U40       000670400K 10000000010000001710           
CUS0851400000108006275005         THIELE DAVID G      204 MINE BANK LN                        000N        CARE OF             
MTR08514000001000000000000000RA              45384966    005801270000012700000520000003NN  NNW 000                       N    
RDG08514000WATRL000000004K00000000000002782008910192015110449N000000000000U40       000980400K 10000000010000002777           
CUS0851400000108006276003         BISAHA JOAN C       206 MINE BANK LN                        000N        CARE OF             
MTR08514000001000000000000000RA              44088928    005801280000012800000520000003NN  NNW 000                       N    
RDG08514000WATRL000000004K00000000000002004009010192015110520N000000000000U40       000310400K 10000000010000001994           
CUS0851400000108006279007         WAGONER CARROLL M   210 MINE BANK LN                        000N        CARE OF             
MTR08514000001000000000000000RA              31587916    005801290000012900000520000003NN  NNW 000                       N    
RDG08514000WATRL000000004K00000000000003530009110192015110633N000000000000U40       000730400K 10000000010000003522           
CUS0851400000108006280005         UPTON WILMER E,JR   218 MINE BANK LN                        000N        CARE OF             
MTR08514000001000000000000000RA              44176731    005801300000013000000520000003NN  NNW 000                       N    
RDG08514000WATRL000000004K00000000000001474009210192015110751N000400000010U40       000780400K 10000000010000001442           
CUS0851400000108006281003         ANDERSON ROBERT B   217 MINE BANK LN                        000N        CARE OF             
MTR08514000001000000000000000RA              23427409    005801310000013100000520000003NN  NNW 000                       N    
RDG08514000WATRL000000004K00000000000003872000910242015114622N000000000000U86       002500400K 10000000010000003861           
CUS0851400000108006282001         NELSON TINA         164 POULTON ST                          000N        CARE OF             
MTR08514000001000000000000000RA              52769352    005801320000013200000520000003NN  NNW 000                       N    
RDG08514000WATRL000000004K00000000000001977009310192015111045N000000000000U40       001740400K 10000000010000001928           
CUS0851400000108006283009         KASHLAK SHAWN       166 POULTON ST                          000N        CARE OF             
MTR08514000001000000000000000RA              44092213    005801330000013300000520000003NN  NNW 000                       N    
RDG08514000WATRL000000004K00000000000002067009610192015111444N000000000000U40       000170400K 10000000010000002049           
CUS0851400000108412704002         HALBERT L HEINZERLIN168 POULTON ST                          000N        CARE OF             
MTR08514000001000000000000000RA              52769480    005801340000013400000520000003NN  NNW 000                       N    
RDG08514000WATRL000000004K00000000000001158009710192015111526N000000000000U40       000420400K 10000000010000001144           
CUS0851400000108006277001         WAGONER LARRY DON   165 POULTON ST                          000N        CARE OF             
MTR08514000001000000000000000RA              26014597    005801350000013500000520000003NN  NNW 000                       N    
RDG08514000WATRL000000004K00000000000002144009410192015111256N000000000000U40       001310400K 10000000010000002124           
CUS0851400000108006278009         KEPPLEY KELLY ALAN  165-1/2 POULTON ST                      000N        CARE OF             
MTR08514000001000000000000000RA              46875535    005801360000013600000520000003NN  NNW 000                       N    
RDG08514000WATRL000000004K00000000000003463009510192015111427N000000000000U40       000910400K 10000000010000003447           
CUS0851400000108006284007         WEEDON WILLIAM E,JR 167 POULTON ST                          000N        CARE OF             
MTR08514000001000000000000000RA              46883536    005801370000013700000520000003NY  NNW 000                       N    
MTM0851400046883536    BURIED                                                                                                 
RDG08514000WATRL000000004K00000000000000000000000000000000000 000000000000U         000000400  10000000010000002443           
CUS0851400000108006285004         WILLIAM A LOEFFLER  170 POULTON ST                          000N        CARE OF             
MTR08514000001000000000000000RA              46879321    005801380000013800000520000003NN  NNW 000                       N    
RDG08514000WATRL000000004K00000000000002262009810192015111822N000000000000U40       001760400K 10000000010000002199           
CUS0851400000108006286002         URIARTE CARLOS E    226 ELIZABETH AVE                       000N        CARE OF             
MTR08514000001000000000000000RA              35109628    005801390000013900000520000003NN  NNW 000                       N    
RDG08514000WATRL000000004K00000000000004398009910192015111949N000000000000U40       000870400K 10000000010000004359           
CUS0851400000108367942003         BENDER WILLIAM K    238 ELIZABETH AVE                       000N        CARE OF             
MTR08514000001000000000000000RA              00128931    005801400000014000000570000003NN  NNW 000                       N    
RDG08514000WATRL000000004K00000000000003661000810242015114212N000000000000U86       001080400K 10000000010000003627           
CUS0851400000108006288008         MALINOWSKI RICHARD T281 ELIZABETH AVE                       000N        CARE OF             
MTR08514000001000000000000000RA              46875537    005801410000014100000520000003NN  NNW 000                       N    
RDG08514000WATRL000000004K00000000000000694010010192015124309N000000000011U40       004100400K 10000000010000000692           
CUS0851400000108006289006         MAHER EDWARD P      273 ELIZABETH AVE                       000N        CARE OF             
MTR08514000001000000000000000RA              00137480    005801420000014200000570000003NN  NNW 000                       N    
RDG08514000WATRL000000004K00000000000001285010110192015112527N000000000000U40       000470400K 10000000010000001268           
CUS0851400000108006290004         MURPHY PATRICK T    271 ELIZABETH AVE                       000N        CARE OF             
MTR08514000001000000000000000RA              48586319    005801430000014300000520000003NN  NNW 000                       N    
RDG08514000WATRL000000004K00000000000002259010210192015112704N000000000000U40       000970400K 10000000010000002250           
CUS0851400000108006291002         AGNES KATHLEEN E    227 ELIZABETH AVE                       000N        CARE OF             
MTR08514000001000000000000000RA              26008282    005801440000014400000520000003NN  NNW 000                       N    
RDG08514000WATRL000000004K00000000000003919010310192015112744N000000000000U40       000400400K 10000000010000003890           
CUS0851400000108006292000         NEWMAN MARY A       225 ELIZABETH AVE                       000N        CARE OF             
MTR08514000001000000000000000RA              00127994    005801450000014500000570000003NN  NNW 000                       N    
RDG08514000WATRL000000004K00000000000000668000710242015114024N000000000000U86       000720400K 10000000010000000662           
CUS0851400000108006295003         PENNINGTON THOMAS,JR223 ELIZABETH AVE                       000N        CARE OF             
MTR08514000001000000000000000RA              00128435    005801460000014600000570000003NN  NNW 000                       N    
RDG08514000WATRL000000004K00000000000001034010410192015112933N000000000000U40       001090400K 10000000010000001007           
CUS0851400000108006293008         ANDERSON ROBERT B   219 ELIZABETH AVE                       000N        CARE OF             
MTR08514000001000000000000000RA              46879379    005801470000014700000520000003NN  NNW 000                       N    
RDG08514000WATRL000000004K00000000000002443010510192015113037N000000000000U40       000640400K 10000000010000002423           
CUS0851400000108006294006         BARNES DORIS M      220 ELIZABETH AVE                       000N        CARE OF             
MTR08514000001000000000000000RA              44173183    005801480000014800000520000000NN  NNW 000                       N    
RDG08514000WATRL000000004K00000000000001287010610192015113241N000000000011U40       000330400K 10000000010000001280           
CUS0851400000108006296001         JEFFREY A PEARCE    217 ELIZABETH AVE                       000N        CARE OF             
MTR08514000001000000000000000RA              48585988    005801490000014900000520000003NN  NNW 000                       N    
RDG08514000WATRL000000004K00000000000000000000610242015113912S002000000000U86       000820400K 10000000010000002005           
CUS0851400000108006297009         WEILAND RAYMOND L,JR203 ELIZABETH AVE                       000N        CARE OF             
MTR08514000001000000000000000RA              35102178    005801500000015000000520000003NN  NNW 000                       N    
RDG08514000WATRL000000004K00000000000004127010710192015113208N000000000000U40       000570400K 10000000010000004111           
CUS0851400000108006298007         TRADER JAMES HAROLD,201 ELIZABETH AVE                       000N        CARE OF             
MTR08514000001000000000000000RA              14925905    005801510000015100000310000003NN  NNW 000                       N    
RDG08514000WATRL000000004K00000000000001222010810192015113307N000000000000U40       000260400K 10000000010000001202           
CUS0851400000108006299005         HABITAT FOR HUMANITY170 ELIZABETH AVE                       000N        CARE OF             
MTR08514000001000000000000000RA              99999999    005801520000015200000620000003NN  NNW 000                       N    
RDG08514000WATRL000000004K00000000000001973010910192015113600N000000000000U40       001730400K 10000000010000001973           
CUS0851400000108006300001         WOLFE JOHN J, JR    151 ELIZABETH AVE                       000N        CARE OF             
MTR08514000001000000000000000RA              29681436    005801530000015300000520000003NN  NNW 000                       N    
RDG08514000WATRL000000004K00000000000004441011010192015113609N000000000000U40       000090400K 10000000010000004394           
CUS0851400000108006265006         WHITE CATHERINE P   168 STAFFORD ST                         000N        CARE OF             
MTR08514000001000000000000000RA              27822931    005801540000015400000520000003NN  NNW 000                       N    
RDG08514000WATRL000000004K00000000000008879011410192015114033N000000000000U40       000540400K 10000000010000008819           
CUS0851400000108006266004         GOTTLEIB BEVERLY ANN165 STAFFORD ST                         000N        CARE OF             
MTR08514000001000000000000000RA              77877624    005801550000015500000360000003NN  NNW 000                       N    
RDG08514000WATRL000000004K00000000000000025011210192015113802N000000000000U40       000460400K 10000000010000000015           
CUS0851400000108006267002         FINAZZO ANTHONY M   163 STAFFORD ST                         000N        CARE OF             
MTR08514000001000000000000000RA              44173182    005801560000015600000520000003NN  NNW 000                       N    
RDG08514000WATRL000000004K00000000000002905011110192015113716N000000000000U40       000670400K 10000000010000002870           
CUS0851400000108006268000         JONES, MELISSA      164 STAFFORD ST                         000N        CARE OF             
MTR08514000001000000000000000RA              44173187    005801570000015700000520000003NN  NNW 000                       N    
RDG08514000WATRL000000004K00000000000001555011510192015114219N000000000000U40       001060400K 10000000010000001493           
CUS0851400000108006269008         TAYMAN WILLIAM E    166 STAFFORD ST                         000N        CARE OF             
MTR08514000001000000000000000RA              23648182    005801580000015800000520000003NN  NNW 000                       N    
RDG08514000WATRL000000004K00000000000004745011310192015113939N000000000011U40       000320400K 10000000010000004736           
CUS0851400000108006302007         MILLWARD JOHN,SR    147 ELIZABETH AVE                       000N        CARE OF             
MTR08514000001000000000000000RA              10011927    005801590000015900000570000003NN  NNW 000                       N    
RDG08514000WATRL000000004K00000000000000381011610192015114412N000000000000U40       001130400K 10000000010000000360           
CUS0851400000108006301009         KURNAS ALICE V      154 ELIZABETH AVE                       000N        CARE OF             
MTR08514000001000000000000000RA              35098873    005801600000016000000520000003NN  NNW 000                       N    
RDG08514000WATRL000000004K00000000000004926011710192015114420N000000000000U40       000080400K 10000000010000004905           
CUS0851400000108006303005         TONI MARIE FORBES   141 ELIZABETH AVE                       000N        CARE OF             
MTR08514000001000000000000000RA              48594020    005801610000016100000520000003NN  NNW 000                       N    
RDG08514000WATRL000000004K00000000000002029011810192015114531N000000000000U40       000710400K 10000000010000001994           
CUS0851400000108006306008         SEMMONT DEBRA L     139 ELIZABETH AVE                       000N        CARE OF             
MTR08514000001000000000000000RA              00133374    005801620000016200000570000003NN  NNW 000                       N    
RDG08514000WATRL000000004K00000000000001182011910192015114602N000000000000U40       000310400K 10000000010000001171           
CUS0851400000108006307006         HOFMAN BEVERLY S    129 ELIZABETH AVE                       000N        CARE OF             
MTR08514000001000000000000000RA              00133582    005801630000016300000570000003NN  NNW 000                       N    
RDG08514000WATRL000000004K00000000000001449000410242015113605N000000000000U86       004940400K 10000000010000001438           
CUS0851400000108006304003         OTOOLE PAUL EDWARD  150 HOWARD AVE                          000N        CARE OF             
MTR08514000001000000000000000RA              01096757    005801640000016400000610000003NN  NNW 000                       N    
RDG08514000WATRL000000004K00000000000001443007410192015103704N000000000000U40       008070400K 10000000010000001412           
CUS0851400000108006263001         ZIMMERMAN KURT J    162 HOWARD AVE                          000N        CARE OF             
MTR08514000001000000000000000RA              48596479    005801650000016500000520000003NN  NNW 000                       N    
RDG08514000WATRL000000004K00000000000001563007610192015104201N000300000010U40       001900400K 10000000010000001531           
CUS0851400000108006262003         LEWIS AARON R       160 HOWARD AVE                          000N        CARE OF             
MTR08514000001000000000000000RA              46875539    005801660000016600000520000003NN  NNW 000                       N    
RDG08514000WATRL000000004K00000000000004326001010242015114817N000000000000U86       001150400K 10000000010000004292           
CUS0851400000108006261005         PFISTER SHIRLEY C   158 HOWARD AVE                          000N        CARE OF             
MTR08514000001000000000000000RA              00127918    005801670000016700000570000003NN  NNW 000                       N    
RDG08514000WATRL000000004K00000000000001827007510192015103851N000000000000U40       001070400K 10000000010000001798           
CUS0851400000108006260007         WHITE THOMAS        161 HOWARD AVE                          000N        CARE OF             
MTR08514000001000000000000000RA              29681446    005801680000016800000520000003NN  NNW 000                       N    
RDG08514000WATRL000000004K00000000000004287008210192015105151N000000000000U40       000560400K 10000000010000004279           
CUS0851400000108006259009         KIMBALL PATRICIA I  164 HOWARD AVE                          000N        CARE OF             
MTR08514000001000000000000000RA              00128434    005801690000016900000570000003NN  NNW 000                       N    
RDG08514000WATRL000000004K00000000000001496007710192015104333N000000000000U40       000920400K 10000000010000001473           
CUS0851400000108006308004         BUSCHELBERGER CATHER159 HOWARD AVE                          000N        CARE OF             
MTR08514000001000000000000000RA              30523772    005801700000017000000520000003NN  NNW 000                       N    
RDG08514000WATRL000000004K00000000000003514008110192015105055N000000000000U40       000070400K 10000000010000003499           
CUS0851400000108006305000         JARBOE JAMES WILLIAM155 HOWARD AVE                          000N        CARE OF             
MTR08514000001000000000000000RA              29083187    005801710000017100000520000003NN  NNW 000                       N    
RDG08514000WATRL000000004K00000000000002698008010192015105048N000100000010U40       000220400K 10000000010000002698           
CUS0851400000108006309002         SCHEMINANT EDWARD P 151 HOWARD AVE                          000N        CARE OF             
MTR08514000001000000000000000RA              24232477    005801720000017200000520000003NN  NNW 000                       N    
RDG08514000WATRL000000004K00000000000001831007910192015105026N000000000000U40       000920400K 10000000010000001816           
CUS0851400000108006310000         CAMACHO CARLOS A    119 ELIZABETH AVE                       000N        CARE OF             
MTR08514000001000000000000000RA              00134051    005801730000017300000570000003NN  NNW 000                       N    
RDG08514000WATRL000000004K00000000000000946000510242015113750N000300000010U86       001050400K 10000000010000000951           
CUS0851400000108006311008         DOYLE FRANCIS X     103 ELIZABETH AVE                       000N        CARE OF             
MTR08514000001000000000000000RA              45378660    005801740000017400000520000003NN  NNW 000                       N    
RDG08514000WATRL000000004K00000000000001286012010192015114943N000000000000U40       002210400K 10000000010000001279           
CUS0851400000108006312006         SCHEMINANT EDWARD P 102 ELIZABETH AVE                       000N        CARE OF             
MTR08514000001000000000000000RA              11327371    005801750000017500000570000003NN  NNW 000                       N    
RDG08514000WATRL000000004K00000000000001899012110192015115113N000400000010U40       000900400K 10000000010000001887           
RTR08514000NN01750175000001750000000001750175000272NY017501750175000200010000000000000000000002    10072015NY020000 N         
RHD08525000NN01840184000001840000000001840184000189NY018401840184000000020000000000000000000002    10142015NY020000 N         
CUS0852500000108010572009         F S J INC           5406 EAST DR                            000N        CARE OF             
MTR08525000001000000000000000RA              26791770    001500010000000100000520000003NN  NNW 000                       N    
RDG08525000WATRL000000005K00000000000000000007010152015124512N000300000020N20       004690500K 10000000010000000020           
CUS0852500000108010573007         F S J INC           5400-04 EAST DR                         000N        CARE OF             
MTR08525000001000000000000000RA              36700187    001500020000000200000520000003NN  NNW 000                       N    
RDG08525000WATRL000000005K00000000000016323006910152015123723N000000000000N20       000520500K 10000000010000016259           
CUS0852500000108010574005         BRODERICK CAROL     1333 MAPLE AVE                          000N        CARE OF             
MTR08525000001000000000000000RA              9686796     005800030000000300000570000003NN  NNW 000                       N    
RDG08525000WATRL000000004K00000000000003858006810152015123631N000000000000N20       000210400K 10000000010000003841           
CUS0852500000108010575002         WRIGHT JASON        1331 MAPLE AVE                          000N        CARE OF             
MTR08525000001000000000000000RA              01090682    005800040000000400000610000003NN  NNW 000                       N    
RDG08525000WATRL000000004K00000000000001735006710152015123610N000400000010N20       000570400K 10000000010000001729           
CUS0852500000108010576000         MURPHY, SHARON      1329 MAPLE AVE                          000N        CARE OF             
MTR08525000001000000000000000RA              10016617    005800050000000500000570000003NN  NNW 000                       N    
RDG08525000WATRL000000004K00000000000000226006510152015123403N000000000000N20       000970400K 10000000010000000215           
CUS0852500000108010577008         COATES JOSEPH C,JR  1327 MAPLE AVE                          000N        CARE OF             
MTR08525000001000000000000000RA              23679413    005800060000000600000520000003NN  NNW 000                       N    
RDG08525000WATRL000000004K00000000000004911006610152015123513N000400000010N20       000700400K 10000000010000004902           
CUS0852500000108010578006         SMITH GEORGE L      1325 MAPLE AVE                          000N        CARE OF             
MTR08525000001000000000000000RA              23645576    005800070000000700000520000003NY  NNW 000                       N    
MTM0852500023645576    77888759                                                                                               
RDG08525000WATRL000000004K00000000000000005006410152015123226N000304100010N20       000390400K 10000000010000005240           
CUS0852500000108010579004         PARSONS RUSSELL     1323 MAPLE AVE                          000N        CARE OF             
MTR08525000001000000000000000RA              32898778    005800080000000800000520000003NN  NNW 000                       N    
RDG08525000WATRL000000004K00000000000003766006310152015123147N000000000000N20       000160400K 10000000010000003751           
CUS0852500000108010580002         KRAUSHAR ANTON DEMIT1321 MAPLE AVE                          000N        CARE OF             
MTR08525000001000000000000000RA              00133398    005800090000000900000570000003NN  NNW 000                       N    
RDG08525000WATRL000000004K00000000000001330006210152015123131N000000000000N20       000990400K 10000000010000001316           
CUS0852500000108010582008         TARIO JOSE          1319 MAPLE AVE                          000N        CARE OF             
MTR08525000001000000000000000RA              23648916    005800100000001000000520000003NN  NNW 000                       N    
RDG08525000WATRL000000004K00000000000003899006110152015122952N000000000000N20       000310400K 10000000010000003850           
CUS0852500000108010581000         SONNICHSEN JAMES A  1317 MAPLE AVE                          000N        CARE OF             
MTR08525000001000000000000000RA              23648492    005800110000001100000520000003NN  NNW 000                       N    
RDG08525000WATRL000000004K00000000000001777006010152015122921N000100000010N20       000300400K 10000000010000001777           
CUS0852500000108010583006         PORTER WILLIAM F    1315 MAPLE AVE                          000N        CARE OF             
MTR08525000001000000000000000RA              23649182    005800120000001200000520000003NN  NNW 000                       N    
RDG08525000WATRL000000004K00000000000002787005910152015122851N000000000000N20       000510400K 10000000010000002782           
CUS0852500000108010584004         MARIANNE B REININGER1313 MAPLE AVE                          000N        CARE OF             
MTR08525000001000000000000000RA              01094987    005800130000001300000610000003NN  NNW 000                       N    
RDG08525000WATRL000000004K00000000000000875005810152015122800N000000000000N20       000430400K 10000000010000000830           
CUS0852500000108010585001         MODELL KIMBERLEIGH  1311 MAPLE AVE                          000N        CARE OF             
MTR08525000001000000000000000RA              46882762    005800140000001400000520000003NN  NNW 000                       N    
RDG08525000WATRL000000004K00000000000001980005610152015122629N000000000010N20       001500400K 10000000010000001960           
CUS0852500000108010586009         PAULY DONALD J      1303 MAPLE AVE                          000N        CARE OF             
MTR08525000001000000000000000RA              23649179    005800150000001500000520000000NN  NNW 000                       N    
RDG08525000WATRL000000004K00000000000002760005710152015122717N000000000000N20       000480400K 10000000010000002748           
CUS0852500000108010587007         MANZANARES ANTHONY P5413 HIGHVIEW RD                        000N        CARE OF             
MTR08525000001000000000000000RA              10012950    005800160000001600000570000003NN  NNW 000                       N    
RDG08525000WATRL000000004K00000000000000475000510152015114123N000000000000N20       000490400K 10000000010000000453           
CUS0852500000108010588005         LARSEN TIMOTHY E    1273 MAPLE AVE                          000N        CARE OF             
MTR08525000001000000000000000RA              10001307    005800170000001700000570000003NN  NNW 000                       N    
RDG08525000WATRL000000004K00000000000000145000610152015114224N000000000000N20       000610400K 10000000010000000142           
CUS0852500000108010589003         KEITH C LANAHAN     1271 MAPLE AVE                          000N        CARE OF             
MTR08525000001000000000000000RA              23648816    005800180000001800000520000003NN  NNW 000                       N    
RDG08525000WATRL000000004K00000000000004260000710152015114256N000000000000N20       000320400K 10000000010000004233           
CUS0852500000108010590001         WINKLER JANICE L    1269 MAPLE AVE                          000N        CARE OF             
MTR08525000001000000000000000RA              99290524    005800190000001900000570000003NN  NNW 000                       N    
RDG08525000WATRL000000004K00000000000001485000810152015114318N000000000000N20       000220400K 10000000010000001458           
CUS0852500000108010591009         WHITE LAURA M       1267 MAPLE AVE                          000N        CARE OF             
MTR08525000001000000000000000RA              00130289    005800200000002000000570000003NN  NNW 000                       N    
RDG08525000WATRL000000004K00000000000000903000910152015114346N000000000000N20       000280400K 10000000010000000891           
CUS0852500000108010592007         DYSON SHERRIE KAY   1265 MAPLE AVE                          000N        CARE OF             
MTR08525000001000000000000000RA              00130405    005800210000002100000570000003NN  NNW 000                       N    
RDG08525000WATRL000000004K00000000000002427005510152015122359N000000000000N20       000400400K 10000000010000002407           
CUS0852500000108010593005         HEARNE PHILLIP CHARL1263 MAPLE AVE                          000N        CARE OF             
MTR08525000001000000000000000RA              10022255    005800220000002200000570000000NN  NNW 000                       N    
RDG08525000WATRL000000004K00000000000000498005410152015122319N000000000000N20       003500400K 10000000010000000469           
CUS0852500000108010594003         OLVER ELIZABETH ANN 1261 MAPLE AVE                          000N        CARE OF             
MTR08525000001000000000000000RA              23679199    005800230000002300000520000000NN  NNW 000                       N    
RDG08525000WATRL000000004K00000000000002376001010152015114523N000000000000N20       000970400K 10000000010000002366           
CUS0852500000108010595000         EBLE CHRISTIAN A    1259 MAPLE AVE                          000N        CARE OF             
MTR08525000001000000000000000RA              10001644    005800240000002400000570000003NN  NNW 000                       N    
RDG08525000WATRL000000004K00000000000000331001110152015114553N000000000000N20       000300400K 10000000010000000318           
CUS0852500000108010596008         HOLTON RAYMOND C    1257 MAPLE AVE                          000N        CARE OF             
MTR08525000001000000000000000RA              75424066    005800250000002500000350000003NN  NNW 000                       N    
RDG08525000WATRL000000004K00000000000000153001210152015114616N000000000000N20       000230400K 10000000010000000140           
CUS0852500000108010597006         MCLAUGHLIN THOMAS J,1255 MAPLE AVE                          000N        CARE OF             
MTR08525000001000000000000000RA              10021950    005800260000002600000570000003NN  NNW 000                       N    
RDG08525000WATRL000000004K00000000000000295001310152015114649N000000000000N20       000330400K 10000000010000000272           
CUS0852500000108010598004         CHANEY MEGAN S      1253 MAPLE AVE                          000N        CARE OF             
MTR08525000001000000000000000RA              23648456    005800270000002700000520000003NN  NNW 000                       N    
RDG08525000WATRL000000004K00000000000002778001410152015114715N000000000000N20       000260400K 10000000010000002775           
CUS0852500000108010599002         LI DIMIN            1249 MAPLE AVE                          000N        CARE OF             
MTR08525000001000000000000000RA              41081609    005800280000002800000520000003NN  NNW 000                       N    
RDG08525000WATRL000000004K00000000000001872001510152015114744N000000000000N20       000290400K 10000000010000001850           
CUS0852500000108010600008         MILLER MICHAEL D    1243 MAPLE AVE                          000N        CARE OF             
MTR08525000001000000000000000RA              11334544    005800290000002900000570000003NN  NNW 000                       N    
RDG08525000WATRL000000004K00000000000003894001610152015114823N000000000000N20       000390400K 10000000010000003884           
CUS0852500000108010601006         OHARO KYLE          1241 MAPLE AVE                          000N        CARE OF             
MTR08525000001000000000000000RA              23649176    005800300000003000000520000003NN  NNW 000                       N    
RDG08525000WATRL000000004K00000000000005933001710152015114848N000000000000N20       000250400K 10000000010000005903           
CUS0852500000108010602004         GARRY ABIDIN        1239 MAPLE AVE                          000N        CARE OF             
MTR08525000001000000000000000RA              10017108    005800310000003100000570000003NN  NNW 000                       N    
RDG08525000WATRL000000004K00000000000000288001810152015114919N000000000000N20       000310400K 10000000010000000280           
CUS0852500000108010603002         CURRAN FRANK CHRISTO1237 MAPLE AVE                          000N        CARE OF             
MTR08525000001000000000000000RA              23649197    005800320000003200000520000003NN  NNW 000                       N    
RDG08525000WATRL000000004K00000000000003495001910152015114945N000000000000N20       000260400K 10000000010000003488           
CUS0852500000108010604000         MARKO SCOTT A       1235 MAPLE AVE                          000N        CARE OF             
MTR08525000001000000000000000RA              23678908    005800330000003300000520000003NN  NNW 000                       N    
RDG08525000WATRL000000004K00000000000004276002010152015115032N000000000000N20       000470400K 10000000010000004262           
CUS0852500000108010605007         PENYAK MEGHAN M     1233 MAPLE AVE                          000N        CARE OF             
MTR08525000001000000000000000RA              23648452    005800340000003400000520000003NN  NNW 000                       N    
RDG08525000WATRL000000004K00000000000003727002110152015115100N000000000000N20       000280400K 10000000010000003709           
CUS0852500000108010606005         JONES SIDNEY KEITH  1231 MAPLE AVE                          000N        CARE OF             
MTR08525000001000000000000000RA              01084461    005800350000003500000610000003NN  NNW 000                       N    
RDG08525000WATRL000000004K00000000000000335002210152015115133N000000000000N20       000330400K 10000000010000000331           
CUS0852500000108010607003         ARBUTUS UNITED METHO1229 MAPLE AVE                          000N        CARE OF             
MTR08525000001000000000000000RA              23648174    005800360000003600000520000003NN  NNW 000                       N    
RDG08525000WATRL000000004K00000000000005281002310152015115225N000000000000N20       000520400K 10000000010000005251           
CUS0852500000108010608001         PEASE LAWRENCE M    1250 VOGT AVE                           000N        CARE OF             
MTR08525000001000000000000000RA              46878626    005800370000003700000520000003NN  NNW 000                       N    
RDG08525000WATRL000000004K00000000000002524011410162015112025N000000000000U20       001850400K 10000000010000002504           
CUS0852500000108010609009         HOFFMAN DAVID G     1242 VOGT AVE                           000N        CARE OF             
MTR08525000001000000000000000RA              41075105    005800380000003800000520000003NN  NNW 000                       N    
RDG08525000WATRL000000004K00000000000002463003510152015120108N000000000000N20       000720400K 10000000010000002447           
CUS0852500000108010610007         TAYMAN WILLIAM E,JR 1238 VOGT AVE                           000N        CARE OF             
MTR08525000001000000000000000RA              24220555    005800390000003900000520000003NN  NNW 000                       N    
RDG08525000WATRL000000004K00000000000004450003410152015115956N000000000000N20       000260400K 10000000010000004437           
CUS0852500000108010611005         PLITT NINA          1234 VOGT AVE                           000N        CARE OF             
MTR08525000001000000000000000RA              50478059    005800400000004000000520000003NN  NNW 000                       N    
RDG08525000WATRL000000004K00000000000003734003010152015115758N000000000010N20       000380400K 10000000010000003708           
CUS0852500000108010612003         STEIN WILLIAM M     1232 VOGT AVE                           000N        CARE OF             
MTR08525000001000000000000000RA              14923813    005800410000004100000310000003NN  NNW 000                       N    
RDG08525000WATRL000000004K00000000000000909002710152015115618N000000000000N20       000250400K 10000000010000000891           
CUS0852500000108010613001         DOWLING DANNY T     1230 VOGT AVE                           000N        CARE OF             
MTR08525000001000000000000000RA              01087014    005800420000004200000610000003NN  NNW 000                       N    
RDG08525000WATRL000000004K00000000000001051002610152015115553N000000000000N20       000590400K 10000000010000001036           
CUS0852500000108010614009         SHUTT CAROL E       1228 VOGT AVE                           000N        CARE OF             
MTR08525000001000000000000000RA              50481290    005800430000004300000520000003NN  NNW 000                       N    
RDG08525000WATRL000000004K00000000000000803002510152015115454N000000000000N20       000170400K 10000000010000000797           
CUS0852500000108010615006         OELMANN GARY F      1229 VOGT AVE                           000N        CARE OF             
MTR08525000001000000000000000RA              76344897    005800440000004400000350000003NN  NNW 000                       N    
RDG08525000WATRL000000004K00000000000000075002410152015115437N000000000000N20       001320400K 10000000010000000066           
CUS0852500000108010616004         STEIN JOHN L,SR     1233 VOGT AVE                           000N        CARE OF             
MTR08525000001000000000000000RA              42809723    005800450000004500000520000003NN  NNW 000                       N    
RDG08525000WATRL000000004K00000000000002898002810152015115643N000000000000N20       000250400K 10000000010000002869           
CUS0852500000108010617002         REIMERS MILTON C    1237 VOGT AVE                           000N        CARE OF             
MTR08525000001000000000000000RA              00130406    005800460000004600000570000003NN  NNW 000                       N    
RDG08525000WATRL000000004K00000000000000650002910152015115720N000100000010N20       000370400K 10000000010000000650           
CUS0852500000108010618000         KIM SIN SUNG        1239 VOGT AVE                           000N        CARE OF             
MTR08525000001000000000000000RA              10022289    005800470000004700000570000003NN  NNW 000                       N    
RDG08525000WATRL000000004K00000000000000240003110152015115822N000000000000N20       000240400K 10000000010000000216           
CUS0852500000108010619008         NAGEL CONSTANCE M   1241 VOGT AVE                           000N        CARE OF             
MTR08525000001000000000000000RA              50478546    005800480000004800000520000003NN  NNW 000                       N    
RDG08525000WATRL000000004K00000000000001443003210222015153642O000000000010N82       000310400K 10000000010000001422           
CUS0852500000108010620006         ROBERTS SHARRON J   1243 VOGT AVE                           000N        CARE OF             
MTR08525000001000000000000000RA              24772653    005800490000004900000520000003NN  NNW 000                       N    
RDG08525000WATRL000000004K00000000000001652003310152015115930N000300000030N20       000370400K 10000000010000001695           
CUS0852500000108010621004         RANDLE DENNIS A     1240 VOGT AVE                           000N        CARE OF             
MTR08525000001000000000000000RA              48585201    005800500000005000000520000003NN  NNW 000                       N    
RDG08525000WATRL000000004K00000000000002201003610222015153716O000400000010N82       000170400K 10000000010000002170           
CUS0852500000108010622002         BUCEVICIUS ZIGMAS   1245 VOGT AVE                           000N        CARE OF             
MTR08525000001000000000000000RA              00130291    005800510000005100000570000003NN  NNW 000                       N    
RDG08525000WATRL000000004K00000000000001160003710152015120142N000000000000N20       000170400K 10000000010000001151           
CUS0852500000108010623000         BECK CLINTON S      1251 VOGT AVE                           000N        CARE OF             
MTR08525000001000000000000000RA              27812159    005800520000005200000520000003NN  NNW 000                       N    
RDG08525000WATRL000000004K00000000000003081004010152015120345N000000000000N20       000570400K 10000000010000003061           
CUS0852500000108010624008         AMBROZAK DOUGLAS ALA1246 VOGT AVE                           000N        CARE OF             
MTR08525000001000000000000000RA              00130404    005800530000005300000570000003NN  NNW 000                       N    
RDG08525000WATRL000000004K00000000000000568003810152015120226N000000000000N20       000440400K 10000000010000000560           
CUS0852500000108010625005         MILLS LESTER H,3RD  1248 VOGT AVE                           000N        CARE OF             
MTR08525000001000000000000000RA              24220611    005800540000005400000520000003NN  NNW 000                       N    
RDG08525000WATRL000000004K00000000000003023003910152015120248N000000000000N20       000220400K 10000000010000003019           
CUS0852500000108010626003         IMBRAGUGLIO AARON S/1252 VOGT AVE                           000N        CARE OF             
MTR08525000001000000000000000RA              44178564    005800550000005500000520000003NN  NNW 000                       N    
RDG08525000WATRL000000004K00000000000001877004110152015120440N000000000000N20       000550400K 10000000010000001853           
CUS0852500000108010627001         MANGUS MARK J       1255 VOGT AVE                           000N        CARE OF             
MTR08525000001000000000000000RA              24768912    005800560000005600000520000003NN  NNW 000                       N    
RDG08525000WATRL000000004K00000000000003484004210152015120508N000000000000N20       000280400K 10000000010000003472           
CUS0852500000108010628009         MONAGHAN MICHAEL A,J1257 VOGT AVE                           000N        CARE OF             
MTR08525000001000000000000000RA              01090690    005800570000005700000610000003NN  NNW 000                       N    
RDG08525000WATRL000000004K00000000000001342004310152015120617N000000000000N20       000690400K 10000000010000001315           
CUS0852500000108010629007         ALISON BEARES       1254 VOGT AVE                           000N        CARE OF             
MTR08525000001000000000000000RA              75613402    005800580000005800000350000003NN  NNW 000                       N    
RDG08525000WATRL000000004K00000000000000138004410152015120628N000000000000N20       000110400K 10000000010000000124           
CUS0852500000108010630005         HAYES FRANCES E     1256 VOGT AVE                           000N        CARE OF             
MTR08525000001000000000000000RA              44178569    005800590000005900000520000003NN  NNW 000                       N    
RDG08525000WATRL000000004K00000000000001079004510152015120700N000400000020N20       000320400K 10000000010000001077           
CUS0852500000108010631003         MASON MICHELE WALTRA1259 VOGT AVE                           000N        CARE OF             
MTR08525000001000000000000000RA              26006061    005800600000006000000520000003NN  NNW 000                       N    
RDG08525000WATRL000000004K00000000000001851004610152015120727N000000000000N20       000270400K 10000000010000001842           
CUS0852500000108010632001         LANE JOSEPH G       1258 VOGT AVE                           000N        CARE OF             
MTR08525000001000000000000000RA              77890859    005800610000006100000360000003NN  NNW 000                       N    
RDG08525000WATRL000000004K00000000000000034004710152015120833N000000000000N20       000660400K 10000000010000000014           
CUS0852500000108010633009         LACEY ROBERT CARROLL1260 VOGT AVE                           000N        CARE OF             
MTR08525000001000000000000000RA              10001634    005800620000006200000570000003NN  NNW 000                       N    
RDG08525000WATRL000000004K00000000000000603004910152015120955N000000000000N20       000360400K 10000000010000000588           
CUS0852500000108010634007         LI BAI              1265 VOGT AVE                           000N        CARE OF             
MTR08525000001000000000000000RA              44178549    005800630000006300000520000003NN  NNW 000                       N    
RDG08525000WATRL000000004K00000000000003513004810152015120919N000000000000N20       000460400K 10000000010000003479           
CUS0852500000108010635004         SIVERS WILLIAM L    1267 VOGT AVE                           000N        CARE OF             
MTR08525000001000000000000000RA              35099678    005800640000006400000520000003NN  NNW 000                       N    
RDG08525000WATRL000000004K00000000000003417005010152015121007N000000000000N20       000120400K 10000000010000003408           
CUS0852500000108010636002         BLOOM MURRAY        1269 VOGT AVE                           000N        CARE OF             
MTR08525000001000000000000000RA              45378220    005800650000006500000520000003NN  NNW 000                       N    
RDG08525000WATRL000000004K00000000000001885005310152015121729N000000000010N20       002500400K 10000000010000001859           
CUS0852500000108010637000         UTZINGER THEODORE H 1262 VOGT AVE                           000N        CARE OF             
MTR08525000001000000000000000RA              44178472    005800660000006600000520000003NN  NNW 000                       N    
RDG08525000WATRL000000004K00000000000001796005110152015121139N000000000010N20       000920400K 10000000010000001771           
CUS0852500000108010638008         SMITH JACOB R       1264 VOGT AVE                           000N        CARE OF             
MTR08525000001000000000000000RA              24220553    005800670000006700000520000003NN  NNW 000                       N    
RDG08525000WATRL000000004K00000000000002690005210152015121319N000000000000N20       001000400K 10000000010000002680           
CUS0852500000108010639006         TAMMY WHICOMB       1266 VOGT AVE                           000N        CARE OF             
MTR08525000001000000000000000RA              44178470    005800680000006800000520000003NN  NNW 000                       N    
RDG08525000WATRL000000004K00000000000000725000110152015113858N000000000000N20       000000400K 10000000010000000665           
CUS0852500000108010640004         WENDELL RICHARD J,JR1268 VOGT AVE                           000N        CARE OF             
MTR08525000001000000000000000RA              27134123    005800690000006900000520000003NN  NNW 000                       N    
RDG08525000WATRL000000004K00000000000002220000210152015113924N000000000000N20       000260400K 10000000010000002210           
CUS0852500000108010641002         KEMFERT EDWARD      5415 HIGHVIEW RD                        000N        CARE OF             
MTR08525000001000000000000000RA              23648914    005800700000007000000520000003NN  NNW 000                       N    
RDG08525000WATRL000000004K00000000000002324000310152015113959N000000000000N20       000350400K 10000000010000002313           
CUS0852500000108010642000         BOYLE MELINDA G     5417 HIGHVIEW RD                        000N        CARE OF             
MTR08525000001000000000000000RA              11428364    005800710000007100000570000003NN  NNW 000                       N    
RDG08525000WATRL000000004K00000000000004903000410152015114034N000000000000N20       000350400K 10000000010000004894           
CUS0852500000108010643008         BOWEN MARY C        1268 POPLAR AVE                         000N        CARE OF             
MTR08525000001000000000000000RA              23648915    005800720000007200000520000003NN  NNW 000                       N    
RDG08525000WATRL000000004K00000000000005131006810162015105240N000000000000U20       000190400K 10000000010000005108           
CUS0852500000108010644006         DILLOW JOHN C,3RD   1266 POPLAR AVE                         000N        CARE OF             
MTR08525000001000000000000000RA              10014824    005800730000007300000570000003NN  NNW 000                       N    
RDG08525000WATRL000000004K00000000000000867006710162015105221N000000000000U20       000200400K 10000000010000000835           
CUS0852500000108010645003         HALL ROCHELLE       1264 POPLAR AVE                         000N        CARE OF             
MTR08525000001000000000000000RA              40322577    005800740000007400000520000003NN  NNW 000                       N    
RDG08525000WATRL000000004K00000000000002255006610162015105201N000000000000U20       000370400K 10000000010000002252           
CUS0852500000108010646001         GOODNOW STEVEN S    1262 POPLAR AVE                         000N        CARE OF             
MTR08525000001000000000000000RA              29402861    005800750000007500000520000003NN  NNW 000                       N    
RDG08525000WATRL000000004K00000000000003105006510162015105124N000000000000U20       000220400K 10000000010000003093           
CUS0852500000108010647009         GUTBERLET DONALD R  1260 POPLAR AVE                         000N        CARE OF             
MTR08525000001000000000000000RA              10000127    005800760000007600000570000003NN  NNW 000                       N    
RDG08525000WATRL000000004K00000000000000673006410162015105102N000000000000U20       000230400K 10000000010000000650           
CUS0852500000108010648007         GUDAUSKAS KASIMIR   1258 POPLAR AVE                         000N        CARE OF             
MTR08525000001000000000000000RA              11334501    005800770000007700000570000003NN  NNW 000                       N    
RDG08525000WATRL000000004K00000000000003084006310162015105039N000300000010U20       000190400K 10000000010000003072           
CUS0852500000108010649005         SCHMINCKE HENRY,3RD 1256 POPLAR AVE                         000N        CARE OF             
MTR08525000001000000000000000RA              00130347    005800780000007800000570000003NN  NNW 000                       N    
RDG08525000WATRL000000004K00000000000000517006210162015105020N000000000000U20       000400400K 10000000010000000511           
CUS0852500000108010650003         KARDOKAS JONAS      1254 POPLAR AVE                         000N        CARE OF             
MTR08525000001000000000000000RA              29403165    005800790000007900000520000003NN  NNW 000                       N    
RDG08525000WATRL000000004K00000000000002463006110162015104940N000300000020U20       000350400K 10000000010000002480           
CUS0852500000108010651001         SCHNEIDER GEORGE R,J1252 POPLAR AVE                         000N        CARE OF             
MTR08525000001000000000000000RA              27764108    005800800000008000000520000003NN  NNW 000                       N    
RDG08525000WATRL000000004K00000000000002545006010162015104905N000000000000U20       000290400K 10000000010000002534           
CUS0852500000108010652009         ROBEY JOHN M        1250 POPLAR AVE                         000N        CARE OF             
MTR08525000001000000000000000RA              11327685    005800810000008100000570000003NN  NNW 000                       N    
RDG08525000WATRL000000004K00000000000005122005910162015104836N000000000000U20       000390400K 10000000010000005106           
CUS0852500000108010653007         BELL CHARLES R      1248 POPLAR AVE                         000N        CARE OF             
MTR08525000001000000000000000RA              42809148    005800820000008200000520000003NN  NNW 000                       N    
RDG08525000WATRL000000004K00000000000002031005810162015104757N000000000000U20       000630400K 10000000010000002023           
CUS0852500000108010654005         ROSS MARK SINCLAIR  1246 POPLAR AVE                         000N        CARE OF             
MTR08525000001000000000000000RA              30515995    005800830000008300000520000003NN  NNW 000                       N    
RDG08525000WATRL000000004K00000000000002160005710162015104654N000000000000U20       000420400K 10000000010000002143           
CUS0852500000108010655002         PALM BRIDGET A      1244 POPLAR AVE                         000N        CARE OF             
MTR08525000001000000000000000RA              41590222    005800840000008400000520000003NN  NNW 000                       N    
RDG08525000WATRL000000004K00000000000001434005610162015104612N000000000000U20       000050400K 10000000010000001417           
CUS0852500000108010656000         THOMAS M HOWSER     1242 POPLAR AVE                         000N        CARE OF             
