FHDNNNN038008205008205008205N                                                                                           025943
RHD06383200NN00200049000000200000002900490049000022NY004900490049000600030000000000000000000002    10192015NY020000 N         
CUS0638320000106286581001         TRF DP HOLDINGS, LLC1324 N BOND ST                          000N        CARE OF             
MTR06383200001000000000000000RA              99999999    005800010000000100000620000003NN  NNW 000   VACANT PROPERTY     N    
RDG06383200WATRL000000004K00000000000000000000210242015074607S022000000000UFC08     000530400K 10000000010000000000           
CUS0638320000106370636000         PRESTON COMMUNITY DE1322 N DALLAS ST                        000N        CARE OF             
MTR06383200001000000000000000RA              21742469    005800020000000200000590000003NN  NNW 000   VACANT PROPERTY     N    
RDG06383200WATRL000000004K00000000000000000001010242015080114S022000000000UFC08     000100400K 10000000010000001883           
CUS0638320000106286611006         TRF DP HOLDINGS, LLC1519 E PRESTON ST                       000N        CARE OF             
MTR06383200001000000000000000RA              21419180    005800030000000300000590000003NN  NNW 000   VACANT PROPERTY     N    
RDG06383200WATRL000000004K00000000000001964000910242015080104N000000000000UFC08     000640400K 10000000010000001964           
CUS0638320000106368917008         CARPENTER, EARL     1603 HAKESLEY PL                        000N        CARE OF             
MTR06383200001000000000000000RA              79622815    005800040000000400000360000003NN  NNW 000                       N    
RDG06383200WATR 000000004R00000000000000005000010272015190000N000300000070N         000000400R 10000000010000000000           
RFF0638320068545245      ERT      0000  956.44375000140000102720151900000000054968100W 1220000N                               
CUS0638320000106286621005         WILLS, DOROTHY R    1605 HAKESLEY PL                        000N        CARE OF             
MTR06383200001000000000000000RA              75422309    005800050000000500000350000003NY  NNW 000                       N    
MTM0638320075422309    COVERED                                                                                                
RDG06383200WATRL000000004K00000000000000000000000000000000000 000000000000U         000000400  10000000010000000041           
CUS0638320000106368015001         WILSON, BRENDA      1611 HAKESLEY PL                        000N        CARE OF             
MTR06383200001000000000000000RA              21427588    005800060000000600000590000003NN  NNW 000   VACANT PROPERTY     N    
RDG06383200WATRL000000004K00000000000002102001110242015080447N000000000000UFC08     002130400K 10000000010000002102           
CUS0638320000106286622003         PROJECT CENTRAL LLC 1615 HAKESLEY PL                        000N        CARE OF             
MTR06383200001000000000000000RA              77987753    005800070000000700000360000003NN  NNW 000                       N    
RDG06383200WATR 000000004R00000000000000173000010272015190000N000300000070N         000000400R 10000000010000000142           
RFF0638320068545261      ERT      0000  956.44375000140000102720151900000001733912100W 1220000N                               
CUS0638320000106286623001         KIMBROUGH, FAYE     1617 HAKESLEY PL                        000N        CARE OF             
MTR06383200001000000000000000RA              75423113    005800080000000800000350000003NN  NNW 000                       N    
RDG06383200WATR 000000004R00000000000000187000010272015190000N000300000070N         000000400R 10000000010000000175           
RFF0638320068545252      ERT      0000  956.44375000140000102720151900000001870436100W 1220000N                               
CUS0638320000106286624009         TRF DEVELOPMENT PART1619 HAKESLEY PL                        000N        CARE OF             
MTR06383200001000000000000000RA              75615581    005800090000000900000350000003NN  NNW 000                       N    
RDG06383200WATR 000000004R00000000000000066000010272015190000N000300000070N         000000400R 10000000010000000058           
RFF0638320068545219      ERT      0000  956.44375000140000102720151900000000667862100W 1220000N                               
CUS0638320000106373168001         JORDAN, RICHARD W   1623 HAKESLEY PL                        000N        CARE OF             
MTR06383200001000000000000000RA              21728686    005800100000001000000590000003NN  NNW 000                       N    
RDG06383200WATRL000000004K00000000000000000000000000000000000 000000000000U         000000400  10000000010000001614           
CUS0638320000106286625006         TRF DEVELOPMENT PART1627 HAKESLEY PL                        000N        CARE OF             
MTR06383200001000000000000000RA              75423114    005800110000001100000350000003NN  NNW 000                       N    
RDG06383200WATR 000000004R00000000000000241000010272015190000N000300000070N         000000400R 10000000010000000213           
RFF0638320068545177      ERT      0000  956.44375000140000102720151900000002414083100W 1220000N                               
CUS0638320000106286626004         EAST BALTIMORE HISTO1629 HAKESLEY PL                        000N        CARE OF             
MTR06383200001000000000000000RA              75423115    005800120000001200000350000003NN  NNW 000                       N    
RDG06383200WATRL000000004K00000000000000092001210242015080611N000300000010UFC08     000840400K 10000000010000000098           
CUS0638320000106366252002         TRF DEVELOPMENT PART1635 HAKESLEY PL                        000N        CARE OF             
MTR06383200001000000000000000RA              77989223    005800130000001300000350000003NY  NNW 000                       N    
MTM0638320077989223    CLEANOUT                                                                                               
RDG06383200WATRL000000004K00000000000000000000000000000000000 000000000000U         000000400  10000000010000000011           
CUS0638320000106286628000         TRF DEVELOPMENT PART1637 HAKESLEY PL                        000N        CARE OF             
MTR06383200001000000000000000RA              75616421    005800140000001400000350000003NY  NNW 000                       N    
MTM0638320075616421    SENSUS 77989223                                                                                        
RDG06383200WATRL000000004K00000000000000076001310242015080726N000300000010UFC08     000750400K 10000000010000000224           
CUS0638320000106286629008         ARLENE SPEARMAN     1244 N BROADWAY                         000N        CARE OF             
MTR06383200001000000000000000RA              79260633    005800150000001500000360000003NN  NNW 000                       N    
RDG06383200WATR 000000004R00000000000000001000010272015190000N000300000070N         000000400R 10000000010000000000           
RFF0638320069338331      ERT      0000  956.44375000140000102720151900000000015226100W 1220000N                               
CUS0638320000106286630006         HABC                1240 N BROADWAY                         000N        CARE OF             
MTR06383200001000000000000000RA              74814782    007500160000001600000350000003NN  NNW 000                       N    
RDG06383200WATR 000000004R00000000000000384000010272015190000N000000000000N         000000400R 10000000010000000315           
RFF0638320068545266      ERT      0000  956.44375000140000102720151900000003843299100W 1220000N                               
CUS0638320000106365402004         JAMES-HASSAN, MARTHA1218 N BROADWAY                         000N        CARE OF             
MTR06383200001000000000000000RA              75616932    005800170000001700000350000003NN  NNW 000                       N    
RDG06383200WATR 000000004R00000000000000101000010272015190000N000300000070N         000000400R 10000000010000000086           
RFF0638320068545338      ERT      0000  956.44375000140000102720151900000001017661100W 1220000N                               
CUS0638320000106286632002         BROADWAY DIVA'S, LLC1626 E BIDDLE ST                        000N        CARE OF             
MTR06383200001000000000000000RA              75423121    005800180000001800000350000003NN  NNW 000                       N    
RDG06383200WATR 000000004R00000000000000000000010272015190000N000100000070N         000000400R 10000000010000000000           
RFF0638320068545234      ERT      0000  956.44375000140000102720151900000000000005100W 1220000N                               
CUS0638320000106286633000         RUBIN/KAREN CARTER  1624 E BIDDLE ST                        000N        CARE OF             
MTR06383200001000000000000000RA              76347278    005800190000001900000350000003NN  NNW 000                       N    
RDG06383200WATR 000000004R00000000000000788000010272015190000N000300000070N         000000400R 10000000010000000732           
RFF0638320068544967      ERT      0000  956.44375000140000102720151900000007884336100W 1220000N                               
CUS0638320000106369464000         BEASLEY, RICHARD B. 1622 E BIDDLE ST                        000N        CARE OF             
MTR06383200001000000000000000RA              74689171    005800200000002000000350000003NN  NNW 000                       N    
RDG06383200WATR 000000004R00000000000000381000010272015190000N000300000070N         000000400R 10000000010000000340           
RFF0638320068545217      ERT      0000  956.44375000140000102720151900000003817896100W 1220000N                               
CUS0638320000106354782002         FAULKNER, CATHERINE 1612 E BIDDLE ST                        000N        CARE OF             
MTR06383200001000000000000000RA              75422840    005800210000002100000360000003NN  NNW 000                       N    
RDG06383200WATRL000000004K00000000000000247000810242015080832N000000000011UFC08     000660400K 10000000010000000242           
CUS0638320000106286635005         TRF DP HOLDINGS, LLC1203 N BOND ST                          000N        CARE OF             
MTR06383200001000000000000000RA              75613520    005800220000002200000350000003NN  NNW 000                       N    
RDG06383200WATR 000000004R00000000000000008000010272015190000N000100000070N         000000400R 10000000010000000008           
RFF0638320069484963      ERT      0000  956.44375000140000102720151900000000083910100W 1220000N                               
CUS0638320000106286636003         EDWINA BRIDGES      1205 N BOND ST                          000N        CARE OF             
MTR06383200001000000000000000RA              75613527    005800230000002300000350000003NY  NNW 000   VACANT PROPERTY     N    
MTM0638320075613527    YOKE                                                                                                   
RDG06383200WATRL000000004K00000000000000000000000000000000000 000000000000U         000000400  10000000010000000000           
CUS0638320000106286637001         TRF DEVELOPMENT PART1215 N BOND ST                          000N        CARE OF             
MTR06383200001000000000000000RA              75423117    005800240000002400000350000003NN  NNW 000   VACANT PROPERTY     N    
RDG06383200WATR 000000004R00000000000000000000010272015190000N000100000070N         000000400R 10000000010000000000           
RFF0638320069484937      ERT      0000  956.44375000140000102720151900000000000002100W 1220000N                               
CUS0638320000106286638009         KF171CBB, LLC       1217 N BOND ST                          000N        CARE OF             
MTR06383200001000000000000000RA              75422306    005800250000002500000350000003NN  NNW 000                       N    
RDG06383200WATR 000000004R00000000000000217000010272015190000N000300000070N         000000400R 10000000010000000203           
RFF0638320069484939      ERT      0000  956.44375000140000102720151900000002170954100W 1220000N                               
CUS0638320000106352199001         GLOBAL CONEX,LLC    1243 N BOND ST                          000N        CARE OF             
MTR06383200001000000000000000RA              77877448    005800260000002600000360000003NN  NNW 000                       N    
RDG06383200WATRL000000004K00000000000000000000110242015074514N000000000000UFC08     000000400K 10000000010000000000           
CUS0638320000106286644007         MOORE, PAM          1218 N BOND ST                          000N        CARE OF             
MTR06383200001000000000000000RA              75422313    005800270000002700000350000003NN  NNW 000                       N    
RDG06383200WATR 000000004R00000000000000013000010272015190000N000300000070N         000000400R 10000000010000000009           
RFF0638320069484918      ERT      0000  956.44375000140000102720151900000000133047100W 1220000N                               
CUS0638320000106286645004         EAST BALTIMORE HISTO1216 N BOND ST                          000N        CARE OF             
MTR06383200001000000000000000RA              75422305    005800280000002800000350000003NN  NNW 000                       N    
RDG06383200WATR 000000004R00000000000000083000010272015190000N000300000070N         000000400R 10000000010000000073           
RFF0638320069484961      ERT      0000  956.44375000140000102720151900000000832061100W 1220000N                               
CUS0638320000106286648008         TRF DEVELOPMENT PART1516 E BIDDLE ST                        000N        CARE OF             
MTR06383200001000000000000000RA              77886752    005800290000002900000350000003NN  NNW 000                       N    
RDG06383200WATRL000000004K00000000000000054000310242015075008N000400000010UFC08     002410400K 10000000010000000045           
CUS0638320000106286647000         EAST BALTIMORE HISTO1524 E BIDDLE ST                        000N        CARE OF             
MTR06383200001000000000000000RA              78024231    005800300000003000000350000003NN  NNW 000                       N    
RDG06383200WATRL000000004K00000000000000111000410242015075047N000000000000UFC08     000390400K 10000000010000000101           
CUS0638320000106377837007         TRF DEVELOPMENT PART1205 N DALLAS ST                        000N        CARE OF             
MTR06383200001000000000000000RA              79260634    005800310000003100000360000003NN  NNW 000                       N    
RDG06383200WATR 000000004R00000000000000008000010272015190000N000300000070N         000000400R 10000000010000000000           
RFF0638320069338382      ERT      0000  956.44375000140000102720151900000000088411100W 1220000N                               
CUS0638320000106377838005         TRF DP HOLDINGS, LLC1219 N DALLAS ST                        000N        CARE OF             
MTR06383200001000000000000000RA              21734588    005800320000003200000590000003NN  NNW 000                       N    
RDG06383200WATRL000000004K00000000000000000001410242015080850S022000000000UFC08     000180400K 10000000010000002452           
CUS0638320000106286666000         JONES, PAUL I       1519 E BIDDLE ST                        000N        CARE OF             
MTR06383200001000000000000000RA              78024248    005800330000003300000350000003NN  NNW 000                       N    
RDG06383200WATRL000000004K00000000000000126000510242015075401N000300000010UFC08     001940400K 10000000010000000010           
CUS0638320000106286667008         TRF DEVELOPMENT PART1521 E BIDDLE ST                        000N        CARE OF             
MTR06383200001000000000000000RA              78024247    005800340000003400000350000003NN  NNW 000                       N    
RDG06383200WATRL000000004K00000000000000074000610242015075429N000000000000UFC08     000280400K 10000000010000000060           
CUS0638320000106286670002         DEBEBE, KALEAB F    1603 E BIDDLE ST                        000N        CARE OF             
MTR06383200001000000000000000RA              74689169    005800350000003500000350000003NN  NNW 000   VACANT PROPERTY     N    
RDG06383200WATR 000000004R00000000000000000000010272015190000N000100000070N         000000400R 10000000010000000000           
RFF0638320068545242      ERT      0000  956.44375000140000102720151900000000000003100W 1220000N                               
CUS0638320000106286672008         BLUFORD T BRIGHT    1609 E BIDDLE ST                        000N        CARE OF             
MTR06383200001000000000000000RA              75614890    005800360000003600000350000003NN  NNW 000                       N    
RDG06383200WATR 000000004R00000000000000527000010272015190000N000300000070N         000000400R 10000000010000000524           
RFF0638320068545241      ERT      0000  956.44375000140000102720151900000005279906100W 1220000N                               
CUS0638320000106286673006         SANTOLI, PHILLIP J  1611 E BIDDLE ST                        000N        CARE OF             
MTR06383200001000000000000000RA              10024156    005800370000003700000570000003NY  NNW 000                       N    
MTM0638320010024156    SENSUS 79622753                                                                                        
RDG06383200WATRL000000004K00000000000000010000710242015075901N000300000010UFC08     002720400K 10000000010000000209           
CUS0638320000106286675001         RICHARD B BEASLEY   1615 E BIDDLE ST                        000N        CARE OF             
MTR06383200001000000000000000RA              74689180    005800380000003800000350000003NN  NNW 000                       N    
RDG06383200WATR 000000004R00000000000000193000010272015190000N000300000070N         000000400R 10000000010000000171           
RFF0638320068545336      ERT      0000  956.44375000140000102720151900000001939101100W 1220000N                               
CUS0638320000106371763001         HOUSING AUTHORITY   1624 E CHASE ST                         000N        CARE OF             
MTR06383200001000000000000000RA              75422366    005800390000003900000350000003NN  NNW 000                       N    
RDG06383200WATR 000000004R00000000000000000000010272015190000N000100000070N         000000400R 10000000010000000000           
RFF0638320069484932      ERT      0000  956.44375000140000102720151900000000000004100W 1220000N                               
CUS0638320000106354762004         GENTRY, PHYLLIS     1616 E CHASE ST                         000N        CARE OF             
MTR06383200001000000000000000RA              75422365    005800400000004000000350000003NN  NNW 000                       N    
RDG06383200WATR 000000004R00000000000000168000010272015190000N000300000070N         000000400R 10000000010000000165           
RFF0638320069484953      ERT      0000  956.44375000140000102720151900000001682160100W 1220000N                               
CUS0638320000106354768001         ALLEN, JOHNNIE      1612 E CHASE ST                         000N        CARE OF             
MTR06383200001000000000000000RA              75422359    005800410000004100000350000003NN  NNW 000                       N    
RDG06383200WATR 000000004R00000000000000029000010272015190000N000100000070N         000000400R 10000000010000000029           
RFF0638320069484928      ERT      0000  956.44375000140000102720151900000000294300100W 1220000N                               
CUS0638320000106371766004         HOUSING AUTHORITY OF1600 E CHASE ST                         000N        CARE OF             
MTR06383200001000000000000000RA              75422362    005800420000004200000350000003NN  NNW 000                       N    
RDG06383200WATR 000000004R00000000000000654000010272015190000N000300000070N         000000400R 10000000010000000585           
RFF0638320069484962      ERT      0000  956.44375000140000102720151900000006548976100W 1220000N                               
CUS0638320000106286680001         FLORENCE CRUMP      1117 N BOND ST                          000N        CARE OF             
MTR06383200001000000000000000RA              75617338    005800430000004300000350000003NN  NNW 000                       N    
RDG06383200WATR 000000004R00000000000000217000010272015190000N000300000070N         000000400R 10000000010000000200           
RFF0638320069484941      ERT      0000  956.44375000140000102720151900000002179523100W 1220000N                               
CUS0638320000106286681009         FLORENCE CRUMP      1119 N BOND ST                          000N        CARE OF             
MTR06383200001000000000000000RA              75617174    005800440000004400000350000003NN  NNW 000                       N    
RDG06383200WATR 000000004R00000000000000228000010272015190000N000300000070N         000000400R 10000000010000000216           
RFF0638320069484959      ERT      0000  956.44375000140000102720151900000002281557100W 1220000N                               
CUS0638320000106286682007         ROZANKOWSKI PROPERTI1121 N BOND ST                          000N        CARE OF             
MTR06383200001000000000000000RA              78020929    005800450000004500000360000003NN  NNW 000   VACANT PROPERTY     N    
RDG06383200WATR 000000004R00000000000000000000010272015190000N000100000070N         000000400R 10000000010000000000           
RFF0638320068545253      ERT      0000  956.44375000140000102720151900000000002731100W 1220000N                               
CUS0638320000106368014004         TRF DP HOLDINGS, LLC1129 N BOND ST                          000N        CARE OF             
MTR06383200001000000000000000RA              75422312    005800460000004600000350000003NY  NNW 000                       N    
MTM0638320075422312    YOKE                                                                                                   
RDG06383200WATRL000000004K00000000000000000000000000000000000 000000000000U         000000400  10000000010000000000           
CUS0638320000106286685000         MAYOR AND CITY COUNC1131 N BOND ST                          000N        CARE OF             
MTR06383200001000000000000000RA              75613877    005800470000004700000350000003NY  NNW 000                       N    
MTM0638320075613877    YOKE                                                                                                   
RDG06383200WATRL000000004K00000000000000000000000000000000000 000000000000U         000000400  10000000010000000000           
CUS0638320000106370690007         GREER, ESTHER       1104 N BOND ST                          000N        CARE OF             
MTR06383200001000000000000000RA              75617337    005800480000004800000350000003NN  NNW 000                       N    
RDG06383200WATR 000000004R00000000000000063000010272015190000N000300000070N         000000400R 10000000010000000040           
RFF0638320068545275      ERT      0000  956.44375000140000102720151900000000632904100W 1220000N                               
CUS0638320000106286690000         VONDALAIR Y JONES   1506 E CHASE ST                         000N        CARE OF             
MTR06383200001000000000000000RA              75615232    005800490000004900000350000003NN  NNW 000                       N    
RDG06383200WATR 000000004R00000000000000024000010272015190000N000300000070N         000000400R 10000000010000000022           
RFF0638320069484950      ERT      0000  956.44375000140000102720151900000000245661100W 1220000N                               
RTR06383200NN00200049000000200000002900490049000022NY004900490049000600030000000000000000000002    10192015NY020000 N         
RHD06384000NN00170062000000170000004500620062000042NY006200620062001200050000000000000000000002    10212015NY020000 N         
CUS0638400000106368612005         EPPS, PAULETTE      1901 E LAFAYETTE AVE                    000N        CARE OF             
MTR06384000001000000000000000RA              75426644    005800010000000100000350000003NN  NNW 000                       N    
RDG06384000WATR 000000004R00000000000000046000010272015190000N000000000000N         000000400R 10000000010000000045           
RFF0638400069228109      ERT      0000  956.44375000140000102720151900000000467729100W 1220000N                               
CUS0638400000106330490001         MCCLARY MANAGEMENT L1905 E LAFAYETTE AVE                    000N        CARE OF             
MTR06384000001000000000000000RA              75615094    005800020000000200000350000003NN  NNW 000                       N    
RDG06384000WATR 000000004R00000000000000145000010272015190000N000000000000N         000000400R 10000000010000000122           
RFF0638400069224062      ERT      0000  956.44375000140000102720151900000001454975100W 1220000N                               
CUS0638400000106330492007         MCCLARY MANAGEMENT, 1909 E LAFAYETTE AVE                    000N        CARE OF             
MTR06384000001000000000000000RA              75426646    005800030000000300000350000003NN  NNW 000                       N    
RDG06384000WATR 000000004R00000000000000143000010272015190000N000100000050N         000000400R 10000000010000000143           
RFF0638400069228419      ERT      0000  956.44375000140000102720151900000001439949100W 1220000N                               
CUS0638400000106330493005         JOHNSON, KEITH      1911 E LAFAYETTE AVE                    000N        CARE OF             
MTR06384000001000000000000000RA              74691893    005800040000000400000350000003NN  NNW 000                       N    
RDG06384000WATR 000000004R00000000000000211000010272015190000N000000000000N         000000400R 10000000010000000195           
RFF0638400069372052      ERT      0000  956.44375000140000102720151900000002115472100W 1220000N                               
CUS0638400000106330494003         MCCLARY MANAGEMENT, 1913 E LAFAYETTE AVE                    000N        CARE OF             
MTR06384000001000000000000000RA              74688185    005800050000000500000350000003NN  NNW 000                       N    
RDG06384000WATR 000000004R00000000000000099000010272015190000N000000000000N         000000400R 10000000010000000087           
RFF0638400069373641      ERT      0000  956.44375000140000102720151900000000996653100W 1220000N                               
CUS0638400000106330496008         MYRA L.G. WHITE     1919 E LAFAYETTE AVE                    000N        CARE OF             
MTR06384000001000000000000000RA              76348745    005800060000000600000350000003NY  NNW 000   VACANT PROPERTY     N    
MTM0638400076348745    METER IN BACKWARDS                                                                                     
RDG06384000WATRL000000004K00000000000009999000110242015064930N000000000010UFC08     000000400K 10000000010000000000           
CUS0638400000106330497006         MCCLARY, ONTERIAN   1923 E LAFAYETTE AVE                    000N        CARE OF             
MTR06384000001000000000000000RA              75615093    005800070000000700000350000003NN  NNW 000   VACANT PROPERTY     N    
RDG06384000WATR 000000004R00000000000000000000010272015190000N000100000050N         000000400R 10000000010000000000           
RFF0638400069372663      ERT      0000  956.44375000140000102720151900000000000004100W 1220000N                               
CUS0638400000106330499002         ANNIE B SEABROOKS   1927 E LAFAYETTE AVE                    000N        CARE OF             
MTR06384000001000000000000000RA              75426643    005800080000000800000350000003NN  NNW 000                       N    
RDG06384000WATR 000000004R00000000000000066000010272015190000N000000000000N         000000400R 10000000010000000062           
RFF0638400069372626      ERT      0000  956.44375000140000102720151900000000667428100W 1220000N                               
CUS0638400000106330500007         WEBB LIFE ENTERPRISE1929 E LAFAYETTE AVE                    000N        CARE OF             
MTR06384000001000000000000000RA              75616834    005800090000000900000350000003NN  NNW 000                       N    
RDG06384000WATR 000000004R00000000000000121000010272015190000N000000000000N         000000400R 10000000010000000111           
RFF0638400069372614      ERT      0000  956.44375000140000102720151900000001211696100W 1220000N                               
CUS0638400000106330504009         LEROY MALLORY ETAL  1937 E LAFAYETTE AVE                    000N        CARE OF             
MTR06384000001000000000000000RA              75423848    005800100000001000000350000003NN  NNW 000                       N    
RDG06384000WATR 000000004R00000000000000033000010272015190000N000100000050N         000000400R 10000000010000000033           
RFF0638400069372632      ERT      0000  956.44375000140000102720151900000000336998100W 1220000N                               
CUS0638400000106330507002         CORDELIA R CONYERS  1728 N WASHINGTON ST                    000N        CARE OF             
MTR06384000001000000000000000RA              75426632    005800110000001100000350000003NN  NNW 000                       N    
RDG06384000WATR 000000004R00000000000000142000010272015190000N000000000000N         000000400R 10000000010000000131           
RFF0638400069369543      ERT      0000  956.44375000140000102720151900000001427135100W 1220000N                               
CUS0638400000106330508000         JOYNER, YVONNIA (LIF1726 N WASHINGTON ST                    000N        CARE OF             
MTR06384000001000000000000000RA              74690791    005800120000001200000350000003NN  NNW 000                       N    
RDG06384000WATR 000000004R00000000000000236000010272015190000N000100000050N         000000400R 10000000010000000236           
RFF0638400069372712      ERT      0000  956.44375000140000102720151900000002361682100W 1220000N                               
CUS0638400000106330510006         EDB ENTERPRISES, LLC1722 N WASHINGTON ST                    000N        CARE OF             
MTR06384000001000000000000000RA              74690803    005800130000001300000350000003NN  NNW 000                       N    
RDG06384000WATR 000000004R00000000000000145000010272015190000N000000000000N         000000400R 10000000010000000122           
RFF0638400069372526      ERT      0000  956.44375000140000102720151900000001452028100W 1220000N                               
CUS0638400000106330519007         BAKER, ODESSA       1704 N WASHINGTON ST                    000N        CARE OF             
MTR06384000001000000000000000RA              75613686    005800140000001400000350000003NN  NNW 000                       N    
RDG06384000WATR 000000004R00000000000000000000010272015190000N000100000050N         000000400R 10000000010000000000           
RFF0638400069372524      ERT      0000  956.44375000140000102720151900000000000020100W 1220000N                               
CUS0638400000106377511008         KEARNEY, RYAN       1702 N WASHINGTON ST                    000N        CARE OF             
MTR06384000001000000000000000RA              74690800    005800150000001500000350000003NN  NNW 000                       N    
RDG06384000WATR 000000004R00000000000000229000010272015190000N000000000000N         000000400R 10000000010000000211           
RFF0638400069372514      ERT      0000  956.44375000140000102720151900000002294998100W 1220000N                               
CUS0638400000106330529006         MAYOR AND CITY COUNC1713 N CHAPEL ST                        000N        CARE OF             
MTR06384000001000000000000000RA              21189264    005800160000001600000590000003NY  NNW 000                       N    
MTM0638400021189264    YOKE                                                                                                   
RDG06384000WATRL000000004K00000000000000000000000000000000000 000000000000U         000000400  10000000010000003056           
CUS0638400000106330534006         LEWIS COLEY         1723 N CHAPEL ST                        000N        CARE OF             
MTR06384000001000000000000000RA              74691044    005800170000001700000350000003NY  NNW 000   VACANT PROPERTY     N    
MTM0638400074691044    YOKE                                                                                                   
RDG06384000WATRL000000004R00000000000000000000000000000000000 000000000000U         000000400  10000000010000000000           
RFF0638400069373575      ERT      0000  956.44375000140000000000000000000000000000        0000N                               
CUS0638400000106351419004         MAYOR AND CITY COUNC1725 N CHAPEL ST                        000N        CARE OF             
MTR06384000001000000000000000RA              74691129    005800180000001800000350000003NY  NNW 000                       N    
MTM0638400074691129    YOKE                                                                                                   
RDG06384000WATRL000000004K00000000000000000000000000000000000 000000000000U         000000400  10000000010000000000           
CUS0638400000106383734008         WILEY, CARRIE       1722 N CHAPEL ST                        000N        CARE OF             
MTR06384000001000000000000000RA              75614414    005800190000001900000350000003NY  NNW 000   VACANT PROPERTY     N    
MTM0638400075614414    YOKE                                                                                                   
RDG06384000WATRL000000004K00000000000000000000000000000000000 000000000000U         000000400  10000000010000000000           
CUS0638400000106383733000         WILEY, CARRIE       1714 N CHAPEL ST                        000N        CARE OF             
MTR06384000001000000000000000RA              75615062    005800200000002000000350000003NN  NNW 000   VACANT PROPERTY     N    
RDG06384000WATRL000000004R00000000000000000000610242015070556N000000000000UFC08     000620400K 10000000010000000000           
RFF0638400069373627      ERT      0000  956.4437500014000000000000000000                  0001Y                               
CUS0638400000106330543007         MUTUAL BENEFIT SOCIE1700 N CHAPEL ST                        000N        CARE OF             
MTR06384000001000000000000000RA              21187624    005800210000002100000590000003NN  NNW 000   VACANT PROPERTY     N    
RDG06384000WATRL000000004K00000000000000000000510242015070454S022000000000UFC08     004010400K 10000000010000000436           
CUS0638400000106330544005         BROADWAY EAST COMM A1918 E LANVALE ST                       000N        CARE OF             
MTR06384000001000000000000000RA              75615089    005800220000002200000350000003NN  NNW 000   VACANT PROPERTY     N    
RDG06384000WATRL000000004R00000000000000000000310242015065506N000000000000UFC08     000420400K 10000000010000000000           
RFF0638400069227592      ERT      0000  956.4437500014000000000000000000                  0001Y                               
CUS0638400000106330548006         WALKER, ACQUINETTA T1910 E LANVALE ST                       000N        CARE OF             
MTR06384000001000000000000000RA              74691964    005800230000002300000350000003NN  NNW 000                       N    
RDG06384000WATRL000000004R00000000000000000000210242015065424N000000000000UFC08     002940400K 10000000010000000000           
RFF0638400069227305      ERT      0000  956.4437500014000000000000000000                  0001Y                               
CUS0638400000106330550002         BROWN, GEORGE N   (L1906 E LANVALE ST                       000N        CARE OF             
MTR06384000001000000000000000RA              74691970    005800240000002400000350000003NN  NNW 000                       N    
RDG06384000WATR 000000004R00000000000000142000010272015190000N000000000000N         000000400R 10000000010000000132           
RFF0638400069224033      ERT      0000  956.44375000140000102720151900000001427829100W 1220000N                               
CUS0638400000106330554004         BULLOCK, DORIS I    1905 E LANVALE ST                       000N        CARE OF             
MTR06384000001000000000000000RA              99999999    005800250000002500000620000003NY  NNW 000                       N    
MTM0638400099999999    YOKE                                                                                                   
RDG06384000WATRL000000004K00000000000000000000000000000000000 000000000000U         000000400  10000000010000006889           
CUS0638400000106330561009         MORRISON, CORNELL   1636 N WASHINGTON ST                    000N        CARE OF             
MTR06384000001000000000000000RA              74690789    005800260000002600000350000003NN  NNW 000                       N    
RDG06384000WATR 000000004R00000000000000056000010272015190000N000000000000N         000000400R 10000000010000000050           
RFF0638400069372746      ERT      0000  956.44375000140000102720151900000000563198100W 1220000N                               
CUS0638400000106330564003         1628 N. WASHINGTON S1628 N WASHINGTON ST                    000N        CARE OF             
MTR06384000001000000000000000RA              74690796    005800270000002700000350000003NN  NNW 000                       N    
RDG06384000WATR 000000004R00000000000000191000010272015190000N000000000000N         000000400R 10000000010000000167           
RFF0638400069372697      ERT      0000  956.44375000140000102720151900000001913810100W 1220000N                               
CUS0638400000106330565000         JOHNSON, FAITH      1626 N WASHINGTON ST                    000N        CARE OF             
MTR06384000001000000000000000RA              74690790    005800280000002800000350000003NN  NNW 000                       N    
RDG06384000WATR 000000004R00000000000000086000010272015190000N000000000000N         000000400R 10000000010000000079           
RFF0638400069130991      ERT      0000  956.44375000140000102720151900000000863461100W 1220000N                               
CUS0638400000106330569002         JOHNSON, BRENDA     1618 N WASHINGTON ST                    000N        CARE OF             
MTR06384000001000000000000000RA              74690797    005800290000002900000350000003NN  NNW 000                       N    
RDG06384000WATR 000000004R00000000000000180000010272015190000N000400000050N         000000400R 10000000010000000176           
RFF0638400069372061      ERT      0000  956.44375000140000102720151900000001805813100W 1220000N                               
CUS0638400000106330570000         GEFFA, ASFAWOSSEN L 1616 N WASHINGTON ST                    000N        CARE OF             
MTR06384000001000000000000000RA              78024256    005800300000003000000360000003NN  NNW 000                       N    
RDG06384000WATR 000000004R00000000000000081000010272015190000N000300000050N         000000400R 10000000010000000048           
RFF0638400069372049      ERT      0000  956.44375000140000102720151900000000816668100W 1220000N                               
CUS0638400000106366347000         DOMINION PROPERTIES 1614 N WASHINGTON ST                    000N        CARE OF             
MTR06384000001000000000000000RA              74687744    005800310000003100000350000003NN  NNW 000                       N    
RDG06384000WATR 000000004R00000000000000000000010272015190000N000100000050N         000000400R 10000000010000000000           
RFF0638400069372152      ERT      0000  956.44375000140000102720151900000000000004100W 1220000N                               
CUS0638400000106330571008         RAGUNHANAN, STEPHEN 1612 N WASHINGTON ST                    000N        CARE OF             
MTR06384000001000000000000000RA              74687747    005800320000003200000350000003NN  NNW 000   VACANT PROPERTY     N    
RDG06384000WATR 000000004R00000000000000000000010272015190000N000100000050N         000000400R 10000000010000000000           
RFF0638400069372060      ERT      0000  956.44375000140000102720151900000000000003100W 1220000N                               
CUS0638400000106330573004         JEANETTE F GARRISON 1608 N WASHINGTON ST                    000N        CARE OF             
MTR06384000001000000000000000RA              74690786    005800330000003300000350000003NN  NNW 000                       N    
RDG06384000WATR 000000004R00000000000000131000010272015190000N000300000050N         000000400R 10000000010000000065           
RFF0638400069372081      ERT      0000  956.44375000140000102720151900000001319916100W 1220000N                               
CUS0638400000106330574002         ESOCHAGHI, GODFREY U1606 N WASHINGTON ST                    000N        CARE OF             
MTR06384000001000000000000000RA              74690794    005800340000003400000350000003NN  NNW 000                       N    
RDG06384000WATR 000000004R00000000000000121000010272015190000N000300000050N         000000400R 10000000010000000120           
RFF0638400069372089      ERT      0000  956.44375000140000102720151900000001210167100W 1220000N                               
CUS0638400000106330577005         1912 FEDERAL ST, LLC1912 E FEDERAL ST                       000N        CARE OF             
MTR06384000001000000000000000RA              74691880    005800350000003500000350000003NN  NNW 000                       N    
RDG06384000WATRL000000004K00000000000000000000000000000000000 000000000000U         000000400  10000000010000000000           
CUS0638400000106330580009         LEE, TYRONE P       1603 N CHAPEL ST                        000N        CARE OF             
MTR06384000001000000000000000RA              74691084    005800360000003600000350000003NN  NNW 000                       N    
RDG06384000WATR 000000004R00000000000000000000010272015190000N000100000050N         000000400R 10000000010000000000           
RFF0638400069373634      ERT      0000  956.44375000140000102720151900000000000047100W 1220000N                               
CUS0638400000106330583003         BB & D MANAGEMENT, L1609 N CHAPEL ST                        000N        CARE OF             
MTR06384000001000000000000000RA              77987886    005800370000003700000360000003NN  NNW 000                       N    
RDG06384000WATR 000000004R00000000000000005000010272015190000N000000000000N         000000400R 10000000010000000002           
RFF0638400069373597      ERT      0000  956.44375000140000102720151900000000054411100W 1220000N                               
CUS0638400000106330584001         NAOMI PHIPPS        1611 N CHAPEL ST                        000N        CARE OF             
MTR06384000001000000000000000RA              74691089    005800380000003800000350000003NY  NNW 000                       N    
MTM0638400074691089    YOKE                                                                                                   
RDG06384000WATRL000000004K00000000000000000000000000000000000 000000000000U         000000400  10000000010000000000           
CUS0638400000106330588002         FOSTER JR., LINWOOD 1619 N CHAPEL ST                        000N        CARE OF             
MTR06384000001000000000000000RA              74691106    005800390000003900000350000003NN  NNW 000                       N    
RDG06384000WATR 000000004R00000000000000094000010272015190000N000000000000N         000000400R 10000000010000000086           
RFF0638400069373645      ERT      0000  956.44375000140000102720151900000000940191100W 1220000N                               
CUS0638400000106330593002         TEMPLE BAPTIST CHURC1620 N CHAPEL ST                        000N        CARE OF             
MTR06384000001000000000000000RA              74691088    005800400000004000000350000003NY  NNW 000   VACANT PROPERTY     N    
MTM0638400074691088    YOKE                                                                                                   
RDG06384000WATRL000000004K00000000000000000000000000000000000 000000000000U         000000400  10000000010000000000           
CUS0638400000106330595007         KING CORCORAN       1616 N CHAPEL ST                        000N        CARE OF             
MTR06384000001000000000000000RA              74691082    005800410000004100000350000003NY  NNW 000   VACANT PROPERTY     N    
MTM0638400074691082    YOKE                                                                                                   
RDG06384000WATRL000000004K00000000000000000000000000000000000 000000000000U         000000400  10000000010000000000           
CUS0638400000106330597003         FISHER JR, VALDEZ V 1612 N CHAPEL ST                        000N        CARE OF             
MTR06384000001000000000000000RA              76345242    005800420000004200000350000003NN  NNW 000                       N    
RDG06384000WATR 000000004R00000000000000098000010272015190000N000000000000N         000000400R 10000000010000000078           
RFF0638400069373611      ERT      0000  956.44375000140000102720151900000000985120100W 1220000N                               
CUS0638400000106330598001         ELEY, BRENDA        1610 N CHAPEL ST                        000N        CARE OF             
MTR06384000001000000000000000RA              74691086    005800430000004300000350000003NY  NNW 000   VACANT PROPERTY     N    
MTM0638400074691086    YOKE                                                                                                   
RDG06384000WATRL000000004K00000000000000000000000000000000000 000000000000U         000000400  10000000010000000000           
CUS0638400000106330600005         STITH, GILLETTE     1606 N CHAPEL ST                        000N        CARE OF             
MTR06384000001000000000000000RA              74691087    005800440000004400000350000003NN  NNW 000                       N    
RDG06384000WATR 000000004R00000000000000660000010272015190000N000100000050N         000000400R 10000000010000000660           
RFF0638400069373594      ERT      0000  956.44375000140000102720151900000006604925100W 1220000N                               
CUS0638400000106330601003         JOHNSON ETAL, BERTHA1604 N CHAPEL ST                        000N        CARE OF             
MTR06384000001000000000000000RA              75615205    005800450000004500000350000003NN  NNW 000                       N    
RDG06384000WATR 000000004R00000000000000053000010272015190000N000100000050N         000000400R 10000000010000000053           
RFF0638400069373603      ERT      0000  956.44375000140000102720151900000000539285100W 1220000N                               
CUS0638400000106330603009         BB & D MANAGEMENT, L1600 N CHAPEL ST                        000N        CARE OF             
MTR06384000001000000000000000RA              75425971    005800460000004600000350000003NN  NNW 000                       N    
RDG06384000WATR 000000004R00000000000000556000010272015190000N000000000000N         000000400R 10000000010000000546           
RFF0638400069373605      ERT      0000  956.44375000140000102720151900000005560236100W 1220000N                               
CUS0638400000106330607000         JANICE T THAXTON-BRO1913 E FEDERAL ST                       000N        CARE OF             
MTR06384000001000000000000000RA              74688182    005800470000004700000350000003NN  NNW 000                       N    
RDG06384000WATR 000000004R00000000000000115000010272015190000N000000000000N         000000400R 10000000010000000106           
RFF0638400069372638      ERT      0000  956.44375000140000102720151900000001158960100W 1220000N                               
CUS0638400000106330608008         RIVAS, CARLA L MONGE1915 E FEDERAL ST                       000N        CARE OF             
MTR06384000001000000000000000RA              74691900    005800480000004800000350000003NN  NNW 000                       N    
RDG06384000WATR 000000004R00000000000000037000010272015190000N000000000000N         000000400R 10000000010000000012           
RFF0638400069373632      ERT      0000  956.44375000140000102720151900000000374353100W 1220000N                               
CUS0638400000106330616001         EARLY MOORE         1514 N CHAPEL ST                        000N        CARE OF             
MTR06384000001000000000000000RA              75616993    005800490000004900000350000003NN  NNW 000                       N    
RDG06384000WATR 000000004R00000000000000246000010272015190000N000000000000N         000000400R 10000000010000000229           
RFF0638400069373598      ERT      0000  956.44375000140000102720151900000002464939100W 1220000N                               
CUS0638400000106353699009         MAYOR AND CITY COUNC1525 N CHAPEL ST                        000N        CARE OF             
MTR06384000001000000000000000RA              21723866    005800500000005000000590000003NN  NNW 000                       N    
RDG06384000WATRL000000004K00000000000000000000410242015065813S022000000000UFC08     001870400K 10000000010000003218           
CUS0638400000106330637007         WILLIAM & DANIEL MOS1923 E FEDERAL ST                       000N        CARE OF             
MTR06384000001000000000000000RA              77891905    005800510000005100000360000003NY  NNW 000                       N    
MTM0638400077891905    YOKE                                                                                                   
RDG06384000WATRL000000004K00000000000000000000000000000000000 000000000000U         000000400  10000000010000000000           
CUS0638400000106330638005         400 BUSINESS TRUST  1925 E FEDERAL ST                       000N        CARE OF             
MTR06384000001000000000000000RA              74691896    005800520000005200000350000003NY  NNW 000   VACANT PROPERTY     N    
MTM0638400074691896    YOKE                                                                                                   
RDG06384000WATRL000000004K00000000000000000000000000000000000 000000000000U         000000400  10000000010000000000           
CUS0638400000106330648004         5923 ADDISON LLC    1515 N WASHINGTON ST                    000N        CARE OF             
MTR06384000001000000000000000RA              76344382    005800530000005300000350000003NN  NNW 000                       N    
RDG06384000WATR 000000004R00000000000000071000010272015190000N000300000050N         000000400R 10000000010000000033           
RFF0638400069372079      ERT      0000  956.44375000140000102720151900000000715682100W 1220000N                               
CUS0638400000106330649002         PEARSON, LINDA      1517 N WASHINGTON ST                    000N        CARE OF             
MTR06384000001000000000000000RA              75423850    005800540000005400000350000003NN  NNW 000                       N    
RDG06384000WATR 000000004R00000000000000000000010272015190000N000100000050N         000000400R 10000000010000000000           
RFF0638400069372062      ERT      0000  956.44375000140000102720151900000000000005100W 1220000N                               
CUS0638400000106330662005         JOHNSON, MARLESIA   2013 E FEDERAL ST                       000N        CARE OF             
MTR06384000001000000000000000RA              99999999    005800550000005500000620000003NN  NNW 000   VACANT PROPERTY     N    
RDG06384000WATRL000000004K00000000000000000000710242015072804S022000000000UFC08     013280400K 10000000010000000631           
CUS0638400000106330668002         DANDRIDGE JR. ETAL, 2128 E FEDERAL ST                       000N        CARE OF             
MTR06384000001000000000000000RA              74691938    005800560000005600000350000003NN  NNW 000                       N    
RDG06384000WATR 000000004R00000000000000048000010272015190000N000000000000N         000000400R 10000000010000000041           
RFF0638400069372535      ERT      0000  956.44375000140000102720151900000000487962100W 1220000N                               
CUS0638400000106330669000         THOMAS, LELAND      2124 E FEDERAL ST                       000N        CARE OF             
MTR06384000001000000000000000RA              74691952    005800570000005700000350000003NN  NNW 000                       N    
RDG06384000WATR 000000004R00000000000000233000010272015190000N000000000000N         000000400R 10000000010000000210           
RFF0638400069372659      ERT      0000  956.44375000140000102720151900000002337323100W 1220000N                               
CUS0638400000106330670008         EDITH WYNN          2118 E FEDERAL ST                       000N        CARE OF             
MTR06384000001000000000000000RA              74691950    005800580000005800000350000003NN  NNW 000                       N    
RDG06384000WATR 000000004R00000000000000152000010272015190000N000000000000N         000000400R 10000000010000000143           
RFF0638400069372553      ERT      0000  956.44375000140000102720151900000001529631100W 1220000N                               
CUS0638400000106354411008         SEIBERT, RONALD     2112 E FEDERAL ST                       000N        CARE OF             
MTR06384000001000000000000000RA              74691954    005800590000005900000350000003NN  NNW 000                       N    
RDG06384000WATR 000000004R00000000000000125000010272015190000N000100000050N         000000400R 10000000010000000125           
RFF0638400069372668      ERT      0000  956.44375000140000102720151900000001255934100W 1220000N                               
CUS0638400000106330675007         ANTHONY SEWELL      2104 E FEDERAL ST                       000N        CARE OF             
MTR06384000001000000000000000RA              74691936    005800600000006000000350000003NN  NNW 000                       N    
RDG06384000WATR 000000004R00000000000000336000010272015190000N000000000000N         000000400R 10000000010000000308           
RFF0638400069372612      ERT      0000  956.44375000140000102720151900000003360276100W 1220000N                               
CUS0638400000106330679009         MAYOR & CITY COUNCIL1613 N GAY ST                           000N        CARE OF             
MTR06384000001000000000000000RA              99999999    005800610000006100000620000003NN  NNW 000                       N    
RDG06384000WATRL000000004K00000000000000000000810242015073203S022000000000UFC08     002390400K 10000000010000000000           
CUS0638400000106366708003         OSCAR CORBIN        1867 N GAY ST                           000N        CARE OF             
MTR06384000001000000000000000RA              21726747    005800620000006200000590000003NN  NNW 000   VACANT PROPERTY     N    
RDG06384000WATRL000000004K00000000000000000000910242015073206S022000000000UFC08     000030400K 10000000010000001107           
RTR06384000NN00170062000000170000004500620062000042NY006200620062001200050000000000000000000002    10212015NY020000 N         
RHD06418300NN00030127000000030000012401270127000000NY012701270127000000000000000000000000000002    10162015NY020000           
CUS0641830000106346647008         DUVALL GROUP LLC, TH27 S HIGHLAND AVE                       000N        CARE OF             
MTR06418300001000000000000000RA              74688096    005800010000000100000350000003NN  NNW 000                       N    
RDG06418300WATR 000000004R00000000000000000000010272015190000N000100000080N         000000400R 10000000010000000000           
RFF0641830069370552      ERT      0000  956.44375000140000102720151900000000002164100W 1220000N                               
CUS0641830000106338772004         MIK HOLDING, LLC    25 S HIGHLAND AVE                       000N        CARE OF             
MTR06418300001000000000000000RA              74689903    005800020000000200000350000003NN  NNW 000                       N    
RDG06418300WATR 000000004R00000000000000380000010272015190000N000000000000N         000000400R 10000000010000000341           
RFF0641830069369285      ERT      0000  956.44375000140000102720151900000003802809100W 1220000N                               
CUS0641830000106368170004         TSAMPOS, MICHAEL    23 S HIGHLAND AVE                       000N        CARE OF             
MTR06418300001000000000000000RA              74689899    005800030000000300000350000003NN  NNW 000                       N    
RDG06418300WATR 000000004R00000000000000159000010272015190000N000000000000N         000000400R 10000000010000000148           
RFF0641830069369339      ERT      0000  956.44375000140000102720151900000001595848100W 1220000N                               
CUS0641830000106338773002         PATEL, PINAKIN J    21 S HIGHLAND AVE                       000N        CARE OF             
MTR06418300001000000000000000RA              74689895    005800040000000400000350000003NN  NNW 000                       N    
RDG06418300WATR 000000004R00000000000000571000010272015190000N000000000000N         000000400R 10000000010000000543           
RFF0641830069370517      ERT      0000  956.44375000140000102720151900000005712870100W 1220000N                               
CUS0641830000106338774000         RADUGA REALTY, LLC  3411 E BALTIMORE ST                     000N        CARE OF             
MTR06418300001000000000000000RA              74690188    005800050000000500000350000003NN  NNW 000                       N    
RDG06418300WATR 000000004R00000000000000411000010272015190000N000000000000N         000000400R 10000000010000000369           
RFF0641830069372756      ERT      0000  956.44375000140000102720151900000004119666100W 1220000N                               
CUS0641830000106338775007         TORRES, VANESSA     3413 E BALTIMORE ST                     000N        CARE OF             
MTR06418300001000000000000000RA              74690186    005800060000000600000350000003NN  NNW 000                       N    
RDG06418300WATR 000000004R00000000000000108000010272015190000N000000000000N         000000400R 10000000010000000099           
RFF0641830069372735      ERT      0000  956.44375000140000102720151900000001087573100W 1220000N                               
CUS0641830000106338776005         BALTIC MJ INVESTMENT3415 E BALTIMORE ST                     000N        CARE OF             
MTR06418300001000000000000000RA              74690189    005800070000000700000350000003NN  NNW 000                       N    
RDG06418300WATR 000000004R00000000000000422000010272015190000N000000000000N         000000400R 10000000010000000377           
RFF0641830069372677      ERT      0000  956.44375000140000102720151900000004222494100W 1220000N                               
CUS0641830000106338782003         BEYENE, YESHEWANEH  3433 E BALTIMORE ST                     000N        CARE OF             
MTR06418300001000000000000000RA              74690190    005800080000000800000350000003NN  NNW 000                       N    
RDG06418300WATR 000000004R00000000000000152000010272015190000N000000000000N         000000400R 10000000010000000140           
RFF0641830069368777      ERT      0000  956.44375000140000102720151900000001528453100W 1220000N                               
CUS0641830000106338783001         RENWICK, YVONNE     3435 E BALTIMORE ST                     000N        CARE OF             
MTR06418300001000000000000000RA              74690191    005800090000000900000350000003NN  NNW 000                       N    
RDG06418300WATR 000000004R00000000000000085000010272015190000N000400000080N         000000400R 10000000010000000076           
RFF0641830069368726      ERT      0000  956.44375000140000102720151900000000850809100W 1220000N                               
CUS0641830000106354394006         JOHNSON, DORA L.    3513 E BALTIMORE ST                     000N        CARE OF             
MTR06418300001000000000000000RA              77891791    005800100000001000000360000003NN  NNW 000                       N    
RDG06418300WATR 000000004R00000000000000008000010272015190000N000000000000N         000000400R 10000000010000000005           
RFF0641830069373408      ERT      0000  956.44375000140000102720151900000000086983100W 1220000N                               
CUS0641830000106338787002         RILEY, CARRIE ANN   3515 E BALTIMORE ST                     000N        CARE OF             
MTR06418300001000000000000000RA              74690193    005800110000001100000350000003NN  NNW 000                       N    
RDG06418300WATR 000000004R00000000000000176000010272015190000N000000000050N         000000400R 10000000010000000167           
RFF0641830069372737      ERT      0000  956.44375000140000102720151900000001763303100W 1220000N                               
CUS0641830000106338788000         RILEY, CARRIE ANN   3519 E BALTIMORE ST                     000N        CARE OF             
MTR06418300001000000000000000RA              77884584    005800120000001200000360000003NN  NNW 000                       N    
RDG06418300WATR 000000004R00000000000000007000010272015190000N000300000080N         000000400R 10000000010000000000           
RFF0641830069369223      ERT      0000  956.44375000140000102720151900000000078559100W 1220000N                               
CUS0641830000106338789008         RILEY SR., LAWRENCE 3521 E BALTIMORE ST                     000N        CARE OF             
MTR06418300001000000000000000RA              74690196    005800130000001300000350000003NN  NNW 000                       N    
RDG06418300WATR 000000004R00000000000000059000010272015190000N000000000000N         000000400R 10000000010000000050           
RFF0641830069369314      ERT      0000  956.44375000140000102720151900000000591154100W 1220000N                               
CUS0641830000106338790006         KFRNA, LLC          3523 E BALTIMORE ST                     000N        CARE OF             
MTR06418300001000000000000000RA              74690192    005800140000001400000350000003NN  NNW 000                       N    
RDG06418300WATR 000000004R00000000000000135000010272015190000N000400000080N         000000400R 10000000010000000128           
RFF0641830069369297      ERT      0000  956.44375000140000102720151900000001356911100W 1220000N                               
CUS0641830000106338791004         KMS PROPERTY 2,LLC  2 S CONKLING ST                         000N        CARE OF             
MTR06418300001000000000000000RA              74692317    005800150000001500000350000003NN  NNW 000                       N    
RDG06418300WATR 000000004R00000000000000342000010272015190000N000000000000N         000000400R 10000000010000000302           
RFF0641830069369226      ERT      0000  956.44375000140000102720151900000003421603100W 1220000N                               
CUS0641830000106362314004         MARIA A ALIBERTI    4 S CONKLING ST                         000N        CARE OF             
MTR06418300001000000000000000RA              74692318    005800160000001600000350000003NN  NNW 000                       N    
RDG06418300WATR 000000004R00000000000000112000010272015190000N000000000000N         000000400R 10000000010000000094           
RFF0641830069369231      ERT      0000  956.44375000140000102720151900000001124471100W 1220000N                               
CUS0641830000106338792002         ALIBERTI, ROCCO A   6 S CONKLING ST                         000N        CARE OF             
MTR06418300001000000000000000RA              79211247    005800170000001700000360000003NN  NNW 000                       N    
RDG06418300WATR 000000004R00000000000000031000010272015190000N000000000000N         000000400R 10000000010000000002           
RFF0641830069369180      ERT      0000  956.44375000140000102720151900000000312037100W 1220000N                               
CUS0641830000106338793000         LOONEY, JERRY L.    8 S CONKLING ST                         000N        CARE OF             
MTR06418300001000000000000000RA              79211208    005800180000001800000360000003NN  NNW 000                       N    
RDG06418300WATR 000000004R00000000000000010000010272015190000N000000000000N         000000400R 10000000010000000003           
RFF0641830069369880      ERT      0000  956.44375000140000102720151900000000103339100W 1220000N                               
CUS0641830000106338794008         ABREU, PEDRO M      10 S CONKLING ST                        000N        CARE OF             
MTR06418300001000000000000000RA              79211221    005800190000001900000360000003NN  NNW 000                       N    
RDG06418300WATR 000000004R00000000000000040000010272015190000N000000000000N         000000400R 10000000010000000013           
RFF0641830069369625      ERT      0000  956.44375000140000102720151900000000408194100W 1220000N                               
CUS0641830000106355419000         ROCCO A ALIBERTI    14 S CONKLING ST                        000N        CARE OF             
MTR06418300001000000000000000RA              74692319    005800200000002000000350000003NN  NNW 000                       N    
RDG06418300WATR 000000004R00000000000000410000010272015190000N000400000080N         000000400R 10000000010000000406           
RFF0641830069370239      ERT      0000  956.44375000140000102720151900000004109121100W 1220000N                               
CUS0641830000106338795005         SERRANO, JESUS      3446 LEVERTON AVE                       000N        CARE OF             
MTR06418300001000000000000000RA              76344984    005800210000002100000350000003NN  NNW 000                       N    
RDG06418300WATR 000000004R00000000000000041000010272015190000N000000000000N         000000400R 10000000010000000039           
RFF0641830069368884      ERT      0000  956.44375000140000102720151900000000412133100W 1220000N                               
CUS0641830000106338796003         MELLINGER, ROBERT A 3444 LEVERTON AVE                       000N        CARE OF             
MTR06418300001000000000000000RA              76344982    005800220000002200000350000003NN  NNW 000                       N    
RDG06418300WATR 000000004R00000000000000056000010272015190000N000100000080N         000000400R 10000000010000000056           
RFF0641830069368881      ERT      0000  956.44375000140000102720151900000000567384100W 1220000N                               
CUS0641830000106338797001         DI DONATO, ESTEBAN  3442 LEVERTON AVE                       000N        CARE OF             
MTR06418300001000000000000000RA              76348929    005800230000002300000350000003NN  NNW 000                       N    
RDG06418300WATR 000000004R00000000000000199000010272015190000N000000000060N         000000400R 10000000010000000164           
RFF0641830069368880      ERT      0000  956.44375000140000102720151900000001994497100W 1220000N                               
CUS0641830000106338798009         DIDONATO CLAUDIO    3440 LEVERTON AVE                       000N        CARE OF             
MTR06418300001000000000000000RA              76348908    005800240000002400000350000003NN  NNW 000                       N    
RDG06418300WATR 000000004R00000000000000173000010272015190000N000000000000N         000000400R 10000000010000000147           
RFF0641830069368905      ERT      0000  956.44375000140000102720151900000001738481100W 1220000N                               
CUS0641830000106338799007         MIDTOWN PROPERTIES L3438 LEVERTON AVE                       000N        CARE OF             
MTR06418300001000000000000000RA              76345716    005800250000002500000350000003NN  NNW 000                       N    
RDG06418300WATR 000000004R00000000000000127000010272015190000N000000000000N         000000400R 10000000010000000107           
RFF0641830069368912      ERT      0000  956.44375000140000102720151900000001270833100W 1220000N                               
CUS0641830000106338800003         CASAGRANDE JR., JOSE3436 LEVERTON AVE                       000N        CARE OF             
MTR06418300001000000000000000RA              76346693    005800260000002600000350000003NN  NNW 000                       N    
RDG06418300WATR 000000004R00000000000000000000010272015190000N000100000080N         000000400R 10000000010000000000           
RFF0641830069368910      ERT      0000  956.44375000140000102720151900000000001371100W 1220000N                               
CUS0641830000106338803007         COTTLE, BENJAMIN H. 3426 LEVERTON AVE                       000N        CARE OF             
MTR06418300001000000000000000RA              76348899    005800270000002700000350000003NN  NNW 000                       N    
RDG06418300WATR 000000004R00000000000000076000010272015190000N000000000000N         000000400R 10000000010000000056           
RFF0641830069368909      ERT      0000  956.44375000140000102720151900000000764316100W 1220000N                               
CUS0641830000106338804005         FEDERAL HOME LOAN MO3424 LEVERTON AVE                       000N        CARE OF             
MTR06418300001000000000000000RA              76348900    005800280000002800000350000003NN  NNW 000                       N    
RDG06418300WATR 000000004R00000000000000035000010272015190000N000000000000N         000000400R 10000000010000000031           
RFF0641830069368898      ERT      0000  956.44375000140000102720151900000000354176100W 1220000N                               
CUS0641830000106338805002         BANK OF AMERICA     3422 LEVERTON AVE                       000N        CARE OF             
MTR06418300001000000000000000RA              76348896    005800290000002900000350000003NN  NNW 000                       N    
RDG06418300WATR 000000004R00000000000000000000010272015190000N000100000080N         000000400R 10000000010000000000           
RFF0641830069368934      ERT      0000  956.44375000140000102720151900000000000004100W 1220000N                               
CUS0641830000106354491000         BARRANGER, CAROL L  3420 LEVERTON AVE                       000N        CARE OF             
MTR06418300001000000000000000RA              76348897    005800300000003000000350000003NN  NNW 000                       N    
RDG06418300WATR 000000004R00000000000000290000010272015190000N000000000000N         000000400R 10000000010000000249           
RFF0641830069368904      ERT      0000  956.44375000140000102720151900000002907638100W 1220000N                               
CUS0641830000106355115004         FRANGOS, ZOE K      3416 LEVERTON AVE                       000N        CARE OF             
MTR06418300001000000000000000RA              76344983    005800310000003100000350000003NN  NNW 000                       N    
RDG06418300WATR 000000004R00000000000000017000010272015190000N000300000080N         000000400R 10000000010000000013           
RFF0641830069368895      ERT      0000  956.44375000140000102720151900000000177899100W 1220000N                               
CUS0641830000106338806000         LAROSE, BERTRAM F.  3410 LEVERTON AVE                       000N        CARE OF             
MTR06418300001000000000000000RA              76348838    005800320000003200000350000003NN  NNW 000                       N    
RDG06418300WATR 000000004R00000000000000171000010272015190000N000000000000N         000000400R 10000000010000000150           
RFF0641830069368906      ERT      0000  956.44375000140000102720151900000001711075100W 1220000N                               
CUS0641830000106338807008         DAVILA, GERMAN      3408 LEVERTON AVE                       000N        CARE OF             
MTR06418300001000000000000000RA              76348840    005800330000003300000350000003NN  NNW 000                       N    
RDG06418300WATR 000000004R00000000000000201000010272015190000N000000000000N         000000400R 10000000010000000166           
RFF0641830069368893      ERT      0000  956.44375000140000102720151900000002013778100W 1220000N                               
CUS0641830000106338808006         HERSL, CHARLES A.   3406 LEVERTON AVE                       000N        CARE OF             
MTR06418300001000000000000000RA              76348836    005800340000003400000350000003NN  NNW 000                       N    
RDG06418300WATR 000000004R00000000000000089000010272015190000N000000000010N         000000400R 10000000010000000077           
RFF0641830069368896      ERT      0000  956.44375000140000102720151900000000898560100W 1220000N                               
CUS0641830000106338809004         APEX HOME BUYERS, LL3402 LEVERTON AVE                       000N        CARE OF             
MTR06418300001000000000000000RA              76348870    005800350000003500000350000003NN  NNW 000                       N    
RDG06418300WATR 000000004R00000000000000068000010272015190000N000300000080N         000000400R 10000000010000000036           
RFF0641830069368907      ERT      0000  956.44375000140000102720151900000000688253100W 1220000N                               
CUS0641830000106354493006         SCHOENER SR, ROBERT 3407 LEVERTON AVE                       000N        CARE OF             
MTR06418300001000000000000000RA              76348868    005800360000003600000350000003NN  NNW 000                       N    
RDG06418300WATR 000000004R00000000000000050000010272015190000N000400000080N         000000400R 10000000010000000042           
RFF0641830069369135      ERT      0000  956.44375000140000102720151900000000509866100W 1220000N                               
CUS0641830000106338814004         DI DONATO, CLAUDIO  3417 LEVERTON AVE                       000N        CARE OF             
MTR06418300001000000000000000RA              77877871    005800370000003700000360000003NN  NNW 000                       N    
RDG06418300WATR 000000004R00000000000000057000010272015190000N000300000080N         000000400R 10000000010000000018           
RFF0641830069369137      ERT      0000  956.44375000140000102720151900000000574259100W 1220000N                               
CUS0641830000106338815001         DOMINION RENTALS 5, 3419 LEVERTON AVE                       000N        CARE OF             
MTR06418300001000000000000000RA              77988037    005800380000003800000360000003NN  NNW 000                       N    
RDG06418300WATR 000000004R00000000000000016000010272015190000N000300000080N         000000400R 10000000010000000001           
RFF0641830069370441      ERT      0000  956.44375000140000102720151900000000160570100W 1220000N                               
CUS0641830000106338816009         MATTHEW KOLBINSKY   3421 LEVERTON AVE                       000N        CARE OF             
MTR06418300001000000000000000RA              76348898    005800390000003900000350000003NN  NNW 000                       N    
RDG06418300WATR 000000004R00000000000000057000010272015190000N000000000000N         000000400R 10000000010000000047           
RFF0641830069369129      ERT      0000  956.44375000140000102720151900000000571459100W 1220000N                               
CUS0641830000106338817007         DI DONATO, CLAUDIO  3423 LEVERTON AVE                       000N        CARE OF             
MTR06418300001000000000000000RA              76348901    005800400000004000000350000003NN  NNW 000                       N    
RDG06418300WATR 000000004R00000000000000167000010272015190000N000000000000N         000000400R 10000000010000000142           
RFF0641830069369126      ERT      0000  956.44375000140000102720151900000001671942100W 1220000N                               
CUS0641830000106338818005         SQUARE HOLDINGS, LLC3425 LEVERTON AVE                       000N        CARE OF             
MTR06418300001000000000000000RA              76348912    005800410000004100000350000003NN  NNW 000                       N    
RDG06418300WATR 000000004R00000000000000034000010272015190000N000000000000N         000000400R 10000000010000000029           
RFF0641830069370428      ERT      0000  956.44375000140000102720151900000000345926100W 1220000N                               
CUS0641830000106338819003         KIYUNA, CHOSEI      3427 LEVERTON AVE                       000N        CARE OF             
MTR06418300001000000000000000RA              74689303    005800420000004200000350000003NN  NNW 000                       N    
RDG06418300WATR 000000004R00000000000000152000010272015190000N000000000000N         000000400R 10000000010000000131           
RFF0641830069369141      ERT      0000  956.44375000140000102720151900000001529257100W 1220000N                               
CUS0641830000106362351006         DI DONATO, ESTEBAN  3429 LEVERTON AVE                       000N        CARE OF             
MTR06418300001000000000000000RA              76345717    005800430000004300000350000003NN  NNW 000                       N    
RDG06418300WATR 000000004R00000000000000054000010272015190000N000000000000N         000000400R 10000000010000000036           
RFF0641830069370490      ERT      0000  956.44375000140000102720151900000000546739100W 1220000N                               
CUS0641830000106338820001         GUNASEKARA, VISHRAMA3431 LEVERTON AVE                       000N        CARE OF             
MTR06418300001000000000000000RA              76346509    005800440000004400000350000003NN  NNW 000                       N    
RDG06418300WATR 000000004R00000000000000088000010272015190000N000000000000N         000000400R 10000000010000000074           
RFF0641830069369131      ERT      0000  956.44375000140000102720151900000000882478100W 1220000N                               
CUS0641830000106338821009         MSM INVESTMENT PROP,3437 LEVERTON AVE                       000N        CARE OF             
MTR06418300001000000000000000RA              74689406    005800450000004500000350000003NN  NNW 000                       N    
RDG06418300WATR 000000004R00000000000000038000010272015190000N000400000080N         000000400R 10000000010000000036           
RFF0641830069369099      ERT      0000  956.44375000140000102720151900000000384432100W 1220000N                               
CUS0641830000106338822007         MUEMPFER, MICHAEL   3501 LEVERTON AVE                       000N        CARE OF             
MTR06418300001000000000000000RA              74689302    005800460000004600000350000003NN  NNW 000                       N    
RDG06418300WATR 000000004R00000000000000115000010272015190000N000000000000N         000000400R 10000000010000000105           
RFF0641830069369128      ERT      0000  956.44375000140000102720151900000001154891100W 1220000N                               
CUS0641830000106338823005         MARVILLE, LLC       3503 LEVERTON AVE                       000N        CARE OF             
MTR06418300001000000000000000RA              79211207    005800470000004700000360000003NN  NNW 000                       N    
RDG06418300WATR 000000004R00000000000000003000010272015190000N000000000000N         000000400R 10000000010000000000           
RFF0641830069369689      ERT      0000  956.44375000140000102720151900000000035970100W 1220000N                               
CUS0641830000106338824003         NOSA, LLC           3505 LEVERTON AVE                       000N        CARE OF             
MTR06418300001000000000000000RA              74688407    005800480000004800000350000003NN  NNW 000                       N    
RDG06418300WATR 000000004R00000000000000211000010272015190000N000000000000N         000000400R 10000000010000000188           
RFF0641830069369132      ERT      0000  956.44375000140000102720151900000002113854100W 1220000N                               
CUS0641830000106338825000         TOLEDO, MARCO       104 S CONKLING ST                       000N        CARE OF             
MTR06418300001000000000000000RA              74692324    005800490000004900000350000003NN  NNW 000                       N    
RDG06418300WATR 000000004R00000000000000160000010272015190000N000000000000N         000000400R 10000000010000000147           
RFF0641830069370529      ERT      0000  956.44375000140000102720151900000001608213100W 1220000N                               
CUS0641830000106354372002         RILEY, DOROTHY      108 S CONKLING ST                       000N        CARE OF             
MTR06418300001000000000000000RA              74692323    005800500000005000000350000003NN  NNW 000                       N    
RDG06418300WATR 000000004R00000000000000025000010272015190000N000000000000N         000000400R 10000000010000000019           
RFF0641830069370528      ERT      0000  956.44375000140000102720151900000000259728100W 1220000N                               
CUS0641830000106338827006         KIRLEY, ERIN        116 S CONKLING ST                       000N        CARE OF             
MTR06418300001000000000000000RA              74692322    005800510000005100000350000003NN  NNW 000                       N    
RDG06418300WATR 000000004R00000000000000185000010272015190000N000000000000N         000000400R 10000000010000000172           
RFF0641830069370542      ERT      0000  956.44375000140000102720151900000001853327100W 1220000N                               
CUS0641830000106354375005         I-QUADRANT PROPERTIE120 S CONKLING ST                       000N        CARE OF             
MTR06418300001000000000000000RA              74692263    005800520000005200000350000003NN  NNW 000                       N    
RDG06418300WATR 000000004R00000000000000102000010272015190000N000000000000N         000000400R 10000000010000000094           
RFF0641830069369101      ERT      0000  956.44375000140000102720151900000001029251100W 1220000N                               
CUS0641830000106338828004         GOEL, HERSH         122 S CONKLING ST                       000N        CARE OF             
MTR06418300001000000000000000RA              74692266    005800530000005300000350000003NN  NNW 000                       N    
RDG06418300WATR 000000004R00000000000000005000010272015190000N000000000000N         000000400R 10000000010000000002           
RFF0641830069370526      ERT      0000  956.44375000140000102720151900000000055032100W 1220000N                               
CUS0641830000106338829002         EBBIN, LINDSAY      125 S CONKLING ST                       000N        CARE OF             
MTR06418300001000000000000000RA              74692327    005800540000005400000350000003NN  NNW 000                       N    
RDG06418300WATR 000000004R00000000000000148000010272015190000N000000000000N         000000400R 10000000010000000136           
RFF0641830069369148      ERT      0000  956.44375000140000102720151900000001484191100W 1220000N                               
CUS0641830000106338830000         MERIDIAN ACQUISITION123 S CONKLING ST                       000N        CARE OF             
MTR06418300001000000000000000RA              74688297    005800550000005500000350000003NN  NNW 000                       N    
RDG06418300WATR 000000004R00000000000000239000010272015190000N000000000000N         000000400R 10000000010000000220           
RFF0641830069369150      ERT      0000  956.44375000140000102720151900000002391655100W 1220000N                               
CUS0641830000106354368000         UTTENREITHER III, CH113 S CONKLING ST                       000N        CARE OF             
MTR06418300001000000000000000RA              74692325    005800560000005600000350000003NN  NNW 000                       N    
RDG06418300WATR 000000004R00000000000000119000010272015190000N000000000000N         000000400R 10000000010000000113           
RFF0641830069370503      ERT      0000  956.44375000140000102720151900000001191189100W 1220000N                               
CUS0641830000106354371004         WATERS JR., WARDELL 111 S CONKLING ST                       000N        CARE OF             
MTR06418300001000000000000000RA              74692326    005800570000005700000350000003NN  NNW 000                       N    
RDG06418300WATR 000000004R00000000000000692000010272015190000N000400000080N         000000400R 10000000010000000673           
RFF0641830069370535      ERT      0000  956.44375000140000102720151900000006922775100W 1220000N                               
CUS0641830000106369014003         SCHWALLENBERG, HEATH105 S DEAN ST                           000N        CARE OF             
MTR06418300001000000000000000RA              74691283    005800580000005800000350000003NN  NNW 000                       N    
RDG06418300WATR 000000004R00000000000000028000010272015190000N000000000050N         000000400R 10000000010000000025           
RFF0641830069370530      ERT      0000  956.44375000140000102720151900000000287761100W 1220000N                               
CUS0641830000106338835009         C&G INVESTMENTS, LLC103 S DEAN ST                           000N        CARE OF             
MTR06418300001000000000000000RA              77883432    005800590000005900000360000003NN  NNW 000                       N    
RDG06418300WATR 000000004R00000000000000000000010272015190000N000100000080N         000000400R 10000000010000000000           
RFF0641830069370531      ERT      0000  956.44375000140000102720151900000000002125100W 1220000N                               
CUS0641830000106338836007         DAVIS JR., GREGORY B101 S DEAN ST                           000N        CARE OF             
MTR06418300001000000000000000RA              77879325    005800600000006000000360000003NN  NNW 000                       N    
RDG06418300WATR 000000004R00000000000000011000010272015190000N000300000080N         000000400R 10000000010000000002           
RFF0641830069370544      ERT      0000  956.44375000140000102720151900000000111591100W 1220000N                               
CUS0641830000106338837005         ELMALI, NAJIB       3703 CENTRE PL                          000N        CARE OF             
MTR06418300001000000000000000RA              74692223    005800610000006100000350000003NN  NNW 000                       N    
RDG06418300WATR 000000004R00000000000000152000010272015190000N000000000000N         000000400R 10000000010000000137           
RFF0641830069370540      ERT      0000  956.44375000140000102720151900000001527348100W 1220000N                               
CUS0641830000106366361001         HARBOR HOUSE BUILDER3709 CENTRE PL                          000N        CARE OF             
MTR06418300001000000000000000RA              74692220    005800620000006200000350000003NN  NNW 000                       N    
RDG06418300WATR 000000004R00000000000000175000010272015190000N000000000000N         000000400R 10000000010000000163           
RFF0641830069370512      ERT      0000  956.44375000140000102720151900000001757444100W 1220000N                               
CUS0641830000106346651000         BARRERA, JOSE RAUL  3711 CENTRE PL                          000N        CARE OF             
MTR06418300001000000000000000RA              74692221    005800630000006300000350000003NN  NNW 000                       N    
RDG06418300WATR 000000004R00000000000000305000010272015190000N000000000000N         000000400R 10000000010000000289           
RFF0641830069369310      ERT      0000  956.44375000140000102720151900000003051076100W 1220000N                               
CUS0641830000106338840009         CARPENTER III, THOMA3713 CENTRE PL                          000N        CARE OF             
MTR06418300001000000000000000RA              74692225    005800640000006400000350000003NN  NNW 000                       N    
RDG06418300WATR 000000004R00000000000000001000010272015190000N000100000080N         000000400R 10000000010000000001           
RFF0641830069370500      ERT      0000  956.44375000140000102720151900000000014424100W 1220000N                               
CUS0641830000106366367008         PINEDA, OSCAR       3715 CENTRE PL                          000N        CARE OF             
MTR06418300001000000000000000RA              74692222    005800650000006500000350000003NN  NNW 000                       N    
RDG06418300WATR 000000004R00000000000000322000010272015190000N000000000000N         000000400R 10000000010000000305           
RFF0641830069370525      ERT      0000  956.44375000140000102720151900000003224705100W 1220000N                               
CUS0641830000106362428002         FLORES, JANICE      3719 CENTRE PL                          000N        CARE OF             
MTR06418300001000000000000000RA              74692224    005800660000006600000350000003NN  NNW 000                       N    
RDG06418300WATR 000000004R00000000000000324000010272015190000N000000000000N         000000400R 10000000010000000297           
RFF0641830069370538      ERT      0000  956.44375000140000102720151900000003246135100W 1220000N                               
CUS0641830000106338841007         DUBOSE, CAMILLA A   3721 CENTRE PL                          000N        CARE OF             
MTR06418300001000000000000000RA              74690276    005800670000006700000350000003NN  NNW 000                       N    
RDG06418300WATR 000000004R00000000000000195000010272015190000N000000000000N         000000400R 10000000010000000187           
RFF0641830069368827      ERT      0000  956.44375000140000102720151900000001956714100W 1220000N                               
CUS0641830000106354376003         FISHER, MICHELE     3707 MT PLEASANT AVE                    000N        CARE OF             
MTR06418300001000000000000000RA              74689610    005800680000006800000350000003NN  NNW 000                       N    
RDG06418300WATR 000000004R00000000000000138000010272015190000N000000000000N         000000400R 10000000010000000128           
RFF0641830069370426      ERT      0000  956.44375000140000102720151900000001387233100W 1220000N                               
CUS0641830000106338846006         HARBOR HOUSE BUILDER3713 MT PLEASANT AVE                    000N        CARE OF             
MTR06418300001000000000000000RA              74689629    005800690000006900000350000003NN  NNW 000                       N    
RDG06418300WATR 000000004R00000000000000224000010272015190000N000000000000U         000000400R 10000000010000000202           
RFF0641830069369095      ERT      0000  956.44375000140000102720151900000002240281100W 1220000N                               
CUS0641830000106338847004         SARRIS, KOSTAS      3719 MT PLEASANT AVE                    000N        CARE OF             
MTR06418300001000000000000000RA              77877943    005800700000007000000360000003NN  NNW 000                       N    
RDG06418300WATR 000000004R00000000000000011000010272015190000N000000000000N         000000400R 10000000010000000006           
RFF0641830069369117      ERT      0000  956.44375000140000102720151900000000115343100W 1220000N                               
CUS0641830000106338850008         HARBOR HOUSE BUILDER3729 MT PLEASANT AVE                    000N        CARE OF             
MTR06418300001000000000000000RA              75614024    005800710000007100000350000003NN  NNW 000                       N    
RDG06418300WATR 000000004R00000000000000534000010272015190000N000300000080N         000000400R 10000000010000000114           
RFF0641830069369121      ERT      0000  956.44375000140000102720151900000005342722100W 1220000N                               
CUS0641830000106338851006         CHRISTEL PROPERTIES,3731 MT PLEASANT AVE                    000N        CARE OF             
MTR06418300001000000000000000RA              75614010    005800720000007200000350000003NN  NNW 000                       N    
RDG06418300WATRL000000004K00000000000000534000010272015073758O000300000000U01       000000400K 10000000010000000146           
CUS0641830000106346652008         BEALL, ROBERT LEE   3735 MT PLEASANT AVE                    000N        CARE OF             
MTR06418300001000000000000000RA              74689632    005800730000007300000350000003NN  NNW 000                       N    
RDG06418300WATR 000000004R00000000000000104000010272015190000N000000000000N         000000400R 10000000010000000096           
RFF0641830069369122      ERT      0000  956.44375000140000102720151900000001046577100W 1220000N                               
CUS0641830000106338853002         SHANDROWSKI, JOHN A.3742 MT PLEASANT AVE                    000N        CARE OF             
MTR06418300001000000000000000RA              74689669    005800740000007400000350000003NN  NNW 000                       N    
RDG06418300WATRL000000004K00000000000000052000010272015073828O000000000000U01       000000400K 10000000010000000043           
CUS0641830000106338854000         DUNN HOMES, LLC     3740 MT PLEASANT AVE                    000N        CARE OF             
MTR06418300001000000000000000RA              75426086    005800750000007500000350000003NN  NNW 000                       N    
RDG06418300WATR 000000004R00000000000000082000010272015190000N000400000080N         000000400R 10000000010000000076           
RFF0641830069369300      ERT      0000  956.44375000140000102720151900000000826166100W 1220000N                               
CUS0641830000106346653006         3738 MT PLEASANT AVE3738 MT PLEASANT AVE                    000N        CARE OF             
MTR06418300001000000000000000RA              74691234    005800760000007600000350000003NN  NNW 000                       N    
RDG06418300WATR 000000004R00000000000000278000010272015190000N000400000080N         000000400R 10000000010000000277           
RFF0641830069369120      ERT      0000  956.44375000140000102720151900000002780334100W 1220000N                               
CUS0641830000106338855007         ZANELLA, ERNESTO    3736 MT PLEASANT AVE                    000N        CARE OF             
MTR06418300001000000000000000RA              74691235    005800770000007700000350000003NN  NNW 000                       N    
RDG06418300WATR 000000004R00000000000000187000010272015190000N000000000000N         000000400R 10000000010000000174           
RFF0641830069369097      ERT      0000  956.44375000140000102720151900000001874153100W 1220000N                               
CUS0641830000106338861005         SWOPE JR, GEORGE W  3722 MT PLEASANT AVE                    000N        CARE OF             
MTR06418300001000000000000000RA              74689631    005800780000007800000350000003NN  NNW 000                       N    
RDG06418300WATR 000000004R00000000000000102000010272015190000N000000000000N         000000400R 10000000010000000095           
RFF0641830069369321      ERT      0000  956.44375000140000102720151900000001026870100W 1220000N                               
CUS0641830000106338862003         K.M.S. PROPERTY LLC 3720 MT PLEASANT AVE                    000N        CARE OF             
MTR06418300001000000000000000RA              74689628    005800790000007900000350000003NN  NNW 000                       N    
RDG06418300WATR 000000004R00000000000000010000010272015190000N000300000080N         000000400R 10000000010000000000           
RFF0641830069369306      ERT      0000  956.44375000140000102720151900000000102226100W 1220000N                               
CUS0641830000106338866004         BATKHAN, DANIEL     3704 MT PLEASANT AVE                    000N        CARE OF             
MTR06418300001000000000000000RA              74689613    005800800000008000000350000003NN  NNW 000                       N    
RDG06418300WATR 000000004R00000000000000208000010272015190000N000400000080N         000000400R 10000000010000000190           
RFF0641830069369134      ERT      0000  956.44375000140000102720151900000002088614100W 1220000N                               
CUS0641830000106351604001         CARINO, ADOLFO ARMAN3612 MT PLEASANT AVE                    000N        CARE OF             
MTR06418300001000000000000000RA              74689614    005800810000008100000350000003NN  NNW 000                       N    
RDG06418300WATR 000000004R00000000000000418000010272015190000N000000000000N         000000400R 10000000010000000384           
RFF0641830069369130      ERT      0000  956.44375000140000102720151900000004181761100W 1220000N                               
CUS0641830000106338867002         SCHLEICHER, VELMA FR3606 MT PLEASANT AVE                    000N        CARE OF             
MTR06418300001000000000000000RA              74689611    005800820000008200000350000003NN  NNW 000                       N    
RDG06418300WATR 000000004R00000000000000213000010272015190000N000000000000N         000000400R 10000000010000000202           
RFF0641830069370447      ERT      0000  956.44375000140000102720151900000002139429100W 1220000N                               
CUS0641830000106338868000         BATKHAN, DANIEL     3604 MT PLEASANT AVE                    000N        CARE OF             
MTR06418300001000000000000000RA              74691231    005800830000008300000350000003NN  NNW 000                       N    
RDG06418300WATR 000000004R00000000000000026000010272015190000N000300000080N         000000400R 10000000010000000014           
RFF0641830069369277      ERT      0000  956.44375000140000102720151900000000269208100W 1220000N                               
CUS0641830000106354390004         OTTORINO FELLUCA & W3611 E LOMBARD ST                       000N        CARE OF             
MTR06418300001000000000000000RA              75422865    005800840000008400000350000003NN  NNW 000                       N    
RDG06418300WATR 000000004R00000000000000301000010272015190000N000000000000N         000000400R 10000000010000000280           
RFF0641830069372688      ERT      0000  956.44375000140000102720151900000003010069100W 1220000N                               
CUS0641830000106338869008         BROWN HAZEL M       3613 E LOMBARD ST                       000N        CARE OF             
MTR06418300001000000000000000RA              75422866    005800850000008500000350000003NN  NNW 000                       N    
RDG06418300WATR 000000004R00000000000000162000010272015190000N000000000000N         000000400R 10000000010000000148           
RFF0641830069373463      ERT      0000  956.44375000140000102720151900000001625805100W 1220000N                               
CUS0641830000106367623003         DEVAUGHN, MONICA A  3615 E LOMBARD ST                       000N        CARE OF             
MTR06418300001000000000000000RA              76344980    005800860000008600000350000003NN  NNW 000                       N    
RDG06418300WATR 000000004R00000000000000048000010272015190000N000000000000N         000000400R 10000000010000000044           
RFF0641830069368789      ERT      0000  956.44375000140000102720151900000000488563100W 1220000N                               
CUS0641830000106354384007         FELLUCA, GIOVANNA  (3617 E LOMBARD ST                       000N        CARE OF             
MTR06418300001000000000000000RA              75615481    005800870000008700000350000003NN  NNW 000                       N    
RDG06418300WATR 000000004R00000000000000345000010272015190000N000400000080N         000000400R 10000000010000000332           
RFF0641830069373435      ERT      0000  956.44375000140000102720151900000003455733100W 1220000N                               
CUS0641830000106354385004         GIOVANNA FELLUCA    3619 E LOMBARD ST                       000N        CARE OF             
MTR06418300001000000000000000RA              75615483    005800880000008800000350000003NN  NNW 000                       N    
RDG06418300WATR 000000004R00000000000000195000010272015190000N000400000080N         000000400R 10000000010000000191           
RFF0641830069373424      ERT      0000  956.44375000140000102720151900000001955326100W 1220000N                               
CUS0641830000106354474006         DEANGELIS, LAWRENCE 3741 E LOMBARD ST                       000N        CARE OF             
MTR06418300001000000000000000RA              75426515    005800890000008900000350000003NN  NNW 000                       N    
RDG06418300WATR 000000004R00000000000000352000010272015190000N000000000000N         000000400R 10000000010000000325           
RFF0641830069368749      ERT      0000  956.44375000140000102720151900000003526438100W 1220000N                               
CUS0641830000106354388008         PORTILLO, LUISA     3730 E LOMBARD ST                       000N        CARE OF             
