FHDNNNN019004408004408004408N                                                                                           014727
RHD08534500NN02250225000002250000000002250225000209NY022502250225000500010000000000000000000002    10192015NY020000 N         
CUS0853450000108014066008         PNC BANK, NA-TRUST R2 WADE AVE                              000N        CARE OF             
MTR08534500001000000000000000RA              24758314    005800010000000100000520000003NN  NNW 000                       N    
RDG08534500WATRL000000004K00000000000004506000110202015100000N000300000020N21       000000400K 10000000010000004509           
CUS0853450000108014067006         HIGBY MARK R        4 WADE AVE                              000N        CARE OF             
MTR08534500001000000000000000RA              35114696    005800020000000200000520000003NN  NNW 000                       N    
RDG08534500WATRL000000004K00000000000002703000210202015100055N000000000000N21       000550400K 10000000010000002691           
CUS0853450000108014068004         DOLGE BRIAN L       6 WADE AVE                              000N        CARE OF             
MTR08534500001000000000000000RA              00130329    005800030000000300000570000003NN  NNW 000                       N    
RDG08534500WATRL000000004K00000000000001127000310202015100143N000000000000N21       000480400K 10000000010000001127           
CUS0853450000108014069002         ANDERSON JESSE J    8 WADE AVE                              000N        CARE OF             
MTR08534500001000000000000000RA              30521796    005800040000000400000520000003NN  NNW 000                       N    
RDG08534500WATRL000000004K00000000000002331000410202015100223N000000000000N21       000400400K 10000000010000002310           
CUS0853450000108014070000         CAIN RONN R         10 WADE AVE                             000N        CARE OF             
MTR08534500001000000000000000RA              24222500    005800050000000500000520000003NN  NNW 000                       N    
RDG08534500WATRL000000004K00000000000005162000510202015100317N000000000000N21       000540400K 10000000010000005130           
CUS0853450000108014071008         BERNARD WILLIAM E   12 WADE AVE                             000N        CARE OF             
MTR08534500001000000000000000RA              01103047    005800060000000600000610000003NY  NNW 000                       N    
MTM0853450001103047    REFER TO MAINT RESET FRAME AND COVER                                                                   
RDG08534500WATRL000000004K00000000000000986000610202015101154N000000000000N21       005170400K 10000000010000000962           
CUS0853450000108014072006         NAGEL DIANA M       14 WADE AVE                             000N        CARE OF             
MTR08534500001000000000000000RA              24222502    005800070000000700000520000003NN  NNW 000                       N    
RDG08534500WATRL000000004K00000000000003353000710202015101231N000000000000N21       000370400K 10000000010000003335           
CUS0853450000108014073004         MORTGAGE EQUITY CONV16 WADE AVE                             000N        CARE OF             
MTR08534500001000000000000000RA              22608267    005800080000000800000520000003NN  NNW 000                       N    
RDG08534500WATRL000000004K00000000000002871000810312015090659O000300000010N80       000520400K 10000000010000002872           
CUS0853450000108014074002         SULLIVAN LEONARD M,J18 WADE AVE                             000N        CARE OF             
MTR08534500001000000000000000RA              35117610    005800090000000900000520000003NN  NNW 000                       N    
RDG08534500WATRL000000004K00000000000003473000910202015101420N000000000000N21       000570400K 10000000010000003465           
CUS0853450000108014075009         HARRIS CARL M       20 WADE AVE                             000N        CARE OF             
MTR08534500001000000000000000RA              35106739    005800100000001000000520000003NN  NNW 000                       N    
RDG08534500WATRL000000004K00000000000002485001010202015101501N000000000000N21       000410400K 10000000010000002468           
CUS0853450000108014076007         HARDY JERRY DAVID,JR22 WADE AVE                             000N        CARE OF             
MTR08534500001000000000000000RA              01070254    005800110000001100000610000003NN  NNW 000                       N    
RDG08534500WATRL000000004K00000000000000396001110202015101726N000000000000N21       001450400K 10000000010000000394           
CUS0853450000108014077005         FAUTH THERESA L     24 WADE AVE                             000N        CARE OF             
MTR08534500001000000000000000RA              00130434    005800120000001200000570000003NN  NNW 000                       N    
RDG08534500WATRL000000004K00000000000000989001210202015101808N000000000000N21       000420400K 10000000010000000978           
CUS0853450000108014078003         MARK J WOODLAND, JR.26 WADE AVE                             000N        CARE OF             
MTR08534500001000000000000000RA              46882198    005800130000001300000520000003NN  NNW 000                       N    
RDG08534500WATRL000000004K00000000000001681001310202015101900N000000000000N21       000520400K 10000000010000001671           
CUS0853450000108014079001         SCHMIDT ROBERT S    28 WADE AVE                             000N        CARE OF             
MTR08534500001000000000000000RA              27818760    005800140000001400000520000003NN  NNW 000                       N    
RDG08534500WATRL000000004K00000000000002546001410202015101945N000000000000N21       000450400K 10000000010000002536           
CUS0853450000108014080009         KYGER OLIEANTHIS    30 WADE AVE                             000N        CARE OF             
MTR08534500001000000000000000RA              46880951    005800150000001500000520000003NN  NNW 000                       N    
RDG08534500WATRL000000004K00000000000001587001510202015102030N000400000010N21       000450400K 10000000010000001575           
CUS0853450000108380125008         ROBINSON TERRY D    32 WADE AVE                             000N        CARE OF             
MTR08534500001000000000000000RA              33732910    005800160000001600000520000003NN  NNW 000                       N    
RDG08534500WATRL000000004K00000000000003588001610202015102107N000000000000N21       000370400K 10000000010000003580           
CUS0853450000108014081007         LYNCH KATHLEEN C    34 WADE AVE                             000N        CARE OF             
MTR08534500001000000000000000RA              46881001    005800170000001700000520000003NN  NNW 000                       N    
RDG08534500WATRL000000004K00000000000001471001710202015102153N000400000010N21       000460400K 10000000010000001465           
CUS0853450000108014082005         LUPTON GARY L       36 WADE AVE                             000N        CARE OF             
MTR08534500001000000000000000RA              30516042    005800180000001800000520000003NN  NNW 000                       N    
RDG08534500WATRL000000004K00000000000003602001810202015102230N000000000000N21       000370400K 10000000010000003594           
CUS0853450000108399676009         PEREZ JOSE MANUEL   38 WADE AVE                             000N        CARE OF             
MTR08534500001000000000000000RA              41258774    005800190000001900000520000003NN  NNW 000                       N    
RDG08534500WATRL000000004K00000000000003489001910202015102329N000000000000N21       000590400K 10000000010000003443           
CUS0853450000108014083003         AMAYA DEBBIE        40 WADE AVE                             000N        CARE OF             
MTR08534500001000000000000000RA              24223247    005800200000002000000520000003NN  NNW 000                       N    
RDG08534500WATRL000000004K00000000000003697002010202015102416N000000000000N21       000470400K 10000000010000003682           
CUS0853450000108014084001         AFFELDT ALINE O     42 WADE AVE                             000N        CARE OF             
MTR08534500001000000000000000RA              35103130    005800210000002100000520000003NN  NNW 000                       N    
RDG08534500WATRL000000004K00000000000003118002110312015090725O000000000010N80       000450400K 10000000010000003098           
CUS0853450000108014085008         GICK JOHN L         44 WADE AVE                             000N        CARE OF             
MTR08534500001000000000000000RA              35116230    005800220000002200000520000003NN  NNW 000                       N    
RDG08534500WATRL000000004K00000000000001260002210202015102524N000000000000N21       000230400K 10000000010000001256           
CUS0853450000108014086006         ROSS MICHAEL A      46 WADE AVE                             000N        CARE OF             
MTR08534500001000000000000000RA              41257565    005800230000002300000520000003NN  NNW 000                       N    
RDG08534500WATRL000000004K00000000000001876002310202015102601N000000000000N21       000370400K 10000000010000001862           
CUS0853450000108014087004         DEPPE MICHAEL G     48 WADE AVE                             000N        CARE OF             
MTR08534500001000000000000000RA              30514375    005800240000002400000520000003NN  NNW 000                       N    
RDG08534500WATRL000000004K00000000000002019002410202015102642N000000000010N21       000410400K 10000000010000002006           
CUS0853450000108014088002         JACKSON HOWARD W    50 WADE AVE                             000N        CARE OF             
MTR08534500001000000000000000RA              45374164    005800250000002500000520000003NN  NNW 000                       N    
RDG08534500WATRL000000004K00000000000003273002510202015102726N000000000000N21       000440400K 10000000010000003241           
CUS0853450000108014089000         OO CHIT             52 WADE AVE                             000N        CARE OF             
MTR08534500001000000000000000RA              00130433    005800260000002600000570000003NN  NNW 000                       N    
RDG08534500WATRL000000004K00000000000001318002610202015102755N000000000000N21       000290400K 10000000010000001300           
CUS0853450000108416463001         EDWARDS RODNEY GENE 54 WADE AVE                             000N        CARE OF             
MTR08534500001000000000000000RA              48584732    005800270000002700000520000003NN  NNW 000                       N    
RDG08534500WATRL000000004K00000000000001997002710202015102946N000000000000N21       001110400K 10000000010000001968           
CUS0853450000108014090008         MEISE JOHN D        56 WADE AVE                             000N        CARE OF             
MTR08534500001000000000000000RA              00134050    005800280000002800000570000003NY  NNW 000                       N    
MTM0853450000134050    MTR BURIED                                                                                             
RDG08534500WATRL000000004K00000000000000000000000000000000000 000000000000U         000000400  10000000010000001451           
CUS0853450000108014091006         WOLF WILLARD W,SR   58 WADE AVE                             000N        CARE OF             
MTR08534500001000000000000000RA              24222498    005800290000002900000520000003NN  NNW 000                       N    
RDG08534500WATRL000000004K00000000000002550002810312015090748O000000000010N80       005540400K 10000000010000002546           
CUS0853450000108014092004         EPPLE RICHARD R,JR  45 WADE AVE                             000N        CARE OF             
MTR08534500001000000000000000RA              75616485    005800300000003000000350000003NN  NNW 000                       N    
RDG08534500WATRL000000004K00000000000000068002910202015104412N000000000000N21       003120400K 10000000010000000065           
CUS0853450000108014093002         TEBO JOSEPH E,JR    43 WADE AVE                             000N        CARE OF             
MTR08534500001000000000000000RA              14900095    005800310000003100000310000003NN  NNW 000                       N    
RDG08534500WATRL000000004K00000000000001690003010202015104535N000000000000N21       000830400K 10000000010000001666           
CUS0853450000108014094000         SCANNELL C EUGENE   41 WADE AVE                             000N        CARE OF             
MTR08534500001000000000000000RA              14903722    005800320000003200000310000003NN  NNW 000                       N    
RDG08534500WATRL000000004K00000000000000262003110202015104618N000000000000N21       000430400K 10000000010000000262           
CUS0853450000108014095007         RUFF WILLIAM C      39 WADE AVE                             000N        CARE OF             
MTR08534500001000000000000000RA              36698144    005800330000003300000520000003NY  NNW 000                       N    
MTM0853450036698144    CLEAN OUT REFER TO MANIT RESET FRAME COV                                                               
RDG08534500WATRL000000004K00000000000000000000000000000000000 000000000000U         000000400  10000000010000004306           
CUS0853450000108439129001         JONES WYMAN K       33 WADE AVE                             000N        CARE OF             
MTR08534500001000000000000000RA              14911967    005800340000003400000310000003NN  NNW 000                       N    
RDG08534500WATRL000000004K00000000000000486003210202015105013N000000000000N21       002350400K 10000000010000000475           
CUS0853450000108014096005         RIEMER EDWARD C     31 WADE AVE                             000N        CARE OF             
MTR08534500001000000000000000RA              14911324    005800350000003500000310000003NY  NNW 000                       N    
MTM0853450014911324    CANT LOCATE BURIED                                                                                     
RDG08534500WATRL000000004K00000000000000000000000000000000000 000000000000U         000000400  10000000010000001389           
CUS0853450000108014097003         WILDER WILLIAM F    5 GLENCOE AVE                           000N        CARE OF             
MTR08534500001000000000000000RA              23842137    005800360000003600000520000003NN  NNW 000                       N    
RDG08534500WATRL000000004K00000000000006141003310202015105432N000000000000N21       002590400K 10000000010000006133           
CUS0853450000108014098001         CUSTER GARY A       1 GLENCOE AVE                           000N        CARE OF             
MTR08534500001000000000000000RA              20767686    005800370000003700000520000003NY  NNW 000                       N    
MTM0853450020767686    CANT LOCATE                                                                                            
RDG08534500WATRL000000004K00000000000000000000000000000000000 000000000000U         000000400  10000000010000003690           
CUS0853450000108014099009         CUSTER GARY A       2 GLENCOE AVE                           000N        CARE OF             
MTR08534500001000000000000000RA              35117237    005800380000003800000520000003NY  NNW 000                       N    
MTM0853450035117237    CANT LOCATE                                                                                            
RDG08534500WATRL000000004K00000000000000000000000000000000000 000000000000U         000000400  10000000010000002103           
CUS0853450000108014100005         STRAUSS JOHN P      3 GLENCOE AVE                           000N        CARE OF             
MTR08534500001000000000000000RA              9688263     005800390000003900000570000003NN  NNW 000                       N    
RDG08534500WATRL000000004K00000000000004122003910202015110200N000000000000N21       000450400K 10000000010000004115           
CUS0853450000108014101003         WILDER WILLIAM FRANK4 GLENCOE AVE                           000N        CARE OF             
MTR08534500001000000000000000RA              36688832    005800400000004000000520000003NN  NNW 000                       N    
RDG08534500WATRL000000004K00000000000001768003810202015110115N000000000000N21       000440400K 10000000010000001760           
CUS0853450000108014102001         WILDER WILLIAM FRANK6 GLENCOE AVE                           000N        CARE OF             
MTR08534500001000000000000000RA              35106736    005800410000004100000520000003NN  NNW 000                       N    
RDG08534500WATRL000000004K00000000000002159003710202015110031N000000000000N21       000440400K 10000000010000002153           
CUS0853450000108014104007         FREY DAVID F        10 GLENCOE AVE                          000N        CARE OF             
MTR08534500001000000000000000RA              21202397    005800420000004200000520000003NN  NNW 000                       N    
RDG08534500WATRL000000004K00000000000004846003610202015105947N000000000000N21       000640400K 10000000010000004827           
CUS0853450000108014105004         SWAN JAMES E        12 GLENCOE AVE                          000N        CARE OF             
MTR08534500001000000000000000RA              46881467    005800430000004300000520000003NN  NNW 000                       N    
RDG08534500WATRL000000004K00000000000000868003510202015105843N000000000000N21       001050400K 10000000010000000864           
CUS0853450000108014106002         GIBSON GARY E       11 GLENCOE AVE                          000N        CARE OF             
MTR08534500001000000000000000RA              50788023    005800440000004400000520000003NN  NNW 000                       N    
RDG08534500WATRL000000004K00000000000002214003410202015105658N000000000000N21       001460400K 10000000010000002198           
CUS0853450000108014107000         COSS VICTOR         29 WADE AVE                             000N        CARE OF             
MTR08534500001000000000000000RA              35107181    005800450000004500000520000003NN  NNW 000                       N    
RDG08534500WATRL000000004K00000000000004435004010202015110716N000300000030N21       003160400K 10000000010000004460           
CUS0853450000108014108008         HENDERSON RICHARD D 1 FAIRVIEW AVE                          000N        CARE OF             
MTR08534500001000000000000000RA              01084025    005800460000004600000610000003NN  NNW 000                       N    
RDG08534500WATRL000000004K00000000000001509004110202015110834N000000000000N21       000780400K 10000000010000001488           
CUS0853450000108409075002         CHAY DOUGLAS M      3 FAIRVIEW AVE                          000N        CARE OF             
MTR08534500001000000000000000RA              46888514    005800470000004700000520000000NN  NNW 000                       N    
RDG08534500WATRL000000004K00000000000001196004310202015111028N000000000010N21       000360400K 10000000010000001186           
CUS0853450000108014110004         LIN XING GUI        5 FAIRVIEW AVE                          000N        CARE OF             
MTR08534500001000000000000000RA              01084027    005800480000004800000610000003NN  NNW 000                       N    
RDG08534500WATRL000000004K00000000000000978004410202015111257N000000000001N21       000100400K 10000000010000000949           
CUS0853450000108014111002         LEVINE ROBERT,3RD   7 FAIRVIEW AVE                          000N        CARE OF             
MTR08534500001000000000000000RA              01084023    005800490000004900000610000003NN  NNW 000                       N    
RDG08534500WATRL000000004K00000000000002325004610202015111352N000000000000N21       000550400K 10000000010000002302           
CUS0853450000108014112000         FLOOD BESSIE L      4 FAIRVIEW AVE                          000N        CARE OF             
MTR08534500001000000000000000RA              23842159    005800500000005000000520000003NN  NNW 000                       N    
RDG08534500WATRL000000004K00000000000004597004510202015111247N000000000000N21       001230400K 10000000010000004589           
CUS0853450000108014113008         HOLMES ROY          2 FAIRVIEW AVE                          000N        CARE OF             
MTR08534500001000000000000000RA              00129198    005800510000005100000570000003NN  NNW 000                       N    
RDG08534500WATRL000000004K00000000000001077004210202015110952N000000000000N21       000780400K 10000000010000001069           
CUS0853450000108014114006         SCANNELL JAMES L    27 WADE AVE                             000N        CARE OF             
MTR08534500001000000000000000RA              27817972    005800520000005200000520000003NN  NNW 000                       N    
RDG08534500WATRL000000004K00000000000004560004710202015111647N000000000000N21       001750400K 10000000010000004548           
CUS0853450000108014115003         YATES JAMES         25 WADE AVE                             000N        CARE OF             
MTR08534500001000000000000000RA              24228319    005800530000005300000520000003NN  NNW 000                       N    
RDG08534500WATRL000000004K00000000000007616004810202015111754N000000000000N21       000670400K 10000000010000007597           
CUS0853450000108014116001         WHITE ANDREW H      23 WADE AVE                             000N        CARE OF             
MTR08534500001000000000000000RA              45374183    005800540000005400000520000003NN  NNW 000                       N    
RDG08534500WATRL000000004K00000000000000876004910202015111816N000100000010N21       000220400K 10000000010000000876           
CUS0853450000108014117009         WHITE ANDREW H      21 WADE AVE                             000N        CARE OF             
MTR08534500001000000000000000RA              77989500    005800550000005500000350000003NN  NNW 000                       N    
RDG08534500WATRL000000004K00000000000000037005010202015111907N000300000010N21       000510400K 10000000010000000054           
CUS0853450000108014118007         ANDREW H WHITE      19 WADE AVE                             000N        CARE OF             
MTR08534500001000000000000000RA              32899934    005800560000005600000520000003NY  NNW 000                       N    
MTM0853450032899934    GLASS BROKE                                                                                            
RDG08534500WATRL000000004K00000000000000000005110202015112004S005000000000U21       000570400K 10000000010000003793           
CUS0853450000108014119005         ANDREW H WHITE      17 WADE AVE                             000N        CARE OF             
MTR08534500001000000000000000RA              00129197    005800570000005700000570000003NN  NNW 000                       N    
RDG08534500WATRL000000004K00000000000000773005210202015112059N000400000010N21       000550400K 10000000010000000770           
CUS0853450000108014120003         MEME OO             15 WADE AVE                             000N        CARE OF             
MTR08534500001000000000000000RA              23051173    005800580000005800000520000003NN  NNW 000                       N    
RDG08534500WATRL000000004K00000000000003822005310202015112147N000000000000N21       000480400K 10000000010000003806           
CUS0853450000108014121001         CASH SCOTT D        13 WADE AVE                             000N        CARE OF             
MTR08534500001000000000000000RA              31936781    005800590000005900000520000003NN  NNW 000                       N    
RDG08534500WATRL000000004K00000000000002410005410202015112314N000000000000N21       000870400K 10000000010000002397           
CUS0853450000108014122009         SIMMONS THOMAS L    11 WADE AVE                             000N        CARE OF             
MTR08534500001000000000000000RA              01098998    005800600000006000000610000003NN  NNW 000                       N    
RDG08534500WATRL000000004K00000000000000281005510202015112417N000000000000N21       000630400K 10000000010000000281           
CUS0853450000108014123007         TATYANA V. PEKINA   9 WADE AVE                              000N        CARE OF             
MTR08534500001000000000000000RA              78022864    005800610000006100000360000003NN  NNW 000                       N    
RDG08534500WATRL000000004K00000000000000026005610312015091216O000400000010N80       000850400K 10000000010000000020           
CUS0853450000108014124005         MURRAY GREGORY      7 WADE AVE                              000N        CARE OF             
MTR08534500001000000000000000RA              00129200    005800620000006200000570000003NN  NNW 000                       N    
RDG08534500WATRL000000004K00000000000000910005710202015112643N000000000000N21       000610400K 10000000010000000891           
CUS0853450000108014125002         THOMAS-BARBARA JEAN 5 WADE AVE                              000N        CARE OF             
MTR08534500001000000000000000RA              26011713    005800630000006300000520000003NN  NNW 000                       N    
RDG08534500WATRL000000004K00000000000003190005810202015112712N000000000000N21       000290400K 10000000010000003186           
CUS0853450000108014126000         BAILEY KENNETH J,JR 3 WADE AVE                              000N        CARE OF             
MTR08534500001000000000000000RA              99188597    005800640000006400000570000003NN  NNW 000                       N    
RDG08534500WATRL000000004K00000000000002139005910202015112750N000000000000N21       000380400K 10000000010000002113           
CUS0853450000108014127008         LIVENSPARGER JENNIFE1 WADE AVE                              000N        CARE OF             
MTR08534500001000000000000000RA              26012364    005800650000006500000520000003NN  NNW 000                       N    
RDG08534500WATRL000000004K00000000000003455006110202015113144N000000000010N21       000600400K 10000000010000003446           
CUS0853450000108014128006         CIN TUNG            1-1/2 WADE AVE                          000N        CARE OF             
MTR08534500001000000000000000RA              29084855    005800660000006600000520000003NN  NNW 000                       N    
RDG08534500WATRL000000004K00000000000003911006010202015113044N000000000000N21       001740400K 10000000010000003884           
CUS0853450000108014129004         MERCANTILE SAFE DEP ES WADE AVE                             000N        CARE OF             
MTR08534500001000000000000000RA              35112529    001500670000006700000520000003NN  NNW 000                       N    
RDG08534500WATRL000000005K00000000000000828006210202015113418N000000000000N21       001540500K 10000000010000000824           
CUS0853450000108013911006         6647 FREDERICK ROAD 6647 FREDERICK RD                       000N        CARE OF             
MTR08534500001000000000000000RA              10022356    005800680000006800000570000003NN  NNW 000                       N    
RDG08534500WATRL000000004K00000000000000127006310202015121249N000000000000N21       023110400K 10000000010000000117           
CUS0853450000108013912004         VAN VELSEN DEANNE   6645 FREDERICK RD                       000N        CARE OF             
MTR08534500001000000000000000RA              35103119    005800690000006900000520000003NN  NNW 000                       N    
RDG08534500WATRL000000004K00000000000001286006410202015121325N000000000000N21       000360400K 10000000010000001283           
CUS0853450000108013913002         RUTH SCHLOSSER      6643 FREDERICK RD                       000N        CARE OF             
MTR08534500001000000000000000RA              35103120    005800700000007000000520000003NN  NNW 000                       N    
RDG08534500WATRL000000004K00000000000000786006510202015121330N000000000000N21       000050400K 10000000010000000786           
CUS0853450000108013914000         CHRISTOPHER B YOUNG 6641 FREDERICK RD                       000N        CARE OF             
MTR08534500001000000000000000RA              30516101    005800710000007100000520000003NN  NNW 000                       N    
RDG08534500WATRL000000004K00000000000003366006610202015121402N000000000000N21       000320400K 10000000010000003358           
CUS0853450000108013915007         JANET M HENSLEY     6639 FREDERICK RD                       000N        CARE OF             
MTR08534500001000000000000000RA              23050428    005800720000007200000520000000NN  NNW 000                       N    
RDG08534500WATRL000000004K00000000000003790006710202015121411N000000000000N21       000090400K 10000000010000003771           
CUS0853450000108013916005         HALL RICHARD A      6637 FREDERICK RD                       000N        CARE OF             
MTR08534500001000000000000000RA              30516082    005800730000007300000520000003NN  NNW 000                       N    
RDG08534500WATRL000000004K00000000000001855006810202015121450N000000000000N21       000390400K 10000000010000001850           
CUS0853450000108013917003         HODGKINSON RICO G W 6635 FREDERICK RD                       000N        CARE OF             
MTR08534500001000000000000000RA              52286643    005800740000007400000520000003NN  NNW 000                       N    
RDG08534500WATRL000000004K00000000000000917006910202015121549N000000000000N21       000590400K 10000000010000000903           
CUS0853450000108013918001         HANDS JOSEPH J      6633 FREDERICK RD                       000N        CARE OF             
MTR08534500001000000000000000RA              52286571    005800750000007500000520000003NN  NNW 000                       N    
RDG08534500WATRL000000004K00000000000001282007010202015121601N000000000000N21       000120400K 10000000010000001275           
CUS0853450000108013919009         CROCETTI CAROLE L   6631 FREDERICK RD                       000N        CARE OF             
MTR08534500001000000000000000RA              40781869    005800760000007600000520000003NN  NNW 000                       N    
RDG08534500WATRL000000004K00000000000002427007110202015121636N000000000000N21       000350400K 10000000010000002401           
CUS0853450000108013920007         MATTHEW GALTHER     6629 FREDERICK RD                       000N        CARE OF             
MTR08534500001000000000000000RA              40781843    005800770000007700000520000003NN  NNW 000                       N    
RDG08534500WATRL000000004K00000000000003118007210202015121639N000000000000N21       000030400K 10000000010000003103           
CUS0853450000108013921005         WRIGHT YOLANDA      6627 FREDERICK RD                       000N        CARE OF             
MTR08534500001000000000000000RA              26019608    005800780000007800000520000003NN  NNW 000                       N    
RDG08534500WATRL000000004K00000000000002715007310202015121831N000000000000N21       001120400K 10000000010000002696           
CUS0853450000108013922003         HOMES FOR ARUNDEL IN6625 FREDERICK RD                       000N        CARE OF             
MTR08534500001000000000000000RA              20968476    005800790000007900000520000003NN  NNW 000                       N    
RDG08534500WATRL000000004K00000000000002328007410202015121843N000000000000N21       000120400K 10000000010000002300           
CUS0853450000108013923001         SMITH PETER J       6623 FREDERICK RD                       000N        CARE OF             
MTR08534500001000000000000000RA              26008937    005800800000008000000520000003NN  NNW 000                       N    
RDG08534500WATRL000000004K00000000000002841007510202015121950N000000000000N21       000670400K 10000000010000002828           
CUS0853450000108013924009         STAFFORD MICAH L    6621 FREDERICK RD                       000N        CARE OF             
MTR08534500001000000000000000RA              26008965    005800810000008100000520000003NY  NNW 000                       N    
MTM0853450026008965    CLEAN OUT VAULT                                                                                        
RDG08534500WATRL000000004K00000000000002625007610202015122009N000000000000N21       000190400K 10000000010000002619           
CUS0853450000108013925006         MOODY JAMES R       6619 FREDERICK RD                       000N        CARE OF             
MTR08534500001000000000000000RA              41082019    005800820000008200000520000003NN  NNW 000                       N    
RDG08534500WATRL000000004K00000000000000771007710202015122110N000000000000N21       000610400K 10000000010000000756           
CUS0853450000108013926004         MARINER JANET R     6617 FREDERICK RD                       000N        CARE OF             
MTR08534500001000000000000000RA              41081983    005800830000008300000520000003NN  NNW 000                       N    
RDG08534500WATRL000000004K00000000000001907007810202015122119N000000000000N21       000090400K 10000000010000001868           
CUS0853450000108013927002         DIDOMENICO JOHN     6615 FREDERICK RD                       000N        CARE OF             
MTR08534500001000000000000000RA              41075243    005800840000008400000520000003NN  NNW 000                       N    
RDG08534500WATRL000000004K00000000000002905007910202015122213N000000000000N21       000540400K 10000000010000002878           
CUS0853450000108013928000         MILLEKER MARK C     6613 FREDERICK RD                       000N        CARE OF             
MTR08534500001000000000000000RA              41075234    005800850000008500000520000003NY  NNW 000                       N    
MTM0853450041075234    CLEAN OUT                                                                                              
RDG08534500WATRL000000004K00000000000002565008010202015122241N000000000020N21       000280400K 10000000010000002553           
CUS0853450000108013929008         TIHA M LONG         6611 FREDERICK RD                       000N        CARE OF             
MTR08534500001000000000000000RA              46885244    005800860000008600000520000003NN  NNW 000                       N    
RDG08534500WATRL000000004K00000000000001538008110202015122329N000000000000N21       000480400K 10000000010000001528           
CUS0853450000108013930006         FIELDS SALENA DESIRE6609 FREDERICK RD                       000N        CARE OF             
MTR08534500001000000000000000RA              46885242    005800870000008700000520000003NN  NNW 000                       N    
RDG08534500WATRL000000004K00000000000003302008210202015122332N000000000000N21       000030400K 10000000010000003299           
CUS0853450000108014131000         DIX JOSHUA L        2 SHADY NOOK AVE                        000N        CARE OF             
MTR08534500001000000000000000RA              10007619    005800880000008800000570000003NN  NNW 000                       N    
RDG08534500WATRL000000004K00000000000000252008310202015122451N000000000000N21       000790400K 10000000010000000243           
CUS0853450000108014132008         RITA MICHAEL SANTA  4 SHADY NOOK AVE                        000N        CARE OF             
MTR08534500001000000000000000RA              14913566    005800890000008900000310000003NN  NNW 000                       N    
RDG08534500WATRL000000004K00000000000000509008410202015122515N000000000000N21       000240400K 10000000010000000500           
CUS0853450000108014133006         GORMAN KEVIN P      6 SHADY NOOK AVE                        000N        CARE OF             
MTR08534500001000000000000000RA              46886328    005800900000009000000520000003NN  NNW 000                       N    
RDG08534500WATRL000000004K00000000000001618008510202015122524N000000000010N21       000090400K 10000000010000001593           
CUS0853450000108014134004         FITZGERALD SUSAN E  8 SHADY NOOK AVE                        000N        CARE OF             
MTR08534500001000000000000000RA              44091307    005800910000009100000520000003NN  NNW 000                       N    
RDG08534500WATRL000000004K00000000000001237008610202015122624N000000000000N21       000600400K 10000000010000001227           
CUS0853450000108014135001         LEMON DORIS M       10 SHADY NOOK AVE                       000N        CARE OF             
MTR08534500001000000000000000RA              29681701    005800920000009200000520000003NN  NNW 000                       N    
RDG08534500WATRL000000004K00000000000004230008710202015122634N000100000010N21       000100400K 10000000010000004230           
CUS0853450000108014136009         ONEILL PATRICIA G   12 SHADY NOOK AVE                       000N        CARE OF             
MTR08534500001000000000000000RA              29686299    005800930000009300000520000003NN  NNW 000                       N    
RDG08534500WATRL000000004K00000000000003769008810202015122704N000000000000N21       000300400K 10000000010000003762           
CUS0853450000108014137007         BRITTANY K. CONNELLY14 SHADY NOOK AVE                       000N        CARE OF             
MTR08534500001000000000000000RA              24763502    005800940000009400000520000003NN  NNW 000                       N    
RDG08534500WATRL000000004K00000000000003294008910202015122709N000000000000N21       000050400K 10000000010000003286           
CUS0853450000108013931004         BUTLER MICHAEL JOSEP204 BLAKENEY RD                         000N        CARE OF             
MTR08534500001000000000000000RA              36688560    005800950000009500000520000000NN  NNW 000                       N    
RDG08534500WATRL000000004K00000000000002289009010202015122830N000000000000N21       000810400K 10000000010000002270           
CUS0853450000108013932002         MULLER KENNETH M    206 BLAKENEY RD                         000N        CARE OF             
MTR08534500001000000000000000RA              26013097    005800960000009600000520000000NN  NNW 000                       N    
RDG08534500WATRL000000004K00000000000002730009110202015122847N000000000000N21       000170400K 10000000010000002717           
CUS0853450000108013933000         BUSH JONATHAN M     208 BLAKENEY RD                         000N        CARE OF             
MTR08534500001000000000000000RA              33078149    005800970000009700000520000003NN  NNW 000                       N    
RDG08534500WATRL000000004K00000000000004293009210202015122910N000300000020N21       000230400K 10000000010000004300           
CUS0853450000108013934008         PRAGER ELLEN B      210 BLAKENEY RD                         000N        CARE OF             
MTR08534500001000000000000000RA              19461568    005800980000009800000520000003NN  NNW 000                       N    
RDG08534500WATRL000000004K00000000000006137009310202015122913N000000000000N21       000030400K 10000000010000006124           
CUS0853450000108013935005         HUCHROWSKI JOHN P   212 BLAKENEY RD                         000N        CARE OF             
MTR08534500001000000000000000RA              38886945    005800990000009900000520000003NN  NNW 000                       N    
RDG08534500WATRL000000004K00000000000003029009410202015122934N000000000000N21       000210400K 10000000010000003003           
CUS0853450000108013936003         RUCKER CARL E       214 BLAKENEY RD                         000N        CARE OF             
MTR08534500001000000000000000RA              38886984    005801000000010000000520000003NN  NNW 000                       N    
RDG08534500WATRL000000004K00000000000003387009510202015122937N000000000000N21       000030400K 10000000010000003366           
CUS0853450000108013937001         THOMAS SHIFFLETT    216 BLAKENEY RD                         000N        CARE OF             
MTR08534500001000000000000000RA              00129199    005801010000010100000570000003NN  NNW 000                       N    
RDG08534500WATRL000000004K00000000000001349009610202015123004N000000000000N21       000270400K 10000000010000001332           
CUS0853450000108013938009         DAY ROBERT JOHN,JR  218 BLAKENEY RD                         000N        CARE OF             
MTR08534500001000000000000000RA              26009260    005801020000010200000520000003NN  NNW 000                       N    
RDG08534500WATRL000000004K00000000000002391009710202015123031N000000000000N21       000270400K 10000000010000002373           
CUS0853450000108013939007         RAQUENO JUDITH      220 BLAKENEY RD                         000N        CARE OF             
MTR08534500001000000000000000RA              26008371    005801030000010300000520000003NN  NNW 000                       N    
RDG08534500WATRL000000004K00000000000002141009810202015123037N000000000000N21       000060400K 10000000010000002136           
CUS0853450000108013940005         STRASNICK MICHELLE J222 BLAKENEY RD                         000N        CARE OF             
MTR08534500001000000000000000RA              26008540    005801040000010400000520000003NN  NNW 000                       N    
RDG08534500WATRL000000004K00000000000002531009910202015123135N000000000000N21       000580400K 10000000010000002523           
CUS0853450000108013941003         BRIGIT M MOLONY     224 BLAKENEY RD                         000N        CARE OF             
MTR08534500001000000000000000RA              26008539    005801050000010500000520000003NN  NNW 000                       N    
RDG08534500WATRL000000004K00000000000001477010010202015123137N000000000000N21       000020400K 10000000010000001465           
CUS0853450000108013942001         FLETCHER ROSE       226 BLAKENEY RD                         000N        CARE OF             
MTR08534500001000000000000000RA              35109513    005801060000010600000520000003NN  NNW 000                       N    
RDG08534500WATRL000000004K00000000000001370010110202015123211N000000000000N21       000340400K 10000000010000001357           
CUS0853450000108013943009         DAWGS CRIB LLC      228 BLAKENEY RD                         000N        CARE OF             
MTR08534500001000000000000000RA              36688721    005801070000010700000520000003NN  NNW 000                       N    
RDG08534500WATRL000000004K00000000000001822010210202015123214N000000000000N21       000030400K 10000000010000001817           
CUS0853450000108013944007         MABE MITZI          230 BLAKENEY RD                         000N        CARE OF             
MTR08534500001000000000000000RA              36688718    005801080000010800000520000000NN  NNW 000                       N    
RDG08534500WATRL000000004K00000000000001681010310202015123242N000000000000N21       000280400K 10000000010000001674           
CUS0853450000108013945004         JESSICA L/JASON SIME232 BLAKENEY RD                         000N        CARE OF             
MTR08534500001000000000000000RA              35118572    005801090000010900000520000003NN  NNW 000                       N    
RDG08534500WATRL000000004K00000000000002696010410202015123309N000000000000N21       000270400K 10000000010000002685           
CUS0853450000108013946002         REBECCA MICHELLE SOD234 BLAKENEY RD                         000N        CARE OF             
MTR08534500001000000000000000RA              24759429    005801100000011000000520000003NN  NNW 000                       N    
RDG08534500WATRL000000004K00000000000003989010510202015123313N000000000000N21       000040400K 10000000010000003973           
CUS0853450000108013947000         MOLICK RYAN J       236 BLAKENEY RD                         000N        CARE OF             
MTR08534500001000000000000000RA              36688176    005801110000011100000520000003NN  NNW 000                       N    
RDG08534500WATRL000000004K00000000000001516010610202015123344N000000000000N21       000310400K 10000000010000001503           
CUS0853450000108013948008         JUNKER JAMES D,JR   238 BLAKENEY RD                         000N        CARE OF             
MTR08534500001000000000000000RA              19461389    005801120000011200000520000003NN  NNW 000                       N    
RDG08534500WATRL000000004K00000000000006829010710202015123349N000000000000N21       000050400K 10000000010000006804           
CUS0853450000108013949006         ALLEY BARBARA       240 BLAKENEY RD                         000N        CARE OF             
MTR08534500001000000000000000RA              30524354    005801130000011300000520000003NN  NNW 000                       N    
RDG08534500WATRL000000004K00000000000001520010810202015123427N000000000000N21       000380400K 10000000010000001516           
CUS0853450000108013950004         SANDS DONALD L      242 BLAKENEY RD                         000N        CARE OF             
MTR08534500001000000000000000RA              30524357    005801140000011400000520000003NN  NNW 000                       N    
RDG08534500WATRL000000004K00000000000002967010910202015123437N000000000010N21       000100400K 10000000010000002952           
CUS0853450000108013951002         RIVERA VICTORIA A   244 BLAKENEY RD                         000N        CARE OF             
MTR08534500001000000000000000RA              33081161    005801150000011500000520000003NN  NNW 000                       N    
RDG08534500WATRL000000004K00000000000004143011010202015123516N000000000000N21       000390400K 10000000010000004123           
CUS0853450000108013952000         KENNEDY BRENDAN J   246 BLAKENEY RD                         000N        CARE OF             
MTR08534500001000000000000000RA              33081159    005801160000011600000520000003NN  NNW 000                       N    
RDG08534500WATRL000000004K00000000000002689011110202015123524N000000000000N21       000080400K 10000000010000002674           
CUS0853450000108013953008         ROSENBERGER HOLLEY  248 BLAKENEY RD                         000N        CARE OF             
MTR08534500001000000000000000RA              27815942    005801170000011700000520000003NN  NNW 000                       N    
RDG08534500WATRL000000004K00000000000003623011210202015123554N000000000000N21       000300400K 10000000010000003597           
CUS0853450000108013954006         VINCENT PRUNIER     250 BLAKENEY RD                         000N        CARE OF             
MTR08534500001000000000000000RA              27815983    005801180000011800000520000003NN  NNW 000                       N    
RDG08534500WATRL000000004K00000000000002659011310202015123558N000000000000N21       000040400K 10000000010000002645           
CUS0853450000108013955003         FISCHER MARY K      252 BLAKENEY RD                         000N        CARE OF             
MTR08534500001000000000000000RA              24766110    005801190000011900000520000003NN  NNW 000                       N    
RDG08534500WATRL000000004K00000000000002842011410202015123636N000000000000N21       000380400K 10000000010000002831           
CUS0853450000108013956001         CARTER KYLE         254 BLAKENEY RD                         000N        CARE OF             
MTR08534500001000000000000000RA              45376792    005801200000012000000520000003NN  NNW 000                       N    
RDG08534500WATRL000000004K00000000000001686011510202015123638N000000000000N21       000020400K 10000000010000001686           
CUS0853450000108013957009         FIELDS MGMT CORP    256 BLAKENEY RD                         000N        CARE OF             
MTR08534500001000000000000000RA              00129202    005801210000012100000570000000NN  NNW 000                       N    
RDG08534500WATRL000000004K00000000000001498011610202015123718N000000000000N21       000400400K 10000000010000001457           
CUS0853450000108013958007         CRAVERO JO-LYNDA    258 BLAKENEY RD                         000N        CARE OF             
MTR08534500001000000000000000RA              24768707    005801220000012200000520000003NN  NNW 000                       N    
RDG08534500WATRL000000004K00000000000002628011710312015091249O000000000010N80       000330400K 10000000010000002625           
CUS0853450000108013959005         JONSSON AGUST       260 BLAKENEY RD                         000N        CARE OF             
MTR08534500001000000000000000RA              00129203    005801230000012300000570000003NN  NNW 000                       N    
RDG08534500WATRL000000004K00000000000001038011810312015091309O000400000010N80       000110400K 10000000010000001023           
CUS0853450000108013960003         GAJEWSKI IZABELA A  262 BLAKENEY RD                         000N        CARE OF             
MTR08534500001000000000000000RA              24765135    005801240000012400000520000003NN  NNW 000                       N    
RDG08534500WATRL000000004K00000000000002812011910312015091337O000400000010N80       000390400K 10000000010000002799           
CUS0853450000108013961001         MCMANUS JOSEPH J    264 BLAKENEY RD                         000N        CARE OF             
MTR08534500001000000000000000RA              30517382    005801250000012500000520000003NN  NNW 000                       N    
RDG08534500WATRL000000004K00000000000003707012010202015123846N000000000000N21       000050400K 10000000010000003693           
CUS0853450000108013962009         LAYTON TIMOTHY W    266 BLAKENEY RD                         000N        CARE OF             
MTR08534500001000000000000000RA              31580451    005801260000012600000520000003NN  NNW 000                       N    
RDG08534500WATRL000000004K00000000000002588012110202015123908N000000000000N21       000220400K 10000000010000002565           
CUS0853450000108013963007         HETT ELLWOOD        268 BLAKENEY RD                         000N        CARE OF             
MTR08534500001000000000000000RA              36689528    005801270000012700000520000003NN  NNW 000                       N    
RDG08534500WATRL000000004K00000000000002681012210202015123914N000000000010N21       000060400K 10000000010000002670           
CUS0853450000108013964005         SANCHEZ DEBORAH Y   270 BLAKENEY RD                         000N        CARE OF             
MTR08534500001000000000000000RA              52289938    005801280000012800000520000003NN  NNW 000                       N    
RDG08534500WATRL000000004K00000000000000780012310202015123937N000000000000N21       000230400K 10000000010000000776           
CUS0853450000108013965002         WILLIAMS DEREK C    272 BLAKENEY RD                         000N        CARE OF             
MTR08534500001000000000000000RA              46881003    005801290000012900000520000003NN  NNW 000                       N    
RDG08534500WATRL000000004K00000000000001228012410202015124116N000400000010N21       000990400K 10000000010000001219           
CUS0853450000108013966000         ALFORD ANGELA J     274 BLAKENEY RD                         000N        CARE OF             
MTR08534500001000000000000000RA              46880952    005801300000013000000520000003NN  NNW 000                       N    
RDG08534500WATRL000000004K00000000000001740012510202015124118N000000000000N21       000020400K 10000000010000001721           
CUS0853450000108013967008         ALLEN JOSEPH J,JR   276 BLAKENEY RD                         000N        CARE OF             
MTR08534500001000000000000000RA              00129201    005801310000013100000570000003NN  NNW 000                       N    
RDG08534500WATRL000000004K00000000000001616012610202015124157N000000000000N21       000390400K 10000000010000001589           
CUS0853450000108013968006         PATEL MINESH N      278 BLAKENEY RD                         000N        CARE OF             
MTR08534500001000000000000000RA              01114040    005801320000013200000610000003NN  NNW 000                       N    
RDG08534500WATRL000000004K00000000000000992012710202015124207N000000000010N21       000100400K 10000000010000000974           
CUS0853450000108013969004         KNAPP KEVIN R       280 BLAKENEY RD                         000N        CARE OF             
MTR08534500001000000000000000RA              36688122    005801330000013300000520000003NN  NNW 000                       N    
RDG08534500WATRL000000004K00000000000002604012810202015124239N000000000000N21       000320400K 10000000010000002582           
CUS0853450000108013970002         HALL JEFFREY A      282 BLAKENEY RD                         000N        CARE OF             
MTR08534500001000000000000000RA              36688085    005801340000013400000520000003NN  NNW 000                       N    
RDG08534500WATRL000000004K00000000000004497012910202015124244N000000000000N21       000050400K 10000000010000004478           
CUS0853450000108013971000         DAMON HUNT          247 BLAKENEY RD                         000N        CARE OF             
MTR08534500001000000000000000RA              00140265    005801350000013500000570000003NN  NNW 000                       N    
RDG08534500WATRL000000004K00000000000001796018910202015131438N000000000000N21       002000400K 10000000010000001768           
CUS0853450000108013972008         ADVANCED PROPERTY MG245 BLAKENEY RD                         000N        CARE OF             
MTR08534500001000000000000000RA              00140223    005801360000013600000570000003NN  NNW 000                       N    
RDG08534500WATRL000000004K00000000000001375019010202015131446N000000000000N21       000080400K 10000000010000001364           
CUS0853450000108013973006         MARGEL ADELE LOIS   243 BLAKENEY RD                         000N        CARE OF             
MTR08534500001000000000000000RA              23644294    005801370000013700000520000003NN  NNW 000                       N    
RDG08534500WATRL000000004K00000000000002422019110202015131521N000000000000N21       000350400K 10000000010000002410           
CUS0853450000108013974004         SARAH TRAORE        241 BLAKENEY RD                         000N        CARE OF             
MTR08534500001000000000000000RA              48594992    005801380000013800000520000003NN  NNW 000                       N    
RDG08534500WATRL000000004K00000000000001373019210202015131526N000000000000N21       000050400K 10000000010000001352           
CUS0853450000108013975001         DEPONAI JAMES J     239 BLAKENEY RD                         000N        CARE OF             
MTR08534500001000000000000000RA              29682642    005801390000013900000520000003NN  NNW 000                       N    
RDG08534500WATRL000000004K00000000000004584019310202015131553N000000000000N21       000270400K 10000000010000004563           
CUS0853450000108013976009         MILLER CECIL C      237 BLAKENEY RD                         000N        CARE OF             
MTR08534500001000000000000000RA              35109517    005801400000014000000520000003NN  NNW 000                       N    
RDG08534500WATRL000000004K00000000000002892019410202015131625N000000000000N21       000320400K 10000000010000002879           
CUS0853450000108013977007         WIRTH GREGORY E     235 BLAKENEY RD                         000N        CARE OF             
MTR08534500001000000000000000RA              10024082    005801410000014100000570000003NN  NNW 000                       N    
RDG08534500WATRL000000004K00000000000000182019510202015131656N000000000000N21       000310400K 10000000010000000171           
CUS0853450000108013978005         WALTERS DONALD D    233 BLAKENEY RD                         000N        CARE OF             
MTR08534500001000000000000000RA              00129206    005801420000014200000570000003NN  NNW 000                       N    
RDG08534500WATRL000000004K00000000000002044019610202015131700N000000000000N21       000040400K 10000000010000002033           
CUS0853450000108013979003         SHANE STERRY        231 BLAKENEY RD                         000N        CARE OF             
MTR08534500001000000000000000RA              00129204    005801430000014300000570000003NN  NNW 000                       N    
RDG08534500WATRL000000004K00000000000000979019710202015131726N000000000000N21       000260400K 10000000010000000974           
CUS0853450000108013980001         FRANK J. REMESCH    229 BLAKENEY RD                         000N        CARE OF             
MTR08534500001000000000000000RA              00130614    005801440000014400000570000003NN  NNW 000                       N    
RDG08534500WATRL000000004K00000000000001440019810202015131729N000000000000N21       000030400K 10000000010000001426           
CUS0853450000108013981009         MACLELLAN MARK M    227 BLAKENEY RD                         000N        CARE OF             
MTR08534500001000000000000000RA              36688119    005801450000014500000520000003NN  NNW 000                       N    
RDG08534500WATRL000000004K00000000000002839019910202015131840N000000000000N21       000710400K 10000000010000002830           
CUS0853450000108013982007         KOLDEWEY ZAN L      225 BLAKENEY RD                         000N        CARE OF             
MTR08534500001000000000000000RA              24773686    005801460000014600000520000003NN  NNW 000                       N    
RDG08534500WATRL000000004K00000000000000167020010202015131912N000000000000N21       000320400K 10000000010000000158           
CUS0853450000108013983005         EVANS WILLIAM B     223 BLAKENEY RD                         000N        CARE OF             
MTR08534500001000000000000000RA              26000405    005801470000014700000520000003NN  NNW 000                       N    
RDG08534500WATRL000000004K00000000000000111020110202015131915N000000000000N21       000030400K 10000000010000000102           
CUS0853450000108013984003         NUGENT JANET S,TRUST221 BLAKENEY RD                         000N        CARE OF             
MTR08534500001000000000000000RA              35118577    005801480000014800000520000003NN  NNW 000                       N    
RDG08534500WATRL000000004K00000000000001443020210202015132030N000000000000N21       000750400K 10000000010000001437           
CUS0853450000108013985000         MATTHEW D CHRISTIAN 219 BLAKENEY RD                         000N        CARE OF             
MTR08534500001000000000000000RA              36687809    005801490000014900000520000003NN  NNW 000                       N    
RDG08534500WATRL000000004K00000000000002882020310202015132034N000000000000N21       000040400K 10000000010000002864           
CUS0853450000108013986008         CHESSER TOMMY       26 DARROW DR                            000N        CARE OF             
MTR08534500001000000000000000RA              46879414    005801500000015000000520000003NN  NNW 000                       N    
RDG08534500WATRL000000004K00000000000001758017010202015130328N000000000000N21       000430400K 10000000010000001745           
CUS0853450000108013987006         GARY MICHAEL C      28 DARROW DR                            000N        CARE OF             
MTR08534500001000000000000000RA              46879390    005801510000015100000520000003NN  NNW 000                       N    
RDG08534500WATRL000000004K00000000000001397017110202015130331N000000000000N21       000030400K 10000000010000001386           
CUS0853450000108013988004         MOHLER MICHAEL      30 DARROW DR                            000N        CARE OF             
MTR08534500001000000000000000RA              00130612    005801520000015200000570000003NN  NNW 000                       N    
RDG08534500WATRL000000004K00000000000002527017210202015130411N000000000000N21       000400400K 10000000010000002493           
CUS0853450000108013989002         GAITHER RONALD T    32 DARROW DR                            000N        CARE OF             
MTR08534500001000000000000000RA              00130613    005801530000015300000570000000NN  NNW 000                       N    
RDG08534500WATRL000000004K00000000000001423017310202015130418N000000000000N21       000070400K 10000000010000001398           
CUS0853450000108013990000         LYTWYNEC STEVEN D   34 DARROW DR                            000N        CARE OF             
MTR08534500001000000000000000RA              29083816    005801540000015400000520000003NN  NNW 000                       N    
RDG08534500WATRL000000004K00000000000002344017410202015130501N000400000010N21       000430400K 10000000010000002338           
CUS0853450000108013991008         MEGAN MIDDLETON     36 DARROW DR                            000N        CARE OF             
MTR08534500001000000000000000RA              29083940    005801550000015500000520000003NN  NNW 000                       N    
RDG08534500WATRL000000004K00000000000002380017510202015130505N000000000000N21       000040400K 10000000010000002358           
CUS0853450000108013992006         HILTON MICHAEL      38 DARROW DR                            000N        CARE OF             
MTR08534500001000000000000000RA              33081273    005801560000015600000520000003NN  NNW 000                       N    
RDG08534500WATRL000000004K00000000000002082017610202015130555N000000000000N21       000500400K 10000000010000002074           
CUS0853450000108013993004         SKIRVEN MICHAEL A   40 DARROW DR                            000N        CARE OF             
MTR08534500001000000000000000RA              33081163    005801570000015700000520000003NN  NNW 000                       N    
RDG08534500WATRL000000004K00000000000002183017710202015130602N000000000000N21       000070400K 10000000010000002170           
CUS0853450000108013994002         PARKS CHARLES E     41 DARROW DR                            000N        CARE OF             
MTR08534500001000000000000000RA              19461526    005801580000015800000520000003NN  NNW 000                       N    
RDG08534500WATRL000000004K00000000000002718016210202015130037N000300000010N21       000930400K 10000000010000002720           
CUS0853450000108013995009         MASSELLA RALPH A    39 DARROW DR                            000N        CARE OF             
MTR08534500001000000000000000RA              00130615    005801590000015900000570000003NN  NNW 000                       N    
RDG08534500WATRL000000004K00000000000001516016310202015130040N000000000000N21       000030400K 10000000010000001496           
CUS0853450000108013996007         BRUSHE BRIAN P      37 DARROW DR                            000N        CARE OF             
MTR08534500001000000000000000RA              29685337    005801600000016000000520000003NN  NNW 000                       N    
RDG08534500WATRL000000004K00000000000003055016410202015130110N000000000000N21       000300400K 10000000010000003039           
CUS0853450000108013997005         SULLIVAN KATHRYN M  35 DARROW DR                            000N        CARE OF             
MTR08534500001000000000000000RA              29684988    005801610000016100000520000003NN  NNW 000                       N    
RDG08534500WATRL000000004K00000000000003397016510202015130113N000000000000N21       000030400K 10000000010000003385           
CUS0853450000108013998003         GRAVES CHRISTINE R  33 DARROW DR                            000N        CARE OF             
MTR08534500001000000000000000RA              52770766    005801620000016200000520000003NN  NNW 000                       N    
RDG08534500WATRL000000004K00000000000000379016610202015130200N000000000000N21       000470400K 10000000010000000371           
CUS0853450000108013999001         BROFMAN, MARGARET H 31 DARROW DR                            000N        CARE OF             
MTR08534500001000000000000000RA              00130611    005801630000016300000570000003NN  NNW 000                       N    
RDG08534500WATRL000000004K00000000000000665016710202015130202N000000000000N21       000020400K 10000000010000000660           
CUS0853450000108014000007         LOPATA CYNTHIA M    29 DARROW DR                            000N        CARE OF             
MTR08534500001000000000000000RA              41082143    005801640000016400000520000003NN  NNW 000                       N    
RDG08534500WATRL000000004K00000000000000922016810202015130238N000000000000N21       000360400K 10000000010000000915           
CUS0853450000108014001005         GALLAGHER KELLY F   27 DARROW DR                            000N        CARE OF             
MTR08534500001000000000000000RA              41082138    005801650000016500000520000003NN  NNW 000                       N    
RDG08534500WATRL000000004K00000000000002721016910202015130245N000400000010N21       000070400K 10000000010000002708           
CUS0853450000108014002003         BUCKLEY SEAN V      209 BLAKENEY RD                         000N        CARE OF             
MTR08534500001000000000000000RA              35118539    005801660000016600000520000003NN  NNW 000                       N    
RDG08534500WATRL000000004K00000000000000009020410202015132159N000000000000N21       000850400K 10000000010000000009           
CUS0853450000108014003001         RINK SHAWN          207 BLAKENEY RD                         000N        CARE OF             
MTR08534500001000000000000000RA              36688537    005801670000016700000520000003NN  NNW 000                       N    
RDG08534500WATRL000000004K00000000000001979020510202015132212N000000000000N21       000130400K 10000000010000001963           
CUS0853450000108014004009         STURM RYAN D        205 BLAKENEY RD                         000N        CARE OF             
MTR08534500001000000000000000RA              26013081    005801680000016800000520000003NN  NNW 000                       N    
RDG08534500WATRL000000004K00000000000003704020610202015132245N000000000000N21       000330400K 10000000010000003694           
CUS0853450000108014138005         BECCIO VICTOR       16 SHADY NOOK AVE                       000N        CARE OF             
MTR08534500001000000000000000RA              23841184    005801690000016900000520000003NN  NNW 000                       N    
RDG08534500WATRL000000004K00000000000003220020710202015132509N000000000000N21       001440400K 10000000010000003203           
CUS0853450000108014139003         TABLER RALPH S      18 SHADY NOOK AVE                       000N        CARE OF             
MTR08534500001000000000000000RA              33081160    005801700000017000000520000003NN  NNW 000                       N    
RDG08534500WATRL000000004K00000000000003384020810202015132512N000000000000N21       000030400K 10000000010000003365           
CUS0853450000108014140001         HERR THOMAS G       20 SHADY NOOK AVE                       000N        CARE OF             
MTR08534500001000000000000000RA              44172242    005801710000017100000520000003NN  NNW 000                       N    
RDG08534500WATRL000000004K00000000000002259020910202015132558N000000000000N21       000460400K 10000000010000002248           
CUS0853450000108014141009         GRANGER LAURIE A    22 SHADY NOOK AVE                       000N        CARE OF             
MTR08534500001000000000000000RA              44172241    005801720000017200000520000003NN  NNW 000                       N    
RDG08534500WATRL000000004K00000000000002835021010202015132601N000000000000N21       000030400K 10000000010000002826           
CUS0853450000108014142007         MAJOR MICHAEL E     24 SHADY NOOK AVE                       000N        CARE OF             
MTR08534500001000000000000000RA              00130538    005801730000017300000570000003NN  NNW 000                       N    
RDG08534500WATRL000000004K00000000000002107021110202015132636N000000000010N21       000350400K 10000000010000002095           
CUS0853450000108014143005         THEATRE HOMES LLC   26 SHADY NOOK AVE                       000N        CARE OF             
MTR08534500001000000000000000RA              14917954    005801740000017400000310000003NN  NNW 000                       N    
RDG08534500WATRL000000004K00000000000000742021210202015132641N000000000000N21       000050400K 10000000010000000712           
CUS0853450000108014144003         LUND DANIEL H       28 SHADY NOOK AVE                       000N        CARE OF             
MTR08534500001000000000000000RA              27820018    005801750000017500000520000003NN  NNW 000                       N    
RDG08534500WATRL000000004K00000000000003990021310312015091407O000000000020N80       000540400K 10000000010000003979           
CUS0853450000108014145000         JONE-FREDERICK BARBA30 SHADY NOOK AVE                       000N        CARE OF             
MTR08534500001000000000000000RA              27820019    005801760000017600000520000003NN  NNW 000                       N    
RDG08534500WATRL000000004K00000000000002398021410202015132739N000000000000N21       000040400K 10000000010000002381           
CUS0853450000108014146008         FREELAND-ADEOYE HOPE32 SHADY NOOK AVE                       000N        CARE OF             
MTR08534500001000000000000000RA              44091327    005801770000017700000520000003NN  NNW 000                       N    
RDG08534500WATRL000000004K00000000000002184021510202015132844N000000000000N21       000650400K 10000000010000002180           
CUS0853450000108014147006         KATHLEEN L KLEIN    34 SHADY NOOK AVE                       000N        CARE OF             
MTR08534500001000000000000000RA              44091368    005801780000017800000520000003NN  NNW 000                       N    
RDG08534500WATRL000000004K00000000000001732021610202015132847N000000000000N21       000030400K 10000000010000001719           
CUS0853450000108014148004         MCELDERRY BARBARA J 36 SHADY NOOK AVE                       000N        CARE OF             
MTR08534500001000000000000000RA              01084029    005801790000017900000610000003NN  NNW 000                       N    
RDG08534500WATRL000000004K00000000000000911021710202015132920N000000000000N21       000330400K 10000000010000000888           
CUS0853450000108014149002         JOHNSTON CHARLES J  38 SHADY NOOK AVE                       000N        CARE OF             
MTR08534500001000000000000000RA              44091311    005801800000018000000520000003NN  NNW 000                       N    
RDG08534500WATRL000000004K00000000000002509021810202015132922N000000000000N21       000020400K 10000000010000002494           
CUS0853450000108014150000         JUSTIN YOST         40 SHADY NOOK AVE                       000N        CARE OF             
MTR08534500001000000000000000RA              31587313    005801810000018100000520000003NN  NNW 000                       N    
RDG08534500WATRL000000004K00000000000002361021910202015132955N000000000010N21       000330400K 10000000010000002353           
CUS0853450000108014151008         CUNNINGHAM          42 SHADY NOOK AVE                       000N        CARE OF             
MTR08534500001000000000000000RA              31587381    005801820000018200000520000003NN  NNW 000                       N    
RDG08534500WATRL000000004K00000000000001876022010202015133003N000300000010N21       000080400K 10000000010000001864           
CUS0853450000108014152006         DAVIS EDWARD S      200 ALTAMONT AVE                        000N        CARE OF             
MTR08534500001000000000000000RA              32771991    005801830000018300000520000003NN  NNW 000                       N    
RDG08534500WATRL000000004K00000000000003126015410202015125613N000000000000N21       001030400K 10000000010000003107           
CUS0853450000108014153004         SPRANKLE DENISE M   202 ALTAMONT AVE                        000N        CARE OF             
MTR08534500001000000000000000RA              29084947    005801840000018400000520000000NN  NNW 000                       N    
RDG08534500WATRL000000004K00000000000002016015510202015125617N000003300000N21       000040400K 10000000010000002006           
CUS0853450000108014154002         GULLARD CHARLES RAND204 ALTAMONT AVE                        000N        CARE OF             
MTR08534500001000000000000000RA              24768703    005801850000018500000520000003NN  NNW 000                       N    
RDG08534500WATRL000000004K00000000000004038015610202015125724N000000000000N21       000670400K 10000000010000004025           
CUS0853450000108014155009         DURHAM ALVERNA R,JR 206 ALTAMONT AVE                        000N        CARE OF             
MTR08534500001000000000000000RA              36688187    005801860000018600000520000003NN  NNW 000                       N    
RDG08534500WATRL000000004K00000000000002457015710202015125732N000000000000N21       000080400K 10000000010000002441           
CUS0853450000108014156007         FITZPATRICK JOHN R  208 ALTAMONT AVE                        000N        CARE OF             
MTR08534500001000000000000000RA              36688319    005801870000018700000520000003NN  NNW 000                       N    
RDG08534500WATRL000000004K00000000000002298015810202015125820N000000000010N21       000480400K 10000000010000002281           
CUS0853450000108014157005         SCOTLAND ERROL      210 ALTAMONT AVE                        000N        CARE OF             
MTR08534500001000000000000000RA              36688184    005801880000018800000520000003NN  NNW 000                       N    
RDG08534500WATRL000000004K00000000000005749015910202015125831N000400000010N21       000110400K 10000000010000005734           
CUS0853450000108014158003         ZOOK CHRISTINE G    212 ALTAMONT AVE                        000N        CARE OF             
MTR08534500001000000000000000RA              35118566    005801890000018900000520000003NN  NNW 000                       N    
RDG08534500WATRL000000004K00000000000003050016010202015125900N000000000000N21       000290400K 10000000010000003040           
CUS0853450000108014159001         BARKLEY RYAN PAUL   214 ALTAMONT AVE                        000N        CARE OF             
MTR08534500001000000000000000RA              36688315    005801900000019000000520000003NN  NNW 000                       N    
RDG08534500WATRL000000004K00000000000002102016110202015125904N000000000000N21       000040400K 10000000010000002087           
CUS0853450000108014160009         LAUREN GARRISON     216 ALTAMONT AVE                        000N        CARE OF             
MTR08534500001000000000000000RA              36688123    005801910000019100000520000003NN  NNW 000                       N    
RDG08534500WATRL000000004K00000000000001648017810202015130811N000000000000N21       001290400K 10000000010000001638           
CUS0853450000108014161007         BRADY JOHN E,JR     218 ALTAMONT AVE                        000N        CARE OF             
MTR08534500001000000000000000RA              36688116    005801920000019200000520000003NN  NNW 000                       N    
RDG08534500WATRL000000004K00000000000002307017910202015130818N000000000000N21       000070400K 10000000010000002301           
CUS0853450000108014162005         GRIFFITH RYAN E     220 ALTAMONT AVE                        000N        CARE OF             
MTR08534500001000000000000000RA              36688125    005801930000019300000520000003NN  NNW 000                       N    
RDG08534500WATRL000000004K00000000000001682018010202015130853N000000000000N21       000350400K 10000000010000001681           
CUS0853450000108014163003         STEPHEN HOOK        222 ALTAMONT AVE                        000N        CARE OF             
MTR08534500001000000000000000RA              24232972    005801940000019400000520000003NN  NNW 000                       N    
RDG08534500WATRL000000004K00000000000000009018110202015130856N000000000000N21       000030400K 10000000010000000007           
CUS0853450000108014164001         BLAIR F MICHAEL     224 ALTAMONT AVE                        000N        CARE OF             
MTR08534500001000000000000000RA              35102949    005801950000019500000520000003NN  NNW 000                       N    
RDG08534500WATRL000000004K00000000000002307018210202015130924N000000000000N21       000280400K 10000000010000002293           
CUS0853450000108014165008         SCHAECH DANIEL J,3RD226 ALTAMONT AVE                        000N        CARE OF             
MTR08534500001000000000000000RA              29403786    005801960000019600000520000003NN  NNW 000                       N    
RDG08534500WATRL000000004K00000000000005203018310202015130930N000000000000N21       000060400K 10000000010000005185           
CUS0853450000108014166006         DELANEY ANNE THERESA228 ALTAMONT AVE                        000N        CARE OF             
MTR08534500001000000000000000RA              23644581    005801970000019700000520000003NN  NNW 000                       N    
RDG08534500WATRL000000004K00000000000004727018410202015131007N000000000000N21       000370400K 10000000010000004718           
CUS0853450000108014167004         BURNER JOHN F,JR    230 ALTAMONT AVE                        000N        CARE OF             
MTR08534500001000000000000000RA              36688124    005801980000019800000520000003NN  NNW 000                       N    
RDG08534500WATRL000000004K00000000000003077018510202015131010N000000000000N21       000030400K 10000000010000003065           
CUS0853450000108014168002         CHARLES COOK G 2ND  232 ALTAMONT AVE                        000N        CARE OF             
MTR08534500001000000000000000RA              46876782    005801990000019900000520000003NN  NNW 000                       N    
RDG08534500WATRL000000004K00000000000001604018610202015131038N000000000000N21       000280400K 10000000010000001598           
CUS0853450000108014169000         THOMPSON MARY ANNE  234 ALTAMONT AVE                        000N        CARE OF             
MTR08534500001000000000000000RA              23053952    005802000000020000000520000003NN  NNW 000                       N    
RDG08534500WATRL000000004K00000000000003689018710202015131046N000000000000N21       000080400K 10000000010000003681           
CUS0853450000108014170008         BRUCHEY LESTER A/JAN236 ALTAMONT AVE                        000N        CARE OF             
MTR08534500001000000000000000RA              27817754    005802010000020100000520000003NN  NNW 000                       N    
RDG08534500WATRL000000004K00000000000002463018810202015131118N000000000000N21       000320400K 10000000010000002443           
CUS0853450000108014171006         WRIGHT ERNEST W     247 ALTAMONT AVE                        000N        CARE OF             
MTR08534500001000000000000000RA              35109558    005802020000020200000520000003NN  NNW 000                       N    
RDG08534500WATRL000000004K00000000000003955013010202015124506N000000000000N21       001420400K 10000000010000003939           
CUS0853450000108014172004         SCHOOLS SCOTT TEE   245 ALTAMONT AVE                        000N        CARE OF             
MTR08534500001000000000000000RA              35109557    005802030000020300000520000003NN  NNW 000                       N    
RDG08534500WATRL000000004K00000000000003292013110202015124512N000000000000N21       000060400K 10000000010000003273           
CUS0853450000108014173002         MERENBLOOM STUART M 243 ALTAMONT AVE                        000N        CARE OF             
MTR08534500001000000000000000RA              36688129    005802040000020400000520000003NN  NNW 000                       N    
RDG08534500WATRL000000004K00000000000003458013210202015124545N000000000000N21       000330400K 10000000010000003432           
CUS0853450000108014174000         GRIMES RUTH ANNE    241 ALTAMONT AVE                        000N        CARE OF             
MTR08534500001000000000000000RA              36688080    005802050000020500000520000003NN  NNW 000                       N    
RDG08534500WATRL000000004K00000000000002703013310202015124548N000000000000N21       000030400K 10000000010000002690           
CUS0853450000108014175007         BAUHOF BEVERLY A    239 ALTAMONT AVE                        000N        CARE OF             
MTR08534500001000000000000000RA              36688081    005802060000020600000520000003NN  NNW 000                       N    
RDG08534500WATRL000000004K00000000000002888013410202015124659N000000000010N21       000710400K 10000000010000002877           
CUS0853450000108014176005         JACKSON KATHLEEN A  237 ALTAMONT AVE                        000N        CARE OF             
MTR08534500001000000000000000RA              36688084    005802070000020700000520000003NN  NNW 000                       N    
RDG08534500WATRL000000004K00000000000002325013510202015124702N000000000000N21       000030400K 10000000010000002318           
CUS0853450000108014177003         EVANS ROBERT F      235 ALTAMONT AVE                        000N        CARE OF             
MTR08534500001000000000000000RA              32902574    005802080000020800000520000003NN  NNW 000                       N    
RDG08534500WATRL000000004K00000000000002737013610202015124744N000000000000N21       000420400K 10000000010000002721           
CUS0853450000108014178001         BALDYGA PHILIP H    233 ALTAMONT AVE                        000N        CARE OF             
MTR08534500001000000000000000RA              46876783    005802090000020900000520000003NN  NNW 000                       N    
RDG08534500WATRL000000004K00000000000000821013710202015124749N000000000000N21       000050400K 10000000010000000811           
CUS0853450000108014179009         STROUSE MATTHEW JOSE231 ALTAMONT AVE                        000N        CARE OF             
MTR08534500001000000000000000RA              25781260    005802100000021000000520000003NN  NNW 000                       N    
RDG08534500WATRL000000004K00000000000003200013810202015124826N000000000000N21       000370400K 10000000010000003180           
CUS0853450000108014180007         STONE PATRICK H     229 ALTAMONT AVE                        000N        CARE OF             
MTR08534500001000000000000000RA              25781337    005802110000021100000520000003NN  NNW 000                       N    
RDG08534500WATRL000000004K00000000000002587013910202015124830N000000000000N21       000040400K 10000000010000002576           
CUS0853450000108014181005         JACK INVESTMENTS LLC227 ALTAMONT AVE                        000N        CARE OF             
MTR08534500001000000000000000RA              36688117    005802120000021200000520000003NN  NNW 000                       N    
RDG08534500WATRL000000004K00000000000001343014010202015124902N000000000000N21       000320400K 10000000010000001340           
CUS0853450000108014182003         HARGIS CYNTHIA ELAIN225 ALTAMONT AVE                        000N        CARE OF             
MTR08534500001000000000000000RA              36688118    005802130000021300000520000003NN  NNW 000                       N    
RDG08534500WATRL000000004K00000000000003009014110202015124907N000000000000N21       000050400K 10000000010000002990           
CUS0853450000108014183001         CAROLYN G. ROETH    223 ALTAMONT AVE                        000N        CARE OF             
MTR08534500001000000000000000RA              23051183    005802140000021400000520000003NN  NNW 000                       N    
RDG08534500WATRL000000004K00000000000004312014210202015124942N000000000000N21       000350400K 10000000010000004301           
CUS0853450000108014184009         SALAZAR AUDREY DELEM221 ALTAMONT AVE                        000N        CARE OF             
MTR08534500001000000000000000RA              36688083    005802150000021500000520000003NN  NNW 000                       N    
RDG08534500WATRL000000004K00000000000002779014310202015124946N000000000000N21       000040400K 10000000010000002760           
CUS0853450000108014185006         JOHN A FILIPIAK 2   219 ALTAMONT AVE                        000N        CARE OF             
MTR08534500001000000000000000RA              35118531    005802160000021600000520000003NN  NNW 000                       N    
RDG08534500WATRL000000004K00000000000001887014410202015125014N000000000000N21       000280400K 10000000010000001878           
CUS0853450000108014186004         BURGOYNE KIMBERLY A 217 ALTAMONT AVE                        000N        CARE OF             
MTR08534500001000000000000000RA              35118538    005802170000021700000520000003NN  NNW 000                       N    
RDG08534500WATRL000000004K00000000000002804014510202015125016N000000000000N21       000020400K 10000000010000002784           
CUS0853450000108014187002         BRECHBIEL ALBERT L  215 ALTAMONT AVE                        000N        CARE OF             
MTR08534500001000000000000000RA              36688317    005802180000021800000520000003NN  NNW 000                       N    
RDG08534500WATRL000000004K00000000000002432014610312015091433O000000000010N80       000340400K 10000000010000002427           
CUS0853450000108014188000         JARED HESS          213 ALTAMONT AVE                        000N        CARE OF             
MTR08534500001000000000000000RA              36688314    005802190000021900000520000003NN  NNW 000                       N    
RDG08534500WATRL000000004K00000000000002190014710202015125057N000000000000N21       000070400K 10000000010000002185           
CUS0853450000108014189008         HORST E CARL        211 ALTAMONT AVE                        000N        CARE OF             
MTR08534500001000000000000000RA              36688318    005802200000022000000520000003NN  NNW 000                       N    
RDG08534500WATRL000000004K00000000000002398014810202015125139N000000000000N21       000420400K 10000000010000002382           
CUS0853450000108014190006         PHILIP F TAYLOR JR. 209 ALTAMONT AVE                        000N        CARE OF             
MTR08534500001000000000000000RA              36688316    005802210000022100000520000003NN  NNW 000                       N    
RDG08534500WATRL000000004K00000000000002211014910202015125145N000100000010N21       000060400K 10000000010000002211           
CUS0853450000108014191004         MACHIN DOUGLAS E,JR 207 ALTAMONT AVE                        000N        CARE OF             
MTR08534500001000000000000000RA              36688186    005802220000022200000520000003NN  NNW 000                       N    
RDG08534500WATRL000000004K00000000000001900015010202015125221N000000000000N21       000360400K 10000000010000001885           
CUS0853450000108014192002         COOPER DAVID        205 ALTAMONT AVE                        000N        CARE OF             
MTR08534500001000000000000000RA              36688185    005802230000022300000520000003NN  NNW 000                       N    
RDG08534500WATRL000000004K00000000000002893015110202015125229N000000000000N21       000080400K 10000000010000002878           
CUS0853450000108014193000         FOSTER BOYD F,JR    203 ALTAMONT AVE                        000N        CARE OF             
MTR08534500001000000000000000RA              20767793    005802240000022400000520000003NN  NNW 000                       N    
RDG08534500WATRL000000004K00000000000004004015210202015125310N000000000000N21       000410400K 10000000010000003994           
CUS0853450000108014194008         PRUNIER VINCENT     201 ALTAMONT AVE                        000N        CARE OF             
MTR08534500001000000000000000RA              52289866    005802250000022500000520000003NN  NNW 000                       N    
RDG08534500WATRL000000004K00000000000000948015310202015125430N000000000000N21       000800400K 10000000010000000936           
RTR08534500NN02250225000002250000000002250225000209NY022502250225000500010000000000000000000002    10192015NY020000 N         
RHD08541000NN02610261000002610000000002610261000445NY026102610261000900010000000000000000000002    10142015NY020000 N         
CUS0854100000108144838003         OSWALD WALTER W     1933 FREDERICK RD                       000N        CARE OF             
MTR08541000001000000000000000RA              24768551    005800010000000100000520000003NY  NNW 000                       N    
MTM0854100024768551    SAMEMTRNUM                                                                                             
RDG08541000WATRL000000004K00000000000003022000310262015082126N000000000000N85       000920400K 10000000010000003013           
CUS0854100000108407160004         FISCHER BERNARD DANI1935 FREDERICK RD                       000N        CARE OF             
MTR08541000001000000000000000RA              44173035    005800020000000200000520000003NY  NNW 000                       N    
MTM0854100044173035    MN CORRECT                                                                                             
RDG08541000WATRL000000004K00000000000002623000110262015081915N000000000000N83       000000400K 10000000010000002615           
CUS0854100000108421158000         MARAGOS GARY P      1937 FREDERICK RD                       000N        CARE OF             
MTR08541000001000000000000000RA              01085943    005800030000000300000610000003NY  NNW 000                       N    
MTM0854100001085943    SAMEMTRNUM                                                                                             
RDG08541000WATRL000000004K00000000000000555000210262015081954N000000000000N85       000330400K 10000000010000000543           
CUS0854100000108421157002         VAN HOOSER WILLIAM B1939 FREDERICK RD                       000N        CARE OF             
MTR08541000001000000000000000RA              01084657    005800040000000400000610000003NY  NNW 000                       N    
MTM0854100001084657    SAMEMTRNUM                                                                                             
RDG08541000WATRL000000004K00000000000000948000110262015081921N000000000000N85       000000400K 10000000010000000934           
CUS0854100000108410615002         ONEILL LAWRENCE J   1943 FREDERICK RD                       000N        CARE OF             
MTR08541000001000000000000000RA              43904296    007500050000000500000520000003NN  NNW 000                       N    
RDG08541000WATRL000000004K00000000000000000000000000000000000 000000000000U         000000400  10000000010000002548           
CUS0854100000108144868000         ALTIERI HOMES       101 S HILLTOP RD                        000N        CARE OF             
MTR08541000001000000000000000RA              26001569    005800060000000600000520000003NY  NNW 000                       N    
MTM0854100026001569    YOKE                                                                                                   
RDG08541000WATRL000000004K00000000000000000000210262015082455S002000000000N83       003400400K 10000000010000004489           
CUS0854100000108144840009         PAUL RAY C          3 S HILLTOP RD                          000N        CARE OF             
MTR08541000001000000000000000RA              25780889    005800070000000700000520000003NY  NNW 000                       N    
MTM0854100025780889    SAMEMTRNUM                                                                                             
RDG08541000WATRL000000004K00000000000005601000410262015082719N000000000000N85       003530400K 10000000010000005588           
CUS0854100000108144842005         LALLY GAY           1901 FREDERICK RD                       000N        CARE OF             
MTR08541000001000000000000000RA              46890255    007500080000000800000520000003NY  NNW 000                       N    
MTM0854100046890255    MN CORRECT                                                                                             
RDG08541000WATRL000000004K00000000000001448000310262015083127N000000000000N83       003920400K 10000000010000001431           
CUS0854100000108144843003         CANDLELIGHT REALTY LSS FREDERICK RD OPP                     000N        CARE OF             
MTR08541000001000000000000000RA              23645418    005800090000000900000520000003NN  NNW 000                       N    
RDG08541000WATRL000000004K00000000000000000000000000000000000 000000000000U         000000400  10000000010000000847           
CUS0854100000108144844001         CANDLE LIGHT FUNERAL1835 FREDERICK RD                       000N        CARE OF             
MTR08541000001000000000000000RA              36700296    001500100000001000000520000003NY  NNW 000                       N    
MTM0854100036700296    SAMEMTRNUM                                                                                             
RDG08541000WATRL000000005K00000000000057153000510262015083033N000000000000N85       001940500K 10000000010000057148           
CUS0854100000108144845008         FIVE OAKS SWIMMING P1825 FREDERICK RD                       000N        CARE OF             
MTR08541000001000000000000000RA              99999999    005800110000001100000620000003NN  NNW 000                       N    
RDG08541000WATRL000000004K00000000000000851000610262015083656N000000000000N85       003830400K 10000000010000000772           
CUS0854100000108144846006         STANGER CHRISTINA   1815 FREDERICK RD                       000N        CARE OF             
MTR08541000001000000000000000RA              24759235    005800120000001200000520000003NY  NNW 000                       N    
MTM0854100024759235    SAMEMTRNUM                                                                                             
RDG08541000WATRL000000004K00000000000003593000710262015083905N000000000000N85       001290400K 10000000010000003563           
CUS0854100000108144847004         KALAFOS PAUL B,JR   1813 FREDERICK RD                       000N        CARE OF             
MTR08541000001000000000000000RA              32898294    005800130000001300000520000003NY  NNW 000                       N    
MTM0854100032898294    MN CORRECT                                                                                             
RDG08541000WATRL000000004K00000000000001744000510262015083918N000000000000N83       002340400K 10000000010000001716           
CUS0854100000108144848002         BALTIMORE COUNTY MD.1809 FREDERICK RD                       000N        CARE OF             
MTR08541000001000000000000000RA              46881198    005800140000001400000520000003NY  NNW 000                       N    
MTM0854100046881198    MN CORRECT                                                                                             
RDG08541000WATRL000000004K00000000000004582000610262015084000N000300000010N83       000420400K 10000000010000004577           
CUS0854100000108144849000         HAMNER SAMUEL G,3RD 1807 FREDERICK RD                       000N        CARE OF             
MTR08541000001000000000000000RA              23649082    005800150000001500000520000003NY  NNW 000                       N    
MTM0854100023649082    MN CORRECT                                                                                             
RDG08541000WATRL000000004K00000000000002546000710262015084149N000000000000N83       001090400K 10000000010000002530           
CUS0854100000108144850008         MURRAY FRANCES      1805 FREDERICK RD                       000N        CARE OF             
MTR08541000001000000000000000RA              38985889    005800160000001600000520000003NY  NNW 000                       N    
MTM0854100038985889    SAMEMTRNUM                                                                                             
RDG08541000WATRL000000004K00000000000002996000910262015084156N000000000000N85       000400400K 10000000010000002984           
CUS0854100000108144851006         DANIEL B GERLOWSKI  1803 FREDERICK RD                       000N        CARE OF             
MTR08541000001000000000000000RA              46881568    005800170000001700000520000003NY  NNW 000                       N    
MTM0854100046881568    SAMEMTRNUM                                                                                             
RDG08541000WATRL000000004K00000000000001288000810262015084116N000000000000N85       001310400K 10000000010000001278           
CUS0854100000108144852004         MELISSA L SEWELL    1801 FREDERICK RD                       000N        CARE OF             
MTR08541000001000000000000000RA              00129438    005800180000001800000570000003NN  NNW 000                       N    
RDG08541000WATRL000000004K00000000000001060001010262015084415N000000000000N85       001390400K 10000000010000000998           
CUS0854100000108144853002         RICHARDSON TODD S   2 MAPLE AVE                             000N        CARE OF             
MTR08541000001000000000000000RA              48586695    005800190000001900000520000003NY  NNW 000                       N    
MTM0854100048586695    SAMEMTRNUM                                                                                             
RDG08541000WATRL000000004K00000000000002351001110262015084527N000000000000N85       000720400K 10000000010000002317           
CUS0854100000108144854000         REID ANDREW J       4 MAPLE AVE                             000N        CARE OF             
MTR08541000001000000000000000RA              46881569    005800200000002000000520000003NY  NNW 000                       N    
MTM0854100046881569    SAMEMTRNUM                                                                                             
RDG08541000WATRL000000004K00000000000001282001210262015084610N000000000000N85       000430400K 10000000010000001269           
CUS0854100000108144855007         TACKA ANTHONY J     6 MAPLE AVE                             000N        CARE OF             
MTR08541000001000000000000000RA              36697326    005800210000002100000520000003NY  NNW 000                       N    
MTM0854100036697326    SAMEMTRNUM                                                                                             
RDG08541000WATRL000000004K00000000000002330001310262015084705N000000000000N85       000550400K 10000000010000002293           
CUS0854100000108144856005         TACKA ANTHONY JAMES 8 MAPLE AVE                             000N        CARE OF             
MTR08541000001000000000000000RA              32898519    005800220000002200000520000003NY  NNW 000                       N    
MTM0854100032898519    SAMEMTRNUM                                                                                             
RDG08541000WATRL000000004K00000000000002863001410262015084806N000000000000N85       000610400K 10000000010000002840           
CUS0854100000108144857003         CUNNIFF ALBERT B,JR 10 MAPLE AVE                            000N        CARE OF             
MTR08541000001000000000000000RA              25781664    005800230000002300000520000003NY  NNW 000                       N    
MTM0854100025781664    SAMEMTRNUM                                                                                             
RDG08541000WATRL000000004K00000000000003253001510262015084851N000000000000N85       000450400K 10000000010000003234           
CUS0854100000108144858001         BENNETT KELLY W     12 MAPLE AVE                            000N        CARE OF             
MTR08541000001000000000000000RA              10009461    005800240000002400000570000003NY  NNW 000                       N    
MTM0854100010009461    SAMEMTRNUM                                                                                             
RDG08541000WATRL000000004K00000000000001842001610262015085246N000000000000N85       002350400K 10000000010000001698           
CUS0854100000108431604001         MOSBERG ROBERT L,3RD12A MAPLE AVE                           000N        CARE OF             
MTR08541000001000000000000000RA              01083697    005800250000002500000610000003NY  NNW 000                       N    
MTM0854100001083697    SAMEMTRNUM                                                                                             
RDG08541000WATRL000000004K00000000000001226001710262015085333N000000000000N85       000470400K 10000000010000001196           
CUS0854100000108376126002         MOSBERG JENNIFER LYN12-B MAPLE AVE                          000N        CARE OF             
MTR08541000001000000000000000RA              14907368    005800260000002600000310000003NY  NNW 000                       N    
MTM0854100014907368    SAMEMTRNUM                                                                                             
