FHDNNNN016004120004120004120N                                                                                           013206
RHD04800700NN02000200000002000000000002000200000312NY020002000200000000000000000000000000000001    10262015NY020000 N         
CUS0480070000104061017002         ALLEN AND SONS TREE 7801 HARFORD RD                         000N        CARE OF             
MTR04800700001000000000000000RA              76345991    005800010000000100000350000003NN  NNW 000                       N    
RDG04800700WATRL000000004K00000000000000020000110282015092050N000000000001N27       008570400K 10000000010000000010           
CUS0480070000104061018000         MILLER JOST         3001 LAVENDER AVE                       000N        CARE OF             
MTR04800700001000000000000000RA              52768088    005800020000000200000520000003NN  NNW 000                       N    
RDG04800700WATRL000000004K00000000000001944000210282015092846N000000000000N27       004760400K 10000000010000001922           
CUS0480070000104061019008         MASON JENNIFER E    3003 LAVENDER AVE                       000N        CARE OF             
MTR04800700001000000000000000RA              23841353    005800030000000300000520000003NY  NNW 000                       N    
MTM0480070023841353    WATER                                                                                                  
RDG04800700WATRL000000004K00000000000003471000110292015133127N000000000034U27       000080400K 10000000010000003441           
CUS0480070000104061020006         ALAI MARK EDWARD    3005 LAVENDER AVE                       000N        CARE OF             
MTR04800700001000000000000000RA              10009043    005800040000000400000570000003NN  NNW 000                       N    
RDG04800700WATRL000000004K00000000000000644000310282015093241N000400000010N27       002350400K 10000000010000000607           
CUS0480070000104061021004         NOE DWAYNE L  NOE MA3007 LAVENDER AVE                       000N        CARE OF             
MTR04800700001000000000000000RA              40321328    005800050000000500000520000003NN  NNW 000                       N    
RDG04800700WATRL000000004K00000000000005270000410282015093411N000400000010N27       000900400K 10000000010000005252           
CUS0480070000104061022002         FEELEY JOHN V       3009 LAVENDER AVE                       000N        CARE OF             
MTR04800700001000000000000000RA              41088163    005800060000000600000520000003NN  NNW 000                       N    
RDG04800700WATRL000000004K00000000000001684000510282015093500N000000000000N27       000490400K 10000000010000001680           
CUS0480070000104061023000         THOMPSON TIMOTHY L  3011 LAVENDER AVE                       000N        CARE OF             
MTR04800700001000000000000000RA              77988513    005800070000000700000360000003NN  NNW 000                       N    
RDG04800700WATRL000000004K00000000000000000000610282015093628N000000000000N27       000880400K 10000000010000000000           
CUS0480070000104061024008         ONEILL DEVIN        3013 LAVENDER AVE                       000N        CARE OF             
MTR04800700001000000000000000RA              99388678    005800080000000800000570000003NN  NNW 000                       N    
RDG04800700WATRL000000004K00000000000000853000710282015093705N000000000000N27       000370400K 10000000010000000839           
CUS0480070000104061025005         RIDDICK CINDY       3015 LAVENDER AVE                       000N        CARE OF             
MTR04800700001000000000000000RA              01076902    005800090000000900000610000003NN  NNW 000                       N    
RDG04800700WATRL000000004K00000000000001489000810282015093752N000000000000N27       000470400K 10000000010000001475           
CUS0480070000104061026003         GILMAN MICHAEL B    3017 LAVENDER AVE                       000N        CARE OF             
MTR04800700001000000000000000RA              23055403    005800100000001000000520000003NN  NNW 000                       N    
RDG04800700WATRL000000004K00000000000005760000910282015093901N000000000000N27       000690400K 10000000010000005747           
CUS0480070000104061027001         METLIFE BANK, N.A.  3019 LAVENDER AVE                       000N        CARE OF             
MTR04800700001000000000000000RA              42809098    005800110000001100000520000003NY  NNW 000                       N    
MTM0480070042809098    MUDDY WATER                                                                                            
RDG04800700WATRL000000004K00000000000002042000210292015133134N000000000012U27       000070400K 10000000010000002012           
CUS0480070000104061028009         AARON CLARKE JONES  3021 LAVENDER AVE                       000N        CARE OF             
MTR04800700001000000000000000RA              30516017    005800120000001200000520000003NN  NNW 000                       N    
RDG04800700WATRL000000004K00000000000004572006710292015133140N000000000000U27       000060400K 10000000010000004552           
CUS0480070000104061029007         BELL OLGA A,TRUSTEE 3023 LAVENDER AVE                       000N        CARE OF             
MTR04800700001000000000000000RA              40049365    005800130000001300000520000003NN  NNW 000                       N    
RDG04800700WATRL000000004K00000000000003077001010282015094552N000000000000N27       004110400K 10000000010000003046           
CUS0480070000104061030005         VALENZUELA GUSTAVO  3025 LAVENDER AVE                       000N        CARE OF             
MTR04800700001000000000000000RA              01076901    005800140000001400000610000003NN  NNW 000                       N    
RDG04800700WATRL000000004K00000000000001351001110282015094638N000000000000N27       000460400K 10000000010000001330           
CUS0480070000104061031003         BRAZITIS JOSEPH A   3027 LAVENDER AVE                       000N        CARE OF             
MTR04800700001000000000000000RA              33733212    005800150000001500000520000003NN  NNW 000                       N    
RDG04800700WATRL000000004K00000000000001787001210282015094724N000000000000N27       000460400K 10000000010000001781           
CUS0480070000104061032001         LOWE CHRISTOPHER R  3040 LAVENDER AVE                       000N        CARE OF             
MTR04800700001000000000000000RA              01076921    005800160000001600000610000003NN  NNW 000                       N    
RDG04800700WATRL000000004K00000000000001294001310282015094918N000000000000N27       001140400K 10000000010000001281           
CUS0480070000104061033009         FAUVER SAMUEL E     3038 LAVENDER AVE                       000N        CARE OF             
MTR04800700001000000000000000RA              99289806    005800170000001700000570000003NY  NNW 000                       N    
MTM0480070099289806    MUDDY WATER                                                                                            
RDG04800700WATRL000000004K00000000000000989006811032015142750O000000000042U24       000150400K 10000000010000000966           
CUS0480070000104061034007         PAULSEN CORINNE E   3036 LAVENDER AVE                       000N        CARE OF             
MTR04800700001000000000000000RA              36691662    005800180000001800000520000003NN  NNW 000                       N    
RDG04800700WATRL000000004K00000000000001640001410282015095210N000000000000N27       001720400K 10000000010000001632           
CUS0480070000104061035004         CAITLIN M MCCORMACK 3034 LAVENDER AVE                       000N        CARE OF             
MTR04800700001000000000000000RA              10003742    005800190000001900000570000003NN  NNW 000                       N    
RDG04800700WATRL000000004K00000000000000127001510282015095317N000000000000N27       000670400K 10000000010000000119           
CUS0480070000104061036002         EVANS DAVID P       3032 LAVENDER AVE                       000N        CARE OF             
MTR04800700001000000000000000RA              9689899     005800200000002000000570000003NN  NNW 000                       N    
RDG04800700WATRL000000004K00000000000003297001610282015095409N000000000000N27       000520400K 10000000010000003285           
CUS0480070000104061037000         FISCHER WAYNE B,JR  3030 LAVENDER AVE                       000N        CARE OF             
MTR04800700001000000000000000RA              24766789    005800210000002100000520000003NN  NNW 000                       N    
RDG04800700WATRL000000004K00000000000002761001710282015095518N000000000000N27       000690400K 10000000010000002734           
CUS0480070000104061038008         BERRY MICHELE S     3026 LAVENDER AVE                       000N        CARE OF             
MTR04800700001000000000000000RA              23055410    005800220000002200000520000003NN  NNW 000                       N    
RDG04800700WATRL000000004K00000000000005507001810282015095616N000000000000N27       000580400K 10000000010000005491           
CUS0480070000104061039006         FEELEY M RYAN       3024 LAVENDER AVE                       000N        CARE OF             
MTR04800700001000000000000000RA              10014877    005800230000002300000570000003NN  NNW 000                       N    
RDG04800700WATRL000000004K00000000000000285001910282015095724N000000000000N27       000680400K 10000000010000000275           
CUS0480070000104061040004         DAHLMAN JOHN K      3022 LAVENDER AVE                       000N        CARE OF             
MTR04800700001000000000000000RA              52287135    005800240000002400000520000003NN  NNW 000                       N    
RDG04800700WATRL000000004K00000000000001374002010282015095820N000000000000N27       000560400K 10000000010000001359           
CUS0480070000104061041002         SCHAFFER ROBERT W,TR3020 LAVENDER AVE                       000N        CARE OF             
MTR04800700001000000000000000RA              23055445    005800250000002500000520000003NN  NNW 000                       N    
RDG04800700WATRL000000004K00000000000002194002111032015142814O000000000010N24       000980400K 10000000010000002190           
CUS0480070000104061042000         FEELEY BEVERLY ANN  3018 LAVENDER AVE                       000N        CARE OF             
MTR04800700001000000000000000RA              52768225    005800260000002600000520000003NN  NNW 000                       N    
RDG04800700WATRL000000004K00000000000002497002210282015100217N000000000000N27       001390400K 10000000010000002486           
CUS0480070000104061043008         GRING JAMES L       3016 LAVENDER AVE                       000N        CARE OF             
MTR04800700001000000000000000RA              44173226    005800270000002700000520000003NN  NNW 000                       N    
RDG04800700WATRL000000004K00000000000002509002310282015100316N000000000000N27       000590400K 10000000010000002501           
CUS0480070000104061044006         DODD EDGAR G        3012 LAVENDER AVE                       000N        CARE OF             
MTR04800700001000000000000000RA              23053318    005800280000002800000520000003NN  NNW 000                       N    
RDG04800700WATRL000000004K00000000000002356002410282015100433N000000000000N27       000770400K 10000000010000002351           
CUS0480070000104061045003         CLINE JEFFREY A     3010 LAVENDER AVE                       000N        CARE OF             
MTR04800700001000000000000000RA              23055415    005800290000002900000520000003NN  NNW 000                       N    
RDG04800700WATRL000000004K00000000000003272002510282015100543N000000000000N27       000700400K 10000000010000003269           
CUS0480070000104061046001         JOYNER ZACHARY      3008 LAVENDER AVE                       000N        CARE OF             
MTR04800700001000000000000000RA              23055420    005800300000003000000520000003NN  NNW 000                       N    
RDG04800700WATRL000000004K00000000000003971002610282015100640N000000000000N27       000570400K 10000000010000003933           
CUS0480070000104061047009         MARK E ALAI         3006 LAVENDER AVE                       000N        CARE OF             
MTR04800700001000000000000000RA              78022924    005800310000003100000360000003NN  NNW 000                       N    
RDG04800700WATRL000000004K00000000000000000002710282015100741N000300000010N27       000610400K 10000000010000000004           
CUS0480070000104061048007         JENKINS MARGARET JOA3006-1/2 LAVENDER AVE                   000N        CARE OF             
MTR04800700001000000000000000RA              77877637    005800320000003200000360000003NN  NNW 000                       N    
RDG04800700WATRL000000004K00000000000000012002811032015142840O000300000010N24       000330400K 10000000010000000001           
CUS0480070000104061049005         WAGNER MARLENE J    3002 LAVENDER AVE                       000N        CARE OF             
MTR04800700001000000000000000RA              01076923    005800330000003300000610000003NN  NNW 000                       N    
RDG04800700WATRL000000004K00000000000000783002910282015101018N000000000000N27       001240400K 10000000010000000759           
CUS0480070000104061050003         AYD WILLIAM J       3000 LAVENDER AVE                       000N        CARE OF             
MTR04800700001000000000000000RA              26006047    005800340000003400000520000003NN  NNW 000                       N    
RDG04800700WATRL000000004K00000000000005946003010282015101112N000000000000N27       000540400K 10000000010000005946           
CUS0480070000104061051001         LAKIS MICHAEL A     7901 HARFORD RD                         000N        CARE OF             
MTR04800700001000000000000000RA              77889347    005800350000003500000360000003NN  NNW 000                       N    
RDG04800700WATRL000000004K00000000000000000003110282015101306N000000000000N27       001140400K 10000000010000000000           
CUS0480070000104061052009         ZBA STATUTORY TRUST 7905 HARFORD RD                         000N        CARE OF             
MTR04800700001000000000000000RA              54375023    001500360000003600000520000003NN  NNW 000                       N    
RDG04800700WATRL000000005K00000000000002182003210282015101425N000000000000N27       000790500K 10000000010000002158           
CUS0480070000104061053007         MATTHEWS RUSSELL J,J7907 HARFORD RD                         000N        CARE OF             
MTR04800700001000000000000000RA              40779251    005800370000003700000520000003NN  NNW 000                       N    
RDG04800700WATRL000000004K00000000000000722003310282015101521N000000000000N27       000560400K 10000000010000000714           
CUS0480070000104061054005         BOURGEOIS JOHN G    7911 HARFORD RD                         000N        CARE OF             
MTR04800700001000000000000000RA              77882573    005800380000003800000360000003NN  NNW 000                       N    
RDG04800700WATRL000000004K00000000000000004003411032015142905O000000000010N24       000440400K 10000000010000000002           
CUS0480070000104061055002         BON PATRICIA M BON J7909 HARFORD RD                         000N        CARE OF             
MTR04800700001000000000000000RA              10024469    005800390000003900000570000003NN  NNW 000                       N    
RDG04800700WATRL000000004K00000000000000079003511032015142936O000000000010N24       000570400K 10000000010000000071           
CUS0480070000104061056000         CRAFTSTICKS LLC     7913 HARFORD RD                         000N        CARE OF             
MTR04800700001000000000000000RA              01081255    005800400000004000000610000003NN  NNW 000                       N    
RDG04800700WATRL000000004K00000000000000229003610282015101800N000000000000N27       000580400K 10000000010000000225           
CUS0480070000104061057008         COBBLESTONE DEVELOPM7917 HARFORD RD                         000N        CARE OF             
MTR04800700001000000000000000RA              32898639    005800410000004100000520000003NN  NNW 000                       N    
RDG04800700WATRL000000004K00000000000002861003710282015101841N000000000000N27       000410400K 10000000010000002855           
CUS0480070000104061058006         DAVIS PHILLIP D     3003 LINWOOD AVE                        000N        CARE OF             
MTR04800700001000000000000000RA              01077379    005800420000004200000610000003NN  NNW 000                       N    
RDG04800700WATRL000000004K00000000000001267003810282015102204N000000000000N27       002030400K 10000000010000001243           
CUS0480070000104445543004         GEORGE A DARRAJ     3005 LINWOOD AVE                        000N        CARE OF             
MTR04800700001000000000000000RA              10015604    005800430000004300000570000003NN  NNW 000                       N    
RDG04800700WATRL000000004K00000000000000159003910282015102247N000000000000N27       000430400K 10000000010000000152           
CUS0480070000104061059004         GARY D THOMPSON     3007 LINWOOD AVE                        000N        CARE OF             
MTR04800700001000000000000000RA              10023147    005800440000004400000570000003NN  NNW 000                       N    
RDG04800700WATRL000000004K00000000000000217004010282015102348N000000000000N27       000610400K 10000000010000000198           
CUS0480070000104061060002         MACHADO JOSE G      3009 LINWOOD AVE                        000N        CARE OF             
MTR04800700001000000000000000RA              26002716    005800450000004500000520000003NN  NNW 000                       N    
RDG04800700WATRL000000004K00000000000004938004110282015102435N000000000000N27       000470400K 10000000010000004903           
CUS0480070000104061061000         KOFI AMET           3011 LINWOOD AVE                        000N        CARE OF             
MTR04800700001000000000000000RA              99290137    005800460000004600000570000003NN  NNW 000                       N    
RDG04800700WATRL000000004K00000000000001336004210282015102526N000000000000N27       000510400K 10000000010000001326           
CUS0480070000104061062008         DUCKWORTH PHILIP A  3013 LINWOOD AVE                        000N        CARE OF             
MTR04800700001000000000000000RA              23054828    005800470000004700000520000003NN  NNW 000                       N    
RDG04800700WATRL000000004K00000000000004357004310282015102710N000300000010N27       001040400K 10000000010000004351           
CUS0480070000104061063006         ELKAYAM MARTHA WOOTE3015 LINWOOD AVE                        000N        CARE OF             
MTR04800700001000000000000000RA              32901717    005800480000004800000520000003NN  NNW 000                       N    
RDG04800700WATRL000000004K00000000000002423004410282015102819N000000000000N27       000690400K 10000000010000002411           
CUS0480070000104061064004         TOPPI WILLIAM D     3017 LINWOOD AVE                        000N        CARE OF             
MTR04800700001000000000000000RA              14909357    005800490000004900000310000003NN  NNW 000                       N    
RDG04800700WATRL000000004K00000000000000440004510282015102923N000000000000N27       000640400K 10000000010000000429           
CUS0480070000104061065001         WELLS FARGO BANK NA 3019 LINWOOD AVE                        000N        CARE OF             
MTR04800700001000000000000000RA              77886722    005800500000005000000350000003NN  NNW 000                       N    
RDG04800700WATRL000000004K00000000000000000004610282015102956N000000000000N27       000330400K 10000000010000000000           
CUS0480070000104061066009         DIETER JOSEPH M,JR  3021 LINWOOD AVE                        000N        CARE OF             
MTR04800700001000000000000000RA              77879467    005800510000005100000360000003NN  NNW 000                       N    
RDG04800700WATRL000000004K00000000000000027004711032015143036O000400000010N24       000520400K 10000000010000000018           
CUS0480070000104061067007         MURRAY MARGUERITE   3023 LINWOOD AVE                        000N        CARE OF             
MTR04800700001000000000000000RA              46883100    005800520000005200000520000003NN  NNW 000                       N    
RDG04800700WATRL000000004K00000000000001540004810282015103209N000000000000N27       000810400K 10000000010000001525           
CUS0480070000104061068005         KIRKPATRICK JOHN F  3025 LINWOOD AVE                        000N        CARE OF             
MTR04800700001000000000000000RA              44176084    005800530000005300000520000003NN  NNW 000                       N    
RDG04800700WATRL000000004K00000000000002210004910282015103242N000000000000N27       000330400K 10000000010000002208           
CUS0480070000104061069003         LIST WILLIAM J      3027 LINWOOD AVE                        000N        CARE OF             
MTR04800700001000000000000000RA              10010737    005800540000005400000570000003NN  NNW 000                       N    
RDG04800700WATRL000000004K00000000000000365005010282015103347N000000000000N27       000650400K 10000000010000000351           
CUS0480070000104061070001         FELIX PAMELA A      3029 LINWOOD AVE                        000N        CARE OF             
MTR04800700001000000000000000RA              01093241    005800550000005500000610000003NN  NNW 000                       N    
RDG04800700WATRL000000004K00000000000001726005110282015103445N000000000000N27       000580400K 10000000010000001700           
CUS0480070000104061071009         GORDON JOSEPH C     3031 LINWOOD AVE                        000N        CARE OF             
MTR04800700001000000000000000RA              38187461    005800560000005600000520000003NN  NNW 000                       N    
RDG04800700WATRL000000004K00000000000004116005210282015103527N000000000000N27       000420400K 10000000010000004092           
CUS0480070000104061072007         GORDON JOELL C      3033 LINWOOD AVE                        000N        CARE OF             
MTR04800700001000000000000000RA              44174857    005800570000005700000520000003NN  NNW 000                       N    
RDG04800700WATRL000000004K00000000000001994005310282015103618N000000000000N27       000510400K 10000000010000001978           
CUS0480070000104061073005         KUMP GREGORY LEE    3035 LINWOOD AVE                        000N        CARE OF             
MTR04800700001000000000000000RA              14924504    005800580000005800000310000003NN  NNW 000                       N    
RDG04800700WATRL000000004K00000000000000543005410282015103739N000300000010N27       000810400K 10000000010000000567           
CUS0480070000104061074003         ZUKAS MARK W        3037 LINWOOD AVE                        000N        CARE OF             
MTR04800700001000000000000000RA              78021574    005800590000005900000360000003NN  NNW 000                       N    
RDG04800700WATRL000000004K00000000000000000005510282015103835N000000000000N27       000560400K 10000000010000000000           
CUS0480070000104061075000         HOPKINS JOSELYN     3039 LINWOOD AVE                        000N        CARE OF             
MTR04800700001000000000000000RA              10008277    005800600000006000000570000003NN  NNW 000                       N    
RDG04800700WATRL000000004K00000000000000869005610282015103929N000000000000N27       000540400K 10000000010000000850           
CUS0480070000104061076008         REIHL TIMOTHY J     7825 CLARKSWORTH PL                     000N        CARE OF             
MTR04800700001000000000000000RA              01077371    005800610000006100000610000003NN  NNW 000                       N    
RDG04800700WATRL000000004K00000000000000856005710282015104024N000000000000N27       000550400K 10000000010000000848           
CUS0480070000104061077006         BOZE WILLIAM S      3040 LINWOOD AVE                        000N        CARE OF             
MTR04800700001000000000000000RA              26007169    005800620000006200000520000003NN  NNW 000                       N    
RDG04800700WATRL000000004K00000000000002491005810282015104112N000000000000N27       000480400K 10000000010000002469           
CUS0480070000104061078004         COLBURN MARY MARILYN3038 LINWOOD AVE                        000N        CARE OF             
MTR04800700001000000000000000RA              23053958    005800630000006300000520000003NN  NNW 000                       N    
RDG04800700WATRL000000004K00000000000002650005910282015104158N000000000000N27       000460400K 10000000010000002632           
CUS0480070000104061079002         CARTOSKI MARK J     3036 LINWOOD AVE                        000N        CARE OF             
MTR04800700001000000000000000RA              24229344    005800640000006400000520000003NN  NNW 000                       N    
RDG04800700WATRL000000004K00000000000001785006010282015104255N000000000000N27       000570400K 10000000010000001785           
CUS0480070000104061080000         MONCHEL N STRINGFIEL3034 LINWOOD AVE                        000N        CARE OF             
MTR04800700001000000000000000RA              10018127    005800650000006500000570000003NN  NNW 000                       N    
RDG04800700WATRL000000004K00000000000000212006110282015104448N000000000000N27       001130400K 10000000010000000195           
CUS0480070000104061081008         RUTH JOHN E         3032 LINWOOD AVE                        000N        CARE OF             
MTR04800700001000000000000000RA              23054004    005800660000006600000520000003NN  NNW 000                       N    
RDG04800700WATRL000000004K00000000000001462006210282015104539N000000000000N27       000510400K 10000000010000001457           
CUS0480070000104061082006         SEAN LEE CARDINEAU  3030 LINWOOD AVE                        000N        CARE OF             
MTR04800700001000000000000000RA              78021576    005800670000006700000360000003NN  NNW 000                       N    
RDG04800700WATRL000000004K00000000000000000006310282015104624N000000000000N27       000450400K 10000000010000000000           
CUS0480070000104061083004         PUSKAR GERALD L     3028 LINWOOD AVE                        000N        CARE OF             
MTR04800700001000000000000000RA              24770706    005800680000006800000520000003NN  NNW 000                       N    
RDG04800700WATRL000000004K00000000000005320006410282015104746N000000000000N27       000820400K 10000000010000005278           
CUS0480070000104061084002         HOCH ROBERT R,2ND   3026 LINWOOD AVE                        000N        CARE OF             
MTR04800700001000000000000000RA              24762666    005800690000006900000520000003NN  NNW 000                       N    
RDG04800700WATRL000000004K00000000000006062006510282015104901N000300000010N27       000750400K 10000000010000005876           
CUS0480070000104061085009         PORTER ROBERT W     3024 LINWOOD AVE                        000N        CARE OF             
MTR04800700001000000000000000RA              75616208    005800700000007000000350000003NN  NNW 000                       N    
RDG04800700WATRL000000004K00000000000000134006610282015104941N000000000000N27       000400400K 10000000010000000122           
CUS0480070000104061086007         BIRMINGHAM LAWRENCE 3022 LINWOOD AVE                        000N        CARE OF             
MTR04800700001000000000000000RA              54350617    005800710000007100000520000003NN  NNW 000                       N    
RDG04800700WATRL000000004K00000000000001743006710282015105023N000000000000N27       000420400K 10000000010000001725           
CUS0480070000104061087005         BADEKER ALLAN ADAIR 3020 LINWOOD AVE                        000N        CARE OF             
MTR04800700001000000000000000RA              10004198    005800720000007200000570000003NN  NNW 000                       N    
RDG04800700WATRL000000004K00000000000000464006810282015105141N000000000000N27       000780400K 10000000010000000456           
CUS0480070000104061088003         CRAFT BARBARA E     3018 LINWOOD AVE                        000N        CARE OF             
MTR04800700001000000000000000RA              10006010    005800730000007300000570000003NN  NNW 000                       N    
RDG04800700WATRL000000004K00000000000000458006910282015105249N000000000000N27       000680400K 10000000010000000424           
CUS0480070000104061089001         SOLOMON ANTHONY V   3016 LINWOOD AVE                        000N        CARE OF             
MTR04800700001000000000000000RA              23059781    005800740000007400000520000003NN  NNW 000                       N    
RDG04800700WATRL000000004K00000000000002497007010282015105415N000400000010N27       000860400K 10000000010000002471           
CUS0480070000104061090009         ROBERT D. JAGIELSKI 3014 LINWOOD AVE                        000N        CARE OF             
MTR04800700001000000000000000RA              14904982    005800750000007500000310000003NN  NNW 000                       N    
RDG04800700WATRL000000004K00000000000000847007110282015105520N000000000000N27       000650400K 10000000010000000827           
CUS0480070000104061091007         GRAVER JARRETT B    3012 LINWOOD AVE                        000N        CARE OF             
MTR04800700001000000000000000RA              41088930    005800760000007600000520000003NN  NNW 000                       N    
RDG04800700WATRL000000004K00000000000000913007210282015105640N000000000000N27       000800400K 10000000010000000913           
CUS0480070000104061092005         WHEELER JOHN DENTON 3010 LINWOOD AVE                        000N        CARE OF             
MTR04800700001000000000000000RA              23055093    005800770000007700000520000003NN  NNW 000                       N    
RDG04800700WATRL000000004K00000000000002552007310282015105748N000000000000N27       000680400K 10000000010000002545           
CUS0480070000104061093003         DIFATTA VINCENZO    3008 LINWOOD AVE                        000N        CARE OF             
MTR04800700001000000000000000RA              44086416    005800780000007800000520000003NN  NNW 000                       N    
RDG04800700WATRL000000004K00000000000001857007410282015105829N000000000000N27       000410400K 10000000010000001855           
CUS0480070000104061094001         JOHNSON LILLIAN L   3006 LINWOOD AVE                        000N        CARE OF             
MTR04800700001000000000000000RA              23053995    005800790000007900000520000003NN  NNW 000                       N    
RDG04800700WATRL000000004K00000000000003488007510282015105941N000000000000N27       000720400K 10000000010000003482           
CUS0480070000104061095008         MAGGIE WOLFE E      3004 LINWOOD AVE                        000N        CARE OF             
MTR04800700001000000000000000RA              10008430    005800800000008000000570000003NN  NNW 000                       N    
RDG04800700WATRL000000004K00000000000000501007610282015110031N000000000000N27       000500400K 10000000010000000488           
CUS0480070000104061096006         GIBSON TIMMIE L     3002 LINWOOD AVE                        000N        CARE OF             
MTR04800700001000000000000000RA              48596933    005800810000008100000520000003NN  NNW 000                       N    
RDG04800700WATRL000000004K00000000000003643007710282015110142N000000000000N27       000710400K 10000000010000003566           
CUS0480070000104415239005         CORREALE CHRISTINA E3000 LINWOOD AVE                        000N        CARE OF             
MTR04800700001000000000000000RA              46885864    005800820000008200000520000000NN  NNW 000                       N    
RDG04800700WATRL000000004K00000000000001436007810282015110247N000000000000N27       000650400K 10000000010000001427           
CUS0480070000104061097004         8001 HARFORD ROAD AS8001 HARFORD RD                         000N        CARE OF             
MTR04800700001000000000000000RA              10004259    005800830000008300000570000003NN  NNW 000                       N    
RDG04800700WATRL000000004K00000000000000437007910282015113116N000000000011N27       003540400K 10000000010000000428           
CUS0480070000104061099000         DENGLER FAMILY LLC  8019 HARFORD RD                         000N        CARE OF             
MTR04800700001000000000000000RA              23055010    005800840000008400000520000003NN  NNW 000                       N    
RDG04800700WATRL000000004K00000000000004444008011032015143108O000000000010N24       001090400K 10000000010000004417           
CUS0480070000104061100006         DENGLER FAMILY LLC  8021-23 HARFORD RD                      000N        CARE OF             
MTR04800700001000000000000000RA              26012008    005800850000008500000520000003NN  NNW 000                       N    
RDG04800700WATRL000000004K00000000000003243008110282015113351N000000000000N27       000460400K 10000000010000003152           
CUS0480070000104061101004         DENGLER FAMILY LLC  8025 HARFORD RD                         000N        CARE OF             
MTR04800700001000000000000000RA              42808958    005800860000008600000520000003NN  NNW 000                       N    
RDG04800700WATRL000000004K00000000000004148008210282015113451N000000000000N27       000600400K 10000000010000003840           
CUS0480070000104061102002         DENGLER FAMILY LLC  8027-29 HARFORD RD                      000N        CARE OF             
MTR04800700001000000000000000RA              24772366    005800870000008700000520000003NN  NNW 000                       N    
RDG04800700WATRL000000004K00000000000001652008310282015113458N000000000000N27       000070400K 10000000010000001651           
CUS0480070000104061103000         DENGLER FAMILY LLC  8031 HARFORD RD                         000N        CARE OF             
MTR04800700001000000000000000RA              24762222    005800880000008800000520000003NN  NNW 000                       N    
RDG04800700WATRL000000004K00000000000000742006910292015133309N000000000000U27       000200400K 10000000010000000720           
CUS0480070000104061107001         MORRISON ELLEN K    3003 DUBOIS AVE                         000N        CARE OF             
MTR04800700001000000000000000RA              27827575    005800890000008900000520000003NN  NNW 000                       N    
RDG04800700WATRL000000004K00000000000003556008410282015114226N000000000000N27       004480400K 10000000010000003545           
CUS0480070000104061108009         LEE JASON EDWARD    3103-1/2 DUBOISE AVE                    000N        CARE OF             
MTR04800700001000000000000000RA              54348476    005800900000009000000520000003NN  NNW 000                       N    
RDG04800700WATRL000000004K00000000000001782007010292015133317N000000000000U27       000080400K 10000000010000001762           
CUS0480070000104061109007         HADZAMAN EHOR S     3005 DUBOIS AVE                         000N        CARE OF             
MTR04800700001000000000000000RA              14930621    005800910000009100000310000003NN  NNW 000                       N    
RDG04800700WATRL000000004K00000000000000401008510282015114339N000000000000N27       000730400K 10000000010000000389           
CUS0480070000104061110005         PAGELS AMY L        3007 DUBOISE AVE                        000N        CARE OF             
MTR04800700001000000000000000RA              14923215    005800920000009200000310000003NN  NNW 000                       N    
RDG04800700WATRL000000004K00000000000000430008610282015114431N000000000000N27       000520400K 10000000010000000416           
CUS0480070000104061111003         MILLER NICOLE K     3009 DUBOISE AVE                        000N        CARE OF             
MTR04800700001000000000000000RA              10008656    005800930000009300000570000003NN  NNW 000                       N    
RDG04800700WATRL000000004K00000000000000516008710282015114511N000000000000N27       000400400K 10000000010000000504           
CUS0480070000104061112001         WELLS FARGO BANK    8007 JACQUELINE LN                      000N        CARE OF             
MTR04800700001000000000000000RA              14900169    005800940000009400000310000003NN  NNW 000   VACANT / LOT        N    
RDG04800700WATRL000000004K00000000000000930008810282015114700N000000000000N27       001090400K 10000000010000000930           
CUS0480070000104061113009         MILLER ROBERT LEE   8005 JACQUELINE LN                      000N        CARE OF             
MTR04800700001000000000000000RA              01109490    005800950000009500000610000003NN  NNW 000                       N    
RDG04800700WATRL000000004K00000000000001124008910282015114823N000000000000N27       000830400K 10000000010000001113           
CUS0480070000104061114007         CONNER DANA R       8003 JACQUELINE LN                      000N        CARE OF             
MTR04800700001000000000000000RA              01109210    005800960000009600000610000003NN  NNW 000   VACANT / LOT        N    
RDG04800700WATRL000000004K00000000000001350009010282015114833N000000000000N27       000100400K 10000000010000001350           
CUS0480070000104061115004         SOUND INVESTMENT , L3101 DUBOIS AVE                         000N        CARE OF             
MTR04800700001000000000000000RA              35117102    005800970000009700000520000003NN  NNW 000                       N    
RDG04800700WATRL000000004K00000000000001440009110282015115038N000000000000N27       001250400K 10000000010000001426           
CUS0480070000104061116002         LOWE BERNARD JOSEPH 3103 DUBOIS AVE                         000N        CARE OF             
MTR04800700001000000000000000RA              44093438    005800980000009800000520000003NN  NNW 000                       N    
RDG04800700WATRL000000004K00000000000001974009210282015115109N000000000000N27       000310400K 10000000010000001955           
CUS0480070000104061117000         BROOKS JOSHUA       3105 DUBOIS AVE                         000N        CARE OF             
MTR04800700001000000000000000RA              50791056    005800990000009900000520000003NN  NNW 000                       N    
RDG04800700WATRL000000004K00000000000002374009310282015115255N000300000010N27       001060400K 10000000010000002390           
CUS0480070000104061118008         VALUNAS JOHN M,SR   3107 DUBOIS AVE                         000N        CARE OF             
MTR04800700001000000000000000RA              14912688    005801000000010000000310000003NN  NNW 000                       N    
RDG04800700WATRL000000004K00000000000000796009410282015115317N000000000000N27       000220400K 10000000010000000748           
CUS0480070000104061119006         VALUNAS JOHN M,SR   3109 DUBOIS AVE                         000N        CARE OF             
MTR04800700001000000000000000RA              75617610    005801010000010100000350000003NN  NNW 000                       N    
RDG04800700WATRL000000004K00000000000000148009510282015115402N000000000000N27       000450400K 10000000010000000117           
CUS0480070000104061120004         PALMER WILLIAM L    3111 DUBOIS AVE                         000N        CARE OF             
MTR04800700001000000000000000RA              46881353    005801020000010200000520000003NN  NNW 000                       N    
RDG04800700WATRL000000004K00000000000002431009610282015115447N000000000000N27       000450400K 10000000010000002409           
CUS0480070000104061121002         DARONE JOSEPH H     3113 DUBOIS AVE                         000N        CARE OF             
MTR04800700001000000000000000RA              10006009    005801030000010300000570000003NN  NNW 000   VACANT / LOT        N    
RDG04800700WATRL000000004K00000000000000000009710282015115509N000000000000N27       000220400K 10000000010000000000           
CUS0480070000104061122000         PIERPONT MICHAEL WAY3115 DUBOIS AVE                         000N        CARE OF             
MTR04800700001000000000000000RA              30522256    005801040000010400000520000003NN  NNW 000                       N    
RDG04800700WATRL000000004K00000000000002854009810282015115615N000000000000N27       000660400K 10000000010000002832           
CUS0480070000104061123008         BURNS MARGARET SUE  3117 DUBOIS AVE                         000N        CARE OF             
MTR04800700001000000000000000RA              01077480    005801050000010500000610000003NN  NNW 000                       N    
RDG04800700WATRL000000004K00000000000001433009910282015115714N000000000000N27       000590400K 10000000010000001405           
CUS0480070000104061124006         DARRAH JANET L      3121 DUBOIS AVE                         000N        CARE OF             
MTR04800700001000000000000000RA              01077481    005801060000010600000610000003NN  NNW 000                       N    
RDG04800700WATRL000000004K00000000000000955010010282015115812N000000000000N27       000580400K 10000000010000000940           
CUS0480070000104061125003         ORACKI CLARA L      3123 DUBOIS AVE                         000N        CARE OF             
MTR04800700001000000000000000RA              24221300    005801070000010700000520000003NN  NNW 000                       N    
RDG04800700WATRL000000004K00000000000006444010110282015115817N000000000000N27       000050400K 10000000010000006419           
CUS0480070000104061126001         TOSKES KATHLEEN A   3125 DUBOIS AVE                         000N        CARE OF             
MTR04800700001000000000000000RA              27819566    005801080000010800000520000003NN  NNW 000                       N    
RDG04800700WATRL000000004K00000000000002529010210282015115938N000000000000N27       000810400K 10000000010000002517           
CUS0480070000104061127009         MULLINIX WILLIAM R  3127 DUBOIS AVE                         000N        CARE OF             
MTR04800700001000000000000000RA              99188380    005801090000010900000570000003NN  NNW 000                       N    
RDG04800700WATRL000000004K00000000000001700010310282015115947N000000000000N27       000090400K 10000000010000001686           
CUS0480070000104061128007         DUNI JOSEPH B       3129 DUBOIS AVE                         000N        CARE OF             
MTR04800700001000000000000000RA              14921863    005801100000011000000310000003NN  NNW 000                       N    
RDG04800700WATRL000000004K00000000000000945010410282015120112N000000000000N27       000850400K 10000000010000000918           
CUS0480070000104061129005         EDENFIELD CHARLES H 3131 DUBOIS AVE                         000N        CARE OF             
MTR04800700001000000000000000RA              01077201    005801110000011100000610000003NN  NNW 000                       N    
RDG04800700WATRL000000004K00000000000000983010510282015120121N000000000000N27       000090400K 10000000010000000973           
CUS0480070000104061130003         LIPINSKI STANLEY A  3138 DUBOIS AVE                         000N        CARE OF             
MTR04800700001000000000000000RA              77889756    005801120000011200000350000003NN  NNW 000                       N    
RDG04800700WATRL000000004K00000000000000050010611032015143136O000000000010N24       000850400K 10000000010000000041           
CUS0480070000104061131001         ALLEN CATHERINE M   3136 DUBOIS AVE                         000N        CARE OF             
MTR04800700001000000000000000RA              24221296    005801130000011300000520000003NN  NNW 000                       N    
RDG04800700WATRL000000004K00000000000003115010710282015120304N000000000000N27       000180400K 10000000010000003108           
CUS0480070000104061132009         THORNE DAVID        3134 DUBOIS AVE                         000N        CARE OF             
MTR04800700001000000000000000RA              23057213    005801140000011400000520000003NN  NNW 000                       N    
RDG04800700WATRL000000004K00000000000004577010810282015120425N000000000000N27       000810400K 10000000010000004560           
CUS0480070000104061133007         GERMAN GEORGE J,3RD 3132 DUBOIS AVE                         000N        CARE OF             
MTR04800700001000000000000000RA              74689801    005801150000011500000350000003NN  NNW 000                       N    
RDG04800700WATRL000000004K00000000000000288010910282015120435N000000000000N27       000100400K 10000000010000000254           
CUS0480070000104061134005         LEVEROCK JOHN I L   3130 DUBOIS AVE                         000N        CARE OF             
MTR04800700001000000000000000RA              23057265    005801160000011600000520000003NN  NNW 000                       N    
RDG04800700WATRL000000004K00000000000003836011011032015143242O000000000010N24       000760400K 10000000010000003825           
CUS0480070000104061135002         ATWOOD PHILLIP THOMA3128 DUBOIS AVE                         000N        CARE OF             
MTR04800700001000000000000000RA              23057137    005801170000011700000520000003NN  NNW 000                       N    
RDG04800700WATRL000000004K00000000000004886011111032015143311O000400000010N24       000320400K 10000000010000004880           
CUS0480070000104061136000         HERSHNER JAMES F,JR 3126 DUBOIS AVE                         000N        CARE OF             
MTR04800700001000000000000000RA              27213965    005801180000011800000520000003NN  NNW 000                       N    
RDG04800700WATRL000000004K00000000000003568011210282015120720N000000000000N27       000570400K 10000000010000003545           
CUS0480070000104061137008         ROSAS GUILLERMO     3124 DUBOIS AVE                         000N        CARE OF             
MTR04800700001000000000000000RA              23057945    005801190000011900000520000003NN  NNW 000                       N    
RDG04800700WATRL000000004K00000000000005928011310282015120824N000000000000N27       000640400K 10000000010000005909           
CUS0480070000104061138006         DANIELS KENNETH W   3122 DUBOIS AVE                         000N        CARE OF             
MTR04800700001000000000000000RA              23056616    005801200000012000000520000003NN  NNW 000                       N    
RDG04800700WATRL000000004K00000000000006709011411032015143331O000000000010N24       000900400K 10000000010000006689           
CUS0480070000104061139004         REESEY PAUL W       3120 DUBOIS AVE                         000N        CARE OF             
MTR04800700001000000000000000RA              2305826     005801210000012100000520000003NN  NNW 000                       N    
RDG04800700WATRL000000004K00000000000005321011510282015121139N000000000000N27       001050400K 10000000010000005311           
CUS0480070000104061140002         MONTGOMERY PATRICK A3118 DUBOIS AVE                         000N        CARE OF             
MTR04800700001000000000000000RA              35117084    005801220000012200000520000003NN  NNW 000                       N    
RDG04800700WATRL000000004K00000000000000991011610282015121339N000000000000N27       001200400K 10000000010000000987           
CUS0480070000104061141000         POTURALSKI EDWARD J 3116 DUBOIS AVE                         000N        CARE OF             
MTR04800700001000000000000000RA              519302      005801230000012300000570000003NN  NNW 000                       N    
RDG04800700WATRL000000004K00000000000006406011710282015121423N000000000000N27       000440400K 10000000010000006392           
CUS0480070000104061142008         GERMAN GEORGE J,JR  3114 DUBOIS AVE                         000N        CARE OF             
MTR04800700001000000000000000RA              38886787    005801240000012400000520000003NN  NNW 000                       N    
RDG04800700WATRL000000004K00000000000002967011811032015143357O000000000010N24       000670400K 10000000010000002956           
CUS0480070000104061143006         NOVAK MARK DAVID    3112 DUBOIS AVE                         000N        CARE OF             
MTR04800700001000000000000000RA              46881437    005801250000012500000520000003NN  NNW 000                       N    
RDG04800700WATRL000000004K00000000000001696011910282015121621N000000000000N27       000510400K 10000000010000001677           
CUS0480070000104061144004         BRIGGS ROBERT J     3110 DUBOIS AVE                         000N        CARE OF             
MTR04800700001000000000000000RA              33081178    005801260000012600000520000003NN  NNW 000                       N    
RDG04800700WATRL000000004K00000000000004107012010282015121744N000000000000N27       000830400K 10000000010000004085           
CUS0480070000104061145001         BRADY THOMAS S      3108 DUBOIS AVE                         000N        CARE OF             
MTR04800700001000000000000000RA              11336467    005801270000012700000570000003NN  NNW 000                       N    
RDG04800700WATRL000000004K00000000000004928012111032015143415O000400000010N24       000620400K 10000000010000004909           
CUS0480070000104061146009         KREBS JOHN L,JR     3106 DUBOIS AVE                         000N        CARE OF             
MTR04800700001000000000000000RA              76344843    005801280000012800000350000003NN  NNW 000                       N    
RDG04800700WATRL000000004K00000000000000032012210282015121930N000000000000N27       000440400K 10000000010000000028           
CUS0480070000104061147007         KLOSTERMAN DONALD F 3104 DUBOIS AVE                         000N        CARE OF             
MTR04800700001000000000000000RA              31580488    005801290000012900000520000003NN  NNW 000                       N    
RDG04800700WATRL000000004K00000000000004571012310282015122020N000000000000N27       000500400K 10000000010000004557           
CUS0480070000104061148005         MALONE JOYCE        3102 DUBOIS AVE                         000N        CARE OF             
MTR04800700001000000000000000RA              01077208    005801300000013000000610000003NN  NNW 000                       N    
RDG04800700WATRL000000004K00000000000000687012410282015122114N000000000000N27       000540400K 10000000010000000672           
CUS0480070000104061149003         LOPEZ SHANNON D     3100 DUBOIS AVE                         000N        CARE OF             
MTR04800700001000000000000000RA              45379321    005801310000013100000520000003NN  NNW 000                       N    
RDG04800700WATRL000000004K00000000000002014012510282015122159N000000000000N27       000450400K 10000000010000001984           
CUS0480070000104061150001         DOUGLAS NEAGLE      3010 DUBOIS AVE                         000N        CARE OF             
MTR04800700001000000000000000RA              35104558    005801320000013200000520000003NN  NNW 000                       N    
RDG04800700WATRL000000004K00000000000001785012610282015122231N000000000000N27       000320400K 10000000010000001776           
CUS0480070000104061151009         KOLODZI NANCY A     3008 DUBOIS AVE                         000N        CARE OF             
MTR04800700001000000000000000RA              23055488    005801330000013300000520000003NN  NNW 000                       N    
RDG04800700WATRL000000004K00000000000002323012710282015122318N000000000000N27       000470400K 10000000010000002319           
CUS0480070000104061152007         HOWARD CHERYL       3006 DUBOIS AVE                         000N        CARE OF             
MTR04800700001000000000000000RA              46881556    005801340000013400000520000003NN  NNW 000                       N    
RDG04800700WATRL000000004K00000000000001559012811032015143436O000000000010N24       000280400K 10000000010000001548           
CUS0480070000104061153005         HIRSCH KEVIN S      3004 DUBOIS AVE                         000N        CARE OF             
MTR04800700001000000000000000RA              11337464    005801350000013500000570000003NN  NNW 000                       N    
RDG04800700WATRL000000004K00000000000004783012910282015122430N000000000000N27       000440400K 10000000010000004754           
CUS0480070000104061154003         MICHAEL TYLER       3002 DUBOISE AVE                        000N        CARE OF             
MTR04800700001000000000000000RA              30002581    007501360000013600000570000003NN  NNW 000                       N    
RDG04800700WATRL000000004K00000000000000186013010282015122526N000000000000N27       000560400K 10000000010000000168           
CUS0480070000104061155000         BALTIMORE INVESTMENT8101 HARFORD RD                         000N        CARE OF             
MTR04800700001000000000000000RA              23055021    005801370000013700000520000003NN  NNW 000                       N    
RDG04800700WATRL000000004K00000000000004758000310292015112715N000000000022U27       017350400K 10000000010000004737           
CUS0480070000104349289001         GLASSER EMANUEL S  T8109 HARFORD RD                         000N        CARE OF             
MTR04800700001000000000000000RA              01105335    001501380000013800000610000003NN  NNW 000                       N    
RDG04800700WATRL000000005K00000000000005646000410292015112822N000000000000U27       000670500K 10000000010000005529           
CUS0480070000104061157006         BALTATZIS MEDICAL CE8113 HARFORD RD                         000N        CARE OF             
MTR04800700001000000000000000RA              45378896    005801390000013900000520000003NN  NNW 000                       N    
RDG04800700WATRL000000004K00000000000001452000510292015113227N000000000011U27       001030400K 10000000010000001435           
CUS0480070000104061158004         BALTATZIS MEDICAL CE8113 HARFORD RD                         000N        CARE OF             
MTR04800700001000000000000000RA              46881135    005801400000014000000520000003NN  NNW 000                       N    
RDG04800700WATRL000000004K00000000000001719000610292015113044N000400000010U27       000220400K 10000000010000001718           
CUS0480070000104061161008         DAHL ELIZABETH E    3011 OAK FOREST DR                      000N        CARE OF             
MTR04800700001000000000000000RA              01077204    005801410000014100000610000003NN  NNW 000                       N    
RDG04800700WATRL000000004K00000000000000879000710292015113348N000000000000U27       000810400K 10000000010000000863           
CUS0480070000104061162006         NANCY L PRINCIPIO   3013 OAK FOREST DR                      000N        CARE OF             
MTR04800700001000000000000000RA              01077207    005801420000014200000610000003NN  NNW 000                       N    
RDG04800700WATRL000000004K00000000000000793000810292015113457N000000000000U27       000690400K 10000000010000000779           
CUS0480070000104061163004         BRIAN WILLIAMS      3015 OAK FOREST DR                      000N        CARE OF             
MTR04800700001000000000000000RA              48596187    005801430000014300000520000003NN  NNW 000                       N    
RDG04800700WATRL000000004K00000000000001631000910292015113652N000000000000U27       001150400K 10000000010000001616           
CUS0480070000104061164002         BRICE HELEN M       3017 OAK FOREST DR                      000N        CARE OF             
MTR04800700001000000000000000RA              77889638    005801440000014400000350000003NN  NNW 000                       N    
RDG04800700WATRL000000004K00000000000000024001010292015113844N000100000010U27       001120400K 10000000010000000024           
CUS0480070000104061165009         SMITH ALBERT E,3RD  3019 OAK FOREST DR                      000N        CARE OF             
MTR04800700001000000000000000RA              99287734    005801450000014500000570000003NN  NNW 000                       N    
RDG04800700WATRL000000004K00000000000001087001110292015113942N000000000000U27       000580400K 10000000010000001073           
CUS0480070000104061166007         ATZROTT RICHARD C   3021 OAK FOREST DR                      000N        CARE OF             
MTR04800700001000000000000000RA              14918948    005801460000014600000310000003NN  NNW 000                       N    
RDG04800700WATRL000000004K00000000000000388001210292015115327N000000000001U27       008250400K 10000000010000000382           
CUS0480070000104061167005         SIMMERS EARLE G     3023 OAK FOREST DR                      000N        CARE OF             
MTR04800700001000000000000000RA              99289559    005801470000014700000570000003NN  NNW 000                       N    
RDG04800700WATRL000000004K00000000000000858001310292015115602N000000000031U27       000410400K 10000000010000000828           
CUS0480070000104061168003         LINNEMANN HERBERT B 3025 OAK FOREST DR                      000N        CARE OF             
MTR04800700001000000000000000RA              40047031    005801480000014800000520000003NN  NNW 000                       N    
RDG04800700WATRL000000004K00000000000001493001410292015115740N000000000000U27       000980400K 10000000010000001483           
CUS0480070000104061169001         KOEPPER JEFFREY D   3027 OAK FOREST DR                      000N        CARE OF             
MTR04800700001000000000000000RA              41074411    005801490000014900000520000003NN  NNW 000                       N    
RDG04800700WATRL000000004K00000000000001882001510292015115836N000000000000U27       000560400K 10000000010000001877           
CUS0480070000104061170009         HOTT DOUGLAS R,SR   3029 OAK FOREST DR                      000N        CARE OF             
MTR04800700001000000000000000RA              11336755    005801500000015000000570000003NN  NNW 000                       N    
RDG04800700WATRL000000004K00000000000003587001610292015115945N000000000010U27       000690400K 10000000010000003578           
CUS0480070000104061171007         ANTIOCH BAPTIST CHUR3033 OAK FOREST DR                      000N        CARE OF             
MTR04800700001000000000000000RA              14906291    005801510000015100000310000003NN  NNW 000                       N    
RDG04800700WATRL000000004K00000000000001862001710292015120741N000300000095U27       000290400K 10000000010000001842           
CUS0480070000104061172005         WHITED SHARON SMITH 3041 OAK FOREST DR                      000N        CARE OF             
MTR04800700001000000000000000RA              00138763    005801520000015200000570000003NN  NNW 000                       N    
RDG04800700WATRL000000004K00000000000000843001810292015120548N000000000000U27       000730400K 10000000010000000833           
CUS0480070000104061173003         TROTTA TIMOTHY J    3043 OAK FOREST DR                      000N        CARE OF             
MTR04800700001000000000000000RA              23055018    005801530000015300000520000003NN  NNW 000                       N    
RDG04800700WATRL000000004K00000000000003627001910292015120712N000000000000U27       000840400K 10000000010000003627           
CUS0480070000104061174001         ROWENS CARL A       3045 OAK FOREST DR                      000N        CARE OF             
MTR04800700001000000000000000RA              40049480    005801540000015400000520000003NN  NNW 000                       N    
RDG04800700WATRL000000004K00000000000001681002010292015120928N000000000021U27       000120400K 10000000010000001671           
CUS0480070000104061175008         HUGHES BRENDA       3047 OAK FOREST DR                      000N        CARE OF             
MTR04800700001000000000000000RA              10019120    005801550000015500000570000003NN  NNW 000                       N    
RDG04800700WATRL000000004K00000000000000322002110292015121104N000000000000U27       000960400K 10000000010000000299           
CUS0480070000104061176006         MILAN MICHAEL JOSEPH3049 OAK FOREST DR                      000N        CARE OF             
MTR04800700001000000000000000RA              99289693    005801560000015600000570000003NN  NNW 000                       N    
RDG04800700WATRL000000004K00000000000000550002210292015121214N000000000000U27       000700400K 10000000010000000541           
CUS0480070000104061177004         BRICK HOUSE PARTNERS3051 OAK FOREST DR                      000N        CARE OF             
MTR04800700001000000000000000RA              10004265    005801570000015700000570000003NN  NNW 000                       N    
RDG04800700WATRL000000004K00000000000000325002310292015121325N000000000000U27       000710400K 10000000010000000308           
CUS0480070000104061178002         PETERSON WILLIAM J  3053 OAK FOREST DR                      000N        CARE OF             
MTR04800700001000000000000000RA              45375793    005801580000015800000520000003NN  NNW 000                       N    
RDG04800700WATRL000000004K00000000000002025002410292015121539N000000000000U27       001340400K 10000000010000002004           
CUS0480070000104061179000         ZEILER ALETHIA F    3055 OAK FOREST DR                      000N        CARE OF             
MTR04800700001000000000000000RA              35099887    005801590000015900000520000003NN  NNW 000                       N    
RDG04800700WATRL000000004K00000000000001535002511032015143502O000000000031U24       000310400K 10000000010000001534           
CUS0480070000104061180008         HORSLEY CAROL J,TRUS3057 OAK FOREST DR                      000N        CARE OF             
MTR04800700001000000000000000RA              99286941    005801600000016000000570000003NN  NNW 000                       N    
RDG04800700WATRL000000004K00000000000001361002610292015122035N000300000020U27       000780400K 10000000010000001366           
CUS0480070000104061181006         OTTO MARK J         3059 OAK FOREST DR                      000N        CARE OF             
MTR04800700001000000000000000RA              24230292    005801610000016100000520000003NN  NNW 000                       N    
RDG04800700WATRL000000004K00000000000003349002710292015122158N000000000000U27       000830400K 10000000010000003335           
CUS0480070000104061182004         MIA HUPP            3061 OAK FOREST DR                      000N        CARE OF             
MTR04800700001000000000000000RA              99289689    005801620000016200000570000003NN  NNW 000                       N    
RDG04800700WATRL000000004K00000000000000915002810292015122306N000000000000U27       000680400K 10000000010000000906           
CUS0480070000104061183002         TILGHMAN JOHN W     7826 WILSON AVE                         000N        CARE OF             
MTR04800700001000000000000000RA              75614277    005801630000016300000350000003NN  NNW 000                       N    
RDG04800700WATRL000000004K00000000000000086002911032015143527O000100000041U24       000570400K 10000000010000000086           
CUS0480070000104061184000         DUFEL SCOT A        7824 WILSON AVE                         000N        CARE OF             
MTR04800700001000000000000000RA              01077200    005801640000016400000610000003NN  NNW 000                       N    
RDG04800700WATRL000000004K00000000000000740003010292015122754N000000000000U27       000630400K 10000000010000000727           
CUS0480070000104061185007         K GETTS             8103 WILSON AVE                         000N        CARE OF             
MTR04800700001000000000000000RA              01077345    005801650000016500000610000003NN  NNW 000                       N    
RDG04800700WATRL000000004K00000000000001008003110292015122850N000000000000U27       000560400K 10000000010000000998           
CUS0480070000104061186005         CORONADO RENDELL L  8105 WILSON AVE                         000N        CARE OF             
MTR04800700001000000000000000RA              14906893    005801660000016600000310000003NN  NNW 000                       N    
RDG04800700WATRL000000004K00000000000002102003210292015123013N000000000000U27       000830400K 10000000010000002082           
CUS0480070000104061187003         WARNELL STEVEN J    8107 WILSON AVE                         000N        CARE OF             
MTR04800700001000000000000000RA              74689607    005801670000016700000350000003NN  NNW 000                       N    
RDG04800700WATRL000000004K00000000000000387003310292015123139N000000000000U27       000860400K 10000000010000000344           
CUS0480070000104061188001         WILLHIDE MARK S     8109 WILSON AVE                         000N        CARE OF             
MTR04800700001000000000000000RA              32903367    005801680000016800000520000003NN  NNW 000                       N    
RDG04800700WATRL000000004K00000000000002254003410292015123304N000000000000U27       000850400K 10000000010000002227           
CUS0480070000104061189009         CLEMSEN GRAZIELLA M 8111 WILSON AVE                         000N        CARE OF             
MTR04800700001000000000000000RA              14921462    005801690000016900000310000003NN  NNW 000                       N    
RDG04800700WATRL000000004K00000000000000831003510292015123515N000000000000U27       000740400K 10000000010000000809           
CUS0480070000104061190007         ANGELA D'APICE      8113 WILSON AVE                         000N        CARE OF             
MTR04800700001000000000000000RA              01077203    005801700000017000000610000003NN  NNW 000                       N    
RDG04800700WATRL000000004K00000000000000665003610292015123632N000000000000U27       000770400K 10000000010000000660           
CUS0480070000104061191005         COFFEY ANN M        8115 WILSON AVE                         000N        CARE OF             
MTR04800700001000000000000000RA              99999999    005801710000017100000350000003NN  NNW 000                       N    
RDG04800700WATRL000000004K00000000000000771003710292015123750N000000000000U27       000780400K 10000000010000000747           
CUS0480070000104061192003         QUINN HANNAH E      3058 OAK FOREST DR                      000N        CARE OF             
MTR04800700001000000000000000RA              27818269    005801720000017200000520000003NN  NNW 000                       N    
RDG04800700WATRL000000004K00000000000002837003810292015124029N000000000000U27       001590400K 10000000010000002830           
CUS0480070000104061193001         DUNKES PATRICK A    3056 OAK FOREST DR                      000N        CARE OF             
MTR04800700001000000000000000RA              01109985    005801730000017300000610000003NN  NNW 000                       N    
RDG04800700WATRL000000004K00000000000001052003910292015124210N000000000000U27       001010400K 10000000010000001041           
CUS0480070000104061194009         DOBRY CHARLES J,JR  3054 OAK FOREST DR                      000N        CARE OF             
MTR04800700001000000000000000RA              36694954    005801740000017400000520000003NN  NNW 000                       N    
RDG04800700WATRL000000004K00000000000002757004010292015124335N000000000000U27       000850400K 10000000010000002748           
CUS0480070000104061195006         CONNELLY MARY E     3052 OAK FOREST DR                      000N        CARE OF             
MTR04800700001000000000000000RA              26008674    005801750000017500000520000003NN  NNW 000                       N    
RDG04800700WATRL000000004K00000000000002310004110292015124510N000000000000U27       000950400K 10000000010000002295           
CUS0480070000104061196004         HARVEY JUDITH ANN   3050 OAK FOREST DR                      000N        CARE OF             
MTR04800700001000000000000000RA              75424610    005801760000017600000350000003NN  NNW 000                       N    
RDG04800700WATRL000000004K00000000000000194004210292015124644N000000000000U27       000940400K 10000000010000000174           
CUS0480070000104061197002         BROWN WILLIAM JOHN  3048 OAK FOREST DR                      000N        CARE OF             
MTR04800700001000000000000000RA              75617148    005801770000017700000350000003NN  NNW 000                       N    
RDG04800700WATRL000000004K00000000000000162004310292015124750N000000000000U27       000660400K 10000000010000000144           
CUS0480070000104061198000         STROUP CARL         3046 OAK FOREST DR                      000N        CARE OF             
MTR04800700001000000000000000RA              14921691    005801780000017800000310000003NN  NNW 000                       N    
RDG04800700WATRL000000004K00000000000001054004410292015124909N000000000000U27       000790400K 10000000010000001005           
CUS0480070000104061199008         BURNS DARA J        3044 OAK FOREST DR                      000N        CARE OF             
MTR04800700001000000000000000RA              99188046    005801790000017900000570000003NN  NNW 000                       N    
RDG04800700WATRL000000004K00000000000001794004510292015125100N000000000000U27       001110400K 10000000010000001780           
CUS0480070000104061200004         BECKER GARY E       3042 OAK FOREST DR                      000N        CARE OF             
MTR04800700001000000000000000RA              50476272    005801800000018000000520000003NN  NNW 000                       N    
RDG04800700WATRL000000004K00000000000000462004610292015125333N000000000000U27       001530400K 10000000010000000459           
CUS0480070000104061201002         MYERS CARLETON RYAN 3040 OAK FOREST DR                      000N        CARE OF             
MTR04800700001000000000000000RA              10006782    005801810000018100000570000003NN  NNW 000                       N    
RDG04800700WATRL000000004K00000000000000352004710292015125514N000000000000U27       001010400K 10000000010000000342           
CUS0480070000104061202000         MELISSA MAYES       3038 OAK FOREST DR                      000N        CARE OF             
MTR04800700001000000000000000RA              46887738    005801820000018200000520000003NN  NNW 000                       N    
RDG04800700WATRL000000004K00000000000001154004810292015125611N000000000000U27       000570400K 10000000010000001114           
CUS0480070000104061203008         SEO YOUNG           3036 OAK FOREST DR                      000N        CARE OF             
MTR04800700001000000000000000RA              99289692    005801830000018300000570000003NN  NNW 000                       N    
RDG04800700WATRL000000004K00000000000001197004910292015125825N000000000000U27       001340400K 10000000010000001168           
CUS0480070000104061204006         CODDINGTON PRESTON W3034 OAK FOREST DR                      000N        CARE OF             
MTR04800700001000000000000000RA              01087523    005801840000018400000610000003NN  NNW 000                       N    
RDG04800700WATRL000000004K00000000000000954005010292015130000N000000000000U27       000950400K 10000000010000000913           
CUS0480070000104061205003         GOLIMOWSKI FRANK A  3032 OAK FOREST DR                      000N        CARE OF             
MTR04800700001000000000000000RA              01077209    005801850000018500000610000003NN  NNW 000   VACANT / LOT        N    
RDG04800700WATRL000000004K00000000000000740005110292015130224N000000000000U27       001440400K 10000000010000000740           
CUS0480070000104061206001         BUZEK JOSEPHINE S   3030 OAK FOREST DR                      000N        CARE OF             
MTR04800700001000000000000000RA              10008219    005801860000018600000570000003NN  NNW 000                       N    
RDG04800700WATRL000000004K00000000000000976005210292015130327N000000000000U27       000630400K 10000000010000000938           
CUS0480070000104061207009         FOWLER HELEN ELFLEDA3028 OAK FOREST DR                      000N        CARE OF             
MTR04800700001000000000000000RA              75424613    005801870000018700000350000003NN  NNW 000                       N    
RDG04800700WATRL000000004K00000000000001784005310292015130440N000000000000U27       000730400K 10000000010000001755           
CUS0480070000104061208007         MINTON LEO B        3026 OAK FOREST DR                      000N        CARE OF             
MTR04800700001000000000000000RA              01075974    005801880000018800000610000003NN  NNW 000                       N    
RDG04800700WATRL000000004K00000000000000642005410292015130606N000400000010U27       000860400K 10000000010000000641           
CUS0480070000104061209005         BYRD CRYSTAL        3024 OAK FOREST DR                      000N        CARE OF             
MTR04800700001000000000000000RA              23055020    005801890000018900000520000003NN  NNW 000                       N    
RDG04800700WATRL000000004K00000000000002489005510292015130711N000000000000U27       000650400K 10000000010000002457           
CUS0480070000104061210003         MYERS CARRIE        3022 OAK FOREST DR                      000N        CARE OF             
MTR04800700001000000000000000RA              01076924    005801900000019000000610000003NN  NNW 000                       N    
RDG04800700WATRL000000004K00000000000000865005610292015130826N000000000000U27       000750400K 10000000010000000857           
CUS0480070000104061211001         KOSKI ALAN L        3020 OAK FOREST DR                      000N        CARE OF             
MTR04800700001000000000000000RA              38985362    005801910000019100000520000003NN  NNW 000                       N    
RDG04800700WATRL000000004K00000000000001519005710292015131730N000000000000U27       005440400K 10000000010000001506           
CUS0480070000104061212009         WEISHAMPEL DAVID B  3018 OAK FOREST DR                      000N        CARE OF             
MTR04800700001000000000000000RA              01114503    005801920000019200000610000003NN  NNW 000                       N    
RDG04800700WATRL000000004K00000000000000902005810292015131841N000000000000U27       000710400K 10000000010000000899           
CUS0480070000104061213007         STEPHEN G HOLLOWAY  3016 OAK FOREST DR                      000N        CARE OF             
MTR04800700001000000000000000RA              99388025    005801930000019300000570000003NN  NNW 000                       N    
RDG04800700WATRL000000004K00000000000001082005910292015131955N000000000000U27       000740400K 10000000010000001072           
CUS0480070000104061214005         IHIM NNENNE DAISY U 3014 OAK FOREST DR                      000N        CARE OF             
MTR04800700001000000000000000RA              14911390    005801940000019400000310000003NN  NNW 000                       N    
RDG04800700WATRL000000004K00000000000001180006010292015132114N000000000000U27       000790400K 10000000010000001154           
CUS0480070000104061215002         SMOOT JOHN F        3012 OAK FOREST DR                      000N        CARE OF             
MTR04800700001000000000000000RA              50476616    005801950000019500000520000003NN  NNW 000                       N    
RDG04800700WATRL000000004K00000000000000668006110292015132226N000000000000U27       000720400K 10000000010000000660           
CUS0480070000104061216000         DOWDY RUDOLPH C     3010 OAK FOREST DR                      000N        CARE OF             
MTR04800700001000000000000000RA              14925492    005801960000019600000310000003NN  NNW 000                       N    
RDG04800700WATRL000000004K00000000000000919006210292015132423N000000000000U27       001170400K 10000000010000000891           
CUS0480070000104061217008         LEWIS MICHAEL       3008 OAK FOREST DR                      000N        CARE OF             
MTR04800700001000000000000000RA              10002557    005801970000019700000570000003NN  NNW 000                       N    
RDG04800700WATRL000000004K00000000000000373006310292015132617N000000000000U27       001140400K 10000000010000000353           
CUS0480070000104061218006         STANLEY ROBIN       3006 OAK FOREST DR                      000N        CARE OF             
MTR04800700001000000000000000RA              99289562    005801980000019800000570000003NN  NNW 000                       N    
RDG04800700WATRL000000004K00000000000000237006410292015132723N000000000000U27       000660400K 10000000010000000218           
CUS0480070000104061219004         RICHARD MCWILLIAMS  3004 OAK FOREST DR                      000N        CARE OF             
MTR04800700001000000000000000RA              24234408    005801990000019900000520000003NN  NNW 000                       N    
RDG04800700WATRL000000004K00000000000001445006510292015132907N000000000000U27       001040400K 10000000010000001437           
CUS0480070000104061220002         DIFATTA LLC         NS OAK FOREST DR 75FT                   000N        CARE OF             
MTR04800700001000000000000000RA              01108466    005802000000020000000610000003NN  NNW 000                       N    
RDG04800700WATRL000000004K00000000000002250006610292015133029N000000000000U27       000820400K 10000000010000002001           
RTR04800700NN02000200000002000000000002000200000312NY020002000200000000000000000000000000000001    10262015NY020000 N         
RHD02117000NN00140107000000140000009301070107000007NY010701070107000000000000000000000000000001    10132015NY020000 N         
CUS0211700000109257211004         DEPT OF FINANCE     4924-42 REISTERSTOWN RD                 000N        CARE OF             
MTR02117000001000000000000000RA              99999999    007500010000000100000620000003NN  NNW 000                       N    
RDG02117000WATRL000000004K00000000000000000000111032015102841N000000000000U26       000000400K 10000000010000000000           
CUS0211700000102307233003         MURRIEL, WILLIE H   4924 REISTERSTOWN RD                    000N        CARE OF             
MTR02117000001000000000000000RA              79262285    005800020000000200000360000003NN  NNW 000                       N    
RDG02117000WATR 000000004R00000000000000081000011022015110000N0003000000?0N         000000400R 10000000010000000000           
RFF0211700069352031      ERT      0000  956.44375000140000110220151100000000814078100W 1220000N                               
CUS0211700000102307236006         K & K RENTAL INVESTM4914 REISTERSTOWN RD                    000N        CARE OF             
MTR02117000001000000000000000RA              77882622    005800030000000300000360000003NN  NNW 000                       N    
RDG02117000WATR 000000004R00000000000000000000011032015180000N0001000000@0N         000000400R 10000000010000000000           
RFF0211700068384462      ERT      0000  956.44375000140000110320151800000000000020100W 1220000N                               
CUS0211700000102307237004         NOUNKE, STEVE ARNAUD4912 REISTERSTOWN RD                    000N        CARE OF             
MTR02117000001000000000000000RA              77882513    005800040000000400000360000003NN  NNW 000                       N    
RDG02117000WATR 000000004R00000000000000077000011032015180000N0001000000@0N         000000400R 10000000010000000077           
RFF0211700068384567      ERT      0000  956.44375000140000110320151800000000775111100W 1220000N                               
CUS0211700000102307238002         4910 REISTERSTOWN RD4910 REISTERSTOWN RD                    000N        CARE OF             
MTR02117000001000000000000000RA              01095565    005800050000000500000610000000NN  NNW 000   VACANT PROPERTY     N    
RDG02117000WATRL000000004K00000000000000205000211032015102843N000000000000U26       000020400K 10000000010000000205           
CUS0211700000102307239000         4910 REISTERSTOWN RD4908 REISTERSTOWN RD                    000N        CARE OF             
MTR02117000001000000000000000RA              77882510    005800060000000600000360000003NN  NNW 000   VACANT PROPERTY     N    
RDG02117000WATR 000000004R00000000000000000000011032015180000N0001000000@0N         000000400R 10000000010000000000           
RFF0211700068384562      ERT      0000  956.44375000140000110320151800000000000020100W 1220000N                               
CUS0211700000102307240008         4910 REISTERSTOWN RD4906 REISTERSTOWN RD                    000N        CARE OF             
MTR02117000001000000000000000RA              77882511    005800070000000700000360000003NN  NNW 000   VACANT PROPERTY     N    
RDG02117000WATR 000000004R00000000000000000000011032015180000N0001000000@0N         000000400R 10000000010000000000           
RFF0211700068384548      ERT      0000  956.44375000140000110320151800000000000020100W 1220000N                               
CUS0211700000102307241006         GONZALES, ZENON A   4904 REISTERSTOWN RD                    000N        CARE OF             
MTR02117000001000000000000000RA              77882557    005800080000000800000360000003NN  NNW 000                       N    
RDG02117000WATRL000000004R00000000000000020001511032015103118N000000000020U26       000560400K 10000000010000000011           
RFF0211700068345667      ERT      0000  956.4437500014000000000000000000                  0001Y                               
CUS0211700000102307242004         MND DEVELOPMENT, LLC4902 REISTERSTOWN RD                    000N        CARE OF             
MTR02117000001000000000000000RA              35114956    005800090000000900000520000003NN  NNW 000   VACANT PROPERTY     N    
RDG02117000WATRL000000004K00000000000000082000311032015102849N000000000000U26       000060400K 10000000010000000082           
CUS0211700000102307243002         LEI, KUAI PENG      4900 REISTERSTOWN RD                    000N        CARE OF             
MTR02117000001000000000000000RA              77882514    005800100000001000000360000003NN  NNW 000                       N    
RDG02117000WATR 000000004R00000000000000082000011032015180000N000000000000N         000000400R 10000000010000000063           
RFF0211700068384552      ERT      0000  956.44375000140000110320151800000000828369100W 1220000N                               
CUS0211700000102307244000         ANGE M GOUSSE       4900 SNADER AVE                         000N        CARE OF             
MTR02117000001000000000000000RA              77894312    007500110000001100000360000003NN  NNW 000                       N    
RDG02117000WATR 000000004R00000000000000374000011032015180000N0003000000@0N         000000400R 10000000010000000051           
RFF0211700068531373      ERT      0000  956.44375000140000110320151800000003747373100W 1220000N                               
CUS0211700000102307247003         MIST, LLC           3811 FEAR AVE                           000N        CARE OF             
MTR02117000001000000000000000RA              76347599    005800120000001200000360000003NN  NNW 000                       N    
RDG02117000WATR 000000004R00000000000000024000011032015180000N000000000000N         000000400R 10000000010000000022           
RFF0211700068531371      ERT      0000  956.44375000140000110320151800000000243984100W 1220000N                               
CUS0211700000102307248001         BAZEMORE, JOHN      3805 FEAR AVE                           000N        CARE OF             
MTR02117000001000000000000000RA              77879602    005800130000001300000360000003NN  NNW 000                       N    
RDG02117000WATR 000000004R00000000000000004000011032015180000N000000000000N         000000400R 10000000010000000003           
RFF0211700068312041      ERT      0000  956.44375000140000110320151800000000048387100W 1220000N                               
CUS0211700000102307250007         WRIGHT, SAMUEL H.   4856 REISTERSTOWN RD                    000N        CARE OF             
MTR02117000001000000000000000RA              76347417    005800140000001400000360000003NN  NNW 000                       N    
RDG02117000WATR 000000004R00000000000000000000011032015180000N0001000000@0N         000000400R 10000000010000000000           
RFF0211700068276234      ERT      0000  956.44375000140000110320151800000000000642100W 1220000N                               
CUS0211700000102307251005         CANDELARIO JR., RONN4854 REISTERSTOWN RD                    000N        CARE OF             
MTR02117000001000000000000000RA              77887528    005800150000001500000360000000NN  NNW 000   VACANT PROPERTY     N    
RDG02117000WATRL000000004K00000000000000000000411032015102852N000000000000U26       000030400K 10000000010000000000           
CUS0211700000102307252003         NEBLETT, TRICIA     4852 REISTERSTOWN RD                    000N        CARE OF             
MTR02117000001000000000000000RA              10003469    005800160000001600000570000003NN  NNW 000   VACANT PROPERTY     N    
RDG02117000WATRL000000004K00000000000000106000511032015102855N000000000000U26       000030400K 10000000010000000106           
CUS0211700000102307254009         VICTORY PRAYER CHAPE4848 REISTERSTOWN RD                    000N        CARE OF             
MTR02117000001000000000000000RA              77882310    005800170000001700000360000003NN  NNW 000                       N    
RDG02117000WATR 000000004R00000000000000000000011032015180000N0001000000@0N         000000400R 10000000010000000000           
RFF0211700068384551      ERT      0000  956.44375000140000110320151800000000000014100W 1220000N                               
CUS0211700000102307256004         BALTIMORE CENTRAL CH4820-44 REISTERSTOWN RD                 000N        CARE OF             
MTR02117000001000000000000000RA              76349459    007500180000001800000360000003NN  NNW 000                       N    
RDG02117000WATR 000000004R00000000000000255000011032015180000N000000000000N         000000400R 10000000010000000242           
RFF0211700068531369      ERT      0000  956.44375000140000110320151800000002550335100W 1220000N                               
CUS0211700000102307257002         FLEET, KATIE        4801 SNADER AVE                         000N        CARE OF             
MTR02117000001000000000000000RA              78022430    005800190000001900000360000003NN  NNW 000                       N    
RDG02117000WATR 000000004R00000000000000017000011032015180000N0003000000@0N         000000400R 10000000010000000005           
RFF0211700068275944      ERT      0000  956.44375000140000110320151800000000173202100W 1220000N                               
CUS0211700000102307258000         JENNINGS, RICO      4803 SNADER AVE                         000N        CARE OF             
MTR02117000001000000000000000RA              24760165    005800200000002000000520000003NN  NNW 000   VACANT PROPERTY     N    
RDG02117000WATRL000000004K00000000000003073000611032015102858N000000000000U26       000030400K 10000000010000003073           
CUS0211700000102307259008         WRIGHT, REGINA E    4805 SNADER AVE                         000N        CARE OF             
MTR02117000001000000000000000RA              77884732    005800210000002100000360000003NN  NNW 000                       N    
RDG02117000WATR 000000004R00000000000000000000011032015180000N000100000070N         000000400R 10000000010000000052           
RFF0211700068345732      ERT      0000  956.44375000140000110320151800000000003294100W 1220000N                               
CUS0211700000102307260006         HERBERT R MURDOCK   4807 SNADER AVE                         000N        CARE OF             
MTR02117000001000000000000000RA              77884733    005800220000002200000360000003NN  NNW 000                       N    
RDG02117000WATR 000000004R00000000000000037000011032015180000N000000000000N         000000400R 10000000010000000026           
RFF0211700068345739      ERT      0000  956.44375000140000110320151800000000370620100W 1220000N                               
CUS0211700000102307261004         DAVIS, MARY O       4809 SNADER AVE                         000N        CARE OF             
MTR02117000001000000000000000RA              77884731    005800230000002300000360000003NN  NNW 000                       N    
RDG02117000WATR 000000004R00000000000000043000011032015180000N0004000000@0N         000000400R 10000000010000000042           
RFF0211700068345566      ERT      0000  956.44375000140000110320151800000000432782100W 1220000N                               
CUS0211700000102307262002         JAMES K JONES       4811 SNADER AVE                         000N        CARE OF             
MTR02117000001000000000000000RA              76344600    005800240000002400000360000003NN  NNW 000                       N    
RDG02117000WATR 000000004R00000000000000219000011032015180000N000000000000N         000000400R 10000000010000000181           
RFF0211700068275994      ERT      0000  956.44375000140000110320151800000002193755100W 1220000N                               
CUS0211700000102307263000         JEFFERSON, TONI     4813 SNADER AVE                         000N        CARE OF             
MTR02117000001000000000000000RA              77884729    005800250000002500000360000003NN  NNW 000                       N    
RDG02117000WATR 000000004R00000000000000048000011032015180000N000000000010N         000000400R 10000000010000000041           
RFF0211700068345655      ERT      0000  956.44375000140000110320151800000000486404100W 1220000N                               
CUS0211700000102307264008         GWENDOLYN L HARRIS  4815 SNADER AVE                         000N        CARE OF             
MTR02117000001000000000000000RA              77884730    005800260000002600000360000003NN  NNW 000                       N    
RDG02117000WATR 000000004R00000000000000049000011032015180000N000000000000N         000000400R 10000000010000000039           
RFF0211700068345646      ERT      0000  956.44375000140000110320151800000000499767100W 1220000N                               
CUS0211700000102307265005         WASHINGTON, JIMMIE  3820 LEWIN AVE                          000N        CARE OF             
MTR02117000001000000000000000RA              77892272    007500270000002700000360000003NN  NNW 000                       N    
RDG02117000WATR 000000004R00000000000000000000011032015180000N0001000000@0N         000000400R 10000000010000000000           
RFF0211700068275947      ERT      0000  956.44375000140000110320151800000000000020100W 1220000N                               
CUS0211700000102307266003         3834 LEWIN AVENUE, L3834 LEWIN AVE                          000N        CARE OF             
MTR02117000001000000000000000RA              77884842    005800280000002800000360000003NN  NNW 000                       N    
RDG02117000WATR 000000004R00000000000000164000011032015180000N0000000000>0N         000000400R 10000000010000000139           
RFF0211700068345296      ERT      0000  956.44375000140000110320151800000001647136100W 1220000N                               
CUS0211700000102307267001         CURTIS FLOOD        3835 LEWIN AVE                          000N        CARE OF             
MTR02117000001000000000000000RA              78941418    005800290000002900000360000003NN  NNW 000                       N    
RDG02117000WATR 000000004R00000000000000042000011032015180000N000000000000N         000000400R 10000000010000000024           
RFF0211700069016792      ERT      0000  956.44375000140000110320151800000000425740100W 1220000N                               
CUS0211700000102307268009         MELLERSON, PHILLIP  3833 LEWIN AVE                          000N        CARE OF             
MTR02117000001000000000000000RA              78941417    005800300000003000000360000003NN  NNW 000                       N    
RDG02117000WATR 000000004R00000000000000042000011032015180000N000000000000N         000000400R 10000000010000000021           
RFF0211700069016766      ERT      0000  956.44375000140000110320151800000000421233100W 1220000N                               
CUS0211700000102307269007         LONNIE J MILLER     3831 LEWIN AVE                          000N        CARE OF             
MTR02117000001000000000000000RA              78941404    005800310000003100000360000003NN  NNW 000                       N    
RDG02117000WATR 000000004R00000000000000042000011032015180000N000000000000N         000000400R 10000000010000000023           
RFF0211700069015794      ERT      0000  956.44375000140000110320151800000000420085100W 1220000N                               
CUS0211700000102307270005         CHESTER RUFFIN & WF 3829 LEWIN AVE                          000N        CARE OF             
MTR02117000001000000000000000RA              78941405    005800320000003200000360000003NN  NNW 000                       N    
RDG02117000WATR 000000004R00000000000000012000011032015180000N0003000000;0N         000000400R 10000000010000000000           
RFF0211700069015828      ERT      0000  956.44375000140000110320151800000000125903100W 1220000N                               
CUS0211700000102307271003         JACKSON, RETHA M    3827 LEWIN AVE                          000N        CARE OF             
MTR02117000001000000000000000RA              78941403    005800330000003300000360000003NN  NNW 000                       N    
RDG02117000WATR 000000004R00000000000000015000011032015130000N000000000000N         000000400R 10000000010000000009           
RFF0211700069015812      ERT      0000  956.44375000140000110320151300000000156055100W 1220000N                               
CUS0211700000102307272001         COLEMAN, ADAIREOUS  3825 LEWIN AVE                          000N        CARE OF             
MTR02117000001000000000000000RA              78941408    005800340000003400000360000003NN  NNW 000                       N    
RDG02117000WATR 000000004R00000000000000002000011032015180000N0001000000@0N         000000400R 10000000010000000002           
RFF0211700069015687      ERT      0000  956.44375000140000110320151800000000021424100W 1220000N                               
CUS0211700000102307273009         LEROY BROWN         3823 LEWIN AVE                          000N        CARE OF             
MTR02117000001000000000000000RA              78941406    005800350000003500000360000003NN  NNW 000                       N    
RDG02117000WATR 000000004R00000000000000015000011032015180000N000000000050N         000000400R 10000000010000000009           
RFF0211700069015818      ERT      0000  956.44375000140000110320151800000000150078100W 1220000N                               
CUS0211700000102307274007         ANDREW & LILLIE L ER3821 LEWIN AVE                          000N        CARE OF             
MTR02117000001000000000000000RA              78941407    005800360000003600000360000003NN  NNW 000                       N    
RDG02117000WATR 000000004R00000000000000017000011032015180000N000000000000N         000000400R 10000000010000000009           
RFF0211700069015840      ERT      0000  956.44375000140000110320151800000000174891100W 1220000N                               
CUS0211700000102307275004         ARCHER-EL, BRUCE A. 3819 LEWIN AVE                          000N        CARE OF             
MTR02117000001000000000000000RA              78941220    005800370000003700000360000003NN  NNW 000                       N    
RDG02117000WATR 000000004R00000000000000033000011032015180000N000000000000N         000000400R 10000000010000000018           
RFF0211700069015856      ERT      0000  956.44375000140000110320151800000000336657100W 1220000N                               
CUS0211700000102307276002         MCNEIL, MABLE       3817 LEWIN AVE                          000N        CARE OF             
MTR02117000001000000000000000RA              78941219    005800380000003800000360000003NN  NNW 000                       N    
RDG02117000WATR 000000004R00000000000000015000011032015180000N000000000030N         000000400R 10000000010000000009           
RFF0211700069015862      ERT      0000  956.44375000140000110320151800000000153802100W 1220000N                               
CUS0211700000102307277000         CLARENCE L WINDHAM &3815 LEWIN AVE                          000N        CARE OF             
MTR02117000001000000000000000RA              78940835    005800390000003900000360000003NN  NNW 000                       N    
RDG02117000WATR 000000004R00000000000000025000011032015180000N000000000010N         000000400R 10000000010000000015           
RFF0211700069045415      ERT      0000  956.44375000140000110320151800000000258659100W 1220000N                               
CUS0211700000102307278008         DICKEY, ROBIN       3813 LEWIN AVE                          000N        CARE OF             
MTR02117000001000000000000000RA              78940834    005800400000004000000360000003NN  NNW 000                       N    
RDG02117000WATR 000000004R00000000000000026000011032015180000N000000000000N         000000400R 10000000010000000014           
RFF0211700069045406      ERT      0000  956.44375000140000110320151800000000262402100W 1220000N                               
CUS0211700000102307279006         ELLIS, CALVIN       3811 LEWIN AVE                          000N        CARE OF             
MTR02117000001000000000000000RA              78940838    005800410000004100000360000003NN  NNW 000                       N    
RDG02117000WATR 000000004R00000000000000015000011032015180000N000000000000N         000000400R 10000000010000000008           
RFF0211700069045410      ERT      0000  956.44375000140000110320151800000000155085100W 1220000N                               
CUS0211700000102307280004         JOYCE CROSBY        3809 LEWIN AVE                          000N        CARE OF             
MTR02117000001000000000000000RA              78940836    005800420000004200000360000003NN  NNW 000                       N    
RDG02117000WATR 000000004R00000000000000011000011032015180000N000000000000N         000000400R 10000000010000000006           
RFF0211700069045395      ERT      0000  956.44375000140000110320151800000000118386100W 1220000N                               
CUS0211700000102307281002         METZLER, PAUL J     3807 LEWIN AVE                          000N        CARE OF             
MTR02117000001000000000000000RA              78940837    005800430000004300000360000003NN  NNW 000                       N    
RDG02117000WATR 000000004R00000000000000041000011032015180000N000000000000N         000000400R 10000000010000000021           
RFF0211700069045419      ERT      0000  956.44375000140000110320151800000000410605100W 1220000N                               
CUS0211700000102307282000         TDC INVESTMENTS, LLC3805 LEWIN AVE                          000N        CARE OF             
MTR02117000001000000000000000RA              78940833    005800440000004400000360000003NN  NNW 000                       N    
RDG02117000WATR 000000004R00000000000000022000011032015180000N000000000000N         000000400R 10000000010000000012           
RFF0211700069045477      ERT      0000  956.44375000140000110320151800000000222621100W 1220000N                               
CUS0211700000102307283008         TERRY L SHIPP       3803 LEWIN AVE                          000N        CARE OF             
MTR02117000001000000000000000RA              27828635    005800450000004500000520000003NN  NNW 000                       N    
RDG02117000WATRL000000004K00000000000002766000711032015102955N000000000000U26       000570400K 10000000010000002756           
CUS0211700000102307284006         4818 REISTERSTOWN LL4818 REISTERSTOWN RD                    000N        CARE OF             
MTR02117000001000000000000000RA              14909368    005800460000004600000310000003NN  NNW 000   VACANT PROPERTY     N    
RDG02117000WATRL000000004K00000000000000000000811032015102957N000000000000U26       000020400K 10000000010000000000           
CUS0211700000102307285003         HARDY, JEFFREY      4816 REISTERSTOWN RD                    000N        CARE OF             
MTR02117000001000000000000000RA              78941416    005800470000004700000360000003NN  NNW 000                       N    
RDG02117000WATR 000000004R00000000000000063000011032015180000N0004000000@0N         000000400R 10000000010000000045           
RFF0211700069016781      ERT      0000  956.44375000140000110320151800000000639947100W 1220000N                               
