FHDNNNN014003243003243003243N                                                                                           010392
RHD08519000NN02100210000002100000000002100210000317NY021002100210000000000000000000000000000002    10072015NY020000 N         
CUS0851900000108010400003         FLANIGAN LINDELL I  5630 CARVILLE AVE                       000N        CARE OF             
MTR08519000001000000000000000RA              01100934    005800010000000100000610000003NN  NNW 000                       N    
RDG08519000WATRL000000004K00000000000001606000110132015091449N000000000000N27       000000400K 10000000010000001581           
CUS0851900000108010401001         FIELDS CYNTHIA      5632 CARVILLE AVE                       000N        CARE OF             
MTR08519000001000000000000000RA              27134384    005800020000000200000520000003NN  NNW 000                       N    
RDG08519000WATRL000000004K00000000000002436000210132015091518N000000000000N27       000290400K 10000000010000002420           
CUS0851900000108010402009         BIDDINGER CHARLES E 5634 CARVILLE AVE                       000N        CARE OF             
MTR08519000001000000000000000RA              20968908    005800030000000300000520000003NN  NNW 000                       N    
RDG08519000WATRL000000004K00000000000004273000310132015091549N000000000000N27       000310400K 10000000010000004246           
CUS0851900000108010403007         STANLEY F/MARY E SIM5636 CARVILLE AVE                       000N        CARE OF             
MTR08519000001000000000000000RA              48585041    005800040000000400000520000003NN  NNW 000                       N    
RDG08519000WATRL000000004K00000000000001171000411052015080834O000400000010N80       000830400K 10000000010000001165           
CUS0851900000108010404005         MYRA WOOLERY        5638 CARVILLE AVE                       000N        CARE OF             
MTR08519000001000000000000000RA              32898176    005800050000000500000520000003NN  NNW 000                       N    
RDG08519000WATRL000000004K00000000000000937000510132015091813N000300000010N27       000610400K 10000000010000000938           
CUS0851900000108010405002         PAULINE THORNTON    5640 CARVILLE AVE                       000N        CARE OF             
MTR08519000001000000000000000RA              14900361    005800060000000600000310000003NN  NNW 000                       N    
RDG08519000WATRL000000004K00000000000001099000610132015091850N000000000000N27       000370400K 10000000010000001024           
CUS0851900000108010406000         DOWNEY ANTOINETTE MA5642 CARVILLE AVE                       000N        CARE OF             
MTR08519000001000000000000000RA              46875112    005800070000000700000520000003NN  NNW 000                       N    
RDG08519000WATRL000000004K00000000000002881000710132015091922N000000000000N27       000320400K 10000000010000002877           
CUS0851900000108010407008         WAGNER DARLA PATRICI5644 CARVILLE AVE                       000N        CARE OF             
MTR08519000001000000000000000RA              46875325    005800080000000800000520000003NN  NNW 000                       N    
RDG08519000WATRL000000004K00000000000002097000810132015091943N000000000000N27       000210400K 10000000010000002080           
CUS0851900000108010408006         BEATRICE V WHEELER  5646 CARVILLE AVE                       000N        CARE OF             
MTR08519000001000000000000000RA              77889249    005800090000000900000360000003NN  NNW 000                       N    
RDG08519000WATRL000000004K00000000000000012000910132015092018N000000000010N27       000350400K 10000000010000000000           
CUS0851900000108010409004         DAWSON LYNN E       5648 CARVILLE AVE                       000N        CARE OF             
MTR08519000001000000000000000RA              46875328    005800100000001000000520000003NN  NNW 000                       N    
RDG08519000WATRL000000004K00000000000000825001010132015092058N000000000000N27       000400400K 10000000010000000820           
CUS0851900000108010410002         WASHINGTON ROAD LLC 5650 CARVILLE AVE                       000N        CARE OF             
MTR08519000001000000000000000RA              23051720    005800110000001100000520000003NN  NNW 000                       N    
RDG08519000WATRL000000004K00000000000005407001110132015092149N000000000000N27       000510400K 10000000010000005369           
CUS0851900000108010411000         BALDWIN BONITA M    5654 CARVILLE AVE                       000N        CARE OF             
MTR08519000001000000000000000RA              23051618    005800120000001200000520000003NN  NNW 000                       N    
RDG08519000WATRL000000004K00000000000007392001210132015092309N000000000000N27       000800400K 10000000010000007348           
CUS0851900000108010412008         HALETHORPE COMMUNITY1316 FRANCIS AVE                        000N        CARE OF             
MTR08519000001000000000000000RA              32898175    005800130000001300000520000003NN  NNW 000                       N    
RDG08519000WATRL000000004K00000000000001176001310132015092417N000300000010N27       000680400K 10000000010000001170           
CUS0851900000108010413006         HALETHORPE COMMUNITY1314 FRANCIS AVE                        000N        CARE OF             
MTR08519000001000000000000000RA              29681452    005800140000001400000520000003NN  NNW 000                       N    
RDG08519000WATRL000000004K00000000000002724001410132015092436N000000000000N27       000190400K 10000000010000002705           
CUS0851900000108010414004         HALETHORPE COMMUNITY1312 FRANCIS AVE                        000N        CARE OF             
MTR08519000001000000000000000RA              41076004    005800150000001500000520000003NN  NNW 000                       N    
RDG08519000WATRL000000004K00000000000005355001510132015092536N000000000000N27       000600400K 10000000010000005296           
CUS0851900000108010415001         BOYD MICHAEL JAMES  1304 FRANCIS AVE                        000N        CARE OF             
MTR08519000001000000000000000RA              26015843    005800160000001600000520000003NN  NNW 000                       N    
RDG08519000WATRL000000004K00000000000004813001610132015092630N000000000000N27       000540400K 10000000010000004806           
CUS0851900000108010416009         MARTINDALE EILEEN F 1302 FRANCIS AVE                        000N        CARE OF             
MTR08519000001000000000000000RA              30516908    005800170000001700000520000003NN  NNW 000                       N    
RDG08519000WATRL000000004K00000000000003194001710132015092655N000000000000N27       000250400K 10000000010000003176           
CUS0851900000108010417007         RITTENHOUSE-DIETERIC1300 FRANCIS AVE                        000N        CARE OF             
MTR08519000001000000000000000RA              01084723    005800180000001800000610000003NN  NNW 000                       N    
RDG08519000WATRL000000004K00000000000001250001810132015092714N000000000000N27       000190400K 10000000010000001234           
CUS0851900000108008702006         DESKINS DONALD L    5639 ASHBOURNE RD                       000N        CARE OF             
MTR08519000001000000000000000RA              42808749    005800190000001900000520000003NN  NNW 000                       N    
RDG08519000WATRL000000004K00000000000003122001910132015092816N000000000000N27       000620400K 10000000010000003111           
CUS0851900000108008703004         MICHAEL TUCKER      5637 ASHBOURNE RD                       000N        CARE OF             
MTR08519000001000000000000000RA              39290763    005800200000002000000520000003NN  NNW 000                       N    
RDG08519000WATRL000000004K00000000000003183002010132015092849N000000000000N27       000330400K 10000000010000003135           
CUS0851900000108008704002         HAMMERSTEIN TED     5635 ASHBOURNE RD                       000N        CARE OF             
MTR08519000001000000000000000RA              41076976    005800210000002100000520000003NN  NNW 000                       N    
RDG08519000WATRL000000004K00000000000001806002110132015092933N000000000000N27       000440400K 10000000010000001782           
CUS0851900000108008705009         CATHER JEFFREY S    5633 ASHBOURNE RD                       000N        CARE OF             
MTR08519000001000000000000000RA              26003574    005800220000002200000520000003NN  NNW 000                       N    
RDG08519000WATRL000000004K00000000000004436002210132015093010N000400000010N27       000370400K 10000000010000004429           
CUS0851900000108008706007         SMITH KEVIN D       5631 ASHBOURNE RD                       000N        CARE OF             
MTR08519000001000000000000000RA              01085681    005800230000002300000610000003NN  NNW 000                       N    
RDG08519000WATRL000000004K00000000000001190002310132015093043N000000000000N27       000330400K 10000000010000001165           
CUS0851900000108008707005         RICHARD A GRUBY     5629 ASHBOURNE RD                       000N        CARE OF             
MTR08519000001000000000000000RA              99290525    005800240000002400000570000003NN  NNW 000                       N    
RDG08519000WATRL000000004K00000000000003012002410132015093157N000000000000N27       000740400K 10000000010000002971           
CUS0851900000108008708003         ATKINS SUSAN        5627 ASHBOURNE RD                       000N        CARE OF             
MTR08519000001000000000000000RA              01100935    005800250000002500000610000003NN  NNW 000                       N    
RDG08519000WATRL000000004K00000000000000766002510132015093227N000000000000N27       000300400K 10000000010000000757           
CUS0851900000108008709001         CLIFTON ERNEST C    5625 ASHBOURNE RD                       000N        CARE OF             
MTR08519000001000000000000000RA              01070197    005800260000002600000610000003NN  NNW 000                       N    
RDG08519000WATRL000000004K00000000000002024002610132015093300N000000000000N27       000330400K 10000000010000001897           
CUS0851900000108008711007         KONOPIK KATHLEEN C  5607 ASHBOURNE AVE                      000N        CARE OF             
MTR08519000001000000000000000RA              01072419    005800270000002700000610000003NN  NNW 000                       N    
RDG08519000WATRL000000004K00000000000000574020010132015131137N000000000000N27       000320400K 10000000010000000566           
CUS0851900000108008712005         LOUIS E HEIDRICK    5605 ASHBOURNE RD                       000N        CARE OF             
MTR08519000001000000000000000RA              25782075    005800280000002800000520000000NN  NNW 000                       N    
RDG08519000WATRL000000004K00000000000004566019910132015131105N000000000000N27       000430400K 10000000010000004556           
CUS0851900000108008713003         ISERN STEVEN C      5603 ASHBOURNE AVE                      000N        CARE OF             
MTR08519000001000000000000000RA              76345077    005800290000002900000350000003NN  NNW 000                       N    
RDG08519000WATRL000000004K00000000000000097019811052015080918O000000000010N80       000530400K 10000000010000000083           
CUS0851900000108008714001         SCOT WESOLOSKI      5601 ASHBOURNE AVE                      000N        CARE OF             
MTR08519000001000000000000000RA              26019862    005800300000003000000520000003NN  NNW 000                       N    
RDG08519000WATRL000000004K00000000000001991019710132015130929N000000000000N27       031050400K 10000000010000001985           
CUS0851900000108008792007         BLOB FRANCES M      5600 ASHBOURNE AVE                      000N        CARE OF             
MTR08519000001000000000000000RA              29402868    005800310000003100000520000003NN  NNW 000                       N    
RDG08519000WATRL000000004K00000000000001101020410132015131607N000100000010N27       001280400K 10000000010000001101           
CUS0851900000108008793005         ZENTZ RICHARD C,JR  5602 ASHBOURNE AVE                      000N        CARE OF             
MTR08519000001000000000000000RA              45376624    005800320000003200000520000003NN  NNW 000                       N    
RDG08519000WATRL000000004K00000000000003737020511052015080943O000400000010N80       035650400K 10000000010000003722           
CUS0851900000108008794003         WATSON NATALIE      5604 ASHBOURNE AVE                      000N        CARE OF             
MTR08519000001000000000000000RA              27133536    005800330000003300000520000003NN  NNW 000                       N    
RDG08519000WATRL000000004K00000000000002421020310132015131359N000000000000N27       000280400K 10000000010000002398           
CUS0851900000108008795000         PHILLIPPE-AUGUSTE ST5606 ASHBOURNE AVE                      000N        CARE OF             
MTR08519000001000000000000000RA              26018678    005800340000003400000520000003NN  NNW 000                       N    
RDG08519000WATRL000000004K00000000000002644020210132015131331N000000000000N27       000300400K 10000000010000002632           
CUS0851900000108008796008         POWELL NIJOLE       5608 ASHBOURNE AVE                      000N        CARE OF             
MTR08519000001000000000000000RA              01070393    005800350000003500000610000003NN  NNW 000                       N    
RDG08519000WATRL000000004K00000000000001200020111052015081021O000000000010N80       000840400K 10000000010000001186           
CUS0851900000108008797006         FPS 5626 ASHBOURNE, 5626 ASHBOURNE RD                       000N        CARE OF             
MTR08519000001000000000000000RA              00131337    005800360000003600000570000003NN  NNW 000                       N    
RDG08519000WATRL000000004K00000000000000983002710132015093547N000100000010N27       001670400K 10000000010000000983           
CUS0851900000108008798004         MCCARTIN TRACY C    5628 ASHBOURNE RD                       000N        CARE OF             
MTR08519000001000000000000000RA              77889149    005800370000003700000360000000NN  NNW 000                       N    
RDG08519000WATRL000000004K00000000000000043002810132015093722N000000000010N27       000950400K 10000000010000000000           
CUS0851900000108008799002         LEMON AUNDREY       5630 ASHBOURNE RD                       000N        CARE OF             
MTR08519000001000000000000000RA              44172732    005800380000003800000520000003NN  NNW 000                       N    
RDG08519000WATRL000000004K00000000000001537002910132015093818N000000000000N27       000560400K 10000000010000001537           
CUS0851900000108008800008         KEISER DANIEL P     5632 ASHBOURNE RD                       000N        CARE OF             
MTR08519000001000000000000000RA              41081906    005800390000003900000520000003NN  NNW 000                       N    
RDG08519000WATRL000000004K00000000000001757003010132015093903N000000000000N27       000450400K 10000000010000001745           
CUS0851900000108008801006         FALLON JAMES M      5634 ASHBOURNE RD                       000N        CARE OF             
MTR08519000001000000000000000RA              36689884    005800400000004000000520000003NN  NNW 000                       N    
RDG08519000WATRL000000004K00000000000004983003110132015094021N000000000000N27       000780400K 10000000010000004965           
CUS0851900000108008802004         ANGELA M. REDD      5636 ASHBOURNE RD                       000N        CARE OF             
MTR08519000001000000000000000RA              29083666    005800410000004100000520000003NN  NNW 000                       N    
RDG08519000WATRL000000004K00000000000003197003210132015094113N000000000000N27       000520400K 10000000010000003177           
CUS0851900000108008803002         SCOTT RONALD J      5638 ASHBOURNE RD                       000N        CARE OF             
MTR08519000001000000000000000RA              9686006     005800420000004200000570000003NN  NNW 000                       N    
RDG08519000WATRL000000004K00000000000004177003310132015094145N000000000000N27       000320400K 10000000010000004165           
CUS0851900000108008804000         DIXON JAMES A       1264 FRANCIS AVE                        000N        CARE OF             
MTR08519000001000000000000000RA              30516833    005800430000004300000520000003NN  NNW 000                       N    
RDG08519000WATRL000000004K00000000000004316003410132015094251N000000000000N27       000660400K 10000000010000004266           
CUS0851900000108008805007         EMMONS RICHARD A    1262 FRANCIS AVE                        000N        CARE OF             
MTR08519000001000000000000000RA              38886108    005800440000004400000520000003NN  NNW 000                       N    
RDG08519000WATRL000000004K00000000000002440003510132015094318N000000000000N27       000270400K 10000000010000002430           
CUS0851900000108008806005         BRIAN C FISH        1260 FRANCIS AVE                        000N        CARE OF             
MTR08519000001000000000000000RA              32900518    005800450000004500000520000003NN  NNW 000                       N    
RDG08519000WATRL000000004K00000000000004212003610132015094342N000000000000N27       000240400K 10000000010000004183           
CUS0851900000108008807003         PETER A WERLE       1258 FRANCIS AVE                        000N        CARE OF             
MTR08519000001000000000000000RA              01102353    005800460000004600000610000003NN  NNW 000                       N    
RDG08519000WATRL000000004K00000000000000815003710132015094405N000000000000N27       000230400K 10000000010000000815           
CUS0851900000108008808001         JEROME BUJANOWSKI   1256 FRANCIS AVE                        000N        CARE OF             
MTR08519000001000000000000000RA              29403744    005800470000004700000520000003NN  NNW 000                       N    
RDG08519000WATRL000000004K00000000000003403003810132015094432N000000000000N27       000270400K 10000000010000003394           
CUS0851900000108008469002         PETER H. BENSON     1250 FRANCIS AVE                        000N        CARE OF             
MTR08519000001000000000000000RA              54351865    005800480000004800000520000003NN  NNW 000                       N    
RDG08519000WATRL000000004K00000000000001851003910132015094539N000000000000N27       000670400K 10000000010000001844           
CUS0851900000108008411004         ALLEN D BOSLEY      1249 FRANCIS AVE                        000N        CARE OF             
MTR08519000001000000000000000RA              26003936    005800490000004900000520000003NN  NNW 000                       N    
RDG08519000WATRL000000004K00000000000003749004110132015094802N000000000000N27       000480400K 10000000010000003719           
CUS0851900000108008468004         HANNON DOLORES K/EUG1248 FRANCIS AVE                        000N        CARE OF             
MTR08519000001000000000000000RA              24761103    005800500000005000000520000003NN  NNW 000                       N    
RDG08519000WATRL000000004K00000000000004646004010132015094714N000000000000N27       000950400K 10000000010000004594           
CUS0851900000108008412002         SNYDER ROBIN        1245 FRANCIS AVE                        000N        CARE OF             
MTR08519000001000000000000000RA              42808262    005800510000005100000520000003NN  NNW 000                       N    
RDG08519000WATRL000000004K00000000000003457004210132015094926N000000000000N27       000840400K 10000000010000003438           
CUS0851900000108008467006         ORENDORFF COLLEEN M 1244 FRANCIS AVE                        000N        CARE OF             
MTR08519000001000000000000000RA              75615944    005800520000005200000360000000NN  NNW 000                       N    
RDG08519000WATRL000000004K00000000000000180004310132015095003N000000000000N27       000370400K 10000000010000000168           
CUS0851900000108008413000         GARY ROLAND COMBS   1243 FRANCIS AVE                        000N        CARE OF             
MTR08519000001000000000000000RA              14908661    005800530000005300000310000003NN  NNW 000                       N    
RDG08519000WATRL000000004K00000000000000736007210132015101556N000000000000N27       000770400K 10000000010000000726           
CUS0851900000108008414008         BOND DONNA M        1241 FRANCIS AVE                        000N        CARE OF             
MTR08519000001000000000000000RA              77989327    005800540000005400000350000003NN  NNW 000                       N    
RDG08519000WATRL000000004K00000000000000023007110132015101439N000000000000N27       001430400K 10000000010000000019           
CUS0851900000108008466008         CATHERINE J CLIFFORD1240 FRANCIS AVE                        000N        CARE OF             
MTR08519000001000000000000000RA              14901236    005800550000005500000310000003NN  NNW 000                       N    
RDG08519000WATRL000000004K00000000000000701004410132015095044N000000000000N27       000410400K 10000000010000000679           
CUS0851900000108008465000         LINEBURG LEON L     1238 FRANCIS AVE                        000N        CARE OF             
MTR08519000001000000000000000RA              01113721    005800560000005600000610000003NN  NNW 000                       N    
RDG08519000WATRL000000004K00000000000000514004510132015095124N000100000010N27       000400400K 10000000010000000514           
CUS0851900000108008415005         MORAN CARROLL ROBERT1227 FRANCIS AVE                        000N        CARE OF             
MTR08519000001000000000000000RA              10000181    005800570000005700000570000003NN  NNW 000                       N    
RDG08519000WATRL000000004K00000000000000388000510142015133647N000000000000U27       003060400K 10000000010000000379           
CUS0851900000108432723008         RYAN KATHRYN R      1225A FRANCIS AVE                       000N        CARE OF             
MTR08519000001000000000000000RA              01099578    005800580000005800000610000003NN  NNW 000                       N    
RDG08519000WATRL000000004K00000000000001650017610132015115451N000400000010N27       000310400K 10000000010000001647           
CUS0851900000108008416003         LANZO ANTONIO M     1225 FRANCIS AVE                        000N        CARE OF             
MTR08519000001000000000000000RA              10010318    005800590000005900000570000003NN  NNW 000                       N    
RDG08519000WATRL000000004K00000000000000181007010132015101216N000000000000N27       001490400K 10000000010000000177           
CUS0851900000108432724006         MAYNARD JEFFREY J   1223A FRANCIS AVE                       000N        CARE OF             
MTR08519000001000000000000000RA              10016188    005800600000006000000570000003NY  NNW 000                       N    
MTM0851900010016188    BLACK TOPPED                                                                                           
RDG08519000WATRL000000004K00000000000000204017510132015115420N000000000000N27       000700400K 10000000010000000192           
CUS0851900000108008417001         WECKESSER DAVID EDWA1223 FRANCIS AVE                        000N        CARE OF             
MTR08519000001000000000000000RA              01100337    005800610000006100000610000003NN  NNW 000                       N    
RDG08519000WATRL000000004K00000000000001549006910132015100947N000000000000N27       000510400K 10000000010000001523           
CUS0851900000108008418009         REITTERER THEODORE  1221 FRANCIS AVE                        000N        CARE OF             
MTR08519000001000000000000000RA              46886783    005800620000006200000520000003NN  NNW 000                       N    
RDG08519000WATRL000000004K00000000000002576006810132015100856N000000000000N27       000600400K 10000000010000002548           
CUS0851900000108008419007         ANTOSZEWSKI WILLIAM 1219 FRANCIS AVE                        000N        CARE OF             
MTR08519000001000000000000000RA              14911574    005800630000006300000310000003NN  NNW 000                       N    
RDG08519000WATRL000000004K00000000000000660006710132015100756N000000000000N27       000410400K 10000000010000000651           
CUS0851900000108008420005         SULLIVAN JOSEPH P   1217 FRANCIS AVE                        000N        CARE OF             
MTR08519000001000000000000000RA              76345354    005800640000006400000350000003NN  NNW 000                       N    
RDG08519000WATRL000000004K00000000000000050006610132015100715N000000000000N27       000660400K 10000000010000000043           
CUS0851900000108008421003         DENNIS CHERYL A     1213 FRANCIS AVE                        000N        CARE OF             
MTR08519000001000000000000000RA              10022809    005800650000006500000570000003NN  NNW 000                       N    
RDG08519000WATRL000000004K00000000000000144006510132015100609N000000000000N27       000320400K 10000000010000000136           
CUS0851900000108008422001         HALETHORPE COMM CHUR1211 FRANCIS AVE                        000N        CARE OF             
MTR08519000001000000000000000RA              29681207    005800660000006600000520000003NN  NNW 000                       N    
RDG08519000WATRL000000004K00000000000002998006410132015100537N000000000000N27       000420400K 10000000010000002983           
CUS0851900000108008423009         MANGER WAYNE        1207 FRANCIS AVE                        000N        CARE OF             
MTR08519000001000000000000000RA              01089397    005800670000006700000610000003NN  NNW 000                       N    
RDG08519000WATRL000000004K00000000000001331006310132015100455N000000000000N27       002100400K 10000000010000001297           
CUS0851900000108008458005         TEETERS TERENCE A   1224 FRANCIS AVE                        000N        CARE OF             
MTR08519000001000000000000000RA              14902337    005800680000006800000310000003NN  NNW 000                       N    
RDG08519000WATRL000000004K00000000000001017004610132015095233N000000000000N27       000690400K 10000000010000000980           
CUS0851900000108008457007         HARDESTER EDWARD E  1220 FRANCIS AVE                        000N        CARE OF             
MTR08519000001000000000000000RA              00129767    005800690000006900000570000000NN  NNW 000                       N    
RDG08519000WATRL000000004K00000000000001428004710132015095320N000000000000N27       000470400K 10000000010000001409           
CUS0851900000108008456009         KLEIN TRISTAN J,SR  1218 FRANCIS AVE                        000N        CARE OF             
MTR08519000001000000000000000RA              99290408    005800700000007000000570000003NN  NNW 000                       N    
RDG08519000WATRL000000004K00000000000001603004810132015095354N000000000000N27       000340400K 10000000010000001576           
CUS0851900000108008455001         WIECZYSKI SCOTT W   1216 FRANCIS AVE                        000N        CARE OF             
MTR08519000001000000000000000RA              38983596    005800710000007100000520000003NN  NNW 000                       N    
RDG08519000WATRL000000004K00000000000001603004910132015095429N000000000000N27       000350400K 10000000010000001593           
CUS0851900000108008454004         WHITE CHARLES G     1214 FRANCIS AVE                        000N        CARE OF             
MTR08519000001000000000000000RA              48591334    005800720000007200000520000003NN  NNW 000                       N    
RDG08519000WATRL000000004K00000000000001167005010132015095459N000000000000N27       000300400K 10000000010000001148           
CUS0851900000108008453006         STEPHENS JASON L    1212 FRANCIS AVE                        000N        CARE OF             
MTR08519000001000000000000000RA              01085553    005800730000007300000610000003NN  NNW 000                       N    
RDG08519000WATRL000000004K00000000000000984005110132015095532N000000000000N27       000330400K 10000000010000000967           
CUS0851900000108392856004         NUSSEAR PATRICK JOSE1210-A FRANCIS AVE                      000N        CARE OF             
MTR08519000001000000000000000RA              36697986    005800740000007400000520000003NN  NNW 000                       N    
RDG08519000WATRL000000004K00000000000002949005210132015095609N000000000000N27       000370400K 10000000010000002938           
CUS0851900000108008452008         ROCCO/ROSE SOVERO   1210 FRANCIS AVE                        000N        CARE OF             
MTR08519000001000000000000000RA              36695216    005800750000007500000520000003NN  NNW 000                       N    
RDG08519000WATRL000000004K00000000000001766005310132015095650N000300000010N27       000410400K 10000000010000001742           
CUS0851900000108008451000         MASSIMINI KENNETH   1208 FRANCIS AVE                        000N        CARE OF             
MTR08519000001000000000000000RA              24757341    005800760000007600000520000003NN  NNW 000                       N    
RDG08519000WATRL000000004K00000000000002086005410132015095730N000300000010N27       000400400K 10000000010000002072           
CUS0851900000108008450002         KICK KEITH A        1208 FRANCIS AV REAR                    000N        CARE OF             
MTR08519000001000000000000000RA              01081686    005800770000007700000610000003NN  NNW 000                       N    
RDG08519000WATRL000000004K00000000000000840005510132015095751N000000000000N27       000210400K 10000000010000000840           
CUS0851900000108008449004         STROMBERG KEVIN JOHN1206 FRANCIS AVE                        000N        CARE OF             
MTR08519000001000000000000000RA              14920199    005800780000007800000310000003NN  NNW 000                       N    
RDG08519000WATRL000000004K00000000000000614005610132015095817N000000000000N27       000260400K 10000000010000000591           
CUS0851900000108008448006         HANSEN PAUL F       1204 FRANCIS AVE                        000N        CARE OF             
MTR08519000001000000000000000RA              35098427    005800790000007900000520000003NN  NNW 000                       N    
RDG08519000WATRL000000004K00000000000002494005710132015095858N000000000000N27       000410400K 10000000010000002483           
CUS0851900000108405928006         POLLACK LEONORRIS D 1114 FRANCIS AVE                        000N        CARE OF             
MTR08519000001000000000000000RA              44175312    005800800000008000000520000003NN  NNW 000                       N    
RDG08519000WATRL000000004K00000000000003719005810132015095934N000000000000N27       000360400K 10000000010000003697           
CUS0851900000108405929004         GIBSON WILLIAM      1112 FRANCIS AVE                        000N        CARE OF             
MTR08519000001000000000000000RA              50478549    005800810000008100000520000003NN  NNW 000                       N    
RDG08519000WATRL000000004K00000000000000703005910132015095952N000000000000N27       000180400K 10000000010000000703           
CUS0851900000108405930002         PETERSON STEVEN D   1110 FRANCIS AVE                        000N        CARE OF             
MTR08519000001000000000000000RA              01113290    005800820000008200000610000003NN  NNW 000                       N    
RDG08519000WATRL000000004K00000000000001386006010132015100023N000000000000N27       000310400K 10000000010000001365           
CUS0851900000108405931000         CHEN SHU            1108 FRANCIS AVE                        000N        CARE OF             
MTR08519000001000000000000000RA              01113286    005800830000008300000610000003NN  NNW 000                       N    
RDG08519000WATRL000000004K00000000000001796006110132015100052N000000000000N27       000290400K 10000000010000001759           
CUS0851900000108405932008         HUNGERMAN GREGORY P 1106 FRANCIS AVE                        000N        CARE OF             
MTR08519000001000000000000000RA              01113295    005800840000008400000610000003NN  NNW 000                       N    
RDG08519000WATRL000000004K00000000000000816006210132015100125N000000000000N27       000330400K 10000000010000000804           
CUS0851900000108380041007         VAIL ARTHUR E,JR    5753 MINERAL AVE                        000N        CARE OF             
MTR08519000001000000000000000RA              33729448    005800850000008500000520000003NN  NNW 000                       N    
RDG08519000WATRL000000004K00000000000004014019510132015121605N000000000000N27       000580400K 10000000010000003995           
CUS0851900000108386332004         KLEMM CHRISTOPHER G 5751 MINERAL AVE                        000N        CARE OF             
MTR08519000001000000000000000RA              35111467    005800860000008600000520000003NN  NNW 000                       N    
RDG08519000WATRL000000004K00000000000004484019610132015121744N000000000000N27       000990400K 10000000010000004454           
CUS0851900000108381900003         SENTS GINA R        5749 MINERAL AVE                        000N        CARE OF             
MTR08519000001000000000000000RA              35107413    005800870000008700000520000003NN  NNW 000                       N    
RDG08519000WATRL000000004K00000000000004031019410132015121507N000000000000N27       000550400K 10000000010000003983           
CUS0851900000108381431009         GRAY WILLIAM        5747 MINERAL AVE                        000N        CARE OF             
MTR08519000001000000000000000RA              35097043    005800880000008800000520000003NN  NNW 000                       N    
RDG08519000WATRL000000004K00000000000003100019310132015121412N000000000000N27       000250400K 10000000010000003086           
CUS0851900000108008399001         GIORDANO PAUL J     5746 MINERAL AVE                        000N        CARE OF             
MTR08519000001000000000000000RA              14901988    005800890000008900000310000003NN  NNW 000                       N    
RDG08519000WATRL000000004K00000000000000793019210132015121347N000000000000N27       000500400K 10000000010000000777           
CUS0851900000106379984005         COOPER TAMARA MARIE 5745 MINERAL AVE                        000N        CARE OF             
MTR08519000001000000000000000RA              33729446    005800900000009000000520000003NN  NNW 000                       N    
RDG08519000WATRL000000004K00000000000003356019110132015121257N000000000000N27       000630400K 10000000010000003337           
CUS0851900000108008398003         RUST PATRICIA ANN   5743 MINERAL AVE                        000N        CARE OF             
MTR08519000001000000000000000RA              01079184    005800910000009100000610000003NN  NNW 000                       N    
RDG08519000WATRL000000004K00000000000001043019010132015121154N000000000000N27       000580400K 10000000010000001026           
CUS0851900000108008400007         PHILLIPS CLARICE S  5742 MINERAL AVE                        000N        CARE OF             
MTR08519000001000000000000000RA              14902023    005800920000009200000310000003NN  NNW 000                       N    
RDG08519000WATRL000000004K00000000000001065018910132015121056N000000000000N27       000340400K 10000000010000001049           
CUS0851900000108008397005         HARDING THEODORE A  5741A MINERAL AVE                       000N        CARE OF             
MTR08519000001000000000000000RA              23053392    005800930000009300000520000003NN  NNW 000                       N    
RDG08519000WATRL000000004K00000000000001993018810132015121022N000000000000N27       000480400K 10000000010000001984           
CUS0851900000108008396007         SIMKINS WILLIAM H   5741 MINERAL AVE                        000N        CARE OF             
MTR08519000001000000000000000RA              26003933    005800940000009400000520000003NN  NNW 000                       N    
RDG08519000WATRL000000004K00000000000001817018710132015120934N000000000000N27       000660400K 10000000010000001811           
CUS0851900000108008401005         BRANHAM SIDNEY A    5738 MINERAL AVE                        000N        CARE OF             
MTR08519000001000000000000000RA              14901782    005800950000009500000310000003NN  NNW 000                       N    
RDG08519000WATRL000000004K00000000000001310018510132015120759N000000000000N27       000450400K 10000000010000001296           
CUS0851900000108008395009         DENNIS TAYLOR       5739 MINERAL AVE                        000N        CARE OF             
MTR08519000001000000000000000RA              14901989    005800960000009600000310000003NN  NNW 000                       N    
RDG08519000WATRL000000004K00000000000000779018410132015120714N000000000000N27       000960400K 10000000010000000762           
CUS0851900000108008394002         GARVEY LEO J        5737 MINERAL AVE                        000N        CARE OF             
MTR08519000001000000000000000RA              14901792    005800970000009700000310000003NN  NNW 000                       N    
RDG08519000WATRL000000004K00000000000000672018610132015120828N000000000000N27       000290400K 10000000010000000666           
CUS0851900000108389846000         KENT BRUCE A        5734 MINERAL AVE                        000N        CARE OF             
MTR08519000001000000000000000RA              36692397    005800980000009800000520000003NN  NNW 000                       N    
RDG08519000WATRL000000004K00000000000006795018210132015120439N000000000000N27       000610400K 10000000010000006782           
CUS0851900000108008393004                             5735 MINERAL AVE                        000N        CARE OF             
MTR08519000001000000000000000RA              36694231    005800990000009900000520000003NN  NNW 000                       N    
RDG08519000WATRL000000004K00000000000002394018310132015120538N000000000000N27       000590400K 10000000010000002370           
CUS0851900000108008392006         MASON ARTHUR R      5733 MINERAL AVE                        000N        CARE OF             
MTR08519000001000000000000000RA              14900059    005801000000010000000310000003NN  NNW 000                       N    
RDG08519000WATRL000000004K00000000000000727018110132015120338N000000000000N27       000530400K 10000000010000000714           
CUS0851900000108008391008         RUSSELL DEBORAH K   5731 MINERAL AVE                        000N        CARE OF             
MTR08519000001000000000000000RA              39923701    005801010000010100000520000003NN  NNW 000                       N    
RDG08519000WATRL000000004K00000000000002991018010132015120245N000000000000N27       000660400K 10000000010000002962           
CUS0851900000108386237005         DANIEL L. REED      5730 MINERAL AVE                        000N        CARE OF             
MTR08519000001000000000000000RA              35109863    005801020000010200000520000003NN  NNW 000                       N    
RDG08519000WATRL000000004K00000000000002266017910132015120139N000000000000N27       000520400K 10000000010000002255           
CUS0851900000108008390000         NEWBERRY CHARLES F  5729 MINERAL AVE                        000N        CARE OF             
MTR08519000001000000000000000RA              40049522    005801030000010300000520000003NN  NNW 000                       N    
RDG08519000WATRL000000004K00000000000000345017810132015120047N000300000010N27       001340400K 10000000010000000350           
CUS0851900000108369262004         DUMLER PATRICIA A   5725 MINERAL AVE                        000N        CARE OF             
MTR08519000001000000000000000RA              01100941    005801040000010400000610000003NN  NNW 000                       N    
RDG08519000WATRL000000004K00000000000000523017710132015115833N000300000010N27       002220400K 10000000010000000531           
CUS0851900000108008402003         JACOBER MICHAEL B   5724 MINERAL AVE                        000N        CARE OF             
MTR08519000001000000000000000RA              52287550    005801050000010500000520000003NN  NNW 000                       N    
RDG08519000WATRL000000004K00000000000003220017410132015115310N000000000000N27       001280400K 10000000010000003193           
CUS0851900000108008389002         STANLEY GARDNER     5719 MINERAL AVE                        000N        CARE OF             
MTR08519000001000000000000000RA              45383309    005801060000010600000520000003NN  NNW 000                       N    
RDG08519000WATRL000000004K00000000000000682017310132015115102N000000000000N27       000610400K 10000000010000000682           
CUS0851900000108008388004         ECKERT JAMIE L      5717 MINERAL AVE                        000N        CARE OF             
MTR08519000001000000000000000RA              27213902    005801070000010700000520000003NN  NNW 000                       N    
RDG08519000WATRL000000004K00000000000001560017210132015115001N000000000000N27       000980400K 10000000010000001560           
CUS0851900000108008387006         WALTER SHEMENSKI    5715 MINERAL AVE                        000N        CARE OF             
MTR08519000001000000000000000RA              01110522    005801080000010800000610000003NN  NNW 000                       N    
RDG08519000WATRL000000004K00000000000000579017010132015114755N000000000000N27       000450400K 10000000010000000569           
CUS0851900000108008403001         LEMBACH DONNA L     5720 MINERAL AVE                        000N        CARE OF             
MTR08519000001000000000000000RA              23057027    005801090000010900000520000003NN  NNW 000                       N    
RDG08519000WATRL000000004K00000000000002995017110132015114823N000000000000N27       000280400K 10000000010000002977           
CUS0851900000108008404009         CAMPBELL LINDA C    5718 MINERAL AVE                        000N        CARE OF             
MTR08519000001000000000000000RA              00129370    005801100000011000000570000003NN  NNW 000                       N    
RDG08519000WATRL000000004K00000000000001298016910132015114710N000000000000N27       000430400K 10000000010000001286           
CUS0851900000108008405006         JOANNE KRIEBEL      5716 MINERAL AVE                        000N        CARE OF             
MTR08519000001000000000000000RA              27815387    005801110000011100000520000003NN  NNW 000                       N    
RDG08519000WATRL000000004K00000000000002433016710132015114549N000000000000N27       000350400K 10000000010000002416           
CUS0851900000108008386008         BRIAN EDWARD ANGE   5713 MINERAL AVE                        000N        CARE OF             
MTR08519000001000000000000000RA              00129371    005801120000011200000570000003NN  NNW 000                       N    
RDG08519000WATRL000000004K00000000000001367016810132015114627N000000000000N27       000380400K 10000000010000001356           
CUS0851900000108008406004         SEAN KILDUFF        5714 MINERAL AVE                        000N        CARE OF             
MTR08519000001000000000000000RA              14902018    005801130000011300000310000003NN  NNW 000                       N    
RDG08519000WATRL000000004K00000000000000436016611052015081101O000400000010N80       000600400K 10000000010000000406           
CUS0851900000108008407002         MCKELDIN SONYA M    5712 MINERAL AVE                        000N        CARE OF             
MTR08519000001000000000000000RA              45378691    005801140000011400000520000003NN  NNW 000                       N    
RDG08519000WATRL000000004K00000000000002231016410132015114157N000000000000N27       001470400K 10000000010000002225           
CUS0851900000108008385000         MEREDITH MARY M     5711 MINERAL AVE                        000N        CARE OF             
MTR08519000001000000000000000RA              23057798    005801150000011500000520000003NN  NNW 000                       N    
RDG08519000WATRL000000004K00000000000007008016510132015114414N000000000000N27       001370400K 10000000010000006974           
CUS0851900000108008384003         LIVINGSTONE ANDREW R5709 MINERAL AVE                        000N        CARE OF             
MTR08519000001000000000000000RA              00129236    005801160000011600000570000003NN  NNW 000                       N    
RDG08519000WATRL000000004K00000000000001445016310132015113930N000000000000N27       001220400K 10000000010000001426           
CUS0851900000108008408000         MORGAN JESSICA LYNN 5710 MINERAL AVE                        000N        CARE OF             
MTR08519000001000000000000000RA              14913940    005801170000011700000310000003NN  NNW 000                       N    
RDG08519000WATRL000000004K00000000000000483016210132015113728N000000000000N27       002500400K 10000000010000000472           
CUS0851900000108008409008         ALLAN SPRECHER      5706 MINERAL AVE                        000N        CARE OF             
MTR08519000001000000000000000RA              46876068    005801180000011800000520000003NN  NNW 000                       N    
RDG08519000WATRL000000004K00000000000001511016110132015113318N000000000000N27       000380400K 10000000010000001506           
CUS0851900000108008410006         PAIGE N ALLEGREE    5708 MINERAL AVE                        000N        CARE OF             
MTR08519000001000000000000000RA              10011929    005801190000011900000570000003NN  NNW 000                       N    
RDG08519000WATRL000000004K00000000000000081016010132015113240N000000000000N27       000440400K 10000000010000000071           
CUS0851900000108008383005         LINTON DOUGLAS B    5707 MINERAL AVE                        000N        CARE OF             
MTR08519000001000000000000000RA              99288838    005801200000012000000570000003NN  NNW 000                       N    
RDG08519000WATRL000000004K00000000000000529015910132015113156N000000000000N27       002740400K 10000000010000000526           
CUS0851900000108008382007         ROGERS STEVEN T     1251 FRANCIS AVE                        000N        CARE OF             
MTR08519000001000000000000000RA              44176961    005801210000012100000520000003NN  NNW 000                       N    
RDG08519000WATRL000000004K00000000000002013000111052015084234O000000000010U80       000000400K 10000000010000002002           
CUS0851900000108008381009         GUARINO MICHELLE M  1303 FRANCIS AVE                        000N        CARE OF             
MTR08519000001000000000000000RA              30520892    005801220000012200000520000003NN  NNW 000                       N    
RDG08519000WATRL000000004K00000000000002354007310132015102121N000000000000N27       003250400K 10000000010000002354           
CUS0851900000108008380001         1305 FRANCIS AVENUE 1305-13 FRANCIS AVE                     000N        CARE OF             
MTR08519000001000000000000000RA              36699445    007501230000012300000520000003NN  NNW 000                       N    
RDG08519000WATRL000000004K00000000000007260007410132015102206N000000000000N27       000450400K 10000000010000006997           
CUS0851900000108008333000         GREGORY OSHEL       5701 2ND AVE                            000N        CARE OF             
MTR08519000001000000000000000RA              01080677    005801240000012400000610000003NN  NNW 000                       N    
RDG08519000WATRL000000004K00000000000001183007511052015081147O000000000010N80       000920400K 10000000010000001168           
CUS0851900000108008312004         WILKINSON ROGER E,SR5700 2ND AVE                            000N        CARE OF             
MTR08519000001000000000000000RA              00129232    005801250000012500000570000003NN  NNW 000                       N    
RDG08519000WATRL000000004K00000000000001075007611052015081216O000000000010N80       000500400K 10000000010000001062           
CUS0851900000108008313002         WILKINSON ROGER E,SR5702 2ND AVE                            000N        CARE OF             
MTR08519000001000000000000000RA              00129235    005801260000012600000570000003NN  NNW 000                       N    
RDG08519000WATRL000000004K00000000000001100007810132015102554N000000000000N27       000250400K 10000000010000001085           
CUS0851900000108008314000         DAVID J MERTES      5704 2ND AVE                            000N        CARE OF             
MTR08519000001000000000000000RA              23057025    005801270000012700000520000003NN  NNW 000                       N    
RDG08519000WATRL000000004K00000000000003624007710132015102529N000000000000N27       000610400K 10000000010000003607           
CUS0851900000108008332002         MUSICK CRYSTAL A    5705 2ND AVE                            000N        CARE OF             
MTR08519000001000000000000000RA              32770047    005801280000012800000520000003NN  NNW 000                       N    
RDG08519000WATRL000000004K00000000000002481007910132015102726N000000000000N27       000920400K 10000000010000002470           
CUS0851900000108008331004         DAGRAVA KAREN MARIE 5707 2ND AVE                            000N        CARE OF             
MTR08519000001000000000000000RA              26009470    005801290000012900000520000003NN  NNW 000                       N    
RDG08519000WATRL000000004K00000000000006684008010132015102748N000000000000N27       000220400K 10000000010000006663           
CUS0851900000108008330006         ROCHE SUSAN         5709 2ND AVE                            000N        CARE OF             
MTR08519000001000000000000000RA              27823527    005801300000013000000520000003NN  NNW 000                       N    
RDG08519000WATRL000000004K00000000000002733008110132015102809N000000000000N27       000210400K 10000000010000002717           
CUS0851900000108008315007         KENT ADAM C         5706 2ND AVE                            000N        CARE OF             
MTR08519000001000000000000000RA              24757694    005801310000013100000520000003NN  NNW 000                       N    
RDG08519000WATRL000000004K00000000000003585008210132015102851N000000000000N27       000420400K 10000000010000003562           
CUS0851900000108008316005         GALLEHER PAUL A     5708 2ND AVE                            000N        CARE OF             
MTR08519000001000000000000000RA              29681079    005801320000013200000520000003NN  NNW 000                       N    
RDG08519000WATRL000000004K00000000000002588008310132015102943N000000000000N27       000520400K 10000000010000002568           
CUS0851900000108008329008         ROBERT F. MEZEWSKI  5711 2ND AVE                            000N        CARE OF             
MTR08519000001000000000000000RA              46878147    005801330000013300000520000003NN  NNW 000                       N    
RDG08519000WATRL000000004K00000000000004633008410132015103030N000000000010N27       000470400K 10000000010000004583           
CUS0851900000108008328000         THOMPSON HENRY C,3RD5713 2ND AVE                            000N        CARE OF             
MTR08519000001000000000000000RA              00129234    005801340000013400000570000003NN  NNW 000                       N    
RDG08519000WATRL000000004K00000000000001154008510132015103102N000000000000N27       000320400K 10000000010000001140           
CUS0851900000108008327002         HAYES SHANE A       5715 2ND AVE                            000N        CARE OF             
MTR08519000001000000000000000RA              01085680    005801350000013500000610000003NN  NNW 000                       N    
RDG08519000WATRL000000004K00000000000002353008810132015103231N000000000000N27       000290400K 10000000010000002310           
CUS0851900000108396265004         SVITIL JOHN LOUIS,JR5710 2ND AVE                            000N        CARE OF             
MTR08519000001000000000000000RA              39291821    005801360000013600000520000003NN  NNW 000                       N    
RDG08519000WATRL000000004K00000000000002919008610132015103128N000000000000N27       000260400K 10000000010000002904           
CUS0851900000108008317003         HULL JAMES A        5712 2ND AVE                            000N        CARE OF             
MTR08519000001000000000000000RA              27813463    005801370000013700000520000003NN  NNW 000                       N    
RDG08519000WATRL000000004K00000000000002660008710132015103202N000000000000N27       000340400K 10000000010000002656           
CUS0851900000108008318001         BROWN ERINA E       5714 2ND AVE                            000N        CARE OF             
MTR08519000001000000000000000RA              00129777    005801380000013800000570000003NN  NNW 000                       N    
RDG08519000WATRL000000004K00000000000000998009010132015103327N000000000000N27       000310400K 10000000010000000962           
CUS0851900000108008319009         ANDERSON CALVIN T,SR5716 2ND AVE                            000N        CARE OF             
MTR08519000001000000000000000RA              24765044    005801390000013900000520000003NN  NNW 000                       N    
RDG08519000WATRL000000004K00000000000002955009110132015103356N000000000000N27       000290400K 10000000010000002941           
CUS0851900000108008320007         MR HARVEY & WF      5718 2ND AVE                            000N        CARE OF             
MTR08519000001000000000000000RA              00129233    005801400000014000000570000003NN  NNW 000                       N    
RDG08519000WATRL000000004K00000000000000926009311052015081237O000000000010N80       000370400K 10000000010000000925           
CUS0851900000108008326004         EID ROSE MARY       5717 2ND AVE                            000N        CARE OF             
MTR08519000001000000000000000RA              00129341    005801410000014100000570000003NN  NNW 000                       N    
RDG08519000WATRL000000004K00000000000001623008910132015103256N000000000000N27       000250400K 10000000010000001598           
CUS0851900000108008325006         ROCHE WINSTON L     5719 2ND AVE                            000N        CARE OF             
MTR08519000001000000000000000RA              46879656    005801420000014200000520000003NN  NNW 000                       N    
RDG08519000WATRL000000004K00000000000001356009210132015103418N000000000000N27       000220400K 10000000010000001312           
CUS0851900000108008321005         GENTILE LISA R      5720 2ND AVE                            000N        CARE OF             
MTR08519000001000000000000000RA              45381692    005801430000014300000520000003NN  NNW 000                       N    
RDG08519000WATRL000000004K00000000000000688009410132015103523N000000000000N27       000280400K 10000000010000000680           
CUS0851900000108008322003         CHRISTOPHER BULLOUGH5722 2ND AVE                            000N        CARE OF             
MTR08519000001000000000000000RA              46882760    005801440000014400000520000003NN  NNW 000                       N    
RDG08519000WATRL000000004K00000000000002425009511052015084338O000000000010N80       000290400K 10000000010000002408           
CUS0851900000108008324009         LUECKING TIMOTHY T  5721 2ND AVE                            000N        CARE OF             
MTR08519000001000000000000000RA              01085683    005801450000014500000610000003NN  NNW 000                       N    
RDG08519000WATRL000000004K00000000000001876009610132015103643N000000000000N27       000510400K 10000000010000001867           
CUS0851900000108008323001         RALPH E THOMAS      5723 2ND AVE                            000N        CARE OF             
MTR08519000001000000000000000RA              27815405    005801460000014600000520000003NN  NNW 000                       N    
RDG08519000WATRL000000004K00000000000002918009710132015103647N000000000000N27       000040400K 10000000010000002910           
CUS0851900000108008346002         MICHAEL T TOWLES    5728 1ST AVE                            000N        CARE OF             
MTR08519000001000000000000000RA              38782252    005801470000014700000520000003NN  NNW 000                       N    
RDG08519000WATRL000000004K00000000000005171009810132015103852N000000000000N27       001250400K 10000000010000005100           
CUS0851900000108008347000         CHASE ROBERT HARVEY 5730 1ST AVE                            000N        CARE OF             
MTR08519000001000000000000000RA              26009682    005801480000014800000520000003NN  NNW 000                       N    
RDG08519000WATRL000000004K00000000000003202009910132015103924N000000000000N27       000320400K 10000000010000003198           
CUS0851900000108008348008         DETZEL JOAN BEVERLY 5732 1ST AVE                            000N        CARE OF             
MTR08519000001000000000000000RA              38782333    005801490000014900000520000003NN  NNW 000                       N    
RDG08519000WATRL000000004K00000000000004457010010132015104006N000000000000N27       000420400K 10000000010000004428           
CUS0851900000108008349006         BOWLER KEITH        5734 1ST AVE                            000N        CARE OF             
MTR08519000001000000000000000RA              38782329    005801500000015000000520000003NN  NNW 000                       N    
RDG08519000WATRL000000004K00000000000002066010110132015104032N000000000000N27       000260400K 10000000010000002056           
CUS0851900000108008350004         LIPSCOMB BRIAN G,SR 5736 1ST AVE                            000N        CARE OF             
MTR08519000001000000000000000RA              45381637    005801510000015100000520000003NN  NNW 000                       N    
RDG08519000WATRL000000004K00000000000002753000210142015132537N000000000000U27       003210400K 10000000010000002723           
CUS0851900000108008351002         FRITZ JOHN LARRY,JR 5738 1ST AVE                            000N        CARE OF             
MTR08519000001000000000000000RA              38782324    005801520000015200000520000003NN  NNW 000                       N    
RDG08519000WATRL000000004K00000000000002179010210132015104304N000000000000N27       001520400K 10000000010000002172           
CUS0851900000108008352000         FRICKE GERARD B     5740 1ST AVE                            000N        CARE OF             
MTR08519000001000000000000000RA              48582781    005801530000015300000520000003NN  NNW 000                       N    
RDG08519000WATRL000000004K00000000000003338010310132015104335N000000000000N27       000310400K 10000000010000003301           
CUS0851900000108008353008         LOZZI PHYLLIS       5742 1ST AVE                            000N        CARE OF             
MTR08519000001000000000000000RA              19557553    005801540000015400000520000003NN  NNW 000                       N    
RDG08519000WATRL000000004K00000000000007699010410132015104402N000000000000N27       000270400K 10000000010000007677           
CUS0851900000108008354006         SADOWSKI MARK R     5744 1ST AVE                            000N        CARE OF             
MTR08519000001000000000000000RA              10019479    005801550000015500000570000003NN  NNW 000                       N    
RDG08519000WATRL000000004K00000000000000360000310142015133137N000000000000U27       003600400K 10000000010000000342           
CUS0851900000108008355003         WHEATLEY ARNOLD M   5749 1ST AVE                            000N        CARE OF             
MTR08519000001000000000000000RA              01093965    005801560000015600000610000003NN  NNW 000                       N    
RDG08519000WATRL000000004K00000000000000813010510132015104731N000000000000N27       002090400K 10000000010000000791           
CUS0851900000108008356001         RICHARDS BRUCE WAYNE5747 1ST AVE                            000N        CARE OF             
MTR08519000001000000000000000RA              45381690    005801570000015700000520000003NN  NNW 000                       N    
RDG08519000WATRL000000004K00000000000003621010610132015104821N000000000000N27       000500400K 10000000010000003608           
CUS0851900000108008357009         CALVIN H RICHARDS   5745 1ST AVE                            000N        CARE OF             
MTR08519000001000000000000000RA              01100940    005801580000015800000610000003NN  NNW 000                       N    
RDG08519000WATRL000000004K00000000000001460000410142015133141N000000000000U27       000040400K 10000000010000001412           
CUS0851900000108008358007         WINGROVE GLEN KEITH 5743 1ST AVE                            000N        CARE OF             
MTR08519000001000000000000000RA              27213742    005801590000015900000520000003NN  NNW 000                       N    
RDG08519000WATRL000000004K00000000000007364010710132015105141N000000000000N27       002000400K 10000000010000007345           
CUS0851900000108008359005         WADE DONNA L        5741 1ST AVE                            000N        CARE OF             
MTR08519000001000000000000000RA              01085684    005801600000016000000610000003NN  NNW 000                       N    
RDG08519000WATRL000000004K00000000000001316010810132015105229N000000000000N27       000480400K 10000000010000001304           
CUS0851900000108008360003         HEIN HEATHER J      5739 1ST AVE                            000N        CARE OF             
MTR08519000001000000000000000RA              00130139    005801610000016100000570000003NN  NNW 000                       N    
RDG08519000WATRL000000004K00000000000001007010910132015105307N000000000000N27       000380400K 10000000010000001003           
CUS0851900000108008361001         THORP WILLIAM M     5737 1ST AVE                            000N        CARE OF             
MTR08519000001000000000000000RA              35106436    005801620000016200000520000003NN  NNW 000                       N    
RDG08519000WATRL000000004K00000000000002400011010132015105340N000000000000N27       000330400K 10000000010000002385           
CUS0851900000108008362009         BLAKE JAMES M       5735 1ST AVE                            000N        CARE OF             
MTR08519000001000000000000000RA              00130093    005801630000016300000570000003NN  NNW 000                       N    
RDG08519000WATRL000000004K00000000000000955011110132015105601N000000000000N27       001410400K 10000000010000000941           
CUS0851900000108008363007         DARBY HERMAN C      5733 1ST AVE                            000N        CARE OF             
MTR08519000001000000000000000RA              26003816    005801640000016400000520000003NN  NNW 000                       N    
RDG08519000WATRL000000004K00000000000004156011210132015105726N000000000000N27       000850400K 10000000010000004126           
CUS0851900000108008364005         GARDNER BARBARA C   5731 1ST AVE                            000N        CARE OF             
MTR08519000001000000000000000RA              19460803    005801650000016500000520000003NN  NNW 000                       N    
RDG08519000WATRL000000004K00000000000005640011310132015105847N000300000010N27       000810400K 10000000010000005649           
CUS0851900000108008365002         WILLIAM JAY CARTER  5729 1ST AVE                            000N        CARE OF             
MTR08519000001000000000000000RA              45385270    005801660000016600000520000003NN  NNW 000                       N    
RDG08519000WATRL000000004K00000000000002231011410132015105954N000000000000N27       000670400K 10000000010000002209           
CUS0851900000108008366000         PLEIM, KURT         5727 1ST AVE                            000N        CARE OF             
MTR08519000001000000000000000RA              01081571    005801670000016700000610000003NN  NNW 000                       N    
RDG08519000WATRL000000004K00000000000002276011510132015110048N000000000000N27       000540400K 10000000010000002268           
CUS0851900000108008345004         GEORGE J FRESON JR  5726 1ST AVE                            000N        CARE OF             
MTR08519000001000000000000000RA              45385269    005801680000016800000520000003NN  NNW 000                       N    
RDG08519000WATRL000000004K00000000000001604011610132015110129N000000000000N27       000410400K 10000000010000001596           
CUS0851900000108008344007         BANNER RACHAEL L    5724 1ST AVE                            000N        CARE OF             
MTR08519000001000000000000000RA              52289994    005801690000016900000520000003NN  NNW 000                       N    
RDG08519000WATRL000000004K00000000000000739011710132015110139N000000000010N27       000100400K 10000000010000000734           
CUS0851900000108008367008         CALVIN D BROOKS     5725 1ST AVE                            000N        CARE OF             
MTR08519000001000000000000000RA              27815385    005801700000017000000520000003NN  NNW 000                       N    
RDG08519000WATRL000000004K00000000000005125011810132015110207N000000000000N27       000280400K 10000000010000005111           
CUS0851900000108008368006         BITTINGS MICHAEL A  5723 1ST AVE                            000N        CARE OF             
MTR08519000001000000000000000RA              23054974    005801710000017100000520000003NN  NNW 000                       N    
RDG08519000WATRL000000004K00000000000005172011910132015110236N000000000000N27       000290400K 10000000010000005140           
CUS0851900000108008369004         CONNALLY OSCAR WILSO5721 1ST AVE                            000N        CARE OF             
MTR08519000001000000000000000RA              48587348    005801720000017200000520000003NN  NNW 000                       N    
RDG08519000WATRL000000004K00000000000002084012010132015110303N000000000000N27       000270400K 10000000010000002064           
CUS0851900000108008343009         FERGUSON LINDA M    5720 1ST AVE                            000N        CARE OF             
MTR08519000001000000000000000RA              31584575    005801730000017300000520000003NN  NNW 000                       N    
RDG08519000WATRL000000004K00000000000004396012110132015110324N000000000000N27       000210400K 10000000010000004382           
CUS0851900000108008342001         MCAULIFFE MICHAEL P 5718 1ST AVE                            000N        CARE OF             
MTR08519000001000000000000000RA              10018757    005801740000017400000570000003NN  NNW 000                       N    
RDG08519000WATRL000000004K00000000000000292012210132015110351N000000000000N27       000270400K 10000000010000000274           
CUS0851900000108008341003         SPEELMAN ALICE V    5716 1ST AVE                            000N        CARE OF             
MTR08519000001000000000000000RA              24757390    005801750000017500000520000003NN  NNW 000                       N    
RDG08519000WATRL000000004K00000000000001569012510132015110521N000000000000N27       000260400K 10000000010000001568           
CUS0851900000108008370002         CONNALLY RICHARD K  5719 1ST AVE                            000N        CARE OF             
MTR08519000001000000000000000RA              10002421    005801760000017600000570000003NN  NNW 000                       N    
RDG08519000WATRL000000004K00000000000000644012310132015110431N000000000000N27       000400400K 10000000010000000622           
CUS0851900000108008371000         WINK JOHN F         5717 1ST AVE                            000N        CARE OF             
MTR08519000001000000000000000RA              46875839    005801770000017700000520000003NN  NNW 000                       N    
RDG08519000WATRL000000004K00000000000002847012410132015110455N000000000000N27       000240400K 10000000010000002828           
CUS0851900000108008372008         MEERDTER GEORGE T,JR5715 1ST AVE                            000N        CARE OF             
MTR08519000001000000000000000RA              00130137    005801780000017800000570000003NN  NNW 000                       N    
RDG08519000WATRL000000004K00000000000001452012710132015110608N000000000000N27       000200400K 10000000010000001444           
CUS0851900000108008340005         MATTHEW T NEWCOMB   5714 1ST AVE                            000N        CARE OF             
MTR08519000001000000000000000RA              00130092    005801790000017900000570000003NN  NNW 000                       N    
RDG08519000WATRL000000004K00000000000001747012610132015110548N000000000000N27       000270400K 10000000010000001727           
CUS0851900000108008339007         CLARK MARGUERITE A  5712 1ST AVE                            000N        CARE OF             
MTR08519000001000000000000000RA              24757337    005801800000018000000520000003NN  NNW 000                       N    
RDG08519000WATRL000000004K00000000000004539012810132015110643N000000000000N27       000350400K 10000000010000004531           
CUS0851900000108008338009         KESNER CHARLES A    5710 1ST AVE                            000N        CARE OF             
MTR08519000001000000000000000RA              24757338    005801810000018100000520000003NN  NNW 000                       N    
RDG08519000WATRL000000004K00000000000004206012910132015110653N000000000000N27       000100400K 10000000010000004176           
CUS0851900000108008373006         WILLIAM O. COMPTON  5713 1ST AVE                            000N        CARE OF             
MTR08519000001000000000000000RA              26003999    005801820000018200000520000003NN  NNW 000                       N    
RDG08519000WATRL000000004K00000000000005024013110132015110746N000000000000N27       000180400K 10000000010000004999           
CUS0851900000108008374004         KARCHER ERIN        5711 1ST AVE                            000N        CARE OF             
MTR08519000001000000000000000RA              38187993    005801830000018300000520000003NN  NNW 000                       N    
RDG08519000WATRL000000004K00000000000001033013210132015110813N000000000000N27       000270400K 10000000010000001015           
CUS0851900000108008375001         MCINTYRE DAVID P    5709 1ST AVE                            000N        CARE OF             
MTR08519000001000000000000000RA              11330477    005801840000018400000570000003NN  NNW 000                       N    
RDG08519000WATRL000000004K00000000000003573013310132015110831N000000000000N27       000180400K 10000000010000003565           
CUS0851900000108008376009         JOHNSON DONALD      5707 1ST AVE                            000N        CARE OF             
MTR08519000001000000000000000RA              9684871     005801850000018500000570000003NN  NNW 000                       N    
RDG08519000WATRL000000004K00000000000002660013610132015111014N000000000000N27       000490400K 10000000010000002660           
CUS0851900000108008337001         ELLIS SHARON D      5708 1ST AVE                            000N        CARE OF             
MTR08519000001000000000000000RA              00130138    005801860000018600000570000003NN  NNW 000                       N    
RDG08519000WATRL000000004K00000000000000693013010132015110728N000000000000N27       000350400K 10000000010000000684           
CUS0851900000108008336003         GRIFFIN WILLIAM C   5706 1ST AVE                            000N        CARE OF             
MTR08519000001000000000000000RA              00130090    005801870000018700000570000003NN  NNW 000                       N    
RDG08519000WATRL000000004K00000000000000456013410132015110906N000000000000N27       000350400K 10000000010000000452           
CUS0851900000108008335005         BOYCE DANIEL M      5704 1ST AVE                            000N        CARE OF             
MTR08519000001000000000000000RA              29403702    005801880000018800000520000003NN  NNW 000                       N    
RDG08519000WATRL000000004K00000000000002014013510132015110925N000000000000N27       000190400K 10000000010000002003           
CUS0851900000108008334008         BRILL HENRY A       5702 1ST AVE                            000N        CARE OF             
MTR08519000001000000000000000RA              27829787    005801890000018900000520000003NN  NNW 000                       N    
RDG08519000WATRL000000004K00000000000004843013811052015084402O000300000010N80       000370400K 10000000010000004846           
CUS0851900000108008377007         MILLER CHARLOTTE E  5705 1ST AVE                            000N        CARE OF             
MTR08519000001000000000000000RA              00130089    005801900000019000000570000003NN  NNW 000                       N    
RDG08519000WATRL000000004K00000000000001909013710132015111041N000000000000N27       000270400K 10000000010000001871           
CUS0851900000108008378005         CANTRELL WILLARD    5703 1ST AVE                            000N        CARE OF             
MTR08519000001000000000000000RA              48587240    005801910000019100000520000003NN  NNW 000                       N    
RDG08519000WATRL000000004K00000000000001895013910132015111144N000000000000N27       000260400K 10000000010000001881           
CUS0851900000108008379003         SACKS LESTER FOLLMAR5701 1ST AVE                            000N        CARE OF             
MTR08519000001000000000000000RA              24757339    005801920000019200000520000003NN  NNW 000                       N    
RDG08519000WATRL000000004K00000000000003177014010132015111333N000300000010N27       001090400K 10000000010000003194           
CUS0851900000108008310008         HAPPEL ANITA W      5655 OREGON AVE                         000N        CARE OF             
MTR08519000001000000000000000RA              48587361    005801930000019300000520000003NN  NNW 000                       N    
RDG08519000WATRL000000004K00000000000002849014110132015111559N000000000000N27       001460400K 10000000010000002823           
CUS0851900000108008309000         BOHLINGER SARAH     5649 OREGON AVE                         000N        CARE OF             
MTR08519000001000000000000000RA              45382501    005801940000019400000520000003NN  NNW 000                       N    
RDG08519000WATRL000000004K00000000000002245014210132015111713N000000000000N27       000740400K 10000000010000002227           
CUS0851900000108008308002         WEIL OTTO A         1403 AVON CT                            000N        CARE OF             
MTR08519000001000000000000000RA              46878427    005801950000019500000520000003NN  NNW 000                       N    
RDG08519000WATRL000000004K00000000000002395014311052015084438O000400000010N80       000350400K 10000000010000002375           
CUS0851900000108008307004         MILLER PATRICIA E   1405 AVON CT                            000N        CARE OF             
MTR08519000001000000000000000RA              48588737    005801960000019600000520000003NN  NNW 000                       N    
RDG08519000WATRL000000004K00000000000001812014410132015111801N000000000000N27       000130400K 10000000010000001798           
CUS0851900000108008306006         HELEN D MIKLOSSY    1407 AVON CT                            000N        CARE OF             
MTR08519000001000000000000000RA              00129339    005801970000019700000570000003NN  NNW 000                       N    
RDG08519000WATRL000000004K00000000000000414014510132015111825N000000000000N27       000240400K 10000000010000000409           
CUS0851900000108008305008         GROFT FREDERICK J   1409 AVON CT                            000N        CARE OF             
MTR08519000001000000000000000RA              26006065    005801980000019800000520000003NN  NNW 000                       N    
RDG08519000WATRL000000004K00000000000007983014610132015111848N000400000010N27       000230400K 10000000010000007928           
CUS0851900000108008304001         SPARROW JENNIFER ANN1408 AVON CT                            000N        CARE OF             
MTR08519000001000000000000000RA              24224566    005801990000019900000520000003NN  NNW 000                       N    
RDG08519000WATRL000000004K00000000000003002014710132015111910N000000000000N27       000220400K 10000000010000002971           
CUS0851900000108008303003         MICHAEL KAISER      1406 AVON CT                            000N        CARE OF             
MTR08519000001000000000000000RA              48584455    005802000000020000000520000003NN  NNW 000                       N    
RDG08519000WATRL000000004K00000000000001940014810132015111936N000000000000N27       000260400K 10000000010000001926           
CUS0851900000108008302005         RING MONTE          1404 AVON CT                            000N        CARE OF             
MTR08519000001000000000000000RA              30518260    005802010000020100000520000003NN  NNW 000                       N    
RDG08519000WATRL000000004K00000000000002776014910132015112004N000000000000N27       000280400K 10000000010000002764           
CUS0851900000108008301007         FRACCHIA ADAM       1402 AVON CT                            000N        CARE OF             
MTR08519000001000000000000000RA              27213743    005802020000020200000520000003NN  NNW 000                       N    
RDG08519000WATRL000000004K00000000000002681015010132015112031N000000000000N27       000270400K 10000000010000002663           
CUS0851900000108008300009         DOYLE GARY P        5645 OREGON AVE                         000N        CARE OF             
MTR08519000001000000000000000RA              45382363    005802030000020300000520000003NN  NNW 000                       N    
RDG08519000WATRL000000004K00000000000003531015110132015112056N000000000000N27       000250400K 10000000010000003512           
CUS0851900000108008298005         KEPPLEY KEVIN J     5639 OREGON AVE                         000N        CARE OF             
MTR08519000001000000000000000RA              27213780    005802040000020400000520000003NN  NNW 000                       N    
RDG08519000WATRL000000004K00000000000005008015210132015112259N000000000000N27       001230400K 10000000010000004995           
CUS0851900000108008297007         OLVER ELIZABETH     5637 OREGON AVE                         000N        CARE OF             
MTR08519000001000000000000000RA              29681184    005802050000020500000520000003NN  NNW 000                       N    
RDG08519000WATRL000000004K00000000000001975015310132015112401N000000000000N27       000620400K 10000000010000001969           
CUS0851900000108008296009         OLVER ELIZABETH ANN 5635 OREGON AVE                         000N        CARE OF             
MTR08519000001000000000000000RA              11429797    005802060000020600000570000003NN  NNW 000                       N    
RDG08519000WATRL000000004K00000000000006358015410132015112509N000000000000N27       000680400K 10000000010000006350           
CUS0851900000108008295001         HARMAN TIMOTHY S    5633 OREGON AVE                         000N        CARE OF             
MTR08519000001000000000000000RA              42810214    005802070000020700000520000003NN  NNW 000                       N    
RDG08519000WATRL000000004K00000000000003670015510132015112545N000000000000N27       000360400K 10000000010000003642           
CUS0851900000108008294004         DRESSEL MARGARET E  5631 OREGON AVE                         000N        CARE OF             
MTR08519000001000000000000000RA              30526775    005802080000020800000520000003NN  NNW 000                       N    
RDG08519000WATRL000000004K00000000000004114015610132015112617N000300000010N27       000320400K 10000000010000004062           
CUS0851900000108008293006         GRAMS CHARLES       5629 OREGON AVE                         000N        CARE OF             
MTR08519000001000000000000000RA              99999999    005802090000020900000310000003NN  NNW 000                       N    
RDG08519000WATRL000000004K00000000000004587015710132015112652N000000000000N27       000350400K 10000000010000004568           
CUS0851900000108008292008         LINDA L NAPIER      5627 OREGON AVE                         000N        CARE OF             
MTR08519000001000000000000000RA              36687572    005802100000021000000520000003NN  NNW 000                       N    
RDG08519000WATRL000000004K00000000000002784015810132015112722N000000000000N27       000300400K 10000000010000002755           
RTR08519000NN02100210000002100000000002100210000317NY021002100210000000000000000000000000000002    10072015NY020000 N         
RHD08519200NN01620162000001620000000001620162000088NY016201620162000100000000000000000000000002    10072015NY020000 N         
CUS0851920000108008470000         LANGFIELD KENNETH J 5708 OAKLAND RD                         000N        CARE OF             
MTR08519200001000000000000000RA              99287564    005800010000000100000570000003NN  NNW 000                       N    
RDG08519200WATRL000000004K00000000000002721000110162015130423N000000000000N40       000000400K 10000000010000002677           
CUS0851920000108008471008         WENDY D. JACOBS     5710 OAKLAND RD                         000N        CARE OF             
MTR08519200001000000000000000RA              99292397    005800020000000200000570000003NN  NNW 000                       N    
RDG08519200WATRL000000004K00000000000001035000210162015130425N000000000000N40       000020400K 10000000010000001009           
CUS0851920000108008472006         KRACH MICHAEL       5712 OAKLAND RD                         000N        CARE OF             
MTR08519200001000000000000000RA              01098981    005800030000000300000610000003NN  NNW 000                       N    
RDG08519200WATRL000000004K00000000000000683000310162015130428N000000000000N40       000030400K 10000000010000000667           
CUS0851920000108008473004         GEISLER DUANE FREDER5714 OAKLAND RD                         000N        CARE OF             
MTR08519200001000000000000000RA              00129911    005800040000000400000570000003NN  NNW 000                       N    
RDG08519200WATRL000000004K00000000000001763000410162015130430N000000000000N40       000020400K 10000000010000001678           
CUS0851920000108008474002         FOSTER PAUL E,JR    5716 OAKLAND RD                         000N        CARE OF             
MTR08519200001000000000000000RA              01113479    005800050000000500000610000003NN  NNW 000                       N    
RDG08519200WATRL000000004K00000000000000493000510162015130433N000000000000N40       000030400K 10000000010000000482           
CUS0851920000108008475009         MONTGOMERY THOMAS D,5718 OAKLAND RD                         000N        CARE OF             
MTR08519200001000000000000000RA              01113485    005800060000000600000610000003NN  NNW 000                       N    
RDG08519200WATRL000000004K00000000000001022000610162015130437N000000000000N40       000040400K 10000000010000001003           
CUS0851920000108008476007         STERLING JAMES L,3RD5720 OAKLAND RD                         000N        CARE OF             
MTR08519200001000000000000000RA              14907603    005800070000000700000310000003NN  NNW 000                       N    
RDG08519200WATRL000000004K00000000000000765000710162015130439N000000000000N40       000020400K 10000000010000000748           
CUS0851920000108008477005         MR/MRS BRIAN RIPLEY 5722 OAKLAND RD                         000N        CARE OF             
MTR08519200001000000000000000RA              31584863    005800080000000800000520000003NN  NNW 000                       N    
RDG08519200WATRL000000004K00000000000002538000810162015130442N000000000000N40       000030400K 10000000010000002525           
CUS0851920000108008478003         MCCULLOUGH WAYNE D  5724 OAKLAND RD                         000N        CARE OF             
MTR08519200001000000000000000RA              42808373    005800090000000900000520000003NN  NNW 000                       N    
RDG08519200WATRL000000004K00000000000002683000910162015130447N000000000000N40       000050400K 10000000010000002661           
CUS0851920000108008479001         CHURCH OF THE ASCENS1202 ROBIN CT                           000N        CARE OF             
MTR08519200001000000000000000RA              14920745    005800100000001000000310000003NN  NNW 000                       N    
RDG08519200WATRL000000004K00000000000001315001010162015130450N000000000000N40       000030400K 10000000010000001252           
CUS0851920000108008480009         SANTIAGO LEONARD    1200 ROBIN CT                           000N        CARE OF             
MTR08519200001000000000000000RA              00129642    005800110000001100000570000003NN  NNW 000                       N    
RDG08519200WATRL000000004K00000000000001546001110162015130453N000000000000N40       000030400K 10000000010000001512           
CUS0851920000108008481007         MARTIN CLARK        1201 ROBIN CT                           000N        CARE OF             
MTR08519200001000000000000000RA              75425485    005800120000001200000350000003NN  NNW 000                       N    
RDG08519200WATRL000000004K00000000000000203001211052015084558O000000000010N80       000050400K 10000000010000000181           
CUS0851920000108008482005         EDWARD CROUSE       5726 OAKLAND RD                         000N        CARE OF             
MTR08519200001000000000000000RA              27818540    005800130000001300000520000003NN  NNW 000                       N    
RDG08519200WATRL000000004K00000000000003982001310162015130510N000000000000N40       000120400K 10000000010000003965           
CUS0851920000108008483003         WILLIAM E DINGLE    5728 OAKLAND RD                         000N        CARE OF             
MTR08519200001000000000000000RA              14930478    005800140000001400000310000003NN  NNW 000                       N    
RDG08519200WATRL000000004K00000000000000768001411052015084617O000000000010N80       000130400K 10000000010000000738           
CUS0851920000108008484001         TOPPER WILLIAM A    5730 OAKLAND RD                         000N        CARE OF             
MTR08519200001000000000000000RA              52287370    005800150000001500000520000003NN  NNW 000                       N    
RDG08519200WATRL000000004K00000000000002249001510162015130526N000000000000N40       000030400K 10000000010000002229           
CUS0851920000108008485008         LELAND JANE         5802 HERON DR                           000N        CARE OF             
MTR08519200001000000000000000RA              32898178    005800160000001600000520000003NN  NNW 000                       N    
RDG08519200WATRL000000004K00000000000002863001610162015130535N000300000010N40       000090400K 10000000010000002880           
CUS0851920000108008486006         MIDDENDORF JOHN R   5804 HERON DR                           000N        CARE OF             
MTR08519200001000000000000000RA              27821057    005800170000001700000520000003NN  NNW 000                       N    
RDG08519200WATRL000000004K00000000000003305001710162015130538N000000000000N40       000030400K 10000000010000003297           
CUS0851920000108008487004         ELLIOTT MICHAEL W   1126 PLOVER DR                          000N        CARE OF             
MTR08519200001000000000000000RA              50479172    005800180000001800000520000003NN  NNW 000                       N    
RDG08519200WATRL000000004K00000000000002319001810162015130541N000000000000N40       000030400K 10000000010000002290           
CUS0851920000108008488002         MIX RICHARD L,JR    1124 PLOVER DR                          000N        CARE OF             
MTR08519200001000000000000000RA              27133624    005800190000001900000520000003NN  NNW 000                       N    
RDG08519200WATRL000000004K00000000000003297001910162015130545N000000000000N40       000040400K 10000000010000003276           
CUS0851920000108008489000         W ROSS CHILDS       1122 PLOVER DR                          000N        CARE OF             
MTR08519200001000000000000000RA              27213875    005800200000002000000520000003NN  NNW 000                       N    
RDG08519200WATRL000000004K00000000000005725002010162015130552N000000000000N40       000070400K 10000000010000005702           
CUS0851920000108008490008         MATTHEW D FOSTER    1120 PLOVER DR                          000N        CARE OF             
MTR08519200001000000000000000RA              00129640    005800210000002100000570000003NN  NNW 000                       N    
RDG08519200WATRL000000004K00000000000000816002110162015130558N000000000000N40       000060400K 10000000010000000807           
CUS0851920000108008491006         SMITH ANTHONY       1118 PLOVER DR                          000N        CARE OF             
MTR08519200001000000000000000RA              48590034    005800220000002200000520000003NN  NNW 000                       N    
RDG08519200WATRL000000004K00000000000001550002210162015130609N000000000000N40       000110400K 10000000010000001527           
CUS0851920000108008492004         STINER WILLIAM J V  1116 PLOVER DR                          000N        CARE OF             
MTR08519200001000000000000000RA              00129644    005800230000002300000570000003NN  NNW 000                       N    
RDG08519200WATRL000000004K00000000000002141002310162015130617N000000000000N40       000080400K 10000000010000002116           
CUS0851920000108008493002         SCHLAICH BRUCE HOWAR1114 PLOVER DR                          000N        CARE OF             
MTR08519200001000000000000000RA              23646239    005800240000002400000520000003NN  NNW 000                       N    
RDG08519200WATRL000000004K00000000000005082002410162015130622N000000000000N40       000050400K 10000000010000005071           
CUS0851920000108008494000         TRAVIS FRICKE       1112 PLOVER DR                          000N        CARE OF             
MTR08519200001000000000000000RA              24760574    005800250000002500000520000003NN  NNW 000                       N    
RDG08519200WATRL000000004K00000000000003295002510162015130625N000000000000N40       000030400K 10000000010000003262           
CUS0851920000108008495007         GEORGE DAVIS        1110 PLOVER DR                          000N        CARE OF             
MTR08519200001000000000000000RA              39923795    005800260000002600000520000003NN  NNW 000                       N    
RDG08519200WATRL000000004K00000000000001867002610162015130628N000000000000N40       000030400K 10000000010000001860           
CUS0851920000108008496005         JOHN J KRACH        1108 PLOVER DR                          000N        CARE OF             
MTR08519200001000000000000000RA              00129643    005800270000002700000570000003NN  NNW 000                       N    
RDG08519200WATRL000000004K00000000000000697002710162015130632N000000000000N40       000040400K 10000000010000000690           
CUS0851920000108008497003         ROBERTSON BARBARA D/1106 PLOVER DR                          000N        CARE OF             
MTR08519200001000000000000000RA              00129641    005800280000002800000570000003NN  NNW 000                       N    
RDG08519200WATRL000000004K00000000000001492002810162015130635N000000000000N40       000030400K 10000000010000001473           
CUS0851920000108008498001         NIELSEN BARBARA ANNE1104 PLOVER DR                          000N        CARE OF             
MTR08519200001000000000000000RA              00129629    005800290000002900000570000003NN  NNW 000                       N    
RDG08519200WATRL000000004K00000000000001403002910162015130641N000300000010N40       000060400K 10000000010000001379           
CUS0851920000108008499009         STUART M HARRISON   1002 PLOVER CT                          000N        CARE OF             
MTR08519200001000000000000000RA              01076519    005800300000003000000610000003NN  NNW 000                       N    
RDG08519200WATRL000000004K00000000000000612003010162015130646N000000000000N40       000050400K 10000000010000000598           
CUS0851920000108008500004         KORDUSKY JOHN G     1000 PLOVER CT                          000N        CARE OF             
MTR08519200001000000000000000RA              00129628    005800310000003100000570000003NN  NNW 000                       N    
RDG08519200WATRL000000004K00000000000002674003110162015130650N000000000000N40       000040400K 10000000010000002644           
CUS0851920000108008501002         FRANCIS E EVANS     1001 PLOVER CT                          000N        CARE OF             
MTR08519200001000000000000000RA              26004001    005800320000003200000520000003NN  NNW 000                       N    
RDG08519200WATRL000000004K00000000000003264003210162015130651N000000000000N40       000010400K 10000000010000003247           
CUS0851920000108008502000         ALEX CARLOS SANCHEZ 1003 PLOVER CT                          000N        CARE OF             
MTR08519200001000000000000000RA              00129639    005800330000003300000570000003NN  NNW 000                       N    
RDG08519200WATRL000000004K00000000000000280003310162015130656N000000000000N40       000050400K 10000000010000000280           
CUS0851920000108008503008         ZENTZ RICHARD C,JR/D1102 PLOVER DR                          000N        CARE OF             
MTR08519200001000000000000000RA              10020822    005800340000003400000570000003NN  NNW 000                       N    
RDG08519200WATRL000000004K00000000000000335003410162015130658N000000000000N40       000020400K 10000000010000000320           
CUS0851920000108008504006         WAYNE WARD          1103 PLOVER DR                          000N        CARE OF             
MTR08519200001000000000000000RA              48593938    005800350000003500000520000003NN  NNW 000                       N    
RDG08519200WATRL000000004K00000000000002009003510162015130700N000000000000N40       000020400K 10000000010000001993           
CUS0851920000108008505003         JOHN KRACH JR       1105 PLOVER DR                          000N        CARE OF             
MTR08519200001000000000000000RA              44173155    005800360000003600000520000003NN  NNW 000                       N    
RDG08519200WATRL000000004K00000000000004428003610162015130703N000000000000N40       000030400K 10000000010000004410           
CUS0851920000108008506001         NICHOLAS W. QUACKENB1107 PLOVER DR                          000N        CARE OF             
MTR08519200001000000000000000RA              00129694    005800370000003700000570000003NN  NNW 000                       N    
RDG08519200WATRL000000004K00000000000000846003710162015130706N000000000000N40       000030400K 10000000010000000840           
CUS0851920000108008507009         OKONSKI EDWARD B,3RD1109 PLOVER DR                          000N        CARE OF             
MTR08519200001000000000000000RA              29083288    005800380000003800000520000003NN  NNW 000                       N    
RDG08519200WATRL000000004K00000000000003366003810162015130708N000000000000N40       000020400K 10000000010000003341           
CUS0851920000108008508007         KRAMER JEREMY S     1111 PLOVER DR                          000N        CARE OF             
MTR08519200001000000000000000RA              50479469    005800390000003900000520000003NN  NNW 000                       N    
RDG08519200WATRL000000004K00000000000002062003910162015130710N000000000000N40       000020400K 10000000010000002037           
CUS0851920000108008509005         LUCAS MARY L        1113 PLOVER DR                          000N        CARE OF             
MTR08519200001000000000000000RA              24232072    005800400000004000000520000003NN  NNW 000                       N    
RDG08519200WATRL000000004K00000000000003450004011052015084648O000400000010N80       000050400K 10000000010000003447           
CUS0851920000108008510003         LUISA PELINA ZAPANTA1115 PLOVER DR                          000N        CARE OF             
MTR08519200001000000000000000RA              26003860    005800410000004100000520000003NN  NNW 000                       N    
RDG08519200WATRL000000004K00000000000005585004110162015130726N000000000000N40       000110400K 10000000010000005563           
CUS0851920000108008511001         LUECKING SHARON     1117 PLOVER DR                          000N        CARE OF             
MTR08519200001000000000000000RA              99999999    005800420000004200000520000003NN  NNW 000                       N    
RDG08519200WATRL000000004K00000000000000541004210162015130728N000000000000N40       000020400K 10000000010000000507           
CUS0851920000108008512009         LINDNER MELVIN A    1119 PLOVER DR                          000N        CARE OF             
MTR08519200001000000000000000RA              00129653    005800430000004300000570000003NN  NNW 000                       N    
RDG08519200WATRL000000004K00000000000001150004310162015130731N000000000000N40       000030400K 10000000010000001128           
CUS0851920000108008513007         EDWIN B WATTS, JR   5808 HERON DR                           000N        CARE OF             
MTR08519200001000000000000000RA              36690456    005800440000004400000520000003NN  NNW 000                       N    
RDG08519200WATRL000000004K00000000000002477004411052015084710O000000000010N80       000050400K 10000000010000002469           
CUS0851920000108008514005         KAVANAUGH JUDITH A  5810 HERON DR                           000N        CARE OF             
MTR08519200001000000000000000RA              24761055    005800450000004500000520000003NN  NNW 000                       N    
RDG08519200WATRL000000004K00000000000003876004510162015130745N000000000000N40       000090400K 10000000010000003867           
CUS0851920000108008515002         KARFONTA JASON P    5812 HERON DR                           000N        CARE OF             
MTR08519200001000000000000000RA              21202041    005800460000004600000520000003NN  NNW 000                       N    
RDG08519200WATRL000000004K00000000000004194004610162015130751N000000000000N40       000060400K 10000000010000004183           
CUS0851920000108008516000         STANTON EVELYN M    1114 FLAMINGO DR                        000N        CARE OF             
MTR08519200001000000000000000RA              14922584    005800470000004700000310000003NN  NNW 000                       N    
RDG08519200WATRL000000004K00000000000000619004710162015130756N000000000000N40       000050400K 10000000010000000605           
CUS0851920000108008517008         BASSO MICHAEL V     1112 FLAMINGO DR                        000N        CARE OF             
MTR08519200001000000000000000RA              27822876    005800480000004800000520000003NN  NNW 000                       N    
RDG08519200WATRL000000004K00000000000002661004810162015130758N000000000000N40       000020400K 10000000010000002633           
CUS0851920000108008518006         LANASA BRETT G      1110 FLAMINGO DR                        000N        CARE OF             
MTR08519200001000000000000000RA              23841109    005800490000004900000520000003NN  NNW 000                       N    
RDG08519200WATRL000000004K00000000000005529004910162015130802N000000000000N40       000040400K 10000000010000005510           
CUS0851920000108008519004         JONAS SPURAS        1108 FLAMINGO DR                        000N        CARE OF             
MTR08519200001000000000000000RA              77882522    005800500000005000000360000003NN  NNW 000                       N    
RDG08519200WATRL000000004K00000000000000019005011052015084730O000000000010N80       000060400K 10000000010000000012           
CUS0851920000108008520002         JONES RICHARD W     1106 FLAMINGO DR                        000N        CARE OF             
MTR08519200001000000000000000RA              14923052    005800510000005100000310000003NN  NNW 000                       N    
