FHDNNNN018002336002336002336N                                                                                           008421
RHD02040800NN00320070000000320000003800700070000060NY007000700070000000250000000000000000000001    11102015NY020000 N         
CUS0204080000102349728002         LILLIE M ROWE       942 W FRANKLIN ST                       000N        CARE OF             
MTR02040800001000000000000000RA              75616594    005800010000000100000350000003NN  NNW 000   VACANT PROPERTY     N    
RDG02040800WATR 000000004R00000000000000000000011112015180000N000100000010N         000000400R 10000000010000000000           
RFF0204080069124549      ERT      0000  956.44375000140000111120151800000000000004100W 1220000N                               
CUS0204080000102349727004         MAYOR AND CITY COUNC944 W FRANKLIN ST                       000N        CARE OF             
MTR02040800001000000000000000RA              21724873    005800020000000200000590000003NN  NNW 000                       N    
RDG02040800WATRL000000004K00000000000000000000111122015075319S019000000000U40       000000400K 10000000010000004371           
CUS0204080000102163119007         RTMA PROPERTIES, LLC949 BENNETT PL                          000N        CARE OF             
MTR02040800001000000000000000RA              75617728    005800030000000300000350000003NN  NNW 000                       N    
RDG02040800WATR 000000004R00000000000009868000011112015180000N000100000010N         000000400R 10000000010000009930           
RFF0204080069228321      ERT      0000  956.44375000140000111120151800000098682737100W 1220000N                               
CUS0204080000102163121003         MARIO,LLC           939 BENNETT PL                          000N        CARE OF             
MTR02040800001000000000000000RA              21708441    005800040000000400000590000003NY  NNW 000                       N    
MTM0204080021708441    79182551 RD 0021                                                                                       
RDG02040800WATRL000000004K00000000000000000000511122015080320S018000000000U40       001030400K 10000000010000000000           
CUS0204080000102362469005         WILLIAMS, ROSE MARIE929 BENNETT PL                          000N        CARE OF             
MTR02040800001000000000000000RA              21723509    005800050000000500000590000003NY  NNW 000                       N    
MTM0204080021723509    CLEAN OUT                                                                                              
RDG02040800WATRL000000004K00000000000000000000411122015080137S018000000000U40       001360400K 10000000010000004738           
CUS0204080000102163122001         CITY HOMES WEST BUSI923 BENNETT PL                          000N        CARE OF             
MTR02040800001000000000000000RA              75618025    005800060000000600000350000003NN  NNW 000                       N    
RDG02040800WATR 000000004R00000000000000198000011112015180000N000000000000N         000000400R 10000000010000000178           
RFF0204080069228349      ERT      0000  956.44375000140000111120151800000001988767100W 1220000N                               
CUS0204080000102163125004         ATLAS MILL REAL ESTA917 BENNETT PL                          000N        CARE OF             
MTR02040800001000000000000000RA              75616716    005800070000000700000350000003NN  NNW 000                       N    
RDG02040800WATR 000000004R00000000000000388000011112015180000N000000000000N         000000400R 10000000010000000357           
RFF0204080069228328      ERT      0000  956.44375000140000111120151800000003884453100W 1220000N                               
CUS0204080000102163128008         MARIO,LLC           907 BENNETT PL                          000N        CARE OF             
MTR02040800001000000000000000RA              75615857    005800080000000800000350000003NN  NNW 000                       N    
RDG02040800WATR 000000004R00000000000000095000011112015180000N000400000010N         000000400R 10000000010000000000           
RFF0204080069228214      ERT      0000  956.44375000140000111120151800000000955473100W 1220000N                               
CUS0204080000102163129006         BRUCE & BRUCE AVE.,L905 BENNETT PL                          000N        CARE OF             
MTR02040800001000000000000000RA              76346328    005800090000000900000350000003NN  NNW 000                       N    
RDG02040800WATR 000000004R00000000000000097000011112015180000N000300000010N         000000400R 10000000010000000096           
RFF0204080069228336      ERT      0000  956.44375000140000111120151800000000976522100W 1220000N                               
CUS0204080000102362793008         HP BENNETT, LLC     903 BENNETT PL                          000N        CARE OF             
MTR02040800001000000000000000RA              74814815    007500100000001000000350000003NN  NNW 000                       N    
RDG02040800WATRL000000004K00000000000000444000311122015075921N000000000010U40       002610400K 10000000010000000441           
CUS0204080000102163131002         HP BENNETT, LLC     906 BENNETT PL                          000N        CARE OF             
MTR02040800001000000000000000RA              75616080    005800110000001100000350000003NY  NNW 000                       N    
MTM0204080075616080    CIEAN OUT                                                                                              
RDG02040800WATRL000000004K00000000000000000000911122015080946S018000000000U40       000830400K 10000000010000000299           
CUS0204080000102163134006         ATLAS MILL REAL ESTA922 BENNETT PL                          000N        CARE OF             
MTR02040800001000000000000000RA              76345250    005800120000001200000350000003NN  NNW 000                       N    
RDG02040800WATRL000000004K00000000000000155000811122015080823N000000000000U40       000390400K 10000000010000000130           
CUS0204080000102362809002         HP BENNETT, LLC     926 BENNETT PL                          000N        CARE OF             
MTR02040800001000000000000000RA              75617900    005800130000001300000350000003NN  NNW 000                       N    
RDG02040800WATRL000000004K00000000000000587000711122015080744N000000000000U40       000270400K 10000000010000000511           
CUS0204080000102362794006         RTMA PROPERTIES, LLC930 BENNETT PL                          000N        CARE OF             
MTR02040800001000000000000000RA              10018818    005800140000001400000570000003NN  NNW 000   VACANT PROPERTY     N    
RDG02040800WATRL000000004K00000000000000000000611122015080717S002000000000U40       002370400K 10000000010000000000           
CUS0204080000102378842005         ELI INVESTMENT GROUP932 BENNETT PL                          000N        CARE OF             
MTR02040800001000000000000000RA              75615030    005800150000001500000350000003NN  NNW 000                       N    
RDG02040800WATR 000000004R00000000000000071000011112015180000N000000000000N         000000400R 10000000010000000061           
RFF0204080069126783      ERT      0000  956.44375000140000111120151800000000714101100W 1220000N                               
CUS0204080000102362717007         VENUS VALET SERVICE,934 BENNETT PL                          000N        CARE OF             
MTR02040800001000000000000000RA              76346383    005800160000001600000350000003NN  NNW 000                       N    
RDG02040800WATR 000000004R00000000000000000000011112015180000N000100000010N         000000400R 10000000010000000000           
RFF0204080069124621      ERT      0000  956.44375000140000111120151800000000000003100W 1220000N                               
CUS0204080000102163135003         COPPERFIELD HOLDINGS948 BENNETT PL                          000N        CARE OF             
MTR02040800001000000000000000RA              74814842    007500170000001700000350000003NN  NNW 000                       N    
RDG02040800WATR 000000004R00000000000000152000011112015180000N000000000000N         000000400R 10000000010000000130           
RFF0204080069228343      ERT      0000  956.44375000140000111120151800000001527607100W 1220000N                               
CUS0204080000102163138007         LOMAX, KEVIN S.     515 N SCHROEDER ST                      000N        CARE OF             
MTR02040800001000000000000000RA              78024223    005800180000001800000360000003NN  NNW 000                       N    
RDG02040800WATR 000000004R00000000000000000000011112015180000N000100000010N         000000400R 10000000010000000000           
RFF0204080069124618      ERT      0000  956.44375000140000111120151800000000000904100W 1220000N                               
CUS0204080000102163143007         GILCHRIST, CALEB    518 N SCHROEDER ST                      000N        CARE OF             
MTR02040800001000000000000000RA              21700705    005800190000001900000590000003NN  NNW 000   VACANT PROPERTY     N    
RDG02040800WATRL000000004K00000000000000000000211122015075500S063000000000U40       001010400K 10000000010000000925           
CUS0204080000102163144005         HOUSING AUTHORITY OF510 N SCHROEDER ST                      000N        CARE OF             
MTR02040800001000000000000000RA              78024225    005800200000002000000360000003NN  NNW 000                       N    
RDG02040800WATR 000000004R00000000000000066000011112015180000N000000000000N         000000400R 10000000010000000046           
RFF0204080069126782      ERT      0000  956.44375000140000111120151800000000666524100W 1220000N                               
CUS0204080000102163147008         BRANTLEY, MARGARET R1002 W FRANKLIN ST                      000N        CARE OF             
MTR02040800001000000000000000RA              10000121    005800210000002100000570000003NY  NNW 000   VACANT PROPERTY     N    
MTM0204080010000121    VAC                                                                                                    
RDG02040800WATRL000000004K00000000000000000002711122015084425N000000000000U40       001230400K 10000000010000000000           
CUS0204080000102163148006         ALMA B COOPER       1004 W FRANKLIN ST                      000N        CARE OF             
MTR02040800001000000000000000RA              79182528    005800220000002200000360000003NN  NNW 000   VACANT PROPERTY     N    
RDG02040800WATR 000000004R00000000000000005000011112015180000N000300000010N         000000400R 10000000010000000000           
RFF0204080069124636      ERT      0000  956.44375000140000111120151800000000056891100W 1220000N                               
CUS0204080000102163151000         DAISY TAYLOR        1016 W FRANKLIN ST                      000N        CARE OF             
MTR02040800001000000000000000RA              99999999    005800230000002300000620000003NN  NNW 000   VACANT PROPERTY     N    
RDG02040800WATRL000000004K00000000000000000002611122015084222S022000000000U40       001840400K 10000000010000000230           
CUS0204080000102163158005         LIENLOGIC REO F1, LL1040 W FRANKLIN ST                      000N        CARE OF             
MTR02040800001000000000000000RA              75423559    005800240000002400000350000003NN  NNW 000                       N    
RDG02040800WATR 000000004R00000000000000167000011112015180000N000000000000N         000000400R 10000000010000000158           
RFF0204080069124557      ERT      0000  956.44375000140000111120151800000001678363100W 1220000N                               
CUS0204080000102362711000         MUSE, LEONARD       503 N ARLINGTON AVE                     000N        CARE OF             
MTR02040800001000000000000000RA              75426387    005800250000002500000350000003NN  NNW 000                       N    
RDG02040800WATR 000000004R00000000000000799000011112015180000N000000000000N         000000400R 10000000010000000723           
RFF0204080069228346      ERT      0000  956.44375000140000111120151800000007990867100W 1220000N                               
CUS0204080000102163160001         ELIZABETH DIXON     511 N ARLINGTON AVE                     000N        CARE OF             
MTR02040800001000000000000000RA              75613592    005800260000002600000350000003NN  NNW 000                       N    
RDG02040800WATR 000000004R00000000000000099000011112015180000N000000000000N         000000400R 10000000010000000090           
RFF0204080069126803      ERT      0000  956.44375000140000111120151800000000992192100W 1220000N                               
CUS0204080000102163163005         BRIGGS, ELIZABETH   1025 BENNETT PL                         000N        CARE OF             
MTR02040800001000000000000000RA              75425797    005800270000002700000350000003NN  NNW 000                       N    
RDG02040800WATR 000000004R00000000000000046000011112015180000N000000000000N         000000400R 10000000010000000042           
RFF0204080069124628      ERT      0000  956.44375000140000111120151800000000467408100W 1220000N                               
CUS0204080000102163166008         HARRIS, ROBIN L     1019 BENNETT PL                         000N        CARE OF             
MTR02040800001000000000000000RA              75425047    005800280000002800000350000003NN  NNW 000                       N    
RDG02040800WATR 000000004R00000000000000316000011112015180000N000000000000N         000000400R 10000000010000000291           
RFF0204080069126492      ERT      0000  956.44375000140000111120151800000003163365100W 1220000N                               
CUS0204080000102163168004         SIMMS JR, MICHAEL R 1013 BENNETT PL                         000N        CARE OF             
MTR02040800001000000000000000RA              77987959    005800290000002900000360000003NN  NNW 000                       N    
RDG02040800WATR 000000004R00000000000000029000011112015180000N000000000000N         000000400R 10000000010000000012           
RFF0204080069124637      ERT      0000  956.44375000140000111120151800000000294615100W 1220000N                               
CUS0204080000102362764009         MILLNER, SIDNEY     1004 BENNETT PL                         000N        CARE OF             
MTR02040800001000000000000000RA              79182543    005800300000003000000360000003NN  NNW 000                       N    
RDG02040800WATR 000000004R00000000000000000000011112015180000N000100000010N         000000400R 10000000010000000000           
RFF0204080069124650      ERT      0000  956.44375000140000111120151800000000000020100W 1220000N                               
CUS0204080000102163174002         GRANITE FINANCE, LLC1022 BENNETT PL                         000N        CARE OF             
MTR02040800001000000000000000RA              75614520    005800310000003100000350000003NN  NNW 000                       N    
RDG02040800WATR 000000004R00000000000000081000011112015180000N000000000000N         000000400R 10000000010000000057           
RFF0204080069126855      ERT      0000  956.44375000140000111120151800000000811022100W 1220000N                               
CUS0204080000102362727006         JAMES C PRINCE      517 N ARLINGTON AVE                     000N        CARE OF             
MTR02040800001000000000000000RA              75425059    005800320000003200000350000003NN  NNW 000                       N    
RDG02040800WATR 000000004R00000000000000366000011112015180000N000100000010N         000000400R 10000000010000000366           
RFF0204080069228348      ERT      0000  956.44375000140000111120151800000003664781100W 1220000N                               
CUS0204080000102163179001         MAYOR AND CITY COUNC504 N ARLINGTON AVE                     000N        CARE OF             
MTR02040800001000000000000000RA              75613598    005800330000003300000350000003NN  NNW 000                       N    
RDG02040800WATRL000000004K00000000000000000002911122015085041S019000000000U40       001850400K 10000000010000000000           
CUS0204080000102163180009         FOSTER, PATRICK K.  502 N ARLINGTON AVE                     000N        CARE OF             
MTR02040800001000000000000000RA              75425826    005800340000003400000350000003NN  NNW 000                       N    
RDG02040800WATR 000000004R00000000000000280000011112015180000N000400000010N         000000400R 10000000010000000255           
RFF0204080069124585      ERT      0000  956.44375000140000111120151800000002800112100W 1220000N                               
CUS0204080000102349694006         SHAREEF'S GRILL, LLC1102 W FRANKLIN ST                      000N        CARE OF             
MTR02040800001000000000000000RA              75425808    005800350000003500000350000003NN  NNW 000   VACANT PROPERTY     N    
RDG02040800WATR 000000004R00000000000000000000011112015180000N000100000010N         000000400R 10000000010000000000           
RFF0204080069124570      ERT      0000  956.44375000140000111120151800000000000006100W 1220000N                               
CUS0204080000102362728004         GEORGE ADAMS        1116 W FRANKLIN ST                      000N        CARE OF             
MTR02040800001000000000000000RA              99999999    005800360000003600000620000003NN  NNW 000                       N    
RDG02040800WATRL000000004K00000000000000000002811122015084736S019000000000U40       001910400K 10000000010000000144           
CUS0204080000102362842003         DORIS M PARKER      1128 W FRANKLIN ST                      000N        CARE OF             
MTR02040800001000000000000000RA              75425812    005800370000003700000350000003NN  NNW 000                       N    
RDG02040800WATR 000000004R00000000000000105000011112015180000N000000000000N         000000400R 10000000010000000095           
RFF0204080069127551      ERT      0000  956.44375000140000111120151800000001055787100W 1220000N                               
CUS0204080000102163181007         SIMMONS, WILLIE     503 N CARROLLTON AVE                    000N        CARE OF             
MTR02040800001000000000000000RA              75423133    005800380000003800000350000003NN  NNW 000                       N    
RDG02040800WATR 000000004R00000000000000372000011112015180000N000000000000N         000000400R 10000000010000000327           
RFF0204080069124623      ERT      0000  956.44375000140000111120151800000003725174100W 1220000N                               
CUS0204080000102365472006         PRYOR, BERTHA       519 N CARROLLTON AVE                    000N        CARE OF             
MTR02040800001000000000000000RA              75425798    005800390000003900000350000003NN  NNW 000                       N    
RDG02040800WATR 000000004R00000000000000066000011112015180000N000000000000N         000000400R 10000000010000000058           
RFF0204080069124604      ERT      0000  956.44375000140000111120151800000000661385100W 1220000N                               
CUS0204080000102362791002         HSBC BANK USA, NA   521 N CARROLLTON AVE                    000N        CARE OF             
MTR02040800001000000000000000RA              74815071    007500400000004000000350000003NN  NNW 000                       N    
RDG02040800WATR 000000004R00000000000000168000011112015180000N000100000010N         000000400R 10000000010000000168           
RFF0204080069124631      ERT      0000  956.44375000140000111120151800000001680023100W 1220000N                               
CUS0204080000102371221009         KHYNE-SAM, CHIKATA  533 N CAREY ST                          000N        CARE OF             
MTR02040800001000000000000000RA              77888885    005800410000004100000360000003NN  NNW 000                       N    
RDG02040800WATRL000000004R00000000000000000003511122015090539S002000000000U40       000160400R 10000000010000000000           
RFF0204080069124639      ERT      0000  956.4437500014000000000000000000                  0002N                               
CUS0204080000102362714004         INVELON LLC         535 N CAREY ST                          000N        CARE OF             
MTR02040800001000000000000000RA              79182573    005800420000004200000360000003NN  NNW 000                       N    
RDG02040800WATRL000000004R00000000000000000003311122015090523S002000000000U40       000250400R 10000000010000000000           
RFF0204080069124669      ERT      0000  956.4437500014000000000000000000                  0001N                               
CUS0204080000102163189000         LAWRENCE ALSTON     1111 EDMONDSON AVE                      000N        CARE OF             
MTR02040800001000000000000000RA              78021072    005800430000004300000360000003NN  NNW 000                       N    
RDG02040800WATR 000000004R00000000000000102000011112015180000N000000000000N         000000400R 10000000010000000079           
RFF0204080069127643      ERT      0000  956.44375000140000111120151800000001026611100W 1220000N                               
CUS0204080000102371245008         PINKNEY, WILLIAM    1105 EDMONDSON AVE                      000N        CARE OF             
MTR02040800001000000000000000RA              21741663    005800440000004400000590000003NN  NNW 000                       N    
RDG02040800WATRL000000004K00000000000000000003411122015090458S019000000000U40       000520400K 10000000010000000424           
CUS0204080000102362730000         BYRD, JOHN M        1037 EDMONDSON AVE                      000N        CARE OF             
MTR02040800001000000000000000RA              77889127    005800450000004500000360000000NN  NNW 000                       N    
RDG02040800WATRL000000004K00000000000000001001011122015081405N000000000010U40       002590400K 10000000010000000000           
CUS0204080000102366904007         SHERRY & KATHY COOPE1029 EDMONDSON AVE                      000N        CARE OF             
MTR02040800001000000000000000RA              21721458    005800460000004600000590000003NN  NNW 000                       N    
RDG02040800WATRL000000004K00000000000000000001111122015081459S019000000000U40       000540400K 10000000010000000000           
CUS0204080000102362500007         WALTER K DENNISON JR1004 EDMONDSON AVE                      000N        CARE OF             
MTR02040800001000000000000000RA              50003338    005800470000004700000670000003NY  NNW 000                       N    
MTM0204080050003338    79182499 RD 0007                                                                                       
RDG02040800WATRL000000004K00000000000000000002511122015083704S001000000000U40       001580400K 10000000010000000000           
CUS0204080000102359625007         BROCK, MANSON       1016 EDMONDSON AVE                      000N        CARE OF             
MTR02040800001000000000000000RA              21724566    005800480000004800000590000003NY  NNW 000                       N    
MTM0204080021724566    79182603 RD0009                                                                                        
RDG02040800WATRL000000004K00000000000000000002411122015083918S001000000001U40       001340400K 10000000010000000000           
CUS0204080000102163194000         NEWSOME, MAE B      1018 EDMONDSON AVE                      000N        CARE OF             
MTR02040800001000000000000000RA              77890848    005800490000004900000360000003NN  NNW 000                       N    
RDG02040800WATRL000000004K00000000000000025001211122015081602N000300000010U40       000630400K 10000000010000000006           
CUS0204080000102362712008         ALSAIDI, AYAD HASHIM1024 EDMONDSON AVE                      000N        CARE OF             
MTR02040800001000000000000000RA              75613468    005800500000005000000350000003NN  NNW 000                       N    
RDG02040800WATRL000000004K00000000000000064001311122015081856N000000000010U40       001740400K 10000000010000000000           
CUS0204080000102362576007         SCOTT, CATHERINE    1026 EDMONDSON AVE                      000N        CARE OF             
MTR02040800001000000000000000RA              21737704    005800510000005100000590000003NY  NNW 000                       N    
MTM0204080021737704    79182558 RD 0114                                                                                       
RDG02040800WATRL000000004K00000000000000000001411122015082014S001000000000U40       000780400K 10000000010000000000           
CUS0204080000102374009005         ELAINE C G PARKER   1034 EDMONDSON AVE                      000N        CARE OF             
MTR02040800001000000000000000RA              21729497    005800520000005200000590000003NY  NNW 000                       N    
MTM0204080021729497    79182513 RD 0112                                                                                       
RDG02040800WATRL000000004K00000000000000000001511122015082121S001000000000U40       000670400K 10000000010000009207           
CUS0204080000102359654007         PARKER, JAMES R     1036 EDMONDSON AVE                      000N        CARE OF             
MTR02040800001000000000000000RA              21724468    005800530000005300000590000003NN  NNW 000   VACANT PROPERTY     N    
RDG02040800WATRL000000004K00000000000000000002311122015083248S019000000000U40       000980400K 10000000010000000000           
CUS0204080000102362837003         CARMENA/BLAINE WATSO1040 EDMONDSON AVE                      000N        CARE OF             
MTR02040800001000000000000000RA              76349161    005800540000005400000350000003NN  NNW 000                       N    
RDG02040800WATR 000000004R00000000000000112000011112015180000N000000000000N         000000400R 10000000010000000093           
RFF0204080069127510      ERT      0000  956.44375000140000111120151800000001120563100W 1220000N                               
CUS0204080000102163197003         BIG BOY INVESTMENT P1043 BRANTLEY AVE                       000N        CARE OF             
MTR02040800001000000000000000RA              75613902    005800550000005500000350000003NN  NNW 000                       N    
RDG02040800WATRL000000004K00000000000000112001611122015082254N000000000000U40       000930400K 10000000010000000079           
CUS0204080000102163199009         MARCEL & MAUDE LANGL1039 BRANTLEY AVE                       000N        CARE OF             
MTR02040800001000000000000000RA              75613918    005800560000005600000350000003NN  NNW 000                       N    
RDG02040800WATR 000000004R00000000000000273000011112015180000N000300000010N         000000400R 10000000010000000140           
RFF0204080069124518      ERT      0000  956.44375000140000111120151800000002734463100W 1220000N                               
CUS0204080000102163201003         BROOKS, PERNELL     1029 BRANTLEY AVE                       000N        CARE OF             
MTR02040800001000000000000000RA              75613904    005800570000005700000350000003NN  NNW 000                       N    
RDG02040800WATR 000000004R00000000000000091000011112015180000N000000000000N         000000400R 10000000010000000071           
RFF0204080069124596      ERT      0000  956.44375000140000111120151800000000911387100W 1220000N                               
CUS0204080000102359658008         DOMINION PROPERTIES,1027 BRANTLEY AVE                       000N        CARE OF             
MTR02040800001000000000000000RA              21738794    005800580000005800000590000003NN  NNW 000                       N    
RDG02040800WATRL000000004K00000000000000000002211122015083110S019000000000U40       000200400K 10000000010000000758           
CUS0204080000102368096000         CARTER JACQUELINE   1019 BRANTLEY AVE                       000N        CARE OF             
MTR02040800001000000000000000RA              21727348    005800590000005900000590000003NN  NNW 000                       N    
RDG02040800WATRL000000004K00000000000000000002111122015083050S018000000000U40       001800400K 10000000010000002379           
CUS0204080000102163204007         GREEN MOUNTAIN FINAN1017 BRANTLEY AVE                       000N        CARE OF             
MTR02040800001000000000000000RA              75613899    005800600000006000000350000003NN  NNW 000                       N    
RDG02040800WATR 000000004R00000000000000506000011112015180000N000100000010N         000000400R 10000000010000000506           
RFF0204080069124593      ERT      0000  956.44375000140000111120151800000005062870100W 1220000N                               
CUS0204080000102362526002         STEPHANIE AYRES BROW1015 BRANTLEY AVE                       000N        CARE OF             
MTR02040800001000000000000000RA              75614145    005800610000006100000350000003NN  NNW 000                       N    
RDG02040800WATR 000000004R00000000000000254000011112015180000N000000000000N         000000400R 10000000010000000233           
RFF0204080069126508      ERT      0000  956.44375000140000111120151800000002549165100W 1220000N                               
CUS0204080000102163205004         WILSON, BESSIE      1013 BRANTLEY AVE                       000N        CARE OF             
MTR02040800001000000000000000RA              75614120    005800620000006200000350000003NN  NNW 000                       N    
RDG02040800WATR 000000004R00000000000000194000011112015180000N000000000000N         000000400R 10000000010000000167           
RFF0204080069124615      ERT      0000  956.44375000140000111120151800000001944156100W 1220000N                               
CUS0204080000102359648009         ROSS, KIMBERLY L    1009 BRANTLEY AVE                       000N        CARE OF             
MTR02040800001000000000000000RA              78021770    005800630000006300000360000003NN  NNW 000                       N    
RDG02040800WATRL000000004K00000000000000002001711122015082558N000000000010U40       001840400K 10000000010000000000           
CUS0204080000102359649007         HOLLY ASSET GROUP II1007 BRANTLEY AVE                       000N        CARE OF             
MTR02040800001000000000000000RA              75613907    005800640000006400000350000003NN  NNW 000                       N    
RDG02040800WATR 000000004R00000000000000356000011112015180000N000000000000N         000000400R 10000000010000000323           
RFF0204080069124625      ERT      0000  956.44375000140000111120151800000003560253100W 1220000N                               
CUS0204080000102367734007         JOHN CARTER & WF    1005 BRANTLEY AVE                       000N        CARE OF             
MTR02040800001000000000000000RA              99999999    005800650000006500000620000003NN  NNW 000                       N    
RDG02040800WATRL000000004K00000000000000000001811122015082637S019000000000U40       000390400K 10000000010000002556           
CUS0204080000102163206002         ARTIS, ANN          1003 BRANTLEY AVE                       000N        CARE OF             
MTR02040800001000000000000000RA              21705317    005800660000006600000590000003NN  NNW 000   VACANT PROPERTY     N    
RDG02040800WATRL000000004K00000000000000000001911122015082648S019000000000U40       000110400K 10000000010000003015           
CUS0204080000102359659006         RUTH B HARRISON     1006 BRANTLEY AVE                       000N        CARE OF             
MTR02040800001000000000000000RA              21738798    005800670000006700000590000003NN  NNW 000                       N    
RDG02040800WATRL000000004K00000000000000000002011122015082750S019000000000U40       000620400K 10000000010000002433           
CUS0204080000102163210004         ALLEN, WILFRED O    624 N ARLINGTON AVE                     000N        CARE OF             
MTR02040800001000000000000000RA              99999999    005800680000006800000620000003NN  NNW 000   VACANT PROPERTY     N    
RDG02040800WATRL000000004K00000000000000000003211122015085404S022000000000U40       000260400K 10000000010000000291           
CUS0204080000102359599004         DAILEY JR NATHANIEL 614 N ARLINGTON AVE                     000N        CARE OF             
MTR02040800001000000000000000RA              74690900    005800690000006900000350000003NN  NNW 000                       N    
RDG02040800WATRL000000004R00000000000000000003111122015085338S002000000000U40       000710400R 10000000010000000000           
RFF0204080069228327      ERT      0000  956.4437500014000000000000000000                  0001N                               
CUS0204080000102359596000         SUNSTAR INVESTMENT G606 N ARLINGTON AVE                     000N        CARE OF             
MTR02040800001000000000000000RA              78021766    005800700000007000000360000003NN  NNW 000                       N    
RDG02040800WATRL000000004K00000000000000004003011122015085227N000000000010U40       001060400K 10000000010000000000           
RTR02040800NN00320070000000320000003800700070000060NY007000700070000000250000000000000000000001    11102015NY020000 N         
RHD02043300NN00030027000000030000002400270027000010NY002700270027000000070000000000000000000001    11102015NY020000 N         
CUS0204330000102359684004         HARRIS, ROBERT      627 N CARROLLTON AVE                    000N        CARE OF             
MTR02043300001000000000000000RA              75421995    005800010000000100000350000003NN  NNW 000                       N    
RDG02043300WATR 000000004R00000000000000067000011112015180000N000000000000N         000000400R 10000000010000000057           
RFF0204330069123359      ERT      0000  956.44375000140000111120151800000000673095100W 1220000N                               
CUS0204330000102349623005         BEAUTTAH, KIRAGU    629 N CARROLLTON AVE                    000N        CARE OF             
MTR02043300001000000000000000RA              74687562    005800020000000200000350000003NN  NNW 000                       N    
RDG02043300WATR 000000004R00000000000000133000011112015180000N000000000000N         000000400R 10000000010000000117           
RFF0204330069125739      ERT      0000  956.44375000140000111120151800000001338207100W 1220000N                               
CUS0204330000102367230006         BYNUM, ORRIN S      621 N CAREY ST                          000N        CARE OF             
MTR02043300001000000000000000RA              75616924    005800030000000300000350000003NN  NNW 000   VACANT PROPERTY     N    
RDG02043300WATRL000000004K00000000000000000000411122015091127S019000000000U40       000560400K 10000000010000000000           
CUS0204330000102359670003         SMITH, TYESE        1205 HARLEM AVE                         000N        CARE OF             
MTR02043300001000000000000000RA              76348534    005800040000000400000350000003NN  NNW 000                       N    
RDG02043300WATRL000000004R00000000000000000000311122015091031S019000000000U40       000600400R 10000000010000000000           
RFF0204330069126835      ERT      0000  956.4437500014000000000000000000                  0001N                               
CUS0204330000102359991003         HINES, JOCELYN      1129 HARLEM AVE                         000N        CARE OF             
MTR02043300001000000000000000RA              75421992    005800050000000500000350000003NN  NNW 000                       N    
RDG02043300WATR 000000004R00000000000000201000011112015180000N000000000000N         000000400R 10000000010000000186           
RFF0204330069126789      ERT      0000  956.44375000140000111120151800000002019818100W 1220000N                               
CUS0204330000102359665003         SUTTON, STAFFORD    1031 HARLEM AVE                         000N        CARE OF             
MTR02043300001000000000000000RA              77888946    005800060000000600000360000003NN  NNW 000   VACANT PROPERTY     N    
RDG02043300WATR 000000004R00000000000000000000011112015180000N000100000010N         000000400R 10000000010000000000           
RFF0204330069128087      ERT      0000  956.44375000140000111120151800000000000020100W 1220000N                               
CUS0204330000102349629002         WILLIAMS, ANNIE WATK1023 HARLEM AVE                         000N        CARE OF             
MTR02043300001000000000000000RA              74689082    005800070000000700000350000003NN  NNW 000                       N    
RDG02043300WATR 000000004R00000000000000378000011112015180000N000000000000N         000000400R 10000000010000000338           
RFF0204330069128093      ERT      0000  956.44375000140000111120151800000003783540100W 1220000N                               
CUS0204330000102349654000         EDITH W SYDNOR ETAL 1013 HARLEM AVE                         000N        CARE OF             
MTR02043300001000000000000000RA              75615159    005800080000000800000350000003NN  NNW 000                       N    
RDG02043300WATR 000000004R00000000000000087000011112015180000N000000000000N         000000400R 10000000010000000079           
RFF0204330069127578      ERT      0000  956.44375000140000111120151800000000879305100W 1220000N                               
CUS0204330000102359705007         FRANCES HARRIS      924 HARLEM AVE                          000N        CARE OF             
MTR02043300001000000000000000RA              75426490    005800090000000900000350000003NN  NNW 000                       N    
RDG02043300WATR 000000004R00000000000000070000011112015180000N000000000000N         000000400R 10000000010000000066           
RFF0204330069128084      ERT      0000  956.44375000140000111120151800000000700423100W 1220000N                               
CUS0204330000102368517005         CARLOS/BETTY TUNON  716 N ARLINGTON AVE                     000N        CARE OF             
MTR02043300001000000000000000RA              74690903    005800100000001000000350000003NN  NNW 000                       N    
RDG02043300WATR 000000004R00000000000000233000011112015180000N000000000000N         000000400R 10000000010000000205           
RFF0204330069128121      ERT      0000  956.44375000140000111120151800000002337537100W 1220000N                               
CUS0204330000102359690001         MOONEY, GEORGE DONAL714 N ARLINGTON AVE                     000N        CARE OF             
MTR02043300001000000000000000RA              78022391    005800110000001100000360000003NN  NNW 000                       N    
RDG02043300WATR 000000004R00000000000000046000011112015180000N000000000000N         000000400R 10000000010000000035           
RFF0204330069128074      ERT      0000  956.44375000140000111120151800000000468983100W 1220000N                               
CUS0204330000102371273000         MAYOR AND CITY COUNC1104 HARLEM AVE                         000N        CARE OF             
MTR02043300001000000000000000RA              21742043    005800120000001200000590000003NN  NNW 000                       N    
RDG02043300WATRL000000004K00000000000000000000111122015090807S019000000000U40       000000400K 10000000010000003586           
CUS0204330000102349628004         HEIGHT, GREGORY B.  1108 HARLEM AVE                         000N        CARE OF             
MTR02043300001000000000000000RA              75422406    005800130000001300000350000003NN  NNW 000   VACANT PROPERTY     N    
RDG02043300WATRL000000004R00000000000000000000211122015090931S019000000000U40       000840400R 10000000010000000000           
RFF0204330069127161      ERT      0000  956.4437500014000000000000000000                  0001N                               
CUS0204330000102349622007         JAMES C BLUE        707 N CARROLLTON AVE                    000N        CARE OF             
MTR02043300001000000000000000RA              75422410    005800140000001400000350000003NN  NNW 000                       N    
RDG02043300WATR 000000004R00000000000000051000011112015180000N000000000000N         000000400R 10000000010000000046           
RFF0204330069127147      ERT      0000  956.44375000140000111120151800000000519835100W 1220000N                               
CUS0204330000102371239001         JJI, LLC            711 N CARROLLTON AVE                    000N        CARE OF             
MTR02043300001000000000000000RA              75422407    005800150000001500000350000003NN  NNW 000                       N    
RDG02043300WATR 000000004R00000000000000511000011112015180000N000000000000N         000000400R 10000000010000000450           
RFF0204330069125980      ERT      0000  956.44375000140000111120151800000005114147100W 1220000N                               
CUS0204330000102359679004         LINTHICUM, SARAH J  713 N CARROLLTON AVE                    000N        CARE OF             
MTR02043300001000000000000000RA              74690754    005800160000001600000350000003NN  NNW 000                       N    
RDG02043300WATR 000000004R00000000000000281000011112015180000N000000000000N         000000400R 10000000010000000235           
RFF0204330069125737      ERT      0000  956.44375000140000111120151800000002810965100W 1220000N                               
CUS0204330000102359955008         NECKTIE SF HOLDINGS 712 N CARROLLTON AVE                    000N        CARE OF             
MTR02043300001000000000000000RA              75427207    005800170000001700000350000003NN  NNW 000                       N    
RDG02043300WATRL000000004R00000000000000000000611122015091737S002000000001U40       001710400R 10000000010000000000           
RFF0204330069131036      ERT      0000  956.4437500014000000000000000000                  0000N                               
CUS0204330000102359668007         CREATIVE CAPTIAL, LL706 N CARROLLTON AVE                    000N        CARE OF             
MTR02043300001000000000000000RA              75422380    005800180000001800000350000003NN  NNW 000   VACANT PROPERTY     N    
RDG02043300WATRL000000004R00000000000000000000711122015091828S002000000000U40       000510400R 10000000010000000000           
RFF0204330069127790      ERT      0000  956.4437500014000000000000000000                  0000N                               
CUS0204330000102359687007         HARDMAN, CHRISTOPHER1217 W LANVALE ST                       000N        CARE OF             
MTR02043300001000000000000000RA              75616921    005800190000001900000350000003NN  NNW 000   VACANT PROPERTY     N    
RDG02043300WATR 000000004R00000000000000000000011112015180000N000100000010N         000000400R 10000000010000000000           
RFF0204330069127564      ERT      0000  956.44375000140000111120151800000000000002100W 1220000N                               
CUS0204330000102359987001         JAMES, OTIS         1213 W LANVALE ST                       000N        CARE OF             
MTR02043300001000000000000000RA              50003100    005800200000002000000670000003NN  NNW 000                       N    
RDG02043300WATRL000000004K00000000000000000000511122015091446S018000000000U40       001990400K 10000000010000000990           
CUS0204330000102349476008         STAR OF BETHLEHEM TE1109-11 W LANVALE ST                    000N        CARE OF             
MTR02043300001000000000000000RA              79141035    007500210000002100000360000003NN  NNW 000                       N    
RDG02043300WATR 000000004R00000000000000014000011112015180000N000000000000N         000000400R 10000000010000000006           
RFF0204330069125873      ERT      0000  956.44375000140000111120151800000000142912100W 1220000N                               
CUS0204330000102359680002         LAVON SHORT         1222 W LANVALE ST                       000N        CARE OF             
MTR02043300001000000000000000RA              75616923    005800220000002200000350000003NN  NNW 000                       N    
RDG02043300WATR 000000004R00000000000000080000011112015180000N000100000010N         000000400R 10000000010000000080           
RFF0204330069126837      ERT      0000  956.44375000140000111120151800000000800795100W 1220000N                               
CUS0204330000102349625000         CHAMBERS, JEWELL C  1231 W LAFAYETTE AVE                    000N        CARE OF             
MTR02043300001000000000000000RA              75423522    005800230000002300000350000003NN  NNW 000                       N    
RDG02043300WATR 000000004R00000000000000140000011112015180000N000000000000N         000000400R 10000000010000000114           
RFF0204330069127636      ERT      0000  956.44375000140000111120151800000001402513100W 1220000N                               
CUS0204330000102359707003         CRADLE, DEREK E.    1229 W LAFAYETTE AVE                    000N        CARE OF             
MTR02043300001000000000000000RA              75423232    005800240000002400000350000003NN  NNW 000                       N    
RDG02043300WATR 000000004R00000000000000000000011112015180000N000100000010N         000000400R 10000000010000000000           
RFF0204330069128078      ERT      0000  956.44375000140000111120151800000000000001100W 1220000N                               
CUS0204330000102376862005         YANCEY, LEE-ANN     1227 W LAFAYETTE AVE                    000N        CARE OF             
MTR02043300001000000000000000RA              75426896    007500250000002500000350000003NN  NNW 000                       N    
RDG02043300WATR 000000004R00000000000000358000011112015180000N000000000000N         000000400R 10000000010000000298           
RFF0204330069127566      ERT      0000  956.44375000140000111120151800000003582359100W 1220000N                               
CUS0204330000102359708001         ADAMS, CLARENCE L   1223 W LAFAYETTE AVE                    000N        CARE OF             
MTR02043300001000000000000000RA              75423525    005800260000002600000350000003NN  NNW 000                       N    
RDG02043300WATR 000000004R00000000000000093000011112015180000N000000000000N         000000400R 10000000010000000068           
RFF0204330069125726      ERT      0000  956.44375000140000111120151800000000934329100W 1220000N                               
CUS0204330000102349626008         HOGAR HISPANO       1217 W LAFAYETTE AVE                    000N        CARE OF             
MTR02043300001000000000000000RA              77888935    005800270000002700000360000003NN  NNW 000                       N    
RDG02043300WATR 000000004R00000000000000065000011112015180000N000000000000N         000000400R 10000000010000000034           
RFF0204330069124925      ERT      0000  956.44375000140000111120151800000000655344100W 1220000N                               
RTR02043300NN00030027000000030000002400270027000010NY002700270027000000070000000000000000000001    11102015NY020000 N         
RHD02047400NN00100106000000100000009601060106000016NY010601060106000000120000000000000000000001    10312015NY020000 N         
CUS0204740000102220733006         MAYOR AND CITY COUNC1946 W LEXINGTON ST                     000N        CARE OF             
MTR02047400001000000000000000RA              76345170    005800010000000100000350000003NN  NNW 000   INVALID DAC         N    
RDG02047400WATRL000000004R00000000000000000000111122015104848S002000000000U40       000000400K 10000000010000000000           
RFF0204740069224254      ERT      0000  956.4437500014000000000000000000                  0001N                               
CUS0204740000102220735001         MICHAEL V VELOTTA   1938 W LEXINGTON ST                     000N        CARE OF             
MTR02047400001000000000000000RA              75424991    005800020000000200000350000003NN  NNW 000                       N    
RDG02047400WATR 000000004R00000000000000175000011112015180000N000000000000N         000000400R 10000000010000000148           
RFF0204740069224240      ERT      0000  956.44375000140000111120151800000001759644100W 1220000N                               
CUS0204740000102220736009         HIRAM, LLC          1936 W LEXINGTON ST                     000N        CARE OF             
MTR02047400001000000000000000RA              75425383    005800030000000300000350000003NN  NNW 000                       N    
RDG02047400WATR 000000004R00000000000000136000011112015180000N000000000000N         000000400R 10000000010000000126           
RFF0204740069224272      ERT      0000  956.44375000140000111120151800000001369867100W 1220000N                               
CUS0204740000102354239002         ADELA INVESTMENTS, L1932 W LEXINGTON ST                     000N        CARE OF             
MTR02047400001000000000000000RA              77888259    005800040000000400000360000003NN  NNW 000                       N    
RDG02047400WATR 000000004R00000000000000001000011112015180000N000100000090N         000000400R 10000000010000000001           
RFF0204740069224284      ERT      0000  956.44375000140000111120151800000000016152100W 1220000N                               
CUS0204740000102371695004         GHEE, LEVON W       1924 W LEXINGTON ST                     000N        CARE OF             
MTR02047400001000000000000000RA              75425367    005800050000000500000350000003NN  NNW 000                       N    
RDG02047400WATR 000000004R00000000000000117000011112015180000N000000000000N         000000400R 10000000010000000101           
RFF0204740069224250      ERT      0000  956.44375000140000111120151800000001179691100W 1220000N                               
CUS0204740000102220740001         COVINGTON, MARY LEE 1922 W LEXINGTON ST                     000N        CARE OF             
MTR02047400001000000000000000RA              75425366    005800060000000600000350000003NN  NNW 000                       N    
RDG02047400WATR 000000004R00000000000000288000011112015180000N000000000000N         000000400R 10000000010000000257           
RFF0204740069224288      ERT      0000  956.44375000140000111120151800000002885695100W 1220000N                               
CUS0204740000102220741009         RICHARD V NEWMAN    1918 W LEXINGTON ST                     000N        CARE OF             
MTR02047400001000000000000000RA              75425381    005800070000000700000350000003NN  NNW 000   VACANT PROPERTY     N    
RDG02047400WATR 000000004R00000000000000000000011112015180000N000100000090N         000000400R 10000000010000000000           
RFF0204740069224282      ERT      0000  956.44375000140000111120151800000000000002100W 1220000N                               
CUS0204740000102220742007         GASKINS, BETTY      1916 W LEXINGTON ST                     000N        CARE OF             
MTR02047400001000000000000000RA              77886717    005800080000000800000360000003NN  NNW 000                       N    
RDG02047400WATR 000000004R00000000000000061000011112015180000N000000000000N         000000400R 10000000010000000039           
RFF0204740069224197      ERT      0000  956.44375000140000111120151800000000612584100W 1220000N                               
CUS0204740000102354199008         ROBERT & EVELYN ANDR1818 W LEXINGTON ST                     000N        CARE OF             
MTR02047400001000000000000000RA              75426967    007500090000000900000350000003NN  NNW 000                       N    
RDG02047400WATR 000000004R00000000000000244000011112015180000N000400000090N         000000400R 10000000010000000222           
RFF0204740069224285      ERT      0000  956.44375000140000111120151800000002449805100W 1220000N                               
CUS0204740000102220746008         FORTUNE RONNELL     1808 W LEXINGTON ST                     000N        CARE OF             
MTR02047400001000000000000000RA              75425393    005800100000001000000350000003NN  NNW 000                       N    
RDG02047400WATR 000000004R00000000000000022000011112015180000N000100000090N         000000400R 10000000010000000022           
RFF0204740069224292      ERT      0000  956.44375000140000111120151800000000225157100W 1220000N                               
CUS0204740000102220751008         HERKIE L FORDBEY    208 N FULTON AVE                        000N        CARE OF             
MTR02047400001000000000000000RA              75424959    005800110000001100000350000003NN  NNW 000                       N    
RDG02047400WATR 000000004R00000000000000132000011112015180000N000000000000N         000000400R 10000000010000000120           
RFF0204740069225374      ERT      0000  956.44375000140000111120151800000001329632100W 1220000N                               
CUS0204740000102220752006         JMD SERVICE, LLC    216 N FULTON AVE                        000N        CARE OF             
MTR02047400001000000000000000RA              75424962    005800120000001200000350000003NN  NNW 000                       N    
RDG02047400WATR 000000004R00000000000000386000011112015180000N000000000000N         000000400R 10000000010000000287           
RFF0204740069225383      ERT      0000  956.44375000140000111120151800000003868551100W 1220000N                               
CUS0204740000102220755009         HORACIO HERNANDEZ   1801 PENROSE AVE                        000N        CARE OF             
MTR02047400001000000000000000RA              77878535    005800130000001300000360000003NN  NNW 000                       N    
RDG02047400WATR 000000004R00000000000000019000011112015180000N000400000090N         000000400R 10000000010000000013           
RFF0204740069225342      ERT      0000  956.44375000140000111120151800000000193873100W 1220000N                               
CUS0204740000102220756007         COZART BRICE        1803 PENROSE AVE                        000N        CARE OF             
MTR02047400001000000000000000RA              77878541    005800140000001400000360000003NN  NNW 000                       N    
RDG02047400WATR 000000004R00000000000000000000011112015180000N000100000090N         000000400R 10000000010000000000           
RFF0204740069225327      ERT      0000  956.44375000140000111120151800000000000114100W 1220000N                               
CUS0204740000102220763003         HOFFMANN ASSET MANAG1825 PENROSE AVE                        000N        CARE OF             
MTR02047400001000000000000000RA              76344913    005800150000001500000350000003NN  NNW 000                       N    
RDG02047400WATR 000000004R00000000000000117000011112015180000N000100000090N         000000400R 10000000010000000117           
RFF0204740069225328      ERT      0000  956.44375000140000111120151800000001171133100W 1220000N                               
CUS0204740000102220764001         CENTRAL MARYLAND REN1827 PENROSE AVE                        000N        CARE OF             
MTR02047400001000000000000000RA              75424966    005800160000001600000350000003NN  NNW 000                       N    
RDG02047400WATR 000000004R00000000000000135000011112015180000N000100000090N         000000400R 10000000010000000135           
RFF0204740069225313      ERT      0000  956.44375000140000111120151800000001352816100W 1220000N                               
CUS0204740000102220767004         HOUSING AUTHORITY   221 N MONROE ST                         000N        CARE OF             
MTR02047400001000000000000000RA              99999999    005800170000001700000620000003NN  NNW 000                       N    
RDG02047400WATRL000000004K00000000000000000000411122015105225S002000000000U40       000420400K 10000000010000000000           
CUS0204740000102363559002         LENWOOD M BOWERS    213 N MONROE ST                         000N        CARE OF             
MTR02047400001000000000000000RA              75424981    005800180000001800000350000003NN  NNW 000                       N    
RDG02047400WATR 000000004R00000000000000095000011112015180000N000000000000N         000000400R 10000000010000000087           
RFF0204740069225320      ERT      0000  956.44375000140000111120151800000000954851100W 1220000N                               
CUS0204740000102220772004         PAULINE DENNIS      207 N MONROE ST                         000N        CARE OF             
MTR02047400001000000000000000RA              75424964    005800190000001900000350000003NN  NNW 000                       N    
RDG02047400WATR 000000004R00000000000000184000011112015180000N000000000000N         000000400R 10000000010000000176           
RFF0204740069224434      ERT      0000  956.44375000140000111120151800000001848273100W 1220000N                               
CUS0204740000102363728003         BISHOP, JOHN        210 N MONROE ST                         000N        CARE OF             
MTR02047400001000000000000000RA              75618047    005800200000002000000350000003NN  NNW 000                       N    
RDG02047400WATR 000000004R00000000000000151000011112015180000N000000000000N         000000400R 10000000010000000135           
RFF0204740069225311      ERT      0000  956.44375000140000111120151800000001517635100W 1220000N                               
CUS0204740000102380504007         BOYKINS, DENISE A   212 N MONROE ST                         000N        CARE OF             
MTR02047400001000000000000000RA              77886858    005800210000002100000360000003NN  NNW 000                       N    
RDG02047400WATR 000000004R00000000000000024000011112015180000N000000000000N         000000400R 10000000010000000015           
RFF0204740069225282      ERT      0000  956.44375000140000111120151800000000248549100W 1220000N                               
CUS0204740000102220777003         JOHNSON, KEVIN R    216 N MONROE ST                         000N        CARE OF             
MTR02047400001000000000000000RA              21419665    005800220000002200000590000003NN  NNW 000                       N    
RDG02047400WATRL000000004K00000000000000000000211122015105102S019000000000U40       001340400K 10000000010000002421           
CUS0204740000102220779009         HODGE, NATHANIEL    220 N MONROE ST                         000N        CARE OF             
MTR02047400001000000000000000RA              75424997    005800230000002300000350000003NN  NNW 000                       N    
RDG02047400WATR 000000004R00000000000000150000011112015180000N000000000000N         000000400R 10000000010000000136           
RFF0204740069225325      ERT      0000  956.44375000140000111120151800000001505140100W 1220000N                               
CUS0204740000102220780007         BROWN, ANDRE C.     224 N MONROE ST                         000N        CARE OF             
MTR02047400001000000000000000RA              77882652    005800240000002400000360000003NN  NNW 000                       N    
RDG02047400WATRL000000004K00000000000000035000311122015105143N000000000000U40       000410400K 10000000010000000017           
CUS0204740000102220783001         ATM, LLC.           1911 PENROSE AVE                        000N        CARE OF             
MTR02047400001000000000000000RA              75423073    005800250000002500000350000003NN  NNW 000                       N    
RDG02047400WATR 000000004R00000000000000148000011112015180000N000100000090N         000000400R 10000000010000000148           
RFF0204740069225343      ERT      0000  956.44375000140000111120151800000001486288100W 1220000N                               
CUS0204740000102220785006         PREMIER INVESTMENT P1919 PENROSE AVE                        000N        CARE OF             
MTR02047400001000000000000000RA              78022316    005800260000002600000360000003NN  NNW 000                       N    
RDG02047400WATR 000000004R00000000000000032000011112015180000N000000000040N         000000400R 10000000010000000021           
RFF0204740069226400      ERT      0000  956.44375000140000111120151800000000328825100W 1220000N                               
CUS0204740000102355219003         E LINE PROPERTY MANA1925 PENROSE AVE                        000N        CARE OF             
MTR02047400001000000000000000RA              77988308    005800270000002700000360000003NN  NNW 000                       N    
RDG02047400WATR 000000004R00000000000000086000011112015180000N000400000090N         000000400R 10000000010000000060           
RFF0204740069225380      ERT      0000  956.44375000140000111120151800000000865989100W 1220000N                               
CUS0204740000102220787002         DESAREE DAVID       1927 PENROSE AVE                        000N        CARE OF             
MTR02047400001000000000000000RA              75425488    005800280000002800000350000003NN  NNW 000                       N    
RDG02047400WATR 000000004R00000000000000021000011112015180000N000100000090N         000000400R 10000000010000000021           
RFF0204740069225347      ERT      0000  956.44375000140000111120151800000000217988100W 1220000N                               
CUS0204740000102220788000         JAMES GRAHAM        1929 PENROSE AVE                        000N        CARE OF             
MTR02047400001000000000000000RA              76344656    005800290000002900000350000003NN  NNW 000                       N    
RDG02047400WATR 000000004R00000000000000020000011112015180000N000000000000N         000000400R 10000000010000000016           
RFF0204740069225303      ERT      0000  956.44375000140000111120151800000000202057100W 1220000N                               
CUS0204740000102220789008         GRAY, ISAAC         1931 PENROSE AVE                        000N        CARE OF             
MTR02047400001000000000000000RA              79182614    005800300000003000000360000003NN  NNW 000                       N    
RDG02047400WATR 000000004R00000000000000036000011112015180000N000000000000N         000000400R 10000000010000000013           
RFF0204740069126000      ERT      0000  956.44375000140000111120151800000000366350100W 1220000N                               
CUS0204740000102220792002         LUCY M ISLES        1939 PENROSE AVE                        000N        CARE OF             
MTR02047400001000000000000000RA              10003029    005800310000003100000570000003NY  NNW 000                       N    
MTM0204740010003029    79182604 RD 0004                                                                                       
RDG02047400WATRL000000004K00000000000000000000511122015105544S001000000000U40       001990400K 10000000010000000000           
CUS0204740000102220793000         EMBARCADERO #1,LLC  1941 PENROSE AVE                        000N        CARE OF             
MTR02047400001000000000000000RA              75423289    005800320000003200000350000003NN  NNW 000                       N    
RDG02047400WATR 000000004R00000000000000036000011112015180000N000100000090N         000000400R 10000000010000000036           
RFF0204740069225823      ERT      0000  956.44375000140000111120151800000000361362100W 1220000N                               
CUS0204740000102220794008         DEAN, PEARL     (LIF1943 PENROSE AVE                        000N        CARE OF             
MTR02047400001000000000000000RA              75425850    005800330000003300000350000003NN  NNW 000                       N    
RDG02047400WATR 000000004R00000000000000141000011112015180000N000000000000N         000000400R 10000000010000000130           
RFF0204740069225861      ERT      0000  956.44375000140000111120151800000001411960100W 1220000N                               
CUS0204740000102220796003         DEAN SR., TIMOTHY   1942 PENROSE AVE                        000N        CARE OF             
MTR02047400001000000000000000RA              75424960    005800340000003400000350000003NN  NNW 000                       N    
RDG02047400WATR 000000004R00000000000000173000011112015180000N000400000090N         000000400R 10000000010000000164           
RFF0204740069225782      ERT      0000  956.44375000140000111120151800000001731919100W 1220000N                               
CUS0204740000102220797001         400 BUSINESS TRUST  1940 PENROSE AVE                        000N        CARE OF             
MTR02047400001000000000000000RA              77886715    005800350000003500000360000003NN  NNW 000                       N    
RDG02047400WATR 000000004R00000000000000000000011112015180000N000100000090N         000000400R 10000000010000000000           
RFF0204740069225585      ERT      0000  956.44375000140000111120151800000000000019100W 1220000N                               
CUS0204740000102374501001         FRANK PETERSON      1936 PENROSE AVE                        000N        CARE OF             
MTR02047400001000000000000000RA              75424955    005800360000003600000350000003NN  NNW 000                       N    
RDG02047400WATR 000000004R00000000000000105000011112015180000N000000000000N         000000400R 10000000010000000102           
RFF0204740069225962      ERT      0000  956.44375000140000111120151800000001051847100W 1220000N                               
CUS0204740000102220798009         BEVERLY FONSECA     1934 PENROSE AVE                        000N        CARE OF             
MTR02047400001000000000000000RA              75425020    005800370000003700000350000003NN  NNW 000                       N    
RDG02047400WATR 000000004R00000000000000142000011112015180000N000000000000N         000000400R 10000000010000000117           
RFF0204740069225946      ERT      0000  956.44375000140000111120151800000001425932100W 1220000N                               
CUS0204740000102220801001         BARBARA MITCHELL    1926 PENROSE AVE                        000N        CARE OF             
MTR02047400001000000000000000RA              75424956    005800380000003800000350000003NN  NNW 000                       N    
RDG02047400WATR 000000004R00000000000000041000011112015180000N000000000000N         000000400R 10000000010000000036           
RFF0204740069225912      ERT      0000  956.44375000140000111120151800000000415113100W 1220000N                               
CUS0204740000102220808006         SJM, LLC            1908 PENROSE AVE                        000N        CARE OF             
MTR02047400001000000000000000RA              75423071    005800390000003900000350000003NN  NNW 000                       N    
RDG02047400WATR 000000004R00000000000000008000011112015180000N000100000090N         000000400R 10000000010000000008           
RFF0204740069225352      ERT      0000  956.44375000140000111120151800000000081603100W 1220000N                               
CUS0204740000102349683009         THORNTON, EDWARD B. 1824 PENROSE AVE                        000N        CARE OF             
MTR02047400001000000000000000RA              21724741    005800400000004000000590000003NY  NNW 000                       N    
MTM0204740021724741    79186460 RD 0088                                                                                       
RDG02047400WATRL000000004K00000000000000000000611122015105725S001000000000U40       001010400K 10000000010000000000           
CUS0204740000102220812008         1820 PENROSE LLC    1820 PENROSE AVE                        000N        CARE OF             
MTR02047400001000000000000000RA              75425006    005800410000004100000350000003NN  NNW 000                       N    
RDG02047400WATR 000000004R00000000000000216000011112015180000N000300000090N         000000400R 10000000010000000187           
RFF0204740069225317      ERT      0000  956.44375000140000111120151800000002169201100W 1220000N                               
CUS0204740000102220813006         COOPER, WILLIAM     1812 PENROSE AVE                        000N        CARE OF             
MTR02047400001000000000000000RA              75423343    005800420000004200000350000003NN  NNW 000                       N    
RDG02047400WATR 000000004R00000000000000165000011112015180000N000000000000N         000000400R 10000000010000000154           
RFF0204740069225351      ERT      0000  956.44375000140000111120151800000001657962100W 1220000N                               
CUS0204740000102220815001         HARRELL, DOROTHY  (E1806 PENROSE AVE                        000N        CARE OF             
MTR02047400001000000000000000RA              75424965    005800430000004300000350000003NN  NNW 000                       N    
RDG02047400WATRL000000004K00000000000000000000711122015105836S002000000000U40       000710400K 10000000010000000014           
CUS0204740000102220816009         KORNEGAY, ANTONIO J.1802 PENROSE AVE                        000N        CARE OF             
MTR02047400001000000000000000RA              78024123    005800440000004400000350000003NN  NNW 000                       N    
RDG02047400WATRL000000004K00000000000000000000811122015105853S002000000000U40       000170400K 10000000010000000000           
CUS0204740000102220817007         SIMPSON, RAMONE     250 N FULTON AVE                        000N        CARE OF             
MTR02047400001000000000000000RA              75425007    005800450000004500000350000003NN  NNW 000   VACANT PROPERTY     N    
RDG02047400WATRL000000004K00000000000000000000911122015110024S002000000000U40       000910400K 10000000010000000000           
CUS0204740000102220818005         JOHNSON, PALIS DIXON1803 W SARATOGA ST                      000N        CARE OF             
MTR02047400001000000000000000RA              75423327    005800460000004600000350000003NN  NNW 000                       N    
RDG02047400WATR 000000004R00000000000000058000011112015180000N000100000090N         000000400R 10000000010000000058           
RFF0204740069225324      ERT      0000  956.44375000140000111120151800000000588559100W 1220000N                               
CUS0204740000102220820001         WILLIAMS, FRANCIS   1811 W SARATOGA ST                      000N        CARE OF             
MTR02047400001000000000000000RA              75423290    005800470000004700000350000003NN  NNW 000                       N    
RDG02047400WATR 000000004R00000000000000245000011112015180000N000400000090N         000000400R 10000000010000000225           
RFF0204740069225860      ERT      0000  956.44375000140000111120151800000002456060100W 1220000N                               
CUS0204740000102220821009         OLORUNTOBA, ABDUL   1813 W SARATOGA ST                      000N        CARE OF             
MTR02047400001000000000000000RA              75423288    005800480000004800000350000003NN  NNW 000                       N    
RDG02047400WATR 000000004R00000000000000188000011112015180000N000000000000N         000000400R 10000000010000000172           
RFF0204740069226810      ERT      0000  956.44375000140000111120151800000001888688100W 1220000N                               
CUS0204740000102367466006         WRIGHT, WILHOLT H   1815 W SARATOGA ST                      000N        CARE OF             
MTR02047400001000000000000000RA              75425009    005800490000004900000350000003NN  NNW 000                       N    
RDG02047400WATR 000000004R00000000000000107000011112015180000N000000000000N         000000400R 10000000010000000097           
RFF0204740069225308      ERT      0000  956.44375000140000111120151800000001070278100W 1220000N                               
CUS0204740000102363612009         CHARLES HENSON      1817 W SARATOGA ST                      000N        CARE OF             
MTR02047400001000000000000000RA              78022378    005800500000005000000360000003NN  NNW 000                       N    
RDG02047400WATR 000000004R00000000000000024000011112015180000N000000000000N         000000400R 10000000010000000014           
RFF0204740069225329      ERT      0000  956.44375000140000111120151800000000240519100W 1220000N                               
CUS0204740000102369180001         CUNNINGHAM, BRIAN C 1819 W SARATOGA ST                      000N        CARE OF             
MTR02047400001000000000000000RA              75425004    005800510000005100000350000003NN  NNW 000                       N    
RDG02047400WATRL000000004R00000000000000000001011122015110153S002000000000U40       000890400K 10000000010000000001           
RFF0204740069225828      ERT      0000  956.4437500014000000000000000000                  0001N                               
CUS0204740000102220822007         MOHAMMAD GHANI & TAN1823 W SARATOGA ST                      000N        CARE OF             
MTR02047400001000000000000000RA              77889134    005800520000005200000360000003NN  NNW 000                       N    
RDG02047400WATR 000000004R00000000000000004000011112015180000N000100000090N         000000400R 10000000010000000004           
RFF0204740069225332      ERT      0000  956.44375000140000111120151800000000044976100W 1220000N                               
CUS0204740000102220823005         QUARLES, DONALD     1825 W SARATOGA ST                      000N        CARE OF             
MTR02047400001000000000000000RA              78022442    005800530000005300000360000003NN  NNW 000                       N    
RDG02047400WATR 000000004R00000000000000024000011112015180000N000000000000N         000000400R 10000000010000000013           
RFF0204740069225870      ERT      0000  956.44375000140000111120151800000000244053100W 1220000N                               
CUS0204740000102367468002         ERROL K./BRYNA L. ST1831 W SARATOGA ST                      000N        CARE OF             
MTR02047400001000000000000000RA              78022930    005800540000005400000360000003NN  NNW 000                       N    
RDG02047400WATR 000000004R00000000000000099000011112015180000N000000000000N         000000400R 10000000010000000064           
RFF0204740069225338      ERT      0000  956.44375000140000111120151800000000997725100W 1220000N                               
CUS0204740000102363779006         STEWART, SANDRA S   253 N MONROE ST                         000N        CARE OF             
MTR02047400001000000000000000RA              75424979    005800550000005500000350000003NN  NNW 000                       N    
RDG02047400WATR 000000004R00000000000000174000011112015180000N000000000000N         000000400R 10000000010000000154           
RFF0204740069225314      ERT      0000  956.44375000140000111120151800000001740013100W 1220000N                               
CUS0204740000102220825000         CHAVIS, ADRIAN      251 N MONROE ST                         000N        CARE OF             
MTR02047400001000000000000000RA              75424983    005800560000005600000350000003NN  NNW 000                       N    
RDG02047400WATR 000000004R00000000000000139000011112015180000N000000000000N         000000400R 10000000010000000124           
RFF0204740069225312      ERT      0000  956.44375000140000111120151800000001395789100W 1220000N                               
CUS0204740000102365429006         MCLEAN JR, ALFRED   247 N MONROE ST                         000N        CARE OF             
MTR02047400001000000000000000RA              77988287    005800570000005700000360000003NN  NNW 000                       N    
RDG02047400WATR 000000004R00000000000000000000011112015180000N000100000090N         000000400R 10000000010000000000           
RFF0204740069225349      ERT      0000  956.44375000140000111120151800000000000020100W 1220000N                               
CUS0204740000102220827006         UP8 BUSINESS TRUST  243 N MONROE ST                         000N        CARE OF             
MTR02047400001000000000000000RA              75424999    005800580000005800000350000003NN  NNW 000                       N    
RDG02047400WATR 000000004R00000000000000441000011112015180000N000000000000N         000000400R 10000000010000000382           
RFF0204740069226384      ERT      0000  956.44375000140000111120151800000004412355100W 1220000N                               
CUS0204740000102365428008         TIMOTHY A DEAN SR.  239 N MONROE ST                         000N        CARE OF             
MTR02047400001000000000000000RA              75425002    005800590000005900000350000003NN  NNW 000                       N    
RDG02047400WATR 000000004R00000000000000195000011112015180000N000000000000N         000000400R 10000000010000000181           
RFF0204740069225355      ERT      0000  956.44375000140000111120151800000001953610100W 1220000N                               
CUS0204740000102220830000         231 N MONROE LAND TR231 N MONROE ST                         000N        CARE OF             
MTR02047400001000000000000000RA              75424982    005800600000006000000350000003NN  NNW 000   VACANT PROPERTY     N    
RDG02047400WATR 000000004R00000000000000040000011112015180000N000300000090N         000000400R 10000000010000000037           
RFF0204740069225356      ERT      0000  956.44375000140000111120151800000000404068100W 1220000N                               
CUS0204740000102220833004         HARRIS, JAMES       234 N MONROE ST                         000N        CARE OF             
MTR02047400001000000000000000RA              75425001    005800610000006100000350000003NN  NNW 000                       N    
RDG02047400WATR 000000004R00000000000000427000011112015180000N000400000090N         000000400R 10000000010000000357           
RFF0204740069225346      ERT      0000  956.44375000140000111120151800000004279802100W 1220000N                               
CUS0204740000102220836007         WILLIAM E SNOWDEN   248 N MONROE ST                         000N        CARE OF             
MTR02047400001000000000000000RA              75424998    005800620000006200000350000003NN  NNW 000                       N    
RDG02047400WATR 000000004R00000000000000071000011112015180000N000000000000N         000000400R 10000000010000000061           
RFF0204740069225369      ERT      0000  956.44375000140000111120151800000000712551100W 1220000N                               
CUS0204740000102220837005         WILLIAMS, JR, CALVIN250 N MONROE ST                         000N        CARE OF             
MTR02047400001000000000000000RA              77989470    005800630000006300000360000003NN  NNW 000                       N    
RDG02047400WATR 000000004R00000000000000021000011112015180000N000100000090N         000000400R 10000000010000000021           
RFF0204740069225285      ERT      0000  956.44375000140000111120151800000000218467100W 1220000N                               
CUS0204740000102220838003         STANLEY, KAREEM     1903 W SARATOGA ST                      000N        CARE OF             
MTR02047400001000000000000000RA              77886614    005800640000006400000360000003NN  NNW 000                       N    
RDG02047400WATR 000000004R00000000000000066000011112015180000N000000000000N         000000400R 10000000010000000042           
RFF0204740069225765      ERT      0000  956.44375000140000111120151800000000664192100W 1220000N                               
CUS0204740000102220839001         DELHI E THWEATT     1905 W SARATOGA ST                      000N        CARE OF             
MTR02047400001000000000000000RA              78022440    005800650000006500000360000003NN  NNW 000                       N    
RDG02047400WATR 000000004R00000000000000000000011112015180000N000100000090N         000000400R 10000000010000000000           
RFF0204740069225605      ERT      0000  956.44375000140000111120151800000000000019100W 1220000N                               
CUS0204740000102220840009         HARRIS, MARY B      1909 W SARATOGA ST                      000N        CARE OF             
MTR02047400001000000000000000RA              77882566    005800660000006600000360000003NN  NNW 000                       N    
RDG02047400WATR 000000004R00000000000000050000011112015180000N000000000000N         000000400R 10000000010000000018           
RFF0204740069225699      ERT      0000  956.44375000140000111120151800000000504396100W 1220000N                               
CUS0204740000102220842005         JONES, ERIC L.      1917 W SARATOGA ST                      000N        CARE OF             
MTR02047400001000000000000000RA              75423287    005800670000006700000350000003NN  NNW 000                       N    
RDG02047400WATR 000000004R00000000000000061000011112015180000N000000000000N         000000400R 10000000010000000048           
RFF0204740069225738      ERT      0000  956.44375000140000111120151800000000617144100W 1220000N                               
CUS0204740000102220843003         BALIS, LYDIA B.     1919 W SARATOGA ST                      000N        CARE OF             
MTR02047400001000000000000000RA              75423326    005800680000006800000350000003NN  NNW 000                       N    
RDG02047400WATR 000000004R00000000000000141000011112015180000N000000000000N         000000400R 10000000010000000138           
RFF0204740069225757      ERT      0000  956.44375000140000111120151800000001416341100W 1220000N                               
CUS0204740000102220845008         TUCKER, JOSEF LEO   1923 W SARATOGA ST                      000N        CARE OF             
MTR02047400001000000000000000RA              75425003    005800690000006900000350000003NN  NNW 000                       N    
RDG02047400WATR 000000004R00000000000000394000011112015180000N000000000000N         000000400R 10000000010000000344           
RFF0204740069225753      ERT      0000  956.44375000140000111120151800000003942665100W 1220000N                               
CUS0204740000102220847004         MARGARET W WEST     1930 W SARATOGA ST                      000N        CARE OF             
MTR02047400001000000000000000RA              75424958    005800700000007000000350000003NN  NNW 000                       N    
RDG02047400WATR 000000004R00000000000000115000011112015180000N000000000000N         000000400R 10000000010000000107           
RFF0204740069225751      ERT      0000  956.44375000140000111120151800000001155594100W 1220000N                               
CUS0204740000102220848002         DUCKETT, JANICE E   1928 W SARATOGA ST                      000N        CARE OF             
MTR02047400001000000000000000RA              75423594    005800710000007100000350000003NN  NNW 000                       N    
RDG02047400WATR 000000004R00000000000000125000011112015180000N000000000000N         000000400R 10000000010000000110           
RFF0204740069225798      ERT      0000  956.44375000140000111120151800000001250456100W 1220000N                               
CUS0204740000102220849000         SPIGNER, JAMES L    1846 W SARATOGA ST                      000N        CARE OF             
MTR02047400001000000000000000RA              75425008    005800720000007200000350000003NN  NNW 000                       N    
RDG02047400WATR 000000004R00000000000000338000011112015180000N000000000000N         000000400R 10000000010000000313           
RFF0204740069225759      ERT      0000  956.44375000140000111120151800000003387282100W 1220000N                               
CUS0204740000102220850008         SPIGNER, JAMES L.   1844 W SARATOGA ST                      000N        CARE OF             
MTR02047400001000000000000000RA              75425011    005800730000007300000350000003NN  NNW 000                       N    
RDG02047400WATR 000000004R00000000000000301000011112015180000N000000000000N         000000400R 10000000010000000250           
RFF0204740069225746      ERT      0000  956.44375000140000111120151800000003016294100W 1220000N                               
CUS0204740000102220851006         NGUYEN, AARON       1842 W SARATOGA ST                      000N        CARE OF             
MTR02047400001000000000000000RA              75425013    005800740000007400000350000003NN  NNW 000                       N    
RDG02047400WATR 000000004R00000000000000108000011112015180000N000000000000N         000000400R 10000000010000000098           
RFF0204740069225309      ERT      0000  956.44375000140000111120151800000001083315100W 1220000N                               
CUS0204740000102220853002         LUNDY, WILLIAM M    1834 W SARATOGA ST                      000N        CARE OF             
MTR02047400001000000000000000RA              75426968    007500750000007500000350000003NN  NNW 000                       N    
RDG02047400WATR 000000004R00000000000000031000011112015180000N000000000000N         000000400R 10000000010000000026           
RFF0204740069225339      ERT      0000  956.44375000140000111120151800000000313040100W 1220000N                               
CUS0204740000102220857003         BISHOP, GARY W      1816 W SARATOGA ST                      000N        CARE OF             
MTR02047400001000000000000000RA              75425151    005800760000007600000350000003NN  NNW 000                       N    
RDG02047400WATR 000000004R00000000000000191000011112015180000N000300000090N         000000400R 10000000010000000177           
RFF0204740069225880      ERT      0000  956.44375000140000111120151800000001915453100W 1220000N                               
CUS0204740000102354362002         M & D PROPERTIES LLC312 N FULTON AVE                        000N        CARE OF             
MTR02047400001000000000000000RA              75425395    005800770000007700000350000003NN  NNW 000                       N    
RDG02047400WATR 000000004R00000000000000115000011112015180000N000100000090N         000000400R 10000000010000000115           
RFF0204740069225386      ERT      0000  956.44375000140000111120151800000001157964100W 1220000N                               
CUS0204740000102365425004         BAGLEY, FRANCES     324 N FULTON AVE                        000N        CARE OF             
MTR02047400001000000000000000RA              75616980    005800780000007800000350000003NN  NNW 000                       N    
RDG02047400WATR 000000004R00000000000000326000011112015180000N000000000000N         000000400R 10000000010000000293           
RFF0204740069225359      ERT      0000  956.44375000140000111120151800000003261823100W 1220000N                               
CUS0204740000102349677001         TAYLOR JR, PAUL A   328 N FULTON AVE                        000N        CARE OF             
MTR02047400001000000000000000RA              75425398    005800790000007900000350000003NN  NNW 000                       N    
RDG02047400WATR 000000004R00000000000000249000011112015180000N000000000000N         000000400R 10000000010000000227           
RFF0204740069225375      ERT      0000  956.44375000140000111120151800000002492293100W 1220000N                               
CUS0204740000102363663002         CAL REALTY LLC      1805 W MULBERRY ST                      000N        CARE OF             
MTR02047400001000000000000000RA              21743257    005800800000008000000590000003NN  NNW 000                       N    
RDG02047400WATRL000000004K00000000000000000001311122015110505S008000000000U40       000150400K 10000000010000001722           
CUS0204740000102380516001         BUTLER, PEIRON      1815 W MULBERRY ST                      000N        CARE OF             
MTR02047400001000000000000000RA              79179836    005800810000008100000360000003NN  NNW 000                       N    
RDG02047400WATR 000000004R00000000000000000000011052015100000N000100000050N         000000400R 10000000010000000000           
RFF0204740069126014      ERT      0000  956.44375000140000110520151000000000000020100W 1220000N                               
CUS0204740000102363666005         MLH LIMITED PARTNERS1817 W MULBERRY ST                      000N        CARE OF             
MTR02047400001000000000000000RA              77884556    005800820000008200000360000003NN  NNW 000                       N    
RDG02047400WATRL000000004K00000000000000000001111122015110403S008000000000U40       001300400K 10000000010000000000           
CUS0204740000102220866004         BYRNES, ANNE        1835 W MULBERRY ST                      000N        CARE OF             
MTR02047400001000000000000000RA              75422501    005800830000008300000350000003NN  NNW 000                       N    
RDG02047400WATRL000000004R00000000000000000001211122015110450S008000000000U40       000470400R 10000000010000000107           
RFF0204740069225318      ERT      0000  956.4437500014000000000000000000                  0001N                               
CUS0204740000102220868000         MAYOR AND CITY COUNC321 N MONROE ST                         000N        CARE OF             
MTR02047400001000000000000000RA              75613356    005800840000008400000350000003NN  NNW 000                       N    
RDG02047400WATR 000000004R00000000000000000000011112015180000N000100000090N         000000400R 10000000010000000000           
RFF0204740069225357      ERT      0000  956.44375000140000111120151800000000000005100W 1220000N                               
CUS0204740000102220869008         BALLARD , JOANN     319 N MONROE ST                         000N        CARE OF             
MTR02047400001000000000000000RA              75425363    005800850000008500000350000003NN  NNW 000                       N    
RDG02047400WATR 000000004R00000000000000056000011112015180000N000000000000N         000000400R 10000000010000000040           
RFF0204740069225363      ERT      0000  956.44375000140000111120151800000000562937100W 1220000N                               
CUS0204740000102220873000         EVENLY, MAISIE DELOI300 N MONROE ST                         000N        CARE OF             
MTR02047400001000000000000000RA              75425382    005800860000008600000350000003NN  NNW 000                       N    
RDG02047400WATR 000000004R00000000000000236000011112015180000N000000000030N         000000400R 10000000010000000214           
RFF0204740069226403      ERT      0000  956.44375000140000111120151800000002368551100W 1220000N                               
CUS0204740000102220875005         JONES, HARRY S      304 N MONROE ST                         000N        CARE OF             
MTR02047400001000000000000000RA              75425386    005800870000008700000350000003NN  NNW 000                       N    
RDG02047400WATR 000000004R00000000000000271000011112015180000N000000000000N         000000400R 10000000010000000243           
RFF0204740069225388      ERT      0000  956.44375000140000111120151800000002711620100W 1220000N                               
CUS0204740000102220881003         JUNE JONES          318 N MONROE ST                         000N        CARE OF             
MTR02047400001000000000000000RA              75425364    005800880000008800000350000003NN  NNW 000                       N    
RDG02047400WATR 000000004R00000000000000030000011112015180000N000300000090N         000000400R 10000000010000000029           
RFF0204740069226424      ERT      0000  956.44375000140000111120151800000000307510100W 1220000N                               
CUS0204740000102365427000         BOYCE, GERALDINE    320 N MONROE ST                         000N        CARE OF             
MTR02047400001000000000000000RA              75425384    005800890000008900000350000003NN  NNW 000                       N    
RDG02047400WATR 000000004R00000000000000099000011112015180000N000000000000N         000000400R 10000000010000000078           
RFF0204740069226393      ERT      0000  956.44375000140000111120151800000000990994100W 1220000N                               
CUS0204740000102220882001         CHINEME, KINGSLEY   322 N MONROE ST                         000N        CARE OF             
MTR02047400001000000000000000RA              75425385    005800900000009000000350000003NN  NNW 000                       N    
RDG02047400WATR 000000004R00000000000000222000011112015180000N000000000000N         000000400R 10000000010000000192           
RFF0204740069226329      ERT      0000  956.44375000140000111120151800000002222763100W 1220000N                               
CUS0204740000102220884007         SHIRLEY N KEARNEY   1905 W MULBERRY ST                      000N        CARE OF             
MTR02047400001000000000000000RA              77887517    005800910000009100000360000003NN  NNW 000                       N    
RDG02047400WATR 000000004R00000000000000006000011112015180000N000400000090N         000000400R 10000000010000000005           
RFF0204740069225330      ERT      0000  956.44375000140000111120151800000000065886100W 1220000N                               
CUS0204740000102365438007         YABBA DABBA LLC     1907 W MULBERRY ST                      000N        CARE OF             
MTR02047400001000000000000000RA              75424994    005800920000009200000350000003NN  NNW 000                       N    
RDG02047400WATR 000000004R00000000000000224000011112015180000N000400000090N         000000400R 10000000010000000218           
RFF0204740069225323      ERT      0000  956.44375000140000111120151800000002241664100W 1220000N                               
CUS0204740000102220885004         WELLS, JOANN        1909 W MULBERRY ST                      000N        CARE OF             
MTR02047400001000000000000000RA              75424996    005800930000009300000350000003NN  NNW 000                       N    
RDG02047400WATR 000000004R00000000000000184000011112015180000N000400000090N         000000400R 10000000010000000179           
RFF0204740069225310      ERT      0000  956.44375000140000111120151800000001849644100W 1220000N                               
CUS0204740000102220886002         AGNEW, LANETTA D.   1911 W MULBERRY ST                      000N        CARE OF             
MTR02047400001000000000000000RA              75424995    005800940000009400000350000003NN  NNW 000                       N    
RDG02047400WATR 000000004R00000000000000232000011112015180000N000400000090N         000000400R 10000000010000000216           
RFF0204740069225319      ERT      0000  956.44375000140000111120151800000002325851100W 1220000N                               
CUS0204740000102220887000         NANNIE M B HAYDEN   1913 W MULBERRY ST                      000N        CARE OF             
MTR02047400001000000000000000RA              75424993    005800950000009500000350000003NN  NNW 000                       N    
RDG02047400WATR 000000004R00000000000000454000011112015180000N000000000050N         000000400R 10000000010000000418           
RFF0204740069225305      ERT      0000  956.44375000140000111120151800000004540237100W 1220000N                               
CUS0204740000102220888008         WILLIAMS JR., GEORGE1917 W MULBERRY ST                      000N        CARE OF             
MTR02047400001000000000000000RA              75424992    005800960000009600000350000003NN  NNW 000                       N    
RDG02047400WATR 000000004R00000000000000172000011112015180000N000400000090N         000000400R 10000000010000000168           
RFF0204740069225340      ERT      0000  956.44375000140000111120151800000001724517100W 1220000N                               
CUS0204740000102220889006         DUPREE, LILLIAN A   1919 W MULBERRY ST                      000N        CARE OF             
MTR02047400001000000000000000RA              77888294    005800970000009700000360000003NN  NNW 000                       N    
RDG02047400WATR 000000004R00000000000000026000011112015180000N000400000090N         000000400R 10000000010000000018           
RFF0204740069225869      ERT      0000  956.44375000140000111120151800000000265260100W 1220000N                               
CUS0204740000102220890004         RICE, JO ANN        1921 W MULBERRY ST                      000N        CARE OF             
MTR02047400001000000000000000RA              75425322    005800980000009800000350000003NN  NNW 000                       N    
RDG02047400WATR 000000004R00000000000000039000011112015180000N000100000090N         000000400R 10000000010000000039           
RFF0204740069225867      ERT      0000  956.44375000140000111120151800000000399694100W 1220000N                               
CUS0204740000102220891002         COOPER, JOETTE      1923 W MULBERRY ST                      000N        CARE OF             
MTR02047400001000000000000000RA              75425321    005800990000009900000350000003NN  NNW 000                       N    
RDG02047400WATR 000000004R00000000000000286000011112015180000N000400000090N         000000400R 10000000010000000276           
RFF0204740069225302      ERT      0000  956.44375000140000111120151800000002861168100W 1220000N                               
CUS0204740000102220892000         HOLLEY, TONYA T     1925 W MULBERRY ST                      000N        CARE OF             
MTR02047400001000000000000000RA              75425323    005801000000010000000350000003NN  NNW 000                       N    
RDG02047400WATR 000000004R00000000000000121000011112015180000N000000000070N         000000400R 10000000010000000115           
RFF0204740069225301      ERT      0000  956.44375000140000111120151800000001212885100W 1220000N                               
CUS0204740000102220893008         SMITH, VENEICE      1927 W MULBERRY ST                      000N        CARE OF             
MTR02047400001000000000000000RA              75425354    005801010000010100000350000003NN  NNW 000                       N    
RDG02047400WATR 000000004R00000000000000132000011112015180000N000000000060N         000000400R 10000000010000000112           
RFF0204740069225956      ERT      0000  956.44375000140000111120151800000001324109100W 1220000N                               
CUS0204740000102220894006         WEST MULBERRY, LLC. 1929 W MULBERRY ST                      000N        CARE OF             
MTR02047400001000000000000000RA              77882527    005801020000010200000360000003NN  NNW 000                       N    
RDG02047400WATR 000000004R00000000000000020000011112015180000N000400000090N         000000400R 10000000010000000018           
RFF0204740069225326      ERT      0000  956.44375000140000111120151800000000202567100W 1220000N                               
CUS0204740000102220896001         YUSSUF, NOJEEM OLAWA1933 W MULBERRY ST                      000N        CARE OF             
MTR02047400001000000000000000RA              75422649    005801030000010300000350000003NN  NNW 000                       N    
RDG02047400WATR 000000004R00000000000000180000011112015180000N000400000090N         000000400R 10000000010000000174           
RFF0204740069225837      ERT      0000  956.44375000140000111120151800000001801303100W 1220000N                               
CUS0204740000102220898007         RESIDENTIAL INVESTME1937 W MULBERRY ST                      000N        CARE OF             
MTR02047400001000000000000000RA              75425316    005801040000010400000350000003NN  NNW 000                       N    
RDG02047400WATR 000000004R00000000000000363000011112015180000N000400000090N         000000400R 10000000010000000351           
RFF0204740069225827      ERT      0000  956.44375000140000111120151800000003638728100W 1220000N                               
CUS0204740000102365436001         ANDERSON SR. CURTIS 1939 W MULBERRY ST                      000N        CARE OF             
MTR02047400001000000000000000RA              77888871    005801050000010500000360000003NN  NNW 000                       N    
RDG02047400WATR 000000004R00000000000000003000011112015180000N000100000090N         000000400R 10000000010000000003           
RFF0204740069225333      ERT      0000  956.44375000140000111120151800000000038586100W 1220000N                               
CUS0204740000102349747002         ANNETTE B MILLER    1953 W MULBERRY ST                      000N        CARE OF             
MTR02047400001000000000000000RA              75425326    005801060000010600000350000003NN  NNW 000                       N    
RDG02047400WATR 000000004R00000000000000251000011112015180000N000400000090N         000000400R 10000000010000000243           
RFF0204740069225832      ERT      0000  956.44375000140000111120151800000002511494100W 1220000N                               
RTR02047400NN00100106000000100000009601060106000016NY010601060106000000120000000000000000000001    10312015NY020000 N         
RHD08546000NN01780178000001780000000001780178000193NY017801780178000700000000000000000000000002    10272015NY020000 N         
CUS0854600000108017473003         SHIELDS MICHAEL JOHN1200 EDMONDSON AVE                      000N        CARE OF             
MTR08546000001000000000000000RA              24760277    005800010000000100000520000003NN  NNW 000                       N    
