FHDNNNN011001937001937002124N                                                                                           006355
RHD09730100NN02250225000002250000000001800180000080NY018001800225000900120000000000000000000001    11042015NY020000 N         
CUS0973010000104392328003         GENERAL GERMAN AGED 777 SOUTHERLY RD                        000N        CARE OF             
MTR09730100001000000000000000RA              35113553    007500010000000100000520000003NY  NNW 000                       N    
MTM0973010035113553    ok                                                                                                     
RDG09730100WATRL000000004K00000000000000560000111132015104645N000000000000U84       000000400K 10000000010000000560           
CUS0973010000109456918003         ST. OF MD UNIV. OF T7400 YORK RD                            000N        CARE OF             
MTR09730100001000000000000000RA              1200819     000600020000000200000520000003NN  NNW 000   FIRE SERVICE        N    
RDG09730100WATRL000000006K00000000000000000000111122015113000N000000000000N93       000000600K 10000000010000000000           
CUS0973010000109456920009         ST. OF MD UNIV. OF T7400 YORK RD                            000N        CARE OF             
MTR09730100001000000000000000RA              78112387    000300030000000300000000000003NY  NNW 000                       N    
MTM0973010078112387    ok                                                                                                     
RDG09730100WATRL000000005K00000000000000002000211122015113021N000100000010N93       000210500K 10000000010000000002           
CUS0973010000109373572008         YORK DALE LIMITED PA7801 YORK RD                            000N        CARE OF             
MTR09730100002000000000000000RA              7045828     000800040000000400000630000003NN  NNW 000                       N    
RDG09730100WATAL000000006K00000000000000001000311122015113028N000100000010N93       000070600K 10000000010000000001           
RDG09730100WATBL000000006K00000000000024831000411122015113039N000400000010N93       000110600K 10000000010000024409           
CUS0973010000109127696004         CARDIFF HALL EAST LL8001 YORK RD                            000N        CARE OF             
MTR09730100001000000000000000RA              99919933    000300050000000500000460000003NY  NNW 000                       N    
MTM0973010099919933    burried                                                                                                
RDG09730100WATRL000000005K00000000000000000000000000000000000 000000000000U         000000500  10000000010000063444           
CUS0973010000109396253008         FORTY YORK ROAD ASSO40 YORK RD                              000N        CARE OF             
MTR09730100001000000000000000RA              29066893    000200060000000600000520000003NN  NNW 000                       N    
RDG09730100WATRL000000005K00000000000004681000511122015113115N000000000000N93       000360500K 10000000010000004406           
CUS0973010000109396251002         FORTY YORK ROAD ASSO40 YORK RD                              000N        CARE OF             
MTR09730100001000000000000000RA              E22517      000600070000000700000430000003NN  NNW 000   FIRE SERVICE        N    
RDG09730100WATRL000000006K00000000000000000000611122015113122N000000000000N93       000070600K 10000000010000000000           
CUS0973010000109127694009         VERIZON             ES YORK RD 100 FT S OF                  000N        CARE OF             
MTR09730100001000000000000000RA              11800846    000300080000000800000640000003NN  NNW 000                       N    
RDG09730100WATRL000000005K00000000000009610000711122015113129N000000000000N93       000070500K 10000000010000008991           
CUS0973010000109127693001         VERIZON MARYLAND INCES YORK RD 100 FT S OF                  000N        CARE OF             
MTR09730100001000000000000000RA              5417346     000600090000000900000410000003NN  NNW 000   FIRE SERVICE        N    
RDG09730100WATRL000000006K00000000000009979000811122015113134N000000000000N93       000050600K 10000000010000009979           
CUS0973010000109428495007         TRACEY MICHAEL      312 E PENNSYLVANIA AVE                  000N        CARE OF             
MTR09730100001000000000000000RA              99169945    000200100000001000000570000003NN  NNW 000                       N    
RDG09730100WATRL000000005K00000000000000614000911122015113139N000000000000N93       000050500K 10000000010000000574           
CUS0973010000109403244008         BALTIMORE COUNTY MAR320 YORK RD                             000N        CARE OF             
MTR09730100001000000000000000RA              99999999    005800110000001100000620000003NN  NNW 000                       N    
RDG09730100WATRL000000004K00000000000000005001011122015113143N000000000000N93       000040400K 10000000010000000005           
CUS0973010000109403242002         BALTIMORE COUNTY MAR320 YORK RD                             000N        CARE OF             
MTR09730100001000000000000000RA              8026500     000600120000001200000340000003NN  NNW 000   FIRE SERVICE        N    
RDG09730100WATRL000000006K00000000000000003001111122015113147N000000000000N93       000040600K 10000000010000000003           
CUS0973010000109429176002         RECHER BARBARA      512 YORK RD                             000N        CARE OF             
MTR09730100001000000000000000RA              8043182     000400130000001300000380000003NN  NNW 000   FIRE SERVICE        N    
RDG09730100WATRL000000006K00000000000000002001211122015113151N000000000000N93       000040600K 10000000010000000002           
CUS0973010000109429178008         RECHER BARBARA      512 YORK RD                             000N        CARE OF             
MTR09730100001000000000000000RA              99259117    000100140000001400000570000003NN  NNW 000                       N    
RDG09730100WATRL000000004K00000000000007911001311122015113157N000000000000N93       000060400K 10000000010000007866           
CUS0973010000109445160006         1801 YR LLC         1801 YORK RD                            000N        CARE OF             
MTR09730100001000000000000000RA              30000653    007500150000001500000570000003NY  NNW 000                       N    
MTM0973010030000653    ok                                                                                                     
RDG09730100WATRL000000004K00000000000001292000211132015104703N000000000000U84       000180400K 10000000010000001292           
CUS0973010000109445159008         1801 YR LLC         1801 YORK RD                            000N        CARE OF             
MTR09730100001000000000000000RA              14914892    001500160000001600000310000003NN  NNW 000                       N    
RDG09730100WATRL000000005K00000000000000439000311132015104711N000300000010U84       000080500K 10000000010000000372           
CUS0973010000109445157002         1801 YR LLC         1801 YORK RD                            000N        CARE OF             
MTR09730100001000000000000000RA              8052517     000800170000001700000410000003NN  NNW 000   FIRE SERVICE        N    
RDG09730100WATRL000000006K00000000000000023000411132015104724N000000000000U84       000130600K 10000000010000000023           
CUS0973010000109403241004         THE DISTRICT CT. OF 108 E CHESAPEAKE AVE                    000N        CARE OF             
MTR09730100001000000000000000RA              27778889    001500180000001800000520000003NN  NNW 000                       N    
RDG09730100WATRL000000005K00000000000010048001411122015113235N000000000000N93       000380500K 10000000010000009999           
CUS0973010000109403239008         BALTIMORE COUNTY REV108 E CHESAPEAKE AVE                    000N        CARE OF             
MTR09730100001000000000000000RA              7234766     000600190000001900000340000003NN  NNW 000   FIRE SERVICE        N    
RDG09730100WATRL000000006K00000000000000043001511122015113238N000000000000N93       000030600K 10000000010000000043           
CUS0973010000109412593007         BALTIMORE COUNTY REV120 E CHESAPEAKE AVE                    000N        CARE OF             
MTR09730100001000000000000000RA              35116828    000200200000002000000520000003NN  NNW 000                       N    
RDG09730100WATRL000000005K00000000000027734001611122015113244N000000000000N93       000060500K 10000000010000027345           
CUS0973010000109412589005         STATE OF MARYLAND DE120 E CHESAPEAKE AVE                    000N        CARE OF             
MTR09730100001000000000000000RA              8033207     000600210000002100000380000003NN  NNW 000   FIRE SERVICE        N    
RDG09730100WATRL000000006K00000000000000003001711122015113252N000400000010N93       000080600K 10000000010000000000           
CUS0973010000109421678005         TRINITY HOUSE APARTM409 VIRGINIA AVE                        000N        CARE OF             
MTR09730100001000000000000000RA              10806676    000300220000002200000460000003NN  NNW 000                       N    
RDG09730100WATRL000000005K00000000000008538000111162015120842N000000000000U93       000000500K 10000000010000007651           
CUS0973010000109421676009         TRINITY HOUSE APARTM409 VIRGINIA AVE                        000N        CARE OF             
MTR09730100001000000000000000RA              8041186     000600230000002300000380000003NN  NNW 000   FIRE SERVICE        N    
RDG09730100WATRL000000006K00000000000000007000211162015120847N000000000000U93       000050600K 10000000010000000007           
CUS0973010000109358753003         VIRGINIA TOWERS LLC 500 VIRGINIA AVE                        000N        CARE OF             
MTR09730100001000000000000000RA              9504078     000300240000002400000640000003NN  NNW 000                       N    
RDG09730100WATRL000000005K00000000000069601001811122015113310N000000000000N93       000180500K 10000000010000067411           
CUS0973010000109358752005         VIRGINIA TOWERS LLC 500 VIRGINIA AVE                        000N        CARE OF             
MTR09730100001000000000000000RA              E13495      000600250000002500000430000003NN  NNW 000   FIRE SERVICE        N    
RDG09730100WATRL000000006K00000000000000001001911122015113314N000000000000N93       000040600K 10000000010000000001           
CUS0973010000109454501009         TOWSON CIRCLE COMMER505 VIRGINIA AVE                        000N        CARE OF             
MTR09730100001000000000000000RA              70000400    001500260000002600000570000003NY  NNW 000                       N    
MTM0973010070000400    ok                                                                                                     
RDG09730100WATRL000000005K00000000000000093002011122015113330N000300000010N93       000160500K 10000000010000025431           
CUS0973010000109454502007         TOWSON CIRCLE       505 VIRGINIA AVE                        000N        CARE OF             
MTR09730100001000000000000000RA              1200259     000600270000002700000570000003NN  NNW 000   FIRE SERVICE        N    
RDG09730100WATRL000000006K00000000000000031002111122015113339N000100000010N93       000090600K 10000000010000000031           
CUS0973010000109454498008         TOWSON CIRCLE HOLDIN515 VIRGINIA AVE                        000N        CARE OF             
MTR09730100001000000000000000RA              70000401    001500280000002800000570000000NY  NNW 000                       N    
MTM0973010070000401    ok                                                                                                     
RDG09730100WATRL000000005K00000000000000352002211122015113402N000300000010N93       000230500K 10000000010000030362           
CUS0973010000109454499006         TOWSON CIRCLE HOLDIN515 VIRGINIA AVE                        000N        CARE OF             
MTR09730100001000000000000000RA              1200239     000600290000002900000570000003NN  NNW 000   FIRE SERVICE        N    
RDG09730100WATRL000000006K00000000000000000002311122015113408N000100000010N93       000060600K 10000000010000000000           
CUS0973010000109127692003         TOWSON CIRCLE LLC   99 E JOPPA RD                           000N        CARE OF             
MTR09730100001000000000000000RA              1215553     000300300000003000000490000003NN  NNW 000                       N    
RDG09730100WATRL000000005K00000000000016432002411122015113413N000000000000N93       000050500K 10000000010000014693           
CUS0973010000109434121001         TOWSON CIRCLE LLC   100 E JOPPA RD                          000N        CARE OF             
MTR09730100001000000000000000RA              8047550     000600310000003100000380000000NN  NNW 000   FIRE SERVICE        N    
RDG09730100WATRL000000006K00000000000000008002511122015113417N000000000000N93       000040600K 10000000010000000008           
CUS0973010000109434123007         TOWSON CIRCLE LLC   100 E JOPPA RD                          000N        CARE OF             
MTR09730100001000000000000000RA              0908783     000300320000003200000640000000NN  NNW 000                       N    
RDG09730100WATRL000000005K00000000000024832002611122015113423N000000000000N93       000060500K 10000000010000024031           
CUS0973010000109454478000         BJ'S RESTAURANTS, IN101 E JOPPA RD                          000N        CARE OF             
MTR09730100001000000000000000RA              1200245     000600330000003300000640000003NN  NNW 000   FIRE SERVICE        N    
RDG09730100WATRL000000006K00000000000000000002711122015113439N000000000000N93       000160600K 10000000010000000000           
CUS0973010000109454480006         BJ'S RESTAURANTS, IN101 E JOPPA RD                          000N        CARE OF             
MTR09730100001000000000000000RA              70000421    001500340000003400000570000003NY  NNW 000                       N    
MTM0973010070000421    ok                                                                                                     
RDG09730100WATRL000000005K00000000000001015002811122015113448N000300000010N93       000090500K 10000000010000002349           
CUS0973010000109454481004         TOWSON CIR HOLDINGS 105 E JOPPA RD                          000N        CARE OF             
MTR09730100001000000000000000RA              1200248     000600350000003500000570000003NN  NNW 000   FIRE SERVICE        N    
RDG09730100WATRL000000006K00000000000000000002911122015113514N000000000000N93       000260600K 10000000010000000000           
CUS0973010000109454483000         TOWSON CIR HOLDINGS 105 E JOPPA RD                          000N        CARE OF             
MTR09730100001000000000000000RA              70000295    001500360000003600000570000003NY  NNW 000                       N    
MTM0973010070000295    ok                                                                                                     
RDG09730100WATRL000000005K00000000000000062003011122015113530N000300000010N93       000160500K 10000000010000000478           
CUS0973010000109454484008         TOWSON CIRCLE       107 E JOPPA RD                          000N        CARE OF             
MTR09730100001000000000000000RA              70000287    001500370000003700000570000003NY  NNW 000                       N    
MTM0973010070000287    ok                                                                                                     
RDG09730100WATRL000000005K00000000000000000003111122015113538N000000000000N93       000080500K 10000000010000000000           
CUS0973010000109454485005         TOWSON CIRC HOLDGS L109 E JOPPA RD                          000N        CARE OF             
MTR09730100001000000000000000RA              70000294    001500380000003800000570000003NY  NNW 000                       N    
MTM0973010070000294    ok                                                                                                     
RDG09730100WATRL000000005K00000000000000954003211122015113553N000300000010N93       000150500K 10000000010000002021           
CUS0973010000109454486003         TOWSON CIRCLE HLDS L109 E JOPPA RD                          000N        CARE OF             
MTR09730100001000000000000000RA              1200256     000600390000003900000570000003NN  NNW 000   FIRE SERVICE        N    
RDG09730100WATRL000000006K00000000000000000003311122015113556N000000000000N93       000030600K 10000000010000000000           
CUS0973010000109454504003         TOWSON CIR HOLDGS LL111 E JOPPA RD                          000N        CARE OF             
MTR09730100001000000000000000RA              71429401    000300400000004000000440000003NN  NNW 000                       N    
RDG09730100WATRL000000005K00000000000002825003411122015113606N000000000000N93       000100500K 10000000010000002351           
CUS0973010000109454505000         TOWSON CIR HOLDGS LL111 E JOPPA RD                          000N        CARE OF             
MTR09730100001000000000000000RA              1200240     000600410000004100000440000003NN  NNW 000   FIRE SERVICE        N    
RDG09730100WATRL000000006K00000000000000042003511122015113613N000100000010N93       000070600K 10000000010000000042           
CUS0973010000109454487001         TOWSON CIRCLE HLDS L121 E JOPPA RD                          000N        CARE OF             
MTR09730100001000000000000000RA              1200658     000600420000004200000410000003NN  NNW 000   FIRE SERVICE        N    
RDG09730100WATRL000000006K00000000000000000003611122015113634N000000000000N93       000210600K 10000000010000000000           
CUS0973010000109454489007         OTB ACQUISITONS LLC 121 E JOPPA RD                          000N        CARE OF             
MTR09730100001000000000000000RA              70000425    001500430000004300000570000003NN  NNW 000                       N    
RDG09730100WATRL000000005K00000000000001281003711122015113639N000000000000N93       000050500K 10000000010000001084           
CUS0973010000109454490005         WORLD OF BEER TOWSON125 E JOPPA RD                          000N        CARE OF             
MTR09730100001000000000000000RA              1200251     000600440000004400000570000003NN  NNW 000   FIRE SERVICE        N    
RDG09730100WATRL000000006K00000000000000000003811122015113643N000000000000N93       000040600K 10000000010000000000           
CUS0973010000109454492001         WORLD OF BEER TOWSON125 E JOPPA RD                          000N        CARE OF             
MTR09730100001000000000000000RA              70000419    001500450000004500000570000003NN  NNW 000                       N    
RDG09730100WATRL000000005K00000000000000082003911122015113700N000300000010N93       000170500K 10000000010000000004           
CUS0973010000109454493009         TOWSON CIRCLE       127 E JOPPA RD                          000N        CARE OF             
MTR09730100001000000000000000RA              1200237     000600460000004600000570000003NN  NNW 000   FIRE SERVICE        N    
RDG09730100WATRL000000006K00000000000000000004011122015113703N000000000000N93       000030600K 10000000010000000000           
CUS0973010000109454497000         OSI RESTURANT PARTNE127 E JOPPA RD                          000N        CARE OF             
MTR09730100001000000000000000RA              70000416    001500470000004700000570000003NN  NNW 000                       N    
RDG09730100WATRL000000005K00000000000000949004111122015113711N000400000010N93       000080500K 10000000010000000789           
CUS0973010000109127689009         RIDGELY CONDOMINIUM 205 E JOPPA RD                          000N        CARE OF             
MTR09730100002000000000000000RA              5498409     000800480000004800000540000003NN  NNW 000                       N    
RDG09730100WATAL000000006K00000000000000026004211122015113720N000400000010N93       000090600K 10000000010000000024           
RDG09730100WATBL000000006K00000000000004989004311122015113730N000400000010N93       000100600K 10000000010000004623           
CUS0973010000109426131000         EXTRA SPACE STORAGE-203 E JOPPA RD                          000N        CARE OF             
MTR09730100001000000000000000RA              8042505     000600490000004900000380000003NN  NNW 000   FIRE SERVICE        N    
RDG09730100WATRL000000006K00000000000000095004411122015113750N000100000010N93       000200600K 10000000010000000095           
CUS0973010000109426130002         EXTRA SPACE STORAGE-203 E JOPPA RD                          000N        CARE OF             
MTR09730100001000000000000000RA              54353376    000100500000005000000520000003NY  NNW 000                       N    
MTM0973010054353376    ok                                                                                                     
RDG09730100WATRL000000004K00000000000001650004511122015113801N000300000010N93       000110400K 10000000010000001711           
CUS0973010000109127691005         TABCO TOWERS HOUSING305 E JOPPA RD                          000N        CARE OF             
MTR09730100001000000000000000RA              1199159     000300510000005100000490000003NY  NNW 000                       N    
MTM097301001199159     ok                                                                                                     
RDG09730100WATRL000000005K00000000000044590004611122015113842N000100000010N93       000410500K 10000000010000044590           
CUS0973010000109127690007         TABCO TOWERS HOUSING305 E JOPPA RD                          000N        CARE OF             
MTR09730100001000000000000000RA              1809715     000600520000005200000410000003NN  NNW 000   FIRE SERVICE        N    
RDG09730100WATRL000000006K00000000000000000004711122015113857N000000000000N93       000150600K 10000000010000000000           
CUS0973010000109386581004         JOPPA-FAIRMOUNT BUIL555 FAIRMOUNT AVE                       000N        CARE OF             
MTR09730100001000000000000000RA              35101124    001500530000005300000520000003NN  NNW 000                       N    
RDG09730100WATRL000000005K00000000000020388004811122015113912N000000000000N93       000150500K 10000000010000019984           
CUS0973010000109386580006         JOPPA-FAIRMOUNT BUIL555 FAIRMOUNT AVE                       000N        CARE OF             
MTR09730100001000000000000000RA              E21163      000600540000005400000430000003NN  NNW 000   FIRE SERVICE        N    
RDG09730100WATRL000000006K00000000000000072004911122015113924N000100000010N93       000120600K 10000000010000000072           
CUS0973010000109396821002         TOWSON BUILDING ASSO515 FAIRMOUNT AVE                       000N        CARE OF             
MTR09730100001000000000000000RA              1253690     000300550000005500000470000003NN  NNW 000                       N    
RDG09730100WATRL000000005K00000000000000093000311162015120919N000300000010U93       000320500K 10000000010000094344           
CUS0973010000109396819006         TOWSON BUILDING ASSO515 FAIRMOUNT AVE                       000N        CARE OF             
MTR09730100001000000000000000RA              E22520      000600560000005600000430000003NN  NNW 000   FIRE SERVICE        N    
RDG09730100WATRL000000006K00000000000000392000411162015121016N000100000010U93       000570600K 10000000010000000392           
CUS0973010000109429258008         501 FAIRMOUNT ASSOC,501 FAIRMOUNT AVE                       000N        CARE OF             
MTR09730100002000000000000000RA              70073530    000800570000005700000560000003NN  NNW 000   FIRE SERVICE        N    
RDG09730100WATAL000000006K00000000000000061005011122015113937N000000000000N93       000130600K 10000000010000000059           
RDG09730100WATBL000000006K00000000000000141005111122015113959N000400000010N93       000220600K 10000000010000000140           
CUS0973010000109429260004         307 PENN. ASSOCIATES501 FAIRMOUNT AVE                       000N        CARE OF             
MTR09730100001000000000000000RA              99916769    000300580000005800000460000003NN  NNW 000                       N    
RDG09730100WATRL000000005K00000000000005245005211122015114035N000000000000N93       000360500K 10000000010000005128           
CUS0973010000109446619000         MT CALVARY AFRICAN M349 EUDOWOOD LN                         000N        CARE OF             
MTR09730100001000000000000000RA              90000286    000200590000005900000570000000NN  NNW 000                       N    
RDG09730100WATRL000000005K00000000000000451000511132015104841N000000000000U84       000770500K 10000000010000000414           
CUS0973010000109446620008         MT CALVERY AFRICAN M349 EUDOWOOD LN                         000N        CARE OF             
MTR09730100001000000000000000RA              0007344     000600600000006000000570000000NN  NNW 000   FIRE SERVICE        N    
RDG09730100WATRL000000006K00000000000000007000611132015104845N000000000000U84       000040600K 10000000010000000007           
CUS0973010000109385459004         HOGG PROPERTIES LLC 405 E JOPPA RD                          000N        CARE OF             
MTR09730100001000000000000000RA              35105014    001500610000006100000520000003NN  NNW 000                       N    
RDG09730100WATRL000000005K00000000000012222000711132015104854N000300000010U84       000090500K 10000000010000011146           
CUS0973010000109385458006         HOGG PROPERTIES LLC 405 E JOPPA RD                          000N        CARE OF             
MTR09730100001000000000000000RA              E21145      000600620000006200000430000003NN  NNW 000   FIRE SERVICE        N    
RDG09730100WATRL000000006K00000000000000000000811132015104857N000000000000U84       000030600K 10000000010000000000           
CUS0973010000109413474009         HARRIS HILL CONDO AS519 E JOPPA RD                          000N        CARE OF             
MTR09730100002000000000000000RA              7199901     000400630000006300000630000003NN  NNW 000                       N    
RDG09730100WATAL000000006K00000000000000002000911132015104903N000100000010U84       000060600K 10000000010000000002           
RDG09730100WATBL000000006K00000000000010842001011132015104912N000400000010U84       000090600K 10000000010000010075           
CUS0973010000109127685007         HAMPTON PLAZA JOINT NWC JOPPA RD &                          000N        CARE OF             
MTR09730100001000000000000000RA              1154961     000600640000006400000490000003NN  NNW 000                       N    
RDG09730100WATRL000000006K00000000000082009001111132015104920N000000000000U84       000080600K 10000000010000075558           
CUS0973010000109127684000         HAMPTON PLAZA JOINT NWC JOPPA RD &                          000N        CARE OF             
MTR09730100001000000000000000RA              5125028     001000650000006500000410000003NN  NNW 000   FIRE SERVICE        N    
RDG09730100WATRL000000007K00000000000002422001211132015105048N000100000010U84       000880700K 10000000010000002422           
CUS0973010000109127686005         442700 BERKSHIRE PRO204 E JOPPA RD                          000N        CARE OF             
MTR09730100001000000000000000RA              1313675     000400660000006600000490000003NN  NNW 000                       N    
RDG09730100WATRL000000006K00000000000048661005311122015114110N000000000000N93       000350600K 10000000010000045386           
CUS0973010000109127688001         200 EAST JOPPA RD AS200 E JOPPA RD                          000N        CARE OF             
MTR09730100001000000000000000RA              01117202    000200670000006700000610000003NN  NNW 000                       N    
RDG09730100WATRL000000005K00000000000004671000511162015121054N000000000000U93       000380500K 10000000010000004607           
CUS0973010000109127687003         200 EAST JOPPA RD AS200 E JOPPA RD                          000N        CARE OF             
MTR09730100001000000000000000RA              3582643     000600680000006800000410000003NN  NNW 000   FIRE SERVICE        N    
RDG09730100WATRL000000006K00000000000001090000611162015121059N000000000000U93       000050600K 10000000010000001090           
CUS0973010000109421090003         BALTIMORE COUNTY MAR300 LENNOX AVE                          000N        CARE OF             
MTR09730100001000000000000000RA              8037202     000400690000006900000380000000NN  NNW 000   FIRE SERVICE        N    
RDG09730100WATRL000000006K00000000000000002001311132015105123N000100000010U84       000350600K 10000000010000000002           
CUS0973010000109421092009         BALTIMORE COUNTY MAR300 LENNOX AVE                          000N        CARE OF             
MTR09730100001000000000000000RA              01105616    000200700000007000000610000000NN  NNW 000                       N    
RDG09730100WATRL000000005K00000000000003409001411132015105128N000000000000U84       000050500K 10000000010000003375           
CUS0973010000109401934006         TOWSON TC LLC       715 DULANEY VALLEY RD                   000N        CARE OF             
MTR09730100001000000000000000RA              01105388    001500710000007100000610000003NY  NNW 000                       N    
MTM0973010001105388    ok                                                                                                     
RDG09730100WATRL000000005K00000000000000271001511132015105147N000300000010U84       000190500K 10000000010000000551           
CUS0973010000109401932000         TOWSON TC LLC       715 DULANEY VALLEY RD                   000N        CARE OF             
MTR09730100001000000000000000RA              7197074     000800720000007200000340000003NN  NNW 000   FIRE SERVICE        N    
RDG09730100WATRL000000006K00000000000000314001611132015105201N000000000010U84       000140600K 10000000010000000313           
CUS0973010000109385088001         FEDERATED DPT STORES813 DULANEY VALLEY RD                   000N        CARE OF             
MTR09730100001000000000000000RA              35101306    000200730000007300000520000003NN  NNW 000                       N    
RDG09730100WATRL000000005K00000000000078576001711132015105213N000400000010U84       000120500K 10000000010000078140           
CUS0973010000109385087003         FEDERATED DEPT. STOR813 DULANEY VALLEY RD                   000N        CARE OF             
MTR09730100001000000000000000RA              E18567      000600740000007400000430000003NN  NNW 000   FIRE SERVICE        N    
RDG09730100WATRL000000006K00000000000000057001811132015105230N000100000010U84       000170600K 10000000010000000057           
CUS0973010000109405058000         TOWSON TC LLC       725 DULANEY VALLEY RD                   000N        CARE OF             
MTR09730100002000000000000000RA              9051885     001200750000007500000630000003NN  NNW 000                       N    
RDG09730100WATAL000000007K00000000000000008001911132015105238N000100000010U84       000080700K 10000000010000000008           
RDG09730100WATBL000000007K00000000000052659002011132015105252N000400000010U84       000140700K 10000000010000050403           
CUS0973010000109446367006         TAUBMAN PROPERTIES L838 DULANEY VALLEY RD                   000N        CARE OF             
MTR09730100002000000000000000RA              11801030    000800760000007600000390000000NY  NNW 000                       N    
MTM0973010011801030    no holes                                                                                               
RDG09730100WATAL000000006K00000000000000000000000000000000000 000000000000U         000000600  10000000010000000000           
RDG09730100WATBL000000006K00000000000000000000000000000000000 000000000000U         000000600  10000000010000000000           
CUS0973010000109127674001         TAUBMAN PROPERTIES L826 DULANEY VALLEY RD                   000N        CARE OF             
MTR09730100001000000000000000RA              36700102    001500770000007700000520000003NN  NNW 000                       N    
RDG09730100WATRL000000005K00000000000034380002111132015105309N000000000000U84       000170500K 10000000010000034243           
CUS0973010000109127673003         TAUBMAN PROPERTIES L822 DULANEY VALLEY RD                   000N        CARE OF             
MTR09730100001000000000000000RA              29768567    000200780000007800000520000003NN  NNW 000                       N    
RDG09730100WATRL000000005K00000000000007700002211132015105331N000000000000U84       000220500K 10000000010000007595           
CUS0973010000109127641000         TOWSON CITY CENTER L1 INVESTMENT PL                         000N        CARE OF             
MTR09730100003000000000000000RA              4574060     000800790000007900000390000003NN  NNW 000   FIRE SERVICE        N    
RDG09730100WATAL000000006K00000000000000019002311132015105339N000100000010U84       000080600K 10000000010000000019           
RDG09730100WATBL000000006K00000000000000221002411132015105345N000100000010U84       000060600K 10000000010000000221           
RDG09730100WATCL000000006K00000000000000816002511132015105407N000100000030U84       000220600K 10000000010000000816           
CUS0973010000109127642008         TOWNSON CITY CENTER 1 INVESTMENT PL                         000N        CARE OF             
MTR09730100001000000000000000RA              9305962     000300800000008000000640000003NN  NNW 000                       N    
RDG09730100WATRL000000005K00000000000007706002611132015105412N000000000000U84       000050500K 10000000010000006940           
CUS0973010000109388477003         TOWSON TC LLC       700 FAIRMOUNT AVE                       000N        CARE OF             
MTR09730100002000000000000000RA              5895159     001200810000008100000540000003NN  NNW 000                       N    
RDG09730100WATAL000000007K00000000000000036002711132015105451N000400000010U84       000390700K 10000000010000000031           
RDG09730100WATBL000000007K00000000000147003002811132015105501N000400000010U84       000100700K 10000000010000143974           
CUS0973010000109405923005         NORDSTORM INC 622   700 FAIRMOUNT AVE                       000N        CARE OF             
MTR09730100001000000000000000RA              0904246     000300820000008200000640000003NN  NNW 000                       N    
RDG09730100WATRL000000005K00000000000023811002911132015105507N000000000000U84       000060500K 10000000010000022886           
CUS0973010000109405921009         NORDSTORM INC       700 FAIRMOUNT AVE                       000N        CARE OF             
MTR09730100001000000000000000RA              8027315     000800830000008300000340000003NN  NNW 000   FIRE SERVICE        N    
RDG09730100WATRL000000006K00000000000000000003011132015105510N000000000000U84       000030600K 10000000010000000000           
CUS0973010000109395000004         COMMERCIAL REALTY AD600 FAIRMOUNT AVE                       000N        CARE OF             
MTR09730100001000000000000000RA              37690787    000100840000008400000520000003NN  NNW 000                       N    
RDG09730100WATRL000000004K00000000000000250003111132015105514N000000000000U84       000040400K 10000000010000000143           
CUS0973010000109394998000         COMMERCIAL REALTY AD600 FAIRMOUNT AVE                       000N        CARE OF             
MTR09730100001000000000000000RA              E23086      000600850000008500000430000003NN  NNW 000   FIRE SERVICE        N    
RDG09730100WATRL000000006K00000000000000000003211132015105520N000000000000U84       000060600K 10000000010000000000           
CUS0973010000109127679000         TOWSONTOWN CONDO ASS505 EPSOM RD                            000N        CARE OF             
MTR09730100001000000000000000RA              01105138    001500860000008600000610000003NN  NNW 000                       N    
RDG09730100WATRL000000005K00000000000010589003311132015105525N000000000000U84       000050500K 10000000010000010428           
CUS0973010000109127680008         TOWSONTOWN CONDO ASS519 EPSOM RD                            000N        CARE OF             
MTR09730100001000000000000000RA              01105182    001500870000008700000610000003NN  NNW 000                       N    
RDG09730100WATRL000000005K00000000000004366003411132015105530N000000000000U84       000050500K 10000000010000004305           
CUS0973010000109127681006         TOWSONTOWN CONDO ASS521 EPSOM RD                            000N        CARE OF             
MTR09730100001000000000000000RA              01105099    001500880000008800000610000003NN  NNW 000                       N    
RDG09730100WATRL000000005K00000000000004157003511132015105536N000000000000U84       000060500K 10000000010000004076           
CUS0973010000109432614007         BOARD OF EDUCA OF   825 PROVIDENCE RD                       000N        CARE OF             
MTR09730100001000000000000000RA              8046882     000600890000008900000380000000NN  NNW 000   FIRE SERVICE        N    
RDG09730100WATRL000000006K00000000000000003003611132015105541N000000000000U84       000050600K 10000000010000000003           
CUS0973010000109432619006         BOARD OF EDUCA OF   825 PROVIDENCE RD                       000N        CARE OF             
MTR09730100001000000000000000RA              78112395    000300900000009000000460000000NN  NNW 000                       N    
RDG09730100WATRL000000005K00000000000000506003711132015105546N000000000000U84       000050500K 10000000010000000344           
CUS0973010000109127683002         CROMWELL REALTY COMPES BREEZEWICK RD                        000N        CARE OF             
MTR09730100002000000000000000RA              5471361     000600910000009100000540000003NN  NNW 000                       N    
RDG09730100WATAL000000006K00000000000000103003811132015105606N000100000010U84       000200600K 10000000010000000103           
RDG09730100WATBL000000006K00000000000008971003911132015105615N000400000010U84       000090600K 10000000010000002399           
CUS0973010000109349141003         DECHIARO PROPERTIES 920 PROVIDENCE RD                       000N        CARE OF             
MTR09730100002000000000000000RA              6029507     000800920000009200000630000003NN  NNW 000   FIRE SERVICE        N    
RDG09730100WATAL000000006K00000000000000000004011132015105618N000000000000U84       000030600K 10000000010000000000           
RDG09730100WATBL000000006K00000000000000189004111132015105626N000400000010U84       000080600K 10000000010000000188           
CUS0973010000109349142001         DECHIARO PROPERTIES 920 PROVIDENCE RD                       000N        CARE OF             
MTR09730100001000000000000000RA              36700233    001500930000009300000520000003NN  NNW 000                       N    
RDG09730100WATRL000000005K00000000000003695004211132015105632N000000000000U84       000060500K 10000000010000003628           
CUS0973010000109445941009         BOARD OF EDUCATION  1001 PROVIDENCE RD                      000N        CARE OF             
MTR09730100002000000000000000RA              10802468    000800940000009400000390000000NN  NNW 000                       N    
RDG09730100WATAL000000006K00000000000000008004311132015105638N000100000010U84       000060600K 10000000010000000008           
RDG09730100WATBL000000000K00000000000000478004411132015105651N000400000010U84       000131000K 10000000010000000452           
CUS0973010000109127648005         THE BEECHES CONDOMIN1099 HART RD                            000N        CARE OF             
MTR09730100002000000000000000RA              5417367     000600950000009500000630000003NN  NNW 000                       N    
RDG09730100WATAL000000006K00000000000000003004511132015105657N000100000010U84       000060600K 10000000010000000003           
RDG09730100WATBL000000006K00000000000010601004611132015105706N000400000010U84       000090600K 10000000010000010266           
CUS0973010000109421053001         HAMPTON MEADOWS LLC 1412 PROVIDENCE RD                      000N        CARE OF             
MTR09730100001000000000000000RA              00066760    000200960000009600000570000003NN  NNW 000                       N    
RDG09730100WATRL000000005K00000000000005030004711132015105712N000000000000U84       000060500K 10000000010000004866           
CUS0973010000109441152007         PROVIDENCE VOLUNTEER1416 PROVIDENCE RD                      000N        CARE OF             
MTR09730100001000000000000000RA              14921096    001500970000009700000310000000NN  NNW 000                       N    
RDG09730100WATRL000000005K00000000000000599004811132015105742N000000000000U84       000300500K 10000000010000000589           
CUS0973010000109441153005         PROVIDENCE VOLINTEER1416 PROVIDENCE RD                      000N        CARE OF             
MTR09730100002000000000000000RA              0509194     000600980000009800000630000000NN  NNW 000   FIRE SERVICE        N    
RDG09730100WATAL000000006K00000000000000079004911132015105746N000000000000U84       000040600K 10000000010000000077           
RDG09730100WATBL000000006K00000000000000000005011132015105751N000100000010U84       000050600K 10000000010000000000           
CUS0973010000109409248003         NOTRE DAME PREPARATO815 HAMPTON LN                          000N        CARE OF             
MTR09730100001000000000000000RA              0911753     000400990000009900000640000003NN  NNW 000                       N    
RDG09730100WATRL000000006K00000000000019181005111132015105757N000000000000U84       000060600K 10000000010000017593           
CUS0973010000109409246007         NOTRE DAME PREPARATO815 HAMPTON LN                          000N        CARE OF             
MTR09730100001000000000000000RA              8027294     000601000000010000000340000003NN  NNW 000   FIRE SERVICE        N    
RDG09730100WATRL000000006K00000000000000013005211132015105802N000000000000U84       000050600K 10000000010000000013           
CUS0973010000109435669008         NOTRE DAME PREPARATO815 HAMPTON LN                          000N        CARE OF             
MTR09730100002000000000000000RA              0109759     000801010000010100000630000000NN  NNW 000                       N    
RDG09730100WATAL000000006K00000000000000001005311132015105808N000100000010U84       000060600K 10000000010000000001           
RDG09730100WATBL000000006K00000000000000935005411132015105816N000400000010U84       000080600K 10000000010000000889           
CUS0973010000109146443008         U S OF AMERICA      535 HAMPTON LN                          000N        CARE OF             
MTR09730100002000000000000000RA              2507553     000401020000010200000630000003NY  NNW 000                       N    
MTM097301002507553     ok                                                                                                     
RDG09730100WATAL000000006K00000000000000406005511132015105835N000300000010U84       000190600K 10000000010000000467           
RDG09730100WATBL000000006K00000000000000011005611132015105850N000100000010U84       000150600K 10000000010000000011           
CUS0973010000109446617004         UNITED STATES OF AME535 HAMPTON LN                          000N        CARE OF             
MTR09730100002000000000000000RA              0509192     000601030000010300000630000000NY  NNW 000                       N    
MTM097301000509192     reads ok                                                                                               
RDG09730100WATAL000000006K00000000000000406000711162015121233N000300000010U93       000940600K 10000000010000000154           
RDG09730100WATBL000000000K00000000000000011000811162015121243N000300000010U93       000101000K 10000000010000000198           
CUS0973010000109451345004         US OF AMERICA/FT MCH535 HAMPTON LN                          000N        CARE OF             
MTR09730100001000000000000000RA              12800273    000801040000010400000630000003NY  NNW 000                       N    
MTM0973010012800273    dial 1 000057       dial 2  00185                                                                      
RDG09730100WATRL000000006K00000000000000185005711132015105930N000000000000U84       000400600K 10000000010000000172           
CUS0973010000109436955000         CHURCH OF THE NATIVI1800 VISTA LN                           000N        CARE OF             
MTR09730100001000000000000000RA              8048803     000601050000010500000380000000NN  NNW 000   FIRE SERVICE        N    
RDG09730100WATRL000000006K00000000000000001005811132015105935N000000000000U84       000050600K 10000000010000000001           
CUS0973010000109436957006         CHURCH OF THE NATIVI1800 VISTA LN                           000N        CARE OF             
MTR09730100001000000000000000RA              14910701    005801060000010600000310000000NN  NNW 000                       N    
RDG09730100WATRL000000004K00000000000002342005911132015105942N000400000010U84       000070400K 10000000010000002336           
CUS0973010000109441196004         TOWSON METHODIST CHU501 HAMPTON LN                          000N        CARE OF             
MTR09730100002000000000000000RA              0509198     000601070000010700000630000000NN  NNW 000                       N    
RDG09730100WATAL000000006K00000000000000003006011132015105948N000100000010U84       000060600K 10000000010000000003           
RDG09730100WATBL000000006K00000000000002494006111132015105957N000400000010U84       000090600K 10000000010000002438           
CUS0973010000109127649003         MAYOR & CITY COUNCILNEC DULANEY VALLEY RD &                 000N        CARE OF             
MTR09730100001000000000000000RA              1378657     000201080000010800000490000003NY  NNW 000   FERRULE APPLIED     N    
MTM097301001378657     ok                                                                                                     
RDG09730100WATRL000000005K00000000000045046006211132015110021N000300000010U84       000240500K 10000000010000052889           
CUS0973010000109358892009         ROBINSON BARBARA L  1798 DULANEY VALLEY RD                  000N        CARE OF             
MTR09730100001000000000000000RA              01116691    000201090000010900000610000003NN  NNW 000                       N    
RDG09730100WATRL000000005K00000000000007355006311132015110026N000000000000U84       000050500K 10000000010000007172           
CUS0973010000109127650001         MAYOR & CITY COUNCIL2121 DULANEY VALLEY RD                  000N        CARE OF             
MTR09730100002000000000000000RA              2305000     000401100000011000000480000003NN  NNW 000                       N    
RDG09730100WATAL000000006K00000000000000000006411132015110032N000100000010U84       000060600K 10000000010000000000           
RDG09730100WATBL000000006K00000000000028337006511132015110052N000400000010U84       000200600K 10000000010000027981           
CUS0973010000109127651009         STELLA MARIS INC    2300 DULANEY VALLEY RD                  000N        CARE OF             
MTR09730100002000000000000000RA              2883274     000801110000011100000630000003NY  NNW 000                       N    
MTM097301002883274     ert                    ok                                                                              
RDG09730100WATAL000000006K00000000000000000006611132015110108N000300000010U84       000160600K 10000000010000000002           
RDG09730100WATBL000000006K00000000000000012006711132015110114N000300000010U84       000060600K 10000000010000021747           
CUS0973010000109382589001         STELLA MARIS INC    2300 DULANEY VALLEY RD                  000N        CARE OF             
MTR09730100002000000000000000RA              7135060     001001120000011200000540000003NN  NNW 000                       N    
RDG09730100WATAL000000007K00000000000000112006811132015110132N000400000010U84       000180700K 10000000010000000100           
RDG09730100WATBL000000007K00000000000470680006911132015110144N000400000010U84       000120700K 10000000010000455361           
CUS0973010000109127658004         TIMONIUM METHODIST C262 CHANTREY RD                         000N        CARE OF             
MTR09730100001000000000000000RA              01105918    000201130000011300000610000003NN  NNW 000                       N    
RDG09730100WATRL000000005K00000000000004025007011132015111939N000000000000U84       010750500K 10000000010000003923           
CUS0973010000109367956001         CHAPEL HILL COMM ASS2228-A SPRING LAKE DR                   000N        CARE OF             
MTR09730100002000000000000000RA              7026391     000801140000011400000630000003NN  NNW 000                       N    
RDG09730100WATAL000000006K00000000000000004007111132015111949N000100000010U84       000100600K 10000000010000000004           
RDG09730100WATBL000000006K00000000000080378007211132015112003N000400000010U84       000140600K 10000000010000078426           
CUS0973010000109432682004         BOARD OF EDUCATION O2410 SPRING LAKE DR                     000N        CARE OF             
MTR09730100001000000000000000RA              8046896     000601150000011500000380000000NN  NNW 000   FIRE SERVICE        N    
RDG09730100WATRL000000006K00000000000000011007311132015112010N000000000000U84       000070600K 10000000010000000011           
CUS0973010000109432684000         BOARD OF EDUCATION O2410 SPRING LAKE DR                     000N        CARE OF             
MTR09730100001000000000000000RA              0908776     000301160000011600000640000000NN  NNW 000                       N    
RDG09730100WATRL000000005K00000000000004777007411132015112017N000000000000U84       000070500K 10000000010000004538           
CUS0973010000109127657006         BALTIMORE COUNTY    1 CARDIGAN RD                           000N        CARE OF             
MTR09730100002000000000000000RA              5498418     000601170000011700000540000003NN  NNW 000                       N    
RDG09730100WATAL000000006K00000000000068276007511132015112025N000000000000U84       000080600K 10000000010000060408           
RDG09730100WATBL000000006K00000000000024967007611132015112046N000400000010U84       000210600K 10000000010000022709           
CUS0973010000109425988004         BCPS/PHYS/FAC       255 PADONIA RD                          000N        CARE OF             
MTR09730100002000000000000000RA              70050173    000801180000011800000560000000NN  NNW 000                       N    
RDG09730100WATAL000000006K00000000000000432007711132015112101N000400000010U84       000150600K 10000000010000000430           
RDG09730100WATBL000000006K00000000000006956007811132015112110N000400000010U84       000090600K 10000000010000006763           
CUS0973010000109127654003         WHISPERING HILLS APAES GIRDWOOD RD                          000N        CARE OF             
MTR09730100002000000000000000RA              5877087     000801190000011900000540000003NN  NNW 000                       N    
RDG09730100WATAL000000006K00000000000000002007911132015112118N000100000010U84       000080600K 10000000010000000002           
RDG09730100WATBL000000006K00000000000216173008011132015112129N000400000010U84       000110600K 10000000010000211762           
CUS0973010000109127655000         REFLECTION KNOLL APAWS GIRDWOOD RD                          000N        CARE OF             
MTR09730100002000000000000000RA              5679533     000801200000012000000630000003NN  NNW 000                       N    
RDG09730100WATAL000000006K00000000000000008008111132015112136N000400000010U84       000070600K 10000000010000000007           
RDG09730100WATBL000000006K00000000000086888008211132015112149N000400000010U84       000130600K 10000000010000086278           
CUS0973010000109127653005         ASSOCIATED CATHOLIC ES GIRDWOOD RD 175 FT                   000N        CARE OF             
MTR09730100002000000000000000RA              4135366     000801210000012100000630000003NN  NNW 000                       N    
RDG09730100WATAL000000006K00000000000000001008311132015112156N000100000010U84       000070600K 10000000010000000001           
RDG09730100WATBL000000006K00000000000018687008411132015112206N000400000010U84       000100600K 10000000010000017502           
CUS0973010000109127659002         DEERFOX ASN, INC.   WS POT SPRING RD                        000N        CARE OF             
MTR09730100002000000000000000RA              5808267     000801220000012200000630000003NN  NNW 000                       N    
RDG09730100WATAL000000006K00000000000000000008511132015112212N000100000010U84       000060600K 10000000010000000000           
RDG09730100WATBL000000006K00000000000018439008611132015112225N000400000010U84       000130600K 10000000010000017391           
CUS0973010000109127660000         DULANEY SWIM CLUB IN234 E RIDGELY RD                        000N        CARE OF             
MTR09730100001000000000000000RA              1115139     000201230000012300000520000003NY  NNW 000                       N    
MTM097301001115139     ok                                                                                                     
RDG09730100WATRL000000005K00000000000002883008711132015112407N000300000010U84       001020500K 10000000010000009006           
CUS0973010000109127661008         YORK MANOR SWIM CLUB38 MARGATE RD                           000N        CARE OF             
MTR09730100001000000000000000RA              28152103    000201240000012400000520000003NY  NNW 000                       N    
MTM0973010028152103    ok                                                                                                     
RDG09730100WATRL000000005K00000000000009544008811132015112436N000300000010U84       000290500K 10000000010000001932           
CUS0973010000109430902008         BOARD OF EDUCATION  1115 CHARMUTH RD                        000N        CARE OF             
MTR09730100001000000000000000RA              8046632     000601250000012500000380000000NN  NNW 000   FIRE SERVICE        N    
RDG09730100WATRL000000006K00000000000000017008911132015112441N000000000000U84       000050600K 10000000010000000017           
CUS0973010000109430904004         BOARD OF EDUCATION  1115 CHARMUTH RD                        000N        CARE OF             
MTR09730100001000000000000000RA              0908610     000401260000012600000640000000NN  NNW 000                       N    
RDG09730100WATRL000000006K00000000000004093009011132015112447N000000000000U84       000060600K 10000000010000003947           
CUS0973010000109127663004         DULANEY TOWERS MAINTWS DULANEY VALLEY RD                    000N        CARE OF             
MTR09730100002000000000000000RA              5380913     000601270000012700000630000003NN  NNW 000                       N    
RDG09730100WATAL000000006K00000000000000004009111132015112514N000100000010U84       000270600K 10000000010000000004           
RDG09730100WATBL000000006K00000000000020967009211132015112523N000400000010U84       000090600K 10000000010000018429           
CUS0973010000109127664002         DULANEY VALLEY APARTNS SOUTHERLY RD 120 FT                  000N        CARE OF             
MTR09730100001000000000000000RA              16027923    000301280000012800000460000003NY  NNW 000                       N    
MTM0973010016027923    out                                                                                                    
RDG09730100WATRL000000005K00000000000000000000000000000000000 000000000000U         000000500  10000000010000035435           
CUS0973010000109127672005         DULANEY VALLEY APARTSS SOUTHERLY RD 180 FT                  000N        CARE OF             
MTR09730100001000000000000000RA              99999999    001501290000012900000610000003NN  NNW 000                       N    
RDG09730100WATRL000000005K00000000000000000000911162015121343S022000000000U93       000600500K 10000000010000000880           
CUS0973010000109127671007         DULANEY VALLEY APARTSS SOUTHERLY RD 280 FT                  000N        CARE OF             
MTR09730100001000000000000000RA              99999999    001501300000013000000610000003NN  NNW 000                       N    
RDG09730100WATRL000000005K00000000000000000001011162015121346S022000000000U93       000030500K 10000000010000003105           
CUS0973010000109127665009         DULANEY VALLEY APARTNS SOUTHERLY RD 550 FT                  000N        CARE OF             
MTR09730100001000000000000000RA              35101194    001501310000013100000520000003NN  NNW 000                       N    
RDG09730100WATRL000000005K00000000000000000001111162015121352S022000000000U93       000060500K 10000000010000018368           
CUS0973010000109127670009         DULANEY VALLEY APARTSS SOUTHERLY RD 780 FT                  000N        CARE OF             
MTR09730100001000000000000000RA              99999999    000201320000013200000620000003NN  NNW 000                       N    
RDG09730100WATRL000000005K00000000000000000001211162015121355S002000000000U93       000030500K 10000000010000007684           
CUS0973010000109127667005         DULANEY VALLEY APARTSS LOCUSTVALE RD 100 FT                 000N        CARE OF             
MTR09730100001000000000000000RA              36699657    000101330000013300000520000003NN  NNW 000                       N    
RDG09730100WATRL000000004K00000000000000000001311162015121402S022000000000U93       000070400K 10000000010000007877           
CUS0973010000109127668003         DULANEY VALLEY APART914 LOCUSTVALE RD                       000N        CARE OF             
MTR09730100001000000000000000RA              36700341    001501340000013400000520000003NN  NNW 000                       N    
RDG09730100WATRL000000005K00000000000000000001411162015121455S022000000000U93       000340500K 10000000010000017115           
CUS0973010000109127669001         DULANEY VALLEY APART921 LOCUSTVALE RD                       000N        CARE OF             
MTR09730100001000000000000000RA              35116736    001501350000013500000520000003NN  NNW 000                       N    
RDG09730100WATRL000000005K00000000000000000001511162015121502S022000000000U93       000070500K 10000000010000031530           
CUS0973010000109127666007         DULANEY TOWERS MAINTNS LOCUSTVALE RD 220 FT                 000N        CARE OF             
MTR09730100002000000000000000RA              2976897     000601360000013600000630000003NN  NNW 000                       N    
RDG09730100WATAL000000006K00000000000000002009311132015112818N000100000010U84       001750600K 10000000010000000002           
RDG09730100WATBL000000006K00000000000066797009411132015112829N000400000010U84       000110600K 10000000010000061933           
CUS0973010000109364622002         GOUCHER COLLEGE     1021 DULANEY VALLEY RD                  000N        CARE OF             
MTR09730100002000000000000000RA              7031728     001001370000013700000540000003NY  NNW 000                       N    
MTM097301007031728     ok                                                                                                     
RDG09730100WATAL000000007K00000000000000470009511132015113457N000300000010U84       003880700K 10000000010000000494           
RDG09730100WATBL000000007K00000000000552014009611132015113530N000400000010U84       000330700K 10000000010000545051           
CUS0973010000109392609005         DULANEY CENTER BUSIN901 DULANEY VALLEY RD                   000N        CARE OF             
MTR09730100002000000000000000RA              7195880     000801380000013800000630000003NY  NNW 000                       N    
MTM097301007195880     new mtr ok                                                                                             
RDG09730100WATAL000000006K00000000000000085009711132015113539N000400000010U84       000090600K 10000000010000000076           
RDG09730100WATBL000000006K00000000000002693009811132015113625N000300000010U84       000460600K 10000000010000014001           
CUS0973010000109413190001         S B N PARTNERS LIMIT903 DULANEY VALLEY RD                   000N        CARE OF             
MTR09730100002000000000000000RA              9310101     000801390000013900000630000003NN  NNW 000                       N    
RDG09730100WATAL000000006K00000000000000249009911132015113636N000100000010U84       000110600K 10000000010000000249           
RDG09730100WATBL000000006K00000000000087610010011132015113647N000400000010U84       000110600K 10000000010000082677           
CUS0973010000109413194003         DULANEY CENTER BUSIN855 SOUTHERLY RD                        000N        CARE OF             
MTR09730100001000000000000000RA              43905379    007501400000014000000520000003NY  NNW 000                       N    
MTM0973010043905379    ok                                                                                                     
RDG09730100WATRL000000004K00000000000000190010111132015113657N000300000010U84       000100400K 10000000010000000196           
CUS0973010000109413192007         DULANEY CENTER BUSIN855 SOUTHERLY RD                        000N        CARE OF             
MTR09730100001000000000000000RA              8032766     000601410000014100000380000000NN  NNW 000   FIRE SERVICE        N    
RDG09730100WATRL000000006K00000000000000516010211132015113706N000100000010U84       000090600K 10000000010000000516           
CUS0973010000109456040006         DULANEY VENTURE, LLC913 SOUTHERLY RD                        000N        CARE OF             
MTR09730100001000000000000000RA              99999999    000801420000014200000440000000NY  NNW 000                       N    
MTM0973010099999999    const                                                                                                  
RDG09730100WATRL000000006K00000000000000000001611162015121415S022000000000U93       000030600K 10000000010000002189           
CUS0973010000109456043000         DULANEY VENTURE, LLC913 SOUTHERLY RD                        000N        CARE OF             
MTR09730100001000000000000000RA              99999999    001001430000014300000440000000NY  NNW 000                       N    
MTM0973010099999999    const                                                                                                  
RDG09730100WATRL000000007K00000000000000000001711162015121421S022000000000U93       000060700K 10000000010000000000           
CUS0973010000109456044008         DULANEY VENTURES, LL913 SOUTHERLY RD                        000N        CARE OF             
MTR09730100001000000000000000RA              99999999    000601440000014400000440000000NY  NNW 000                       N    
MTM0973010099999999    const                                                                                                  
RDG09730100WATRL000000006K00000000000000000000000000000000000 000000000000U         000000600  10000000010000000000           
CUS0973010000109441911006         SPUS6 RENAISSANCE   915 SOUTHERLY RD                        000N        CARE OF             
MTR09730100002000000000000000RA              0717893     000801450000014500000390000000NN  NNW 000                       N    
RDG09730100WATAL000000006K00000000000000037001811162015121604N000400000010U93       000620600K 10000000010000000032           
RDG09730100WATBL000000000K00000000000039056001911162015121621N000400000010U93       000171000K 10000000010000036400           
CUS0973010000109441902005         SPUS6 JAZZ LP       1001 SOUTHERLY RD                       000N        CARE OF             
MTR09730100001000000000000000RA              8051031     000801460000014600000410000003NN  NNW 000   FIRE SERVICE        N    
RDG09730100WATRL000000006K00000000000000008002011162015121629N000000000010U93       000080600K 10000000010000000007           
CUS0973010000109441901007         SPUS6 JAZZ LP       1001 SOUTHERLY RD                       000N        CARE OF             
MTR09730100001000000000000000RA              01026356    000601470000014700000460000003NY  NNW 000                       N    
MTM0973010001026356    conden                                                                                                 
RDG09730100WATRL000000006K00000000000000000000000000000000000 000000000000U         000000600  10000000010000017676           
CUS0973010000109441907004         SPUS6, JAZZ LP      1461 SOUTHERLY RD                       000N        CARE OF             
MTR09730100001000000000000000RA              01025949    000601480000014800000460000000NY  NNW 000                       N    
MTM0973010001025949    conden                                                                                                 
RDG09730100WATRL000000006K00000000000000000000000000000000000 000000000000U         000000600  10000000010000019498           
CUS0973010000109441908002         SPUS6, JAZZ LP      1461 SOUTHERLY RD                       000N        CARE OF             
MTR09730100001000000000000000RA              8050105     000801490000014900000630000003NN  NNW 000   FIRE SERVICE        N    
RDG09730100WATRL000000006K00000000000000027002111162015121733N000000000030U93       000640600K 10000000010000000026           
CUS0973010000109381099002         DULANEY CENTER BUSIN849 FAIRMOUNT AVE                       000N        CARE OF             
MTR09730100001000000000000000RA              32905205    000201500000015000000520000003NN  NNW 000                       N    
RDG09730100WATRL000000005K00000000000040839002211162015121739N000000000000U93       000060500K 10000000010000040667           
CUS0973010000109381098004         DULANEY CENTER BUSIN849 FAIRMOUNT AVE                       000N        CARE OF             
MTR09730100001000000000000000RA              6010523     000801510000015100000410000003NN  NNW 000   FIRE SERVICE        N    
RDG09730100WATRL000000006K00000000000000969002311162015121746N000100000010U93       000070600K 10000000010000000969           
CUS0973010000109381101006         GENERAL GERMAN AGED 800 SOUTHERLY RD                        000N        CARE OF             
MTR09730100002000000000000000RA              7098142     000801520000015200000540000003NN  NNW 000                       N    
RDG09730100WATAL000000006K00000000000000004002411162015121751N000100000010U93       000050600K 10000000010000000004           
RDG09730100WATBL000000006K00000000000084628002511162015121802N000400000010U93       000110600K 10000000010000079562           
CUS0973010000109437909006         GENERAL GERMAN AGED 800 SOUTHERLY RD                        000N        CARE OF             
MTR09730100002000000000000000RA              0603282     000801530000015300000630000000NN  NNW 000                       N    
RDG09730100WATAL000000006K00000000000000215002611162015121816N000400000010U93       000140600K 10000000010000000200           
RDG09730100WATBL000000006K00000000000034420002711162015121826N000400000010U93       000100600K 10000000010000033085           
CUS0973010000109381100008         TOWSONGATE CONDOMINI1 SOUTHERLY CT                          000N        CARE OF             
MTR09730100002000000000000000RA              7068915     001001540000015400000480000003NN  NNW 000                       N    
RDG09730100WATAL000000007K00000000000000002002811162015121833N000100000010U93       000070700K 10000000010000000002           
RDG09730100WATBL000000007K00000000000026076002911162015121852N000400000010U93       000190700K 10000000010000025905           
CUS0973010000109433758001         STATE OF MD-TOWSON S7800 YORK RD                            000N        CARE OF             
MTR09730100001000000000000000RA              8047239     000601550000015500000380000000NN  NNW 000   FIRE SERVICE        N    
RDG09730100WATRL000000006K00000000000000012003011162015121901N000100000010U93       000090600K 10000000010000000012           
CUS0973010000109433760007         STATE OF MD-TOWSON S7800 YORK RD                            000N        CARE OF             
MTR09730100001000000000000000RA              0904462     000401560000015600000460000000NN  NNW 000                       N    
RDG09730100WATRL000000006K00000000000008497003111162015121913N000000000000U93       000120600K 10000000010000007857           
CUS0973010000109374181007         TOWSON STATE UNIV   8000 YORK RD                            000N        CARE OF             
MTR09730100002000000000000000RA              7069046     001001570000015700000540000003NN  NNW 000                       N    
RDG09730100WATAL000000007K00000000000000008003211162015121920N000100000010U93       000070700K 10000000010000000008           
RDG09730100WATBL000000007K00000000000094949003311162015121930N000400000010U93       000100700K 10000000010000086474           
CUS0973010000109443175006         TOWSON STATE UNIV   8000 YORK RD                            000N        CARE OF             
MTR09730100002000000000000000RA              0717885     000801580000015800000390000000NY  NNW 000                       N    
MTM097301000717885     cl                                                                                                     
RDG09730100WATAL000000006K00000000000000000000000000000000000 000000000000U         000000600  10000000010000000492           
RDG09730100WATBL000000006K00000000000000000000000000000000000 000000000000U         000000600  10000000010000087419           
CUS0973010000109443177002         TOWSON STATE UNIV   8000 YORK RD                            000N        CARE OF             
MTR09730100001000000000000000RA              0713153     001201590000015900000390000000NY  NNW 000                       N    
MTM097301000713153     2 dial meter 000002              140879                                                                
RDG09730100WATRL000000007K00000000000140879003411162015122044N000000000000U93       000740700K 10000000010000136416           
CUS0973010000109127700004         PRG-TOWSON PLACE PROSWC TOWSON COLLEGE DR &                 000N        CARE OF             
MTR09730100002000000000000000RA              3651795     000801600000016000000540000003NN  NNW 000                       N    
RDG09730100WATAL000000006K00000000000000000003511162015122050N000100000010U93       000060600K 10000000010000000000           
RDG09730100WATBL000000006K00000000000063621003611162015122059N000400000010U93       000090600K 10000000010000059464           
CUS0973010000109428523006         STATE OF MARYLAND   300 TOWSONTOWN BLVD E                   000N        CARE OF             
MTR09730100001000000000000000RA              32772072    000201610000016100000520000003NN  NNW 000                       N    
RDG09730100WATRL000000005K00000000000002725003711162015122315N000000000000U93       001360500K 10000000010000002701           
CUS0973010000109386241005         PROFESSIONAL CENTER 7710 YORK RD                            000N        CARE OF             
MTR09730100002000000000000000RA              7122042     000801620000016200000630000003NN  NNW 000                       N    
RDG09730100WATAL000000006K00000000000000048003811162015122322N000100000010U93       000070600K 10000000010000000048           
RDG09730100WATBL000000006K00000000000021758003911162015122341N000400000010U93       000190600K 10000000010000021477           
CUS0973010000109127701002         TOWSON STATE UNIVERS7720 YORK RD                            000N        CARE OF             
MTR09730100002000000000000000RA              3576382     000601630000016300000540000003NN  NNW 000                       N    
RDG09730100WATAL000000006K00000000000000002004011162015122430N000400000031U93       000260600K 10000000010000000000           
RDG09730100WATBL000000006K00000000000045790004111162015122440N000000000000U93       000100600K 10000000010000007735           
CUS0973010000109127702000         MULTI-MEDICAL CENTER7700 YORK RD                            000N        CARE OF             
MTR09730100003000000000000000RA              5388342     000601640000016400000480000003NN  NNW 000   FIRE SERVICE        N    
RDG09730100WATAL000000006K00000000000000001004211162015122445N000000000000U93       000050600K 10000000010000000001           
RDG09730100WATBL000000006K00000000000000000004311162015122449N000100000010U93       000040600K 10000000010000000000           
RDG09730100WATCL000000006K00000000000000000004411162015122453N000100000010U93       000040600K 10000000010000000000           
CUS0973010000109127703008         GENESIS HEALTHCARE  7700 YORK RD                            000N        CARE OF             
MTR09730100001000000000000000RA              1450832     000301650000016500000490000003NN  NNW 000                       N    
RDG09730100WATRL000000005K00000000000045215004511162015122459N000000000000U93       000060500K 10000000010000043575           
CUS0973010000109127704006         7604 LLC            7604 YORK RD                            000N        CARE OF             
MTR09730100001000000000000000RA              99170802    001501660000016600000570000003NN  NNW 000                       N    
RDG09730100WATRL000000005K00000000000000213004611162015122507N000000000000U93       000080500K 10000000010000000210           
CUS0973010000109127706001         TOWSON UNIVERSITY   7400 YORK RD                            000N        CARE OF             
MTR09730100001000000000000000RA              99999999    000201670000016700000620000003NN  NNW 000   FERRULE APPLIED     N    
RDG09730100WATRL000000005K00000000000000000004711162015122511S002000000000U93       000040500K 10000000010000004485           
CUS0973010000109446091002         CHRISTIAN FELLOWSHIP6910 YORK RD                            000N        CARE OF             
MTR09730100001000000000000000RA              00166891    000101680000016800000570000000NN  NNW 000                       N    
RDG09730100WATRL000000004K00000000000000162004811162015122516N000000000000U93       000050400K 10000000010000000156           
CUS0973010000109446092000         CHRISTIAN FELLOWSHIP6910 YORK RD                            000N        CARE OF             
MTR09730100001000000000000000RA              09053902    000401690000016900000380000000NN  NNW 000   FIRE SERVICE        N    
RDG09730100WATRL000000006K00000000000000000004911162015122519N000000000000U93       000030600K 10000000010000000000           
CUS0973010000109432356005         ANNESLIE CENTER LLC 6401 YORK RD                            000N        CARE OF             
MTR09730100002000000000000000RA              0200988     000801700000017000000630000000NN  NNW 000                       N    
RDG09730100WATAL000000006K00000000000000001005011162015122524N000100000010U93       000050600K 10000000010000000001           
RDG09730100WATBL000000006K00000000000019333005111162015122530N000400000010U93       000060600K 10000000010000018403           
CUS0973010000109438211006         WALGREENS #7573     6301 YORK RD                            000N        CARE OF             
MTR09730100001000000000000000RA              01117200    000201710000017100000610000000NY  NNW 000                       N    
MTM0973010001117200    read ok                                                                                                
RDG09730100WATRL000000005K00000000000001475005211162015122536N000000000010U93       000060500K 10000000010000001483           
CUS0973010000109438212004         WALGREEN'S #7573    6301 YORK RD                            000N        CARE OF             
MTR09730100001000000000000000RA              6049408     000601720000017200000380000000NN  NNW 000   FIRE SERVICE        N    
RDG09730100WATRL000000006K00000000000000001005311162015122553N000000000001U93       000170600K 10000000010000000001           
CUS0973010000109438246002         THE CECELIA SCHWABER6300 YORK RD                            000N        CARE OF             
MTR09730100001000000000000000RA              8049405     000601730000017300000380000000NN  NNW 000   FIRE SERVICE        N    
RDG09730100WATRL000000006K00000000000000005005411162015122608N000000000000U93       000150600K 10000000010000000005           
CUS0973010000109438248008         THE CECELIA SCHWABER6300 YORK RD                            000N        CARE OF             
MTR09730100001000000000000000RA              01105063    001501740000017400000610000000NN  NNW 000                       N    
RDG09730100WATRL000000005K00000000000030986005511162015122631N000000000000U93       000230500K 10000000010000030367           
CUS0973010000109438249006         YORK RD SHOPPING CNT6300 YORK RD                            000N        CARE OF             
MTR09730100001000000000000000RA              00164179    000101750000017500000570000000NN  NNW 000                       N    
RDG09730100WATRL000000004K00000000000002627005611162015122638N000400000010U93       000070400K 10000000010000002607           
CUS0973010000109445260004         DENRICH MEDICAL, LLC5820 YORK RD                            000N        CARE OF             
MTR09730100001000000000000000RA              8053288     000401760000017600000410000003NN  NNW 000   FIRE SERVICE        N    
RDG09730100WATRL000000006K00000000000000000010311132015113814N000000000000U84       000680600K 10000000010000000000           
CUS0973010000109455877002         MCDONALDS REAL ESTAT5100 YORK RD                            000N        CARE OF             
MTR09730100001000000000000000RA              1200246     000601770000017700000410000003NN  NNW 000   FIRE SERVICE        N    
RDG09730100WATRL000000006K00000000000000002010411132015113817N000000000000U84       000030600K 10000000010000000002           
CUS0973010000109455879008         MCDONALDS REAL ESTAT5100 YORK RD                            000N        CARE OF             
MTR09730100001000000000000000RA              70000407    001501780000017800000570000000NN  NNW 000                       N    
RDG09730100WATRL000000005K00000000000001039010511132015113821N000000000000U84       000040500K 10000000010000000886           
CUS0973010000104127960005         TRINITY HOUSE APARTM409 VIRGINIA AVE                        000N        CARE OF             
MTR09730100001000000000000000RA              99999999    005801790000017900000620000003NN  NNW 000                       N    
RDG09730100WATRL000000004K00000000000000000005711162015122747S022000000022U93       000190400K 10000000010000004768           
CUS0973010000104127961003         TRINITY HOUSE APARTM411 VIRGINIA AVE                        000N        CARE OF             
MTR09730100001000000000000000RA              99999999    005801800000018000000620000003NN  NNW 000                       N    
RDG09730100WATRL000000004K00000000000000000005811162015122750S022000000000U93       000030400K 10000000010000003363           
RTR09730100NN02250225000002250000000001800180000080NY018001800225000900120000000000000000000001    11042015NY020000 N         
RHD09810100NN01060106000001060000000000960096000014NY009600960106000700060000000000000000000001    11042015NY020000 N         
CUS0981010000109064246003         STEVENSON LANE APART300-40 STEVENSON LN                     000N        CARE OF             
MTR09810100001000000000000000RA              9800060     000300010000000100000640000003NN  NNW 000                       N    
RDG09810100WATRL000000005K00000000000068337000111162015123157N000000000000N93       000000500K 10000000010000066488           
CUS0981010000109431949008         BOARD OF EDUCATION  250 DUMBARTON RD                        000N        CARE OF             
MTR09810100001000000000000000RA              8046040     000600020000000200000380000003NN  NNW 000   FIRE SERVICE        N    
RDG09810100WATRL000000006K00000000000000009000211162015123201N000000000000N93       000040600K 10000000010000000009           
CUS0981010000109431951004         BOARD OF EDUCATION  250 DUMBARTON RD                        000N        CARE OF             
MTR09810100002000000000000000RA              20000037    000300030000000300000460000003NN  NNW 000                       N    
RDG09810100WATAL000000005K00000000000002317000311162015123209N000400000010N93       000080500K 10000000010000002179           
RDG09810100WATBL000000005K00000000000004531000411162015123218N000400000010N93       000090500K 10000000010000004292           
CUS0981010000109064247001         BALTO CO PUBLIC SCHO220 DUMBARTON RD                        000N        CARE OF             
MTR09810100001000000000000000RA              99999999    000300040000000400000620000003NN  NNW 000                       N    
RDG09810100WATRL000000005K00000000000000000000111172015120830S022000000000U93       000000500K 10000000010000004425           
CUS0981010000109064248009         BALTO CO PUBLIC SCHO300 DUMBARTON RD                        000N        CARE OF             
MTR09810100001000000000000000RA              1414658     000400050000000500000490000003NY  NNW 000                       N    
MTM098101001414658     cl                                                                                                     
RDG09810100WATRL000000006K00000000000000000000000000000000000 000000000000U         000000600  10000000010000113919           
CUS0981010000109409070001         GENE ANDERSON       300 DUMBARTON RD                        000N        CARE OF             
MTR09810100001000000000000000RA              000014      000400060000000600000380000003NN  NNW 000   FIRE SERVICE        N    
RDG09810100WATRL000000006K00000000000000000000511162015123226N000000000000N93       000080600K 10000000010000000000           
CUS0981010000109409072007         GENE ANDERSON       300 DUMBARTON RD                        000N        CARE OF             
MTR09810100001000000000000000RA              99409762    000100070000000700000570000003NN  NNW 000                       N    
RDG09810100WATRL000000004K00000000000000000000611162015123227N000000000000N93       000010400K 10000000010000000000           
CUS0981010000109436786009         BOARD OF EDUCATION  300 DUMBARTON RD                        000N        CARE OF             
MTR09810100002000000000000000RA              0310069     000800080000000800000630000003NN  NNW 000                       N    
RDG09810100WATAL000000006K00000000000000014000711162015123233N000100000010N93       000060600K 10000000010000000014           
RDG09810100WATBL000000006K00000000000017626000811162015123241N000400000010N93       000080600K 10000000010000015703           
CUS0981010000109064249007         RODGERS FORGE APARTMSS DUMBARTON RD                         000N        CARE OF             
MTR09810100001000000000000000RA              31664135    001500090000000900000520000003NN  NNW 000                       N    
RDG09810100WATRL000000005K00000000000027117000911162015123248N000000000000N93       000070500K 10000000010000027055           
CUS0981010000109064250005         RODGERS FORGE APARTM113-19 DUMBARTON RD                     000N        CARE OF             
MTR09810100001000000000000000RA              35105000    001500100000001000000520000003NN  NNW 000                       N    
RDG09810100WATRL000000005K00000000000022580001011162015123253N000000000000N93       000050500K 10000000010000022536           
CUS0981010000109064251003         RODGERS FORGE APARTM114-20 DUMBARTON RD                     000N        CARE OF             
MTR09810100001000000000000000RA              35105005    001500110000001100000520000003NN  NNW 000                       N    
RDG09810100WATRL000000005K00000000000035238001111162015123257N000000000000N93       000040500K 10000000010000035169           
CUS0981010000109064252001         RODGERS FORGE APARTM105-11 DUMBARTON RD                     000N        CARE OF             
MTR09810100001000000000000000RA              35105071    001500120000001200000520000003NN  NNW 000                       N    
RDG09810100WATRL000000005K00000000000022727001211162015123303N000000000000N93       000060500K 10000000010000022683           
CUS0981010000109064253009         RODGERS FORGE APARTM102-06 DUMBARTON RD                     000N        CARE OF             
MTR09810100001000000000000000RA              35105019    001500130000001300000520000003NN  NNW 000                       N    
RDG09810100WATRL000000005K00000000000023401001311162015123307N000000000000N93       000040500K 10000000010000023328           
CUS0981010000109064254007         RODGERS FORGE APARTM101 DUMBARTON RD                        000N        CARE OF             
MTR09810100001000000000000000RA              35105082    001500140000001400000520000003NN  NNW 000                       N    
RDG09810100WATRL000000005K00000000000026697001411162015123312N000000000000N93       000050500K 10000000010000026609           
CUS0981010000109421087009         WOODBROOK BAPTIST CH25 STEVENSON LN                         000N        CARE OF             
MTR09810100001000000000000000RA              8037203     000400150000001500000380000003NN  NNW 000   FIRE SERVICE        N    
RDG09810100WATRL000000006K00000000000000010001511162015123316N000000000000N93       000040600K 10000000010000000010           
CUS0981010000109421089005         WOODBROOK BAPTIST CH25 STEVENSON LN                         000N        CARE OF             
MTR09810100001000000000000000RA              42847005    001500160000001600000520000003NN  NNW 000                       N    
RDG09810100WATRL000000005K00000000000007428001611162015123320N000000000000N93       000040500K 10000000010000007398           
CUS0981010000109064255004         6811 BELLONA AVENUE 230-36 RODGERS FORGE RD                 000N        CARE OF             
MTR09810100001000000000000000RA              00066943    001500170000001700000570000003NN  NNW 000                       N    
RDG09810100WATRL000000005K00000000000016760001711162015123324N000000000000N93       000040500K 10000000010000016424           
CUS0981010000109064256002         6811 BELLONA AVENUE 220-24 RODGERS FORGE RD                 000N        CARE OF             
MTR09810100001000000000000000RA              99170778    001500180000001800000570000003NN  NNW 000                       N    
RDG09810100WATRL000000005K00000000000000000000211172015120847S005000000000U93       000170500K 10000000010000008376           
CUS0981010000109064257000         RODGERS FORGE APARTM206-08 RODGERS FORGE RD                 000N        CARE OF             
MTR09810100001000000000000000RA              31664164    001500190000001900000520000003NY  NNW 000                       N    
MTM0981010031664164    cond                                                                                                   
RDG09810100WATRL000000005K00000000000000000000000000000000000 000000000000U         000000500  10000000010000019031           
CUS0981010000109064258008         RODGERS FORGE APARTM200 RODGERS FORGE RD                    000N        CARE OF             
MTR09810100001000000000000000RA              14921063    001500200000002000000310000003NN  NNW 000                       N    
RDG09810100WATRL000000005K00000000000006139001811162015123341N000000000000N93       000170500K 10000000010000005877           
CUS0981010000109403761001         CLOISTERS @CHARLES C6400 CLOISTER GATE DR                   000N        CARE OF             
MTR09810100002000000000000000RA              8023170     000800210000002100000630000003NN  NNW 000                       N    
RDG09810100WATAL000000006K00000000000000026001911162015123348N000100000010N93       000070600K 10000000010000000026           
RDG09810100WATBL000000006K00000000000053674002011162015123356N000400000010N93       000080600K 10000000010000051590           
CUS0981010000109064261002         CHARLESBROOK HOMEOWNWS BELLONA AV 150 FT                    000N        CARE OF             
MTR09810100002000000000000000RA              5603828     000800220000002200000540000003NY  NNW 000                       N    
MTM098101005603828     cs                                                                                                     
RDG09810100WATAL000000006K00000000000000000000000000000000000 000000000000U         000000600  10000000010000000501           
RDG09810100WATBL000000006K00000000000000000000000000000000000 000000000000U         000000600  10000000010000152061           
CUS0981010000109064262000         VILLA JOINT RETIREME6806 BELLONA AVE                        000N        CARE OF             
MTR09810100002000000000000000RA              5275670     000800230000002300000540000003NY  NNW 000                       N    
MTM098101005275670     read ok                                                                                                
RDG09810100WATAL000000006K00000000000000002002111162015123414N000100000010N93       000180600K 10000000010000000002           
RDG09810100WATBL000000006K00000000000012280002211162015123423N000300000010N93       000090600K 10000000010000024711           
CUS0981010000109064264006         RODGERS FORGE APARTM201 RODGERS FORGE RD                    000N        CARE OF             
MTR09810100001000000000000000RA              01105288    001500240000002400000610000003NN  NNW 000                       N    
RDG09810100WATRL000000005K00000000000005778002311162015123448N000000000000N93       000250500K 10000000010000005660           
CUS0981010000109064265003         RODGERS FORGE APARTM219 RODGERS FORGE RD                    000N        CARE OF             
MTR09810100001000000000000000RA              00164143    000100250000002500000570000003NN  NNW 000                       N    
RDG09810100WATRL000000004K00000000000003767002411162015123453N000000000000N93       000050400K 10000000010000003649           
CUS0981010000109064266001         RODGERS FORGE APARTM217 RODGERS FORGE RD                    000N        CARE OF             
MTR09810100001000000000000000RA              35105044    001500260000002600000520000003NN  NNW 000                       N    
RDG09810100WATRL000000005K00000000000018179002511162015123501N000000000000N93       000080500K 10000000010000018114           
CUS0981010000109064267009         RODGERS FORGE APARTMSS RODGERS FORGE RD                     000N        CARE OF             
MTR09810100001000000000000000RA              31664137    001500270000002700000520000003NN  NNW 000                       N    
RDG09810100WATRL000000005K00000000000008137002611162015123507N000000000000N93       000060500K 10000000010000007835           
CUS0981010000109064268007         RODGERS FORGE APARTMSS RODGERS FORGE RD                     000N        CARE OF             
MTR09810100001000000000000000RA              31664136    001500280000002800000520000003NN  NNW 000                       N    
RDG09810100WATRL000000005K00000000000031100002711162015123512N000000000000N93       000050500K 10000000010000030902           
CUS0981010000109064269005         6811 BELLONA AVENUE 245 RODGERS FORGE RD                    000N        CARE OF             
MTR09810100001000000000000000RA              36699965    000100290000002900000520000003NN  NNW 000                       N    
RDG09810100WATRL000000004K00000000000005519002811162015123516N000000000000N93       000040400K 10000000010000005407           
CUS0981010000109064270003         RODGERS FORGE APARTMSS RODGERS FORGE RD                     000N        CARE OF             
MTR09810100001000000000000000RA              35105008    001500300000003000000520000003NN  NNW 000                       N    
RDG09810100WATRL000000005K00000000000032158002911162015123809N000000000000N93       001730500K 10000000010000032023           
CUS0981010000109064271001         RODGERS FORGE APARTM6808 BLENHEIM RD                        000N        CARE OF             
MTR09810100001000000000000000RA              35105001    001500310000003100000520000003NN  NNW 000                       N    
RDG09810100WATRL000000005K00000000000015923003011162015123813N000000000000N93       000040500K 10000000010000015888           
CUS0981010000109064272009         RODGERS FORGE APARTM6807 BLENHEIM RD                        000N        CARE OF             
MTR09810100001000000000000000RA              29074513    000100320000003200000520000003NN  NNW 000                       N    
RDG09810100WATRL000000004K00000000000005969003111162015123819N000000000000N93       000060400K 10000000010000005916           
CUS0981010000109064273007         RODGERS FORGE APARTMES BLENHEIM RD 260 FT                   000N        CARE OF             
MTR09810100001000000000000000RA              35105041    001500330000003300000520000003NN  NNW 000                       N    
RDG09810100WATRL000000005K00000000000030035003211162015123830N000400000010N93       000110500K 10000000010000030007           
CUS0981010000109064274005         6811 BELLONA AVENUE ES BLENHEIM RD 80 FT                    000N        CARE OF             
MTR09810100001000000000000000RA              35105067    001500340000003400000520000003NN  NNW 000                       N    
RDG09810100WATRL000000005K00000000000022622003311162015123846N000400000011N93       000160500K 10000000010000022561           
CUS0981010000109064275002         RODGERS FORGE APARTM250 RODGERS FORGE RD                    000N        CARE OF             
MTR09810100001000000000000000RA              35105042    001500350000003500000520000003NN  NNW 000                       N    
RDG09810100WATRL000000005K00000000000022455003411162015123849N000000000000N93       000030500K 10000000010000022404           
CUS0981010000109064276000         RODGERS FORGE APARTM261 RODGERS FORGE RD                    000N        CARE OF             
MTR09810100001000000000000000RA              35105007    001500360000003600000520000003NN  NNW 000                       N    
RDG09810100WATRL000000005K00000000000050503003511162015123854N000000000000N93       000050500K 10000000010000050339           
CUS0981010000109064277008         RODGER FORGE APARTME258 RODGERS FORGE RD                    000N        CARE OF             
MTR09810100001000000000000000RA              35105009    001500370000003700000520000003NN  NNW 000                       N    
RDG09810100WATRL000000005K00000000000023466003611162015123859N000000000000N93       000050500K 10000000010000023430           
CUS0981010000109399453001         MIDSTATE FEDERAL SAV6800 YORK RD                            000N        CARE OF             
MTR09810100001000000000000000RA              7197011     000400380000003800000340000003NN  NNW 000   FIRE SERVICE        N    
RDG09810100WATRL000000006K00000000000000000003711162015123901N000000000000N93       000020600K 10000000010000000000           
CUS0981010000109399455006         MIDSTATE FEDERAL SAV6800 YORK RD                            000N        CARE OF             
MTR09810100001000000000000000RA              26100891    001500390000003900000520000003NN  NNW 000                       N    
RDG09810100WATRL000000005K00000000000002987003811162015123908N000000000000N93       000070500K 10000000010000002967           
CUS0981010000109064278006         BANK OF AMERICA     6700 YORK RD                            000N        CARE OF             
MTR09810100001000000000000000RA              01105602    000200400000004000000610000003NN  NNW 000                       N    
RDG09810100WATRL000000005K00000000000000847000311172015120937N000300000010U93       000500500K 10000000010000000832           
CUS0981010000109064279004         KEOUGH, MOST REVEREN6428 YORK RD                            000N        CARE OF             
MTR09810100001000000000000000RA              01116727    000200410000004100000610000003NN  NNW 000                       N    
RDG09810100WATRL000000005K00000000000004579000411172015120955N000000000000U93       000180500K 10000000010000004425           
CUS0981010000109064280002         KEOUGH, MOST REVEREN6428-30 YORK RD                         000N        CARE OF             
MTR09810100001000000000000000RA              35109437    000200420000004200000520000003NN  NNW 000                       N    
RDG09810100WATRL000000005K00000000000002561000511172015120959N000000000000U93       000040500K 10000000010000002532           
CUS0981010000109412940000         WMAR-TV             6400 YORK RD                            000N        CARE OF             
MTR09810100001000000000000000RA              70000394    001500430000004300000570000003NN  NNW 000                       N    
RDG09810100WATRL000000005K00000000000008614000611172015121004N000400000010U93       000050500K 10000000010000008188           
CUS0981010000109412938004         SCRIPPS HOWARD      6400 YORK RD                            000N        CARE OF             
MTR09810100001000000000000000RA              8032793     000600440000004400000380000003NN  NNW 000   FIRE SERVICE        N    
RDG09810100WATRL000000006K00000000000000029000711172015121008N000000000010U93       000040600K 10000000010000000028           
CUS0981010000109064282008         KIMCO REALTY CORPORA6352-78 YORK RD                         000N        CARE OF             
MTR09810100001000000000000000RA              60795959    000300450000004500000470000003NN  NNW 000                       N    
RDG09810100WATRL000000005K00000000000000000000811172015121010N000000000000U93       000020500K 10000000010000000000           
CUS0981010000109064283006         GIANT FOOD INC      6340-50 YORK RD                         000N        CARE OF             
MTR09810100001000000000000000RA              4633844     000600460000004600000410000003NN  NNW 000   FIRE SERVICE        N    
RDG09810100WATRL000000006K00000000000001670000911172015121014N000000000000U93       000040600K 10000000010000001670           
CUS0981010000109064284004         AHOLD FINANCIAL SERV6340-50 YORK RD                         000N        CARE OF             
MTR09810100001000000000000000RA              01116925    000200470000004700000610000003NN  NNW 000                       N    
RDG09810100WATRL000000005K00000000000013214001011172015121017N000000000000U93       000030500K 10000000010000012862           
CUS0981010000109418360005         KIMCO REALTY CORPORA6344-80 YORK RD                         000N        CARE OF             
MTR09810100002000000000000000RA              7163112     000600480000004800000630000000NN  NNW 000                       N    
RDG09810100WATAL000000006K00000000000000007001111172015121020N000000000000U93       000030600K 10000000010000000007           
RDG09810100WATBL000000006K00000000000000000001211172015121031S001000000000U93       000110600K 10000000010000000000           
CUS0981010000109445264006         DENRICH MEDICAL, LLC5820 YORK RD                            000N        CARE OF             
MTR09810100001000000000000000RA              14914886    001500490000004900000310000003NN  NNW 000                       N    
RDG09810100WATRL000000005K00000000000013072001311172015121036N000000000000U93       000050500K 10000000010000012375           
CUS0981010000109064285001         ROBERT & ALAN MORROW610-16 WALKER AVE                       000N        CARE OF             
MTR09810100001000000000000000RA              01105372    001500500000005000000610000003NN  NNW 000                       N    
RDG09810100WATRL000000005K00000000000032463001411172015121039N000000000000U93       000030500K 10000000010000031766           
CUS0981010000109064286009         ROBERT & ALAN MORROW606-08 WALKER AVE                       000N        CARE OF             
MTR09810100001000000000000000RA              30509385    001500510000005100000520000003NN  NNW 000                       N    
RDG09810100WATRL000000005K00000000000046942001511172015121049N000000000010U93       000100500K 10000000010000046541           
CUS0981010000109064287007         ROBERT & ALAN MORROW6303-07 HOLLY LN                        000N        CARE OF             
MTR09810100001000000000000000RA              28590827    001500520000005200000520000003NN  NNW 000                       N    
