FHDNNNN015002700002700002700N                                                                                           009524
RHD02171000NN00360201000000360000016502010201000121NY020102010201001600030000000000000000000001    11042015NY020000 N         
CUS0217100000102320052000         UNIVERSITY OF BALTIM5425 S BEND RD                          000N        CARE OF             
MTR02171000001000000000000000RA              77894559    007500010000000100000360000003NN  NNW 000                       N    
RDG02171000WATR 000000004R00000000000000000000011112015180000N000100000060N         000000400R 10000000010000000000           
RFF0217100069128487      ERT      0000  956.44375000140000111120151800000000000020100W 1220000N                               
CUS0217100000102320054006         WILKINS, ERICK GARDN2025 W ROGERS AVE                       000N        CARE OF             
MTR02171000001000000000000000RA              45383277    005800020000000200000520000003NY  NNW 000                       N    
MTM0217100045383277    78856288 RD 0006                                                                                       
RDG02171000WATRL000000004K00000000000000000000000000000000000 000000000000U         000000400  10000000010000002093           
CUS0217100000102320055003         JOSEPH E TOOMEY     2023 W ROGERS AVE                       000N        CARE OF             
MTR02171000001000000000000000RA              41589205    005800030000000300000520000003NY  NNW 000                       N    
MTM0217100041589205    78858075 RD 0055                                                                                       
RDG02171000WATRL000000004K00000000000000000000000000000000000 000000000000U         000000400  10000000010000001290           
CUS0217100000102320056001         HOWARD, JAMES G (LIF2021 W ROGERS AVE                       000N        CARE OF             
MTR02171000001000000000000000RA              78856209    005800040000000400000360000003NN  NNW 000                       N    
RDG02171000WATR 000000004R00000000000000008000011112015180000N000000000000N         000000400R 10000000010000000005           
RFF0217100069029074      ERT      0000  956.44375000140000111120151800000000087259100W 1220000N                               
CUS0217100000102320057009         WILPERS, TERESA K   2028 GREENBERRY RD                      000N        CARE OF             
MTR02171000001000000000000000RA              78857050    005800050000000500000360000003NN  NNW 000                       N    
RDG02171000WATR 000000004R00000000000000034000011112015180000N000000000000N         000000400R 10000000010000000018           
RFF0217100069030156      ERT      0000  956.44375000140000111120151800000000344744100W 1220000N                               
CUS0217100000102320058007         TANNOURI, SAMIR     2026 GREENBERRY RD                      000N        CARE OF             
MTR02171000001000000000000000RA              78857718    005800060000000600000360000003NN  NNW 000                       N    
RDG02171000WATR 000000004R00000000000000024000011112015180000N000000000000N         000000400R 10000000010000000014           
RFF0217100069030425      ERT      0000  956.44375000140000111120151800000000247108100W 1220000N                               
CUS0217100000102320059005         TANNOURI, AHLAM E.  2024 GREENBERRY RD                      000N        CARE OF             
MTR02171000001000000000000000RA              01099583    005800070000000700000610000003NY  NNW 000                       N    
MTM0217100001099583    78856294 RD 0043                                                                                       
RDG02171000WATRL000000004K00000000000000000000000000000000000 000000000000U         000000400  10000000010000000575           
CUS0217100000102320060003         SCHER, LINDA L      2022 GREENBERRY RD                      000N        CARE OF             
MTR02171000001000000000000000RA              14900916    005800080000000800000310000003NY  NNW 000                       N    
MTM0217100014900916    78858116 RD 0008                                                                                       
RDG02171000WATRL000000004K00000000000000000000000000000000000 000000000000U         000000400  10000000010000000586           
CUS0217100000102320061001         BIGELEISEN, PAUL E  2020 GREENBERRY RD                      000N        CARE OF             
MTR02171000001000000000000000RA              78856994    005800090000000900000360000003NN  NNW 000                       N    
RDG02171000WATR 000000004R00000000000000197000011112015180000N000000000000N         000000400R 10000000010000000136           
RFF0217100069030444      ERT      0000  956.44375000140000111120151800000001972262100W 1220000N                               
CUS0217100000102393295007         GARY KISELEWICH     2018 GREENBERRY RD                      000N        CARE OF             
MTR02171000001000000000000000RA              78555485    005800100000001000000360000003NN  NNW 000                       N    
RDG02171000WATR 000000004R00000000000000029000011112015180000N000000000000N         000000400R 10000000010000000018           
RFF0217100069028719      ERT      0000  956.44375000140000111120151800000000295932100W 1220000N                               
CUS0217100000102393294000         HAAS, NANCY         2016 GREENBERRY RD                      000N        CARE OF             
MTR02171000001000000000000000RA              78858047    005800110000001100000360000003NN  NNW 000                       N    
RDG02171000WATR 000000004R00000000000000025000011112015180000N000000000000N         000000400R 10000000010000000016           
RFF0217100069028583      ERT      0000  956.44375000140000111120151800000000254830100W 1220000N                               
CUS0217100000102391185002         HENDRICK, ALAN DALE 2014 GREENBERRY RD                      000N        CARE OF             
MTR02171000001000000000000000RA              78555404    005800120000001200000360000003NN  NNW 000                       N    
RDG02171000WATR 000000004R00000000000000039000011112015180000N000000000000N         000000400R 10000000010000000020           
RFF0217100069028683      ERT      0000  956.44375000140000111120151800000000398323100W 1220000N                               
CUS0217100000102320062009         DORSEY, MATTHEW B   2012 GREENBERRY RD                      000N        CARE OF             
MTR02171000001000000000000000RA              78573023    007500130000001300000360000003NN  NNW 000                       N    
RDG02171000WATR 000000004R00000000000000041000011112015180000N000000000000N         000000400R 10000000010000000024           
RFF0217100069030602      ERT      0000  956.44375000140000111120151800000000413705100W 1220000N                               
CUS0217100000102393980004         PYATT, JAMES T      2010 GREENBERRY RD                      000N        CARE OF             
MTR02171000001000000000000000RA              78555344    005800140000001400000360000003NN  NNW 000                       N    
RDG02171000WATR 000000004R00000000000000052000011112015180000N000000000000N         000000400R 10000000010000000028           
RFF0217100069028682      ERT      0000  956.44375000140000111120151800000000524510100W 1220000N                               
CUS0217100000102320063007         THOMPSON, TIMOTHY C 2015 GREENBERRY RD                      000N        CARE OF             
MTR02171000001000000000000000RA              28154004    005800150000001500000520000003NY  NNW 000                       N    
MTM0217100028154004    15 INCH PLATE                                                                                          
RDG02171000WATRL000000004K00000000000005096001011132015091553N000000000000U40       005490400K 10000000010000005055           
CUS0217100000102320064005         HOLLAND, KARIN S    2011 GREENBERRY RD                      000N        CARE OF             
MTR02171000001000000000000000RA              78573194    007500160000001600000360000003NN  NNW 000                       N    
RDG02171000WATR 000000004R00000000000000027000011112015180000N000000000000N         000000400R 10000000010000000013           
RFF0217100069017805      ERT      0000  956.44375000140000111120151800000000279974100W 1220000N                               
CUS0217100000102320065002         WAHL, BLANCHE G   (T2001-09 GREENBERRY RD                   000N        CARE OF             
MTR02171000001000000000000000RA              79142590    007500170000001700000360000003NN  NNW 000                       N    
RDG02171000WATR 000000004R00000000000000057000011112015180000N000000000000N         000000400R 10000000010000000026           
RFF0217100069126387      ERT      0000  956.44375000140000111120151800000000573607100W 1220000N                               
CUS0217100000102320066000         GREENBERRY WOODS CON1918 GREENBERRY RD                      000N        CARE OF             
MTR02171000001000000000000000RA              78858611    000100180000001800000360000003NN  NNW 000                       N    
RDG02171000WATR 000000004R00000000000000160000011112015180000N000400000060N         000000400R 10000000010000000123           
RFF0217100069029917      ERT      0000  956.44375000140000111120151800000001601573100W 1220000N                               
CUS0217100000102320067008         HOWARD, JOHN A      1817 GREENBERRY RD                      000N        CARE OF             
MTR02171000001000000000000000RA              78572993    007500190000001900000360000003NN  NNW 000                       N    
RDG02171000WATR 000000004R00000000000000037000011112015180000N000000000000N         000000400R 10000000010000000024           
RFF0217100069028624      ERT      0000  956.44375000140000111120151800000000371111100W 1220000N                               
CUS0217100000102320068006         MASTER, SCOTT D     1815 GREENBERRY RD                      000N        CARE OF             
MTR02171000001000000000000000RA              78856267    005800200000002000000360000003NN  NNW 000                       N    
RDG02171000WATR 000000004R00000000000000038000011112015180000N000400000060N         000000400R 10000000010000000026           
RFF0217100069029430      ERT      0000  956.44375000140000111120151800000000383319100W 1220000N                               
CUS0217100000102320069004         ALLEN, CHRISTOPHER B1812 GREENBERRY RD                      000N        CARE OF             
MTR02171000001000000000000000RA              01084347    005800210000002100000610000003NN  NNW 000                       N    
RDG02171000WATRL000000004K00000000000000846001111132015091921N000000000000U40       002080400K 10000000010000000831           
CUS0217100000102320070002         WEISS, THOMAS       1814 GREENBERRY RD                      000N        CARE OF             
MTR02171000001000000000000000RA              78856190    005800220000002200000360000003NN  NNW 000                       N    
RDG02171000WATR 000000004R00000000000000022000011112015180000N000000000000N         000000400R 10000000010000000013           
RFF0217100069029047      ERT      0000  956.44375000140000111120151800000000229254100W 1220000N                               
CUS0217100000102320071000         AARON I STOPAK & WF 1818 GREENBERRY RD                      000N        CARE OF             
MTR02171000001000000000000000RA              24224424    005800230000002300000520000003NY  NNW 000                       N    
MTM0217100024224424    78555423 RD 0047                                                                                       
RDG02171000WATRL000000004K00000000000000000000000000000000000 000000000000U         000000400  10000000010000002714           
CUS0217100000102320072008         HUBER, RICHARD J    1820 GREENBERRY RD                      000N        CARE OF             
MTR02171000001000000000000000RA              78555419    005800240000002400000360000003NN  NNW 000                       N    
RDG02171000WATR 000000004R00000000000000026000011112015180000N000000000000N         000000400R 10000000010000000015           
RFF0217100069029995      ERT      0000  956.44375000140000111120151800000000263598100W 1220000N                               
CUS0217100000102320073006         RICHARD L SHER & WF 2019 W ROGERS AVE                       000N        CARE OF             
MTR02171000001000000000000000RA              78856277    005800250000002500000360000003NN  NNW 000                       N    
RDG02171000WATR 000000004R00000000000000022000011112015180000N000000000000N         000000400R 10000000010000000013           
RFF0217100069029504      ERT      0000  956.44375000140000111120151800000000227780100W 1220000N                               
CUS0217100000102320074004         BLECHMAN, HELEN M   2015 W ROGERS AVE                       000N        CARE OF             
MTR02171000001000000000000000RA              78858541    000100260000002600000360000003NN  NNW 000                       N    
RDG02171000WATR 000000004R00000000000000033000011112015180000N000000000000N         000000400R 10000000010000000019           
RFF0217100069030004      ERT      0000  956.44375000140000111120151800000000335781100W 1220000N                               
CUS0217100000102395180009         LOPER, EDWARD D     2013 W ROGERS AVE                       000N        CARE OF             
MTR02171000001000000000000000RA              78858074    005800270000002700000360000003NN  NNW 000                       N    
RDG02171000WATR 000000004R00000000000000005000011112015180000N000000000000N         000000400R 10000000010000000002           
RFF0217100069030612      ERT      0000  956.44375000140000111120151800000000059109100W 1220000N                               
CUS0217100000102320075001         MILLER, ARTHUR I    2007 W ROGERS AVE                       000N        CARE OF             
MTR02171000001000000000000000RA              78858115    005800280000002800000360000003NN  NNW 000                       N    
RDG02171000WATR 000000004R00000000000000053000011112015180000N000000000000N         000000400R 10000000010000000032           
RFF0217100069029505      ERT      0000  956.44375000140000111120151800000000533892100W 1220000N                               
CUS0217100000102386329003         CALLAHAN, SHAUN P   2009 W ROGERS AVE                       000N        CARE OF             
MTR02171000001000000000000000RA              14906311    005800290000002900000310000003NY  NNW 000                       N    
MTM0217100014906311    78858069 RD 0050                                                                                       
RDG02171000WATRL000000004K00000000000000000000000000000000000 000000000000U         000000400  10000000010000001036           
CUS0217100000102320076009         TURNER JR., PAUL M  2003 W ROGERS AVE                       000N        CARE OF             
MTR02171000001000000000000000RA              78856287    005800300000003000000360000003NN  NNW 000                       N    
RDG02171000WATR 000000004R00000000000000032000011112015180000N000000000000N         000000400R 10000000010000000019           
RFF0217100069027940      ERT      0000  956.44375000140000111120151800000000328913100W 1220000N                               
CUS0217100000102393267006         SANCHEZ, ALEXANDER M2001 W ROGERS AVE                       000N        CARE OF             
MTR02171000001000000000000000RA              78858071    005800310000003100000360000003NN  NNW 000                       N    
RDG02171000WATR 000000004R00000000000000040000011112015180000N000000000000N         000000400R 10000000010000000021           
RFF0217100069030596      ERT      0000  956.44375000140000111120151800000000402959100W 1220000N                               
CUS0217100000102320077007         PENG, ROGER D       1909 W ROGERS AVE                       000N        CARE OF             
MTR02171000001000000000000000RA              78856272    005800320000003200000360000003NN  NNW 000                       N    
RDG02171000WATR 000000004R00000000000000037000011112015180000N000000000000N         000000400R 10000000010000000020           
RFF0217100069029450      ERT      0000  956.44375000140000111120151800000000375301100W 1220000N                               
CUS0217100000102320078005         VANWERT, SALLIE L.  1907 W ROGERS AVE                       000N        CARE OF             
MTR02171000001000000000000000RA              78858076    005800330000003300000360000003NN  NNW 000                       N    
RDG02171000WATR 000000004R00000000000000014000011112015180000N000100000060N         000000400R 10000000010000000014           
RFF0217100069029500      ERT      0000  956.44375000140000111120151800000000145812100W 1220000N                               
CUS0217100000102320079003         EZZO, JEANETTE      1905 W ROGERS AVE                       000N        CARE OF             
MTR02171000001000000000000000RA              79536702    005800340000003400000360000003NN  NNW 000                       N    
RDG02171000WATR 000000004R00000000000000014000011112015180000N000300000060N         000000400R 10000000010000000000           
RFF0217100070002956      ERT      0000  956.44375000140000111120151800000000142024100W 1220000N                               
CUS0217100000102320080001         DEUTSCHE BANK NATION1903 W ROGERS AVE                       000N        CARE OF             
MTR02171000001000000000000000RA              00120498    007500350000003500000570000003NY  NNW 000                       N    
MTM0217100000120498    78858246 RD 0025                                                                                       
RDG02171000WATRL000000004K00000000000000000000000000000000000 000000000000U         000000400  10000000010000001514           
CUS0217100000102320081009         FERRIS III, GEORGE M1901 W ROGERS AVE                       000N        CARE OF             
MTR02171000001000000000000000RA              46879197    007500360000003600000570000003NY  NNW 000                       N    
MTM0217100046879197    78856274 RD 0067                                                                                       
RDG02171000WATRL000000004K00000000000000000000000000000000000 000000000000U         000000400  10000000010000002059           
CUS0217100000102320082007         VOTH, NATHAN A      1807 W ROGERS AVE                       000N        CARE OF             
MTR02171000001000000000000000RA              78747820    005800370000003700000360000003NN  NNW 000                       N    
RDG02171000WATRL000000004R00000000000000041001311132015092407N000000000000U40       001530400R 10000000010000000020           
RFF0217100069030550      ERT      0000  956.4437500014000011132015092405    411506100W 1220000N                               
CUS0217100000102320083005         R & L WOLF          1805 W ROGERS AVE                       000N        CARE OF             
MTR02171000001000000000000000RA              78555355    005800380000003800000360000003NN  NNW 000                       N    
RDG02171000WATRL000000004R00000000000000055001411132015092411N000400000010U40       000040400R 10000000010000000044           
RFF0217100069028678      ERT      0000  956.4437500014000011132015092410    556002100W 1220000N                               
CUS0217100000102320084003         W J LEDERER         1803 W ROGERS AVE                       000N        CARE OF             
MTR02171000001000000000000000RA              78555405    005800390000003900000360000003NN  NNW 000                       N    
RDG02171000WATR 000000004R00000000000000001000011112015180000N000100000060N         000000400R 10000000010000000001           
RFF0217100069028641      ERT      0000  956.44375000140000111120151800000000012133100W 1220000N                               
CUS0217100000102320085000         BOBBY DRAYTON & WF  1801 W ROGERS AVE                       000N        CARE OF             
MTR02171000001000000000000000RA              78555401    005800400000004000000360000003NN  NNW 000                       N    
RDG02171000WATR 000000004R00000000000000021000011112015180000N000000000000N         000000400R 10000000010000000010           
RFF0217100069028701      ERT      0000  956.44375000140000111120151800000000213816100W 1220000N                               
CUS0217100000102320086008         FLEISHMAN, ROBERT P 1701 W ROGERS AVE                       000N        CARE OF             
MTR02171000001000000000000000RA              78027630    007500410000004100000360000003NN  NNW 000                       N    
RDG02171000WATR 000000004R00000000000000038000011112015180000N000000000000N         000000400R 10000000010000000016           
RFF0217100069128523      ERT      0000  956.44375000140000111120151800000000387482100W 1220000N                               
CUS0217100000102320087006         MAGOWAN, LAUREN A.  1611 W ROGERS AVE                       000N        CARE OF             
MTR02171000001000000000000000RA              52292262    007500420000004200000520000003NN  NNW 000                       N    
RDG02171000WATRL000000004K00000000000000739001511132015092628N000000000000U40       001370400K 10000000010000000727           
CUS0217100000102320088004         LITTRELL, DIANE MARI1609 W ROGERS AVE                       000N        CARE OF             
MTR02171000001000000000000000RA              78027603    007500430000004300000360000003NN  NNW 000                       N    
RDG02171000WATR 000000004R00000000000000042000011112015180000N000000000000N         000000400R 10000000010000000023           
RFF0217100069127885      ERT      0000  956.44375000140000111120151800000000424201100W 1220000N                               
CUS0217100000102320089002         LEWIS, ELLEN        1607 W ROGERS AVE                       000N        CARE OF             
MTR02171000001000000000000000RA              30523074    005800440000004400000520000003NN  NNW 000                       N    
RDG02171000WATRL000000004K00000000000002137001611132015092847N000000000000U40       001390400K 10000000010000002121           
CUS0217100000102430519005         BOYDSTON, LAURA A   1605 W ROGERS AVE                       000N        CARE OF             
MTR02171000001000000000000000RA              78857366    005800450000004500000360000003NN  NNW 000                       N    
RDG02171000WATR 000000004R00000000000000025000011112015180000N000000000000N         000000400R 10000000010000000012           
RFF0217100069027949      ERT      0000  956.44375000140000111120151800000000251351100W 1220000N                               
CUS0217100000102320090000         MT WASHINGTON       1704 W ROGERS AVE                       000N        CARE OF             
MTR02171000001000000000000000RA              50000257    000100460000004600000570000003NN  NNW 000                       N    
RDG02171000WATRL000000004K00000000000000451001211132015092134N000300000030U40       001330400K 10000000010000000375           
CUS0217100000102320091008         BUTLER, BRYCE R.    2006 W ROGERS AVE                       000N        CARE OF             
MTR02171000001000000000000000RA              78856273    005800470000004700000360000003NN  NNW 000                       N    
RDG02171000WATR 000000004R00000000000000020000011112015180000N000000000000N         000000400R 10000000010000000012           
RFF0217100069029395      ERT      0000  956.44375000140000111120151800000000200723100W 1220000N                               
CUS0217100000102320092006         DARLINGTON, SETH H  2008 W ROGERS AVE                       000N        CARE OF             
MTR02171000001000000000000000RA              78022985    005800480000004800000360000003NN  NNW 000                       N    
RDG02171000WATR 000000004R00000000000000034000011112015180000N000000000000N         000000400R 10000000010000000019           
RFF0217100069030014      ERT      0000  956.44375000140000111120151800000000348485100W 1220000N                               
CUS0217100000102320093004         THEODORE T CAVACOS  2010 W ROGERS AVE                       000N        CARE OF             
MTR02171000001000000000000000RA              78858073    005800490000004900000360000003NN  NNW 000                       N    
RDG02171000WATR 000000004R00000000000000034000011112015180000N000000000000N         000000400R 10000000010000000019           
RFF0217100069029446      ERT      0000  956.44375000140000111120151800000000341471100W 1220000N                               
CUS0217100000102320094002         LOESCHKE, PAUL      2012 W ROGERS AVE                       000N        CARE OF             
MTR02171000001000000000000000RA              78856266    005800500000005000000360000003NN  NNW 000                       N    
RDG02171000WATR 000000004R00000000000000044000011112015180000N000000000000N         000000400R 10000000010000000026           
RFF0217100069029388      ERT      0000  956.44375000140000111120151800000000447841100W 1220000N                               
CUS0217100000102320095009         WILLEMAIN, BARBARA F2022 W ROGERS AVE                       000N        CARE OF             
MTR02171000001000000000000000RA              78858116    005800510000005100000360000003NN  NNW 000                       N    
RDG02171000WATR 000000004R00000000000000008000011112015180000N000000000000N         000000400R 10000000010000000004           
RFF0217100069029494      ERT      0000  956.44375000140000111120151800000000084900100W 1220000N                               
CUS0217100000102320096007         DARTEZ, KATHLEEN M. 2024 W ROGERS AVE                       000N        CARE OF             
MTR02171000001000000000000000RA              78856294    005800520000005200000360000003NN  NNW 000                       N    
RDG02171000WATR 000000004R00000000000000042000011112015180000N000000000000N         000000400R 10000000010000000024           
RFF0217100069030579      ERT      0000  956.44375000140000111120151800000000427211100W 1220000N                               
CUS0217100000102320097005         ALBERT A ERDMAN ETAL2026 W ROGERS AVE                       000N        CARE OF             
MTR02171000001000000000000000RA              78856210    005800530000005300000360000003NN  NNW 000                       N    
RDG02171000WATR 000000004R00000000000000038000011112015180000N000000000000N         000000400R 10000000010000000018           
RFF0217100069029096      ERT      0000  956.44375000140000111120151800000000383563100W 1220000N                               
CUS0217100000102320098003         CHARLES JOHNSON JR &2028 W ROGERS AVE                       000N        CARE OF             
MTR02171000001000000000000000RA              78858070    005800540000005400000360000003NN  NNW 000                       N    
RDG02171000WATR 000000004R00000000000000023000011112015180000N000000000000N         000000400R 10000000010000000013           
RFF0217100069028987      ERT      0000  956.44375000140000111120151800000000235913100W 1220000N                               
CUS0217100000102320099001         JONES, NICHOLAS A.  5501 S BEND RD                          000N        CARE OF             
MTR02171000001000000000000000RA              78856984    005800550000005500000360000003NN  NNW 000                       N    
RDG02171000WATR 000000004R00000000000000050000011112015180000N000000000000N         000000400R 10000000010000000028           
RFF0217100069030117      ERT      0000  956.44375000140000111120151800000000506707100W 1220000N                               
CUS0217100000102320100007         FUNK, JUDY PRUCE    5503 S BEND RD                          000N        CARE OF             
MTR02171000001000000000000000RA              78856983    005800560000005600000360000003NN  NNW 000                       N    
RDG02171000WATR 000000004R00000000000000000000011112015180000N000100000060N         000000400R 10000000010000000000           
RFF0217100069030202      ERT      0000  956.44375000140000111120151800000000007799100W 1220000N                               
CUS0217100000102320101005         DOERNBERGER, JESSIE 5507 S BEND RD                          000N        CARE OF             
MTR02171000001000000000000000RA              78857716    005800570000005700000360000003NN  NNW 000                       N    
RDG02171000WATR 000000004R00000000000000018000011112015180000N000000000000N         000000400R 10000000010000000010           
RFF0217100069030461      ERT      0000  956.44375000140000111120151800000000180261100W 1220000N                               
CUS0217100000102320102003         NEIMAN, JOSHUA E    5509 S BEND RD                          000N        CARE OF             
MTR02171000001000000000000000RA              78856992    005800580000005800000360000003NN  NNW 000                       N    
RDG02171000WATR 000000004R00000000000000040000011112015180000N000000000000N         000000400R 10000000010000000022           
RFF0217100069030428      ERT      0000  956.44375000140000111120151800000000401600100W 1220000N                               
CUS0217100000102320103001         LAWRENCE P FLETCHER-2025 CARTERDALE RD                      000N        CARE OF             
MTR02171000001000000000000000RA              35110264    005800590000005900000520000003NN  NNW 000                       N    
RDG02171000WATRL000000004K00000000000003737000711132015085207N000000000000U40       001980400K 10000000010000003718           
CUS0217100000102320104009         EFREM POTTS         5601 S BEND RD                          000N        CARE OF             
MTR02171000001000000000000000RA              78856971    005800600000006000000360000003NN  NNW 000                       N    
RDG02171000WATR 000000004R00000000000000033000011112015180000N000400000060N         000000400R 10000000010000000024           
RFF0217100069030460      ERT      0000  956.44375000140000111120151800000000336831100W 1220000N                               
CUS0217100000106419697005         MICHAEL SAXON       5607 SOUTH BEND RD                      000N        CARE OF             
MTR02171000001000000000000000RA              78857371    005800610000006100000360000003NN  NNW 000                       N    
RDG02171000WATR 000000004R00000000000000022000011112015180000N000400000060N         000000400R 10000000010000000018           
RFF0217100069029611      ERT      0000  956.44375000140000111120151800000000224656100W 1220000N                               
CUS0217100000102320105006         HINDERBERGER, PETER 2007 SOUTH RD                           000N        CARE OF             
MTR02171000001000000000000000RA              78857381    005800620000006200000360000003NN  NNW 000                       N    
RDG02171000WATR 000000004R00000000000000074000011112015180000N000000000000N         000000400R 10000000010000000024           
RFF0217100069029998      ERT      0000  956.44375000140000111120151800000000741229100W 1220000N                               
CUS0217100000102320106004         CREAMER, ROBERT     2003 SOUTH RD                           000N        CARE OF             
MTR02171000001000000000000000RA              78027548    005800630000006300000360000003NN  NNW 000                       N    
RDG02171000WATR 000000004R00000000000000071000011112015180000N000000000000N         000000400R 10000000010000000049           
RFF0217100069015602      ERT      0000  956.44375000140000111120151800000000711689100W 1220000N                               
CUS0217100000102320107002         IRIS M MAJOROWICZ   2001 SOUTH RD                           000N        CARE OF             
MTR02171000001000000000000000RA              40248315    007500640000006400000520000003NN  NNW 000                       N    
RDG02171000WATRL000000004K00000000000002820000511132015084817N000000000000U40       003420400K 10000000010000002809           
CUS0217100000102320108000         WAGNER FAMILY PARTNE5604 WILDWOOD LN                        000N        CARE OF             
MTR02171000001000000000000000RA              75427038    007500650000006500000350000003NN  NNW 000                       N    
RDG02171000WATR 000000004R00000000000000073000011112015180000N000300000060N         000000400R 10000000010000000047           
RFF0217100069024184      ERT      0000  956.44375000140000111120151800000000730732100W 1220000N                               
CUS0217100000102320109008         KRAMP, RAPHAEL SEMME5602 WILDWOOD LN                        000N        CARE OF             
MTR02171000001000000000000000RA              78857328    005800660000006600000360000003NN  NNW 000                       N    
RDG02171000WATR 000000004R00000000000000041000011112015180000N000000000000N         000000400R 10000000010000000023           
RFF0217100069023745      ERT      0000  956.44375000140000111120151800000000417333100W 1220000N                               
CUS0217100000102320110006         WERTHEIMER, DEBRA SU5600 WILDWOOD LN                        000N        CARE OF             
MTR02171000001000000000000000RA              75424529    005800670000006700000350000003NN  NNW 000                       N    
RDG02171000WATR 000000004R00000000000000038000011112015180000N000100000060N         000000400R 10000000010000000038           
RFF0217100069028546      ERT      0000  956.44375000140000111120151800000000381918100W 1220000N                               
CUS0217100000102320111004         WAGNER, JOHN MARK   5607 WILDWOOD LN                        000N        CARE OF             
MTR02171000001000000000000000RA              78857362    005800680000006800000360000003NN  NNW 000                       N    
RDG02171000WATR 000000004R00000000000000027000011112015180000N000000000000N         000000400R 10000000010000000015           
RFF0217100069030042      ERT      0000  956.44375000140000111120151800000000275518100W 1220000N                               
CUS0217100000102320112002         FINKELSTEIN, DANIEL 1907 SOUTH RD                           000N        CARE OF             
MTR02171000001000000000000000RA              78027565    007500690000006900000360000003NN  NNW 000                       N    
RDG02171000WATR 000000004R00000000000000016000011112015180000N000000000000N         000000400R 10000000010000000008           
RFF0217100069015951      ERT      0000  956.44375000140000111120151800000000164250100W 1220000N                               
CUS0217100000102320113000         GREENWALD, JOSEPH C.1903 SOUTH RD                           000N        CARE OF             
MTR02171000001000000000000000RA              78858725    000100700000007000000360000003NN  NNW 000                       N    
RDG02171000WATR 000000004R00000000000000039000011112015180000N000000000000N         000000400R 10000000010000000019           
RFF0217100069023599      ERT      0000  956.44375000140000111120151800000000394204100W 1220000N                               
CUS0217100000102320114008         ROGERS, MARK W      5606 ROXBURY PL                         000N        CARE OF             
MTR02171000001000000000000000RA              78027559    007500710000007100000360000003NN  NNW 000                       N    
RDG02171000WATRL000000004R00000000000000024000311132015084034N000003600000U40       000880400K 10000000010000000011           
RFF0217100069015596      ERT      0000  956.4437500014000000000000000000                  0001Y                               
CUS0217100000102320115005         KEOGH, SARAH E W    5604 ROXBURY PL                         000N        CARE OF             
MTR02171000001000000000000000RA              78027558    007500720000007200000360000003NN  NNW 000                       N    
RDG02171000WATR 000000004R00000000000000084000011112015180000N000300000060N         000000400R 10000000010000000024           
RFF0217100069126306      ERT      0000  956.44375000140000111120151800000000842868100W 1220000N                               
CUS0217100000102320116003         MARIL, DAVID C   (TR5602 ROXBURY PL                         000N        CARE OF             
MTR02171000001000000000000000RA              78027532    007500730000007300000360000003NN  NNW 000                       N    
RDG02171000WATR 000000004R00000000000000012000011112015180000N000000000000N         000000400R 10000000010000000006           
RFF0217100069023517      ERT      0000  956.44375000140000111120151800000000129250100W 1220000N                               
CUS0217100000102320117001         COLEMAN, HOLLY R    5600 ROXBURY PL                         000N        CARE OF             
MTR02171000001000000000000000RA              78858715    000100740000007400000360000003NN  NNW 000                       N    
RDG02171000WATR 000000004R00000000000000032000011112015180000N000000000000N         000000400R 10000000010000000015           
RFF0217100069126766      ERT      0000  956.44375000140000111120151800000000326150100W 1220000N                               
CUS0217100000102320118009         VALERY, ERNST       5603 ROXBURY PL                         000N        CARE OF             
MTR02171000001000000000000000RA              27676562    007500750000007500000520000003NN  NNW 000                       N    
RDG02171000WATRL000000004K00000000000004643000411132015084235N000300000010U40       001210400K 10000000010000004919           
CUS0217100000102320119007         SHAPIRO, JAMES S.   5607 ROXBURY PL                         000N        CARE OF             
MTR02171000001000000000000000RA              14928629    005800760000007600000310000003NN  NNW 000                       N    
RDG02171000WATRL000000004K00000000000000592000211132015083906N000000000000U40       001120400K 10000000010000000570           
CUS0217100000102320120005         VAVASORI, ANGELA M  1817 SOUTH RD                           000N        CARE OF             
MTR02171000001000000000000000RA              78858716    000100770000007700000360000003NY  NNW 000                       N    
MTM0217100078858716    4 BY 18 PLATE                                                                                          
RDG02171000WATRL000000004R00000000000000012000111132015083714N000000000010U40       000000400K 10000000010000000000           
RFF0217100069021308      ERT      0000  956.4437500014000000000000000000                  0001Y                               
CUS0217100000102374652002         SHAPIRO, STEPHEN J  1815 SOUTH RD                           000N        CARE OF             
MTR02171000001000000000000000RA              78857384    005800780000007800000360000003NN  NNW 000                       N    
RDG02171000WATR 000000004R00000000000000052000011112015180000N000000000000N         000000400R 10000000010000000016           
RFF0217100069028089      ERT      0000  956.44375000140000111120151800000000528476100W 1220000N                               
CUS0217100000102320121003         1813 SOUTH RD       1813 SOUTH RD                           000N        CARE OF             
MTR02171000001000000000000000RA              78858048    005800790000007900000360000003NN  NNW 000                       N    
RDG02171000WATR 000000004R00000000000000164000011112015180000N000000000000N         000000400R 10000000010000000103           
RFF0217100069028596      ERT      0000  956.44375000140000111120151800000001641705100W 1220000N                               
CUS0217100000102320122001         WELLS, JOHN         1807 SOUTH RD                           000N        CARE OF             
MTR02171000001000000000000000RA              78573189    007500800000008000000360000003NN  NNW 000                       N    
RDG02171000WATR 000000004R00000000000000034000011112015180000N000000000000N         000000400R 10000000010000000015           
RFF0217100069016632      ERT      0000  956.44375000140000111120151800000000349907100W 1220000N                               
CUS0217100000102320123009         NORIN, MYLES        1805 SOUTH RD                           000N        CARE OF             
MTR02171000001000000000000000RA              60906111    001500810000008100000670000003NN  NNW 000                       N    
RDG02171000WATR 000000005R00000000000000063000011112015180000N000000000000N         000000500R 10000000020000000024           
RFF0217100069044484      ERT      0000  956.44375000140000111120151800000000063464100W 1210000N                               
CUS0217100000102320124007         BELL, SILVIA M.     1801 SOUTH RD                           000N        CARE OF             
MTR02171000001000000000000000RA              76349660    007500820000008200000350000003NN  NNW 000                       N    
RDG02171000WATR 000000004R00000000000000107000011112015180000N000000000000N         000000400R 10000000010000000092           
RFF0217100069030005      ERT      0000  956.44375000140000111120151800000001078008100W 1220000N                               
CUS0217100000102320125004         CUMMINGS, DAVID A   1707 SOUTH RD                           000N        CARE OF             
MTR02171000001000000000000000RA              78857383    005800830000008300000360000003NN  NNW 000                       N    
RDG02171000WATR 000000004R00000000000000069000011112015180000N000000000000N         000000400R 10000000010000000041           
RFF0217100069028028      ERT      0000  956.44375000140000111120151800000000694421100W 1220000N                               
CUS0217100000102320126002         CUMMINGS, DAVID A   1705 SOUTH RD                           000N        CARE OF             
MTR02171000001000000000000000RA              77544769    007500840000008400000350000003NN  NNW 000                       N    
RDG02171000WATR 000000004R00000000000000103000011112015180000N000000000000N         000000400R 10000000010000000077           
RFF0217100069030129      ERT      0000  956.44375000140000111120151800000001031584100W 1220000N                               
CUS0217100000102320127000         CORNELL III, WILLIAM1703 SOUTH RD                           000N        CARE OF             
MTR02171000001000000000000000RA              78027526    007500850000008500000360000003NN  NNW 000                       N    
RDG02171000WATR 000000004R00000000000000047000011112015180000N000000000000N         000000400R 10000000010000000027           
RFF0217100069023515      ERT      0000  956.44375000140000111120151800000000478635100W 1220000N                               
CUS0217100000102320129006         MICHAEL ARMACOST    1601 SOUTH RD                           000N        CARE OF             
MTR02171000001000000000000000RA              74938719    007500860000008600000350000003NN  NNW 000                       N    
RDG02171000WATR 000000004R00000000000000445000011112015180000N000400000060N         000000400R 10000000010000000444           
RFF0217100069028577      ERT      0000  956.44375000140000111120151800000004451489100W 1220000N                               
CUS0217100000102320130004         BLATTERMANN, STEVEN 5538 NEWBURY ST                         000N        CARE OF             
MTR02171000001000000000000000RA              24767550    005800870000008700000520000003NY  NNW 000                       N    
MTM0217100024767550    78857343 RD 0026                                                                                       
RDG02171000WATRL000000004K00000000000000000000000000000000000 000000000000U         000000400  10000000010000003724           
CUS0217100000102320132000         NEWBURY, LLC        5601 NEWBURY ST                         000N        CARE OF             
MTR02171000001000000000000000RA              78857717    005800880000008800000360000003NN  NNW 000                       N    
RDG02171000WATR 000000004R00000000000000009000011112015180000N000000000040N         000000400R 10000000010000000006           
RFF0217100069029708      ERT      0000  956.44375000140000111120151800000000091002100W 1220000N                               
CUS0217100000102320133008         GILMARK ENTERPRISES,5603 NEWBURY ST                         000N        CARE OF             
MTR02171000001000000000000000RA              77894233    007500890000008900000360000003NN  NNW 000                       N    
RDG02171000WATRL000000004R00000000000000000001711132015101720N000300000010U40       029130400R 10000000010000000001           
RFF0217100069023516      ERT      0003  956.4437500014000311132015101718       734100W 1220000N                               
CUS0217100000102320134006         BETH-EL CHURCH OVERC1700 SOUTH RD                           000N        CARE OF             
MTR02171000001000000000000000RA              78858734    005800900000009000000360000003NN  NNW 000                       N    
RDG02171000WATR 000000004R00000000000000004000011112015180000N000300000060N         000000400R 10000000010000000000           
RFF0217100068984692      ERT      0000  956.44375000140000111120151800000000045838100W 1220000N                               
CUS0217100000102320135003         ST. JOHNS EPISCOPAL 1702 SOUTH RD                           000N        CARE OF             
MTR02171000001000000000000000RA              78573158    005800910000009100000360000003NN  NNW 000                       N    
RDG02171000WATR 000000004R00000000000000001000011112015180000N000300000060N         000000400R 10000000010000000000           
RFF0217100069016636      ERT      0000  956.44375000140000111120151800000000015979100W 1220000N                               
CUS0217100000102320136001         MADDEN, MARY M      1704 SOUTH RD                           000N        CARE OF             
MTR02171000001000000000000000RA              77888951    005800920000009200000360000003NN  NNW 000                       N    
RDG02171000WATR 000000004R00000000000000013000011112015180000N000000000000N         000000400R 10000000010000000007           
RFF0217100069030610      ERT      0000  956.44375000140000111120151800000000139845100W 1220000N                               
CUS0217100000102320137009         RICHARD BASACO      1706 SOUTH RD                           000N        CARE OF             
MTR02171000001000000000000000RA              78555396    005800930000009300000360000003NN  NNW 000                       N    
RDG02171000WATR 000000004R00000000000000052000011112015180000N000000000000N         000000400R 10000000010000000030           
RFF0217100069028941      ERT      0000  956.44375000140000111120151800000000527028100W 1220000N                               
CUS0217100000102320138007         EDELEN JR, JAMES G  1710 SOUTH RD                           000N        CARE OF             
MTR02171000001000000000000000RA              78573155    007500940000009400000360000003NN  NNW 000                       N    
RDG02171000WATR 000000004R00000000000000041000011112015180000N000000000000N         000000400R 10000000010000000027           
RFF0217100069016615      ERT      0000  956.44375000140000111120151800000000414382100W 1220000N                               
CUS0217100000102320139005         MALLOY, JENNIFER A. 1800 SOUTH RD                           000N        CARE OF             
MTR02171000001000000000000000RA              78555406    005800950000009500000360000003NN  NNW 000                       N    
RDG02171000WATR 000000004R00000000000000066000011112015180000N000000000000N         000000400R 10000000010000000036           
RFF0217100069028737      ERT      0000  956.44375000140000111120151800000000660028100W 1220000N                               
CUS0217100000102320140003         BRANCH, F TAYLOR    1806 SOUTH RD                           000N        CARE OF             
MTR02171000001000000000000000RA              78573193    007500960000009600000360000003NN  NNW 000                       N    
RDG02171000WATR 000000004R00000000000000056000011112015180000N000000000000N         000000400R 10000000010000000027           
RFF0217100069017797      ERT      0000  956.44375000140000111120151800000000560481100W 1220000N                               
CUS0217100000102380811006         YASTER, MYRON       1808 SOUTH RD                           000N        CARE OF             
MTR02171000001000000000000000RA              78854461    005800970000009700000360000003NN  NNW 000                       N    
RDG02171000WATR 000000004R00000000000000023000011112015180000N000000000000N         000000400R 10000000010000000013           
RFF0217100069021630      ERT      0000  956.44375000140000111120151800000000238034100W 1220000N                               
CUS0217100000102320141001         YUSPEH, ALAN R      1812 SOUTH RD                           000N        CARE OF             
MTR02171000001000000000000000RA              78555398    007500980000009800000360000003NN  NNW 000                       N    
RDG02171000WATR 000000004R00000000000000255000011112015180000N000000000000N         000000400R 10000000010000000114           
RFF0217100069029070      ERT      0000  956.44375000140000111120151800000002552395100W 1220000N                               
CUS0217100000102320142009         DAVID H FISHMAN     1900 SOUTH RD                           000N        CARE OF             
MTR02171000001000000000000000RA              78854464    005800990000009900000360000003NN  NNW 000                       N    
RDG02171000WATR 000000004R00000000000000044000011112015180000N000000000000N         000000400R 10000000010000000023           
RFF0217100069021621      ERT      0000  956.44375000140000111120151800000000441873100W 1220000N                               
CUS0217100000102320143007         DUGAN JR, HENRY E   1912 SOUTH RD                           000N        CARE OF             
MTR02171000001000000000000000RA              78858726    000101000000010000000360000003NN  NNW 000                       N    
RDG02171000WATR 000000004R00000000000000200000011112015180000N000000000000N         000000400R 10000000010000000086           
RFF0217100069018707      ERT      0000  956.44375000140000111120151800000002000828100W 1220000N                               
CUS0217100000102320144005         RIMAL, RAJIV        1918 SOUTH RD                           000N        CARE OF             
MTR02171000001000000000000000RA              78857370    005801010000010100000360000003NN  NNW 000                       N    
RDG02171000WATR 000000004R00000000000000018000011112015180000N000400000060N         000000400R 10000000010000000014           
RFF0217100069029667      ERT      0000  956.44375000140000111120151800000000188559100W 1220000N                               
CUS0217100000102320145002         MAGLIACANE, BETHANY 1920 SOUTH RD                           000N        CARE OF             
MTR02171000001000000000000000RA              78857344    005801020000010200000360000003NN  NNW 000                       N    
RDG02171000WATR 000000004R00000000000000060000011112015180000N000400000060N         000000400R 10000000010000000045           
RFF0217100069023757      ERT      0000  956.44375000140000111120151800000000609525100W 1220000N                               
CUS0217100000102320146000         BROWN, DAVID M      1922 SOUTH RD                           000N        CARE OF             
MTR02171000001000000000000000RA              78857367    005801030000010300000360000003NN  NNW 000                       N    
RDG02171000WATR 000000004R00000000000000056000011112015180000N000000000000N         000000400R 10000000010000000022           
RFF0217100069030089      ERT      0000  956.44375000140000111120151800000000568866100W 1220000N                               
CUS0217100000102320147008         COHEN, JOEL I       2000 SOUTH RD                           000N        CARE OF             
MTR02171000001000000000000000RA              78857361    005801040000010400000360000003NN  NNW 000                       N    
RDG02171000WATR 000000004R00000000000000051000011112015180000N000000000000N         000000400R 10000000010000000027           
RFF0217100069023731      ERT      0000  956.44375000140000111120151800000000517254100W 1220000N                               
CUS0217100000102320148006         HAMILTON, PALDEN T  2002 SOUTH RD                           000N        CARE OF             
MTR02171000001000000000000000RA              78857391    005801050000010500000360000003NN  NNW 000                       N    
RDG02171000WATR 000000004R00000000000000024000011112015180000N000000000000N         000000400R 10000000010000000013           
RFF0217100069024169      ERT      0000  956.44375000140000111120151800000000241523100W 1220000N                               
CUS0217100000102320149004         MCELROY, PATRICK W. 2004 SOUTH RD                           000N        CARE OF             
MTR02171000001000000000000000RA              78857394    005801060000010600000360000003NN  NNW 000                       N    
RDG02171000WATR 000000004R00000000000000034000011112015180000N000000000000N         000000400R 10000000010000000018           
RFF0217100069024213      ERT      0000  956.44375000140000111120151800000000348019100W 1220000N                               
CUS0217100000102320150002         ROUSOS, GREGORY B.  2006 SOUTH RD                           000N        CARE OF             
MTR02171000001000000000000000RA              78857396    005801070000010700000360000003NN  NNW 000                       N    
RDG02171000WATR 000000004R00000000000000052000011112015180000N000000000000N         000000400R 10000000010000000027           
RFF0217100069024177      ERT      0000  956.44375000140000111120151800000000520161100W 1220000N                               
CUS0217100000102320151000         BONO, STEPHEN       2008 SOUTH RD                           000N        CARE OF             
MTR02171000001000000000000000RA              78857369    005801080000010800000360000003NN  NNW 000                       N    
RDG02171000WATR 000000004R00000000000000031000011112015180000N000000000000N         000000400R 10000000010000000020           
RFF0217100069029737      ERT      0000  956.44375000140000111120151800000000317508100W 1220000N                               
CUS0217100000102320152008         BONO, STEPHEN       2010 SOUTH RD                           000N        CARE OF             
MTR02171000001000000000000000RA              00000000    005801090000010900000600000003NN  NNW 000   INVALID DAC         N    
RDG02171000WATRL000000004K00000000000000000000611132015084849S022000000000U40       000320400K 10000000010000000000           
CUS0217100000102320153006         BROOKS MANAGEMENT CO2007 SULGRAVE AVE                       000N        CARE OF             
MTR02171000001000000000000000RA              78027550    007501100000011000000360000003NN  NNW 000                       N    
RDG02171000WATR 000000004R00000000000000242000011112015180000N000000000000N         000000400R 10000000010000000130           
RFF0217100069015943      ERT      0000  956.44375000140000111120151800000002422690100W 1220000N                               
CUS0217100000102320154004         WEBER, PHILIP JAMES 1921 SULGRAVE AVE                       000N        CARE OF             
MTR02171000001000000000000000RA              78857382    005801110000011100000360000003NN  NNW 000                       N    
RDG02171000WATR 000000004R00000000000000032000011112015180000N000000000000N         000000400R 10000000010000000019           
RFF0217100069028097      ERT      0000  956.44375000140000111120151800000000321228100W 1220000N                               
CUS0217100000102320155001         ADACHI, TARO J      1909 SULGRAVE AVE                       000N        CARE OF             
MTR02171000001000000000000000RA              78857332    005801120000011200000360000003NN  NNW 000                       N    
RDG02171000WATR 000000004R00000000000000048000011112015180000N000000000000N         000000400R 10000000010000000030           
RFF0217100069023705      ERT      0000  956.44375000140000111120151800000000484297100W 1220000N                               
CUS0217100000102320156009         BECKER, BRENT A     1903 SULGRAVE AVE                       000N        CARE OF             
MTR02171000001000000000000000RA              01091686    005801130000011300000610000003NN  NNW 000                       N    
RDG02171000WATRL000000004K00000000000000000000000000000000000 000000000000U         000000400  10000000010000000703           
CUS0217100000102320157007         CHIB, VIKRAM S      1901 SULGRAVE AVE                       000N        CARE OF             
MTR02171000001000000000000000RA              78857379    005801140000011400000360000003NN  NNW 000                       N    
RDG02171000WATR 000000004R00000000000000017000011112015180000N000400000060N         000000400R 10000000010000000015           
RFF0217100069029660      ERT      0000  956.44375000140000111120151800000000174460100W 1220000N                               
CUS0217100000102320158005         YUSPEH, ALAN        1821 SULGRAVE AVE                       000N        CARE OF             
MTR02171000001000000000000000RA              78027516    007501150000011500000360000003NN  NNW 000                       N    
RDG02171000WATR 000000004R00000000000000121000011112015180000N000000000000N         000000400R 10000000010000000050           
RFF0217100069126369      ERT      0000  956.44375000140000111120151800000001210527100W 1220000N                               
CUS0217100000102397480001         FITZGERALD, TERRENCE1817 SULGRAVE AVE                       000N        CARE OF             
MTR02171000001000000000000000RA              79181159    005801160000011600000360000003NN  NNW 000                       N    
RDG02171000WATR 000000004R00000000000000002000011112015180000N000300000060N         000000400R 10000000010000000000           
RFF0217100070280525      ERT      0000  956.44375000140000111120151800000000029532100W 1220000N                               
CUS0217100000102422005005         LOVELAND, THOMAS W. 1709 SULGRAVE AVE                       000N        CARE OF             
MTR02171000001000000000000000RA              78857030    005801170000011700000360000003NN  NNW 000                       N    
RDG02171000WATR 000000004R00000000000000025000011112015180000N000000000000N         000000400R 10000000010000000013           
RFF0217100069030096      ERT      0000  956.44375000140000111120151800000000259853100W 1220000N                               
CUS0217100000102320160001         KAVRAN, JENNIFER MAR1707 SULGRAVE AVE                       000N        CARE OF             
MTR02171000001000000000000000RA              78022902    005801180000011800000360000003NN  NNW 000                       N    
RDG02171000WATR 000000004R00000000000000027000011112015180000N000000000000N         000000400R 10000000010000000017           
RFF0217100069028591      ERT      0000  956.44375000140000111120151800000000279887100W 1220000N                               
CUS0217100000102320161009         ATAS, JOSEPH MICHAEL1705 SULGRAVE AVE                       000N        CARE OF             
MTR02171000001000000000000000RA              78022901    005801190000011900000360000003NN  NNW 000                       N    
RDG02171000WATR 000000004R00000000000000029000011112015180000N000000000000N         000000400R 10000000010000000018           
RFF0217100069030582      ERT      0000  956.44375000140000111120151800000000290294100W 1220000N                               
CUS0217100000102320162007         DANENBERG LLC       1701 SULGRAVE AVE                       000N        CARE OF             
MTR02171000001000000000000000RA              78027542    007501200000012000000360000003NN  NNW 000                       N    
RDG02171000WATR 000000004R00000000000000152000011112015180000N000000000000N         000000400R 10000000010000000078           
RFF0217100069126129      ERT      0000  956.44375000140000111120151800000001526807100W 1220000N                               
CUS0217100000102320163005         BARBARA A GAVER     1621 SULGRAVE AVE                       000N        CARE OF             
MTR02171000001000000000000000RA              75424253    005801210000012100000350000003NN  NNW 000                       N    
RDG02171000WATR 000000004R00000000000000222000011112015180000N000000000000N         000000400R 10000000010000000204           
RFF0217100069029987      ERT      0000  956.44375000140000111120151800000002220929100W 1220000N                               
CUS0217100000102320164003         BARBARA A GAVER     1619 SULGRAVE AVE                       000N        CARE OF             
MTR02171000001000000000000000RA              75424258    005801220000012200000350000003NN  NNW 000                       N    
RDG02171000WATR 000000004R00000000000001323000011112015180000N000000000000N         000000400R 10000000010000001206           
RFF0217100069030022      ERT      0000  956.44375000140000111120151800000013232268100W 1220000N                               
CUS0217100000102320165000         RNFB, LLC           1617 SULGRAVE AVE                       000N        CARE OF             
MTR02171000001000000000000000RA              99999999    005801230000012300000620000003NN  NNW 000   INVALID DAC         N    
RDG02171000WATRL000000004K00000000000000000002011132015102255S022000000000U40       000800400K 10000000010000000000           
CUS0217100000102320166008         RNFB, LLC           1615 SULGRAVE AVE                       000N        CARE OF             
MTR02171000001000000000000000RA              41086071    005801240000012400000520000003NY  NNW 000                       N    
MTM0217100041086071    INVESTIGATE                                                                                            
RDG02171000WATRL000000004K00000000000000000000000000000000000 000000000000U         000000400  10000000010000004774           
CUS0217100000102320167006         ELSIE FERGUSSON     1611-13 SULGRAVE AVE                    000N        CARE OF             
MTR02171000001000000000000000RA              99291122    005801250000012500000570000003NY  NNW 000                       N    
MTM0217100099291122    78857329 RD 0005                                                                                       
RDG02171000WATRL000000004K00000000000000000000000000000000000 000000000000U         000000400  10000000010000000965           
CUS0217100000102320168004         S & Z SNOUSSI, LLC  1609 SULGRAVE AVE                       000N        CARE OF             
MTR02171000001000000000000000RA              78573156    005801260000012600000360000003NN  NNW 000                       N    
RDG02171000WATR 000000004R00000000000000115000011112015180000N000000000000N         000000400R 10000000010000000069           
RFF0217100069016612      ERT      0000  956.44375000140000111120151800000001154550100W 1220000N                               
CUS0217100000102320169002         1605 SULGRAVE, LLC  1607 SULGRAVE AVE                       000N        CARE OF             
MTR02171000001000000000000000RA              78555358    005801270000012700000360000003NN  NNW 000                       N    
RDG02171000WATR 000000004R00000000000000051000011112015180000N000000000000N         000000400R 10000000010000000023           
RFF0217100069028732      ERT      0000  956.44375000140000111120151800000000514178100W 1220000N                               
CUS0217100000102320170000         NEWBURY STREET, LLC 5614-18 NEWBURY ST                      000N        CARE OF             
MTR02171000001000000000000000RA              01071033    005801280000012800000610000003NN  NNW 000                       N    
RDG02171000WATRL000000004K00000000000001704001811132015102012N000000000000U40       001720400K 10000000010000001667           
CUS0217100000102320171008         MT. WASHINGTON REALT1600-12 KELLY AVE                       000N        CARE OF             
MTR02171000001000000000000000RA              78555486    005801290000012900000360000003NN  NNW 000                       N    
RDG02171000WATR 000000004R00000000000000559000011112015180000N000000000000N         000000400R 10000000010000000317           
RFF0217100069028680      ERT      0000  956.44375000140000111120151800000005592724100W 1220000N                               
CUS0217100000102320172006         IRVING BOWERS       1620 KELLY AVE                          000N        CARE OF             
MTR02171000001000000000000000RA              78573174    007501300000013000000360000003NN  NNW 000                       N    
RDG02171000WATR 000000004R00000000000000107000011112015180000N000100000060N         000000400R 10000000010000005700           
RFF0217100069016638      ERT      0000  956.44375000140000111120151800000001073611100W 1220000N                               
CUS0217100000102320174002         SULGRAVE ASSOCIATES,1500 SULGRAVE AVE                       000N        CARE OF             
MTR02171000001000000000000000RA              78022966    005801310000013100000360000003NN  NNW 000                       N    
RDG02171000WATR 000000004R00000000000000011000011112015180000N000000000000N         000000400R 10000000010000000007           
RFF0217100069028571      ERT      0000  956.44375000140000111120151800000000113219100W 1220000N                               
CUS0217100000102320175009         DK ROSE, LLC        5701 NEWBURY ST                         000N        CARE OF             
MTR02171000001000000000000000RA              00136929    005801320000013200000570000003NN  NNW 000                       N    
RDG02171000WATRL000000004K00000000000006867001911132015102135N000000000000U40       000830400K 10000000010000006757           
CUS0217100000102320177005         RZB ANIMAL MEDICAL C1620 SULGRAVE AVE                       000N        CARE OF             
MTR02171000001000000000000000RA              79142609    007501330000013300000360000003NN  NNW 000                       N    
RDG02171000WATR 000000004R00000000000000076000011112015180000N000100000060N         000000400R 10000000010000006167           
RFF0217100069126188      ERT      0000  956.44375000140000111120151800000000764982100W 1220000N                               
CUS0217100000102320178003         ALICE MEADORS MACK  2021 KELLY AVE                          000N        CARE OF             
MTR02171000001000000000000000RA              78857347    005801340000013400000360000003NN  NNW 000                       N    
RDG02171000WATR 000000004R00000000000000020000011112015180000N000300000060N         000000400R 10000000010000000000           
RFF0217100069023716      ERT      0000  956.44375000140000111120151800000000208220100W 1220000N                               
CUS0217100000102320179001         CARDWELL, TAVIAN    2017 KELLY AVE                          000N        CARE OF             
MTR02171000001000000000000000RA              78555378    005801350000013500000360000003NN  NNW 000                       N    
RDG02171000WATR 000000004R00000000000000012000011112015180000N000000000000N         000000400R 10000000010000000008           
RFF0217100069028729      ERT      0000  956.44375000140000111120151800000000127253100W 1220000N                               
CUS0217100000102436994004         COHEN, JEREMIAH Y   2013 KELLY AVE                          000N        CARE OF             
MTR02171000001000000000000000RA              78858105    005801360000013600000360000003NN  NNW 000                       N    
RDG02171000WATR 000000004R00000000000000020000011112015180000N000000000000N         000000400R 10000000010000000011           
RFF0217100069028579      ERT      0000  956.44375000140000111120151800000000209081100W 1220000N                               
CUS0217100000102437434000         LARKINS SR, STEPHEN 2015 KELLY AVE                          000N        CARE OF             
MTR02171000001000000000000000RA              78854463    005801370000013700000360000003NN  NNW 000                       N    
RDG02171000WATR 000000004R00000000000000047000011112015180000N000000000000N         000000400R 10000000010000000032           
RFF0217100069021618      ERT      0000  956.44375000140000111120151800000000476453100W 1220000N                               
CUS0217100000102320180009         SCRIMGER, KELLEY L  2011 KELLY AVE                          000N        CARE OF             
MTR02171000001000000000000000RA              76347416    005801380000013800000350000003NN  NNW 000                       N    
RDG02171000WATR 000000004R00000000000000039000011112015180000N000100000060N         000000400R 10000000010000000039           
RFF0217100069030614      ERT      0000  956.44375000140000111120151800000000392834100W 1220000N                               
CUS0217100000102320181007         LANGLIE, KAI A      2009 KELLY AVE                          000N        CARE OF             
MTR02171000001000000000000000RA              78022362    005801390000013900000360000003NN  NNW 000                       N    
RDG02171000WATR 000000004R00000000000000016000011112015180000N000000000000N         000000400R 10000000010000000010           
RFF0217100069029989      ERT      0000  956.44375000140000111120151800000000160664100W 1220000N                               
CUS0217100000102320182005         ALLENBY C BUTLER ETA2007 KELLY AVE                          000N        CARE OF             
MTR02171000001000000000000000RA              78854466    005801400000014000000360000003NN  NNW 000                       N    
RDG02171000WATR 000000004R00000000000000024000011112015180000N000000000000N         000000400R 10000000010000000014           
RFF0217100069021636      ERT      0000  956.44375000140000111120151800000000240124100W 1220000N                               
CUS0217100000102320183003         WOLFE, M TORREY     2005 KELLY AVE                          000N        CARE OF             
MTR02171000001000000000000000RA              78022363    005801410000014100000360000003NN  NNW 000   VACANT PROPERTY     N    
RDG02171000WATR 000000004R00000000000000000000011112015180000N000100000060N         000000400R 10000000010000000000           
RFF0217100069030617      ERT      0000  956.44375000140000111120151800000000000118100W 1220000N                               
CUS0217100000102441423007         MATTHEW QUARRICK    2003 KELLY AVE                          000N        CARE OF             
MTR02171000001000000000000000RA              78555494    005801420000014200000360000003NN  NNW 000                       N    
RDG02171000WATR 000000004R00000000000000038000011112015180000N000000000000N         000000400R 10000000010000000020           
RFF0217100069028715      ERT      0000  956.44375000140000111120151800000000382476100W 1220000N                               
CUS0217100000102320184001         BEACH, LISA L       2001 KELLY AVE                          000N        CARE OF             
MTR02171000001000000000000000RA              99290358    005801430000014300000570000003NN  NNW 000                       N    
RDG02171000WATRL000000004K00000000000000438002311132015103028N000000000000U40       001190400K 10000000010000000430           
CUS0217100000102320185008         SHIFFLETT, STEPHEN C1933 KELLY AVE                          000N        CARE OF             
MTR02171000001000000000000000RA              35118241    005801440000014400000520000003NY  NNW 000                       N    
MTM0217100035118241    78854465 RD 0030                                                                                       
RDG02171000WATRL000000004K00000000000000000000000000000000000 000000000000U         000000400  10000000010000002414           
CUS0217100000102425987001         RENFROW, JOHN R.    1931 KELLY AVE                          000N        CARE OF             
MTR02171000001000000000000000RA              78555496    005801450000014500000360000003NN  NNW 000                       N    
RDG02171000WATR 000000004R00000000000000002000011112015180000N000100000060N         000000400R 10000000010000000002           
RFF0217100069028529      ERT      0000  956.44375000140000111120151800000000025334100W 1220000N                               
CUS0217100000102420708006         MOREHEAD, SHIRLEY F.1927 KELLY AVE                          000N        CARE OF             
MTR02171000001000000000000000RA              78555491    005801460000014600000360000003NN  NNW 000                       N    
RDG02171000WATR 000000004R00000000000000032000011112015180000N000400000060N         000000400R 10000000010000000030           
RFF0217100069028698      ERT      0000  956.44375000140000111120151800000000328549100W 1220000N                               
CUS0217100000102380165007         CJB HOMES, LLC      1923 KELLY AVE                          000N        CARE OF             
MTR02171000001000000000000000RA              78747616    005801470000014700000360000003NN  NNW 000                       N    
RDG02171000WATR 000000004R00000000000000015000011112015180000N000000000000N         000000400R 10000000010000000008           
RFF0217100069023609      ERT      0000  956.44375000140000111120151800000000153340100W 1220000N                               
CUS0217100000102320186006         LAURENCE A BROWN    1921 KELLY AVE                          000N        CARE OF             
MTR02171000001000000000000000RA              78858106    005801480000014800000360000003NN  NNW 000                       N    
RDG02171000WATR 000000004R00000000000000011000011112015180000N000000000000N         000000400R 10000000010000000006           
RFF0217100069028559      ERT      0000  956.44375000140000111120151800000000112660100W 1220000N                               
CUS0217100000102320187004         KRAFT, DANA A.      1919 KELLY AVE                          000N        CARE OF             
MTR02171000001000000000000000RA              78858107    005801490000014900000360000003NN  NNW 000                       N    
RDG02171000WATR 000000004R00000000000000007000011112015180000N000000000000N         000000400R 10000000010000000004           
RFF0217100069028594      ERT      0000  956.44375000140000111120151800000000070628100W 1220000N                               
CUS0217100000102320188002         MOSS, MICHAEL W     1915 KELLY AVE                          000N        CARE OF             
MTR02171000001000000000000000RA              32900106    005801500000015000000520000003NN  NNW 000                       N    
RDG02171000WATRL000000004K00000000000004539002211132015102829N000000000000U40       000500400K 10000000010000004519           
CUS0217100000102391556004         ZALIVANSKY, ALBERT  1905 KELLY AVE                          000N        CARE OF             
MTR02171000001000000000000000RA              78555395    005801510000015100000360000003NN  NNW 000                       N    
RDG02171000WATRL000000004R00000000000000010002111132015102739N000000000000U40       002840400K 10000000010000000005           
RFF0217100069029937      ERT      0000  956.4437500014000000000000000000                  0001Y                               
CUS0217100000102320189000         BARBARA A GAVER     1712 SULGRAVE AVE                       000N        CARE OF             
MTR02171000001000000000000000RA              78856975    005801520000015200000360000003NN  NNW 000                       N    
RDG02171000WATR 000000004R00000000000000051000011112015180000N000000000000N         000000400R 10000000010000000029           
RFF0217100069030060      ERT      0000  956.44375000140000111120151800000000513477100W 1220000N                               
CUS0217100000102320190008         SENA, DAVID         1714 SULGRAVE AVE                       000N        CARE OF             
MTR02171000001000000000000000RA              78857719    005801530000015300000360000003NN  NNW 000                       N    
RDG02171000WATR 000000004R00000000000000043000011112015180000N000000000000N         000000400R 10000000010000000024           
RFF0217100069030003      ERT      0000  956.44375000140000111120151800000000430604100W 1220000N                               
CUS0217100000102320191006         SENA, DAVID M.      1716 SULGRAVE AVE                       000N        CARE OF             
MTR02171000001000000000000000RA              78027561    007501540000015400000360000003NN  NNW 000                       N    
RDG02171000WATR 000000004R00000000000000017000011112015180000N000000000000N         000000400R 10000000010000000009           
RFF0217100069125841      ERT      0000  956.44375000140000111120151800000000170884100W 1220000N                               
CUS0217100000102320192004         HAMMOND, JULIAN     1718 SULGRAVE AVE                       000N        CARE OF             
MTR02171000001000000000000000RA              00120896    007501550000015500000570000003NN  NNW 000                       N    
RDG02171000WATRL000000004K00000000000000355002411132015103306N000000000000U40       001580400K 10000000010000000352           
CUS0217100000102320193002         CLARK, TRACEY A.    1808 SULGRAVE AVE                       000N        CARE OF             
MTR02171000001000000000000000RA              78027547    007501560000015600000360000003NN  NNW 000                       N    
RDG02171000WATR 000000004R00000000000000030000011112015180000N000000000000N         000000400R 10000000010000000018           
RFF0217100069015525      ERT      0000  956.44375000140000111120151800000000306069100W 1220000N                               
CUS0217100000102320194000         LLOYD, RICHARD E.   1812 SULGRAVE AVE                       000N        CARE OF             
MTR02171000001000000000000000RA              78027509    007501570000015700000360000003NN  NNW 000                       N    
RDG02171000WATR 000000004R00000000000000018000011112015180000N000000000000N         000000400R 10000000010000000011           
RFF0217100069126364      ERT      0000  956.44375000140000111120151800000000182484100W 1220000N                               
CUS0217100000102320195007         1814 SULGRAVE, LLC  1814 SULGRAVE AVE                       000N        CARE OF             
MTR02171000001000000000000000RA              78027563    007501580000015800000360000003NN  NNW 000                       N    
RDG02171000WATR 000000004R00000000000000083000011112015180000N000000000000N         000000400R 10000000010000000041           
RFF0217100069015608      ERT      0000  956.44375000140000111120151800000000836239100W 1220000N                               
CUS0217100000102320196005         BURKE, JOSHUA A     1816 SULGRAVE AVE                       000N        CARE OF             
MTR02171000001000000000000000RA              78857348    005801590000015900000360000003NN  NNW 000                       N    
RDG02171000WATR 000000004R00000000000000030000011112015180000N000000000000N         000000400R 10000000010000000015           
RFF0217100069023689      ERT      0000  956.44375000140000111120151800000000306430100W 1220000N                               
CUS0217100000102320197003         ESTAN, LLC          1900 SULGRAVE AVE                       000N        CARE OF             
MTR02171000001000000000000000RA              78858690    000101600000016000000360000003NN  NNW 000                       N    
RDG02171000WATR 000000004R00000000000000134000011112015180000N000000000000N         000000400R 10000000010000000062           
RFF0217100069017903      ERT      0000  956.44375000140000111120151800000001340586100W 1220000N                               
CUS0217100000102320198001         BERMAN, BRIAN       1904 SULGRAVE AVE                       000N        CARE OF             
MTR02171000001000000000000000RA              78857380    005801610000016100000360000003NN  NNW 000                       N    
RDG02171000WATR 000000004R00000000000000027000011112015180000N000000000000N         000000400R 10000000010000000011           
RFF0217100069028102      ERT      0000  956.44375000140000111120151800000000273770100W 1220000N                               
CUS0217100000102320199009         PAUL J DAGDIGIAN & W1906 SULGRAVE AVE                       000N        CARE OF             
MTR02171000001000000000000000RA              78857365    005801620000016200000360000003NN  NNW 000                       N    
RDG02171000WATR 000000004R00000000000000038000011112015180000N000000000000N         000000400R 10000000010000000019           
RFF0217100069030011      ERT      0000  956.44375000140000111120151800000000388852100W 1220000N                               
CUS0217100000102320200005         ESTAN, LLC          1908 SULGRAVE AVE                       000N        CARE OF             
MTR02171000001000000000000000RA              39257702    007501630000016300000520000003NN  NNW 000                       N    
RDG02171000WATRL000000004K00000000000002068002511132015103542N000000000010U40       001560400K 10000000010000002036           
CUS0217100000102320201003         ESTAN, LLC          1910 SULGRAVE AVE                       000N        CARE OF             
MTR02171000001000000000000000RA              35109525    005801640000016400000520000003NN  NNW 000                       N    
RDG02171000WATRL000000004K00000000000000000002611132015103623S005000000000U40       000410400K 10000000010000006778           
CUS0217100000102377783002         ESTAN, LLC          1912 SULGRAVE AVE                       000N        CARE OF             
MTR02171000001000000000000000RA              45388067    007501650000016500000520000003NY  NNW 000                       N    
MTM0217100045388067    78027539 RD 0046                                                                                       
RDG02171000WATRL000000004K00000000000000000000000000000000000 000000000000U         000000400  10000000010000004890           
CUS0217100000102320202001         ESTAN, LLC          1914 SULGRAVE AVE                       000N        CARE OF             
MTR02171000001000000000000000RA              78857395    005801660000016600000360000003NN  NNW 000                       N    
RDG02171000WATR 000000004R00000000000000070000011112015180000N000400000060N         000000400R 10000000010000000055           
RFF0217100069024166      ERT      0000  956.44375000140000111120151800000000700874100W 1220000N                               
CUS0217100000102320203009         MCKISSOCK JR, DAVID 1918 SULGRAVE AVE                       000N        CARE OF             
MTR02171000001000000000000000RA              78027507    007501670000016700000360000003NN  NNW 000                       N    
RDG02171000WATR 000000004R00000000000000032000011112015180000N000000000000N         000000400R 10000000010000000016           
RFF0217100069126030      ERT      0000  956.44375000140000111120151800000000321986100W 1220000N                               
CUS0217100000102320204007         HENRY T HARBIN & WF 2002 SULGRAVE AVE                       000N        CARE OF             
MTR02171000001000000000000000RA              75614871    005801680000016800000350000003NN  NNW 000                       N    
RDG02171000WATR 000000004R00000000000000170000011112015180000N000000000000N         000000400R 10000000010000000153           
RFF0217100069029696      ERT      0000  956.44375000140000111120151800000001704616100W 1220000N                               
CUS0217100000102320205004         KOLODNER, F. KIRK   2006 SULGRAVE AVE                       000N        CARE OF             
MTR02171000001000000000000000RA              00118296    007501690000016900000570000003NN  NNW 000                       N    
RDG02171000WATRL000000004K00000000000001377002711132015103832N000000000000U40       001290400K 10000000010000001359           
CUS0217100000102320206002         MAYRER, ANDREW R    2010 SULGRAVE AVE                       000N        CARE OF             
MTR02171000001000000000000000RA              78027562    007501700000017000000360000003NN  NNW 000                       N    
RDG02171000WATR 000000004R00000000000000202000011112015180000N000000000000N         000000400R 10000000010000000127           
RFF0217100069015593      ERT      0000  956.44375000140000111120151800000002020562100W 1220000N                               
CUS0217100000102320207000         GELBLUM, STEVEN M   5604 S BEND RD                          000N        CARE OF             
MTR02171000001000000000000000RA              78857003    005801710000017100000360000003NN  NNW 000                       N    
RDG02171000WATR 000000004R00000000000000060000011112015180000N000000000000N         000000400R 10000000010000000030           
RFF0217100069028107      ERT      0000  956.44375000140000111120151800000000606472100W 1220000N                               
CUS0217100000102320208008         BOWERS, SHIRLEY J   5600 S BEND RD                          000N        CARE OF             
MTR02171000001000000000000000RA              78856973    005801720000017200000360000003NN  NNW 000                       N    
RDG02171000WATR 000000004R00000000000000022000011112015170000N000000000000N         000000400R 10000000010000000012           
RFF0217100069029955      ERT      0000  956.44375000140000111120151700000000226302100W 1220000N                               
CUS0217100000102320209006         DAVID K NOJI & WF   2102 CARTERDALE RD                      000N        CARE OF             
MTR02171000001000000000000000RA              78856972    005801730000017300000360000003NN  NNW 000                       N    
RDG02171000WATR 000000004R00000000000000030000011112015180000N000000000000N         000000400R 10000000010000000015           
RFF0217100069030080      ERT      0000  956.44375000140000111120151800000000305529100W 1220000N                               
CUS0217100000102320210004         HUBER, CHRISTOPHER J2104 CARTERDALE RD                      000N        CARE OF             
MTR02171000001000000000000000RA              00136165    005801740000017400000570000003NY  NNW 000                       N    
MTM0217100000136165    78857062 RD 0032                                                                                       
RDG02171000WATRL000000004K00000000000000000000000000000000000 000000000000U         000000400  10000000010000000954           
CUS0217100000102320211002         MILLER, MARVIN N    2106 CARTERDALE RD                      000N        CARE OF             
MTR02171000001000000000000000RA              78857051    005801750000017500000360000003NN  NNW 000                       N    
RDG02171000WATRL000000004R00000000000000012000911132015090644N000000000000U40       006430400K 10000000010000000007           
RFF0217100069029433      ERT      0000  956.4437500014000000000000000000                  0001Y                               
CUS0217100000102320212000         AMSEL, ROBERT J     2108 CARTERDALE RD                      000N        CARE OF             
MTR02171000001000000000000000RA              78856988    005801760000017600000360000003NN  NNW 000                       N    
RDG02171000WATR 000000004R00000000000000017000011112015160000N000400000060N         000000400R 10000000010000000014           
RFF0217100069030136      ERT      0000  956.44375000140000111120151600000000173357100W 1220000N                               
CUS0217100000102320213008         DR HOWARD I WOOLF   2110 CARTERDALE RD                      000N        CARE OF             
MTR02171000001000000000000000RA              79185485    005801770000017700000360000003NN  NNW 000                       N    
RDG02171000WATR 000000004R00000000000000042000011112015180000N000000000000N         000000400R 10000000010000000019           
RFF0217100069126035      ERT      0000  956.44375000140000111120151800000000421560100W 1220000N                               
CUS0217100000102320214006         IGLEHART, KENNETH   2111 CARTERDALE RD                      000N        CARE OF             
MTR02171000001000000000000000RA              78573159    007501780000017800000360000003NN  NNW 000                       N    
RDG02171000WATR 000000004R00000000000000115000011112015180000N000000000000N         000000400R 10000000010000000072           
RFF0217100069017887      ERT      0000  956.44375000140000111120151800000001157820100W 1220000N                               
CUS0217100000102320215003         STEINMETZ, JAY      2109 CARTERDALE RD                      000N        CARE OF             
MTR02171000001000000000000000RA              78858442    007501790000017900000360000003NN  NNW 000                       N    
RDG02171000WATR 000000004R00000000000000025000011112015180000N000000000000N         000000400R 10000000010000000012           
RFF0217100068984885      ERT      0000  956.44375000140000111120151800000000250630100W 1220000N                               
CUS0217100000102320216001         VICTOR H DATES      2107 CARTERDALE RD                      000N        CARE OF             
MTR02171000001000000000000000RA              78758364    007501800000018000000360000003NN  NNW 000                       N    
RDG02171000WATR 000000004R00000000000000018000011112015180000N000000000000N         000000400R 10000000010000000010           
RFF0217100069021860      ERT      0000  956.44375000140000111120151800000000183215100W 1220000N                               
CUS0217100000102320217009         WISNER-CARLSON, R. W2105 CARTERDALE RD                      000N        CARE OF             
MTR02171000001000000000000000RA              78856985    005801810000018100000360000003NN  NNW 000                       N    
RDG02171000WATR 000000004R00000000000000082000011112015180000N000000000000N         000000400R 10000000010000000048           
RFF0217100069030110      ERT      0000  956.44375000140000111120151800000000828991100W 1220000N                               
CUS0217100000102320218007         STAUB, MONICA A.    2101 CARTERDALE RD                      000N        CARE OF             
MTR02171000001000000000000000RA              78857052    005801820000018200000360000003NN  NNW 000                       N    
RDG02171000WATR 000000004R00000000000000022000011112015180000N000000000000N         000000400R 10000000010000000011           
RFF0217100069030158      ERT      0000  956.44375000140000111120151800000000221646100W 1220000N                               
CUS0217100000102320219005         WHITE, LINDSEY A    5514 S BEND RD                          000N        CARE OF             
MTR02171000001000000000000000RA              78573178    007501830000018300000360000003NN  NNW 000                       N    
RDG02171000WATR 000000004R00000000000000040000011112015180000N000000000000N         000000400R 10000000010000000021           
RFF0217100069017828      ERT      0000  956.44375000140000111120151800000000409326100W 1220000N                               
CUS0217100000102320220003         NATHANS, JEREMY H   5510 S BEND RD                          000N        CARE OF             
MTR02171000001000000000000000RA              78856974    005801840000018400000360000003NN  NNW 000                       N    
RDG02171000WATR 000000004R00000000000000030000011112015180000N000300000030N         000000400R 10000000010000000010           
RFF0217100069022844      ERT      0000  956.44375000140000111120151800000000302271100W 1220000N                               
CUS0217100000102320221001         MAYS, SALLY ANN     5508 S BEND RD                          000N        CARE OF             
MTR02171000001000000000000000RA              78856986    005801850000018500000360000003NN  NNW 000                       N    
RDG02171000WATR 000000004R00000000000000027000011112015180000N000000000000N         000000400R 10000000010000000015           
RFF0217100069030104      ERT      0000  956.44375000140000111120151800000000273715100W 1220000N                               
CUS0217100000102320222009         LICHTINGER, PAUL M  5506 S BEND RD                          000N        CARE OF             
MTR02171000001000000000000000RA              76346928    005801860000018600000350000003NN  NNW 000                       N    
RDG02171000WATR 000000004R00000000000000070000011112015180000N000000000000N         000000400R 10000000010000000054           
RFF0217100069030018      ERT      0000  956.44375000140000111120151800000000700628100W 1220000N                               
CUS0217100000102320223007         WIRTZ, ROBERT J     5504 S BEND RD                          000N        CARE OF             
MTR02171000001000000000000000RA              78856976    005801870000018700000360000003NN  NNW 000                       N    
RDG02171000WATR 000000004R00000000000000026000011112015180000N000400000060N         000000400R 10000000010000000019           
RFF0217100069030315      ERT      0000  956.44375000140000111120151800000000265606100W 1220000N                               
CUS0217100000102320224005         HARRIS, JOHN        5502 S BEND RD                          000N        CARE OF             
MTR02171000001000000000000000RA              78857054    005801880000018800000360000003NN  NNW 000                       N    
RDG02171000WATR 000000004R00000000000000043000011112015180000N000000000000N         000000400R 10000000010000000023           
RFF0217100069030115      ERT      0004  956.44375000140000111120151800000000439540100W 1220000N                               
CUS0217100000102320225002         MORTON BARRON       2100 W ROGERS AVE                       000N        CARE OF             
MTR02171000001000000000000000RA              78856269    005801890000018900000360000003NN  NNW 000                       N    
RDG02171000WATR 000000004R00000000000000000000011112015170000N000100000060N         000000400R 10000000010000000000           
RFF0217100069029393      ERT      0000  956.44375000140000111120151700000000000020100W 1220000N                               
CUS0217100000102320226000         FISHER, JOSHUA KEKOA2104 W ROGERS AVE                       000N        CARE OF             
MTR02171000001000000000000000RA              78573190    007501900000019000000360000003NN  NNW 000                       N    
RDG02171000WATR 000000004R00000000000000033000011112015180000N000000000000N         000000400R 10000000010000000020           
RFF0217100069028970      ERT      0000  956.44375000140000111120151800000000337196100W 1220000N                               
CUS0217100000102320227008         CHARLES, DEBRA G    2108 W ROGERS AVE                       000N        CARE OF             
MTR02171000001000000000000000RA              79211109    005801910000019100000360000003NN  NNW 000                       N    
RDG02171000WATR 000000004R00000000000000017000011112015180000N000000000000N         000000400R 10000000010000000004           
RFF0217100069369460      ERT      0000  956.44375000140000111120151800000000170538100W 1220000N                               
CUS0217100000102320228006         CASTLEN, TIMOTHY J  5601 WEXFORD RD                         000N        CARE OF             
MTR02171000001000000000000000RA              78027606    007501920000019200000360000003NN  NNW 000                       N    
RDG02171000WATR 000000004R00000000000000063000011112015180000N000000000000N         000000400R 10000000010000000038           
RFF0217100069127930      ERT      0000  956.44375000140000111120151800000000630657100W 1220000N                               
CUS0217100000102320229004         KIRBY D SMITH & WF  5603 WEXFORD RD                         000N        CARE OF             
MTR02171000001000000000000000RA              78027519    007501930000019300000360000003NN  NNW 000                       N    
RDG02171000WATR 000000004R00000000000000029000011112015180000N000000000000N         000000400R 10000000010000000015           
RFF0217100069023417      ERT      0000  956.44375000140000111120151800000000295678100W 1220000N                               
CUS0217100000102320230002         SEIFRIED, DENISE    5605 WEXFORD RD                         000N        CARE OF             
MTR02171000001000000000000000RA              78857720    005801940000019400000360000003NN  NNW 000                       N    
RDG02171000WATR 000000004R00000000000000010000011112015180000N000000000000N         000000400R 10000000010000000006           
RFF0217100069030434      ERT      0000  956.44375000140000111120151800000000105622100W 1220000N                               
CUS0217100000102320231000         JAMES L GINSBURG & W5604 WEXFORD RD                         000N        CARE OF             
MTR02171000001000000000000000RA              78855384    005801950000019500000360000003NN  NNW 000                       N    
RDG02171000WATR 000000004R00000000000000053000011112015180000N000000000000N         000000400R 10000000010000000031           
RFF0217100069022377      ERT      0000  956.44375000140000111120151800000000533519100W 1220000N                               
CUS0217100000102320232008         MARTICK, ALEXANDER R5602 WEXFORD RD                         000N        CARE OF             
MTR02171000001000000000000000RA              14903083    005801960000019600000310000003NN  NNW 000                       N    
RDG02171000WATRL000000004K00000000000000588000811132015085601N000003200000U40       002340400K 10000000010000000567           
CUS0217100000102320233006         FLORENCE MARTICK    5603 KENFORD RD                         000N        CARE OF             
MTR02171000001000000000000000RA              10006528    005801970000019700000570000003NY  NNW 000                       N    
MTM0217100010006528    78857053 RD 0000                                                                                       
RDG02171000WATRL000000004K00000000000000000000000000000000000 000000000000U         000000400  10000000010000000000           
CUS0217100000102320234004         DANENBERG LLC       5600 WEXFORD RD                         000N        CARE OF             
MTR02171000001000000000000000RA              78027587    007501980000019800000360000003NN  NNW 000                       N    
RDG02171000WATR 000000004R00000000000000118000011112015180000N000000000000N         000000400R 10000000010000000063           
RFF0217100069128112      ERT      0000  956.44375000140000111120151800000001184170100W 1220000N                               
CUS0217100000108357872004         GANN, GREGORY E     5503 WEXFORD RD                         000N        CARE OF             
MTR02171000001000000000000000RA              78857010    005801990000019900000360000003NN  NNW 000                       N    
RDG02171000WATR 000000004R00000000000000055000011112015180000N000000000000N         000000400R 10000000010000000025           
RFF0217100069028106      ERT      0000  956.44375000140000111120151800000000557377100W 1220000N                               
CUS0217100000102397159001         MICHAEL L MARK      5505 WEXFORD RD                         000N        CARE OF             
MTR02171000001000000000000000RA              76348503    005802000000020000000350000003NN  NNW 000                       N    
RDG02171000WATR 000000004R00000000000000119000011112015180000N000000000000N         000000400R 10000000010000000101           
RFF0217100069030506      ERT      0000  956.44375000140000111120151800000001195588100W 1220000N                               
CUS0217100000102320235001         PRICE-SCUNGIO, CHERY5504 WEXFORD RD                         000N        CARE OF             
MTR02171000001000000000000000RA              78027628    007502010000020100000360000003NN  NNW 000                       N    
RDG02171000WATR 000000004R00000000000000037000011112015180000N000000000000N         000000400R 10000000010000000020           
RFF0217100069024637      ERT      0000  956.44375000140000111120151800000000374367100W 1220000N                               
