FHDNNNN013002778002778002803N                                                                                           008425
RHD08558000NN02570257000002570000000002570257000207NY025702570257000000000000000000000000000002    10282014NY020000 N         
CUS0855800000108021481000         TUCKER EDWARD       1012 SANBOURNE RD                       000N        CARE OF             
MTR08558000001000000000000000RA              24768720    005800010000000100000520000003NN  NNW 000                       N    
RDG08558000WATRL000000004K00000000000003405000111142014105123N000000000000N88       000000400K 10000000010000003405           
CUS0855800000108021482008         SCHMIDT MARCELLA N  1010 SANBOURNE RD                       000N        CARE OF             
MTR08558000001000000000000000RA              24768346    005800020000000200000520000003NN  NNW 000                       N    
RDG08558000WATRL000000004K00000000000001634000611142014105641N000000000000N88       001640400K 10000000010000001631           
CUS0855800000108021483006         JEFFERSON ERIC KEITH1008 SANBOURNE RD                       000N        CARE OF             
MTR08558000001000000000000000RA              44179411    005800030000000300000520000003NN  NNW 000                       N    
RDG08558000WATRL000000004K00000000000001868000511142014105357N000000000000N88       000080400K 10000000010000001860           
CUS0855800000108021484004         BLACKER GAIL S      1006 SANBOURNE RD                       000N        CARE OF             
MTR08558000001000000000000000RA              44179442    005800040000000400000520000003NN  NNW 000                       N    
RDG08558000WATRL000000004K00000000000001514000411142014105349N000000000000N88       000410400K 10000000010000001501           
CUS0855800000108021485001         PAUL DOTOLO         1004 SANBOURNE RD                       000N        CARE OF             
MTR08558000001000000000000000RA              45375340    005800050000000500000520000003NN  NNW 000                       N    
RDG08558000WATRL000000004K00000000000002167000211142014105304N000000000000N88       001010400K 10000000010000002162           
CUS0855800000108021486009         FELTON MARK A       1002 SANBOURNE RD                       000N        CARE OF             
MTR08558000001000000000000000RA              45375390    005800060000000600000520000003NN  NNW 000                       N    
RDG08558000WATRL000000004K00000000000001446000311142014105308N000000000000N88       000040400K 10000000010000001428           
CUS0855800000108021487007         ERIC W SIMMONS SR   1000 SANBOURNE RD                       000N        CARE OF             
MTR08558000001000000000000000RA              45375393    005800070000000700000520000000NN  NNW 000                       N    
RDG08558000WATRL000000004K00000000000001969000711142014105800N000000000000N88       000790400K 10000000010000001939           
CUS0855800000108021488005         HUNTER LORI         1196 ST AGNES LN                        000N        CARE OF             
MTR08558000001000000000000000RA              39925294    005800080000000800000520000003NN  NNW 000                       N    
RDG08558000WATRL000000004K00000000000002685000811142014105849N000000000000N88       000490400K 10000000010000002646           
CUS0855800000108021489003         STAPLETON MELLANIE M1194 ST AGNES LN                        000N        CARE OF             
MTR08558000001000000000000000RA              44086916    005800090000000900000520000003NN  NNW 000                       N    
RDG08558000WATRL000000004K00000000000001972000911142014105855N000000000000N88       000060400K 10000000010000001939           
CUS0855800000108021490001         CHALK VERNA P       1192 ST AGNES LN                        000N        CARE OF             
MTR08558000001000000000000000RA              44086914    005800100000001000000520000003NN  NNW 000                       N    
RDG08558000WATRL000000004K00000000000002236001011142014105930N000000000000N88       000350400K 10000000010000002220           
CUS0855800000108021491009         BOURGEOIS MARY E    1190 ST AGNES LN                        000N        CARE OF             
MTR08558000001000000000000000RA              44086915    005800110000001100000520000003NN  NNW 000                       N    
RDG08558000WATRL000000004K00000000000001612001111142014105934N000000000000N88       000040400K 10000000010000001602           
CUS0855800000108021492007         LIKA FU             1188 ST AGNES LN                        000N        CARE OF             
MTR08558000001000000000000000RA              45375392    005800120000001200000520000003NN  NNW 000                       N    
RDG08558000WATRL000000004K00000000000002449001211142014110008N000000000010N88       000340400K 10000000010000002448           
CUS0855800000108021493005         BARNES EARL         1186 ST AGNES LN                        000N        CARE OF             
MTR08558000001000000000000000RA              45375345    005800130000001300000520000003NN  NNW 000                       N    
RDG08558000WATRL000000004K00000000000001655001311142014110015N000000000000N88       000070400K 10000000010000001639           
CUS0855800000108021494003         DUNCAN DELLA Y      1184 ST AGNES LN                        000N        CARE OF             
MTR08558000001000000000000000RA              24767770    005800140000001400000520000003NN  NNW 000                       N    
RDG08558000WATRL000000004K00000000000001628001411142014110045N000000000000N88       000300400K 10000000010000001622           
CUS0855800000108021495000         BROWN WILLIAM P     1182 ST AGNES LN                        000N        CARE OF             
MTR08558000001000000000000000RA              35102929    005800150000001500000520000003NN  NNW 000                       N    
RDG08558000WATRL000000004K00000000000002190001511142014110125N000000000000N88       000400400K 10000000010000002172           
CUS0855800000108021496008         STEVENS QUINTIN V   1180 ST AGNES LN                        000N        CARE OF             
MTR08558000001000000000000000RA              35102924    005800160000001600000520000003NN  NNW 000                       N    
RDG08558000WATRL000000004K00000000000004600001611142014110136N000000000000N88       000110400K 10000000010000004582           
CUS0855800000108021497006         BURNEY CYNTHIA R    1178 ST AGNES LN                        000N        CARE OF             
MTR08558000001000000000000000RA              35106806    005800170000001700000520000003NN  NNW 000                       N    
RDG08558000WATRL000000004K00000000000002153001711142014110224N000000000000N88       000480400K 10000000010000002146           
CUS0855800000108021498004         BAKER KATHLEEN S    1176 ST AGNES LN                        000N        CARE OF             
MTR08558000001000000000000000RA              35106809    005800180000001800000520000003NN  NNW 000                       N    
RDG08558000WATRL000000004K00000000000003059001811142014110230N000000000000N88       000060400K 10000000010000003043           
CUS0855800000108021499002         BETHEL CUTINA J     1174 ST AGNES LN                        000N        CARE OF             
MTR08558000001000000000000000RA              44086917    005800190000001900000520000003NN  NNW 000                       N    
RDG08558000WATRL000000004K00000000000003804001911142014110315N000000000000N88       000450400K 10000000010000003794           
CUS0855800000108021500007         DUMAS DENISE        1172 ST AGNES LN                        000N        CARE OF             
MTR08558000001000000000000000RA              44086913    005800200000002000000520000003NN  NNW 000                       N    
RDG08558000WATRL000000004K00000000000001854002011142014110320N000000000000N88       000050400K 10000000010000001840           
CUS0855800000108021501005         JOHNSON LENNEL KENNE1170 ST AGNES LN                        000N        CARE OF             
MTR08558000001000000000000000RA              44086123    005800210000002100000520000003NN  NNW 000                       N    
RDG08558000WATRL000000004K00000000000001413002111142014110403N000000000000N88       000430400K 10000000010000001407           
CUS0855800000108021502003         FAIR BRYANT         1168 ST AGNES LN                        000N        CARE OF             
MTR08558000001000000000000000RA              24224847    005800220000002200000520000003NN  NNW 000                       N    
RDG08558000WATRL000000004K00000000000003994002211142014110450N000000000010N88       000470400K 10000000010000003969           
CUS0855800000108021503001         JOHNSON CAVELL      1166 ST AGNES LN                        000N        CARE OF             
MTR08558000001000000000000000RA              44086912    005800230000002300000520000003NN  NNW 000                       N    
RDG08558000WATRL000000004K00000000000002078002311142014110501N000000000000N88       000110400K 10000000010000002054           
CUS0855800000108021504009         MITCHELL ANGELA C   1164 ST AGNES LN                        000N        CARE OF             
MTR08558000001000000000000000RA              14905905    005800240000002400000310000003NN  NNW 000                       N    
RDG08558000WATRL000000004K00000000000000643002411142014110542N000000000000N88       000410400K 10000000010000000634           
CUS0855800000108021505006         ROGERS VICTOR L     1162 ST AGNES LN                        000N        CARE OF             
MTR08558000001000000000000000RA              40049263    005800250000002500000520000003NN  NNW 000                       N    
RDG08558000WATRL000000004K00000000000001668002511142014110546N000000000000N88       000040400K 10000000010000001650           
CUS0855800000108021506004         RANDOLPH ROBERT     1160 ST AGNES LN                        000N        CARE OF             
MTR08558000001000000000000000RA              39290031    005800260000002600000520000003NN  NNW 000                       N    
RDG08558000WATRL000000004K00000000000002519002611142014110642N000000000000N88       000560400K 10000000010000002511           
CUS0855800000108021507002         BYRD RENETTE CECILIA1158 ST AGNES LN                        000N        CARE OF             
MTR08558000001000000000000000RA              39290029    005800270000002700000520000003NN  NNW 000                       N    
RDG08558000WATRL000000004K00000000000002720002711142014110648N000000000000N88       000060400K 10000000010000002679           
CUS0855800000108021508000         HOFFMAN ROBERT E    1156 ST AGNES LN                        000N        CARE OF             
MTR08558000001000000000000000RA              45375342    005800280000002800000520000003NN  NNW 000                       N    
RDG08558000WATRL000000004K00000000000001674002811142014110730N000000000000N88       000420400K 10000000010000001670           
CUS0855800000108021509008         CHUNG TIMOTHY       1154 ST AGNES LN                        000N        CARE OF             
MTR08558000001000000000000000RA              45375389    005800290000002900000520000003NN  NNW 000                       N    
RDG08558000WATRL000000004K00000000000002250002911142014110820N000000000000N88       000500400K 10000000010000002244           
CUS0855800000108021510006         STRUBE MARK W       1152 ST AGNES LN                        000N        CARE OF             
MTR08558000001000000000000000RA              39289840    005800300000003000000520000003NN  NNW 000                       N    
RDG08558000WATRL000000004K00000000000001926003111142014110938N000000000000N88       000080400K 10000000010000001917           
CUS0855800000108021511004         ROZZELL LORETTA A   1150 ST AGNES LN                        000N        CARE OF             
MTR08558000001000000000000000RA              39290026    005800310000003100000520000003NN  NNW 000                       N    
RDG08558000WATRL000000004K00000000000004532003011142014110930N000000000000N88       000700400K 10000000010000004494           
CUS0855800000108021512002         SCOTT LISA MILLER   1148 ST AGNES LN                        000N        CARE OF             
MTR08558000001000000000000000RA              41589645    005800320000003200000520000003NN  NNW 000                       N    
RDG08558000WATRL000000004K00000000000003144003211142014111011N000000000000N88       000330400K 10000000010000003133           
CUS0855800000108021513000         BUTLER DEBRA R      1146 ST AGNES LN                        000N        CARE OF             
MTR08558000001000000000000000RA              41589646    005800330000003300000520000003NN  NNW 000                       N    
RDG08558000WATRL000000004K00000000000001874003311142014111015N000000000000N88       000040400K 10000000010000001855           
CUS0855800000108021514008         HARPER KIM L        1144 ST AGNES LN                        000N        CARE OF             
MTR08558000001000000000000000RA              27813796    005800340000003400000520000003NN  NNW 000                       N    
RDG08558000WATRL000000004K00000000000002849003411142014111051N000100000010N88       000360400K 10000000010000002849           
CUS0855800000108021515005         BROWN ADRIENNE P    1142 ST AGNES LN                        000N        CARE OF             
MTR08558000001000000000000000RA              44174952    005800350000003500000520000003NN  NNW 000                       N    
RDG08558000WATRL000000004K00000000000002343003511142014111055N000000000000N88       000040400K 10000000010000002325           
CUS0855800000108021516003         SMINK DOROTHY I     1140 ST AGNES LN                        000N        CARE OF             
MTR08558000001000000000000000RA              38984014    005800360000003600000520000003NN  NNW 000                       N    
RDG08558000WATRL000000004K00000000000002852003811142014111536N000000000000N88       000440400K 10000000010000002828           
CUS0855800000108021517001         COOK THOMAS L       1138 ST AGNES LN                        000N        CARE OF             
MTR08558000001000000000000000RA              44091614    005800370000003700000520000003NN  NNW 000                       N    
RDG08558000WATRL000000004K00000000000002454003611142014111438N000000000000N88       002230400K 10000000010000002428           
CUS0855800000108021518009         ODEN JOSEPH C JR    1136 ST AGNES LN                        000N        CARE OF             
MTR08558000001000000000000000RA              30515820    005800380000003800000520000003NN  NNW 000                       N    
RDG08558000WATRL000000004K00000000000001968003711142014111452N000000000000N88       000140400K 10000000010000001953           
CUS0855800000108021519007         NAAC PHRG           1134 ST AGNES LN                        000N        CARE OF             
MTR08558000001000000000000000RA              10001117    005800390000003900000570000003NN  NNW 000                       N    
RDG08558000WATRL000000004K00000000000002634003911142014111621N000000000000N88       000450400K 10000000010000002623           
CUS0855800000108021520005         MICHELLE L. JENKINS 1132 ST AGNES LN                        000N        CARE OF             
MTR08558000001000000000000000RA              10001381    005800400000004000000570000003NN  NNW 000                       N    
RDG08558000WATRL000000004K00000000000000329004011142014111625N000000000000N88       000040400K 10000000010000000321           
CUS0855800000108021521003         KING KATHRYN GAIL   1130 ST AGNES LN                        000N        CARE OF             
MTR08558000001000000000000000RA              35102927    005800410000004100000520000003NN  NNW 000                       N    
RDG08558000WATRL000000004K00000000000001659004111142014111754N000000000000N88       000890400K 10000000010000001646           
CUS0855800000108021522001         GIBSON JONATHAN K   1128 ST AGNES LN                        000N        CARE OF             
MTR08558000001000000000000000RA              35102928    005800420000004200000520000003NN  NNW 000                       N    
RDG08558000WATRL000000004K00000000000002993004211142014111801N000000000000N88       000070400K 10000000010000002962           
CUS0855800000108021523009         LITTLE BARBARA E    1126 ST AGNES LN                        000N        CARE OF             
MTR08558000001000000000000000RA              44091613    005800430000004300000520000003NN  NNW 000                       N    
RDG08558000WATRL000000004K00000000000001005004311142014111916N000000000000N88       000750400K 10000000010000000999           
CUS0855800000108021524007         WRIGHT ALLEN NATHAN,1124 ST AGNES LN                        000N        CARE OF             
MTR08558000001000000000000000RA              27213578    005800440000004400000520000003NN  NNW 000                       N    
RDG08558000WATRL000000004K00000000000002189004411142014112016N000000000000N88       000600400K 10000000010000002146           
CUS0855800000108021525004         ROUNDTREE SABRINA   1122 ST AGNES LN                        000N        CARE OF             
MTR08558000001000000000000000RA              27213581    005800450000004500000520000003NN  NNW 000                       N    
RDG08558000WATRL000000004K00000000000002110004511142014112033N000000000000N88       000170400K 10000000010000002097           
CUS0855800000108021526002         BROWN TONYA DENISE  1120 ST AGNES LN                        000N        CARE OF             
MTR08558000001000000000000000RA              44091455    005800460000004600000520000003NN  NNW 000                       N    
RDG08558000WATRL000000004K00000000000000897004611142014112334N000000000000N88       001810400K 10000000010000000891           
CUS0855800000108021527000         GLOVER SHARON T     1118 ST AGNES LN                        000N        CARE OF             
MTR08558000001000000000000000RA              42810439    005800470000004700000520000003NN  NNW 000                       N    
RDG08558000WATRL000000004K00000000000003462004711142014112439N000000000000N88       000650400K 10000000010000003423           
CUS0855800000108021528008         DAVID/MONIQUE LEMMON1116 ST AGNES LN                        000N        CARE OF             
MTR08558000001000000000000000RA              44091615    005800480000004800000520000003NN  NNW 000                       N    
RDG08558000WATRL000000004K00000000000001365004811142014112546N000000000000N88       000670400K 10000000010000001356           
CUS0855800000108021529006         VESTRY ST BARTHOLOME1114 ST AGNES LN                        000N        CARE OF             
MTR08558000001000000000000000RA              99289088    005800490000004900000570000003NN  NNW 000                       N    
RDG08558000WATRL000000004K00000000000001037004911142014112557N000000000000N88       000110400K 10000000010000001016           
CUS0855800000108021530004         JOHNSON MAURICE H   1112 ST AGNES LN                        000N        CARE OF             
MTR08558000001000000000000000RA              26016508    005800500000005000000520000003NN  NNW 000                       N    
RDG08558000WATRL000000004K00000000000003221005011142014112657N000000000000N88       000600400K 10000000010000003201           
CUS0855800000108021531002         FRANCE DOUGLAS W,SR 1110 ST AGNES LN                        000N        CARE OF             
MTR08558000001000000000000000RA              76345376    005800510000005100000350000003NN  NNW 000                       N    
RDG08558000WATRL000000004K00000000000000060005111142014112704N000000000000N88       000070400K 10000000010000000042           
CUS0855800000108021532000         WILSON RENEE        1108 ST AGNES LN                        000N        CARE OF             
MTR08558000001000000000000000RA              44086114    005800520000005200000520000003NN  NNW 000                       N    
RDG08558000WATRL000000004K00000000000001571005211142014112823N000000000000N88       000790400K 10000000010000001559           
CUS0855800000108021533008         MEDITERRANEAN REALTY1106 ST AGNES LN                        000N        CARE OF             
MTR08558000001000000000000000RA              44086115    005800530000005300000520000003NN  NNW 000                       N    
RDG08558000WATRL000000004K00000000000002552005311142014112828N000000000000N88       000050400K 10000000010000002539           
CUS0855800000108021534006         MCLEE VENTURA       1104 ST AGNES LN                        000N        CARE OF             
MTR08558000001000000000000000RA              45375743    005800540000005400000520000003NN  NNW 000                       N    
RDG08558000WATRL000000004K00000000000001082005011192014141622N000100000010U88       004860400K 10000000010000001082           
CUS0855800000108021535003         YATES ERNESTINE M   1102 ST AGNES LN                        000N        CARE OF             
MTR08558000001000000000000000RA              45375742    005800550000005500000520000003NN  NNW 000                       N    
RDG08558000WATRL000000004K00000000000002343005111192014141639N000300000010U88       000170400K 10000000010000002193           
CUS0855800000108021536001         BURRIS ROGER SCOTT  1100 ST AGNES LN                        000N        CARE OF             
MTR08558000001000000000000000RA              29403214    005800560000005600000520000003NN  NNW 000                       N    
RDG08558000WATRL000000004K00000000000003799005211192014142137N000000000000U88       002980400K 10000000010000003791           
CUS0855800000108021537009         RUSTA PETER W       1084 ST AGNES LN                        000N        CARE OF             
MTR08558000001000000000000000RA              44086117    005800570000005700000520000003NN  NNW 000                       N    
RDG08558000WATRL000000004K00000000000003161005411142014113329N000000000000N88       003010400K 10000000010000003161           
CUS0855800000108021538007         ALLEN WADE          1082 ST AGNES LN                        000N        CARE OF             
MTR08558000001000000000000000RA              22609643    005800580000005800000520000003NN  NNW 000                       N    
RDG08558000WATRL000000004K00000000000002321005511142014113338N000000000000N88       000090400K 10000000010000002308           
CUS0855800000108021539005         EPPS WAYNE A, 2ND   1080 ST AGNES LN                        000N        CARE OF             
MTR08558000001000000000000000RA              01070756    005800590000005900000610000003NN  NNW 000                       N    
RDG08558000WATRL000000004K00000000000001847005611142014113642N000000000000N88       001840400K 10000000010000001822           
CUS0855800000108021540003         JACKSON TOYA D      1001 HARWALL RD                         000N        CARE OF             
MTR08558000001000000000000000RA              44087781    005800600000006000000520000003NN  NNW 000                       N    
RDG08558000WATRL000000004K00000000000000912005711142014113804N000000000000N88       000820400K 10000000010000000908           
CUS0855800000108021541001         WEST BARBARA D      1003 HARWALL RD                         000N        CARE OF             
MTR08558000001000000000000000RA              44087776    005800610000006100000520000003NN  NNW 000                       N    
RDG08558000WATRL000000004K00000000000001182005811142014113827N000000000000N88       000230400K 10000000010000001166           
CUS0855800000108021542009         NGUYEN DUNG MINH    1005 HARWALL RD                         000N        CARE OF             
MTR08558000001000000000000000RA              44087777    005800620000006200000520000000NN  NNW 000                       N    
RDG08558000WATRL000000004K00000000000004600005911142014113831N000000000000N88       000040400K 10000000010000004539           
CUS0855800000108021543007         SANDRAS WILSON      1007 HARWALL RD                         000N        CARE OF             
MTR08558000001000000000000000RA              01071034    005800630000006300000610000003NN  NNW 000                       N    
RDG08558000WATRL000000004K00000000000000286006011142014113903N000000000000N88       000320400K 10000000010000000277           
CUS0855800000108021544005         TWIGG SUSANNA       1009 HARWALL RD                         000N        CARE OF             
MTR08558000001000000000000000RA              41082886    005800640000006400000520000003NN  NNW 000                       N    
RDG08558000WATRL000000004K00000000000002226006111142014113908N000000000000N88       000050400K 10000000010000002215           
CUS0855800000108021545002         GROTEFEND EDWARD EME1101 GRANVILLE RD                       000N        CARE OF             
MTR08558000001000000000000000RA              44091020    005800650000006500000520000003NN  NNW 000                       N    
RDG08558000WATRL000000004K00000000000000860000111192014132515N000000000000U88       000000400K 10000000010000000855           
CUS0855800000108021546000         BLINKE JOHN D,JR    1103 GRANVILLE RD                       000N        CARE OF             
MTR08558000001000000000000000RA              45575336    005800660000006600000520000003NN  NNW 000                       N    
RDG08558000WATRL000000004K00000000000001739000211192014132556N000000000000U88       000410400K 10000000010000001722           
CUS0855800000108021547008         COOK VIRGINIA M     1105 GRANVILLE RD                       000N        CARE OF             
MTR08558000001000000000000000RA              23644326    005800670000006700000520000000NN  NNW 000                       N    
RDG08558000WATRL000000004K00000000000004500000311192014132639N000000000000U88       000430400K 10000000010000004487           
CUS0855800000108021548006         HUNT MARSHA D       1107 GRANVILLE RD                       000N        CARE OF             
MTR08558000001000000000000000RA              27833276    005800680000006800000520000000NN  NNW 000                       N    
RDG08558000WATRL000000004K00000000000003094000411192014132712N000000000000U88       000330400K 10000000010000003077           
CUS0855800000108021549004         MATTHEWS RONNIE     1109 GRANVILLE RD                       000N        CARE OF             
MTR08558000001000000000000000RA              36696731    005800690000006900000520000000NN  NNW 000                       N    
RDG08558000WATRL000000004K00000000000002486000511192014132746N000000000000U88       000340400K 10000000010000002483           
CUS0855800000108021550002         SEIPP DAVID R       1111 GRANVILLE RD                       000N        CARE OF             
MTR08558000001000000000000000RA              36696747    005800700000007000000520000003NN  NNW 000                       N    
RDG08558000WATRL000000004K00000000000002334000611192014132805N000000000000U88       000190400K 10000000010000002315           
CUS0855800000108021551000         WILLIS DARYL E      1113 GRANVILLE RD                       000N        CARE OF             
MTR08558000001000000000000000RA              44088639    005800710000007100000520000003NN  NNW 000                       N    
RDG08558000WATRL000000004K00000000000002491002111192014135046N000000000000U88       001430400K 10000000010000002488           
CUS0855800000108021552008         WALLACE THOMASINA M 1115 GRANVILLE RD                       000N        CARE OF             
MTR08558000001000000000000000RA              35106807    005800720000007200000520000000NN  NNW 000                       N    
RDG08558000WATRL000000004K00000000000002775000711192014132918N000000000000U88       000730400K 10000000010000002752           
CUS0855800000108021553006         SIEGEL STACY L,ESQUI1117 GRANVILLE RD                       000N        CARE OF             
MTR08558000001000000000000000RA              24221048    005800730000007300000520000003NN  NNW 000                       N    
RDG08558000WATRL000000004K00000000000003414000811192014133123N000000000000U88       001250400K 10000000010000003397           
CUS0855800000108021554004         HASKINS TRISHAWNDA M1119 GRANVILLE RD                       000N        CARE OF             
MTR08558000001000000000000000RA              40048640    005800740000007400000520000000NN  NNW 000                       N    
RDG08558000WATRL000000004K00000000000001976002011192014134823N000000000000U88       000050400K 10000000010000001969           
CUS0855800000108021555001         ELMORE LATANYA C    1121 GRANVILLE RD                       000N        CARE OF             
MTR08558000001000000000000000RA              14913302    005800750000007500000310000000NN  NNW 000                       N    
RDG08558000WATRL000000004K00000000000000549001911192014134818N000000000010U88       001800400K 10000000010000000535           
CUS0855800000108021556009         HASKINS CELESTE     1123 GRANVILLE RD                       000N        CARE OF             
MTR08558000001000000000000000RA              44179409    005800760000007600000520000003NN  NNW 000                       N    
RDG08558000WATRL000000004K00000000000001086001811192014134518N000000000000U88       000080400K 10000000010000001085           
CUS0855800000108021557007         FIELDS FRANCINE M   1125 GRANVILLE RD                       000N        CARE OF             
MTR08558000001000000000000000RA              14921701    005800770000007700000310000003NN  NNW 000                       N    
RDG08558000WATRL000000004K00000000000000858001711192014134510N000000000000U88       002060400K 10000000010000000839           
CUS0855800000108021558005         NELSON KAON         1127 GRANVILLE RD                       000N        CARE OF             
MTR08558000001000000000000000RA              45375337    005800780000007800000520000003NN  NNW 000                       N    
RDG08558000WATRL000000004K00000000000001333000911192014133333N000000000000U88       001300400K 10000000010000001323           
CUS0855800000108021559003         FIELDS FRANCINE M   1129 GRANVILLE RD                       000N        CARE OF             
MTR08558000001000000000000000RA              14900024    005800790000007900000310000000NN  NNW 000                       N    
RDG08558000WATRL000000004K00000000000000492001511192014134121N000000000000U88       001900400K 10000000010000000478           
CUS0855800000108021560001         CRAWFORD KAREN A    1131 GRANVILLE RD                       000N        CARE OF             
MTR08558000001000000000000000RA              14900026    005800800000008000000310000003NN  NNW 000                       N    
RDG08558000WATRL000000004K00000000000001223001611192014134144N000000000000U88       000230400K 10000000010000001200           
CUS0855800000108021561009         HARPER VICTORIA G   1133 GRANVILLE RD                       000N        CARE OF             
MTR08558000001000000000000000RA              27820860    005800810000008100000520000003NN  NNW 000                       N    
RDG08558000WATRL000000004K00000000000003361001011192014133510N000000000000U88       000970400K 10000000010000003328           
CUS0855800000108021562007         PAYNE SEQUOIA S     1135 GRANVILLE RD                       000N        CARE OF             
MTR08558000001000000000000000RA              48593048    005800820000008200000520000003NN  NNW 000                       N    
RDG08558000WATRL000000004K00000000000002281001111192014133519N000000000000U88       000090400K 10000000010000002246           
CUS0855800000108021563005         ROGERS KEDRIC A     1137 GRANVILLE RD                       000N        CARE OF             
MTR08558000001000000000000000RA              14916550    005800830000008300000310000003NN  NNW 000                       N    
RDG08558000WATRL000000004K00000000000001817001211192014133713N000300000020U88       001140400K 10000000010000001608           
CUS0855800000108021564003         COLEMAN STELLA M    1139 GRANVILLE RD                       000N        CARE OF             
MTR08558000001000000000000000RA              45375440    005800840000008400000520000000NN  NNW 000                       N    
RDG08558000WATRL000000004K00000000000000736001311192014133734N000000000000U88       000210400K 10000000010000000730           
CUS0855800000108021565000         MEYER DEBORAH CHRIST1141 GRANVILLE RD                       000N        CARE OF             
MTR08558000001000000000000000RA              44179412    005800850000008500000520000000NN  NNW 000                       N    
RDG08558000WATRL000000004K00000000000001642001411192014133811N000000000000U88       000370400K 10000000010000001637           
CUS0855800000108021566008         TOOMER LINWOOD A    1143 GRANVILLE RD                       000N        CARE OF             
MTR08558000001000000000000000RA              45375439    005800860000008600000520000000NN  NNW 000                       N    
RDG08558000WATRL000000004K00000000000002918002211192014135527N000000000000U88       002810400K 10000000010000002897           
CUS0855800000108021567006         SMITH CYNTHIA D     1145 GRANVILLE RD                       000N        CARE OF             
MTR08558000001000000000000000RA              44088634    005800870000008700000520000000NN  NNW 000                       N    
RDG08558000WATRL000000004K00000000000001443002311192014135552N000000000000U88       000250400K 10000000010000001431           
CUS0855800000108021568004         JONES BERNADETTE    1147 GRANVILLE RD                       000N        CARE OF             
MTR08558000001000000000000000RA              30513219    005800880000008800000520000000NN  NNW 000                       N    
RDG08558000WATRL000000004K00000000000001979002411192014135645N000000000000U88       000530400K 10000000010000001959           
CUS0855800000108021569002         MOORE MARLO         1149 GRANVILLE RD                       000N        CARE OF             
MTR08558000001000000000000000RA              30513221    005800890000008900000520000000NN  NNW 000                       N    
RDG08558000WATRL000000004K00000000000002550002511192014135705N000000000000U88       000200400K 10000000010000002545           
CUS0855800000108021570000         OSHEGBO GODWIN O    1151 GRANVILLE RD                       000N        CARE OF             
MTR08558000001000000000000000RA              01114271    005800900000009000000610000003NN  NNW 000                       N    
RDG08558000WATRL000000004K00000000000000739002611192014135757N000000000000U88       000520400K 10000000010000000719           
CUS0855800000108021571008         LLOYD ANGELA        1153 GRANVILLE RD                       000N        CARE OF             
MTR08558000001000000000000000RA              01114267    005800910000009100000610000003NN  NNW 000                       N    
RDG08558000WATRL000000004K00000000000000293002711192014135834N000000000000U88       000370400K 10000000010000000290           
CUS0855800000108021572006         HUTTON VALERIE A    1155 GRANVILLE RD                       000N        CARE OF             
MTR08558000001000000000000000RA              26013776    005800920000009200000520000003NN  NNW 000                       N    
RDG08558000WATRL000000004K00000000000002748002811192014135924N000000000000U88       000500400K 10000000010000002737           
CUS0855800000108021573004         CROMWELL BEVERLY E  1157 GRANVILLE RD                       000N        CARE OF             
MTR08558000001000000000000000RA              45375351    005800930000009300000520000000NN  NNW 000                       N    
RDG08558000WATRL000000004K00000000000001325002911192014135928N000000000000U88       000040400K 10000000010000001309           
CUS0855800000108021574002         PANELLA RICHARD C   1159 GRANVILLE RD                       000N        CARE OF             
MTR08558000001000000000000000RA              45375348    005800940000009400000520000000NN  NNW 000                       N    
RDG08558000WATRL000000004K00000000000001693003011192014140017N000000000000U88       000490400K 10000000010000001677           
CUS0855800000108021575009         LYNNGATE RENTALS LLC1161 GRANVILLE RD                       000N        CARE OF             
MTR08558000001000000000000000RA              44088641    005800950000009500000520000000NN  NNW 000                       N    
RDG08558000WATRL000000004K00000000000001729003111192014140048N000000000000U88       000310400K 10000000010000001714           
CUS0855800000108021576007         WILLIAMS LATRINA S  1163 GRANVILLE RD                       000N        CARE OF             
MTR08558000001000000000000000RA              44088642    005800960000009600000520000003NN  NNW 000                       N    
RDG08558000WATRL000000004K00000000000003901003211192014140054N000000000000U88       000060400K 10000000010000003812           
CUS0855800000108021577005         RIGGS RALPH EDWARD  1165 GRANVILLE RD                       000N        CARE OF             
MTR08558000001000000000000000RA              26002407    005800970000009700000520000003NN  NNW 000                       N    
RDG08558000WATRL000000004K00000000000003261003311192014140129N000000000000U88       000350400K 10000000010000003243           
CUS0855800000108021578003         PHU Q NGUYEN/ HONG H1167 GRANVILLE RD                       000N        CARE OF             
MTR08558000001000000000000000RA              45375350    005800980000009800000520000003NN  NNW 000                       N    
RDG08558000WATRL000000004K00000000000001008003411192014140136N000000000000U88       000070400K 10000000010000000972           
CUS0855800000108021579001         GODFREY REBECCA J   1169 GRANVILLE RD                       000N        CARE OF             
MTR08558000001000000000000000RA              23053014    005800990000009900000520000003NN  NNW 000                       N    
RDG08558000WATRL000000004K00000000000001868003511192014140220N000100000010U88       000440400K 10000000010000001868           
CUS0855800000108021580009         SAFFRAN GEORGE T    1171 GRANVILLE RD                       000N        CARE OF             
MTR08558000001000000000000000RA              50478552    005801000000010000000520000003NN  NNW 000                       N    
RDG08558000WATRL000000004K00000000000001484003611192014140227N000000000000U88       000070400K 10000000010000001469           
CUS0855800000108021581007         JONES DELORES FOSTER1173 GRANVILLE RD                       000N        CARE OF             
MTR08558000001000000000000000RA              45375347    005801010000010100000520000003NN  NNW 000                       N    
RDG08558000WATRL000000004K00000000000001503003711192014140312N000400000010U88       000450400K 10000000010000001502           
CUS0855800000108021582005         SORELL BELINDA M    1175 GRANVILLE RD                       000N        CARE OF             
MTR08558000001000000000000000RA              32902146    005801020000010200000520000003NN  NNW 000                       N    
RDG08558000WATRL000000004K00000000000002098003811192014140352N000000000000U88       000400400K 10000000010000002080           
CUS0855800000108021583003         WARDLAW ROBIN PAULET1177 GRANVILLE RD                       000N        CARE OF             
MTR08558000001000000000000000RA              44088640    005801030000010300000520000003NN  NNW 000                       N    
RDG08558000WATRL000000004K00000000000002471003911192014140358N000400000010U88       000060400K 10000000010000002453           
CUS0855800000108021584001         JONES EDWINA M      1179 GRANVILLE RD                       000N        CARE OF             
MTR08558000001000000000000000RA              44088644    005801040000010400000520000003NN  NNW 000                       N    
RDG08558000WATRL000000004K00000000000001414004011192014140433N000000000000U88       000350400K 10000000010000001375           
CUS0855800000108021585008         APPLER MICHAEL SANFO1181 GRANVILLE RD                       000N        CARE OF             
MTR08558000001000000000000000RA              44088643    005801050000010500000520000003NN  NNW 000                       N    
RDG08558000WATRL000000004K00000000000001902004111192014140442N000000000000U88       000090400K 10000000010000001874           
CUS0855800000108021586006         DAVIS SAMUEL W      1183 GRANVILLE RD                       000N        CARE OF             
MTR08558000001000000000000000RA              45375349    005801060000010600000520000003NN  NNW 000                       N    
RDG08558000WATRL000000004K00000000000002114004211192014140520N000000000000U88       000380400K 10000000010000002092           
CUS0855800000108021587004         MOORE OPRAH         1185 GRANVILLE RD                       000N        CARE OF             
MTR08558000001000000000000000RA              45375346    005801070000010700000520000003NN  NNW 000                       N    
RDG08558000WATRL000000004K00000000000002769004311192014140527N000000000000U88       000070400K 10000000010000002734           
CUS0855800000108021588002         ROBINSON REGINALD VI1187 GRANVILLE RD                       000N        CARE OF             
MTR08558000001000000000000000RA              40049673    005801080000010800000520000003NN  NNW 000                       N    
RDG08558000WATRL000000004K00000000000002196004411192014140608N000000000000U88       000410400K 10000000010000002177           
CUS0855800000108021589000         DEMBER DELORES E    1189 GRANVILLE RD                       000N        CARE OF             
MTR08558000001000000000000000RA              44088645    005801090000010900000520000003NN  NNW 000                       N    
RDG08558000WATRL000000004K00000000000002539004511192014140641N000000000000U88       000330400K 10000000010000002504           
CUS0855800000108021590008         THOMAS MICHAEL C    1191 GRANVILLE RD                       000N        CARE OF             
MTR08558000001000000000000000RA              44088638    005801100000011000000520000003NN  NNW 000                       N    
RDG08558000WATRL000000004K00000000000002464004611192014140646N000000000000U88       000050400K 10000000010000002443           
CUS0855800000108021591006         HARDY EDITH         1193 GRANVILLE RD                       000N        CARE OF             
MTR08558000001000000000000000RA              39289587    005801110000011100000520000003NN  NNW 000                       N    
RDG08558000WATRL000000004K00000000000004483004711192014140720N000100000010U88       000340400K 10000000010000004483           
CUS0855800000108021592004         WOLFF MORTON  WOLFF 1195 GRANVILLE RD                       000N        CARE OF             
MTR08558000001000000000000000RA              39289579    005801120000011200000520000003NN  NNW 000                       N    
RDG08558000WATRL000000004K00000000000002561004811192014140739N000000000000U88       000190400K 10000000010000002552           
CUS0855800000108021593002         MCCREARRY YVONNE    1197 GRANVILLE RD                       000N        CARE OF             
MTR08558000001000000000000000RA              10006310    005801130000011300000570000003NN  NNW 000                       N    
RDG08558000WATRL000000004K00000000000000433004911192014140816N000000000000U88       000370400K 10000000010000000412           
CUS0855800000108021594000         MORIN LEE ANN       1601 N FOREST PARK AVE                  000N        CARE OF             
MTR08558000001000000000000000RA              44089619    005801140000011400000520000003NN  NNW 000                       N    
RDG08558000WATRL000000004K00000000000002114006211142014114615N000000000000N88       004270400K 10000000010000002101           
CUS0855800000108021595007         UJHAZY JOHN E       1603 FOREST PARK AVE                    000N        CARE OF             
MTR08558000001000000000000000RA              35115840    005801150000011500000520000003NN  NNW 000                       N    
RDG08558000WATRL000000004K00000000000004994006311142014114705N000000000000N88       000500400K 10000000010000004959           
CUS0855800000108021596005         JOHNSON WILLIAM C   1605 N FOREST PARK AVE                  000N        CARE OF             
MTR08558000001000000000000000RA              35115837    005801160000011600000520000003NN  NNW 000                       N    
RDG08558000WATRL000000004K00000000000002566006411142014114717N000100000010N88       000120400K 10000000010000002566           
CUS0855800000108021597003         LAWTON ERIKA D      1607 N FOREST PARK AVE                  000N        CARE OF             
MTR08558000001000000000000000RA              45377105    005801170000011700000520000003NN  NNW 000                       N    
RDG08558000WATRL000000004K00000000000000888006511142014114757N000000000000N88       000400400K 10000000010000000870           
CUS0855800000108021598001         JACKSON VALERIE DENI1609 N FOREST PARK AVE                  000N        CARE OF             
MTR08558000001000000000000000RA              45376937    005801180000011800000520000003NN  NNW 000                       N    
RDG08558000WATRL000000004K00000000000002664006611142014114804N000000000000N88       000070400K 10000000010000002646           
CUS0855800000108021599009         JONES ALEESHA       1611 N FOREST PARK AVE                  000N        CARE OF             
MTR08558000001000000000000000RA              24768345    005801190000011900000520000003NN  NNW 000                       N    
RDG08558000WATRL000000004K00000000000003814006711142014114904N000000000000N88       000600400K 10000000010000003801           
CUS0855800000108021600005         LEIGH SHEILA C      1613 N FOREST PARK AVE                  000N        CARE OF             
MTR08558000001000000000000000RA              23645714    005801200000012000000520000003NN  NNW 000                       N    
RDG08558000WATRL000000004K00000000000004294006811142014114922N000000000010N88       000180400K 10000000010000004293           
CUS0855800000108021601003         STALEY JOE C        1201 STAMFORD RD                        000N        CARE OF             
MTR08558000001000000000000000RA              27820886    005801210000012100000520000003NN  NNW 000                       N    
RDG08558000WATRL000000004K00000000000003432006911142014115328N000000000000N88       002460400K 10000000010000003406           
CUS0855800000108021602001         GUNTER VIVIAN C     1203 STAMFORD RD                        000N        CARE OF             
MTR08558000001000000000000000RA              33735760    005801220000012200000520000003NN  NNW 000                       N    
RDG08558000WATRL000000004K00000000000001011007011142014115352N000000000000N88       000240400K 10000000010000001005           
CUS0855800000108021603009         COLE JUSTINE M      1205 STAMFORD RD                        000N        CARE OF             
MTR08558000001000000000000000RA              33734680    005801230000012300000520000003NN  NNW 000                       N    
RDG08558000WATRL000000004K00000000000002159007111142014115355N000000000000N88       000030400K 10000000010000002139           
CUS0855800000108021604007         JONES LINDSAY T     1207 STAMFORD RD                        000N        CARE OF             
MTR08558000001000000000000000RA              29681931    005801240000012400000520000003NN  NNW 000                       N    
RDG08558000WATRL000000004K00000000000001779007211142014115422N000000000000N88       000270400K 10000000010000001761           
CUS0855800000108021605004         CRAMBLITT ELLSWORTH 1209 STAMFORD RD                        000N        CARE OF             
MTR08558000001000000000000000RA              29681932    005801250000012500000520000003NN  NNW 000                       N    
RDG08558000WATRL000000004K00000000000001522007311142014115425N000000000000N88       000030400K 10000000010000001515           
CUS0855800000108021606002         EDWARDS JERRY J     1211 STAMFORD RD                        000N        CARE OF             
MTR08558000001000000000000000RA              39290051    005801260000012600000520000003NN  NNW 000                       N    
RDG08558000WATRL000000004K00000000000001973007411142014115502N000000000000N88       000370400K 10000000010000001960           
CUS0855800000108021607000         BARNES MAISHA T     1213 STAMFORD RD                        000N        CARE OF             
MTR08558000001000000000000000RA              39290028    005801270000012700000520000003NN  NNW 000                       N    
RDG08558000WATRL000000004K00000000000001588007511142014115514N000000000000N88       000120400K 10000000010000001580           
CUS0855800000108021608008         SOMMERS GILBERT J   1215 STAMFORD RD                        000N        CARE OF             
MTR08558000001000000000000000RA              35118485    005801280000012800000520000003NN  NNW 000                       N    
RDG08558000WATRL000000004K00000000000002991007611142014115606N000000000000N88       000520400K 10000000010000002972           
CUS0855800000108021609006         REYNOLDS JAMES W    1217 STAMFORD RD                        000N        CARE OF             
MTR08558000001000000000000000RA              14925801    005801290000012900000310000003NN  NNW 000                       N    
RDG08558000WATRL000000004K00000000000000269007711142014115611N000000000000N88       000050400K 10000000010000000262           
CUS0855800000108021610004         KAHAN TORIA D       1219 STAMFORD RD                        000N        CARE OF             
MTR08558000001000000000000000RA              44090205    005801300000013000000520000003NN  NNW 000                       N    
RDG08558000WATRL000000004K00000000000001064007811142014115650N000000000000N88       000390400K 10000000010000001053           
CUS0855800000108021611002         MOSLEY MARLON J     1221 STAMFORD RD                        000N        CARE OF             
MTR08558000001000000000000000RA              33734748    005801310000013100000520000003NN  NNW 000                       N    
RDG08558000WATRL000000004K00000000000003962007911142014115659N000000000000N88       000090400K 10000000010000003916           
CUS0855800000108021612000         JOHNSON BERTHA A    1223 STAMFORD RD                        000N        CARE OF             
MTR08558000001000000000000000RA              45375401    005801320000013200000520000003NN  NNW 000                       N    
RDG08558000WATRL000000004K00000000000001053008011142014115743N000000000000N88       000440400K 10000000010000001037           
CUS0855800000108021613008         YAGER HAROLD E,JR   1225 STAMFORD RD                        000N        CARE OF             
MTR08558000001000000000000000RA              41088205    005801330000013300000520000003NN  NNW 000                       N    
RDG08558000WATRL000000004K00000000000001773008111142014115748N000000000000N88       000050400K 10000000010000001762           
CUS0855800000108021614006         LINTHICUM FRANK C   1227 STAMFORD RD                        000N        CARE OF             
MTR08558000001000000000000000RA              26008853    005801340000013400000520000003NN  NNW 000                       N    
RDG08558000WATRL000000004K00000000000001447008211142014115837N000000000000N88       000490400K 10000000010000001426           
CUS0855800000108021615003         LINTHICUM FRANK C   1229 STAMFORD RD                        000N        CARE OF             
MTR08558000001000000000000000RA              14926826    005801350000013500000310000003NN  NNW 000                       N    
RDG08558000WATRL000000004K00000000000000204008311142014115840N000000000000N88       000030400K 10000000010000000193           
CUS0855800000108021616001         SIMMONS JAMES E     1231 STAMFORD RD                        000N        CARE OF             
MTR08558000001000000000000000RA              45375361    005801360000013600000520000003NN  NNW 000                       N    
RDG08558000WATRL000000004K00000000000003403008411142014115912N000000000000N88       000320400K 10000000010000003390           
CUS0855800000108021617009         DIGGS HAZEL J       1233 STAMFORD RD                        000N        CARE OF             
MTR08558000001000000000000000RA              44090204    005801370000013700000520000003NN  NNW 000                       N    
RDG08558000WATRL000000004K00000000000002417008511142014115920N000000000000N88       000080400K 10000000010000002399           
CUS0855800000108021618007         KRAMER KATHERINE L  1235 STAMFORD RD                        000N        CARE OF             
MTR08558000001000000000000000RA              39289395    005801380000013800000520000003NN  NNW 000                       N    
RDG08558000WATRL000000004K00000000000002728008611142014115952N000000000000N88       000320400K 10000000010000002656           
CUS0855800000108021619005         SCHIFF PAMELA M     1232 STAMFORD RD                        000N        CARE OF             
MTR08558000001000000000000000RA              29403110    005801390000013900000520000003NN  NNW 000                       N    
RDG08558000WATRL000000004K00000000000002820008711142014120029N000000000000N88       000370400K 10000000010000002802           
CUS0855800000108021620003         SMITH GREGORY E     1230 STAMFORD RD                        000N        CARE OF             
MTR08558000001000000000000000RA              36696071    005801400000014000000520000003NN  NNW 000                       N    
RDG08558000WATRL000000004K00000000000004697008811142014120106N000000000000N88       000370400K 10000000010000004659           
CUS0855800000108021621001         BINION MARY E       1228 STAMFORD RD                        000N        CARE OF             
MTR08558000001000000000000000RA              36696261    005801410000014100000520000003NN  NNW 000                       N    
RDG08558000WATRL000000004K00000000000003364008911142014120112N000000000000N88       000060400K 10000000010000003346           
CUS0855800000108021622009         CLAY LEANDER        1226 STAMFORD RD                        000N        CARE OF             
MTR08558000001000000000000000RA              99999999    005801420000014200000310000003NN  NNW 000                       N    
RDG08558000WATRL000000004K00000000000000471009011142014120140N000000000000N88       000280400K 10000000010000000460           
CUS0855800000108021623007         STINNETT MICHAEL E  1224 STAMFORD RD                        000N        CARE OF             
MTR08558000001000000000000000RA              14908058    005801430000014300000310000003NN  NNW 000                       N    
RDG08558000WATRL000000004K00000000000000720009111142014120145N000000000000N88       000050400K 10000000010000000703           
CUS0855800000108021624005         DAVIS REGINALD      1222 STAMFORD RD                        000N        CARE OF             
MTR08558000001000000000000000RA              52290029    005801440000014400000520000003NN  NNW 000                       N    
RDG08558000WATRL000000004K00000000000000842009211142014120218N000000000000N88       000330400K 10000000010000000835           
CUS0855800000108021625002         TAHIRA C. MAHDI     1220 STAMFORD RD                        000N        CARE OF             
MTR08558000001000000000000000RA              24230245    005801450000014500000520000003NN  NNW 000                       N    
RDG08558000WATRL000000004K00000000000003795009311142014120223N000000000000N88       000050400K 10000000010000003790           
CUS0855800000108021626000         WILLIAMS EVELYN L   1206 STAMFORD RD                        000N        CARE OF             
MTR08558000001000000000000000RA              45375405    005801460000014600000520000003NN  NNW 000                       N    
RDG08558000WATRL000000004K00000000000002476009411142014120321N000000000000N88       000580400K 10000000010000002467           
CUS0855800000108021627008         MAISON NOIRE LLC    1204 STAMFORD RD                        000N        CARE OF             
MTR08558000001000000000000000RA              45375402    005801470000014700000520000003NN  NNW 000                       N    
RDG08558000WATRL000000004K00000000000001540009511142014120355N000000000000N88       000340400K 10000000010000001523           
CUS0855800000108021628006         SMITH ROBERTA L     1202 STAMFORD RD                        000N        CARE OF             
MTR08558000001000000000000000RA              36690377    005801480000014800000520000003NN  NNW 000                       N    
RDG08558000WATRL000000004K00000000000001276009611142014120402N000000000000N88       000070400K 10000000010000001270           
CUS0855800000108021629004         LAIDLER RICHARD B   1200 STAMFORD RD                        000N        CARE OF             
MTR08558000001000000000000000RA              32176664    005801490000014900000520000003NN  NNW 000                       N    
RDG08558000WATRL000000004K00000000000004650009711142014120438N000000000000N88       000360400K 10000000010000004634           
CUS0855800000108021630002         JONES GEORGE E      1684 N FOREST PARK AVE                  000N        CARE OF             
MTR08558000001000000000000000RA              01086423    005801500000015000000610000003NN  NNW 000                       N    
RDG08558000WATRL000000004K00000000000001389009811142014120606N000000000000N88       000880400K 10000000010000001362           
CUS0855800000108021631000         MATTHEWS EARL T/ALFR1682 N FOREST PARK AVE                  000N        CARE OF             
MTR08558000001000000000000000RA              44089601    005801510000015100000520000003NN  NNW 000                       N    
RDG08558000WATRL000000004K00000000000002671009911142014120721N000000000000N88       000750400K 10000000010000002664           
CUS0855800000108021632008         ELLIOTT KERRI TERYCE1680 N FOREST PARK AVE                  000N        CARE OF             
MTR08558000001000000000000000RA              44089602    005801520000015200000520000003NN  NNW 000                       N    
RDG08558000WATRL000000004K00000000000002100010011142014120726N000000000000N88       000050400K 10000000010000002096           
CUS0855800000108021633006         BARRETT KRISTIN     1678 N FOREST PARK AVE                  000N        CARE OF             
MTR08558000001000000000000000RA              14926118    005801530000015300000310000003NN  NNW 000                       N    
RDG08558000WATRL000000004K00000000000000459010111142014120800N000000000000N88       000340400K 10000000010000000452           
CUS0855800000108021634004         DANIELS CLAYTON E   1676 N FOREST PARK AVE                  000N        CARE OF             
MTR08558000001000000000000000RA              39289568    005801540000015400000520000003NN  NNW 000                       N    
RDG08558000WATRL000000004K00000000000002158010211142014120806N000400000010N88       000060400K 10000000010000002147           
CUS0855800000108021635001         BACCELLIERI FRANCESC1674 N FOREST PARK AVE                  000N        CARE OF             
MTR08558000001000000000000000RA              14918779    005801550000015500000310000003NN  NNW 000                       N    
RDG08558000WATRL000000004K00000000000000602010311142014120846N000000000000N88       000400400K 10000000010000000591           
CUS0855800000108021636009         NDIAYE ISSA         1672 N FOREST PARK AVE                  000N        CARE OF             
MTR08558000001000000000000000RA              14918782    005801560000015600000310000003NN  NNW 000                       N    
RDG08558000WATRL000000004K00000000000000373010411142014120904N000000000000N88       000180400K 10000000010000000364           
CUS0855800000108021637007         WORKEMAN MARIA D    1670 N FOREST PARK AVE                  000N        CARE OF             
MTR08558000001000000000000000RA              24228424    005801570000015700000520000003NN  NNW 000                       N    
RDG08558000WATRL000000004K00000000000004048010511142014120953N000000000000N88       000490400K 10000000010000004032           
CUS0855800000108021638005         ANDERSON NORMAN L,JR1668 N FOREST PARK AVE                  000N        CARE OF             
MTR08558000001000000000000000RA              24228420    005801580000015800000520000003NN  NNW 000                       N    
RDG08558000WATRL000000004K00000000000003712010611142014121001N000000000000N88       000080400K 10000000010000003707           
CUS0855800000108021639003         KRONEBERGER MICHAEL 1666 N FOREST PARK AVE                  000N        CARE OF             
MTR08558000001000000000000000RA              45375338    005801590000015900000520000003NN  NNW 000                       N    
RDG08558000WATRL000000004K00000000000001286010711142014121047N000000000000N88       000460400K 10000000010000001272           
CUS0855800000108021640001         ISAAC P COCKE       1664 N FOREST PARK AVE                  000N        CARE OF             
MTR08558000001000000000000000RA              14908906    005801600000016000000310000003NN  NNW 000                       N    
RDG08558000WATRL000000004K00000000000000463010811142014121056N000000000010N88       000090400K 10000000010000000449           
CUS0855800000108021641009         CRESSIA STEWART     1662 N FOREST PARK AVE                  000N        CARE OF             
MTR08558000001000000000000000RA              26002757    005801610000016100000520000003NN  NNW 000                       N    
RDG08558000WATRL000000004K00000000000004336010911142014121147N000300000010N88       000510400K 10000000010000004232           
CUS0855800000108021642007         JOHNSON JAMES OLIVER1660 N FOREST PARK AVE                  000N        CARE OF             
MTR08558000001000000000000000RA              26002759    005801620000016200000520000003NN  NNW 000                       N    
RDG08558000WATRL000000004K00000000000002949011011142014121156N000000000010N88       000090400K 10000000010000002944           
CUS0855800000108021643005         MOORE DEBRA         1658 N FOREST PARK AVE                  000N        CARE OF             
MTR08558000001000000000000000RA              45375359    005801630000016300000520000003NN  NNW 000                       N    
RDG08558000WATRL000000004K00000000000000953011111142014121301N000000000000N88       000650400K 10000000010000000943           
CUS0855800000108021644003         BROWN HARRY S       1101 SANBOURNE RD                       000N        CARE OF             
MTR08558000001000000000000000RA              44093175    005801640000016400000520000003NN  NNW 000                       N    
RDG08558000WATRL000000004K00000000000001344011411142014121516N000100000010N88       000440400K 10000000010000001344           
CUS0855800000108021645000         WAGENFER STEPHEN AUG1103 SANBOURNE RD                       000N        CARE OF             
MTR08558000001000000000000000RA              33735745    005801650000016500000520000003NN  NNW 000                       N    
RDG08558000WATRL000000004K00000000000003232011211142014121424N000000000000N88       000830400K 10000000010000003217           
CUS0855800000108021646008         TYNES RODNEY KELVIN 1105 SANBOURNE RD                       000N        CARE OF             
MTR08558000001000000000000000RA              33735753    005801660000016600000520000003NN  NNW 000                       N    
RDG08558000WATRL000000004K00000000000001310011311142014121432N000000000000N88       000080400K 10000000010000001297           
CUS0855800000108021647006         BROWN DAVID,JR      1107 SANBOURNE RD                       000N        CARE OF             
MTR08558000001000000000000000RA              50791431    005801670000016700000520000003NN  NNW 000                       N    
RDG08558000WATRL000000004K00000000000000900011511142014121606N000000000000N88       000500400K 10000000010000000896           
CUS0855800000108021648004         NORDECK MAX D       1109 SANBOURNE RD                       000N        CARE OF             
MTR08558000001000000000000000RA              26007249    005801680000016800000520000003NN  NNW 000                       N    
RDG08558000WATRL000000004K00000000000007546011611142014121610N000000000000N88       000040400K 10000000010000007542           
CUS0855800000108021649002         LUCAS SHERRELL N    1111 SANBOURNE RD                       000N        CARE OF             
MTR08558000001000000000000000RA              45375363    005801690000016900000520000003NN  NNW 000                       N    
RDG08558000WATRL000000004K00000000000002319011711142014121646N000000000000N88       000360400K 10000000010000002304           
CUS0855800000108021650000         WILLIAMS SHAWNDRA L 1654 N FOREST PARK AVE                  000N        CARE OF             
MTR08558000001000000000000000RA              44091460    005801700000017000000520000003NN  NNW 000                       N    
RDG08558000WATRL000000004K00000000000003971011811142014121811N000000000000N88       000850400K 10000000010000003960           
CUS0855800000108021651008         JORDAN DELORES C    1652 N FOREST PARK AVE                  000N        CARE OF             
MTR08558000001000000000000000RA              44089620    005801710000017100000520000003NN  NNW 000                       N    
RDG08558000WATRL000000004K00000000000002304011911142014121815N000000000000N88       000040400K 10000000010000002279           
CUS0855800000108021652006         MOORE JARROD        1650 N FOREST PARK AVE                  000N        CARE OF             
MTR08558000001000000000000000RA              29402127    005801720000017200000520000003NN  NNW 000                       N    
RDG08558000WATRL000000004K00000000000003443012011142014121905N000000000000N88       000500400K 10000000010000003429           
CUS0855800000108021653004         WOODARD WILLIAM H   1648 N FOREST PARK AVE                  000N        CARE OF             
MTR08558000001000000000000000RA              29402131    005801730000017300000520000003NN  NNW 000                       N    
RDG08558000WATRL000000004K00000000000002195012111142014121908N000000000000N88       000030400K 10000000010000002186           
CUS0855800000108021654002         BRYANT MARGARITA    1646 N FOREST PARK AVE                  000N        CARE OF             
MTR08558000001000000000000000RA              44089621    005801740000017400000520000003NN  NNW 000                       N    
RDG08558000WATRL000000004K00000000000001033012211142014121959N000000000000N88       000510400K 10000000010000001026           
CUS0855800000108021655009         NATASHA N PERRY     1644 N FOREST PARK AVE                  000N        CARE OF             
MTR08558000001000000000000000RA              10013839    005801750000017500000570000003NN  NNW 000                       N    
RDG08558000WATRL000000004K00000000000000223012311142014122008N000000000000N88       000090400K 10000000010000000208           
CUS0855800000108021656007         ROBINSON JACQUELINE 1642 N FOREST PARK AVE                  000N        CARE OF             
MTR08558000001000000000000000RA              00134744    005801760000017600000570000003NN  NNW 000                       N    
RDG08558000WATRL000000004K00000000000000668012411142014122055N000000000000N88       000470400K 10000000010000000648           
CUS0855800000108021657005         GRIMES JOHNNY       1640 N FOREST PARK AVE                  000N        CARE OF             
MTR08558000001000000000000000RA              45375437    005801770000017700000520000003NN  NNW 000                       N    
RDG08558000WATRL000000004K00000000000003706012511142014122132N000000000000N88       000370400K 10000000010000003692           
CUS0855800000108021658003         WILEY WILLIAM F     1638 N FOREST PARK AVE                  000N        CARE OF             
MTR08558000001000000000000000RA              10016065    005801780000017800000570000003NN  NNW 000                       N    
RDG08558000WATRL000000004K00000000000000057012611142014122214N000000000000N88       000420400K 10000000010000000052           
CUS0855800000108021659001         COURTNEY CURRY      1636 N FOREST PARK AVE                  000N        CARE OF             
MTR08558000001000000000000000RA              75426742    005801790000017900000350000003NN  NNW 000                       N    
RDG08558000WATRL000000004K00000000000000070012711142014122223N000000000000N88       000090400K 10000000010000000057           
CUS0855800000108021660009         SPRUILL JENNIFER    1634 N FOREST PARK AVE                  000N        CARE OF             
MTR08558000001000000000000000RA              45375436    005801800000018000000520000003NN  NNW 000                       N    
RDG08558000WATRL000000004K00000000000001031012811142014122251N000000000000N88       000280400K 10000000010000001021           
CUS0855800000108021661007         CORBITT THOMAS      1632 N FOREST PARK AVE                  000N        CARE OF             
MTR08558000001000000000000000RA              29681930    005801810000018100000520000003NN  NNW 000                       N    
RDG08558000WATRL000000004K00000000000002751012911142014122255N000000000000N88       000040400K 10000000010000002714           
CUS0855800000108021662005         WOODLEY SHERRY E    1630 N FOREST PARK AVE                  000N        CARE OF             
MTR08558000001000000000000000RA              14904832    005801820000018200000310000003NN  NNW 000                       N    
RDG08558000WATRL000000004K00000000000001324013011142014122441N000000000000N88       001060400K 10000000010000001292           
CUS0855800000108021663003         DIXON YVETTE RENEE  1628 N FOREST PARK AVE                  000N        CARE OF             
MTR08558000001000000000000000RA              41258982    005801830000018300000520000003NN  NNW 000                       N    
RDG08558000WATRL000000004K00000000000002546013111142014122525N000100000010N88       000440400K 10000000010000002546           
CUS0855800000108021664001         MINTER KURT J       1626 N FOREST PARK AVE                  000N        CARE OF             
MTR08558000001000000000000000RA              44089603    005801840000018400000520000003NN  NNW 000                       N    
RDG08558000WATRL000000004K00000000000001053013211142014122600N000000000000N88       000350400K 10000000010000001051           
CUS0855800000108021665008         BUDZIK JOSEPH ANTHON1624 N FOREST PARK AVE                  000N        CARE OF             
MTR08558000001000000000000000RA              44089600    005801850000018500000520000003NN  NNW 000                       N    
RDG08558000WATRL000000004K00000000000001935013311142014122611N000000000000N88       000110400K 10000000010000001935           
CUS0855800000108021666006         SAXON SHERRY I      1622 N FOREST PARK AVE                  000N        CARE OF             
MTR08558000001000000000000000RA              35099688    005801860000018600000520000003NN  NNW 000                       N    
RDG08558000WATRL000000004K00000000000002749013411142014122649N000000000000N88       000380400K 10000000010000002732           
CUS0855800000108021667004         JOHNSON ROBERT,JR   1620 N FOREST PARK AVE                  000N        CARE OF             
MTR08558000001000000000000000RA              14924601    005801870000018700000310000003NN  NNW 000                       N    
RDG08558000WATRL000000004K00000000000000516013511142014122656N000000000000N88       000070400K 10000000010000000505           
CUS0855800000108021668002         BARRINGTON TRACYE S 1618 N FOREST PARK AVE                  000N        CARE OF             
MTR08558000001000000000000000RA              39289566    005801880000018800000520000003NN  NNW 000                       N    
RDG08558000WATRL000000004K00000000000001785013611142014122748N000000000000N88       000520400K 10000000010000001775           
CUS0855800000108021669000         WASHINGTON SHERREE K1616 N FOREST PARK AVE                  000N        CARE OF             
MTR08558000001000000000000000RA              10011346    005801890000018900000570000003NN  NNW 000                       N    
RDG08558000WATRL000000004K00000000000000512013711142014122753N000000000000N88       000050400K 10000000010000000467           
CUS0855800000108021670008         KEENE HARDING T     1614 N FOREST PARK AVE                  000N        CARE OF             
MTR08558000001000000000000000RA              44089605    005801900000019000000520000003NN  NNW 000                       N    
RDG08558000WATRL000000004K00000000000003614013811142014122831N000000000000N88       000380400K 10000000010000003583           
CUS0855800000108021671006         RONALD L MILLER     1612 N FOREST PARK AVE                  000N        CARE OF             
MTR08558000001000000000000000RA              01070757    005801910000019100000610000003NN  NNW 000                       N    
RDG08558000WATRL000000004K00000000000002071013911142014122837N000000000000N88       000060400K 10000000010000002057           
CUS0855800000108021672004         HOLLIDAY KENDALL    1610 N FOREST PARK AVE                  000N        CARE OF             
MTR08558000001000000000000000RA              33081922    005801920000019200000520000003NN  NNW 000                       N    
RDG08558000WATRL000000004K00000000000002008014011142014122952N000000000000N88       000750400K 10000000010000002004           
CUS0855800000108021673002         MATTHEWS KEITH M    1608 N FOREST PARK AVE                  000N        CARE OF             
MTR08558000001000000000000000RA              33081924    005801930000019300000520000003NN  NNW 000                       N    
RDG08558000WATRL000000004K00000000000003465014111142014122959N000000000000N88       000070400K 10000000010000003446           
CUS0855800000108021674000         KOROPECKYI MARKO    1606 N FOREST PARK AVE                  000N        CARE OF             
MTR08558000001000000000000000RA              39289510    005801940000019400000520000003NN  NNW 000                       N    
RDG08558000WATRL000000004K00000000000001880014211142014123050N000000000000N88       000510400K 10000000010000001868           
CUS0855800000108021675007         KASHIC STINSON      1604 N FOREST PARK AVE                  000N        CARE OF             
MTR08558000001000000000000000RA              39289565    005801950000019500000520000003NN  NNW 000                       N    
RDG08558000WATRL000000004K00000000000001692014311142014123105N000000000000N88       000150400K 10000000010000001679           
CUS0855800000108021676005         MORROW DNIKA        1602 N FOREST PARK AVE                  000N        CARE OF             
MTR08558000001000000000000000RA              22607414    005801960000019600000520000003NN  NNW 000                       N    
RDG08558000WATRL000000004K00000000000004128014411142014123212N000000000000N88       000670400K 10000000010000004108           
CUS0855800000108021677003         WILLIAMS YOLANDA M  1600 N FOREST PARK AVE                  000N        CARE OF             
MTR08558000001000000000000000RA              35118233    005801970000019700000520000003NN  NNW 000                       N    
RDG08558000WATRL000000004K00000000000003133014511142014123223N000000000000N88       000110400K 10000000010000003113           
CUS0855800000108021678001         STOKES THERESA LYNET1554 N FOREST PARK AVE                  000N        CARE OF             
MTR08558000001000000000000000RA              01094112    005801980000019800000610000003NN  NNW 000                       N    
RDG08558000WATRL000000004K00000000000000745014611142014124731N000000000000N88       009080400K 10000000010000000735           
CUS0855800000108021679009         BROCKINGTON DONTRELL1552 FOREST PARK AVE                    000N        CARE OF             
MTR08558000001000000000000000RA              99999999    005801990000019900000610000003NN  NNW 000                       N    
RDG08558000WATRL000000004K00000000000000935014711142014124741N000000000000N88       000100400K 10000000010000000911           
CUS0855800000108021680007         JOHNSON JEFFERY D SR1550 N FOREST PARK AVE                  000N        CARE OF             
MTR08558000001000000000000000RA              36696264    005802000000020000000520000003NN  NNW 000                       N    
RDG08558000WATRL000000004K00000000000002256014811142014124826N000000000000N88       000450400K 10000000010000002242           
CUS0855800000108021681005         BASS RENETTA E      1548 N FOREST PARK AVE                  000N        CARE OF             
MTR08558000001000000000000000RA              36696068    005802010000020100000520000003NN  NNW 000                       N    
RDG08558000WATRL000000004K00000000000002416014911142014124836N000000000000N88       000100400K 10000000010000002407           
CUS0855800000108021682003         OKWARAOGOMA GRACE   1546 N FOREST PARK AVE                  000N        CARE OF             
MTR08558000001000000000000000RA              26010542    005802020000020200000520000003NN  NNW 000                       N    
RDG08558000WATRL000000004K00000000000002932015011142014124916N000000000000N88       000400400K 10000000010000002929           
CUS0855800000108021683001         WISE ALPHONSO P,SR  1544 N FOREST PARK AVE                  000N        CARE OF             
MTR08558000001000000000000000RA              26014304    005802030000020300000520000003NN  NNW 000                       N    
RDG08558000WATRL000000004K00000000000004654015111142014124929N000000000000N88       000130400K 10000000010000004526           
CUS0855800000108021684009         RIGSBY MICHELLE     1542 N FOREST PARK AVE                  000N        CARE OF             
MTR08558000001000000000000000RA              00131670    005802040000020400000570000003NN  NNW 000                       N    
RDG08558000WATRL000000004K00000000000001966015211142014125027N000000000000N88       000580400K 10000000010000001955           
CUS0855800000108021685006         HARRELL ADRAINE D   1540 N FOREST PARK AVE                  000N        CARE OF             
MTR08558000001000000000000000RA              00135089    005802050000020500000570000003NN  NNW 000                       N    
RDG08558000WATRL000000004K00000000000000893015311142014125033N000000000000N88       000060400K 10000000010000000880           
CUS0855800000108021686004         EDITH DELORES SMALLW1538 N FOREST PARK AVE                  000N        CARE OF             
MTR08558000001000000000000000RA              44179414    005802060000020600000520000003NN  NNW 000                       N    
RDG08558000WATRL000000004K00000000000001464015411142014125102N000000000000N88       000290400K 10000000010000001456           
CUS0855800000108021687002         WILLIAMS RENAY E    1536 N FOREST PARK AVE                  000N        CARE OF             
MTR08558000001000000000000000RA              44179413    005802070000020700000520000003NN  NNW 000                       N    
RDG08558000WATRL000000004K00000000000003242015511142014125106N000000000000N88       000040400K 10000000010000003225           
CUS0855800000108021688000         LEE BARBARA J       1534 N FOREST PARK AVE                  000N        CARE OF             
MTR08558000001000000000000000RA              54348410    005802080000020800000520000003NN  NNW 000                       N    
RDG08558000WATRL000000004K00000000000001154015611142014125138N000000000000N88       000320400K 10000000010000001147           
CUS0855800000108021689008         MOORE DENNIS R      1532 N FOREST PARK AVE                  000N        CARE OF             
MTR08558000001000000000000000RA              54349154    005802090000020900000520000003NN  NNW 000                       N    
RDG08558000WATRL000000004K00000000000001128015711142014125143N000000000000N88       000050400K 10000000010000001119           
CUS0855800000108021690006         ROBERTSON AMY L     1530 N FOREST PARK AVE                  000N        CARE OF             
MTR08558000001000000000000000RA              35114686    005802100000021000000520000003NN  NNW 000                       N    
RDG08558000WATRL000000004K00000000000002215015811142014125214N000400000010N88       000310400K 10000000010000002207           
CUS0855800000108021691004         SMITH ALICE L       1528 N FOREST PARK AVE                  000N        CARE OF             
MTR08558000001000000000000000RA              35114689    005802110000021100000520000003NN  NNW 000                       N    
RDG08558000WATRL000000004K00000000000003034015911142014125219N000000000000N88       000050400K 10000000010000003005           
CUS0855800000108021692002         WALKER MORRIS       1526 N FOREST PARK AVE                  000N        CARE OF             
MTR08558000001000000000000000RA              10001565    005802120000021200000570000003NN  NNW 000                       N    
RDG08558000WATRL000000004K00000000000000489016011142014125304N000000000000N88       000450400K 10000000010000000471           
CUS0855800000108021693000         GLASPIE TONIA       1524 N FOREST PARK AVE                  000N        CARE OF             
MTR08558000001000000000000000RA              10005042    005802130000021300000570000003NN  NNW 000                       N    
RDG08558000WATRL000000004K00000000000000244016111142014125310N000000000000N88       000060400K 10000000010000000235           
CUS0855800000108021694008         ZELLER DOROTHY M    1522 N FOREST PARK AVE                  000N        CARE OF             
MTR08558000001000000000000000RA              9685444     005802140000021400000570000003NN  NNW 000                       N    
RDG08558000WATRL000000004K00000000000007699016211142014125344N000000000000N88       000340400K 10000000010000007699           
CUS0855800000108021695005         RILEY CHARLES       1520 FOREST PARK AVE                    000N        CARE OF             
MTR08558000001000000000000000RA              29682541    005802150000021500000520000003NN  NNW 000                       N    
RDG08558000WATRL000000004K00000000000004103016311142014125349N000000000000N88       000050400K 10000000010000004085           
CUS0855800000108021696003         SUMPTER EVETTE      1518 N FOREST PARK AVE                  000N        CARE OF             
MTR08558000001000000000000000RA              36691063    005802160000021600000520000003NN  NNW 000                       N    
RDG08558000WATRL000000004K00000000000002582016411142014125502N000000000000N88       000730400K 10000000010000002565           
CUS0855800000108021697001         BUTLER TIMOTHY F    1516 N FOREST PARK AVE                  000N        CARE OF             
MTR08558000001000000000000000RA              45375280    005802170000021700000520000003NN  NNW 000                       N    
RDG08558000WATRL000000004K00000000000002252016511142014125506N000000000000N88       000040400K 10000000010000002242           
CUS0855800000108021698009         THOMPSON KEITH      1514 N FOREST PARK AVE                  000N        CARE OF             
MTR08558000001000000000000000RA              27820859    005802180000021800000520000003NN  NNW 000                       N    
RDG08558000WATRL000000004K00000000000002398016611142014125623N000000000000N88       000770400K 10000000010000002385           
CUS0855800000108021699007         TROTTER KENYATTA O  1512 N FOREST PARK AVE                  000N        CARE OF             
MTR08558000001000000000000000RA              32900471    005802190000021900000520000003NN  NNW 000                       N    
RDG08558000WATRL000000004K00000000000002880016711142014125631N000000000000N88       000080400K 10000000010000002833           
CUS0855800000108021700003         JOHNSON-WILLIAMS KIM1510 N FOREST PARK AVE                  000N        CARE OF             
MTR08558000001000000000000000RA              10007144    005802200000022000000570000003NN  NNW 000                       N    
RDG08558000WATRL000000004K00000000000000224016811142014125717N000000000000N88       000460400K 10000000010000000215           
CUS0855800000108021701001         JOHNSON DAVON T     1508 N FOREST PARK AVE                  000N        CARE OF             
MTR08558000001000000000000000RA              14930809    005802210000022100000310000003NN  NNW 000                       N    
RDG08558000WATRL000000004K00000000000000374016911142014125721N000000000000N88       000040400K 10000000010000000366           
CUS0855800000108021702009         BLAKE RAVAE         1506 N FOREST PARK AVE                  000N        CARE OF             
MTR08558000001000000000000000RA              01070759    005802220000022200000610000003NN  NNW 000                       N    
RDG08558000WATRL000000004K00000000000001018017011142014125751N000000000000N88       000300400K 10000000010000001006           
CUS0855800000108021703007         POLLOCK CHERYL P    1504 N FOREST PARK AVE                  000N        CARE OF             
MTR08558000001000000000000000RA              32771859    005802230000022300000520000003NN  NNW 000                       N    
RDG08558000WATRL000000004K00000000000004468017111142014125757N000000000000N88       000060400K 10000000010000004443           
CUS0855800000108021704005         MORRIS BETTY L      1502 N FOREST PARK AVE                  000N        CARE OF             
MTR08558000001000000000000000RA              22608652    005802240000022400000520000003NN  NNW 000                       N    
RDG08558000WATRL000000004K00000000000004282017211142014125851N000000000000N88       000540400K 10000000010000004277           
CUS0855800000108021705002         DIPAULA PHILIP J    1500 N FOREST PARK AVE                  000N        CARE OF             
MTR08558000001000000000000000RA              01070758    005802250000022500000610000003NN  NNW 000                       N    
RDG08558000WATRL000000004K00000000000000619017311142014125858N000000000000N88       000070400K 10000000010000000615           
CUS0855800000108021706000         BAXTER ANTHONY      1101 HARWALL RD                         000N        CARE OF             
MTR08558000001000000000000000RA              44087891    005802260000022600000520000003NN  NNW 000                       N    
RDG08558000WATRL000000004K00000000000001714017511142014130745N000000000000N88       001340400K 10000000010000001696           
CUS0855800000108021707008         JONES TYNISHA       1103 HARWALL RD                         000N        CARE OF             
MTR08558000001000000000000000RA              44087895    005802270000022700000520000003NN  NNW 000                       N    
RDG08558000WATRL000000004K00000000000004204017611142014130755N000000000000N88       000100400K 10000000010000004197           
CUS0855800000108021708006         LASHLEY SHAUNA O    1105 HARWALL RD                         000N        CARE OF             
MTR08558000001000000000000000RA              29403212    005802280000022800000520000003NN  NNW 000                       N    
RDG08558000WATRL000000004K00000000000003537017411142014130531N000000000000N88       003930400K 10000000010000003526           
CUS0855800000108021709004         PHILLIPS DEBORAH A  1107 HARWALL RD                         000N        CARE OF             
MTR08558000001000000000000000RA              40048686    005802290000022900000520000003NN  NNW 000                       N    
RDG08558000WATRL000000004K00000000000001943017711142014130932N000000000000N88       000970400K 10000000010000001943           
CUS0855800000108021710002         HARRIS WAYNE        1109 HARWALL RD                         000N        CARE OF             
MTR08558000001000000000000000RA              40048687    005802300000023000000520000003NN  NNW 000                       N    
RDG08558000WATRL000000004K00000000000001691017811142014130936N000000000000N88       000040400K 10000000010000001682           
CUS0855800000108021711000         SMULLEN JERALYN     1111 HARWALL RD                         000N        CARE OF             
MTR08558000001000000000000000RA              44090202    005802310000023100000520000003NN  NNW 000                       N    
RDG08558000WATRL000000004K00000000000002140017911142014131009N000000000000N88       000330400K 10000000010000002133           
CUS0855800000108021712008         HAMILTON BEVERLY A  1113 HARWALL RD                         000N        CARE OF             
MTR08558000001000000000000000RA              01070754    005802320000023200000610000003NN  NNW 000                       N    
RDG08558000WATRL000000004K00000000000000666018011142014131016N000000000000N88       000070400K 10000000010000000658           
CUS0855800000108021713006         HUD                 1112 HARWALL RD                         000N        CARE OF             
MTR08558000001000000000000000RA              44087877    005802330000023300000520000003NN  NNW 000                       N    
RDG08558000WATRL000000004K00000000000001433018111142014131053N000000000000N88       000370400K 10000000010000001433           
CUS0855800000108021714004         TYNES GLORUSTINE MAY1110 HARWALL RD                         000N        CARE OF             
MTR08558000001000000000000000RA              44087872    005802340000023400000520000003NN  NNW 000                       N    
RDG08558000WATRL000000004K00000000000001373018211142014131119N000000000000N88       000260400K 10000000010000001367           
CUS0855800000108021715001         LEASE JOSEPH D,JR   1108 HARWALL RD                         000N        CARE OF             
MTR08558000001000000000000000RA              44087779    005802350000023500000520000003NN  NNW 000                       N    
RDG08558000WATRL000000004K00000000000001694018311142014131205N000000000010N88       000460400K 10000000010000001678           
CUS0855800000108021716009         FENSTERMACHER BARBAR1106 HARWALL RD                         000N        CARE OF             
MTR08558000001000000000000000RA              44087780    005802360000023600000520000003NN  NNW 000                       N    
RDG08558000WATRL000000004K00000000000002797018411142014131213N000000000000N88       000080400K 10000000010000002779           
CUS0855800000108021717007         GOSNELL STEPHEN KEIT1104 HARWALL RD                         000N        CARE OF             
MTR08558000001000000000000000RA              54350279    005802370000023700000520000003NN  NNW 000                       N    
RDG08558000WATRL000000004K00000000000001008018511142014131244N000400000010N88       000310400K 10000000010000001000           
CUS0855800000108021718005         WOOTEN CLARENCE     1102 HARWALL RD                         000N        CARE OF             
MTR08558000001000000000000000RA              10016476    005802380000023800000570000000NN  NNW 000                       N    
RDG08558000WATRL000000004K00000000000000368018611142014131341N000000000000N88       000570400K 10000000010000000356           
CUS0855800000108021719003         HALL DENIS A        1100 HARWALL RD                         000N        CARE OF             
MTR08558000001000000000000000RA              52286004    005802390000023900000520000003NN  NNW 000                       N    
RDG08558000WATRL000000004K00000000000001851018711142014131354N000000000000N88       000130400K 10000000010000001835           
CUS0855800000108021720001         BRAXTON-BUSHROD CORE1034 HARWALL RD                         000N        CARE OF             
MTR08558000001000000000000000RA              00136633    005802400000024000000570000003NN  NNW 000                       N    
RDG08558000WATRL000000004K00000000000001690018811142014131532N000000000000N88       000980400K 10000000010000001673           
CUS0855800000108021721009         LISA YOUNG          1032 HARWALL RD                         000N        CARE OF             
MTR08558000001000000000000000RA              00136632    005802410000024100000570000003NN  NNW 000                       N    
RDG08558000WATRL000000004K00000000000000688018911142014131536N000000000000N88       000040400K 10000000010000000664           
CUS0855800000108021722007         COFIELD VERLERA     1030 HARWALL RD                         000N        CARE OF             
MTR08558000001000000000000000RA              41257834    005802420000024200000520000003NN  NNW 000                       N    
RDG08558000WATRL000000004K00000000000003169019011142014131615N000000000000N88       000390400K 10000000010000003148           
CUS0855800000108021723005         DRUMMOND JACEN K    1028 HARWALL RD                         000N        CARE OF             
MTR08558000001000000000000000RA              14923144    005802430000024300000310000003NN  NNW 000                       N    
RDG08558000WATRL000000004K00000000000000552019111142014131655N000000000000N88       000400400K 10000000010000000530           
CUS0855800000108021724003         OWENS TONJA         1026 HARWALL RD                         000N        CARE OF             
MTR08558000001000000000000000RA              33081925    005802440000024400000520000003NN  NNW 000                       N    
RDG08558000WATRL000000004K00000000000002021019211142014131700N000000000000N88       000050400K 10000000010000002011           
CUS0855800000108021725000         WATERS ERICA M      1024 HARWALL RD                         000N        CARE OF             
MTR08558000001000000000000000RA              00136629    005802450000024500000570000003NN  NNW 000                       N    
RDG08558000WATRL000000004K00000000000000562019311142014131728N000000000000N88       000280400K 10000000010000000548           
CUS0855800000108021726008         TWIGG AUSTIN D,3RD  1022 HARWALL RD                         000N        CARE OF             
MTR08558000001000000000000000RA              00136630    005802460000024600000570000003NN  NNW 000                       N    
RDG08558000WATRL000000004K00000000000001756019411142014131735N000000000000N88       000070400K 10000000010000001735           
CUS0855800000108021727006         BOYD MARCUS J       1020 HARWALL RD                         000N        CARE OF             
MTR08558000001000000000000000RA              44087894    005802470000024700000520000003NN  NNW 000                       N    
RDG08558000WATRL000000004K00000000000004410019511142014131808N000000000000N88       000330400K 10000000010000004381           
CUS0855800000108021728004         SWETT CRYSTAL H     1018 HARWALL RD                         000N        CARE OF             
MTR08558000001000000000000000RA              44087876    005802480000024800000520000003NN  NNW 000                       N    
RDG08558000WATRL000000004K00000000000003061019611142014131813N000000000000N88       000050400K 10000000010000003037           
CUS0855800000108021729002         SERUGGS SAMUEL L,JR 1016 HARWALL RD                         000N        CARE OF             
MTR08558000001000000000000000RA              10022167    005802490000024900000570000003NN  NNW 000                       N    
RDG08558000WATRL000000004K00000000000000380019711142014131857N000000000000N88       000440400K 10000000010000000368           
CUS0855800000108021730000         DANIELS DORIS       1014 HARWALL RD                         000N        CARE OF             
MTR08558000001000000000000000RA              10022166    005802500000025000000570000003NN  NNW 000                       N    
RDG08558000WATRL000000004K00000000000000033019811142014131901N000000000000N88       000040400K 10000000010000000021           
CUS0855800000108021731008         SMITH ANTHONY B     1012 HARWALL RD                         000N        CARE OF             
MTR08558000001000000000000000RA              44087873    005802510000025100000520000003NN  NNW 000                       N    
RDG08558000WATRL000000004K00000000000003410019911142014131933N000000000000N88       000320400K 10000000010000003367           
CUS0855800000108021732006         MURRAY BARBARA E    1010 HARWALL RD                         000N        CARE OF             
MTR08558000001000000000000000RA              44087874    005802520000025200000520000003NN  NNW 000                       N    
RDG08558000WATRL000000004K00000000000002260020011142014132001N000000000000N88       000280400K 10000000010000002254           
CUS0855800000108021733004         SUTTON ROSALIND A   1008 HARWALL RD                         000N        CARE OF             
MTR08558000001000000000000000RA              27820856    005802530000025300000520000003NN  NNW 000                       N    
RDG08558000WATRL000000004K00000000000003284020111142014132050N000400000010N88       000490400K 10000000010000003278           
CUS0855800000108021734002         STEWART SAMUEL L,JR 1006 HARWALL RD                         000N        CARE OF             
MTR08558000001000000000000000RA              27820765    005802540000025400000520000003NN  NNW 000                       N    
RDG08558000WATRL000000004K00000000000003162020211142014132100N000000000000N88       000100400K 10000000010000003132           
CUS0855800000108021735009         JAMES NATHANIEL,JR  1004 HARWALL RD                         000N        CARE OF             
MTR08558000001000000000000000RA              20767153    005802550000025500000520000003NN  NNW 000                       N    
RDG08558000WATRL000000004K00000000000003414020311142014132133N000000000000N88       000330400K 10000000010000003402           
CUS0855800000108021736007         FINK HARRY H        1002 HARWALL RD                         000N        CARE OF             
MTR08558000001000000000000000RA              44087778    005802560000025600000520000003NN  NNW 000                       N    
RDG08558000WATRL000000004K00000000000001549020411142014132138N000000000000N88       000050400K 10000000010000001544           
CUS0855800000108021737005         CLARK SHARON E      1000 HARWALL RD                         000N        CARE OF             
MTR08558000001000000000000000RA              30524753    005802570000025700000520000003NN  NNW 000                       N    
RDG08558000WATRL000000004K00000000000003147020511142014132210N000000000000N88       000320400K 10000000010000003127           
RTR08558000NN02570257000002570000000002570257000207NY025702570257000000000000000000000000000002    10282014NY020000 N         
RHD08563000NN02190219000002190000000002190219000320NY021902190219000000000000000000000000000002    10282014NY020000 N         
CUS0856300000108025190003         ASHRUF SYED HABEEB  1301 LINCOLN WOODS DR                   000N        CARE OF             
MTR08563000001000000000000000RA              24767005    005800010000000100000520000003NN  NNW 000                       N    
RDG08563000WATRL000000004K00000000000008209006711172014092539N000400000030N88       001290400K 10000000010000008196           
CUS0856300000108025191001         DESAI JAYANT K      1303 LINCOLN WOODS DR                   000N        CARE OF             
MTR08563000001000000000000000RA              23646074    005800020000000200000520000003NN  NNW 000                       N    
RDG08563000WATRL000000004K00000000000006692006611172014092330N000000000000N88       001080400K 10000000010000006639           
CUS0856300000108025192009         STEWART JOHN D,2ND  1305 LINCOLN WOODS DR                   000N        CARE OF             
MTR08563000001000000000000000RA              23648538    005800030000000300000520000003NN  NNW 000                       N    
RDG08563000WATRL000000004K00000000000008154006511172014092142N000000000000N88       000860400K 10000000010000008100           
CUS0856300000108025193007         FORREST CARROLL WAYN3 UNION HALL CT                         000N        CARE OF             
MTR08563000001000000000000000RA              23842791    005800040000000400000520000003NN  NNW 000                       N    
RDG08563000WATRL000000004K00000000000005600000111192014075007N000000000000U88       000000400K 10000000010000005586           
