FHDNNNN007001406001406001406N                                                                                           004568
RHD02092100NN00030003000000030000000000030003000003NY000300030003000000000000000000000000000001    07082015NY020000 N         
CUS0209210000102298540002         ANDREW HEWITT       5818 ROYAL OAK AVE                      000N        CARE OF             
MTR02092100001000000000000000RA              52768984    005800010000000100000520000003NN  NNW 000                       N    
RDG02092100WATRL000000004K00000000000003867000208042015140942N000400000011U26       000810400K 10000000010000003808           
CUS0209210000102413085008         HICKS MILDRED       2716 BEETHOVEN AVE                      000N        CARE OF             
MTR02092100001000000000000000RA              46879159    005800020000000200000520000003NN  NNW 000                       N    
RDG02092100WATRL000000004K00000000000001513000308042015141152N000000000000U26       001300400K 10000000010000001500           
CUS0209210000102298541000         LONG DANIELLE       5820 ROYAL OAK AVE                      000N        CARE OF             
MTR02092100001000000000000000RA              14909974    005800030000000300000310000003NN  NNW 000                       N    
RDG02092100WATRL000000004K00000000000000905000108042015140821N000000000010U26       000000400K 10000000010000000887           
RTR02092100NN00030003000000030000000000030003000003NY000300030003000000000000000000000000000001    07082015NY020000 N         
RHD02642000NN01650165000001650000000001650165000168NY016501650165000600000000000000000000000001    11182015NY020000 N         
CUS0264200000102051960009         YAAKOV S LANGER     6526 COPPERFIELD RD                     000N        CARE OF             
MTR02642000001000000000000000RA              41257552    005800010000000100000520000003NN  NNW 000                       N    
RDG02642000WATRL000000004K00000000000002740000211242015082627N000000000001N23       006000400K 10000000010000002699           
CUS0264200000102051961007         FREEMAN RETA R      6524 COPPERFIELD RD                     000N        CARE OF             
MTR02642000001000000000000000RA              14907434    005800020000000200000310000003NN  NNW 000                       N    
RDG02642000WATRL000000004K00000000000000731000311242015082707N000000000000N23       000400400K 10000000010000000709           
CUS0264200000102051962005         SHEER ALVIN         6522 COPPERFIELD RD                     000N        CARE OF             
MTR02642000001000000000000000RA              41074850    005800030000000300000520000003NN  NNW 000                       N    
RDG02642000WATRL000000004K00000000000002780000411242015082751N000000000000N23       000440400K 10000000010000002762           
CUS0264200000102051963003         HOLLLANDER, SHLOMO& 6520 COPPERFIELD RD                     000N        CARE OF             
MTR02642000001000000000000000RA              77891585    005800040000000400000360000003NN  NNW 000                       N    
RDG02642000WATRL000000004K00000000000000036000511242015082830N000000000010N23       000390400K 10000000010000000000           
CUS0264200000102051964001         SCHECTMAN MORRIS    6518 COPPERFIELD RD                     000N        CARE OF             
MTR02642000001000000000000000RA              00128985    005800050000000500000570000003NN  NNW 000                       N    
RDG02642000WATRL000000004K00000000000001295000611242015082918N000000000001N23       000480400K 10000000010000001272           
CUS0264200000102051965008         SAMET N JOSHUA      6516 COPPERFIELD RD                     000N        CARE OF             
MTR02642000001000000000000000RA              00129029    005800060000000600000570000003NN  NNW 000                       N    
RDG02642000WATRL000000004K00000000000002606000711242015082955N000000000000N23       000370400K 10000000010000002568           
CUS0264200000102051966006         GOLD BRIAN A        6514 COPPERFIELD RD                     000N        CARE OF             
MTR02642000001000000000000000RA              00129027    005800070000000700000570000003NN  NNW 000                       N    
RDG02642000WATRL000000004K00000000000002446000811242015083029N000000000000N23       000340400K 10000000010000002418           
CUS0264200000102051967004         ERICH KAUFFMAN      6512 COPPERFIELD RD                     000N        CARE OF             
MTR02642000001000000000000000RA              00128987    005800080000000800000570000003NN  NNW 000                       N    
RDG02642000WATRL000000004K00000000000001194000911242015083104N000000000000N23       000350400K 10000000010000001175           
CUS0264200000102051968002         HARRISON ALBERT L   6510 COPPERFIELD RD                     000N        CARE OF             
MTR02642000001000000000000000RA              00129032    005800090000000900000570000003NN  NNW 000                       N    
RDG02642000WATRL000000004K00000000000001191001011242015083144N000400000010N23       000400400K 10000000010000001187           
CUS0264200000102051969000         GILDEN SHIRLEY S    6508 COPPERFIELD RD                     000N        CARE OF             
MTR02642000001000000000000000RA              00129031    005800100000001000000570000003NN  NNW 000                       N    
RDG02642000WATRL000000004K00000000000000934001111242015083229N000000000000N23       000450400K 10000000010000000908           
CUS0264200000102051970008         JOSEPH BENYAMINOV   2700 WILLOW GLEN DR                     000N        CARE OF             
MTR02642000001000000000000000RA              45373591    005800110000001100000520000003NN  NNW 000                       N    
RDG02642000WATRL000000004K00000000000001863001211242015083332N000000000000N23       000630400K 10000000010000001816           
CUS0264200000102051971006         CYPKIN MEYER        2702 WILLOW GLEN DR                     000N        CARE OF             
MTR02642000001000000000000000RA              10023502    005800120000001200000570000003NN  NNW 000                       N    
RDG02642000WATRL000000004K00000000000000505001311242015083406N000000000000N23       000340400K 10000000010000000463           
CUS0264200000102051972004         GOLFEIZ SIMIN       2704 WILLOW GLEN DR                     000N        CARE OF             
MTR02642000001000000000000000RA              48588234    005800130000001300000520000003NN  NNW 000                       N    
RDG02642000WATRL000000004K00000000000001496001411242015083435N000000000000N23       000290400K 10000000010000001485           
CUS0264200000102051973002         KOZLOVSKY HARRY L   6501 GARDENWICK RD                      000N        CARE OF             
MTR02642000001000000000000000RA              00128986    005800140000001400000570000003NN  NNW 000                       N    
RDG02642000WATRL000000004K00000000000001563001511242015083625N000000000000N23       001100400K 10000000010000001541           
CUS0264200000102051974000         DICKLER MARC S      6503 GARDENWICK RD                      000N        CARE OF             
MTR02642000001000000000000000RA              00128546    005800150000001500000570000003NN  NNW 000                       N    
RDG02642000WATRL000000004K00000000000001571001611242015083743N000000000000N23       000780400K 10000000010000001560           
CUS0264200000102051975007         WENZI PAMELA        6505 GARDENWICK RD                      000N        CARE OF             
MTR02642000001000000000000000RA              45385899    005800160000001600000520000003NN  NNW 000                       N    
RDG02642000WATRL000000004K00000000000003389001711242015083851N000000000000N23       000680400K 10000000010000003376           
CUS0264200000102051976005         MILLER MURIEL S     6507 GARDENWICK RD                      000N        CARE OF             
MTR02642000001000000000000000RA              00128698    005800170000001700000570000003NN  NNW 000                       N    
RDG02642000WATRL000000004K00000000000001790001811242015083927N000000000000N23       000360400K 10000000010000001769           
CUS0264200000102051977003         BAER SIMCHA         6509 GARDENWICK RD                      000N        CARE OF             
MTR02642000001000000000000000RA              27826595    005800180000001800000520000003NN  NNW 000                       N    
RDG02642000WATRL000000004K00000000000005139001911242015083955N000000000000N23       000280400K 10000000010000005107           
CUS0264200000102051978001         MOSKOWITZ ARI LEE   6511 GARDENWICK RD                      000N        CARE OF             
MTR02642000001000000000000000RA              00128541    005800190000001900000570000003NN  NNW 000                       N    
RDG02642000WATRL000000004K00000000000002472002011242015084021N000000000000N23       000260400K 10000000010000002416           
CUS0264200000102051979009         KORETZKY MARTIN B   6513 GARDENWICK RD                      000N        CARE OF             
MTR02642000001000000000000000RA              00128544    005800200000002000000570000003NN  NNW 000                       N    
RDG02642000WATRL000000004K00000000000001225002111242015084047N000000000000N23       000260400K 10000000010000001210           
CUS0264200000102051980007         LEWIS JOSHUA        6515 GARDENWICK RD                      000N        CARE OF             
MTR02642000001000000000000000RA              48587815    005800210000002100000520000003NN  NNW 000                       N    
RDG02642000WATRL000000004K00000000000002926002211242015084119N000000000000N23       000320400K 10000000010000002887           
CUS0264200000102051981005         SCHUSTER PAUL ROBERT6517 GARDENWICK RD                      000N        CARE OF             
MTR02642000001000000000000000RA              35102570    005800220000002200000520000003NN  NNW 000                       N    
RDG02642000WATRL000000004K00000000000003959002311242015084225N000000000000N23       000660400K 10000000010000003940           
CUS0264200000102051982003         FRANK REUBEN        6519 GARDENWICK RD                      000N        CARE OF             
MTR02642000001000000000000000RA              35102571    005800230000002300000520000003NN  NNW 000                       N    
RDG02642000WATRL000000004K00000000000003541002411242015084256N000000000000N23       000310400K 10000000010000003507           
CUS0264200000102051983001         RADPARVAR SAMAN     6521 GARDENWICK RD                      000N        CARE OF             
MTR02642000001000000000000000RA              48588260    005800240000002400000520000003NN  NNW 000                       N    
RDG02642000WATRL000000004K00000000000002365002511242015084347N000000000000N23       000510400K 10000000010000002332           
CUS0264200000102051984009         LEVIN PAUL M        6523 GARDENWICK RD                      000N        CARE OF             
MTR02642000001000000000000000RA              24220006    005800250000002500000520000003NN  NNW 000                       N    
RDG02642000WATRL000000004K00000000000004530002611242015084429N000000000000N23       000420400K 10000000010000004509           
CUS0264200000102051985006         FINE CHAIM ALEXANDER6525 GARDENWICK RD                      000N        CARE OF             
MTR02642000001000000000000000RA              27814597    005800260000002600000520000003NN  NNW 000                       N    
RDG02642000WATRL000000004K00000000000003462002711242015084512N000000000000N23       000430400K 10000000010000003436           
CUS0264200000102051986004         MINTZ HOWARD L      6527 GARDENWICK RD                      000N        CARE OF             
MTR02642000001000000000000000RA              35102530    005800270000002700000520000003NN  NNW 000                       N    
RDG02642000WATRL000000004K00000000000003066002811242015084559N000000000000N23       000470400K 10000000010000003024           
CUS0264200000102051987002         SANDERS HOWARD JAY  6529 GARDENWICK RD                      000N        CARE OF             
MTR02642000001000000000000000RA              35102531    005800280000002800000520000003NN  NNW 000                       N    
RDG02642000WATRL000000004K00000000000003524002911242015084640N000000000000N23       000410400K 10000000010000003485           
CUS0264200000102051988000         NAIMAN IRVIN        6531 GARDENWICK RD                      000N        CARE OF             
MTR02642000001000000000000000RA              30516108    005800290000002900000520000003NN  NNW 000                       N    
RDG02642000WATRL000000004K00000000000003344003011242015084740N000000000000N23       000600400K 10000000010000003333           
CUS0264200000102051989008         ESKIN WILLIAM I     6522 GARDENWICK RD                      000N        CARE OF             
MTR02642000001000000000000000RA              35118802    005800300000003000000520000003NN  NNW 000                       N    
RDG02642000WATRL000000004K00000000000000000000000000000000000 000000000000U         000000400  10000000010000002700           
CUS0264200000102051990006         BERRY NATAN         6520 GARDENWICK RD                      000N        CARE OF             
MTR02642000001000000000000000RA              35102528    005800310000003100000520000003NN  NNW 000                       N    
RDG02642000WATRL000000004K00000000000003091003111242015085055N000000000000N23       001950400K 10000000010000003062           
CUS0264200000102051991004         MICHAEL KAIZ        6518 GARDENWICK RD                      000N        CARE OF             
MTR02642000001000000000000000RA              35102533    005800320000003200000520000003NN  NNW 000                       N    
RDG02642000WATRL000000004K00000000000003551003211242015085126N000000000000N23       000310400K 10000000010000003517           
CUS0264200000102051992002         RADZINSCHI JUAN C   6516 GARDENWICK RD                      000N        CARE OF             
MTR02642000001000000000000000RA              33077932    005800330000003300000520000003NN  NNW 000                       N    
RDG02642000WATRL000000004K00000000000004858003311242015085217N000000000000N23       000510400K 10000000010000004828           
CUS0264200000102051993000         RAHMANATTAR KERAMATO6514 GARDENWICK RD                      000N        CARE OF             
MTR02642000001000000000000000RA              35102345    005800340000003400000520000003NN  NNW 000                       N    
RDG02642000WATRL000000004K00000000000003477003411242015085254N000000000000N23       000370400K 10000000010000003448           
CUS0264200000102051994008         FRIEDMAN KENNETH    6512 GARDENWICK RD                      000N        CARE OF             
MTR02642000001000000000000000RA              35102532    005800350000003500000520000003NN  NNW 000                       N    
RDG02642000WATRL000000004K00000000000003920003511242015085335N000000000000N23       000410400K 10000000010000003881           
CUS0264200000102051995005         KAGAN JEFFREY H     6510 GARDENWICK RD                      000N        CARE OF             
MTR02642000001000000000000000RA              35102573    005800360000003600000520000003NN  NNW 000                       N    
RDG02642000WATRL000000004K00000000000005470003611242015085405N000000000000N23       000300400K 10000000010000005456           
CUS0264200000102051996003         BERMAN DAVID LEE    6508 GARDENWICK RD                      000N        CARE OF             
MTR02642000001000000000000000RA              35102529    005800370000003700000520000003NN  NNW 000                       N    
RDG02642000WATRL000000004K00000000000004772003711242015085451N000300000010N23       000460400K 10000000010000004678           
CUS0264200000102051997001         LATOVA DANIEL G     6506 GARDENWICK RD                      000N        CARE OF             
MTR02642000001000000000000000RA              35102572    005800380000003800000520000003NN  NNW 000                       N    
RDG02642000WATRL000000004K00000000000003543003811242015085528N000000000000N23       000370400K 10000000010000003517           
CUS0264200000102051998009         BERGER MORRIS       6504 GARDENWICK RD                      000N        CARE OF             
MTR02642000001000000000000000RA              35102574    005800390000003900000520000003NN  NNW 000                       N    
RDG02642000WATRL000000004K00000000000003519003911242015085557N000000000000N23       000290400K 10000000010000003499           
CUS0264200000102051999007         BAUM IRA M          6502 GARDENWICK RD                      000N        CARE OF             
MTR02642000001000000000000000RA              00128702    005800400000004000000570000003NN  NNW 000                       N    
RDG02642000WATRL000000004K00000000000002847004011242015085647N000000000000N23       000500400K 10000000010000002785           
CUS0264200000102052000003         AVIDAN MILEVSKY     6500 GARDENWICK RD                      000N        CARE OF             
MTR02642000001000000000000000RA              00128699    005800410000004100000570000003NN  NNW 000                       N    
RDG02642000WATRL000000004K00000000000001725004111242015085806N000000000000N23       000790400K 10000000010000001678           
CUS0264200000102052001001         DANIEL A SKLARE     6517 COPPERFIELD RD                     000N        CARE OF             
MTR02642000001000000000000000RA              99287638    005800420000004200000570000003NN  NNW 000                       N    
RDG02642000WATRL000000004K00000000000003265004211242015085848N000000000000N23       000420400K 10000000010000003225           
CUS0264200000102052002009         NADLER SHLOMO M     6519 COPPERFIELD RD                     000N        CARE OF             
MTR02642000001000000000000000RA              00128542    005800430000004300000570000003NN  NNW 000                       N    
RDG02642000WATRL000000004K00000000000002685004311242015085926N000000000000N23       000380400K 10000000010000002574           
CUS0264200000102052003007         FRANK LEONARD S     6521 COPPERFIELD RD                     000N        CARE OF             
MTR02642000001000000000000000RA              44176437    005800440000004400000520000003NN  NNW 000                       N    
RDG02642000WATRL000000004K00000000000002303004411242015090006N000000000000N23       000400400K 10000000010000002280           
CUS0264200000102052004005         GREEN HOWARD R      6523 COPPERFIELD RD                     000N        CARE OF             
MTR02642000001000000000000000RA              26003985    005800450000004500000520000003NN  NNW 000                       N    
RDG02642000WATRL000000004K00000000000002700004511242015090121N000000000000N23       000750400K 10000000010000002688           
CUS0264200000102052005002         ZAKAR JOSEPH D      6525 COPPERFIELD RD                     000N        CARE OF             
MTR02642000001000000000000000RA              24229140    005800460000004600000520000003NN  NNW 000                       N    
RDG02642000WATRL000000004K00000000000004010004611242015090208N000000000000N23       000470400K 10000000010000003995           
CUS0264200000102052006000         RADPARVAR SAMAN     6527 COPPERFIELD RD                     000N        CARE OF             
MTR02642000001000000000000000RA              45380999    005800470000004700000520000003NN  NNW 000                       N    
RDG02642000WATRL000000004K00000000000001612004711242015090248N000300000010N23       000400400K 10000000010000001618           
CUS0264200000102052007008         GREEN HOWARD        6529 COPPERFIELD RD                     000N        CARE OF             
MTR02642000001000000000000000RA              41074821    005800480000004800000520000003NN  NNW 000                       N    
RDG02642000WATRL000000004K00000000000003043004811242015090755N000300000040N23       003070400K 10000000010000003065           
CUS0264200000102052008006         DANIEL STIEGLITZ    6531 COPPERFIELD RD                     000N        CARE OF             
MTR02642000001000000000000000RA              00128545    005800490000004900000570000003NN  NNW 000                       N    
RDG02642000WATRL000000004K00000000000001894004911242015090843N000000000000N23       000480400K 10000000010000001842           
CUS0264200000102052009004         TIMIN PAUL L        6533 COPPERFIELD RD                     000N        CARE OF             
MTR02642000001000000000000000RA              41074849    005800500000005000000520000003NN  NNW 000                       N    
RDG02642000WATRL000000004K00000000000002629005011242015090911N000000000000N23       000280400K 10000000010000002608           
CUS0264200000102052010002         GUTKIN DANIEL C     2605 SUMMERSON RD                       000N        CARE OF             
MTR02642000001000000000000000RA              00128697    005800510000005100000570000003NN  NNW 000                       N    
RDG02642000WATRL000000004K00000000000001736005111242015091025N000000000000N23       000740400K 10000000010000001710           
CUS0264200000102052011000         BUNICH ALEXANDRA    2603 SUMMERSON RD                       000N        CARE OF             
MTR02642000001000000000000000RA              00128182    005800520000005200000570000003NN  NNW 000                       N    
RDG02642000WATRL000000004K00000000000001495005211242015091120N000000000000N23       000550400K 10000000010000001477           
CUS0264200000102052012008         BURGAN PAUL         6524 GARDENWICK RD                      000N        CARE OF             
MTR02642000001000000000000000RA              00128701    005800530000005300000570000003NN  NNW 000                       N    
RDG02642000WATRL000000004K00000000000000582005311242015091206N000000000000N23       000460400K 10000000010000000573           
CUS0264200000102052013006         GINSBERG RONALD L   6533 GARDENWICK RD                      000N        CARE OF             
MTR02642000001000000000000000RA              35102575    005800540000005400000520000003NN  NNW 000                       N    
RDG02642000WATRL000000004K00000000000003239005411242015091817N000000000001N23       002420400K 10000000010000003212           
CUS0264200000102052014004         HERMAN POLLY B,TRUST2517 SUMMERSON RD                       000N        CARE OF             
MTR02642000001000000000000000RA              22608735    005800550000005500000520000003NN  NNW 000                       N    
RDG02642000WATRL000000004K00000000000003442005511242015091859N000000000000N23       000420400K 10000000010000003428           
CUS0264200000102052015001         DIAMOND MYRNA LOIS  2515 SUMMERSON RD                       000N        CARE OF             
MTR02642000001000000000000000RA              32900710    005800560000005600000520000003NN  NNW 000                       N    
RDG02642000WATRL000000004K00000000000003462005611242015091951N000000000011N23       000080400K 10000000010000003426           
CUS0264200000102052016009         EISNER WILLIAM S    2513 SUMMERSON RD                       000N        CARE OF             
MTR02642000001000000000000000RA              00128543    005800570000005700000570000003NN  NNW 000                       N    
RDG02642000WATRL000000004K00000000000001207005711242015092031N000000000000N23       000400400K 10000000010000001188           
CUS0264200000102052017007         ROSENBERG MITCHELL A2511 SUMMERSON RD                       000N        CARE OF             
MTR02642000001000000000000000RA              00128700    005800580000005800000570000003NN  NNW 000                       N    
RDG02642000WATRL000000004K00000000000003170005811242015092109N000000000000N23       000380400K 10000000010000003116           
CUS0264200000102052018005         GOODE HOWARD G      2509 SUMMERSON RD                       000N        CARE OF             
MTR02642000001000000000000000RA              35118360    005800590000005900000520000003NN  NNW 000                       N    
RDG02642000WATRL000000004K00000000000006854005911242015092151N000000000000N23       000420400K 10000000010000006788           
CUS0264200000102052019003         STRUM GEORGE        2507 SUMMERSON RD                       000N        CARE OF             
MTR02642000001000000000000000RA              00128662    005800600000006000000570000003NN  NNW 000                       N    
RDG02642000WATRL000000004K00000000000001318006011242015092245N000000000000N23       000540400K 10000000010000001296           
CUS0264200000102052020001         DAVID E FEINBERG    2505 SUMMERSON RD                       000N        CARE OF             
MTR02642000001000000000000000RA              45377128    005800610000006100000520000003NN  NNW 000                       N    
RDG02642000WATRL000000004K00000000000005274006111242015092319N000000000000N23       000340400K 10000000010000005217           
CUS0264200000102052021009         EFRON MICHAEL D     2503 SUMMERSON RD                       000N        CARE OF             
MTR02642000001000000000000000RA              48588214    005800620000006200000520000003NN  NNW 000                       N    
RDG02642000WATRL000000004K00000000000002987006211242015092418N000000000000N23       000590400K 10000000010000002972           
CUS0264200000102052022007         EHUDIN BERTHA       2514 FARRINGDON RD                      000N        CARE OF             
MTR02642000001000000000000000RA              48583176    005800630000006300000520000003NN  NNW 000                       N    
RDG02642000WATRL000000004K00000000000002318006311242015092544N000300000010N23       000860400K 10000000010000002292           
CUS0264200000102052023005         ALBERT RUTH         2516 FARRINGDON RD                      000N        CARE OF             
MTR02642000001000000000000000RA              00128664    005800640000006400000570000003NN  NNW 000                       N    
RDG02642000WATRL000000004K00000000000001002006411242015092638N000000000000N23       000540400K 10000000010000000989           
CUS0264200000102052024003         CAPLAN SONIA,TRUSTEE2518 FARRINGDON RD                      000N        CARE OF             
MTR02642000001000000000000000RA              23648697    005800650000006500000520000003NN  NNW 000                       N    
RDG02642000WATRL000000004K00000000000003984006511242015092715N000000000000N23       000370400K 10000000010000003972           
CUS0264200000102052025000         ELI GLUCK           2520 FARRINGDON RD                      000N        CARE OF             
MTR02642000001000000000000000RA              41259612    005800660000006600000520000003NN  NNW 000                       N    
RDG02642000WATRL000000004K00000000000002628006611242015092753N000000000000N23       000380400K 10000000010000002604           
CUS0264200000102052026008         CIMENT ELIYAHU TZVI 1 FARRINGDON CT                         000N        CARE OF             
MTR02642000001000000000000000RA              00128661    005800670000006700000570000003NN  NNW 000                       N    
RDG02642000WATRL000000004K00000000000001655006711242015092838N000000000000N23       000450400K 10000000010000001608           
CUS0264200000102052027006         SPATZ YEHUDA        3 FARRINGDON CT                         000N        CARE OF             
MTR02642000001000000000000000RA              52290531    005800680000006800000520000003NN  NNW 000                       N    
RDG02642000WATRL000000004K00000000000005336006811242015092938N000300000010N23       000600400K 10000000010000005253           
CUS0264200000102052028004         LIGHTMAN NOAH H     5 FARRINGDON CT                         000N        CARE OF             
MTR02642000001000000000000000RA              00128812    005800690000006900000570000003NN  NNW 000                       N    
RDG02642000WATRL000000004K00000000000002626006911242015093020N000000000000N23       000420400K 10000000010000002594           
CUS0264200000102052029002         GOLDSMITH YAAKOV A  6 FARRINGDON CT                         000N        CARE OF             
MTR02642000001000000000000000RA              44086479    005800700000007000000520000003NN  NNW 000                       N    
RDG02642000WATRL000000004K00000000000002096007011242015093047N000300000010N23       000270400K 10000000010000002058           
CUS0264200000102052030000         LEVY SIDNEY         4 FARRINGDON CT                         000N        CARE OF             
MTR02642000001000000000000000RA              01075282    005800710000007100000610000003NN  NNW 000                       N    
RDG02642000WATRL000000004K00000000000001265007111242015093130N000000000000N23       000430400K 10000000010000001233           
CUS0264200000102052031008         ZYGLER SAMUEL       2524 FARRINGDON RD                      000N        CARE OF             
MTR02642000001000000000000000RA              99390976    005800720000007200000570000003NN  NNW 000                       N    
RDG02642000WATRL000000004K00000000000001929007211242015093233N000000000000N23       000630400K 10000000010000001907           
CUS0264200000102052032006         FADER PAUL L        2526 FARRINGDON RD                      000N        CARE OF             
MTR02642000001000000000000000RA              41259656    005800730000007300000520000003NN  NNW 000                       N    
RDG02642000WATRL000000004K00000000000003291007311242015093325N000000000000N23       000520400K 10000000010000003279           
CUS0264200000102052033004         SHERMAN MURRAY LEE  2528 FARRINGDON RD                      000N        CARE OF             
MTR02642000001000000000000000RA              46875315    005800740000007400000520000003NN  NNW 000                       N    
RDG02642000WATRL000000004K00000000000001743007411242015093416N000000000000N23       000510400K 10000000010000001719           
CUS0264200000102052034002         ZIFFER LAWRENCE     2530 FARRINGDON RD                      000N        CARE OF             
MTR02642000001000000000000000RA              45379857    005800750000007500000520000003NN  NNW 000                       N    
RDG02642000WATRL000000004K00000000000002778007511242015093459N000000000000N23       000430400K 10000000010000002757           
CUS0264200000102052035009         NORA ZADBEH         2532 FARRINGDON RD                      000N        CARE OF             
MTR02642000001000000000000000RA              01088174    005800760000007600000610000003NN  NNW 000                       N    
RDG02642000WATRL000000004K00000000000000000000000000000000000 000000000000U         000000400  10000000010000000820           
CUS0264200000102052036007         MARGOLIS ABRAHAM N  2534 FARRINGDON RD                      000N        CARE OF             
MTR02642000001000000000000000RA              48595069    005800770000007700000520000003NN  NNW 000                       N    
RDG02642000WATRL000000004K00000000000002709007611242015093642N000000000001N23       001030400K 10000000010000002689           
CUS0264200000102052037005         NEMANI ALBERT       2536 FARRINGDON RD                      000N        CARE OF             
MTR02642000001000000000000000RA              00128815    005800780000007800000570000003NN  NNW 000                       N    
RDG02642000WATRL000000004K00000000000001578007711242015093718N000000000000N23       000360400K 10000000010000001563           
CUS0264200000102052038003         GARFUNKEL MICHAEL J 2538 FARRINGDON RD                      000N        CARE OF             
MTR02642000001000000000000000RA              48592650    005800790000007900000520000003NN  NNW 000                       N    
RDG02642000WATRL000000004K00000000000001668007811242015093744N000000000000N23       000260400K 10000000010000001632           
CUS0264200000102052039001         SHOUB SIROUS        2600 WILLOW GLEN DR                     000N        CARE OF             
MTR02642000001000000000000000RA              23427222    005800800000008000000520000003NN  NNW 000                       N    
RDG02642000WATRL000000004K00000000000002319007911242015093902N000000000000N23       000780400K 10000000010000002305           
CUS0264200000102052040009         GITTLESON ARNOLD MAR2602 WILLOW GLEN DR                     000N        CARE OF             
MTR02642000001000000000000000RA              31580147    005800810000008100000520000003NN  NNW 000                       N    
RDG02642000WATRL000000004K00000000000003100008011242015093942N000000000000N23       000400400K 10000000010000003067           
CUS0264200000102052041007         LAMM WALTER L       2604 WILLOW GLEN DR                     000N        CARE OF             
MTR02642000001000000000000000RA              01103459    005800820000008200000610000003NN  NNW 000                       N    
RDG02642000WATRL000000004K00000000000000922008111242015094013N000000000000N23       000310400K 10000000010000000902           
CUS0264200000102052042005         ZIRKIND, MOSHE Y    2606 WILLOW GLEN DR                     000N        CARE OF             
MTR02642000001000000000000000RA              78006530    005800830000008300000360000003NN  NNW 000                       N    
RDG02642000WATRL000000004K00000000000000005008211242015094126N000000000010N23       000730400K 10000000010000000000           
CUS0264200000102052043003         KRUGER ESTHER R     2608 WILLOW GLEN DR                     000N        CARE OF             
MTR02642000001000000000000000RA              9685764     005800840000008400000570000003NN  NNW 000                       N    
RDG02642000WATRL000000004K00000000000005108008311242015094202N000300000010N23       000360400K 10000000010000005126           
CUS0264200000102052044001         ATTAR AFSHIN        2610 WILLOW GLEN DR                     000N        CARE OF             
MTR02642000001000000000000000RA              50478066    005800850000008500000520000003NN  NNW 000                       N    
RDG02642000WATRL000000004K00000000000001354008411242015094359N000000000000N23       001170400K 10000000010000001340           
CUS0264200000102052045008         METH LEONARD        2612 WILLOW GLEN DR                     000N        CARE OF             
MTR02642000001000000000000000RA              10021454    005800860000008600000570000003NN  NNW 000                       N    
RDG02642000WATRL000000004K00000000000000689008511242015094444N000000000000N23       000450400K 10000000010000000627           
CUS0264200000102052046006         VIM MENDY           2614 WILLOW GLEN DR                     000N        CARE OF             
MTR02642000001000000000000000RA              24230637    005800870000008700000520000003NN  NNW 000                       N    
RDG02642000WATRL000000004K00000000000003600008611242015094520N000000000000N23       000360400K 10000000010000003585           
CUS0264200000102052047004         DEMING MARTIN E     2535 FARRINGDON RD                      000N        CARE OF             
MTR02642000001000000000000000RA              45383285    005800880000008800000520000003NN  NNW 000                       N    
RDG02642000WATRL000000004K00000000000001896008711242015094951N000000000000N23       002710400K 10000000010000001874           
CUS0264200000102052048002         LUXENBURG SHMUEL    2533 FARRINGDON RD                      000N        CARE OF             
MTR02642000001000000000000000RA              26018963    005800890000008900000520000003NN  NNW 000                       N    
RDG02642000WATRL000000004K00000000000006536008811242015095102N000000000001N23       000710400K 10000000010000006491           
CUS0264200000102052049000         ROSENBERG DAVID A   2531 FARRINGDON RD                      000N        CARE OF             
MTR02642000001000000000000000RA              01076093    005800900000009000000610000003NN  NNW 000                       N    
RDG02642000WATRL000000004K00000000000002058008911242015095159N000000000000N23       000570400K 10000000010000002019           
CUS0264200000102052050008         ABRAHAM ZUCKERBROD  2529 FARRINGDON RD                      000N        CARE OF             
MTR02642000001000000000000000RA              36688001    005800910000009100000520000003NN  NNW 000                       N    
RDG02642000WATRL000000004K00000000000001801009011242015095236N000000000000N23       000370400K 10000000010000001770           
CUS0264200000102052051006         LUSTMAN STANLEY     2527 FARRINGDON RD                      000N        CARE OF             
MTR02642000001000000000000000RA              23427215    005800920000009200000520000003NN  NNW 000                       N    
RDG02642000WATRL000000004K00000000000005215009111242015095315N000000000000N23       000390400K 10000000010000005201           
CUS0264200000102052052004         MUSMAN JONATHAN     2525 FARRINGDON RD                      000N        CARE OF             
MTR02642000001000000000000000RA              40779150    005800930000009300000520000003NN  NNW 000                       N    
RDG02642000WATRL000000004K00000000000003241009211242015095354N000000000000N23       000390400K 10000000010000003206           
CUS0264200000102052053002         HEINEMANN BENJAMIN  2523 FARRINGDON RD                      000N        CARE OF             
MTR02642000001000000000000000RA              99292382    005800940000009400000570000003NN  NNW 000                       N    
RDG02642000WATRL000000004K00000000000001585009311242015095446N000300000010N23       000520400K 10000000010000001523           
CUS0264200000102052054000         FRIEDMAN ELIOT      2521 FARRINGDON RD                      000N        CARE OF             
MTR02642000001000000000000000RA              24760740    005800950000009500000520000003NN  NNW 000                       N    
RDG02642000WATRL000000004K00000000000005152009411242015095531N000000000010N23       000450400K 10000000010000005130           
CUS0264200000102052055007         FRANKEL HILLEL      2519 FARRINGDON RD                      000N        CARE OF             
MTR02642000001000000000000000RA              23427214    005800960000009600000520000003NN  NNW 000                       N    
RDG02642000WATRL000000004K00000000000004524009511242015095618N000000000000N23       000470400K 10000000010000004489           
CUS0264200000102052056005         E SCHWARZENBERGER   2517 FARRINGDON RD                      000N        CARE OF             
MTR02642000001000000000000000RA              41076666    005800970000009700000520000003NN  NNW 000                       N    
RDG02642000WATRL000000004K00000000000001565009611242015095655N000000000000N23       000370400K 10000000010000001548           
CUS0264200000102052057003         NEAL JAKUBOWICZ     2515 FARRINGDON RD                      000N        CARE OF             
MTR02642000001000000000000000RA              23055590    005800980000009800000520000003NN  NNW 000                       N    
RDG02642000WATRL000000004K00000000000004445009711242015095739N000000000000N23       000440400K 10000000010000004419           
CUS0264200000102052058001         SEIDEN AARON H      2513 FARRINGDON RD                      000N        CARE OF             
MTR02642000001000000000000000RA              14917617    005800990000009900000310000003NN  NNW 000                       N    
RDG02642000WATRL000000004K00000000000000619009811242015095932N000000000000N23       001130400K 10000000010000000606           
CUS0264200000102052059009         COHEN HANANYA       2511 FARRINGDON RD                      000N        CARE OF             
MTR02642000001000000000000000RA              48588242    005801000000010000000520000003NN  NNW 000                       N    
RDG02642000WATRL000000004K00000000000002248009911242015100010N000000000000N23       000380400K 10000000010000002218           
CUS0264200000102052060007         GORLIN EPHRAIM      2509 FARRINGDON RD                      000N        CARE OF             
MTR02642000001000000000000000RA              23055138    005801010000010100000520000003NN  NNW 000                       N    
RDG02642000WATRL000000004K00000000000003166010011242015100104N000000000000N23       000540400K 10000000010000003147           
CUS0264200000102052061005         GROSSMAN PETER HOWAR6508 GREENSPRING AVE                    000N        CARE OF             
MTR02642000001000000000000000RA              46880593    005801020000010200000520000003NN  NNW 000                       N    
RDG02642000WATRL000000004K00000000000002135010111242015100154N000000000000N23       000500400K 10000000010000002102           
CUS0264200000102052062003         KRAMER EDWARD       6506 GREENSPRING AVE                    000N        CARE OF             
MTR02642000001000000000000000RA              40779772    005801030000010300000520000003NN  NNW 000                       N    
RDG02642000WATRL000000004K00000000000001778010211242015100251N000000000000N23       000570400K 10000000010000001748           
CUS0264200000102052063001         BROWN DAVID LEWIS   6504 GREENSPRING AVE                    000N        CARE OF             
MTR02642000001000000000000000RA              9689708     005801040000010400000570000003NN  NNW 000                       N    
RDG02642000WATRL000000004K00000000000007817010311242015100405N000000000001N23       000740400K 10000000010000007798           
CUS0264200000102052064009         HELMAN DAVID ROBERT 6502 GREENSPRING AVE                    000N        CARE OF             
MTR02642000001000000000000000RA              01079835    005801050000010500000610000003NN  NNW 000                       N    
RDG02642000WATRL000000004K00000000000002922010411242015100502N000000000000N23       000570400K 10000000010000002864           
CUS0264200000102052065006         FELDMAN MARSHALL EDW6500 GREENSPRING AVE                    000N        CARE OF             
MTR02642000001000000000000000RA              10009894    005801060000010600000570000003NN  NNW 000                       N    
RDG02642000WATRL000000004K00000000000000189010511242015100612N000000000000N23       000700400K 10000000010000000181           
CUS0264200000102052066004         BAMBERGER FELIX     6501 GLENWICK CT                        000N        CARE OF             
MTR02642000001000000000000000RA              9687461     005801070000010700000570000003NN  NNW 000                       N    
RDG02642000WATRL000000004K00000000000007080010611242015100739N000000000000N23       000870400K 10000000010000007046           
CUS0264200000102052067002         JACOB L KATES       6503 GLENWICK CT                        000N        CARE OF             
MTR02642000001000000000000000RA              01076658    005801080000010800000610000003NN  NNW 000                       N    
RDG02642000WATRL000000004K00000000000000908010711242015100819N000000000000N23       000400400K 10000000010000000878           
CUS0264200000102052068000         LERNER ADAM         6505 GLENWICK CT                        000N        CARE OF             
MTR02642000001000000000000000RA              10024757    005801090000010900000570000003NN  NNW 000                       N    
RDG02642000WATRL000000004K00000000000000376010811242015100852N000000000000N23       000330400K 10000000010000000342           
CUS0264200000102052069008         GROSSMAN MICHAEL D  6507 GLENWICK CT                        000N        CARE OF             
MTR02642000001000000000000000RA              9687510     005801100000011000000570000003NN  NNW 000                       N    
RDG02642000WATRL000000004K00000000000006048010911242015100937N000000000000N23       000450400K 10000000010000006048           
CUS0264200000102052070006         STEINBERG ROBERT A  6509 GLENWICK CT                        000N        CARE OF             
MTR02642000001000000000000000RA              44086795    005801110000011100000520000003NN  NNW 000                       N    
RDG02642000WATRL000000004K00000000000002717011011242015101017N000000000000N23       000400400K 10000000010000002696           
CUS0264200000102052071004         ZAYON MYRON H       6511 GLENWICK CT                        000N        CARE OF             
MTR02642000001000000000000000RA              44086793    005801120000011200000520000003NN  NNW 000                       N    
RDG02642000WATRL000000004K00000000000002487011111242015101054N000000000000N23       000370400K 10000000010000002459           
CUS0264200000102052072002         KERMAIER DANIEL D   6513 GLENWICK CT                        000N        CARE OF             
MTR02642000001000000000000000RA              44086796    005801130000011300000520000003NN  NNW 000                       N    
RDG02642000WATRL000000004K00000000000007663011211242015101138N000000000000N23       000440400K 10000000010000007622           
CUS0264200000102052073000         MAX S SHAPIRO       6515 GLENWICK CT                        000N        CARE OF             
MTR02642000001000000000000000RA              9687646     005801140000011400000570000003NN  NNW 000                       N    
RDG02642000WATRL000000004K00000000000006469011311242015101221N000000000001N23       000430400K 10000000010000006448           
CUS0264200000102052074008         WOLPERT HENRY       6517 GLENWICK CT                        000N        CARE OF             
MTR02642000001000000000000000RA              14923818    005801150000011500000310000003NN  NNW 000                       N    
RDG02642000WATRL000000004K00000000000000877011411242015101254N000000000000N23       000330400K 10000000010000000857           
CUS0264200000102052075005         PERLOW JOSEPH       6519 GLENWICK CT                        000N        CARE OF             
MTR02642000001000000000000000RA              01088745    005801160000011600000610000003NN  NNW 000                       N    
RDG02642000WATRL000000004K00000000000002041011511242015101320N000000000000N23       000260400K 10000000010000002022           
CUS0264200000102052076003         SUNNESS FRED BARRY  6512 GLENWICK CT                        000N        CARE OF             
MTR02642000001000000000000000RA              01082881    005801170000011700000610000003NN  NNW 000                       N    
RDG02642000WATRL000000004K00000000000002092011611242015101336N000000000000N23       000160400K 10000000010000002054           
CUS0264200000102052077001         HAMBURGER JONATHAN  6510 GLENWICK CT                        000N        CARE OF             
MTR02642000001000000000000000RA              75426713    005801180000011800000350000003NN  NNW 000                       N    
RDG02642000WATRL000000004K00000000000000581011711242015101414N000000000000N23       000380400K 10000000010000000519           
CUS0264200000102052078009         KELMAN SHALOM       6508 GLENWICK CT                        000N        CARE OF             
MTR02642000001000000000000000RA              01083200    005801190000011900000610000003NN  NNW 000                       N    
RDG02642000WATRL000000004K00000000000002111011811242015101434N000000000000N23       000200400K 10000000010000002082           
CUS0264200000102052079007         NEMAN EBRAHIM       6506 GLENWICK CT                        000N        CARE OF             
MTR02642000001000000000000000RA              39291012    005801200000012000000520000003NN  NNW 000                       N    
RDG02642000WATRL000000004K00000000000002578011911242015101521N000000000000N23       000470400K 10000000010000002559           
CUS0264200000102052080005         LEHMAN ROBERT B     6504 GLENWICK CT                        000N        CARE OF             
MTR02642000001000000000000000RA              9687498     005801210000012100000570000003NN  NNW 000                       N    
RDG02642000WATRL000000004K00000000000009105012011242015101602N000000000000N23       000410400K 10000000010000009080           
CUS0264200000102052081003         ARON S YEHUDA       6502 GLENWICK CT                        000N        CARE OF             
MTR02642000001000000000000000RA              44086794    005801220000012200000520000003NN  NNW 000                       N    
RDG02642000WATRL000000004K00000000000004387012111242015101818N000000000010N23       001360400K 10000000010000004367           
CUS0264200000102052082001         HOCHMAN STANLEY     2516 WILLOW GLEN DR                     000N        CARE OF             
MTR02642000001000000000000000RA              9687513     005801230000012300000570000003NN  NNW 000                       N    
RDG02642000WATRL000000004K00000000000006832012211242015102017N000300000010N23       001190400K 10000000010000006864           
CUS0264200000102052083009         DOPKIN RICHARD J    2518 WILLOW GLEN DR                     000N        CARE OF             
MTR02642000001000000000000000RA              10013961    005801240000012400000570000003NN  NNW 000                       N    
RDG02642000WATRL000000004K00000000000000399012311242015102109N000000000000N23       000520400K 10000000010000000375           
CUS0264200000102052084007         MIRKIN MITCHELL     2520 WILLOW GLEN DR                     000N        CARE OF             
MTR02642000001000000000000000RA              24765597    005801250000012500000520000003NN  NNW 000                       N    
RDG02642000WATRL000000004K00000000000003793012411242015102145N000000000000N23       000360400K 10000000010000003765           
CUS0264200000102052085004         GUTTENBERG ARYEH    2522 WILLOW GLEN DR                     000N        CARE OF             
MTR02642000001000000000000000RA              46876222    005801260000012600000520000003NN  NNW 000                       N    
RDG02642000WATRL000000004K00000000000003557012511242015102228N000000000000N23       000430400K 10000000010000003542           
CUS0264200000102052086002         LEVEY LAWRENCE A    2524 WILLOW GLEN DR                     000N        CARE OF             
MTR02642000001000000000000000RA              30517419    005801270000012700000520000003NN  NNW 000                       N    
RDG02642000WATRL000000004K00000000000003535012611242015102328N000000000000N23       000600400K 10000000010000003502           
CUS0264200000102052087000         POLLAK JOSEPH E     2526 WILLOW GLEN DR                     000N        CARE OF             
MTR02642000001000000000000000RA              76346282    005801280000012800000350000003NN  NNW 000                       N    
RDG02642000WATRL000000004K00000000000000142012711242015102410N000000000000N23       000420400K 10000000010000000124           
CUS0264200000102052088008         ROSENBLUM RAPHAEL   2528 WILLOW GLEN DR                     000N        CARE OF             
MTR02642000001000000000000000RA              9685999     005801290000012900000570000003NN  NNW 000                       N    
RDG02642000WATRL000000004K00000000000008487012811242015102532N000000000001N23       000820400K 10000000010000008445           
CUS0264200000102052089006         LUNTZ HERBERT       2530 WILLOW GLEN DR                     000N        CARE OF             
MTR02642000001000000000000000RA              48595115    005801300000013000000520000003NN  NNW 000                       N    
RDG02642000WATRL000000004K00000000000002836012911242015102629N000000000000N23       000570400K 10000000010000002787           
CUS0264200000102052090004         FRIEDMAN DAVID L    2508 WILLOW GLEN DR                     000N        CARE OF             
MTR02642000001000000000000000RA              29082444    005801310000013100000520000003NN  NNW 000                       N    
RDG02642000WATRL000000004K00000000000007455015811242015111155N000000000000N23       001040400K 10000000010000007414           
CUS0264200000102052091002         LEVINE AARON        2510 WILLOW GLEN DR                     000N        CARE OF             
MTR02642000001000000000000000RA              9689154     005801320000013200000570000003NN  NNW 000                       N    
RDG02642000WATRL000000004K00000000000002427013011242015103117N000000000000N23       002880400K 10000000010000002393           
CUS0264200000102052092000         LEVY JESSE M        6501 GREENSPRING AVE                    000N        CARE OF             
MTR02642000001000000000000000RA              10007448    005801330000013300000570000003NN  NNW 000                       N    
RDG02642000WATRL000000004K00000000000000408013111242015103152N000000000000N23       000350400K 10000000010000000385           
CUS0264200000102052093008         TARAGIN SHALOM M    6503 GREENSPRING AVE                    000N        CARE OF             
MTR02642000001000000000000000RA              41257186    005801340000013400000520000003NN  NNW 000                       N    
RDG02642000WATRL000000004K00000000000003536013211242015103256N000000000000N23       000640400K 10000000010000003522           
CUS0264200000102052094006         ORSHAN MARTIN IRA   2505 FARRINGDON RD                      000N        CARE OF             
MTR02642000001000000000000000RA              11471627    005801350000013500000570000003NN  NNW 000                       N    
RDG02642000WATRL000000004K00000000000003750013311242015103341N000000000000N23       000450400K 10000000010000003732           
CUS0264200000102052095003         RAHBARAN AMIR       6601 GREENSPRING AVE                    000N        CARE OF             
MTR02642000001000000000000000RA              44003865    005801360000013600000520000003NN  NNW 000                       N    
RDG02642000WATRL000000004K00000000000003077013411242015103457N000000000000N23       000760400K 10000000010000003053           
CUS0264200000102052096001         LEVIN MURRAY H      6603 GREENSPRING AVE                    000N        CARE OF             
MTR02642000001000000000000000RA              41258638    005801370000013700000520000003NN  NNW 000                       N    
RDG02642000WATRL000000004K00000000000002200013511242015103550N000000000000N23       000530400K 10000000010000002166           
CUS0264200000102052097009         MITTELMAN GEORGE    6605 GREENSPRING AVE                    000N        CARE OF             
MTR02642000001000000000000000RA              41589203    005801380000013800000520000003NN  NNW 000                       N    
RDG02642000WATRL000000004K00000000000004074013611242015103645N000000000000N23       000550400K 10000000010000004040           
CUS0264200000102052098007         BIENENSTOCK DAVID   6607 GREENSPRING AVE                    000N        CARE OF             
MTR02642000001000000000000000RA              14916125    005801390000013900000310000003NN  NNW 000                       N    
RDG02642000WATRL000000004K00000000000000888013711242015103720N000000000000N23       000350400K 10000000010000000850           
CUS0264200000102052099005         SUFFIN NATHAN HILLEL6609 GREENSPRING AVE                    000N        CARE OF             
MTR02642000001000000000000000RA              41589160    005801400000014000000520000003NN  NNW 000                       N    
RDG02642000WATRL000000004K00000000000002975013811242015103809N000000000001N23       000490400K 10000000010000002947           
CUS0264200000102052100001         BINDER KEVIN S      6611 GREENSPRING AVE                    000N        CARE OF             
MTR02642000001000000000000000RA              33080212    005801410000014100000520000003NN  NNW 000                       N    
RDG02642000WATRL000000004K00000000000006334013911242015103856N000000000000N23       000470400K 10000000010000006306           
CUS0264200000102406912002         BALTIMORE COUNTY    2500 SMITH AVE                          000N        CARE OF             
MTR02642000001000000000000000RA              44177087    005801420000014200000520000003NN  NNW 000   VACANT / LOT        N    
RDG02642000WATRL000000004K00000000000000000000000000000000000 000000000000U         000000400  10000000010000000259           
CUS0264200000102052101009         MORGENSTERN JOSHUA  2431 SMITH AVE                          000N        CARE OF             
MTR02642000001000000000000000RA              99412086    007501430000014300000570000003NN  NNW 000                       N    
RDG02642000WATRL000000004K00000000000000000000000000000000000 000000000000U         000000400  10000000010000001907           
CUS0264200000102052102007         HARIRI JAVID        6610 OLD PIMLICO RD                     000N        CARE OF             
MTR02642000001000000000000000RA              46880665    005801440000014400000520000003NN  NNW 000                       N    
RDG02642000WATRL000000004K00000000000003017014011242015105129N000000000000N23       007530400K 10000000010000002985           
CUS0264200000102052103005         MOWERY JAMES L      6604 OLD PIMLICO RD                     000N        CARE OF             
MTR02642000001000000000000000RA              01079830    005801450000014500000610000003NN  NNW 000                       N    
RDG02642000WATRL000000004K00000000000001586014111242015105645N000000000005N23       000180400K 10000000010000001557           
CUS0264200000102052104003         FELDMAN, DANIEL     6602 OLD PIMLICO RD                     000N        CARE OF             
MTR02642000001000000000000000RA              44003240    005801460000014600000520000003NN  NNW 000                       N    
RDG02642000WATRL000000004K00000000000004672014211242015105758N000000000011N23       000730400K 10000000010000004654           
CUS0264200000102052105000         PIEKARZ DAVID A     6600 OLD PIMLICO RD                     000N        CARE OF             
MTR02642000001000000000000000RA              01079684    005801470000014700000610000003NN  NNW 000                       N    
RDG02642000WATRL000000004K00000000000001677014311242015105836N000000000000N23       000380400K 10000000010000001640           
CUS0264200000102052106008         ROBERT A ROFFMAN    6510 OLD PIMLICO RD                     000N        CARE OF             
MTR02642000001000000000000000RA              45383053    005801480000014800000520000003NN  NNW 000                       N    
RDG02642000WATRL000000004K00000000000002126014411242015105929N000000000000N23       000530400K 10000000010000002108           
CUS0264200000102052107006         GOLDBERG ARNOLD C   6508 OLD PIMLICO RD                     000N        CARE OF             
MTR02642000001000000000000000RA              45383058    005801490000014900000520000003NN  NNW 000                       N    
RDG02642000WATRL000000004K00000000000002569014511242015110036N000000000000N23       000670400K 10000000010000002553           
CUS0264200000102052108004         SELIS JACOB         6506 OLD PIMLICO RD                     000N        CARE OF             
MTR02642000001000000000000000RA              40321641    005801500000015000000520000003NN  NNW 000                       N    
RDG02642000WATRL000000004K00000000000002471014611242015110119N000000000000N23       000430400K 10000000010000002449           
CUS0264200000102052109002         SCHWARTZ ABRAHAM M  6504 OLD PIMLICO RD                     000N        CARE OF             
MTR02642000001000000000000000RA              41257737    005801510000015100000520000003NN  NNW 000                       N    
RDG02642000WATRL000000004K00000000000003929014711242015110158N000300000010N23       000390400K 10000000010000003905           
CUS0264200000102052110000         ARIEL GOODMAN       6502 PIMLICO RD                         000N        CARE OF             
MTR02642000001000000000000000RA              38886496    005801520000015200000520000003NN  NNW 000                       N    
RDG02642000WATRL000000004K00000000000001881014811242015110239N000000000000N23       000410400K 10000000010000001867           
CUS0264200000102052111008         SCHWARTZ ELLIOTT    2400 WILLOW GLEN DR                     000N        CARE OF             
MTR02642000001000000000000000RA              30523305    005801530000015300000520000003NN  NNW 000                       N    
RDG02642000WATRL000000004K00000000000003671014911242015110326N000000000000N23       000470400K 10000000010000003656           
CUS0264200000102052112006         OPPENHEIM MANFRED   2402 WILLOW GLEN DR                     000N        CARE OF             
MTR02642000001000000000000000RA              31583533    005801540000015400000520000003NN  NNW 000                       N    
RDG02642000WATRL000000004K00000000000003183015011242015110450N000000000000N23       000840400K 10000000010000003147           
CUS0264200000102052113004         HYATT STEVEN M      2404 WILLOW GLEN DR                     000N        CARE OF             
MTR02642000001000000000000000RA              33080241    005801550000015500000520000003NN  NNW 000                       N    
RDG02642000WATRL000000004K00000000000004661015111242015110540N000400000010N23       000500400K 10000000010000004654           
CUS0264200000102052114002         ELIAVE SOBOL        2406 WILLOW GLEN DR                     000N        CARE OF             
MTR02642000001000000000000000RA              00128184    005801560000015600000570000003NN  NNW 000                       N    
RDG02642000WATRL000000004K00000000000002194015211242015110621N000000000000N23       000410400K 10000000010000002169           
CUS0264200000102052115009         WARSCHAWSKI PETER   2408 WILLOW GLEN DR                     000N        CARE OF             
MTR02642000001000000000000000RA              23056671    005801570000015700000520000003NN  NNW 000                       N    
RDG02642000WATRL000000004K00000000000005720015311242015110659N000000000001N23       000380400K 10000000010000005685           
CUS0264200000102052116007         FRIEDMAN ELIYAHU    2410 WILLOW GLEN DR                     000N        CARE OF             
MTR02642000001000000000000000RA              10007255    005801580000015800000570000003NN  NNW 000                       N    
RDG02642000WATRL000000004K00000000000000756015411242015110746N000000000000N23       000470400K 10000000010000000720           
CUS0264200000102052117005         HARIRI JAVID        2412 WILLOW GLEN DR                     000N        CARE OF             
MTR02642000001000000000000000RA              35115735    005801590000015900000520000003NN  NNW 000                       N    
RDG02642000WATRL000000004K00000000000004339015511242015110822N000400000010N23       000360400K 10000000010000004334           
CUS0264200000102052118003         KATZEN ELAINE       2500 WILLOW GLEN DR                     000N        CARE OF             
MTR02642000001000000000000000RA              26001306    005801600000016000000520000003NN  NNW 000                       N    
RDG02642000WATRL000000004K00000000000003068015611242015110906N000000000000N23       000440400K 10000000010000003053           
CUS0264200000102052119001         SCHABES DAVID       2502 WILLOW GLEN DR                     000N        CARE OF             
MTR02642000001000000000000000RA              31936389    005801610000016100000520000003NN  NNW 000                       N    
RDG02642000WATRL000000004K00000000000003961015711242015111011N000000000000N23       000650400K 10000000010000003924           
CUS0264200000102052120009         STERN MOSHE T  STERN2504 WILLOW GLEN DR                     000N        CARE OF             
MTR02642000001000000000000000RA              23427246    005801620000016200000520000003NN  NNW 000                       N    
RDG02642000WATRL000000004K00000000000006268015911242015111317N000000000000N23       000820400K 10000000010000006244           
CUS0264200000102052121007         EISENBERG DAVID     2513 HAL CIR                            000N        CARE OF             
MTR02642000001000000000000000RA              10021863    005801630000016300000570000003NN  NNW 000                       N    
RDG02642000WATRL000000004K00000000000000477000111242015081627N000000000000N23       000000400K 10000000010000000446           
CUS0264200000108440566001         SCHENTZEL MARCI D   2001 SMITH AVE                          000N        CARE OF             
MTR02642000001000000000000000RA              10009033    005801640000016400000570000003NN  NNW 000                       N    
RDG02642000WATRL000000004K00000000000000000000000000000000000 000000000000U         000000400  10000000010000000476           
CUS0264200000108440567009         COURTNEY G MASEAR   2001-A SMITH AVE                        000N        CARE OF             
MTR02642000001000000000000000RA              10019033    005801650000016500000570000003NN  NNW 000                       N    
RDG02642000WATRL000000004K00000000000000000000000000000000000 000000000000U         000000400  10000000010000000920           
RTR02642000NN01650165000001650000000001650165000168NY016501650165000600000000000000000000000001    11182015NY020000 N         
RHD02639300NN01890189000001890000000001890189000262NY018901890189000200000000000000000000000001    11182015NY020000 N         
CUS0263930000102047793001         DICKENS DONALD J    303 HIGHMEADOW RD                       000N        CARE OF             
MTR02639300001000000000000000RA              41258935    005800010000000100000520000003NN  NNW 000                       N    
RDG02639300WATRL000000004K00000000000003551000111242015103515N000000000011U20       001630400K 10000000010000003526           
CUS0263930000102047794009         BOSLEY JOSEPH W,3RD 305 HIGHMEADOW RD                       000N        CARE OF             
MTR02639300001000000000000000RA              41258966    005800020000000200000520000003NN  NNW 000                       N    
RDG02639300WATRL000000004K00000000000002389002511242015103232N000000000010U20       000520400K 10000000010000002357           
CUS0263930000102047795006         CLEAVER BONNIE JEAN 307 HIGHMEADOW RD                       000N        CARE OF             
MTR02639300001000000000000000RA              76346178    005800030000000300000350000003NN  NNW 000                       N    
RDG02639300WATRL000000004K00000000000000080002411242015103140N000000000000U20       000430400K 10000000010000000068           
CUS0263930000102047796004         GIPPRICH JO ANN     309 HIGHMEADOW RD                       000N        CARE OF             
MTR02639300001000000000000000RA              00129645    005800040000000400000570000003NN  NNW 000                       N    
RDG02639300WATRL000000004K00000000000000775002311242015103057N000000000000U20       000710400K 10000000010000000752           
CUS0263930000102047797002         SCHMIDHAUSER ERNEST 311 HIGHMEADOW RD                       000N        CARE OF             
MTR02639300001000000000000000RA              36698830    005800050000000500000520000003NN  NNW 000                       N    
RDG02639300WATRL000000004K00000000000003090002211242015102946N000000000000U20       001860400K 10000000010000003078           
CUS0263930000102047798000         JOHN F EAGAN        313 HIGHMEADOW RD                       000N        CARE OF             
MTR02639300001000000000000000RA              11329508    005800060000000600000570000003NN  NNW 000                       N    
RDG02639300WATRL000000004K00000000000004174002111242015102640N000400000020U20       000710400K 10000000010000004159           
CUS0263930000102047799008         RICHARD R CUTLER    315 HIGHMEADOW RD                       000N        CARE OF             
MTR02639300001000000000000000RA              10017920    005800070000000700000570000003NN  NNW 000                       N    
RDG02639300WATRL000000004K00000000000000253002011242015102529N000000000000U20       000310400K 10000000010000000235           
CUS0263930000102047800004         ZITTLE RIDGELY T    401 HIGHMEADOW RD                       000N        CARE OF             
MTR02639300001000000000000000RA              41258932    005800080000000800000520000003NN  NNW 000                       N    
RDG02639300WATRL000000004K00000000000002588001911242015102458N000000000000U20       000360400K 10000000010000002578           
CUS0263930000102047801002         RUFFNER RICHARD L   403 HIGHMEADOW RD                       000N        CARE OF             
MTR02639300001000000000000000RA              9595696     005800090000000900000570000003NN  NNW 000                       N    
RDG02639300WATRL000000004K00000000000004709001811242015102422N000300000010U20       001480400K 10000000010000004713           
CUS0263930000102047802000         TIMOTHY E SCHMIDT   405 HIGHMEADOW RD                       000N        CARE OF             
MTR02639300001000000000000000RA              44087201    005800100000001000000520000003NN  NNW 000                       N    
RDG02639300WATRL000000004K00000000000000828001711242015102154N000000000000U20       000420400K 10000000010000000812           
CUS0263930000102047803008         RUDOLF R WALTER     407 HIGHMEADOW RD                       000N        CARE OF             
MTR02639300001000000000000000RA              00129622    005800110000001100000570000003NN  NNW 000                       N    
RDG02639300WATRL000000004K00000000000001061001611242015102112N000000000000U20       000300400K 10000000010000001045           
CUS0263930000102047804006         OWNBY DAVID         409 HIGHMEADOW RD                       000N        CARE OF             
MTR02639300001000000000000000RA              00129626    005800120000001200000570000003NN  NNW 000                       N    
RDG02639300WATRL000000004K00000000000001327001511242015102042N000000000000U20       002100400K 10000000010000001303           
CUS0263930000102047805003         ROBERTS ELLA V      411 HIGHMEADOW RD                       000N        CARE OF             
MTR02639300001000000000000000RA              00129625    005800130000001300000570000003NN  NNW 000                       N    
RDG02639300WATRL000000004K00000000000000726001411242015101712N000000000001U20       000230400K 10000000010000000707           
CUS0263930000102047806001         SMITH JOSEPH H,JR   413 HIGHMEADOW RD                       000N        CARE OF             
MTR02639300001000000000000000RA              44173522    005800140000001400000520000003NN  NNW 000                       N    
RDG02639300WATRL000000004K00000000000003505001311242015101628N000000000000U20       000500400K 10000000010000003490           
CUS0263930000102047807009         JOHN M BOOKER       415 HIGHMEADOW RD                       000N        CARE OF             
MTR02639300001000000000000000RA              44173519    005800150000001500000520000003NN  NNW 000                       N    
RDG02639300WATRL000000004K00000000000002635001211242015101538N000000000000U20       002180400K 10000000010000002617           
CUS0263930000102047808007         GULLETT HARRY L     417 HIGHMEADOW RD                       000N        CARE OF             
MTR02639300001000000000000000RA              27131729    005800160000001600000520000003NN  NNW 000                       N    
RDG02639300WATRL000000004K00000000000004082001111242015101200N000300000010U20       000750400K 10000000010000004060           
CUS0263930000102047809005         REYNOLDS EUGENE O   419 HIGHMEADOW RD                       000N        CARE OF             
MTR02639300001000000000000000RA              35119216    005800170000001700000520000003NN  NNW 000                       N    
RDG02639300WATRL000000004K00000000000003126001011242015101045N000000000000U20       000480400K 10000000010000003093           
CUS0263930000102047810003         KARR ELVIN          421 HIGHMEADOW RD                       000N        CARE OF             
MTR02639300001000000000000000RA              32177242    005800180000001800000520000003NN  NNW 000                       N    
RDG02639300WATRL000000004K00000000000003960000911242015100957N000000000010U20       000640400K 10000000010000003934           
CUS0263930000102047811001         VINCENT J MERLO     423 HIGHMEADOW RD                       000N        CARE OF             
MTR02639300001000000000000000RA              48589930    005800190000001900000520000003NN  NNW 000                       N    
RDG02639300WATRL000000004K00000000000002576000811242015100853N000000000000U20       003060400K 10000000010000002541           
CUS0263930000102047812009         KOENIG SEAN R       425 HIGHMEADOW RD                       000N        CARE OF             
MTR02639300001000000000000000RA              36687279    005800200000002000000520000003NN  NNW 000                       N    
RDG02639300WATRL000000004K00000000000003166000711242015100347N000000000010U20       000530400K 10000000010000003140           
CUS0263930000102047813007         GOLDMAN JOSEPH D    427 HIGHMEADOW RD                       000N        CARE OF             
MTR02639300001000000000000000RA              46875843    005800210000002100000520000003NN  NNW 000                       N    
RDG02639300WATRL000000004K00000000000003608000611242015100254N000000000000U20       000440400K 10000000010000003578           
CUS0263930000102047814005         NATHAN S KALE       429 HIGHMEADOW RD                       000N        CARE OF             
MTR02639300001000000000000000RA              45376130    005800220000002200000520000003NN  NNW 000                       N    
RDG02639300WATRL000000004K00000000000001902000511242015100210N000000000000U20       002160400K 10000000010000001884           
CUS0263930000102047815002         SAGEL DANIEL        431 HIGHMEADOW RD                       000N        CARE OF             
MTR02639300001000000000000000RA              01102291    005800230000002300000610000003NN  NNW 000                       N    
RDG02639300WATRL000000004K00000000000000668000411242015095834N000000000000U20       000460400K 10000000010000000630           
CUS0263930000102047816000         BRADFORD H LEDDON   433 HIGHMEADOW RD                       000N        CARE OF             
MTR02639300001000000000000000RA              00129624    005800240000002400000570000003NN  NNW 000                       N    
RDG02639300WATRL000000004K00000000000001169000311242015095748N000000000000U20       000620400K 10000000010000001149           
CUS0263930000102047817008         FILIPPELLI ROBERT P 435 HIGHMEADOW RD                       000N        CARE OF             
MTR02639300001000000000000000RA              00129623    005800250000002500000570000003NN  NNW 000                       N    
RDG02639300WATRL000000004K00000000000001978000211242015095646N000000000000U20       055290400K 10000000010000001952           
CUS0263930000102047818006         BJORKMAN JAN T      309 GLYNDON DR                          000N        CARE OF             
MTR02639300001000000000000000RA              35106757    005800260000002600000520000003NN  NNW 000                       N    
RDG02639300WATRL000000004K00000000000003383000111202015090645N000000000000N20       000000400K 10000000010000003373           
CUS0263930000102047819004         JOSEPH GLAESER      311 GLYNDON DR                          000N        CARE OF             
MTR02639300001000000000000000RA              01116165    005800270000002700000610000003NN  NNW 000                       N    
RDG02639300WATRL000000004K00000000000001022000211202015090725N000000000000N20       000400400K 10000000010000000997           
CUS0263930000102047820002         FINO MARY J         313 GLYNDON DR                          000N        CARE OF             
MTR02639300001000000000000000RA              76346182    005800280000002800000350000003NN  NNW 000                       N    
RDG02639300WATRL000000004K00000000000000224000311202015090807N000000000000N20       000420400K 10000000010000000194           
CUS0263930000102047821000         DUPONT ROSALYN      315 GLYNDON DR                          000N        CARE OF             
MTR02639300001000000000000000RA              14915882    005800290000002900000310000003NN  NNW 000                       N    
RDG02639300WATRL000000004K00000000000000377000411202015091018N000000000000N20       001310400K 10000000010000000372           
CUS0263930000102047822008         SMITH CHARLES       400 GWYNNWEST RD                        000N        CARE OF             
MTR02639300001000000000000000RA              50477163    005800300000003000000520000003NN  NNW 000                       N    
RDG02639300WATRL000000004K00000000000001471000511202015091114N000000000000N20       000560400K 10000000010000001458           
CUS0263930000102047823006         KUTSCHER RONALD J   402 GWYNNWEST RD                        000N        CARE OF             
MTR02639300001000000000000000RA              44173544    005800310000003100000520000003NN  NNW 000                       N    
RDG02639300WATRL000000004K00000000000003282000611202015091517N000000000000N20       002430400K 10000000010000003243           
CUS0263930000102047824004         MADINA BERDICHEVSKY 404 GWYNNWEST RD                        000N        CARE OF             
MTR02639300001000000000000000RA              31584405    005800320000003200000520000003NN  NNW 000                       N    
RDG02639300WATRL000000004K00000000000004253000711202015091603N000000000020N20       000460400K 10000000010000004217           
CUS0263930000102047825001         DHIREN S MISTRY     406 GWYNNWEST RD                        000N        CARE OF             
MTR02639300001000000000000000RA              26014287    005800330000003300000520000003NN  NNW 000                       N    
RDG02639300WATRL000000004K00000000000005545000811202015091658N000000000000N20       000550400K 10000000010000005506           
CUS0263930000102047826009         ROPKA ANDREW M      408 GWYNNWEST RD                        000N        CARE OF             
MTR02639300001000000000000000RA              50476695    005800340000003400000520000003NN  NNW 000                       N    
RDG02639300WATRL000000004K00000000000002056000911202015091834N000000000000N20       000960400K 10000000010000002043           
CUS0263930000102047827007         MAGGIE KARTANOWICZ  410 GWYNNWEST RD                        000N        CARE OF             
MTR02639300001000000000000000RA              10018227    005800350000003500000570000003NN  NNW 000                       N    
RDG02639300WATRL000000004K00000000000000233001011202015091926N000000000010N20       000520400K 10000000010000000225           
CUS0263930000102047828005         RUBIN BARRY J       412 GWYNNWEST RD                        000N        CARE OF             
MTR02639300001000000000000000RA              30517714    005800360000003600000520000003NN  NNW 000                       N    
RDG02639300WATRL000000004K00000000000003675001111202015092000N000000000000N20       000340400K 10000000010000003656           
CUS0263930000102047829003         DANIEL P MURPHY     414 GWYNNWEST RD                        000N        CARE OF             
MTR02639300001000000000000000RA              11331529    005800370000003700000570000003NN  NNW 000                       N    
RDG02639300WATRL000000004K00000000000009106001211202015092146N000000000000N20       001060400K 10000000010000009096           
CUS0263930000102047830001         MONTEL JUAN         416 GWYNNWEST RD                        000N        CARE OF             
MTR02639300001000000000000000RA              11331942    005800380000003800000570000003NN  NNW 000                       N    
RDG02639300WATRL000000004K00000000000003175001311202015092227N000000000000N20       000410400K 10000000010000003163           
CUS0263930000102047831009         CLEMENTS ANTHONY M  400 DEACON BROOK CIR                    000N        CARE OF             
MTR02639300001000000000000000RA              11331609    005800390000003900000570000003NN  NNW 000                       N    
RDG02639300WATRL000000004K00000000000003406001411202015092338N000000000000N20       000710400K 10000000010000003392           
CUS0263930000102047832007         MELVIN A FREUNDLICH 402 DEACON BROOK CIR                    000N        CARE OF             
MTR02639300001000000000000000RA              35097153    005800400000004000000520000003NN  NNW 000                       N    
RDG02639300WATRL000000004K00000000000005195008011202015102005N000000000000N20       000380400K 10000000010000005189           
CUS0263930000102047833005         EUGENE LUBARSKY     404 DEACON BROOK CIR                    000N        CARE OF             
MTR02639300001000000000000000RA              39289397    005800410000004100000520000003NN  NNW 000                       N    
RDG02639300WATRL000000004K00000000000002355001511202015092921N000000000010N20       003430400K 10000000010000002345           
CUS0263930000102047834003         SCHINDLER PHILIP S  406 DEACON BROOK CIR                    000N        CARE OF             
MTR02639300001000000000000000RA              00129646    005800420000004200000570000003NN  NNW 000                       N    
RDG02639300WATRL000000004K00000000000000649001611202015093000N000000000000N20       000390400K 10000000010000000641           
CUS0263930000102047835000         JACQUELINE R. DAVIS 408 DEACON BROOK CIR                    000N        CARE OF             
MTR02639300001000000000000000RA              29083059    005800430000004300000520000003NN  NNW 000                       N    
RDG02639300WATRL000000004K00000000000005735001711202015093040N000000000000N20       000400400K 10000000010000005729           
CUS0263930000102047836008         MILSOM MIRIAM B     4 CARLTON CREST CT                      000N        CARE OF             
MTR02639300001000000000000000RA              52287365    005800440000004400000520000003NN  NNW 000                       N    
RDG02639300WATRL000000004K00000000000001627001811202015093151N000000000000N20       000710400K 10000000010000001582           
CUS0263930000102047837006         LOGAN DAVID         6 CARLTON CREST CT                      000N        CARE OF             
MTR02639300001000000000000000RA              44088027    005800450000004500000520000003NN  NNW 000                       N    
RDG02639300WATRL000000004K00000000000003176001911202015093222N000000000000N20       000310400K 10000000010000003165           
CUS0263930000102047838004         SHUI KAM CHAN       5 CARLTON CREST CT                      000N        CARE OF             
MTR02639300001000000000000000RA              44088023    005800460000004600000520000003NN  NNW 000                       N    
RDG02639300WATRL000000004K00000000000003739002011202015093314N000000000000N20       000520400K 10000000010000003717           
CUS0263930000102047839002         ROSTOLSKY PAUL      3 CARLTON CREST CT                      000N        CARE OF             
MTR02639300001000000000000000RA              10016630    005800470000004700000570000003NN  NNW 000                       N    
RDG02639300WATRL000000004K00000000000000521002111202015093346N000000000010N20       000320400K 10000000010000000493           
CUS0263930000102047840000         GROSS JANET F       410 DEACON BROOK CIR                    000N        CARE OF             
MTR02639300001000000000000000RA              48588259    005800480000004800000520000003NN  NNW 000                       N    
RDG02639300WATRL000000004K00000000000002934002211202015093419N000000000000N20       000330400K 10000000010000002926           
CUS0263930000102047841008         HARRY REPLOGLE      412 DEACON BROOK CIR                    000N        CARE OF             
MTR02639300001000000000000000RA              50791147    005800490000004900000520000003NN  NNW 000                       N    
RDG02639300WATRL000000004K00000000000002871002311202015093540N000000000000N20       000810400K 10000000010000002818           
CUS0263930000102047842006         MENT WILLIAM M      414 DEACON BROOK CIR                    000N        CARE OF             
MTR02639300001000000000000000RA              10013254    005800500000005000000570000003NN  NNW 000                       N    
RDG02639300WATRL000000004K00000000000000348002411202015093610N000000000000N20       000300400K 10000000010000000327           
CUS0263930000102047843004         WRIGHT BRIAN W      416 DEACON BROOK CIR                    000N        CARE OF             
MTR02639300001000000000000000RA              10024496    005800510000005100000570000003NN  NNW 000                       N    
RDG02639300WATRL000000004K00000000000000193002511202015093643N000000000000N20       000330400K 10000000010000000177           
CUS0263930000102047844002         MCLEOD BARRY        418 DEACON BROOK CIR                    000N        CARE OF             
MTR02639300001000000000000000RA              21202685    005800520000005200000520000003NN  NNW 000                       N    
RDG02639300WATRL000000004K00000000000007297002611202015093728N000000000000N20       000450400K 10000000010000007264           
CUS0263930000102047845009         DONNELLY KEVIN J    420 DEACON BROOK CIR                    000N        CARE OF             
MTR02639300001000000000000000RA              00129650    005800530000005300000570000003NN  NNW 000                       N    
RDG02639300WATRL000000004K00000000000001267002711202015093755N000000000000N20       000270400K 10000000010000001253           
CUS0263930000102047846007         HENN THEODORE L 2ND 422 DEACON BROOK CIR                    000N        CARE OF             
MTR02639300001000000000000000RA              48594829    005800540000005400000520000003NN  NNW 000                       N    
RDG02639300WATRL000000004K00000000000002451002811202015093835N000000000000N20       000400400K 10000000010000002419           
CUS0263930000102047847005         DIENER ROBERT S     424 DEACON BROOK CIR                    000N        CARE OF             
MTR02639300001000000000000000RA              48583351    005800550000005500000520000003NN  NNW 000                       N    
RDG02639300WATRL000000004K00000000000004981002911202015093929N000000000010N20       000540400K 10000000010000004955           
CUS0263930000102047848003         FABIAN KIMBERLY     426 DEACON BROOK CIR                    000N        CARE OF             
MTR02639300001000000000000000RA              45373093    005800560000005600000520000003NN  NNW 000                       N    
RDG02639300WATRL000000004K00000000000002553003011202015094008N000000000000N20       000390400K 10000000010000002542           
CUS0263930000102047849001         SCRIMGER CHARLES W  428 DEACON BROOK CIR                    000N        CARE OF             
MTR02639300001000000000000000RA              31584002    005800570000005700000520000003NN  NNW 000                       N    
RDG02639300WATRL000000004K00000000000003172003111202015094057N000000000000N20       000490400K 10000000010000003155           
CUS0263930000102047850009         GALUARDI LISA H     430 DEACON BROOK CIR                    000N        CARE OF             
MTR02639300001000000000000000RA              21202830    005800580000005800000520000003NN  NNW 000                       N    
RDG02639300WATRL000000004K00000000000006137003211202015094141N000000000000N20       000440400K 10000000010000006125           
CUS0263930000102047851007         YAMBOR CHRISTOPHER J432 DEACON BROOK CIR                    000N        CARE OF             
MTR02639300001000000000000000RA              76346181    005800590000005900000350000003NN  NNW 000                       N    
RDG02639300WATRL000000004K00000000000000201003311202015094215N000000000000N20       000340400K 10000000010000000179           
CUS0263930000102047852005         RADOCI STEPHEN A    434 DEACON BROOK CIR                    000N        CARE OF             
MTR02639300001000000000000000RA              35118584    005800600000006000000520000003NN  NNW 000                       N    
RDG02639300WATRL000000004K00000000000004182003411202015094243N000000000010N20       000280400K 10000000010000004167           
CUS0263930000102047853003         RETER BRADLEY L     436 DEACON BROOK CIR                    000N        CARE OF             
MTR02639300001000000000000000RA              11331770    005800610000006100000570000003NN  NNW 000                       N    
RDG02639300WATRL000000004K00000000000006358003511202015094319N000000000000N20       000360400K 10000000010000006342           
CUS0263930000102047854001         KUMAR FRANCES       438 DEACON BROOK CIR                    000N        CARE OF             
MTR02639300001000000000000000RA              01111747    005800620000006200000610000003NN  NNW 000                       N    
RDG02639300WATRL000000004K00000000000001000003611202015094355N000000000000N20       000360400K 10000000010000000978           
CUS0263930000102047855008         BARRON BEATRICE     500 DEACON BROOK CIR                    000N        CARE OF             
MTR02639300001000000000000000RA              44086948    005800630000006300000520000003NN  NNW 000                       N    
RDG02639300WATRL000000004K00000000000002057003711202015094453N000400000010N20       000580400K 10000000010000002052           
CUS0263930000102047856006         THRIFT GARY         502 DEACON BROOK CIR                    000N        CARE OF             
MTR02639300001000000000000000RA              11335708    005800640000006400000570000003NN  NNW 000                       N    
RDG02639300WATRL000000004K00000000000006318003811202015094549N000000000000N20       000560400K 10000000010000006278           
CUS0263930000102047857004         PARKER ROBERT L     504 DEACON BROOK CIR                    000N        CARE OF             
MTR02639300001000000000000000RA              11335680    005800650000006500000570000003NN  NNW 000                       N    
RDG02639300WATRL000000004K00000000000005677003911202015094640N000000000000N20       000510400K 10000000010000005654           
CUS0263930000102047858002         SACABON KERI L PARKE506 DEACON BROOK CIR                    000N        CARE OF             
MTR02639300001000000000000000RA              25781917    005800660000006600000520000003NN  NNW 000                       N    
RDG02639300WATRL000000004K00000000000004010004011202015094643N000000000000N20       000030400K 10000000010000003964           
CUS0263930000102047859000         EPPS MICHELLE D     508 DEACON BROOK CIR                    000N        CARE OF             
MTR02639300001000000000000000RA              00129648    005800670000006700000570000003NN  NNW 000                       N    
RDG02639300WATRL000000004K00000000000001103004111202015094737N000000000000N20       000540400K 10000000010000001091           
CUS0263930000102047860008         CRANDALL MARK W     510 DEACON BROOK CIR                    000N        CARE OF             
MTR02639300001000000000000000RA              44091836    005800680000006800000520000003NN  NNW 000                       N    
RDG02639300WATRL000000004K00000000000002496008111202015103450N000000000000N20       008850400K 10000000010000002481           
CUS0263930000102047900002         LOZOSKY MICHAEL A   502 GWYNNWEST RD                        000N        CARE OF             
MTR02639300001000000000000000RA              45376283    005800690000006900000520000003NN  NNW 000                       N    
RDG02639300WATRL000000004K00000000000000891009511202015104855N000000000010N20       000500400K 10000000010000000868           
CUS0263930000102047901000         GREENSLET PHIL W    504 GWYNNWEST RD                        000N        CARE OF             
MTR02639300001000000000000000RA              52289055    005800700000007000000520000003NN  NNW 000                       N    
RDG02639300WATRL000000004K00000000000000463009411202015104805N000000000000N20       000780400K 10000000010000000463           
CUS0263930000102047902008         MINH XUAN NGUYEN    506 GWYNNWEST RD                        000N        CARE OF             
MTR02639300001000000000000000RA              44088022    005800710000007100000520000003NN  NNW 000                       N    
RDG02639300WATRL000000004K00000000000002724009311202015104647N000000000000N20       000380400K 10000000010000002709           
CUS0263930000102047903006         LIPP ROGER C        508 GWYNNWEST RD                        000N        CARE OF             
MTR02639300001000000000000000RA              11334422    005800720000007200000570000003NN  NNW 000                       N    
RDG02639300WATRL000000004K00000000000004233009211202015104609N000000000000N20       000640400K 10000000010000004220           
CUS0263930000102047904004         AYUB ASIF           510 GWYNNWEST RD                        000N        CARE OF             
MTR02639300001000000000000000RA              1133443     005800730000007300000570000003NN  NNW 000                       N    
RDG02639300WATRL000000004K00000000000007168009111202015104505N000000000000N20       000370400K 10000000010000007136           
CUS0263930000102047905001         WATKINS LOVE C      512 GWYNNWEST RD                        000N        CARE OF             
MTR02639300001000000000000000RA              11334427    005800740000007400000570000003NN  NNW 000                       N    
RDG02639300WATRL000000004K00000000000006613009011202015104428N000000000000N20       000810400K 10000000010000006594           
CUS0263930000102047906009         PACKMAN JOEL B      514 GWYNNWEST RD                        000N        CARE OF             
MTR02639300001000000000000000RA              01093714    005800750000007500000610000003NN  NNW 000                       N    
RDG02639300WATRL000000004K00000000000001057008911202015104307N000000000000N20       000930400K 10000000010000001045           
CUS0263930000102047907007         LESTER L MCCLURE    516 GWYNNWEST RD                        000N        CARE OF             
MTR02639300001000000000000000RA              48594933    005800760000007600000520000003NN  NNW 000                       N    
RDG02639300WATRL000000004K00000000000002755008811202015104134N000000000000N20       000730400K 10000000010000002725           
CUS0263930000102047908005         MORGAN L BAINES     518 GWYNNWEST RD                        000N        CARE OF             
MTR02639300001000000000000000RA              01095302    005800770000007700000610000003NN  NNW 000                       N    
RDG02639300WATRL000000004K00000000000001984008711202015104021N000000000000N20       000330400K 10000000010000001873           
CUS0263930000102047909003         GRIFFIN CLARENCE    520 GWYNNWEST RD                        000N        CARE OF             
MTR02639300001000000000000000RA              01093642    005800780000007800000610000003NN  NNW 000                       N    
RDG02639300WATRL000000004K00000000000001324008611202015103948N000000000000N20       000530400K 10000000010000001295           
CUS0263930000102047910001         TAHIR GHAZALA       522 GWYNNWEST RD                        000N        CARE OF             
MTR02639300001000000000000000RA              32573004    005800790000007900000520000003NN  NNW 000                       N    
RDG02639300WATRL000000004K00000000000005411008511202015103855N000000000000N20       000390400K 10000000010000005384           
CUS0263930000102047911009         GLAZUNOV SERGEI     524 GWYNNWEST RD                        000N        CARE OF             
MTR02639300001000000000000000RA              24223873    005800800000008000000520000003NN  NNW 000                       N    
RDG02639300WATRL000000004K00000000000005710008411202015103816N000000000000N20       000670400K 10000000010000005693           
CUS0263930000102047912007         RIDLEY TYRONE T     526 GWYNNWEST RD                        000N        CARE OF             
MTR02639300001000000000000000RA              35111822    005800810000008100000520000003NN  NNW 000                       N    
RDG02639300WATRL000000004K00000000000003816008311202015103709N000000000000N20       000360400K 10000000010000003766           
CUS0263930000102047913005         GORDON DILLIAN G    528 GWYNNWEST RD                        000N        CARE OF             
MTR02639300001000000000000000RA              35119241    005800820000008200000520000003NN  NNW 000                       N    
RDG02639300WATRL000000004K00000000000003648008211202015103633N000000000000N20       001030400K 10000000010000003615           
CUS0263930000102047861006         ORTEGA JAVIER PADILL530 GWYNNWEST RD                        000N        CARE OF             
MTR02639300001000000000000000RA              11334415    005800830000008300000570000003NN  NNW 000                       N    
RDG02639300WATRL000000004K00000000000006207004211202015094927N000000000010N20       001100400K 10000000010000006165           
CUS0263930000102047862004         LONDON JANET SCHAPIR505 DEACON BROOK CIR                    000N        CARE OF             
MTR02639300001000000000000000RA              00129647    005800840000008400000570000003NN  NNW 000                       N    
RDG02639300WATRL000000004K00000000000001808004311202015095024N000000000000N20       000570400K 10000000010000001740           
CUS0263930000102047863002         GRIFFITH TIMOTHY    503 DEACON BROOK CIR                    000N        CARE OF             
MTR02639300001000000000000000RA              23053467    005800850000008500000520000003NN  NNW 000                       N    
RDG02639300WATRL000000004K00000000000003831004411202015095134N000000000000N20       000700400K 10000000010000003808           
CUS0263930000102047864000         DOYLE BRIAN/DOYLE DO501 DEACON BROOK CIR                    000N        CARE OF             
MTR02639300001000000000000000RA              01094311    005800860000008600000610000003NN  NNW 000                       N    
RDG02639300WATRL000000004K00000000000000714004511202015095216N000000000000N20       000420400K 10000000010000000681           
CUS0263930000102047865007         KRISPIN TIMOTHY H   431 DEACON BROOK CIR                    000N        CARE OF             
MTR02639300001000000000000000RA              30527161    005800870000008700000520000003NN  NNW 000                       N    
RDG02639300WATRL000000004K00000000000004753004611202015095308N000000000000N20       000520400K 10000000010000004706           
CUS0263930000102047866005         ZITTLE OTHO JAMES,JR429 DEACON BROOK CIR                    000N        CARE OF             
MTR02639300001000000000000000RA              11328765    005800880000008800000570000003NN  NNW 000                       N    
RDG02639300WATRL000000004K00000000000006270004711202015095409N000000000000N20       000610400K 10000000010000006250           
CUS0263930000102047867003         ROBERT F MCNEISH    427 DEACON BROOK CIR                    000N        CARE OF             
MTR02639300001000000000000000RA              11328994    005800890000008900000570000003NN  NNW 000                       N    
RDG02639300WATRL000000004K00000000000005734004811202015095523N000300000020N20       000740400K 10000000010000005681           
CUS0263930000102047868001         KENNEDY DAVID P     425 DEACON BROOK CIR                    000N        CARE OF             
MTR02639300001000000000000000RA              39289382    005800900000009000000520000003NN  NNW 000                       N    
RDG02639300WATRL000000004K00000000000002819004911202015095600N000000000000N20       000370400K 10000000010000002808           
CUS0263930000102047869009         KOGELSCHATZ, KRIS L.423 DEACON BROOK CIR                    000N        CARE OF             
MTR02639300001000000000000000RA              44087769    005800910000009100000520000003NN  NNW 000                       N    
RDG02639300WATRL000000004K00000000000002097005011202015095651N000000000000N20       000510400K 10000000010000002072           
CUS0263930000102047870007         SAPP DARRYL S       421 DEACON BROOK CIR                    000N        CARE OF             
MTR02639300001000000000000000RA              01077282    005800920000009200000610000003NN  NNW 000                       N    
RDG02639300WATRL000000004K00000000000001086005111202015095756N000400000010N20       000650400K 10000000010000001072           
CUS0263930000102047871005         HOLLAND, CATHERINE  419 DEACON BROOK CIR                    000N        CARE OF             
