FHDNNNN022005589005589005589N                                                                                           016945
RHD04774500NN01660166000001660000000001660166000137NY016601660166000000000000000000000000000001    10022014NY020000 N         
CUS0477450000104142085002         FLYNN JOHN JACOB    2411 ELLIS RD                           000N        CARE OF             
MTR04774500001000000000000000RA              10011099    005800010000000100000570000003NN  NNW 000                       N    
RDG04774500WATRL000000004K00000000000000602006611252014120117N000000000000N40       000350400K 10000000010000000570           
CUS0477450000104142086000         FLYNN JUNE ELAINE   2413 ELLIS RD                           000N        CARE OF             
MTR04774500001000000000000000RA              24762167    005800020000000200000520000003NN  NNW 000                       N    
RDG04774500WATRL000000004K00000000000002377006511252014120042N000000000000N40       000280400K 10000000010000002363           
CUS0477450000104142087008         CLARKE LINDA E      2415 ELLIS RD                           000N        CARE OF             
MTR04774500001000000000000000RA              10024245    005800030000000300000570000003NN  NNW 000                       N    
RDG04774500WATRL000000004K00000000000000170006411252014120014N000000000000N40       000420400K 10000000010000000150           
CUS0477450000104142088006         FAUST JAMES C       2417 ELLIS RD                           000N        CARE OF             
MTR04774500001000000000000000RA              50786812    005800040000000400000520000003NN  NNW 000                       N    
RDG04774500WATRL000000004K00000000000001258006311252014115932N000000000000N40       000340400K 10000000010000001241           
CUS0477450000104142089004         THOMPSON HENRY A,JR 2419 ELLIS RD                           000N        CARE OF             
MTR04774500001000000000000000RA              33078354    005800050000000500000520000003NN  NNW 000                       N    
RDG04774500WATRL000000004K00000000000002761006211252014115858N000000000000N40       000450400K 10000000010000002753           
CUS0477450000104142090002         ESSLINGER EDWARD C  2421 ELLIS RD                           000N        CARE OF             
MTR04774500001000000000000000RA              35103562    005800060000000600000520000003NN  NNW 000                       N    
RDG04774500WATRL000000004K00000000000001661006111252014115813N000000000000N40       000330400K 10000000010000001654           
CUS0477450000104142091000         WATTS BARBARA L.    2423 ELLIS RD                           000N        CARE OF             
MTR04774500001000000000000000RA              40779628    005800070000000700000520000003NN  NNW 000                       N    
RDG04774500WATRL000000004K00000000000002460006011252014115740N000000000000N40       000520400K 10000000010000002454           
CUS0477450000104142092008         MARTIN FELICIA      2425 ELLIS RD                           000N        CARE OF             
MTR04774500001000000000000000RA              33081435    005800080000000800000520000003NN  NNW 000                       N    
RDG04774500WATRL000000004K00000000000002628005911252014115648N000000000000N40       000410400K 10000000010000002614           
CUS0477450000104142093006         HOLTHAUS RONALD E   2427 ELLIS RD                           000N        CARE OF             
MTR04774500001000000000000000RA              10007287    005800090000000900000570000003NN  NNW 000                       N    
RDG04774500WATRL000000004K00000000000000078005811252014115607N000000000000N40       000310400K 10000000010000000077           
CUS0477450000104142094004         FRANK R. HAGNER 1V  2429 ELLIS RD                           000N        CARE OF             
MTR04774500001000000000000000RA              23053285    005800100000001000000520000003NN  NNW 000                       N    
RDG04774500WATRL000000004K00000000000001447005711252014115536N000000000000N40       000580400K 10000000010000001433           
CUS0477450000104142095001         TORBECK RONALD E    2431 ELLIS RD                           000N        CARE OF             
MTR04774500001000000000000000RA              75616024    005800110000001100000350000003NN  NNW 000                       N    
RDG04774500WATRL000000004K00000000000000009005611252014115438N000000000010N40       000450400K 10000000010000000000           
CUS0477450000104142096009         MIR BABAK           2433 ELLIS RD                           000N        CARE OF             
MTR04774500001000000000000000RA              00129338    005800120000001200000570000003NN  NNW 000                       N    
RDG04774500WATRL000000004K00000000000001683005511252014115353N000400000010N40       000400400K 10000000010000001673           
CUS0477450000104142097007         EINOLF MARJORIE A   2437 ELLIS RD                           000N        CARE OF             
MTR04774500001000000000000000RA              00129336    005800130000001300000570000003NN  NNW 000                       N    
RDG04774500WATRL000000004K00000000000000620005411252014115313N000300000010N40       000640400K 10000000010000000614           
CUS0477450000104142098005         NICHOLAS M. MONEYMAK2439 ELLIS RD                           000N        CARE OF             
MTR04774500001000000000000000RA              45386106    005800140000001400000520000003NN  NNW 000                       N    
RDG04774500WATRL000000004K00000000000000743005311252014115209N000000000000N40       000400400K 10000000010000000735           
CUS0477450000104142099003         LATIF TARIQ         2441 ELLIS RD                           000N        CARE OF             
MTR04774500001000000000000000RA              48594080    005800150000001500000520000003NN  NNW 000                       N    
RDG04774500WATRL000000004K00000000000001535005211252014115129N000000000000N40       000620400K 10000000010000001512           
CUS0477450000104142100009         HEDDERICK ARTHUR P  2443 ELLIS RD                           000N        CARE OF             
MTR04774500001000000000000000RA              44174086    005800160000001600000520000003NN  NNW 000                       N    
RDG04774500WATRL000000004K00000000000001093005111252014115027N000000000000N40       000360400K 10000000010000001084           
CUS0477450000104142101007         WILLIAM KLIPPER     2445 ELLIS RD                           000N        CARE OF             
MTR04774500001000000000000000RA              01080297    005800170000001700000610000003NN  NNW 000                       N    
RDG04774500WATRL000000004K00000000000000709005011252014114951N000400000010N40       000250400K 10000000010000000698           
CUS0477450000104142102005         HEETHER ANN M       2447 ELLIS RD                           000N        CARE OF             
MTR04774500001000000000000000RA              29084864    005800180000001800000520000003NN  NNW 000                       N    
RDG04774500WATRL000000004K00000000000002226004911252014114926N000000000020N40       000540400K 10000000010000002213           
CUS0477450000104142103003         HENSEL WILLIAM EDWAR2449 ELLIS RD                           000N        CARE OF             
MTR04774500001000000000000000RA              24228614    005800190000001900000520000003NN  NNW 000                       N    
RDG04774500WATRL000000004K00000000000003567004811252014114832N000300000010N40       000550400K 10000000010000003551           
CUS0477450000104142104001         KEANE MARK E        2451 ELLIS RD                           000N        CARE OF             
MTR04774500001000000000000000RA              38983214    005800200000002000000520000003NN  NNW 000                       N    
RDG04774500WATRL000000004K00000000000001170004711252014114737N000000000000N40       000380400K 10000000010000001162           
CUS0477450000104142105008         LOPEZ MARY DIXON    2453 ELLIS RD                           000N        CARE OF             
MTR04774500001000000000000000RA              44002060    005800210000002100000520000003NN  NNW 000                       N    
RDG04774500WATRL000000004K00000000000002284004611252014114659N000000000000N40       000550400K 10000000010000002269           
CUS0477450000104142106006         LOEWE ROBERT T      2457 ELLIS RD                           000N        CARE OF             
MTR04774500001000000000000000RA              44088769    005800220000002200000520000003NN  NNW 000                       N    
RDG04774500WATRL000000004K00000000000000425004511252014114604N000000000000N40       000360400K 10000000010000000421           
CUS0477450000104142107004         CARREIRA ALLAN D    2459 ELLIS RD                           000N        CARE OF             
MTR04774500001000000000000000RA              48594094    005800230000002300000520000003NN  NNW 000                       N    
RDG04774500WATRL000000004K00000000000001754004411252014114528N000400000010N40       000400400K 10000000010000001744           
CUS0477450000104142108002         SARANDOS PAUL E     2461 ELLIS RD                           000N        CARE OF             
MTR04774500001000000000000000RA              27213335    005800240000002400000520000003NN  NNW 000                       N    
RDG04774500WATRL000000004K00000000000002529004311252014114448N000000000000N40       000420400K 10000000010000002521           
CUS0477450000104142109000         CULLATI PETER J     2463 ELLIS RD                           000N        CARE OF             
MTR04774500001000000000000000RA              35113894    005800250000002500000520000003NN  NNW 000                       N    
RDG04774500WATRL000000004K00000000000002321004211252014114406N000000000000N40       000510400K 10000000010000002294           
CUS0477450000104142110008         HOLT PEARIN D,2ND   2465 ELLIS RD                           000N        CARE OF             
MTR04774500001000000000000000RA              11428256    005800260000002600000570000003NN  NNW 000                       N    
RDG04774500WATRL000000004K00000000000003234004111252014114315N000000000000N40       000630400K 10000000010000003215           
CUS0477450000104142111006         GAY MICHAEL G       2468 ELLIS RD                           000N        CARE OF             
MTR04774500001000000000000000RA              38984214    005800270000002700000520000003NN  NNW 000                       N    
RDG04774500WATRL000000004K00000000000003000004011252014114212N000000000000N40       000950400K 10000000010000002969           
CUS0477450000104142112004         MICHAEL G. GAY      2466 ELLIS RD                           000N        CARE OF             
MTR04774500001000000000000000RA              00129258    005800280000002800000570000003NN  NNW 000                       N    
RDG04774500WATRL000000004K00000000000000500003911252014114037N000000000000N40       000350400K 10000000010000000495           
CUS0477450000104142113002         BOROWSKI CASIMIR P,J2464 ELLIS RD                           000N        CARE OF             
MTR04774500001000000000000000RA              00129333    005800290000002900000570000003NN  NNW 000                       N    
RDG04774500WATRL000000004K00000000000000634003811252014114002N000000000000N40       000350400K 10000000010000000622           
CUS0477450000104142114000         FUNK STEPHEN E,SR   2462 ELLIS RD                           000N        CARE OF             
MTR04774500001000000000000000RA              01100227    005800300000003000000610000003NN  NNW 000                       N    
RDG04774500WATRL000000004K00000000000000692003711252014113927N000000000000N40       000290400K 10000000010000000674           
CUS0477450000104142115007         JENKINS WILLIAM A,JR2460 ELLIS RD                           000N        CARE OF             
MTR04774500001000000000000000RA              99188023    005800310000003100000570000003NN  NNW 000                       N    
RDG04774500WATRL000000004K00000000000000756003611252014113858N000000000000N40       000280400K 10000000010000000750           
CUS0477450000104142116005         RONNIE B APPLEBEE   2458 ELLIS RD                           000N        CARE OF             
MTR04774500001000000000000000RA              22609069    005800320000003200000520000003NN  NNW 000                       N    
RDG04774500WATRL000000004K00000000000005459003511252014113830N000000000000N40       000360400K 10000000010000005445           
CUS0477450000104142117003         SIMON ARNEL A       2456 ELLIS RD                           000N        CARE OF             
MTR04774500001000000000000000RA              50789033    005800330000003300000520000003NN  NNW 000                       N    
RDG04774500WATRL000000004K00000000000001962003411252014113754N000000000000N40       000640400K 10000000010000001945           
CUS0477450000104142118001         THEODORE W KOSTOPOUL2454 ELLIS RD                           000N        CARE OF             
MTR04774500001000000000000000RA              45375798    005800340000003400000520000003NN  NNW 000                       N    
RDG04774500WATRL000000004K00000000000001079003311252014113650N000000000000N40       000390400K 10000000010000001073           
CUS0477450000104142119009         VAETH REGINA        2452 ELLIS RD                           000N        CARE OF             
MTR04774500001000000000000000RA              48594091    005800350000003500000520000003NN  NNW 000                       N    
RDG04774500WATRL000000004K00000000000001076003211252014113611N000000000000N40       000400400K 10000000010000001063           
CUS0477450000104142120007         KNIGHTON JOHN J,JR  2450 ELLIS RD                           000N        CARE OF             
MTR04774500001000000000000000RA              30516451    005800360000003600000520000003NN  NNW 000                       N    
RDG04774500WATRL000000004K00000000000003588003111252014113531N000000000000N40       000440400K 10000000010000003538           
CUS0477450000104142121005         ARNOLD RICHARD B    2448 ELLIS RD                           000N        CARE OF             
MTR04774500001000000000000000RA              01081636    005800370000003700000610000003NN  NNW 000                       N    
RDG04774500WATRL000000004K00000000000001109003011252014113447N000000000000N40       000370400K 10000000010000001097           
CUS0477450000104142122003         HILDEBRAND WILLIAM R2446 ELLIS RD                           000N        CARE OF             
MTR04774500001000000000000000RA              10017353    005800380000003800000570000003NN  NNW 000                       N    
RDG04774500WATRL000000004K00000000000000158002911252014113410N000000000000N40       000430400K 10000000010000000146           
CUS0477450000104142123001         SACILOTTO BETH ANN  2444 ELLIS RD                           000N        CARE OF             
MTR04774500001000000000000000RA              22609009    005800390000003900000520000003NN  NNW 000                       N    
RDG04774500WATRL000000004K00000000000000325002811252014113327N000000000000N40       000500400K 10000000010000000309           
CUS0477450000104142124009         DUNAWAY HUDNALL W   2442 ELLIS RD                           000N        CARE OF             
MTR04774500001000000000000000RA              35117098    005800400000004000000520000003NN  NNW 000                       N    
RDG04774500WATRL000000004K00000000000002255002711252014113237N000000000000N40       000340400K 10000000010000002249           
CUS0477450000104142125006         MERRYMAN BRYAN      2440 ELLIS RD                           000N        CARE OF             
MTR04774500001000000000000000RA              00132183    005800410000004100000570000003NN  NNW 000                       N    
RDG04774500WATRL000000004K00000000000000437002611252014113203N000000000020N40       000920400K 10000000010000000433           
CUS0477450000104142126004         ROCKEL DAVID DEAN   2438 ELLIS RD                           000N        CARE OF             
MTR04774500001000000000000000RA              10011721    005800420000004200000570000003NN  NNW 000                       N    
RDG04774500WATRL000000004K00000000000000284002511252014113031N000000000000N40       000440400K 10000000010000000268           
CUS0477450000104142127002         CAMPBELL PAUL G     2436 ELLIS RD                           000N        CARE OF             
MTR04774500001000000000000000RA              10018875    005800430000004300000570000003NN  NNW 000                       N    
RDG04774500WATRL000000004K00000000000000301002411252014112947N000000000000N40       000360400K 10000000010000000277           
CUS0477450000104142128000         ADAMS MILTON T,JR  A2434 ELLIS RD                           000N        CARE OF             
MTR04774500001000000000000000RA              00129334    005800440000004400000570000003NN  NNW 000                       N    
RDG04774500WATRL000000004K00000000000001350002311252014112911N000000000000N40       000320400K 10000000010000001345           
CUS0477450000104142129008         HENSEL WILLIAM E,JR 2432 ELLIS RD                           000N        CARE OF             
MTR04774500001000000000000000RA              75614920    005800450000004500000350000003NN  NNW 000                       N    
RDG04774500WATRL000000004K00000000000000102002211252014112839N000400000010N40       000450400K 10000000010000000100           
CUS0477450000104142130006         SCHUBERT RICHARD J  2430 ELLIS RD                           000N        CARE OF             
MTR04774500001000000000000000RA              76347712    005800460000004600000350000003NN  NNW 000                       N    
RDG04774500WATRL000000004K00000000000000015002111252014112754N000000000000N40       000390400K 10000000010000000005           
CUS0477450000104142131004         TANNER CHARLES      2428 ELLIS RD                           000N        CARE OF             
MTR04774500001000000000000000RA              01103818    005800470000004700000610000003NN  NNW 000                       N    
RDG04774500WATRL000000004K00000000000000716002011252014112715N000000000000N40       000350400K 10000000010000000695           
CUS0477450000104142132002         CURRERI SUSAN A     2426 ELLIS RD                           000N        CARE OF             
MTR04774500001000000000000000RA              30525757    005800480000004800000520000003NN  NNW 000                       N    
RDG04774500WATRL000000004K00000000000001258001911252014112640N000000000000N40       000300400K 10000000010000001253           
CUS0477450000104142133000         KERRY SMITH         2424 ELLIS RD                           000N        CARE OF             
MTR04774500001000000000000000RA              44090601    005800490000004900000520000003NN  NNW 000                       N    
RDG04774500WATRL000000004K00000000000001335001811252014112610N000000000000N40       000300400K 10000000010000001331           
CUS0477450000104142134008         GRIMSLEY LANA B     2422 ELLIS RD                           000N        CARE OF             
MTR04774500001000000000000000RA              27813373    005800500000005000000520000003NN  NNW 000                       N    
RDG04774500WATRL000000004K00000000000001888001711252014112540N000000000000N40       000340400K 10000000010000001885           
CUS0477450000104142135005         HOUGH RICHARD       2420 ELLIS RD                           000N        CARE OF             
MTR04774500001000000000000000RA              32904103    005800510000005100000520000003NN  NNW 000                       N    
RDG04774500WATRL000000004K00000000000002346001611252014112506N000000000000N40       000330400K 10000000010000002336           
CUS0477450000104142136003         DEFEO ANTHONY M     2418 ELLIS RD                           000N        CARE OF             
MTR04774500001000000000000000RA              10002903    005800520000005200000570000003NN  NNW 000                       N    
RDG04774500WATRL000000004K00000000000000206001511252014112433N000000000000N40       000470400K 10000000010000000190           
CUS0477450000104142137001         DRESSEL GEORGE H,3RD2416 ELLIS RD                           000N        CARE OF             
MTR04774500001000000000000000RA              44175917    005800530000005300000520000003NN  NNW 000                       N    
RDG04774500WATRL000000004K00000000000001945001411252014112346N000000000000N40       000380400K 10000000010000001925           
CUS0477450000104142138009         MYERS ELLINOR E     2414 ELLIS RD                           000N        CARE OF             
MTR04774500001000000000000000RA              33081708    005800540000005400000520000003NN  NNW 000                       N    
RDG04774500WATRL000000004K00000000000002347001311252014112308N000000000000N40       000380400K 10000000010000002338           
CUS0477450000104142139007         DERRENBERGER JOHN A 2412 ELLIS RD                           000N        CARE OF             
MTR04774500001000000000000000RA              99290798    005800550000005500000570000003NN  NNW 000                       N    
RDG04774500WATRL000000004K00000000000000970001211252014112230N000000000000N40       000280400K 10000000010000000960           
CUS0477450000104142140005         SHIELDS JACLYN      2410 ELLIS RD                           000N        CARE OF             
MTR04774500001000000000000000RA              52770097    005800560000005600000520000003NN  NNW 000                       N    
RDG04774500WATRL000000004K00000000000001457001111252014112202N000000000000N40       000640400K 10000000010000001437           
CUS0477450000104142141003         JAGODZINSKI JOSEPH W2408 ELLIS RD                           000N        CARE OF             
MTR04774500001000000000000000RA              27832825    005800570000005700000520000003NN  NNW 000                       N    
RDG04774500WATRL000000004K00000000000001413001011252014112058N000000000000N40       000450400K 10000000010000001386           
CUS0477450000104142142001         HOEN LEONARD S      2406 ELLIS RD                           000N        CARE OF             
MTR04774500001000000000000000RA              20968576    005800580000005800000520000003NN  NNW 000                       N    
RDG04774500WATRL000000004K00000000000003759000911252014112013N000000000000N40       002320400K 10000000010000003755           
CUS0477450000104142143009         BRENNAN DANIEL J    8713 OLD HARFORD RD                     000N        CARE OF             
MTR04774500001000000000000000RA              00129218    005800590000005900000570000003NN  NNW 000                       N    
RDG04774500WATRL000000004K00000000000001203000811252014111621N000000000010N40       000060400K 10000000010000001191           
CUS0477450000104142144007         SEQUIN TRACY JOHN   8715 OLD HARFORD RD                     000N        CARE OF             
MTR04774500001000000000000000RA              31580918    005800600000006000000520000003NN  NNW 000                       N    
RDG04774500WATRL000000004K00000000000003010000711252014111615N000000000010N40       000140400K 10000000010000002993           
CUS0477450000104142145004         GREEN DONNA M       8717 OLD HARFORD RD                     000N        CARE OF             
MTR04774500001000000000000000RA              27213332    005800610000006100000520000003NN  NNW 000                       N    
RDG04774500WATRL000000004K00000000000002631000611252014111601N000000000040N40       000170400K 10000000010000002603           
CUS0477450000104142146002         KRAUSE WAYNE DAVID,S8719 OLD HARFORD RD                     000N        CARE OF             
MTR04774500001000000000000000RA              50476527    005800620000006200000520000003NN  NNW 000                       N    
RDG04774500WATRL000000004K00000000000001666000511252014111544N000000000000N40       000040400K 10000000010000001655           
CUS0477450000104142147000         DEGUZMAN JOHN VERA  8721 OLD HARFORD RD                     000N        CARE OF             
MTR04774500001000000000000000RA              00129742    005800630000006300000570000003NN  NNW 000                       N    
RDG04774500WATRL000000004K00000000000001100000411252014111540N000000000000N40       000060400K 10000000010000001087           
CUS0477450000104142148008         TAYLOR TAMMAR R     8725 OLD HARFORD RD                     000N        CARE OF             
MTR04774500001000000000000000RA              50787293    005800640000006400000520000003NN  NNW 000                       N    
RDG04774500WATRL000000004K00000000000001392000311252014111534N000000000000N40       000070400K 10000000010000001381           
CUS0477450000104142149006         LEVERTON DONALD C   8727 OLD HARFORD RD                     000N        CARE OF             
MTR04774500001000000000000000RA              27333601    007500650000006500000520000003NN  NNW 000                       N    
RDG04774500WATRL000000004K00000000000002175000211252014111527N000000000000N40       000060400K 10000000010000002166           
CUS0477450000104142150004         JOHN R VOELKER      8731 OLD HARFORD RD                     000N        CARE OF             
MTR04774500001000000000000000RA              35111773    005800660000006600000520000003NN  NNW 000                       N    
RDG04774500WATRL000000004K00000000000001111000111252014111521N000000000000N40       000000400K 10000000010000001100           
CUS0477450000104142151002         COOPER ANN,TRUSTEE  8733 OLD HARFORD RD                     000N        CARE OF             
MTR04774500001000000000000000RA              44090004    005800670000006700000520000003NN  NNW 000                       N    
RDG04774500WATRL000000004K00000000000000998000111262014080616N000000000000U40       000000400K 10000000010000000991           
CUS0477450000104142152000         DRESSEL LOIS S      8735 OLD HARFORD RD                     000N        CARE OF             
MTR04774500001000000000000000RA              44087582    005800680000006800000520000003NN  NNW 000                       N    
RDG04774500WATRL000000004K00000000000001449000211262014080641N000000000000U40       000250400K 10000000010000001440           
CUS0477450000104142153008         CONJURA EDWARD A    8739 OLD HARFORD RD                     000N        CARE OF             
MTR04774500001000000000000000RA              00129335    005800690000006900000570000003NN  NNW 000                       N    
RDG04774500WATRL000000004K00000000000001027000311262014080732N000400000010U40       000510400K 10000000010000001016           
CUS0477450000104142154006         WILLIAMS CLAUDE D   8741 OLD HARFORD RD                     000N        CARE OF             
MTR04774500001000000000000000RA              25782598    005800700000007000000520000003NN  NNW 000                       N    
RDG04774500WATRL000000004K00000000000003025000411262014080759N000000000000U40       000270400K 10000000010000003008           
CUS0477450000104142155003         MCCRAY JADA M       8743 OLD HARFORD RD                     000N        CARE OF             
MTR04774500001000000000000000RA              30517307    005800710000007100000520000003NN  NNW 000                       N    
RDG04774500WATRL000000004K00000000000002803000511262014080830N000000000000U40       000310400K 10000000010000002777           
CUS0477450000104142156001         PEDI ROSEANN        8745 OLD HARFORD RD                     000N        CARE OF             
MTR04774500001000000000000000RA              00128927    005800720000007200000570000003NN  NNW 000                       N    
RDG04774500WATRL000000004K00000000000000751000611262014080905N000000000000U40       000350400K 10000000010000000742           
CUS0477450000104142157009         KELLEY CHARLES L    8747 OLD HARFORD RD                     000N        CARE OF             
MTR04774500001000000000000000RA              00129215    005800730000007300000570000003NN  NNW 000                       N    
RDG04774500WATRL000000004K00000000000001221000711262014080947N000000000000U40       000420400K 10000000010000001198           
CUS0477450000104142158007         LUCKAN WILLIAM      8749 OLD HARFORD RD                     000N        CARE OF             
MTR04774500001000000000000000RA              27832905    005800740000007400000520000003NN  NNW 000                       N    
RDG04774500WATRL000000004K00000000000003877000811262014081029N000000000000U40       000420400K 10000000010000003856           
CUS0477450000104142159005         MANTEGNA JOHN J     8751 OLD HARFORD RD                     000N        CARE OF             
MTR04774500001000000000000000RA              41082456    005800750000007500000520000003NN  NNW 000                       N    
RDG04774500WATRL000000004K00000000000001998000911262014081103N000000000000U40       000340400K 10000000010000001985           
CUS0477450000104142160003         FREBURGER EDMUND W  8753 OLD HARFORD RD                     000N        CARE OF             
MTR04774500001000000000000000RA              44002812    005800760000007600000520000003NN  NNW 000                       N    
RDG04774500WATRL000000004K00000000000003870001011262014081137N000000000000U40       000340400K 10000000010000003845           
CUS0477450000104142161001         KRISTINA GULLIVAN   8755 OLD HARFORD RD                     000N        CARE OF             
MTR04774500001000000000000000RA              44002811    005800770000007700000520000003NN  NNW 000                       N    
RDG04774500WATRL000000004K00000000000001813001111262014081146N000000000000U40       000090400K 10000000010000001802           
CUS0477450000104142162009         BIRRANE ROBERT J,JR 8757 OLD HARFORD RD                     000N        CARE OF             
MTR04774500001000000000000000RA              40781958    005800780000007800000520000003NN  NNW 000                       N    
RDG04774500WATRL000000004K00000000000002034001211262014081224N000000000000U40       000380400K 10000000010000002017           
CUS0477450000104142163007         JEFFREY T FEATHERSTO8759 OLD HARFORD RD                     000N        CARE OF             
MTR04774500001000000000000000RA              00128929    005800790000007900000570000003NN  NNW 000                       N    
RDG04774500WATRL000000004K00000000000000637001311262014081301N000000000000U40       000370400K 10000000010000000585           
CUS0477450000104142164005         DAVIS FRED C        8761 OLD HARFORD RD                     000N        CARE OF             
MTR04774500001000000000000000RA              41258232    005800800000008000000520000003NN  NNW 000                       N    
RDG04774500WATRL000000004K00000000000002847001411262014081343N000300000010U40       000420400K 10000000010000002832           
CUS0477450000104142165002         NORCROSS ROBIN F    8819 OLD HARFORD RD                     000N        CARE OF             
MTR04774500001000000000000000RA              25782986    005800810000008100000520000003NN  NNW 000                       N    
RDG04774500WATRL000000004K00000000000002084001511262014081426N000000000000U40       000430400K 10000000010000002073           
CUS0477450000104142166000         GERHARDT JOAN J     8821 OLD HARFORD RD                     000N        CARE OF             
MTR04774500001000000000000000RA              14903052    005800820000008200000310000003NN  NNW 000                       N    
RDG04774500WATRL000000004K00000000000000520001611262014081503N000000000000U40       000370400K 10000000010000000502           
CUS0477450000104142167008         CUBA MARIANO        8823 OLD HARFORD RD                     000N        CARE OF             
MTR04774500001000000000000000RA              14927860    005800830000008300000310000003NN  NNW 000                       N    
RDG04774500WATRL000000004K00000000000000830001711262014081555N000000000000U40       000520400K 10000000010000000798           
CUS0477450000104142168006         CARR MARK           8827 OLD HARFORD RD                     000N        CARE OF             
MTR04774500001000000000000000RA              00129217    005800840000008400000570000003NN  NNW 000                       N    
RDG04774500WATRL000000004K00000000000000689001911262014081716N000000000000U40       000330400K 10000000010000000681           
CUS0477450000104142169004         FROST RANDALL A     8825 OLD HARFORD RD                     000N        CARE OF             
MTR04774500001000000000000000RA              99289561    005800850000008500000570000003NN  NNW 000                       N    
RDG04774500WATRL000000004K00000000000000848001811262014081643N000400000010U40       000480400K 10000000010000000838           
CUS0477450000104142170002         GRACE, HARRY/ROB/PAT8829 OLD HARFORD RD                     000N        CARE OF             
MTR04774500001000000000000000RA              29069361    007500860000008600000520000003NN  NNW 000                       N    
RDG04774500WATRL000000004K00000000000007799002011262014081834N000000000050U40       000780400K 10000000010000007758           
CUS0477450000104392365005         WHIZ CAR WASH CORP  2403 E JOPPA RD                         000N        CARE OF             
MTR04774500001000000000000000RA              00166513    000100870000008700000570000003NN  NNW 000                       N    
RDG04774500WATRL000000004K00000000000009257002111262014082029N000000000000U40       001150400K 10000000010000008561           
CUS0477450000104142172008         JONES ROBERT HARVEY 2407 E JOPPA RD                         000N        CARE OF             
MTR04774500001000000000000000RA              14921997    005800880000008800000310000003NN  NNW 000                       N    
RDG04774500WATRL000000004K00000000000000542002211262014082154N000000000000U40       000850400K 10000000010000000520           
CUS0477450000104142173006         TRUSTEES OF JOPPA RD2413 E JOPPA RD                         000N        CARE OF             
MTR04774500001000000000000000RA              24771561    005800890000008900000520000003NN  NNW 000                       N    
RDG04774500WATRL000000004K00000000000003121002311262014082313N000300000010U40       000790400K 10000000010000003097           
CUS0477450000104142174004         HAVRILAK SAMUEL C   2419 E JOPPA RD                         000N        CARE OF             
MTR04774500001000000000000000RA              19460183    005800900000009000000520000003NN  NNW 000                       N    
RDG04774500WATRL000000004K00000000000000100002411262014082403N000000000000U40       000500400K 10000000010000000090           
CUS0477450000104142175001         DORSCH ALBERT J     8824 LAKEWOOD RD                        000N        CARE OF             
MTR04774500001000000000000000RA              24231412    005800910000009100000520000003NN  NNW 000                       N    
RDG04774500WATRL000000004K00000000000004837002511262014082525N000000000000U40       000820400K 10000000010000004821           
CUS0477450000104142176009         EISNER WALTER FRANCI8822 LAKEWOOD RD                        000N        CARE OF             
MTR04774500001000000000000000RA              52290145    005800920000009200000520000003NN  NNW 000                       N    
RDG04774500WATRL000000004K00000000000001463002611262014082631N000000000000U40       000660400K 10000000010000001448           
CUS0477450000104142177007         BRECHTEL RICHARD A,J8820 LAKEWOOD RD                        000N        CARE OF             
MTR04774500001000000000000000RA              20968262    005800930000009300000520000003NN  NNW 000                       N    
RDG04774500WATRL000000004K00000000000003452002711262014082727N000000000000U40       000560400K 10000000010000003407           
CUS0477450000104142178005         MOTHERSHED CARELL A 8818 LAKEWOOD RD                        000N        CARE OF             
MTR04774500001000000000000000RA              14902826    005800940000009400000310000003NN  NNW 000                       N    
RDG04774500WATRL000000004K00000000000000259002811262014082806N000000000020U40       000390400K 10000000010000000253           
CUS0477450000104142179003         MAXWELL ROBERT E    2446 HARWOOD RD                         000N        CARE OF             
MTR04774500001000000000000000RA              35112304    005800950000009500000520000003NN  NNW 000                       N    
RDG04774500WATRL000000004K00000000000002444002911262014082836N000000000000U40       000300400K 10000000010000002436           
CUS0477450000104142180001         DIEGERT NANCY S     2428 HARWOOD RD                         000N        CARE OF             
MTR04774500001000000000000000RA              00129213    005800960000009600000570000003NN  NNW 000                       N    
RDG04774500WATRL000000004K00000000000000516003011262014082940N000000000000U40       000640400K 10000000010000000505           
CUS0477450000104142181009         SUSAN M HANDLEY     2426 HARWOOD RD                         000N        CARE OF             
MTR04774500001000000000000000RA              01078706    005800970000009700000610000003NN  NNW 000                       N    
RDG04774500WATRL000000004K00000000000000399003111262014083020N000000000000U40       000400400K 10000000010000000382           
CUS0477450000104142183005         ECKHARDT FRANCIS G  8814 LAKEWOOD RD                        000N        CARE OF             
MTR04774500001000000000000000RA              52289066    005800980000009800000520000003NN  NNW 000                       N    
RDG04774500WATRL000000004K00000000000001377003211262014083127N000000000000U40       000670400K 10000000010000001366           
CUS0477450000104142184003         PLAINE JEFFREY L    8812 LAKEWOOD RD                        000N        CARE OF             
MTR04774500001000000000000000RA              44088522    005800990000009900000520000003NN  NNW 000                       N    
RDG04774500WATRL000000004K00000000000001348003311262014083205N000000000000U40       000380400K 10000000010000001339           
CUS0477450000104142185000         OSBORNE STEVEN MARK 8810 LAKEWOOD RD                        000N        CARE OF             
MTR04774500001000000000000000RA              10013366    005801000000010000000570000003NN  NNW 000                       N    
RDG04774500WATRL000000004K00000000000000282003411262014083240N000000000000U40       000350400K 10000000010000000262           
CUS0477450000104142186008         JACKMAN ELIZABETH M 8808 LAKEWOOD RD                        000N        CARE OF             
MTR04774500001000000000000000RA              10023328    005801010000010100000570000003NN  NNW 000                       N    
RDG04774500WATRL000000004K00000000000000070003511262014083313N000000000000U40       000330400K 10000000010000000059           
CUS0477450000104142187006         BOELLNER GEORGE D   8806 LAKEWOOD RD                        000N        CARE OF             
MTR04774500001000000000000000RA              10017860    005801020000010200000570000003NN  NNW 000                       N    
RDG04774500WATRL000000004K00000000000000237003611262014083355N000000000000U40       000420400K 10000000010000000226           
CUS0477450000104142188004         ARANA SILVIA FLORES 8804 LAKEWOOD RD                        000N        CARE OF             
MTR04774500001000000000000000RA              19557700    005801030000010300000520000003NN  NNW 000                       N    
RDG04774500WATRL000000004K00000000000005662003711262014083436N000000000000U40       000410400K 10000000010000005632           
CUS0477450000104142189002         JONATHAN M ANDERSON 8802 LAKEWOOD RD                        000N        CARE OF             
MTR04774500001000000000000000RA              11328119    005801040000010400000570000003NN  NNW 000                       N    
RDG04774500WATRL000000004K00000000000004390003811262014083528N000000000000U40       000520400K 10000000010000004390           
CUS0477450000104142190000         RASCH MARK C        8800 LAKEWOOD RD                        000N        CARE OF             
MTR04774500001000000000000000RA              76346190    005801050000010500000350000003NN  NNW 000                       N    
RDG04774500WATRL000000004K00000000000000015003911262014083648N000000000070U40       000800400K 10000000010000000009           
CUS0477450000104142191008         FOREMAN VALERIE     8710 LAKEWOOD RD                        000N        CARE OF             
MTR04774500001000000000000000RA              45376046    005801060000010600000520000003NN  NNW 000                       N    
RDG04774500WATRL000000004K00000000000001100004011262014083729N000000000000U40       000410400K 10000000010000001087           
CUS0477450000104142192006         VIDAL ANTHONY       2446 LAKEWOOD RD                        000N        CARE OF             
MTR04774500001000000000000000RA              35109653    005801070000010700000520000003NN  NNW 000                       N    
RDG04774500WATRL000000004K00000000000002280004111262014083825N000000000000U40       000560400K 10000000010000002242           
CUS0477450000104142193004         LESCALLETT CHARLES R8803 ALNWICK RD                         000N        CARE OF             
MTR04774500001000000000000000RA              36693113    005801080000010800000520000003NN  NNW 000                       N    
RDG04774500WATRL000000004K00000000000001694004211262014083915N000000000000U40       000500400K 10000000010000001688           
CUS0477450000104142194002         FUCHS ANNA MARIE    8805 ALNWICK RD                         000N        CARE OF             
MTR04774500001000000000000000RA              35110866    005801090000010900000520000003NN  NNW 000                       N    
RDG04774500WATRL000000004K00000000000002181004311262014083949N000000000000U40       000340400K 10000000010000002175           
CUS0477450000104142195009         FROELICH SHARON LEE 8807 ALNWICK RD                         000N        CARE OF             
MTR04774500001000000000000000RA              44173765    005801100000011000000520000003NN  NNW 000                       N    
RDG04774500WATRL000000004K00000000000001185004411262014084018N000000000000U40       000290400K 10000000010000001166           
CUS0477450000104142196007         STAVROS GEORGE C    8809 ALNWICK RD                         000N        CARE OF             
MTR04774500001000000000000000RA              48590770    005801110000011100000520000003NN  NNW 000                       N    
RDG04774500WATRL000000004K00000000000001341004511262014084102N000000000000U40       000440400K 10000000010000001330           
CUS0477450000104142197005         LAMACCHIA JOHN M    8811 ALNWICK RD                         000N        CARE OF             
MTR04774500001000000000000000RA              21194026    005801120000011200000520000003NN  NNW 000                       N    
RDG04774500WATRL000000004K00000000000005611004611262014084203N000000000000U40       000610400K 10000000010000005594           
CUS0477450000104142198003         WALDNER JOHN R      8813 ALNWICK RD                         000N        CARE OF             
MTR04774500001000000000000000RA              54351797    005801130000011300000520000003NN  NNW 000                       N    
RDG04774500WATRL000000004K00000000000000551004711262014084324N000000000050U40       000810400K 10000000010000000550           
CUS0477450000104142199001         WILSON BARBARA J    8815 ALNWICK RD                         000N        CARE OF             
MTR04774500001000000000000000RA              01078701    005801140000011400000610000003NN  NNW 000                       N    
RDG04774500WATRL000000004K00000000000000768004811262014084408N000000000000U40       000440400K 10000000010000000759           
CUS0477450000104142200007         WESTPHAL CLARA ANNA 8817 ALNWICK RD                         000N        CARE OF             
MTR04774500001000000000000000RA              99293337    005801150000011500000570000003NN  NNW 000                       N    
RDG04774500WATRL000000004K00000000000000552004911262014084508N000000000030U40       000600400K 10000000010000000535           
CUS0477450000104142201005         SVOBODA HAROLD C    8816 ALNWICK RD                         000N        CARE OF             
MTR04774500001000000000000000RA              36693355    005801160000011600000520000003NN  NNW 000                       N    
RDG04774500WATRL000000004K00000000000002025005011262014084550N000000000000U40       000420400K 10000000010000002016           
CUS0477450000104142202003         CHEELSMAN JOSEPH E  8814 ALNWICK RD                         000N        CARE OF             
MTR04774500001000000000000000RA              14901508    005801170000011700000310000003NN  NNW 000                       N    
RDG04774500WATRL000000004K00000000000000564005111262014084628N000000000000U40       000380400K 10000000010000000555           
CUS0477450000104142203001         KUS DAVID C         8812 ALNWICK RD                         000N        CARE OF             
MTR04774500001000000000000000RA              01102337    005801180000011800000610000003NN  NNW 000                       N    
RDG04774500WATRL000000004K00000000000000389005211262014084718N000000000000U40       000500400K 10000000010000000378           
CUS0477450000104142204009         STACHOWSKI EDWARD J 8810 ALNWICK RD                         000N        CARE OF             
MTR04774500001000000000000000RA              36693305    005801190000011900000520000003NN  NNW 000                       N    
RDG04774500WATRL000000004K00000000000002654005311262014084800N000000000000U40       000420400K 10000000010000002654           
CUS0477450000104142205006         NAUMAN JOSEPHINE/MAR8808 ALNWICK RD                         000N        CARE OF             
MTR04774500001000000000000000RA              44092173    005801200000012000000520000003NN  NNW 000                       N    
RDG04774500WATRL000000004K00000000000002279005411262014084851N000000000000U40       000510400K 10000000010000002244           
CUS0477450000104142206004         STIEFEL OTTO C,JR   8806 ALNWICK RD                         000N        CARE OF             
MTR04774500001000000000000000RA              46877821    005801210000012100000520000003NN  NNW 000                       N    
RDG04774500WATRL000000004K00000000000001514005511262014084934N000000000000U40       000430400K 10000000010000001505           
CUS0477450000104142207002         STEHLIK HENRY J     8804 ALNWICK RD                         000N        CARE OF             
MTR04774500001000000000000000RA              99290793    005801220000012200000570000003NN  NNW 000                       N    
RDG04774500WATRL000000004K00000000000000670005611262014085011N000000000000U40       000370400K 10000000010000000664           
CUS0477450000104142208000         KOZLOWSKI BRIAN T   8802 ALNWICK RD                         000N        CARE OF             
MTR04774500001000000000000000RA              45379786    005801230000012300000520000003NN  NNW 000                       N    
RDG04774500WATRL000000004K00000000000002912005711262014085050N000000000000U40       000390400K 10000000010000002881           
CUS0477450000104142209008         SMITH TIMOTHY J     2442 LAKEWOOD RD                        000N        CARE OF             
MTR04774500001000000000000000RA              01078702    005801240000012400000610000003NN  NNW 000                       N    
RDG04774500WATRL000000004K00000000000001385005811262014085148N000000000000U40       000580400K 10000000010000001367           
CUS0477450000104142210006         SIMACEK KEITH       2440 LAKEWOOD RD                        000N        CARE OF             
MTR04774500001000000000000000RA              26012079    005801250000012500000520000003NN  NNW 000                       N    
RDG04774500WATRL000000004K00000000000000959005911262014085250N000000000040U40       000620400K 10000000010000000956           
CUS0477450000104142211004         ELIZABETH A SNARSKI 8803 RICHMOND AVE                       000N        CARE OF             
MTR04774500001000000000000000RA              11330260    005801260000012600000570000003NN  NNW 000                       N    
RDG04774500WATRL000000004K00000000000003615006011262014085349N000000000000U40       000590400K 10000000010000003606           
CUS0477450000104142212002         MAEX GEORGE J       8805 RICHMOND AVE                       000N        CARE OF             
MTR04774500001000000000000000RA              45375801    005801270000012700000520000003NN  NNW 000                       N    
RDG04774500WATRL000000004K00000000000001215006111262014085426N000000000010U40       000370400K 10000000010000001215           
CUS0477450000104142213000         OLTMANNS FREDERICK R8807 RICHMOND AVE                       000N        CARE OF             
MTR04774500001000000000000000RA              14909779    005801280000012800000310000003NN  NNW 000                       N    
RDG04774500WATRL000000004K00000000000000553006211262014085513N000000000000U40       000470400K 10000000010000000536           
CUS0477450000104142214008         SALLESE PAULA M     8809 RICHMOND AVE                       000N        CARE OF             
MTR04774500001000000000000000RA              23054903    005801290000012900000520000003NN  NNW 000                       N    
RDG04774500WATRL000000004K00000000000003936006311262014085615N000000000010U40       000620400K 10000000010000003936           
CUS0477450000104142215005         KORZENIOWSKI JOSEPH 8811 RICHMOND AVE                       000N        CARE OF             
MTR04774500001000000000000000RA              35104799    005801300000013000000520000003NN  NNW 000                       N    
RDG04774500WATRL000000004K00000000000003864006411262014085712N000000000000U40       000570400K 10000000010000003825           
CUS0477450000104142216003         FOWLER BERNARD J    8813 RICHMOND AVE                       000N        CARE OF             
MTR04774500001000000000000000RA              99187236    005801310000013100000570000003NN  NNW 000                       N    
RDG04774500WATRL000000004K00000000000001275006511262014085807N000000000000U40       000550400K 10000000010000001262           
CUS0477450000104142217001         MEYD RICHARD PHILLIP8815 RICHMOND AVE                       000N        CARE OF             
MTR04774500001000000000000000RA              50479179    005801320000013200000520000003NN  NNW 000                       N    
RDG04774500WATRL000000004K00000000000001743006611262014085923N000000000000U40       000760400K 10000000010000001733           
CUS0477450000104142218009         DOROTHY STOKES-WALLA2423 HARWOOD RD                         000N        CARE OF             
MTR04774500001000000000000000RA              41082451    005801330000013300000520000003NN  NNW 000                       N    
RDG04774500WATRL000000004K00000000000001000006711262014090041N000000000000U40       000780400K 10000000010000000994           
CUS0477450000104142219007         CARR MARK           8819 RICHMOND AVE                       000N        CARE OF             
MTR04774500001000000000000000RA              19462435    005801340000013400000520000003NN  NNW 000                       N    
RDG04774500WATRL000000004K00000000000005805006811262014090140N000000000000U40       000590400K 10000000010000005790           
CUS0477450000104142220005         BACKERT KURT R      8816 RICHMOND AVE                       000N        CARE OF             
MTR04774500001000000000000000RA              23644881    005801350000013500000520000003NN  NNW 000                       N    
RDG04774500WATRL000000004K00000000000004912006911262014090227N000000000000U40       000470400K 10000000010000004879           
CUS0477450000104142221003         BOODRAM SYLVIE      8812 RICHMOND AVE                       000N        CARE OF             
MTR04774500001000000000000000RA              27213330    005801360000013600000520000003NN  NNW 000                       N    
RDG04774500WATRL000000004K00000000000002227007011262014090405N000000000000U40       000980400K 10000000010000002214           
CUS0477450000104142222001         WHITE RUTH S        8810 RICHMOND AVE                       000N        CARE OF             
MTR04774500001000000000000000RA              41258231    005801370000013700000520000003NN  NNW 000                       N    
RDG04774500WATRL000000004K00000000000001531007111262014090524N000000000040U40       000790400K 10000000010000001526           
CUS0477450000104142223009         CELLINESE TARA NICOL8808 RICHMOND AVE                       000N        CARE OF             
MTR04774500001000000000000000RA              27815912    005801380000013800000520000003NN  NNW 000                       N    
RDG04774500WATRL000000004K00000000000004425007211262014090610N000000000000U40       000460400K 10000000010000004416           
CUS0477450000104142224007         WARTH JOSEPH A      8806 RICHMOND AVE                       000N        CARE OF             
MTR04774500001000000000000000RA              35104880    005801390000013900000520000003NN  NNW 000                       N    
RDG04774500WATRL000000004K00000000000001318007311262014090649N000000000000U40       000390400K 10000000010000001306           
CUS0477450000104142225004         JESTER JOHN T       8804 RICHMOND AVE                       000N        CARE OF             
MTR04774500001000000000000000RA              14909354    005801400000014000000310000003NN  NNW 000                       N    
RDG04774500WATRL000000004K00000000000000892007411262014090746N000000000030U40       000570400K 10000000010000000878           
CUS0477450000104142226002         KELLY JOSEPH M      8802 RICHMOND AVE                       000N        CARE OF             
MTR04774500001000000000000000RA              30524881    005801410000014100000520000003NN  NNW 000                       N    
RDG04774500WATRL000000004K00000000000002614007511262014090836N000000000000U40       000500400K 10000000010000002604           
CUS0477450000104142227000         PEARCE DUANE W      2436 LAKEWOOD RD                        000N        CARE OF             
MTR04774500001000000000000000RA              41082643    005801420000014200000520000003NN  NNW 000                       N    
RDG04774500WATRL000000004K00000000000002907007611262014090947N000000000000U40       000710400K 10000000010000002883           
CUS0477450000104142228008         AGIC SUVADA         2434 LAKEWOOD RD                        000N        CARE OF             
MTR04774500001000000000000000RA              01078704    005801430000014300000610000003NN  NNW 000                       N    
RDG04774500WATRL000000004K00000000000000924007711262014091038N000000000000U40       000510400K 10000000010000000890           
CUS0477450000104142229006         HENLEY MICHAEL L    2432 LAKEWOOD RD                        000N        CARE OF             
MTR04774500001000000000000000RA              24228729    005801440000014400000520000003NN  NNW 000                       N    
RDG04774500WATRL000000004K00000000000003588007811262014091137N000000000000U40       000590400K 10000000010000003578           
CUS0477450000104142230004         TATE RENNIE E,JR    2430 LAKEWOOD RD                        000N        CARE OF             
MTR04774500001000000000000000RA              10004200    005801450000014500000570000003NN  NNW 000                       N    
RDG04774500WATRL000000004K00000000000000682007911262014091226N000000000000U40       000490400K 10000000010000000668           
CUS0477450000104142231002         GAUSS PEGGY J       2428 LAKEWOOD RD                        000N        CARE OF             
MTR04774500001000000000000000RA              01072536    005801460000014600000610000003NN  NNW 000                       N    
RDG04774500WATRL000000004K00000000000001358008011262014091253N000000000000U40       000270400K 10000000010000001331           
CUS0477450000104142232000         SMOTER STANLEY      2426 LAKEWOOD RD                        000N        CARE OF             
MTR04774500001000000000000000RA              01072532    005801470000014700000610000003NN  NNW 000                       N    
RDG04774500WATRL000000004K00000000000000725008111262014091344N000000000000U40       000510400K 10000000010000000713           
CUS0477450000104142233008         MAYGERS SCOTT P     2424 LAKEWOOD RD                        000N        CARE OF             
MTR04774500001000000000000000RA              99189564    005801480000014800000570000003NN  NNW 000                       N    
RDG04774500WATRL000000004K00000000000002589008211262014091433N000000000040U40       000490400K 10000000010000002575           
CUS0477450000104142234006         BONIFACE LARRY W    2422 LAKEWOOD RD                        000N        CARE OF             
MTR04774500001000000000000000RA              50476420    005801490000014900000520000003NN  NNW 000                       N    
RDG04774500WATRL000000004K00000000000001762008311262014091535N000000000000U40       000620400K 10000000010000001750           
CUS0477450000104142235003         LE BACH             2420 LAKEWOOD RD                        000N        CARE OF             
MTR04774500001000000000000000RA              44002009    005801500000015000000520000003NN  NNW 000                       N    
RDG04774500WATRL000000004K00000000000002029008411262014091620N000000000040U40       000450400K 10000000010000002008           
CUS0477450000104142236001         HARTMAN DAVID P     2418 LAKEWOOD RD                        000N        CARE OF             
MTR04774500001000000000000000RA              48582104    005801510000015100000520000003NN  NNW 000                       N    
RDG04774500WATRL000000004K00000000000001912008511262014091705N000000000010U40       000450400K 10000000010000001895           
CUS0477450000104142237009         LEATHERMAN DANIEL W 2416 LAKEWOOD RD                        000N        CARE OF             
MTR04774500001000000000000000RA              01072533    005801520000015200000610000003NN  NNW 000                       N    
RDG04774500WATRL000000004K00000000000001393008611262014091722N000000000000U40       000170400K 10000000010000001376           
CUS0477450000104142238007         LACEY LICHTENBERG   2414 LAKEWOOD RD                        000N        CARE OF             
MTR04774500001000000000000000RA              46876350    005801530000015300000520000003NN  NNW 000                       N    
RDG04774500WATRL000000004K00000000000001825008711262014091814N000000000000U40       000520400K 10000000010000001810           
CUS0477450000104142239005         NINOS DAVID M       2412 LAKEWOOD RD                        000N        CARE OF             
MTR04774500001000000000000000RA              40047624    005801540000015400000520000003NN  NNW 000                       N    
RDG04774500WATRL000000004K00000000000001995008811262014091912N000000000000U40       000580400K 10000000010000001981           
CUS0477450000104142240003         JOHNSON GEORGE I    8703 ASHFORD RD                         000N        CARE OF             
MTR04774500001000000000000000RA              48590009    005801550000015500000520000003NN  NNW 000                       N    
RDG04774500WATRL000000004K00000000000002845008911262014092032N000000000000U40       000800400K 10000000010000002823           
CUS0477450000104142241001         SHAFER HARLAN F     8705 ASHFORD RD                         000N        CARE OF             
MTR04774500001000000000000000RA              99290762    005801560000015600000570000003NN  NNW 000                       N    
RDG04774500WATRL000000004K00000000000001288009011262014092121N000000000000U40       000490400K 10000000010000001270           
CUS0477450000104142242009         KLATT FLORENCE L    8707 ASHFORD RD                         000N        CARE OF             
MTR04774500001000000000000000RA              29679366    005801570000015700000520000003NN  NNW 000                       N    
RDG04774500WATRL000000004K00000000000003291009111262014092302N000000000081U40       000160400K 10000000010000003291           
CUS0477450000104142243007         BLUMER WILLIAM H    8709 ASHFORD RD                         000N        CARE OF             
MTR04774500001000000000000000RA              01085336    005801580000015800000610000003NN  NNW 000                       N    
RDG04774500WATRL000000004K00000000000000459009211262014092328N000000000010U40       000260400K 10000000010000000446           
CUS0477450000104142244005         DAVID A TOWNSEND    2403 HARWOOD RD                         000N        CARE OF             
MTR04774500001000000000000000RA              01072534    005801590000015900000610000003NN  NNW 000                       N    
RDG04774500WATRL000000004K00000000000000430009311262014092437N000000000000U40       000690400K 10000000010000000412           
CUS0477450000104142245002         WINEBRENNER JOHN G  2405 HARWOOD RD                         000N        CARE OF             
MTR04774500001000000000000000RA              38984440    005801600000016000000520000003NN  NNW 000                       N    
RDG04774500WATRL000000004K00000000000002516009411262014092513N000000000000U40       000360400K 10000000010000002504           
CUS0477450000104142246000         ROBERTSON SCOTT A   2407 HARWOOD RD                         000N        CARE OF             
MTR04774500001000000000000000RA              14908712    005801610000016100000310000003NN  NNW 000                       N    
RDG04774500WATRL000000004K00000000000000650009511262014092612N000000000000U40       000590400K 10000000010000000637           
CUS0477450000104142247008         STINCHCOMB DOROTHY E2409 HARWOOD RD                         000N        CARE OF             
MTR04774500001000000000000000RA              00135945    005801620000016200000570000003NN  NNW 000                       N    
RDG04774500WATRL000000004K00000000000000444009611262014093856N000000000000U40       007640400K 10000000010000000434           
CUS0477450000104142248006         MEALEY DOLORES M    2411 HARWOOD RD                         000N        CARE OF             
MTR04774500001000000000000000RA              00138841    005801630000016300000570000003NN  NNW 000                       N    
RDG04774500WATRL000000004K00000000000000913009711262014093900N000000000000U40       000040400K 10000000010000000900           
CUS0477450000104142249004         FORAND JENNY        2413 HARWOOD RD                         000N        CARE OF             
MTR04774500001000000000000000RA              01072549    005801640000016400000610000003NN  NNW 000                       N    
RDG04774500WATRL000000004K00000000000000842009811262014093903N000000000000U40       000030400K 10000000010000000834           
CUS0477450000104142250002         HARDESTY CONSTANCE W2415 HARWOOD RD                         000N        CARE OF             
MTR04774500001000000000000000RA              24762220    005801650000016500000520000003NN  NNW 000                       N    
RDG04774500WATRL000000004K00000000000005646009911262014093924N000000000041U40       000080400K 10000000010000005645           
CUS0477450000104142251000         RUBY NORMAN L       2417 HARWOOD RD                         000N        CARE OF             
MTR04774500001000000000000000RA              10022986    005801660000016600000570000003NN  NNW 000                       N    
RDG04774500WATRL000000004K00000000000000091010011262014093929N000000000000U40       000050400K 10000000010000000083           
RTR04774500NN01660166000001660000000001660166000137NY016601660166000000000000000000000000000001    10022014NY020000 N         
RHD04775500NN02210221000002210000000002210221000186NY022102210221000300020000000000000000000001    10022014NY020000 N         
CUS0477550000104142418005         TEWEY CHRISTOPER M  2636 SPRING RD                          000N        CARE OF             
MTR04775500001000000000000000RA              45386168    005800010000000100000520000003NN  NNW 000                       N    
RDG04775500WATRL000000004K00000000000001395011011252014140129N000000000000N40       004550400K 10000000010000001391           
CUS0477550000104142419003         PERES JUDITH H      2628 SPRING RD                          000N        CARE OF             
MTR04775500001000000000000000RA              14908285    005800020000000200000310000003NN  NNW 000                       N    
RDG04775500WATRL000000004K00000000000000712011111252014140136N000400000010N40       000070400K 10000000010000000697           
CUS0477550000104142420001         HORODOWICZ ROMAN    2637 SPRING RD                          000N        CARE OF             
MTR04775500001000000000000000RA              20767279    005800030000000300000520000003NN  NNW 000                       N    
RDG04775500WATRL000000004K00000000000001307011211252014140233N000300000010N40       000570400K 10000000010000007273           
CUS0477550000104142421009         HEATH R PLUMB       2639 SPRING RD                          000N        CARE OF             
MTR04775500001000000000000000RA              10015605    005800040000000400000570000003NN  NNW 000                       N    
RDG04775500WATRL000000004K00000000000000318011311252014140240N000000000000N40       000070400K 10000000010000000298           
CUS0477550000104142422007         BARKER BRIAN M      2641 SPRING RD                          000N        CARE OF             
MTR04775500001000000000000000RA              27828790    005800050000000500000520000003NN  NNW 000                       N    
RDG04775500WATRL000000004K00000000000002290011411252014140244N000000000000N40       000040400K 10000000010000002279           
CUS0477550000104142423005         ARKUSZESKI PATRICIA 2643 SPRING RD                          000N        CARE OF             
MTR04775500001000000000000000RA              45378534    005800060000000600000520000003NN  NNW 000                       N    
RDG04775500WATRL000000004K00000000000000000000000000000000000 000000000000U         000000400  10000000010000003324           
CUS0477550000104142424003         GUNTNER RICHARD URBA2645 SPRING RD                          000N        CARE OF             
MTR04775500001000000000000000RA              23054112    005800070000000700000520000003NN  NNW 000                       N    
RDG04775500WATRL000000004K00000000000000004011511252014140302N000000000010N40       000180400K 10000000010000004422           
CUS0477550000104142425000         MORICONI DAVID T    2647 SPRING RD                          000N        CARE OF             
MTR04775500001000000000000000RA              01078700    005800080000000800000610000003NN  NNW 000                       N    
RDG04775500WATRL000000004K00000000000001662011611252014140308N000000000000N40       000060400K 10000000010000001638           
CUS0477550000104142426008         JAMIE ODONNELL      2649 SPRING RD                          000N        CARE OF             
MTR04775500001000000000000000RA              01078708    005800090000000900000610000003NN  NNW 000                       N    
RDG04775500WATRL000000004K00000000000000000000000000000000000 000000000000U         000000400  10000000010000000190           
CUS0477550000104142429002         STACK EMILY         2701 JOPPA TER                          000N        CARE OF             
MTR04775500001000000000000000RA              01084787    005800100000001000000610000003NN  NNW 000                       N    
RDG04775500WATRL000000004K00000000000001035011711252014140317N000000000000N40       000090400K 10000000010000001010           
CUS0477550000104142430000         BANKSTON LIONEL M   2703 JOPPA TER                          000N        CARE OF             
MTR04775500001000000000000000RA              01082853    005800110000001100000610000003NN  NNW 000                       N    
RDG04775500WATRL000000004K00000000000002092011811252014140325N000000000000N40       000080400K 10000000010000002066           
CUS0477550000104142431008         ARGYROS OLYMPIA L   2705 JOPPA TER                          000N        CARE OF             
MTR04775500001000000000000000RA              01082854    005800120000001200000610000003NN  NNW 000                       N    
RDG04775500WATRL000000004K00000000000000477011911252014140334N000000000000N40       000090400K 10000000010000000469           
CUS0477550000104142432006         KEMPA PAUL          9510 FULLERDALE AVE                     000N        CARE OF             
MTR04775500001000000000000000RA              10010653    005800130000001300000570000003NN  NNW 000                       N    
RDG04775500WATRL000000004K00000000000000638012011252014140349N000300000010N40       000150400K 10000000010000000611           
CUS0477550000104142433004         PARR E EILEEN       9508 FULLERDALE AVE                     000N        CARE OF             
MTR04775500001000000000000000RA              01084162    005800140000001400000610000003NN  NNW 000                       N    
RDG04775500WATRL000000004K00000000000000821012111252014140359N000000000000N40       000100400K 10000000010000000821           
CUS0477550000104142434002         SAUTER RONALD E     9506 FULLERDALE AVE                     000N        CARE OF             
MTR04775500001000000000000000RA              01084164    005800150000001500000610000003NN  NNW 000                       N    
RDG04775500WATRL000000004K00000000000001235012211252014140403N000000000000N40       000040400K 10000000010000001211           
CUS0477550000104142435009         KRISTIN M. FARRELL  9504 FULLERDALE AVE                     000N        CARE OF             
MTR04775500001000000000000000RA              2423325     005800160000001600000520000003NN  NNW 000                       N    
RDG04775500WATRL000000004K00000000000003340012311252014140407N000000000000N40       000040400K 10000000010000003330           
CUS0477550000104142436007         WHITNEY LUCY A      9502 FULLERDALE AVE                     000N        CARE OF             
MTR04775500001000000000000000RA              01071425    005800170000001700000610000003NN  NNW 000                       N    
RDG04775500WATRL000000004K00000000000001215012411252014140414N000000000000N40       000070400K 10000000010000001201           
CUS0477550000104142437005         MANIKHI MICAH D     9500 FULLERDALE AVE                     000N        CARE OF             
MTR04775500001000000000000000RA              01071427    005800180000001800000610000003NN  NNW 000                       N    
RDG04775500WATRL000000004K00000000000000687012511252014140421N000000000010N40       000070400K 10000000010000000674           
CUS0477550000104142438003         DYMOWSKI MARTIN J   9414 FULLERDALE AVE                     000N        CARE OF             
MTR04775500001000000000000000RA              01071415    005800190000001900000610000003NN  NNW 000                       N    
RDG04775500WATRL000000004K00000000000000938012611252014140428N000000000000N40       000070400K 10000000010000000925           
CUS0477550000104142439001         SANTAVENERE PAUL R  9412 FULLERDALE AVE                     000N        CARE OF             
MTR04775500001000000000000000RA              41257325    005800200000002000000520000003NN  NNW 000                       N    
RDG04775500WATRL000000004K00000000000003663012711252014140433N000000000000N40       000050400K 10000000010000003660           
CUS0477550000104142440009         DORIS M WARFIELD    9410 FULLERDALE AVE                     000N        CARE OF             
MTR04775500001000000000000000RA              45373951    005800210000002100000520000003NN  NNW 000                       N    
RDG04775500WATRL000000004K00000000000001710012811252014140437N000000000000N40       000040400K 10000000010000001694           
CUS0477550000104142441007         THOMAS TERRY L      9408 FULLERDALE AVE                     000N        CARE OF             
MTR04775500001000000000000000RA              27814177    005800220000002200000520000003NN  NNW 000                       N    
RDG04775500WATRL000000004K00000000000005481012911252014140441N000000000000N40       000040400K 10000000010000005463           
CUS0477550000104142442005         CURRERI FRANK J     9406 FULLERDALE AVE                     000N        CARE OF             
MTR04775500001000000000000000RA              01071418    005800230000002300000610000003NN  NNW 000                       N    
RDG04775500WATRL000000004K00000000000002547013011252014140452N000400000010N40       000110400K 10000000010000002543           
CUS0477550000104142443003         THOMAS RYAN S       9404 FULLERDALE AVE                     000N        CARE OF             
MTR04775500001000000000000000RA              24225024    005800240000002400000520000003NN  NNW 000                       N    
RDG04775500WATRL000000004K00000000000005325013111252014140517N000000000000N40       000250400K 10000000010000005304           
CUS0477550000104142444001         BERGER PROPERTIES MA9402 FULLERDALE AVE                     000N        CARE OF             
MTR04775500001000000000000000RA              14916975    005800250000002500000310000003NN  NNW 000                       N    
RDG04775500WATRL000000004K00000000000000961013211252014140522N000000000000N40       000050400K 10000000010000000908           
CUS0477550000104142445008         SCRUGGS CLIFTON WALL9400 FULLERDALE AVE                     000N        CARE OF             
MTR04775500001000000000000000RA              01071412    005800260000002600000610000003NN  NNW 000                       N    
RDG04775500WATRL000000004K00000000000001081013311252014140524N000000000000N40       000020400K 10000000010000001060           
CUS0477550000104142446006         MARTIN PHILIP A     2812 2ND AVE                            000N        CARE OF             
MTR04775500001000000000000000RA              14901510    005800270000002700000310000003NN  NNW 000                       N    
RDG04775500WATRL000000004K00000000000000872013411252014140528N000000000000N40       000040400K 10000000010000000852           
CUS0477550000104142447004         BAKER RICHARD T,JR  2810 2ND AVE                            000N        CARE OF             
MTR04775500001000000000000000RA              14901481    005800280000002800000310000003NN  NNW 000                       N    
RDG04775500WATRL000000004K00000000000000969013511252014140532N000000000000N40       000040400K 10000000010000000951           
CUS0477550000104142448002         DEMBECK LINDSAY L   2808 2ND AVE                            000N        CARE OF             
MTR04775500001000000000000000RA              52285597    005800290000002900000520000000NN  NNW 000                       N    
RDG04775500WATRL000000004K00000000000001079013611252014140537N000000000000N40       000050400K 10000000010000001068           
CUS0477550000104142449000         DELARO JAMES J,JR  D2806 2ND AVE                            000N        CARE OF             
MTR04775500001000000000000000RA              38886431    005800300000003000000520000003NN  NNW 000                       N    
RDG04775500WATRL000000004K00000000000002681013711252014140540N000000000000N40       000030400K 10000000010000002665           
CUS0477550000104142450008         DERR LOUIS W        2804 2ND AVE                            000N        CARE OF             
MTR04775500001000000000000000RA              01100816    005800310000003100000610000003NN  NNW 000                       N    
RDG04775500WATRL000000004K00000000000000933013811252014140545N000300000010N40       000050400K 10000000010000000918           
CUS0477550000104142451006         REICH LEONARD A     2802 2ND AVE                            000N        CARE OF             
MTR04775500001000000000000000RA              01100819    005800320000003200000610000003NN  NNW 000                       N    
RDG04775500WATRL000000004K00000000000001007013911252014140552N000000000000N40       000070400K 10000000010000000991           
CUS0477550000104142452004         TRAN THINH          2701 5TH AVE                            000N        CARE OF             
MTR04775500001000000000000000RA              10000729    005800330000003300000570000003NN  NNW 000                       N    
RDG04775500WATRL000000004K00000000000000922014011252014140603N000000000000N40       000110400K 10000000010000000899           
CUS0477550000104142453002         BUTLER TERRY        2703 5TH AVE                            000N        CARE OF             
MTR04775500001000000000000000RA              24232031    005800340000003400000520000003NN  NNW 000                       N    
RDG04775500WATRL000000004K00000000000002412014111252014140610N000000000000N40       000070400K 10000000010000002388           
CUS0477550000104142454000         FLANIGAN JOHN C     2705 5TH AVE                            000N        CARE OF             
MTR04775500001000000000000000RA              75423548    005800350000003500000350000003NN  NNW 000                       N    
RDG04775500WATRL000000004K00000000000000053014211252014140625N000000000000N40       000150400K 10000000010000000047           
CUS0477550000104142455007         SOLOMON STERLING    2707 5TH AVE                            000N        CARE OF             
MTR04775500001000000000000000RA              14922341    005800360000003600000310000003NN  NNW 000                       N    
RDG04775500WATRL000000004K00000000000000386014311252014140628N000000000000N40       000030400K 10000000010000000386           
CUS0477550000104142456005         WILL JOHN J,JR      2709 5TH AVE                            000N        CARE OF             
MTR04775500001000000000000000RA              19459629    005800370000003700000520000003NN  NNW 000                       N    
RDG04775500WATRL000000004K00000000000003252014411252014140635N000100000010N40       000070400K 10000000010000003252           
CUS0477550000104142457003         DELIACO-LOHR EDWARD 2711 5TH AVE                            000N        CARE OF             
MTR04775500001000000000000000RA              19459644    005800380000003800000520000003NN  NNW 000                       N    
RDG04775500WATRL000000004K00000000000004860014511252014140644N000000000000N40       000090400K 10000000010000004842           
CUS0477550000104142458001         FORWARD VISIONS INC 2713 5TH AVE                            000N        CARE OF             
MTR04775500001000000000000000RA              54352156    005800390000003900000520000003NN  NNW 000                       N    
RDG04775500WATRL000000004K00000000000001524014611252014140648N000000000000N40       000040400K 10000000010000001500           
CUS0477550000104142459009         SAFEGUARD PROPERTIES2715 5TH AVE                            000N        CARE OF             
MTR04775500001000000000000000RA              00129122    005800400000004000000570000003NN  NNW 000                       N    
RDG04775500WATRL000000004K00000000000000510014711252014140652N000000000000N40       000040400K 10000000010000000490           
CUS0477550000104142460007         ANGIN ADAM A        2720 5TH AVE                            000N        CARE OF             
MTR04775500001000000000000000RA              76346420    005800410000004100000350000003NN  NNW 000                       N    
RDG04775500WATRL000000004K00000000000000111014811252014140655N000000000000N40       000030400K 10000000010000000070           
CUS0477550000104142461005         SANZONE JAMES J     2718 5TH AVE                            000N        CARE OF             
MTR04775500001000000000000000RA              41076472    005800420000004200000520000003NN  NNW 000                       N    
RDG04775500WATRL000000004K00000000000002319014911252014140658N000000000000N40       000030400K 10000000010000002309           
CUS0477550000104142462003         KRAFT JEAN MAEBELL,T2716 5TH AVE                            000N        CARE OF             
MTR04775500001000000000000000RA              75616060    005800430000004300000350000003NN  NNW 000                       N    
RDG04775500WATRL000000004K00000000000000085015011252014140701N000000000000N40       000030400K 10000000010000000065           
CUS0477550000104142463001         WEBB BRYANT A       2714 5TH AVE                            000N        CARE OF             
MTR04775500001000000000000000RA              01082825    005800440000004400000610000003NN  NNW 000                       N    
RDG04775500WATRL000000004K00000000000000983015111252014140706N000000000000N40       000050400K 10000000010000000975           
CUS0477550000104142464009         KOEHLER GARY        2712 5TH AVE                            000N        CARE OF             
MTR04775500001000000000000000RA              33083085    005800450000004500000520000003NN  NNW 000                       N    
RDG04775500WATRL000000004K00000000000003015015211252014140709N000000000000N40       000030400K 10000000010000003000           
CUS0477550000104142465006         OBRIEN ROBERT       2710 5TH AVE                            000N        CARE OF             
MTR04775500001000000000000000RA              14916207    005800460000004600000310000003NN  NNW 000                       N    
RDG04775500WATRL000000004K00000000000000698015311252014140713N000000000000N40       000040400K 10000000010000000681           
CUS0477550000104142466004         GAIGLER RANDY       2708 5TH AVE                            000N        CARE OF             
MTR04775500001000000000000000RA              99387731    005800470000004700000570000003NN  NNW 000                       N    
RDG04775500WATRL000000004K00000000000001132015411252014140716N000000000000N40       000030400K 10000000010000001107           
CUS0477550000104142467002         TSIGOUNIS GEORGE J  2706 5TH AVE                            000N        CARE OF             
MTR04775500001000000000000000RA              10015727    005800480000004800000570000003NN  NNW 000                       N    
RDG04775500WATRL000000004K00000000000000341015511252014140719N000000000000N40       000030400K 10000000010000000319           
CUS0477550000104142468000         RUSNAK MARY JEAN    2704 5TH AVE                            000N        CARE OF             
MTR04775500001000000000000000RA              52770801    005800490000004900000520000003NN  NNW 000                       N    
RDG04775500WATRL000000004K00000000000001155015611252014140724N000000000000N40       000050400K 10000000010000001145           
CUS0477550000104142469008         STAICOS RANDALL E   2702 5TH AVE                            000N        CARE OF             
MTR04775500001000000000000000RA              75423549    005800500000005000000350000003NN  NNW 000                       N    
RDG04775500WATRL000000004K00000000000000198015711252014140727N000000000000N40       000030400K 10000000010000000172           
CUS0477550000104142470006         PTAK LOUIS G        2706 2ND AVE                            000N        CARE OF             
MTR04775500001000000000000000RA              14900285    005800510000005100000310000003NN  NNW 000                       N    
RDG04775500WATRL000000004K00000000000000483015811252014140730N000000000000N40       000030400K 10000000010000000439           
CUS0477550000104142471004         BATTON ELIZABETH S  2704 2ND AVE                            000N        CARE OF             
MTR04775500001000000000000000RA              24233324    005800520000005200000520000003NN  NNW 000                       N    
RDG04775500WATRL000000004K00000000000004489015911252014140734N000000000000N40       000040400K 10000000010000004480           
CUS0477550000104142472002         STRATOS JOHN        2702 2ND AVE                            000N        CARE OF             
MTR04775500001000000000000000RA              00129120    005800530000005300000570000003NN  NNW 000                       N    
RDG04775500WATRL000000004K00000000000000667016011252014140737N000000000000N40       000030400K 10000000010000000658           
CUS0477550000104142473000         HELINE WALTER W     2703 2ND AVE                            000N        CARE OF             
MTR04775500001000000000000000RA              99291918    005800540000005400000570000003NN  NNW 000                       N    
RDG04775500WATRL000000004K00000000000000758016111252014140741N000000000000N40       000040400K 10000000010000000749           
CUS0477550000104142474008         HABICHT CRAIG S     2705 2ND AVE                            000N        CARE OF             
MTR04775500001000000000000000RA              35104962    005800550000005500000520000003NN  NNW 000                       N    
RDG04775500WATRL000000004K00000000000002652016211252014140749N000000000000N40       000080400K 10000000010000002643           
CUS0477550000104142475005         BROGAN EDWARD J     2707 2ND AVE                            000N        CARE OF             
MTR04775500001000000000000000RA              35104927    005800560000005600000520000003NN  NNW 000                       N    
RDG04775500WATRL000000004K00000000000003712016311252014140752N000000000000N40       000030400K 10000000010000003695           
CUS0477550000104142476003         FREDERICK DAVID H/CH2709 2ND AVE                            000N        CARE OF             
MTR04775500001000000000000000RA              10016490    005800570000005700000570000003NN  NNW 000                       N    
RDG04775500WATRL000000004K00000000000000041016411252014140757N000000000000N40       000050400K 10000000010000000039           
CUS0477550000104142477001         KERSCH DAVID M      2711 2ND AVE                            000N        CARE OF             
MTR04775500001000000000000000RA              38887689    005800580000005800000520000003NN  NNW 000                       N    
RDG04775500WATRL000000004K00000000000002175016511252014140804N000400000010N40       000070400K 10000000010000002170           
CUS0477550000104142478009         JARRETT JOHN        2713 2ND AVE                            000N        CARE OF             
MTR04775500001000000000000000RA              24765977    005800590000005900000520000003NN  NNW 000                       N    
RDG04775500WATRL000000004K00000000000003555016611252014140808N000000000000N40       000040400K 10000000010000003527           
CUS0477550000104142479007         SACKLEH OUDEH J     2715 2ND AVE                            000N        CARE OF             
MTR04775500001000000000000000RA              19460416    005800600000006000000520000003NN  NNW 000                       N    
RDG04775500WATRL000000004K00000000000003282016711252014140814N000000000000N40       000060400K 10000000010000003270           
CUS0477550000104142480005         LINDT EDWARD W      2801 2ND AVE                            000N        CARE OF             
MTR04775500001000000000000000RA              24228622    005800610000006100000520000003NN  NNW 000                       N    
RDG04775500WATRL000000004K00000000000003039016811252014140818N000000000000N40       000040400K 10000000010000003003           
CUS0477550000104142481003         MILLER HOWARD B     2803 2ND AVE                            000N        CARE OF             
MTR04775500001000000000000000RA              39924731    005800620000006200000520000003NN  NNW 000                       N    
RDG04775500WATRL000000004K00000000000004096016911252014140832N000400000010N40       000140400K 10000000010000004049           
CUS0477550000104142482001         HULTZ LYLE W        2805 2ND AVE                            000N        CARE OF             
MTR04775500001000000000000000RA              14916910    005800630000006300000310000003NN  NNW 000                       N    
RDG04775500WATRL000000004K00000000000001431017011252014140836N000000000000N40       000040400K 10000000010000001393           
CUS0477550000104142483009         GILLIS DWIGHT       2807 2ND AVE                            000N        CARE OF             
MTR04775500001000000000000000RA              27815134    005800640000006400000520000003NN  NNW 000                       N    
RDG04775500WATRL000000004K00000000000004595017111252014140840N000000000000N40       000040400K 10000000010000004551           
CUS0477550000104142484007         LONG DENNIS F       2809 2ND AVE                            000N        CARE OF             
MTR04775500001000000000000000RA              41258265    005800650000006500000520000003NN  NNW 000                       N    
RDG04775500WATRL000000004K00000000000002435017211252014140848N000000000000N40       000080400K 10000000010000002418           
CUS0477550000104142485004         DOUGHTY PAUL A      2811 2ND AVE                            000N        CARE OF             
MTR04775500001000000000000000RA              41258264    005800660000006600000520000003NN  NNW 000                       N    
RDG04775500WATRL000000004K00000000000002245017311252014140850N000000000000N40       000020400K 10000000010000002230           
CUS0477550000104142486002         KOEHN JOHN SEBASTIAN2813 2ND AVE                            000N        CARE OF             
MTR04775500001000000000000000RA              35104913    005800670000006700000520000003NN  NNW 000                       N    
RDG04775500WATRL000000004K00000000000004988017411252014140854N000000000000N40       000040400K 10000000010000004978           
CUS0477550000104142487000         FRENCH IRENE        2815 2ND AVE                            000N        CARE OF             
MTR04775500001000000000000000RA              35104912    005800680000006800000520000003NN  NNW 000                       N    
RDG04775500WATRL000000004K00000000000001443017511252014140857N000000000000N40       000030400K 10000000010000001438           
CUS0477550000104142488008         HARTMANN SUZANNE N  9308 FULLERDALE AVE                     000N        CARE OF             
MTR04775500001000000000000000RA              19460336    005800690000006900000520000003NN  NNW 000                       N    
RDG04775500WATRL000000004K00000000000004147017611252014140905N000000000000N40       000080400K 10000000010000004127           
CUS0477550000104142489006         GAFFEY AMANDA M     9306 FULLERDALE AVE                     000N        CARE OF             
MTR04775500001000000000000000RA              48583335    005800700000007000000520000003NN  NNW 000                       N    
RDG04775500WATRL000000004K00000000000001636017711252014140913N000400000010N40       000080400K 10000000010000001625           
CUS0477550000104142490004         SCHNEEMEYER JANET   9304 FULLERDALE AVE                     000N        CARE OF             
MTR04775500001000000000000000RA              00128971    005800710000007100000570000003NN  NNW 000                       N    
RDG04775500WATRL000000004K00000000000001087017811252014140918N000000000000N40       000050400K 10000000010000001073           
CUS0477550000104142491002         FEDERAL HOME LOAN   9302 FULLERDALE AVE                     000N        CARE OF             
MTR04775500001000000000000000RA              27829099    005800720000007200000520000003NN  NNW 000                       N    
RDG04775500WATRL000000004K00000000000003766017911252014140924N000400000010N40       000060400K 10000000010000003755           
CUS0477550000104142492000         REIVES JOSEPH GARRIC9303 FULLERDALE AVE                     000N        CARE OF             
MTR04775500001000000000000000RA              44092997    005800730000007300000520000003NN  NNW 000                       N    
RDG04775500WATRL000000004K00000000000001112018011252014140929N000000000000N40       000050400K 10000000010000001107           
CUS0477550000104142493008         WEEKS AUBREY S      9305 FULLERDALE AVE                     000N        CARE OF             
MTR04775500001000000000000000RA              01081634    005800740000007400000610000003NN  NNW 000                       N    
RDG04775500WATRL000000004K00000000000000801018111252014140934N000000000000N40       000050400K 10000000010000000790           
CUS0477550000104142494006         WATSON MALCOLM PERRY9307 FULLERDALE AVE                     000N        CARE OF             
MTR04775500001000000000000000RA              25781797    005800750000007500000520000003NN  NNW 000                       N    
RDG04775500WATRL000000004K00000000000001943018211252014140938N000000000000N40       000040400K 10000000010000001929           
CUS0477550000104142495003         INSLEY PAUL F       9309 FULLERDALE AVE                     000N        CARE OF             
MTR04775500001000000000000000RA              10003155    005800760000007600000570000003NN  NNW 000                       N    
RDG04775500WATRL000000004K00000000000000278018311252014140944N000100000010N40       000060400K 10000000010000000278           
CUS0477550000104142496001         LOMAX RICHARD ALAN  9401 FULLERDALE AVE                     000N        CARE OF             
MTR04775500001000000000000000RA              77886725    005800770000007700000350000003NN  NNW 000                       N    
RDG04775500WATRL000000004K00000000000000014018411252014140949N000000000010N40       000050400K 10000000010000000000           
CUS0477550000104142497009         KODZIS WILLIAM      9403 FULLERDALE AVE                     000N        CARE OF             
MTR04775500001000000000000000RA              24772115    005800780000007800000520000003NN  NNW 000                       N    
RDG04775500WATRL000000004K00000000000002872018511252014140953N000000000000N40       000040400K 10000000010000002849           
CUS0477550000104142498007         CORBETT RONAN       9403A FULLERDALE AVE                    000N        CARE OF             
MTR04775500001000000000000000RA              77886724    005800790000007900000350000003NN  NNW 000                       N    
RDG04775500WATRL000000004K00000000000000009018611252014141003N000000000010N40       000100400K 10000000010000000000           
CUS0477550000104142499005         SPERL JOHN E        2901 SCHERER AVE                        000N        CARE OF             
MTR04775500001000000000000000RA              00128967    005800800000008000000570000003NN  NNW 000                       N    
RDG04775500WATRL000000004K00000000000000324018711252014141010N000000000000N40       000070400K 10000000010000000324           
CUS0477550000104142500000         BRAGG MICHAEL A P   2903 SCHERER AVE                        000N        CARE OF             
MTR04775500001000000000000000RA              00133354    005800810000008100000570000003NN  NNW 000                       N    
RDG04775500WATRL000000004K00000000000001338018811252014141014N000000000000N40       000040400K 10000000010000001314           
CUS0477550000104142501008         FINDLEY CHARLES G,3R2905 SCHERER AVE                        000N        CARE OF             
MTR04775500001000000000000000RA              10003913    005800820000008200000570000000NN  NNW 000                       N    
RDG04775500WATRL000000004K00000000000000374018911252014141019N000000000000N40       000050400K 10000000010000000359           
CUS0477550000104142502006         WEININGER KENNETH J 2907 SCHERER AVE                        000N        CARE OF             
MTR04775500001000000000000000RA              45376848    005800830000008300000520000003NN  NNW 000                       N    
RDG04775500WATRL000000004K00000000000002246019011252014141022N000000000000N40       000030400K 10000000010000002231           
CUS0477550000104142503004         HEDDERICK ARTHUR P,J2909 SCHERER AVE                        000N        CARE OF             
MTR04775500001000000000000000RA              45376876    005800840000008400000520000000NN  NNW 000                       N    
RDG04775500WATRL000000004K00000000000001268019111252014141024N000000000000N40       000020400K 10000000010000001260           
CUS0477550000104142504002         AGOSTINELLI MICHAEL 2911 SCHERER AVE                        000N        CARE OF             
MTR04775500001000000000000000RA              27265965    005800850000008500000520000003NN  NNW 000                       N    
RDG04775500WATRL000000004K00000000000003678019211252014141027N000000000000N40       000030400K 10000000010000003678           
CUS0477550000104142505009         LIBERTO DONNA M     2913 SCHERER AVE                        000N        CARE OF             
MTR04775500001000000000000000RA              27265966    005800860000008600000520000003NN  NNW 000                       N    
RDG04775500WATRL000000004K00000000000002785019311252014141031N000000000000N40       000040400K 10000000010000002762           
CUS0477550000104142506007         HORODOWICZ JOSEPH   2914 SCHERER AVE                        000N        CARE OF             
MTR04775500001000000000000000RA              27266041    005800870000008700000520000003NN  NNW 000                       N    
RDG04775500WATRL000000004K00000000000002658019411252014141035N000000000000N40       000040400K 10000000010000002654           
CUS0477550000104142507005         GLADKOWSKI CHESTER W2912 SCHERER AVE                        000N        CARE OF             
MTR04775500001000000000000000RA              99288478    005800880000008800000570000003NN  NNW 000                       N    
RDG04775500WATRL000000004K00000000000000356019511252014141041N000000000000N40       000060400K 10000000010000000348           
CUS0477550000104142508003         SPANGLER CHARLES MIC2910 SCHERER AVE                        000N        CARE OF             
MTR04775500001000000000000000RA              23051169    005800890000008900000520000003NN  NNW 000                       N    
RDG04775500WATRL000000004K00000000000008735019611252014141048N000000000000N40       000070400K 10000000010000008708           
CUS0477550000104142509001         CUNZEMAN GEORGE HENR2908 SCHERER AVE                        000N        CARE OF             
MTR04775500001000000000000000RA              27266008    005800900000009000000520000003NN  NNW 000                       N    
RDG04775500WATRL000000004K00000000000004597019711252014141056N000000000000N40       000080400K 10000000010000004581           
CUS0477550000104142510009         BURKHEAD RAYMOND MIC2906 SCHERER AVE                        000N        CARE OF             
MTR04775500001000000000000000RA              00128969    005800910000009100000570000003NN  NNW 000                       N    
RDG04775500WATRL000000004K00000000000001316019811252014141059N000000000000N40       000030400K 10000000010000001296           
CUS0477550000104142511007         MAHONEY DIANE L     2902 SCHERER AVE                        000N        CARE OF             
MTR04775500001000000000000000RA              44091672    005800920000009200000520000003NN  NNW 000                       N    
RDG04775500WATRL000000004K00000000000002209019911252014141102N000000000000N40       000030400K 10000000010000002189           
CUS0477550000104142512005         ZACHARKO JOSEPH P   2900 SCHERER AVE                        000N        CARE OF             
MTR04775500001000000000000000RA              99288479    005800930000009300000570000003NN  NNW 000                       N    
RDG04775500WATRL000000004K00000000000004509020011252014141106N000000000000N40       000040400K 10000000010000004480           
CUS0477550000104142513003         DUDEK JOSEPH        9405 FULLERDALE AVE                     000N        CARE OF             
MTR04775500001000000000000000RA              00129296    005800940000009400000570000003NN  NNW 000                       N    
RDG04775500WATRL000000004K00000000000001266020111252014141109N000000000000N40       000030400K 10000000010000001245           
CUS0477550000104142514001         PIPKIN MARY KATHLEEN9407 FULLERDALE AVE                     000N        CARE OF             
MTR04775500001000000000000000RA              50481741    005800950000009500000520000003NN  NNW 000                       N    
RDG04775500WATRL000000004K00000000000001046020211252014141113N000000000000N40       000040400K 10000000010000001036           
