FHDNNNN019003475003475003521N                                                                                           010816
RHD02639400NN01740174000001740000000001740174000214NY017401740174000000000000000000000000000001    11182015NY020000 N         
CUS0263940000102047982000         STEUART ENSOR & SMIT9 CHARTLEY BLVD                         000N        CARE OF             
MTR02639400001000000000000000RA              01115591    005800010000000100000610000003NN  NNW 000                       N    
RDG02639400WATRL000000004K00000000000000918008011242015112931N000300000020N20       002070400K 10000000010000000937           
CUS0263940000102047983008         SEVIK THOMAS C      600 PIPER RD                            000N        CARE OF             
MTR02639400001000000000000000RA              46885037    005800020000000200000520000003NN  NNW 000                       N    
RDG02639400WATRL000000004K00000000000001196006411242015111451N000000000000N20       000490400K 10000000010000001179           
CUS0263940000102047984006         SHARON P AMES       602 PIPER RD                            000N        CARE OF             
MTR02639400001000000000000000RA              24767914    005800030000000300000520000003NN  NNW 000                       N    
RDG02639400WATRL000000004K00000000000004171006311242015111402N000000000000N20       000230400K 10000000010000004138           
CUS0263940000102047985003         BABON TERESITA C    604 PIPER RD                            000N        CARE OF             
MTR02639400001000000000000000RA              24767447    005800040000000400000520000003NN  NNW 000                       N    
RDG02639400WATRL000000004K00000000000004711006211242015111339N000000000010N20       000670400K 10000000010000004692           
CUS0263940000102047986001         MARTIN T ENGLE      606 PIPER RD                            000N        CARE OF             
MTR02639400001000000000000000RA              24767915    005800050000000500000520000003NN  NNW 000                       N    
RDG02639400WATRL000000004K00000000000002535006111242015111232N000000000000N20       000390400K 10000000010000002522           
CUS0263940000102047987009         VACCARINO CATHERINE 608 PIPER RD                            000N        CARE OF             
MTR02639400001000000000000000RA              48585807    005800060000000600000520000003NN  NNW 000                       N    
RDG02639400WATRL000000004K00000000000001478006011242015111153N000000000000N20       000260400K 10000000010000001456           
CUS0263940000102047988007         MR A & MRS L GRODKIE610 PIPER RD                            000N        CARE OF             
MTR02639400001000000000000000RA              24767956    005800070000000700000520000003NN  NNW 000                       N    
RDG02639400WATRL000000004K00000000000003442005911242015111127N000000000000N20       000450400K 10000000010000003430           
CUS0263940000102047989005         MILTON J PAYNE      612 PIPER RD                            000N        CARE OF             
MTR02639400001000000000000000RA              24767960    005800080000000800000520000003NN  NNW 000                       N    
RDG02639400WATRL000000004K00000000000002869005811242015111042N000000000000N20       000350400K 10000000010000002857           
CUS0263940000102047990003         NGUYEN HA V         614 PIPER RD                            000N        CARE OF             
MTR02639400001000000000000000RA              24767847    005800090000000900000520000003NN  NNW 000                       N    
RDG02639400WATRL000000004K00000000000003217005711242015111007N000000000010N20       000920400K 10000000010000003182           
CUS0263940000102047991001         JOHNSON STEVEN      101 BRUNK RD                            000N        CARE OF             
MTR02639400001000000000000000RA              24767451    005800100000001000000520000003NN  NNW 000                       N    
RDG02639400WATRL000000004K00000000000001187007011242015111936N000000000000N20       000640400K 10000000010000001184           
CUS0263940000102047992009         COOK CONNIE F       103 BRUNK RD                            000N        CARE OF             
MTR02639400001000000000000000RA              24767889    005800110000001100000520000003NN  NNW 000                       N    
RDG02639400WATRL000000004K00000000000006272009411302015120819N000000000000U20       000390400K 10000000010000006218           
CUS0263940000102047993007         VAN AUKEN LEWIS     105 BRUNK RD                            000N        CARE OF             
MTR02639400001000000000000000RA              24767800    005800120000001200000520000003NN  NNW 000                       N    
RDG02639400WATRL000000004K00000000000005339009311302015120740N000000000000U20       000480400K 10000000010000005322           
CUS0263940000102047994005         EARL F ASHER        107 BRUNK RD                            000N        CARE OF             
MTR02639400001000000000000000RA              24767890    005800130000001300000520000003NN  NNW 000                       N    
RDG02639400WATRL000000004K00000000000004586009211302015120652N000000000000U20       000550400K 10000000010000004570           
CUS0263940000102047995002         ERIC P LIPINSKI     109 BRUNK RD                            000N        CARE OF             
MTR02639400001000000000000000RA              00128992    005800140000001400000570000003NN  NNW 000                       N    
RDG02639400WATRL000000004K00000000000001550009111302015120557N000000000000U20       000080400K 10000000010000001515           
CUS0263940000102047996000         ANA DAYSEE MANZANO  111 BRUNK RD                            000N        CARE OF             
MTR02639400001000000000000000RA              24767875    005800150000001500000520000003NN  NNW 000                       N    
RDG02639400WATRL000000004K00000000000005514009011302015120549N000000000010U20       000960400K 10000000010000005502           
CUS0263940000102047997008         SPANGLER EDITH C,TRU113 BRUNK RD                            000N        CARE OF             
MTR02639400001000000000000000RA              24767838    005800160000001600000520000003NN  NNW 000                       N    
RDG02639400WATRL000000004K00000000000002604008911302015120413N000000000000U20       000400400K 10000000010000002597           
CUS0263940000102047998006         SHUSTERMAN YELENA   115 BRUNK RD                            000N        CARE OF             
MTR02639400001000000000000000RA              24767551    005800170000001700000520000003NN  NNW 000                       N    
RDG02639400WATRL000000004K00000000000000164008811302015120333N000000000000U20       000340400K 10000000010000000152           
CUS0263940000102047999004         LITVAK ALEXANDER    117 BRUNK RD                            000N        CARE OF             
MTR02639400001000000000000000RA              45380221    005800180000001800000520000003NN  NNW 000                       N    
RDG02639400WATRL000000004K00000000000001698008511302015120259N000000000001U20       000430400K 10000000010000001659           
CUS0263940000102048000000         WILSON PATRICIA     118 BRUNK RD                            000N        CARE OF             
MTR02639400001000000000000000RA              24767918    005800190000001900000520000003NN  NNW 000                       N    
RDG02639400WATRL000000004K00000000000004058008411302015115943N000000000000U20       000700400K 10000000010000004046           
CUS0263940000102048001008         LINARES ELIZABETH S 116 BRUNK RD                            000N        CARE OF             
MTR02639400001000000000000000RA              24767545    005800200000002000000520000003NN  NNW 000                       N    
RDG02639400WATRL000000004K00000000000003868008311302015115833N000000000000U20       000690400K 10000000010000003834           
CUS0263940000102048002006         HAMOUD ALMUSALLAM N 114 BRUNK RD                            000N        CARE OF             
MTR02639400001000000000000000RA              48592139    005800210000002100000520000003NN  NNW 000                       N    
RDG02639400WATRL000000004K00000000000000943008211302015115724N000300000010U20       000510400K 10000000010000000946           
CUS0263940000102048003004         ROLAND GREENWALT    603 BRUNK CT                            000N        CARE OF             
MTR02639400001000000000000000RA              M531723     005800220000002200000570000003NN  NNW 000                       N    
RDG02639400WATRL000000004K00000000000003176008111302015115633N000000000000U20       001080400K 10000000010000003161           
CUS0263940000102048004002         KELLEY EDNA C       601 BRUNK CT                            000N        CARE OF             
MTR02639400001000000000000000RA              24760778    005800230000002300000520000003NN  NNW 000                       N    
RDG02639400WATRL000000004K00000000000003871008011302015115445N000000000000U20       000500400K 10000000010000003841           
CUS0263940000102048005009         HILLARY E WILBER    600 BRUNK CT                            000N        CARE OF             
MTR02639400001000000000000000RA              11335330    005800240000002400000570000003NN  NNW 000                       N    
RDG02639400WATRL000000004K00000000000001777007911302015115355N000000000000U20       000480400K 10000000010000001775           
CUS0263940000102048006007         TRCKA ANTHONY J     602 BRUNK CT                            000N        CARE OF             
MTR02639400001000000000000000RA              24767548    005800250000002500000520000003NN  NNW 000                       N    
RDG02639400WATRL000000004K00000000000003256007811302015115307N000000000000U20       000470400K 10000000010000003237           
CUS0263940000102048007005         DEBRA KESSLER       102 BRUNK RD                            000N        CARE OF             
MTR02639400001000000000000000RA              24767885    005800260000002600000520000003NN  NNW 000                       N    
RDG02639400WATRL000000004K00000000000003618007711302015115220N000000000000U20       005250400K 10000000010000003589           
CUS0263940000102048008003         KESSLER JAY E       100 BRUNK RD                            000N        CARE OF             
MTR02639400001000000000000000RA              24767884    005800270000002700000520000003NN  NNW 000                       N    
RDG02639400WATRL000000004K00000000000003565006911242015111832N000000000000N20       000400400K 10000000010000003547           
CUS0263940000102048009001         SPURRIER JEFFREY W  607 PIPER RD                            000N        CARE OF             
MTR02639400001000000000000000RA              24767446    005800280000002800000520000003NN  NNW 000                       N    
RDG02639400WATRL000000004K00000000000005687006811242015111752N000000000000N20       000340400K 10000000010000005668           
CUS0263940000102048010009         MERRYMAN ROSS STOVER605 PIPER RD                            000N        CARE OF             
MTR02639400001000000000000000RA              24767449    005800290000002900000520000003NN  NNW 000                       N    
RDG02639400WATRL000000004K00000000000002536006711242015111718N000000000000N20       000420400K 10000000010000002518           
CUS0263940000102048011007         HORNICK BONNIE SUE  603 PIPER RD                            000N        CARE OF             
MTR02639400001000000000000000RA              24767450    005800300000003000000520000003NN  NNW 000                       N    
RDG02639400WATRL000000004K00000000000003341006611242015111636N000000000000N20       000330400K 10000000010000003330           
CUS0263940000102048012005         ZEIGENFUSE IRVIN R  101 CHARTLEY DR                         000N        CARE OF             
MTR02639400001000000000000000RA              24230222    005800310000003100000520000003NN  NNW 000                       N    
RDG02639400WATRL000000004K00000000000004458006511242015111603N000000000040N20       000720400K 10000000010000004457           
CUS0263940000102048013003         MACKERETH DIANE     103 CHARTLEY DR                         000N        CARE OF             
MTR02639400001000000000000000RA              24767564    005800320000003200000520000003NN  NNW 000                       N    
RDG02639400WATRL000000004K00000000000001312007611302015114335N000000000000U20       000950400K 10000000010000001306           
CUS0263940000102048014001         LONG JOAN PATRICIA  105 CHARTLEY DR                         000N        CARE OF             
MTR02639400001000000000000000RA              24767916    005800330000003300000520000003NN  NNW 000                       N    
RDG02639400WATRL000000004K00000000000003668007511302015114200N000000000000U20       000850400K 10000000010000003643           
CUS0263940000102048015008         CHESTER JOSEPH A,3RD107 CHARTLEY DR                         000N        CARE OF             
MTR02639400001000000000000000RA              24767542    005800340000003400000520000003NN  NNW 000                       N    
RDG02639400WATRL000000004K00000000000004053007411302015114035N000000000010U20       000870400K 10000000010000004043           
CUS0263940000102048016006         TINA D SCOTT        109 CHARTLEY DR                         000N        CARE OF             
MTR02639400001000000000000000RA              11331523    005800350000003500000570000003NN  NNW 000                       N    
RDG02639400WATRL000000004K00000000000006696007311302015113908N000000000010U20       000780400K 10000000010000006687           
CUS0263940000102048017004         ROBERT I WILLIAMS   111 CHARTLEY DR                         000N        CARE OF             
MTR02639400001000000000000000RA              10019392    005800360000003600000570000003NN  NNW 000                       N    
RDG02639400WATRL000000004K00000000000000483008611302015120110N000000000000U20       000230400K 10000000010000000445           
CUS0263940000102048018002         CEELY D RADDEN      115 CHARTLEY DR                         000N        CARE OF             
MTR02639400001000000000000000RA              24767546    005800370000003700000520000003NN  NNW 000                       N    
RDG02639400WATRL000000004K00000000000003979008711302015120216N000000000000U20       000660400K 10000000010000003959           
CUS0263940000102048019000         GUI DUN BAI         117 CHARTLEY DR                         000N        CARE OF             
MTR02639400001000000000000000RA              24767543    005800380000003800000520000003NN  NNW 000                       N    
RDG02639400WATRL000000004K00000000000003044007211302015113750N000300000010U20       004410400K 10000000010000003032           
CUS0263940000102048020008         CLARENCE J.(TOM) OLS602 SHIRLEY MANOR RD                    000N        CARE OF             
MTR02639400001000000000000000RA              23052740    005800390000003900000520000003NN  NNW 000                       N    
RDG02639400WATRL000000004K00000000000001982004111302015105711N000000000000U20       000500400K 10000000010000001954           
CUS0263940000102048021006         BRYANT JAMODD       604 SHIRLEY MANOR RD                    000N        CARE OF             
MTR02639400001000000000000000RA              26004971    005800400000004000000520000003NN  NNW 000                       N    
RDG02639400WATRL000000004K00000000000003335003911302015105614N000000000000U20       001610400K 10000000010000003320           
CUS0263940000102048022004         GABRIEL FRANTZ M    606 SHIRLEY MANOR RD                    000N        CARE OF             
MTR02639400001000000000000000RA              26004975    005800410000004100000520000003NN  NNW 000                       N    
RDG02639400WATRL000000004K00000000000005014004011302015105621N000000000010U20       000070400K 10000000010000005002           
CUS0263940000102048023002         KRASIKOV YEVGEN     116 WALGROVE RD                         000N        CARE OF             
MTR02639400001000000000000000RA              48586309    005800420000004200000520000003NN  NNW 000                       N    
RDG02639400WATRL000000004K00000000000001811007911242015112604N000000000000N20       000390400K 10000000010000001800           
CUS0263940000102048024000         PROCTOR PAUL,JR     114 WALGROVE RD                         000N        CARE OF             
MTR02639400001000000000000000RA              26005131    005800430000004300000520000003NN  NNW 000                       N    
RDG02639400WATRL000000004K00000000000003814007811242015112525N000300000010N20       000420400K 10000000010000003801           
CUS0263940000102048025007         SLATTERY KIMBERLY   112 WALGROVE RD                         000N        CARE OF             
MTR02639400001000000000000000RA              00129621    005800440000004400000570000003NN  NNW 000                       N    
RDG02639400WATRL000000004K00000000000001084007711242015112443N000000000000N20       000460400K 10000000010000001074           
CUS0263940000102048026005         JAY COHEN           110 WALGROVE RD                         000N        CARE OF             
MTR02639400001000000000000000RA              26005243    005800450000004500000520000003NN  NNW 000                       N    
RDG02639400WATRL000000004K00000000000003071007611242015112357N000000000000N20       000350400K 10000000010000003053           
CUS0263940000102048027003         WALTHER DAVID G     108 WALGROVE RD                         000N        CARE OF             
MTR02639400001000000000000000RA              26005126    005800460000004600000520000003NN  NNW 000                       N    
RDG02639400WATRL000000004K00000000000003888007511242015112322N000000000010N20       000340400K 10000000010000003876           
CUS0263940000102048028001         DUBIT STEVEN        106 WALGROVE RD                         000N        CARE OF             
MTR02639400001000000000000000RA              26005129    005800470000004700000520000003NN  NNW 000                       N    
RDG02639400WATRL000000004K00000000000002473007411242015112248N000000000000N20       000430400K 10000000010000002456           
CUS0263940000102048029009         GEDE DAVID L        104 WALGROVE RD                         000N        CARE OF             
MTR02639400001000000000000000RA              26005240    005800480000004800000520000003NN  NNW 000                       N    
RDG02639400WATRL000000004K00000000000003554007311242015112205N000000000000N20       000320400K 10000000010000003540           
CUS0263940000102048030007         COFFROAD BRIAN M    102 WALGROVE RD                         000N        CARE OF             
MTR02639400001000000000000000RA              26005241    005800490000004900000520000003NN  NNW 000                       N    
RDG02639400WATRL000000004K00000000000004219007211242015112133N000000000000N20       000340400K 10000000010000004201           
CUS0263940000102048031005         MILLER DONALD WILLIA100 WALGROVE RD                         000N        CARE OF             
MTR02639400001000000000000000RA              26005242    005800500000005000000520000003NN  NNW 000                       N    
RDG02639400WATRL000000004K00000000000006533007111242015112059N000400000010N20       000830400K 10000000010000006530           
CUS0263940000102048032003         GERALD R JANEZIC    10 WALGROVE RD                          000N        CARE OF             
MTR02639400001000000000000000RA              26005165    005800510000005100000520000003NN  NNW 000                       N    
RDG02639400WATRL000000004K00000000000004911005611242015110835N000000000000N20       000830400K 10000000010000004883           
CUS0263940000102374266001         FRANKLIN M JOANN/ROB9 WALGROVE RD                           000N        CARE OF             
MTR02639400001000000000000000RA              50789194    005800520000005200000520000003NN  NNW 000                       N    
RDG02639400WATRL000000004K00000000000002130005511242015110712N000000000001N20       000480400K 10000000010000002103           
CUS0263940000102048033001         TRACEY TODD M       11 WALGROVE RD                          000N        CARE OF             
MTR02639400001000000000000000RA              26004853    005800530000005300000520000003NN  NNW 000                       N    
RDG02639400WATRL000000004K00000000000002410005411242015110624N000400000010N20       000330400K 10000000010000002409           
CUS0263940000102048034009         JOHNSON BRUCE T     101 WALGROVE RD                         000N        CARE OF             
MTR02639400001000000000000000RA              26004848    005800540000005400000520000003NN  NNW 000                       N    
RDG02639400WATRL000000004K00000000000003715005311242015110551N000000000000N20       000300400K 10000000010000003696           
CUS0263940000102048035006         AXT CHESTER M,JR    103 WALGROVE RD                         000N        CARE OF             
MTR02639400001000000000000000RA              26005167    005800550000005500000520000003NN  NNW 000                       N    
RDG02639400WATRL000000004K00000000000004549005211242015110521N000000000000N20       000700400K 10000000010000004529           
CUS0263940000102048036004         MICHAEL TOOHEY      702 WALGROVE CT                         000N        CARE OF             
MTR02639400001000000000000000RA              26004904    005800560000005600000520000003NN  NNW 000                       N    
RDG02639400WATRL000000004K00000000000003232005111242015110411N000000000000N20       000010400K 10000000010000003211           
CUS0263940000102048037002         KOWALEWSKI RAE ANN  704 WALGROVE CT                         000N        CARE OF             
MTR02639400001000000000000000RA              26004907    005800570000005700000520000003NN  NNW 000                       N    
RDG02639400WATRL000000004K00000000000004922005011242015110410N000000000000N20       000800400K 10000000010000004909           
CUS0263940000102048038000         BARBARA G MERCIER   706 WALGROVE CT                         000N        CARE OF             
MTR02639400001000000000000000RA              26004905    005800580000005800000520000003NN  NNW 000                       N    
RDG02639400WATRL000000004K00000000000004304004911242015110250N000000000000N20       000270400K 10000000010000004296           
CUS0263940000102048039008         CHRISTIE JANINE G   707 WALGROVE CT                         000N        CARE OF             
MTR02639400001000000000000000RA              26004909    005800590000005900000520000003NN  NNW 000                       N    
RDG02639400WATRL000000004K00000000000001978004811242015110223N000400000010N20       000370400K 10000000010000001976           
CUS0263940000102048040006         NGUYEN HOANG        705 WALGROVE CT                         000N        CARE OF             
MTR02639400001000000000000000RA              26004908    005800600000006000000520000003NN  NNW 000                       N    
RDG02639400WATRL000000004K00000000000005265004711242015110146N000000000000N20       000300400K 10000000010000005236           
CUS0263940000102048041004         QUIST MARC          703 WALGROVE CT                         000N        CARE OF             
MTR02639400001000000000000000RA              26004906    005800610000006100000520000003NN  NNW 000                       N    
RDG02639400WATRL000000004K00000000000004393004611242015110116N000000000000N20       000650400K 10000000010000004369           
CUS0263940000102048042002         TROMBLE WAYNE N,2ND 107 WALGROVE RD                         000N        CARE OF             
MTR02639400001000000000000000RA              26004856    005800620000006200000520000003NN  NNW 000                       N    
RDG02639400WATRL000000004K00000000000004108004511242015110011N000000000000N20       000410400K 10000000010000004065           
CUS0263940000102048043000         KEENEY SUSAN D      109 WALGROVE RD                         000N        CARE OF             
MTR02639400001000000000000000RA              26004863    005800630000006300000520000003NN  NNW 000                       N    
RDG02639400WATRL000000004K00000000000004794004411242015105930N000000000000N20       000370400K 10000000010000004762           
CUS0263940000102048044008         GEORGE A KAMMERER   111 WALGROVE RD                         000N        CARE OF             
MTR02639400001000000000000000RA              26004865    005800640000006400000520000003NN  NNW 000                       N    
RDG02639400WATRL000000004K00000000000002818004311242015105853N000000000000N20       000330400K 10000000010000002805           
CUS0263940000102048045005         ENEY DONALD L       113 WALGROVE RD                         000N        CARE OF             
MTR02639400001000000000000000RA              26004867    005800650000006500000520000003NN  NNW 000                       N    
RDG02639400WATRL000000004K00000000000003737004211242015105820N000000000000N20       000410400K 10000000010000003724           
CUS0263940000102048046003         KNOUSE RONALD LEE   115 WALGROVE RD                         000N        CARE OF             
MTR02639400001000000000000000RA              26004862    005800660000006600000520000003NN  NNW 000                       N    
RDG02639400WATRL000000004K00000000000003180004111242015105739N000000000000N20       008270400K 10000000010000003174           
CUS0263940000102048047001         ELLYN SHEFFIELD     702 SHIRLEY MANOR RD                    000N        CARE OF             
MTR02639400001000000000000000RA              41259126    005800670000006700000520000003NN  NNW 000                       N    
RDG02639400WATRL000000004K00000000000001899003511302015104827N000000000000U20       000850400K 10000000010000001854           
CUS0263940000102048048009         CRISE ISHMAEL GEORGE704 SHIRLEY MANOR RD                    000N        CARE OF             
MTR02639400001000000000000000RA              35097226    005800680000006800000520000003NN  NNW 000                       N    
RDG02639400WATRL000000004K00000000000003272003611302015104937N000000000000U20       000700400K 10000000010000003263           
CUS0263940000102048049007         EBERT CAROL S       706 SHIRLEY MANOR RD                    000N        CARE OF             
MTR02639400001000000000000000RA              50787030    005800690000006900000520000003NN  NNW 000                       N    
RDG02639400WATRL000000004K00000000000000749003711302015105052N000000000000U20       000750400K 10000000010000000737           
CUS0263940000102048050005         THOMAS C SCHWARZWELL231 WALGROVE RD                         000N        CARE OF             
MTR02639400001000000000000000RA              26004864    005800700000007000000520000003NN  NNW 000                       N    
RDG02639400WATRL000000004K00000000000004032002011302015103651N000000000000U20       000530400K 10000000010000004012           
CUS0263940000102048051003         JOHN BERDINI        233 WALGROVE RD                         000N        CARE OF             
MTR02639400001000000000000000RA              26004931    005800710000007100000520000003NN  NNW 000                       N    
RDG02639400WATRL000000004K00000000000004283001611302015103103N000000000000U20       000360400K 10000000010000004259           
CUS0263940000102048052001         KUZMENKO LYUDMILA   235 WALGROVE RD                         000N        CARE OF             
MTR02639400001000000000000000RA              26004929    005800720000007200000520000003NN  NNW 000                       N    
RDG02639400WATRL000000004K00000000000004574001511302015103027N000300000010U20       000220400K 10000000010000004596           
CUS0263940000102048053009         REBECCA E MANN      237 WALGROVE RD                         000N        CARE OF             
MTR02639400001000000000000000RA              26004932    005800730000007300000520000003NN  NNW 000                       N    
RDG02639400WATRL000000004K00000000000004549001411302015103005N000000000000U20       000180400K 10000000010000004533           
CUS0263940000102048054007         TEOFILO G. ESCOBAR  239 WALGROVE RD                         000N        CARE OF             
MTR02639400001000000000000000RA              19461688    005800740000007400000520000003NN  NNW 000                       N    
RDG02639400WATRL000000004K00000000000004145001211302015102654N000000000000U20       000960400K 10000000010000004111           
CUS0263940000102048055004         JOHN P HOOD         241 WALGROVE RD                         000N        CARE OF             
MTR02639400001000000000000000RA              52287033    005800750000007500000520000003NN  NNW 000                       N    
RDG02639400WATRL000000004K00000000000000974000811302015102359N000000000010U20       000370400K 10000000010000000957           
CUS0263940000102048056002         HULL DANA K         243 WALGROVE RD                         000N        CARE OF             
MTR02639400001000000000000000RA              26004928    005800760000007600000520000003NN  NNW 000                       N    
RDG02639400WATRL000000004K00000000000003640000711302015102322N000300000010U20       000730400K 10000000010000003630           
CUS0263940000102048057000         HAMPT DAMON E       245 WALGROVE RD                         000N        CARE OF             
MTR02639400001000000000000000RA              26004930    005800770000007700000520000003NN  NNW 000                       N    
RDG02639400WATRL000000004K00000000000003669000611302015102209N000000000000U20       000530400K 10000000010000003658           
CUS0263940000102048058008         FRANCIS X MCGUIRE   246 WALGROVE RD                         000N        CARE OF             
MTR02639400001000000000000000RA              26004800    005800780000007800000520000003NN  NNW 000                       N    
RDG02639400WATRL000000004K00000000000006259000411302015102003N000000000000U20       000710400K 10000000010000006232           
CUS0263940000102048059006         LOUIS D RESTO       244 WALGROVE RD                         000N        CARE OF             
MTR02639400001000000000000000RA              26004933    005800790000007900000520000003NN  NNW 000                       N    
RDG02639400WATRL000000004K00000000000004479000511302015102116N000000000000U20       000730400K 10000000010000004458           
CUS0263940000102048060004         RECHY SONDRA J      242 WALGROVE RD                         000N        CARE OF             
MTR02639400001000000000000000RA              26004993    005800800000008000000520000003NN  NNW 000                       N    
RDG02639400WATRL000000004K00000000000003351000911302015102410N000000000000U20       000110400K 10000000010000003324           
CUS0263940000102048061002         BRIAN JAMES FEIDLER 240 WALGROVE RD                         000N        CARE OF             
MTR02639400001000000000000000RA              45380241    005800810000008100000520000003NN  NNW 000                       N    
RDG02639400WATRL000000004K00000000000001261001011302015102435N000000000000U20       000250400K 10000000010000001240           
CUS0263940000102048062000         CASE MICHAEL J      238 WALGROVE RD                         000N        CARE OF             
MTR02639400001000000000000000RA              26004955    005800820000008200000520000003NN  NNW 000                       N    
RDG02639400WATRL000000004K00000000000003606001111302015102849N000000000001U20       001150400K 10000000010000003593           
CUS0263940000102048063008         BRYANT EDNA         236 WALGROVE RD                         000N        CARE OF             
MTR02639400001000000000000000RA              26004973    005800830000008300000520000003NN  NNW 000                       N    
RDG02639400WATRL000000004K00000000000004211001311302015102916N000000000000U20       000270400K 10000000010000004189           
CUS0263940000102048064006         CREEKMORE PAMELA M  234 WALGROVE RD                         000N        CARE OF             
MTR02639400001000000000000000RA              44087482    005800840000008400000520000003NN  NNW 000                       N    
RDG02639400WATRL000000004K00000000000001609001711302015103206N000000000000U20       000630400K 10000000010000001593           
CUS0263940000102048065003         STRIGLE NANCY V     232 WALGROVE RD                         000N        CARE OF             
MTR02639400001000000000000000RA              26004952    005800850000008500000520000003NN  NNW 000                       N    
RDG02639400WATRL000000004K00000000000005368001811302015103253N000000000000U20       000470400K 10000000010000005353           
CUS0263940000102048066001         CHARLES B MCCURLEY  230 WALGROVE RD                         000N        CARE OF             
MTR02639400001000000000000000RA              26004834    005800860000008600000520000003NN  NNW 000                       N    
RDG02639400WATRL000000004K00000000000004620001911302015103558N000000000000U20       001850400K 10000000010000004604           
CUS0263940000102048067009         VILE KEVIN          228 WALGROVE RD                         000N        CARE OF             
MTR02639400001000000000000000RA              26004986    005800870000008700000520000003NN  NNW 000                       N    
RDG02639400WATRL000000004K00000000000005013002111302015103802N000000000000U20       000710400K 10000000010000005007           
CUS0263940000102048068007         ALECIA JOHNSON      226 WALGROVE RD                         000N        CARE OF             
MTR02639400001000000000000000RA              26004940    005800880000008800000520000003NN  NNW 000                       N    
RDG02639400WATRL000000004K00000000000003527002211302015103841N000000000000U20       000390400K 10000000010000003501           
CUS0263940000102048069005         DONALD MORRISON     224 WALGROVE RD                         000N        CARE OF             
MTR02639400001000000000000000RA              26004970    005800890000008900000520000003NN  NNW 000                       N    
RDG02639400WATRL000000004K00000000000003517002311302015103915N000000000000U20       000340400K 10000000010000003498           
CUS0263940000102048070003         SCHWEIGER MICHELLE D222 WALGROVE RD                         000N        CARE OF             
MTR02639400001000000000000000RA              26004961    005800900000009000000520000003NN  NNW 000                       N    
RDG02639400WATRL000000004K00000000000001439002411302015104002N000300000010U20       000470400K 10000000010000001417           
CUS0263940000102048071001         JAVED MAZHAR        220 WALGROVE RD                         000N        CARE OF             
MTR02639400001000000000000000RA              26004987    005800910000009100000520000003NN  NNW 000                       N    
RDG02639400WATRL000000004K00000000000003658002511302015104031N000000000000U20       000290400K 10000000010000003623           
CUS0263940000102048072009         MANUEL AMPUERO CAJAN216 WALGROVE RD                         000N        CARE OF             
MTR02639400001000000000000000RA              26004957    005800920000009200000520000003NN  NNW 000                       N    
RDG02639400WATRL000000004K00000000000002677002611302015104129N000000000000U20       000580400K 10000000010000002648           
CUS0263940000102048073007         JAMES FRANCIS       214 WALGROVE RD                         000N        CARE OF             
MTR02639400001000000000000000RA              26004984    005800930000009300000520000003NN  NNW 000                       N    
RDG02639400WATRL000000004K00000000000003432002711302015104159N000000000000U20       000300400K 10000000010000003420           
CUS0263940000102048074005         LANSINGER WILLIAM J/212 WALGROVE RD                         000N        CARE OF             
MTR02639400001000000000000000RA              26004959    005800940000009400000520000003NN  NNW 000                       N    
RDG02639400WATRL000000004K00000000000005909002811302015104253N000300000010U20       000540400K 10000000010000005883           
CUS0263940000102048075002         RAZYNSKA ANNA       210 WALGROVE RD                         000N        CARE OF             
MTR02639400001000000000000000RA              26004962    005800950000009500000520000003NN  NNW 000                       N    
RDG02639400WATRL000000004K00000000000005429002911302015104314N000000000000U20       000210400K 10000000010000005395           
CUS0263940000102048076000         LANG JEFFREY W      208 WALGROVE RD                         000N        CARE OF             
MTR02639400001000000000000000RA              26004982    005800960000009600000520000003NN  NNW 000                       N    
RDG02639400WATRL000000004K00000000000004832003011302015104407N000000000000U20       000530400K 10000000010000004815           
CUS0263940000102048077008         MCCLARY RODNEY      206 WALGROVE RD                         000N        CARE OF             
MTR02639400001000000000000000RA              26004958    005800970000009700000520000003NN  NNW 000                       N    
RDG02639400WATRL000000004K00000000000003788003111302015104445N000000000000U20       000380400K 10000000010000003762           
CUS0263940000102048078006         BARDEEN ROBERT J,JR 204 WALGROVE RD                         000N        CARE OF             
MTR02639400001000000000000000RA              14922906    005800980000009800000310000003NN  NNW 000                       N    
RDG02639400WATRL000000004K00000000000000727003211302015104522N000000000000U20       000370400K 10000000010000000705           
CUS0263940000102048079004         MICRIOTTI ANTHONY JO202 WALGROVE RD                         000N        CARE OF             
MTR02639400001000000000000000RA              26004963    005800990000009900000520000003NN  NNW 000                       N    
RDG02639400WATRL000000004K00000000000004340003311302015104605N000000000010U20       000430400K 10000000010000004319           
CUS0263940000102048080002         RONALD M LISBERGER  200 WALGROVE RD                         000N        CARE OF             
MTR02639400001000000000000000RA              26004985    005801000000010000000520000003NN  NNW 000                       N    
RDG02639400WATRL000000004K00000000000003348003411302015104702N000000000000U20       000570400K 10000000010000003317           
CUS0263940000102048081000         QUI GAO             607 SHIRLEY MANOR RD                    000N        CARE OF             
MTR02639400001000000000000000RA              26004974    005801010000010100000520000003NN  NNW 000                       N    
RDG02639400WATRL000000004K00000000000002804003811302015105806N000000000001U20       000550400K 10000000010000002789           
CUS0263940000102048082008         AARON A. SASS       605 SHIRLEY MANOR RD                    000N        CARE OF             
MTR02639400001000000000000000RA              44086422    005801020000010200000520000003NN  NNW 000                       N    
RDG02639400WATRL000000004K00000000000002502004311302015105904N000000000010U20       000410400K 10000000010000002484           
CUS0263940000102048083006         MAKASA M KABONGO    603 SHIRLEY MANOR RD                    000N        CARE OF             
MTR02639400001000000000000000RA              46875857    005801030000010300000520000003NN  NNW 000                       N    
RDG02639400WATRL000000004K00000000000001822004211302015105823N000000000000U20       000170400K 10000000010000001803           
CUS0263940000102048084004         SOOKLAL KENNEDY     201 CHARTLEY DR                         000N        CARE OF             
MTR02639400001000000000000000RA              26005012    005801040000010400000520000003NN  NNW 000                       N    
RDG02639400WATRL000000004K00000000000002489004411302015110034N000000000000U20       000900400K 10000000010000002470           
CUS0263940000102048085001         ROBERTS JAMES I,JR  205 CHARTLEY DR                         000N        CARE OF             
MTR02639400001000000000000000RA              26005018    005801050000010500000520000003NN  NNW 000                       N    
RDG02639400WATRL000000004K00000000000003178004511302015110200N000000000000U20       000860400K 10000000010000003147           
CUS0263940000102048086009         FOLKS LEROY         602 ZELL CT                             000N        CARE OF             
MTR02639400001000000000000000RA              22609864    005801060000010600000520000003NN  NNW 000                       N    
RDG02639400WATRL000000004K00000000000003701004611302015110259N000400000010U20       000590400K 10000000010000003695           
CUS0263940000102048087007         YELENA VAVULITSKY   604 ZELL CT                             000N        CARE OF             
MTR02639400001000000000000000RA              21202297    005801070000010700000520000003NN  NNW 000                       N    
RDG02639400WATRL000000004K00000000000002976004711302015110324N000000000000U20       000250400K 10000000010000002974           
CUS0263940000102048088005         ROWLAND JAMES R     605 ZELL CT                             000N        CARE OF             
MTR02639400001000000000000000RA              99188835    005801080000010800000570000003NN  NNW 000                       N    
RDG02639400WATRL000000004K00000000000002028004811302015110424N000000000000U20       000600400K 10000000010000001992           
CUS0263940000102048089003         SABRINA BARNES      603 ZELL CT                             000N        CARE OF             
MTR02639400001000000000000000RA              26005015    005801090000010900000520000003NN  NNW 000                       N    
RDG02639400WATRL000000004K00000000000004107004911302015110506N000400000010U20       000420400K 10000000010000004104           
CUS0263940000102048090001         MCCTACKEN CHARLES RI211 CHARTLEY DR                         000N        CARE OF             
MTR02639400001000000000000000RA              01115589    005801100000011000000610000003NN  NNW 000                       N    
RDG02639400WATRL000000004K00000000000000992005011302015110815N000000000000U20       001890400K 10000000010000000970           
CUS0263940000102048091009         MOLINARO JOSEPH S   215 CHARTLEY DR                         000N        CARE OF             
MTR02639400001000000000000000RA              01115537    005801110000011100000610000003NN  NNW 000                       N    
RDG02639400WATRL000000004K00000000000001148005111302015111135N000300000010U20       002000400K 10000000010000001097           
CUS0263940000102048092007         ECKHARDT HENRY WALTE217 CHARTLEY DR                         000N        CARE OF             
MTR02639400001000000000000000RA              41588326    005801120000011200000520000003NN  NNW 000                       N    
RDG02639400WATRL000000004K00000000000002505005211302015111137N000000000000U20       000020400K 10000000010000002484           
CUS0263940000102048093005         KHARISOVA ALIYA     219 CHARTLEY DR                         000N        CARE OF             
MTR02639400001000000000000000RA              14923350    005801130000011300000310000003NN  NNW 000                       N    
RDG02639400WATRL000000004K00000000000000826005311302015111226N000000000000U20       000490400K 10000000010000000789           
CUS0263940000102048094003         TAYLOR RICHARD B    221 CHARTLEY DR                         000N        CARE OF             
MTR02639400001000000000000000RA              26005017    005801140000011400000520000003NN  NNW 000                       N    
RDG02639400WATRL000000004K00000000000001360005411302015111345N000000000000U20       000790400K 10000000010000001348           
CUS0263940000102048095000         DONNELLY BRIAN T,SR 225 CHARTLEY DR                         000N        CARE OF             
MTR02639400001000000000000000RA              26005014    005801150000011500000520000003NN  NNW 000                       N    
RDG02639400WATRL000000004K00000000000004799005511302015111428N000000000000U20       000430400K 10000000010000004765           
CUS0263940000102048096008         PATRICK F. ASH      227 CHARTLEY DR                         000N        CARE OF             
MTR02639400001000000000000000RA              01115397    005801160000011600000610000003NN  NNW 000                       N    
RDG02639400WATRL000000004K00000000000000459005611302015111523N000000000000U20       000550400K 10000000010000000441           
CUS0263940000102048097006         HANDELMAN FRED A    229 CHARTLEY DR                         000N        CARE OF             
MTR02639400001000000000000000RA              00128669    005801170000011700000570000003NN  NNW 000                       N    
RDG02639400WATRL000000004K00000000000001498005711302015111629N000000000000U20       000660400K 10000000010000001478           
CUS0263940000102048098004         VASZIL JASON S      231 CHARTLEY DR                         000N        CARE OF             
MTR02639400001000000000000000RA              26005023    005801180000011800000520000003NN  NNW 000                       N    
RDG02639400WATRL000000004K00000000000004926005811302015111739N000000000010U20       000700400K 10000000010000004903           
CUS0263940000102048099002         SANZERI GASPARE N   233 CHARTLEY DR                         000N        CARE OF             
MTR02639400001000000000000000RA              26005105    005801190000011900000520000003NN  NNW 000                       N    
RDG02639400WATRL000000004K00000000000002856005911302015111821N000000000000U20       000420400K 10000000010000002840           
CUS0263940000102048100008         SCHIESSM KYLE R     235 CHARTLEY DR                         000N        CARE OF             
MTR02639400001000000000000000RA              50791536    005801200000012000000520000003NN  NNW 000                       N    
RDG02639400WATRL000000004K00000000000001759006011302015111943N000000000000U20       000820400K 10000000010000001747           
CUS0263940000102048101006         ZABETAKIS MICHAEL J 237 CHARTLEY BLVD                       000N        CARE OF             
MTR02639400001000000000000000RA              01115396    005801210000012100000610000003NN  NNW 000                       N    
RDG02639400WATRL000000004K00000000000000318006111302015112040N000100000020U20       000570400K 10000000010000000318           
CUS0263940000102048102004         HIENZ ROBERT D      239 CHARTLEY DR                         000N        CARE OF             
MTR02639400001000000000000000RA              26005103    005801220000012200000520000003NN  NNW 000                       N    
RDG02639400WATRL000000004K00000000000003857006211302015112128N000000000000U20       000480400K 10000000010000003831           
CUS0263940000102048103002         CHARLES H GREEN     241 CHARTLEY DR                         000N        CARE OF             
MTR02639400001000000000000000RA              01115411    005801230000012300000610000003NN  NNW 000                       N    
RDG02639400WATRL000000004K00000000000000277006311302015112210N000000000020U20       000420400K 10000000010000000265           
CUS0263940000102048104000         BROWN ROBBIN E      243 CHARTLEY DR                         000N        CARE OF             
MTR02639400001000000000000000RA              26005020    005801240000012400000520000003NN  NNW 000                       N    
RDG02639400WATRL000000004K00000000000002450006411302015112319N000000000000U20       000690400K 10000000010000002414           
CUS0263940000102048105007         BURGESS KRISTIE     245 CHARTLEY DR                         000N        CARE OF             
MTR02639400001000000000000000RA              26005021    005801250000012500000520000003NN  NNW 000                       N    
RDG02639400WATRL000000004K00000000000004286006511302015112357N000000000000U20       000380400K 10000000010000004246           
CUS0263940000102048106005         EDWARD A KING       247 CHARTLEY DR                         000N        CARE OF             
MTR02639400001000000000000000RA              26005106    005801260000012600000520000003NN  NNW 000                       N    
RDG02639400WATRL000000004K00000000000003809006611302015112458N000000000000U20       000610400K 10000000010000003797           
CUS0263940000102048107003         BURRS DONNA L       249 CHARTLEY DR                         000N        CARE OF             
MTR02639400001000000000000000RA              48584697    005801270000012700000520000003NN  NNW 000                       N    
RDG02639400WATRL000000004K00000000000001237006711302015112549N000000000000U20       000510400K 10000000010000001219           
CUS0263940000102048108001         WEBB KIM ANN        251 CHARTLEY DR                         000N        CARE OF             
MTR02639400001000000000000000RA              26005087    005801280000012800000520000003NN  NNW 000                       N    
RDG02639400WATRL000000004K00000000000002644006811302015112654N000000000000U20       000650400K 10000000010000002633           
CUS0263940000102048109009         KLAPUT VICTOR E     607 SACRED HEART LN                     000N        CARE OF             
MTR02639400001000000000000000RA              26005088    005801290000012900000520000003NN  NNW 000                       N    
RDG02639400WATRL000000004K00000000000004216000311302015101852N000300000010U20       000450400K 10000000010000004196           
CUS0263940000102048110007         DEBRA GORE          605 SACRED HEART LN                     000N        CARE OF             
MTR02639400001000000000000000RA              01104499    005801300000013000000610000003NN  NNW 000                       N    
RDG02639400WATRL000000004K00000000000000668000211302015102947N000000000001U20       000310400K 10000000010000000607           
CUS0263940000102048111005         TODD BENJAMIN D     603 SACRED HEART LN                     000N        CARE OF             
MTR02639400001000000000000000RA              01104501    005801310000013100000610000003NN  NNW 000                       N    
RDG02639400WATRL000000004K00000000000001124000111302015101703N000000000000U20       000000400K 10000000010000001101           
CUS0263940000102048112003         PRINZ EDWARD        601 SACRED HEART LN                     000N        CARE OF             
MTR02639400001000000000000000RA              26005085    005801320000013200000520000003NN  NNW 000                       N    
RDG02639400WATRL000000004K00000000000002821006911302015112850N000000000000U20       001160400K 10000000010000002796           
CUS0263940000102048113001         ROSALINA CERRITOS   507 SACRED HEART LN                     000N        CARE OF             
MTR02639400001000000000000000RA              30524548    005801330000013300000520000003NN  NNW 000                       N    
RDG02639400WATRL000000004K00000000000003447007011302015112933N000000000000U20       000430400K 10000000010000003414           
CUS0263940000102048114009         SANNER BERNARD F, TR505 SACRED HEART LN                     000N        CARE OF             
MTR02639400001000000000000000RA              26005067    005801340000013400000520000003NN  NNW 000                       N    
RDG02639400WATRL000000004K00000000000003235007111302015113029N000000000000U20       000560400K 10000000010000003220           
CUS0263940000102048115006         BANK BORIS          501 SACRED HEART LN                     000N        CARE OF             
MTR02639400001000000000000000RA              48584696    005801350000013500000520000003NN  NNW 000                       N    
RDG02639400WATRL000000004K00000000000001743000111242015093954N000000000010N20       000000400K 10000000010000001726           
CUS0263940000102048116004         BRAMMER VINCENT E   431 SACRED HEART LN                     000N        CARE OF             
MTR02639400001000000000000000RA              32901080    005801360000013600000520000003NN  NNW 000                       N    
RDG02639400WATRL000000004K00000000000003885000211242015094101N000000000010N20       000670400K 10000000010000003861           
CUS0263940000102048117002         MICHAEL & NANCY RODO429 SACRED HEART LN                     000N        CARE OF             
MTR02639400001000000000000000RA              33081895    005801370000013700000520000003NN  NNW 000                       N    
RDG02639400WATRL000000004K00000000000002967000311242015094158N000000000000N20       000570400K 10000000010000002943           
CUS0263940000102048118000         CALVIN SPROUL       427 SACRED HEART LN                     000N        CARE OF             
MTR02639400001000000000000000RA              26005157    005801380000013800000520000003NN  NNW 000                       N    
RDG02639400WATRL000000004K00000000000003077000411242015094237N000300000010N20       000390400K 10000000010000003068           
CUS0263940000102048119008         WISSEL ANDREW E     425 SACRED HEART LN                     000N        CARE OF             
MTR02639400001000000000000000RA              26005184    005801390000013900000520000003NN  NNW 000                       N    
RDG02639400WATRL000000004K00000000000004147000511242015094317N000000000000N20       000400400K 10000000010000004132           
CUS0263940000102048120006         CATRON DAVID L      423 SACRED HEART LN                     000N        CARE OF             
MTR02639400001000000000000000RA              26005069    005801400000014000000520000003NN  NNW 000                       N    
RDG02639400WATRL000000004K00000000000002482000611242015094357N000000000000N20       000400400K 10000000010000002452           
CUS0263940000102048121004         PATEL KETANKUMAR K  421 SACRED HEART LN                     000N        CARE OF             
MTR02639400001000000000000000RA              26005051    005801410000014100000520000003NN  NNW 000                       N    
RDG02639400WATRL000000004K00000000000006234000711242015094429N000000000000N20       000320400K 10000000010000006212           
CUS0263940000102048122002         TOVA HOICOWITZ      419 SACRED HEART LN                     000N        CARE OF             
MTR02639400001000000000000000RA              26005048    005801420000014200000520000003NN  NNW 000                       N    
RDG02639400WATRL000000004K00000000000003845000811242015094506N000000000000N20       000370400K 10000000010000003830           
CUS0263940000102048123000         JOHN A ENGLAR       417 SACRED HEART LN                     000N        CARE OF             
MTR02639400001000000000000000RA              26005053    005801430000014300000520000003NN  NNW 000                       N    
RDG02639400WATRL000000004K00000000000003624000911242015094543N000000000000N20       000370400K 10000000010000003614           
CUS0263940000102048124008         NIETO JAIRO H       415 SACRED HEART LN                     000N        CARE OF             
MTR02639400001000000000000000RA              26005156    005801440000014400000520000003NN  NNW 000                       N    
RDG02639400WATRL000000004K00000000000005247001011242015094615N000000000000N20       000320400K 10000000010000005233           
CUS0263940000102048125005         ERNEST S GUSTAITIS  413 SACRED HEART LN                     000N        CARE OF             
MTR02639400001000000000000000RA              26005161    005801450000014500000520000003NN  NNW 000                       N    
RDG02639400WATRL000000004K00000000000003894001111242015094650N000000000000N20       000350400K 10000000010000003878           
CUS0263940000102048126003         LEONARD PRENCIPE    411 SACRED HEART LN                     000N        CARE OF             
MTR02639400001000000000000000RA              25782276    005801460000014600000520000003NN  NNW 000                       N    
RDG02639400WATRL000000004K00000000000003316001211242015094736N000000000000N20       000460400K 10000000010000003300           
CUS0263940000102048127001         GONZALEZ MIGUEL     409 SACRED HEART LN                     000N        CARE OF             
MTR02639400001000000000000000RA              26005217    005801470000014700000520000003NN  NNW 000                       N    
RDG02639400WATRL000000004K00000000000002736001311242015094822N000000000000N20       000460400K 10000000010000002721           
CUS0263940000102048128009         MYERS WILLIAM H,JR  407 SACRED HEART LN                     000N        CARE OF             
MTR02639400001000000000000000RA              26005221    005801480000014800000520000003NN  NNW 000                       N    
RDG02639400WATRL000000004K00000000000002004001411242015094858N000000000000N20       000360400K 10000000010000001994           
CUS0263940000102048129007         NICHOLAS A. DEMETRIC405 SACRED HEART LN                     000N        CARE OF             
MTR02639400001000000000000000RA              77989258    005801490000014900000350000003NN  NNW 000                       N    
RDG02639400WATRL000000004K00000000000000098001511242015094949N000000000000N20       000510400K 10000000010000000072           
CUS0263940000102048130005         MARTIN BELINDA S    403 SACRED HEART LN                     000N        CARE OF             
MTR02639400001000000000000000RA              26005219    005801500000015000000520000003NN  NNW 000                       N    
RDG02639400WATRL000000004K00000000000003579001611242015095029N000000000000N20       000400400K 10000000010000003572           
CUS0263940000102048131003         GEORGE C BOWSER JR  301 GLYNDON DR                          000N        CARE OF             
MTR02639400001000000000000000RA              24769426    005801510000015100000520000003NN  NNW 000                       N    
RDG02639400WATRL000000004K00000000000003363001711242015095224N000400000050N20       001150400K 10000000010000003352           
CUS0263940000102048132001         SHEER NORMAN        303 GLYNDON DR                          000N        CARE OF             
MTR02639400001000000000000000RA              23646873    005801520000015200000520000003NN  NNW 000                       N    
RDG02639400WATRL000000004K00000000000002797001811242015095342N000000000000N20       000780400K 10000000010000002787           
CUS0263940000102048133009         THE BANK OF NEW YORK305 GLYNDON DR                          000N        CARE OF             
MTR02639400001000000000000000RA              14923294    005801530000015300000310000003NN  NNW 000                       N    
RDG02639400WATRL000000004K00000000000000595001911242015095406N000000000000N20       000240400K 10000000010000000555           
CUS0263940000102048134007         DARREN DRUMMOND     307 GLYNDON DR                          000N        CARE OF             
MTR02639400001000000000000000RA              26004623    005801540000015400000520000003NN  NNW 000                       N    
RDG02639400WATRL000000004K00000000000004270002011242015095451N000000000000N20       000450400K 10000000010000004256           
CUS0263940000102048135004         CAPLAN WAYNE        430 HIGHMEADOW RD                       000N        CARE OF             
MTR02639400001000000000000000RA              26004627    005801550000015500000520000003NN  NNW 000                       N    
RDG02639400WATRL000000004K00000000000004680002111242015095601N000000000000N20       000700400K 10000000010000004665           
CUS0263940000102048136002         EDWARD J SEDLAR     428 HIGHMEADOW RD                       000N        CARE OF             
MTR02639400001000000000000000RA              26004603    005801560000015600000520000003NN  NNW 000                       N    
RDG02639400WATRL000000004K00000000000004868002211242015095926N000000000000N20       002050400K 10000000010000004837           
CUS0263940000102048137000         SCRIVENER DAVID B   426 HIGHMEADOW RD                       000N        CARE OF             
MTR02639400001000000000000000RA              26004626    005801570000015700000520000003NN  NNW 000                       N    
RDG02639400WATRL000000004K00000000000003294002311242015100014N000000000000N20       000480400K 10000000010000003262           
CUS0263940000102048138008         KAUFFMAN CHRISTOPHER424 HIGHMEADOW RD                       000N        CARE OF             
MTR02639400001000000000000000RA              26004579    005801580000015800000520000003NN  NNW 000                       N    
RDG02639400WATRL000000004K00000000000003786002411242015100450N000000000000N20       002760400K 10000000010000003773           
CUS0263940000102048139006         JAMES SHERRY LYNN   422 HIGHMEADOW RD                       000N        CARE OF             
MTR02639400001000000000000000RA              26005001    005801590000015900000520000003NN  NNW 000                       N    
RDG02639400WATRL000000004K00000000000001844002511242015100557N000000000000N20       000670400K 10000000010000001832           
CUS0263940000102048140004         WOOD DENISE WOOD TIM420 HIGHMEADOW RD                       000N        CARE OF             
MTR02639400001000000000000000RA              26005005    005801600000016000000520000003NN  NNW 000                       N    
RDG02639400WATRL000000004K00000000000006999002611242015100725N000000000010N20       000880400K 10000000010000006982           
CUS0263940000102048141002         XIAO XIN CHEN       418 HIGHMEADOW RD                       000N        CARE OF             
MTR02639400001000000000000000RA              26005002    005801610000016100000520000003NN  NNW 000                       N    
RDG02639400WATRL000000004K00000000000004073002711242015100749N000000000000N20       000240400K 10000000010000004057           
CUS0263940000102048142000         WALKER NIKOLE A     416 HIGHMEADOW RD                       000N        CARE OF             
MTR02639400001000000000000000RA              26005000    005801620000016200000520000003NN  NNW 000                       N    
RDG02639400WATRL000000004K00000000000003666002811242015101306N000000000000N20       003170400K 10000000010000003650           
CUS0263940000102048143008         ROTHBAUM BONNIE R   414 HIGHMEADOW RD                       000N        CARE OF             
MTR02639400001000000000000000RA              26005004    005801630000016300000520000003NN  NNW 000                       N    
RDG02639400WATRL000000004K00000000000004411002911242015101414N000000000000N20       000680400K 10000000010000004395           
CUS0263940000102048144006         LEISHURE C SAMUEL   412 HIGHMEADOW RD                       000N        CARE OF             
MTR02639400001000000000000000RA              44087221    005801640000016400000520000003NN  NNW 000                       N    
RDG02639400WATRL000000004K00000000000001519003011242015101452N000000000000N20       000380400K 10000000010000001511           
CUS0263940000102048145003         ROEDER LORI A       410 HIGHMEADOW RD                       000N        CARE OF             
MTR02639400001000000000000000RA              26005003    005801650000016500000520000003NN  NNW 000                       N    
RDG02639400WATRL000000004K00000000000003108003111242015101745N000000000000N20       001730400K 10000000010000003098           
CUS0263940000102048146001         GERWIG WILLIAM,JR   408 HIGHMEADOW RD                       000N        CARE OF             
MTR02639400001000000000000000RA              24770471    005801660000016600000520000003NN  NNW 000                       N    
RDG02639400WATRL000000004K00000000000003711003211242015101908N000000000081N20       000050400K 10000000010000003663           
CUS0263940000102048147009         OWINGS CHARLES NELSO406 HIGHMEADOW RD                       000N        CARE OF             
MTR02639400001000000000000000RA              24769174    005801670000016700000520000003NN  NNW 000                       N    
RDG02639400WATRL000000004K00000000000004216003311242015101941N000000000010N20       000330400K 10000000010000004192           
CUS0263940000102048148007         LINDA S BOYCE       404 HIGHMEADOW RD                       000N        CARE OF             
MTR02639400001000000000000000RA              24225273    005801680000016800000520000003NN  NNW 000                       N    
RDG02639400WATRL000000004K00000000000001991003411242015102238N000000000000N20       001770400K 10000000010000001979           
CUS0263940000102048149005         TUNNEY THERESA M    402 HIGHMEADOW RD                       000N        CARE OF             
MTR02639400001000000000000000RA              41258963    005801690000016900000520000003NN  NNW 000                       N    
RDG02639400WATRL000000004K00000000000001866003511242015102316N000000000000N20       000380400K 10000000010000001844           
CUS0263940000102048150003         FRANK G TRCKA ETAL  400 HIGHMEADOW RD                       000N        CARE OF             
MTR02639400001000000000000000RA              31582774    005801700000017000000520000003NN  NNW 000                       N    
RDG02639400WATRL000000004K00000000000002442003611242015102336N000300000010N20       000200400K 10000000010000002428           
CUS0263940000102048151001         RAYMOND K REILLY    308 HIGHMEADOW RD                       000N        CARE OF             
MTR02639400001000000000000000RA              31583367    005801710000017100000520000003NN  NNW 000                       N    
RDG02639400WATRL000000004K00000000000002008004011242015104352N000000000000N20       005680400K 10000000010000001999           
CUS0263940000102048152009         GRINBLAT LEE MICHAEL306 HIGHMEADOW RD                       000N        CARE OF             
MTR02639400001000000000000000RA              24234975    005801720000017200000520000003NN  NNW 000                       N    
RDG02639400WATRL000000004K00000000000002878003711242015102841N000000000010N20       003050400K 10000000010000002859           
CUS0263940000102048153007         BURTON R GLASSNER   304 HIGHMEADOW RD                       000N        CARE OF             
MTR02639400001000000000000000RA              24234702    005801730000017300000520000003NN  NNW 000                       N    
RDG02639400WATRL000000004K00000000000004377003811242015103408N000000000030N20       003270400K 10000000010000004354           
CUS0263940000102048154005         GOYKHMAN SAVELIY A  302 HIGHMEADOW RD                       000N        CARE OF             
MTR02639400001000000000000000RA              24233518    005801740000017400000520000003NN  NNW 000                       N    
RDG02639400WATRL000000004K00000000000003056003911242015103424N000000000000N20       000160400K 10000000010000003037           
RTR02639400NN01740174000001740000000001740174000214NY017401740174000000000000000000000000000001    11182015NY020000 N         
RHD04756000NN01960196000001960000000001960196000112NY019601960196000200000000000000000000000001    11172015NY020000 N         
CUS0475600000104135446005         HARTLEY DIANNA J    8413 GREENWAY RD                        000N        CARE OF             
MTR04756000001000000000000000RA              33731567    007500010000000100000520000003NN  NNW 000                       N    
RDG04756000WATRL000000004K00000000000002184000111182015075956N000000000000N40       000000400K 10000000010000002174           
CUS0475600000104135447003         MIHALIK JOSEPH J,TRU8415 GREENWAY RD                        000N        CARE OF             
MTR04756000001000000000000000RA              30526176    007500020000000200000520000003NN  NNW 000                       N    
RDG04756000WATRL000000004K00000000000002982000211182015080017N000000000000N40       000210400K 10000000010000002981           
CUS0475600000104135448001         AMES TIMOTHY J      8417 GREENWAY RD                        000N        CARE OF             
MTR04756000001000000000000000RA              99411630    007500030000000300000570000003NN  NNW 000                       N    
RDG04756000WATRL000000004K00000000000000648000311182015080108N000000000000N40       000510400K 10000000010000000640           
CUS0475600000104135449009         TROY M. PETERS      8419 GREENWAY RD                        000N        CARE OF             
MTR04756000001000000000000000RA              37690473    007500040000000400000520000003NN  NNW 000                       N    
RDG04756000WATRL000000004K00000000000002177000411182015080136N000000000000N40       000280400K 10000000010000002168           
CUS0475600000104135450007         KIM SEON HUI        8421 GREENWAY RD                        000N        CARE OF             
MTR04756000001000000000000000RA              37690471    007500050000000500000520000003NN  NNW 000                       N    
RDG04756000WATRL000000004K00000000000003165000511182015080211N000000000000N40       000350400K 10000000010000003146           
CUS0475600000104135451005         DAVIS KENNETH G     8423 GREENWAY RD                        000N        CARE OF             
MTR04756000001000000000000000RA              37690468    007500060000000600000520000003NN  NNW 000                       N    
RDG04756000WATRL000000004K00000000000002924000611182015080256N000000000000N40       000450400K 10000000010000002893           
CUS0475600000104135452003         BRUBAKER CHARLES H  8425 GREENWAY RD                        000N        CARE OF             
MTR04756000001000000000000000RA              27333391    007500070000000700000520000003NN  NNW 000                       N    
RDG04756000WATRL000000004K00000000000002044000711182015080321N000000000000N40       000250400K 10000000010000002034           
CUS0475600000104135453001         HIGHTOWER CORY D    8427 GREENWAY RD                        000N        CARE OF             
MTR04756000001000000000000000RA              14928326    007500080000000800000310000003NN  NNW 000                       N    
RDG04756000WATRL000000004K00000000000000512000811182015080341N000000000000N40       000200400K 10000000010000000477           
CUS0475600000104135454009         JOHN ROSS PORTER    8429 GREENWAY RD                        000N        CARE OF             
MTR04756000001000000000000000RA              29121749    007500090000000900000520000003NN  NNW 000                       N    
RDG04756000WATRL000000004K00000000000002722000911182015080412N000000000000N40       000310400K 10000000010000002718           
CUS0475600000104135455006         SCOTT R HIATT       8431 GREENWAY RD                        000N        CARE OF             
MTR04756000001000000000000000RA              35113691    007500100000001000000520000003NN  NNW 000                       N    
RDG04756000WATRL000000004K00000000000002595001011182015080437N000000000000N40       000250400K 10000000010000002585           
CUS0475600000104135456004         TURBOT CREEK PROP LL8433 GREENWAY RD                        000N        CARE OF             
MTR04756000001000000000000000RA              99375603    007500110000001100000570000003NN  NNW 000                       N    
RDG04756000WATRL000000004K00000000000000485001111182015080513N000000000000N40       000360400K 10000000010000000462           
CUS0475600000104135457002         YEAGLEY RICHARD B,JR8435 GREENWAY RD                        000N        CARE OF             
MTR04756000001000000000000000RA              00120869    007500120000001200000570000003NN  NNW 000                       N    
RDG04756000WATRL000000004K00000000000001298001211182015080533N000000000000N40       000200400K 10000000010000001274           
CUS0475600000104135458000         DAVID CHIRINOS      1721 EDGEWOOD RD                        000N        CARE OF             
MTR04756000001000000000000000RA              33730447    005800130000001300000520000003NN  NNW 000                       N    
RDG04756000WATRL000000004K00000000000002498001311182015080718N000000000010N40       001050400K 10000000010000002453           
CUS0475600000104135459008         DILONARDO JOANNE C  1723 EDGEWOOD RD                        000N        CARE OF             
MTR04756000001000000000000000RA              42810134    005800140000001400000520000003NN  NNW 000                       N    
RDG04756000WATRL000000004K00000000000000875001411182015080809N000400000010N40       000510400K 10000000010000000872           
CUS0475600000104135460006         BRADY DOUGLAS B,JR  1725 EDGEWOOD RD                        000N        CARE OF             
MTR04756000001000000000000000RA              26013806    005800150000001500000520000003NN  NNW 000                       N    
RDG04756000WATRL000000004K00000000000003510001511182015080817N000000000000N40       000080400K 10000000010000003495           
CUS0475600000104135461004         NELSON WILLIAM B    1727 EDGEWOOD RD                        000N        CARE OF             
MTR04756000001000000000000000RA              24773910    005800160000001600000520000003NN  NNW 000                       N    
RDG04756000WATRL000000004K00000000000004633001611182015080858N000400000010N40       000410400K 10000000010000004628           
CUS0475600000104135462002         BROWN ELIZABETH W   1729 EDGEWOOD RD                        000N        CARE OF             
MTR04756000001000000000000000RA              26007273    005800170000001700000520000003NN  NNW 000                       N    
RDG04756000WATRL000000004K00000000000004881001711182015080904N000400000010N40       000060400K 10000000010000004880           
CUS0475600000104135463000         PHILIP A. WEIMER    1731 EDGEWOOD RD                        000N        CARE OF             
MTR04756000001000000000000000RA              33730416    005800180000001800000520000003NN  NNW 000                       N    
RDG04756000WATRL000000004K00000000000000862001811182015081009N000000000000N40       000650400K 10000000010000000852           
CUS0475600000104135464008         ALLEN CHRISTOPHER L 1733 EDGEWOOD RD                        000N        CARE OF             
MTR04756000001000000000000000RA              23056196    005800190000001900000520000003NN  NNW 000                       N    
RDG04756000WATRL000000004K00000000000003445001911182015081050N000400000010N40       000410400K 10000000010000003442           
CUS0475600000104135465005         GILCHRIST KAREN     1735 EDGEWOOD RD                        000N        CARE OF             
MTR04756000001000000000000000RA              23056180    005800200000002000000520000003NN  NNW 000                       N    
RDG04756000WATRL000000004K00000000000004152002011182015081056N000000000000N40       000060400K 10000000010000004144           
CUS0475600000104135466003         PASKO JOHN J,JR     1737 EDGEWOOD RD                        000N        CARE OF             
MTR04756000001000000000000000RA              29404051    005800210000002100000520000003NN  NNW 000                       N    
RDG04756000WATRL000000004K00000000000004917002111302015145329O000000000010N67       000390400K 10000000010000004900           
CUS0475600000104135467001         BARNES WADE H       1739 EDGEWOOD RD                        000N        CARE OF             
MTR04756000001000000000000000RA              33730448    005800220000002200000520000003NN  NNW 000                       N    
RDG04756000WATRL000000004K00000000000001852002211182015081151N000000000000N40       000160400K 10000000010000001832           
CUS0475600000104135468009         GUTHALL GEORGE J    1741 EDGEWOOD RD                        000N        CARE OF             
MTR04756000001000000000000000RA              23027127    005800230000002300000520000003NN  NNW 000                       N    
RDG04756000WATRL000000004K00000000000003833002311182015081234N000000000000N40       000430400K 10000000010000003809           
CUS0475600000104135469007         STEPHANIE ARCONTI   1701 KENNOWAY RD                        000N        CARE OF             
MTR04756000001000000000000000RA              36699327    007500240000002400000520000003NN  NNW 000                       N    
RDG04756000WATRL000000004K00000000000002400002411182015081319N000000000000N40       000450400K 10000000010000002389           
CUS0475600000104135470005         RICHARDSON LA SHELL 1703 KENNOWAY RD                        000N        CARE OF             
MTR04756000001000000000000000RA              35113674    007500250000002500000520000003NN  NNW 000                       N    
RDG04756000WATRL000000004K00000000000004007002511182015081339N000000000001N40       000200400K 10000000010000003959           
CUS0475600000104135471003         LAUFERSWEILER-HANF N1705 KENNOWAY RD                        000N        CARE OF             
MTR04756000001000000000000000RA              37690004    007500260000002600000520000003NN  NNW 000                       N    
RDG04756000WATRL000000004K00000000000001359002611182015081404N000000000000N40       000250400K 10000000010000001337           
CUS0475600000104135472001         BALDWIN JOEL M      1707 KENNOWAY RD                        000N        CARE OF             
MTR04756000001000000000000000RA              37690005    007500270000002700000520000003NN  NNW 000                       N    
RDG04756000WATRL000000004K00000000000002077002711182015081422N000000000000N40       000180400K 10000000010000002053           
CUS0475600000104135473009         ROANE ADRIANA       1709 KENNOWAY RD                        000N        CARE OF             
MTR04756000001000000000000000RA              99411927    007500280000002800000570000003NN  NNW 000                       N    
RDG04756000WATRL000000004K00000000000000767002811182015081456N000000000000N40       000340400K 10000000010000000754           
CUS0475600000104135474007         PIGOTT NEIL AUSTIN  1711 KENNOWAY RD                        000N        CARE OF             
MTR04756000001000000000000000RA              30001887    007500290000002900000570000003NN  NNW 000                       N    
RDG04756000WATRL000000004K00000000000000350002911182015081519N000000000000N40       000230400K 10000000010000000332           
CUS0475600000104135475004         SULLIVAN SHAWN M    1713 KENNOWAY RD                        000N        CARE OF             
MTR04756000001000000000000000RA              30000686    007500300000003000000570000003NY  NNW 000                       N    
MTM0475600030000686    DONT SEE                                                                                               
RDG04756000WATRL000000004K00000000000000000000000000000000000 000000000000U         000000400  10000000010000000356           
CUS0475600000104135476002         WAGNER LAURA A      1715 KENNOWAY RD                        000N        CARE OF             
MTR04756000001000000000000000RA              37690076    007500310000003100000520000003NN  NNW 000                       N    
RDG04756000WATRL000000004K00000000000002458003011182015081617N000000000000N40       000580400K 10000000010000002447           
CUS0475600000104135477000         MERCHANT MICHAEL L  1717 KENNOWAY RD                        000N        CARE OF             
MTR04756000001000000000000000RA              99411631    007500320000003200000570000003NN  NNW 000                       N    
RDG04756000WATRL000000004K00000000000001417003111182015081831N000000000000N40       001340400K 10000000010000001405           
CUS0475600000104135478008         ROWLAND CHRISTOPHER 1719 KENNOWAY RD                        000N        CARE OF             
MTR04756000001000000000000000RA              24625306    007500330000003300000520000003NN  NNW 000                       N    
RDG04756000WATRL000000004K00000000000002929003211182015081852N000000000000N40       000210400K 10000000010000002889           
CUS0475600000104135479006         SULLIVAN JEFFREY P  1721 KENNOWAY RD                        000N        CARE OF             
MTR04756000001000000000000000RA              01098658    007500340000003400000610000003NN  NNW 000                       N    
RDG04756000WATRL000000004K00000000000000687003311182015082003N000400000010N40       000710400K 10000000010000000673           
CUS0475600000104135480004         SCHUSTER KERSTIN M  1723 KENNOWAY RD                        000N        CARE OF             
MTR04756000001000000000000000RA              37690067    007500350000003500000520000003NN  NNW 000                       N    
RDG04756000WATRL000000004K00000000000001887003411182015082025N000000000000N40       000220400K 10000000010000001882           
CUS0475600000104135481002         SAWICKI JOSEPH C    1716 KENNOWAY RD                        000N        CARE OF             
MTR04756000001000000000000000RA              00120867    007500360000003600000570000003NN  NNW 000                       N    
RDG04756000WATRL000000004K00000000000001277003511182015082122N000000000000N40       000570400K 10000000010000001187           
CUS0475600000104135482000         HAYNES JAMES B      1714 KENNOWAY RD                        000N        CARE OF             
MTR04756000001000000000000000RA              36699326    007500370000003700000520000003NN  NNW 000                       N    
RDG04756000WATRL000000004K00000000000004293003611182015082144N000000000000N40       000220400K 10000000010000004260           
CUS0475600000104135483008         KERFOOT ELLEN A     1712 KENNOWAY RD                        000N        CARE OF             
MTR04756000001000000000000000RA              30528625    007500380000003800000520000003NN  NNW 000                       N    
RDG04756000WATRL000000004K00000000000003249003711182015082219N000000000000N40       000350400K 10000000010000003237           
CUS0475600000104135484006         BENNETT MATTHEW     1710 KENNOWAY RD                        000N        CARE OF             
MTR04756000001000000000000000RA              36699330    007500390000003900000520000003NN  NNW 000                       N    
RDG04756000WATRL000000004K00000000000002788003811182015082236N000000000000N40       000170400K 10000000010000002775           
CUS0475600000104135485003         KELLER DOUGLAS C    1708 KENNOWAY RD                        000N        CARE OF             
MTR04756000001000000000000000RA              27338636    007500400000004000000520000003NN  NNW 000                       N    
RDG04756000WATRL000000004K00000000000002914003911182015082309N000000000000N40       000330400K 10000000010000002910           
CUS0475600000104135486001         BROWN CORNELL S,JR  1706 KENNOWAY RD                        000N        CARE OF             
MTR04756000001000000000000000RA              27333634    007500410000004100000520000003NN  NNW 000                       N    
RDG04756000WATRL000000004K00000000000003092004011182015082345N000000000000N40       000360400K 10000000010000003087           
CUS0475600000104135487009         TILLMAN JOCELYN D   1704 KENNOWAY RD                        000N        CARE OF             
MTR04756000001000000000000000RA              36699332    007500420000004200000520000003NN  NNW 000                       N    
RDG04756000WATRL000000004K00000000000002267004111182015082414N000000000000N40       000290400K 10000000010000002260           
CUS0475600000104135488007         HILL SYLVESTER      1702 KENNOWAY RD                        000N        CARE OF             
MTR04756000001000000000000000RA              74815219    007500430000004300000350000003NN  NNW 000                       N    
RDG04756000WATRL000000004K00000000000000293004211182015082448N000000000000N40       000340400K 10000000010000000276           
CUS0475600000104135489005         WONG LORA H         1700 KENNOWAY RD                        000N        CARE OF             
MTR04756000001000000000000000RA              36699324    007500440000004400000520000003NN  NNW 000                       N    
RDG04756000WATRL000000004K00000000000002335004311182015082520N000000000000N40       000320400K 10000000010000002326           
CUS0475600000104135490003         U.S BANK TRUST N.A  1801 EDGEWOOD RD                        000N        CARE OF             
MTR04756000001000000000000000RA              44174816    005800450000004500000520000003NN  NNW 000                       N    
RDG04756000WATRL000000004K00000000000003513004411182015082652N000100000010N40       000920400K 10000000010000003513           
CUS0475600000104135491001         RUDOLF STEVEN       1803 EDGEWOOD RD                        000N        CARE OF             
MTR04756000001000000000000000RA              14929714    005800460000004600000310000003NN  NNW 000                       N    
RDG04756000WATRL000000004K00000000000000779004511182015082727N000000000000N40       000350400K 10000000010000000741           
CUS0475600000104135492009         NANCY J. BISHOP     1805 EDGEWOOD RD                        000N        CARE OF             
MTR04756000001000000000000000RA              24762907    005800470000004700000520000003NN  NNW 000                       N    
RDG04756000WATRL000000004K00000000000005327004611182015082811N000000000000N40       000440400K 10000000010000005313           
CUS0475600000104135493007         DONNELLY JOSEPH V   1807 EDGEWOOD RD                        000N        CARE OF             
MTR04756000001000000000000000RA              10005628    005800480000004800000570000003NN  NNW 000                       N    
RDG04756000WATRL000000004K00000000000000762004711182015082816N000000000000N40       000050400K 10000000010000000747           
CUS0475600000104135494005         NEWSOME SYLVIA A    1809 EDGEWOOD RD                        000N        CARE OF             
MTR04756000001000000000000000RA              33730387    005800490000004900000520000003NN  NNW 000                       N    
RDG04756000WATRL000000004K00000000000003629004811182015082908N000000000000N40       000520400K 10000000010000003615           
CUS0475600000104135495002         CUTHBERT JONATHAN D 1811 EDGEWOOD RD                        000N        CARE OF             
MTR04756000001000000000000000RA              75617719    005800500000005000000350000003NN  NNW 000                       N    
RDG04756000WATRL000000004K00000000000000132004911182015082937N000000000000N40       000290400K 10000000010000000120           
CUS0475600000104135496000         JACQUELINE D BLINKE 1813 EDGEWOOD RD                        000N        CARE OF             
MTR04756000001000000000000000RA              39584488    005800510000005100000520000003NN  NNW 000                       N    
RDG04756000WATRL000000004K00000000000001133005011182015083018N000000000000N40       000410400K 10000000010000001123           
CUS0475600000104135497008         FREDA KRISTIN M     1815 EDGEWOOD RD                        000N        CARE OF             
MTR04756000001000000000000000RA              50476450    005800520000005200000520000003NN  NNW 000                       N    
RDG04756000WATRL000000004K00000000000001952005111182015083036N000000000000N40       000180400K 10000000010000001939           
CUS0475600000104135498006         PLACK PAUL L,JR     1817 EDGEWOOD RD                        000N        CARE OF             
MTR04756000001000000000000000RA              14907688    005800530000005300000310000003NN  NNW 000                       N    
RDG04756000WATRL000000004K00000000000000522005211182015083040N000000000000N40       000040400K 10000000010000000513           
CUS0475600000104135499004         GAHAGAN JOSEPH L    1819 EDGEWOOD RD                        000N        CARE OF             
MTR04756000001000000000000000RA              27813039    005800540000005400000520000003NN  NNW 000                       N    
RDG04756000WATRL000000004K00000000000003214005311182015083121N000000000000N40       000410400K 10000000010000003210           
CUS0475600000104135500009         BRANTLEY VERONICA   1821 EDGEWOOD RD                        000N        CARE OF             
MTR04756000001000000000000000RA              14907684    005800550000005500000310000003NN  NNW 000                       N    
RDG04756000WATRL000000004K00000000000000857005411182015083151N000000000000N40       000300400K 10000000010000000848           
CUS0475600000104135501007         HAYES THOMAS J,JR   1823 EDGEWOOD RD                        000N        CARE OF             
MTR04756000001000000000000000RA              01107347    005800560000005600000610000003NN  NNW 000                       N    
RDG04756000WATRL000000004K00000000000000589005511182015083228N000000000000N40       000370400K 10000000010000000579           
CUS0475600000104135502005         HERRMAN WILLIAM     1825 EDGEWOOD RD                        000N        CARE OF             
MTR04756000001000000000000000RA              01107346    005800570000005700000610000003NN  NNW 000                       N    
RDG04756000WATRL000000004K00000000000000775005611182015083231N000000000000N40       000030400K 10000000010000000767           
CUS0475600000104135503003         RADOMSKY PATRICK MIC1827 EDGEWOOD RD                        000N        CARE OF             
MTR04756000001000000000000000RA              14902179    005800580000005800000310000003NN  NNW 000                       N    
RDG04756000WATRL000000004K00000000000001004005711182015083324N000000000000N40       000530400K 10000000010000000989           
CUS0475600000104135504001         JOHNSON MICHELLE R  1829 EDGEWOOD RD                        000N        CARE OF             
MTR04756000001000000000000000RA              33083506    005800590000005900000520000003NN  NNW 000                       N    
RDG04756000WATRL000000004K00000000000001411005811182015083331N000400000010N40       000070400K 10000000010000001404           
CUS0475600000104135505008         WIESSNER MARK P     1831 EDGEWOOD RD                        000N        CARE OF             
MTR04756000001000000000000000RA              31583889    005800600000006000000520000003NN  NNW 000                       N    
RDG04756000WATRL000000004K00000000000002785005911182015083410N000000000000N40       000390400K 10000000010000002767           
CUS0475600000104135506006         LEEDY CHARLES A     1833 EDGEWOOD RD                        000N        CARE OF             
MTR04756000001000000000000000RA              54351544    005800610000006100000520000003NN  NNW 000                       N    
RDG04756000WATRL000000004K00000000000001753006011182015083444N000000000000N40       000340400K 10000000010000001729           
CUS0475600000104135507004         BOCIAN STEPHEN ANTHO1835 EDGEWOOD RD                        000N        CARE OF             
MTR04756000001000000000000000RA              33730417    005800620000006200000520000003NN  NNW 000                       N    
RDG04756000WATRL000000004K00000000000002365006111182015083553N000000000000N40       000690400K 10000000010000002357           
CUS0475600000104135508002         HICKSON BRIAN       1837 EDGEWOOD RD                        000N        CARE OF             
MTR04756000001000000000000000RA              50789317    005800630000006300000520000003NN  NNW 000                       N    
RDG04756000WATRL000000004K00000000000001297006211182015083557N000000000000N40       000040400K 10000000010000001281           
CUS0475600000104135509000         MORGAN STEVEN B  MOR1839 EDGEWOOD RD                        000N        CARE OF             
MTR04756000001000000000000000RA              33730339    005800640000006400000520000003NN  NNW 000                       N    
RDG04756000WATRL000000004K00000000000001453006311182015083638N000000000000N40       000410400K 10000000010000001445           
CUS0475600000104135510008         BRADLEY THOMAS JOSEP1841 EDGEWOOD RD                        000N        CARE OF             
MTR04756000001000000000000000RA              99999999    005800650000006500000620000003NN  NNW 000                       N    
RDG04756000WATRL000000004K00000000000001591006411182015083641N000000000000N40       000030400K 10000000010000001577           
CUS0475600000104135511006         KARANI MAXAMED A    1843 EDGEWOOD RD                        000N        CARE OF             
MTR04756000001000000000000000RA              33730473    005800660000006600000520000003NN  NNW 000                       N    
RDG04756000WATRL000000004K00000000000001939006511182015083710N000000000000N40       000290400K 10000000010000001925           
CUS0475600000104135512004         SHAMER KATHERINE A  1845 EDGEWOOD RD                        000N        CARE OF             
MTR04756000001000000000000000RA              33730362    005800670000006700000520000003NN  NNW 000                       N    
RDG04756000WATRL000000004K00000000000003211006611182015083739N000400000010N40       000290400K 10000000010000003198           
CUS0475600000104135513002         DUKE DANA LEE       1847 EDGEWOOD RD                        000N        CARE OF             
MTR04756000001000000000000000RA              40048201    005800680000006800000520000003NN  NNW 000                       N    
RDG04756000WATRL000000004K00000000000003124006711182015083825N000000000000N40       000460400K 10000000010000003100           
CUS0475600000104135514000         ZELLER DANIEL JOSEPH1849 EDGEWOOD RD                        000N        CARE OF             
MTR04756000001000000000000000RA              40048199    005800690000006900000520000003NN  NNW 000                       N    
RDG04756000WATRL000000004K00000000000001700006811182015083902N000300000010N40       000370400K 10000000010000001785           
CUS0475600000104135515007         COYNE MARLENE CZARNE1851 EDGEWOOD RD                        000N        CARE OF             
MTR04756000001000000000000000RA              30515706    005800700000007000000520000003NN  NNW 000                       N    
RDG04756000WATRL000000004K00000000000002474006911182015083953N000000000000N40       000510400K 10000000010000002459           
CUS0475600000104135516005         MORRIS CYNTHIA A    1853 EDGEWOOD RD                        000N        CARE OF             
MTR04756000001000000000000000RA              31580365    005800710000007100000520000003NN  NNW 000                       N    
RDG04756000WATRL000000004K00000000000003168007011182015084002N000000000000N40       000090400K 10000000010000003149           
CUS0475600000104135517003         CARRIE HEATH        1855 EDGEWOOD RD                        000N        CARE OF             
MTR04756000001000000000000000RA              25783928    005800720000007200000520000003NN  NNW 000                       N    
RDG04756000WATRL000000004K00000000000003149007111182015084036N000000000000N40       000340400K 10000000010000003144           
CUS0475600000104135518001         WEAVER ROBERT       1857 EDGEWOOD RD                        000N        CARE OF             
MTR04756000001000000000000000RA              33730475    005800730000007300000520000003NN  NNW 000                       N    
RDG04756000WATRL000000004K00000000000001891007211182015084054N000000000000N40       000180400K 10000000010000001878           
CUS0475600000104135519009         CRUISE NATHAN J     1859 EDGEWOOD RD                        000N        CARE OF             
MTR04756000001000000000000000RA              00139699    005800740000007400000570000003NN  NNW 000                       N    
RDG04756000WATRL000000004K00000000000001834007311182015084133N000300000010N40       000390400K 10000000010000001823           
CUS0475600000104135520007         BAKER JOSEPH A      1861 EDGEWOOD RD                        000N        CARE OF             
MTR04756000001000000000000000RA              00139831    005800750000007500000570000003NN  NNW 000                       N    
RDG04756000WATRL000000004K00000000000002249007411302015145414O000400000010N67       000180400K 10000000010000002234           
CUS0475600000104135521005         VANDERLIP BRIAN     1863 EDGEWOOD RD                        000N        CARE OF             
MTR04756000001000000000000000RA              33730375    005800760000007600000520000003NN  NNW 000                       N    
RDG04756000WATRL000000004K00000000000002372007511182015084233N000400000010N40       000420400K 10000000010000002367           
CUS0475600000104135522003         CAROL DAVIS HAMILTON1865 EDGEWOOD RD                        000N        CARE OF             
MTR04756000001000000000000000RA              33730393    005800770000007700000520000003NN  NNW 000                       N    
RDG04756000WATRL000000004K00000000000001157007611182015084244N000000000010N40       000110400K 10000000010000001156           
CUS0475600000104135523001         BROMWELL EDWARD,JR  1867 EDGEWOOD RD                        000N        CARE OF             
MTR04756000001000000000000000RA              33730420    005800780000007800000520000003NN  NNW 000                       N    
RDG04756000WATRL000000004K00000000000002297007711182015084343N000000000021N40       000090400K 10000000010000002286           
CUS0475600000104135524009         KIRKLEY MATTHEW     1869 EDGEWOOD RD                        000N        CARE OF             
MTR04756000001000000000000000RA              33730232    005800790000007900000520000003NN  NNW 000                       N    
RDG04756000WATRL000000004K00000000000003175007811182015084405N000000000000N40       000220400K 10000000010000003164           
CUS0475600000104135525006         ROSSBACH KEVIN P,2ND1871 EDGEWOOD RD                        000N        CARE OF             
MTR04756000001000000000000000RA              33730196    005800800000008000000520000003NN  NNW 000                       N    
RDG04756000WATRL000000004K00000000000001368007911182015084442N000000000000N40       000370400K 10000000010000001360           
CUS0475600000104135526004         COURTNEY S MITCHELL 1873 EDGEWOOD RD                        000N        CARE OF             
MTR04756000001000000000000000RA              33730246    005800810000008100000520000003NN  NNW 000                       N    
RDG04756000WATRL000000004K00000000000002268008011182015084454N000000000000N40       000120400K 10000000010000002254           
CUS0475600000104135527002         BURKE DORIS H       1875 EDGEWOOD RD                        000N        CARE OF             
MTR04756000001000000000000000RA              46882731    005800820000008200000520000003NN  NNW 000                       N    
RDG04756000WATRL000000004K00000000000000949008111182015084536N000000000000N40       000420400K 10000000010000000939           
CUS0475600000104135528000         BENEDICT ROBERT J   1877 EDGEWOOD RD                        000N        CARE OF             
MTR04756000001000000000000000RA              48593380    005800830000008300000520000003NN  NNW 000                       N    
RDG04756000WATRL000000004K00000000000002061008211182015084539N000000000000N40       000030400K 10000000010000002046           
CUS0475600000104135529008         BRIAN K CLEGG       1879 EDGEWOOD RD                        000N        CARE OF             
MTR04756000001000000000000000RA              33730158    005800840000008400000520000003NN  NNW 000                       N    
RDG04756000WATRL000000004K00000000000002619008311182015084617N000000000000N40       000380400K 10000000010000002604           
CUS0475600000104135530006         BAKER WARREN W      1881 EDGEWOOD RD                        000N        CARE OF             
MTR04756000001000000000000000RA              33730251    005800850000008500000520000003NN  NNW 000                       N    
RDG04756000WATRL000000004K00000000000002161008411182015084653N000000000010N40       000360400K 10000000010000002158           
CUS0475600000104135531004         DREHER JOANNE L     1883 EDGEWOOD RD                        000N        CARE OF             
MTR04756000001000000000000000RA              33730228    005800860000008600000520000003NN  NNW 000                       N    
RDG04756000WATRL000000004K00000000000003898008511182015084736N000000000000N40       000430400K 10000000010000003882           
CUS0475600000104135532002         HUNTER DAVID LAISURE1885 EDGEWOOD RD                        000N        CARE OF             
MTR04756000001000000000000000RA              33730474    005800870000008700000520000003NN  NNW 000                       N    
