FHDNNNN017002587002587002587N                                                                                           008208
RHD02639100NN02520252000002520000000002520252000450NY025202520252000000010000000000000000000001    11162015NY020000 N         
CUS0263910000102404449007         TAYLOR WENDI A      800 JOSHUA TREE CT                      000N        CARE OF             
MTR02639100001000000000000000RA              31581358    005800010000000100000520000003NN  NNW 000                       N    
RDG02639100WATRL000000004K00000000000005010010312022015131629N000000000000U27       000160400K 10000000010000004980           
CUS0263910000102404450005         ANDERSON KARA       802 JOSHUA TREE CT                      000N        CARE OF             
MTR02639100001000000000000000RA              50786667    005800020000000200000520000003NN  NNW 000                       N    
RDG02639100WATRL000000004K00000000000001039010212022015131613N000300000010U27       000170400K 10000000010000001005           
CUS0263910000102404451003         HOLLEY RUDOLPH,JR   804 JOSHUA TREE CT                      000N        CARE OF             
MTR02639100001000000000000000RA              48582452    005800030000000300000520000003NN  NNW 000                       N    
RDG02639100WATRL000000004K00000000000001401010112022015131556N000000000000U27       000130400K 10000000010000001381           
CUS0263910000102404452001         BROWN OLANDA        806 JOSHUA TREE CT                      000N        CARE OF             
MTR02639100001000000000000000RA              44002118    005800040000000400000520000003NN  NNW 000                       N    
RDG02639100WATRL000000004K00000000000001659010012022015131543N000000000000U27       000140400K 10000000010000001644           
CUS0263910000102404453009         THE ATHA WILLIAM ZIS808 JOSHUA TREE CT                      000N        CARE OF             
MTR02639100001000000000000000RA              14923040    005800050000000500000310000003NN  NNW 000                       N    
RDG02639100WATRL000000004K00000000000000697009912022015131529N000000000000U27       000030400K 10000000010000000668           
CUS0263910000102404454007         HENDERSON ALICIA J  810 JOSHUA TREE CT                      000N        CARE OF             
MTR02639100001000000000000000RA              14917820    005800060000000600000310000003NN  NNW 000                       N    
RDG02639100WATRL000000004K00000000000000000009812022015131526S005000000000U27       000970400K 10000000010000000754           
CUS0263910000102404458008         TAAVON JAMES A      812 JOSHUA TREE CT                      000N        CARE OF             
MTR02639100001000000000000000RA              10008783    005800070000000700000570000003NN  NNW 000                       N    
RDG02639100WATRL000000004K00000000000000205013212022015135111N000000000000U27       000030400K 10000000010000000188           
CUS0263910000102404459006         WINDER CYNTHIA      814 JOSHUA TREE CT                      000N        CARE OF             
MTR02639100001000000000000000RA              14907250    005800080000000800000310000003NN  NNW 000                       N    
RDG02639100WATRL000000004K00000000000000783013112022015135108N000000000000U27       001040400K 10000000010000000761           
CUS0263910000102404461002         TENAYA PRINCE       816 JOSHUA TREE CT                      000N        CARE OF             
MTR02639100001000000000000000RA              44092548    005800090000000900000520000003NN  NNW 000                       N    
RDG02639100WATRL000000004K00000000000002618013012022015134924N000000000000U27       000040400K 10000000010000002592           
CUS0263910000102404462000         GREENE JULIE A      818 JOSHUA TREE CT                      000N        CARE OF             
MTR02639100001000000000000000RA              76347157    005800100000001000000350000003NN  NNW 000                       N    
RDG02639100WATRL000000004K00000000000000102012912022015134920N000000000010U27       001850400K 10000000010000000081           
CUS0263910000102404464006         TURNER ROBERT H     820 JOSHUA TREE CT                      000N        CARE OF             
MTR02639100001000000000000000RA              99286730    005800110000001100000570000003NN  NNW 000                       N    
RDG02639100WATRL000000004K00000000000002065009712022015131349N000000000000U27       000040400K 10000000010000002023           
CUS0263910000102404465003         FITPATRICK MICHAEL J822 JOSHUA TREE CT                      000N        CARE OF             
MTR02639100001000000000000000RA              77891568    005800120000001200000360000003NN  NNW 000                       N    
RDG02639100WATRL000000004K00000000000000028009612022015131345N000000000010U27       000740400K 10000000010000000000           
CUS0263910000102404467009         SAFEGUARD PROPERTIES824 JOSHUA TREE CT                      000N        CARE OF             
MTR02639100001000000000000000RA              14906418    005800130000001300000310000003NN  NNW 000                       N    
RDG02639100WATRL000000004K00000000000000620009512022015131231N000400000010U27       000330400K 10000000010000000616           
CUS0263910000102404468007         FAMULEGUN OLATOKUNBO826 JOSHUA TREE CT                      000N        CARE OF             
MTR02639100001000000000000000RA              50786964    005800140000001400000520000003NN  NNW 000                       N    
RDG02639100WATRL000000004K00000000000001986009412022015131158N000000000000U27       000360400K 10000000010000001942           
CUS0263910000102404470003         ADEBOWALE AKEEM     828 JOSHUA TREE CT                      000N        CARE OF             
MTR02639100001000000000000000RA              44092515    005800150000001500000520000003NN  NNW 000                       N    
RDG02639100WATRL000000004K00000000000002977009312022015131122N000000000000U27       000060400K 10000000010000002965           
CUS0263910000102404471001         KLEIMAN RICHARD A   830 JOSHUA TREE CT                      000N        CARE OF             
MTR02639100001000000000000000RA              44092514    005800160000001600000520000003NN  NNW 000                       N    
RDG02639100WATRL000000004K00000000000002899009212022015131116N000000000000U27       000740400K 10000000010000002892           
CUS0263910000102404474005         NAEEM MUHAMMAD      832 JOSHUA TREE CT                      000N        CARE OF             
MTR02639100001000000000000000RA              44092522    005800170000001700000520000003NN  NNW 000                       N    
RDG02639100WATRL000000004K00000000000002253009112022015131002N000000000000U27       000020400K 10000000010000002226           
CUS0263910000102404475002         SOSKIN ALAN VICTOR  834 JOSHUA TREE CT                      000N        CARE OF             
MTR02639100001000000000000000RA              14904659    005800180000001800000310000003NN  NNW 000                       N    
RDG02639100WATRL000000004K00000000000002225009012022015131000N000300000010U27       001060400K 10000000010000002283           
CUS0263910000102404480002         SPIAK ANDRE         901 JOSHUA TREE CT                      000N        CARE OF             
MTR02639100001000000000000000RA              46876622    005800190000001900000520000003NN  NNW 000                       N    
RDG02639100WATRL000000004K00000000000002998012812022015134615N000000000000U27       001260400K 10000000010000002964           
CUS0263910000102404481000         ZUNGALI MICHAEL V   903 JOSHUA TREE CT                      000N        CARE OF             
MTR02639100001000000000000000RA              10021757    005800200000002000000570000003NN  NNW 000                       N    
RDG02639100WATRL000000004K00000000000000063012712022015134409N000000000000U27       000030400K 10000000010000000041           
CUS0263910000102404483006         FEINSTEIN NAUM      905 JOSHUA TREE CT                      000N        CARE OF             
MTR02639100001000000000000000RA              99388830    005800210000002100000570000003NN  NNW 000                       N    
RDG02639100WATRL000000004K00000000000000928012612022015134406N000000000011U27       000460400K 10000000010000000917           
CUS0263910000102404485001         ONI GBOLAHAN A      907 JOSHUA TREE CT                      000N        CARE OF             
MTR02639100001000000000000000RA              46876604    005800220000002200000520000003NN  NNW 000                       N    
RDG02639100WATRL000000004K00000000000001953008912022015130814N000400000010U27       000310400K 10000000010000001952           
CUS0263910000102404486009         SCOTT KEVIN M       909 JOSHUA TREE CT                      000N        CARE OF             
MTR02639100001000000000000000RA              46876621    005800230000002300000520000003NN  NNW 000                       N    
RDG02639100WATRL000000004K00000000000004635008812022015130743N000000000000U27       000330400K 10000000010000004573           
CUS0263910000102404487007         FROMM WILLIAM R     911 JOSHUA TREE CT                      000N        CARE OF             
MTR02639100001000000000000000RA              01088687    005800240000002400000610000003NN  NNW 000                       N    
RDG02639100WATRL000000004K00000000000000720008712022015130710N000000000000U27       000040400K 10000000010000000695           
CUS0263910000102404489003         CARTER DANIEL       913 JOSHUA TREE CT                      000N        CARE OF             
MTR02639100001000000000000000RA              10023929    005800250000002500000570000003NN  NNW 000                       N    
RDG02639100WATRL000000004K00000000000000197008612022015130706N000000000000U27       000190400K 10000000010000000173           
CUS0263910000102404491009         HALLE MICHAEL R     915 JOSHUA TREE CT                      000N        CARE OF             
MTR02639100001000000000000000RA              46876605    005800260000002600000520000003NN  NNW 000                       N    
RDG02639100WATRL000000004K00000000000002091012512022015134142N000000000000U27       000040400K 10000000010000002061           
CUS0263910000102404492007         SEVERINSEN PETER H,J917 JOSHUA TREE CT                      000N        CARE OF             
MTR02639100001000000000000000RA              10024758    005800270000002700000570000003NN  NNW 000                       N    
RDG02639100WATRL000000004K00000000000000127008512022015134138N000000000011U27       002130400K 10000000010000000119           
CUS0263910000102404493005         WYNNE SHANELLE N    919 JOSHUA TREE CT                      000N        CARE OF             
MTR02639100001000000000000000RA              50478312    005800280000002800000520000003NN  NNW 000                       N    
RDG02639100WATRL000000004K00000000000001440008412022015130522N000000000000U27       000030400K 10000000010000001406           
CUS0263910000102404494003         RAMZAN AMBREEN      921 JOSHUA TREE CT                      000N        CARE OF             
MTR02639100001000000000000000RA              14907633    005800290000002900000310000003NN  NNW 000                       N    
RDG02639100WATRL000000004K00000000000001380008312022015130519N000000000000U27       000860400K 10000000010000001298           
CUS0263910000102404425007         SPENCE DEMETRIUS A  923 JOSHUA TREE CT                      000N        CARE OF             
MTR02639100001000000000000000RA              78005726    005800300000003000000360000003NN  NNW 000                       N    
RDG02639100WATRL000000004K00000000000000010008212022015130353N000000000010U27       000070400K 10000000010000000000           
CUS0263910000102404427003         KAHAN KEITH         925 JOSHUA TREE CT                      000N        CARE OF             
MTR02639100001000000000000000RA              14900250    005800310000003100000310000003NN  NNW 000                       N    
RDG02639100WATRL000000004K00000000000000637008112022015130346N000000000000U27       000680400K 10000000010000000622           
CUS0263910000102404430007         ANDERSON MELVIN     927 JOSHUA TREE CT                      000N        CARE OF             
MTR02639100001000000000000000RA              50480885    005800320000003200000520000003NN  NNW 000                       N    
RDG02639100WATRL000000004K00000000000001089008012022015130238N000000000000U27       000030400K 10000000010000001076           
CUS0263910000102404431005         CHERRY DOROTHY W    929 JOSHUA TREE CT                      000N        CARE OF             
MTR02639100001000000000000000RA              50478306    005800330000003300000520000003NN  NNW 000                       N    
RDG02639100WATRL000000004K00000000000000841007912022015130235N000000000000U27       000540400K 10000000010000000829           
CUS0263910000102404436004         HOWARD CHOW         931 JOSHUA TREE CT                      000N        CARE OF             
MTR02639100001000000000000000RA              50481506    005800340000003400000520000003NN  NNW 000                       N    
RDG02639100WATRL000000004K00000000000001928007812022015130141N000000000000U27       000020400K 10000000010000001901           
CUS0263910000102404438000         ABRAHAM GALA        933 JOSHUA TREE CT                      000N        CARE OF             
MTR02639100001000000000000000RA              50481502    005800350000003500000520000003NN  NNW 000                       N    
RDG02639100WATRL000000004K00000000000000836007712022015130139N000000000000U27       001010400K 10000000010000000816           
CUS0263910000102404441004         WEINER MARCI M      935 JOSHUA TREE CT                      000N        CARE OF             
MTR02639100001000000000000000RA              50786256    005800360000003600000520000003NN  NNW 000                       N    
RDG02639100WATRL000000004K00000000000001567012412022015133805N000000000000U27       000030400K 10000000010000001561           
CUS0263910000102404455004         DICKENS ANTHONY     937 JOSHUA TREE CT                      000N        CARE OF             
MTR02639100001000000000000000RA              50786286    005800370000003700000520000003NN  NNW 000                       N    
RDG02639100WATRL000000004K00000000000001417012312022015133802N000000000000U27       001170400K 10000000010000001391           
CUS0263910000102404476000         FAMULEGUN OLATOKUNBO939 JOSHUA TREE CT                      000N        CARE OF             
MTR02639100001000000000000000RA              50786282    005800380000003800000520000003NN  NNW 000                       N    
RDG02639100WATRL000000004K00000000000001507007612022015125958N000000000000U27       000060400K 10000000010000001483           
CUS0263910000102404473007         RABINOVICH ALEXANDRA941 JOSHUA TREE CT                      000N        CARE OF             
MTR02639100001000000000000000RA              01081200    005800390000003900000610000003NN  NNW 000                       N    
RDG02639100WATRL000000004K00000000000001012007512022015125952N000300000010U27       003520400K 10000000010000000980           
CUS0263910000102404472009         THORP ROBERT L      943 JOSHUA TREE CT                      000N        CARE OF             
MTR02639100001000000000000000RA              14929898    005800400000004000000310000003NN  NNW 000                       N    
RDG02639100WATRL000000004K00000000000000576012212022015133605N000000000000U27       000690400K 10000000010000000563           
CUS0263910000102404469005         BATTLE TRAHON D     945 JOSHUA TREE CT                      000N        CARE OF             
MTR02639100001000000000000000RA              50786280    005800410000004100000520000003NN  NNW 000                       N    
RDG02639100WATRL000000004K00000000000000559012112022015133456N000000000000U27       000030400K 10000000010000000548           
CUS0263910000102404466001         LEE HON C           947 JOSHUA TREE CT                      000N        CARE OF             
MTR02639100001000000000000000RA              10008786    005800420000004200000570000003NN  NNW 000                       N    
RDG02639100WATRL000000004K00000000000000370012012022015133453N000000000000U27       000810400K 10000000010000000351           
CUS0263910000102404463008         TYLER-PEGUESE THERES949 JOSHUA TREE CT                      000N        CARE OF             
MTR02639100001000000000000000RA              50478445    005800430000004300000520000003NN  NNW 000                       N    
RDG02639100WATRL000000004K00000000000001033011912022015133332N000000000010U27       000070400K 10000000010000001019           
CUS0263910000102404460004         BROWN TONY MAURICE  951 JOSHUA TREE CT                      000N        CARE OF             
MTR02639100001000000000000000RA              50478481    005800440000004400000520000003NN  NNW 000                       N    
RDG02639100WATRL000000004K00000000000001697011812022015133325N000000000000U27       003100400K 10000000010000001669           
CUS0263910000102404457000         CLAUDETTE V HESSON  953 JOSHUA TREE CT                      000N        CARE OF             
MTR02639100001000000000000000RA              99392217    005800450000004500000570000003NN  NNW 000                       N    
RDG02639100WATRL000000004K00000000000001391004812022015121825N000000000010U27       000670400K 10000000010000001372           
CUS0263910000102404456002         BATRA RAKESH        955 JOSHUA TREE CT                      000N        CARE OF             
MTR02639100001000000000000000RA              50477889    005800460000004600000520000003NN  NNW 000                       N    
RDG02639100WATRL000000004K00000000000000987004712022015121718N000300000030U27       001100400K 10000000010000000955           
CUS0263910000102404479004         VINT CHARLES W,JR   957 JOSHUA TREE CT                      000N        CARE OF             
MTR02639100001000000000000000RA              10010903    005800470000004700000570000003NN  NNW 000                       N    
RDG02639100WATRL000000004K00000000000000405004612022015121528N000000000000U27       000200400K 10000000010000000380           
CUS0263910000102404482008         GAMERMAN MARCY      959 JOSHUA TREE CT                      000N        CARE OF             
MTR02639100001000000000000000RA              50786141    005800480000004800000520000003NN  NNW 000                       N    
RDG02639100WATRL000000004K00000000000000838004512022015121508N000000000000U27       000430400K 10000000010000000831           
CUS0263910000102404484004         GREEN WANDA D       961 JOSHUA TREE CT                      000N        CARE OF             
MTR02639100001000000000000000RA              10001241    005800490000004900000570000003NN  NNW 000                       N    
RDG02639100WATRL000000004K00000000000000273004412022015121412N000000000011U27       000340400K 10000000010000000258           
CUS0263910000102404488005         ROSSI MITCHELL      963 JOSHUA TREE CT                      000N        CARE OF             
MTR02639100001000000000000000RA              00128468    005800500000005000000570000003NN  NNW 000                       N    
RDG02639100WATRL000000004K00000000000001308004312022015121425N000000000011U27       000130400K 10000000010000001278           
CUS0263910000102404490001         DAVIS FARRAH J      965 JOSHUA TREE CT                      000N        CARE OF             
MTR02639100001000000000000000RA              48590715    005800510000005100000520000003NN  NNW 000                       N    
RDG02639100WATRL000000004K00000000000001121004212022015124717N000000000011U27       001210400K 10000000010000001098           
CUS0263910000102404495000         DOGGETT JESSE B     967 JOSHUA TREE CT                      000N        CARE OF             
MTR02639100001000000000000000RA              77889059    005800520000005200000360000003NN  NNW 000                       N    
RDG02639100WATRL000000004K00000000000000021004112022015121145N000000000000U27       001670400K 10000000010000000008           
CUS0263910000102404496008         SCHULTZ DEAN W      969 JOSHUA TREE CT                      000N        CARE OF             
MTR02639100001000000000000000RA              50476968    005800530000005300000520000003NN  NNW 000                       N    
RDG02639100WATRL000000004K00000000000001467006912022015124516N000000000000U27       000040400K 10000000010000001445           
CUS0263910000102404497006         PRENDEVILLE TADGH   971 JOSHUA TREE CT                      000N        CARE OF             
MTR02639100001000000000000000RA              50476771    005800540000005400000520000003NN  NNW 000                       N    
RDG02639100WATRL000000004K00000000000001153006812022015124512N000000000000U27       001720400K 10000000010000001127           
CUS0263910000102404498004         GEORGE GRACE        973 JOSHUA TREE CT                      000N        CARE OF             
MTR02639100001000000000000000RA              48596040    005800550000005500000520000003NN  NNW 000                       N    
RDG02639100WATRL000000004K00000000000000853006712022015124220N000000000000U27       000030400K 10000000010000000838           
CUS0263910000102404499002         FAVELYUKIS MIRON    975 JOSHUA TREE CT                      000N        CARE OF             
MTR02639100001000000000000000RA              48595396    005800560000005600000520000003NN  NNW 000                       N    
RDG02639100WATRL000000004K00000000000001771006612022015124217N000000000011U27       000100400K 10000000010000001735           
CUS0263910000102404500007         FAMULEGUN OLATOKUNBO977 JOSHUA TREE CT                      000N        CARE OF             
MTR02639100001000000000000000RA              14917764    005800570000005700000310000003NN  NNW 000                       N    
RDG02639100WATRL000000004K00000000000000788004012022015120858N000300000010U27       000060400K 10000000010000000749           
CUS0263910000102404501005         AWODIPE BABATUNDE   979 JOSHUA TREE CT                      000N        CARE OF             
MTR02639100001000000000000000RA              14917768    005800580000005800000310000003NN  NNW 000                       N    
RDG02639100WATRL000000004K00000000000000783003912022015120852N000000000000U27       000430400K 10000000010000000718           
CUS0263910000102404502003         GIMBEL ROBERT BARRY 981 JOSHUA TREE CT                      000N        CARE OF             
MTR02639100001000000000000000RA              48595394    005800590000005900000520000003NN  NNW 000                       N    
RDG02639100WATRL000000004K00000000000000983003812022015120809N000000000000U27       000500400K 10000000010000000969           
CUS0263910000102404503001         CHAN HUNG HONG      983 JOSHUA TREE CT                      000N        CARE OF             
MTR02639100001000000000000000RA              48593441    005800600000006000000520000003NN  NNW 000                       N    
RDG02639100WATRL000000004K00000000000001888006512022015123824N000100000010U27       007210400K 10000000010000001888           
CUS0263910000102404504009         VASIS SERGEY        985 JOSHUA TREE CT                      000N        CARE OF             
MTR02639100001000000000000000RA              14914275    005800610000006100000310000003NN  NNW 000                       N    
RDG02639100WATRL000000004K00000000000000548003712022015120719N000000000000U27       000150400K 10000000010000000535           
CUS0263910000102404505006         TUMANSKY ALEKSANDR/I987 JOSHUA TREE CT                      000N        CARE OF             
MTR02639100001000000000000000RA              14924295    005800620000006200000310000003NN  NNW 000                       N    
RDG02639100WATRL000000004K00000000000000876003612022015120704N000000000000U27       000230400K 10000000010000000857           
CUS0263910000102404506004         JOHNSON JOY         989 JOSHUA TREE CT                      000N        CARE OF             
MTR02639100001000000000000000RA              48593484    005800630000006300000520000003NN  NNW 000                       N    
RDG02639100WATRL000000004K00000000000000349003512022015120641N000000000000U27       000030400K 10000000010000000324           
CUS0263910000102404507002         KRAKAU ERIK R       991 JOSHUA TREE CT                      000N        CARE OF             
MTR02639100001000000000000000RA              10016923    005800640000006400000570000003NN  NNW 000                       N    
RDG02639100WATRL000000004K00000000000000258003412022015120638N000000000000U27       000570400K 10000000010000000238           
CUS0263910000102404508000         ZAVODYUK BELLA      993 JOSHUA TREE CT                      000N        CARE OF             
MTR02639100001000000000000000RA              48594688    005800650000006500000520000003NN  NNW 000                       N    
RDG02639100WATRL000000004K00000000000000892003312022015120541N000000000000U27       000030400K 10000000010000000882           
CUS0263910000102404509008         RYBAK RYAN          995 JOSHUA TREE CT                      000N        CARE OF             
MTR02639100001000000000000000RA              48594624    005800660000006600000520000003NN  NNW 000                       N    
RDG02639100WATRL000000004K00000000000001001003212022015120538N000000000000U27       000300400K 10000000010000000970           
CUS0263910000102404510006         JOHNNA D MASSEY     997 JOSHUA TREE CT                      000N        CARE OF             
MTR02639100001000000000000000RA              48594838    005800670000006700000520000003NN  NNW 000                       N    
RDG02639100WATRL000000004K00000000000001123003112022015120508N000000000000U27       048150400K 10000000010000001101           
CUS0263910000102404532000         PLETCH STEPHEN W    994 JOSHUA TREE CT                      000N        CARE OF             
MTR02639100001000000000000000RA              48593270    005800680000006800000520000003NN  NNW 000                       N    
RDG02639100WATRL000000004K00000000000001383015912022015151625N000000000000U27       000060400K 10000000010000001367           
CUS0263910000102404531002         ZAMAN ASAD UZ       992 JOSHUA TREE CT                      000N        CARE OF             
MTR02639100001000000000000000RA              48583819    005800690000006900000520000003NN  NNW 000                       N    
RDG02639100WATRL000000004K00000000000002092015812022015151619N000000000000U27       028600400K 10000000010000002068           
CUS0263910000102404530004         COX THEODORE R,JR   990 JOSHUA TREE CT                      000N        CARE OF             
MTR02639100001000000000000000RA              48583818    005800700000007000000520000003NN  NNW 000                       N    
RDG02639100WATRL000000004K00000000000002173006412022015122623N000000000000U27       000040400K 10000000010000002156           
CUS0263910000102404529006         COLE HOWELL         988 JOSHUA TREE CT                      000N        CARE OF             
MTR02639100001000000000000000RA              48582441    005800710000007100000520000003NN  NNW 000                       N    
RDG02639100WATRL000000004K00000000000001635006312022015122619N000000000000U27       000140400K 10000000010000001601           
CUS0263910000102404528008         JENNIFER C MARTINEZ 986 JOSHUA TREE CT                      000N        CARE OF             
MTR02639100001000000000000000RA              14902742    005800720000007200000310000003NN  NNW 000                       N    
RDG02639100WATRL000000004K00000000000001039006212022015122605N000000000000U27       000030400K 10000000010000001008           
CUS0263910000102404527000         GINSBERG ALAN H     984 JOSHUA TREE CT                      000N        CARE OF             
MTR02639100001000000000000000RA              14930414    005800730000007300000310000003NN  NNW 000                       N    
RDG02639100WATRL000000004K00000000000000241006112022015122602N000000000000U27       000730400K 10000000010000000230           
CUS0263910000102404526002         YEBOAH PETER K      982 JOSHUA TREE CT                      000N        CARE OF             
MTR02639100001000000000000000RA              48582254    005800740000007400000520000003NN  NNW 000                       N    
RDG02639100WATRL000000004K00000000000001658006012022015122449N000000000000U27       000040400K 10000000010000001626           
CUS0263910000102404525004         MALIK ASIF          980 JOSHUA TREE CT                      000N        CARE OF             
MTR02639100001000000000000000RA              48582455    005800750000007500000520000000NN  NNW 000                       N    
RDG02639100WATRL000000004K00000000000001677005912022015122445N000000000000U27       000240400K 10000000010000001656           
CUS0263910000102404524007         YAKIREVICH VERA  ZHU978 JOSHUA TREE CT                      000N        CARE OF             
MTR02639100001000000000000000RA              48583398    005800760000007600000520000003NN  NNW 000                       N    
RDG02639100WATRL000000004K00000000000001071005812022015122421N000000000000U27       000130400K 10000000010000001046           
CUS0263910000102404523009         STARCHENKO YELENA   976 JOSHUA TREE CT                      000N        CARE OF             
MTR02639100001000000000000000RA              48583400    005800770000007700000520000003NN  NNW 000                       N    
RDG02639100WATRL000000004K00000000000002339005712022015122408N000000000000U27       000230400K 10000000010000002295           
CUS0263910000102404522001         GULOY ELLEN G       974 JOSHUA TREE CT                      000N        CARE OF             
MTR02639100001000000000000000RA              48583399    005800780000007800000520000003NN  NNW 000                       N    
RDG02639100WATRL000000004K00000000000001960005612022015122345N000300000010U27       000200400K 10000000010000001870           
CUS0263910000102404521003         STAROS JULIAN       972 JOSHUA TREE CT                      000N        CARE OF             
MTR02639100001000000000000000RA              48583385    005800790000007900000520000003NN  NNW 000                       N    
RDG02639100WATRL000000004K00000000000001069005512022015122325N000000000000U27       000220400K 10000000010000001035           
CUS0263910000102404520005         ALBERT LIZMI        970 JOSHUA TREE CT                      000N        CARE OF             
MTR02639100001000000000000000RA              48582442    005800800000008000000520000003NN  NNW 000                       N    
RDG02639100WATRL000000004K00000000000001336005412022015122303N000300000010U27       000120400K 10000000010000001290           
CUS0263910000102404519007         MARGARITA FERDMAN   968 JOSHUA TREE CT                      000N        CARE OF             
MTR02639100001000000000000000RA              48582255    005800810000008100000520000003NN  NNW 000                       N    
RDG02639100WATRL000000004K00000000000001727005312022015122251N000000000000U27       000950400K 10000000010000001717           
CUS0263910000102404518009         SPENCER ESTHER V    966 JOSHUA TREE CT                      000N        CARE OF             
MTR02639100001000000000000000RA              48583383    005800820000008200000520000003NN  NNW 000                       N    
RDG02639100WATRL000000004K00000000000001690007412022015125400N000000000000U27       000040400K 10000000010000001665           
CUS0263910000102404517001         WONG JEANIE SZECHAI 964 JOSHUA TREE CT                      000N        CARE OF             
MTR02639100001000000000000000RA              48582257    005800830000008300000520000003NN  NNW 000                       N    
RDG02639100WATRL000000004K00000000000002056007312022015125356N000000000000U27       001260400K 10000000010000002035           
CUS0263910000102404516003         BRYANT ADIA JOHNSON 962 JOSHUA TREE CT                      000N        CARE OF             
MTR02639100001000000000000000RA              10021061    005800840000008400000570000003NN  NNW 000                       N    
RDG02639100WATRL000000004K00000000000000300007212022015125150N000000000000U27       000030400K 10000000010000000277           
CUS0263910000102404515005         ALKIRE JOHN         960 JOSHUA TREE CT                      000N        CARE OF             
MTR02639100001000000000000000RA              10016816    005800850000008500000570000003NN  NNW 000                       N    
RDG02639100WATRL000000004K00000000000000301007112022015125147N000000000000U27       001320400K 10000000010000000279           
CUS0263910000102404514008         HOWELL COLE         958 JOSHUA TREE CT                      000N        CARE OF             
MTR02639100001000000000000000RA              48590768    005800860000008600000520000003NN  NNW 000                       N    
RDG02639100WATRL000000004K00000000000001949005212022015122116N000000000000U27       000200400K 10000000010000001924           
CUS0263910000102404513000         HOKE-KING CHANTE M  956 JOSHUA TREE CT                      000N        CARE OF             
MTR02639100001000000000000000RA              48590766    005800870000008700000520000003NN  NNW 000                       N    
RDG02639100WATRL000000004K00000000000001728005112022015122056N000000000000U27       000140400K 10000000010000001683           
CUS0263910000102404512002         BARNES SABRINA DENIS954 JOSHUA TREE CT                      000N        CARE OF             
MTR02639100001000000000000000RA              48591535    005800880000008800000520000003NN  NNW 000                       N    
RDG02639100WATRL000000004K00000000000000656005012022015122042N000000000000U27       000040400K 10000000010000000648           
CUS0263910000102404511004         TOPP STEVEN AARON   952 JOSHUA TREE CT                      000N        CARE OF             
MTR02639100001000000000000000RA              48591337    005800890000008900000520000003NN  NNW 000                       N    
RDG02639100WATRL000000004K00000000000000412004912022015122038N000000000000U27       001330400K 10000000010000000394           
CUS0263910000102404478006         MORRISEY STEVEN D   950 JOSHUA TREE CT                      000N        CARE OF             
MTR02639100001000000000000000RA              48592664    005800900000009000000520000003NN  NNW 000                       N    
RDG02639100WATRL000000004K00000000000002542007012022015124935N000000000000U27       001380400K 10000000010000002494           
CUS0263910000102404554004         WHITE JUDY L        43 BLUE SKY DR                          000N        CARE OF             
MTR02639100001000000000000000RA              01071314    005800910000009100000610000003NN  NNW 000                       N    
RDG02639100WATRL000000004K00000000000001238014312022015141005N000000000000U27       000030400K 10000000010000001222           
CUS0263910000102404553006         DICKERSON SHARONE   41 BLUE SKY DR                          000N        CARE OF             
MTR02639100001000000000000000RA              32176038    005800920000009200000520000003NN  NNW 000                       N    
RDG02639100WATRL000000004K00000000000002334014212022015141002N000000000000U27       001320400K 10000000010000002313           
CUS0263910000102404552008         DESAI NAISADH N     39 BLUE SKY DR                          000N        CARE OF             
MTR02639100001000000000000000RA              38984786    005800930000009300000520000003NN  NNW 000                       N    
RDG02639100WATRL000000004K00000000000002673003612012015113402N000000000000N27       000070400K 10000000010000002653           
CUS0263910000102404551000         LEVINE ANDREA       37 BLUE SKY DR                          000N        CARE OF             
MTR02639100001000000000000000RA              44090404    005800940000009400000520000003NN  NNW 000                       N    
RDG02639100WATRL000000004K00000000000001279003512012015113355N000000000000N27       000630400K 10000000010000001266           
CUS0263910000102404550002         WINDLEY MONICA      35 BLUE SKY DR                          000N        CARE OF             
MTR02639100001000000000000000RA              33730056    005800950000009500000520000003NN  NNW 000                       N    
RDG02639100WATRL000000004K00000000000000390014512022015141513N000000000000U27       000070400K 10000000010000000374           
CUS0263910000102404549004         OFURUM NNENNA NGOZIC33 BLUE SKY DR                          000N        CARE OF             
MTR02639100001000000000000000RA              75615815    005800960000009600000350000003NN  NNW 000                       N    
RDG02639100WATRL000000004K00000000000000593014412022015141506N000000000021U27       001750400K 10000000010000000563           
CUS0263910000102404548006         JOHNSON STEVEN      31 BLUE SKY DR                          000N        CARE OF             
MTR02639100001000000000000000RA              78021548    007500970000009700000350000003NN  NNW 000                       N    
RDG02639100WATRL000000004K00000000000000061003412012015113252N000000000000N27       000350400K 10000000010000000047           
CUS0263910000102404547008         MCFARLANE FELECIA   29 BLUE SKY DR                          000N        CARE OF             
MTR02639100001000000000000000RA              14909284    005800980000009800000310000003NN  NNW 000                       N    
RDG02639100WATRL000000004K00000000000000575003312012015113217N000000000000N27       000670400K 10000000010000000566           
CUS0263910000102404546000         FATODU OLUMUYIWA A  27 BLUE SKY DR                          000N        CARE OF             
MTR02639100001000000000000000RA              99187260    005800990000009900000570000003NN  NNW 000                       N    
RDG02639100WATRL000000004K00000000000002789014712022015141712N000000000000U27       000020400K 10000000010000002744           
CUS0263910000102404545002         BROOKS LEONIE J     25 BLUE SKY DR                          000N        CARE OF             
MTR02639100001000000000000000RA              14915653    005801000000010000000310000003NN  NNW 000                       N    
RDG02639100WATRL000000004K00000000000000386014612022015141710N000000000000U27       001170400K 10000000010000000375           
CUS0263910000102404544005         HILL SAEED S        23 BLUE SKY DR                          000N        CARE OF             
MTR02639100001000000000000000RA              01095307    005801010000010100000610000003NN  NNW 000                       N    
RDG02639100WATRL000000004K00000000000001396014812022015141740N000000000000U27       000280400K 10000000010000001378           
CUS0263910000102404543007         BRANKER KENWIN      21 BLUE SKY DR                          000N        CARE OF             
MTR02639100001000000000000000RA              45378503    005801020000010200000520000003NN  NNW 000                       N    
RDG02639100WATRL000000004K00000000000001603014912022015141747N000000000000U27       000070400K 10000000010000001580           
CUS0263910000102404542009         TARANTIN BASHENA    19 BLUE SKY DR                          000N        CARE OF             
MTR02639100001000000000000000RA              77883575    005801030000010300000360000003NN  NNW 000                       N    
RDG02639100WATRL000000004K00000000000000020003212012015113110N000000000000N27       000220400K 10000000010000000007           
CUS0263910000102404541001         DOLLAR PERRY G      17 BLUE SKY DR                          000N        CARE OF             
MTR02639100001000000000000000RA              48591338    005801040000010400000520000003NN  NNW 000                       N    
RDG02639100WATRL000000004K00000000000002143003112012015113048N000000000000N27       001740400K 10000000010000002131           
CUS0263910000102404540003         BIGGS MAYA LITVAK   15 BLUE SKY DR                          000N        CARE OF             
MTR02639100001000000000000000RA              45379434    005801050000010500000520000003NN  NNW 000                       N    
RDG02639100WATRL000000004K00000000000002987015112022015142023N000000000000U27       000040400K 10000000010000002930           
CUS0263910000102404539005         OTTEN STEPHEN M     13 BLUE SKY DR                          000N        CARE OF             
MTR02639100001000000000000000RA              01082237    005801060000010600000610000003NN  NNW 000                       N    
RDG02639100WATRL000000004K00000000000000965015012022015142019N000400000010U27       001520400K 10000000010000000957           
CUS0263910000102404538007         WATSON KIMBERLY     11 BLUE SKY DR                          000N        CARE OF             
MTR02639100001000000000000000RA              14930256    005801070000010700000310000003NN  NNW 000                       N    
RDG02639100WATRL000000004K00000000000000573015712022015142839N000000000000U27       000030400K 10000000010000000559           
CUS0263910000102404537009         JACKSON ANDRAE A    9 BLUE SKY DR                           000N        CARE OF             
MTR02639100001000000000000000RA              45379034    005801080000010800000520000003NN  NNW 000                       N    
RDG02639100WATRL000000004K00000000000000999015612022015142836N000000000000U27       001090400K 10000000010000000971           
CUS0263910000102404536001         DUNN LOIS F         7 BLUE SKY DR                           000N        CARE OF             
MTR02639100001000000000000000RA              45379405    005801090000010900000520000003NN  NNW 000                       N    
RDG02639100WATRL000000004K00000000000001862015312022015142527N000000000011U27       000050400K 10000000010000001791           
CUS0263910000102404535003         ROSS MELVIN W       5 BLUE SKY DR                           000N        CARE OF             
MTR02639100001000000000000000RA              45379433    005801100000011000000520000003NN  NNW 000                       N    
RDG02639100WATRL000000004K00000000000002244015412022015142522N000300000031U27       001410400K 10000000010000002261           
CUS0263910000102404534006         HARRIS LAMONT A     3 BLUE SKY DR                           000N        CARE OF             
MTR02639100001000000000000000RA              45379456    005801110000011100000520000003NN  NNW 000                       N    
RDG02639100WATRL000000004K00000000000002765015512022015142647N000000000000U27       000040400K 10000000010000002715           
CUS0263910000102404533008         SMITH LEWIS LINARD  1 BLUE SKY DR                           000N        CARE OF             
MTR02639100001000000000000000RA              45379404    005801120000011200000520000003NN  NNW 000                       N    
RDG02639100WATRL000000004K00000000000001582015212022015142643N000000000011U27       000760400K 10000000010000001577           
CUS0263910000102404577005         WITHERSPOON WILLARD 46 BLUE SKY DR                          000N        CARE OF             
MTR02639100001000000000000000RA              01103532    005801130000011300000610000003NN  NNW 000                       N    
RDG02639100WATRL000000004K00000000000000958003712012015113547N000000000000N27       001050400K 10000000010000000945           
CUS0263910000102404576007         AONO ROSE           44 BLUE SKY DR                          000N        CARE OF             
MTR02639100001000000000000000RA              45377693    005801140000011400000520000003NN  NNW 000                       N    
RDG02639100WATRL000000004K00000000000001608003812012015113730N000300000021N27       000370400K 10000000010000001580           
CUS0263910000102404575009         BEAVER ARCHIENA     42 BLUE SKY DR                          000N        CARE OF             
MTR02639100001000000000000000RA              10015326    005801150000011500000570000003NN  NNW 000                       N    
RDG02639100WATRL000000004K00000000000000225003912012015113653N000000000000N27       000020400K 10000000010000000206           
CUS0263910000102404574002         SHITTU OLUFEMI      40 BLUE SKY DR                          000N        CARE OF             
MTR02639100001000000000000000RA              45376129    005801160000011600000520000003NN  NNW 000                       N    
RDG02639100WATRL000000004K00000000000002170004012012015113811N000000000010N27       000410400K 10000000010000002165           
CUS0263910000102404573004         LE C VINH           38 BLUE SKY DR                          000N        CARE OF             
MTR02639100001000000000000000RA              14928762    005801170000011700000310000003NN  NNW 000                       N    
RDG02639100WATRL000000004K00000000000000793004112012015113814N000000000000N27       000030400K 10000000010000000776           
CUS0263910000102404572006         FONG MICHELLE J     36 BLUE SKY DR                          000N        CARE OF             
MTR02639100001000000000000000RA              99187583    005801180000011800000570000003NN  NNW 000                       N    
RDG02639100WATRL000000004K00000000000001829004212012015113838N000000000000N27       000240400K 10000000010000001773           
CUS0263910000102404571008         PIPESH FRANK C,JR   34 BLUE SKY DR                          000N        CARE OF             
MTR02639100001000000000000000RA              45376106    005801190000011900000520000003NN  NNW 000                       N    
RDG02639100WATRL000000004K00000000000003318004312012015113841N000000000000N27       000030400K 10000000010000003292           
CUS0263910000102404570000         VICKERS JOHN A      32 BLUE SKY DR                          000N        CARE OF             
MTR02639100001000000000000000RA              01106681    005801200000012000000610000003NN  NNW 000                       N    
RDG02639100WATRL000000004K00000000000001262004412012015113909N000000000000N27       000280400K 10000000010000001231           
CUS0263910000102404569002         SPURRIER MARK KEITH 30 BLUE SKY DR                          000N        CARE OF             
MTR02639100001000000000000000RA              01085157    005801210000012100000610000003NN  NNW 000                       N    
RDG02639100WATRL000000004K00000000000000890004512012015113921N000000000000N27       000120400K 10000000010000000871           
CUS0263910000102404568004         BROWN DAVID C JR    28 BLUE SKY DR                          000N        CARE OF             
MTR02639100001000000000000000RA              44177347    005801220000012200000570000003NN  NNW 000                       N    
RDG02639100WATRL000000004K00000000000002416004612012015113946N000000000000N27       000250400K 10000000010000002404           
CUS0263910000102404567006         NEGASH AFEWORK      26 BLUE SKY DR                          000N        CARE OF             
MTR02639100001000000000000000RA              00127594    005801230000012300000570000003NN  NNW 000                       N    
RDG02639100WATRL000000004K00000000000001206004712012015113950N000000000000N27       000040400K 10000000010000001186           
CUS0263910000102404566008         WRIGHT SHERRON L    24 BLUE SKY DR                          000N        CARE OF             
MTR02639100001000000000000000RA              75616481    005801240000012400000350000003NN  NNW 000                       N    
RDG02639100WATRL000000004K00000000000000274004812012015114031N000000000000N27       000410400K 10000000010000000248           
CUS0263910000102404565000         BUNDY ANDREA YVETTE 22 BLUE SKY DR                          000N        CARE OF             
MTR02639100001000000000000000RA              00130580    005801250000012500000570000003NN  NNW 000                       N    
RDG02639100WATRL000000004K00000000000001737004912012015114033N000000000000N27       000020400K 10000000010000001706           
CUS0263910000102404564003         KEITH D. TRAFTON JR 20 BLUE SKY DR                          000N        CARE OF             
MTR02639100001000000000000000RA              44177583    005801260000012600000520000003NN  NNW 000                       N    
RDG02639100WATRL000000004K00000000000001434005012012015114116N000000000000N27       000430400K 10000000010000001412           
CUS0263910000102404563005         COLTER DAYTRIN A    18 BLUE SKY DR                          000N        CARE OF             
MTR02639100001000000000000000RA              44177580    005801270000012700000520000003NN  NNW 000                       N    
RDG02639100WATRL000000004K00000000000002394005112012015114120N000000000000N27       000040400K 10000000010000002373           
CUS0263910000102404562007         MITCHELL KEVIN      16 BLUE SKY DR                          000N        CARE OF             
MTR02639100001000000000000000RA              50790969    005801280000012800000520000003NN  NNW 000                       N    
RDG02639100WATRL000000004K00000000000002321005212012015114153N000000000000N27       000330400K 10000000010000002281           
CUS0263910000102404561009         ALLISON PATSY A     14 BLUE SKY DR                          000N        CARE OF             
MTR02639100001000000000000000RA              99288855    005801290000012900000570000003NN  NNW 000                       N    
RDG02639100WATRL000000004K00000000000000560005312012015114156N000000000000N27       000030400K 10000000010000000554           
CUS0263910000102404560001         MIR SAJJAD A        12 BLUE SKY DR                          000N        CARE OF             
MTR02639100001000000000000000RA              54348528    005801300000013000000520000003NN  NNW 000                       N    
RDG02639100WATRL000000004K00000000000001566005412012015114223N000000000000N27       000270400K 10000000010000001545           
CUS0263910000102404559003         BARNES TERESA       10 BLUE SKY DR                          000N        CARE OF             
MTR02639100001000000000000000RA              44175605    005801310000013100000520000003NN  NNW 000                       N    
RDG02639100WATRL000000004K00000000000001843005512012015114226N000000000000N27       000030400K 10000000010000001822           
CUS0263910000102404558005         BLAKE ERICCA        8 BLUE SKY DR                           000N        CARE OF             
MTR02639100001000000000000000RA              44175608    005801320000013200000520000003NN  NNW 000                       N    
RDG02639100WATRL000000004K00000000000001820005612012015114354N000000000000N27       000880400K 10000000010000001791           
CUS0263910000102404557007         AMI INVESTMENTS LLC 6 BLUE SKY DR                           000N        CARE OF             
MTR02639100001000000000000000RA              50787987    005801330000013300000520000003NN  NNW 000                       N    
RDG02639100WATRL000000004K00000000000001871005712012015114433N000000000010N27       000390400K 10000000010000001797           
CUS0263910000102404556009         JACKSON DARLENE     4 BLUE SKY DR                           000N        CARE OF             
MTR02639100001000000000000000RA              44175793    005801340000013400000520000003NN  NNW 000                       N    
RDG02639100WATRL000000004K00000000000002423005812012015114502N000000000000N27       000290400K 10000000010000002368           
CUS0263910000102404555001         JONES LATOSHA       2 BLUE SKY DR                           000N        CARE OF             
MTR02639100001000000000000000RA              44175792    005801350000013500000520000003NN  NNW 000                       N    
RDG02639100WATRL000000004K00000000000003116005912012015114539N000000000000N27       000370400K 10000000010000003059           
CUS0263910000102404477008         ROSS ANTHONY R      845 JOSHUA TREE CT                      000N        CARE OF             
MTR02639100001000000000000000RA              44093058    005801360000013600000520000003NN  NNW 000                       N    
RDG02639100WATRL000000004K00000000000002418014112022015140750N000000000000U27       001550400K 10000000010000002368           
CUS0263910000102404448009         LYAKHOVETSKIY YAKOV 843 JOSHUA TREE CT                      000N        CARE OF             
MTR02639100001000000000000000RA              44093056    005801370000013700000520000003NN  NNW 000                       N    
RDG02639100WATRL000000004K00000000000004173014012022015140515N000000000000U27       000130400K 10000000010000004155           
CUS0263910000102404447001         KRISTINA A PAPAS    841 JOSHUA TREE CT                      000N        CARE OF             
MTR02639100001000000000000000RA              44093080    005801380000013800000520000003NN  NNW 000                       N    
RDG02639100WATRL000000004K00000000000002140013912022015140502N000300000010U27       001890400K 10000000010000002055           
CUS0263910000102404446003         FREUND ALFRED       839 JOSHUA TREE CT                      000N        CARE OF             
MTR02639100001000000000000000RA              10002942    005801390000013900000570000003NN  NNW 000                       N    
RDG02639100WATRL000000004K00000000000000134011712022015132815N000000000000U27       000020400K 10000000010000000127           
CUS0263910000102404445005         SIMS STEPHANIE      837 JOSHUA TREE CT                      000N        CARE OF             
MTR02639100001000000000000000RA              14920783    005801400000014000000310000003NN  NNW 000                       N    
RDG02639100WATRL000000004K00000000000000498011612022015132813N000000000000U27       000650400K 10000000010000000488           
CUS0263910000102404444008         NICOLE WALKER       835 JOSHUA TREE CT                      000N        CARE OF             
MTR02639100001000000000000000RA              10006718    005801410000014100000570000003NN  NNW 000                       N    
RDG02639100WATRL000000004K00000000000000346011512022015132708N000000000000U27       000020400K 10000000010000000341           
CUS0263910000102404443000         TRINEA HARDMON      833 JOSHUA TREE CT                      000N        CARE OF             
MTR02639100001000000000000000RA              77989320    005801420000014200000350000003NN  NNW 000                       N    
RDG02639100WATRL000000004K00000000000000030011412022015132706N000000000000U27       001790400K 10000000010000000013           
CUS0263910000102404442002         QUILES MIGUEL A     831 JOSHUA TREE CT                      000N        CARE OF             
MTR02639100001000000000000000RA              78023535    005801430000014300000360000003NN  NNW 000                       N    
RDG02639100WATRL000000004K00000000000000042013812022015140153N000000000000U27       000020400K 10000000010000000016           
CUS0263910000102404440006         DYNIN JAKOB         829 JOSHUA TREE CT                      000N        CARE OF             
MTR02639100001000000000000000RA              77891582    005801440000014400000360000003NN  NNW 000                       N    
RDG02639100WATRL000000004K00000000000000010013712022015140151N000000000010U27       002410400K 10000000010000000000           
CUS0263910000102404439008         ADAMS ANTHONY G     827 JOSHUA TREE CT                      000N        CARE OF             
MTR02639100001000000000000000RA              42810671    005801450000014500000520000003NN  NNW 000                       N    
RDG02639100WATRL000000004K00000000000002558011312022015132407N000000000000U27       000030400K 10000000010000002529           
CUS0263910000102404437002         SVITCHER LEV        825 JOSHUA TREE CT                      000N        CARE OF             
MTR02639100001000000000000000RA              42810670    005801460000014600000520000003NN  NNW 000                       N    
RDG02639100WATRL000000004K00000000000002170011212022015132404N000000000000U27       000570400K 10000000010000002148           
CUS0263910000102404435006         FADER MIRA ROSE     823 JOSHUA TREE CT                      000N        CARE OF             
MTR02639100001000000000000000RA              14916866    005801470000014700000310000003NN  NNW 000                       N    
RDG02639100WATRL000000004K00000000000000991011112022015132307N000000000000U27       000040400K 10000000010000000950           
CUS0263910000102404434009         GABRIEL JOSEPH      821 JOSHUA TREE CT                      000N        CARE OF             
MTR02639100001000000000000000RA              42810658    005801480000014800000520000003NN  NNW 000                       N    
RDG02639100WATRL000000004K00000000000002177011012022015132303N000000000000U27       000970400K 10000000010000002137           
CUS0263910000102404433001         JENNINGS ALTHEA     819 JOSHUA TREE CT                      000N        CARE OF             
MTR02639100001000000000000000RA              42810629    005801490000014900000520000003NN  NNW 000                       N    
RDG02639100WATRL000000004K00000000000002990013612022015135750N000300000010U27       000050400K 10000000010000002891           
CUS0263910000102404432003         KHADIM A MALICK     817 JOSHUA TREE CT                      000N        CARE OF             
MTR02639100001000000000000000RA              42810641    005801500000015000000520000003NN  NNW 000                       N    
RDG02639100WATRL000000004K00000000000005154013512022015135745N000300000011U27       000990400K 10000000010000005069           
CUS0263910000102404429009         PRADA JOSE          815 JOSHUA TREE CT                      000N        CARE OF             
MTR02639100001000000000000000RA              52287807    005801510000015100000520000003NN  NNW 000                       N    
RDG02639100WATRL000000004K00000000000001210013412022015135405N000000000000U27       000020400K 10000000010000001194           
CUS0263910000102404428001         THREAT MARVALYN E   813 JOSHUA TREE CT                      000N        CARE OF             
MTR02639100001000000000000000RA              42810656    005801520000015200000520000003NN  NNW 000                       N    
RDG02639100WATRL000000004K00000000000003182013312022015135403N000300000010U27       001720400K 10000000010000003166           
CUS0263910000102404426005         ZACHARY HUBERT M    811 JOSHUA TREE CT                      000N        CARE OF             
MTR02639100001000000000000000RA              99187986    005801530000015300000570000003NN  NNW 000                       N    
RDG02639100WATRL000000004K00000000000001813010912022015132126N000000000000U27       000030400K 10000000010000001791           
CUS0263910000102404424000         GUNTHROP EUGENA     809 JOSHUA TREE CT                      000N        CARE OF             
MTR02639100001000000000000000RA              99288814    005801540000015400000570000003NN  NNW 000                       N    
RDG02639100WATRL000000004K00000000000000700010812022015132123N000000000000U27       000780400K 10000000010000000685           
CUS0263910000102404423002         EZEOCHA KELECHI A   807 JOSHUA TREE CT                      000N        CARE OF             
MTR02639100001000000000000000RA              42810627    005801550000015500000520000003NN  NNW 000                       N    
RDG02639100WATRL000000004K00000000000002113010712022015132005N000000000000U27       000030400K 10000000010000002077           
CUS0263910000102404422004         MINDEL VALERIY      805 JOSHUA TREE CT                      000N        CARE OF             
MTR02639100001000000000000000RA              10023931    005801560000015600000570000003NN  NNW 000                       N    
RDG02639100WATRL000000004K00000000000000238010612022015132002N000000000000U27       000420400K 10000000010000000214           
CUS0263910000102404421006         ZIWA IRYNE N        803 JOSHUA TREE CT                      000N        CARE OF             
MTR02639100001000000000000000RA              42810640    005801570000015700000520000003NN  NNW 000                       N    
RDG02639100WATRL000000004K00000000000002193010512022015131920N000000000000U27       000040400K 10000000010000002169           
CUS0263910000102404420008         CHAFFMAN EDWARD C,JR801 JOSHUA TREE CT                      000N        CARE OF             
MTR02639100001000000000000000RA              10023849    005801580000015800000570000003NN  NNW 000                       N    
RDG02639100WATRL000000004K00000000000000894010412022015131916N000000000000U27       001670400K 10000000010000000871           
CUS0263910000102405446002         BEDERAK ALEXANDER   1 BEE JAY CT                            000N        CARE OF             
MTR02639100001000000000000000RA              50478443    005801590000015900000520000003NN  NNW 000                       N    
RDG02639100WATRL000000004K00000000000000885009212012015123000N000000000000N27       000770400K 10000000010000000858           
CUS0263910000102405447000         PRIDGEN WENDY E     3 BEE JAY CT                            000N        CARE OF             
MTR02639100001000000000000000RA              50479590    005801600000016000000520000003NN  NNW 000                       N    
RDG02639100WATRL000000004K00000000000001246009112012015122843N000000000000N27       000300400K 10000000010000001227           
CUS0263910000102405448008         GERSTENHABER MELISSA5 BEE JAY CT                            000N        CARE OF             
MTR02639100001000000000000000RA              14906423    005801610000016100000310000003NN  NNW 000                       N    
RDG02639100WATRL000000004K00000000000001024009012012015122813N000000000000N27       000480400K 10000000010000000993           
CUS0263910000102405449006         KYLE GAGNON         7 BEEJAY CT                             000N        CARE OF             
MTR02639100001000000000000000RA              14906423    005801620000016200000310000003NN  NNW 000                       N    
RDG02639100WATRL000000004K00000000000001625008912012015122725N000000000000N27       000610400K 10000000010000001590           
CUS0263910000102405452000         LANE JERRY D        8 BEE JAY CT                            000N        CARE OF             
MTR02639100001000000000000000RA              50787389    005801630000016300000520000003NN  NNW 000                       N    
RDG02639100WATRL000000004K00000000000001593002812022015101058N000000000000U27       001480400K 10000000010000001569           
CUS0263910000102405451002         JOHNSON HENRY J     6 BEE JAY CT                            000N        CARE OF             
MTR02639100001000000000000000RA              50479647    005801640000016400000520000003NN  NNW 000                       N    
RDG02639100WATRL000000004K00000000000003305008812012015122624N000000000000N27       000420400K 10000000010000003260           
CUS0263910000102405450004         OO TIN TIN          4 BEE JAY CT                            000N        CARE OF             
MTR02639100001000000000000000RA              50479218    005801650000016500000520000000NN  NNW 000                       N    
RDG02639100WATRL000000004K00000000000001007008712012015122542N000000000000N27       001520400K 10000000010000001002           
CUS0263910000102405810009         ADAMS KIARA         1 DANCER CT                             000N        CARE OF             
MTR02639100001000000000000000RA              50788586    005801660000016600000520000003NN  NNW 000                       N    
RDG02639100WATRL000000004K00000000000001123008612012015122310N000000000010N27       000050400K 10000000010000001111           
CUS0263910000102405811007         KAPPER JEFFREY S    3 DANCER CT                             000N        CARE OF             
MTR02639100001000000000000000RA              50788587    005801670000016700000520000003NN  NNW 000                       N    
RDG02639100WATRL000000004K00000000000001512008512012015122305N000000000000N27       000510400K 10000000010000001494           
CUS0263910000102405812005         BRICE GARY          5 DANCER CT                             000N        CARE OF             
MTR02639100001000000000000000RA              76348309    005801680000016800000350000003NN  NNW 000   VACANT / LOT        N    
RDG02639100WATRL000000004K00000000000000000008412012015122214N000000000000N27       000690400K 10000000010000000000           
CUS0263910000102405813003         BOYLE JUNE L SCOTT  7 DANCER CT                             000N        CARE OF             
MTR02639100001000000000000000RA              50789272    005801690000016900000520000003NN  NNW 000                       N    
RDG02639100WATRL000000004K00000000000001381002712022015100830N000000000000U27       000050400K 10000000010000001341           
CUS0263910000102405814001         GORDON SONIA D      9 DANCER CT                             000N        CARE OF             
MTR02639100001000000000000000RA              01102936    005801700000017000000610000003NN  NNW 000                       N    
RDG02639100WATRL000000004K00000000000000316002612022015100825N000000000000U27       002750400K 10000000010000000307           
CUS0263910000102405815008         ZNUTIN OLEG         11 DANCER CT                            000N        CARE OF             
MTR02639100001000000000000000RA              50786140    005801710000017100000520000003NN  NNW 000                       N    
RDG02639100WATRL000000004K00000000000000960008312012015122105N000000000000N27       000150400K 10000000010000000945           
CUS0263910000102405816006         LAZAREVA NATALIA    13 DANCER CT                            000N        CARE OF             
MTR02639100001000000000000000RA              50786136    005801720000017200000520000003NN  NNW 000                       N    
RDG02639100WATRL000000004K00000000000000965008212012015122050N000000000000N27       000180400K 10000000010000000944           
CUS0263910000102405817004         KINDT JUDA R        15 DANCER CT                            000N        CARE OF             
MTR02639100001000000000000000RA              50790988    005801730000017300000520000003NN  NNW 000                       N    
RDG02639100WATRL000000004K00000000000000778008112012015122032N000000000000N27       000560400K 10000000010000000772           
CUS0263910000102405818002         BISHOP-JOHNSON LINDA18 DANCER CT                            000N        CARE OF             
MTR02639100001000000000000000RA              50480225    005801740000017400000520000003NN  NNW 000                       N    
RDG02639100WATRL000000004K00000000000001450008012012015121936N000000000000N27       000050400K 10000000010000001423           
CUS0263910000102405819000         LAYLLA STRAND       16 DANCER CT                            000N        CARE OF             
MTR02639100001000000000000000RA              50480271    005801750000017500000520000003NN  NNW 000                       N    
RDG02639100WATRL000000004K00000000000001256007912012015121931N000000000000N27       000760400K 10000000010000001236           
CUS0263910000102405820008         FLOYD ALFRED        14 DANCER CT                            000N        CARE OF             
MTR02639100001000000000000000RA              50480272    005801760000017600000520000003NN  NNW 000                       N    
RDG02639100WATRL000000004K00000000000002605007812012015121815N000000000000N27       000060400K 10000000010000002591           
CUS0263910000102405821006         THOMAS FREIDA DENISE12 DANCER CT                            000N        CARE OF             
MTR02639100001000000000000000RA              50480229    005801770000017700000520000003NN  NNW 000                       N    
RDG02639100WATRL000000004K00000000000001664007712012015121809N000000000000N27       001360400K 10000000010000001650           
CUS0263910000102405822004         BASIT ADNAN         10 DANCER CT                            000N        CARE OF             
MTR02639100001000000000000000RA              50787454    005801780000017800000520000003NN  NNW 000                       N    
RDG02639100WATRL000000004K00000000000001465009412012015123425N000000000000N27       000030400K 10000000010000001442           
CUS0263910000102405823002         GOLOBORODKO YAKOV   8 DANCER CT                             000N        CARE OF             
MTR02639100001000000000000000RA              50787386    005801790000017900000520000003NN  NNW 000                       N    
RDG02639100WATRL000000004K00000000000001526009312012015123422N000000000000N27       002620400K 10000000010000001496           
CUS0263910000102405824000         MALIK RAKHSANDA J   6 DANCER CT                             000N        CARE OF             
MTR02639100001000000000000000RA              50787457    005801800000018000000520000003NN  NNW 000                       N    
RDG02639100WATRL000000004K00000000000001532007612012015121553N000000000000N27       000220400K 10000000010000001509           
CUS0263910000102405825007         AYNBINDER ANNA      4 DANCER CT                             000N        CARE OF             
MTR02639100001000000000000000RA              50787391    005801810000018100000520000003NN  NNW 000                       N    
RDG02639100WATRL000000004K00000000000001982007512012015121531N000000000000N27       000030400K 10000000010000001958           
CUS0263910000102405826005         LEWIS MONIQUE Y     2 DANCER CT                             000N        CARE OF             
MTR02639100001000000000000000RA              50787427    005801820000018200000520000003NN  NNW 000                       N    
RDG02639100WATRL000000004K00000000000001327007412012015121528N000400000010N27       002280400K 10000000010000001315           
CUS0263910000102405596004         COAXUM VIVA F       1 RACHEL CT                             000N        CARE OF             
MTR02639100001000000000000000RA              46886543    005801830000018300000520000003NN  NNW 000                       N    
RDG02639100WATRL000000004K00000000000001560002412022015100243N000000000000U27       003460400K 10000000010000001554           
CUS0263910000102405597002         ADEPITI ADEBOWALE   3 RACHEL CT                             000N        CARE OF             
MTR02639100001000000000000000RA              46886538    005801840000018400000520000003NN  NNW 000                       N    
RDG02639100WATRL000000004K00000000000001275002512022015100350N000300000020U27       000670400K 10000000010000001249           
CUS0263910000102405598000         BELT ANGELA         5 RACHEL CT                             000N        CARE OF             
MTR02639100001000000000000000RA              46886540    005801850000018500000520000003NN  NNW 000                       N    
RDG02639100WATRL000000004K00000000000000621002312022015095657N000000000000U27       000030400K 10000000010000000609           
CUS0263910000102405599008         SMITH CLARENCE J    7 RACHEL CT                             000N        CARE OF             
MTR02639100001000000000000000RA              14906422    005801860000018600000310000003NN  NNW 000                       N    
RDG02639100WATRL000000004K00000000000000870002212022015095654N000000000000U27       001530400K 10000000010000000840           
CUS0263910000102405600004         LISITSA PAVEL       9 RACHEL CT                             000N        CARE OF             
MTR02639100001000000000000000RA              46886458    005801870000018700000520000003NN  NNW 000                       N    
RDG02639100WATRL000000004K00000000000001623002112022015095421N000000000000U27       000030400K 10000000010000001609           
CUS0263910000102405601002         COLLING STEPHEN E   11 RACHEL CT                            000N        CARE OF             
MTR02639100001000000000000000RA              46886537    005801880000018800000520000003NN  NNW 000                       N    
RDG02639100WATRL000000004K00000000000001863002012022015095418N000000000000U27       001270400K 10000000010000001847           
CUS0263910000102405602000         SCHARPER, RACHEL    13 RACHEL CT                            000N        CARE OF             
MTR02639100001000000000000000RA              01111447    005801890000018900000610000003NN  NNW 000                       N    
RDG02639100WATRL000000004K00000000000001349001912022015095211N000000000000U27       000040400K 10000000010000001330           
CUS0263910000102405603008         BEATY BRANDON P     15 RACHEL CT                            000N        CARE OF             
MTR02639100001000000000000000RA              01111450    005801900000019000000610000003NN  NNW 000                       N    
RDG02639100WATRL000000004K00000000000001163001812022015095207N000000000000U27       002650400K 10000000010000001128           
CUS0263910000102405604006         MAULTSBY LENOX H JR 17 RACHEL CT                            000N        CARE OF             
MTR02639100001000000000000000RA              99289581    005801910000019100000570000003NN  NNW 000                       N    
RDG02639100WATRL000000004K00000000000001101007312012015121140N000000000000N27       000130400K 10000000010000001084           
CUS0263910000102405605003         PARTINGTON SANDRA E 19 RACHEL CT                            000N        CARE OF             
MTR02639100001000000000000000RA              01111454    005801920000019200000610000003NN  NNW 000                       N    
RDG02639100WATRL000000004K00000000000000563007212012015121127N000000000000N27       000210400K 10000000010000000543           
CUS0263910000102405606001         WELLS FARGO HOME MRT21 RACHEL CT                            000N        CARE OF             
MTR02639100001000000000000000RA              01111453    005801930000019300000610000003NN  NNW 000                       N    
RDG02639100WATRL000000004K00000000000000931007112012015121106N000300000010N27       000080400K 10000000010000000941           
CUS0263910000102405607009         KIMBLE KAREN L      23 RACHEL CT                            000N        CARE OF             
MTR02639100001000000000000000RA              01111451    005801940000019400000610000003NN  NNW 000                       N    
RDG02639100WATRL000000004K00000000000001088007012012015121058N000300000010N27       000740400K 10000000010000000894           
CUS0263910000102405608007         STACEY C. RUSSELL   2 RACHEL CT                             000N        CARE OF             
MTR02639100001000000000000000RA              46882022    005801950000019500000520000003NN  NNW 000                       N    
RDG02639100WATRL000000004K00000000000002522001512022015094201N000000000000U27       000050400K 10000000010000002500           
CUS0263910000102405609005         CIMINO MATTHEW      4 RACHEL CT                             000N        CARE OF             
MTR02639100001000000000000000RA              46882023    005801960000019600000520000003NN  NNW 000                       N    
RDG02639100WATRL000000004K00000000000001702001412022015094156N000000000000U27       002110400K 10000000010000001698           
CUS0263910000102405610003         PILIPONSKIY YEVGENIY6 RACHEL CT                             000N        CARE OF             
MTR02639100001000000000000000RA              01111446    005801970000019700000610000003NN  NNW 000                       N    
RDG02639100WATRL000000004K00000000000001142006012012015120623N000300000010N27       012440400K 10000000010000001035           
CUS0263910000102405611001         GUIDO VICTOR F,JR   8 RACHEL CT                             000N        CARE OF             
MTR02639100001000000000000000RA              01111448    005801980000019800000610000003NN  NNW 000                       N    
RDG02639100WATRL000000004K00000000000000670006112012015120643N000300000010N27       000200400K 10000000010000000637           
CUS0263910000102405612009         MCTAVISH HOPE E     10 RACHEL CT                            000N        CARE OF             
MTR02639100001000000000000000RA              01111455    005801990000019900000610000003NN  NNW 000                       N    
RDG02639100WATRL000000004K00000000000001646006212012015120706N000000000000N27       000230400K 10000000010000001616           
CUS0263910000102405613007         GASPER RICHARD E    12 RACHEL CT                            000N        CARE OF             
MTR02639100001000000000000000RA              01111449    005802000000020000000610000003NN  NNW 000                       N    
RDG02639100WATRL000000004K00000000000000761006312012015120708N000000000000N27       000020400K 10000000010000000745           
CUS0263910000102405614005         EBO KENNETH N       14 RACHEL CT                            000N        CARE OF             
MTR02639100001000000000000000RA              38887306    005802010000020100000520000003NN  NNW 000                       N    
RDG02639100WATRL000000004K00000000000002296006412012015120726N000000000000N27       000180400K 10000000010000002281           
CUS0263910000102405615002         MCCLARY WANDA       16 RACHEL CT                            000N        CARE OF             
MTR02639100001000000000000000RA              46878724    005802020000020200000520000003NN  NNW 000                       N    
RDG02639100WATRL000000004K00000000000003255006512012015120743N000000000000N27       000170400K 10000000010000003203           
CUS0263910000102405616000         TAYLOR CHRISTOPHER M18 RACHEL CT                            000N        CARE OF             
MTR02639100001000000000000000RA              76346820    005802030000020300000350000003NN  NNW 000                       N    
RDG02639100WATRL000000004K00000000000000145006612012015120758N000000000000N27       000150400K 10000000010000000125           
CUS0263910000102405617008         FOCHT DONNA G       20 RACHEL CT                            000N        CARE OF             
MTR02639100001000000000000000RA              46878876    005802040000020400000520000003NN  NNW 000                       N    
RDG02639100WATRL000000004K00000000000001621001712022015094742N000000000001U27       000180400K 10000000010000001610           
CUS0263910000102405618006         ADEPITI ABOLADE     22 RACHEL CT                            000N        CARE OF             
MTR02639100001000000000000000RA              46878882    005802050000020500000520000003NN  NNW 000                       N    
RDG02639100WATRL000000004K00000000000002154001612022015094718N000300000010U27       003170400K 10000000010000002133           
CUS0263910000102405619004         ANGEL DIXON         24 RACHEL CT                            000N        CARE OF             
MTR02639100001000000000000000RA              46878879    005802060000020600000520000003NN  NNW 000                       N    
RDG02639100WATRL000000004K00000000000001752006712012015120913N000000000000N27       000750400K 10000000010000001726           
CUS0263910000102405620002         NETTLES BRYANT L    26 RACHEL CT                            000N        CARE OF             
MTR02639100001000000000000000RA              46883751    005802070000020700000520000003NN  NNW 000                       N    
RDG02639100WATRL000000004K00000000000002522006812012015120917N000000000000N27       000040400K 10000000010000002504           
CUS0263910000102405621000         HOROWITZ DAVID S    28 RACHEL CT                            000N        CARE OF             
MTR02639100001000000000000000RA              46878883    005802080000020800000520000003NN  NNW 000                       N    
RDG02639100WATRL000000004K00000000000001858006912012015120944N000000000000N27       000270400K 10000000010000001845           
CUS0263910000102405507001         PEDRO WILLIAM CALVIN1 SAMANTHA CT                           000N        CARE OF             
MTR02639100001000000000000000RA              10008396    005802090000020900000570000003NN  NNW 000                       N    
RDG02639100WATRL000000004K00000000000000228003012012015112754N000000000000N27       000450400K 10000000010000000218           
CUS0263910000102405508009         BROOKS WILLIAM T,JR 3 SAMANTHA CT                           000N        CARE OF             
MTR02639100001000000000000000RA              46875161    005802100000021000000520000003NN  NNW 000                       N    
RDG02639100WATRL000000004K00000000000001378002912012015112709N000000000000N27       000160400K 10000000010000001365           
CUS0263910000102405511003         HOLMAN MICHAEL      5 SAMANTHA CT                           000N        CARE OF             
MTR02639100001000000000000000RA              46875196    005802110000021100000520000003NN  NNW 000                       N    
RDG02639100WATRL000000004K00000000000003067002812012015112653N000300000010N27       001000400K 10000000010000003016           
CUS0263910000102405512001         LIBERMAN SAVELIY  LI7 SAMANTHA CT                           000N        CARE OF             
MTR02639100001000000000000000RA              46875204    005802120000021200000520000003NN  NNW 000                       N    
RDG02639100WATRL000000004K00000000000001385001212022015093822N000000000000U27       003440400K 10000000010000001373           
CUS0263910000102405513009         THOMAS TIKIRA       9 SAMANTHA CT                           000N        CARE OF             
MTR02639100001000000000000000RA              10016082    005802130000021300000570000003NN  NNW 000                       N    
RDG02639100WATRL000000004K00000000000000216001312022015093825N000000000000U27       000030400K 10000000010000000200           
CUS0263910000102405514007         MARSHALL DALLAS     11 SAMANTHA CT                          000N        CARE OF             
MTR02639100001000000000000000RA              46875194    005802140000021400000520000003NN  NNW 000                       N    
RDG02639100WATRL000000004K00000000000002254001012022015093234N000000000000U27       001190400K 10000000010000002246           
CUS0263910000102405515004         ZIMMERMAN JAY H     13 SAMANTHA CT                          000N        CARE OF             
MTR02639100001000000000000000RA              46875195    005802150000021500000520000003NN  NNW 000                       N    
RDG02639100WATRL000000004K00000000000000626001112022015093238N000000000000U27       000040400K 10000000010000000624           
CUS0263910000102405516002         BLACKWOOD ROGER A   15 SAMANTHA CT                          000N        CARE OF             
MTR02639100001000000000000000RA              40048011    005802160000021600000520000003NN  NNW 000                       N    
RDG02639100WATRL000000004K00000000000000150000812022015092929N000000000000U27       001050400K 10000000010000000136           
CUS0263910000102405517000         JOHNSON ANDRE MAURIC17 SAMANTHA CT                          000N        CARE OF             
MTR02639100001000000000000000RA              52288797    005802170000021700000520000003NN  NNW 000                       N    
RDG02639100WATRL000000004K00000000000003105000912022015093035N000300000010U27       000660400K 10000000010000003005           
CUS0263910000102405518008         AILING ZHANG        19 SAMANTHA CT                          000N        CARE OF             
MTR02639100001000000000000000RA              77881985    005802180000021800000360000003NN  NNW 000                       N    
RDG02639100WATRL000000004K00000000000000059002712012015112513N000000000000N27       000550400K 10000000010000000033           
CUS0263910000102405519006         BATRA REKESH        21 SAMANTHA CT                          000N        CARE OF             
MTR02639100001000000000000000RA              75614397    005802190000021900000350000003NN  NNW 000                       N    
RDG02639100WATRL000000004K00000000000000280000712022015092744N000000000000U27       000070400K 10000000010000000230           
CUS0263910000102405520004         WILLIAMS DANITA     23 SAMANTHA CT                          000N        CARE OF             
MTR02639100001000000000000000RA              10016924    005802200000022000000570000003NN  NNW 000                       N    
RDG02639100WATRL000000004K00000000000000459000612022015092737N000000000000U27       005360400K 10000000010000000429           
CUS0263910000102405521002         KAUSHIK & NAYANA THA25 SAMANTHA CT                          000N        CARE OF             
MTR02639100001000000000000000RA              42809058    005802210000022100000520000003NN  NNW 000                       N    
RDG02639100WATRL000000004K00000000000002242002612012015112418N000000000000N27       000030400K 10000000010000002190           
CUS0263910000102405522000         KELLY SHENLY        27 SAMANTHA CT                          000N        CARE OF             
MTR02639100001000000000000000RA              38284484    005802220000022200000520000003NN  NNW 000                       N    
RDG02639100WATRL000000004K00000000000001970002512012015112415N000000000000N27       000370400K 10000000010000001946           
CUS0263910000102405523008         JOHNSON CARLETHEA   29 SAMANTHA CT                          000N        CARE OF             
MTR02639100001000000000000000RA              33077058    005802230000022300000520000003NN  NNW 000                       N    
RDG02639100WATRL000000004K00000000000001667002412012015112338N000400000010N27       000310400K 10000000010000001652           
CUS0263910000102405505005         TAYLOR GEORGE H,3RD 30 SAMANTHA CT                          000N        CARE OF             
MTR02639100001000000000000000RA              32178374    005802240000022400000520000003NN  NNW 000                       N    
RDG02639100WATRL000000004K00000000000002260002312012015112307N000300000010N27       000060400K 10000000010000002201           
CUS0263910000102405503000         SOSONKO LEV         28 SAMANTHA CT                          000N        CARE OF             
MTR02639100001000000000000000RA              40780627    005802250000022500000520000003NN  NNW 000                       N    
RDG02639100WATRL000000004K00000000000002647002212012015112301N000000000000N27       000430400K 10000000010000002627           
CUS0263910000102405500006         PAGE SHARON E       26 SAMANTHA CT                          000N        CARE OF             
MTR02639100001000000000000000RA              01086848    005802260000022600000610000003NN  NNW 000                       N    
RDG02639100WATRL000000004K00000000000002010003012022015104453N000000000000U27       006250400K 10000000010000002007           
CUS0263910000102405499001         WHITEHEAD CHARLES ST24 SAMANTHA CT                          000N        CARE OF             
MTR02639100001000000000000000RA              01084495    005802270000022700000610000003NN  NNW 000                       N    
RDG02639100WATRL000000004K00000000000001666002912022015103428N000000000000U27       014100400K 10000000010000001643           
CUS0263910000102405498003         WATTS TIMOTHY C     22 SAMANTHA CT                          000N        CARE OF             
MTR02639100001000000000000000RA              35102861    005802280000022800000520000003NN  NNW 000                       N    
RDG02639100WATRL000000004K00000000000002630002112012015112218N000000000000N27       000030400K 10000000010000002611           
CUS0263910000102405494002         MORAZZAI SHARON L   20 SAMANTHA CT                          000N        CARE OF             
MTR02639100001000000000000000RA              35109655    005802290000022900000520000003NN  NNW 000                       N    
RDG02639100WATRL000000004K00000000000005107002012012015112215N000000000000N27       000280400K 10000000010000005088           
CUS0263910000102405492006         DEMKO VASILIY       18 SAMANTHA CT                          000N        CARE OF             
MTR02639100001000000000000000RA              40047751    005802300000023000000520000003NN  NNW 000                       N    
RDG02639100WATRL000000004K00000000000002136001912012015112147N000000000000N27       000110400K 10000000010000002121           
CUS0263910000102405491008         HUFF YVONNE J       16 SAMANTHA CT                          000N        CARE OF             
MTR02639100001000000000000000RA              40781245    005802310000023100000520000003NN  NNW 000                       N    
RDG02639100WATRL000000004K00000000000002766001812012015112136N000000000000N27       000170400K 10000000010000002747           
CUS0263910000102405490000         BURTON GEORGE O     14 SAMANTHA CT                          000N        CARE OF             
MTR02639100001000000000000000RA              30522344    005802320000023200000520000003NN  NNW 000                       N    
RDG02639100WATRL000000004K00000000000003430001712012015112119N000300000010N27       000140400K 10000000010000003438           
CUS0263910000102405489002         EMILY R RORKE       12 SAMANTHA CT                          000N        CARE OF             
MTR02639100001000000000000000RA              01093228    005802330000023300000610000003NN  NNW 000                       N    
RDG02639100WATRL000000004K00000000000001073001612012015112105N000000000000N27       000400400K 10000000010000001051           
CUS0263910000102405488004         MELANIE ROUTH       10 SAMANTHA CT                          000N        CARE OF             
MTR02639100001000000000000000RA              77881985    005802340000023400000360000003NN  NNW 000                       N    
RDG02639100WATRL000000004K00000000000003127000512022015091841N000000000010U27       000090400K 10000000010000000000           
CUS0263910000102405487006         PRIVITT EVELYN      8 SAMANTHA CT                           000N        CARE OF             
MTR02639100001000000000000000RA              41088843    005802350000023500000520000003NN  NNW 000                       N    
RDG02639100WATRL000000004K00000000000002808000412022015091832N000000000000U27       004580400K 10000000010000002798           
CUS0263910000102405486008         HEBERT LINDSAY      6 SAMANTHA CT                           000N        CARE OF             
MTR02639100001000000000000000RA              01113267    005802360000023600000610000003NN  NNW 000                       N    
RDG02639100WATRL000000004K00000000000000788001512012015112025N000000000000N27       000020400K 10000000010000000776           
CUS0263910000102405485000         MONTANCES LUISITO O/4 SAMANTHA CT                           000N        CARE OF             
MTR02639100001000000000000000RA              01113279    005802370000023700000610000003NN  NNW 000                       N    
RDG02639100WATRL000000004K00000000000001521001412012015112023N000000000000N27       000240400K 10000000010000001483           
CUS0263910000102405484003         RODGERS TIA M       2 SAMANTHA CT                           000N        CARE OF             
MTR02639100001000000000000000RA              33082312    005802380000023800000520000003NN  NNW 000                       N    
RDG02639100WATRL000000004K00000000000003339001312012015111959N000000000000N27       007850400K 10000000010000003315           
CUS0263910000102405308004         YOUNG ALEX          1 BETH CT                               000N        CARE OF             
MTR02639100001000000000000000RA              14917731    005802390000023900000310000003NN  NNW 000                       N    
RDG02639100WATRL000000004K00000000000001307000112022015090643N000400000010U27       000000400K 10000000010000001298           
CUS0263910000102405309002         ISEMANN M CAROLYN   3 BETH CT                               000N        CARE OF             
MTR02639100001000000000000000RA              14930125    005802400000024000000310000003NN  NNW 000                       N    
RDG02639100WATRL000000004K00000000000000847000212012015105825N000000000000N27       000620400K 10000000010000000829           
CUS0263910000102405310000         MCCARGO TERRY A     5 BETH CT                               000N        CARE OF             
MTR02639100001000000000000000RA              45386903    005802410000024100000520000003NN  NNW 000                       N    
RDG02639100WATRL000000004K00000000000002335000312022015091054N000400000010U27       001610400K 10000000010000002333           
CUS0263910000102405297009         MACMILLAN JAMES E,JR7 BETH CT                               000N        CARE OF             
MTR02639100001000000000000000RA              41087893    005802420000024200000520000003NN  NNW 000                       N    
RDG02639100WATRL000000004K00000000000001362000312012015105938N000000000000N27       000730400K 10000000010000001350           
CUS0263910000102405311008         ZAFT FAINA          9 BETH CT                               000N        CARE OF             
MTR02639100001000000000000000RA              99287372    005802430000024300000570000003NN  NNW 000                       N    
RDG02639100WATRL000000004K00000000000000819000412012015110056N000000000000N27       000780400K 10000000010000000810           
CUS0263910000102405312006         LYNDE WINIFRED G    11 BETH CT                              000N        CARE OF             
MTR02639100001000000000000000RA              77877843    005802440000024400000360000003NN  NNW 000                       N    
RDG02639100WATRL000000004K00000000000000015000512012015110120N000000000000N27       000240400K 10000000010000000010           
CUS0263910000102405306008         NADEEM SAIMA        16 BETH CT                              000N        CARE OF             
MTR02639100001000000000000000RA              99187577    005802450000024500000570000003NN  NNW 000                       N    
RDG02639100WATRL000000004K00000000000002254000612012015110215N000000000000N27       000550400K 10000000010000002231           
CUS0263910000102405305000         GREGORY RAYMOND M   14 BETH CT                              000N        CARE OF             
MTR02639100001000000000000000RA              48584981    005802460000024600000520000003NN  NNW 000                       N    
RDG02639100WATRL000000004K00000000000001906000712012015110246N000000000000N27       000310400K 10000000010000001875           
CUS0263910000102405304003         ROLLMAN CONSTANCE L 12 BETH CT                              000N        CARE OF             
MTR02639100001000000000000000RA              46888267    005802470000024700000520000003NN  NNW 000                       N    
RDG02639100WATRL000000004K00000000000000865000812012015110331N000000000000N27       000450400K 10000000010000000856           
CUS0263910000102405303005         KAVALSKY ROBERT     10 BETH CT                              000N        CARE OF             
MTR02639100001000000000000000RA              45379618    005802480000024800000520000003NN  NNW 000                       N    
RDG02639100WATRL000000004K00000000000002293000912012015110414N000000000000N27       000430400K 10000000010000002275           
CUS0263910000102405302007         EBENEZER ISRAEL     8 BETH CT                               000N        CARE OF             
MTR02639100001000000000000000RA              45374869    005802490000024900000520000003NN  NNW 000                       N    
RDG02639100WATRL000000004K00000000000002776001012012015110500N000000000000N27       000460400K 10000000010000002766           
CUS0263910000102405301009         GOLOB PHILLIP S     6 BETH CT                               000N        CARE OF             
MTR02639100001000000000000000RA              46883211    005802500000025000000520000003NN  NNW 000                       N    
RDG02639100WATRL000000004K00000000000001036001112012015110553N000300000010N27       000530400K 10000000010000001027           
CUS0263910000102405300001         TYLER BEVERLY A     4 BETH CT                               000N        CARE OF             
MTR02639100001000000000000000RA              35118557    005802510000025100000520000003NN  NNW 000                       N    
RDG02639100WATRL000000004K00000000000002891001212012015110654N000400000010N27       000610400K 10000000010000002884           
CUS0263910000102405299005         SHEELY KIM L        2 BETH CT                               000N        CARE OF             
MTR02639100001000000000000000RA              44174390    005802520000025200000520000003NN  NNW 000                       N    
RDG02639100WATRL000000004K00000000000003288000212022015090813N000000000000U27       000900400K 10000000010000003240           
RTR02639100NN02520252000002520000000002520252000450NY025202520252000000010000000000000000000001    11162015NY020000 N         
RHD02640700NN02050205000002050000000002050205000671NY020502050205000900010000000000000000000001    11182015NY020000 N         
CUS0264070000102050011002         DASCH SANDRA        325 HOLLY HILL RD                       000N        CARE OF             
MTR02640700001000000000000000RA              75615392    005800010000000100000350000003NN  NNW 000                       N    
RDG02640700WATRL000000004K00000000000000075005511232015095705N000000000010N26       003140400K 10000000010000000050           
CUS0264070000102050012000         G V BATZ            830 SUBURBIAN RD                        000N        CARE OF             
MTR02640700001000000000000000RA              01104029    005800020000000200000610000003NN  NNW 000                       N    
RDG02640700WATRL000000004K00000000000001051005411232015095151N000000000000N26       001660400K 10000000010000001029           
CUS0264070000102050013008         TALENO WALTER       832 SUBURBIAN RD                        000N        CARE OF             
MTR02640700001000000000000000RA              14914021    005800030000000300000310000003NN  NNW 000                       N    
RDG02640700WATRL000000004K00000000000001219000112022015130335N000000000000U26       000000400K 10000000010000001190           
CUS0264070000102050014006         FISCHER T N         945 SHIRLEY MANOR RD                    000N        CARE OF             
MTR02640700001000000000000000RA              26003352    005800040000000400000520000003NN  NNW 000                       N    
RDG02640700WATRL000000004K00000000000002979001812012015113830N000000000000U26       000630400K 10000000010000002955           
CUS0264070000102050015003         COOP EDNA J         943 SHIRLEY MANOR RD                    000N        CARE OF             
MTR02640700001000000000000000RA              46888291    005800050000000500000520000003NN  NNW 000                       N    
RDG02640700WATRL000000004K00000000000001152000212022015130501N000300000010U26       000860400K 10000000010000001140           
CUS0264070000102050016001         HARDING WARREN G,SR 941 SHIRLEY MANOR RD                    000N        CARE OF             
MTR02640700001000000000000000RA              00125501    005800060000000600000570000003NN  NNW 000                       N    
RDG02640700WATRL000000004K00000000000000677000312022015130609N000000000000U26       000680400K 10000000010000000670           
CUS0264070000102050017009         NICKOLES PATRICK S  939 SHIRLEY MANOR RD                    000N        CARE OF             
MTR02640700001000000000000000RA              10017011    005800070000000700000570000003NN  NNW 000                       N    
RDG02640700WATRL000000004K00000000000000604000412022015130730N000000000000U26       000810400K 10000000010000000516           
CUS0264070000102050018007         ZIKAN VLADIMIR VACLA937 SHIRLEY MANOR RD                    000N        CARE OF             
MTR02640700001000000000000000RA              00134527    005800080000000800000570000003NN  NNW 000                       N    
RDG02640700WATRL000000004K00000000000000834000512022015130804N000000000000U26       000340400K 10000000010000000824           
CUS0264070000102050019005         NICKOLES ROBERT B   935 SHIRLEY MANOR RD                    000N        CARE OF             
MTR02640700001000000000000000RA              00134525    005800090000000900000570000003NN  NNW 000                       N    
RDG02640700WATRL000000004K00000000000001129001312012015113321N000000000000U26       000300400K 10000000010000001100           
