FHDNNNN031006403006403006403N                                                                                           020772
RHD06947000NN00380207000000380000016902070207000127NY020702070207001200010000000000000000000002    11062015NY020000 N         
CUS0694700000106103647001         BALTIMORE CNTY UTILISS SPARROWS POINT RD                    000N        CARE OF             
MTR06947000001000000000000000RA              26012817    005800010000000100000520000003NN  NNW 000                       N    
RDG06947000WATRL000000004K00000000000000044000112072015063848N000300000010U45       000000400K 10000000010000000499           
CUS0694700000106412644004         HUTCHINS JOANNE     3103 SPARROWS POINT RD                  000N        CARE OF             
MTR06947000001000000000000000RA              79057926    005800020000000200000360000003NN  NNW 000                       N    
RDG06947000WATRL000000004R00000000000000005000011202015095342N000300000010N01       000130400R 10000000010000000000           
RFF0694700070244491      ERT      0000  956.44375000140000112020150953420000055583100W 1220000N                               
CUS0694700000106412645001         ANDERSON NORMAN T   3105 SPARROWS POINT RD                  000N        CARE OF             
MTR06947000001000000000000000RA              46877956    005800030000000300000520000003NN  NNW 000                       N    
RDG06947000WATRL000000004K00000000000000000000212072015064103N000000000001U45       001350400K 10000000010000000000           
CUS0694700000106412551001         WOOD KIMBERLY       3107 SPARROWS POINT RD                  000N        CARE OF             
MTR06947000001000000000000000RA              76349246    005800040000000400000350000003NN  NNW 000                       N    
RDG06947000WATRL000000004K00000000000000000000312072015064302S022000000000U45       001190400K 10000000010000000039           
CUS0694700000106103648009         MELLINGER WILLIAM D,3111 SPARROWS POINT RD                  000N        CARE OF             
MTR06947000001000000000000000RA              79056115    005800050000000500000360000003NN  NNW 000                       N    
RDG06947000WATRL000000004R00000000000000002000011202015095346N000300000010N01       000130400R 10000000010000000000           
RFF0694700070280406      ERT      0000  956.44375000140000112020150953460000026076100W 1220000N                               
CUS0694700000106103649007         BECHTEL JAY EDMUND  3113 SPARROWS POINT RD                  000N        CARE OF             
MTR06947000001000000000000000RA              79060776    005800060000000600000360000003NN  NNW 000                       N    
RDG06947000WATRL000000004R00000000000000078000011202015095358N000300000010N01       000130400R 10000000010000000000           
RFF0694700070279168      ERT      0000  956.44375000140000112020150953580000782084100W 1220000N                               
CUS0694700000106103650005         LAW LYNN            3117 SPARROWS POINT RD                  000N        CARE OF             
MTR06947000001000000000000000RA              79058910    005800070000000700000360000003NN  NNW 000                       N    
RDG06947000WATRL000000004R00000000000000003000011202015095346N000300000010N01       000130400R 10000000010000000000           
RFF0694700070267528      ERT      0000  956.44375000140004112020150953460000030595100W 1220000N                               
CUS0694700000106103651003         NORDBRUCH ROBERT J  3119 SPARROWS POINT RD                  000N        CARE OF             
MTR06947000001000000000000000RA              79057931    005800080000000800000360000003NN  NNW 000                       N    
RDG06947000WATRL000000004R00000000000000001000011202015095338N000300000010N01       000130400R 10000000010000000000           
RFF0694700070270663      ERT      0000  956.44375000140000112020150953380000019350100W 1220000N                               
CUS0694700000106103652001         CONNELLY FUNERAL HOM7206 MARTHA AVE                         000N        CARE OF             
MTR06947000001000000000000000RA              79057991    005800090000000900000360000003NN  NNW 000                       N    
RDG06947000WATRL000000004R00000000000000000000011202015095342N000100000010N01       000130400R 10000000010000000000           
RFF0694700070270653      ERT      0000  956.44375000140000112020150953420000001858100W 1220000N                               
CUS0694700000106395181008         EVANS EDRIS,3RD     7204 MARTHA AVE                         000N        CARE OF             
MTR06947000001000000000000000RA              79057978    005800100000001000000360000003NN  NNW 000                       N    
RDG06947000WATRL000000004R00000000000000004000011202015095408N000300000010N01       000130400R 10000000010000000000           
RFF0694700070270691      ERT      0000  956.44375000140000112020150954080000044009100W 1220000N                               
CUS0694700000106103653009         EVANS WILLIAM EDRIS 7202 MARTHA AVE                         000N        CARE OF             
MTR06947000001000000000000000RA              14916263    005800110000001100000310000003NY  NNW 000                       N    
MTM0694700014916263    BURIED                                                                                                 
RDG06947000WATRL000000004K00000000000000000000000000000000000 000000000000U         000000400  10000000010000000397           
CUS0694700000106456018008         BROWN, KEVIN        7112 MARTHA AVE                         000N        CARE OF             
MTR06947000001000000000000000RA              76350226    000100120000001200000350000003NN  NNW 000                       N    
RDG06947000WATRL000000004R00000000000000156000011202015095426N000300000010N01       000140400R 10000000010000000152           
RFF0694700070275708      ERT      0000  956.44375000140000112020150954260001561007100W 1220000N                               
CUS0694700000106398380003         ROTH WILLIAM P      7110 MARTHA AVE                         000N        CARE OF             
MTR06947000001000000000000000RA              79057893    005800130000001300000360000003NN  NNW 000                       N    
RDG06947000WATRL000000004R00000000000000004000011202015095346N000300000010N01       000130400R 10000000010000000000           
RFF0694700070270657      ERT      0000  956.44375000140000112020150953460000045542100W 1220000N                               
CUS0694700000106103655004         WILLIAMS JAMES H    7108 MARTHA AVE                         000N        CARE OF             
MTR06947000001000000000000000RA              01112409    005800140000001400000610000003NY  NNW 000                       N    
MTM0694700001112409    BURIED                                                                                                 
RDG06947000WATRL000000004K00000000000000000000000000000000000 000000000000U         000000400  10000000010000001458           
CUS0694700000106442608003         TORRANCE HENRY      7109 MARTHA AVE                         000N        CARE OF             
MTR06947000001000000000000000RA              10019557    005800150000001500000570000000NY  NNW 000                       N    
MTM0694700010019557    BURIED                                                                                                 
RDG06947000WATRL000000004K00000000000000000000000000000000000 000000000000U         000000400  10000000010000000121           
CUS0694700000106103656002         RUTH MARK           3120 SPARROWS POINT RD                  000N        CARE OF             
MTR06947000001000000000000000RA              01097721    005800160000001600000610000003NY  NNW 000                       N    
MTM0694700001097721    BURIED                                                                                                 
RDG06947000WATRL000000004K00000000000000000000000000000000000 000000000000U         000000400  10000000010000000777           
CUS0694700000106103657000         BECHTEL JAY E       3116 SPARROWS POINT RD                  000N        CARE OF             
MTR06947000001000000000000000RA              79057902    005800170000001700000360000003NN  NNW 000                       N    
RDG06947000WATRL000000004R00000000000000003000011202015095340N000300000010N01       000130400R 10000000010000000000           
RFF0694700070244478      ERT      0000  956.44375000140000112020150953400000039098100W 1220000N                               
CUS0694700000106103658008         STUBEL THERESA L    3114 SPARROWS POINT RD                  000N        CARE OF             
MTR06947000001000000000000000RA              79057932    005800180000001800000360000003NN  NNW 000                       N    
RDG06947000WATRL000000004R00000000000000010000011202015095352N000300000010N01       000130400R 10000000010000000000           
RFF0694700070279731      ERT      0000  956.44375000140004112020150953520000103755100W 1220000N                               
CUS0694700000106103659006         AVERZA FRANK        3110 SPARROWS POINT RD                  000N        CARE OF             
MTR06947000001000000000000000RA              01081034    005800190000001900000610000003NY  NNW 000                       N    
MTM0694700001081034    BURIED                                                                                                 
RDG06947000WATRL000000004K00000000000000000000000000000000000 000000000000U         000000400  10000000010000000942           
CUS0694700000106103660004         BAY-VANGUARD FEDERAL7116-18 N POINT RD                      000N        CARE OF             
MTR06947000001000000000000000RA              79057992    005800200000002000000360000003NN  NNW 000                       N    
RDG06947000WATRL000000004R00000000000000002000011202015095350N000300000010N01       000130400R 10000000010000000000           
RFF0694700070270682      ERT      0000  956.44375000140000112020150953500000021613100W 1220000N                               
CUS0694700000106103661002         BAY-VANGUARD FEDERAL7114 N POINT RD                         000N        CARE OF             
MTR06947000001000000000000000RA              48590894    005800210000002100000520000003NN  NNW 000                       N    
RDG06947000WATRL000000004K00000000000002134000412072015065307N000000000000U45       006050400K 10000000010000002134           
CUS0694700000106103662000         NORTH POINT INVESTOR7100 N POINT RD                         000N        CARE OF             
MTR06947000001000000000000000RA              01116408    005800220000002200000610000003NY  NNW 000                       N    
MTM0694700001116408    COV                                                                                                    
RDG06947000WATRL000000004K00000000000000000000000000000000000 000000000000U         000000400  10000000010000001922           
CUS0694700000106103663008         KRIEGER ROBERT E    3101A GRACE RD                          000N        CARE OF             
MTR06947000001000000000000000RA              79540600    005800230000002300000360000003NN  NNW 000                       N    
RDG06947000WATRL000000004R00000000000000007000011202015095418N000300000010N01       000130400R 10000000010000000000           
RFF0694700070092201      ERT      0000  956.44375000140000112020150954180000073043100W 1220000N                               
CUS0694700000106103664006         WISE WALTER         3101 GRACE RD                           000N        CARE OF             
MTR06947000001000000000000000RA              79535496    005800240000002400000360000003NN  NNW 000                       N    
RDG06947000WATRL000000004R00000000000000002000011202015095342N000300000010N01       000130400R 10000000010000000000           
RFF0694700070059110      ERT      0000  956.44375000140000112020150953420000024892100W 1220000N                               
CUS0694700000106103665003         BRIAN V BIELAWSKI, J3103 GRACE RD                           000N        CARE OF             
MTR06947000001000000000000000RA              79535488    005800250000002500000360000003NN  NNW 000                       N    
RDG06947000WATRL000000004R00000000000000003000011202015095350N000300000010N01       000140400R 10000000010000000000           
RFF0694700070058461      ERT      0000  956.44375000140000112020150953500000032266100W 1220000N                               
CUS0694700000106103666001         SZLACHETKA ANTHONY P3105 GRACE RD                           000N        CARE OF             
MTR06947000001000000000000000RA              79056101    005800260000002600000360000003NN  NNW 000                       N    
RDG06947000WATRL000000004R00000000000000003000011202015095346N000300000010N01       000130400R 10000000010000000000           
RFF0694700070280751      ERT      0000  956.44375000140000112020150953460000033115100W 1220000N                               
CUS0694700000106103667009         JESSIE L RAINER     3107 GRACE RD                           000N        CARE OF             
MTR06947000001000000000000000RA              79057903    005800270000002700000360000003NN  NNW 000                       N    
RDG06947000WATRL000000004R00000000000000004000011202015095352N000300000010N01       000130400R 10000000010000000000           
RFF0694700070244504      ERT      0000  956.44375000140000112020150953520000041481100W 1220000N                               
CUS0694700000106103668007         GEORGE D UNDERWOOD  3109 GRACE RD                           000N        CARE OF             
MTR06947000001000000000000000RA              79057900    005800280000002800000360000003NN  NNW 000                       N    
RDG06947000WATRL000000004R00000000000000003000011202015095352N000300000010N01       000130400R 10000000010000000000           
RFF0694700070270650      ERT      0000  956.44375000140000112020150953520000030083100W 1220000N                               
CUS0694700000106103669005         SPAULDING BENJAMIN R3111 GRACE RD                           000N        CARE OF             
MTR06947000001000000000000000RA              79057982    005800290000002900000360000003NN  NNW 000                       N    
RDG06947000WATRL000000004R00000000000000001000011202015095358N000300000010N01       000130400R 10000000010000000000           
RFF0694700070270648      ERT      0000  956.44375000140000112020150953580000016812100W 1220000N                               
CUS0694700000106103670003         HANNA ROBERTA       3113 GRACE RD                           000N        CARE OF             
MTR06947000001000000000000000RA              26003213    005800300000003000000520000003NN  NNW 000                       N    
RDG06947000WATRL000000004K00000000000003090000512072015065817N000100000010U45       003100400K 10000000010000003090           
CUS0694700000106103671001         EVANS BETTY JEAN    3115 GRACE RD                           000N        CARE OF             
MTR06947000001000000000000000RA              79535498    005800310000003100000360000003NN  NNW 000                       N    
RDG06947000WATRL000000004R00000000000000000000011202015095408N000100000010N01       000130400R 10000000010000000000           
RFF0694700070059127      ERT      0000  956.44375000140000112020150954080000000151100W 1220000N                               
CUS0694700000106103672009         HARTMAN STEVEN E    3117 GRACE RD                           000N        CARE OF             
MTR06947000001000000000000000RA              79535532    005800320000003200000360000003NN  NNW 000                       N    
RDG06947000WATRL000000004R00000000000000005000011202015095456N000300000010N01       000130400R 10000000010000000000           
RFF0694700070053511      ERT      0000  956.44375000140000112020150954560000052731100W 1220000N                               
CUS0694700000106103673007         CHING WAYNE G       3119 GRACE RD                           000N        CARE OF             
MTR06947000001000000000000000RA              79057901    005800330000003300000360000003NN  NNW 000                       N    
RDG06947000WATRL000000004R00000000000000001000011202015095426N000300000010N01       000130400R 10000000010000000000           
RFF0694700070244523      ERT      0000  956.44375000140000112020150954260000011493100W 1220000N                               
CUS0694700000106103674005         BITTNER SHERRIE     3201 GRACE RD                           000N        CARE OF             
MTR06947000001000000000000000RA              79057930    005800340000003400000360000003NN  NNW 000                       N    
RDG06947000WATRL000000004R00000000000000006000011202015095440N000300000010N01       000140400R 10000000010000000000           
RFF0694700070270660      ERT      0000  956.44375000140000112020150954400000061974100W 1220000N                               
CUS0694700000106103675002         TIMMONS JEFFREY L JR3203 GRACE RD                           000N        CARE OF             
MTR06947000001000000000000000RA              79057998    005800350000003500000360000003NN  NNW 000                       N    
RDG06947000WATRL000000004R00000000000000003000011202015095444N000300000010N01       000130400R 10000000010000000000           
RFF0694700070270693      ERT      0000  956.44375000140000112020150954440000032071100W 1220000N                               
CUS0694700000106103676000         TAYLOR JOSEPH KEVIN,3207-09 GRACE RD                        000N        CARE OF             
MTR06947000001000000000000000RA              79057981    005800360000003600000360000003NN  NNW 000                       N    
RDG06947000WATRL000000004R00000000000000007000011202015095450N000300000010N01       000130400R 10000000010000000000           
RFF0694700070270675      ERT      0000  956.44375000140000112020150954500000071806100W 1220000N                               
CUS0694700000106103677008         RAINEY KENNETH W    3211 GRACE RD                           000N        CARE OF             
MTR06947000001000000000000000RA              79056099    005800370000003700000360000003NN  NNW 000                       N    
RDG06947000WATRL000000004R00000000000000006000011202015095438N000300000010N01       000130400R 10000000010000000000           
RFF0694700070280763      ERT      0000  956.44375000140004112020150954380000062532100W 1220000N                               
CUS0694700000106103678006         WISNIEWSKI GEORGE A 3219 GRACE RD                           000N        CARE OF             
MTR06947000001000000000000000RA              79060773    005800380000003800000360000003NN  NNW 000                       N    
RDG06947000WATRL000000004R00000000000000003000011202015095448N000300000010N01       000130400R 10000000010000000000           
RFF0694700070279188      ERT      0000  956.44375000140000112020150954480000030969100W 1220000N                               
CUS0694700000106103679004         CALVIN ROY ORLANDI,S3221 GRACE RD                           000N        CARE OF             
MTR06947000001000000000000000RA              01072718    005800390000003900000610000003NY  NNW 000                       N    
MTM0694700001072718    BURIED                                                                                                 
RDG06947000WATRL000000004K00000000000000000000000000000000000 000000000000U         000000400  10000000010000000960           
CUS0694700000106103680002         DEROOSE DONALD J    7107 ELLA AVE                           000N        CARE OF             
MTR06947000001000000000000000RA              45387727    005800400000004000000520000003NN  NNW 000                       N    
RDG06947000WATRL000000004K00000000000001806000612072015070311N000000000000U45       002940400K 10000000010000001787           
CUS0694700000106103681000         SOTASKI JAMES D,JR  7109 ELLA AVE                           000N        CARE OF             
MTR06947000001000000000000000RA              79181719    005800410000004100000360000003NN  NNW 000                       N    
RDG06947000WATRL000000004R00000000000000003000011202015095424N000300000010N01       000130400R 10000000010000000000           
RFF0694700070088179      ERT      0000  956.44375000140004112020150954240000033816100W 1220000N                               
CUS0694700000106103682008         MARTIN ROBERT J     7111 ELLA AVE                           000N        CARE OF             
MTR06947000001000000000000000RA              79057927    005800420000004200000360000003NN  NNW 000                       N    
RDG06947000WATRL000000004R00000000000000007000011202015095430N000300000010N01       000130400R 10000000010000000000           
RFF0694700070244493      ERT      0000  956.44375000140000112020150954300000070856100W 1220000N                               
CUS0694700000106103683006         DEROOSE DANIEL J    7113 ELLA AVE                           000N        CARE OF             
MTR06947000001000000000000000RA              79057917    005800430000004300000360000003NN  NNW 000                       N    
RDG06947000WATRL000000004R00000000000000005000011202015095400N000300000010N01       000140400R 10000000010000000000           
RFF0694700070270670      ERT      0000  956.44375000140000112020150954000000055891100W 1220000N                               
CUS0694700000106362247006         KOHR JAMIE D        7115 ELLA AVE                           000N        CARE OF             
MTR06947000001000000000000000RA              79060794    005800440000004400000360000003NN  NNW 000                       N    
RDG06947000WATRL000000004R00000000000000000000011202015095412N000100000010N01       000130400R 10000000010000000000           
RFF0694700070244461      ERT      0000  956.44375000140000112020150954120000000034100W 1220000N                               
CUS0694700000106353446005         GOETZ KWI MAI       7117 ELLA AVE                           000N        CARE OF             
MTR06947000001000000000000000RA              79057894    005800450000004500000360000003NN  NNW 000                       N    
RDG06947000WATRL000000004R00000000000000002000011202015095416N000300000010N01       000130400R 10000000010000000000           
RFF0694700070270665      ERT      0000  956.44375000140000112020150954160000023344100W 1220000N                               
CUS0694700000106103684004         WALTERS CHARLES W,3R7246 RIVER DRIVE RD                     000N        CARE OF             
MTR06947000001000000000000000RA              01097502    005800460000004600000610000003NN  NNW 000                       N    
RDG06947000WATRL000000004K00000000000000623000712072015070609N000400000010U45       001780400K 10000000010000000619           
CUS0694700000106103685001         JASON M. CAREY      7244 RIVER DRIVE RD                     000N        CARE OF             
MTR06947000001000000000000000RA              75427076    007500470000004700000350000003NN  NNW 000                       N    
RDG06947000WATRL000000004R00000000000000097000011202015095430N000300000010N01       000130400R 10000000010000000094           
RFF0694700070275707      ERT      0000  956.44375000140000112020150954300000977239100W 1220000N                               
CUS0694700000106103686009         JANITZKY HERMAN G,JR7242 RIVER DRIVE RD                     000N        CARE OF             
MTR06947000001000000000000000RA              79057980    005800480000004800000360000003NN  NNW 000                       N    
RDG06947000WATRL000000004R00000000000000002000011202015095506N000300000010N01       000130400R 10000000010000000000           
RFF0694700070270637      ERT      0000  956.44375000140000112020150955060000020417100W 1220000N                               
CUS0694700000106103687007         STARR LARRY L       7240 RIVER DRIVE RD                     000N        CARE OF             
MTR06947000001000000000000000RA              79057919    005800490000004900000360000003NN  NNW 000                       N    
RDG06947000WATRL000000004R00000000000000000000011202015095450N000100000010N01       000130400R 10000000010000000000           
RFF0694700070244508      ERT      0000  956.44375000140000112020150954500000000020100W 1220000N                               
CUS0694700000106103688005         CLARK EDWARD J      7236 RIVER DRIVE RD                     000N        CARE OF             
MTR06947000001000000000000000RA              79061627    005800500000005000000360000003NN  NNW 000                       N    
RDG06947000WATRL000000004R00000000000000001000011202015095552N000300000010N01       000130400R 10000000010000000000           
RFF0694700070280706      ERT      0000  956.44375000140000112020150955520000011210100W 1220000N                               
CUS0694700000106103689003         BECHTEL JAY E       7237 RIVER DRIVE RD                     000N        CARE OF             
MTR06947000001000000000000000RA              29686389    005800510000005100000520000003NY  NNW 000                       N    
MTM0694700029686389    COV                                                                                                    
RDG06947000WATRL000000004K00000000000000000000000000000000000 000000000000U         000000400  10000000010000003928           
CUS0694700000106103690001         FUNK DAVID B        7234 RIVER DRIVE RD                     000N        CARE OF             
MTR06947000001000000000000000RA              79060775    005800520000005200000360000003NN  NNW 000                       N    
RDG06947000WATRL000000004R00000000000000002000011202015095536N000300000010N01       000140400R 10000000010000000000           
RFF0694700070279180      ERT      0000  956.44375000140000112020150955360000020107100W 1220000N                               
CUS0694700000106103691009         MIKLES RONALD EUGENE7232 RIVER DRIVE RD                     000N        CARE OF             
MTR06947000001000000000000000RA              78023991    005800530000005300000360000003NN  NNW 000                       N    
RDG06947000WATRL000000004R00000000000000020000011202015095428N000300000010N01       000130400R 10000000010000000019           
RFF0694700070280082      ERT      0000  956.44375000140000112020150954280000206478100W 1220000N                               
CUS0694700000106103692007         LEONE ANTHONY P     7230 RIVER DRIVE RD                     000N        CARE OF             
MTR06947000001000000000000000RA              79056104    005800540000005400000360000003NN  NNW 000                       N    
RDG06947000WATRL000000004R00000000000000002000011202015095604N000300000010N01       000130400R 10000000010000000000           
RFF0694700070280771      ERT      0000  956.44375000140000112020150956040000028472100W 1220000N                               
CUS0694700000106103693005         CONTINO JOHN S      7228 RIVER DRIVE RD                     000N        CARE OF             
MTR06947000001000000000000000RA              79057909    005800550000005500000360000003NN  NNW 000                       N    
RDG06947000WATRL000000004R00000000000000006000011202015095630N000300000010N01       000130400R 10000000010000000000           
RFF0694700070244495      ERT      0000  956.44375000140000112020150956300000061782100W 1220000N                               
CUS0694700000106103694003         YEAGER MICHAEL H,JR 7226 RIVER DRIVE RD                     000N        CARE OF             
MTR06947000001000000000000000RA              79056103    005800560000005600000360000003NN  NNW 000                       N    
RDG06947000WATRL000000004R00000000000000003000011202015095550N000300000010N01       000130400R 10000000010000000000           
RFF0694700070280749      ERT      0000  956.44375000140000112020150955500000031890100W 1220000N                               
CUS0694700000106103695000         NISTICO ALBERT LEONA7222 RIVER DRIVE RD                     000N        CARE OF             
MTR06947000001000000000000000RA              79057934    005800570000005700000360000003NN  NNW 000                       N    
RDG06947000WATRL000000004R00000000000000001000011202015095604N000300000010N01       000130400R 10000000010000000000           
RFF0694700070270689      ERT      0000  956.44375000140000112020150956040000016122100W 1220000N                               
CUS0694700000106103696008         WITTE WILLIAM T     7220 RIVER DRIVE RD                     000N        CARE OF             
MTR06947000001000000000000000RA              79057904    005800580000005800000360000003NN  NNW 000                       N    
RDG06947000WATRL000000004R00000000000000002000011202015095624N000300000010N01       000130400R 10000000010000000000           
RFF0694700070244492      ERT      0000  956.44375000140000112020150956240000028516100W 1220000N                               
CUS0694700000106103697006         TAYLOR KEITH F      7218 RIVER DRIVE RD                     000N        CARE OF             
MTR06947000001000000000000000RA              79057925    005800590000005900000360000003NN  NNW 000                       N    
RDG06947000WATRL000000004R00000000000000003000011202015095626N000300000010N01       000130400R 10000000010000000000           
RFF0694700070244510      ERT      0000  956.44375000140000112020150956260000034049100W 1220000N                               
CUS0694700000106103698004         FORTIER SCOTT M     7216 RIVER DRIVE RD                     000N        CARE OF             
MTR06947000001000000000000000RA              79057999    005800600000006000000360000003NN  NNW 000                       N    
RDG06947000WATRL000000004R00000000000000002000011202015095624N000300000010N01       000140400R 10000000010000000000           
RFF0694700070270652      ERT      0000  956.44375000140000112020150956240000029790100W 1220000N                               
CUS0694700000106103699002         PODLES THELMA LEE   7214 RIVER DRIVE RD                     000N        CARE OF             
MTR06947000001000000000000000RA              79057918    005800610000006100000360000003NN  NNW 000                       N    
RDG06947000WATRL000000004R00000000000000006000011202015095648N000300000010N01       000130400R 10000000010000000000           
RFF0694700070244489      ERT      0000  956.44375000140000112020150956480000062574100W 1220000N                               
CUS0694700000106103700008         CACHOLA PAUL        7212 RIVER DRIVE RD                     000N        CARE OF             
MTR06947000001000000000000000RA              79057896    005800620000006200000360000003NN  NNW 000                       N    
RDG06947000WATRL000000004R00000000000000002000011202015095628N000300000010N01       000130400R 10000000010000000000           
RFF0694700070270651      ERT      0000  956.44375000140000112020150956280000021506100W 1220000N                               
CUS0694700000106103701006         VAN PELT TIMOTHY R  7210 RIVER DRIVE RD                     000N        CARE OF             
MTR06947000001000000000000000RA              79535463    005800630000006300000360000003NN  NNW 000                       N    
RDG06947000WATRL000000004R00000000000000001000011202015095622N000300000010N01       000130400R 10000000010000000000           
RFF0694700070098173      ERT      0000  956.44375000140000112020150956220000013943100W 1220000N                               
CUS0694700000106103702004         IACOVELLI FRANK J   7208 RIVER DRIVE RD                     000N        CARE OF             
MTR06947000001000000000000000RA              79057910    005800640000006400000360000003NN  NNW 000                       N    
RDG06947000WATRL000000004R00000000000000001000011202015095618N000300000010N01       000130400R 10000000010000000000           
RFF0694700070244486      ERT      0000  956.44375000140000112020150956180000016009100W 1220000N                               
CUS0694700000106103703002         DEPPEN RUSSELL C    7206 RIVER DRIVE RD                     000N        CARE OF             
MTR06947000001000000000000000RA              79056100    005800650000006500000360000003NN  NNW 000                       N    
RDG06947000WATRL000000004R00000000000000001000011202015095640N000300000010N01       000130400R 10000000010000000000           
RFF0694700070280757      ERT      0000  956.44375000140000112020150956400000010959100W 1220000N                               
CUS0694700000106103704000         BANACK HOWARD J     7204 RIVER DRIVE RD                     000N        CARE OF             
MTR06947000001000000000000000RA              50789041    005800660000006600000520000003NN  NNW 000                       N    
RDG06947000WATRL000000004K00000000000001121000812072015070935N000000000000U45       002060400K 10000000010000001106           
CUS0694700000106103705007         MCDOWELL THOMAS G   7202 RIVER DRIVE RD                     000N        CARE OF             
MTR06947000001000000000000000RA              79535533    005800670000006700000360000003NN  NNW 000                       N    
RDG06947000WATRL000000004R00000000000000000000011202015095644N000100000010N01       000130400R 10000000010000000000           
RFF0694700070053517      ERT      0000  956.44375000140000112020150956440000000047100W 1220000N                               
CUS0694700000106393291007         DIVEN DANIEL E      7200 RIVER DRIVE RD                     000N        CARE OF             
MTR06947000001000000000000000RA              38187514    005800680000006800000520000003NN  NNW 000                       N    
RDG06947000WATRL000000004K00000000000003289000912072015071146N000400000010U45       001310400K 10000000010000003270           
CUS0694700000106103706005         TAWNEY DONALD A     7207 RIVER DRIVE RD                     000N        CARE OF             
MTR06947000001000000000000000RA              79057905    005800690000006900000360000003NN  NNW 000                       N    
RDG06947000WATRL000000004R00000000000000009000011202015095628N000300000010N01       000140400R 10000000010000000000           
RFF0694700070244505      ERT      0000  956.44375000140000112020150956280000096629100W 1220000N                               
CUS0694700000106103707003         POLING CHARITY MARIA7211 RIVER DRIVE RD                     000N        CARE OF             
MTR06947000001000000000000000RA              32177315    005800700000007000000520000003NN  NNW 000                       N    
RDG06947000WATRL000000004K00000000000000457001012072015071753N000000000000U45       003670400K 10000000010000000438           
CUS0694700000106103709009         ALEX MABRY          7215 RIVER DRIVE RD                     000N        CARE OF             
MTR06947000001000000000000000RA              79058437    005800710000007100000360000003NN  NNW 000                       N    
RDG06947000WATRL000000004R00000000000000003000011202015095622N000300000010N01       000130400R 10000000010000000000           
RFF0694700070280485      ERT      0000  956.44375000140000112020150956220000030913100W 1220000N                               
CUS0694700000106103708001         HEARD LINDA LEE     7213 RIVER DRIVE RD                     000N        CARE OF             
MTR06947000001000000000000000RA              79181436    005800720000007200000360000003NN  NNW 000                       N    
RDG06947000WATRL000000004R00000000000000003000011202015095636N000300000010N01       000130400R 10000000010000000000           
RFF0694700070280218      ERT      0000  956.44375000140004112020150956360000034941100W 1220000N                               
CUS0694700000106103710007         AUSTIN STEPHEN      7217 RIVER DRIVE RD                     000N        CARE OF             
MTR06947000001000000000000000RA              79537447    005800730000007300000360000003NN  NNW 000                       N    
RDG06947000WATRL000000004R00000000000000006000011202015095636N000300000010N01       000130400R 10000000010000000000           
RFF0694700070280589      ERT      0000  956.44375000140004112020150956360000069730100W 1220000N                               
CUS0694700000106103711005         HILLEGASS JEFFREY A 7219 RIVER DRIVE RD                     000N        CARE OF             
MTR06947000001000000000000000RA              79181410    005800740000007400000360000003NN  NNW 000                       N    
RDG06947000WATRL000000004R00000000000000021000011202015095640N000300000010N01       000130400R 10000000010000000000           
RFF0694700070279991      ERT      0000  956.44375000140000112020150956400000211591100W 1220000N                               
CUS0694700000106103712003         MASKOL TERRENCE L   7221 RIVER DRIVE RD                     000N        CARE OF             
MTR06947000001000000000000000RA              79181413    005800750000007500000360000003NN  NNW 000                       N    
RDG06947000WATRL000000004R00000000000000002000011202015095556N000300000010N01       000130400R 10000000010000000000           
RFF0694700070280216      ERT      0000  956.44375000140000112020150955560000026488100W 1220000N                               
CUS0694700000106404388008         SANDBEK JASON PERRY 7225 RIVER DRIVE RD                     000N        CARE OF             
MTR06947000001000000000000000RA              79060458    005800760000007600000360000003NN  NNW 000                       N    
RDG06947000WATRL000000004R00000000000000009000011202015095540N000300000010N01       000130400R 10000000010000000000           
RFF0694700070272575      ERT      0000  956.44375000140000112020150955400000094594100W 1220000N                               
CUS0694700000106103713001         YEAGER MICHAEL ALAN 7227 RIVER DRIVE RD                     000N        CARE OF             
MTR06947000001000000000000000RA              78854810    005800770000007700000360000003NN  NNW 000                       N    
RDG06947000WATRL000000004R00000000000000003000011202015095546N000300000010N01       000140400R 10000000010000000000           
RFF0694700070279912      ERT      0000  956.44375000140000112020150955460000033012100W 1220000N                               
CUS0694700000106395106005         UNKART JOHN B       7229 RIVER DRIVE RD                     000N        CARE OF             
MTR06947000001000000000000000RA              79057365    005800780000007800000360000003NN  NNW 000                       N    
RDG06947000WATRL000000004R00000000000000000000011202015095620N000100000010N01       000130400R 10000000010000000000           
RFF0694700070280481      ERT      0000  956.44375000140000112020150956200000003028100W 1220000N                               
CUS0694700000106103714009         SIMMS FRANCIS ALOYSI7231 RIVER DRIVE RD                     000N        CARE OF             
MTR06947000001000000000000000RA              39923020    005800790000007900000520000003NY  NNW 000                       N    
MTM0694700039923020    COV                                                                                                    
RDG06947000WATRL000000004K00000000000000000000000000000000000 000000000000U         000000400  10000000010000003157           
CUS0694700000106372192002         WOZNIAK RONALD F    7233 RIVER DRIVE RD                     000N        CARE OF             
MTR06947000001000000000000000RA              79181429    005800800000008000000360000003NN  NNW 000                       N    
RDG06947000WATRL000000004R00000000000000002000011202015095552N000300000010N01       000130400R 10000000010000000000           
RFF0694700070280210      ERT      0000  956.44375000140000112020150955520000025013100W 1220000N                               
CUS0694700000106103715006         ZIMMERMAN PAUL J    7239 RIVER DRIVE RD                     000N        CARE OF             
MTR06947000001000000000000000RA              79181427    005800810000008100000360000003NN  NNW 000                       N    
RDG06947000WATRL000000004R00000000000000002000011202015095546N000300000010N01       000130400R 10000000010000000000           
RFF0694700070280222      ERT      0000  956.44375000140008112020150955460000024476100W 1220000N                               
CUS0694700000106103716004         WOOLFREY DANIEL T   7241 RIVER DRIVE RD                     000N        CARE OF             
MTR06947000001000000000000000RA              79061909    005800820000008200000360000003NN  NNW 000                       N    
RDG06947000WATRL000000004R00000000000000004000011202015095436N000300000010N01       000130400R 10000000010000000000           
RFF0694700070280249      ERT      0000  956.44375000140000112020150954360000048901100W 1220000N                               
CUS0694700000106103717002         DEROOSE DANIEL      7243 RIVER DRIVE RD                     000N        CARE OF             
MTR06947000001000000000000000RA              79056264    005800830000008300000360000003NN  NNW 000                       N    
RDG06947000WATRL000000004R00000000000000004000011202015095456N000300000010N01       000130400R 10000000010000000000           
RFF0694700070268869      ERT      0000  956.44375000140000112020150954560000043122100W 1220000N                               
CUS0694700000106103718000         CAMPBELL HARRY W    7102 ELLA AVE                           000N        CARE OF             
MTR06947000001000000000000000RA              79056272    005800840000008400000360000003NN  NNW 000                       N    
RDG06947000WATRL000000004R00000000000000001000011202015095450N000300000010N01       000130400R 10000000010000000000           
RFF0694700070268827      ERT      0000  956.44375000140000112020150954500000013029100W 1220000N                               
CUS0694700000106103719008         RUPPERT FRANCIS L,JR3225 GRACE RD                           000N        CARE OF             
MTR06947000001000000000000000RA              79060162    005800850000008500000360000003NN  NNW 000                       N    
RDG06947000WATRL000000004R00000000000000002000011202015095512N000300000010N01       000130400R 10000000010000000000           
RFF0694700070280426      ERT      0000  956.44375000140000112020150955120000027467100W 1220000N                               
CUS0694700000106103720006         DOUBLE EAGLE PROPERT3227 GRACE RD                           000N        CARE OF             
MTR06947000001000000000000000RA              79060439    005800860000008600000360000003NN  NNW 000                       N    
RDG06947000WATRL000000004R00000000000000000000011202015095520N000100000010N01       000140400R 10000000010000000000           
RFF0694700070272995      ERT      0000  956.44375000140000112020150955200000001190100W 1220000N                               
CUS0694700000106103721004         TIGHE JAMES EDWARD  3229 GRACE RD                           000N        CARE OF             
MTR06947000001000000000000000RA              27132384    005800870000008700000520000003NY  NNW 000                       N    
MTM0694700027132384    COV                                                                                                    
RDG06947000WATRL000000004K00000000000000000000000000000000000 000000000000U         000000400  10000000010000002829           
CUS0694700000106103722002         MANGANELLI ROSE ANNE3231 GRACE RD                           000N        CARE OF             
MTR06947000001000000000000000RA              79056245    005800880000008800000360000003NN  NNW 000                       N    
RDG06947000WATRL000000004R00000000000000001000011202015095526N000300000010N01       000130400R 10000000010000000000           
RFF0694700070268887      ERT      0000  956.44375000140000112020150955260000011060100W 1220000N                               
CUS0694700000106103723000         GOGEL MILDRED JOAN  3301 GRACE RD                           000N        CARE OF             
MTR06947000001000000000000000RA              79061076    005800890000008900000360000003NN  NNW 000                       N    
RDG06947000WATRL000000004R00000000000000001000011202015095536N000300000010N01       000130400R 10000000010000000000           
RFF0694700070281295      ERT      0000  956.44375000140000112020150955360000014854100W 1220000N                               
CUS0694700000106103724008         THEODORE MARY K     3303 GRACE RD                           000N        CARE OF             
MTR06947000001000000000000000RA              79060450    005800900000009000000360000003NN  NNW 000                       N    
RDG06947000WATRL000000004R00000000000000000000011202015095534N000100000010N01       000130400R 10000000010000000000           
RFF0694700070267586      ERT      0000  956.44375000140000112020150955340000005802100W 1220000N                               
CUS0694700000106103725005         MILLER BRYAN        3305 GRACE RD                           000N        CARE OF             
MTR06947000001000000000000000RA              79057830    005800910000009100000360000003NN  NNW 000                       N    
RDG06947000WATRL000000004R00000000000000005000011202015095516N000300000010N01       000130400R 10000000010000000000           
RFF0694700070281282      ERT      0000  956.44375000140000112020150955160000054242100W 1220000N                               
CUS0694700000106103726003         KEVIN CLATTERBUCK JR7101 RIVER DRIVE RD                     000N        CARE OF             
MTR06947000001000000000000000RA              79057366    005800920000009200000360000003NN  NNW 000                       N    
RDG06947000WATRL000000004R00000000000000002000011202015095630N000300000010N01       000130400R 10000000010000000000           
RFF0694700070280509      ERT      0000  956.44375000140000112020150956300000025908100W 1220000N                               
CUS0694700000106103727001         KRAEMER JOHN A      7103 RIVER DRIVE RD                     000N        CARE OF             
MTR06947000001000000000000000RA              79057367    005800930000009300000360000003NN  NNW 000                       N    
RDG06947000WATRL000000004R00000000000000002000011202015095830N000300000010N01       000130400R 10000000010000000000           
RFF0694700070280496      ERT      0000  956.44375000140000112020150958300000027593100W 1220000N                               
CUS0694700000106103728009         STACHOWIAK E J,SR   7105 RIVER DRIVE RD                     000N        CARE OF             
MTR06947000001000000000000000RA              79056269    005800940000009400000360000003NN  NNW 000                       N    
RDG06947000WATRL000000004R00000000000000004000011202015095650N000300000010N01       000140400R 10000000010000000000           
RFF0694700070268882      ERT      0000  956.44375000140000112020150956500000044760100W 1220000N                               
CUS0694700000106103729007         LAMB JAMES P        7107 RIVER DRIVE RD                     000N        CARE OF             
MTR06947000001000000000000000RA              79060442    005800950000009500000360000003NN  NNW 000                       N    
RDG06947000WATRL000000004R00000000000000003000011202015095716N000300000010N01       000130400R 10000000010000000000           
RFF0694700070272558      ERT      0000  956.44375000140000112020150957160000034802100W 1220000N                               
CUS0694700000106103730005         TAYLOR GARY W       7109 RIVER DRIVE RD                     000N        CARE OF             
MTR06947000001000000000000000RA              78854835    005800960000009600000360000003NN  NNW 000                       N    
RDG06947000WATRL000000004R00000000000000003000011202015095734N000300000010N01       000130400R 10000000010000000000           
RFF0694700070280572      ERT      0000  956.44375000140000112020150957340000030613100W 1220000N                               
CUS0694700000106103731003         NISTICO ALBERT L,JR 7111 RIVER DRIVE RD                     000N        CARE OF             
MTR06947000001000000000000000RA              79056437    005800970000009700000360000003NN  NNW 000   VACANT / LOT        N    
RDG06947000WATRL000000004R00000000000000000000011202015095608N000100000010N01       000130400R 10000000010000000000           
RFF0694700070267810      ERT      0000  956.44375000140000112020150956080000000025100W 1220000N                               
CUS0694700000106403469007         PATTISON KENNETH M  7117 RIVER DRIVE RD                     000N        CARE OF             
MTR06947000001000000000000000RA              79056210    005800980000009800000360000003NN  NNW 000                       N    
RDG06947000WATRL000000004R00000000000000006000011202015095708N000300000010N01       000130400R 10000000010000000000           
RFF0694700070280175      ERT      0000  956.44375000140000112020150957080000068914100W 1220000N                               
CUS0694700000106103732001         MCCARTY KEVIN L     7119 RIVER DRIVE RD                     000N        CARE OF             
MTR06947000001000000000000000RA              50477009    005800990000009900000520000003NN  NNW 000                       N    
RDG06947000WATRL000000004K00000000000001787001112072015072630N000300000010U45       005170400K 10000000010000001795           
CUS0694700000106103733009         ZIMMERMANN LEO G,JR 7126 RIVER DRIVE RD                     000N        CARE OF             
MTR06947000001000000000000000RA              78746991    005801000000010000000360000003NN  NNW 000                       N    
RDG06947000WATRL000000004R00000000000000002000011202015095634N000300000010N01       000130400R 10000000010000000000           
RFF0694700070267781      ERT      0000  956.44375000140000112020150956340000021582100W 1220000N                               
CUS0694700000106103734007         STARR LARRY L       7122 RIVER DRIVE RD                     000N        CARE OF             
MTR06947000001000000000000000RA              38984205    005801010000010100000520000003NN  NNW 000                       N    
RDG06947000WATRL000000004K00000000000004575001212072015072835N000300000010U45       001250400K 10000000010000004492           
CUS0694700000106103735004         RIVER WAREHOUSING LL7120 RIVER DRIVE RD                     000N        CARE OF             
MTR06947000001000000000000000RA              79057361    005801020000010200000360000003NN  NNW 000                       N    
RDG06947000WATRL000000004R00000000000000002000011202015095652N000300000010N01       000130400R 10000000010000000000           
RFF0694700070280513      ERT      0000  956.44375000140000112020150956520000022801100W 1220000N                               
CUS0694700000106103736002         WISNIEWSKI THADDEUS 7118 RIVER DRIVE RD                     000N        CARE OF             
MTR06947000001000000000000000RA              79060456    005801030000010300000360000003NN  NNW 000                       N    
RDG06947000WATRL000000004R00000000000000004000011202015095718N000300000010N01       000140400R 10000000010000000000           
RFF0694700070272546      ERT      0000  956.44375000140000112020150957180000043033100W 1220000N                               
CUS0694700000106103737000         DONNELLY MARY K     7114 RIVER DRIVE RD                     000N        CARE OF             
MTR06947000001000000000000000RA              79058130    005801040000010400000360000003NN  NNW 000                       N    
RDG06947000WATRL000000004R00000000000000001000011202015095706N000300000010N01       000130400R 10000000010000000000           
RFF0694700070268260      ERT      0000  956.44375000140000112020150957060000017740100W 1220000N                               
CUS0694700000106103738008         ISENHART WILLIAM R  7112 RIVER DRIVE RD                     000N        CARE OF             
MTR06947000001000000000000000RA              79061585    005801050000010500000360000003NN  NNW 000                       N    
RDG06947000WATRL000000004R00000000000000002000011202015095642N000300000010N01       000130400R 10000000010000000000           
RFF0694700070267937      ERT      0000  956.44375000140000112020150956420000027269100W 1220000N                               
CUS0694700000106103739006         AIELLO PETER M,JR   7110 RIVER DRIVE RD                     000N        CARE OF             
MTR06947000001000000000000000RA              79058438    005801060000010600000360000003NN  NNW 000                       N    
RDG06947000WATRL000000004R00000000000000003000011202015095652N000300000010N01       000130400R 10000000010000000000           
RFF0694700070281290      ERT      0000  956.44375000140000112020150956520000034424100W 1220000N                               
CUS0694700000106103740004         KORDEK MICHAEL      7108 RIVER DRIVE RD                     000N        CARE OF             
MTR06947000001000000000000000RA              79058132    005801070000010700000360000003NN  NNW 000                       N    
RDG06947000WATRL000000004R00000000000000003000011202015095646N000300000010N01       000130400R 10000000010000000000           
RFF0694700070267725      ERT      0000  956.44375000140004112020150956460000034822100W 1220000N                               
CUS0694700000106103742000         WARLICK LEROY       7104 RIVER DRIVE RD                     000N        CARE OF             
MTR06947000001000000000000000RA              79181435    005801080000010800000360000003NN  NNW 000                       N    
RDG06947000WATRL000000004R00000000000000002000011202015095550N000300000010N01       000130400R 10000000010000000000           
RFF0694700070280223      ERT      0000  956.44375000140000112020150955500000028442100W 1220000N                               
CUS0694700000106103741002         NASH WOODROW L      7106 RIVER DRIVE RD                     000N        CARE OF             
MTR06947000001000000000000000RA              79057370    005801090000010900000360000003NN  NNW 000                       N    
RDG06947000WATRL000000004R00000000000000003000011202015095704N000300000010N01       000130400R 10000000010000000000           
RFF0694700070280489      ERT      0000  956.44375000140004112020150957040000038918100W 1220000N                               
CUS0694700000106103743008         COYNE FRANCIS       7102 RIVER DRIVE RD                     000N        CARE OF             
MTR06947000001000000000000000RA              79056249    005801100000011000000360000003NN  NNW 000                       N    
RDG06947000WATRL000000004R00000000000000003000011202015095712N000300000010N01       000130400R 10000000010000000000           
RFF0694700070268874      ERT      0000  956.44375000140000112020150957120000032063100W 1220000N                               
CUS0694700000106103744006         SIKORSKI STEPHEN A  7100 RIVER DRIVE RD                     000N        CARE OF             
MTR06947000001000000000000000RA              79056268    005801110000011100000360000003NN  NNW 000                       N    
RDG06947000WATRL000000004R00000000000000000000011202015095750N000100000010N01       000140400R 10000000010000000000           
RFF0694700070268838      ERT      0000  956.44375000140000112020150957500000000026100W 1220000N                               
CUS0694700000106103745003         RONALD S SCHOENBERGE7016 RIVER DRIVE RD                     000N        CARE OF             
MTR06947000001000000000000000RA              79056270    005801120000011200000360000003NN  NNW 000                       N    
RDG06947000WATRL000000004R00000000000000004000011202015095628N000300000010N01       000130400R 10000000010000000000           
RFF0694700070268835      ERT      0000  956.44375000140000112020150956280000041543100W 1220000N                               
CUS0694700000106103746001         TAYLOR SCOTT B      7014 RIVER DRIVE RD                     000N        CARE OF             
MTR06947000001000000000000000RA              79056261    005801130000011300000360000003NN  NNW 000                       N    
RDG06947000WATRL000000004R00000000000000002000011202015095532N000300000010N01       000130400R 10000000010000000000           
RFF0694700070268868      ERT      0000  956.44375000140000112020150955320000025172100W 1220000N                               
CUS0694700000106103747009         WOOD LEROY P,SR     7012 RIVER DRIVE RD                     000N        CARE OF             
MTR06947000001000000000000000RA              79060416    005801140000011400000360000003NN  NNW 000                       N    
RDG06947000WATRL000000004R00000000000000001000011202015095718N000300000010N01       000130400R 10000000010000000000           
RFF0694700070272312      ERT      0000  956.44375000140000112020150957180000014559100W 1220000N                               
CUS0694700000106103748007         HUDLER BRUCE VERNON 7010 RIVER DRIVE RD                     000N        CARE OF             
MTR06947000001000000000000000RA              79060165    005801150000011500000360000003NN  NNW 000                       N    
RDG06947000WATRL000000004R00000000000000000000011202015095530N000100000010N01       000130400R 10000000010000000000           
RFF0694700070280403      ERT      0000  956.44375000140008112020150955300000006960100W 1220000N                               
CUS0694700000106103749005         EVERING JOSEPH F,3RD7008 RIVER DRIVE RD                     000N        CARE OF             
MTR06947000001000000000000000RA              79056252    005801160000011600000360000003NN  NNW 000                       N    
RDG06947000WATRL000000004R00000000000000000000011202015095800N000100000010N01       000130400R 10000000010000000000           
RFF0694700070268886      ERT      0000  956.44375000140000112020150958000000009870100W 1220000N                               
CUS0694700000106103750003         PERKINS EUGENE L,3RD7006 RIVER DRIVE RD                     000N        CARE OF             
MTR06947000001000000000000000RA              79056267    005801170000011700000360000003NN  NNW 000                       N    
RDG06947000WATRL000000004R00000000000000001000011202015095846N000300000010N01       000130400R 10000000010000000000           
RFF0694700070280664      ERT      0000  956.44375000140008112020150958460000017784100W 1220000N                               
CUS0694700000106103751001         SPIVEY DANIEL S     7004 RIVER DRIVE RD                     000N        CARE OF             
MTR06947000001000000000000000RA              79056207    005801180000011800000360000003NN  NNW 000                       N    
RDG06947000WATRL000000004R00000000000000003000011202015095856N000300000010N01       000140400R 10000000010000000000           
RFF0694700070280194      ERT      0000  956.44375000140000112020150958560000035925100W 1220000N                               
CUS0694700000106103752009         MITCHELL DAVID W    7002 RIVER DRIVE RD                     000N        CARE OF             
MTR06947000001000000000000000RA              48590976    005801190000011900000520000003NN  NNW 000                       N    
RDG06947000WATRL000000004K00000000000001076001312072015073047N000000000000U45       001320400K 10000000010000001032           
CUS0694700000106103753007         WOUTILA GEORGE J,JR 7000 RIVER DRIVE RD                     000N        CARE OF             
MTR06947000001000000000000000RA              14907794    005801200000012000000310000003NY  NNW 000                       N    
MTM0694700014907794    79056253                                                                                               
RDG06947000WATRL000000004K00000000000000007001412072015073148N000300000010U45       000610400K 10000000010000006160           
CUS0694700000106103754005         DAWSON DAVID        7003 RIVER DRIVE RD                     000N        CARE OF             
MTR06947000001000000000000000RA              79060454    005801210000012100000360000003NN  NNW 000                       N    
RDG06947000WATRL000000004R00000000000000003000011202015095906N000300000010N01       000130400R 10000000010000000000           
RFF0694700070274912      ERT      0000  956.44375000140004112020150959060000037658100W 1220000N                               
CUS0694700000106103755002         KARATZAS GEORGIOS A 7005 RIVER DRIVE RD                     000N        CARE OF             
MTR06947000001000000000000000RA              79056254    005801220000012200000360000003NN  NNW 000                       N    
RDG06947000WATRL000000004R00000000000000004000011202015095832N000300000010N01       000130400R 10000000010000000000           
RFF0694700070268878      ERT      0000  956.44375000140004112020150958320000048604100W 1220000N                               
CUS0694700000106103756000         TAYLOR WILLIAM H    7005-1/2 RIVER DRIVE RD                 000N        CARE OF             
MTR06947000001000000000000000RA              79060417    005801230000012300000360000003NN  NNW 000                       N    
RDG06947000WATRL000000004R00000000000000003000011202015095732N000300000010N01       000130400R 10000000010000000000           
RFF0694700070274930      ERT      0000  956.44375000140000112020150957320000034842100W 1220000N                               
CUS0694700000106103757008         SZUMLANSKI JOHN J,JR7007 RIVER DRIVE RD                     000N        CARE OF             
MTR06947000001000000000000000RA              79056271    005801240000012400000360000003NN  NNW 000                       N    
RDG06947000WATRL000000004R00000000000000001000011202015095842N000300000010N01       000130400R 10000000010000000000           
RFF0694700070280669      ERT      0000  956.44375000140008112020150958420000011975100W 1220000N                               
CUS0694700000106103758006         ANDERSON JOAN H     7009 RIVER DRIVE RD                     000N        CARE OF             
MTR06947000001000000000000000RA              78854884    005801250000012500000360000003NN  NNW 000                       N    
RDG06947000WATRL000000004R00000000000000001000011202015095834N000300000010N01       000130400R 10000000010000000000           
RFF0694700070274031      ERT      0000  956.44375000140000112020150958340000014500100W 1220000N                               
CUS0694700000106103759004         MAPP HARRY J        7013 RIVER DRIVE RD                     000N        CARE OF             
MTR06947000001000000000000000RA              79060170    005801260000012600000360000003NN  NNW 000                       N    
RDG06947000WATRL000000004R00000000000000000000011202015095600N000100000010N01       000130400R 10000000010000000000           
RFF0694700070280395      ERT      0000  956.44375000140000112020150956000000009088100W 1220000N                               
CUS0694700000106103760002         SCOTT HOWE          3322 GRACE RD                           000N        CARE OF             
MTR06947000001000000000000000RA              50478500    005801270000012700000520000003NN  NNW 000                       N    
RDG06947000WATRL000000004K00000000000001929001612072015073723N000000000000U45       001290400K 10000000010000001902           
CUS0694700000106443772006         DAVIS RENEE L       3320 GRACE RD                           000N        CARE OF             
MTR06947000001000000000000000RA              79060459    005801280000012800000360000003NN  NNW 000                       N    
RDG06947000WATRL000000004R00000000000000003000011202015095714N000300000010N01       000140400R 10000000010000000000           
RFF0694700070272552      ERT      0000  956.44375000140000112020150957140000032287100W 1220000N                               
CUS0694700000106103761000         LANTZ DAVID J       3318 GRACE RD                           000N        CARE OF             
MTR06947000001000000000000000RA              77891577    005801290000012900000360000003NN  NNW 000                       N    
RDG06947000WATRL000000004K00000000000000015001512072015073514N000300000010U45       002060400K 10000000010000000003           
CUS0694700000106103762008         SAUERWALD MARK PHILI3316 GRACE RD                           000N        CARE OF             
MTR06947000001000000000000000RA              79060191    005801300000013000000360000003NN  NNW 000                       N    
RDG06947000WATRL000000004R00000000000000006000011202015095556N000300000010N01       000130400R 10000000010000000000           
RFF0694700070280420      ERT      0000  956.44375000140000112020150955560000061755100W 1220000N                               
CUS0694700000106103763006         SITES GROVER FRANKLI3314 GRACE RD                           000N        CARE OF             
MTR06947000001000000000000000RA              79056262    005801310000013100000360000003NN  NNW 000                       N    
RDG06947000WATRL000000004R00000000000000003000011202015095552N000300000010N01       000130400R 10000000010000000000           
RFF0694700070273300      ERT      0000  956.44375000140000112020150955520000038857100W 1220000N                               
CUS0694700000106103764004         GENSLER CATHERINE E 3312 GRACE RD                           000N        CARE OF             
MTR06947000001000000000000000RA              79056266    005801320000013200000360000003NN  NNW 000                       N    
RDG06947000WATRL000000004R00000000000000001000011202015095556N000300000010N01       000130400R 10000000010000000000           
RFF0694700070268829      ERT      0000  956.44375000140000112020150955560000017939100W 1220000N                               
CUS0694700000106103765001         DOMICO EUGENE RAYMON3308 GRACE RD                           000N        CARE OF             
MTR06947000001000000000000000RA              79056250    005801330000013300000360000003NN  NNW 000                       N    
RDG06947000WATRL000000004R00000000000000002000011202015095532N000300000010N01       000130400R 10000000010000000000           
RFF0694700070268893      ERT      0000  956.44375000140000112020150955320000024171100W 1220000N                               
CUS0694700000106103766009         MCCULLOUGH DENNIS J 3306 GRACE RD                           000N        CARE OF             
MTR06947000001000000000000000RA              79060196    005801340000013400000360000003NN  NNW 000                       N    
RDG06947000WATRL000000004R00000000000000006000011202015095552N000300000010N01       000130400R 10000000010000000000           
RFF0694700070280384      ERT      0000  956.44375000140000112020150955520000066642100W 1220000N                               
CUS0694700000106103767007         NICELY ROBERT A,JR  3310 GRACE RD                           000N        CARE OF             
MTR06947000001000000000000000RA              79060164    005801350000013500000360000003NN  NNW 000                       N    
RDG06947000WATRL000000004R00000000000000002000011202015095526N000300000010N01       000130400R 10000000010000000000           
RFF0694700070280431      ERT      0000  956.44375000140000112020150955260000022296100W 1220000N                               
CUS0694700000106103768005         WARNICK CHARLES W   3304 GRACE RD                           000N        CARE OF             
MTR06947000001000000000000000RA              79056244    005801360000013600000360000003NN  NNW 000                       N    
RDG06947000WATRL000000004R00000000000000003000011202015095546N000300000010N01       000130400R 10000000010000000000           
RFF0694700070268879      ERT      0000  956.44375000140000112020150955460000033345100W 1220000N                               
CUS0694700000106103769003         BALTIMORE COUNTY MD NS ALICE AVE                            000N        CARE OF             
MTR06947000001000000000000000RA              40322156    005801370000013700000520000003NY  NNW 000                       N    
MTM0694700040322156    BURIED                                                                                                 
RDG06947000WATRL000000004K00000000000000000000000000000000000 000000000000U         000000400  10000000010000000491           
CUS0694700000106103770001         CHES ALLISON MARIE  7007 ALICE AVE                          000N        CARE OF             
MTR06947000001000000000000000RA              79060452    005801380000013800000360000003NN  NNW 000                       N    
RDG06947000WATRL000000004R00000000000000002000011202015095510N000300000010N01       000140400R 10000000010000000000           
RFF0694700070267570      ERT      0000  956.44375000140000112020150955100000028360100W 1220000N                               
CUS0694700000106103771009         SHKOR NICHOLAS      3224 GRACE RD                           000N        CARE OF             
MTR06947000001000000000000000RA              79056263    005801390000013900000360000003NN  NNW 000                       N    
RDG06947000WATRL000000004R00000000000000001000011202015095522N000300000010N01       000130400R 10000000010000000000           
RFF0694700070268825      ERT      0000  956.44375000140000112020150955220000014980100W 1220000N                               
CUS0694700000106103772007         WILLS SOPHIE        3222 GRACE RD                           000N        CARE OF             
MTR06947000001000000000000000RA              77887581    005801400000014000000360000003NN  NNW 000                       N    
RDG06947000WATRL000000004R00000000000000000000011202015095520N000100000010N01       000130400R 10000000010000000000           
RFF0694700070258122      ERT      0000  956.44375000140000112020150955200000000158100W 1220000N                               
CUS0694700000106103773005         THB 3218 GRACE LLC  3218 GRACE RD                           000N        CARE OF             
MTR06947000001000000000000000RA              79059040    005801410000014100000360000003NN  NNW 000                       N    
RDG06947000WATRL000000004R00000000000000002000011202015095354N000300000010N01       000130400R 10000000010000000000           
RFF0694700070274863      ERT      0000  956.44375000140000112020150953540000022707100W 1220000N                               
CUS0694700000106103774003         SECKENS MONT V      3216 GRACE RD                           000N        CARE OF             
MTR06947000001000000000000000RA              79057942    005801420000014200000360000003NN  NNW 000                       N    
RDG06947000WATRL000000004R00000000000000001000011202015095450N000300000010N01       000130400R 10000000010000000000           
RFF0694700070244388      ERT      0000  956.44375000140000112020150954500000013227100W 1220000N                               
CUS0694700000106103775000         ERNEST MARTIN E,SR  3214 GRACE RD                           000N        CARE OF             
MTR06947000001000000000000000RA              78005683    005801430000014300000360000003NN  NNW 000                       N    
RDG06947000WATRL000000004K00000000000000000001712072015074233N000000000000U45       003100400K 10000000010000000000           
CUS0694700000106103776008         TAYLOR WAYNE C      3212 GRACE RD                           000N        CARE OF             
MTR06947000001000000000000000RA              79056257    005801440000014400000360000003NN  NNW 000                       N    
RDG06947000WATRL000000004R00000000000000004000011202015095444N000300000010N01       000130400R 10000000010000000000           
RFF0694700070273261      ERT      0000  956.44375000140000112020150954440000047321100W 1220000N                               
CUS0694700000106103777006         BURKHOUSE EDWARD W  3210 GRACE RD                           000N        CARE OF             
MTR06947000001000000000000000RA              79059044    005801450000014500000360000003NN  NNW 000                       N    
RDG06947000WATRL000000004R00000000000000001000011202015095428N000300000010N01       000130400R 10000000010000000000           
RFF0694700070280176      ERT      0000  956.44375000140000112020150954280000019623100W 1220000N                               
CUS0694700000106103778004         ZINNER MARY L       3208 GRACE RD                           000N        CARE OF             
MTR06947000001000000000000000RA              79059063    005801460000014600000360000003NN  NNW 000                       N    
RDG06947000WATRL000000004R00000000000000003000011202015095434N000300000010N01       000140400R 10000000010000000000           
RFF0694700070267517      ERT      0000  956.44375000140000112020150954340000035662100W 1220000N                               
CUS0694700000106103779002         KELLY CURTIS J      3206 GRACE RD                           000N        CARE OF             
MTR06947000001000000000000000RA              48596141    005801470000014700000520000003NN  NNW 000                       N    
RDG06947000WATRL000000004K00000000000002754001812072015074336N000400000010U45       000630400K 10000000010000002736           
CUS0694700000106103780000         BROCK MARY L        3204 GRACE RD                           000N        CARE OF             
MTR06947000001000000000000000RA              79059021    005801480000014800000360000003NN  NNW 000                       N    
RDG06947000WATRL000000004R00000000000000000000011202015095456N000100000010N01       000130400R 10000000010000000000           
RFF0694700070267460      ERT      0000  956.44375000140000112020150954560000007161100W 1220000N                               
CUS0694700000106103781008         DUNCAN VERNON T/DAVI3202 GRACE RD                           000N        CARE OF             
MTR06947000001000000000000000RA              79059026    005801490000014900000360000003NN  NNW 000                       N    
RDG06947000WATRL000000004R00000000000000000000011202015095432N000100000010N01       000130400R 10000000010000000000           
RFF0694700070267433      ERT      0000  956.44375000140000112020150954320000000352100W 1220000N                               
CUS0694700000106103782006         RUDACILLE RAYMOND V 7003 MARTHA AVE                         000N        CARE OF             
MTR06947000001000000000000000RA              79057870    005801500000015000000360000003NN  NNW 000                       N    
RDG06947000WATRL000000004R00000000000000002000011202015095420N000300000010N01       000130400R 10000000010000000000           
RFF0694700070279661      ERT      0000  956.44375000140000112020150954200000021728100W 1220000N                               
CUS0694700000106103783004         STALTER FAYE B      3116 GRACE RD                           000N        CARE OF             
MTR06947000001000000000000000RA              79057861    005801510000015100000360000003NN  NNW 000                       N    
RDG06947000WATRL000000004R00000000000000003000011202015095428N000300000010N01       000130400R 10000000010000000000           
RFF0694700070244518      ERT      0000  956.44375000140000112020150954280000035904100W 1220000N                               
CUS0694700000106103784002         WODARSKI RUTH MAY   3114 GRACE RD                           000N        CARE OF             
MTR06947000001000000000000000RA              79057939    005801520000015200000360000003NN  NNW 000                       N    
RDG06947000WATRL000000004R00000000000000001000011202015095434N000300000010N01       000130400R 10000000010000000000           
RFF0694700070270669      ERT      0000  956.44375000140000112020150954340000011454100W 1220000N                               
CUS0694700000106103785009         STARR MICHAEL       3112 GRACE RD                           000N        CARE OF             
MTR06947000001000000000000000RA              79058000    005801530000015300000360000003NN  NNW 000                       N    
RDG06947000WATRL000000004R00000000000000003000011202015095416N000300000010N01       000130400R 10000000010000000000           
RFF0694700070244521      ERT      0000  956.44375000140004112020150954160000038714100W 1220000N                               
CUS0694700000106103786007         MAUL RODI           3110 GRACE RD                           000N        CARE OF             
MTR06947000001000000000000000RA              79057857    005801540000015400000360000003NN  NNW 000                       N    
RDG06947000WATRL000000004R00000000000000002000011202015095344N000300000010N01       000140400R 10000000010000000000           
RFF0694700070244511      ERT      0000  956.44375000140000112020150953440000025985100W 1220000N                               
CUS0694700000106103787005         SHKOR JOHN TR       3108 GRACE RD                           000N        CARE OF             
MTR06947000001000000000000000RA              79059039    005801550000015500000360000003NN  NNW 000                       N    
RDG06947000WATRL000000004R00000000000000003000011202015095346N000300000010N01       000130400R 10000000010000000000           
RFF0694700070280167      ERT      0000  956.44375000140000112020150953460000030429100W 1220000N                               
CUS0694700000106103788003         SHKOR NICHOLAS      3106 GRACE RD                           000N        CARE OF             
MTR06947000001000000000000000RA              79057864    005801560000015600000360000003NN  NNW 000                       N    
RDG06947000WATRL000000004R00000000000000001000011202015095350N000300000010N01       000130400R 10000000010000000000           
RFF0694700070279679      ERT      0000  956.44375000140000112020150953500000018066100W 1220000N                               
CUS0694700000106103789001         DIMEO SALVATORE     3104 GRACE RD                           000N        CARE OF             
MTR06947000001000000000000000RA              79140072    007501570000015700000360000003NN  NNW 000                       N    
RDG06947000WATRL000000004R00000000000000006000011202015095338N000300000010N01       000130400R 10000000010000000000           
RFF0694700070259526      ERT      0000  956.44375000140000112020150953380000067156100W 1220000N                               
CUS0694700000106352867003         PENNINGTON MICHAEL A3102 GRACE RD                           000N        CARE OF             
MTR06947000001000000000000000RA              79057997    005801580000015800000360000003NN  NNW 000                       N    
RDG06947000WATRL000000004R00000000000000003000011202015095402N000300000010N01       000130400R 10000000010000000000           
RFF0694700070270639      ERT      0000  956.44375000140000112020150954020000037229100W 1220000N                               
CUS0694700000106103790009         BRADLEY FEARL RANDAL7002 NORTH POINT RD                     000N        CARE OF             
MTR06947000001000000000000000RA              77887013    005801590000015900000360000003NN  NNW 000                       N    
RDG06947000WATRL000000004R00000000000000181000011202015095346N000300000010N01       000130400R 10000000010000000173           
RFF0694700070268102      ERT      0000  956.44375000140000112020150953460001813185100W 1220000N                               
CUS0694700000106103791007         HOOVER BENTLEY GLENN7000 N POINT RD                         000N        CARE OF             
MTR06947000001000000000000000RA              79060838    005801600000016000000360000003NN  NNW 000                       N    
RDG06947000WATRL000000004R00000000000000006000011202015095350N000300000010N01       000130400R 10000000010000000000           
RFF0694700070274902      ERT      0000  956.44375000140000112020150953500000065820100W 1220000N                               
CUS0694700000106103792005         BENTLEY HOOVER      6916 N POINT RD                         000N        CARE OF             
MTR06947000001000000000000000RA              01101888    005801610000016100000610000003NY  NNW 000                       N    
MTM0694700001101888    DEF 4BY18 WILL NOT OPEN                                                                                
RDG06947000WATRL000000004K00000000000000000000000000000000000 000000000000U         000000400  10000000010000003568           
CUS0694700000106381211009         MCCAULEY BRYON K    3101 LYNCH RD                           000N        CARE OF             
MTR06947000001000000000000000RA              79060822    005801620000016200000360000003NN  NNW 000                       N    
RDG06947000WATRL000000004R00000000000000003000011202015095346N000300000010N01       000130400R 10000000010000000000           
RFF0694700070272477      ERT      0000  956.44375000140000112020150953460000030088100W 1220000N                               
CUS0694700000106103793003         DUNCAN DAWN M       3103 LYNCH RD                           000N        CARE OF             
MTR06947000001000000000000000RA              75615119    005801630000016300000350000003NN  NNW 000                       N    
RDG06947000WATRL000000004R00000000000000402000011202015095524N000300000010N01       000140400R 10000000010000000398           
RFF0694700070244196      ERT      0000  956.44375000140000112020150955240004027309100W 1220000N                               
CUS0694700000106454743003         GRAY MANOR INVESTMEN3105 LYNCH RD                           000N        CARE OF             
MTR06947000001000000000000000RA              75426996    007501640000016400000350000003NN  NNW 000                       N    
RDG06947000WATRL000000004R00000000000000102000011202015095510N000300000010N01       000130400R 10000000010000000099           
RFF0694700070268114      ERT      0000  956.44375000140000112020150955100001020340100W 1220000N                               
CUS0694700000106103794001         WEINREICH BETTY JEAN3109 LYNCH RD                           000N        CARE OF             
MTR06947000001000000000000000RA              79056109    005801650000016500000360000003NN  NNW 000                       N    
RDG06947000WATRL000000004R00000000000000000000011202015100136N000100000010N01       000130400R 10000000010000000000           
RFF0694700070281348      ERT      0000  956.44375000140000112020151001360000008582100W 1220000N                               
CUS0694700000106103795008         SIMKOVICH JOHN M    3111 LYNCH RD                           000N        CARE OF             
MTR06947000001000000000000000RA              79056110    005801660000016600000360000003NN  NNW 000                       N    
RDG06947000WATRL000000004R00000000000000000000011202015095500N000100000010N01       000130400R 10000000010000000000           
RFF0694700070281344      ERT      0000  956.44375000140000112020150955000000008475100W 1220000N                               
CUS0694700000106103796006         RICE DEBBIE ANN     3113 LYNCH RD                           000N        CARE OF             
MTR06947000001000000000000000RA              79059035    005801670000016700000360000003NN  NNW 000                       N    
RDG06947000WATRL000000004R00000000000000005000011202015095512N000300000010N01       000130400R 10000000010000000000           
RFF0694700070267459      ERT      0000  956.44375000140000112020150955120000052077100W 1220000N                               
CUS0694700000106103797004         HENDLEY JAMES E,SR  3115 LYNCH RD                           000N        CARE OF             
MTR06947000001000000000000000RA              79057858    005801680000016800000360000003NN  NNW 000                       N    
RDG06947000WATRL000000004R00000000000000005000011202015095524N000300000010N01       000130400R 10000000010000000000           
RFF0694700070244502      ERT      0000  956.44375000140000112020150955240000059825100W 1220000N                               
CUS0694700000106103798002         COFFMAN SHIRLEY M   3117 LYNCH RD                           000N        CARE OF             
MTR06947000001000000000000000RA              79057872    005801690000016900000360000003NN  NNW 000                       N    
RDG06947000WATRL000000004R00000000000000001000011202015095430N000300000010N01       000130400R 10000000010000000000           
RFF0694700070279680      ERT      0000  956.44375000140000112020150954300000019392100W 1220000N                               
CUS0694700000106103799000         FREE GOSPEL TABERNAC3201 LYNCH RD                           000N        CARE OF             
MTR06947000001000000000000000RA              79186318    005801700000017000000360000003NN  NNW 000                       N    
RDG06947000WATRL000000004R00000000000000000000011202015095532N000100000010N01       000140400R 10000000010000000000           
RFF0694700070281426      ERT      0000  956.44375000140000112020150955320000001918100W 1220000N                               
CUS0694700000106103800006         GAY JAMES L,JR      3205 LYNCH RD                           000N        CARE OF             
MTR06947000001000000000000000RA              79183294    005801710000017100000360000003NN  NNW 000                       N    
RDG06947000WATRL000000004R00000000000000002000011202015095514N000300000010N01       000130400R 10000000010000000000           
RFF0694700070273996      ERT      0000  956.44375000140000112020150955140000021550100W 1220000N                               
CUS0694700000106103801004         BADDERS BRYAN       3207 LYNCH RD                           000N        CARE OF             
MTR06947000001000000000000000RA              79056126    005801720000017200000360000003NN  NNW 000                       N    
RDG06947000WATRL000000004R00000000000000005000011202015095500N000300000010N01       000130400R 10000000010000000000           
RFF0694700070281346      ERT      0000  956.44375000140000112020150955000000050374100W 1220000N                               
CUS0694700000106103802002         JOHN W SHKOR        3209 LYNCH RD                           000N        CARE OF             
MTR06947000001000000000000000RA              79207870    005801730000017300000360000003NN  NNW 000                       N    
RDG06947000WATRL000000004R00000000000000000000011202015095456N000100000010N01       000130400R 10000000010000000000           
RFF0694700070281372      ERT      0000  956.44375000140000112020150954560000000529100W 1220000N                               
CUS0694700000106103803000         RESAVAGE JOSEPH E   3211 LYNCH RD                           000N        CARE OF             
MTR06947000001000000000000000RA              79059036    005801740000017400000360000003NN  NNW 000                       N    
RDG06947000WATRL000000004R00000000000000002000011202015095516N000300000010N01       000130400R 10000000010000000000           
RFF0694700070267467      ERT      0000  956.44375000140000112020150955160000024148100W 1220000N                               
CUS0694700000106103804008         LESHKO JOHN M       3213 LYNCH RD                           000N        CARE OF             
MTR06947000001000000000000000RA              79060548    005801750000017500000360000003NN  NNW 000                       N    
RDG06947000WATRL000000004R00000000000000001000011202015095514N000300000010N01       000130400R 10000000010000000000           
RFF0694700070279364      ERT      0000  956.44375000140000112020150955140000018364100W 1220000N                               
CUS0694700000106103805005         LAMARTINA TERESA G  3215 LYNCH RD                           000N        CARE OF             
MTR06947000001000000000000000RA              01076697    005801760000017600000610000003NN  NNW 000                       N    
RDG06947000WATRL000000004K00000000000000951001912072015080048N000000000000U45       010320400K 10000000010000000902           
CUS0694700000106103806003         RENIA THOMAS SPECIAL3217 LYNCH RD                           000N        CARE OF             
MTR06947000001000000000000000RA              79059023    005801770000017700000360000003NN  NNW 000                       N    
RDG06947000WATRL000000004R00000000000000004000011202015095514N000300000010N01       000130400R 10000000010000000000           
RFF0694700070267374      ERT      0000  956.44375000140008112020150955140000040901100W 1220000N                               
CUS0694700000106103807001         KNUTSON SUZANNE     3219 LYNCH RD                           000N        CARE OF             
MTR06947000001000000000000000RA              79059041    005801780000017800000360000003NN  NNW 000                       N    
RDG06947000WATRL000000004R00000000000000003000011202015095540N000300000010N01       000140400R 10000000010000000000           
RFF0694700070267436      ERT      0000  956.44375000140000112020150955400000035960100W 1220000N                               
CUS0694700000106103808009         TAYLORSON DIANA E   3221 LYNCH RD                           000N        CARE OF             
MTR06947000001000000000000000RA              99999999    005801790000017900000610000003NN  NNW 000                       N    
RDG06947000WATRL000000004K00000000000001147002012072015080151N000000000000U45       000630400K 10000000010000001128           
CUS0694700000106411733006         SECRETARY OF HOUSING3223 LYNCH RD                           000N        CARE OF             
MTR06947000001000000000000000RA              79057866    005801800000018000000360000003NN  NNW 000   VACANT / LOT        N    
RDG06947000WATRL000000004R00000000000000000000011202015095604N000100000010N01       000130400R 10000000010000000000           
RFF0694700070279671      ERT      0000  956.44375000140000112020150956040000000020100W 1220000N                               
CUS0694700000106103809007         RUDACILLE RAYMOND S 3225 LYNCH RD                           000N        CARE OF             
MTR06947000001000000000000000RA              79059024    005801810000018100000360000003NN  NNW 000                       N    
RDG06947000WATRL000000004R00000000000000006000011202015095558N000300000010N01       000130400R 10000000010000000000           
RFF0694700070267458      ERT      0000  956.44375000140000112020150955580000063070100W 1220000N                               
CUS0694700000106103810005         BEALL JOHN I,JR     3227 LYNCH RD                           000N        CARE OF             
MTR06947000001000000000000000RA              79057935    005801820000018200000360000003NN  NNW 000                       N    
RDG06947000WATRL000000004R00000000000000003000011202015095606N000300000010N01       000130400R 10000000010000000000           
RFF0694700070270672      ERT      0000  956.44375000140000112020150956060000031358100W 1220000N                               
CUS0694700000106103811003         SMITH WALTER J      3229 LYNCH RD                           000N        CARE OF             
MTR06947000001000000000000000RA              78005682    005801830000018300000360000003NN  NNW 000                       N    
RDG06947000WATRL000000004K00000000000000008002112072015080305N000000000010U45       000740400K 10000000010000000000           
CUS0694700000106103812001         MOYER THERESA D     3231 LYNCH RD                           000N        CARE OF             
MTR06947000001000000000000000RA              21194293    005801840000018400000520000003NY  NNW 000                       N    
MTM0694700021194293    79059025                                                                                               
RDG06947000WATRL000000004K00000000000000005002212072015080426N000300000010U45       000810400K 10000000010000004202           
CUS0694700000106103813009         COBURN MICHAEL G    3233 LYNCH RD                           000N        CARE OF             
MTR06947000001000000000000000RA              42809326    005801850000018500000520000003NY  NNW 000                       N    
MTM0694700042809326    79059043                                                                                               
RDG06947000WATRL000000004K00000000000000002002312072015080511N000300000010U45       000450400K 10000000010000001227           
CUS0694700000106103814007         WEBER NORMA J       3212 LYNCH RD                           000N        CARE OF             
MTR06947000001000000000000000RA              79057945    005801860000018600000360000003NN  NNW 000                       N    
RDG06947000WATRL000000004R00000000000000001000011202015095504N000300000010N01       000130400R 10000000010000000000           
RFF0694700070244513      ERT      0000  956.44375000140000112020150955040000010953100W 1220000N                               
CUS0694700000106103815004         MICHALSKI MICHAEL J 3210 LYNCH RD                           000N        CARE OF             
MTR06947000001000000000000000RA              79057869    005801870000018700000360000003NN  NNW 000                       N    
RDG06947000WATRL000000004R00000000000000000000011202015095428N000100000010N01       000130400R 10000000010000000000           
RFF0694700070279669      ERT      0000  956.44375000140000112020150954280000000019100W 1220000N                               
CUS0694700000106103816002         SHIFLETT RANDALL E  3208 LYNCH RD                           000N        CARE OF             
MTR06947000001000000000000000RA              79057940    005801880000018800000360000003NN  NNW 000                       N    
RDG06947000WATRL000000004R00000000000000009000011202015095452N000300000010N01       000130400R 10000000010000000000           
RFF0694700070270656      ERT      0000  956.44375000140004112020150954520000090597100W 1220000N                               
CUS0694700000106103817000         SMITH JUANITA       3206 LYNCH RD                           000N        CARE OF             
MTR06947000001000000000000000RA              79057874    005801890000018900000360000003NN  NNW 000                       N    
RDG06947000WATRL000000004R00000000000000001000011202015095456N000300000010N01       000130400R 10000000010000000000           
RFF0694700070279651      ERT      0000  956.44375000140000112020150954560000015383100W 1220000N                               
CUS0694700000106103818008         EBERT MICHAEL LOUIS 3202 LYNCH RD                           000N        CARE OF             
MTR06947000001000000000000000RA              76344925    005801900000019000000350000003NN  NNW 000                       N    
RDG06947000WATRL000000004R00000000000000200000011202015095430N000300000010N01       000140400R 10000000010000000195           
RFF0694700070092163      ERT      0000  956.44375000140000112020150954300002005524100W 1220000N                               
CUS0694700000106103819006         JANISZEWSKI GARY J  3200 LYNCH RD                           000N        CARE OF             
MTR06947000001000000000000000RA              79057938    005801910000019100000360000003NN  NNW 000                       N    
RDG06947000WATRL000000004R00000000000000003000011202015095456N000300000010N01       000130400R 10000000010000000000           
RFF0694700070244498      ERT      0000  956.44375000140000112020150954560000037441100W 1220000N                               
CUS0694700000106103820004         COLLIER WILLIAM W   3118 LYNCH RD                           000N        CARE OF             
MTR06947000001000000000000000RA              79060783    005801920000019200000360000003NN  NNW 000                       N    
RDG06947000WATRL000000004R00000000000000004000011202015095500N000300000010N01       000130400R 10000000010000000000           
RFF0694700070281026      ERT      0000  956.44375000140000112020150955000000040908100W 1220000N                               
CUS0694700000106103821002         SALVINO MARIE R     3116 LYNCH RD                           000N        CARE OF             
MTR06947000001000000000000000RA              79057871    005801930000019300000360000003NN  NNW 000                       N    
RDG06947000WATRL000000004R00000000000000002000011202015095452N000300000010N01       000130400R 10000000010000000000           
RFF0694700070279584      ERT      0000  956.44375000140000112020150954520000028036100W 1220000N                               
CUS0694700000106103822000         BILLINGS WAYNE HOWAR3114 LYNCH RD                           000N        CARE OF             
MTR06947000001000000000000000RA              79057946    005801940000019400000360000003NN  NNW 000                       N    
RDG06947000WATRL000000004R00000000000000004000011202015095456N000300000010N01       000130400R 10000000010000000000           
RFF0694700070244534      ERT      0000  956.44375000140000112020150954560000049088100W 1220000N                               
CUS0694700000106103823008         WOLFKILL ALBERT E   3112 LYNCH RD                           000N        CARE OF             
MTR06947000001000000000000000RA              79059042    005801950000019500000360000003NN  NNW 000                       N    
RDG06947000WATRL000000004R00000000000000001000011202015095508N000300000010N01       000130400R 10000000010000000000           
RFF0694700070274877      ERT      0000  956.44375000140008112020150955080000019212100W 1220000N                               
CUS0694700000106103824006         HARTSOCK HELEN D    3110 LYNCH RD                           000N        CARE OF             
MTR06947000001000000000000000RA              79060684    005801960000019600000360000003NN  NNW 000                       N    
RDG06947000WATRL000000004R00000000000000004000011202015095414N000300000010N01       000130400R 10000000010000000000           
RFF0694700070281047      ERT      0000  956.44375000140000112020150954140000041686100W 1220000N                               
CUS0694700000106103825003         1735 SEARLES LLC    3106-1/2 LYNCH RD                       000N        CARE OF             
MTR06947000001000000000000000RA              79057922    005801970000019700000360000003NN  NNW 000                       N    
RDG06947000WATRL000000004R00000000000000003000011202015095512N000300000010N01       000140400R 10000000010000000000           
RFF0694700070244539      ERT      0000  956.44375000140000112020150955120000036259100W 1220000N                               
CUS0694700000106103826001         FORD GARY LEWIS     3108 LYNCH RD                           000N        CARE OF             
MTR06947000001000000000000000RA              79060824    005801980000019800000360000003NN  NNW 000                       N    
RDG06947000WATRL000000004R00000000000000006000011202015095358N000300000010N01       000130400R 10000000010000000000           
RFF0694700070272563      ERT      0000  956.44375000140000112020150953580000064416100W 1220000N                               
CUS0694700000106103827009         COFFMAN RONALD H    3106 LYNCH RD                           000N        CARE OF             
MTR06947000001000000000000000RA              79057937    005801990000019900000360000003NN  NNW 000                       N    
RDG06947000WATRL000000004R00000000000000003000011202015095436N000300000010N01       000130400R 10000000010000000000           
RFF0694700070244527      ERT      0000  956.44375000140000112020150954360000030188100W 1220000N                               
CUS0694700000106103828007         DORIS HOOK          3104 LYNCH RD                           000N        CARE OF             
MTR06947000001000000000000000RA              79060818    005802000000020000000360000003NN  NNW 000                       N    
RDG06947000WATRL000000004R00000000000000003000011202015095408N000300000010N01       000130400R 10000000010000000000           
RFF0694700070272529      ERT      0000  956.44375000140000112020150954080000033024100W 1220000N                               
CUS0694700000106103829005         BURGESS QUINN A     3102 LYNCH RD                           000N        CARE OF             
MTR06947000001000000000000000RA              79057862    005802010000020100000360000003NN  NNW 000                       N    
RDG06947000WATRL000000004R00000000000000001000011202015095526N000300000010N01       000130400R 10000000010000000000           
RFF0694700070244303      ERT      0000  956.44375000140000112020150955260000012063100W 1220000N                               
CUS0694700000106103830003         JEFF ROSE           3100 LYNCH RD                           000N        CARE OF             
