FHDNNNN029005722005722005722N                                                                                           019355
RHD08561800NN02000200000002000000000002000200000187NY020002000200000000010000000000000000000002    11032015NY020000 N         
CUS0856180000108024138003         MCLEOD MATTIE E     1401 DORCHESTER AVE                     000N        CARE OF             
MTR08561800001000000000000000RA              45376769    005800010000000100000520000003NN  NNW 000                       N    
RDG08561800WATRL000000004K00000000000001083000111122015085919N000400000010N83       000000400K 10000000010000001080           
CUS0856180000108024139001         CHARNLEY RICHARD H  1403 DORCHESTER AVE                     000N        CARE OF             
MTR08561800001000000000000000RA              11427281    005800020000000200000570000003NN  NNW 000                       N    
RDG08561800WATRL000000004K00000000000003936000211202015084710O000000000010N80       000580400K 10000000010000003918           
CUS0856180000108024140009         MCLEOD NORMAN B     1407 DORCHESTER AVE                     000N        CARE OF             
MTR08561800001000000000000000RA              01076105    005800030000000300000610000003NN  NNW 000                       N    
RDG08561800WATRL000000004K00000000000000559000311122015090057N000000000000N83       000400400K 10000000010000000555           
CUS0856180000108024141007         ZAGHAB ALI          1410 DORCHESTER AVE                     000N        CARE OF             
MTR08561800001000000000000000RA              36691398    005800040000000400000520000003NN  NNW 000   VACANT / LOT        N    
RDG08561800WATRL000000004K00000000000002817000411122015090127N000000000000N83       000300400K 10000000010000002817           
CUS0856180000108024142005         SHILLINGBURG CHERYL 1408 DORCHESTER AVE                     000N        CARE OF             
MTR08561800001000000000000000RA              50791331    005800050000000500000520000003NN  NNW 000                       N    
RDG08561800WATRL000000004K00000000000001746000511202015084741O000400000010N80       000270400K 10000000010000001726           
CUS0856180000108024143003         SHANA G BENEDICT    1406 DORCHESTER AVE                     000N        CARE OF             
MTR08561800001000000000000000RA              30526006    005800060000000600000520000003NN  NNW 000                       N    
RDG08561800WATRL000000004K00000000000002830000611122015090214N000000000000N83       000200400K 10000000010000002825           
CUS0856180000108024144001         BOLDING SHIRLEY REGI1400 DORCHESTER AVE                     000N        CARE OF             
MTR08561800001000000000000000RA              01075499    005800070000000700000610000003NN  NNW 000                       N    
RDG08561800WATRL000000004K00000000000001112000711122015090322N000000000000N83       000680400K 10000000010000001087           
CUS0856180000108024145008         HUGGINS LISA ROLINE 5932 HARFORD AVE                        000N        CARE OF             
MTR08561800001000000000000000RA              41589640    005800080000000800000520000003NN  NNW 000                       N    
RDG08561800WATRL000000004K00000000000001581000811122015090406N000000000000N83       000440400K 10000000010000001567           
CUS0856180000108024146006         SINGLETON BEVERLY   5934 HARFORD AVE                        000N        CARE OF             
MTR08561800001000000000000000RA              35115833    005800090000000900000520000003NN  NNW 000                       N    
RDG08561800WATRL000000004K00000000000004426000911122015090434N000000000000N83       000280400K 10000000010000004396           
CUS0856180000108024147004         WOOD JOHN E         5936 HARFORD AVE                        000N        CARE OF             
MTR08561800001000000000000000RA              21202718    005800100000001000000520000003NN  NNW 000                       N    
RDG08561800WATRL000000004K00000000000005467001011122015090516N000000000000N83       000420400K 10000000010000005448           
CUS0856180000108024148002         TANG HEE LING       5938 HARFORD AVE                        000N        CARE OF             
MTR08561800001000000000000000RA              24773162    005800110000001100000520000003NN  NNW 000                       N    
RDG08561800WATRL000000004K00000000000005240001111122015090534N000000000000N83       000180400K 10000000010000005231           
CUS0856180000108024149000         SMITH GEORGE O      5940 HARFORD AVE                        000N        CARE OF             
MTR08561800001000000000000000RA              01076102    005800120000001200000610000003NN  NNW 000                       N    
RDG08561800WATRL000000004K00000000000001367001211122015090557N000000000000N83       000230400K 10000000010000001350           
CUS0856180000108024150008         JACKSON TIFFANY     5944 HARFORD AVE                        000N        CARE OF             
MTR08561800001000000000000000RA              46881150    005800130000001300000520000003NN  NNW 000                       N    
RDG08561800WATRL000000004K00000000000002558001311122015090620N000000000000N83       000230400K 10000000010000002543           
CUS0856180000108348808000         HAMLIN HEYWARD BROOK5948 HARFORD AVE                        000N        CARE OF             
MTR08561800001000000000000000RA              27818141    005800140000001400000520000003NN  NNW 000                       N    
RDG08561800WATRL000000004K00000000000003202001411122015090730N000000000000N83       000700400K 10000000010000003183           
CUS0856180000108359234005         HESS ANTHONY R      5938 CHARLES ST                         000N        CARE OF             
MTR08561800001000000000000000RA              29682876    005800150000001500000520000003NN  NNW 000                       N    
RDG08561800WATRL000000004K00000000000000748001511122015090756N000000000000N83       000260400K 10000000010000000725           
CUS0856180000108024153002         MCEACHIN CLIFFORD   5947 HARFORD AVE                        000N        CARE OF             
MTR08561800001000000000000000RA              75424413    005800160000001600000350000003NN  NNW 000                       N    
RDG08561800WATRL000000004K00000000000000411001611202015084802O000000000010N80       000590400K 10000000010000000377           
CUS0856180000108024154000         GROGAN PAUL F  GROGA5945 HARFORD AVE                        000N        CARE OF             
MTR08561800001000000000000000RA              01076107    005800170000001700000610000003NN  NNW 000                       N    
RDG08561800WATRL000000004K00000000000001713001711122015090942N000400000010N83       000470400K 10000000010000001699           
CUS0856180000108024155007         SHAW ALICIA M       5941 HARFORD AVE                        000N        CARE OF             
MTR08561800001000000000000000RA              01076108    005800180000001800000610000003NN  NNW 000                       N    
RDG08561800WATRL000000004K00000000000001137001811122015091026N000000000000N83       000440400K 10000000010000001123           
CUS0856180000108024156005         DORSEY GEROLD S JR  5939 HARFORD AVE                        000N        CARE OF             
MTR08561800001000000000000000RA              54352001    005800190000001900000520000003NN  NNW 000                       N    
RDG08561800WATRL000000004K00000000000001048001911122015091052N000000000000N83       000260400K 10000000010000001035           
CUS0856180000108024157003         EDWARDS EARNEST     5937 HARFORD AVE                        000N        CARE OF             
MTR08561800001000000000000000RA              19461106    005800200000002000000520000003NN  NNW 000                       N    
RDG08561800WATRL000000004K00000000000003745002011122015091124N000400000010N83       000320400K 10000000010000003742           
CUS0856180000108024158001         MOMEN SHARAB        5935 HARFORD AVE                        000N        CARE OF             
MTR08561800001000000000000000RA              36691400    005800210000002100000520000003NN  NNW 000                       N    
RDG08561800WATRL000000004K00000000000001588002111122015091215N000100000010N83       000510400K 10000000010000001588           
CUS0856180000108024159009         HENRIETTA J CRUDUP  5933 HARFORD AVE                        000N        CARE OF             
MTR08561800001000000000000000RA              01076100    005800220000002200000610000003NN  NNW 000                       N    
RDG08561800WATRL000000004K00000000000000841002211122015091254N000400000010N83       000390400K 10000000010000000840           
CUS0856180000108024160007         DICKINSON DANIEL A  1326 DORCHESTER AVE                     000N        CARE OF             
MTR08561800001000000000000000RA              39289632    005800230000002300000520000003NN  NNW 000                       N    
RDG08561800WATRL000000004K00000000000002062002311122015091355N000000000000N83       000610400K 10000000010000002043           
CUS0856180000108024175005         COMMINS WILLIAM W   1325 DORCHESTER AVE                     000N        CARE OF             
MTR08561800001000000000000000RA              44090985    005800240000002400000520000003NN  NNW 000                       N    
RDG08561800WATRL000000004K00000000000002635004811122015093456N000000000000N83       001400400K 10000000010000002616           
CUS0856180000108024161005         WRIGHT JOHN CHARLES,5919 HARFORD AVE                        000N        CARE OF             
MTR08561800001000000000000000RA              01079465    005800250000002500000610000003NN  NNW 000                       N    
RDG08561800WATRL000000004K00000000000000932004911122015093520N000000000000N83       000240400K 10000000010000000914           
CUS0856180000108024162003         BAAH JOSEPH L       5917 HARFORD AVE                        000N        CARE OF             
MTR08561800001000000000000000RA              46881153    005800260000002600000520000003NN  NNW 000                       N    
RDG08561800WATRL000000004K00000000000001398005011122015093545N000100000010N83       000250400K 10000000010000001398           
CUS0856180000108400603000         ROOTS ARTAVIA       5915 HARFORD AVE                        000N        CARE OF             
MTR08561800001000000000000000RA              01079913    005800270000002700000610000003NN  NNW 000                       N    
RDG08561800WATRL000000004K00000000000001464005111122015093609N000400000010N83       000240400K 10000000010000001453           
CUS0856180000108400589001         MENSAH CHARLES Q    5913 HARFORD AVE                        000N        CARE OF             
MTR08561800001000000000000000RA              41589531    005800280000002800000520000003NN  NNW 000                       N    
RDG08561800WATRL000000004K00000000000002660005211122015093621N000000000000N83       000120400K 10000000010000002648           
CUS0856180000108024163001         BELL MITCHELL L     5909 HARFORD AVE                        000N        CARE OF             
MTR08561800001000000000000000RA              54352011    005800290000002900000520000003NN  NNW 000                       N    
RDG08561800WATRL000000004K00000000000002073005311122015093646N000000000000N83       000250400K 10000000010000002061           
CUS0856180000108024164009         HUGHES ANDREW S     5901 HARFORD AVE                        000N        CARE OF             
MTR08561800001000000000000000RA              26000567    005800300000003000000520000003NN  NNW 000                       N    
RDG08561800WATRL000000004K00000000000002215005411122015093727N000000000010N83       000410400K 10000000010000002210           
CUS0856180000108024088000         MCDERMOTT WANDA     1408 INGLESIDE AVE                      000N        CARE OF             
MTR08561800001000000000000000RA              19460851    005800310000003100000520000003NN  NNW 000                       N    
RDG08561800WATRL000000004K00000000000004954005511202015084831O000000000010N80       000440400K 10000000010000004950           
CUS0856180000108024165006         LASHLEY DEWAYNE A   1406 INGLESIDE AVE                      000N        CARE OF             
MTR08561800001000000000000000RA              46881176    005800320000003200000520000003NN  NNW 000                       N    
RDG08561800WATRL000000004K00000000000001258005611122015093829N000400000010N83       000180400K 10000000010000001246           
CUS0856180000108024166004         CHAMBERS KEVIN M    1404 INGLESIDE AVE                      000N        CARE OF             
MTR08561800001000000000000000RA              01079464    005800330000003300000610000003NN  NNW 000                       N    
RDG08561800WATRL000000004K00000000000001484005711122015093959N000000000000N83       000900400K 10000000010000001432           
CUS0856180000108385614006         LOI HUU VO          1402 INGLESIDE AVE                      000N        CARE OF             
MTR08561800001000000000000000RA              35108475    005800340000003400000520000003NN  NNW 000                       N    
RDG08561800WATRL000000004K00000000000002989005811202015084910O000400000010N80       000430400K 10000000010000002946           
CUS0856180000108024167002         DONTE A JOYNER      1400 INGLESIDE AVE                      000N        CARE OF             
MTR08561800001000000000000000RA              01079466    005800350000003500000610000003NN  NNW 000                       N    
RDG08561800WATRL000000004K00000000000000953005911122015094116N000400000010N83       000340400K 10000000010000000938           
CUS0856180000108024168000         HECKROTTE KATHLEEN D5900 CHARLES ST                         000N        CARE OF             
MTR08561800001000000000000000RA              44178808    005800360000003600000520000003NN  NNW 000                       N    
RDG08561800WATRL000000004K00000000000001224006411122015094520N000400000010N83       000350400K 10000000010000001215           
CUS0856180000108024169008         PHELPS LORI A       5904 CHARLES ST                         000N        CARE OF             
MTR08561800001000000000000000RA              25780627    005800370000003700000520000003NN  NNW 000                       N    
RDG08561800WATRL000000004K00000000000003547006511122015094608N000000000000N83       000480400K 10000000010000003542           
CUS0856180000108024170006         RIDDICK MARSHALL,JR 5908 CHARLES ST                         000N        CARE OF             
MTR08561800001000000000000000RA              41589532    005800380000003800000520000003NN  NNW 000                       N    
RDG08561800WATRL000000004K00000000000002706006911122015094831N000000000000N83       000240400K 10000000010000002681           
CUS0856180000108024171004         FIKE KIMBERLY L     5912 CHARLES ST                         000N        CARE OF             
MTR08561800001000000000000000RA              33735838    005800390000003900000520000003NN  NNW 000                       N    
RDG08561800WATRL000000004K00000000000002832007011122015094852N000000000000N83       000210400K 10000000010000002793           
CUS0856180000108024172002         BROPHY RICHARD R, 3R5918 CHARLES ST                         000N        CARE OF             
MTR08561800001000000000000000RA              35110041    005800400000004000000520000003NN  NNW 000                       N    
RDG08561800WATRL000000004K00000000000002648007311122015095030N000400000010N83       000390400K 10000000010000002606           
CUS0856180000108024173000         MOHAMED MOHAMED WAGD5920 CHARLES ST                         000N        CARE OF             
MTR08561800001000000000000000RA              46879099    005800410000004100000520000003NN  NNW 000                       N    
RDG08561800WATRL000000004K00000000000002300007411122015095112N000000000000N83       000420400K 10000000010000002266           
CUS0856180000108024176003         WILLIAMS JEAN       1324 DORCHESTER AVE                     000N        CARE OF             
MTR08561800001000000000000000RA              31587152    005800420000004200000520000003NN  NNW 000                       N    
RDG08561800WATRL000000004K00000000000001830002411122015091451N000000000000N83       000560400K 10000000010000001817           
CUS0856180000108024177001         LANCASTER JAMES R   1322 DORCHESTER AVE                     000N        CARE OF             
MTR08561800001000000000000000RA              35106506    005800430000004300000520000003NN  NNW 000                       N    
RDG08561800WATRL000000004K00000000000002909002511122015091515N000000000000N83       000240400K 10000000010000002891           
CUS0856180000108024178009         KINZER ROBERTA M    1316 DORCHESTER AVE                     000N        CARE OF             
MTR08561800001000000000000000RA              01078571    005800440000004400000610000003NN  NNW 000                       N    
RDG08561800WATRL000000004K00000000000001577002611122015091544N000000000000N83       000290400K 10000000010000001559           
CUS0856180000108024174008         NATIONAL CENTER ON I5926 CHARLES ST                         000N        CARE OF             
MTR08561800001000000000000000RA              01078019    005800450000004500000610000003NN  NNW 000                       N    
RDG08561800WATRL000000004K00000000000003003007711122015095334N000300000010N83       000710400K 10000000010000002928           
CUS0856180000108024179007         MARTIN NORMA LEE    5928 CHARLES ST                         000N        CARE OF             
MTR08561800001000000000000000RA              54351989    005800460000004600000520000003NN  NNW 000                       N    
RDG08561800WATRL000000004K00000000000000856007811122015095414N000300000010N83       000400400K 10000000010000000839           
CUS0856180000108024180005         MORLOCK MARSHELLE A 5930 CHARLES ST                         000N        CARE OF             
MTR08561800001000000000000000RA              01078374    005800470000004700000610000003NN  NNW 000                       N    
RDG08561800WATRL000000004K00000000000001673007911122015095600N000300000010N83       001060400K 10000000010000001574           
CUS0856180000108024181003         ARGUETA JOSE SERGIO 5932 CHARLES ST                         000N        CARE OF             
MTR08561800001000000000000000RA              10012006    005800480000004800000570000003NN  NNW 000                       N    
RDG08561800WATRL000000004K00000000000001449008011122015095640N000300000010N83       000400400K 10000000010000001370           
CUS0856180000108420087002         HAGGERTY LAEVER V   5934 CHARLES ST                         000N        CARE OF             
MTR08561800001000000000000000RA              48594986    005800490000004900000520000003NN  NNW 000                       N    
RDG08561800WATRL000000004K00000000000001577008111122015095734N000300000010N83       000540400K 10000000010000001587           
CUS0856180000108420088000         CARR GARY           5941 CHARLES ST                         000N        CARE OF             
MTR08561800001000000000000000RA              10013884    005800500000005000000570000003NN  NNW 000                       N    
RDG08561800WATRL000000004K00000000000000631008511122015100057N000300000010N83       000610400K 10000000010000000568           
CUS0856180000108394243003         WILSON LAWRENCE R   5937 CHARLES ST                         000N        CARE OF             
MTR08561800001000000000000000RA              39291961    005800510000005100000520000003NN  NNW 000                       N    
RDG08561800WATRL000000004K00000000000002200008611122015100151N000300000010N83       000540400K 10000000010000002149           
CUS0856180000108024192000         STOKES CHARLES P    5931 CHARLES ST                         000N        CARE OF             
MTR08561800001000000000000000RA              32903073    005800520000005200000520000003NN  NNW 000                       N    
RDG08561800WATRL000000004K00000000000003959008711122015100221N000300000010N83       000300400K 10000000010000003910           
CUS0856180000108024193008         PARKER DOROTHY REE  5929 CHARLES ST                         000N        CARE OF             
MTR08561800001000000000000000RA              14900906    005800530000005300000310000003NN  NNW 000                       N    
RDG08561800WATRL000000004K00000000000002334008811122015100241N000300000010N83       000200400K 10000000010000002254           
CUS0856180000108024194006         RODRIGUEZ DENIS R   5927 CHARLES ST                         000N        CARE OF             
MTR08561800001000000000000000RA              01078359    005800540000005400000610000003NN  NNW 000                       N    
RDG08561800WATRL000000004K00000000000000919008911122015100315N000300000010N83       000340400K 10000000010000000891           
CUS0856180000108024195003         BOONE SHIRLEY M     5925 CHARLES ST                         000N        CARE OF             
MTR08561800001000000000000000RA              52288752    005800550000005500000520000003NN  NNW 000                       N    
RDG08561800WATRL000000004K00000000000000909009011122015100347N000300000010N83       000320400K 10000000010000000886           
CUS0856180000108024196001         GEARY JAMES J       1323 DORCHESTER AVE                     000N        CARE OF             
MTR08561800001000000000000000RA              01078376    005800560000005600000610000003NN  NNW 000                       N    
RDG08561800WATRL000000004K00000000000000912007611122015095223N000400000010N83       000360400K 10000000010000000896           
CUS0856180000108024197009         BRINK DONNA JEAN    5915 CHARLES ST                         000N        CARE OF             
MTR08561800001000000000000000RA              33736074    005800570000005700000520000003NN  NNW 000                       N    
RDG08561800WATRL000000004K00000000000002394007511122015095147N000000000000N83       000350400K 10000000010000002383           
CUS0856180000108024198007         GRESHAM JAMES E/BETT5913 CHARLES ST                         000N        CARE OF             
MTR08561800001000000000000000RA              32177767    005800580000005800000520000003NN  NNW 000                       N    
RDG08561800WATRL000000004K00000000000002318007211122015094951N000000000000N83       000280400K 10000000010000002291           
CUS0856180000108024199005         LEMUS LUZ I         5911 CHARLES ST                         000N        CARE OF             
MTR08561800001000000000000000RA              01078262    005800590000005900000610000003NN  NNW 000                       N    
RDG08561800WATRL000000004K00000000000001978007111122015094923N000000000000N83       000310400K 10000000010000001945           
CUS0856180000108024200001         EL HANI SEDDIQ      5909 CHARLES ST                         000N        CARE OF             
MTR08561800001000000000000000RA              99286398    005800600000006000000570000003NN  NNW 000                       N    
RDG08561800WATRL000000004K00000000000000824006811122015094807N000400000010N83       000420400K 10000000010000000821           
CUS0856180000108024201009         RIESNER STEPHEN C   5907 CHARLES ST                         000N        CARE OF             
MTR08561800001000000000000000RA              44091498    005800610000006100000520000003NN  NNW 000                       N    
RDG08561800WATRL000000004K00000000000001417006711202015085018O000000000010N80       000270400K 10000000010000001397           
CUS0856180000108024202007         ROSS CLARENCE       5905 CHARLES ST                         000N        CARE OF             
MTR08561800001000000000000000RA              01078528    005800620000006200000610000003NN  NNW 000                       N    
RDG08561800WATRL000000004K00000000000003327006611122015094658N000000000000N83       000500400K 10000000010000003316           
CUS0856180000108024203005         FETTER CHAD A       5903 CHARLES ST                         000N        CARE OF             
MTR08561800001000000000000000RA              01078522    005800630000006300000610000003NN  NNW 000                       N    
RDG08561800WATRL000000004K00000000000001474006311122015094445N000400000010N83       000300400K 10000000010000001451           
CUS0856180000108385364008         HAZZARD MILTON L    1332 INGLESIDE AVE                      000N        CARE OF             
MTR08561800001000000000000000RA              35106214    005800640000006400000520000003NN  NNW 000                       N    
RDG08561800WATRL000000004K00000000000001122006211202015085044O000000000010N80       000600400K 10000000010000001118           
CUS0856180000108024269006         FELIX IKE           1330 INGLESIDE AVE                      000N        CARE OF             
MTR08561800001000000000000000RA              99291730    005800650000006500000570000003NN  NNW 000                       N    
RDG08561800WATRL000000004K00000000000002446006011122015094246N000000000000N83       000900400K 10000000010000002415           
CUS0856180000108024270004         COSTELLO YAPHETTE OM1328 INGLESIDE AVE                      000N        CARE OF             
MTR08561800001000000000000000RA              44090980    005800660000006600000520000003NN  NNW 000                       N    
RDG08561800WATRL000000004K00000000000002307006111122015094315N000000000000N83       000290400K 10000000010000002298           
CUS0856180000108024204003         DUBOSE THERESA M    5900 MONTGOMERY ST                      000N        CARE OF             
MTR08561800001000000000000000RA              01078520    005800670000006700000610000003NN  NNW 000                       N    
RDG08561800WATRL000000004K00000000000001093003811122015092500N000000000000N83       000450400K 10000000010000001078           
CUS0856180000108024205000         ANTHONY D COLANTUONO5902 MONTGOMERY ST                      000N        CARE OF             
MTR08561800001000000000000000RA              32778419    005800680000006800000520000003NN  NNW 000                       N    
RDG08561800WATRL000000004K00000000000001544003911122015092552N000000000000N83       000520400K 10000000010000001526           
CUS0856180000108024206008         HOUGH EMMA  HOUGH DA5904 MONTGOMERY ST                      000N        CARE OF             
MTR08561800001000000000000000RA              39289503    005800690000006900000520000003NN  NNW 000                       N    
RDG08561800WATRL000000004K00000000000003861004011122015092736N000000000000N83       001040400K 10000000010000003840           
CUS0856180000108024207006         ALLAIN JENNIFER R   5906 MONTGOMERY ST                      000N        CARE OF             
MTR08561800001000000000000000RA              01078570    005800700000007000000610000003NN  NNW 000                       N    
RDG08561800WATRL000000004K00000000000001110004111122015092821N000400000010N83       000450400K 10000000010000001100           
CUS0856180000108024208004         DEZURN EDDIE,JR     5908 MONTGOMERY ST                      000N        CARE OF             
MTR08561800001000000000000000RA              01078985    005800710000007100000610000003NN  NNW 000                       N    
RDG08561800WATRL000000004K00000000000002050004211122015092848N000000000000N83       000270400K 10000000010000002012           
CUS0856180000108403729000         FELTS MAJOR P/COLEY 5910 MONTGOMERY ST                      000N        CARE OF             
MTR08561800001000000000000000RA              44090042    005800720000007200000520000003NN  NNW 000                       N    
RDG08561800WATRL000000004K00000000000003956004311122015092925N000400000010N83       000370400K 10000000010000003935           
CUS0856180000108024209002         FEDERAL NATIONAL MOR5912 MONTGOMERY ST                      000N        CARE OF             
MTR08561800001000000000000000RA              29685082    005800730000007300000520000003NN  NNW 000                       N    
RDG08561800WATRL000000004K00000000000003479004411122015092947N000000000000N83       000220400K 10000000010000003474           
CUS0856180000108024210000         ESMOLO NELLY R      5914 MONTGOMERY ST                      000N        CARE OF             
MTR08561800001000000000000000RA              99188418    005800740000007400000570000003NN  NNW 000                       N    
RDG08561800WATRL000000004K00000000000002087004511122015093052N000000000000N83       000650400K 10000000010000002066           
CUS0856180000108024211008         KIARA KING          5916 MONTGOMERY ST                      000N        CARE OF             
MTR08561800001000000000000000RA              40322166    005800750000007500000520000003NN  NNW 000                       N    
RDG08561800WATRL000000004K00000000000003130004611122015093140N000000000000N83       000480400K 10000000010000003109           
CUS0856180000108024214002         MARSHADA CHAPMAN    1321 DORCHESTER AVE                     000N        CARE OF             
MTR08561800001000000000000000RA              01079072    005800760000007600000610000003NN  NNW 000                       N    
RDG08561800WATRL000000004K00000000000001532004711122015093236N000000000000N83       000560400K 10000000010000001501           
CUS0856180000108024215009         SANDS JOHN L        1314 DORCHESTER AVE                     000N        CARE OF             
MTR08561800001000000000000000RA              01079075    005800770000007700000610000003NN  NNW 000                       N    
RDG08561800WATRL000000004K00000000000002109002711122015091646N000000000000N83       000620400K 10000000010000002092           
CUS0856180000108024216007         LECATO MARGARET     1312 DORCHESTER AVE                     000N        CARE OF             
MTR08561800001000000000000000RA              52770360    005800780000007800000520000003NN  NNW 000                       N    
RDG08561800WATRL000000004K00000000000001207002811122015091730N000400000010N83       000440400K 10000000010000001191           
CUS0856180000108024217005         SEWELL GERALD P     1310 DORCHESTER AVE                     000N        CARE OF             
MTR08561800001000000000000000RA              46881452    005800790000007900000520000003NN  NNW 000                       N    
RDG08561800WATRL000000004K00000000000001360002911122015091817N000000000000N83       000470400K 10000000010000001352           
CUS0856180000108024218003         SALAAM-BLYTHER TIAJI5920 MONTGOMERY ST                      000N        CARE OF             
MTR08561800001000000000000000RA              29680745    005800800000008000000520000003NN  NNW 000                       N    
RDG08561800WATRL000000004K00000000000003453000111162015093831N000000000000U83       000000400K 10000000010000003429           
CUS0856180000108024212006         HUSSEN AZMI E       5920-1/2 MONTGOMERY AVE                 000N        CARE OF             
MTR08561800001000000000000000RA              01078983    005800810000008100000610000003NN  NNW 000                       N    
RDG08561800WATRL000000004K00000000000002182000211162015094036N000400000010U83       001250400K 10000000010000002154           
CUS0856180000108024213004         HICKS LENORA A      5922 MONTGOMERY ST                      000N        CARE OF             
MTR08561800001000000000000000RA              27655686    005800820000008200000520000003NN  NNW 000                       N    
RDG08561800WATRL000000004K00000000000002473000311162015094128N000000000000U83       000520400K 10000000010000002463           
CUS0856180000108024219001         CRONIN LELIA E      5924 MONTGOMERY ST                      000N        CARE OF             
MTR08561800001000000000000000RA              77891586    005800830000008300000360000003NN  NNW 000                       N    
RDG08561800WATRL000000004K00000000000000011000411162015094154N000000000010U83       000260400K 10000000010000000000           
CUS0856180000108024222005         SNOWDEN N NADINE    5926 MONTGOMERY ST                      000N        CARE OF             
MTR08561800001000000000000000RA              10015228    005800840000008400000570000003NN  NNW 000                       N    
RDG08561800WATRL000000004K00000000000000239000511162015094238N000300000010U83       000440400K 10000000010000000211           
CUS0856180000108024220009         SISTRUNK TANYA N    5928 MONTGOMERY ST                      000N        CARE OF             
MTR08561800001000000000000000RA              19459450    005800850000008500000520000003NN  NNW 000                       N    
RDG08561800WATRL000000004K00000000000001947000611202015085116O000000000010U80       000220400K 10000000010000001937           
CUS0856180000108024221007         LEWIS LISA          5930 MONTGOMERY ST                      000N        CARE OF             
MTR08561800001000000000000000RA              36690889    005800860000008600000520000003NN  NNW 000                       N    
RDG08561800WATRL000000004K00000000000001326000711162015094337N000300000010U83       000370400K 10000000010000001306           
CUS0856180000108386158003         QINGLI LIN          1309 KENT AVE                           000N        CARE OF             
MTR08561800001000000000000000RA              35110212    005800870000008700000520000003NN  NNW 000                       N    
RDG08561800WATRL000000004K00000000000003322000811162015094430N000000000000U83       000530400K 10000000010000003315           
CUS0856180000108024182001         ROBINSON KENNETH WAR1311 KENT AVE                           000N        CARE OF             
MTR08561800001000000000000000RA              24228088    005800880000008800000520000003NN  NNW 000                       N    
RDG08561800WATRL000000004K00000000000003550000911162015094506N000300000020U83       000360400K 10000000010000003506           
CUS0856180000108362266002         STRICKLAND EDDIE C  1311-A KENT AVE                         000N        CARE OF             
MTR08561800001000000000000000RA              30514659    005800890000008900000520000003NN  NNW 000                       N    
RDG08561800WATRL000000004K00000000000003578001011162015094535N000300000010U83       000290400K 10000000010000003564           
CUS0856180000108024183009         SCOTT THOMAS EDWARD 1313 KENT AVE                           000N        CARE OF             
MTR08561800001000000000000000RA              24230552    005800900000009000000520000003NN  NNW 000                       N    
RDG08561800WATRL000000004K00000000000003121001111162015094613N000300000010U83       000380400K 10000000010000003098           
CUS0856180000108391396002         HAIRSTON HAHNS S    5943 CHARLES ST                         000N        CARE OF             
MTR08561800001000000000000000RA              36694900    005800910000009100000520000003NN  NNW 000                       N    
RDG08561800WATRL000000004K00000000000002822008411122015095956N000300000010N83       000370400K 10000000010000002782           
CUS0856180000108385145001         BUTTS JAMES P       5945 CHARLES ST                         000N        CARE OF             
MTR08561800001000000000000000RA              35104081    005800920000009200000520000003NN  NNW 000                       N    
RDG08561800WATRL000000004K00000000000002799008311122015095919N000300000010N83       000240400K 10000000010000002763           
CUS0856180000108398144009         LISA ROBERSON       5936 CHARLES ST                         000N        CARE OF             
MTR08561800001000000000000000RA              40048629    005800930000009300000520000003NN  NNW 000                       N    
RDG08561800WATRL000000004K00000000000004466008211122015095855N000300000010N83       000810400K 10000000010000004378           
CUS0856180000108345499001         FOXWORTH ANDREA     1313-1/2 KENT AVE                       000N        CARE OF             
MTR08561800001000000000000000RA              01079409    005800940000009400000610000003NN  NNW 000                       N    
RDG08561800WATRL000000004K00000000000001253001211162015094653N000000000000U83       000400400K 10000000010000001240           
CUS0856180000108024184007         CHESNER MARY A      1315 KENT AVE                           000N        CARE OF             
MTR08561800001000000000000000RA              48582560    005800950000009500000520000003NN  NNW 000                       N    
RDG08561800WATRL000000004K00000000000001714001311162015094825N000000000000U83       000920400K 10000000010000001703           
CUS0856180000108346175006         BAUHAUS JACOB       1317 KENT AVE                           000N        CARE OF             
MTR08561800001000000000000000RA              27821167    005800960000009600000520000003NN  NNW 000                       N    
RDG08561800WATRL000000004K00000000000002728001411162015094902N000300000010U83       000370400K 10000000010000002675           
CUS0856180000108403900007         SMITH DANA E        1325 KENT AVE                           000N        CARE OF             
MTR08561800001000000000000000RA              42808370    005800970000009700000520000003NN  NNW 000                       N    
RDG08561800WATRL000000004K00000000000002092001511162015094927N000300000010U83       000250400K 10000000010000002055           
CUS0856180000108024151006         CAMDEN KENNETH W    1401 KENT AVE                           000N        CARE OF             
MTR08561800001000000000000000RA              24757119    005800980000009800000520000003NN  NNW 000                       N    
RDG08561800WATRL000000004K00000000000003510001611162015095016N000300000010U83       000490400K 10000000010000003531           
CUS0856180000108024060009         NESTOR MATTHEW S    1408 KENT AVE                           000N        CARE OF             
MTR08561800001000000000000000RA              45376403    005800990000009900000520000003NN  NNW 000                       N    
RDG08561800WATRL000000004K00000000000001019001711162015095057N000300000010U83       000410400K 10000000010000000981           
CUS0856180000108454303002         STUMP, ROBERT D     1434 KENT RD                            000N        CARE OF             
MTR08561800001000000000000000RA              99999999    000101000000010000000440000003NN  NNW 000                       N    
RDG08561800WATRL000000004K00000000000000000001811162015095139S002000000010U83       000420400K 10000000010000000004           
CUS0856180000108024185004         OSBORNE DAMIAN      1324 KENT AVE                           000N        CARE OF             
MTR08561800001000000000000000RA              24757115    005801010000010100000520000003NN  NNW 000                       N    
RDG08561800WATRL000000004K00000000000006143001911162015095218N000300000010U83       000390400K 10000000010000006120           
CUS0856180000108024186002         BURKHOLDER JOHN M   1322 KENT AVE                           000N        CARE OF             
MTR08561800001000000000000000RA              01079051    005801020000010200000610000003NN  NNW 000                       N    
RDG08561800WATRL000000004K00000000000000612002011162015095305N000300000010U83       000470400K 10000000010000000568           
CUS0856180000108024187000         PHILIP MARVA        1320 KENT AVE                           000N        CARE OF             
MTR08561800001000000000000000RA              01079050    005801030000010300000610000003NN  NNW 000                       N    
RDG08561800WATRL000000004K00000000000000678002111162015095410N000300000010U83       000650400K 10000000010000000643           
CUS0856180000108434094002         AJAYI BABATUNDE S   6002 CHARLES ST                         000N        CARE OF             
MTR08561800001000000000000000RA              01099176    005801040000010400000610000000NN  NNW 000                       N    
RDG08561800WATRL000000004K00000000000001799002211162015095540N000300000010U83       000900400K 10000000010000001717           
CUS0856180000108402525003         WOLFE KAREN L       6006 CHARLES ST                         000N        CARE OF             
MTR08561800001000000000000000RA              41081103    005801050000010500000520000003NN  NNW 000                       N    
RDG08561800WATRL000000004K00000000000001928002311162015095617N000000000000U83       000370400K 10000000010000001923           
CUS0856180000108431707002         CHESAPEAKE LAND HOLD6008 CHARLES ST                         000N        CARE OF             
MTR08561800001000000000000000RA              01084335    005801060000010600000610000003NN  NNW 000                       N    
RDG08561800WATRL000000004K00000000000001224002411162015095758N000300000010U83       001010400K 10000000010000001131           
CUS0856180000108434586007         THOMAS LAMONTE C    6010 CHARLES ST                         000N        CARE OF             
MTR08561800001000000000000000RA              01103513    005801070000010700000610000003NN  NNW 000                       N    
RDG08561800WATRL000000004K00000000000001998002511162015095839N000300000010U83       000410400K 10000000010000001939           
CUS0856180000108435615003         KAPRINA N FAULKNER  6007 CHARLES ST                         000N        CARE OF             
MTR08561800001000000000000000RA              14905142    005801080000010800000310000003NN  NNW 000                       N    
RDG08561800WATRL000000004K00000000000000698009411162015111653N000300000010U83       001180400K 10000000010000000622           
CUS0856180000108387928008         MOSES PATRICIA A    6005 CHARLES ST                         000N        CARE OF             
MTR08561800001000000000000000RA              35116135    005801090000010900000520000003NN  NNW 000                       N    
RDG08561800WATRL000000004K00000000000002126009511162015111735N000300000010U83       000420400K 10000000010000002106           
CUS0856180000108435616001         COTHORNE ADELL M    6003 CHARLES ST                         000N        CARE OF             
MTR08561800001000000000000000RA              14904565    005801100000011000000310000003NN  NNW 000                       N    
RDG08561800WATRL000000004K00000000000000908009611162015111818N000300000010U83       000430400K 10000000010000000885           
CUS0856180000108024223003         RAMOS TERESA DEJESUS1316 KENT AVE                           000N        CARE OF             
MTR08561800001000000000000000RA              01104189    005801110000011100000610000003NN  NNW 000                       N    
RDG08561800WATRL000000004K00000000000000581009711162015111955N000300000010U83       000970400K 10000000010000000531           
CUS0856180000108435905008         MURRAY VERNARD O,2ND1314 KENT AVE                           000N        CARE OF             
MTR08561800001000000000000000RA              14904853    005801120000011200000310000003NN  NNW 000                       N    
RDG08561800WATRL000000004K00000000000000581009811162015112030N000300000010U83       000350400K 10000000010000000556           
CUS0856180000108024224001         WILLIAMS WANDA SUE  1310 KENT AVE                           000N        CARE OF             
MTR08561800001000000000000000RA              01084478    005801130000011300000610000003NN  NNW 000                       N    
RDG08561800WATRL000000004K00000000000000843009911162015112106N000000000010U83       000360400K 10000000010000000830           
CUS0856180000108348813000         SMITH STANLEY       6000 MONTGOMERY ST                      000N        CARE OF             
MTR08561800001000000000000000RA              27817580    005801140000011400000520000003NN  NNW 000                       N    
RDG08561800WATRL000000004K00000000000001955008711162015110628N000000000000U83       000390400K 10000000010000001943           
CUS0856180000108024225008         WAWRZYNIAK JOSEPH   6006 MONTGOMERY ST                      000N        CARE OF             
MTR08561800001000000000000000RA              40322169    005801150000011500000520000003NN  NNW 000                       N    
RDG08561800WATRL000000004K00000000000001460008811162015110705N000300000010U83       000370400K 10000000010000001431           
CUS0856180000108024226006         WYNTER ANDREA C     6008 MONTGOMERY ST                      000N        CARE OF             
MTR08561800001000000000000000RA              01078982    005801160000011600000610000003NN  NNW 000                       N    
RDG08561800WATRL000000004K00000000000001508008911162015110754N000300000010U83       000490400K 10000000010000001415           
CUS0856180000108024227004         ABBASI WAJID        6010 MONTGOMERY ST                      000N        CARE OF             
MTR08561800001000000000000000RA              27813707    005801170000011700000520000003NN  NNW 000                       N    
RDG08561800WATRL000000004K00000000000003849009011162015110858N000300000010U83       000640400K 10000000010000003749           
CUS0856180000108024228002         CUSTIS-LITTLE DORETH6012 MONTGOMERY ST                      000N        CARE OF             
MTR08561800001000000000000000RA              40047195    005801180000011800000520000003NN  NNW 000                       N    
RDG08561800WATRL000000004K00000000000001358009111162015111002N000000000000U83       000640400K 10000000010000001351           
CUS0856180000108024229000         GREUTER BRIAN ROBERT6014 MONTGOMERY AVE                     000N        CARE OF             
MTR08561800001000000000000000RA              14925794    005801190000011900000310000003NN  NNW 000                       N    
RDG08561800WATRL000000004K00000000000000499009211162015111114N000000000000U83       000720400K 10000000010000000482           
CUS0856180000108398629009         GRIFFIN GWENDOLYN   1325 LAFAYETTE AVE                      000N        CARE OF             
MTR08561800001000000000000000RA              41590321    005801200000012000000520000003NN  NNW 000                       N    
RDG08561800WATRL000000004K00000000000001801009311162015111455N000300000010U83       002210400K 10000000010000001703           
CUS0856180000108362257001         LAKHO ASHIQUE ALI   1325A LAFAYETTE AVE                     000N        CARE OF             
MTR08561800001000000000000000RA              29686002    005801210000012100000520000003NN  NNW 000                       N    
RDG08561800WATRL000000004K00000000000003604003011202015085228O000000000010U80       000600400K 10000000010000003559           
CUS0856180000108360192002         MATTHEWS GARY       1327 LAFAYETTE AVE                      000N        CARE OF             
MTR08561800001000000000000000RA              31587104    005801220000012200000520000003NN  NNW 000                       N    
RDG08561800WATRL000000004K00000000000003076002911202015085249O000000000010U80       000790400K 10000000010000003053           
CUS0856180000108348997001         WALTERS THOMAS HERBE6011 CHARLES ST                         000N        CARE OF             
MTR08561800001000000000000000RA              26019609    005801230000012300000520000003NN  NNW 000                       N    
RDG08561800WATRL000000004K00000000000003965002611162015100009N000300000010U83       000900400K 10000000010000003947           
CUS0856180000108386160009         NELSON RAYMOND      6009 CHARLES ST                         000N        CARE OF             
MTR08561800001000000000000000RA              99290153    005801240000012400000570000003NN  NNW 000                       N    
RDG08561800WATRL000000004K00000000000002051002711162015100118N000300000010U83       000690400K 10000000010000002003           
CUS0856180000108024188008         MAHAR ABDUL         6012 CHARLES ST                         000N        CARE OF             
MTR08561800001000000000000000RA              33077128    005801250000012500000520000003NN  NNW 000                       N    
RDG08561800WATRL000000004K00000000000001588002811162015100145N000300000010U83       000270400K 10000000010000001637           
CUS0856180000108024230008         PILGRIM VASHNIE R   1331 LAFAYETTE AVE                      000N        CARE OF             
MTR08561800001000000000000000RA              24765907    005801260000012600000520000003NN  NNW 000                       N    
RDG08561800WATRL000000004K00000000000002501003111162015100459N000000000000U83       000550400K 10000000010000002489           
CUS0856180000108421936009         LARA JOSE MARCOS    1333 LAFAYETTE AVE                      000N        CARE OF             
MTR08561800001000000000000000RA              50480909    005801270000012700000520000003NN  NNW 000                       N    
RDG08561800WATRL000000004K00000000000003451003211162015100534N000000000000U83       000350400K 10000000010000003430           
CUS0856180000108024231006         YANG KEVIN R        1335 LAFAYETTE AVE                      000N        CARE OF             
MTR08561800001000000000000000RA              48582559    005801280000012800000520000003NN  NNW 000                       N    
RDG08561800WATRL000000004K00000000000000481003311162015100648N000000000000U83       000740400K 10000000010000000462           
CUS0856180000108407142002         BAKER MATTHEW J     1337 LAFAYETTE AVE                      000N        CARE OF             
MTR08561800001000000000000000RA              44173019    005801290000012900000520000003NN  NNW 000                       N    
RDG08561800WATRL000000004K00000000000000895003411162015100751N000000000000U83       000630400K 10000000010000000891           
CUS0856180000108024232004         JONES ANGELA M      1401 LAFAYETTE AVE                      000N        CARE OF             
MTR08561800001000000000000000RA              14925786    005801300000013000000310000003NN  NNW 000                       N    
RDG08561800WATRL000000004K00000000000001136003511162015100838N000000000000U83       000470400K 10000000010000001116           
CUS0856180000108378577004         CHUKWU JOEL C       1403 LAFAYETTE AVE                      000N        CARE OF             
MTR08561800001000000000000000RA              32904251    005801310000013100000520000003NN  NNW 000                       N    
RDG08561800WATRL000000004K00000000000002365003611162015100941N000300000010U83       000630400K 10000000010000002345           
CUS0856180000108440636002         HENRIQUEZ HUGO R    1404 LAFAYETTE AVE                      000N        CARE OF             
MTR08561800001000000000000000RA              14918208    005801320000013200000310000003NN  NNW 000                       N    
RDG08561800WATRL000000004K00000000000000964003711162015101100N000300000010U83       000790400K 10000000010000000895           
CUS0856180000108024234000         BANNAN PATRICIA GRAC1402 LAFAYETTE AVE                      000N        CARE OF             
MTR08561800001000000000000000RA              10016903    005801330000013300000570000003NN  NNW 000                       N    
RDG08561800WATRL000000004K00000000000000362003811162015101214N000300000010U83       000740400K 10000000010000000295           
CUS0856180000108394460003         RUSSELL MARIA       1400 LAFAYETTE AVE                      000N        CARE OF             
MTR08561800001000000000000000RA              39289951    005801340000013400000520000003NN  NNW 000                       N    
RDG08561800WATRL000000004K00000000000004553003911162015101310N000000000000U83       000560400K 10000000010000004517           
CUS0856180000108394992005         BARNES LILLIAN C    6004 HARFORD AVE                        000N        CARE OF             
MTR08561800001000000000000000RA              38984762    005801350000013500000520000003NN  NNW 000                       N    
RDG08561800WATRL000000004K00000000000001812004011162015101510N000400000010U83       001200400K 10000000010000001811           
CUS0856180000108024235007         RAMLOGAN PAUL       6008 HARFORD AVE                        000N        CARE OF             
MTR08561800001000000000000000RA              20767392    005801360000013600000520000003NN  NNW 000                       N    
RDG08561800WATRL000000004K00000000000003212004111162015101616N000100000010U83       000660400K 10000000010000003212           
CUS0856180000108387130001         POLLOCK MARVIS,SR   6010 HARFORD AVE                        000N        CARE OF             
MTR08561800001000000000000000RA              35115222    005801370000013700000520000003NN  NNW 000                       N    
RDG08561800WATRL000000004K00000000000002430004211162015101642N000300000010U83       000260400K 10000000010000002413           
CUS0856180000108024237003         REGISTER ROBERT L   6014 HARFORD AVE                        000N        CARE OF             
MTR08561800001000000000000000RA              10001188    005801380000013800000570000003NN  NNW 000                       N    
RDG08561800WATRL000000004K00000000000000450004311162015101729N000300000010U83       000470400K 10000000010000000430           
CUS0856180000108397818009         CHOLEWCZYNSKI SCOTT 6014A HARFORD AVE                       000N        CARE OF             
MTR08561800001000000000000000RA              39923893    005801390000013900000520000003NN  NNW 000                       N    
RDG08561800WATRL000000004K00000000000002396004411162015101815N000300000010U83       000460400K 10000000010000002353           
CUS0856180000108024238001         MULLERVY DEIRDRE E  6016 HARFORD AVE                        000N        CARE OF             
MTR08561800001000000000000000RA              41257837    005801400000014000000520000003NN  NNW 000                       N    
RDG08561800WATRL000000004K00000000000002736004511162015101845N000000000000U83       000300400K 10000000010000002731           
CUS0856180000108024239009         WAYNICK RAYMOND L   6018 HARFORD AVE                        000N        CARE OF             
MTR08561800001000000000000000RA              41080398    005801410000014100000520000003NN  NNW 000                       N    
RDG08561800WATRL000000004K00000000000003454004611162015102100N000300000010U83       001350400K 10000000010000003386           
CUS0856180000108400604008         WAYNICK RAYMOND L   6020 HARFORD AVE                        000N        CARE OF             
MTR08561800001000000000000000RA              14916873    005801420000014200000310000003NN  NNW 000                       N    
RDG08561800WATRL000000004K00000000000000963011011162015114104N000300000020U83       001410400K 10000000010000000920           
CUS0856180000108402311008         HILL LYDIA A        6017 HARFORD AVE                        000N        CARE OF             
MTR08561800001000000000000000RA              41080363    005801430000014300000520000003NN  NNW 000                       N    
RDG08561800WATRL000000004K00000000000002558004711162015102428N000300000010U83       002080400K 10000000010000002527           
CUS0856180000108402521002         DEPPISCH CATHERINE E6015 HARFORD AVE                        000N        CARE OF             
MTR08561800001000000000000000RA              41080398    005801440000014400000520000003NN  NNW 000                       N    
RDG08561800WATRL000000004K00000000000002199004811162015102509N000000000000U83       000410400K 10000000010000002188           
CUS0856180000108348630008         BERARDI DAVID A     6013 HARFORD AVE                        000N        CARE OF             
MTR08561800001000000000000000RA              27815032    005801450000014500000520000003NN  NNW 000                       N    
RDG08561800WATRL000000004K00000000000001189004911162015102614N000300000010U83       000650400K 10000000010000001193           
CUS0856180000108353172003         OJIABO ANYA         6011 HARFORD AVE                        000N        CARE OF             
MTR08561800001000000000000000RA              29082660    005801460000014600000520000003NN  NNW 000                       N    
RDG08561800WATRL000000004K00000000000004401005011162015102700N000300000010U83       000460400K 10000000010000004384           
CUS0856180000108353171005         WOCTCHOU SERGE T    6009 HARFORD AVE                        000N        CARE OF             
MTR08561800001000000000000000RA              29082584    005801470000014700000520000003NN  NNW 000                       N    
RDG08561800WATRL000000004K00000000000005939005111162015102740N000300000010U83       000400400K 10000000010000005894           
CUS0856180000108024236005         MORGAN GWENDOLYN E  6007 HARFORD AVE                        000N        CARE OF             
MTR08561800001000000000000000RA              25781602    005801480000014800000520000003NN  NNW 000                       N    
RDG08561800WATRL000000004K00000000000002796005211162015102819N000000000000U83       000390400K 10000000010000002790           
CUS0856180000108024152004         SHERMAN WINSTON S   6005 HARFORD AVE                        000N        CARE OF             
MTR08561800001000000000000000RA              52288745    005801490000014900000520000000NN  NNW 000                       N    
RDG08561800WATRL000000004K00000000000001504005311162015102853N000300000010U83       000340400K 10000000010000001457           
CUS0856180000108362267000         MATTHEWS MICHAEL W  1338 LAFAYETTE AVE                      000N        CARE OF             
MTR08561800001000000000000000RA              76345378    005801500000015000000350000003NN  NNW 000                       N    
RDG08561800WATRL000000004K00000000000000118005411162015102938N000300000010U83       000450400K 10000000010000000096           
CUS0856180000108024240007         APPLEGATE RICHARD EA1336 LAFAYETTE AVE                      000N        CARE OF             
MTR08561800001000000000000000RA              11337265    005801510000015100000570000003NN  NNW 000                       N    
RDG08561800WATRL000000004K00000000000005091005511162015103031N000300000010U83       000530400K 10000000010000005058           
CUS0856180000108024241005         CROSS JOSEPH Z  CROS1330 LAFAYETTE AVE                      000N        CARE OF             
MTR08561800001000000000000000RA              01103476    005801520000015200000610000003NN  NNW 000                       N    
RDG08561800WATRL000000004K00000000000000707005611162015103117N000000000000U83       000460400K 10000000010000000694           
CUS0856180000108024190004         PLUMMER HARRY O     6030 CHARLES ST                         000N        CARE OF             
MTR08561800001000000000000000RA              27815492    005801530000015300000520000003NN  NNW 000                       N    
RDG08561800WATRL000000004K00000000000003313005711162015103222N000300000010U83       000650400K 10000000010000003287           
CUS0856180000108024189006         WAYNE SIMON STEWART 6034 CHARLES ST                         000N        CARE OF             
MTR08561800001000000000000000RA              26016749    005801540000015400000520000003NN  NNW 000                       N    
RDG08561800WATRL000000004K00000000000002881005811162015103319N000300000010U83       000570400K 10000000010000002859           
CUS0856180000108389541007         ADELSBERGER WILLIAM 6040 CHARLES ST                         000N        CARE OF             
MTR08561800001000000000000000RA              36691094    005801550000015500000520000003NN  NNW 000                       N    
RDG08561800WATRL000000004K00000000000006402005911162015103413N000300000010U83       000540400K 10000000010000006333           
CUS0856180000108388990007         JOSEPH MANG HLEI    6042 CHARLES ST                         000N        CARE OF             
MTR08561800001000000000000000RA              36689249    005801560000015600000520000003NN  NNW 000                       N    
RDG08561800WATRL000000004K00000000000005549006011162015103457N000300000010U83       000440400K 10000000010000005471           
CUS0856180000108388965009         JEFFERSON TONI D    6048 CHARLES ST                         000N        CARE OF             
MTR08561800001000000000000000RA              36689120    005801570000015700000520000003NN  NNW 000                       N    
RDG08561800WATRL000000004K00000000000002723006111162015103620N000300000010U83       000830400K 10000000010000002641           
CUS0856180000108387220000         RIDGEWAY MARGARET A 6043 CHARLES ST                         000N        CARE OF             
MTR08561800001000000000000000RA              35115277    005801580000015800000520000003NN  NNW 000                       N    
RDG08561800WATRL000000004K00000000000001753006211162015103647N000000000000U83       000270400K 10000000010000001746           
CUS0856180000108387221008         BATEMAN LINDA A     6041 CHARLES ST                         000N        CARE OF             
MTR08561800001000000000000000RA              35115822    005801590000015900000520000003NN  NNW 000                       N    
RDG08561800WATRL000000004K00000000000002076006311162015103742N000300000010U83       000550400K 10000000010000002049           
CUS0856180000108387930004         PLATT MARIANN S     6039-A CHARLES ST                       000N        CARE OF             
MTR08561800001000000000000000RA              35116563    005801600000016000000520000003NN  NNW 000                       N    
RDG08561800WATRL000000004K00000000000002212006411162015103818N000300000010U83       000360400K 10000000010000002139           
CUS0856180000108024191002         TALLEY VINCENT      6039 CHARLES ST                         000N        CARE OF             
MTR08561800001000000000000000RA              99291821    005801610000016100000570000003NN  NNW 000                       N    
RDG08561800WATRL000000004K00000000000003007006511162015103900N000300000010U83       000420400K 10000000010000002986           
CUS0856180000108385120004         JOHNSON STANLEY W   6035 CHARLES ST                         000N        CARE OF             
MTR08561800001000000000000000RA              35104007    005801620000016200000520000003NN  NNW 000                       N    
RDG08561800WATRL000000004K00000000000002815006611162015103943N000300000010U83       000430400K 10000000010000002772           
CUS0856180000108391114009         CARTER-MORRIS DEVETA6031 CHARLES ST                         000N        CARE OF             
MTR08561800001000000000000000RA              36693766    005801630000016300000520000003NN  NNW 000                       N    
RDG08561800WATRL000000004K00000000000001422006711202015085416O000300000010U80       000430400K 10000000010000001398           
CUS0856180000108024242003         CONRAD CHRISTIE M   1326 LAFAYETTE AVE                      000N        CARE OF             
MTR08561800001000000000000000RA              29682219    005801640000016400000520000003NN  NNW 000                       N    
RDG08561800WATRL000000004K00000000000002743006811162015104239N000000000000U83       001330400K 10000000010000002731           
CUS0856180000108024243001         PRATER ANTHONY ERWIN1324 LAFAYETTE AVE                      000N        CARE OF             
MTR08561800001000000000000000RA              48591065    005801650000016500000520000003NN  NNW 000                       N    
RDG08561800WATRL000000004K00000000000001785006911162015104353N000300000010U83       000740400K 10000000010000001743           
CUS0856180000108024245006         HARRIS MARVIN       6024 MONTGOMERY ST                      000N        CARE OF             
MTR08561800001000000000000000RA              9689482     005801660000016600000570000003NN  NNW 000                       N    
RDG08561800WATRL000000004K00000000000005743007111162015104652N000300000010U83       000900400K 10000000010000005664           
CUS0856180000108024246004         SUNDERLAND MOLLY O  6028 MONTGOMERY ST                      000N        CARE OF             
MTR08561800001000000000000000RA              46881450    005801670000016700000520000003NN  NNW 000                       N    
RDG08561800WATRL000000004K00000000000001927007211162015104718N000300000010U83       000260400K 10000000010000001905           
CUS0856180000108024247002         FIEDLER RICHARD J   6030 MONTGOMERY ST                      000N        CARE OF             
MTR08561800001000000000000000RA              01078986    005801680000016800000610000003NN  NNW 000                       N    
RDG08561800WATRL000000004K00000000000001053007311162015104746N000300000010U83       000280400K 10000000010000001006           
CUS0856180000108364289002         CONTRERAS MARTIN C  6034 MONTGOMERY ST                      000N        CARE OF             
MTR08561800001000000000000000RA              30519758    005801690000016900000520000003NN  NNW 000                       N    
RDG08561800WATRL000000004K00000000000003424007411162015105046N000300000010U83       001800400K 10000000010000003231           
CUS0856180000108024248000         STRINGHAM BRIAN     6029 MONTGOMERY ST                      000N        CARE OF             
MTR08561800001000000000000000RA              99188422    005801700000017000000570000003NN  NNW 000                       N    
RDG08561800WATRL000000004K00000000000000369007511162015105129N000300000010U83       000430400K 10000000010000000370           
CUS0856180000108024249008         KAULFUSS CECELIA ANN6027 MONTGOMERY ST                      000N        CARE OF             
MTR08561800001000000000000000RA              77891696    005801710000017100000360000003NN  NNW 000                       N    
RDG08561800WATRL000000004K00000000000000017007611202015085458O000000000010U80       000440400K 10000000010000000000           
CUS0856180000108398362007         BALDONI, SR ANTHONY 6025 MONTGOMERY ST                      000N        CARE OF             
MTR08561800001000000000000000RA              40320977    005801720000017200000520000003NN  NNW 000                       N    
RDG08561800WATRL000000004K00000000000001833007711162015105327N000300000010U83       000740400K 10000000010000001816           
CUS0856180000108024250006         ROBINSON WILLIAM A  6023 MONTGOMERY ST                      000N        CARE OF             
MTR08561800001000000000000000RA              99188421    005801730000017300000570000003NN  NNW 000                       N    
RDG08561800WATRL000000004K00000000000000876007811162015105523N000300000010U83       001160400K 10000000010000000854           
CUS0856180000108399959009         SCHOPMEIER KLAUS L  1320 LAFAYETTE AVE                      000N        CARE OF             
MTR08561800001000000000000000RA              41258161    005801740000017400000520000003NN  NNW 000                       N    
RDG08561800WATRL000000004K00000000000003358007911162015105559N000000000000U83       000360400K 10000000010000003334           
CUS0856180000108434587005         BROWN CHARLES R,JR  1322 LAFAYETTE AVE                      000N        CARE OF             
MTR08561800001000000000000000RA              14909911    005801750000017500000310000003NN  NNW 000                       N    
RDG08561800WATRL000000004K00000000000000688007011162015104522N000000000000U83       000890400K 10000000010000000674           
CUS0856180000108403961009         AYERS JOHN          1318 LAFAYETTE AVE                      000N        CARE OF             
MTR08561800001000000000000000RA              41088504    005801760000017600000520000003NN  NNW 000                       N    
RDG08561800WATRL000000004K00000000000006828008011162015105645N000400000010U83       000460400K 10000000010000006765           
CUS0856180000108024295001         MOSHER ERIC O       1316 LAFAYETTE AVE                      000N        CARE OF             
MTR08561800001000000000000000RA              01078572    005801770000017700000610000003NN  NNW 000                       N    
RDG08561800WATRL000000004K00000000000002872010911162015113843N000300000010U83       002290400K 10000000010000002721           
CUS0856180000108024244009         WAGNER GARY C       1321 LAFAYETTE AVE                      000N        CARE OF             
MTR08561800001000000000000000RA              27132871    005801780000017800000520000003NN  NNW 000                       N    
RDG08561800WATRL000000004K00000000000003176008111162015110100N000000000000U83       002550400K 10000000010000003169           
CUS0856180000108024296009         ZA HU               1323 LAFAYETTE AVE                      000N        CARE OF             
MTR08561800001000000000000000RA              01078574    005801790000017900000610000003NN  NNW 000                       N    
RDG08561800WATRL000000004K00000000000000788010811162015113454N000400000010U83       004580400K 10000000010000000771           
CUS0856180000108024251004         CAMPBELL CHERYL     6011 MONTGOMERY ST                      000N        CARE OF             
MTR08561800001000000000000000RA              99999999    005801800000018000000610000003NN  NNW 000                       N    
RDG08561800WATRL000000004K00000000000001729008211162015110146N000400000010U83       000460400K 10000000010000001698           
CUS0856180000108024252002         SHOCKEY WILLIAM     6009 MONTGOMERY ST                      000N        CARE OF             
MTR08561800001000000000000000RA              30515478    005801810000018100000520000003NN  NNW 000                       N    
RDG08561800WATRL000000004K00000000000003611008311162015110309N000300000010U83       000830400K 10000000010000003550           
CUS0856180000108406396005         MAKANJUOLA GANIYU   6007 MONTGOMERY ST                      000N        CARE OF             
MTR08561800001000000000000000RA              44091501    005801820000018200000520000003NN  NNW 000                       N    
RDG08561800WATRL000000004K00000000000001818008411162015110420N000300000010U83       000710400K 10000000010000001758           
CUS0856180000108390222001         NATIONSTAR MORTGAGE 6005 MONTGOMERY ST                      000N        CARE OF             
MTR08561800001000000000000000RA              75618048    005801830000018300000350000003NN  NNW 000                       N    
RDG08561800WATRL000000004K00000000000002854008511162015110458N000300000010U83       000380400K 10000000010000003985           
CUS0856180000108353175006         DE SOUZA CRISIELEN C6001 MONTGOMERY ST                      000N        CARE OF             
MTR08561800001000000000000000RA              29083384    005801840000018400000520000003NN  NNW 000                       N    
RDG08561800WATRL000000004K00000000000001165008611162015110549N000400000010U83       000510400K 10000000010000001146           
CUS0856180000108024253000         NELSON CAROLYN      5931 MONTGOMERY ST                      000N        CARE OF             
MTR08561800001000000000000000RA              33736055    005801850000018500000520000003NN  NNW 000                       N    
RDG08561800WATRL000000004K00000000000001700010011162015112236N000000000000U83       000900400K 10000000010000001694           
CUS0856180000108024254008         SMITH CHRISTOPHER   5929 MONTGOMERY ST                      000N        CARE OF             
MTR08561800001000000000000000RA              27813704    005801860000018600000520000003NN  NNW 000                       N    
RDG08561800WATRL000000004K00000000000003101010111162015112351N000000000000U83       000750400K 10000000010000003086           
CUS0856180000108024255005         PORTILLO ALEXANDER G5927 MONTGOMERY ST                      000N        CARE OF             
MTR08561800001000000000000000RA              01078529    005801870000018700000610000003NN  NNW 000                       N    
RDG08561800WATRL000000004K00000000000001916010211162015112429N000300000010U83       000380400K 10000000010000001848           
CUS0856180000108024256003         JACKSON KEVIN       5925-1/2 MONTGOMERY AVE                 000N        CARE OF             
MTR08561800001000000000000000RA              52769129    005801880000018800000520000003NN  NNW 000                       N    
RDG08561800WATRL000000004K00000000000000759010311162015112505N000400000010U83       000360400K 10000000010000000751           
CUS0856180000108024257001         ADDISU ATSEDE       5925 MONTGOMERY ST                      000N        CARE OF             
MTR08561800001000000000000000RA              01078523    005801890000018900000610000003NN  NNW 000                       N    
RDG08561800WATRL000000004K00000000000001067010411162015112546N000000000000U83       000410400K 10000000010000001055           
CUS0856180000108024258009         WASHINGTON ELBERT H 5923 MONTGOMERY ST                      000N        CARE OF             
MTR08561800001000000000000000RA              01078575    005801900000019000000610000003NN  NNW 000                       N    
RDG08561800WATRL000000004K00000000000001259010511162015112617N000000000000U83       000310400K 10000000010000001253           
CUS0856180000108024259007         RIDDLE TANJA C      5921 MONTGOMERY ST                      000N        CARE OF             
MTR08561800001000000000000000RA              44179027    005801910000019100000520000003NN  NNW 000                       N    
RDG08561800WATRL000000004K00000000000002394010611162015112647N000000000000U83       000300400K 10000000010000002386           
CUS0856180000108024260005         ONION FRIEDA C      5919 MONTGOMERY ST                      000N        CARE OF             
MTR08561800001000000000000000RA              01078578    005801920000019200000610000003NN  NNW 000                       N    
RDG08561800WATRL000000004K00000000000000493010711162015112716N000000000000U83       000290400K 10000000010000000484           
CUS0856180000108024261003         FREEMAN JOYCE Y     5917 MONTGOMERY ST                      000N        CARE OF             
MTR08561800001000000000000000RA              01078526    005801930000019300000610000003NN  NNW 000                       N    
RDG08561800WATRL000000004K00000000000001380003011122015091930N000000000000N83       000730400K 10000000010000001361           
CUS0856180000108024262001         CORTEZ RENE MAURICIO5915 MONTGOMERY ST                      000N        CARE OF             
MTR08561800001000000000000000RA              44092932    005801940000019400000520000003NN  NNW 000                       N    
RDG08561800WATRL000000004K00000000000003105003111202015085556O000000000010N80       000970400K 10000000010000003077           
CUS0856180000108024263009         WOODARD MONIQUE D   5911 MONTGOMERY ST                      000N        CARE OF             
MTR08561800001000000000000000RA              01078577    005801950000019500000610000003NN  NNW 000                       N    
RDG08561800WATRL000000004K00000000000000723003211122015092133N000000000000N83       000260400K 10000000010000000712           
CUS0856180000108024264007         HORSEY BRYANT       5909 MONTGOMERY ST                      000N        CARE OF             
MTR08561800001000000000000000RA              99290194    005801960000019600000570000003NN  NNW 000                       N    
RDG08561800WATRL000000004K00000000000000687003311122015092204N000000000000N83       000310400K 10000000010000000669           
CUS0856180000108024265004         NOEL-ROSE WENDIAN C 5907 MONTGOMERY ST                      000N        CARE OF             
MTR08561800001000000000000000RA              01078576    005801970000019700000610000003NN  NNW 000                       N    
RDG08561800WATRL000000004K00000000000002207003411122015092231N000400000010N83       000270400K 10000000010000002181           
CUS0856180000108024266002         STOCKSDALE MICHAEL L5905 MONTGOMERY ST                      000N        CARE OF             
MTR08561800001000000000000000RA              01078357    005801980000019800000610000003NN  NNW 000                       N    
RDG08561800WATRL000000004K00000000000001399003511122015092255N000000000000N83       000240400K 10000000010000001392           
CUS0856180000108024267000         STOCKSDALE MICHAEL  5903 MONTGOMERY ST                      000N        CARE OF             
MTR08561800001000000000000000RA              01078573    005801990000019900000610000003NN  NNW 000                       N    
RDG08561800WATRL000000004K00000000000001155003611122015092331N000000000000N83       000360400K 10000000010000001129           
CUS0856180000108024268008         MANSOUR MOHAMED MANS5901 MONTGOMERY ST                      000N        CARE OF             
MTR08561800001000000000000000RA              01078579    005802000000020000000610000003NN  NNW 000                       N    
RDG08561800WATRL000000004K00000000000002416003711122015092415N000000000000N83       000440400K 10000000010000002383           
RTR08561800NN02000200000002000000000002000200000187NY020002000200000000010000000000000000000002    11032015NY020000 N         
RHD06958500NN00060221000000060000021502210221000397NY022102210221000400020000000000000000000002    11302015NY020000 N         
CUS0695850000106108464006         HESTER PAUL E       8237 PARK HAVEN RD                      000N        CARE OF             
MTR06958500001000000000000000RA              79822386    005800010000000100000360000003NN  NNW 000                       N    
RDG06958500WATRL000000004R00000000000000009000112092015075433N000300000010UFC08     000000400R 10000000010000000000           
RFF0695850070313138      ERT      0000  956.4437500014000012092015075430     95183100W 1220000N                               
CUS0695850000106108463008         BRAZIUS ANN MARIE   8235 PARK HAVEN RD                      000N        CARE OF             
MTR06958500001000000000000000RA              79822304    005800020000000200000360000003NN  NNW 000                       N    
RDG06958500WATRL000000004R00000000000000001000212092015075438N000300000010UFC08     000050400R 10000000010000000000           
RFF0695850070313164      ERT      0000  956.4437500014000012092015075434     12363100W 1220000N                               
CUS0695850000106108462000         MCCLOUD GAIL GOWER  8233 PARK HAVEN RD                      000N        CARE OF             
MTR06958500001000000000000000RA              79822429    005800030000000300000360000003NN  NNW 000                       N    
RDG06958500WATRL000000004R00000000000000001000312092015075457N000300000010UFC08     000190400R 10000000010000000000           
RFF0695850070314596      ERT      0000  956.4437500014000012092015075455     15392100W 1220000N                               
CUS0695850000106108461002         MOODY DAVID R       8231 PARK HAVEN RD                      000N        CARE OF             
MTR06958500001000000000000000RA              79822350    005800040000000400000360000003NN  NNW 000                       N    
RDG06958500WATRL000000004R00000000000000011000412092015075502N000300000010UFC08     000050400R 10000000010000000000           
RFF0695850070314352      ERT      0000  956.4437500014000412092015075458    113851100W 1220000N                               
CUS0695850000106108460004         BORST BRIAN S       8229 PARK HAVEN RD                      000N        CARE OF             
MTR06958500001000000000000000RA              79822351    005800050000000500000360000003NN  NNW 000                       N    
RDG06958500WATRL000000004R00000000000000004000512092015075507N000300000010UFC08     000050400R 10000000010000000000           
RFF0695850070314371      ERT      0000  956.4437500014000012092015075505     49667100W 1220000N                               
CUS0695850000106108459006         ERNSTBERGER ASHLEY N8227 PARK HAVEN RD                      000N        CARE OF             
MTR06958500001000000000000000RA              79822470    005800060000000600000360000003NN  NNW 000                       N    
RDG06958500WATRL000000004R00000000000000004000612092015075509N000300000010UFC08     000020400R 10000000010000000000           
RFF0695850070314995      ERT      0000  956.4437500014000012092015075509     43557100W 1220000N                               
CUS0695850000106108458008         PATTISON DIXON R    8225 PARK HAVEN RD                      000N        CARE OF             
MTR06958500001000000000000000RA              79822306    005800070000000700000360000003NN  NNW 000                       N    
RDG06958500WATRL000000004R00000000000000006000712092015075512N000300000010UFC08     000030400R 10000000010000000000           
RFF0695850070313160      ERT      0000  956.4437500014000012092015075511     65334100W 1220000N                               
CUS0695850000106108457000         ABATE HEATHER A     8223 PARK HAVEN RD                      000N        CARE OF             
MTR06958500001000000000000000RA              79822433    005800080000000800000360000003NN  NNW 000                       N    
RDG06958500WATRL000000004R00000000000000010000812092015075514N000300000010UFC08     000020400R 10000000010000000000           
RFF0695850070314609      ERT      0000  956.4437500014000012092015075513    102040100W 1220000N                               
CUS0695850000106108456002         ZUKAS JOHN R        8221 PARK HAVEN RD                      000N        CARE OF             
MTR06958500001000000000000000RA              79822347    005800090000000900000360000003NN  NNW 000                       N    
RDG06958500WATRL000000004R00000000000000003000912092015075516N000300000010UFC08     000020400R 10000000010000000000           
RFF0695850070314393      ERT      0000  956.4437500014000012092015075515     34944100W 1220000N                               
CUS0695850000106108455004         MOULSDALE CAROLE    8219 PARK HAVEN RD                      000N        CARE OF             
MTR06958500001000000000000000RA              79822340    005800100000001000000360000003NN  NNW 000                       N    
RDG06958500WATRL000000004R00000000000000006001012092015075919N000300000010UFC08     002430400R 10000000010000000000           
RFF0695850070313125      ERT      0000  956.4437500014000012092015075531     64297100W 1220000N                               
CUS0695850000106108454007         RINEKER WILLIAM G   8217 PARK HAVEN RD                      000N        CARE OF             
MTR06958500001000000000000000RA              79822346    005800110000001100000360000003NN  NNW 000                       N    
RDG06958500WATRL000000004R00000000000000002001112092015075923N000300000010UFC08     000040400R 10000000010000000000           
RFF0695850070314376      ERT      0000  956.4437500014000012092015075922     22509100W 1220000N                               
CUS0695850000106108453009         GESSINGER MARGARET H8215 PARK HAVEN RD                      000N        CARE OF             
MTR06958500001000000000000000RA              79822308    005800120000001200000360000003NN  NNW 000                       N    
RDG06958500WATRL000000004R00000000000000005001212092015075929N000300000010UFC08     000060400R 10000000010000000000           
RFF0695850070313115      ERT      0000  956.4437500014000012092015075925     53712100W 1220000N                               
CUS0695850000106108452001         SACCHETTI LAURA E   8213 PARK HAVEN RD                      000N        CARE OF             
MTR06958500001000000000000000RA              79822434    005800130000001300000360000003NN  NNW 000                       N    
RDG06958500WATRL000000004R00000000000000009001312092015075931N000300000010UFC08     000020400R 10000000010000000000           
RFF0695850070314602      ERT      0000  956.4437500014000012092015075930     94198100W 1220000N                               
CUS0695850000106108451003         MORALES BENKIS      8211 PARK HAVEN RD                      000N        CARE OF             
MTR06958500001000000000000000RA              79817567    005800140000001400000360000003NN  NNW 000                       N    
RDG06958500WATRL000000004R00000000000000009001412092015075933N000300000010UFC08     000020400R 10000000010000000000           
RFF0695850070288552      ERT      0000  956.4437500014000012092015075932     93288100W 1220000N                               
CUS0695850000106108450005         MAGEE CARL H        8209 PARK HAVEN RD                      000N        CARE OF             
MTR06958500001000000000000000RA              79822343    005800150000001500000360000003NN  NNW 000                       N    
RDG06958500WATRL000000004R00000000000000004001512092015075936N000300000010UFC08     000030400R 10000000010000000000           
RFF0695850070313168      ERT      0000  956.4437500014000012092015075935     41769100W 1220000N                               
CUS0695850000106108449007         MAXWELL DORIS F     8207 PARK HAVEN RD                      000N        CARE OF             
MTR06958500001000000000000000RA              79822435    005800160000001600000360000003NN  NNW 000                       N    
RDG06958500WATRL000000004R00000000000000011001612092015075938N000300000010UFC08     000020400R 10000000010000000000           
RFF0695850070314571      ERT      0000  956.4437500014000012092015075937    117456100W 1220000N                               
CUS0695850000106108448009         KOVALIC JENNIFER M  8205 PARK HAVEN RD                      000N        CARE OF             
MTR06958500001000000000000000RA              79822385    005800170000001700000360000003NN  NNW 000                       N    
RDG06958500WATRL000000004R00000000000000006001712092015075939N000300000010UFC08     000010400R 10000000010000000000           
RFF0695850070313156      ERT      0000  956.4437500014000012092015075939     60489100W 1220000N                               
CUS0695850000106108447001         KNIGHT CAROL        8203 PARK HAVEN RD                      000N        CARE OF             
MTR06958500001000000000000000RA              9596040     005800180000001800000570000003NN  NNW 000                       N    
RDG06958500WATRL000000004K00000000000000010021012092015084856N000300000010UFC08     003330400K 10000000010000004828           
CUS0695850000106108446003         TRUXON WILLIAM A,JR 8201 PARK HAVEN RD                      000N        CARE OF             
MTR06958500001000000000000000RA              79822466    005800190000001900000360000003NN  NNW 000                       N    
RDG06958500WATRL000000004R00000000000000007001812092015080023N000300000010UFC08     000440400R 10000000010000000000           
RFF0695850070315107      ERT      0000  956.4437500014000812092015080014     79193100W 1220000N                               
CUS0695850000106108445005         LITZ JOSEPHINE O    8197 PARK HAVEN RD                      000N        CARE OF             
MTR06958500001000000000000000RA              79822382    005800200000002000000360000003NN  NNW 000                       N    
RDG06958500WATRL000000004R00000000000000011001912092015080027N000300000010UFC08     000040400R 10000000010000000000           
RFF0695850070313172      ERT      0000  956.4437500014000012092015080025    118673100W 1220000N                               
CUS0695850000106108444008         SILKWORTH WILLIAM J 8195 PARK HAVEN RD                      000N        CARE OF             
MTR06958500001000000000000000RA              79822387    005800210000002100000360000003NN  NNW 000                       N    
RDG06958500WATRL000000004R00000000000000002002012092015080029N000300000010UFC08     000020400R 10000000010000000000           
RFF0695850070313132      ERT      0000  956.4437500014000012092015080028     29180100W 1220000N                               
CUS0695850000106108443000         SALVAGE GILDA DENISE8193 PARK HAVEN RD                      000N        CARE OF             
MTR06958500001000000000000000RA              79822384    005800220000002200000360000003NN  NNW 000                       N    
RDG06958500WATRL000000004R00000000000000011002112092015080031N000300000010UFC08     000020400R 10000000010000000000           
RFF0695850070313107      ERT      0000  956.4437500014000012092015080030    118516100W 1220000N                               
CUS0695850000106108442002         WOLFE JAMES E       8191 PARK HAVEN RD                      000N        CARE OF             
MTR06958500001000000000000000RA              79822467    005800230000002300000360000003NN  NNW 000                       N    
RDG06958500WATRL000000004R00000000000000005002212092015080034N000300000010UFC08     000030400R 10000000010000000000           
RFF0695850070315109      ERT      0000  956.4437500014000012092015080033     52694100W 1220000N                               
CUS0695850000106108441004         LATANISHEN PAUL M   8189 PARK HAVEN RD                      000N        CARE OF             
MTR06958500001000000000000000RA              79822432    005800240000002400000360000003NN  NNW 000                       N    
RDG06958500WATRL000000004R00000000000000005002312092015080036N000300000010UFC08     000020400R 10000000010000000000           
RFF0695850070314584      ERT      0000  956.4437500014000812092015080035     57387100W 1220000N                               
CUS0695850000106108440006         OGONOWSKI SUSAN ELLE8187 PARK HAVEN RD                      000N        CARE OF             
MTR06958500001000000000000000RA              79822471    005800250000002500000360000003NN  NNW 000                       N    
RDG06958500WATRL000000004R00000000000000004002412092015080038N000300000010UFC08     000020400R 10000000010000000000           
RFF0695850070315064      ERT      0000  956.4437500014000012092015080037     47339100W 1220000N                               
CUS0695850000106108439008         WISEMAN DIANA LEE   8185 PARK HAVEN RD                      000N        CARE OF             
MTR06958500001000000000000000RA              79822430    005800260000002600000360000003NN  NNW 000                       N    
RDG06958500WATRL000000004R00000000000000011002512092015080042N000300000010UFC08     000040400R 10000000010000000000           
RFF0695850070314569      ERT      0000  956.4437500014000012092015080039    115619100W 1220000N                               
CUS0695850000106108438000         HAIFLEY DONNA L     8183 PARK HAVEN RD                      000N        CARE OF             
MTR06958500001000000000000000RA              79822469    005800270000002700000360000003NN  NNW 000                       N    
RDG06958500WATRL000000004R00000000000000008002612092015080046N000300000010UFC08     000040400R 10000000010000000000           
RFF0695850070315090      ERT      0000  956.4437500014000412092015080045     82577100W 1220000N                               
CUS0695850000106108437002         NICOLARAKIS MICHAEL 8181 PARK HAVEN RD                      000N        CARE OF             
MTR06958500001000000000000000RA              79822468    005800280000002800000360000003NN  NNW 000                       N    
RDG06958500WATRL000000004R00000000000000032002712092015080048N000300000010UFC08     000020400R 10000000010000000000           
RFF0695850070315071      ERT      0000  956.4437500014000412092015080047    326563100W 1220000N                               
CUS0695850000106108436004         HEINLE DOUGLAS M    8179 PARK HAVEN RD                      000N        CARE OF             
MTR06958500001000000000000000RA              79822907    005800290000002900000360000003NN  NNW 000                       N    
RDG06958500WATRL000000004R00000000000000003002812092015080354N000000000010UFC08     001860400K 10000000010000000000           
RFF0695850070315023      ERT      0000  956.4437500014000000000000000000                  0002Y                               
CUS0695850000106108435006         TAMARA J GOGEL      8177 PARK HAVEN RD                      000N        CARE OF             
MTR06958500001000000000000000RA              79822853    005800300000003000000360000003NN  NNW 000                       N    
RDG06958500WATRL000000004R00000000000000004002912092015080418N000300000010UFC08     000240400R 10000000010000000000           
RFF0695850070314476      ERT      0000  956.4437500014000812092015080355     49206100W 1220000N                               
CUS0695850000106108434009         MARIANO MICHELLE    8175 PARK HAVEN RD                      000N        CARE OF             
MTR06958500001000000000000000RA              79822906    005800310000003100000360000003NN  NNW 000                       N    
RDG06958500WATRL000000004R00000000000000001003012092015080421N000300000010UFC08     000030400R 10000000010000000000           
RFF0695850070315031      ERT      0000  956.4437500014000012092015080420     18557100W 1220000N                               
CUS0695850000106108433001         CARROLL JASON C     8173 PARK HAVEN RD                      000N        CARE OF             
MTR06958500001000000000000000RA              79822909    005800320000003200000360000003NN  NNW 000                       N    
RDG06958500WATRL000000004R00000000000000010003112092015080424N000300000010UFC08     000030400R 10000000010000000000           
RFF0695850070315025      ERT      0000  956.4437500014000012092015080422    109228100W 1220000N                               
CUS0695850000106108432003         PUCKETT LARRY L     8171 PARK HAVEN RD                      000N        CARE OF             
MTR06958500001000000000000000RA              79820083    005800330000003300000360000003NN  NNW 000                       N    
RDG06958500WATRL000000004R00000000000000010003212092015080427N000300000010UFC08     000030400R 10000000010000000000           
RFF0695850070292737      ERT      0000  956.4437500014000012092015080425    103132100W 1220000N                               
CUS0695850000106108431005         JENNIFER IRENE MCELW8169 PARK HAVEN RD                      000N        CARE OF             
MTR06958500001000000000000000RA              79822908    005800340000003400000360000003NN  NNW 000                       N    
RDG06958500WATRL000000004R00000000000000003003312092015080429N000300000010UFC08     000020400R 10000000010000000000           
RFF0695850070315036      ERT      0000  956.4437500014000012092015080428     34669100W 1220000N                               
CUS0695850000106108430007         MANN JOSEPH         8167 PARK HAVEN RD                      000N        CARE OF             
MTR06958500001000000000000000RA              79822734    005800350000003500000360000003NN  NNW 000                       N    
RDG06958500WATRL000000004R00000000000000010003412092015080430N000300000010UFC08     000010400R 10000000010000000000           
RFF0695850070313249      ERT      0000  956.4437500014000012092015080430    104835100W 1220000N                               
CUS0695850000106108429009         WILEY DENNIS W      8165 PARK HAVEN RD                      000N        CARE OF             
MTR06958500001000000000000000RA              79817646    005800360000003600000360000003NN  NNW 000                       N    
RDG06958500WATRL000000004R00000000000000005003512092015080432N000300000010UFC08     000020400R 10000000010000000000           
RFF0695850070288479      ERT      0000  956.4437500014000012092015080431     54276100W 1220000N                               
CUS0695850000106108428001         FITZPATRICK WILLIAM 8163 PARK HAVEN RD                      000N        CARE OF             
MTR06958500001000000000000000RA              79822877    005800370000003700000360000003NN  NNW 000                       N    
RDG06958500WATRL000000004R00000000000000011003612092015080433N000300000010UFC08     000010400R 10000000010000000000           
RFF0695850070313151      ERT      0000  956.4437500014000012092015080433    112532100W 1220000N                               
CUS0695850000106108427003         FAITZ WILLIAM H,JR  8161 PARK HAVEN RD                      000N        CARE OF             
MTR06958500001000000000000000RA              79822731    005800380000003800000360000003NN  NNW 000                       N    
RDG06958500WATRL000000004R00000000000000010003712092015080531N000300000010UFC08     000580400R 10000000010000000000           
RFF0695850070313331      ERT      0000  956.4437500014000012092015080526    104792100W 1220001N                               
CUS0695850000106108426005         MR VICTOR BASSETTI  8159 PARK HAVEN RD                      000N        CARE OF             
MTR06958500001000000000000000RA              79822904    005800390000003900000360000003NN  NNW 000                       N    
RDG06958500WATRL000000004R00000000000000010003812092015080534N000300000010UFC08     000030400R 10000000010000000000           
RFF0695850070315012      ERT      0000  956.4437500014000812092015080531    104373100W 1220000N                               
CUS0695850000106108425007         MALLOY RICHARD G,JR 8157 PARK HAVEN RD                      000N        CARE OF             
MTR06958500001000000000000000RA              79822848    005800400000004000000360000003NN  NNW 000                       N    
RDG06958500WATRL000000004R00000000000000004003912092015080543N000300000010UFC08     000090400R 10000000010000000000           
RFF0695850070313860      ERT      0000  956.4437500014000012092015080537     46369100W 1220000N                               
CUS0695850000106108424000         CHADDERTON TRACIE L 8155 PARK HAVEN RD                      000N        CARE OF             
MTR06958500001000000000000000RA              79822733    005800410000004100000360000003NN  NNW 000                       N    
RDG06958500WATRL000000004R00000000000000005004012092015080550N000300000010UFC08     000070400R 10000000010000000000           
RFF0695850070313211      ERT      0000  956.4437500014000012092015080545     54783100W 1220000N                               
CUS0695850000106108423002         JEZNACH STEPHEN     8153 PARK HAVEN RD                      000N        CARE OF             
MTR06958500001000000000000000RA              79822730    005800420000004200000360000003NN  NNW 000                       N    
RDG06958500WATRL000000004R00000000000000006004112092015080552N000300000010UFC08     000020400R 10000000010000000000           
RFF0695850070313246      ERT      0000  956.4437500014000012092015080551     60962100W 1220000N                               
CUS0695850000106108422004         DEFALCO DAVID F,JR  8151 PARK HAVEN RD                      000N        CARE OF             
MTR06958500001000000000000000RA              79820082    005800430000004300000360000003NN  NNW 000                       N    
RDG06958500WATRL000000004R00000000000000011004212092015080554N000300000010UFC08     000020400R 10000000010000000000           
RFF0695850070292733      ERT      0000  956.4437500014000412092015080553    114504100W 1220000N                               
CUS0695850000106108421006         NICHOLSON EDNA M    8149 PARK HAVEN RD                      000N        CARE OF             
MTR06958500001000000000000000RA              79822845    005800440000004400000360000003NN  NNW 000                       N    
RDG06958500WATRL000000004R00000000000000003004312092015080556N000300000010UFC08     000020400R 10000000010000000000           
RFF0695850070313901      ERT      0000  956.4437500014000012092015080555     31174100W 1220000N                               
CUS0695850000106108420008         FEDERAL NATIONAL MOR8147 PARK HAVEN RD                      000N        CARE OF             
MTR06958500001000000000000000RA              79820079    005800450000004500000360000003NN  NNW 000                       N    
RDG06958500WATRL000000004R00000000000000003004412092015080718N000000000010UFC08     000820400K 10000000010000000000           
RFF0695850070292440      ERT      0000  956.4437500014000000000000000000                  0001Y                               
CUS0695850000106108419000         HOUSE CYNTHIA R     8145 PARK HAVEN RD                      000N        CARE OF             
MTR06958500001000000000000000RA              79820078    005800460000004600000360000003NN  NNW 000                       N    
RDG06958500WATRL000000004R00000000000000005004512092015080747N000300000010UFC08     000290400R 10000000010000000000           
RFF0695850070292458      ERT      0000  956.4437500014000012092015080720     54225100W 1220000N                               
