FHDNNNN020002972002972003161N                                                                                           009779
RHD09930900NN00790079000000790000000000580058000031NY005800580079000800070000000000000000000001    11122015NY020000 N         
CUS0993090000106443689002         TBR-MCB EASTPOINT LL7907 EASTERN AVE                        000N        CARE OF             
MTR09930900001000000000000000RA              14928267    007500010000000100000310000003NN  NNW 000                       N    
RDG09930900WATRL000000004K00000000000001655000112092015122026N000100000010N91       000000400K 10000000010000001655           
CUS0993090000108438403001         GEORGE R NORRIS INC 925 MERRITT BLVD                        000N        CARE OF             
MTR09930900001000000000000000RA              0008072     000800020000000200000630000000NN  NNW 000   FERRULE APPLIED     N    
RDG09930900WATRL000000006K00000000000000000000212092015122029S002000000000N91       000030600K 10000000010000005480           
CUS0993090000106443690000         TRP-MCB EASTPOINT LL7907 EASTERN AVE                        000N        CARE OF             
MTR09930900001000000000000000RA              00166065    000100030000000300000570000003NN  NNW 000                       N    
RDG09930900WATRL000000004K00000000000005526000312092015122034N000000000000N91       000050400K 10000000010000005311           
CUS0993090000109096684007         MERRITT MANOR LLC   1131 MERRITT BLVD                       000N        CARE OF             
MTR09930900002000000000000000RA              77897306    000800040000000400000570000003NN  NNW 000   FIRE SERVICE        N    
RDG09930900WATAL000000006K00000000000000050000412092015122040N000100000010N91       000060600K 10000000010000000050           
RDG09930900WATBL000000006K00000000000000001000512092015122045N000400000010N91       000050600K 10000000010000000000           
CUS0993090000106443691008         TRP-MCB EASTPOINT LL7905 EASTERN AVE                        000N        CARE OF             
MTR09930900001000000000000000RA              14914820    001500050000000500000310000000NN  NNW 000                       N    
RDG09930900WATRL000000005K00000000000002430000612092015122055N000000000000N91       000100500K 10000000010000002314           
CUS0993090000109096685004         MERRITT MANOR, LLC  1131 MERRITT BLVD                       000N        CARE OF             
MTR09930900001000000000000000RA              78365734    000300060000000600000460000003NN  NNW 000                       N    
RDG09930900WATRL000000005K00000000000001328000712092015122109N000000000000N91       000140500K 10000000010000000562           
CUS0993090000109096686002         LICHTMAN HARRY      2807 N POINT RD                         000N        CARE OF             
MTR09930900001000000000000000RA              5125010     000600070000000700000410000003NN  NNW 000   FIRE SERVICE        N    
RDG09930900WATRL000000006K00000000000000000000112102015121651N000000000000U91       000000600K 10000000010000000000           
CUS0993090000109096687000         LICHTMAN HARRY      2807 N POINT RD                         000N        CARE OF             
MTR09930900001000000000000000RA              35100973    007500080000000800000520000003NY  NNW 000                       N    
MTM0993090035100973    GONE OVER                                                                                              
RDG09930900WATRL000000004K00000000000000001000212102015121658N000400000010U91       000070400K 10000000010000009968           
CUS0993090000109096688008         BYUNG J CHOI        2825 N POINT RD                         000N        CARE OF             
MTR09930900001000000000000000RA              4913607     000600090000000900000410000003NY  NNW 000   FIRE SERVICE        N    
MTM099309004913607     CLEAN OUT                                                                                              
RDG09930900WATRL000000006K00000000000000000000000000000000000 000000000000U         000000600  10000000010000000044           
CUS0993090000109096689006         BYUNG JOO CHOI      2825 N POINT RD                         000N        CARE OF             
MTR09930900001000000000000000RA              50477726    005800100000001000000520000003NN  NNW 000                       N    
RDG09930900WATRL000000004K00000000000006708000312102015121758N000400000010U91       000600400K 10000000010000006706           
CUS0993090000109096690004         8124 NORRIS LANE LLC8124 NORRIS LN                          000N        CARE OF             
MTR09930900001000000000000000RA              99170757    001500110000001100000570000003NN  NNW 000                       N    
RDG09930900WATRL000000005K00000000000000987000412102015121803N000000000000U91       000050500K 10000000010000000982           
CUS0993090000109096691002         BOBS TRANSPORT AND S8130 NORRIS LN                          000N        CARE OF             
MTR09930900001000000000000000RA              01105640    000200120000001200000610000003NN  NNW 000                       N    
RDG09930900WATRL000000005K00000000000000603000512102015121808N000000000000U91       000050500K 10000000010000000592           
CUS0993090000109096692000         BROWNING-FERRIS INC 8150 TRAPPE RD                          000N        CARE OF             
MTR09930900003000000000000000RA              5649258     000800130000001300000480000003NY  NNW 000   FIRE SERVICE        N    
MTM099309005649258     CANT LOC                                                                                               
RDG09930900WATAL000000006K00000000000000000000000000000000000 000000000000U         000000600  10000000010000006065           
RDG09930900WATBL000000006K00000000000000000000000000000000000 000000000000U         000000600  10000000010000000166           
RDG09930900WATCL000000006K00000000000000000000000000000000000 000000000000U         000000600  10000000010000000050           
CUS0993090000109096693008         BFI/NORRIS FARM LAND8150 TRAPPE RD                          000N        CARE OF             
MTR09930900001000000000000000RA              01105568    000200140000001400000610000003NY  NNW 000                       N    
MTM0993090001105568    CANT LOC                                                                                               
RDG09930900WATRL000000005K00000000000000000000000000000000000 000000000000U         000000500  10000000010000002718           
CUS0993090000109435148003         BRAWNER BUILDERS, IN8149 NORRIS LN                          000N        CARE OF             
MTR09930900001000000000000000RA              01105019    001500150000001500000610000000NN  NNW 000                       N    
RDG09930900WATRL000000005K00000000000004889000612102015121921N000000000000U91       000730500K 10000000010000004865           
CUS0993090000109096694006         MILLER REAL ESTATE C2401 N POINT BLVD                       000N        CARE OF             
MTR09930900001000000000000000RA              3955207     000800160000001600000410000003NN  NNW 000   FIRE SERVICE        N    
RDG09930900WATRL000000006K00000000000000000000812102015121924S005000000000U91       000030600K 10000000010000000022           
CUS0993090000109096695003         MILLER REAL ESTATE C2401 N POINT BLVD                       000N        CARE OF             
MTR09930900001000000000000000RA              29194653    000200170000001700000490000003NN  NNW 000                       N    
RDG09930900WATRL000000005K00000000000072890000912092015122221N000000000000N91       000560500K 10000000010000071867           
CUS0993090000109096696001         BALTIMORE ASSOCIATIO1401 N POINT RD                         000N        CARE OF             
MTR09930900001000000000000000RA              35109488    000200180000001800000520000003NN  NNW 000                       N    
RDG09930900WATRL000000005K00000000000030038001012092015122224N000000000000N91       000030500K 10000000010000029828           
CUS0993090000109096697009         NORTH POINT SHOPPING2301 N POINT BLVD                       000N        CARE OF             
MTR09930900001000000000000000RA              1450815     000300190000001900000490000003NN  NNW 000                       N    
RDG09930900WATRL000000005K00000000000002030000812102015122032N000400000010U91       000680500K 10000000010000002000           
CUS0993090000109351868006         NORTH POINT SHOPPING2301 N POINT BLVD                       000N        CARE OF             
MTR09930900003000000000000000RA              5899528     000800200000002000000480000003NN  NNW 000   FIRE SERVICE        N    
RDG09930900WATAL000000006K00000000000000001000912102015122043N000000000010U91       000110600K 10000000010000000004           
RDG09930900WATBL000000006K00000000000000427001012102015122049N000300000010U91       000060600K 10000000010000000648           
RDG09930900WATCL000000006K00000000000000000001112102015122109S005000000000U91       000200600K 10000000010000003840           
CUS0993090000109096698007         NORTH POINT SHOPPING2301 N POINT BLVD                       000N        CARE OF             
MTR09930900001000000000000000RA              99169920    000200210000002100000570000003NN  NNW 000                       N    
RDG09930900WATRL000000005K00000000000003584001212102015122117N000000000000U91       000080500K 10000000010000003539           
CUS0993090000109351869004         NORTH POINT SHOPPING2301 N POINT BLVD                       000N        CARE OF             
MTR09930900001000000000000000RA              26016830    005800220000002200000520000003NN  NNW 000                       N    
RDG09930900WATRL000000004K00000000000000000001312102015122121N000000000000U91       000040400K 10000000010000000000           
CUS0993090000109427250007         WALMART STORES 01-152399 NORTH POINT BLVD                   000N        CARE OF             
MTR09930900002000000000000000RA              70052685    000800230000002300000560000003NN  NNW 000                       N    
RDG09930900WATAL000000006K00000000000000211001112092015122237N000000000010N91       000130600K 10000000010000000208           
RDG09930900WATBL000000006K00000000000027795001212092015122248N000400000010N91       000110600K 10000000010000027794           
CUS0993090000109400091006         TRUE2FORM COLLISIONS1125 OLD NORTH POINT RD                 000N        CARE OF             
MTR09930900002000000000000000RA              7235956     000800240000002400000630000003NN  NNW 000                       N    
RDG09930900WATAL000000006K00000000000000001001312092015122319N000100000010N91       000310600K 10000000010000000001           
RDG09930900WATBL000000006K00000000000001265001412092015122329N000400000010N91       000100600K 10000000010000001236           
CUS0993090000109374184001         OLD CARRIAGE ASSOCIA1111 NORTH POINT RD                     000N        CARE OF             
MTR09930900001000000000000000RA              00165105    000100250000002500000570000003NN  NNW 000                       N    
RDG09930900WATRL000000004K00000000000001079001512092015122623N000000000000N91       001740400K 10000000010000000961           
CUS0993090000109374183003         OLD CARRIAGE ASSOCIA1111 NORTH POINT RD                     000N        CARE OF             
MTR09930900003000000000000000RA              7031871     000800260000002600000480000003NN  NNW 000   FIRE SERVICE        N    
RDG09930900WATAL000000006K00000000000000000001612092015122653N000000000011N91       000260600K 10000000010000000021           
RDG09930900WATBL000000006K00000000000000015001712092015122705N000300000010N91       000120600K 10000000010000001113           
RDG09930900WATCL000000006K00000000000000000001812092015122724S022000000000N91       000190600K 10000000010000000000           
CUS0993090000109404701006         PTW LTD PARTNERSHIP 1092 NORTH POINT BLVD                   000N        CARE OF             
MTR09930900003000000000000000RA              8019421     000800270000002700000480000003NN  NNW 000   FIRE SERVICE        N    
RDG09930900WATAL000000006K00000000000000000001912102015122153S005000000001U91       000320600K 10000000010000003426           
RDG09930900WATBL000000006K00000000000000000002012102015122155S005000000000U91       000020600K 10000000010000000123           
RDG09930900WATCL000000006K00000000000000000002112102015122203N000100000010U91       000080600K 10000000010000000000           
CUS0993090000109404703002         PTW LTD PARTNERSHIP 1092 NORTH POINT BLVD                   000N        CARE OF             
MTR09930900001000000000000000RA              25307945    001500280000002800000520000003NN  NNW 000                       N    
RDG09930900WATRL000000005K00000000000002249002212092015122746N000000000000N91       000060500K 10000000010000002236           
CUS0993090000109404698004         PTW LTD PARTNERSHIP 1086 NORTH POINT BLVD                   000N        CARE OF             
MTR09930900003000000000000000RA              8029318     000800290000002900000480000003NN  NNW 000   FIRE SERVICE        N    
RDG09930900WATAL000000006K00000000000000002002312102015122229N000000000000U91       000260600K 10000000010000000002           
RDG09930900WATBL000000006K00000000000000013002412102015122234N000100000010U91       000050600K 10000000010000000013           
RDG09930900WATCL000000006K00000000000000001002512102015122240N000100000010U91       000060600K 10000000010000000001           
CUS0993090000109404700008         J & K AUTOMOTIVE    1086 NORTH POINT BLVD                   000N        CARE OF             
MTR09930900001000000000000000RA              35109335    001500300000003000000520000003NN  NNW 000                       N    
RDG09930900WATRL000000005K00000000000055135002612092015122900N000000000000N91       000390500K 10000000010000055003           
CUS0993090000109096699005         GEORGE R NORRIS INC 901 MERRITT BLVD                        000N        CARE OF             
MTR09930900001000000000000000RA              11800859    000300310000003100000640000003NN  NNW 000                       N    
RDG09930900WATRL000000005K00000000000002149002712092015122907N000000000000N91       000070500K 10000000010000002069           
CUS0993090000109438404007         GEORGE R NORRIS INC 901 MERRITT BLVD                        000N        CARE OF             
MTR09930900002000000000000000RA              0008072     000800320000003200000630000003NN  NNW 000                       N    
RDG09930900WATAL000000006K00000000000000005002812092015122914N000100000010N91       000070600K 10000000010000000005           
RDG09930900WATBL000000006K00000000000001343002912092015122922N000400000010N91       000080600K 10000000010000001107           
CUS0993090000109096700001         THOMPSON MOTOR SALES1000 MERRITT BLVD                       000N        CARE OF             
MTR09930900001000000000000000RA              36369357    000100330000003300000520000003NN  NNW 000                       N    
RDG09930900WATRL000000004K00000000000000934003012092015122938N000000000000N91       000160400K 10000000010000000859           
CUS0993090000109096701009         EASTPOINT OFFICE PAR1101 N POINT BLVD                       000N        CARE OF             
MTR09930900001000000000000000RA              1395687     000200340000003400000490000003NN  NNW 000                       N    
RDG09930900WATRL000000005K00000000000078737003112092015122943N000000000000N91       000050500K 10000000010000077297           
CUS0993090000109096703005         EASTPOINT OFFICE PAR1001-05 N POINT BLVD                    000N        CARE OF             
MTR09930900002000000000000000RA              5603812     000600350000003500000480000003NN  NNW 000   FIRE SERVICE        N    
RDG09930900WATAL000000006K00000000000000003003212092015122947N000000000000N91       000040600K 10000000010000000003           
RDG09930900WATBL000000006K00000000000000002003312092015122952N000400000010N91       000050600K 10000000010000000001           
CUS0993090000109096704003         EASTPOINT OFFICE PAR1001-05 N POINT BLVD                    000N        CARE OF             
MTR09930900001000000000000000RA              31588457    000200360000003600000520000003NN  NNW 000                       N    
RDG09930900WATRL000000005K00000000000091321003412092015123000N000000000000N91       000080500K 10000000010000090940           
CUS0993090000109375348001         EASTPOINT VENTURES,L1046 NORTH POINT RD                     000N        CARE OF             
MTR09930900001000000000000000RA              E17977      000600370000003700000430000003NN  NNW 000   FIRE SERVICE        N    
RDG09930900WATRL000000006K00000000000000000003512092015123004N000000000000N91       000040600K 10000000010000000000           
CUS0993090000109375349009         EASTPOINT VENTURES,L1046 NORTH POINT RD                     000N        CARE OF             
MTR09930900001000000000000000RA              1304870     000200380000003800000490000003NN  NNW 000                       N    
RDG09930900WATRL000000005K00000000000008011003612092015123220N000000000000N91       001360500K 10000000010000004943           
CUS0993090000109096708004         BALTIMORE COUNTY MD NWC BERKSHIRE RD &                      000N        CARE OF             
MTR09930900001000000000000000RA              00066615    000200390000003900000570000003NN  NNW 000                       N    
RDG09930900WATRL000000005K00000000000005328003712092015123225N000000000000N91       000050500K 10000000010000005242           
CUS0993090000109407355008         THOR EASTPOINT MALL 7711 EASTERN AVE                        000N        CARE OF             
MTR09930900002000000000000000RA              9130296     001000400000004000000540000003NN  NNW 000                       N    
RDG09930900WATAL000000007K00000000000000002003812092015123307N000100000010N91       000420700K 10000000010000000002           
RDG09930900WATBL000000007K00000000000052994003912092015123328N000000000000N91       000210700K 10000000010000004404           
CUS0993090000109443686002         THOR EASTPOINT MALL 7907 EASTERN AVE                        000N        CARE OF             
MTR09930900001000000000000000RA              8052238     000600410000004100000410000003NN  NNW 000   FIRE SERVICE        N    
RDG09930900WATRL000000006K00000000000000002004012092015123345N000000000010N91       000170600K 10000000010000000001           
CUS0993090000109367796001         BACK RIVER WASTE WAT8201 EASTERN BLVD                       000N        CARE OF             
MTR09930900002000000000000000RA              7026370     000800420000004200000540000003NN  NNW 000                       N    
RDG09930900WATAL000000006K00000000000057944002012102015122447N000000000001U91       000750600K 10000000010000005103           
RDG09930900WATBL000000006K00000000000876016002112102015122517N000300000021U91       000300600K 10000000010001184695           
CUS0993090000109431680009         BOARD OF EDUCATION  7431 POPLAR AVE                         000N        CARE OF             
MTR09930900001000000000000000RA              8046622     000600430000004300000380000000NN  NNW 000   FIRE SERVICE        N    
RDG09930900WATRL000000006K00000000000000002004112092015123357N000000000000N91       000120600K 10000000010000000002           
CUS0993090000109431682005         BOARD OF EDUCATION  7431 POPLAR AVE                         000N        CARE OF             
MTR09930900001000000000000000RA              11800708    000300440000004400000460000000NN  NNW 000                       N    
RDG09930900WATRL000000005K00000000000001436004212092015123459N000300000010N91       000620500K 10000000010000001283           
CUS0993090000109096710000         GT NORTH POINT LLC  809 N POINT BLVD                        000N        CARE OF             
MTR09930900003000000000000000RA              5124987     000800450000004500000480000003NN  NNW 000   FIRE SERVICE        N    
RDG09930900WATAL000000006K00000000000000000004312092015123502N000000000000N91       000030600K 10000000010000000000           
RDG09930900WATBL000000006K00000000000000090004412092015123508N000400000010N91       000060600K 10000000010000000086           
RDG09930900WATCL000000006K00000000000000428004512092015123513N000400000010N91       000050600K 10000000010000000427           
CUS0993090000109096711008         GT NORTH POINT LLC  809 N POINT BLVD                        000N        CARE OF             
MTR09930900001000000000000000RA              28593246    000100460000004600000520000003NN  NNW 000                       N    
RDG09930900WATRL000000004K00000000000004109004612092015123517N000000000000N91       000040400K 10000000010000004107           
CUS0993090000109407357004         TRP-MCB EASTPOINT LL710 NORTH POINT BLVD                    000N        CARE OF             
MTR09930900002000000000000000RA              9103291     001000470000004700000630000003NY  NNW 000                       N    
MTM099309009103291     OK  NOT READING                                                                                        
RDG09930900WATAL000000007K00000000000000000002212102015122532N000300000010U91       000150700K 10000000010000000002           
RDG09930900WATBL000000007K00000000000000000000000000000000000 000000000000U         000000700  10000000010000004116           
CUS0993090000109395164008         307 WISE AVE LLC    717 NORTH POINT BLVD                    000N        CARE OF             
MTR09930900001000000000000000RA              E22243      000400480000004800000430000003NN  NNW 000   FIRE SERVICE        N    
RDG09930900WATRL000000006K00000000000000000004712092015123525N000000000000N91       000080600K 10000000010000000000           
CUS0993090000109395166003         307 WISE AVE LLC    717 NORTH POINT BLVD                    000N        CARE OF             
MTR09930900001000000000000000RA              36700407    001500490000004900000520000003NN  NNW 000   INVALID DAC         N    
RDG09930900WATRL000000005K00000000000016340004812092015123545N000000000000N91       000200500K 10000000010000016340           
CUS0993090000109442413002         THOMPSON 124 NORTHPO124 NORTH POINT BLVD                    000N        CARE OF             
MTR09930900001000000000000000RA              00165681    000100500000005000000570000000NN  NNW 000                       N    
RDG09930900WATRL000000004K00000000000004718002312102015122649N000000000000U91       000770400K 10000000010000004561           
CUS0993090000109442411006         THOMPSON 124        124 NORTH POINT BLVD                    000N        CARE OF             
MTR09930900001000000000000000RA              00163761    000600510000005100000380000000NN  NNW 000   FIRE SERVICE        N    
RDG09930900WATRL000000006K00000000000000005002412102015122654N000000000000U91       000050600K 10000000010000000005           
CUS0993090000109445397004         CROSSROADS EASTERN A6801 EASTERN AVE                        000N        CARE OF             
MTR09930900001000000000000000RA              90000088    000200520000005200000570000000NN  NNW 000                       N    
RDG09930900WATRL000000005K00000000000006461002512102015122726N000000000000U91       000320500K 10000000010000006023           
CUS0993090000109433216000         6751 EASTERN AVENUE 6821 EASTERN AVE                        000N        CARE OF             
MTR09930900001000000000000000RA              8047241     000600530000005300000380000000NN  NNW 000   FIRE SERVICE        N    
RDG09930900WATRL000000006K00000000000000010002612102015122730N000000000000U91       000040600K 10000000010000000010           
CUS0993090000109433218006         EXTRA SPACE STORAGE-6821 EASTERN AVE                        000N        CARE OF             
MTR09930900001000000000000000RA              99293707    005800540000005400000570000000NN  NNW 000                       N    
RDG09930900WATRL000000004K00000000000000402002712102015122735N000300000010U91       000050400K 10000000010000000394           
CUS0993090000106440938006         COLLIN SCARLETT     6820 EASTERN AVE                        000N        CARE OF             
MTR09930900001000000000000000RA              99999999    005800550000005500000620000000NN  NNW 000   FERRULE APPLIED     N    
RDG09930900WATRL000000004K00000000000000000002812102015122752S002000000000U91       000170400K 10000000010000000344           
CUS0993090000109453266000         COLLIN SCARLETT     6820 EASTERN AVE                        000N        CARE OF             
MTR09930900001000000000000000RA              0006894     000400560000005600000620000003NN  NNW 000   FIRE SERVICE        N    
RDG09930900WATRL000000006K00000000000000000000000000000000000 000000000000U         000000600  10000000010000000000           
CUS0993090000109453269004         COLLIN SCARLETT     6820 EASTERN AVE                        000N        CARE OF             
MTR09930900001000000000000000RA              70000862    001500570000005700000570000000NN  NNW 000                       N    
RDG09930900WATRL000000005K00000000000000000000000000000000000 000000000000U         000000500  10000000010000000261           
CUS0993090000109096740007         BUREAU OF SEWERS    8201 EASTERN BLVD                       000N        CARE OF             
MTR09930900002000000000000000RA              4357768     000600580000005800000560000003NN  NNW 000                       N    
RDG09930900WATAL000000006K00000000000001552002912102015123332N000400000010U91       003400600K 10000000010000001545           
RDG09930900WATBL000000006K00000000000069210003012102015123437N000000000000U91       000650600K 10000000010000036750           
RTR09930900NN00790079000000790000000000580058000031NY005800580079000800070000000000000000000001    11122015NY020000 N         
RHD09930700NN00650065000000650000000000520052000031NY005200520065000500020000000000000000000001    11122015NY020000 N         
CUS0993070000109423194001         MIDDLESEX ASSOCIATES1200 EASTERN BLVD                       000N        CARE OF             
MTR09930700002000000000000000RA              9706683     000800010000000100000630000003NN  NNW 000                       N    
RDG09930700WATAL000000006K00000000000000001000112092015112458N000100000010N93       000000600K 10000000010000000001           
RDG09930700WATBL000000006K00000000000001083000212092015112503N000400000010N93       000050600K 10000000010000000889           
CUS0993070000109096659009         A G G REALTY JOINT V1200-10 EASTERN BLVD                    000N        CARE OF             
MTR09930700001000000000000000RA              99999999    000600020000000200000620000003NN  NNW 000   FIRE SERVICE        N    
RDG09930700WATRL000000006K00000000000000000000312092015112506N000000000000N93       000030600K 10000000010000000000           
CUS0993070000109096783007         MIDDLESEX ASSOCIATES1340 EASTERN BLVD                       000N        CARE OF             
MTR09930700001000000000000000RA              01105628    000200030000000300000610000003NN  NNW 000                       N    
RDG09930700WATRL000000005K00000000000003460000412092015112511N000400000010N93       000050500K 10000000010000003416           
CUS0993070000109096784005         A G G REALTY JOINT V1300-06 EASTERN BLVD                    000N        CARE OF             
MTR09930700001000000000000000RA              5275689     000600040000000400000410000003NN  NNW 000   FIRE SERVICE        N    
RDG09930700WATRL000000006K00000000000000000000512092015112513N000000000000N93       000020600K 10000000010000000000           
CUS0993070000109096785002         MIDDLESEX ASSOCIATES1300-06 EASTERN BLVD                    000N        CARE OF             
MTR09930700001000000000000000RA              29724371    001500050000000500000520000003NN  NNW 000                       N    
RDG09930700WATRL000000005K00000000000019658000612092015112516N000000000000N93       000030500K 10000000010000019304           
CUS0993070000109096786000         BALTIMORE COUNTY    NS MYRTH AV 665 FT                      000N        CARE OF             
MTR09930700001000000000000000RA              99169922    000200060000000600000570000003NN  NNW 000                       N    
RDG09930700WATRL000000005K00000000000003850000712092015112520N000000000000N93       000040500K 10000000010000003782           
CUS0993070000109096787008         BALTIMORE COUNTY    216 N MARLYN AVE                        000N        CARE OF             
MTR09930700001000000000000000RA              01117310    000200070000000700000610000003NY  NNW 000                       N    
MTM0993070001117310    COND                                                                                                   
RDG09930700WATRL000000005K00000000000000000000000000000000000 000000000000U         000000500  10000000010000005514           
CUS0993070000109357844001         ESSEX NON-PROFIT    1000 FRANKLIN AVE                       000N        CARE OF             
MTR09930700003000000000000000RA              6086445     000800080000000800000480000003NN  NNW 000   FIRE SERVICE        N    
RDG09930700WATAL000000006K00000000000000030000812092015112528N000100000010N93       000080600K 10000000010000000030           
RDG09930700WATBL000000006K00000000000000118000912092015112533N000100000010N93       000050600K 10000000010000000118           
RDG09930700WATCL000000006K00000000000000245001012092015112538N000100000010N93       000050600K 10000000010000000245           
CUS0993070000109357845008         ESSEX NON-PROFIT    1000 FRANKLIN AVE                       000N        CARE OF             
MTR09930700001000000000000000RA              10803517    000300090000000900000640000003NN  NNW 000                       N    
RDG09930700WATRL000000005K00000000000035599001112092015112542N000000000000N93       000040500K 10000000010000033268           
CUS0993070000109096788006         ST CLARE ROMAN CATH 718 MYRTH AVE                           000N        CARE OF             
MTR09930700001000000000000000RA              9305945     000300100000001000000640000003NN  NNW 000                       N    
RDG09930700WATRL000000005K00000000000007756001212092015112553N000400000010N93       000110500K 10000000010000007630           
CUS0993070000109096789004         ALEXANDER HOMER     801 DORSEY AVE                          000N        CARE OF             
MTR09930700001000000000000000RA              14904092    005800110000001100000310000003NY  NNW 000                       N    
MTM0993070014904092    K                                                                                                      
RDG09930700WATRL000000004K00000000000000083001312092015112559N000300000010N93       000060400K 10000000010000000118           
CUS0993070000109374188002         BALTIMORE COUNTY MD 600 DORSEY AVE                          000N        CARE OF             
MTR09930700001000000000000000RA              E16518      000600120000001200000430000003NN  NNW 000   FIRE SERVICE        N    
RDG09930700WATRL000000006K00000000000000000001412092015112601N000000000000N93       000020600K 10000000010000000000           
CUS0993070000109374189000         BALTIMORE COUNTY MD 600 DORSEY AVE                          000N        CARE OF             
MTR09930700001000000000000000RA              31938018    000100130000001300000520000003NN  NNW 000                       N    
RDG09930700WATRL000000004K00000000000001180001512092015112604N000000000000N93       000030400K 10000000010000001141           
CUS0993070000109096790002         URBAN DESIGN INC    620-26 FRANKLIN AVE                     000N        CARE OF             
MTR09930700001000000000000000RA              01105274    001500140000001400000610000003NN  NNW 000                       N    
RDG09930700WATRL000000005K00000000000002172001612092015112612N000000000000N93       000080500K 10000000010000002118           
CUS0993070000109096792008         BALTO CO PUBLIC SCHO1100 MACE AVE                           000N        CARE OF             
MTR09930700002000000000000000RA              5003409     000600150000001500000630000003NN  NNW 000                       N    
RDG09930700WATAL000000006K00000000000000111001712092015112620N000100000010N93       000080600K 10000000010000000111           
RDG09930700WATBL000000006K00000000000005419001812092015112627N000400000010N93       000070600K 10000000010000004272           
CUS0993070000109396969009         GT LAND LLC         8250 EASTERN BLVD                       000N        CARE OF             
MTR09930700002000000000000000RA              7222961     001000160000001600000480000003NN  NNW 000                       N    
RDG09930700WATAL000000007K00000000000000001001912092015112633N000100000010N93       000060700K 10000000010000000001           
RDG09930700WATBL000000007K00000000000001821002012092015112645N000400000010N93       000120700K 10000000010000001771           
CUS0993070000109096794004         MIRABILE RUSSELL R  400 MIRABILE LN                         000N        CARE OF             
MTR09930700001000000000000000RA              1178421     001500170000001700000490000003NY  NNW 000                       N    
MTM099307001178421     OK                                                                                                     
RDG09930700WATRL000000005K00000000000008400000112102015122154N000300000010U84       000000500K 10000000010000008500           
CUS0993070000109096796009         GEM OF BALTIMORE - E7930 EASTERN BLVD                       000N        CARE OF             
MTR09930700001000000000000000RA              4087008     001000180000001800000410000003NN  NNW 000   FIRE SERVICE        N    
RDG09930700WATRL000000007K00000000000000000002112092015112650N000000000000N93       000050700K 10000000010000000000           
CUS0993070000109096797007         GEM OF BALTIMORE - E7930 EASTERN BLVD                       000N        CARE OF             
MTR09930700001000000000000000RA              01105542    000200190000001900000610000003NN  NNW 000                       N    
RDG09930700WATRL000000005K00000000000017205002212092015112653N000000000000N93       000030500K 10000000010000016496           
CUS0993070000109349015009         GEM OF BALTIMORE - E7928 EASTERN AVE                        000N        CARE OF             
MTR09930700001000000000000000RA              1257018     001500200000002000000490000003NN  NNW 000                       N    
RDG09930700WATRL000000005K00000000000000469002312092015112658N000000000000N93       000050500K 10000000010000000448           
CUS0993070000109349016007         GEM OF BALTIMORE - E7928 EASTERN AVE                        000N        CARE OF             
MTR09930700003000000000000000RA              5977887     000800210000002100000480000003NN  NNW 000   FIRE SERVICE        N    
RDG09930700WATAL000000006K00000000000000012002412092015112701N000000000000N93       000030600K 10000000010000000012           
RDG09930700WATBL000000006K00000000000000147002512092015112706N000100000010N93       000050600K 10000000010000000147           
RDG09930700WATCL000000006K00000000000000142002612092015112712N000100000010N93       000060600K 10000000010000000142           
CUS0993070000109096798005         BELLAS HERMANAS LLC 7900 EASTERN AVE                        000N        CARE OF             
MTR09930700001000000000000000RA              32575092    001500220000002200000520000003NN  NNW 000                       N    
RDG09930700WATRL000000005K00000000000043116002712092015112718N000300000010N93       000060500K 10000000010000042198           
CUS0993070000109096800009         SCP-EBC LLC         7998 E BALTIMORE ST                     000N        CARE OF             
MTR09930700001000000000000000RA              28966919    000200230000002300000520000003NN  NNW 000                       N    
RDG09930700WATRL000000005K00000000000047470002812092015112728N000400000010N93       000100500K 10000000010000047294           
CUS0993070000109436120001         BALTIMORE BUSINESS P7700 ROLLING MILL RD                    000N        CARE OF             
MTR09930700002000000000000000RA              0005287     001200240000002400000630000000NY  NNW 000                       N    
MTM099307000005287     OK                    ERT                                                                              
RDG09930700WATAL000000007K00000000000002505002912102015124013N000308400010U84       010990700K 10000000010000000055           
RDG09930700WATBL000000007K00000000000000000000000000000000000 000000000000U         000000700  10000000010000001442           
CUS0993070000109096801007         J & G REALTY LLC    7600 ROLLING MILL RD                    000N        CARE OF             
MTR09930700001000000000000000RA              01105456    000200250000002500000610000003NN  NNW 000                       N    
RDG09930700WATRL000000005K00000000000004988003012092015112812N000400000010N93       000140500K 10000000010000004952           
CUS0993070000109096802005         FISH LIPS LLC       7211 ROLLING MILL RD                    000N        CARE OF             
MTR09930700001000000000000000RA              5705136     000600260000002600000410000003NN  NNW 000   FIRE SERVICE        N    
RDG09930700WATRL000000006K00000000000000000003112092015112815N000000000000N93       000030600K 10000000010000000000           
CUS0993070000109096803003         FISH LIPS LLC       7211 ROLLING MILL RD                    000N        CARE OF             
MTR09930700001000000000000000RA              00118372    007500270000002700000570000003NY  NNW 000                       N    
MTM0993070000118372    K                                                                                                      
RDG09930700WATRL000000004K00000000000000000003212092015112822N000300000010N93       000070400K 10000000010000000027           
CUS0993070000109096804001         DEJANA REALTY OF MAR6901 ROLLING MILL RD                    000N        CARE OF             
MTR09930700001000000000000000RA              1608672     000400280000002800000490000003NN  NNW 000                       N    
RDG09930700WATRL000000006K00000000000003498000312102015124100N000400000010U84       000470600K 10000000010000003294           
CUS0993070000109370936008         SANDERS JOHN W,JR   7117 ROLLING MILL RD                    000N        CARE OF             
MTR09930700001000000000000000RA              4108370     000600290000002900000410000003NN  NNW 000   FIRE SERVICE        N    
RDG09930700WATRL000000006K00000000000000000003312092015112831N000000000000N93       000090600K 10000000010000000000           
CUS0993070000109370937006         SANDERS JOHN W,JR   7117 ROLLING MILL RD                    000N        CARE OF             
MTR09930700001000000000000000RA              00118370    007500300000003000000570000003NN  NNW 000                       N    
RDG09930700WATRL000000004K00000000000000526003412092015112839N000000000000N93       000080400K 10000000010000000519           
CUS0993070000109096805008         MP PROPERTY LLC     7201 ROLLING MILL RD                    000N        CARE OF             
MTR09930700001000000000000000RA              5246556     000800310000003100000410000003NN  NNW 000   FIRE SERVICE        N    
RDG09930700WATRL000000006K00000000000000452003512092015112846N000100000010N93       000070600K 10000000010000000452           
CUS0993070000109096806006         MP PROPERTY ,LLC    7201 ROLLING MILL RD                    000N        CARE OF             
MTR09930700001000000000000000RA              36696476    005800320000003200000520000003NN  NNW 000                       N    
RDG09930700WATRL000000004K00000000000002614000412102015124213N000400000010U84       000730400K 10000000010000002609           
CUS0993070000109096807004         7670 CCD LLC        7670 CANTON CENTER DR                   000N        CARE OF             
MTR09930700001000000000000000RA              4913593     000800330000003300000410000003NN  NNW 000   FIRE SERVICE        N    
RDG09930700WATRL000000006K00000000000000000000512102015124225S005000000000U84       000120600K 10000000010000000001           
CUS0993070000109096808002         7670 CCD LLC        7670 CANTON CENTER DR                   000N        CARE OF             
MTR09930700001000000000000000RA              33416939    007500340000003400000520000003NN  NNW 000                       N    
RDG09930700WATRL000000004K00000000000008919000612102015124238N000000000000U84       000130400K 10000000010000008910           
CUS0993070000109352998000         DUNBAR MS #09       7675 CANTON CENTER DR                   000N        CARE OF             
MTR09930700001000000000000000RA              30610281    000100350000003500000670000003NN  NNW 000                       N    
RDG09930700WATRL000000004K00000000000017472000712102015124335N000000000000U84       000570500K 10000000010000017378           
CUS0993070000109096809000         CANTON CENTER DRIVE 7646 CANTON CENTER DR                   000N        CARE OF             
MTR09930700001000000000000000RA              4733205     000800360000003600000410000003NN  NNW 000   FIRE SERVICE        N    
RDG09930700WATRL000000006K00000000000003170000812102015124429N000100000010U84       000540600K 10000000010000003170           
CUS0993070000109096810008         CANTON CENTER DRIVE 7646 CANTON CENTER DR                   000N        CARE OF             
MTR09930700001000000000000000RA              33416942    007500370000003700000520000003NN  NNW 000                       N    
RDG09930700WATRL000000004K00000000000009958000912102015124435N000000000000U84       000060400K 10000000010000009940           
CUS0993070000109096811006         OVERSEAS DISTRIBUTOR7636 CANTON CENTER DR                   000N        CARE OF             
MTR09930700001000000000000000RA              5003373     000800380000003800000410000003NN  NNW 000   FIRE SERVICE        N    
RDG09930700WATRL000000006K00000000000000000001012102015124443S005000000000U84       000080600K 10000000010000000101           
CUS0993070000109096812004         OVERSEAS DISTRIBUTOR7636 CANTON CENTER DR                   000N        CARE OF             
MTR09930700001000000000000000RA              46890555    007500390000003900000520000003NN  NNW 000                       N    
RDG09930700WATRL000000004K00000000000002132001112102015124457N000000000000U84       000140400K 10000000010000002107           
CUS0993070000109373781005         KRK TITLE HOLDER LP 7616 CANTON CENTER DR                   000N        CARE OF             
MTR09930700002000000000000000RA              7045816     000800400000004000000630000003NN  NNW 000   FIRE SERVICE        N    
RDG09930700WATAL000000006K00000000000000004001212102015124505N000000000000U84       000080600K 10000000010000000004           
RDG09930700WATBL000000006K00000000000000006001312102015124510N000400000010U84       000050600K 10000000010000000005           
CUS0993070000109373853002         KRK TITLE HOLDER LP 7616 CANTON CENTER DR                   000N        CARE OF             
MTR09930700001000000000000000RA              31588089    001500410000004100000520000003NY  NNW 000                       N    
MTM0993070031588089    OK                                                                                                     
RDG09930700WATRL000000005K00000000000028157001412102015124543N000300000010U84       000330500K 10000000010000028291           
CUS0993070000109096813002         CANTON CENTER ASSOC 7677 CANTON CENTER DR                   000N        CARE OF             
MTR09930700001000000000000000RA              36700301    001500420000004200000520000003NN  NNW 000                       N    
RDG09930700WATRL000000005K00000000000003472001512102015124557N000000000000U84       000140500K 10000000010000003471           
CUS0993070000109096814000         KMART #04330        SWC BALTIMORE & 51ST ST                 000N        CARE OF             
MTR09930700003000000000000000RA              5467234     000800430000004300000480000003NN  NNW 000   FIRE SERVICE        N    
RDG09930700WATAL000000006K00000000000000015001612102015124616N000000000000U84       000190600K 10000000010000000015           
RDG09930700WATBL000000006K00000000000000670001712102015124625N000100000010U84       000090600K 10000000010000000670           
RDG09930700WATCL000000006K00000000000000274001812102015124636N000100000010U84       000110600K 10000000010000000274           
CUS0993070000109096815007         K-MART#04330        SWC BALTIMORE & 51ST ST                 000N        CARE OF             
MTR09930700001000000000000000RA              31588448    000200440000004400000520000003NN  NNW 000                       N    
RDG09930700WATRL000000005K00000000000054052001912102015124652N000000000000U84       000160500K 10000000010000053952           
CUS0993070000109096816005         BOARD OF EDUCATION  SS GOUGH ST 124 FT                      000N        CARE OF             
MTR09930700001000000000000000RA              35116886    000200450000004500000520000003NN  NNW 000                       N    
RDG09930700WATRL000000005K00000000000013017002012102015124712N000300000010U84       000200500K 10000000010000012850           
CUS0993070000109096817003         AGNL CONSOLIDATED LL7100 E BALTIMORE ST                     000N        CARE OF             
MTR09930700002000000000000000RA              4091710     001000460000004600000390000003NY  NNW 000   FIRE SERVICE        N    
MTM099307004091710     CAR                                                                                                    
RDG09930700WATAL000000007K00000000000000000000000000000000000 000000000000U         000000700  10000000010000000000           
RDG09930700WATBL000000007K00000000000000000000000000000000000 000000000000U         000000700  10000000010000000000           
CUS0993070000109096818001         AGNL CONSOLIDATED LL7100 E BALTIMORE ST                     000N        CARE OF             
MTR09930700001000000000000000RA              1183927     000600470000004700000490000003NY  NNW 000                       N    
MTM099307001183927     CAR                                                                                                    
RDG09930700WATRL000000006K00000000000000000000000000000000000 000000000000U         000000600  10000000010000005022           
CUS0993070000109096819009         7014 EAST BALTIMORE 7014 BALTIMORE ST                       000N        CARE OF             
MTR09930700001000000000000000RA              5275703     000800480000004800000410000003NN  NNW 000   FIRE SERVICE        N    
RDG09930700WATRL000000006K00000000000000476002112102015124846N000100000010U84       000940600K 10000000010000000476           
CUS0993070000109096820007         7014 EAST BALTIMORE 7014 BALTIMORE ST                       000N        CARE OF             
MTR09930700001000000000000000RA              01116891    000200490000004900000610000003NN  NNW 000                       N    
RDG09930700WATRL000000005K00000000000003406002212102015124857N000300000010U84       000110500K 10000000010000003281           
CUS0993070000109096821005         BALTO CO PUBLIC SCHO428 WESTHAM WAY                         000N        CARE OF             
MTR09930700001000000000000000RA              9215532     000300500000005000000640000003NN  NNW 000                       N    
RDG09930700WATRL000000005K00000000000001596002312102015124905N000000000000U84       000080500K 10000000010000001577           
CUS0993070000109432670009         BOARD OF EDUCATION O428 WESTHAM WAY                         000N        CARE OF             
MTR09930700002000000000000000RA              70048342    000600510000005100000560000000NY  NNW 000   FIRE SERVICE        N    
MTM0993070070048342    OK                                                                                                     
RDG09930700WATAL000000006K00000000000000017002412102015124926N000000000010U84       000210600K 10000000010000000016           
RDG09930700WATBL000000006K00000000000000001002512102015124931N000100000010U84       000050600K 10000000010000000001           
CUS0993070000104388836001         WESTERN OILFIELDS SU7677 ROLLING MILL RD                    000N        CARE OF             
MTR09930700001000000000000000RA              36700079    001500520000005200000520000003NN  NNW 000                       N    
RDG09930700WATRL000000005K00000000000006733002612102015124949N000000000000U84       000180500K 10000000010000006692           
RTR09930700NN00650065000000650000000000520052000031NY005200520065000500020000000000000000000001    11122015NY020000 N         
RHD09930400NN01370137000001370000000001000100000014NY010001000137001700020000000000000000000001    11122015NY020000 N         
CUS0993040000109096742003         RIVERVIEW REHABILITA1 EASTERN BLVD                          000N        CARE OF             
MTR09930400001000000000000000RA              1378862     000200010000000100000490000003NN  NNW 000                       N    
RDG09930400WATRL000000005K00000000000087399000112092015115709N000000000000N93       000000500K 10000000010000085186           
CUS0993040000109348740003         RIVERVIEW REHABILITA1 EASTERN BLVD                          000N        CARE OF             
MTR09930400001000000000000000RA              50384536    000100020000000200000520000003NN  NNW 000                       N    
RDG09930400WATRL000000004K00000000000003295000212092015115714N000000000000N93       000050400K 10000000010000002814           
CUS0993040000109348739005         RIVERVIEW REHABILITA1 EASTERN BLVD                          000N        CARE OF             
MTR09930400001000000000000000RA              5976790     000600030000000300000410000003NN  NNW 000   FIRE SERVICE        N    
RDG09930400WATRL000000006K00000000000000000000312092015115717N000000000000N93       000030600K 10000000010000000000           
CUS0993040000109447651002         RIVERVIEW SQUARE LLC25 EASTERN BLVD                         000N        CARE OF             
MTR09930400001000000000000000RA              90000402    000200040000000400000570000003NN  NNW 000                       N    
RDG09930400WATRL000000005K00000000000001422000412092015115727N000300000010N93       000100500K 10000000010000000616           
CUS0993040000109447649006         RIVERVIEW SQUARE LLC25 EASTERN BLVD                         000N        CARE OF             
MTR09930400001000000000000000RA              0006706     000400050000000500000570000003NN  NNW 000   FIRE SERVICE        N    
RDG09930400WATRL000000006K00000000000000002000512092015115730N000000000000N93       000030600K 10000000010000000002           
CUS0993040000109396484009         BALTO CO CENTRAL SER84A BERKSHIRE RD                        000N        CARE OF             
MTR09930400001000000000000000RA              99170761    001500060000000600000570000003NN  NNW 000                       N    
RDG09930400WATRL000000005K00000000000001864000612092015115736N000000000000N93       000060500K 10000000010000001859           
CUS0993040000109418848009         BOARD OF EDUCATION B100 MACE AVE                            000N        CARE OF             
MTR09930400002000000000000000RA              9501080     000800070000000700000630000003NY  NNW 000                       N    
MTM099304009501080     sod                                                                                                    
RDG09930400WATAL000000006K00000000000000000000000000000000000 000000000000U         000000600  10000000010000000137           
RDG09930400WATBL000000006K00000000000000000000000000000000000 000000000000U         000000600  10000000010000013147           
CUS0993040000109431692004         BOARD OF EDUCATION  515 S WOODWARD DR                       000N        CARE OF             
MTR09930400001000000000000000RA              8046058     000600080000000800000380000000NN  NNW 000   FIRE SERVICE        N    
RDG09930400WATRL000000006K00000000000000002000712092015115743N000000000000N93       000070600K 10000000010000000002           
CUS0993040000109431694000         BOARD OF EDUCATION  515 S WOODWARD DR                       000N        CARE OF             
MTR09930400001000000000000000RA              77859877    000400090000000900000640000000NN  NNW 000                       N    
RDG09930400WATRL000000006K00000000000001343000812092015115751N000300000010N93       000080600K 10000000010000000948           
CUS0993040000109096744009         VILLA CAPRI HOMEOWNE144 VILLA CAPRI CIR                     000N        CARE OF             
MTR09930400002000000000000000RA              2327771     000400100000001000000480000003NN  NNW 000                       N    
RDG09930400WATAL000000006K00000000000000000000912092015115758N000100000010N93       000070600K 10000000010000000000           
RDG09930400WATBL000000006K00000000000013101001012092015115808N000400000010N93       000100600K 10000000010000012523           
CUS0993040000109445570006         BALTIMORE COUNTY MD 332 RIVERSIDE DR                        000N        CARE OF             
MTR09930400001000000000000000RA              90000229    000200110000001100000570000003NN  NNW 000                       N    
RDG09930400WATRL000000005K00000000000002429001112092015115812N000000000000N93       000040500K 10000000010000002423           
CUS0993040000109375336006         CUZ-1 LIMITED PARTNE431-33 EASTERN BLVD                     000N        CARE OF             
MTR09930400001000000000000000RA              E17975      000600120000001200000430000003NN  NNW 000   FIRE SERVICE        N    
RDG09930400WATRL000000006K00000000000000000001212092015115815N000000000000N93       000030600K 10000000010000000000           
CUS0993040000109375337004         CUZ-PROPERTIES LLLP 431-33 EASTERN BLVD                     000N        CARE OF             
MTR09930400001000000000000000RA              31938288    001500130000001300000520000003NN  NNW 000                       N    
RDG09930400WATRL000000005K00000000000021664001312092015115820N000000000000N93       000050500K 10000000010000021558           
CUS0993040000109375520005         PRINCE STEPHANIE G,E439 EASTERN BLVD                        000N        CARE OF             
MTR09930400001000000000000000RA              E17790      000600140000001400000430000003NN  NNW 000   FIRE SERVICE        N    
RDG09930400WATRL000000006K00000000000000000001412092015115823N000000000000N93       000030600K 10000000010000000000           
CUS0993040000109375521003         CUZ IV,LLLP         439 EASTERN BLVD                        000N        CARE OF             
MTR09930400001000000000000000RA              32575005    001500150000001500000520000003NN  NNW 000                       N    
RDG09930400WATRL000000005K00000000000017268001512092015115828N000000000000N93       000050500K 10000000010000017214           
CUS0993040000109096745006         8725 ACQUISITION , L501-07 EASTERN AVE                      000N        CARE OF             
MTR09930400001000000000000000RA              35105115    000200160000001600000520000003NN  NNW 000                       N    
RDG09930400WATRL000000005K00000000000014095001612092015115838N000400000010N93       000100500K 10000000010000014086           
CUS0993040000109096746004         8725 ACQUISTION ,LLC509-15 EASTERN AVE                      000N        CARE OF             
MTR09930400001000000000000000RA              01026002    000300170000001700000460000003NY  NNW 000                       N    
MTM0993040001026002    cond                                                                                                   
RDG09930400WATRL000000005K00000000000000000000000000000000000 000000000000U         000000500  10000000010000002439           
CUS0993040000109431847004         VIGILANT FEDERAL SAV532 EASTERN BLVD                        000N        CARE OF             
MTR09930400001000000000000000RA              8046667     000400180000001800000380000000NN  NNW 000   FIRE SERVICE        N    
RDG09930400WATRL000000006K00000000000000000001712092015115846N000000000000N93       000080600K 10000000010000000000           
CUS0993040000109431849000         BAY- VANGARD FSB    532 EASTERN BLVD                        000N        CARE OF             
MTR09930400001000000000000000RA              99408428    000100190000001900000570000000NN  NNW 000                       N    
RDG09930400WATRL000000004K00000000000000534001812092015115933N000000000000N93       000470400K 10000000010000000526           
CUS0993040000109096748000         HARBOR POINT ESTATES901-31 S MARLYN AVE                     000N        CARE OF             
MTR09930400001000000000000000RA              9208095     000300200000002000000640000003NN  NNW 000                       N    
RDG09930400WATRL000000005K00000000000013646001912092015115937N000000000000N93       000040500K 10000000010000013116           
CUS0993040000109432382001         BOARD OF EDUCATION O900 S MARLYN AVE                        000N        CARE OF             
MTR09930400001000000000000000RA              8046038     000600210000002100000380000003NN  NNW 000   FIRE SERVICE        N    
RDG09930400WATRL000000006K00000000000000005002012092015115941N000000000000N93       000040600K 10000000010000000005           
CUS0993040000109441054005         PACE MARLYN LLC     6 S MARLYN AVE                          000N        CARE OF             
MTR09930400001000000000000000RA              8050827     000600220000002200000410000003NN  NNW 000   FIRE SERVICE        N    
RDG09930400WATRL000000006K00000000000000001002112092015115944N000000000000N93       000030600K 10000000010000000001           
CUS0993040000106441047005         PACE MARLYN LLC     6 S MARLYN AVE                          000N        CARE OF             
MTR09930400001000000000000000RA              30001787    007500230000002300000570000003NN  NNW 000                       N    
RDG09930400WATRL000000004K00000000000000067002212092015115946N000000000000N93       000020400K 10000000010000000067           
CUS0993040000106441059000         PACE MARLYN LLC     6 S MARLYN AVE                          000N        CARE OF             
MTR09930400001000000000000000RA              01097936    007500240000002400000610000003NN  NNW 000                       N    
RDG09930400WATRL000000004K00000000000000740002312092015115956N000000000000N93       000100400K 10000000010000000718           
CUS0993040000109096750006         EAST ROC 1,2,4 HARBOWS SANDALWOOD RD                        000N        CARE OF             
MTR09930400002000000000000000RA              2562597     000800250000002500000540000003NN  NNW 000                       N    
RDG09930400WATAL000000006K00000000000000001002412092015120002N000100000010N93       000060600K 10000000010000000001           
RDG09930400WATBL000000006K00000000000168077002512092015120013N000400000010N93       000110600K 10000000010000157959           
CUS0993040000109096751004         BALTO CO PUBLIC SCHO1000 MARLYN AVE                         000N        CARE OF             
MTR09930400001000000000000000RA              7177121     000400260000002600000640000003NY  NNW 000                       N    
MTM099304007177121     read ok                                                                                                
RDG09930400WATRL000000006K00000000000001020002612092015120044N000000000010N93       000310600K 10000000010000009871           
CUS0993040000109400372000         BOARD OF ED BALTO CO1000 S MARLYN AVE                       000N        CARE OF             
MTR09930400001000000000000000RA              35112554    001500270000002700000520000003NN  NNW 000                       N    
RDG09930400WATRL000000005K00000000000004174002712092015120102N000000000000N93       000180500K 10000000010000004169           
CUS0993040000109443562005         BOARD OF ED OF BALT 1000 S MARLYN AVE                       000N        CARE OF             
MTR09930400001000000000000000RA              77859875    000300280000002800000460000000NN  NNW 000                       N    
RDG09930400WATRL000000005K00000000000001831002812092015120116N000300000010N93       000140500K 10000000010000001157           
CUS0993040000109443560009         BOARD OF ED BALT CO 1000 S MARLYN AVE                       000N        CARE OF             
MTR09930400001000000000000000RA              8052242     000600290000002900000410000000NN  NNW 000   FIRE SERVICE        N    
RDG09930400WATRL000000006K00000000000000009002912092015120120N000000000000N93       000040600K 10000000010000000009           
CUS0993040000109446217003         MICHAEL BREWER      801 WOODROW AVE                         000N        CARE OF             
MTR09930400001000000000000000RA              09054276    000600300000003000000640000003NN  NNW 000   FIRE SERVICE        N    
RDG09930400WATRL000000006K00000000000000001003012092015120124N000000000000N93       000040600K 10000000010000000001           
CUS0993040000109446219009         MICHAEL BREWER      801 WOODROW AVE                         000N        CARE OF             
MTR09930400001000000000000000RA              30001548    007500310000003100000570000003NN  NNW 000                       N    
RDG09930400WATRL000000004K00000000000004775000112102015113040N000000000000U93       000000400K 10000000010000004564           
CUS0993040000109096752002         E ROCK 1,2,4 HARBOR 900-98 BAYNER RD                        000N        CARE OF             
MTR09930400001000000000000000RA              1215552     000300320000003200000490000003NN  NNW 000                       N    
RDG09930400WATRL000000005K00000000000079295000212102015113044N000000000000U93       000040500K 10000000010000074372           
CUS0993040000109096753000         HARBOR POINT ESTATES800-34 BAYNER RD                        000N        CARE OF             
MTR09930400003000000000000000RA              01116805    000200330000003300000610000003NY  NNW 000                       N    
MTM0993040001116805    cond                                                                                                   
RDG09930400WATAL000000006K00000000000000000000000000000000000 000000000000U         000000600  10000000010000018729           
RDG09930400WATBL000000006K00000000000000000000000000000000000 000000000000U         000000600  10000000010000021072           
RDG09930400WATCL000000006K00000000000015298000312102015113103N000400000010U93       000190600K 10000000010000014688           
CUS0993040000109096754008         HYDE PARK REALTY LLC1100 TACE DR                            000N        CARE OF             
MTR09930400002000000000000000RA              4490704     000600340000003400000540000003NN  NNW 000                       N    
RDG09930400WATAL000000006K00000000000000000000412102015113107N000100000010U93       000040600K 10000000010000000000           
RDG09930400WATBL000000006K00000000000078210000512102015113114N000400000010U93       000070600K 10000000010000073026           
CUS0993040000109429158000         THE REALTY ASSOCIATE1565 HYDE PARK RD                       000N        CARE OF             
MTR09930400002000000000000000RA              70073519    000800350000003500000560000000NN  NNW 000                       N    
RDG09930400WATAL000000006K00000000000001480000612102015113120N000400000010U93       000060600K 10000000010000001464           
RDG09930400WATBL000000006K00000000000030183000712102015113127N000400000010U93       000070600K 10000000010000028989           
CUS0993040000109096755005         SANDELMAN SUSAN,TRUS10 STEMMERS RUN RD                      000N        CARE OF             
MTR09930400003000000000000000RA              5498407     000800360000003600000480000003NN  NNW 000   FIRE SERVICE        N    
RDG09930400WATAL000000006K00000000000000004000812102015113129N000000000000U93       000020600K 10000000010000000004           
RDG09930400WATBL000000006K00000000000000044000912102015113134N000100000010U93       000050600K 10000000010000000044           
RDG09930400WATCL000000006K00000000000000137001012102015113144N000100000010U93       000100600K 10000000010000000137           
CUS0993040000109096756003         SANDELMAN SUSAN,TRUS10 STEMMERS RUN RD                      000N        CARE OF             
MTR09930400001000000000000000RA              00066622    000200370000003700000570000003NN  NNW 000                       N    
RDG09930400WATRL000000005K00000000000004712001112102015113148N000000000000U93       000040500K 10000000010000004615           
CUS0993040000109438103005         BALTIMORE COUNTY MD 101 STEMMERS RUN RD                     000N        CARE OF             
MTR09930400001000000000000000RA              8049407     000600380000003800000380000003NN  NNW 000   FIRE SERVICE        N    
RDG09930400WATRL000000006K00000000000000007001212102015113155N000000000000U93       000070600K 10000000010000000007           
CUS0993040000109373574004         VERIZON             1100 OLD EASTERN AVE                    000N        CARE OF             
MTR09930400001000000000000000RA              31588322    000200390000003900000520000003NN  NNW 000                       N    
RDG09930400WATRL000000005K00000000000004804001312102015113158N000000000000U93       000030500K 10000000010000004788           
CUS0993040000109373573006         VERIZON MARYLAND INC1100 OLD EASTERN AVE                    000N        CARE OF             
MTR09930400001000000000000000RA              E15936      000800400000004000000430000003NN  NNW 000   FIRE SERVICE        N    
RDG09930400WATRL000000006K00000000000000000001412102015113200N000000000000U93       000020600K 10000000010000000000           
CUS0993040000109432360007         KIM TAE SU          1415 EASTERN BLVD                       000N        CARE OF             
MTR09930400001000000000000000RA              01117025    000200410000004100000610000000NN  NNW 000                       N    
RDG09930400WATRL000000005K00000000000022732001512102015113204N000000000000U93       000040500K 10000000010000019139           
CUS0993040000109436703004         RIVERDALE LLC       101 ORVILLE RD                          000N        CARE OF             
MTR09930400001000000000000000RA              00163649    000100420000004200000570000003NN  NNW 000                       N    
RDG09930400WATRL000000004K00000000000000000001612102015113210N000304100010U93       000060400K 10000000010000000132           
CUS0993040000109436704002         RIVERDALE LLC       101 ORVILLE RD                          000N        CARE OF             
MTR09930400001000000000000000RA              8046386     000600430000004300000380000000NN  NNW 000   FIRE SERVICE        N    
RDG09930400WATRL000000006K00000000000000000001712102015113213N000000000000U93       000030600K 10000000010000000000           
CUS0993040000109436706007         RIVERDALE LLC       101 ORVILLE RD                          000N        CARE OF             
MTR09930400001000000000000000RA              01105283    001500440000004400000610000000NN  NNW 000                       N    
RDG09930400WATRL000000005K00000000000025568001812102015113216N000000000000U93       000030500K 10000000010000025083           
CUS0993040000109437042006         ALDI INC            1600 OLD EASTERN AVE                    000N        CARE OF             
MTR09930400001000000000000000RA              8048829     000600450000004500000380000003NN  NNW 000   FIRE SERVICE        N    
RDG09930400WATRL000000006K00000000000000001001912102015113218N000000000000U93       000020600K 10000000010000000001           
CUS0993040000109437044002         ALDI INC            1600 OLD EASTERN AVE                    000N        CARE OF             
MTR09930400001000000000000000RA              01105005    001500460000004600000610000003NN  NNW 000                       N    
RDG09930400WATRL000000005K00000000000003037002012102015113220N000000000000U93       000020500K 10000000010000003012           
CUS0993040000109444374004         EVERGREEN SENIOR APT1600 EVERGREEN WAY                      000N        CARE OF             
MTR09930400001000000000000000RA              10806422    000400470000004700000460000000NN  NNW 000                       N    
RDG09930400WATRL000000006K00000000000003819002112102015113224N000000000000U93       000040600K 10000000010000003281           
CUS0993040000109444371000         EVERGREEN APARTMENTS1600 EVERGREEN WAY                      000N        CARE OF             
MTR09930400001000000000000000RA              8053235     000600480000004800000410000003NN  NNW 000   FIRE SERVICE        N    
RDG09930400WATRL000000006K00000000000000004002212102015113227N000000000000U93       000030600K 10000000010000000004           
CUS0993040000109435366001         RIVERDALE LLC       165 ORVILLE RD                          000N        CARE OF             
MTR09930400002000000000000000RA              0200992     000800490000004900000630000000NN  NNW 000                       N    
RDG09930400WATAL000000006K00000000000000002002312102015113231N000100000010U93       000040600K 10000000010000000002           
RDG09930400WATBL000000006K00000000000003405002412102015113237N000400000010U93       000060600K 10000000010000002866           
CUS0993040000109425214005         MARTINS WOOD LLC    1813 OLD EASTERN AVE                    000N        CARE OF             
MTR09930400002000000000000000RA              9800497     000600500000005000000630000003NY  NNW 000                       N    
MTM099304009800497     car                                                                                                    
RDG09930400WATAL000000006K00000000000000000000000000000000000 000000000000U         000000600  10000000010000000003           
RDG09930400WATBL000000006K00000000000000000000000000000000000 000000000000U         000000600  10000000010000002879           
CUS0993040000109096741005         EASTERN BLVD REAL ES1 EASTERN BLVD                          000N        CARE OF             
MTR09930400001000000000000000RA              5204116     000400510000005100000410000003NN  NNW 000   FIRE SERVICE        N    
RDG09930400WATRL000000006K00000000000000057002512102015113251N000000000000U93       000140600K 10000000010000000057           
CUS0993040000109443486007         HOPEWELL POINT II CO1701 KATHRYNS CT                        000N        CARE OF             
MTR09930400002000000000000000RA              0717894     000800520000005200000390000003NN  NNW 000                       N    
RDG09930400WATAL000000006K00000000000000001002612102015113255N000100000010U93       000040600K 10000000010000000001           
RDG09930400WATBL000000000K00000000000003705002712102015113303N000400000010U93       000081000K 10000000010000003612           
CUS0993040000109432296003         BOARD OF ED BALTO CO1111 E HOMBERG AVE                      000N        CARE OF             
MTR09930400001000000000000000RA              77897288    000300530000005300000000000003NY  NNW 000                       N    
MTM0993040077897288    no acc                                                                                                 
RDG09930400WATRL000000005K00000000000000000000000000000000000 000000000000U         000000500  10000000010000000759           
CUS0993040000109432297001         BOARD OF ED BALTO CO1111 HOMBERG AVE                        000N        CARE OF             
MTR09930400001000000000000000RA              8046385     000600540000005400000380000003NY  NNW 000   FIRE SERVICE        N    
MTM099304008046385     no acc                                                                                                 
RDG09930400WATRL000000006K00000000000000000000000000000000000 000000000000U         000000600  10000000010000000005           
CUS0993040000109096759007         BALTO CO PUBLIC SCHONS HOMBERG AV 500 FT                    000N        CARE OF             
MTR09930400001000000000000000RA              9305938     000300550000005500000640000003NN  NNW 000                       N    
RDG09930400WATRL000000005K00000000000019430002812102015113339N000300000030U93       000360500K 10000000010000019157           
CUS0993040000109096760005         HYATTSTOWN PROPERTIE132 BACK RIVER NECK RD                  000N        CARE OF             
MTR09930400002000000000000000RA              5204105     000600560000005600000540000003NN  NNW 000                       N    
RDG09930400WATAL000000006K00000000000000000002912102015113350N000304100010U93       000110600K 10000000010000000032           
RDG09930400WATBL000000006K00000000000000000003012102015113353S001000000000U93       000030600K 10000000010000015679           
CUS0993040000109433696003         HOPEWELL POINTE COND301 HOPKINS LANDING DR                  000N        CARE OF             
MTR09930400002000000000000000RA              0208726     000800570000005700000630000003NY  NNW 000                       N    
MTM099304000208726     no holes                                                                                               
RDG09930400WATAL000000006K00000000000000000000000000000000000 000000000000U         000000600  10000000010000000001           
RDG09930400WATBL000000006K00000000000000000000000000000000000 000000000000U         000000600  10000000010000003844           
CUS0993040000109439521007         BALTIMORE COUNTY MAR475 HOPKINS LANDING DR                  000N        CARE OF             
MTR09930400001000000000000000RA              99999999    007500580000005800000440000000NN  NNW 000   FERRULE APPLIED     N    
RDG09930400WATRL000000004K00000000000000000003112102015113423S002000000000U93       000300400K 10000000010000000432           
CUS0993040000109433694008         HOPEWELL POINT CONDO500 HOPKINS LANDING DR                  000N        CARE OF             
MTR09930400002000000000000000RA              0302525     000800590000005900000000000000NN  NNW 000                       N    
RDG09930400WATAL000000006K00000000000000002003212102015113430N000100000010U93       000070600K 10000000010000000002           
RDG09930400WATBL000000006K00000000000002649003312102015113441N000400000010U93       000110600K 10000000010000001754           
CUS0993040000109438140007         HOPEWELL POINT LLC  603 HOPKINS LANDING DR                  000N        CARE OF             
MTR09930400001000000000000000RA              01117015    000200600000006000000610000003NN  NNW 000                       N    
RDG09930400WATRL000000005K00000000000003812003412102015113451N000300000010U93       000100500K 10000000010000003744           
CUS0993040000109438141005         HOPEWELL POINT LLC  600 HOPKINS LANDING DR                  000N        CARE OF             
MTR09930400001000000000000000RA              00164113    000100610000006100000570000003NY  NNW 000                       N    
MTM0993040000164113    cl                                                                                                     
RDG09930400WATRL000000004K00000000000000000000000000000000000 000000000000U         000000400  10000000010000003320           
CUS0993040000109096761003         EASTGATE APARTMENT CWS BACK RIVER NECK RD                   000N        CARE OF             
MTR09930400002000000000000000RA              5275661     000600620000006200000540000003NY  NNW 000                       N    
MTM099304005275661     no head                                                                                                
RDG09930400WATAL000000006K00000000000000000000000000000000000 000000000000U         000000600  10000000010000000002           
RDG09930400WATBL000000006K00000000000028201003512102015113521N000400000010U93       000300600K 10000000010000026368           
CUS0993040000109096762001         PEBBLE CREEK APARTMESOUTHEASTERN BLVD E                     000N        CARE OF             
MTR09930400002000000000000000RA              31588413    000300630000006300000330000003NN  NNW 000                       N    
RDG09930400WATAL000000005K00000000000049173003612102015113526N000000000000U93       000050500K 10000000010000048670           
RDG09930400WATBL000000005K00000000000038413003712102015113533N000400000010U93       000070500K 10000000010000038015           
CUS0993040000109096763009         MARINE OAKS VILLAGE NWS FRENCHS AV 1500 FT                  000N        CARE OF             
MTR09930400002000000000000000RA              56795370    000800640000006400000540000003NY  NNW 000                       N    
MTM0993040056795370    k                                                                                                      
RDG09930400WATAL000000006K00000000000000003003812102015113542N000300000020U93       000090600K 10000000010000000004           
RDG09930400WATBL000000006K00000000000104741003912102015113557N000300000010U93       000150600K 10000000010000121955           
CUS0993040000109393182002         MANSFIELD WOODS LTD 710 SNOWBERRY CT                        000N        CARE OF             
MTR09930400003000000000000000RA              7211419     000800650000006500000630000003NY  NNW 000                       N    
MTM099304007211419     cond                                                                                                   
RDG09930400WATAL000000006K00000000000000000000000000000000000 000000000000U         000000600  10000000010000000478           
RDG09930400WATBL000000006K00000000000000263004012102015113621N000400000010U93       000240600K 10000000010000000086           
RDG09930400WATCL000000000K00000000000009243004112102015113630N000400000010U93       000091000K 10000000010000007655           
CUS0993040000109096764007         ESSEXSHIRE GATE APARSS MANSFIELD RD 550 FT                  000N        CARE OF             
MTR09930400002000000000000000RA              4108362     000600660000006600000540000003NN  NNW 000                       N    
RDG09930400WATAL000000006K00000000000000195004212102015113636N000100000010U93       000060600K 10000000010000000195           
RDG09930400WATBL000000006K00000000000038398004312102015113644N000400000010U93       000080600K 10000000010000035154           
CUS0993040000109096765004         HEATHERWOOD APT. CO SS HARTLAND RD 580 FT                   000N        CARE OF             
MTR09930400002000000000000000RA              5492087     000600670000006700000540000003NN  NNW 000                       N    
RDG09930400WATAL000000006K00000000000000093004412102015113649N000100000010U93       000050600K 10000000010000000093           
RDG09930400WATBL000000006K00000000000080571004512102015113655N000400000010U93       000060600K 10000000010000073657           
CUS0993040000109096766002         HARTLAND VILLAGE  APNS HARTLAND RD                          000N        CARE OF             
MTR09930400002000000000000000RA              5877079     000800680000006800000540000003NN  NNW 000                       N    
RDG09930400WATAL000000006K00000000000000007004612102015113702N000100000020U93       000070600K 10000000010000000007           
RDG09930400WATBL000000006K00000000000053994004712102015113707N000400000010U93       000050600K 10000000010000048330           
CUS0993040000109399780007         HARTLAND RIDGE LIMIT1408-10 SHADETREE RD                    000N        CARE OF             
MTR09930400001000000000000000RA              28882464    000200690000006900000520000003NN  NNW 000                       N    
RDG09930400WATRL000000005K00000000000031363004812102015113710N000000000000U93       000030500K 10000000010000031132           
CUS0993040000109399781005         HARTLAND RIDGE LIMIT1402-04 SHADETREE RD                    000N        CARE OF             
MTR09930400001000000000000000RA              01105750    000200700000007000000610000003NN  NNW 000                       N    
RDG09930400WATRL000000005K00000000000015367004912102015113713N000000000000U93       000030500K 10000000010000015060           
CUS0993040000109362120009         HARTLAND RUN APARTME1200 WINDSAIL RD                        000N        CARE OF             
MTR09930400002000000000000000RA              7026377     000800710000007100000540000003NN  NNW 000                       N    
RDG09930400WATAL000000006K00000000000000002005012102015113719N000100000010U93       000060600K 10000000010000000002           
RDG09930400WATBL000000006K00000000000063256005112102015113724N000400000010U93       000050600K 10000000010000060329           
CUS0993040000109096767000         ESSEXSHIRE GATE APARES HARTLAND RD 770 FT                   000N        CARE OF             
MTR09930400002000000000000000RA              4108361     000600720000007200000540000003NY  NNW 000                       N    
MTM099304004108361     k                                                                                                      
RDG09930400WATAL000000006K00000000000001142005212102015113734N000300000010U93       000100600K 10000000010000002315           
RDG09930400WATBL000000006K00000000000055585005312102015113739N000400000010U93       000050600K 10000000010000039337           
CUS0993040000109096768008         SOUTHWOOD APARTMENT WS MIDDLEBOROUGH RD                     000N        CARE OF             
MTR09930400002000000000000000RA              5380916     000600730000007300000540000003NN  NNW 000                       N    
RDG09930400WATAL000000006K00000000000000000005412102015113745N000100000010U93       000060600K 10000000010000000000           
RDG09930400WATBL000000006K00000000000027806005512102015113751N000400000010U93       000060600K 10000000010000024699           
CUS0993040000109096769006         SOUTHWOOD APARTMENT WS MIDDLEBOROUGH RD                     000N        CARE OF             
MTR09930400002000000000000000RA              5388336     000600740000007400000630000003NY  NNW 000                       N    
MTM099304005388336     k                                                                                                      
RDG09930400WATAL000000006K00000000000000006005612102015113756N000100000010U93       000050600K 10000000010000000006           
RDG09930400WATBL000000006K00000000000089181005712102015113805N000000000000U93       000090600K 10000000010000026685           
CUS0993040000109096770004         QUEENS PURCHASE APARSEC MIDDLEBOROUGH RD &                  000N        CARE OF             
MTR09930400002000000000000000RA              5124973     000600750000007500000540000003NN  NNW 000                       N    
RDG09930400WATAL000000006K00000000000000239005812102015113818N000100000010U93       000130600K 10000000010000000239           
RDG09930400WATBL000000006K00000000000017281005912102015113825N000400000010U93       000070600K 10000000010000009561           
CUS0993040000109096771002         PEBBLE CREEK APARTMENS MIDDLEBOROUGH RD 750FT               000N        CARE OF             
MTR09930400001000000000000000RA              01116790    000200760000007600000610000003NY  NNW 000                       N    
MTM0993040001116790    2dial 23895                                                                                            
RDG09930400WATRL000000005K00000000000025663006012102015113859N000000000011U93       000230500K 10000000010000024842           
CUS0993040000109096772000         ESSEX PARK HOLDINGS,NWC BACK RIVER NECK RD &                000N        CARE OF             
MTR09930400002000000000000000RA              5388343     000600770000007700000540000003NN  NNW 000                       N    
RDG09930400WATAL000000006K00000000000000004006112102015113903N000100000010U93       000040600K 10000000010000000004           
RDG09930400WATBL000000006K00000000000053128006212102015113909N000400000010U93       000060600K 10000000010000046734           
CUS0993040000109096773008         BOARD OF EDUCATION O1801 TURKEY POINT RD                    000N        CARE OF             
MTR09930400003000000000000000RA              5760449     000800780000007800000480000003NN  NNW 000   FIRE SERVICE        N    
RDG09930400WATAL000000006K00000000000000024006312102015113913N000100000010U93       000040600K 10000000010000000024           
RDG09930400WATBL000000006K00000000000000026006412102015113918N000100000010U93       000050600K 10000000010000000026           
RDG09930400WATCL000000006K00000000000000057006512102015113923N000100000010U93       000050600K 10000000010000000057           
CUS0993040000109096774006         BALTO CO PUBLIC SCHO1801 TURKEY POINT RD                    000N        CARE OF             
MTR09930400001000000000000000RA              9310142     000400790000007900000640000003NN  NNW 000                       N    
RDG09930400WATRL000000006K00000000000024615006612102015113927N000000000000U93       000040600K 10000000010000023864           
CUS0993040000109430808007         BALTIMORE COUNTY MAR801 BACK RIVER NECK RD                  000N        CARE OF             
MTR09930400001000000000000000RA              8045170     000600800000008000000380000000NN  NNW 000   FIRE SERVICE        N    
RDG09930400WATRL000000006K00000000000000000006712102015113930N000000000000U93       000030600K 10000000010000000000           
CUS0993040000109430810003         BALTIMORE COUNTY MAR801 BACK RIVER NECK RD                  000N        CARE OF             
MTR09930400001000000000000000RA              99170676    000200810000008100000570000000NN  NNW 000                       N    
RDG09930400WATRL000000005K00000000000000766006812102015113933N000000000000U93       000030500K 10000000010000000759           
CUS0993040000109096775003         BALTIMORE COUNTY MAR905 BACK RIVER NECK RD                  000N        CARE OF             
MTR09930400001000000000000000RA              01110934    005800820000008200000610000003NN  NNW 000                       N    
RDG09930400WATRL000000004K00000000000001106006912102015113935N000000000000U93       000020400K 10000000010000001082           
CUS0993040000109442874005         BALTIMORE COUNTY    2198 ROCKY POINT RD                     000N        CARE OF             
MTR09930400001000000000000000RA              60795946    000300830000008300000470000000NN  NNW 000                       N    
RDG09930400WATRL000000005K00000000000004036007012102015113940N000400000010U93       000050500K 10000000010000003969           
CUS0993040000109427201000         BESERIS DANIEL JAMES929 BACK RIVER NECK RD                  000N        CARE OF             
MTR09930400001000000000000000RA              30478263    000200840000008400000520000003NN  NNW 000                       N    
RDG09930400WATRL000000005K00000000000004027007112102015113942N000000000000U93       000020500K 10000000010000003976           
CUS0993040000109399252007         LONG COVE CONDO     200 LONG COVE LN                        000N        CARE OF             
MTR09930400002000000000000000RA              7235922     000800850000008500000630000003NN  NNW 000                       N    
RDG09930400WATAL000000006K00000000000000001007212102015113947N000100000010U93       000050600K 10000000010000000001           
RDG09930400WATBL000000006K00000000000001876007312102015113953N000400000010U93       000060600K 10000000010000001571           
CUS0993040000109407056002         BALTIMORE YACHT CLUB800 BALTO YACHT CLUB RD                 000N        CARE OF             
MTR09930400002000000000000000RA              5977888     000800860000008600000630000003NY  NNW 000                       N    
MTM099304005977888     flooded                                                                                                
RDG09930400WATAL000000006K00000000000000000000000000000000000 000000000000U         000000600  10000000010000000001           
RDG09930400WATBL000000006K00000000000000000000000000000000000 000000000000U         000000600  10000000010000010647           
CUS0993040000109418364007         EASTERN YACHT CLUB I2330 SENECA RD                          000N        CARE OF             
MTR09930400002000000000000000RA              9403938     000800870000008700000630000003NN  NNW 000                       N    
RDG09930400WATAL000000006K00000000000000003007412102015114011N000000000000U93       000180600K 10000000010000000003           
RDG09930400WATBL000000006K00000000000000001007512102015114015N000100000010U93       000040600K 10000000010000000001           
CUS0993040000109431508002         BALTO COUNTY BOARD O313 WEST RD                             000N        CARE OF             
MTR09930400001000000000000000RA              8045162     000600880000008800000380000000NN  NNW 000   FIRE SERVICE        N    
RDG09930400WATRL000000006K00000000000000000007612102015114017N000000000000U93       000020600K 10000000010000000000           
CUS0993040000109431509000         BALTO COUNTY BOARD O313 WEST RD                             000N        CARE OF             
MTR09930400001000000000000000RA              11801028    000400890000008900000640000000NN  NNW 000                       N    
RDG09930400WATRL000000006K00000000000000709007712102015114022N000300000010U93       000050600K 10000000010000000547           
CUS0993040000109096778007         RP COVE VILLAGE LLC 9999 BACK RIVER NECK RD                 000N        CARE OF             
MTR09930400001000000000000000RA              1215547     000300900000009000000490000003NN  NNW 000                       N    
RDG09930400WATRL000000005K00000000000090495007812102015114026N000000000000U93       000040500K 10000000010000083384           
CUS0993040000109392671005         MARINERS COVE COMM A9 REACHING CIR                          000N        CARE OF             
MTR09930400003000000000000000RA              7194249     000800910000009100000630000003NN  NNW 000                       N    
RDG09930400WATAL000000006K00000000000000001007912102015114031N000100000010U93       000050600K 10000000010000000001           
RDG09930400WATBL000000006K00000000000002290008012102015114037N000400000010U93       000060600K 10000000010000001988           
RDG09930400WATCL000000000K00000000000000171008112102015114045N000400000010U93       000081000K 10000000010000000067           
CUS0993040000109436798004         WOODLAN JACKSON     1651 BROWNS RD                          000N        CARE OF             
MTR09930400002000000000000000RA              0208154     000800920000009200000630000000NN  NNW 000                       N    
RDG09930400WATAL000000006K00000000000000059008212102015114050N000100000010U93       000050600K 10000000010000000059           
RDG09930400WATBL000000006K00000000000000561008312102015114055N000400000010U93       000050600K 10000000010000000436           
CUS0993040000109096779005         FATHER & SON LLC    145 BACK RIVER NECK RD                  000N        CARE OF             
MTR09930400001000000000000000RA              42877078    000200930000009300000520000003NY  NNW 000                       N    
MTM0993040042877078    leak                                                                                                   
RDG09930400WATRL000000005K00000000000000000000000000000000000 000000000000U         000000500  10000000010000005426           
CUS0993040000109435950002         CORUZZI REALTY LLP  113 BACK RIVER NECK RD                  000N        CARE OF             
MTR09930400001000000000000000RA              01117180    000200940000009400000610000000NN  NNW 000                       N    
RDG09930400WATRL000000005K00000000000050923008412102015114112N000000000000U93       000170500K 10000000010000050018           
CUS0993040000109435951000         CORUZZI REALTY LLP  113 BACK RIVER NECK RD                  000N        CARE OF             
MTR09930400001000000000000000RA              0046893     000600950000009500000410000000NN  NNW 000   FIRE SERVICE        N    
RDG09930400WATRL000000006K00000000000000000008512102015114116N000000000000U93       000040600K 10000000010000000000           
CUS0993040000109096780003         BLEME LLC           14 BACK RIVER NECK RD                   000N        CARE OF             
MTR09930400001000000000000000RA              5071137     000600960000009600000410000003NN  NNW 000   FIRE SERVICE        N    
RDG09930400WATRL000000006K00000000000000025008612102015114118N000000000000U93       000020600K 10000000010000000025           
CUS0993040000109096781001         BLEME LLC           14 BACK RIVER NECK RD                   000N        CARE OF             
MTR09930400001000000000000000RA              99412213    007500970000009700000570000003NN  NNW 000                       N    
RDG09930400WATRL000000004K00000000000002285008712102015114121N000000000000U93       000030400K 10000000010000002264           
CUS0993040000106432063003         BALTO COUNTY BOARD  1498 HOMBERG AVE                        000N        CARE OF             
MTR09930400001000000000000000RA              99408851    000100980000009800000570000000NN  NNW 000                       N    
RDG09930400WATRL000000004K00000000000004023008812102015114123N000000000000U93       000020400K 10000000010000003998           
CUS0993040000106393290009         MANSFIELD WOODS LTD 791 SEAWALL RD                          000N        CARE OF             
MTR09930400001000000000000000RA              36700380    001500990000009900000520000003NN  NNW 000                       N    
RDG09930400WATRL000000005K00000000000016368008912102015114127N000000000000U93       000040500K 10000000010000016233           
CUS0993040000104437758008         JAMES P OFFUTT INC  7500 ROLLING MILL RD                    000N        CARE OF             
MTR09930400001000000000000000RA              00164137    000101000000010000000570000003NN  NNW 000                       N    
RDG09930400WATRL000000004K00000000000001131009012102015114129N000000000000U93       000020400K 10000000010000001083           
RTR09930400NN01370137000001370000000001000100000014NY010001000137001700020000000000000000000001    11122015NY020000 N         
RHD09930300NN00950095000000950000000000750075000014NY007500750095001800090000000000000000000001    11122015NY020000 N         
CUS0993030000109428863006         STATE OF MD         9000 BAY SHORE RD                       000N        CARE OF             
MTR09930300001000000000000000RA              35112682    000200010000000100000490000000NN  NNW 000                       N    
RDG09930300WATRL000000005K00000000000003385000112092015111327N000000000000U93       000000500K 10000000010000003360           
CUS0993030000109096644001         BAYWOOD MOBILE HOME SHORE RD SOUTH END                      000N        CARE OF             
MTR09930300001000000000000000RA              1133818     000200020000000200000490000003NN  NNW 000                       N    
RDG09930300WATRL000000005K00000000000081799000212092015111331N000000000000U93       000040500K 10000000010000079216           
CUS0993030000109096646006         FRANK LEE BAUER     2801 BAUERS FARM RD                     000N        CARE OF             
MTR09930300001000000000000000RA              36700169    001500030000000300000520000003NN  NNW 000                       N    
RDG09930300WATRL000000005K00000000000017452000312092015111336N000000000000U93       000050500K 10000000010000017411           
CUS0993030000109352223003         BEACON POINTE LLC   2800 NATHANIEL WAY                      000N        CARE OF             
MTR09930300002000000000000000RA              5948871     000600040000000400000540000003NN  NNW 000                       N    
RDG09930300WATAL000000006K00000000000000015000412092015111344N000100000010U93       000080600K 10000000010000000015           
RDG09930300WATBL000000006K00000000000018583000512092015111359N000400000010U93       000150600K 10000000010000000316           
CUS0993030000109433542009         FOOD LION #2560     7514 NORTH POINT RD                     000N        CARE OF             
MTR09930300002000000000000000RA              0203191     000800050000000500000630000000NN  NNW 000                       N    
RDG09930300WATAL000000006K00000000000000135000612092015111406N000100000010U93       000070600K 10000000010000000135           
RDG09930300WATBL000000006K00000000000000019000712092015111421N000304100010U93       000150600K 10000000010000000613           
CUS0993030000109096648002         FOOD LION #2560     7500-06 N POINT RD                      000N        CARE OF             
MTR09930300001000000000000000RA              01105261    001500060000000600000610000003NN  NNW 000                       N    
RDG09930300WATRL000000005K00000000000004097000812092015111428N000400000010U93       000070500K 10000000010000004091           
CUS0993030000109430859000         NORTH POINT EDGEMERE7500 N POINT RD                         000N        CARE OF             
MTR09930300001000000000000000RA              8042353     000600070000000700000380000000NN  NNW 000   FIRE SERVICE        N    
RDG09930300WATRL000000006K00000000000000001000912092015111431N000000000000U93       000030600K 10000000010000000001           
CUS0993030000109430861006         NORTH POINT EDGEMERE7500 N POINT RD                         000N        CARE OF             
MTR09930300001000000000000000RA              99168603    001500080000000800000570000000NN  NNW 000                       N    
RDG09930300WATRL000000005K00000000000002605001012092015111434N000000000000U93       000030500K 10000000010000002499           
CUS0993030000109441216000         BOARD OF ED         7400 NORTH POINT RD                     000N        CARE OF             
MTR09930300001000000000000000RA              77859860    000300090000000900000000000000NN  NNW 000                       N    
RDG09930300WATRL000000005K00000000000000000001112092015111448S001000000000U93       000140500K 10000000010000004410           
CUS0993030000109441215002         BOARD OF ED         7400 NORTH POINT RD                     000N        CARE OF             
MTR09930300001000000000000000RA              8047261     000600100000001000000380000000NN  NNW 000   FIRE SERVICE        N    
RDG09930300WATRL000000006K00000000000000013001212092015111453N000100000010U93       000050600K 10000000010000000013           
CUS0993030000109410365002         BALTO CO DEPT OF    6800 NORTH POINT RD                     000N        CARE OF             
MTR09930300002000000000000000RA              9207798     000400110000001100000630000003NN  NNW 000                       N    
RDG09930300WATAL000000006K00000000000000000001312092015111456N000000000000U93       000030600K 10000000010000000000           
RDG09930300WATBL000000006K00000000000000007001412092015111500N000400000010U93       000040600K 10000000010000000006           
CUS0993030000109425484004         BALTIMORE COUNTY MAR6600 NORTH POINT RD                     000N        CARE OF             
MTR09930300001000000000000000RA              8042222     000400120000001200000380000003NN  NNW 000   FIRE SERVICE        N    
RDG09930300WATRL000000006K00000000000000387001512092015111507N000100000010U93       000070600K 10000000010000000387           
CUS0993030000109425486009         BALTIMORE COUNTY MAR6600 NORTH POINT RD                     000N        CARE OF             
MTR09930300001000000000000000RA              99170693    000200130000001300000570000003NN  NNW 000                       N    
RDG09930300WATRL000000005K00000000000001356001612092015111512N000000000000U93       000050500K 10000000010000001334           
CUS0993030000109386256003         WELLS-MCCOMAS POST 26521 NORTH POINT RD                     000N        CARE OF             
MTR09930300003000000000000000RA              7120834     000600140000001400000630000003NN  NNW 000                       N    
RDG09930300WATAL000000006K00000000000000007001712092015111514N000000000000U93       000020600K 10000000010000000007           
RDG09930300WATBL000000006K00000000000000000001812092015111518S001000000000U93       000040600K 10000000010000000000           
RDG09930300WATCL000000000K00000000000000000001912092015111521S001000000000U93       000031000K 10000000010000000000           
