FHDNNNN019003218003218003365N                                                                                           010118
RHD08040400NN02270227000002270000000002270227000082NY022702270227000000030000000000000000000002    12042014NY020000 N         
CUS0804040000102217009006         BROWN TAKINA S      811 W MULBERRY ST                       000N        CARE OF             
MTR08040400001000000000000000RA              1292404     005800010010000100100440000003NN  NNW 000                       N    
RDG08040400WATRL000000004K00000000000000298000112082014110149N000000000000N81       000000400K 10000000010000000298           
CUS0804040000102428262006         ROBIN D RAY         320 N FREMONT AVE                       000N        CARE OF             
MTR08040400001000000000000000RA              54353716    000100020000000200000520000000NN  NNW 000                       N    
RDG08040400WATRL000000004K00000000000001089000212082014110208N000000000000N81       000190400K 10000000010000001080           
CUS0804040000102428261008         SYLVIA MCFAIL       318 N FREMONT AVE                       000N        CARE OF             
MTR08040400001000000000000000RA              99258531    000100030000000300000570000003NN  NNW 000                       N    
RDG08040400WATRL000000004K00000000000000522000312082014110220N000000000000N81       000120400K 10000000010000000519           
CUS0804040000102428260000         JOSINE SMITH        316 N FREMONT AVE                       000N        CARE OF             
MTR08040400001000000000000000RA              99258534    000100040000000400000570000003NN  NNW 000                       N    
RDG08040400WATRL000000004K00000000000001356000412082014110223N000000000000N81       000030400K 10000000010000001335           
CUS0804040000102428259002         TAKINA WILSON       314 N FREMONT AVE                       000N        CARE OF             
MTR08040400001000000000000000RA              54353717    000100050000000500000520000003NN  NNW 000                       N    
RDG08040400WATRL000000004K00000000000001058000512082014110249N000300000010N81       000260400K 10000000010000001032           
CUS0804040000102428258004         DIANE SANDERS       312 N FREMONT AVE                       000N        CARE OF             
MTR08040400001000000000000000RA              54353827    000100060000000600000520000003NN  NNW 000                       N    
RDG08040400WATRL000000004K00000000000000482000612082014110302N000400000010N81       000130400K 10000000010000000474           
CUS0804040000102428257006         JOHNSON, LORRAINE C 310 N FREMONT AVE                       000N        CARE OF             
MTR08040400001000000000000000RA              99258532    000100070000000700000570000003NN  NNW 000                       N    
RDG08040400WATRL000000004K00000000000002361000712082014110314N000000000000N81       000120400K 10000000010000002340           
CUS0804040000102428256008         ANGELA JONES        308 N FREMONT AVE                       000N        CARE OF             
MTR08040400001000000000000000RA              99258529    000100080000000800000570000003NN  NNW 000                       N    
RDG08040400WATRL000000004K00000000000000827000812082014110318N000000000000N81       000040400K 10000000010000000808           
CUS0804040000102428255000         JONATHAN L CARROLL  306 N FREMONT AVE                       000N        CARE OF             
MTR08040400001000000000000000RA              99258533    000100090000000900000570000003NN  NNW 000                       N    
RDG08040400WATRL000000004K00000000000000875000912082014110338N000000000000N81       000200400K 10000000010000000857           
CUS0804040000102428254003         VERNON BOLLING      304 N FREMONT AVE                       000N        CARE OF             
MTR08040400001000000000000000RA              99258530    000100100000001000000570000003NN  NNW 000                       N    
RDG08040400WATRL000000004K00000000000000363001012082014110341N000000000000N81       000030400K 10000000010000000359           
CUS0804040000102428253005         MARIA BOYD          302 N FREMONT AVE                       000N        CARE OF             
MTR08040400001000000000000000RA              99258528    000100110000001100000570000003NN  NNW 000                       N    
RDG08040400WATRL000000004K00000000000001826001112082014110405N000000000000N81       000240400K 10000000010000001797           
CUS0804040000102428252007         LORRAINE LEDBETTER  300 N FREMONT AVE                       000N        CARE OF             
MTR08040400001000000000000000RA              99258527    000100120000001200000570000003NN  NNW 000                       N    
RDG08040400WATRL000000004K00000000000001363001212082014110415N000000000000N81       000100400K 10000000010000001352           
CUS0804040000102423936000         LEX TER LTD PART HAB800 W SARATOGA ST                       000N        CARE OF             
MTR08040400001000000000000000RA              99258688    000100130000001300000570000003NN  NNW 000                       N    
RDG08040400WATRL000000004K00000000000001083001312082014110447N000000000000N81       000320400K 10000000010000001081           
CUS0804040000102423935002         LEX TER LTD PART HAB802 W SARATOGA ST                       000N        CARE OF             
MTR08040400001000000000000000RA              99258690    000100140000001400000570000003NN  NNW 000                       N    
RDG08040400WATRL000000004K00000000000002167001412082014110457N000400000010N81       000100400K 10000000010000002144           
CUS0804040000102423934005         LEX TER LTD PART    804 W SARATOGA ST                       000N        CARE OF             
MTR08040400001000000000000000RA              99258689    000100150000001500000570000003NN  NNW 000                       N    
RDG08040400WATRL000000004K00000000000001518001512082014110526N000000000000N81       000290400K 10000000010000001499           
CUS0804040000102423933007         LEX TER LTD PART HAB806 W SARATOGA ST                       000N        CARE OF             
MTR08040400001000000000000000RA              99258691    000100160000001600000570000003NN  NNW 000                       N    
RDG08040400WATRL000000004K00000000000001647001612082014110533N000100000010N81       000070400K 10000000010000001647           
CUS0804040000102423932009         LEX TER LTD PART    808 W SARATOGA ST                       000N        CARE OF             
MTR08040400001000000000000000RA              99258694    000100170000001700000570000003NN  NNW 000                       N    
RDG08040400WATRL000000004K00000000000001532001712082014110557N000000000000N81       000240400K 10000000010000001511           
CUS0804040000102423931001         LEX TER LTD PART    810 W SARATOGA ST                       000N        CARE OF             
MTR08040400001000000000000000RA              99259153    000100180000001800000570000003NN  NNW 000                       N    
RDG08040400WATRL000000004K00000000000001442001812082014110607N000000000000N81       000100400K 10000000010000001427           
CUS0804040000102423930003         LEX TER LTD PART    812 W SARATOGA ST                       000N        CARE OF             
MTR08040400001000000000000000RA              99258693    000100190000001900000570000003NN  NNW 000                       N    
RDG08040400WATRL000000004K00000000000001207001912082014110622N000000000000N81       000150400K 10000000010000001186           
CUS0804040000102423929005         LEX TER LTD PART    814 W SARATOGA ST                       000N        CARE OF             
MTR08040400001000000000000000RA              99258692    000100200000002000000570000003NN  NNW 000                       N    
RDG08040400WATRL000000004K00000000000001217002012082014110627N000000000000N81       000050400K 10000000010000001208           
CUS0804040000102423928007         TEX TER LTD PART    844 W SARATOGA ST                       000N        CARE OF             
MTR08040400001000000000000000RA              99259160    000100210000002100000570000003NN  NNW 000                       N    
RDG08040400WATRL000000004K00000000000000810002112082014110654N000000000000N81       000270400K 10000000010000000797           
CUS0804040000102423927009         LEX TER LTD PART    846 W SARATOGA ST                       000N        CARE OF             
MTR08040400001000000000000000RA              99258687    000100220000002200000570000003NN  NNW 000                       N    
RDG08040400WATRL000000004K00000000000001603002212082014110657N000000000000N81       000030400K 10000000010000001580           
CUS0804040000102217028006         MAYOR AND CITY COUNC304 N POPPLETON ST                      000N        CARE OF             
MTR08040400001000000000000000RA              00137127    005800230000002300000570000003NN  NNW 000   VACANT PROPERTY     N    
RDG08040400WATRL000000004K00000000000000000002312082014110710N000000000000N81       000130400K 10000000010000000000           
CUS0804040000102423938006         LEX TER LTD PART    301 N POPPLETON ST                      000N        CARE OF             
MTR08040400001000000000000000RA              99258676    000100240000002400000570000003NN  NNW 000                       N    
RDG08040400WATRL000000004K00000000000006155002412082014110741N000000000010N81       000310400K 10000000010000006154           
CUS0804040000102423937008         LEX TER LTD PART    303 N POPPLETON ST                      000N        CARE OF             
MTR08040400001000000000000000RA              99258655    000100250000002500000570000003NN  NNW 000                       N    
RDG08040400WATRL000000004K00000000000003337002512082014110748N000000000000N81       000070400K 10000000010000003307           
CUS0804040000102423939004         LEX TER LTD PART    305 N POPPLETON ST                      000N        CARE OF             
MTR08040400001000000000000000RA              99409244    000100260000002600000570000003NN  NNW 000                       N    
RDG08040400WATRL000000004K00000000000000827002612082014110809N000000000000N81       000210400K 10000000010000000813           
CUS0804040000102423940002         LEX TER LTD PART    307 N POPPLETON ST                      000N        CARE OF             
MTR08040400001000000000000000RA              99258616    000100270000002700000570000003NN  NNW 000                       N    
RDG08040400WATRL000000004K00000000000001503002712082014110814N000000000000N81       000050400K 10000000010000001458           
CUS0804040000102423941000         LEX TER LTD PART    309 N POPPLETON ST                      000N        CARE OF             
MTR08040400001000000000000000RA              99408903    000100280000002800000570000003NN  NNW 000                       N    
RDG08040400WATRL000000004K00000000000000988002812082014110834N000000000000N81       000200400K 10000000010000000974           
CUS0804040000102423942008         LEX TER LTD PART HAB311 N POPPLETON ST                      000N        CARE OF             
MTR08040400001000000000000000RA              99258678    000100290000002900000570000003NN  NNW 000                       N    
RDG08040400WATRL000000004K00000000000001082002912082014110843N000000000000N81       000090400K 10000000010000001057           
CUS0804040000102423943006         LEX TER LTD PART HAB313 N POPPLETON ST                      000N        CARE OF             
MTR08040400001000000000000000RA              54353991    000100300000003000000520000003NN  NNW 000                       N    
RDG08040400WATRL000000004K00000000000001142003012082014110855N000000000000N81       000120400K 10000000010000001125           
CUS0804040000102423944004         LEX TER LTD PARTNERS315 N POPPLETON ST                      000N        CARE OF             
MTR08040400001000000000000000RA              54354017    000100310000003100000520000003NN  NNW 000                       N    
RDG08040400WATRL000000004K00000000000001038003112082014110906N000000000000N81       000110400K 10000000010000001022           
CUS0804040000102423945001         LEX TER LTD PART HAB317 N POPPLETON ST                      000N        CARE OF             
MTR08040400001000000000000000RA              99258656    000100320000003200000570000003NN  NNW 000                       N    
RDG08040400WATRL000000004K00000000000001187003212082014110920N000400000010N81       000140400K 10000000010000001185           
CUS0804040000102423946009         LEX TER TLD PART HAB319 N POPPLETON ST                      000N        CARE OF             
MTR08040400001000000000000000RA              99258618    000100330000003300000570000003NN  NNW 000                       N    
RDG08040400WATRL000000004K00000000000000891003312082014110923N000000000000N81       000030400K 10000000010000000885           
CUS0804040000102423947007         LEX TER LTD PART    321 N POPPLETON ST                      000N        CARE OF             
MTR08040400001000000000000000RA              99258657    000100340000003400000570000003NN  NNW 000                       N    
RDG08040400WATRL000000004K00000000000000993003412082014110944N000000000000N81       000210400K 10000000010000000978           
CUS0804040000102423948005         LEX TER LTD PART    323 N POPPLETON ST                      000N        CARE OF             
MTR08040400001000000000000000RA              54353988    000100350000003500000520000003NN  NNW 000                       N    
RDG08040400WATRL000000004K00000000000000496003512082014110948N000000000000N81       000040400K 10000000010000000489           
CUS0804040000102423949003         LEX TER LTD PART HAB325 N POPPLETON ST                      000N        CARE OF             
MTR08040400001000000000000000RA              99258677    000100360000003600000570000003NN  NNW 000                       N    
RDG08040400WATRL000000004K00000000000001439003612082014111008N000000000000N81       000200400K 10000000010000001423           
CUS0804040000102423950001         LEX TER LTD PART HAB327 N POPPLETON ST                      000N        CARE OF             
MTR08040400001000000000000000RA              54354016    000100370000003700000520000003NN  NNW 000                       N    
RDG08040400WATRL000000004K00000000000000613003712082014111011N000000000000N81       000030400K 10000000010000000606           
CUS0804040000102423951009         LEX TER LTD PART    329 N POPPLETON ST                      000N        CARE OF             
MTR08040400001000000000000000RA              99258617    000100380000003800000570000003NN  NNW 000                       N    
RDG08040400WATRL000000004K00000000000001523003812082014111034N000000000000N81       000230400K 10000000010000001497           
CUS0804040000102423952007         LEX TER LTD PART HAB331 N POPPLETON ST                      000N        CARE OF             
MTR08040400001000000000000000RA              99258615    000100390000003900000570000003NN  NNW 000                       N    
RDG08040400WATRL000000004K00000000000000971003912082014111037N000000000000N81       000030400K 10000000010000000954           
CUS0804040000102217029004         MAYOR AND CITY COUNC900-04 W SARATOGA ST                    000N        CARE OF             
MTR08040400001000000000000000RA              29069494    007500400000004000000520000003NN  NNW 000   VACANT PROPERTY     N    
RDG08040400WATRL000000004K00000000000004783004012082014111049N000000000000N81       000120400K 10000000010000004783           
CUS0804040000102217032008         J. M. GILLIN CORP.  914 W SARATOGA ST                       000N        CARE OF             
MTR08040400001000000000000000RA              10011272    005800410000004100000570000003NN  NNW 000   VACANT PROPERTY     N    
RDG08040400WATRL000000004K00000000000000000004112082014111054N000000000000N81       000050400K 10000000010000000000           
CUS0804040000102217016001         J. M. GILLIN CORP.  914-34 W SARATOGA ST                    000N        CARE OF             
MTR08040400001000000000000000RA              45376392    005800420000004200000520000003NN  NNW 000                       N    
RDG08040400WATRL000000004K00000000000004045004212082014111216N000000000000N81       000820400K 10000000010000004033           
CUS0804040000102162893008         MAYOR AND CITY COUNC939 W SARATOGA ST                       000N        CARE OF             
MTR08040400001000000000000000RA              99999999    005800430000004300000620000003NN  NNW 000                       N    
RDG08040400WATRL000000004K00000000000000000004312082014111241N000000000000N81       000250400K 10000000010000000000           
CUS0804040000102217035001         MAYOR AND CITY COUNC929 W SARATOGA ST                       000N        CARE OF             
MTR08040400001000000000000000RA              99999999    007500440000004400000620000003NN  NNW 000                       N    
RDG08040400WATRL000000004K00000000000001887004412082014111245N000000000000N81       000040400K 10000000010000001887           
CUS0804040000102217036009         FREE WILL BAPTIST CH801-09 W SARATOGA ST                    000N        CARE OF             
MTR08040400001000000000000000RA              00117849    007500450000004500000570000003NN  NNW 000                       N    
RDG08040400WATRL000000004K00000000000004642004512082014111428N000000000000N81       001030400K 10000000010000004642           
CUS0804040000102384765000         MT OLIVE UNITED FREE801-09 W SARATOGA ST                    000N        CARE OF             
MTR08040400001000000000000000RA              99999999    005800460000004600000660000000NN  NNW 000                       N    
RDG08040400WATRL000000004K00000000000000000004612082014111434N000000000000N81       000060400K 10000000010000000000           
CUS0804040000102362598001         MAYOR AND CITY COUNC940 W LEXINGTON ST                      000N        CARE OF             
MTR08040400001000000000000000RA              46878209    005800470000004700000520000000NN  NNW 000                       N    
RDG08040400WATRL000000004K00000000000002492004712082014111449N000000000000N81       000150400K 10000000010000002492           
CUS0804040000102217045000         MAYOR AND CITY COUNC933 W LEXINGTON ST                      000N        CARE OF             
MTR08040400001000000000000000RA              99999999    007500480000004800000620000003NN  NNW 000                       N    
RDG08040400WATRL000000004K00000000000001925004812082014111459N000000000000N81       000100400K 10000000010000001925           
CUS0804040000102217046008         MAYOR AND CITY COUNC931 W LEXINGTON ST                      000N        CARE OF             
MTR08040400001000000000000000RA              29069597    007500490000004900000520000003NN  NNW 000   INVALID DAC         N    
RDG08040400WATRL000000004K00000000000002294004912082014111509N000000000000N81       000100400K 10000000010000002294           
CUS0804040000102384324006         MAYOR AND CITY COUNC903 W LEXINGTON ST                      000N        CARE OF             
MTR08040400001000000000000000RA              99999999    005800500000005000000620000003NN  NNW 000                       N    
RDG08040400WATRL000000004K00000000000000001005012082014111516N000000000000N81       000070400K 10000000010000000001           
CUS0804040000102374195002         POPPLETON PARTNERS, 869 W LEXINGTON ST                      000N        CARE OF             
MTR08040400001000000000000000RA              31664081    001500510000005100000520000003NN  NNW 000                       N    
RDG08040400WATRL000000005K00000000000000848000112092014090744N000000000001U81       000000500K 10000000010000000742           
CUS0804040000102217054002         POPPLETON PARTNERS, 867 W LEXINGTON ST                      000N        CARE OF             
MTR08040400001000000000000000RA              33731366    007500520000005200000520000003NN  NNW 000                       N    
RDG08040400WATRL000000004K00000000000005839000212092014090802N000000000000U81       000180400K 10000000010000005820           
CUS0804040000102217055009         POPPLETON PARTNERS, 865 W LEXINGTON ST                      000N        CARE OF             
MTR08040400001000000000000000RA              45388144    007500530000005300000520000003NN  NNW 000                       N    
RDG08040400WATRL000000004K00000000000003969000312092014090808N000000000000U81       000060400K 10000000010000003091           
CUS0804040000102384337008         POPPLETON PARTNERS, 863 W LEXINGTON ST                      000N        CARE OF             
MTR08040400001000000000000000RA              26014113    005800540000005400000520000003NN  NNW 000                       N    
RDG08040400WATRL000000004K00000000000004363000412092014090830N000000000000U81       000220400K 10000000010000004336           
CUS0804040000102380411005         POPPLETON PARTNERS, 861 W LEXINGTON ST                      000N        CARE OF             
MTR08040400001000000000000000RA              33079537    005800550000005500000520000003NN  NNW 000                       N    
RDG08040400WATRL000000004K00000000000004250000512092014090849N000000000000U81       000190400K 10000000010000004234           
CUS0804040000102384339004         POPPLETON PARTNERS, 855 W LEXINGTON ST                      000N        CARE OF             
MTR08040400001000000000000000RA              99999999    005800560000005600000660000000NN  NNW 000                       N    
RDG08040400WATRL000000004K00000000000000177000612092014090901N000000000000U81       000120400K 10000000010000000177           
CUS0804040000102374194005         POPPLETON PARTNERS, 853-59 W LEXINGTON ST                   000N        CARE OF             
MTR08040400001000000000000000RA              31664080    001500570000005700000520000003NN  NNW 000                       N    
RDG08040400WATRL000000005K00000000000004652000712092014090921N000000000000U81       000200500K 10000000010000004526           
CUS0804040000102384340002         POPPLETON PARTNERS, 851 W LEXINGTON ST                      000N        CARE OF             
MTR08040400001000000000000000RA              99999999    005800580000005800000660000000NN  NNW 000                       N    
RDG08040400WATRL000000004K00000000000000037000812092014090927N000000000000U81       000060400K 10000000010000000037           
CUS0804040000102374193007         POPPLETON PARTNERS, 847 W LEXINGTON ST                      000N        CARE OF             
MTR08040400001000000000000000RA              99999999    001500590000005900000310000003NN  NNW 000                       N    
RDG08040400WATRL000000005K00000000000003872000912092014090955N000000000000U81       000280500K 10000000010000003747           
CUS0804040000102217058003         POPPLETON APARTMENTS841 W LEXINGTON ST                      000N        CARE OF             
MTR08040400001000000000000000RA              30001823    007500600000006000000570000003NN  NNW 000                       N    
RDG08040400WATRL000000004K00000000000000172001012092014091022N000000000000U81       000270400K 10000000010000000172           
CUS0804040000102447014008         POPPLETON PARTNERS I837 W LEXINGTON ST                      000N        CARE OF             
MTR08040400001000000000000000RA              99999999    000100610000006100000440000000NN  NNW 000                       N    
RDG08040400WATRL000000004K00000000000000243001112092014091038N000000000000U81       000160400K 10000000010000000217           
CUS0804040000102217061007         BEIBEI FIRST LLC    835 W LEXINGTON ST                      000N        CARE OF             
MTR08040400001000000000000000RA              33416011    007500620000006200000520000003NN  NNW 000                       N    
RDG08040400WATRL000000004K00000000000007165001212092014091055N000000000000U81       000170400K 10000000010000007117           
CUS0804040000102374191001         POPPLETON PARTNERS, 831-833 W LEXINGTON ST                  000N        CARE OF             
MTR08040400001000000000000000RA              00163742    000100630000006300000570000003NN  NNW 000                       N    
RDG08040400WATRL000000004K00000000000001969001312092014091109N000000000000U81       000140400K 10000000010000001928           
CUS0804040000102217063003         POPPLETON PARTNERS, 829 W LEXINGTON ST                      000N        CARE OF             
MTR08040400001000000000000000RA              33731809    007500640000006400000520000003NN  NNW 000                       N    
RDG08040400WATRL000000004K00000000000004694001412092014091151N000000000000U81       000420400K 10000000010000004680           
CUS0804040000102384341000         POPPLETON PARTNERS, 827 W LEXINGTON ST                      000N        CARE OF             
MTR08040400001000000000000000RA              27815674    005800650000006500000520000003NN  NNW 000                       N    
RDG08040400WATRL000000004K00000000000009833001512092014091213N000000000000U81       000220400K 10000000010000009796           
CUS0804040000102217064001         POPPLETON PARTNERS, 825 W LEXINGTON ST                      000N        CARE OF             
MTR08040400001000000000000000RA              31937903    007500660000006600000520000003NN  NNW 000                       N    
RDG08040400WATRL000000004K00000000000000365001612092014091229N000000000000U81       000160400K 10000000010000000350           
CUS0804040000108447632004         POPPLETON PARTNERS I817 W LEXINGTON ST                      000N        CARE OF             
MTR08040400001000000000000000RA              00000000    000000670000006700000600000000NN  NNW 000   INVALID DAC         N    
RDG08040400WATRL000000004K00000000000000000001712092014091233N000000000000U81       000040400K 10000000010000000000           
CUS0804040000102217065008         POPPLETON PARTNERS, 815 W LEXINGTON ST                      000N        CARE OF             
MTR08040400001000000000000000RA              30528214    007500680000006800000520000003NN  NNW 000                       N    
RDG08040400WATRL000000004K00000000000000000001812092014091249S002000000000U81       000160400K 10000000010000001010           
CUS0804040000102217066006         KENISHA HARRIS      813 W LEXINGTON ST                      000N        CARE OF             
MTR08040400001000000000000000RA              76349866    007500690000006900000350000003NN  NNW 000                       N    
RDG08040400WATRL000000004K00000000000000029001912092014091303N000300000010U81       000140400K 10000000010000000018           
CUS0804040000102379247006         POPPLETON PARTNERS, 811 W LEXINGTON ST                      000N        CARE OF             
MTR08040400001000000000000000RA              52286364    005800700000007000000520000003NN  NNW 000                       N    
RDG08040400WATRL000000004K00000000000003830002012092014091314N000000000000U81       000110400K 10000000010000003817           
CUS0804040000102362504009         KIM, DOMINGO HYEOK  805 W LEXINGTON ST                      000N        CARE OF             
MTR08040400001000000000000000RA              14927272    005800710000007100000310000000NN  NNW 000                       N    
RDG08040400WATRL000000004K00000000000000365002112092014091337N000000000000U81       000230400K 10000000010000000307           
CUS0804040000102368458002         POPPLETON PARTNERS, 803 W LEXINGTON ST                      000N        CARE OF             
MTR08040400001000000000000000RA              31346500    001500720000007200000520000003NN  NNW 000                       N    
RDG08040400WATRL000000005K00000000000014056002312092014091437N000000000000U81       000260500K 10000000010000014023           
CUS0804040000102380924007         POPPLETON PARTNERS, 130-32 N FREMONT AVE                    000N        CARE OF             
MTR08040400001000000000000000RA              77544874    007500730000007300000350000003NN  NNW 000                       N    
RDG08040400WATRL000000004K00000000000000513002212092014091411N000000000000U81       000340400K 10000000010000000332           
CUS0804040000102217067004         POPPLETON PARTNERS, 128 N FREMONT AVE                       000N        CARE OF             
MTR08040400001000000000000000RA              31346074    007500740000007400000520000003NN  NNW 000                       N    
RDG08040400WATRL000000004K00000000000007094002412092014091513N000000000000U81       000360400K 10000000010000007060           
CUS0804040000102217068002         POPPLETON PARTNERS, 124 N FREMONT AVE                       000N        CARE OF             
MTR08040400001000000000000000RA              44030250    007500750000007500000520000003NN  NNW 000                       N    
RDG08040400WATRL000000004K00000000000003050002512092014091537N000000000000U81       000240400K 10000000010000003030           
CUS0804040000102217069000         POPPLETON PARTNERS, 122 N FREMONT AVE                       000N        CARE OF             
MTR08040400001000000000000000RA              33731295    007500760000007600000520000003NN  NNW 000                       N    
RDG08040400WATRL000000004K00000000000005172002612092014091546N000000000000U81       000090400K 10000000010000005163           
CUS0804040000102217070008         POPPLETON PARTNERS, 120 N FREMONT AVE                       000N        CARE OF             
MTR08040400001000000000000000RA              31346075    007500770000007700000520000003NN  NNW 000                       N    
RDG08040400WATRL000000004K00000000000008090002712092014091605N000000000000U81       000190400K 10000000010000008065           
CUS0804040000102217071006         POPPLETON PARTNERS, 118 N FREMONT AVE                       000N        CARE OF             
MTR08040400001000000000000000RA              31346073    007500780000007800000520000003NN  NNW 000                       N    
RDG08040400WATRL000000004K00000000000007858002812092014091638N000300000010U81       000330400K 10000000010000007750           
CUS0804040000102380925004         POPPLETON APARTMENTS116 N FREMONT AVE                       000N        CARE OF             
MTR08040400001000000000000000RA              10014958    005800790000007900000570000003NN  NNW 000                       N    
RDG08040400WATRL000000004K00000000000000319002912092014091704N000000000000U81       000260400K 10000000010000000288           
CUS0804040000102384342008         POPPLETON PARTNERS, 114 N FREMONT AVE                       000N        CARE OF             
MTR08040400001000000000000000RA              31346071    005800800000008000000520000003NN  NNW 000                       N    
RDG08040400WATRL000000004K00000000000001197003112092014091815N000300000010U81       000320400K 10000000010000001086           
CUS0804040000102368332009         POPPLETON PARTNERS, 112 N FREMONT AVE                       000N        CARE OF             
MTR08040400001000000000000000RA              30791736    007500810000008100000520000003NN  NNW 000                       N    
RDG08040400WATRL000000004K00000000000004522003012092014091743N000000000000U81       000390400K 10000000010000004488           
CUS0804040000102374816003         POPPLETON PARTNERS, 806-08 VINE ST                          000N        CARE OF             
MTR08040400001000000000000000RA              00163741    000100820000008200000570000003NN  NNW 000                       N    
RDG08040400WATRL000000004K00000000000001666003212092014091848N000000000000U81       000330400K 10000000010000001624           
CUS0804040000102374809008         POPPLETON PARTNERS, 810-12 VINE ST                          000N        CARE OF             
MTR08040400001000000000000000RA              00163710    000100830000008300000570000003NN  NNW 000                       N    
RDG08040400WATRL000000004K00000000000002118003312092014091906N000000000000U81       000180400K 10000000010000002076           
CUS0804040000102374810006         POPPLETON PARTNERS, 814-16 VINE ST                          000N        CARE OF             
MTR08040400001000000000000000RA              31938118    000100840000008400000520000003NN  NNW 000                       N    
RDG08040400WATRL000000004K00000000000000037003412092014091930N000000000000U81       000240400K 10000000010000009995           
CUS0804040000102374811004         POPPLETON PARTNERS, 818-20 VINE ST                          000N        CARE OF             
MTR08040400001000000000000000RA              31938119    000100850000008500000520000003NN  NNW 000                       N    
RDG08040400WATRL000000004K00000000000009697003512092014091956N000000000000U81       000260400K 10000000010000009663           
CUS0804040000102374812002         POPPLETON PARTNERS, 830-32 VINE ST                          000N        CARE OF             
MTR08040400001000000000000000RA              00163399    000100860000008600000570000003NN  NNW 000                       N    
RDG08040400WATRL000000004K00000000000001810003612092014092019N000000000000U81       000230400K 10000000010000001810           
CUS0804040000102374813000         POPPLETON PARTNERS, 834-36 VINE ST                          000N        CARE OF             
MTR08040400001000000000000000RA              00163396    000100870000008700000570000003NN  NNW 000                       N    
RDG08040400WATRL000000004K00000000000003690003712092014092032N000000000000U81       000130400K 10000000010000003515           
CUS0804040000102374814008         POPPLETON PARTNERS, 838-40 VINE ST                          000N        CARE OF             
MTR08040400001000000000000000RA              00163398    000100880000008800000570000003NN  NNW 000                       N    
RDG08040400WATRL000000004K00000000000003868003812092014092057N000000000000U81       000250400K 10000000010000003801           
CUS0804040000102374815005         POPPLETON PARTNERS, 842-44 VINE ST                          000N        CARE OF             
MTR08040400001000000000000000RA              00163437    000100890000008900000570000003NN  NNW 000                       N    
RDG08040400WATRL000000004K00000000000000710003912092014092112N000000000000U81       000150400K 10000000010000000710           
CUS0804040000102374192009         POPPLETON PARTNERS, 852-858 VINE ST                         000N        CARE OF             
MTR08040400001000000000000000RA              31588129    001500900000009000000520000003NN  NNW 000                       N    
RDG08040400WATRL000000005K00000000000013207004012092014092132N000000000000U81       000200500K 10000000010000013120           
CUS0804040000102374817001         POPPLETON PARTNERS, 856-58 VINE ST                          000N        CARE OF             
MTR08040400001000000000000000RA              00163436    000100910000009100000570000003NN  NNW 000                       N    
RDG08040400WATRL000000004K00000000000003994004112092014092157N000000000000U81       000250400K 10000000010000003892           
CUS0804040000102374818009         POPPLETON PARTNERS, 860-62 VINE ST                          000N        CARE OF             
MTR08040400001000000000000000RA              00163438    000100920000009200000570000003NN  NNW 000                       N    
RDG08040400WATRL000000004K00000000000003289004212092014092215N000000000000U81       000180400K 10000000010000003226           
CUS0804040000102374819007         POPPLETON PARTNERS, 864-66 VINE ST                          000N        CARE OF             
MTR08040400001000000000000000RA              31938113    000100930000009300000520000003NN  NNW 000                       N    
RDG08040400WATRL000000004K00000000000009373004312092014092229N000000000000U81       000140400K 10000000010000009301           
CUS0804040000102376453003         HAMPSTEAD DEVELOPMEN849 VINE ST                             000N        CARE OF             
MTR08040400001000000000000000RA              10014488    005800940000009400000570000003NN  NNW 000                       N    
RDG08040400WATRL000000004K00000000000000252004412092014092304N000000000000U81       000350400K 10000000010000000236           
CUS0804040000102376452005         HAMPSTEAD DEVELOPMEN847 VINE ST                             000N        CARE OF             
MTR08040400001000000000000000RA              10014102    005800950000009500000570000003NN  NNW 000                       N    
RDG08040400WATRL000000004K00000000000000239004512092014092307N000000000000U81       000030400K 10000000010000000229           
CUS0804040000102374949002         HAMPSTEAD DEVELOPMEN845 VINE ST                             000N        CARE OF             
MTR08040400001000000000000000RA              10014279    005800960000009600000570000003NN  NNW 000                       N    
RDG08040400WATRL000000004K00000000000000105004612092014092334N000300000010U81       000270400K 10000000010000000092           
CUS0804040000102374948004         HAMPSTEAD DEVELOPMEN843 VINE ST                             000N        CARE OF             
MTR08040400001000000000000000RA              10014280    005800970000009700000570000003NN  NNW 000                       N    
RDG08040400WATRL000000004K00000000000000246004712092014092337N000000000000U81       000030400K 10000000010000000222           
CUS0804040000102374947006         POPPLETON APARTMENTS841 VINE ST                             000N        CARE OF             
MTR08040400001000000000000000RA              10009492    005800980000009800000570000003NN  NNW 000                       N    
RDG08040400WATRL000000004K00000000000000273004812092014092357N000000000000U81       000200400K 10000000010000000267           
CUS0804040000102374946008         POPPLETON APARTMENTS839 VINE ST                             000N        CARE OF             
MTR08040400001000000000000000RA              10014590    005800990000009900000570000003NN  NNW 000                       N    
RDG08040400WATRL000000004K00000000000000186004912092014092400N000000000000U81       000030400K 10000000010000000173           
CUS0804040000102374945000         POPPLETON APARTMENTS837 VINE ST                             000N        CARE OF             
MTR08040400001000000000000000RA              27829951    005801000000010000000520000003NN  NNW 000                       N    
RDG08040400WATRL000000004K00000000000001945005012092014092527N000000000000U81       000870400K 10000000010000001922           
CUS0804040000102374944003         POPPLETON APARTMENTS835 VINE ST                             000N        CARE OF             
MTR08040400001000000000000000RA              27818854    005801010000010100000520000003NN  NNW 000                       N    
RDG08040400WATRL000000004K00000000000002025005112092014092529N000000000000U81       000020400K 10000000010000002006           
CUS0804040000102374943005         POPPLETON APARTMENTS833 VINE ST                             000N        CARE OF             
MTR08040400001000000000000000RA              99387776    005801020000010200000570000003NN  NNW 000                       N    
RDG08040400WATRL000000004K00000000000000287005212092014092556N000000000000U81       000270400K 10000000010000000273           
CUS0804040000102374942007         POPPLETON APARTMENTS831 VINE ST                             000N        CARE OF             
MTR08040400001000000000000000RA              99388006    005801030000010300000570000003NN  NNW 000                       N    
RDG08040400WATRL000000004K00000000000000695005312092014092603N000000000000U81       000070400K 10000000010000000686           
CUS0804040000102374941009         POPPLETON PARTNERS I829 VINE ST                             000N        CARE OF             
MTR08040400001000000000000000RA              01114007    005801040000010400000610000003NN  NNW 000                       N    
RDG08040400WATRL000000004K00000000000002390005412092014092642N000000000000U81       000390400K 10000000010000002382           
CUS0804040000102374940001         POPPLETON APARTMENTS827 VINE ST                             000N        CARE OF             
MTR08040400001000000000000000RA              01114341    005801050000010500000610000003NN  NNW 000                       N    
RDG08040400WATRL000000004K00000000000000687005512092014092646N000000000000U81       000040400K 10000000010000000681           
CUS0804040000102374939003         POPPLETON APARTMENTS825 VINE ST                             000N        CARE OF             
MTR08040400001000000000000000RA              29685118    005801060000010600000520000003NN  NNW 000                       N    
RDG08040400WATRL000000004K00000000000004731005612092014092706N000000000000U81       000200400K 10000000010000004719           
CUS0804040000102374938005         POPPLETON APARTMENTS823 VINE ST                             000N        CARE OF             
MTR08040400001000000000000000RA              99293555    005801070000010700000570000003NN  NNW 000                       N    
RDG08040400WATRL000000004K00000000000001194005712092014092714N000000000010U81       000080400K 10000000010000001191           
CUS0804040000102367211006         POPPLETON PARTNERS L801 VINE ST                             000N        CARE OF             
MTR08040400001000000000000000RA              32176432    005801080000010800000520000003NN  NNW 000                       N    
RDG08040400WATRL000000004K00000000000004734005812092014092739N000000000000U81       000250400K 10000000010000004673           
CUS0804040000102368459000         POPPLETON PARTNERS L106 N FREMONT AVE                       000N        CARE OF             
MTR08040400001000000000000000RA              31346501    001501090000010900000520000003NN  NNW 000                       N    
RDG08040400WATRL000000005K00000000000014698005912092014092812N000000000000U81       000330500K 10000000010000014632           
CUS0804040000102367111008         POPPLETON PARTNERS L102 N FREMONT AVE                       000N        CARE OF             
MTR08040400001000000000000000RA              30523582    005801100000011000000520000003NN  NNW 000                       N    
RDG08040400WATRL000000004K00000000000004823006012092014092837N000000000000U81       000250400K 10000000010000004793           
CUS0804040000102217079009         POPPLETON PARTNERS I800-02 W FAYETTE ST                     000N        CARE OF             
MTR08040400001000000000000000RA              30001659    007501110000011100000570000003NN  NNW 000                       N    
RDG08040400WATRL000000004K00000000000000332006412092014093032N000000000000U81       000490400K 10000000010000000287           
CUS0804040000102217080007         POPPLETON APARTMENTS804 W FAYETTE ST                        000N        CARE OF             
MTR08040400001000000000000000RA              30001626    007501120000011200000570000003NN  NNW 000                       N    
RDG08040400WATRL000000004K00000000000000435006112092014092916N000400000010U81       000390400K 10000000010000000415           
CUS0804040000102381564000         POPPLETON APARTMENTS806 W FAYETTE ST                        000N        CARE OF             
MTR08040400001000000000000000RA              10011939    005801130000011300000570000003NN  NNW 000                       N    
RDG08040400WATRL000000004K00000000000000653006212092014092940N000000000000U81       000240400K 10000000010000000596           
CUS0804040000108447633002         POPPLETON PARTNERS I808 W FAYETTE ST                        000N        CARE OF             
MTR08040400001000000000000000RA              00000000    000001140000011400000600000000NN  NNW 000   INVALID DAC         N    
RDG08040400WATRL000000004K00000000000000000006312092014092943N000000000000U81       000030400K 10000000010000000000           
CUS0804040000102374013007         POPPLETON COOPERATIV810 W FAYETTE ST                        000N        CARE OF             
MTR08040400001000000000000000RA              10014711    005801140010011400100570000003NN  NNW 000                       N    
RDG08040400WATRL000000004K00000000000000000006812092014093421S002000000000U81       001000400K 10000000010000000549           
CUS0804040000102447016003         POPPLETON PARTNERS I812 W FAYETTE ST                        000N        CARE OF             
MTR08040400001000000000000000RA              00167058    000101150000011500000570000000NN  NNW 000                       N    
RDG08040400WATRL000000004K00000000000000152006512092014093129N000300000010U81       000570400K 10000000010000000220           
CUS0804040000102217081005         POPPLETON COOPERATIV814 W FAYETTE ST                        000N        CARE OF             
MTR08040400001000000000000000RA              99999999    007501160000011600000570000003NN  NNW 000                       N    
RDG08040400WATRL000000004K00000000000000211006612092014093241N000000000011U81       000120400K 10000000010000000211           
CUS0804040000102447017001         POPPLETON PARTNERS I814 W FAYETTE ST                        000N        CARE OF             
MTR08040400001000000000000000RA              00167162    000101170000011700000570000000NN  NNW 000                       N    
RDG08040400WATRL000000004K00000000000000216006712092014093229N000300000010U81       000330400K 10000000010000000328           
CUS0804040000102374915003         POPPLETON COOPERATIV818 W FAYETTE ST                        000N        CARE OF             
MTR08040400001000000000000000RA              31937004    007501180000011800000520000000NN  NNW 000                       N    
RDG08040400WATRL000000004K00000000000002965006912092014093438N000000000000U81       000170400K 10000000010000002913           
CUS0804040000102447018009         POPPLETON PARTNERS I820 W FAYETTE ST                        000N        CARE OF             
MTR08040400001000000000000000RA              99999999    000101190000011900000440000000NN  NNW 000                       N    
RDG08040400WATRL000000004K00000000000000000007012092014093451N000000000000U81       000130400K 10000000010000000000           
CUS0804040000102447019007         POPPLETON PARTNERS I820 W FAYETTE ST                        000N        CARE OF             
MTR08040400001000000000000000RA              99999999    000101200000012000000440000000NN  NNW 000                       N    
RDG08040400WATRL000000004K00000000000000000007112092014093453N000000000000U81       000020400K 10000000010000000000           
CUS0804040000102447020005         POPPLETON PARTNERS I820 W FAYETTE ST                        000N        CARE OF             
MTR08040400001000000000000000RA              99999999    000101210000012100000440000000NN  NNW 000                       N    
RDG08040400WATRL000000004K00000000000000000007212092014093456N000000000000U81       000030400K 10000000010000000000           
CUS0804040000102447021003         POPPLETON PARTNERS I820 W FAYETTE ST                        000N        CARE OF             
MTR08040400001000000000000000RA              99999999    000101220000012200000440000000NN  NNW 000                       N    
RDG08040400WATRL000000004K00000000000000000007312092014093458N000000000000U81       000020400K 10000000010000000000           
CUS0804040000102382653000         POPPLETON PARTNERS I832 W FAYETTE ST                        000N        CARE OF             
MTR08040400001000000000000000RA              14923033    005801230000012300000310000003NN  NNW 000                       N    
RDG08040400WATRL000000004K00000000000002122007412092014093516N000000000000U81       000180400K 10000000010000002103           
CUS0804040000102374208003         POPPLETON COOPERATIV834 W FAYETTE ST                        000N        CARE OF             
MTR08040400001000000000000000RA              99999999    007501240000012400000570000003NN  NNW 000                       N    
RDG08040400WATRL000000004K00000000000002832007512092014093539N000000000000U81       000230400K 10000000010000002755           
CUS0804040000102382654008         POPPLETON PARTNERS I836 W FAYETTE ST                        000N        CARE OF             
MTR08040400001000000000000000RA              35097920    005801250000012500000520000003NN  NNW 000                       N    
RDG08040400WATRL000000004K00000000000007338007612092014093557N000000000000U81       000180400K 10000000010000007311           
CUS0804040000102382655005         POPPLETON APARTMENTS838 W FAYETTE ST                        000N        CARE OF             
MTR08040400001000000000000000RA              35097922    005801260000012600000520000003NN  NNW 000                       N    
RDG08040400WATRL000000004K00000000000005976007712092014093729N000000000011U81       000180400K 10000000010000005976           
CUS0804040000102382656003         POPPLETON APARTMENTS840 W FAYETTE ST                        000N        CARE OF             
MTR08040400001000000000000000RA              35097918    005801270000012700000520000003NN  NNW 000                       N    
RDG08040400WATRL000000004K00000000000005434007812092014093755N000000000000U81       000260400K 10000000010000005434           
CUS0804040000102374837009         POPPLETON PARTNERS I842 W FAYETTE ST                        000N        CARE OF             
MTR08040400001000000000000000RA              00165612    000101280000012800000570000000NN  NNW 000                       N    
RDG08040400WATRL000000004K00000000000000210007912092014093816N000000000000U81       000210400K 10000000010000000210           
CUS0804040000102367798002         H A B C             844 W FAYETTE ST                        000N        CARE OF             
MTR08040400001000000000000000RA              10006424    005801290000012900000570000003NN  NNW 000                       N    
RDG08040400WATRL000000004K00000000000002328008012092014093833N000000000000U81       000170400K 10000000010000002285           
CUS0804040000102382657001         POPPLETON APARTMENTS846 W FAYETTE ST                        000N        CARE OF             
MTR08040400001000000000000000RA              35097921    005801300000013000000520000003NN  NNW 000                       N    
RDG08040400WATRL000000004K00000000000004107008112092014093851N000000000000U81       000180400K 10000000010000004107           
CUS0804040000102382502009         POPPLETON APARTMENTS848 W FAYETTE ST                        000N        CARE OF             
MTR08040400001000000000000000RA              35097757    005801310000013100000520000003NN  NNW 000                       N    
RDG08040400WATRL000000004K00000000000003144008212092014093917N000000000000U81       000260400K 10000000010000003144           
CUS0804040000102217083001         POPPLETON APARTMENTS850 W FAYETTE ST                        000N        CARE OF             
MTR08040400001000000000000000RA              19463298    007501320000013200000520000003NN  NNW 000                       N    
RDG08040400WATRL000000004K00000000000003566008312092014093932N000000000000U81       000150400K 10000000010000003566           
CUS0804040000102374839005         POPPLETON APARTMENTS880 W FAYETTE ST                        000N        CARE OF             
MTR08040400001000000000000000RA              14927723    005801330000013300000310000003NN  NNW 000                       N    
RDG08040400WATRL000000004K00000000000000463008412092014094038N000400000010U81       000660400K 10000000010000000449           
CUS0804040000102374840003         POPPLETON APARTMENTS882 W FAYETTE ST                        000N        CARE OF             
MTR08040400001000000000000000RA              14928745    005801340000013400000310000003NN  NNW 000                       N    
RDG08040400WATRL000000004K00000000000001242008512092014094043N000000000000U81       000050400K 10000000010000001235           
CUS0804040000102447022001         POPPLETON PARTNERS I899 W FAYETTE ST                        000N        CARE OF             
MTR08040400001000000000000000RA              99999999    000301350000013500000440000000NN  NNW 000                       N    
RDG08040400WATRL000000005K00000000000001963008612092014094101N000000000000U81       000180500K 10000000010000001963           
CUS0804040000102447023009         POPPLETON PARTNERS I899 W FAYETTE ST                        000N        CARE OF             
MTR08040400001000000000000000RA              99999999    000101360000013600000440000000NN  NNW 000                       N    
RDG08040400WATRL000000004K00000000000000000008712092014094103N000000000000U81       000020400K 10000000010000000000           
CUS0804040000102374583009         POPPLETON APARTMENTS885 W FAYETTE ST                        000N        CARE OF             
MTR08040400001000000000000000RA              10014277    005801370000013700000570000003NN  NNW 000                       N    
RDG08040400WATRL000000004K00000000000000194008812092014094129N000000000000U81       000260400K 10000000010000000185           
CUS0804040000102374582001         POPPLETON APARTMENTS883 W FAYETTE ST                        000N        CARE OF             
MTR08040400001000000000000000RA              38983297    005801380000013800000520000003NN  NNW 000                       N    
RDG08040400WATRL000000004K00000000000003435008912092014094139N000000000000U81       000100400K 10000000010000003409           
CUS0804040000102374581003         POPPLETON APARTMENTS881 W FAYETTE ST                        000N        CARE OF             
MTR08040400001000000000000000RA              14920014    005801390000013900000310000003NN  NNW 000                       N    
RDG08040400WATRL000000004K00000000000000656009012092014094214N000000000000U81       000350400K 10000000010000000633           
CUS0804040000102374580005         POPPLETON APARTMENTS879 W FAYETTE ST                        000N        CARE OF             
MTR08040400001000000000000000RA              10005206    005801400000014000000570000003NN  NNW 000                       N    
RDG08040400WATRL000000004K00000000000000000009112092014094245N000000000000U81       000310400K 10000000010000000000           
CUS0804040000102374206007         POPPLETON APARTMENTS877 W FAYETTE ST                        000N        CARE OF             
MTR08040400001000000000000000RA              31587834    005801410000014100000520000003NN  NNW 000                       N    
RDG08040400WATRL000000004K00000000000002621009212092014094302N000000000000U81       000170400K 10000000010000002621           
CUS0804040000102374205009         POPPLETON COOPERATIV875 W FAYETTE ST                        000N        CARE OF             
MTR08040400001000000000000000RA              10015051    005801420000014200000570000003NN  NNW 000                       N    
RDG08040400WATRL000000004K00000000000000068009312092014094307N000000000000U81       000050400K 10000000010000000062           
CUS0804040000102384957003         POPPLETON APARTMENTS873 W FAYETTE ST                        000N        CARE OF             
MTR08040400001000000000000000RA              75617941    005801420010014200100350000003NN  NNW 000                       N    
RDG08040400WATRL000000004K00000000000000107009412092014094337N000000000000U81       000300400K 10000000010000000085           
CUS0804040000102217096003         POPPLETON COOPERATIV871 W FAYETTE ST                        000N        CARE OF             
MTR08040400001000000000000000RA              31086227    007501430000014300000520000003NN  NNW 000                       N    
RDG08040400WATRL000000004K00000000000000000009612092014094422S018000000000U81       000150400K 10000000010000000181           
CUS0804040000102364077004         HAMPSTEAD GROUP, INC863 W FAYETTE ST                        000N        CARE OF             
MTR08040400001000000000000000RA              99999999    005801440000014400000620000003NN  NNW 000                       N    
RDG08040400WATRL000000004K00000000000000000009512092014094407N000000000000U81       000300400K 10000000010000000000           
CUS0804040000102364712006         CITY HOMES PATRIOTS 853 W FAYETTE ST                        000N        CARE OF             
MTR08040400001000000000000000RA              38782352    005801450000014500000520000003NN  NNW 000                       N    
RDG08040400WATRL000000004K00000000000004421009712092014094514N000000000000U81       000520400K 10000000010000004421           
CUS0804040000102382504005         POPPLETON APARTMENTS851 W FAYETTE ST                        000N        CARE OF             
MTR08040400001000000000000000RA              01113687    005801460000014600000610000003NN  NNW 000                       N    
RDG08040400WATRL000000004K00000000000001893009812092014094529N000000000000U81       000150400K 10000000010000001828           
CUS0804040000102382503007         POPPLETON COOPERATIV849 W FAYETTE ST                        000N        CARE OF             
MTR08040400001000000000000000RA              10014589    005801470000014700000570000003NN  NNW 000                       N    
RDG08040400WATRL000000004K00000000000000617009912092014094553N000000000000U81       000240400K 10000000010000000576           
CUS0804040000102382501001         POPPLETON APARTMENTS847 W FAYETTE ST                        000N        CARE OF             
MTR08040400001000000000000000RA              01114008    005801480000014800000610000003NN  NNW 000                       N    
RDG08040400WATRL000000004K00000000000001777010012092014094616N000000000000U81       000230400K 10000000010000001768           
CUS0804040000102372729000         H A B C             845 W FAYETTE ST                        000N        CARE OF             
MTR08040400001000000000000000RA              46889275    007501490000014900000520000000NN  NNW 000                       N    
RDG08040400WATRL000000004K00000000000001940010112092014094626N000000000000U81       000100400K 10000000010000001908           
CUS0804040000102382500003         POPPLETON APARTMENTS843 W FAYETTE ST                        000N        CARE OF             
MTR08040400001000000000000000RA              10012787    005801500000015000000570000003NN  NNW 000                       N    
RDG08040400WATRL000000004K00000000000000268010212092014094638N000000000000U81       000120400K 10000000010000000246           
CUS0804040000102382499008         POPPLETON PARTNERS I841 W FAYETTE ST                        000N        CARE OF             
MTR08040400001000000000000000RA              75617445    005801510000015100000350000003NN  NNW 000                       N    
RDG08040400WATRL000000004K00000000000000200010312092014094703N000000000000U81       000250400K 10000000010000000172           
CUS0804040000102217098009         POPPLETON APARTMENTS839 W FAYETTE ST                        000N        CARE OF             
MTR08040400001000000000000000RA              14928291    007501520000015200000310000003NN  NNW 000                       N    
RDG08040400WATRL000000004K00000000000000806010412092014094724N000000000000U81       000210400K 10000000010000000785           
CUS0804040000102217103007         NATIONAL HOUSING TRU840-44 W FAIRMOUNT AVE                  000N        CARE OF             
MTR08040400001000000000000000RA              7227220     005801530000015300000440000003NN  NNW 000                       N    
RDG08040400WATRL000000004K00000000000001027011612092014095137N000000000000U81       000180400K 10000000010000001027           
CUS0804040000102374913008         POPPLETON PARTNERS I860 W FAIRMOUNT AVE                     000N        CARE OF             
MTR08040400001000000000000000RA              32770822    005801540000015400000520000003NN  NNW 000   VACANT PROPERTY     N    
RDG08040400WATRL000000004K00000000000004374010512092014094739N000000000000U81       000150400K 10000000010000004374           
CUS0804040000102374912000         POPPLETON PARTNERS I858 W FAIRMOUNT AVE                     000N        CARE OF             
MTR08040400001000000000000000RA              32770826    005801550000015500000520000003NN  NNW 000   VACANT PROPERTY     N    
RDG08040400WATRL000000004K00000000000001997010612092014094743N000000000000U81       000040400K 10000000010000001997           
CUS0804040000102374911002         POPPLETON APARTMENTS854 W FAIRMOUNT AVE                     000N        CARE OF             
MTR08040400001000000000000000RA              32770273    005801560000015600000520000003NN  NNW 000                       N    
RDG08040400WATRL000000004K00000000000001930011512092014095119N000000000000U81       000040400K 10000000010000001923           
CUS0804040000102374910004         POPPLETON APARTMENTS852 W FAIRMOUNT AVE                     000N        CARE OF             
MTR08040400001000000000000000RA              32770258    005801570000015700000520000003NN  NNW 000                       N    
RDG08040400WATRL000000004K00000000000001959011412092014095115N000000000000U81       000210400K 10000000010000001956           
CUS0804040000102374909006         POPPLETON APARTMENTS850 W FAIRMOUNT AVE                     000N        CARE OF             
MTR08040400001000000000000000RA              32770272    005801580000015800000520000003NN  NNW 000                       N    
RDG08040400WATRL000000004K00000000000003718011312092014095054N000000000000U81       000080400K 10000000010000003711           
CUS0804040000102374908008         POPPLETON APARTMENTS848 W FAIRMOUNT AVE                     000N        CARE OF             
MTR08040400001000000000000000RA              32574351    005801590000015900000520000003NN  NNW 000                       N    
RDG08040400WATRL000000004K00000000000004232011212092014095046N000000000000U81       000270400K 10000000010000004201           
CUS0804040000102374907000         POPPLETON APARTMENTS846 W FAIRMOUNT AVE                     000N        CARE OF             
MTR08040400001000000000000000RA              01079207    005801600000016000000610000003NN  NNW 000                       N    
RDG08040400WATRL000000004K00000000000000166011112092014095019N000000000000U81       000050400K 10000000010000000162           
CUS0804040000102374906002         POPPLETON APARTMENTS844 W FAIRMOUNT AVE                     000N        CARE OF             
MTR08040400001000000000000000RA              01083541    005801610000016100000610000003NN  NNW 000                       N    
RDG08040400WATRL000000004K00000000000001196011012092014095014N000000000000U81       000210400K 10000000010000001110           
CUS0804040000102374905004         POPPLETON APARTMENTS842 W FAIRMOUNT AVE                     000N        CARE OF             
MTR08040400001000000000000000RA              01083549    005801620000016200000610000003NN  NNW 000                       N    
RDG08040400WATRL000000004K00000000000001007010912092014094953N000000000000U81       000130400K 10000000010000000995           
CUS0804040000102374904007         POPPLETON APARTMENTS840 W FAIRMOUNT AVE                     000N        CARE OF             
MTR08040400001000000000000000RA              01083546    005801630000016300000610000003NN  NNW 000                       N    
RDG08040400WATRL000000004K00000000000000474010812092014094940N000000000000U81       000270400K 10000000010000000462           
CUS0804040000102374903009         NATIONAL HOUSING TRU838 W FAIRMOUNT AVE                     000N        CARE OF             
MTR08040400001000000000000000RA              32770284    005801640000016400000520000003NN  NNW 000                       N    
RDG08040400WATRL000000004K00000000000001371010712092014094913N000000000000U81       000900400K 10000000010000001347           
CUS0804040000102374202006         POPPLETON PARTNERS I23 N POPPLETON ST                       000N        CARE OF             
MTR08040400001000000000000000RA              99999999    007501650000016500000620000003NN  NNW 000                       N    
RDG08040400WATRL000000004K00000000000009135011712092014095153N000000000000U81       000160400K 10000000010000009135           
CUS0804040000102374898001         POPPLETON PARTNERS I25 N POPPLETON ST                       000N        CARE OF             
MTR08040400001000000000000000RA              01070832    005801660000016600000610000003NN  NNW 000                       N    
RDG08040400WATRL000000004K00000000000001222011812092014095241N000000000000U81       000480400K 10000000010000001219           
CUS0804040000102374937007         POPPLETON PARTNERS I27 N POPPLETON ST                       000N        CARE OF             
MTR08040400001000000000000000RA              01070837    005801670000016700000610000003NN  NNW 000                       N    
RDG08040400WATRL000000004K00000000000001375011912092014095245N000000000000U81       000040400K 10000000010000001361           
CUS0804040000102374577001         POPPLETON PARTNERS I29 N POPPLETON ST                       000N        CARE OF             
MTR08040400001000000000000000RA              01082544    005801680000016800000610000003NN  NNW 000                       N    
RDG08040400WATRL000000004K00000000000001333012012092014095309N000000000000U81       000240400K 10000000010000001321           
CUS0804040000102374578009         POPPLETON PARTNERS I31 N POPPLETON ST                       000N        CARE OF             
MTR08040400001000000000000000RA              01082537    005801690000016900000610000003NN  NNW 000                       N    
RDG08040400WATRL000000004K00000000000000873012112092014095313N000000000000U81       000040400K 10000000010000000861           
CUS0804040000102374579007         POPPLETON PARTNERS I101 N POPPLETON ST                      000N        CARE OF             
MTR08040400001000000000000000RA              32176244    005801700000017000000520000003NN  NNW 000                       N    
RDG08040400WATRL000000004K00000000000003901014812092014100352N000000000000U81       000510400K 10000000010000003857           
CUS0804040000102374203004         NATIONAL HOUSING TRU101-1/2 N POPPLETON ST                  000N        CARE OF             
MTR08040400001000000000000000RA              46887511    005801710000017100000520000003NN  NNW 000                       N    
RDG08040400WATRL000000004K00000000000002060014912092014100358N000000000000U81       000060400K 10000000010000002047           
CUS0804040000102384316002         ROBINSON, GARY      103 N POPPLETON ST                      000N        CARE OF             
MTR08040400001000000000000000RA              36696593    005801720000017200000520000003NN  NNW 000   VACANT PROPERTY     N    
RDG08040400WATRL000000004K00000000000002765015012092014100449N000000000000U81       000510400K 10000000010000002765           
CUS0804040000102217143003         THOMAS, VALERIE D   105 N POPPLETON ST                      000N        CARE OF             
MTR08040400001000000000000000RA              9693371     007501730000017300000570000003NN  NNW 000                       N    
RDG08040400WATRL000000004K00000000000003750015112092014100508N000000000000U81       000190400K 10000000010000003743           
CUS0804040000102384317000         POPPLETON PLACE APTS107 N POPPLETON ST                      000N        CARE OF             
MTR08040400001000000000000000RA              36696595    005801740000017400000520000003NN  NNW 000                       N    
RDG08040400WATRL000000004K00000000000002960015212092014100520N000000000000U81       000120400K 10000000010000002943           
CUS0804040000102217144001         LEWIS, CYNTHIA      109 N POPPLETON ST                      000N        CARE OF             
MTR08040400001000000000000000RA              41089219    007501750000017500000520000003NN  NNW 000                       N    
RDG08040400WATRL000000004K00000000000002500015312092014100617N000000000000U81       000570400K 10000000010000002480           
CUS0804040000102384318008         POPPLETON PARTNERS, 111 N POPPLETON ST                      000N        CARE OF             
MTR08040400001000000000000000RA              32902868    005801760000017600000520000003NN  NNW 000                       N    
RDG08040400WATRL000000004K00000000000002938015412092014100633N000000000000U81       000160400K 10000000010000002923           
CUS0804040000102384319006         POPPLETON PARTNERS, 113 N POPPLETON ST                      000N        CARE OF             
MTR08040400001000000000000000RA              29683922    005801770000017700000520000003NN  NNW 000                       N    
RDG08040400WATRL000000004K00000000000004489016812092014101240N000000000000U81       000850400K 10000000010000004463           
CUS0804040000102362533008         A.C.G., INC.        115 N POPPLETON ST                      000N        CARE OF             
MTR08040400001000000000000000RA              46887510    005801780000017800000520000000NN  NNW 000                       N    
RDG08040400WATRL000000004K00000000000001119016912092014101304N000000000000U81       000240400K 10000000010000001093           
CUS0804040000102384320004         POPPLETON PARTNERS, 117 N POPPLETON ST                      000N        CARE OF             
MTR08040400001000000000000000RA              32899748    005801790000017900000520000003NN  NNW 000                       N    
RDG08040400WATRL000000004K00000000000002898017012092014101316N000000000000U81       000120400K 10000000010000002876           
CUS0804040000102384321002         CLAD CONSTRUCTION & 119 N POPPLETON ST                      000N        CARE OF             
MTR08040400001000000000000000RA              48584838    005801800000018000000520000000NN  NNW 000   VACANT PROPERTY     N    
RDG08040400WATRL000000004K00000000000000749017112092014101320N000000000000U81       000040400K 10000000010000000749           
CUS0804040000102384322000         POPPLETON PARTNERS, 121 N POPPLETON ST                      000N        CARE OF             
MTR08040400001000000000000000RA              26016393    005801810000018100000520000003NN  NNW 000                       N    
RDG08040400WATRL000000004K00000000000007537017212092014101345N000000000000U81       000250400K 10000000010000007527           
CUS0804040000102377080003         SAMDANI, GULAM A    128 N POPPLETON ST                      000N        CARE OF             
MTR08040400001000000000000000RA              32770498    005801820000018200000520000003NN  NNW 000                       N    
RDG08040400WATRL000000004K00000000000002747016712092014101115N000000000000U81       000140400K 10000000010000002741           
CUS0804040000102375291008         ATLEAN BRYANT       126 N POPPLETON ST                      000N        CARE OF             
MTR08040400001000000000000000RA              48588810    005801830000018300000520000000NN  NNW 000                       N    
RDG08040400WATRL000000004K00000000000002234016612092014101101N000000000000U81       000150400K 10000000010000002216           
CUS0804040000102384323008         WHITE, SUNDAE R     124 N POPPLETON ST                      000N        CARE OF             
MTR08040400001000000000000000RA              50789234    005801840000018400000520000003NN  NNW 000                       N    
RDG08040400WATRL000000004K00000000000001065016512092014101046N000400000010U81       000140400K 10000000010000001059           
CUS0804040000102384285009         JONES, SHARON R     122 N POPPLETON ST                      000N        CARE OF             
MTR08040400001000000000000000RA              36696590    005801850000018500000520000003NN  NNW 000                       N    
RDG08040400WATRL000000004K00000000000001473016412092014101032N000000000000U81       000240400K 10000000010000001459           
CUS0804040000102362531002         HABC/RH             120 N POPPLETON ST                      000N        CARE OF             
MTR08040400001000000000000000RA              36695508    005801860000018600000520000003NN  NNW 000                       N    
RDG08040400WATRL000000004K00000000000003675016312092014101008N000000000000U81       000270400K 10000000010000003666           
CUS0804040000102384284002         MONTROSE, LENNOX    118 N POPPLETON ST                      000N        CARE OF             
MTR08040400001000000000000000RA              36695513    005801870000018700000520000003NN  NNW 000                       N    
RDG08040400WATRL000000004K00000000000001357016212092014100941N000000000000U81       000200400K 10000000010000001347           
CUS0804040000102393629007         A.C.G., INC.        116 N POPPLETON ST                      000N        CARE OF             
MTR08040400001000000000000000RA              38782088    005801880000018800000520000003NN  NNW 000                       N    
RDG08040400WATRL000000004K00000000000003393016112092014100921N000000000000U81       000190400K 10000000010000003369           
CUS0804040000102384283004         MATTHEWS, CLIFTON   114 N POPPLETON ST                      000N        CARE OF             
MTR08040400001000000000000000RA              26008167    005801890000018900000520000003NN  NNW 000                       N    
RDG08040400WATRL000000004K00000000000002141016012092014100902N000000000000U81       000110400K 10000000010000002132           
CUS0804040000102384282006         HOLLIS JR., MICHAEL 112 N POPPLETON ST                      000N        CARE OF             
MTR08040400001000000000000000RA              44174344    005801900000019000000520000003NN  NNW 000                       N    
RDG08040400WATRL000000004K00000000000001052015912092014100851N000300000010U81       000230400K 10000000010000001021           
CUS0804040000102384281008         CLEMENTINE BURKE    110 N POPPLETON ST                      000N        CARE OF             
MTR08040400001000000000000000RA              45376429    005801910000019100000520000003NN  NNW 000                       N    
RDG08040400WATRL000000004K00000000000002740015812092014100828N000000000000U81       000220400K 10000000010000002718           
CUS0804040000102384280000         SAMDAMI, GULAM A    108 N POPPLETON ST                      000N        CARE OF             
MTR08040400001000000000000000RA              50789674    005801920000019200000520000003NN  NNW 000                       N    
RDG08040400WATRL000000004K00000000000001092015712092014100806N000000000000U81       000210400K 10000000010000001073           
CUS0804040000102384279002         BLANDING, SHARRON DE106 N POPPLETON ST                      000N        CARE OF             
MTR08040400001000000000000000RA              99289631    005801930000019300000570000003NN  NNW 000                       N    
RDG08040400WATRL000000004K00000000000001540015612092014100745N000000000000U81       000240400K 10000000010000001517           
CUS0804040000102375289002         FEDERAL MORTGAGE ASS102 N POPPLETON ST                      000N        CARE OF             
MTR08040400001000000000000000RA              45381606    005801940000019400000520000000NN  NNW 000                       N    
RDG08040400WATRL000000004K00000000000002985015512092014100721N000000000000U81       000480400K 10000000010000002967           
CUS0804040000102374196000         POPPLETON PLACE APTS902 W FAYETTE ST                        000N        CARE OF             
MTR08040400001000000000000000RA              00163410    000101950000019500000570000003NN  NNW 000                       N    
RDG08040400WATRL000000004K00000000000005154014712092014100301N000000000000U81       000400400K 10000000010000005054           
CUS0804040000102374197008         POPPLETON PARTNERS, 904 W FAYETTE ST                        000N        CARE OF             
MTR08040400001000000000000000RA              31345584    007501960000019600000520000003NN  NNW 000                       N    
RDG08040400WATRL000000004K00000000000005821014612092014100221N000000000000U81       000290400K 10000000010000005806           
CUS0804040000102374198006         POPPLETON PARTNERS, 910 W FAYETTE ST                        000N        CARE OF             
MTR08040400001000000000000000RA              01105216    001501970000019700000610000003NN  NNW 000                       N    
RDG08040400WATRL000000005K00000000000003159014512092014100152N000000000000U81       000230500K 10000000010000003085           
CUS0804040000102374199004         NPA/DHCD            914 W FAYETTE ST                        000N        CARE OF             
MTR08040400001000000000000000RA              31938108    000101980000019800000520000003NN  NNW 000                       N    
RDG08040400WATRL000000004K00000000000000685014412092014100129N000000000000U81       000240400K 10000000010000000604           
CUS0804040000102374201008         POPPLETON PARTNERS, 918 W FAYETTE ST                        000N        CARE OF             
MTR08040400001000000000000000RA              76349950    000101990000019900000350000003NN  NNW 000                       N    
RDG08040400WATRL000000004K00000000000000221014312092014100105N000000000000U81       000300400K 10000000010000000161           
CUS0804040000102447015005         POPPLETON PARTNERS I922 W FAYETTE ST                        000N        CARE OF             
MTR08040400001000000000000000RA              00167181    000102000000020000000570000000NN  NNW 000                       N    
RDG08040400WATRL000000004K00000000000000580014212092014100035N000000000000U81       000340400K 10000000010000000545           
CUS0804040000102374834006         POPPLETON PARTNERS, 115-17 N AMITY ST                       000N        CARE OF             
MTR08040400001000000000000000RA              99410265    000102010000020100000570000003NN  NNW 000                       N    
RDG08040400WATRL000000004K00000000000002467005512082014112033N000000000000N81       000030400K 10000000010000002427           
CUS0804040000102374835003         POPPLETON PARTNERS, 111-13 N AMITY ST                       000N        CARE OF             
MTR08040400001000000000000000RA              99410148    000102020000020200000570000003NN  NNW 000                       N    
RDG08040400WATRL000000004K00000000000002697005412082014112058N000000000011N81       000250400K 10000000010000002637           
CUS0804040000102374836001         POPPLETON PARTNERS, 125 N AMITY ST                          000N        CARE OF             
MTR08040400001000000000000000RA              31937009    007502030000020300000520000003NN  NNW 000                       N    
RDG08040400WATRL000000004K00000000000004108005312082014111959N000000000000N81       000550400K 10000000010000004084           
CUS0804040000102349670006         MAYOR AND CITY COUNC214 N AMITY ST                          000N        CARE OF             
MTR08040400001000000000000000RA              99999999    005802040000020400000620000003NN  NNW 000                       N    
RDG08040400WATRL000000004K00000000000000312005112082014111900N000000000000N81       002240400K 10000000010000000312           
CUS0804040000102162881003         MAYOR AND CITY COUNC212 N AMITY ST                          000N        CARE OF             
MTR08040400001000000000000000RA              99999999    005802050000020500000620000000NN  NNW 000                       N    
RDG08040400WATRL000000004K00000000000000103005212082014111904N000000000000N81       000040400K 10000000010000000103           
CUS0804040000102217154000         MAJOR & CITY COUNCIL942-46 W FAYETTE ST                     000N        CARE OF             
MTR08040400001000000000000000RA              44030434    007502060000020600000520000003NN  NNW 000                       N    
RDG08040400WATRL000000004K00000000000002067014112092014100001N000000000000U81       000090400K 10000000010000002067           
CUS0804040000102217156005         MAYOR AND CITY COUNC949 W FAYETTE ST                        000N        CARE OF             
MTR08040400001000000000000000RA              99999999    007502070000020700000620000003NN  NNW 000                       N    
RDG08040400WATRL000000004K00000000000005462014012092014095952N000000000000U81       000040400K 10000000010000005462           
CUS0804040000102163538008         MAYOR AND CITY COUNC947 W FAYETTE ST                        000N        CARE OF             
MTR08040400001000000000000000RA              48587793    005802080000020800000520000000NN  NNW 000                       N    
RDG08040400WATRL000000004K00000000000001976013912092014095948N000000000000U81       000040400K 10000000010000001976           
CUS0804040000102163535004         MAYOR AND CITY COUNC933 W FAYETTE ST                        000N        CARE OF             
MTR08040400001000000000000000RA              99999999    005802090000020900000620000000NN  NNW 000   INVALID DAC         N    
RDG08040400WATRL000000004K00000000000000000013812092014095944N000000000000U81       000020400K 10000000010000000000           
CUS0804040000102163534007         MAYOR AND CITY COUNC931 W FAYETTE ST                        000N        CARE OF             
MTR08040400001000000000000000RA              99293558    005802100000021000000570000000NN  NNW 000                       N    
RDG08040400WATRL000000004K00000000000000511013712092014095942N000000000000U81       000030400K 10000000010000000511           
CUS0804040000102374059000         POPPLETON APARTMENTS915 W FAYETTE ST                        000N        CARE OF             
MTR08040400001000000000000000RA              31586948    005802110000021100000520000003NN  NNW 000                       N    
RDG08040400WATRL000000004K00000000000001157013612092014095939N000000000000U81       000130400K 10000000010000001144           
CUS0804040000102384965006         POPPLETON APARTMENTS913 W FAYETTE ST                        000N        CARE OF             
MTR08040400001000000000000000RA              26003896    005802120000021200000520000003NN  NNW 000                       N    
RDG08040400WATRL000000004K00000000000001852013512092014095926N000000000000U81       000110400K 10000000010000001852           
CUS0804040000102384289001         POPPLETON APARTMENTS911 W FAYETTE ST                        000N        CARE OF             
MTR08040400001000000000000000RA              01116078    005802130000021300000610000003NN  NNW 000                       N    
RDG08040400WATRL000000004K00000000000000000013412092014095915N000000000000U81       000130400K 10000000010000000000           
CUS0804040000102382662001         POPPLETON APARTMENTS909 W FAYETTE ST                        000N        CARE OF             
MTR08040400001000000000000000RA              35097964    005802140000021400000520000003NN  NNW 000                       N    
RDG08040400WATRL000000004K00000000000002427013312092014095902N000000000000U81       000130400K 10000000010000002419           
CUS0804040000102382661003         POPPLETON APARTMENTS907 W FAYETTE ST                        000N        CARE OF             
MTR08040400001000000000000000RA              10014492    005802150000021500000570000003NN  NNW 000                       N    
RDG08040400WATRL000000004K00000000000000261013212092014095849N000000000000U81       000210400K 10000000010000000249           
CUS0804040000102382660005         POPPLETON APARTMENTS905 W FAYETTE ST                        000N        CARE OF             
MTR08040400001000000000000000RA              35097965    005802160000021600000520000003NN  NNW 000                       N    
RDG08040400WATRL000000004K00000000000002489013112092014095828N000000000000U81       000130400K 10000000010000002483           
CUS0804040000102382659007         POPPLETON APARTMENTS903 W FAYETTE ST                        000N        CARE OF             
MTR08040400001000000000000000RA              48585953    005802170000021700000520000003NN  NNW 000                       N    
RDG08040400WATRL000000004K00000000000001260013012092014095815N000300000010U81       000230400K 10000000010000001212           
CUS0804040000102382658009         POPPLETON PARTNERS I901 W FAYETTE ST                        000N        CARE OF             
MTR08040400001000000000000000RA              14923885    005802180000021800000310000003NN  NNW 000                       N    
RDG08040400WATRL000000004K00000000000000601012912092014095752N000000000000U81       000230400K 10000000010000000584           
CUS0804040000102384293003         POPPLETON COOPERATIV34 N POPPLETON ST                       000N        CARE OF             
MTR08040400001000000000000000RA              10011608    005802190000021900000570000003NN  NNW 000                       N    
RDG08040400WATRL000000004K00000000000000123012712092014095652N000000000000U81       000150400K 10000000010000000113           
CUS0804040000102384294001         POPPLETON PARTNERS I32 N POPPLETON ST                       000N        CARE OF             
MTR08040400001000000000000000RA              14930674    005802200000022000000310000003NN  NNW 000                       N    
RDG08040400WATRL000000004K00000000000000455012812092014095729N000400000010U81       000370400K 10000000010000000424           
CUS0804040000102369803008         POPPLETON PARTNERS I30 N POPPLETON ST                       000N        CARE OF             
MTR08040400001000000000000000RA              48583484    005802210000022100000520000003NN  NNW 000                       N    
RDG08040400WATRL000000004K00000000000001157012612092014095637N000000000000U81       000260400K 10000000010000001157           
CUS0804040000102369802000         POPPLETON PARTNERS I28 N POPPLETON ST                       000N        CARE OF             
MTR08040400001000000000000000RA              33735347    005802220000022200000520000003NN  NNW 000                       N    
RDG08040400WATRL000000004K00000000000002213012512092014095611N000000000000U81       000040400K 10000000010000002204           
CUS0804040000102369801002         POPPLETON PARTNERS I26 N POPPLETON ST                       000N        CARE OF             
MTR08040400001000000000000000RA              33735345    005802230000022300000520000003NN  NNW 000                       N    
RDG08040400WATRL000000004K00000000000003037012412092014095607N000000000000U81       000790400K 10000000010000003028           
CUS0804040000102369800004         POPPLETON COOPERATIV24 N POPPLETON ST                       000N        CARE OF             
MTR08040400001000000000000000RA              75616757    005802240000022400000350000003NN  NNW 000                       N    
RDG08040400WATRL000000004K00000000000000077012312092014095448N000000000000U81       000070400K 10000000010000000060           
CUS0804040000102369799008         POPPLETON PARTNERS I22 N POPPLETON ST                       000N        CARE OF             
MTR08040400001000000000000000RA              24759404    005802250000022500000520000003NN  NNW 000                       N    
RDG08040400WATRL000000004K00000000000002552012212092014095441N000000000000U81       000880400K 10000000010000002549           
RTR08040400NN02270227000002270000000002270227000082NY022702270227000000030000000000000000000002    12042014NY020000 N         
RHD08041000NN01800180000001800000000001800180000039NY018001800180000000000000000000000000000002    12042014NY020000 N         
CUS0804100000102163332006         SIDNEY SAKOLS       310 N ARLINGTON AVE                     000N        CARE OF             
MTR08041000001000000000000000RA              43904693    007500010010000100100520000003NN  NNW 000                       N    
RDG08041000WATRL000000004K00000000000002798000112102014142826N000000000000U84       000000400K 10000000010000002798           
CUS0804100000102364699005         HUNT, HELEN H       1104 SARAH ANN ST                       000N        CARE OF             
MTR08041000001000000000000000RA              99387635    005800020000000200000570000003NN  NNW 000                       N    
RDG08041000WATRL000000004K00000000000001131000212102014142830N000400000010U84       000040400K 10000000010000001112           
CUS0804100000102376651002         HELEN H HUNT        1106 SARAH ANN ST                       000N        CARE OF             
MTR08041000001000000000000000RA              45381755    005800030000000300000520000003NN  NNW 000                       N    
RDG08041000WATRL000000004K00000000000000820000312102014142833N000000000000U84       000030400K 10000000010000000815           
CUS0804100000102367845001         HUNT, HELEN H       1108 SARAH ANN ST                       000N        CARE OF             
MTR08041000001000000000000000RA              48589676    005800040000000400000520000003NN  NNW 000                       N    
RDG08041000WATRL000000004K00000000000001853000412102014142835N000000000000U84       000020400K 10000000010000001843           
CUS0804100000102376652000         HELEN H HUNT        1110 SARAH ANN ST                       000N        CARE OF             
MTR08041000001000000000000000RA              45381896    005800050000000500000520000003NN  NNW 000                       N    
RDG08041000WATRL000000004K00000000000000874000512102014142838N000000000000U84       000030400K 10000000010000000869           
CUS0804100000102376653008         HELEN H HUNT        1112 SARAH ANN ST                       000N        CARE OF             
MTR08041000001000000000000000RA              99387632    005800060000000600000570000003NN  NNW 000                       N    
RDG08041000WATRL000000004K00000000000000992000612102014142840N000000000000U84       000020400K 10000000010000000983           
CUS0804100000102364700001         HUNT, HELEN H       1114 SARAH ANN ST                       000N        CARE OF             
MTR08041000001000000000000000RA              99387634    005800070000000700000570000003NN  NNW 000                       N    
RDG08041000WATRL000000004K00000000000000408000712102014142848N000400000010U84       000080400K 10000000010000000397           
CUS0804100000102364701009         HUNT, HELEN H       1116 SARAH ANN ST                       000N        CARE OF             
MTR08041000001000000000000000RA              30518694    005800080000000800000520000003NN  NNW 000                       N    
RDG08041000WATRL000000004K00000000000001815000812102014142852N000000000000U84       000040400K 10000000010000001809           
CUS0804100000102364702007         HUNT, HELEN H       1118 SARAH ANN ST                       000N        CARE OF             
MTR08041000001000000000000000RA              99387780    005800090000000900000570000003NN  NNW 000                       N    
RDG08041000WATRL000000004K00000000000000811000912102014142854N000000000000U84       000020400K 10000000010000000803           
CUS0804100000102376654006         HELEN H HUNT        1120 SARAH ANN ST                       000N        CARE OF             
MTR08041000001000000000000000RA              14921389    005800100000001000000310000003NN  NNW 000                       N    
RDG08041000WATRL000000004K00000000000000051001012102014142856N000000000000U84       000020400K 10000000010000000051           
CUS0804100000102362464006         HUNT, HELEN H       1122 SARAH ANN ST                       000N        CARE OF             
MTR08041000001000000000000000RA              99387775    005800110000001100000570000000NN  NNW 000                       N    
RDG08041000WATRL000000004K00000000000001503001112102014142859N000000000000U84       000030400K 10000000010000001463           
CUS0804100000102358804009         BUREAU OF PARKS     1117-21 SARAH ANN ST                    000N        CARE OF             
MTR08041000001000000000000000RA              29681971    005800120000001200000520000003NN  NNW 000                       N    
RDG08041000WATRL000000004K00000000000000187001212102014142901N000000000000U84       000020400K 10000000010000000187           
CUS0804100000102366445001         WM  BROWN           1102 W SARATOGA ST                      000N        CARE OF             
MTR08041000001000000000000000RA              14924711    005800130000001300000310000003NN  NNW 000                       N    
RDG08041000WATRL000000004K00000000000000668001312102014142903N000000000000U84       000020400K 10000000010000000663           
CUS0804100000102162866004         400 BUSINESS TRUST  1104 W SARATOGA ST                      000N        CARE OF             
MTR08041000001000000000000000RA              10007665    005800140000001400000570000000NN  NNW 000   VACANT PROPERTY     N    
RDG08041000WATRL000000004K00000000000000000001412102014142905N000000000000U84       000020400K 10000000010000000000           
CUS0804100000102374011001         WOODROW MCFADDEN    1128 W SARATOGA ST                      000N        CARE OF             
MTR08041000001000000000000000RA              44088554    005800150000001500000520000000NN  NNW 000                       N    
RDG08041000WATRL000000004K00000000000001938001512102014142909N000000000000U84       000040400K 10000000010000001930           
CUS0804100000102374012009         PAUL, ROBERT H.     1132 W SARATOGA ST                      000N        CARE OF             
MTR08041000001000000000000000RA              44088726    005800160000001600000520000000NN  NNW 000                       N    
RDG08041000WATRL000000004K00000000000004407001612102014142912N000000000000U84       000030400K 10000000010000004393           
CUS0804100000102374022008         THURSTON O. BUTLER  1134 W SARATOGA ST                      000N        CARE OF             
MTR08041000001000000000000000RA              14928786    005800170000001700000310000003NN  NNW 000                       N    
RDG08041000WATRL000000004K00000000000000524001712102014142914N000000000000U84       000020400K 10000000010000000513           
CUS0804100000102163034008         400 BUSINESS TRUST  1129 W SARATOGA ST                      000N        CARE OF             
MTR08041000001000000000000000RA              44003388    005800180000001800000520000000NN  NNW 000   VACANT PROPERTY     N    
RDG08041000WATRL000000004K00000000000001436001812102014142916N000000000000U84       000020400K 10000000010000001436           
CUS0804100000102163033000         SD-5 CORPORATION    1127 W SARATOGA ST                      000N        CARE OF             
MTR08041000001000000000000000RA              41589550    005800190000001900000520000000NN  NNW 000   VACANT PROPERTY     N    
RDG08041000WATRL000000004K00000000000000216001912102014142918N000000000000U84       000020400K 10000000010000000216           
CUS0804100000102384238008         DORTCH, NAPOLEON    304 N ARLINGTON AVE                     000N        CARE OF             
MTR08041000001000000000000000RA              35097466    005800200000002000000520000003NN  NNW 000                       N    
RDG08041000WATRL000000004K00000000000001568002012102014142921N000000000000U84       000030400K 10000000010000001568           
CUS0804100000102163377001         MAYOR AND CITY COUNC326 N SCHROEDER ST                      000N        CARE OF             
MTR08041000001000000000000000RA              35100296    007500210000002100000520000003NN  NNW 000                       N    
RDG08041000WATRL000000004K00000000000003692002112102014142927N000000000000U84       000060400K 10000000010000003692           
CUS0804100000102162826008         JOYCE C SMITH       324 N SCHROEDER ST                      000N        CARE OF             
MTR08041000001000000000000000RA              10022777    005800220000002200000570000003NN  NNW 000   VACANT PROPERTY     N    
RDG08041000WATRL000000004K00000000000000000002212102014142928N000000000000U84       000010400K 10000000010000000000           
CUS0804100000102384244006         BROWN, RICHARD C    1031 SARAH ANN ST                       000N        CARE OF             
MTR08041000001000000000000000RA              38983699    005800230000002300000520000000NN  NNW 000                       N    
RDG08041000WATRL000000004K00000000000001435002312102014142930N000000000000U84       000020400K 10000000010000001428           
CUS0804100000102162822007         MAXWELL ZILUCA      1029 SARAH ANN ST                       000N        CARE OF             
MTR08041000001000000000000000RA              48588592    005800240000002400000520000000NN  NNW 000                       N    
RDG08041000WATRL000000004K00000000000001040002412102014142933N000000000000U84       000030400K 10000000010000001028           
CUS0804100000102377452004         BROWN, RICHARD C    1027 SARAH ANN ST                       000N        CARE OF             
MTR08041000001000000000000000RA              52286926    005800250000002500000520000000NN  NNW 000                       N    
RDG08041000WATRL000000004K00000000000000614002512102014142934N000000000000U84       000010400K 10000000010000000614           
CUS0804100000102384245003         BROWN, NATHANIEL    1023 SARAH ANN ST                       000N        CARE OF             
MTR08041000001000000000000000RA              01115685    005800260000002600000610000000NN  NNW 000                       N    
RDG08041000WATRL000000004K00000000000000357002612102014142936N000000000000U84       000020400K 10000000010000000357           
CUS0804100000102163379007         ST PAULS M E CHURCH 1000 W SARATOGA ST                      000N        CARE OF             
MTR08041000001000000000000000RA              14928202    007500270000002700000310000003NN  NNW 000                       N    
RDG08041000WATRL000000004K00000000000000662002712102014142938N000000000000U84       000020400K 10000000010000000646           
CUS0804100000102162872002         CARTER, NATHAN      1020 W SARATOGA ST                      000N        CARE OF             
MTR08041000001000000000000000RA              99999999    005800280000002800000620000000NN  NNW 000   FERRULE APPLIED     N    
RDG08041000WATRL000000004K00000000000002745002812102014142944N000000000000U84       000060400K 10000000010000002745           
CUS0804100000102163380005         GUARDIAN FOUNDATION,1022 W SARATOGA ST                      000N        CARE OF             
MTR08041000001000000000000000RA              99999999    007500290000002900000620000003NN  NNW 000   FERRULE APPLIED     N    
RDG08041000WATRL000000004K00000000000003581002912102014142946N000000000000U84       000020400K 10000000010000003581           
CUS0804100000102162871004         R WM CONNOLLY JR    1026 W SARATOGA ST                      000N        CARE OF             
MTR08041000001000000000000000RA              99999999    005800300000003000000620000000NN  NNW 000   FERRULE APPLIED     N    
RDG08041000WATRL000000004K00000000000000005003012102014142948N000000000000U84       000020400K 10000000010000000005           
CUS0804100000102365268008         ART MANAGEMENT, LLC 1042 W SARATOGA ST                      000N        CARE OF             
MTR08041000001000000000000000RA              38887003    005800310000003100000520000003NN  NNW 000   VACANT PROPERTY     N    
RDG08041000WATRL000000004K00000000000002747003112102014142951N000000000000U84       000030400K 10000000010000002747           
CUS0804100000102163383009         MAYOR AND CITY COUNC1050 W SARATOGA ST                      000N        CARE OF             
MTR08041000001000000000000000RA              99999999    005800320000003200000620000003NN  NNW 000   VACANT PROPERTY     N    
RDG08041000WATRL000000004K00000000000000172003212102014142955N000000000000U84       000040400K 10000000010000000172           
CUS0804100000102163385004         DEPT OF EDUCATION   1004 W LEXINGTON ST                     000N        CARE OF             
MTR08041000001000000000000000RA              16044504    007500330000003300000440000003NN  NNW 000                       N    
RDG08041000WATRL000000004K00000000000000391003312102014142958N000000000000U84       000030400K 10000000010000000391           
CUS0804100000102163390004         ALLEN A. M. E. CHURC1124-30 W LEXINGTON ST                  000N        CARE OF             
MTR08041000001000000000000000RA              43904718    007500340000003400000520000003NN  NNW 000                       N    
RDG08041000WATRL000000004K00000000000002885003412102014143006N000300000010U84       000080400K 10000000010000002858           
