FHDNNNN015002891002891002957N                                                                                           010909
RHD06367000NN01750180000001750000000501800180000000NY018001800180017500000000000000000000000002    11232015NY020000           
CUS0636700000106283874003         NYARKO, CHARLES K   4121 CHESTERFIELD AVE                   000N        CARE OF             
MTR06367000001000000000000000RA              99290306    005800010000000100000570000003NN  NNW 000                       N    
RDG06367000WATRL000000004K00000000000000000000000000000000000 000000000000N         000000400  10000000010000000312           
CUS0636700000106283875000         STEPHENS, LEVI M    4119 CHESTERFIELD AVE                   000N        CARE OF             
MTR06367000001000000000000000RA              41074413    005800020000000200000520000003NN  NNW 000                       N    
RDG06367000WATRL000000004K00000000000000000000000000000000000 000000000000N         000000400  10000000010000001373           
CUS0636700000106283876008         MYRON M PALEN       4117 CHESTERFIELD AVE                   000N        CARE OF             
MTR06367000001000000000000000RA              27821182    005800030000000300000520000003NN  NNW 000                       N    
RDG06367000WATRL000000004K00000000000000000000000000000000000 000000000000N         000000400  10000000010000002129           
CUS0636700000106283877006         ROBERT H ALTENBERG &4115 CHESTERFIELD AVE                   000N        CARE OF             
MTR06367000001000000000000000RA              10009101    005800040000000400000570000003NN  NNW 000                       N    
RDG06367000WATRL000000004K00000000000000000000000000000000000 000000000000N         000000400  10000000010000000085           
CUS0636700000106283878004         GIBSON, CATHERINE   4113 CHESTERFIELD AVE                   000N        CARE OF             
MTR06367000001000000000000000RA              00126100    005800050000000500000570000003NN  NNW 000                       N    
RDG06367000WATRL000000004K00000000000000000000000000000000000 000000000000N         000000400  10000000010000001131           
CUS0636700000106283879002         NATHANIEL BRUNSON   4111 CHESTERFIELD AVE                   000N        CARE OF             
MTR06367000001000000000000000RA              10000026    005800060000000600000570000003NN  NNW 000                       N    
RDG06367000WATRL000000004K00000000000000000000000000000000000 000000000000N         000000400  10000000010000000515           
CUS0636700000106283880000         ATKINS, HOLLODAY    4109 CHESTERFIELD AVE                   000N        CARE OF             
MTR06367000001000000000000000RA              01094068    005800070000000700000610000003NN  NNW 000                       N    
RDG06367000WATRL000000004K00000000000000000000000000000000000 000000000000N         000000400  10000000010000001710           
CUS0636700000106283881008         FELICIA & CARLTON LE4107 CHESTERFIELD AVE                   000N        CARE OF             
MTR06367000001000000000000000RA              26000498    005800080000000800000520000003NN  NNW 000                       N    
RDG06367000WATRL000000004K00000000000000000000000000000000000 000000000000N         000000400  10000000010000005275           
CUS0636700000106283882006         TATE, RITA          4105 CHESTERFIELD AVE                   000N        CARE OF             
MTR06367000001000000000000000RA              36692240    005800090000000900000520000003NN  NNW 000                       N    
RDG06367000WATRL000000004K00000000000000000000000000000000000 000000000000N         000000400  10000000010000003004           
CUS0636700000106283883004         ST. AMBROSE HOUSING 4103 CHESTERFIELD AVE                   000N        CARE OF             
MTR06367000001000000000000000RA              48596253    005800100000001000000520000003NN  NNW 000                       N    
RDG06367000WATRL000000004K00000000000000000000000000000000000 000000000000N         000000400  10000000010000001859           
CUS0636700000106283884002         LAWRENCE ETAL, EMMA 4101 CHESTERFIELD AVE                   000N        CARE OF             
MTR06367000001000000000000000RA              48591581    005800110000001100000520000003NN  NNW 000                       N    
RDG06367000WATRL000000004K00000000000000000000000000000000000 000000000000N         000000400  10000000010000001746           
CUS0636700000106283885009         SYLVIA GROSS        4013 CHESTERFIELD AVE                   000N        CARE OF             
MTR06367000001000000000000000RA              44179220    005800120000001200000520000003NN  NNW 000                       N    
RDG06367000WATRL000000004K00000000000000000000000000000000000 000000000000N         000000400  10000000010000002144           
CUS0636700000106283886007         BUSH, TIFFANIE M.   4011 CHESTERFIELD AVE                   000N        CARE OF             
MTR06367000001000000000000000RA              75616546    005800130000001300000350000003NN  NNW 000                       N    
RDG06367000WATRL000000004K00000000000000000000000000000000000 000000000000N         000000400  10000000010000000220           
CUS0636700000106283887005         MURPHY, BRIAN T     4009 CHESTERFIELD AVE                   000N        CARE OF             
MTR06367000001000000000000000RA              44172561    005800140000001400000520000003NN  NNW 000                       N    
RDG06367000WATRL000000004K00000000000000000000000000000000000 000000000000N         000000400  10000000010000000933           
CUS0636700000106283888003         DAVID GREEN & WF    4007 CHESTERFIELD AVE                   000N        CARE OF             
MTR06367000001000000000000000RA              44172562    005800150000001500000520000003NN  NNW 000                       N    
RDG06367000WATRL000000004K00000000000000000000000000000000000 000000000000N         000000400  10000000010000002603           
CUS0636700000106283889001         COLEMAN, CHERYL A   4005 CHESTERFIELD AVE                   000N        CARE OF             
MTR06367000001000000000000000RA              00136722    005800160000001600000570000003NN  NNW 000                       N    
RDG06367000WATRL000000004K00000000000000000000000000000000000 000000000000N         000000400  10000000010000001651           
CUS0636700000106283890009         HONEYCUTT JR., JAMES4003 CHESTERFIELD AVE                   000N        CARE OF             
MTR06367000001000000000000000RA              00136720    005800170000001700000570000003NN  NNW 000                       N    
RDG06367000WATRL000000004K00000000000000000000000000000000000 000000000000N         000000400  10000000010000000511           
CUS0636700000106283891007         WILSON, MONIQUE S   4001 CHESTERFIELD AVE                   000N        CARE OF             
MTR06367000001000000000000000RA              14905544    005800180000001800000310000003NN  NNW 000                       N    
RDG06367000WATRL000000004K00000000000000000000000000000000000 000000000000N         000000400  10000000010000000869           
CUS0636700000106283892005         BISSESSAR, RAMRAJIE 3843 RAVENWOOD AVE                      000N        CARE OF             
MTR06367000001000000000000000RA              35115528    005800190000001900000520000003NN  NNW 000                       N    
RDG06367000WATRL000000004K00000000000000000000000000000000000 000000000000N         000000400  10000000010000003585           
CUS0636700000106283893003         COLES, VALENCIA C   3841 RAVENWOOD AVE                      000N        CARE OF             
MTR06367000001000000000000000RA              54352356    005800200000002000000520000003NN  NNW 000                       N    
RDG06367000WATRL000000004K00000000000000000000000000000000000 000000000000N         000000400  10000000010000001367           
CUS0636700000106283894001         SWANN, DEBORAH P    3839 RAVENWOOD AVE                      000N        CARE OF             
MTR06367000001000000000000000RA              23055499    005800210000002100000520000003NN  NNW 000                       N    
RDG06367000WATRL000000004K00000000000000000000000000000000000 000000000000N         000000400  10000000010000001964           
CUS0636700000106283895008         BISSESSAR, RAMRAJIE 3837 RAVENWOOD AVE                      000N        CARE OF             
MTR06367000001000000000000000RA              01101219    005800220000002200000610000003NN  NNW 000                       N    
RDG06367000WATRL000000004K00000000000000000000000000000000000 000000000000N         000000400  10000000010000001487           
CUS0636700000106283896006         EDWARD COBB         3835 RAVENWOOD AVE                      000N        CARE OF             
MTR06367000001000000000000000RA              01101220    005800230000002300000610000003NN  NNW 000                       N    
RDG06367000WATRL000000004K00000000000000000000000000000000000 000000000000N         000000400  10000000010000000970           
CUS0636700000106283897004         BISSESSAR, MICHEL   3833 RAVENWOOD AVE                      000N        CARE OF             
MTR06367000001000000000000000RA              00126337    005800240000002400000570000003NN  NNW 000                       N    
RDG06367000WATRL000000004K00000000000000000000000000000000000 000000000000N         000000400  10000000010000001273           
CUS0636700000106283898002         ALLEN, CARMELITA    3831 RAVENWOOD AVE                      000N        CARE OF             
MTR06367000001000000000000000RA              00126334    005800250000002500000570000003NN  NNW 000                       N    
RDG06367000WATRL000000004K00000000000000000000000000000000000 000000000000N         000000400  10000000010000002780           
CUS0636700000106283899000         HAKIM, LINDA C      3829 RAVENWOOD AVE                      000N        CARE OF             
MTR06367000001000000000000000RA              29404196    005800260000002600000520000003NN  NNW 000                       N    
RDG06367000WATRL000000004K00000000000000000000000000000000000 000000000000N         000000400  10000000010000004291           
CUS0636700000106283900006         HOLLIMON, ADRIENNE  3827 RAVENWOOD AVE                      000N        CARE OF             
MTR06367000001000000000000000RA              01099327    005800270000002700000610000003NN  NNW 000   VACANT PROPERTY     N    
RDG06367000WATRL000000004K00000000000000000000000000000000000 000000000000N         000000400  10000000010000000486           
CUS0636700000106283901004         HANLEY, SHIRLEY EMMA3825 RAVENWOOD AVE                      000N        CARE OF             
MTR06367000001000000000000000RA              00136721    005800280000002800000570000003NN  NNW 000                       N    
RDG06367000WATRL000000004K00000000000000000000000000000000000 000000000000N         000000400  10000000010000000492           
CUS0636700000106283902002         ARRINGTON, ANTOINE  3823 RAVENWOOD AVE                      000N        CARE OF             
MTR06367000001000000000000000RA              50479577    005800290000002900000520000003NN  NNW 000                       N    
RDG06367000WATRL000000004K00000000000000000000000000000000000 000000000000N         000000400  10000000010000002086           
CUS0636700000106283903000         SCROGGINS, DESIREE  3821 RAVENWOOD AVE                      000N        CARE OF             
MTR06367000001000000000000000RA              36696466    005800300000003000000520000003NN  NNW 000                       N    
RDG06367000WATRL000000004K00000000000000000000000000000000000 000000000000N         000000400  10000000010000001927           
CUS0636700000106283904008         TURNER, LINDA       3819 RAVENWOOD AVE                      000N        CARE OF             
MTR06367000001000000000000000RA              39924520    005800310000003100000520000000NN  NNW 000                       N    
RDG06367000WATRL000000004K00000000000000000000000000000000000 000000000000N         000000400  10000000010000002811           
CUS0636700000106283905005         FOUNTAIN, TASHA L.  3817 RAVENWOOD AVE                      000N        CARE OF             
MTR06367000001000000000000000RA              38782189    005800320000003200000520000003NN  NNW 000                       N    
RDG06367000WATRL000000004K00000000000000000000000000000000000 000000000000N         000000400  10000000010000001659           
CUS0636700000106283906003         SAMUELS, VIVIAN J   3815 RAVENWOOD AVE                      000N        CARE OF             
MTR06367000001000000000000000RA              00126200    005800330000003300000570000003NN  NNW 000                       N    
RDG06367000WATRL000000004K00000000000000000000000000000000000 000000000000N         000000400  10000000010000001497           
CUS0636700000106283907001         JAMES LAMAR PETTYJOH3813 RAVENWOOD AVE                      000N        CARE OF             
MTR06367000001000000000000000RA              45379394    005800340000003400000520000000NN  NNW 000                       N    
RDG06367000WATRL000000004K00000000000000000000000000000000000 000000000000N         000000400  10000000010000001426           
CUS0636700000106283908009         JUANITA ELLIOTT     3811 RAVENWOOD AVE                      000N        CARE OF             
MTR06367000001000000000000000RA              00126197    005800350000003500000570000003NN  NNW 000                       N    
RDG06367000WATRL000000004K00000000000000000000000000000000000 000000000000N         000000400  10000000010000000819           
CUS0636700000106283909007         SUMMERVILLE, NIYA DE3809 RAVENWOOD AVE                      000N        CARE OF             
MTR06367000001000000000000000RA              52769410    005800360000003600000520000003NN  NNW 000                       N    
RDG06367000WATRL000000004K00000000000000000000000000000000000 000000000000N         000000400  10000000010000001582           
CUS0636700000106283910005         FEDERAL NATIONAL MOR3807 RAVENWOOD AVE                      000N        CARE OF             
MTR06367000001000000000000000RA              32770056    005800370000003700000520000003NN  NNW 000                       N    
RDG06367000WATRL000000004K00000000000000000000000000000000000 000000000000N         000000400  10000000010000003472           
CUS0636700000106283911003         KPADUWA C, T ADETOKU3805 RAVENWOOD AVE                      000N        CARE OF             
MTR06367000001000000000000000RA              39585558    005800380000003800000520000000NN  NNW 000                       N    
RDG06367000WATRL000000004K00000000000000000000000000000000000 000000000000N         000000400  10000000010000001205           
CUS0636700000106283912001         SANDRA ANN KIRBY-ROW3803 RAVENWOOD AVE                      000N        CARE OF             
MTR06367000001000000000000000RA              10003560    005800390000003900000570000003NN  NNW 000                       N    
RDG06367000WATRL000000004K00000000000000000000000000000000000 000000000000N         000000400  10000000010000000528           
CUS0636700000106283913009         LUCAS, BEVERLY A    3801 RAVENWOOD AVE                      000N        CARE OF             
MTR06367000001000000000000000RA              99290120    005800400000004000000570000000NN  NNW 000                       N    
RDG06367000WATRL000000004K00000000000000000000000000000000000 000000000000N         000000400  10000000010000001242           
CUS0636700000106283914007         MURPHY, KIMBERLY N  3781 RAVENWOOD AVE                      000N        CARE OF             
MTR06367000001000000000000000RA              99188902    005800410000004100000570000003NN  NNW 000                       N    
RDG06367000WATRL000000004K00000000000000000000000000000000000 000000000000N         000000400  10000000010000000947           
CUS0636700000106283915004         BERNARD, ISIS M     3779 RAVENWOOD AVE                      000N        CARE OF             
MTR06367000001000000000000000RA              99286541    005800420000004200000570000003NN  NNW 000                       N    
RDG06367000WATRL000000004K00000000000000000000000000000000000 000000000000N         000000400  10000000010000000173           
CUS0636700000106283916002         HENDERSON, AISHA A. 3777 RAVENWOOD AVE                      000N        CARE OF             
MTR06367000001000000000000000RA              40322007    005800430000004300000520000003NN  NNW 000                       N    
RDG06367000WATRL000000004K00000000000000000000000000000000000 000000000000N         000000400  10000000010000001970           
CUS0636700000106283917000         PRICE JR, JAMES JESS3775 RAVENWOOD AVE                      000N        CARE OF             
MTR06367000001000000000000000RA              40322005    005800440000004400000520000000NN  NNW 000   VACANT PROPERTY     N    
RDG06367000WATRL000000004K00000000000000000000000000000000000 000000000000N         000000400  10000000010000000495           
CUS0636700000106283918008         CURTIS JOEVON NEAL  3773 RAVENWOOD AVE                      000N        CARE OF             
MTR06367000001000000000000000RA              31587228    005800450000004500000520000003NN  NNW 000                       N    
RDG06367000WATRL000000004K00000000000000000000000000000000000 000000000000N         000000400  10000000010000001922           
CUS0636700000106283919006         MOORE, STEPHANIKE L.3771 RAVENWOOD AVE                      000N        CARE OF             
MTR06367000001000000000000000RA              31587214    005800460000004600000520000003NN  NNW 000                       N    
RDG06367000WATRL000000004K00000000000000000000000000000000000 000000000000N         000000400  10000000010000002723           
CUS0636700000106283920004         BEVERLY A R JAMES   3769 RAVENWOOD AVE                      000N        CARE OF             
MTR06367000001000000000000000RA              29404200    005800470000004700000520000003NN  NNW 000                       N    
RDG06367000WATRL000000004K00000000000000000000000000000000000 000000000000N         000000400  10000000010000002579           
CUS0636700000106283921002         WOOLFORD, ROBIN     3767 RAVENWOOD AVE                      000N        CARE OF             
MTR06367000001000000000000000RA              41074858    005800480000004800000520000003NN  NNW 000                       N    
RDG06367000WATRL000000004K00000000000000000000000000000000000 000000000000N         000000400  10000000010000000950           
CUS0636700000106283922000         BEDOYA, MANUEL A.   3765 RAVENWOOD AVE                      000N        CARE OF             
MTR06367000001000000000000000RA              77989447    005800490000004900000350000003NN  NNW 000                       N    
RDG06367000WATRL000000004K00000000000000000000000000000000000 000000000000N         000000400  10000000010000000066           
CUS0636700000106283923008         GARDNER JR., ROBERT 3763 RAVENWOOD AVE                      000N        CARE OF             
MTR06367000001000000000000000RA              26006337    005800500000005000000520000003NN  NNW 000                       N    
RDG06367000WATRL000000004K00000000000000000000000000000000000 000000000000N         000000400  10000000010000001214           
CUS0636700000106283924006         MURPHY, JULIUS L    3761 RAVENWOOD AVE                      000N        CARE OF             
MTR06367000001000000000000000RA              26011353    005800510000005100000520000003NN  NNW 000                       N    
RDG06367000WATRL000000004K00000000000000000000000000000000000 000000000000N         000000400  10000000010000002016           
CUS0636700000106283925003         POWELL, INEZ B      3759 RAVENWOOD AVE                      000N        CARE OF             
MTR06367000001000000000000000RA              01113871    005800520000005200000610000003NN  NNW 000                       N    
RDG06367000WATRL000000004K00000000000000000000000000000000000 000000000000N         000000400  10000000010000000471           
CUS0636700000106283926001         JOVONNE NORMAN      3757 RAVENWOOD AVE                      000N        CARE OF             
MTR06367000001000000000000000RA              01113887    005800530000005300000610000003NN  NNW 000                       N    
RDG06367000WATRL000000004K00000000000000000000000000000000000 000000000000N         000000400  10000000010000001048           
CUS0636700000106283927009         FENNER III, QUINCY  3755 RAVENWOOD AVE                      000N        CARE OF             
MTR06367000001000000000000000RA              26006300    005800540000005400000520000003NN  NNW 000                       N    
RDG06367000WATRL000000004K00000000000000000000000000000000000 000000000000N         000000400  10000000010000003561           
CUS0636700000106283928007         COLEMAN, RENAE      3753 RAVENWOOD AVE                      000N        CARE OF             
MTR06367000001000000000000000RA              01115872    005800550000005500000610000003NN  NNW 000                       N    
RDG06367000WATRL000000004K00000000000000000000000000000000000 000000000000N         000000400  10000000010000000703           
CUS0636700000106283929005         QUARLES, PAULA      3751 RAVENWOOD AVE                      000N        CARE OF             
MTR06367000001000000000000000RA              31582028    005800560000005600000520000003NN  NNW 000                       N    
RDG06367000WATRL000000004K00000000000000000000000000000000000 000000000000N         000000400  10000000010000002831           
CUS0636700000106283930003         COLLINS, JUNETTE DIA3749 RAVENWOOD AVE                      000N        CARE OF             
MTR06367000001000000000000000RA              24759584    005800570000005700000520000003NN  NNW 000                       N    
RDG06367000WATRL000000004K00000000000000000000000000000000000 000000000000N         000000400  10000000010000002199           
CUS0636700000106283931001         BUTLER, TERRY       3747 RAVENWOOD AVE                      000N        CARE OF             
MTR06367000001000000000000000RA              35111680    005800580000005800000520000003NN  NNW 000                       N    
RDG06367000WATRL000000004K00000000000000000000000000000000000 000000000000N         000000400  10000000010000001585           
CUS0636700000106283932009         STIFF, PAULETTE     3745 RAVENWOOD AVE                      000N        CARE OF             
MTR06367000001000000000000000RA              45377785    005800590000005900000520000003NN  NNW 000                       N    
RDG06367000WATRL000000004K00000000000000000000000000000000000 000000000000N         000000400  10000000010000002299           
CUS0636700000106283933007         BRYANT, PATRICIA A  3743 RAVENWOOD AVE                      000N        CARE OF             
MTR06367000001000000000000000RA              31581119    005800600000006000000520000003NN  NNW 000                       N    
RDG06367000WATRL000000004K00000000000000000000000000000000000 000000000000N         000000400  10000000010000002730           
CUS0636700000106283934005         AUSTIN, HELEN T     3741 RAVENWOOD AVE                      000N        CARE OF             
MTR06367000001000000000000000RA              01090762    005800610000006100000610000003NN  NNW 000                       N    
RDG06367000WATRL000000004K00000000000000000000000000000000000 000000000000N         000000400  10000000010000000973           
CUS0636700000106283935002         DOBRZYKOWSKI, SUSAN 3739 RAVENWOOD AVE                      000N        CARE OF             
MTR06367000001000000000000000RA              24220904    005800620000006200000520000003NN  NNW 000                       N    
RDG06367000WATRL000000004K00000000000000000000000000000000000 000000000000N         000000400  10000000010000002902           
CUS0636700000106283936000         RODNEY W WILLIAMS SR3737 RAVENWOOD AVE                      000N        CARE OF             
MTR06367000001000000000000000RA              24233565    005800630000006300000520000003NN  NNW 000   VACANT PROPERTY     N    
RDG06367000WATRL000000004K00000000000000000000000000000000000 000000000000N         000000400  10000000010000004146           
CUS0636700000106283937008         ANDERSON, LAVONA L. 3735 RAVENWOOD AVE                      000N        CARE OF             
MTR06367000001000000000000000RA              36696707    005800640000006400000520000003NN  NNW 000                       N    
RDG06367000WATRL000000004K00000000000000000000000000000000000 000000000000N         000000400  10000000010000002520           
CUS0636700000106283938006         PARAMESWARAN, SIVA/M3733 RAVENWOOD AVE                      000N        CARE OF             
MTR06367000001000000000000000RA              24227485    005800650000006500000520000003NN  NNW 000                       N    
RDG06367000WATRL000000004K00000000000000000000000000000000000 000000000000N         000000400  10000000010000003860           
CUS0636700000106283939004         TERESA M MCDONNELL  3731 RAVENWOOD AVE                      000N        CARE OF             
MTR06367000001000000000000000RA              99293721    005800660000006600000570000003NN  NNW 000                       N    
RDG06367000WATRL000000004K00000000000000000000000000000000000 000000000000N         000000400  10000000010000000580           
CUS0636700000106283940002         JACKSON, ALMA L     3729 RAVENWOOD AVE                      000N        CARE OF             
MTR06367000001000000000000000RA              39923695    005800670000006700000520000003NN  NNW 000                       N    
RDG06367000WATRL000000004K00000000000000000000000000000000000 000000000000N         000000400  10000000010000001910           
CUS0636700000106283941000         JOHNSON, LORRAINE M 3727 RAVENWOOD AVE                      000N        CARE OF             
MTR06367000001000000000000000RA              75617242    005800680000006800000350000003NN  NNW 000                       N    
RDG06367000WATRL000000004K00000000000000000000000000000000000 000000000000N         000000400  10000000010000000081           
CUS0636700000106283942008         TYSON, TYLER J.     3725 RAVENWOOD AVE                      000N        CARE OF             
MTR06367000001000000000000000RA              33735375    005800690000006900000520000003NN  NNW 000                       N    
RDG06367000WATRL000000004K00000000000000000000000000000000000 000000000000N         000000400  10000000010000005684           
CUS0636700000106283943006         MILLER, PATRICIA A. 3723 RAVENWOOD AVE                      000N        CARE OF             
MTR06367000001000000000000000RA              33735372    005800700000007000000520000003NN  NNW 000                       N    
RDG06367000WATRL000000004K00000000000000000000000000000000000 000000000000N         000000400  10000000010000001432           
CUS0636700000106283944004         EQUINE BAY LLC      3721 RAVENWOOD AVE                      000N        CARE OF             
MTR06367000001000000000000000RA              24232908    005800710000007100000520000003NN  NNW 000                       N    
RDG06367000WATRL000000004K00000000000000000000000000000000000 000000000000N         000000400  10000000010000003301           
CUS0636700000106283945001         JOHNSON, CHRYSTAL   3719 RAVENWOOD AVE                      000N        CARE OF             
MTR06367000001000000000000000RA              24232911    005800720000007200000520000003NN  NNW 000                       N    
RDG06367000WATRL000000004K00000000000000000000000000000000000 000000000000N         000000400  10000000010000002255           
CUS0636700000106283946009         OWENS, ALICIA       3717 RAVENWOOD AVE                      000N        CARE OF             
MTR06367000001000000000000000RA              75424128    005800730000007300000350000003NN  NNW 000                       N    
RDG06367000WATRL000000004K00000000000000000000000000000000000 000000000000N         000000400  10000000010000001026           
CUS0636700000106283947007         GLENN, CURTIS R     3715 RAVENWOOD AVE                      000N        CARE OF             
MTR06367000001000000000000000RA              00126338    005800740000007400000570000003NN  NNW 000                       N    
RDG06367000WATRL000000004K00000000000000000000000000000000000 000000000000N         000000400  10000000010000001311           
CUS0636700000106283948005         CAMPITELLI MASONRY I3713 RAVENWOOD AVE                      000N        CARE OF             
MTR06367000001000000000000000RA              39923630    005800750000007500000520000003NN  NNW 000                       N    
RDG06367000WATRL000000004K00000000000000000000000000000000000 000000000000N         000000400  10000000010000005321           
CUS0636700000106283949003         JEFFERS, SHEREE A   3711 RAVENWOOD AVE                      000N        CARE OF             
MTR06367000001000000000000000RA              39923622    005800760000007600000520000003NN  NNW 000                       N    
RDG06367000WATRL000000004K00000000000000000000000000000000000 000000000000N         000000400  10000000010000001264           
CUS0636700000106283950001         STEVENSON, BRYANDA D3709 RAVENWOOD AVE                      000N        CARE OF             
MTR06367000001000000000000000RA              01107449    005800770000007700000610000003NN  NNW 000                       N    
RDG06367000WATRL000000004K00000000000000000000000000000000000 000000000000N         000000400  10000000010000001494           
CUS0636700000106283951009         CARTER, TANIA       3707 RAVENWOOD AVE                      000N        CARE OF             
MTR06367000001000000000000000RA              46876459    005800780000007800000520000003NN  NNW 000                       N    
RDG06367000WATRL000000004K00000000000000000000000000000000000 000000000000N         000000400  10000000010000002384           
CUS0636700000106283952007         REGISTER, ROBERT/HIL3705 RAVENWOOD AVE                      000N        CARE OF             
MTR06367000001000000000000000RA              14911227    005800790000007900000310000003NN  NNW 000                       N    
RDG06367000WATRL000000004K00000000000000000000000000000000000 000000000000N         000000400  10000000010000000289           
CUS0636700000106283953005         CRUDUP, DION A.     3703 RAVENWOOD AVE                      000N        CARE OF             
MTR06367000001000000000000000RA              76346956    005800800000008000000350000003NN  NNW 000                       N    
RDG06367000WATRL000000004K00000000000000000000000000000000000 000000000000N         000000400  10000000010000000019           
CUS0636700000106283954003         MOYD, RUTH M.       3701 RAVENWOOD AVE                      000N        CARE OF             
MTR06367000001000000000000000RA              00126199    005800810000008100000570000003NN  NNW 000                       N    
RDG06367000WATRL000000004K00000000000000000000000000000000000 000000000000N         000000400  10000000010000001807           
CUS0636700000106283955000         ROBERSON, CYNTHIA A 3629 RAVENWOOD AVE                      000N        CARE OF             
MTR06367000001000000000000000RA              38887389    005800820000008200000520000003NN  NNW 000                       N    
RDG06367000WATRL000000004K00000000000000000000000000000000000 000000000000N         000000400  10000000010000002398           
CUS0636700000106283956008         STEVENSON, RON J.   3627 RAVENWOOD AVE                      000N        CARE OF             
MTR06367000001000000000000000RA              30523018    005800830000008300000520000003NN  NNW 000                       N    
RDG06367000WATRL000000004K00000000000000000000000000000000000 000000000000N         000000400  10000000010000003114           
CUS0636700000106283957006         BERNADETTE M WILLIAM3625 RAVENWOOD AVE                      000N        CARE OF             
MTR06367000001000000000000000RA              39925777    005800840000008400000520000003NN  NNW 000                       N    
RDG06367000WATRL000000004K00000000000000000000000000000000000 000000000000N         000000400  10000000010000002275           
CUS0636700000106283958004         BROWN, NIKKEA N     3623 RAVENWOOD AVE                      000N        CARE OF             
MTR06367000001000000000000000RA              33082662    005800850000008500000520000003NN  NNW 000                       N    
RDG06367000WATRL000000004K00000000000000000000000000000000000 000000000000N         000000400  10000000010000002935           
CUS0636700000106283959002         WATERS, VERA C      3621 RAVENWOOD AVE                      000N        CARE OF             
MTR06367000001000000000000000RA              24231071    005800860000008600000520000003NN  NNW 000   VACANT PROPERTY     N    
RDG06367000WATRL000000004K00000000000000000000000000000000000 000000000000N         000000400  10000000010000003152           
CUS0636700000106283960000         WARD, MELISSA M     3619 RAVENWOOD AVE                      000N        CARE OF             
MTR06367000001000000000000000RA              29404167    005800870000008700000520000003NN  NNW 000                       N    
RDG06367000WATRL000000004K00000000000000000000000000000000000 000000000000N         000000400  10000000010000001165           
CUS0636700000106283961008         PAM33, LLC          3617 RAVENWOOD AVE                      000N        CARE OF             
MTR06367000001000000000000000RA              24231305    005800880000008800000520000003NN  NNW 000                       N    
RDG06367000WATRL000000004K00000000000000000000000000000000000 000000000000N         000000400  10000000010000004028           
CUS0636700000106283962006         BARNES, CYNTHIA A   3615 RAVENWOOD AVE                      000N        CARE OF             
MTR06367000001000000000000000RA              45378780    005800890000008900000520000003NN  NNW 000                       N    
RDG06367000WATRL000000004K00000000000000000000000000000000000 000000000000N         000000400  10000000010000001731           
CUS0636700000106283963004         JAMES, CARL         3613 RAVENWOOD AVE                      000N        CARE OF             
MTR06367000001000000000000000RA              44087362    005800900000009000000520000000NN  NNW 000                       N    
RDG06367000WATRL000000004K00000000000000000000000000000000000 000000000000N         000000400  10000000010000002043           
CUS0636700000106283964002         PREMIER PPTY MGMT LL3611 RAVENWOOD AVE                      000N        CARE OF             
MTR06367000001000000000000000RA              01090796    005800910000009100000610000003NN  NNW 000                       N    
RDG06367000WATRL000000004K00000000000000000000000000000000000 000000000000N         000000400  10000000010000002073           
CUS0636700000106283965009         CLINTON ADAMS       3609 RAVENWOOD AVE                      000N        CARE OF             
MTR06367000001000000000000000RA              01090584    005800920000009200000610000003NN  NNW 000                       N    
RDG06367000WATRL000000004K00000000000000000000000000000000000 000000000000N         000000400  10000000010000001829           
CUS0636700000106283966007         THOMAS, LARRY R.    3607 RAVENWOOD AVE                      000N        CARE OF             
MTR06367000001000000000000000RA              10020075    005800930000009300000570000003NN  NNW 000                       N    
RDG06367000WATRL000000004K00000000000000000000000000000000000 000000000000N         000000400  10000000010000000304           
CUS0636700000106283967005         ROBERTSON SR, DUANE 3605 RAVENWOOD AVE                      000N        CARE OF             
MTR06367000001000000000000000RA              01107448    005800940000009400000610000003NN  NNW 000                       N    
RDG06367000WATRL000000004K00000000000000000000000000000000000 000000000000N         000000400  10000000010000002446           
CUS0636700000106283968003         PNAIC VENTURE LLC   3603 RAVENWOOD AVE                      000N        CARE OF             
MTR06367000001000000000000000RA              00126101    005800950000009500000570000003NN  NNW 000                       N    
RDG06367000WATRL000000004K00000000000000000000000000000000000 000000000000N         000000400  10000000010000001294           
CUS0636700000106283969001         TAMBIKA INVESTMENTS 3601 RAVENWOOD AVE                      000N        CARE OF             
MTR06367000001000000000000000RA              00126219    005800960000009600000570000003NN  NNW 000                       N    
RDG06367000WATRL000000004K00000000000000000000000000000000000 000000000000N         000000400  10000000010000001628           
CUS0636700000106283970009         JOHNSON, RODNEY R.  3900 ERDMAN AVE                         000N        CARE OF             
MTR06367000001000000000000000RA              35118613    005800970000009700000520000003NN  NNW 000                       N    
RDG06367000WATRL000000004K00000000000000000000000000000000000 000000000000N         000000400  10000000010000004429           
CUS0636700000106283971007         AFRAMIAN, SHANA     3902 ERDMAN AVE                         000N        CARE OF             
MTR06367000001000000000000000RA              26003472    005800980000009800000520000003NN  NNW 000                       N    
RDG06367000WATRL000000004K00000000000000000000000000000000000 000000000000N         000000400  10000000010000005287           
CUS0636700000106283972005         TRANSITION PROPERTY 3904 ERDMAN AVE                         000N        CARE OF             
MTR06367000001000000000000000RA              26003263    005800990000009900000520000003NN  NNW 000                       N    
RDG06367000WATRL000000004K00000000000000000000000000000000000 000000000000N         000000400  10000000010000004867           
CUS0636700000106283973003         KEHINDE, JACQUELINE 3906 ERDMAN AVE                         000N        CARE OF             
MTR06367000001000000000000000RA              23059762    005801000000010000000520000003NN  NNW 000                       N    
RDG06367000WATRL000000004K00000000000000000000000000000000000 000000000000N         000000400  10000000010000005274           
CUS0636700000106283974001         PREMIER PPTY MGMT LL3908 ERDMAN AVE                         000N        CARE OF             
MTR06367000001000000000000000RA              10016052    005801010000010100000570000003NN  NNW 000                       N    
RDG06367000WATRL000000004K00000000000000000000000000000000000 000000000000N         000000400  10000000010000000237           
CUS0636700000106283975008         BALT-PARK, LLC      3910 ERDMAN AVE                         000N        CARE OF             
MTR06367000001000000000000000RA              29684903    005801020000010200000520000003NN  NNW 000                       N    
RDG06367000WATRL000000004K00000000000000000000000000000000000 000000000000N         000000400  10000000010000003495           
CUS0636700000106283976006         SINGH, ORAL         3912 ERDMAN AVE                         000N        CARE OF             
MTR06367000001000000000000000RA              29684900    005801030000010300000520000003NN  NNW 000                       N    
RDG06367000WATRL000000004K00000000000000000000000000000000000 000000000000N         000000400  10000000010000004645           
CUS0636700000106283977004         HILTON PROPERTIES, L3914 ERDMAN AVE                         000N        CARE OF             
MTR06367000001000000000000000RA              27813646    005801040000010400000520000003NN  NNW 000                       N    
RDG06367000WATRL000000004K00000000000000000000000000000000000 000000000000N         000000400  10000000010000002281           
CUS0636700000106283978002         FLORINE B BRICKERS  3916 ERDMAN AVE                         000N        CARE OF             
MTR06367000001000000000000000RA              74688411    005801050000010500000350000003NN  NNW 000                       N    
RDG06367000WATRL000000004K00000000000000000000000000000000000 000000000000N         000000400  10000000010000000320           
CUS0636700000106283979000         BELL, STACEY M.     3600 BONVIEW AVE                        000N        CARE OF             
MTR06367000001000000000000000RA              31587058    005801060000010600000520000003NN  NNW 000                       N    
RDG06367000WATRL000000004K00000000000000000000000000000000000 000000000000N         000000400  10000000010000004542           
CUS0636700000106283980008         COSME, PATRICE E    3602 BONVIEW AVE                        000N        CARE OF             
MTR06367000001000000000000000RA              39585674    005801070000010700000520000003NN  NNW 000                       N    
RDG06367000WATRL000000004K00000000000000000000000000000000000 000000000000N         000000400  10000000010000001513           
CUS0636700000106283981006         WILLIAMS, FRANKIE   3604 BONVIEW AVE                        000N        CARE OF             
MTR06367000001000000000000000RA              39585733    005801080000010800000520000003NN  NNW 000                       N    
RDG06367000WATRL000000004K00000000000000000000000000000000000 000000000000N         000000400  10000000010000003146           
CUS0636700000106283982004         CDJ PROPERTIES, LLC 3606 BONVIEW AVE                        000N        CARE OF             
MTR06367000001000000000000000RA              31587742    005801090000010900000520000003NN  NNW 000                       N    
RDG06367000WATRL000000004K00000000000000000000000000000000000 000000000000N         000000400  10000000010000002679           
CUS0636700000106283983002         SANDRA L FISHMAN    3608 BONVIEW AVE                        000N        CARE OF             
MTR06367000001000000000000000RA              31587772    005801100000011000000520000003NN  NNW 000                       N    
RDG06367000WATRL000000004K00000000000000000000000000000000000 000000000000N         000000400  10000000010000005448           
CUS0636700000106283984000         CARL E SWENSON & WF 3610 BONVIEW AVE                        000N        CARE OF             
MTR06367000001000000000000000RA              45380911    005801110000011100000520000003NN  NNW 000                       N    
RDG06367000WATRL000000004K00000000000000000000000000000000000 000000000000N         000000400  10000000010000000270           
CUS0636700000106283985007         CAMPION KOENIG LLC  3612 BONVIEW AVE                        000N        CARE OF             
MTR06367000001000000000000000RA              45380910    005801120000011200000520000003NN  NNW 000                       N    
RDG06367000WATRL000000004K00000000000000000000000000000000000 000000000000N         000000400  10000000010000002191           
CUS0636700000106283986005         ADUBI, AKINSANYA    3614 BONVIEW AVE                        000N        CARE OF             
MTR06367000001000000000000000RA              54348256    005801130000011300000520000003NN  NNW 000                       N    
RDG06367000WATRL000000004K00000000000000000000000000000000000 000000000000N         000000400  10000000010000001210           
CUS0636700000106283987003         VALUE FORMS         3616 BONVIEW AVE                        000N        CARE OF             
MTR06367000001000000000000000RA              29084612    005801140000011400000520000003NN  NNW 000                       N    
RDG06367000WATRL000000004K00000000000000000000000000000000000 000000000000N         000000400  10000000010000004405           
CUS0636700000106283988001         DLE PROPERTIES LLC  3618 BONVIEW AVE                        000N        CARE OF             
MTR06367000001000000000000000RA              31586148    005801150000011500000520000003NN  NNW 000                       N    
RDG06367000WATRL000000004K00000000000000000000000000000000000 000000000000N         000000400  10000000010000003188           
CUS0636700000106283989009         JOYNER, MELONIE     3620 BONVIEW AVE                        000N        CARE OF             
MTR06367000001000000000000000RA              75615754    005801160000011600000350000003NN  NNW 000                       N    
RDG06367000WATRL000000004K00000000000000000000000000000000000 000000000000N         000000400  10000000010000000146           
CUS0636700000106283990007         RUBY PROPERTIES, LLC3622 BONVIEW AVE                        000N        CARE OF             
MTR06367000001000000000000000RA              31586558    005801170000011700000520000003NN  NNW 000                       N    
RDG06367000WATRL000000004K00000000000000000000000000000000000 000000000000N         000000400  10000000010000004845           
CUS0636700000106283991005         BRYBNT, LLC         3624 BONVIEW AVE                        000N        CARE OF             
MTR06367000001000000000000000RA              01090298    005801180000011800000610000003NN  NNW 000                       N    
RDG06367000WATRL000000004K00000000000000000000000000000000000 000000000000N         000000400  10000000010000001700           
CUS0636700000106283992003         WILLIAMS, LATANYA E.3700 BONVIEW AVE                        000N        CARE OF             
MTR06367000001000000000000000RA              45382962    005801190000011900000520000003NN  NNW 000                       N    
RDG06367000WATRL000000004K00000000000000000000000000000000000 000000000000N         000000400  10000000010000001232           
CUS0636700000106283993001         HARRIS, RYAN        3702 BONVIEW AVE                        000N        CARE OF             
MTR06367000001000000000000000RA              99293179    005801200000012000000570000003NN  NNW 000                       N    
RDG06367000WATRL000000004K00000000000000000000000000000000000 000000000000N         000000400  10000000010000001131           
CUS0636700000106283994009         PITT, TROY LEE      3704 BONVIEW AVE                        000N        CARE OF             
MTR06367000001000000000000000RA              46881334    005801210000012100000520000003NN  NNW 000                       N    
RDG06367000WATRL000000004K00000000000000000000000000000000000 000000000000N         000000400  10000000010000001114           
CUS0636700000106283995006         ANTONIO PAOLINI     3706 BONVIEW AVE                        000N        CARE OF             
MTR06367000001000000000000000RA              00126215    005801220000012200000570000003NN  NNW 000                       N    
RDG06367000WATRL000000004K00000000000000000000000000000000000 000000000000N         000000400  10000000010000000236           
CUS0636700000106283996004         BATTS, JAMES D      3708 BONVIEW AVE                        000N        CARE OF             
MTR06367000001000000000000000RA              36687425    005801230000012300000520000003NN  NNW 000                       N    
RDG06367000WATRL000000004K00000000000000000000000000000000000 000000000000N         000000400  10000000010000003191           
CUS0636700000106283997002         HARRIS, DOROTHY     3710 BONVIEW AVE                        000N        CARE OF             
MTR06367000001000000000000000RA              36687424    005801240000012400000520000003NN  NNW 000                       N    
RDG06367000WATRL000000004K00000000000000000000000000000000000 000000000000N         000000400  10000000010000002113           
CUS0636700000106283998000         SMITH, TOWANDA M    3712 BONVIEW AVE                        000N        CARE OF             
MTR06367000001000000000000000RA              00126813    005801250000012500000570000003NN  NNW 000                       N    
RDG06367000WATRL000000004K00000000000000000000000000000000000 000000000000N         000000400  10000000010000001965           
CUS0636700000106283999008         HALL, DOROTHY M     3714 BONVIEW AVE                        000N        CARE OF             
MTR06367000001000000000000000RA              00126816    005801260000012600000570000003NN  NNW 000                       N    
RDG06367000WATRL000000004K00000000000000000000000000000000000 000000000000N         000000400  10000000010000002767           
CUS0636700000106284000004         DISNEY, DOROTHY EVEL3716 BONVIEW AVE                        000N        CARE OF             
MTR06367000001000000000000000RA              14911329    005801270000012700000310000003NN  NNW 000                       N    
RDG06367000WATRL000000004K00000000000000000000000000000000000 000000000000N         000000400  10000000010000000389           
CUS0636700000106284001002         PHILLIPS, THOMAS    3718 BONVIEW AVE                        000N        CARE OF             
MTR06367000001000000000000000RA              14910556    005801280000012800000310000003NN  NNW 000                       N    
RDG06367000WATRL000000004K00000000000000000000000000000000000 000000000000N         000000400  10000000010000000323           
CUS0636700000106284002000         WISE, LYNITA M      3720 BONVIEW AVE                        000N        CARE OF             
MTR06367000001000000000000000RA              32900218    005801290000012900000520000003NN  NNW 000                       N    
RDG06367000WATRL000000004K00000000000000000000000000000000000 000000000000N         000000400  10000000010000004359           
CUS0636700000106284003008         UNITED STATES SECRET3722 BONVIEW AVE                        000N        CARE OF             
MTR06367000001000000000000000RA              24763899    005801300000013000000520000003NN  NNW 000                       N    
RDG06367000WATRL000000004K00000000000000000000000000000000000 000000000000N         000000400  10000000010000003232           
CUS0636700000106284004006         JOHNSON, DEBORAH A  3724 BONVIEW AVE                        000N        CARE OF             
MTR06367000001000000000000000RA              45386181    005801310000013100000520000003NN  NNW 000                       N    
RDG06367000WATRL000000004K00000000000000000000000000000000000 000000000000N         000000400  10000000010000002000           
CUS0636700000106284005003         LOVETT, ROBERT L.   3726 BONVIEW AVE                        000N        CARE OF             
MTR06367000001000000000000000RA              48591116    005801320000013200000520000003NN  NNW 000                       N    
RDG06367000WATRL000000004K00000000000000000000000000000000000 000000000000N         000000400  10000000010000000952           
CUS0636700000106284006001         MINTER, SANDRA M.   3728 BONVIEW AVE                        000N        CARE OF             
MTR06367000001000000000000000RA              01090287    005801330000013300000610000003NN  NNW 000                       N    
RDG06367000WATRL000000004K00000000000000000000000000000000000 000000000000N         000000400  10000000010000000658           
CUS0636700000106284007009         JONES, BARRE G      3730 BONVIEW AVE                        000N        CARE OF             
MTR06367000001000000000000000RA              01107447    005801340000013400000610000003NN  NNW 000                       N    
RDG06367000WATRL000000004K00000000000000000000000000000000000 000000000000N         000000400  10000000010000001375           
CUS0636700000106284008007         LEWIS E CHASE       3732 BONVIEW AVE                        000N        CARE OF             
MTR06367000001000000000000000RA              01107452    005801350000013500000610000003NN  NNW 000                       N    
RDG06367000WATRL000000004K00000000000000000000000000000000000 000000000000N         000000400  10000000010000000913           
CUS0636700000106284009005         BRISCOE, KRYSTAL ANN3734 BONVIEW AVE                        000N        CARE OF             
MTR06367000001000000000000000RA              00126819    005801360000013600000570000003NN  NNW 000                       N    
RDG06367000WATRL000000004K00000000000000000000000000000000000 000000000000N         000000400  10000000010000001784           
CUS0636700000106284010003         THROWER SR., JAMES  3736 BONVIEW AVE                        000N        CARE OF             
MTR06367000001000000000000000RA              00126824    005801370000013700000570000003NN  NNW 000                       N    
RDG06367000WATRL000000004K00000000000000000000000000000000000 000000000000N         000000400  10000000010000000770           
CUS0636700000106284011001         STATON, LONNIE      3738 BONVIEW AVE                        000N        CARE OF             
MTR06367000001000000000000000RA              99288666    005801380000013800000570000003NN  NNW 000                       N    
RDG06367000WATRL000000004K00000000000000000000000000000000000 000000000000N         000000400  10000000010000000807           
CUS0636700000106284012009         JONES, RICHARD L    3740 BONVIEW AVE                        000N        CARE OF             
MTR06367000001000000000000000RA              99288498    005801390000013900000570000003NN  NNW 000                       N    
RDG06367000WATRL000000004K00000000000000000000000000000000000 000000000000N         000000400  10000000010000003041           
CUS0636700000106284013007         THOMAS, EULLA J(ETAL3742 BONVIEW AVE                        000N        CARE OF             
MTR06367000001000000000000000RA              45378143    005801400000014000000520000003NN  NNW 000                       N    
RDG06367000WATRL000000004K00000000000000000000000000000000000 000000000000N         000000400  10000000010000002602           
CUS0636700000106284014005         STANLEY, KEITH B.   3744 BONVIEW AVE                        000N        CARE OF             
MTR06367000001000000000000000RA              45378144    005801410000014100000520000003NN  NNW 000                       N    
RDG06367000WATRL000000004K00000000000000000000000000000000000 000000000000N         000000400  10000000010000002085           
CUS0636700000106284015002         QUICK, MAXINE J     3746 BONVIEW AVE                        000N        CARE OF             
MTR06367000001000000000000000RA              45378147    005801420000014200000520000003NN  NNW 000                       N    
RDG06367000WATRL000000004K00000000000000000000000000000000000 000000000000N         000000400  10000000010000001447           
CUS0636700000106284016000         MCCLINTON, CHANIKA M3748 BONVIEW AVE                        000N        CARE OF             
MTR06367000001000000000000000RA              45378142    005801430000014300000520000003NN  NNW 000                       N    
RDG06367000WATRL000000004K00000000000000000000000000000000000 000000000000N         000000400  10000000010000002885           
CUS0636700000106284017008         DILLARD, DONALD     3750 BONVIEW AVE                        000N        CARE OF             
MTR06367000001000000000000000RA              44090275    005801440000014400000520000003NN  NNW 000                       N    
RDG06367000WATRL000000004K00000000000000000000000000000000000 000000000000N         000000400  10000000010000002044           
CUS0636700000106284018006         LOUISA R GRAY       3752 BONVIEW AVE                        000N        CARE OF             
MTR06367000001000000000000000RA              44090272    005801450000014500000520000003NN  NNW 000                       N    
RDG06367000WATRL000000004K00000000000000000000000000000000000 000000000000N         000000400  10000000010000002175           
CUS0636700000106284019004         CONYERS JR., CHARLES3754 BONVIEW AVE                        000N        CARE OF             
MTR06367000001000000000000000RA              29402845    005801460000014600000520000003NN  NNW 000                       N    
RDG06367000WATRL000000004K00000000000000000000000000000000000 000000000000N         000000400  10000000010000003373           
CUS0636700000106284020002         JONES, JAMES L      3756 BONVIEW AVE                        000N        CARE OF             
MTR06367000001000000000000000RA              79538139    005801470000014700000360000003NN  NNW 000                       N    
RDG06367000WATR 000000004R00000000000000028000012132015180000N0003000000:0N         000000400R 10000000010000000000           
RFF0636700070003041      ERT      0000  956.44375000140000121320151800000000282691100W 1220000N                               
CUS0636700000106284021000         BENTON, YVETTE D    3758 BONVIEW AVE                        000N        CARE OF             
MTR06367000001000000000000000RA              26011508    005801480000014800000520000003NN  NNW 000                       N    
RDG06367000WATRL000000004K00000000000000000000000000000000000 000000000000N         000000400  10000000010000002003           
CUS0636700000106284022008         SAWYER, TUSHINA S   3760 BONVIEW AVE                        000N        CARE OF             
MTR06367000001000000000000000RA              26018472    005801490000014900000520000003NN  NNW 000                       N    
RDG06367000WATRL000000004K00000000000000000000000000000000000 000000000000N         000000400  10000000010000002443           
CUS0636700000106284023006         BURROUGHS, ROXANNE K3762 BONVIEW AVE                        000N        CARE OF             
MTR06367000001000000000000000RA              36697612    005801500000015000000520000003NN  NNW 000                       N    
RDG06367000WATRL000000004K00000000000000000000000000000000000 000000000000N         000000400  10000000010000003193           
CUS0636700000106284024004         BLANTON, CARL D.    3764 BONVIEW AVE                        000N        CARE OF             
MTR06367000001000000000000000RA              36697534    005801510000015100000520000003NN  NNW 000                       N    
RDG06367000WATRL000000004K00000000000000000000000000000000000 000000000000N         000000400  10000000010000001837           
CUS0636700000106284025001         KENNETH KRAUCH      3766 BONVIEW AVE                        000N        CARE OF             
MTR06367000001000000000000000RA              33081660    005801520000015200000520000003NN  NNW 000                       N    
RDG06367000WATRL000000004K00000000000000000000000000000000000 000000000000N         000000400  10000000010000003080           
CUS0636700000106284026009         WRIGHT, PAULETTE    3768 BONVIEW AVE                        000N        CARE OF             
MTR06367000001000000000000000RA              33081657    005801530000015300000520000003NN  NNW 000                       N    
RDG06367000WATRL000000004K00000000000000000000000000000000000 000000000000N         000000400  10000000010000002097           
CUS0636700000106284027007         STANKOWICZ, RICHARD 3770 BONVIEW AVE                        000N        CARE OF             
MTR06367000001000000000000000RA              38983298    005801540000015400000520000003NN  NNW 000                       N    
RDG06367000WATRL000000004K00000000000000000000000000000000000 000000000000N         000000400  10000000010000002898           
CUS0636700000106284028005         CREAMER, CHAD J     3772 BONVIEW AVE                        000N        CARE OF             
MTR06367000001000000000000000RA              40780370    005801550000015500000520000003NN  NNW 000                       N    
RDG06367000WATRL000000004K00000000000000000000000000000000000 000000000000N         000000400  10000000010000001040           
CUS0636700000106284029003         LARRY JACKSON & WF  3774 BONVIEW AVE                        000N        CARE OF             
MTR06367000001000000000000000RA              45378136    005801560000015600000520000003NN  NNW 000                       N    
RDG06367000WATRL000000004K00000000000000000000000000000000000 000000000000N         000000400  10000000010000001628           
CUS0636700000106284030001         LEWIS, JACQUELINE K 3776 BONVIEW AVE                        000N        CARE OF             
MTR06367000001000000000000000RA              45378141    005801570000015700000520000003NN  NNW 000                       N    
RDG06367000WATRL000000004K00000000000000000000000000000000000 000000000000N         000000400  10000000010000000962           
CUS0636700000106284031009         RICHARDSON, REGINA S3778 BONVIEW AVE                        000N        CARE OF             
MTR06367000001000000000000000RA              33735488    005801580000015800000520000003NN  NNW 000                       N    
RDG06367000WATRL000000004K00000000000000000000000000000000000 000000000000N         000000400  10000000010000002175           
CUS0636700000106284032007         GIBSON, ROBIN       3780 BONVIEW AVE                        000N        CARE OF             
MTR06367000001000000000000000RA              33735486    005801590000015900000520000003NN  NNW 000                       N    
RDG06367000WATRL000000004K00000000000000000000000000000000000 000000000000N         000000400  10000000010000002531           
CUS0636700000106284033005         BISSESSAR, ANGELY   3800 BONVIEW AVE                        000N        CARE OF             
MTR06367000001000000000000000RA              10014985    005801600000016000000570000003NN  NNW 000   VACANT PROPERTY     N    
RDG06367000WATRL000000004K00000000000000000000000000000000000 000000000000N         000000400  10000000010000000104           
CUS0636700000106284034003         BROWN, MICHAEL      3802 BONVIEW AVE                        000N        CARE OF             
MTR06367000001000000000000000RA              29402842    005801610000016100000520000003NN  NNW 000                       N    
RDG06367000WATRL000000004K00000000000000000000000000000000000 000000000000N         000000400  10000000010000001092           
CUS0636700000106284035000         LATHAM, PEARLINE M. 3804 BONVIEW AVE                        000N        CARE OF             
MTR06367000001000000000000000RA              01090288    005801620000016200000610000003NN  NNW 000                       N    
RDG06367000WATRL000000004K00000000000000000000000000000000000 000000000000N         000000400  10000000010000001000           
CUS0636700000106284036008         FOWLKES, YVETTE M   3806 BONVIEW AVE                        000N        CARE OF             
MTR06367000001000000000000000RA              10019616    005801630000016300000570000003NN  NNW 000                       N    
RDG06367000WATRL000000004K00000000000000000000000000000000000 000000000000N         000000400  10000000010000000408           
CUS0636700000106284037006         IBITOLA, HERBERT ADE3808 BONVIEW AVE                        000N        CARE OF             
MTR06367000001000000000000000RA              10020986    005801640000016400000570000003NN  NNW 000                       N    
RDG06367000WATRL000000004K00000000000000000000000000000000000 000000000000N         000000400  10000000010000000178           
CUS0636700000106284038004         LINDA C DURHAM      3810 BONVIEW AVE                        000N        CARE OF             
MTR06367000001000000000000000RA              35097258    005801650000016500000520000003NN  NNW 000                       N    
RDG06367000WATRL000000004K00000000000000000000000000000000000 000000000000N         000000400  10000000010000002722           
CUS0636700000106284039002         THOMAS, ANGELA      3812 BONVIEW AVE                        000N        CARE OF             
MTR06367000001000000000000000RA              32902352    005801660000016600000520000003NN  NNW 000                       N    
RDG06367000WATRL000000004K00000000000000000000000000000000000 000000000000N         000000400  10000000010000002498           
CUS0636700000106284040000         MENCHACA, FLOR ADRIA3814 BONVIEW AVE                        000N        CARE OF             
MTR06367000001000000000000000RA              79538255    005801670000016700000360000003NN  NNW 000   VACANT PROPERTY     N    
RDG06367000WATR 000000004R00000000000000000000012132015180000N0001000000:0N         000000400R 10000000010000000000           
RFF0636700070003035      ERT      0000  956.44375000140000121320151800000000000020100W 1220000N                               
CUS0636700000106284041008         MELTON, SHAKIRA MCSH3816 BONVIEW AVE                        000N        CARE OF             
MTR06367000001000000000000000RA              79538348    005801680000016800000360000003NN  NNW 000                       N    
RDG06367000WATR 000000004R00000000000000009000012132015180000N0003000000:0N         000000400R 10000000010000000000           
RFF0636700070003455      ERT      0000  956.44375000140000121320151800000000093474100W 1220000N                               
CUS0636700000106284042006         BYRD, TAAVON L      3818 BONVIEW AVE                        000N        CARE OF             
MTR06367000001000000000000000RA              29084576    005801690000016900000520000003NN  NNW 000                       N    
RDG06367000WATRL000000004K00000000000000000000000000000000000 000000000000N         000000400  10000000010000002968           
CUS0636700000106284043004         MORRIS, ALEESHA A.  3820 BONVIEW AVE                        000N        CARE OF             
MTR06367000001000000000000000RA              44178979    005801700000017000000520000003NN  NNW 000                       N    
RDG06367000WATRL000000004K00000000000000000000000000000000000 000000000000N         000000400  10000000010000002496           
CUS0636700000106284044002         JOANN V BAUER       3822 BONVIEW AVE                        000N        CARE OF             
MTR06367000001000000000000000RA              31587770    005801710000017100000520000003NN  NNW 000                       N    
RDG06367000WATRL000000004K00000000000000000000000000000000000 000000000000N         000000400  10000000010000001144           
CUS0636700000106284045009         CASSELL, DONALD R (L3824 BONVIEW AVE                        000N        CARE OF             
MTR06367000001000000000000000RA              31587774    005801720000017200000520000003NN  NNW 000                       N    
RDG06367000WATRL000000004K00000000000000000000000000000000000 000000000000N         000000400  10000000010000001356           
CUS0636700000106284046007         THOMAS, CAROLYN P   3826 BONVIEW AVE                        000N        CARE OF             
MTR06367000001000000000000000RA              79538061    005801730000017300000360000003NN  NNW 000                       N    
RDG06367000WATR 000000004R00000000000000014000012132015180000N0003000000:0N         000000400R 10000000010000000000           
RFF0636700070002460      ERT      0000  956.44375000140000121320151800000000144654100W 1220000N                               
CUS0636700000106284047005         BOONE, HAZEL ROBINSO3828 BONVIEW AVE                        000N        CARE OF             
MTR06367000001000000000000000RA              79538309    005801740000017400000360000003NN  NNW 000                       N    
RDG06367000WATR 000000004R00000000000000038000012132015180000N0003000000:0N         000000400R 10000000010000000000           
RFF0636700070003320      ERT      0000  956.44375000140000121320151800000000386219100W 1220000N                               
CUS0636700000106284048003         ALBERT A PHILLIPS   3830 BONVIEW AVE                        000N        CARE OF             
MTR06367000001000000000000000RA              74691109    005801750000017500000350000003NN  NNW 000                       N    
RDG06367000WATRL000000004K00000000000000000000000000000000000 000000000000N         000000400  10000000010000000000           
CUS0636700000106284049001         BISSESSAR, RAMRAJIE 3832 BONVIEW AVE                        000N        CARE OF             
MTR06367000001000000000000000RA              45386366    005801760000017600000520000003NN  NNW 000                       N    
RDG06367000WATRL000000004K00000000000000000000000000000000000 000000000000N         000000400  10000000010000001752           
CUS0636700000106284050009         PARHAM, RANDY L     3834 BONVIEW AVE                        000N        CARE OF             
MTR06367000001000000000000000RA              24772701    005801770000017700000520000003NN  NNW 000                       N    
RDG06367000WATRL000000004K00000000000000000000000000000000000 000000000000N         000000400  10000000010000001793           
CUS0636700000106284051007         TONKINS, MARCIA     3836 BONVIEW AVE                        000N        CARE OF             
MTR06367000001000000000000000RA              14920394    005801780000017800000310000003NN  NNW 000                       N    
RDG06367000WATRL000000004K00000000000000000000000000000000000 000000000000N         000000400  10000000010000000131           
CUS0636700000106284052005         HAYES, TARA         3838 BONVIEW AVE                        000N        CARE OF             
MTR06367000001000000000000000RA              38984038    005801790000017900000520000003NN  NNW 000                       N    
RDG06367000WATRL000000004K00000000000000000000000000000000000 000000000000N         000000400  10000000010000002275           
CUS0636700000106284053003         CASON, PAMELA L     3840 BONVIEW AVE                        000N        CARE OF             
MTR06367000001000000000000000RA              11429540    005801800000018000000570000003NN  NNW 000                       N    
RDG06367000WATRL000000004K00000000000000000000000000000000000 000000000000N         000000400  10000000010000004188           
RTR06367000NN01750180000001750000000501800180000000NY018001800180017500000000000000000000000002    11232015NY020000           
RHD06343100NN00440182000000440000013801820182000038NY018201820182000000380000000000000000000002    11232015NY020000 N         
CUS0634310000106277418007         THE GARDENVILLAGE   5101 CEDGATE RD                         000N        CARE OF             
MTR06343100001000000000000000RA              79244553    005800010000000100000360000003NN  NNW 000                       N    
RDG06343100WATR 000000004R00000000000000035000012132015180000N000000000000N         000000400R 10000000010000000003           
RFF0634310069343297      ERT      0000  956.44375000140000121320151800000000351264100W 1220000N                               
CUS0634310000106277419005         GARDENVILLAGE REALTY5103 CEDGATE RD                         000N        CARE OF             
MTR06343100001000000000000000RA              79244555    005800020000000200000360000003NN  NNW 000                       N    
RDG06343100WATR 000000004R00000000000000051000012132015180000N000000000000N         000000400R 10000000010000000003           
RFF0634310069343590      ERT      0000  956.44375000140000121320151800000000514034100W 1220000N                               
CUS0634310000106277420003         GARDENVILLAGE REALTY5105 CEDGATE RD                         000N        CARE OF             
MTR06343100001000000000000000RA              79244474    005800030000000300000360000003NN  NNW 000                       N    
RDG06343100WATR 000000004R00000000000000010000012132015180000N000000000000N         000000400R 10000000010000000000           
RFF0634310069343720      ERT      0000  956.44375000140000121320151800000000108860100W 1220000N                               
CUS0634310000106277421001         GARDENVILLAGE REALTY5107 CEDGATE RD                         000N        CARE OF             
MTR06343100001000000000000000RA              79244472    005800040000000400000360000003NN  NNW 000                       N    
RDG06343100WATR 000000004R00000000000000023000012132015180000N000000000000N         000000400R 10000000010000000002           
RFF0634310069343767      ERT      0000  956.44375000140000121320151800000000234722100W 1220000N                               
CUS0634310000106277422009         GARDENVILLAGE REALTY5109 CEDGATE RD                         000N        CARE OF             
MTR06343100001000000000000000RA              79244473    005800050000000500000360000003NN  NNW 000                       N    
RDG06343100WATR 000000004R00000000000000009000012132015180000N000000000000N         000000400R 10000000010000000000           
RFF0634310069343449      ERT      0000  956.44375000140000121320151800000000096433100W 1220000N                               
CUS0634310000106277423007         GARDENVILLAGE REALTY5111 CEDGATE RD                         000N        CARE OF             
MTR06343100001000000000000000RA              79244475    005800060000000600000360000003NN  NNW 000                       N    
RDG06343100WATR 000000004R00000000000000047000012132015180000N000000000000N         000000400R 10000000010000000003           
RFF0634310069343414      ERT      0000  956.44375000140000121320151800000000474088100W 1220000N                               
CUS0634310000106277424005         THE GARDENVILLAGE   5113 CEDGATE RD                         000N        CARE OF             
MTR06343100001000000000000000RA              79244477    005800070000000700000360000003NN  NNW 000                       N    
RDG06343100WATR 000000004R00000000000000010000012132015180000N000000000000N         000000400R 10000000010000000001           
RFF0634310069343456      ERT      0000  956.44375000140000121320151800000000106762100W 1220000N                               
CUS0634310000106277425002         GARDENVILLAGE RLTY C5115 CEDGATE RD                         000N        CARE OF             
MTR06343100001000000000000000RA              79244476    005800080000000800000360000003NN  NNW 000                       N    
RDG06343100WATR 000000004R00000000000000021000012132015180000N000000000000N         000000400R 10000000010000000002           
RFF0634310069343462      ERT      0000  956.44375000140000121320151800000000219058100W 1220000N                               
CUS0634310000106277427008         GARDENVILLAGE REALTY5119 CEDGATE RD                         000N        CARE OF             
MTR06343100001000000000000000RA              79244459    005800090000000900000360000003NN  NNW 000                       N    
RDG06343100WATR 000000004R00000000000000045000012132015180000N000000000000N         000000400R 10000000010000000003           
RFF0634310069342492      ERT      0000  956.44375000140000121320151800000000450715100W 1220000N                               
CUS0634310000106277428006         GARDENVILLAGE REALTY5121 CEDGATE RD                         000N        CARE OF             
MTR06343100001000000000000000RA              79244458    005800100000001000000360000003NN  NNW 000                       N    
RDG06343100WATR 000000004R00000000000000033000012132015180000N000000000000N         000000400R 10000000010000000002           
RFF0634310069342465      ERT      0000  956.44375000140000121320151800000000330320100W 1220000N                               
CUS0634310000106277429004         GARDENVILLAGE RLTY  5123 CEDGATE RD                         000N        CARE OF             
MTR06343100001000000000000000RA              79244455    005800110000001100000360000003NN  NNW 000                       N    
RDG06343100WATRL000000004R00000000000000025000112042015103402N000400000010U41       000000400K 10000000010000000006           
RFF0634310069343875      ERT      0000  956.4437500014000000000000000000                  0003Y                               
CUS0634310000106277430002         GARDEN VILLAGE REALT5125 CEDGATE RD                         000N        CARE OF             
MTR06343100001000000000000000RA              79244456    005800120000001200000360000003NN  NNW 000                       N    
RDG06343100WATR 000000004R00000000000000030000012132015180000N000000000000N         000000400R 10000000010000000001           
RFF0634310069343896      ERT      0000  956.44375000140000121320151800000000305103100W 1220000N                               
CUS0634310000106277431000         THE GARDENVILLAGE   5127 CEDGATE RD                         000N        CARE OF             
MTR06343100001000000000000000RA              79244509    005800130000001300000360000003NN  NNW 000                       N    
RDG06343100WATR 000000004R00000000000000017000012132015180000N000000000000N         000000400R 10000000010000000000           
RFF0634310069342469      ERT      0000  956.44375000140000121320151800000000178390100W 1220000N                               
CUS0634310000106277432008         GARDENVILLAGE REALTY5129 CEDGATE RD                         000N        CARE OF             
MTR06343100001000000000000000RA              79244508    005800140000001400000360000003NN  NNW 000                       N    
RDG06343100WATR 000000004R00000000000000023000012132015180000N000000000000N         000000400R 10000000010000000002           
RFF0634310069342461      ERT      0000  956.44375000140000121320151800000000236449100W 1220000N                               
CUS0634310000106277433006         GARDENVILLAGE REALTY5131 CEDGATE RD                         000N        CARE OF             
MTR06343100001000000000000000RA              79244563    005800150000001500000360000003NN  NNW 000                       N    
RDG06343100WATR 000000004R00000000000000051000012132015180000N000000000000N         000000400R 10000000010000000003           
RFF0634310069343869      ERT      0000  956.44375000140000121320151800000000511579100W 1220000N                               
CUS0634310000106277434004         GARDENVILLAGE REALTY5133 CEDGATE RD                         000N        CARE OF             
MTR06343100001000000000000000RA              79244567    005800160000001600000360000003NN  NNW 000                       N    
RDG06343100WATR 000000004R00000000000000016000012132015180000N000000000000N         000000400R 10000000010000000001           
RFF0634310069344201      ERT      0000  956.44375000140000121320151800000000164767100W 1220000N                               
CUS0634310000106277435001         GARDENVILLAGE REALTY5135 CEDGATE RD                         000N        CARE OF             
MTR06343100001000000000000000RA              79244562    005800170000001700000360000003NN  NNW 000                       N    
RDG06343100WATR 000000004R00000000000000017000012132015180000N000000000000N         000000400R 10000000010000000001           
RFF0634310069343884      ERT      0000  956.44375000140000121320151800000000176828100W 1220000N                               
CUS0634310000106277436009         GARDENVILLAGE REALTY5137 CEDGATE RD                         000N        CARE OF             
MTR06343100001000000000000000RA              79244565    005800180000001800000360000003NN  NNW 000                       N    
RDG06343100WATR 000000004R00000000000000019000012132015180000N000000000000N         000000400R 10000000010000000001           
RFF0634310069344198      ERT      0000  956.44375000140000121320151800000000198843100W 1220000N                               
CUS0634310000106277437007         GARDENVILLAGE REALTY5139 CEDGATE RD                         000N        CARE OF             
MTR06343100001000000000000000RA              79244564    005800190000001900000360000003NN  NNW 000                       N    
RDG06343100WATR 000000004R00000000000000010000012132015180000N000000000000N         000000400R 10000000010000000000           
RFF0634310069343887      ERT      0000  956.44375000140000121320151800000000105211100W 1220000N                               
CUS0634310000106277438005         GARDENVILLAGE REALTY5141 CEDGATE RD                         000N        CARE OF             
MTR06343100001000000000000000RA              79244566    005800200000002000000360000003NN  NNW 000                       N    
RDG06343100WATR 000000004R00000000000000009000012132015180000N000000000000N         000000400R 10000000010000000000           
RFF0634310069343883      ERT      0000  956.44375000140000121320151800000000099039100W 1220000N                               
CUS0634310000106277439003         THE GARDENVILLAGE   5143 CEDGATE RD                         000N        CARE OF             
MTR06343100001000000000000000RA              79244443    005800210000002100000360000003NN  NNW 000                       N    
RDG06343100WATR 000000004R00000000000000007000012132015180000N000000000000N         000000400R 10000000010000000000           
RFF0634310069343509      ERT      0000  956.44375000140000121320151800000000071519100W 1220000N                               
CUS0634310000106277440001         GARDENVILLAGE REALTY5145 CEDGATE RD                         000N        CARE OF             
MTR06343100001000000000000000RA              13292108    005800220000002200000310000003NN  NNW 000                       N    
RDG06343100WATRL000000004K00000000000000000000212042015103459S001000000000U41       000570400K 10000000010000001011           
CUS0634310000106277441009         GARDENVILLAGE REALTY5147 CEDGATE RD                         000N        CARE OF             
MTR06343100001000000000000000RA              79244445    005800230000002300000360000003NN  NNW 000                       N    
RDG06343100WATR 000000004R00000000000000007000012132015180000N000000000000N         000000400R 10000000010000000000           
RFF0634310069343503      ERT      0000  956.44375000140000121320151800000000071438100W 1220000N                               
CUS0634310000106277442007         GARDENVILLAGE REALTY5149 CEDGATE RD                         000N        CARE OF             
MTR06343100001000000000000000RA              79244447    005800240000002400000360000003NN  NNW 000                       N    
RDG06343100WATR 000000004R00000000000000021000012132015180000N000000000000N         000000400R 10000000010000000001           
RFF0634310069343506      ERT      0000  956.44375000140000121320151800000000214758100W 1220000N                               
CUS0634310000106277443005         GARDENVILLAGE REALTY5151 CEDGATE RD                         000N        CARE OF             
MTR06343100001000000000000000RA              79244444    005800250000002500000360000003NN  NNW 000                       N    
RDG06343100WATR 000000004R00000000000000005000012132015180000N000000000000N         000000400R 10000000010000000000           
RFF0634310069343505      ERT      0000  956.44375000140000121320151800000000056224100W 1220000N                               
CUS0634310000106277444003         GARDENVILLAGE REALTY5153 CEDGATE RD                         000N        CARE OF             
MTR06343100001000000000000000RA              79244446    005800260000002600000360000003NN  NNW 000                       N    
RDG06343100WATR 000000004R00000000000000026000012132015180000N000000000000N         000000400R 10000000010000000002           
RFF0634310069343482      ERT      0000  956.44375000140000121320151800000000264943100W 1220000N                               
CUS0634310000106277445000         THE GARDENVILLAGE   5901 ST REGIS RD                        000N        CARE OF             
MTR06343100001000000000000000RA              77987557    005800270000002700000350000003NN  NNW 000                       N    
RDG06343100WATRL000000004K00000000000000010000312042015103707N000000000010U41       001280400K 10000000010000000000           
CUS0634310000106277446008         GARDENVILLAGE REALTY5903 ST REGIS RD                        000N        CARE OF             
MTR06343100001000000000000000RA              13292072    005800280000002800000310000003NN  NNW 000                       N    
RDG06343100WATRL000000004K00000000000000000000412042015103746S001000000000U41       000390400K 10000000010000001499           
CUS0634310000106277447006         GARDENVILLAGE REALTY5905 ST REGIS RD                        000N        CARE OF             
MTR06343100001000000000000000RA              13292071    005800290000002900000310000003NN  NNW 000                       N    
RDG06343100WATRL000000004K00000000000000000000512042015103751S001000000000U41       000050400K 10000000010000000892           
CUS0634310000106277448004         GARDENVILLAGE REALTY5907 ST REGIS RD                        000N        CARE OF             
MTR06343100001000000000000000RA              13293718    005800300000003000000310000003NN  NNW 000                       N    
RDG06343100WATRL000000004K00000000000000000000612042015103803S001000000000U41       000120400K 10000000010000001040           
CUS0634310000106277449002         REGIONAL MGMT INC   5909 ST REGIS RD                        000N        CARE OF             
MTR06343100001000000000000000RA              79263418    005800310000003100000360000003NN  NNW 000                       N    
RDG06343100WATR 000000004R00000000000000050000012132015180000N000000000000N         000000400R 10000000010000000002           
RFF0634310069373962      ERT      0000  956.44375000140000121320151800000000505250100W 1220000N                               
CUS0634310000106277450000         GARDENVILLAGE REALTY5911 ST REGIS RD                        000N        CARE OF             
MTR06343100001000000000000000RA              13292098    005800320000003200000310000003NN  NNW 000                       N    
RDG06343100WATRL000000004K00000000000000000000712042015103806S001000000000U41       000030400K 10000000010000000403           
CUS0634310000106277451008         GARDENVILLAGE REALTY5913 ST REGIS RD                        000N        CARE OF             
MTR06343100001000000000000000RA              79263414    005800330000003300000360000003NN  NNW 000                       N    
RDG06343100WATR 000000004R00000000000000014000012132015180000N000000000000N         000000400R 10000000010000000000           
RFF0634310069373980      ERT      0000  956.44375000140000121320151800000000147049100W 1220000N                               
CUS0634310000106277452006         GARDENVILLAGE REALTY5915 ST REGIS RD                        000N        CARE OF             
MTR06343100001000000000000000RA              13292094    005800340000003400000310000003NN  NNW 000                       N    
RDG06343100WATRL000000004K00000000000000000000812042015103816S001000000000U41       000100400K 10000000010000001132           
CUS0634310000106277453004         GARDENVILLAGE REALTY5917 ST REGIS RD                        000N        CARE OF             
MTR06343100001000000000000000RA              13292096    005800350000003500000310000003NN  NNW 000                       N    
RDG06343100WATRL000000004K00000000000000000000912042015103828S001000000000U41       000120400K 10000000010000001166           
CUS0634310000106277454002         GARDENVILLAGE REALTY5916 ST REGIS RD                        000N        CARE OF             
MTR06343100001000000000000000RA              79263408    005800360000003600000360000003NN  NNW 000                       N    
RDG06343100WATR 000000004R00000000000000039000012132015180000N000000000000N         000000400R 10000000010000000002           
RFF0634310069375089      ERT      0000  956.44375000140000121320151800000000394919100W 1220000N                               
CUS0634310000106277455009         GARDENVILLAGE REALTY5914 ST REGIS RD                        000N        CARE OF             
MTR06343100001000000000000000RA              13293723    005800370000003700000310000003NN  NNW 000                       N    
RDG06343100WATRL000000004K00000000000000000001012042015103844S001000000000U41       000160400K 10000000010000001027           
CUS0634310000106277456007         THE GARDENVILLAGE   5912 ST REGIS RD                        000N        CARE OF             
MTR06343100001000000000000000RA              79263411    005800380000003800000360000003NN  NNW 000                       N    
RDG06343100WATR 000000004R00000000000000023000012132015180000N0003000000:0N         000000400R 10000000010000000000           
RFF0634310069375368      ERT      0001  956.44375000140000121320151800000000230687100W 1220000N                               
CUS0634310000106277457005         GARDENVILLAGE REALTY5910 ST REGIS RD                        000N        CARE OF             
MTR06343100001000000000000000RA              79263410    005800390000003900000360000003NN  NNW 000                       N    
RDG06343100WATR 000000004R00000000000000018000012132015180000N000000000000N         000000400R 10000000010000000001           
RFF0634310069374021      ERT      0000  956.44375000140000121320151800000000189412100W 1220000N                               
CUS0634310000106277458003         GARDENVILLAGE REALTY5908 ST REGIS RD                        000N        CARE OF             
MTR06343100001000000000000000RA              79263363    005800400000004000000360000003NN  NNW 000                       N    
RDG06343100WATR 000000004R00000000000000010000012132015180000N0003000000:0N         000000400R 10000000010000000000           
RFF0634310069374034      ERT      0000  956.44375000140000121320151800000000101355100W 1220000N                               
CUS0634310000106277459001         GARDENVILLAGE REALTY5906 ST REGIS RD                        000N        CARE OF             
MTR06343100001000000000000000RA              79263361    005800410000004100000360000003NN  NNW 000                       N    
RDG06343100WATR 000000004R00000000000000028000012132015180000N000000000000N         000000400R 10000000010000000001           
RFF0634310069374367      ERT      0000  956.44375000140000121320151800000000289656100W 1220000N                               
CUS0634310000106277460009         THE GARDENVILLAGE   5904 ST REGIS RD                        000N        CARE OF             
MTR06343100001000000000000000RA              79263364    005800420000004200000360000003NN  NNW 000                       N    
RDG06343100WATR 000000004R00000000000000024000012132015180000N0003000000:0N         000000400R 10000000010000000000           
RFF0634310069374030      ERT      0001  956.44375000140000121320151800000000249324100W 1220000N                               
CUS0634310000106277461007         GARDENVILLAGE REALTY5902 ST REGIS RD                        000N        CARE OF             
MTR06343100001000000000000000RA              79263360    005800430000004300000360000003NN  NNW 000                       N    
RDG06343100WATR 000000004R00000000000000008000012132015180000N0003000000:0N         000000400R 10000000010000000000           
RFF0634310069374014      ERT      0000  956.44375000140000121320151800000000089929100W 1220000N                               
CUS0634310000106277462005         THE GARDENVILLAGE   5900 ST REGIS RD                        000N        CARE OF             
MTR06343100001000000000000000RA              79263362    005800440000004400000360000003NN  NNW 000                       N    
RDG06343100WATR 000000004R00000000000000020000012132015180000N0003000000:0N         000000400R 10000000010000000000           
RFF0634310069374357      ERT      0000  956.44375000140000121320151800000000205308100W 1220000N                               
CUS0634310000106277464001         BRANCH, LEE         5203 CEDGATE RD                         000N        CARE OF             
MTR06343100001000000000000000RA              79239677    005800450000004500000360000003NN  NNW 000                       N    
RDG06343100WATR 000000004R00000000000000015000012132015180000N000000000000N         000000400R 10000000010000000001           
RFF0634310069268034      ERT      0000  956.44375000140000121320151800000000159238100W 1220000N                               
CUS0634310000106277465008         V. & Y. WHITBY REAL 5205 CEDGATE RD                         000N        CARE OF             
MTR06343100001000000000000000RA              79239675    005800460000004600000360000003NN  NNW 000                       N    
RDG06343100WATR 000000004R00000000000000047001112132015180000N000000000010U41       002740400R 10000000010000000003           
RFF0634310069267186      ERT      0000  956.44375000140000121320151800000000470836100W 1220001N                               
CUS0634310000106277468002         DOUGLASS, STEPHANIE 5211 CEDGATE RD                         000N        CARE OF             
MTR06343100001000000000000000RA              79239676    005800470000004700000360000003NN  NNW 000                       N    
RDG06343100WATR 000000004R00000000000000004000012132015180000N000000000000N         000000400R 10000000010000000000           
RFF0634310069267982      ERT      0000  956.44375000140000121320151800000000047272100W 1220000N                               
CUS0634310000106277469000         BOSTON, TONJUA DENNI5213 CEDGATE RD                         000N        CARE OF             
MTR06343100001000000000000000RA              79239674    005800480000004800000360000003NN  NNW 000                       N    
RDG06343100WATR 000000004R00000000000000034000012132015180000N000000000000N         000000400R 10000000010000000003           
RFF0634310069267201      ERT      0000  956.44375000140000121320151800000000348559100W 1220000N                               
CUS0634310000106277470008         BERNARD T STEPNEY & 5215 CEDGATE RD                         000N        CARE OF             
MTR06343100001000000000000000RA              79239673    005800490000004900000360000003NN  NNW 000                       N    
RDG06343100WATR 000000004R00000000000000025000012132015180000N000000000000N         000000400R 10000000010000000002           
RFF0634310069268000      ERT      0000  956.44375000140000121320151800000000254435100W 1220000N                               
CUS0634310000106277471006         BRUCE, CAROLETTE V  5217 CEDGATE RD                         000N        CARE OF             
MTR06343100001000000000000000RA              79239672    005800500000005000000360000003NN  NNW 000                       N    
RDG06343100WATR 000000004R00000000000000028000012132015180000N000000000000N         000000400R 10000000010000000002           
RFF0634310069267997      ERT      0000  956.44375000140000121320151800000000280625100W 1220000N                               
CUS0634310000106277472004         CATHERINE JOE       5219 CEDGATE RD                         000N        CARE OF             
MTR06343100001000000000000000RA              79244584    005800510000005100000360000003NN  NNW 000                       N    
RDG06343100WATR 000000004R00000000000000015000012132015180000N000000000000N         000000400R 10000000010000000001           
RFF0634310069343658      ERT      0000  956.44375000140000121320151800000000153031100W 1220000N                               
CUS0634310000106277473002         ARMSTEAD, ALICE     5221 CEDGATE RD                         000N        CARE OF             
MTR06343100001000000000000000RA              79244585    005800520000005200000360000003NN  NNW 000                       N    
RDG06343100WATR 000000004R00000000000000013000012132015180000N000000000000N         000000400R 10000000010000000001           
RFF0634310069343640      ERT      0000  956.44375000140000121320151800000000139725100W 1220000N                               
CUS0634310000106277474000         KEITH R HORTON & WF 5223 CEDGATE RD                         000N        CARE OF             
MTR06343100001000000000000000RA              79244580    005800530000005300000360000003NN  NNW 000                       N    
RDG06343100WATR 000000004R00000000000000045000012132015180000N000000000000N         000000400R 10000000010000000003           
RFF0634310069343726      ERT      0000  956.44375000140000121320151800000000455092100W 1220000N                               
CUS0634310000106277475007         ADEKEYE, OLUWATOYIN 5225 CEDGATE RD                         000N        CARE OF             
MTR06343100001000000000000000RA              79244582    005800540000005400000360000003NN  NNW 000                       N    
RDG06343100WATR 000000004R00000000000000025000012132015180000N000000000000N         000000400R 10000000010000000001           
RFF0634310069343690      ERT      0000  956.44375000140000121320151800000000259053100W 1220000N                               
CUS0634310000106277476005         ROGER W NOLAN & WF  5227 CEDGATE RD                         000N        CARE OF             
MTR06343100001000000000000000RA              79239720    005800550000005500000360000003NN  NNW 000                       N    
RDG06343100WATR 000000004R00000000000000005000012132015180000N000000000000N         000000400R 10000000010000000000           
RFF0634310069270106      ERT      0000  956.44375000140000121320151800000000054890100W 1220000N                               
CUS0634310000106277477003         CHARLES RITCHEY     5229 CEDGATE RD                         000N        CARE OF             
MTR06343100001000000000000000RA              79239723    005800560000005600000360000003NN  NNW 000                       N    
RDG06343100WATR 000000004R00000000000000024000012132015180000N000000000000N         000000400R 10000000010000000001           
RFF0634310069270132      ERT      0000  956.44375000140000121320151800000000240485100W 1220000N                               
CUS0634310000106277478001         CURTIS, RONALD W    5231 CEDGATE RD                         000N        CARE OF             
MTR06343100001000000000000000RA              79244583    005800570000005700000360000003NN  NNW 000                       N    
RDG06343100WATR 000000004R00000000000000000000012132015180000N0001000000:0N         000000400R 10000000010000000000           
RFF0634310069343635      ERT      0000  956.44375000140000121320151800000000000020100W 1220000N                               
CUS0634310000106277479009         FRANK D CARR & WF   5233 CEDGATE RD                         000N        CARE OF             
MTR06343100001000000000000000RA              79244581    005800580000005800000360000003NN  NNW 000                       N    
RDG06343100WATR 000000004R00000000000000005000012132015180000N000000000000N         000000400R 10000000010000000000           
RFF0634310069343705      ERT      0000  956.44375000140000121320151800000000059606100W 1220000N                               
CUS0634310000106277480007         FRANKLIN, HERMOINE H5235 CEDGATE RD                         000N        CARE OF             
MTR06343100001000000000000000RA              79239725    005800590000005900000360000003NN  NNW 000                       N    
RDG06343100WATR 000000004R00000000000000006000012132015180000N000000000000N         000000400R 10000000010000000000           
RFF0634310069270156      ERT      0000  956.44375000140000121320151800000000065029100W 1220000N                               
CUS0634310000106277481005         BEASLEY, NOVELLA E  5237 CEDGATE RD                         000N        CARE OF             
MTR06343100001000000000000000RA              79239721    005800600000006000000360000003NN  NNW 000                       N    
RDG06343100WATR 000000004R00000000000000020000012132015180000N000000000000N         000000400R 10000000010000000001           
RFF0634310069270129      ERT      0000  956.44375000140000121320151800000000205458100W 1220000N                               
CUS0634310000106277484009         GEBHARDT, WILLIAM F.5243 CEDGATE RD                         000N        CARE OF             
MTR06343100001000000000000000RA              13293684    005800610000006100000310000003NN  NNW 000                       N    
RDG06343100WATRL000000004K00000000000000000001212042015104452S001000000000U41       000940400K 10000000010000001224           
CUS0634310000106277485006         HYMAN WILLIAMS      5245 CEDGATE RD                         000N        CARE OF             
MTR06343100001000000000000000RA              13293685    005800620000006200000310000003NN  NNW 000                       N    
RDG06343100WATRL000000004K00000000000000000001312042015104500S001000000000U41       000080400K 10000000010000000265           
CUS0634310000106277486004         DAWSON, KENDALL L   5247 CEDGATE RD                         000N        CARE OF             
