FHDNNNN016003378003378003409N                                                                                           011353
RHD06904000NN02010203000002010000000202030203000039NY020302030203000401980000000000000000000002    12142015NY020000 N         
CUS0690400000104080118005         BALTIMORE COUNTY MAR4 EASTERN AVE                           000N        CARE OF             
MTR06904000001000000000000000RA              26010661    005800010000000100000520000003NN  NNW 000   FERRULE APPLIED     N    
RDG06904000WATRL000000004K00000000000000000000112172015090941S002000000000UFC08     000000400K 10000000010000000799           
CUS0690400000104080119003         BALTIMORE COUNTY MD 30 EASTERN BLVD                         000N        CARE OF             
MTR06904000001000000000000000RA              7243140     007500020000000200000320000003NN  NNW 000   FERRULE APPLIED     N    
RDG06904000WATRL000000004K00000000000000000000212172015090943S002000000000UFC08     000020400K 10000000010000000197           
CUS0690400000104080120001         MARKS PAUL F        4 WAGNER AVE                            000N        CARE OF             
MTR06904000001000000000000000RA              01095006    005800030000000300000610000003NN  NNW 000                       N    
RDG06904000WATRL000000004K00000000000000000000312172015091234S001000000000UFC08     001710400K 10000000010000001461           
CUS0690400000104080121009         WALDHAUSER HENRY JOH6 WAGNER AVE                            000N        CARE OF             
MTR06904000001000000000000000RA              14904567    005800040000000400000310000003NN  NNW 000                       N    
RDG06904000WATRL000000004K00000000000000000000412172015091235S001000000000UFC08     000010400K 10000000010000000679           
CUS0690400000104080122007         GLOCK JOHN W,SR     8 WAGNER AVE                            000N        CARE OF             
MTR06904000001000000000000000RA              01095005    005800050000000500000610000003NN  NNW 000                       N    
RDG06904000WATRL000000004K00000000000000000000512172015091236S001000000000UFC08     000010400K 10000000010000001602           
CUS0690400000104080123005         CHAUDHRY MUNAWAR H  10 WAGNER AVE                           000N        CARE OF             
MTR06904000001000000000000000RA              39291713    005800060000000600000520000003NN  NNW 000                       N    
RDG06904000WATRL000000004K00000000000000000000612172015091238S001000000000UFC08     000020400K 10000000010000003085           
CUS0690400000104080124003         CLARK VERONICA      12 WAGNER AVE                           000N        CARE OF             
MTR06904000001000000000000000RA              42808783    005800070000000700000520000003NN  NNW 000                       N    
RDG06904000WATRL000000004K00000000000000000000712172015091238S001000000000UFC08     000000400K 10000000010000001387           
CUS0690400000104080125000         AUGUSTYNIAK ALBERT F16 WAGNER AVE                           000N        CARE OF             
MTR06904000001000000000000000RA              45378817    005800080000000800000520000003NN  NNW 000                       N    
RDG06904000WATRL000000004K00000000000000000000812172015091239S001000000000UFC08     000010400K 10000000010000002794           
CUS0690400000104080126008         MELISSA ANN MILLER  18 WAGNER AVE                           000N        CARE OF             
MTR06904000001000000000000000RA              79852780    005800090000000900000360000003NN  NNW 000                       N    
RDG06904000WATRL000000004R00000000000000000000912172015091241S001000000000UFC08     000020400R 10000000010000000000           
RFF0690400070229545      ERT      0000  956.4437500014000000000000000000                  0000N                               
CUS0690400000104080127006         SCHAEFER GEORGE A,SR20 WAGNER AVE                           000N        CARE OF             
MTR06904000001000000000000000RA              14904592    005800100000001000000310000003NN  NNW 000                       N    
RDG06904000WATRL000000004K00000000000000000001012172015091242S001000000000UFC08     000010400K 10000000010000000334           
CUS0690400000104080128004         SCHULTZ ROBIN F     24 WAGNER AVE                           000N        CARE OF             
MTR06904000001000000000000000RA              22609660    005800110000001100000520000003NN  NNW 000                       N    
RDG06904000WATRL000000004K00000000000000000001112172015091249S001000000000UFC08     000070400K 10000000010000004267           
CUS0690400000104080129002         KEVIN WANTZ         26 WAGNER AVE                           000N        CARE OF             
MTR06904000001000000000000000RA              33080513    005800120000001200000520000003NN  NNW 000                       N    
RDG06904000WATRL000000004K00000000000000000001212172015091250S001000000000UFC08     000010400K 10000000010000002708           
CUS0690400000104080130000         ICENHOUR TINA MARIE 28 WAGNER AVE                           000N        CARE OF             
MTR06904000001000000000000000RA              33080521    005800130000001300000520000003NN  NNW 000                       N    
RDG06904000WATRL000000004K00000000000000000001312172015091251S001000000000UFC08     000010400K 10000000010000004672           
CUS0690400000104080131008         LILLER KATHLEEN V   30 WAGNER AVE                           000N        CARE OF             
MTR06904000001000000000000000RA              45378861    005800140000001400000520000003NN  NNW 000                       N    
RDG06904000WATRL000000004K00000000000000000001412172015091252S001000000000UFC08     000010400K 10000000010000002947           
CUS0690400000104352845004         KAMINS MARLANE A    32 WAGNER AVE                           000N        CARE OF             
MTR06904000001000000000000000RA              27833376    005800150000001500000520000003NN  NNW 000                       N    
RDG06904000WATRL000000004K00000000000000000001512172015091253S001000000000UFC08     000010400K 10000000010000003955           
CUS0690400000104080132006         JONES DAVID A       34 WAGNER AVE                           000N        CARE OF             
MTR06904000001000000000000000RA              41086770    005800160000001600000520000003NN  NNW 000                       N    
RDG06904000WATRL000000004K00000000000000000001612172015091254S001000000000UFC08     000010400K 10000000010000003561           
CUS0690400000104080133004         BLAKENBILLER LESLIE 36 WAGNER AVE                           000N        CARE OF             
MTR06904000001000000000000000RA              45378814    005800170000001700000520000003NN  NNW 000                       N    
RDG06904000WATRL000000004K00000000000000000001712172015091255S001000000000UFC08     000010400K 10000000010000000514           
CUS0690400000104080134002         MCDOWELL MAXIE      38 WAGNER AVE                           000N        CARE OF             
MTR06904000001000000000000000RA              24232685    005800180000001800000520000003NN  NNW 000                       N    
RDG06904000WATRL000000004K00000000000000000001812172015091256S001000000000UFC08     000010400K 10000000010000001805           
CUS0690400000104080135009         G. & P. STECKLER    40 WAGNER AVE                           000N        CARE OF             
MTR06904000001000000000000000RA              23050746    005800190000001900000520000003NN  NNW 000                       N    
RDG06904000WATRL000000004K00000000000000000001912172015091257S001000000000UFC08     000010400K 10000000010000005719           
CUS0690400000104080136007         HARVESON NANCY M    42 WAGNER AVE                           000N        CARE OF             
MTR06904000001000000000000000RA              45378649    005800200000002000000520000003NN  NNW 000                       N    
RDG06904000WATRL000000004K00000000000000000002012172015091258S001000000000UFC08     000010400K 10000000010000001035           
CUS0690400000104080137005         WILLIAM A ROBINSON  44 WAGNER AVE                           000N        CARE OF             
MTR06904000001000000000000000RA              26010750    005800210000002100000520000003NN  NNW 000                       N    
RDG06904000WATRL000000004K00000000000000000002112172015091259S001000000000UFC08     000010400K 10000000010000003693           
CUS0690400000104080138003         CARSON DAVID WAYNE  46 WAGNER AVE                           000N        CARE OF             
MTR06904000001000000000000000RA              45387034    005800220000002200000520000003NN  NNW 000                       N    
RDG06904000WATRL000000004K00000000000000000002212172015091300S001000000000UFC08     000010400K 10000000010000002838           
CUS0690400000106348992006         MARYLAND REO REALTY 48 WAGNERS LN                           000N        CARE OF             
MTR06904000001000000000000000RA              26017453    005800230000002300000520000003NN  NNW 000                       N    
RDG06904000WATRL000000004K00000000000000000002312172015091301S001000000000UFC08     000010400K 10000000010000004543           
CUS0690400000104080139001         SCHILPP PAUL W      50 WAGNER AVE                           000N        CARE OF             
MTR06904000001000000000000000RA              22609525    005800240000002400000520000003NN  NNW 000                       N    
RDG06904000WATRL000000004K00000000000000000002412172015091302S001000000000UFC08     000010400K 10000000010000004880           
CUS0690400000104080140009         NOCAR HELEN V       52 WAGNER AVE                           000N        CARE OF             
MTR06904000001000000000000000RA              00136419    005800250000002500000570000003NN  NNW 000                       N    
RDG06904000WATRL000000004K00000000000000000002512172015091303S001000000000UFC08     000010400K 10000000010000001956           
CUS0690400000104080141007         NEVINS PATRICIA T   54 WAGNER AVE                           000N        CARE OF             
MTR06904000001000000000000000RA              01095007    005800260000002600000610000003NN  NNW 000                       N    
RDG06904000WATRL000000004K00000000000000000002612172015091304S001000000000UFC08     000010400K 10000000010000001380           
CUS0690400000104080142005         CARSON LEONARD F    56 WAGNER AVE                           000N        CARE OF             
MTR06904000001000000000000000RA              39923089    005800270000002700000520000003NN  NNW 000                       N    
RDG06904000WATRL000000004K00000000000000000002712172015091307S001000000000UFC08     000030400K 10000000010000003308           
CUS0690400000104080143003         WAY LEROY A         58 WAGNER AVE                           000N        CARE OF             
MTR06904000001000000000000000RA              33077619    005800280000002800000520000003NN  NNW 000                       N    
RDG06904000WATRL000000004K00000000000000000002812172015091308S001000000000UFC08     000010400K 10000000010000001583           
CUS0690400000104080144001         CLARK MARY E        60 WAGNER AVE                           000N        CARE OF             
MTR06904000001000000000000000RA              27812048    005800290000002900000520000003NN  NNW 000                       N    
RDG06904000WATRL000000004K00000000000000000002912172015091309S001000000000UFC08     000010400K 10000000010000003919           
CUS0690400000104080145008         HUHN THURMAN J      62 WAGNER AVE                           000N        CARE OF             
MTR06904000001000000000000000RA              10021034    005800300000003000000570000003NN  NNW 000                       N    
RDG06904000WATRL000000004K00000000000000000003012172015091310S001000000000UFC08     000010400K 10000000010000001077           
CUS0690400000104080146006         RADTKE SHERIAN MARIE64 WAGNER AVE                           000N        CARE OF             
MTR06904000001000000000000000RA              23050066    005800310000003100000520000003NN  NNW 000                       N    
RDG06904000WATRL000000004K00000000000000000003112172015091311S001000000000UFC08     000010400K 10000000010000003783           
CUS0690400000104080147004         FEDORKA BRUCE S     66 WAGNER AVE                           000N        CARE OF             
MTR06904000001000000000000000RA              46878268    005800320000003200000520000003NN  NNW 000                       N    
RDG06904000WATRL000000004K00000000000000000003212172015091316S001000000000UFC08     000040400K 10000000010000003780           
CUS0690400000106432690003         SEABROOK WILLIAM P  100 WAGNER AVE                          000N        CARE OF             
MTR06904000001000000000000000RA              01082873    005800330000003300000610000000NN  NNW 000                       N    
RDG06904000WATRL000000004K00000000000000000003312172015091317S001000000000UFC08     000010400K 10000000010000000662           
CUS0690400000104080148002         WAGNER 200 LLC      200 WAGNER AVE                          000N        CARE OF             
MTR06904000001000000000000000RA              45378646    005800340000003400000520000003NN  NNW 000                       N    
RDG06904000WATRL000000004K00000000000000000003412172015091318S001000000000UFC08     000010400K 10000000010000002198           
CUS0690400000104080149000         DAVID HORST         202 WAGNER AVE                          000N        CARE OF             
MTR06904000001000000000000000RA              75616179    005800350000003500000350000003NN  NNW 000                       N    
RDG06904000WATRL000000004K00000000000000000003512172015091319S001000000000UFC08     000010400K 10000000010000000008           
CUS0690400000104080150008         NELSON HOLLY J      204 WAGNER AVE                          000N        CARE OF             
MTR06904000001000000000000000RA              45378647    005800360000003600000520000003NN  NNW 000                       N    
RDG06904000WATRL000000004K00000000000000000003612172015091320S001000000000UFC08     000010400K 10000000010000001891           
CUS0690400000104352579009         SCHEUERMAN CHESTER C206 WAGNERS LN                          000N        CARE OF             
MTR06904000001000000000000000RA              27832106    005800370000003700000520000003NN  NNW 000                       N    
RDG06904000WATRL000000004K00000000000000000003712172015091321S001000000000UFC08     000010400K 10000000010000006999           
CUS0690400000104080151006         GABRIAL BRIAN K     206A WAGNERS LN                         000N        CARE OF             
MTR06904000001000000000000000RA              45381650    005800380000003800000520000003NN  NNW 000                       N    
RDG06904000WATRL000000004K00000000000000000003812172015091322S001000000000UFC08     000010400K 10000000010000002319           
CUS0690400000104373596008         LEAR JOSEPH J       208 WAGNERS LN                          000N        CARE OF             
MTR06904000001000000000000000RA              31583273    005800390000003900000520000003NN  NNW 000                       N    
RDG06904000WATRL000000004K00000000000000000003912172015091323S001000000000UFC08     000010400K 10000000010000003087           
CUS0690400000104080152004         J G J ASSOCIATES    50 EASTERN BLVD                         000N        CARE OF             
MTR06904000001000000000000000RA              27266453    005800400000004000000520000003NN  NNW 000                       N    
RDG06904000WATRL000000004K00000000000000000004012172015091324S001000000000UFC08     000010400K 10000000010000006295           
CUS0690400000104080153002         HICKS CHARLES WAYNE 1 CRAFTON RD                            000N        CARE OF             
MTR06904000001000000000000000RA              10014062    005800410000004100000570000003NN  NNW 000                       N    
RDG06904000WATRL000000004K00000000000000000004112172015091327S001000000000UFC08     000030400K 10000000010000000143           
CUS0690400000104080154000         WANCOWICZ MICHAEL D,3 CRAFTON RD                            000N        CARE OF             
MTR06904000001000000000000000RA              10003486    005800420000004200000570000003NN  NNW 000                       N    
RDG06904000WATRL000000004K00000000000000000004212172015093952S001000000000UFC08     015850400K 10000000010000000619           
CUS0690400000104080155007         WILLIAM HABICHT     5 CRAFTON RD                            000N        CARE OF             
MTR06904000001000000000000000RA              10003206    005800430000004300000570000003NN  NNW 000                       N    
RDG06904000WATRL000000004K00000000000000000004312172015093957S001000000000UFC08     000050400K 10000000010000000119           
CUS0690400000104080156005         HARRY HOUCHENS L,JR.7 CRAFTON RD                            000N        CARE OF             
MTR06904000001000000000000000RA              01080716    005800440000004400000610000003NN  NNW 000                       N    
RDG06904000WATRL000000004K00000000000000000004412172015093959S001000000000UFC08     000020400K 10000000010000000855           
CUS0690400000104080157003         ASH JOHN D          9 CRAFTON RD                            000N        CARE OF             
MTR06904000001000000000000000RA              40779528    005800450000004500000520000003NN  NNW 000                       N    
RDG06904000WATRL000000004K00000000000000000004512172015094007S001000000000UFC08     000080400K 10000000010000001302           
CUS0690400000104080158001         SCOTT PHILLIP R     11 CRAFTON RD                           000N        CARE OF             
MTR06904000001000000000000000RA              40049848    005800460000004600000520000003NN  NNW 000                       N    
RDG06904000WATRL000000004K00000000000000000004612172015094009S001000000000UFC08     000020400K 10000000010000002161           
CUS0690400000104080159009         LIGHTNER KATHERINE L13 CRAFTON RD                           000N        CARE OF             
MTR06904000001000000000000000RA              42808771    005800470000004700000520000003NN  NNW 000                       N    
RDG06904000WATRL000000004K00000000000000000004712172015094011S001000000000UFC08     000020400K 10000000010000001492           
CUS0690400000104080160007         JUAN A. MONTOYAVIGIL15 CRAFTON RD                           000N        CARE OF             
MTR06904000001000000000000000RA              40049843    005800480000004800000520000003NN  NNW 000                       N    
RDG06904000WATRL000000004K00000000000000000004812172015094014S001000000000UFC08     000030400K 10000000010000003937           
CUS0690400000104080161005         PORTER LAWRENCE E   17 CRAFTON RD                           000N        CARE OF             
MTR06904000001000000000000000RA              14919545    005800490000004900000310000003NN  NNW 000                       N    
RDG06904000WATRL000000004K00000000000000000004912172015094015S001000000000UFC08     000010400K 10000000010000000811           
CUS0690400000104080162003         ASHTON HOWARD W     19 CRAFTON RD                           000N        CARE OF             
MTR06904000001000000000000000RA              35119010    005800500000005000000520000003NN  NNW 000                       N    
RDG06904000WATRL000000004K00000000000000000005012172015094016S001000000000UFC08     000010400K 10000000010000002537           
CUS0690400000104080163001         FRISKEY MATTHEW     21 CRAFTON RD                           000N        CARE OF             
MTR06904000001000000000000000RA              40049840    005800510000005100000520000003NN  NNW 000                       N    
RDG06904000WATRL000000004K00000000000000000005112172015094017S001000000000UFC08     000010400K 10000000010000002217           
CUS0690400000104080164009         JAMISON RONALD R,JR 23 CRAFTON RD                           000N        CARE OF             
MTR06904000001000000000000000RA              45381653    005800520000005200000520000003NN  NNW 000                       N    
RDG06904000WATRL000000004K00000000000000000005212172015094018S001000000000UFC08     000010400K 10000000010000002448           
CUS0690400000104080165006         SMITH BONNIE LLOYD  25 CRAFTON RD                           000N        CARE OF             
MTR06904000001000000000000000RA              45381420    005800530000005300000520000003NN  NNW 000                       N    
RDG06904000WATRL000000004K00000000000000000005312172015094019S001000000000UFC08     000010400K 10000000010000001919           
CUS0690400000104080166004         UMPHREYS THOMAS ROGE27 CRAFTON RD                           000N        CARE OF             
MTR06904000001000000000000000RA              45381652    005800540000005400000520000003NN  NNW 000                       N    
RDG06904000WATRL000000004K00000000000000000005412172015094021S001000000000UFC08     000020400K 10000000010000002530           
CUS0690400000104080167002         SMITH LOUIS JOSEPH  29 RIDGEMOOR RD                         000N        CARE OF             
MTR06904000001000000000000000RA              41086773    005800550000005500000520000003NN  NNW 000                       N    
RDG06904000WATRL000000004K00000000000000000005512172015094023S001000000000UFC08     000020400K 10000000010000001871           
CUS0690400000104080168000         HASSE EMMA MARY     31 RIDGEMOOR RD                         000N        CARE OF             
MTR06904000001000000000000000RA              35117672    005800560000005600000520000003NN  NNW 000                       N    
RDG06904000WATRL000000004K00000000000000000005612172015094024S001000000000UFC08     000010400K 10000000010000001679           
CUS0690400000104080169008         WORTECK EDWARD J    33 RIDGEMOOR RD                         000N        CARE OF             
MTR06904000001000000000000000RA              35117633    005800570000005700000520000003NN  NNW 000                       N    
RDG06904000WATRL000000004K00000000000000000005712172015094025S001000000000UFC08     000010400K 10000000010000001316           
CUS0690400000104080170006         HILL JOSEPH         35 RIDGEMOOR RD                         000N        CARE OF             
MTR06904000001000000000000000RA              35117674    005800580000005800000520000003NN  NNW 000                       N    
RDG06904000WATRL000000004K00000000000000000005812172015094027S001000000000UFC08     000020400K 10000000010000001879           
CUS0690400000104080171004         WEBER KENNETH       37 RIDGEMOOR RD                         000N        CARE OF             
MTR06904000001000000000000000RA              35117635    005800590000005900000520000003NN  NNW 000                       N    
RDG06904000WATRL000000004K00000000000000000005912172015094028S001000000000UFC08     000010400K 10000000010000005053           
CUS0690400000104080172002         CARLINO ROBERTA L   39 RIDGEMOOR RD                         000N        CARE OF             
MTR06904000001000000000000000RA              35117631    005800600000006000000520000003NN  NNW 000                       N    
RDG06904000WATRL000000004K00000000000000000006012172015094029S001000000000UFC08     000010400K 10000000010000002646           
CUS0690400000104080173000         STAEHELI CHARLES S  41 RIDGEMOOR RD                         000N        CARE OF             
MTR06904000001000000000000000RA              35117629    005800610000006100000520000003NN  NNW 000                       N    
RDG06904000WATRL000000004K00000000000000000006112172015094030S001000000000UFC08     000010400K 10000000010000001556           
CUS0690400000104080174008         MCKINNEY JESSICA R  43 RIDGEMOOR RD                         000N        CARE OF             
MTR06904000001000000000000000RA              23054854    005800620000006200000520000003NN  NNW 000                       N    
RDG06904000WATRL000000004K00000000000000000006212172015094032S001000000000UFC08     000020400K 10000000010000005221           
CUS0690400000104080176003         SMYTHERS WILLIAM R  56 RIDGEMOOR RD                         000N        CARE OF             
MTR06904000001000000000000000RA              27831365    005800630000006300000520000003NN  NNW 000                       N    
RDG06904000WATRL000000004K00000000000000000006312172015094046S001000000000UFC08     000140400K 10000000010000003835           
CUS0690400000104080177001         SWAUGER EARL S,JR   54 RIDGEMOOR RD                         000N        CARE OF             
MTR06904000001000000000000000RA              14904916    005800640000006400000310000003NN  NNW 000                       N    
RDG06904000WATRL000000004K00000000000000000006412172015094046S001000000000UFC08     000000400K 10000000010000000784           
CUS0690400000104080178009         RUDOLF DONALD V     52 RIDGEMOOR RD                         000N        CARE OF             
MTR06904000001000000000000000RA              26012082    005800650000006500000520000003NN  NNW 000                       N    
RDG06904000WATRL000000004K00000000000000000006512172015094047S001000000000UFC08     000010400K 10000000010000002720           
CUS0690400000104080179007         WILSON GLEN L       50 RIDGEMOOR RD                         000N        CARE OF             
MTR06904000001000000000000000RA              35117648    005800660000006600000520000003NN  NNW 000                       N    
RDG06904000WATRL000000004K00000000000000000006612172015094048S001000000000UFC08     000010400K 10000000010000002878           
CUS0690400000104080180005         JOHNSON LEE R F     48 RIDGEMOOR RD                         000N        CARE OF             
MTR06904000001000000000000000RA              35117634    005800670000006700000520000003NN  NNW 000                       N    
RDG06904000WATRL000000004K00000000000000000006712172015094050S001000000000UFC08     000020400K 10000000010000002269           
CUS0690400000104080181003         ZAPATA LINDA M      46 RIDGEMOOR RD                         000N        CARE OF             
MTR06904000001000000000000000RA              45378816    005800680000006800000520000003NN  NNW 000                       N    
RDG06904000WATRL000000004K00000000000000000006812172015094051S001000000000UFC08     000010400K 10000000010000002202           
CUS0690400000104080182001         QUINTAVALLE THOMAS  44 RIDGEMOOR RD                         000N        CARE OF             
MTR06904000001000000000000000RA              45381422    005800690000006900000520000003NN  NNW 000                       N    
RDG06904000WATRL000000004K00000000000000000006912172015094054S001000000000UFC08     000030400K 10000000010000003051           
CUS0690400000104080183009         LEE JAMES A,JR      42 RIDGEMOOR RD                         000N        CARE OF             
MTR06904000001000000000000000RA              45381648    005800700000007000000520000003NN  NNW 000                       N    
RDG06904000WATRL000000004K00000000000000000007012172015094055S001000000000UFC08     000010400K 10000000010000001248           
CUS0690400000104080184007         HEWICK NORMAN       40 CRAFTON RD                           000N        CARE OF             
MTR06904000001000000000000000RA              10007209    005800710000007100000570000003NN  NNW 000                       N    
RDG06904000WATRL000000004K00000000000000000007112172015094056S001000000000UFC08     000010400K 10000000010000000341           
CUS0690400000104080185004         SWEZEY JOHN D       38 CRAFTON RD                           000N        CARE OF             
MTR06904000001000000000000000RA              14904924    005800720000007200000310000003NN  NNW 000                       N    
RDG06904000WATRL000000004K00000000000000000007212172015094057S001000000000UFC08     000010400K 10000000010000000198           
CUS0690400000104080186002         SHERRY JUSTIN SCOTT 36 CRAFTON RD                           000N        CARE OF             
MTR06904000001000000000000000RA              33734351    005800730000007300000520000003NN  NNW 000                       N    
RDG06904000WATRL000000004K00000000000000000007312172015094058S001000000000UFC08     000010400K 10000000010000002898           
CUS0690400000104080187000         HYDE MARY L         34 CRAFTON RD                           000N        CARE OF             
MTR06904000001000000000000000RA              29681838    005800740000007400000520000003NN  NNW 000                       N    
RDG06904000WATRL000000004K00000000000000000007412172015094059S001000000000UFC08     000010400K 10000000010000003154           
CUS0690400000104080188008         HYDE MICHAEL WALTER 32 CRAFTON RD                           000N        CARE OF             
MTR06904000001000000000000000RA              44088373    005800750000007500000520000003NN  NNW 000                       N    
RDG06904000WATRL000000004K00000000000000000007512172015094059S001000000000UFC08     000000400K 10000000010000002309           
CUS0690400000104080189006         KEIL, ADRIANE M     30 CRAFTON RD                           000N        CARE OF             
MTR06904000001000000000000000RA              14904595    005800760000007600000310000003NN  NNW 000                       N    
RDG06904000WATRL000000004K00000000000000000007612172015094100S001000000000UFC08     000010400K 10000000010000000436           
CUS0690400000104080190004         GREENSFELDER MICHAEL28 CRAFTON RD                           000N        CARE OF             
MTR06904000001000000000000000RA              75615668    005800770000007700000350000003NN  NNW 000                       N    
RDG06904000WATRL000000004K00000000000000000007712172015094101S001000000000UFC08     000010400K 10000000010000000125           
CUS0690400000104080191002         RAYNOR GREGORY      26 CRAFTON RD                           000N        CARE OF             
MTR06904000001000000000000000RA              22862011    005800780000007800000520000003NN  NNW 000                       N    
RDG06904000WATRL000000004K00000000000000000007812172015094102S001000000000UFC08     000010400K 10000000010000002388           
CUS0690400000104080192000         CRIZER ANTHONY R    24 CRAFTON RD                           000N        CARE OF             
MTR06904000001000000000000000RA              76344803    005800790000007900000350000003NN  NNW 000                       N    
RDG06904000WATRL000000004K00000000000000000007912172015094103S001000000000UFC08     000010400K 10000000010000000080           
CUS0690400000104080193008         LANDIS CHARLES E    22 CRAFTON RD                           000N        CARE OF             
MTR06904000001000000000000000RA              35118006    005800800000008000000520000003NN  NNW 000                       N    
RDG06904000WATRL000000004K00000000000000000008012172015094104S001000000000UFC08     000010400K 10000000010000003080           
CUS0690400000104080194006         COREY LIGHTNER      20 CRAFTON RD                           000N        CARE OF             
MTR06904000001000000000000000RA              22609536    005800810000008100000520000003NN  NNW 000                       N    
RDG06904000WATRL000000004K00000000000000000008112172015094105S001000000000UFC08     000010400K 10000000010000001425           
CUS0690400000104080195003         BAGINSKI JOSEPH M   18 CRAFTON RD                           000N        CARE OF             
MTR06904000001000000000000000RA              30518220    005800820000008200000520000003NN  NNW 000                       N    
RDG06904000WATRL000000004K00000000000000000008212172015094134S001000000000UFC08     000290400K 10000000010000001150           
CUS0690400000104080196001         WINTERS WILLIAM W   16 CRAFTON RD                           000N        CARE OF             
MTR06904000001000000000000000RA              33734497    005800830000008300000520000003NN  NNW 000                       N    
RDG06904000WATRL000000004K00000000000000000008312172015094135S001000000000UFC08     000010400K 10000000010000002569           
CUS0690400000104080197009         DAVIS DONALD,JR     14 CRAFTON RD                           000N        CARE OF             
MTR06904000001000000000000000RA              46880119    005800840000008400000520000003NN  NNW 000                       N    
RDG06904000WATRL000000004K00000000000000000008412172015094136S001000000000UFC08     000010400K 10000000010000001708           
CUS0690400000104080198007         LEW GORDON K        12 CRAFTON RD                           000N        CARE OF             
MTR06904000001000000000000000RA              33080507    005800850000008500000520000003NN  NNW 000                       N    
RDG06904000WATRL000000004K00000000000000000008512172015094137S001000000000UFC08     000010400K 10000000010000001263           
CUS0690400000104080199005         CREDE AUSTIN COLGAN 10 CRAFTON RD                           000N        CARE OF             
MTR06904000001000000000000000RA              31587572    005800860000008600000520000003NN  NNW 000                       N    
RDG06904000WATRL000000004K00000000000000000008612172015094137S001000000000UFC08     000000400K 10000000010000003072           
CUS0690400000104080200001         FICK JOHN RALPH,3RD 8 CRAFTON RD                            000N        CARE OF             
MTR06904000001000000000000000RA              33080520    005800870000008700000520000003NN  NNW 000                       N    
RDG06904000WATRL000000004K00000000000000000008712172015094138S001000000000UFC08     000010400K 10000000010000002234           
CUS0690400000104080201009         WIMMER JOHN WAYNE   6 CRAFTON RD                            000N        CARE OF             
MTR06904000001000000000000000RA              33080505    005800880000008800000520000003NN  NNW 000                       N    
RDG06904000WATRL000000004K00000000000000000008812172015094139S001000000000UFC08     000010400K 10000000010000002345           
CUS0690400000104080202007         HUNT HARRY W        4 CRAFTON RD                            000N        CARE OF             
MTR06904000001000000000000000RA              46883935    005800890000008900000520000003NN  NNW 000                       N    
RDG06904000WATRL000000004K00000000000000000008912172015094140S001000000000UFC08     000010400K 10000000010000000697           
CUS0690400000104080203005         GEORGE F OGLE JR    2 CRAFTON RD                            000N        CARE OF             
MTR06904000001000000000000000RA              77892824    005800900000009000000360000003NN  NNW 000   VACANT / LOT        N    
RDG06904000WATRL000000004R00000000000000005009012172015094226N000000000000UFC08     000460400K 10000000010000000005           
RFF0690400070055200      ERT      0000  956.4437500014000000000000000000                  0001Y                               
CUS0690400000104080204003         HEITZER LISA M      1 TERRACE RD                            000N        CARE OF             
MTR06904000001000000000000000RA              35104727    005800910000009100000520000003NN  NNW 000                       N    
RDG06904000WATRL000000004K00000000000000000009112172015094230S001000000000UFC08     000040400K 10000000010000003182           
CUS0690400000104080205000         YEAGER BETTIE LOUISE3 TERRACE RD                            000N        CARE OF             
MTR06904000001000000000000000RA              00135729    005800920000009200000570000003NN  NNW 000                       N    
RDG06904000WATRL000000004K00000000000000000009212172015094232S001000000000UFC08     000020400K 10000000010000000374           
CUS0690400000104080206008         CARSON DAVID W      5 TERRACE RD                            000N        CARE OF             
MTR06904000001000000000000000RA              52285866    005800930000009300000520000003NN  NNW 000                       N    
RDG06904000WATRL000000004K00000000000000000009312172015094234S001000000000UFC08     000020400K 10000000010000002434           
CUS0690400000104080207006         COMER MARVIN A      7 TERRACE RD                            000N        CARE OF             
MTR06904000001000000000000000RA              35104686    005800940000009400000520000003NN  NNW 000                       N    
RDG06904000WATRL000000004K00000000000000000009412172015094237S001000000000UFC08     000030400K 10000000010000004215           
CUS0690400000104080208004         BEARDSWORTH MICHAEL 9 TERRACE RD                            000N        CARE OF             
MTR06904000001000000000000000RA              27817278    005800950000009500000520000003NN  NNW 000                       N    
RDG06904000WATRL000000004K00000000000000000009512172015094238S001000000000UFC08     000010400K 10000000010000004263           
CUS0690400000104080209002         JENNIFER L KLINE    11 TERRACE RD                           000N        CARE OF             
MTR06904000001000000000000000RA              36687860    005800960000009600000520000003NN  NNW 000                       N    
RDG06904000WATRL000000004K00000000000000000009612172015094240S001000000000UFC08     000020400K 10000000010000003304           
CUS0690400000104080210000         WEST DARLENE        13 TERRACE RD                           000N        CARE OF             
MTR06904000001000000000000000RA              27133485    005800970000009700000520000003NN  NNW 000                       N    
RDG06904000WATRL000000004K00000000000000000009712172015094243S001000000000UFC08     000030400K 10000000010000002504           
CUS0690400000104080211008         WERNER BENJAMIN W   15 TERRACE RD                           000N        CARE OF             
MTR06904000001000000000000000RA              35104718    005800980000009800000520000003NN  NNW 000                       N    
RDG06904000WATRL000000004K00000000000000000009812172015094245S001000000000UFC08     000020400K 10000000010000001044           
CUS0690400000104080212006         STAEHELI MARION C   17 TERRACE RD                           000N        CARE OF             
MTR06904000001000000000000000RA              35104721    005800990000009900000520000003NN  NNW 000                       N    
RDG06904000WATRL000000004K00000000000000000009912172015094247S001000000000UFC08     000020400K 10000000010000001496           
CUS0690400000104080213004         QUINTERO DAVID MICHA19 TERRACE RD                           000N        CARE OF             
MTR06904000001000000000000000RA              10011988    005801000000010000000570000003NN  NNW 000                       N    
RDG06904000WATRL000000004K00000000000000000010012172015094249S001000000000UFC08     000020400K 10000000010000000298           
CUS0690400000104080214002         BERKERIDGE JAMES S  21 TERRACE RD                           000N        CARE OF             
MTR06904000001000000000000000RA              35104683    005801010000010100000520000003NN  NNW 000                       N    
RDG06904000WATRL000000004K00000000000000000010112172015094251S001000000000UFC08     000020400K 10000000010000002587           
CUS0690400000104080215009         KUSYK SAMUEL ANTHONY23 TERRACE RD                           000N        CARE OF             
MTR06904000001000000000000000RA              23645418    005801020000010200000520000003NN  NNW 000                       N    
RDG06904000WATRL000000004K00000000000000000010212172015094257S001000000000UFC08     000060400K 10000000010000003967           
CUS0690400000104080216007         HARTMAN ELWOOD H    25 TERRACE RD                           000N        CARE OF             
MTR06904000001000000000000000RA              35104682    005801030000010300000520000003NN  NNW 000                       N    
RDG06904000WATRL000000004K00000000000000000010312172015094259S001000000000UFC08     000020400K 10000000010000003842           
CUS0690400000104080217005         FRED C PIRRERA JR   27 TERRACE RD                           000N        CARE OF             
MTR06904000001000000000000000RA              30518854    005801040000010400000520000003NN  NNW 000                       N    
RDG06904000WATRL000000004K00000000000000000010412172015094309S001000000000UFC08     000100400K 10000000010000003826           
CUS0690400000104080218003         KEENER JOSEPH       29 TERRACE RD                           000N        CARE OF             
MTR06904000001000000000000000RA              35104728    005801050000010500000520000003NN  NNW 000                       N    
RDG06904000WATRL000000004K00000000000000000010512172015094310S001000000000UFC08     000010400K 10000000010000002045           
CUS0690400000104080219001         DEITZ CHARLES D     31 TERRACE RD                           000N        CARE OF             
MTR06904000001000000000000000RA              35104724    005801060000010600000520000003NN  NNW 000                       N    
RDG06904000WATRL000000004K00000000000000000010612172015094311S001000000000UFC08     000010400K 10000000010000002433           
CUS0690400000104080220009         DANIEL EDWARD WENCZK33 TERRACE RD                           000N        CARE OF             
MTR06904000001000000000000000RA              35104723    005801070000010700000520000003NN  NNW 000                       N    
RDG06904000WATRL000000004K00000000000000000010712172015094312S001000000000UFC08     000010400K 10000000010000001278           
CUS0690400000104080221007         MCALISTER RICHARD E 35 TERRACE RD                           000N        CARE OF             
MTR06904000001000000000000000RA              01080719    005801080000010800000610000003NN  NNW 000                       N    
RDG06904000WATRL000000004K00000000000000000010812172015094313S001000000000UFC08     000010400K 10000000010000000359           
CUS0690400000104080222005         SIGNATURE PROPERTIES37 TERRACE RD                           000N        CARE OF             
MTR06904000001000000000000000RA              01089517    005801090000010900000610000003NN  NNW 000                       N    
RDG06904000WATRL000000004K00000000000000000010912172015094314S001000000000UFC08     000010400K 10000000010000001111           
CUS0690400000104080223003         ADAMS GEORGE        39 TERRACE RD                           000N        CARE OF             
MTR06904000001000000000000000RA              22862032    005801100000011000000520000003NN  NNW 000                       N    
RDG06904000WATRL000000004K00000000000000000011012172015094315S001000000000UFC08     000010400K 10000000010000003455           
CUS0690400000104080224001         DIX CHARLES P,JR    22 TERRACE RD                           000N        CARE OF             
MTR06904000001000000000000000RA              26011102    005801110000011100000520000003NN  NNW 000                       N    
RDG06904000WATRL000000004K00000000000000000011112172015094315S001000000000UFC08     000000400K 10000000010000003465           
CUS0690400000104080225008         POPE JOHN J A,JR    20 TERRACE RD                           000N        CARE OF             
MTR06904000001000000000000000RA              76346524    005801120000011200000350000003NN  NNW 000                       N    
RDG06904000WATRL000000004K00000000000000000011212172015094316S001000000000UFC08     000010400K 10000000010000000162           
CUS0690400000104080226006         SEABREASE RUTH M    18 TERRACE RD                           000N        CARE OF             
MTR06904000001000000000000000RA              36692031    005801130000011300000520000003NN  NNW 000                       N    
RDG06904000WATRL000000004K00000000000000000011312172015094318S001000000000UFC08     000020400K 10000000010000001985           
CUS0690400000104080227004         MAY JAMES W         16 TERRACE RD                           000N        CARE OF             
MTR06904000001000000000000000RA              27133931    005801140000011400000520000003NN  NNW 000                       N    
RDG06904000WATRL000000004K00000000000000000011412172015094336S001000000000UFC08     000180400K 10000000010000002873           
CUS0690400000104080228002         MACY A BOEMMEL      14 TERRACE RD                           000N        CARE OF             
MTR06904000001000000000000000RA              24226851    005801150000011500000520000003NN  NNW 000                       N    
RDG06904000WATRL000000004K00000000000000000011512172015094337S001000000000UFC08     000010400K 10000000010000004509           
CUS0690400000104080229000         SCHECH ALEX MICHAEL 12 TERRACE RD                           000N        CARE OF             
MTR06904000001000000000000000RA              36694024    005801160000011600000520000003NN  NNW 000                       N    
RDG06904000WATRL000000004K00000000000000000011612172015094338S001000000000UFC08     000010400K 10000000010000001483           
CUS0690400000104080230008         RAUT CHRISTOPHER J  10 TERRACE RD                           000N        CARE OF             
MTR06904000001000000000000000RA              36694023    005801170000011700000520000003NN  NNW 000                       N    
RDG06904000WATRL000000004K00000000000000000011712172015094339S001000000000UFC08     000010400K 10000000010000003396           
CUS0690400000104080231006         JOSHUA MORGAN       8 TERRACE RD                            000N        CARE OF             
MTR06904000001000000000000000RA              01110754    005801180000011800000610000003NN  NNW 000                       N    
RDG06904000WATRL000000004K00000000000000000011812172015094340S001000000000UFC08     000010400K 10000000010000000882           
CUS0690400000104080232004         ASHTON HOWARD WAYNE 6 TERRACE RD                            000N        CARE OF             
MTR06904000001000000000000000RA              45378860    005801190000011900000520000003NN  NNW 000                       N    
RDG06904000WATRL000000004K00000000000000000011912172015094341S001000000000UFC08     000010400K 10000000010000001457           
CUS0690400000104080233002         HOBLITZ PAUL H      4 TERRACE RD                            000N        CARE OF             
MTR06904000001000000000000000RA              35104729    005801200000012000000520000003NN  NNW 000                       N    
RDG06904000WATRL000000004K00000000000000000012012172015094342S001000000000UFC08     000010400K 10000000010000002463           
CUS0690400000104080234000         JANSEN GERALD W     2 TERRACE RD                            000N        CARE OF             
MTR06904000001000000000000000RA              40781709    005801210000012100000520000003NN  NNW 000                       N    
RDG06904000WATRL000000004K00000000000000000012112172015094342S001000000000UFC08     000000400K 10000000010000001663           
CUS0690400000104080235007         MARKERT WARREN S    1 RIVERSIDE RD                          000N        CARE OF             
MTR06904000001000000000000000RA              44090138    005801220000012200000520000003NN  NNW 000                       N    
RDG06904000WATRL000000004K00000000000000000012212172015094343S001000000000UFC08     000010400K 10000000010000001166           
CUS0690400000104080236005         MCDERMOTT WILLIAM J,3 RIVERSIDE RD                          000N        CARE OF             
MTR06904000001000000000000000RA              24769000    005801230000012300000520000003NN  NNW 000                       N    
RDG06904000WATRL000000004K00000000000000000012312172015094348S001000000001UFC08     000050400K 10000000010000003051           
CUS0690400000104080237003         MCDANIELS GARY L    5 RIVERSIDE RD                          000N        CARE OF             
MTR06904000001000000000000000RA              01115204    005801240000012400000610000003NN  NNW 000   VACANT / LOT        N    
RDG06904000WATRL000000004K00000000000000000012412172015094349S001000000000UFC08     000010400K 10000000010000000969           
CUS0690400000104080238001         BLACKBURN JOSEPH A  7 RIVERSIDE RD                          000N        CARE OF             
MTR06904000001000000000000000RA              44173686    005801250000012500000520000003NN  NNW 000                       N    
RDG06904000WATRL000000004K00000000000000000012512172015094351S001000000000UFC08     000020400K 10000000010000001176           
CUS0690400000104080239009         TAMARA & MICHAEL DAI9 RIVERSIDE RD                          000N        CARE OF             
MTR06904000001000000000000000RA              27131740    005801260000012600000520000003NN  NNW 000                       N    
RDG06904000WATRL000000004K00000000000000000012612172015094401S001000000001UFC08     000100400K 10000000010000003413           
CUS0690400000104080240007         PAMPLIN CHARLES OSCA8 FAIRWAY RD                            000N        CARE OF             
MTR06904000001000000000000000RA              35117297    005801270000012700000520000003NN  NNW 000                       N    
RDG06904000WATRL000000004K00000000000000000012712172015094404S001000000000UFC08     000030400K 10000000010000002908           
CUS0690400000104080241005         ZENGEL SCOTT D      6 FAIRWAY RD                            000N        CARE OF             
MTR06904000001000000000000000RA              44175111    005801280000012800000520000003NN  NNW 000                       N    
RDG06904000WATRL000000004K00000000000000000012812172015094510S001000000000UFC08     000660400K 10000000010000001544           
CUS0690400000104080242003         GARMAN ALLEN D,SR   4 FAIRWAY RD                            000N        CARE OF             
MTR06904000001000000000000000RA              52285544    005801290000012900000520000003NN  NNW 000                       N    
RDG06904000WATRL000000004K00000000000000000012912172015094527S001000000000UFC08     000170400K 10000000010000001143           
CUS0690400000104080243001         GLOCK JOHN WESLEY,SR2 FAIRWAY RD                            000N        CARE OF             
MTR06904000001000000000000000RA              41081010    005801300000013000000520000003NN  NNW 000                       N    
RDG06904000WATRL000000004K00000000000000000013012172015094529S001000000000UFC08     000020400K 10000000010000001072           
CUS0690400000104080244009         BAER KIMBERLY L     1 FAIRWAY RD                            000N        CARE OF             
MTR06904000001000000000000000RA              01092617    005801310000013100000610000003NN  NNW 000                       N    
RDG06904000WATRL000000004K00000000000000000013112172015094539S001000000000UFC08     000100400K 10000000010000001267           
CUS0690400000104080245006         HUBER BARBARA       3 FAIRWAY RD                            000N        CARE OF             
MTR06904000001000000000000000RA              10016837    005801320000013200000570000003NN  NNW 000                       N    
RDG06904000WATRL000000004K00000000000000000013212172015094541S001000000000UFC08     000020400K 10000000010000000125           
CUS0690400000104080246004          TYLER M. ATWOOD    5 FAIRWAY RD                            000N        CARE OF             
MTR06904000001000000000000000RA              10014617    005801330000013300000570000003NN  NNW 000                       N    
RDG06904000WATRL000000004K00000000000000000013312172015094544S001000000000UFC08     000030400K 10000000010000000180           
CUS0690400000104080247002         MARGUERITE E AMAYA  7 FAIRWAY RD                            000N        CARE OF             
MTR06904000001000000000000000RA              10017954    005801340000013400000570000003NN  NNW 000                       N    
RDG06904000WATRL000000004K00000000000000000013412172015094653S001000000000UFC08     000690400K 10000000010000000185           
CUS0690400000104080248000         HERSHFIELD KAREN DEN9 FAIRWAY RD                            000N        CARE OF             
MTR06904000001000000000000000RA              10008153    005801350000013500000570000003NN  NNW 000                       N    
RDG06904000WATRL000000004K00000000000000000013512172015094654S001000000000UFC08     000010400K 10000000010000000199           
CUS0690400000104080249008         HUDNET AUGUST R,JR  11 FAIRWAY RD                           000N        CARE OF             
MTR06904000001000000000000000RA              35117675    005801360000013600000520000003NN  NNW 000                       N    
RDG06904000WATRL000000004K00000000000000000013612172015094655S001000000000UFC08     000010400K 10000000010000001714           
CUS0690400000104080250006         CLARKE LLOYD N      13 FAIRWAY RD                           000N        CARE OF             
MTR06904000001000000000000000RA              46880120    005801370000013700000520000003NN  NNW 000                       N    
RDG06904000WATRL000000004K00000000000000000013712172015094655S001000000000UFC08     000000400K 10000000010000001544           
CUS0690400000104080251004         ATKINS WILLIAM      11 RIVERSIDE RD                         000N        CARE OF             
MTR06904000001000000000000000RA              46877669    005801380000013800000520000003NN  NNW 000                       N    
RDG06904000WATRL000000004K00000000000000000013812172015094656S001000000000UFC08     000010400K 10000000010000002475           
CUS0690400000104080252002         SMITH EDWARD STEPHEN13 RIVERSIDE RD                         000N        CARE OF             
MTR06904000001000000000000000RA              35099222    005801390000013900000520000003NN  NNW 000   VACANT / LOT        N    
RDG06904000WATRL000000004K00000000000000000013912172015094658S001000000000UFC08     000020400K 10000000010000003433           
CUS0690400000104080253000         MARIANETTI MICHAEL  15 RIVERSIDE RD                         000N        CARE OF             
MTR06904000001000000000000000RA              35099221    005801400000014000000520000003NN  NNW 000                       N    
RDG06904000WATRL000000004K00000000000000000014012172015094659S001000000000UFC08     000010400K 10000000010000002424           
CUS0690400000104080254008         PLUMER JOHN H,JR    14 AVENAL RD                            000N        CARE OF             
MTR06904000001000000000000000RA              75616654    005801410000014100000350000003NN  NNW 000                       N    
RDG06904000WATRL000000004K00000000000000000014112172015094700S001000000000UFC08     000010400K 10000000010000000094           
CUS0690400000104080255005         WHITE BENJAMIN FRANK12 AVENAL RD                            000N        CARE OF             
MTR06904000001000000000000000RA              10024523    005801420000014200000570000003NN  NNW 000                       N    
RDG06904000WATRL000000004K00000000000000000014212172015094701S001000000000UFC08     000010400K 10000000010000000083           
CUS0690400000104080256003         10 AVENAL ROAD LLC  10 AVENAL RD                            000N        CARE OF             
MTR06904000001000000000000000RA              26010737    005801430000014300000520000003NN  NNW 000                       N    
RDG06904000WATRL000000004K00000000000000000014312172015094701S001000000000UFC08     000000400K 10000000010000002505           
CUS0690400000104080257001         NEASE JAMES S       8 AVENAL RD                             000N        CARE OF             
MTR06904000001000000000000000RA              27133661    005801440000014400000520000003NN  NNW 000                       N    
RDG06904000WATRL000000004K00000000000000000014412172015094702S001000000000UFC08     000010400K 10000000010000001235           
CUS0690400000104080258009         DORBERT GEORGE F    6 AVENAL RD                             000N        CARE OF             
MTR06904000001000000000000000RA              24224317    005801450000014500000520000003NN  NNW 000                       N    
RDG06904000WATRL000000004K00000000000000000014512172015094704S001000000000UFC08     000020400K 10000000010000002226           
CUS0690400000104080259007         KREMPLE NANCY       4 AVENAL RD                             000N        CARE OF             
MTR06904000001000000000000000RA              99189542    005801460000014600000570000003NN  NNW 000                       N    
RDG06904000WATRL000000004K00000000000000000014612172015094707S001000000000UFC08     000030400K 10000000010000001929           
CUS0690400000104080260005         BLAND ARTHUR L      2 AVENAL RD                             000N        CARE OF             
MTR06904000001000000000000000RA              30526685    005801470000014700000520000003NN  NNW 000                       N    
RDG06904000WATRL000000004K00000000000000000014712172015094708S001000000000UFC08     000010400K 10000000010000003410           
CUS0690400000104080261003         COULSON DOLORES A   1 AVENAL RD                             000N        CARE OF             
MTR06904000001000000000000000RA              35117624    005801480000014800000520000003NN  NNW 000                       N    
RDG06904000WATRL000000004K00000000000000000014812172015094709S001000000000UFC08     000010400K 10000000010000001710           
CUS0690400000104080262001         JACOBS KEITH R      3 AVENAL RD                             000N        CARE OF             
MTR06904000001000000000000000RA              35117673    005801490000014900000520000003NN  NNW 000                       N    
RDG06904000WATRL000000004K00000000000000000014912172015094710S001000000000UFC08     000010400K 10000000010000000968           
CUS0690400000104080263009         BLAND ELTON M       5 AVENAL RD                             000N        CARE OF             
MTR06904000001000000000000000RA              35117628    005801500000015000000520000003NN  NNW 000                       N    
RDG06904000WATRL000000004K00000000000000000015012172015094711S001000000000UFC08     000010400K 10000000010000005368           
CUS0690400000104080264007         SHEW ANTHONY JOSEPH 7 AVENAL RD                             000N        CARE OF             
MTR06904000001000000000000000RA              35117650    005801510000015100000520000003NN  NNW 000                       N    
RDG06904000WATRL000000004K00000000000000000015112172015094712S001000000000UFC08     000010400K 10000000010000002241           
CUS0690400000104080265004         AVENAL,LLC          9 AVENAL RD                             000N        CARE OF             
MTR06904000001000000000000000RA              35117676    005801520000015200000520000003NN  NNW 000                       N    
RDG06904000WATRL000000004K00000000000000000015212172015094713S001000000000UFC08     000010400K 10000000010000002066           
CUS0690400000104080266002         WOODARD WESLEY      11 AVENAL RD                            000N        CARE OF             
MTR06904000001000000000000000RA              10017407    005801530000015300000570000003NN  NNW 000                       N    
RDG06904000WATRL000000004K00000000000000000015312172015094715S001000000000UFC08     000020400K 10000000010000000321           
CUS0690400000104080267000         REED, DALE A        13 AVENAL RD                            000N        CARE OF             
MTR06904000001000000000000000RA              24230718    005801540000015400000520000003NN  NNW 000                       N    
RDG06904000WATRL000000004K00000000000000000015412172015094718S001000000000UFC08     000030400K 10000000010000003445           
CUS0690400000104080268008         SABINA HOLLOBAUGH   15 AVENAL RD                            000N        CARE OF             
MTR06904000001000000000000000RA              35117652    005801550000015500000520000003NN  NNW 000                       N    
RDG06904000WATRL000000004K00000000000000000015512172015094719S001000000000UFC08     000010400K 10000000010000002096           
CUS0690400000104080269006         MONICA RODE         17 AVENAL RD                            000N        CARE OF             
MTR06904000001000000000000000RA              35117649    005801560000015600000520000003NN  NNW 000                       N    
RDG06904000WATRL000000004K00000000000000000015612172015094720S001000000000UFC08     000010400K 10000000010000001810           
CUS0690400000104080270004         TIPPET MICHEAL ANDRE17 RIVERSIDE RD                         000N        CARE OF             
MTR06904000001000000000000000RA              35099226    005801570000015700000520000003NN  NNW 000                       N    
RDG06904000WATRL000000004K00000000000000000015712172015094721S001000000000UFC08     000010400K 10000000010000001197           
CUS0690400000104080271002         POSTERLI ENTERPRISES19 RIVERSIDE RD                         000N        CARE OF             
MTR06904000001000000000000000RA              35098899    005801580000015800000520000003NN  NNW 000                       N    
RDG06904000WATRL000000004K00000000000000000015812172015094721S001000000000UFC08     000000400K 10000000010000003504           
CUS0690400000104080272000         DONNA MERENDA       21 RIVERSIDE RD                         000N        CARE OF             
MTR06904000001000000000000000RA              76345912    005801590000015900000350000003NN  NNW 000                       N    
RDG06904000WATRL000000004K00000000000000000015912172015094722S001000000000UFC08     000010400K 10000000010000000030           
CUS0690400000104080273008         SLEVIN THOMAS JOHN  23 RIVERSIDE RD                         000N        CARE OF             
MTR06904000001000000000000000RA              35109643    005801600000016000000520000003NN  NNW 000                       N    
RDG06904000WATRL000000004K00000000000000000000000000000000000 000000000000U         000000400  10000000010000005290           
CUS0690400000104080274006         DEMPSY JEREMY       18 RIDGEMOOR RD                         000N        CARE OF             
MTR06904000001000000000000000RA              75615731    005801610000016100000350000003NN  NNW 000                       N    
RDG06904000WATRL000000004K00000000000000000016012172015094727S001000000000UFC08     000050400K 10000000010000000200           
CUS0690400000104080275003         DRURY ROBERT L      16 RIDGEMOOR RD                         000N        CARE OF             
MTR06904000001000000000000000RA              41074465    005801620000016200000520000003NN  NNW 000                       N    
RDG06904000WATRL000000004K00000000000000000016112172015094729S001000000000UFC08     000020400K 10000000010000002031           
CUS0690400000104080276001         HAMILL DAVID D      14 RIDGEMOOR RD                         000N        CARE OF             
MTR06904000001000000000000000RA              33732859    005801630000016300000520000003NN  NNW 000                       N    
RDG06904000WATRL000000004K00000000000000000016212172015094730S001000000000UFC08     000010400K 10000000010000002091           
CUS0690400000104080277009         FERRARI ANGELO N    12 RIDGEMOOR RD                         000N        CARE OF             
MTR06904000001000000000000000RA              30526750    005801640000016400000520000003NN  NNW 000                       N    
RDG06904000WATRL000000004K00000000000000000016312172015094731S001000000000UFC08     000010400K 10000000010000002284           
CUS0690400000104080278007         SHENTON GLADYS L    10 RIDGEMOOR RD                         000N        CARE OF             
MTR06904000001000000000000000RA              31580413    005801650000016500000520000003NN  NNW 000                       N    
RDG06904000WATRL000000004K00000000000000000016412172015094732S001000000000UFC08     000010400K 10000000010000002143           
CUS0690400000104080279005         RACHEL BOCKNER      8 RIDGEMOOR RD                          000N        CARE OF             
MTR06904000001000000000000000RA              75423835    005801660000016600000350000003NN  NNW 000                       N    
RDG06904000WATRL000000004K00000000000000000016512172015094805S001000000000UFC08     000330400K 10000000010000000055           
CUS0690400000104080280003         MAANS WAYNE T       6 RIDGEMOOR RD                          000N        CARE OF             
MTR06904000001000000000000000RA              27827097    005801670000016700000520000003NN  NNW 000                       N    
RDG06904000WATRL000000004K00000000000000000016612172015094808S001000000000UFC08     000030400K 10000000010000005293           
CUS0690400000104080281001         RINKER BRIAN J      4 RIDGEMOOR RD                          000N        CARE OF             
MTR06904000001000000000000000RA              10009170    005801680000016800000570000003NN  NNW 000                       N    
RDG06904000WATRL000000004K00000000000000000016712172015094810S001000000000UFC08     000020400K 10000000010000000487           
CUS0690400000104080282009         LITTLE JAMES E,JR   2 RIDGEMOOR RD                          000N        CARE OF             
MTR06904000001000000000000000RA              27829739    005801690000016900000520000003NN  NNW 000                       N    
RDG06904000WATRL000000004K00000000000000000016812172015094813S001000000000UFC08     000030400K 10000000010000002446           
CUS0690400000104080283007         HANS EUGENE J,JR    1 RIDGEMOOR RD                          000N        CARE OF             
MTR06904000001000000000000000RA              33732940    005801700000017000000520000003NN  NNW 000                       N    
RDG06904000WATRL000000004K00000000000000000016912172015094832S001000000000UFC08     000190400K 10000000010000002601           
CUS0690400000104080284005         MARK MASON ZEMBOWER 3 RIDGEMOOR RD                          000N        CARE OF             
MTR06904000001000000000000000RA              33732939    005801710000017100000520000003NY  NNW 000                       N    
MTM0690400033732939    CLEANOUT                                                                                               
RDG06904000WATRL000000004K00000000000000000000000000000000000 000000000000U         000000400  10000000010000001170           
CUS0690400000104080285002         JOHN A. DUKE        5 RIDGEMOOR RD                          000N        CARE OF             
MTR06904000001000000000000000RA              44093383    005801720000017200000520000003NN  NNW 000                       N    
RDG06904000WATRL000000004K00000000000000000017012172015094837S001000000000UFC08     000050400K 10000000010000003686           
CUS0690400000104080286000         NAPOLITANO CHRISTINE7 RIDGEMOOR RD                          000N        CARE OF             
MTR06904000001000000000000000RA              00130879    005801730000017300000570000003NN  NNW 000                       N    
RDG06904000WATRL000000004K00000000000000000017112172015094838S001000000000UFC08     000010400K 10000000010000000621           
CUS0690400000104080287008         CARSON W DAVID      9 RIDGEMOOR RD                          000N        CARE OF             
MTR06904000001000000000000000RA              14903827    005801740000017400000310000003NN  NNW 000                       N    
RDG06904000WATRL000000004K00000000000000000017212172015094839S001000000000UFC08     000010400K 10000000010000000411           
CUS0690400000104080288006         HARRIS GUY RAYMOND  11 RIDGEMOOR RD                         000N        CARE OF             
MTR06904000001000000000000000RA              24760379    005801750000017500000520000003NN  NNW 000                       N    
RDG06904000WATRL000000004K00000000000000000017312172015094840S001000000000UFC08     000010400K 10000000010000002621           
CUS0690400000104080289004         HAAS DONALD J,3RD   13 RIDGEMOOR RD                         000N        CARE OF             
MTR06904000001000000000000000RA              75615727    005801760000017600000350000003NN  NNW 000                       N    
RDG06904000WATRL000000004K00000000000000000017412172015094841S001000000000UFC08     000010400K 10000000010000000184           
CUS0690400000104080290002         LONG JAMES L,SR     15 RIDGEMOOR RD                         000N        CARE OF             
MTR06904000001000000000000000RA              30518159    005801770000017700000520000003NN  NNW 000                       N    
RDG06904000WATRL000000004K00000000000000000017512172015094842S001000000000UFC08     000010400K 10000000010000002202           
CUS0690400000104080291000         CRITES WILLIAM C    17 RIDGEMOOR RD                         000N        CARE OF             
MTR06904000001000000000000000RA              33732941    005801780000017800000520000003NN  NNW 000                       N    
RDG06904000WATRL000000004K00000000000000000017612172015094843S001000000000UFC08     000010400K 10000000010000001974           
CUS0690400000104080292008         CRITES WILLIAM C    19 RIDGEMOOR RD                         000N        CARE OF             
MTR06904000001000000000000000RA              10008526    005801790000017900000570000003NN  NNW 000                       N    
RDG06904000WATRL000000004K00000000000000000017712172015094844S001000000000UFC08     000010400K 10000000010000000191           
CUS0690400000104080293006         RESSLER JONATHAN P  21 RIDGEMOOR RD                         000N        CARE OF             
MTR06904000001000000000000000RA              22609657    005801800000018000000520000003NN  NNW 000                       N    
RDG06904000WATRL000000004K00000000000000000017812172015094845S001000000000UFC08     000010400K 10000000010000001733           
CUS0690400000104080294004         HOLT DAVID M        23 RIDGEMOOR RD                         000N        CARE OF             
MTR06904000001000000000000000RA              33083073    005801810000018100000520000003NY  NNW 000                       N    
MTM0690400033083073    CLEANOUT                                                                                               
RDG06904000WATRL000000004K00000000000000000000000000000000000 000000000000U         000000400  10000000010000000704           
CUS0690400000104080295001         HASKINS MARVIN L    42 RIVERSIDE RD                         000N        CARE OF             
MTR06904000001000000000000000RA              35098892    005801820000018200000520000003NN  NNW 000                       N    
RDG06904000WATRL000000004K00000000000000000017912172015094849S001000000000UFC08     000040400K 10000000010000002864           
CUS0690400000104080296009         ALLEN-HUSKEY ELLA I 40 RIVERSIDE RD                         000N        CARE OF             
MTR06904000001000000000000000RA              35099959    005801830000018300000520000003NN  NNW 000                       N    
RDG06904000WATRL000000004K00000000000000000018012172015094849S001000000000UFC08     000000400K 10000000010000001991           
CUS0690400000104080297007         VOGEL ELIZABETH M   38 RIVERSIDE RD                         000N        CARE OF             
MTR06904000001000000000000000RA              78023635    005801840000018400000360000003NN  NNW 000                       N    
RDG06904000WATRL000000004K00000000000000000018112172015094850S001000000000UFC08     000010400K 10000000010000000052           
CUS0690400000104080298005         CAMALIER THOMAS     36 RIVERSIDE RD                         000N        CARE OF             
MTR06904000001000000000000000RA              30518092    005801850000018500000520000003NN  NNW 000                       N    
RDG06904000WATRL000000004K00000000000000000018212172015094851S001000000000UFC08     000010400K 10000000010000002563           
CUS0690400000104080299003         LEPUS ROBERT        34 RIVERSIDE RD                         000N        CARE OF             
MTR06904000001000000000000000RA              26005589    005801860000018600000520000003NN  NNW 000                       N    
RDG06904000WATRL000000004K00000000000000000018312172015094852S001000000000UFC08     000010400K 10000000010000002058           
CUS0690400000104080300009         ROCK CHARLES        32 RIVERSIDE RD                         000N        CARE OF             
MTR06904000001000000000000000RA              99388480    005801870000018700000570000003NN  NNW 000                       N    
RDG06904000WATRL000000004K00000000000000000018412172015094859S001000000000UFC08     000070400K 10000000010000001094           
CUS0690400000104080301007         VARGO GEORGE W,3RD  30 RIVERSIDE RD                         000N        CARE OF             
MTR06904000001000000000000000RA              10008527    005801880000018800000570000003NN  NNW 000                       N    
RDG06904000WATRL000000004K00000000000000000018512172015094900S001000000000UFC08     000010400K 10000000010000000348           
CUS0690400000104080302005         PEREZ SANDERS       28 RIVERSIDE RD                         000N        CARE OF             
MTR06904000001000000000000000RA              14903873    005801890000018900000310000003NN  NNW 000                       N    
RDG06904000WATRL000000004K00000000000000000018612172015094901S001000000000UFC08     000010400K 10000000010000001400           
CUS0690400000104080303003         DENNIS HERBERT K    26 RIVERSIDE RD                         000N        CARE OF             
MTR06904000001000000000000000RA              35099220    005801900000019000000520000003NN  NNW 000                       N    
RDG06904000WATRL000000004K00000000000000000018712172015094902S001000000000UFC08     000010400K 10000000010000003194           
CUS0690400000104080304001         DILLINGHAM PATRICIA 24 RIVERSIDE RD                         000N        CARE OF             
MTR06904000001000000000000000RA              14917625    005801910000019100000310000003NN  NNW 000                       N    
RDG06904000WATRL000000004K00000000000000000018812172015094903S001000000000UFC08     000010400K 10000000010000000474           
CUS0690400000104080305008         ROHRMAN HERMAN WILLI22 RIVERSIDE RD                         000N        CARE OF             
MTR06904000001000000000000000RA              35098890    005801920000019200000520000003NN  NNW 000                       N    
RDG06904000WATRL000000004K00000000000000000018912172015094904S001000000000UFC08     000010400K 10000000010000002322           
CUS0690400000104080306006         KAUFFMAN HAROLD L,JR20 RIVERSIDE RD                         000N        CARE OF             
MTR06904000001000000000000000RA              35099225    005801930000019300000520000003NN  NNW 000                       N    
RDG06904000WATRL000000004K00000000000000000019012172015094905S001000000000UFC08     000010400K 10000000010000002681           
CUS0690400000104080307004         DEEMS NICOLE        18 RIVERSIDE RD                         000N        CARE OF             
MTR06904000001000000000000000RA              29082986    005801940000019400000520000003NN  NNW 000                       N    
RDG06904000WATRL000000004K00000000000000000019112172015094906S001000000000UFC08     000010400K 10000000010000003085           
CUS0690400000104080308002         MORRISON KENNETH    16 RIVERSIDE RD                         000N        CARE OF             
MTR06904000001000000000000000RA              35098878    005801950000019500000520000003NY  NNW 000                       N    
MTM0690400035098878    CLEANOUT                                                                                               
RDG06904000WATRL000000004K00000000000000000000000000000000000 000000000000U         000000400  10000000010000001604           
CUS0690400000104080309000         BENNETT TIMOTHY C   14 RIVERSIDE RD                         000N        CARE OF             
MTR06904000001000000000000000RA              35098822    005801960000019600000520000003NN  NNW 000                       N    
RDG06904000WATRL000000004K00000000000000000019212172015094909S001000000000UFC08     000030400K 10000000010000001337           
CUS0690400000104080310008         COOPER DAVID R,JR   12 RIVERSIDE RD                         000N        CARE OF             
MTR06904000001000000000000000RA              35098889    005801970000019700000520000003NN  NNW 000                       N    
RDG06904000WATRL000000004K00000000000000000019312172015094910S001000000000UFC08     000010400K 10000000010000003764           
CUS0690400000104080311006         CARSON JASON MATTHEW10 RIVERSIDE RD                         000N        CARE OF             
MTR06904000001000000000000000RA              26004364    005801980000019800000520000003NN  NNW 000                       N    
RDG06904000WATRL000000004K00000000000000000019412172015094911S001000000000UFC08     000010400K 10000000010000002902           
CUS0690400000104080312004         MARY DIX            8 RIVERSIDE RD                          000N        CARE OF             
MTR06904000001000000000000000RA              35098374    005801990000019900000520000003NN  NNW 000                       N    
RDG06904000WATRL000000004K00000000000000000019512172015094912S001000000000UFC08     000010400K 10000000010000001415           
CUS0690400000104080313002         JIPSON CHRISTOPHER P6 RIVERSIDE RD                          000N        CARE OF             
MTR06904000001000000000000000RA              35098884    005802000000020000000520000003NN  NNW 000                       N    
RDG06904000WATRL000000004K00000000000000000019612172015094913S001000000000UFC08     000010400K 10000000010000001675           
CUS0690400000104080314000         ALISEA DAISY A      4 RIVERSIDE RD                          000N        CARE OF             
MTR06904000001000000000000000RA              35098384    005802010000020100000520000003NN  NNW 000                       N    
RDG06904000WATRL000000004K00000000000000000019712172015094914S001000000000UFC08     000010400K 10000000010000003966           
CUS0690400000104080315007         KOBAL JEFFREY M     2A RIVERSIDE RD                         000N        CARE OF             
MTR06904000001000000000000000RA              35098895    005802020000020200000520000003NN  NNW 000                       N    
RDG06904000WATRL000000004K00000000000000000019812172015094915S001000000000UFC08     000010400K 10000000010000005018           
CUS0690400000104080316005         CORNIAS MICHAEL G   2 RIVERSIDE RD                          000N        CARE OF             
MTR06904000001000000000000000RA              39080230    007502030000020300000520000003NN  NNW 000                       N    
RDG06904000WATRL000000004K00000000000000000019912172015094916S001000000000UFC08     000010400K 10000000010000000866           
RTR06904000NN02010203000002010000000202030203000039NY020302030203000401980000000000000000000002    12142015NY020000 N         
RHD06909000NN00300218000000300000018802180218000052NY021802180218001100110000000000000000000002    12142015NY020000 N         
CUS0690900000104082654007         SG MARYLAND LLC     1600 EASTERN BLVD                       000N        CARE OF             
MTR06909000001000000000000000RA              33084081    001500010000000100000520000003NN  NNW 000                       N    
RDG06909000WATRL000000005K00000000000000000000000000000000000 000000000000U         000000500  10000000010000002822           
CUS0690900000104082655004         KAIVAL INC          1602 EASTERN BLVD                       000N        CARE OF             
MTR06909000001000000000000000RA              00136911    005800020000000200000570000003NN  NNW 000                       N    
RDG06909000WATRL000000004K00000000000006905000112172015085828N000000000000U40       000000400K 10000000010000006583           
CUS0690900000104082656002         HAMIDIZADEH NASSER  1604 EASTERN BLVD                       000N        CARE OF             
MTR06909000001000000000000000RA              27812702    005800030000000300000520000003NN  NNW 000                       N    
RDG06909000WATRL000000004K00000000000000000000000000000000000 000000000000U         000000400  10000000010000002927           
CUS0690900000104082657000         GIANT OF MARYLAND IN116 STEMMERS RUN RD                     000N        CARE OF             
MTR06909000001000000000000000RA              00136911    005800040000000400000570000003NN  NNW 000                       N    
RDG06909000WATRL000000004K00000000000000000000000000000000000 000000000000U         000000400  10000000010000006563           
CUS0690900000104082658008         GIANT OF MARYLAND IN118 STEMMERS RUN RD                     000N        CARE OF             
MTR06909000001000000000000000RA              99999999    005800050000000500000620000003NN  NNW 000                       N    
RDG06909000WATRL000000004K00000000000000000000000000000000000 000000000000U         000000400  10000000010000000628           
CUS0690900000104082659006         CORP OF THE PRESDNG 120 STEMMERS RUN RD                     000N        CARE OF             
MTR06909000001000000000000000RA              27132719    005800060000000600000520000003NN  NNW 000                       N    
RDG06909000WATRL000000004K00000000000000555000212172015090142N000300000010U40       001940400K 10000000010000001394           
CUS0690900000104419614005         GILBERT CONRAD G    212 STEMMERS RUN RD                     000N        CARE OF             
MTR06909000001000000000000000RA              79853767    005800070000000700000360000003NN  NNW 000                       N    
RDG06909000WATRL000000004R00000000000000004000312172015090220N000300000010U40       000380400R 10000000010000000000           
RFF0690900070432542      ERT      0000  956.4437500014000012172015090217     41156100W 1220000N                               
CUS0690900000104422014003         DAVENPORT CHARLES R 214 STEMMERS RUN RD                     000N        CARE OF             
MTR06909000001000000000000000RA              79853762    005800080000000800000360000003NN  NNW 000                       N    
RDG06909000WATRL000000004R00000000000000002000412172015090223N000300000010U40       000030400R 10000000010000000000           
RFF0690900070432525      ERT      0000  956.4437500014000012172015090222     23716100W 1220000N                               
CUS0690900000104428561007         JONES RICKIE LEE,SR 216 STEMMERS RUN RD                     000N        CARE OF             
MTR06909000001000000000000000RA              79853764    005800090000000900000360000003NN  NNW 000                       N    
RDG06909000WATRL000000004R00000000000000004000512172015090224N000300000010U40       000010400R 10000000010000000000           
RFF0690900070432533      ERT      0000  956.4437500014000012172015090224     40853100W 1220000N                               
CUS0690900000104418141000         LEE YILIN YAN       224 STEMMERS RUN RD                     000N        CARE OF             
MTR06909000001000000000000000RA              79853765    005800100000001000000360000003NN  NNW 000                       N    
RDG06909000WATRL000000004R00000000000000002002112172015090610N000300000010U40       000330400R 10000000010000000000           
RFF0690900070432555      ERT      0000  956.4437500014000012172015090610     23537100W 1220000N                               
CUS0690900000104418140002         PUBLICO PAMELA D    226 STEMMERS RUN RD                     000N        CARE OF             
MTR06909000001000000000000000RA              79853763    005800110000001100000360000003NN  NNW 000                       N    
RDG06909000WATRL000000004R00000000000000004002212172015090612N000300000010U40       000020400R 10000000010000000000           
RFF0690900070432554      ERT      0000  956.4437500014000012172015090611     43166100W 1220000N                               
CUS0690900000104418139004         HUFFMAN ARTUS WILLIE1 BRENDA LEE CT                         000N        CARE OF             
MTR06909000001000000000000000RA              79824753    005800120000001200000360000003NN  NNW 000                       N    
RDG06909000WATRL000000004R00000000000000005000612172015090326N000300000010U40       000620400R 10000000010000000000           
RFF0690900070367255      ERT      0000  956.4437500014000012172015090324     57103100W 1220000N                               
CUS0690900000104418143006         KRACH KENNETH J,JR  3 BRENDA LEE CT                         000N        CARE OF             
MTR06909000001000000000000000RA              79824752    005800130000001300000360000003NN  NNW 000                       N    
RDG06909000WATRL000000004R00000000000000001000712172015090327N000300000010U40       000010400R 10000000010000000000           
RFF0690900070367226      ERT      0000  956.4437500014000012172015090327     17841100W 1220000N                               
CUS0690900000104418144004         ROSE SEAN J         5 BRENDA LEE CT                         000N        CARE OF             
MTR06909000001000000000000000RA              79824749    005800140000001400000360000003NN  NNW 000                       N    
RDG06909000WATRL000000004R00000000000000005000812172015090348N000300000010U40       000210400R 10000000010000000000           
RFF0690900070365445      ERT      0000  956.4437500014000012172015090347     53397100W 1220000N                               
CUS0690900000104418146009         TIBO JOSE R         7 BRENDA LEE CT                         000N        CARE OF             
MTR06909000001000000000000000RA              79824754    005800150000001500000360000003NN  NNW 000                       N    
RDG06909000WATRL000000004R00000000000000004000912172015090349N000300000010U40       000010400R 10000000010000000000           
RFF0690900070367252      ERT      0000  956.4437500014000012172015090348     49272100W 1220000N                               
CUS0690900000104418147007         RATAJCZAK LOUIS J JR9 BRENDA LEE CT                         000N        CARE OF             
MTR06909000001000000000000000RA              79824757    005800160000001600000360000003NN  NNW 000                       N    
RDG06909000WATRL000000004R00000000000000004001012172015090408N000300000010U40       000190400R 10000000010000000000           
RFF0690900070367250      ERT      0000  956.4437500014000012172015090407     40014100W 1220000N                               
CUS0690900000104418148005         RIDER TERRY L       11 BRENDA LEE CT                        000N        CARE OF             
MTR06909000001000000000000000RA              79824748    005800170000001700000360000003NN  NNW 000                       N    
RDG06909000WATRL000000004R00000000000000010001112172015090409N000300000010U40       000010400R 10000000010000000000           
RFF0690900070365430      ERT      0000  956.4437500014000012172015090409    107972100W 1220000N                               
CUS0690900000104418149003         JOHN J CLARK JR     15 BRENDA LEE CT                        000N        CARE OF             
MTR06909000001000000000000000RA              75424505    005800180000001800000350000003NN  NNW 000                       N    
RDG06909000WATRL000000004R00000000000000183001212172015090410N000300000010U40       000010400R 10000000010000000179           
RFF0690900070367510      ERT      0000  956.4437500014000012172015090410   1830907100W 1220000N                               
CUS0690900000104418150001         AYR PROPERTIES SEP L12 BRENDA LEE CT                        000N        CARE OF             
MTR06909000001000000000000000RA              79824750    005800190000001900000360000003NN  NNW 000                       N    
RDG06909000WATRL000000004R00000000000000008001312172015090411N000300000010U40       000010400R 10000000010000000000           
RFF0690900070365452      ERT      0000  956.4437500014000012172015090411     80569100W 1220000N                               
CUS0690900000104418151009         YAN KIN KUEN        10 BRENDA LEE CT                        000N        CARE OF             
MTR06909000001000000000000000RA              79824848    005800200000002000000360000003NN  NNW 000                       N    
RDG06909000WATRL000000004R00000000000000007001412172015090412N000300000010U40       000010400R 10000000010000000000           
RFF0690900070366238      ERT      0000  956.4437500014000012172015090412     79073100W 1220000N                               
CUS0690900000104418152007         ASHLEY LYNN O'REAR  8 BRENDA LEE CT                         000N        CARE OF             
MTR06909000001000000000000000RA              79824851    005800210000002100000360000003NN  NNW 000                       N    
RDG06909000WATRL000000004R00000000000000003001512172015090414N000300000010U40       000020400R 10000000010000000000           
RFF0690900070366231      ERT      0000  956.4437500014000012172015090413     31267100W 1220000N                               
CUS0690900000104418153005         MASON CRAIG CLAUDE  6 BRENDA LEE CT                         000N        CARE OF             
MTR06909000001000000000000000RA              79824756    005800220000002200000360000003NN  NNW 000                       N    
RDG06909000WATRL000000004R00000000000000001001612172015090415N000300000010U40       000010400R 10000000010000000000           
RFF0690900070367235      ERT      0000  956.4437500014000012172015090414     14506100W 1220000N                               
CUS0690900000104418154003         GOINS JAMES A       4 BRENDA LEE CT                         000N        CARE OF             
MTR06909000001000000000000000RA              79824755    005800230000002300000360000003NN  NNW 000                       N    
RDG06909000WATRL000000004R00000000000000008001712172015090438N000300000010U40       000230400R 10000000010000000000           
RFF0690900070367263      ERT      0000  956.4437500014000012172015090438     81140100W 1220000N                               
CUS0690900000104418155000         TOLLINCHE DHANRAJI S2 BRENDA LEE CT                         000N        CARE OF             
MTR06909000001000000000000000RA              48591729    005800240000002400000520000003NN  NNW 000                       N    
RDG06909000WATRL000000004K00000000000001492002012172015090537N000000000020U40       000440400K 10000000010000001478           
CUS0690900000104082660004         SOUZA WILLIAM F     240 STEMMERS RUN RD                     000N        CARE OF             
MTR06909000001000000000000000RA              78005423    005800250000002500000360000003NN  NNW 000                       N    
RDG06909000WATRL000000004R00000000000000220001812172015090451N000300000010U40       000130400R 10000000010000000217           
RFF0690900070131267      ERT      0000  956.4437500014000012172015090451   2206739100W 1220000N                               
CUS0690900000104082661002         DEMSKI CHRISTOPHER M613 NORRIS LN                           000N        CARE OF             
MTR06909000001000000000000000RA              79852838    005800260000002600000360000003NN  NNW 000                       N    
RDG06909000WATRL000000004R00000000000000006001912172015090453N000300000010U40       000020400R 10000000010000000000           
RFF0690900070229439      ERT      0000  956.4437500014000012172015090452     65456100W 1220000N                               
CUS0690900000104397497001         HEFLIN JEAN G       615 NORRIS LN                           000N        CARE OF             
MTR06909000001000000000000000RA              79852840    005800270000002700000360000003NN  NNW 000                       N    
RDG06909000WATRL000000004R00000000000000001002312172015090632N000300000010U40       000200400R 10000000010000000000           
RFF0690900070226797      ERT      0000  956.4437500014000012172015090632     14297100W 1220001N                               
CUS0690900000104397498009         MILLER HAROLD W     617 NORRIS LN                           000N        CARE OF             
MTR06909000001000000000000000RA              79852876    005800280000002800000360000003NN  NNW 000                       N    
RDG06909000WATRL000000004R00000000000000007002412172015090738N000300000010U40       000660400R 10000000010000000000           
RFF0690900070229524      ERT      0000  956.4437500014000412172015090724     75520100W 1220001N                               
CUS0690900000104397499007         RICCI MICHAEL D     619 NORRIS LN                           000N        CARE OF             
MTR06909000001000000000000000RA              79852874    005800290000002900000360000003NN  NNW 000                       N    
RDG06909000WATRL000000004R00000000000000006002512172015090739N000300000010U40       000010400R 10000000010000000000           
RFF0690900070229538      ERT      0000  956.4437500014000012172015090739     65252100W 1220000N                               
CUS0690900000104082662000         SLAGENWEIT ANDREW H 701 NORRIS LN                           000N        CARE OF             
MTR06909000001000000000000000RA              79852879    005800300000003000000360000003NN  NNW 000                       N    
RDG06909000WATRL000000004R00000000000000010002612172015090741N000300000010U40       000020400R 10000000010000000000           
RFF0690900070228529      ERT      0000  956.4437500014000412172015090740    104705100W 1220000N                               
CUS0690900000104082663008         FRIEDEL CHARLES C   703 NORRIS LN                           000N        CARE OF             
MTR06909000001000000000000000RA              79831427    005800310000003100000360000003NN  NNW 000                       N    
RDG06909000WATRL000000004R00000000000000003002712172015090742N000300000010U40       000010400R 10000000010000000000           
RFF0690900070364951      ERT      0000  956.4437500014000012172015090742     34953100W 1220000N                               
CUS0690900000104082664006         MINOR KENNETH E     707 NORRIS LN                           000N        CARE OF             
MTR06909000001000000000000000RA              2423256     005800320000003200000520000003NN  NNW 000                       N    
RDG06909000WATRL000000004K00000000000006011002912172015090851N000000000000U40       000160400K 10000000010000006006           
CUS0690900000104082665003         HORNE JOHN H        711 NORRIS LN                           000N        CARE OF             
MTR06909000001000000000000000RA              2423257     005800330000003300000520000003NN  NNW 000                       N    
RDG06909000WATRL000000004K00000000000001861004512172015091006N000000000000U40       000210400K 10000000010000001861           
CUS0690900000104082666001         TIPTON WADE         715 NORRIS LN                           000N        CARE OF             
MTR06909000001000000000000000RA              45387662    005800340000003400000520000003NN  NNW 000                       N    
RDG06909000WATRL000000004K00000000000000000004612172015091247S001000000000U40       001610400K 10000000010000002829           
CUS0690900000104082667009         HEBERT CARLA A      801 NORRIS LN                           000N        CARE OF             
MTR06909000001000000000000000RA              79831399    005800350000003500000360000003NN  NNW 000                       N    
RDG06909000WATRL000000004R00000000000000015002812172015090835N000300000010U40       000530400R 10000000010000000000           
RFF0690900070365371      ERT      0000  956.4437500014000012172015090835    158280100W 1220000N                               
CUS0690900000104383259001         COX LEONARD LEE,JR  803 NORRIS LN                           000N        CARE OF             
MTR06909000001000000000000000RA              79831396    005800360000003600000360000003NN  NNW 000                       N    
RDG06909000WATRL000000004R00000000000000003003012172015090905N000300000010U40       000140400R 10000000010000000000           
RFF0690900070365276      ERT      0000  956.4437500014000012172015090904     33429100W 1220001N                               
CUS0690900000104444767000         WELLER BARBARA J    805 NORRIS LN                           000N        CARE OF             
MTR06909000001000000000000000RA              79831395    005800370000003700000360000003NN  NNW 000                       N    
RDG06909000WATRL000000004R00000000000000004003112172015090906N000300000010U40       000010400R 10000000010000000000           
RFF0690900070365385      ERT      0000  956.4437500014000012172015090906     41324100W 1220000N                               
CUS0690900000104444770004         STOFFREGEN DAVID RAY807 NORRIS LN                           000N        CARE OF             
MTR06909000001000000000000000RA              79831394    005800380000003800000360000003NN  NNW 000                       N    
RDG06909000WATRL000000004R00000000000000003003212172015090908N000300000010U40       000020400R 10000000010000000000           
RFF0690900070365379      ERT      0000  956.4437500014000412172015090907     39333100W 1220000N                               
CUS0690900000104082668007         CIACHOWSKI GERARD   809 NORRIS LN                           000N        CARE OF             
MTR06909000001000000000000000RA              79831424    005800390000003900000360000003NN  NNW 000                       N    
RDG06909000WATRL000000004R00000000000000001003312172015090909N000300000010U40       000010400R 10000000010000000000           
RFF0690900070364949      ERT      0000  956.4437500014000012172015090909     12861100W 1220000N                               
CUS0690900000104082669005         RUTH PHILLIP H      811 NORRIS LN                           000N        CARE OF             
MTR06909000001000000000000000RA              79831425    005800400000004000000360000003NN  NNW 000                       N    
RDG06909000WATRL000000004R00000000000000010003412172015090911N000300000010U40       000020400R 10000000010000000000           
RFF0690900070365154      ERT      0000  956.4437500014000012172015090910    102442100W 1220000N                               
CUS0690900000104082670003         EVANS DENNIS G      815 NORRIS LN                           000N        CARE OF             
MTR06909000001000000000000000RA              14913094    005800410000004100000310000003NN  NNW 000                       N    
RDG06909000WATRL000000004K00000000000000000004712172015091556S001000000000U40       001890400K 10000000010000001208           
CUS0690900000104082671001         KELLER RICHARD A,SR 249 STEMMERS RUN RD                     000N        CARE OF             
MTR06909000001000000000000000RA              79853729    005800420000004200000360000003NN  NNW 000                       N    
RDG06909000WATRL000000004R00000000000000003003512172015090926N000300000010U40       000150400R 10000000010000000000           
RFF0690900070433138      ERT      0000  956.4437500014000012172015090925     39418100W 1220000N                               
CUS0690900000104082672009         MICHAEL A TURNER    247 STEMMERS RUN RD                     000N        CARE OF             
MTR06909000001000000000000000RA              79853728    005800430000004300000360000003NN  NNW 000                       N    
RDG06909000WATRL000000004R00000000000000001003612172015090927N000300000010U40       000010400R 10000000010000000000           
RFF0690900070433071      ERT      0000  956.4437500014000012172015090927     12801100W 1220000N                               
CUS0690900000104082673007         KOCH BERNARD C      245 STEMMERS RUN RD                     000N        CARE OF             
MTR06909000001000000000000000RA              79853726    005800440000004400000360000003NN  NNW 000                       N    
RDG06909000WATRL000000004R00000000000000000003712172015090928N000000000000U40       000010400R 10000000010000000000           
RFF0690900070433099      ERT      0000  956.4437500014000012172015090928        24100W 1220000N                               
CUS0690900000104082674005         HAWES JERRY B       243 STEMMERS RUN RD                     000N        CARE OF             
MTR06909000001000000000000000RA              79853755    005800450000004500000360000003NN  NNW 000                       N    
RDG06909000WATRL000000004R00000000000000001003812172015090930N000300000010U40       000020400R 10000000010000000000           
RFF0690900070433951      ERT      0000  956.4437500014000012172015090929     18211100W 1220000N                               
