FHDNNNN016002971002971002971N                                                                                           009389
RHD08610800NN03110311000003110000000003110311000515NY031103110311001200320000000000000000000002    11232015NY020000 N         
CUS0861080000108038757004         YOO FRED C          9802 LIBERTY RD                         000N        CARE OF             
MTR08610800001000000000000000RA              99412203    007500010000000100000570000003NY  NNW 000                       N    
MTM0861080099412203    MN CORRECT                                                                                             
RDG08610800WATRL000000004K00000000000001709000112142015083605N000000000000U83       000000400K 10000000010000001699           
CUS0861080000108038758002         MARRIOTTSVILLE II LL9804 LIBERTY RD                         000N        CARE OF             
MTR08610800001000000000000000RA              19463540    000100020000000200000520000003NY  NNW 000                       N    
MTM0861080019463540    OCCSAMEMTRNUM                                                                                          
RDG08610800WATRL000000004K00000000000005849000112142015083641N000400000010U85       000000400K 10000000010000005838           
CUS0861080000108038759000         MARRIOTTSVILLE LLC  9828 LIBERTY RD                         000N        CARE OF             
MTR08610800001000000000000000RA              52291404    000100030000000300000520000003NY  NNW 000                       N    
MTM0861080052291404    SAMEMTRNUM                                                                                             
RDG08610800WATRL000000004K00000000000003092000212142015083754N000000000000U85       000730400K 10000000010000002741           
CUS0861080000108038760008         KINGS POINT ASSOCIAT9900 LIBERTY RD                         000N        CARE OF             
MTR08610800001000000000000000RA              2912388     007500040000000400000530000003NN  NNW 000                       N    
RDG08610800WATRL000000004K00000000000000000000212142015083757S022000000000U83       001120400K 10000000010000004897           
CUS0861080000108038761006         KINGS POINT ASSOCIAT9920 LIBERTY RD                         000N        CARE OF             
MTR08610800001000000000000000RA              26979741    007500050000000500000520000003NN  NNW 000                       N    
RDG08610800WATRL000000004K00000000000000000000312142015083812S022000000000U83       000150400K 10000000010000002693           
CUS0861080000108038762004         LEE JONG DUK        9930 LIBERTY RD                         000N        CARE OF             
MTR08610800001000000000000000RA              99308844    007500060000000600000570000003NY  NNW 000                       N    
MTM0861080099308844    SAMEMTRNUM                                                                                             
RDG08610800WATRL000000004K00000000000002902000312142015084130N000000000000U85       002160400K 10000000010000002894           
CUS0861080000108038763002         LIBERTY RD VOL FIRE 10010 LIBERTY RD                        000N        CARE OF             
MTR08610800001000000000000000RA              52771389    007500070000000700000520000003NY  NNW 000                       N    
MTM0861080052771389    SAMEMTRNUM                                                                                             
RDG08610800WATRL000000004K00000000000005398000412142015084237N000000000000U85       000670400K 10000000010000005366           
CUS0861080000108394223005         G.L. WAGNER         10011 LIBERTY RD                        000N        CARE OF             
MTR08610800001000000000000000RA              38984801    005800080000000800000520000003NN  NNW 000                       N    
RDG08610800WATRL000000004K00000000000001749000512142015084323N000000000000U85       000460400K 10000000010000001739           
CUS0861080000108415391005         WOODS SHERMAN       10005 LIBERTY RD                        000N        CARE OF             
MTR08610800001000000000000000RA              46887370    005800090000000900000520000003NN  NNW 000                       N    
RDG08610800WATRL000000004K00000000000001772000612142015084429N000000000000U85       000660400K 10000000010000001757           
CUS0861080000108038764000         WALLACE WALDINE C   10003 LIBERTY RD                        000N        CARE OF             
MTR08610800001000000000000000RA              26010666    005800100000001000000520000003NY  NNW 000                       N    
MTM0861080026010666    SAMEMTRNUM                                                                                             
RDG08610800WATRL000000004K00000000000006402000712142015084515N000000000000U85       000460400K 10000000010000006344           
CUS0861080000108038765007         KIM CHANHO MACWEALTH10001 LIBERTY RD                        000N        CARE OF             
MTR08610800001000000000000000RA              48594699    005800110000001100000520000003NY  NNW 000                       N    
MTM0861080048594699    SAMEMTRNUM                                                                                             
RDG08610800WATRL000000004K00000000000002326000812142015084543N000000000000U85       000280400K 10000000010000002305           
CUS0861080000108038766005         EST OF WILLIAM REID 9935 LIBERTY RD                         000N        CARE OF             
MTR08610800001000000000000000RA              27814938    005800120000001200000520000003NY  NNW 000                       N    
MTM0861080027814938    MN CORRECT                                                                                             
RDG08610800WATRL000000004K00000000000002779000412142015084553N000300000010U83       004610400K 10000000010000002790           
CUS0861080000108038767003         HOLT JOSEPH R       9933 LIBERTY RD                         000N        CARE OF             
MTR08610800001000000000000000RA              01083934    005800130000001300000610000003NN  NNW 000                       N    
RDG08610800WATRL000000004K00000000000001570000912142015084731N000300000010U85       001080400K 10000000010000004431           
CUS0861080000108038768001         SMITH STUART  SMITH 9931 LIBERTY RD                         000N        CARE OF             
MTR08610800001000000000000000RA              14920046    005800140000001400000310000003NY  NNW 000                       N    
MTM0861080014920046    OCCSAMEMTRNUM                                                                                          
RDG08610800WATRL000000004K00000000000000220001012142015084833N000300000010U85       000620400K 10000000010000000225           
CUS0861080000104406726002         METTWALY TANIA      9921 LIBERTY RD                         000N        CARE OF             
MTR08610800001000000000000000RA              44092245    005800150000001500000520000003NN  NNW 000                       N    
RDG08610800WATRL000000004K00000000000002656000512142015085055N000000000000U83       003020400K 10000000010000002638           
CUS0861080000108038769009         GOSSETT WILLIE O    9917 LIBERTY RD                         000N        CARE OF             
MTR08610800001000000000000000RA              27265690    005800160000001600000520000003NY  NNW 000                       N    
MTM0861080027265690    SAMEMTRNUM                                                                                             
RDG08610800WATRL000000004K00000000000002750001112142015085039N000000000000U85       001260400K 10000000010000002742           
CUS0861080000108038770007         AKAPO PAUL A        9915 LIBERTY RD                         000N        CARE OF             
MTR08610800001000000000000000RA              27812497    005800170000001700000520000003NY  NNW 000                       N    
MTM0861080027812497    SAMEMTRNUM                                                                                             
RDG08610800WATRL000000004K00000000000002405001212142015085141N000000000000U85       000620400K 10000000010000002361           
CUS0861080000108373936007         ALVAN CUNNINGHAM    9911 LIBERTY RD                         000N        CARE OF             
MTR08610800001000000000000000RA              31586069    005800180000001800000520000003NY  NNW 000                       N    
MTM0861080031586069    SAMEMTRNUM                                                                                             
RDG08610800WATRL000000004K00000000000001899001312142015085243N000000000000U85       000620400K 10000000010000001888           
CUS0861080000108416850009         SOUTHSIDE OIL LLC   9835 LIBERTY RD                         000N        CARE OF             
MTR08610800001000000000000000RA              48581245    000100190000001900000520000003NY  NNW 000                       N    
MTM0861080048581245    SAMEMTRNUM                                                                                             
RDG08610800WATRL000000004K00000000000004548001412142015085503N000000000000U85       001400400K 10000000010000004484           
CUS0861080000108038772003         1ST MARINER BANK    9833 LIBERTY RD                         000N        CARE OF             
MTR08610800001000000000000000RA              43905190    007500200000002000000520000003NY  NNW 000                       N    
MTM0861080043905190    SAMEMTRNUM                                                                                             
RDG08610800WATRL000000004K00000000000002017001512142015090145N000000000000U85       004020400K 10000000010000002010           
CUS0861080000108038773001         LAGNAF PROPERTIES LL9825 LIBERTY RD                         000N        CARE OF             
MTR08610800001000000000000000RA              00119077    007500210000002100000570000003NY  NNW 000                       N    
MTM0861080000119077    SAMEMTRNUM                                                                                             
RDG08610800WATRL000000004K00000000000002666001612142015090236N000000000000U85       000510400K 10000000010000002565           
CUS0861080000108038774009         BETHEL CONGREGATION 9707A LIBERTY RD                        000N        CARE OF             
MTR08610800001000000000000000RA              27065239    007500220000002200000520000003NY  NNW 000                       N    
MTM0861080027065239    SAMEMTRNUM                                                                                             
RDG08610800WATRL000000004K00000000000008302001712142015090408N000000000000U85       000920400K 10000000010000008179           
CUS0861080000108038775006         CHEVRA AHAVAS CHESEDSWS LIBERTY RD                          000N        CARE OF             
MTR08610800001000000000000000RA              35100135    007500230000002300000520000003NY  NNW 000                       N    
MTM0861080035100135    SAMEMTRNUM                                                                                             
RDG08610800WATRL000000004K00000000000000824001812142015091004N000300000030U85       003560400K 10000000010000000811           
CUS0861080000108038777002         SHAAREI ZION CONGREG9713-15 LIBERTY RD                      000N        CARE OF             
MTR08610800001000000000000000RA              77884473    005800240000002400000360000003NN  NNW 000                       N    
RDG08610800WATRL000000004K00000000000000000000612142015090621N000000000000U83       009260400K 10000000010000000000           
CUS0861080000108038778000         SANDS ENTERPRISES LL9617 LIBERTY RD                         000N        CARE OF             
MTR08610800001000000000000000RA              26006134    005800250000002500000520000003NY  NNW 000                       N    
MTM0861080026006134    CONSTRUCTION                                                                                           
RDG08610800WATRL000000004K00000000000000000000000000000000000 000000000000U         000000400  10000000010000007723           
CUS0861080000108038776004         CONSTANCE PENNINGTON3728 LIVE OAK RD                        000N        CARE OF             
MTR08610800001000000000000000RA              77887595    005800260000002600000360000003NN  NNW 000                       N    
RDG08610800WATRL000000004K00000000000000015000712142015091512N000000000000U83       005310400K 10000000010000000005           
CUS0861080000108038779008         JOHNSON DONNELL     9601 LIBERTY RD                         000N        CARE OF             
MTR08610800001000000000000000RA              50478172    005800270000002700000520000003NY  NNW 000                       N    
MTM0861080050478172    SAMEMTRNUM                                                                                             
RDG08610800WATRL000000004K00000000000001137001912142015091428N000000000000U85       002640400K 10000000010000001131           
CUS0861080000108038781004         ALLAN M YOUNG       9539 LIBERTY RD                         000N        CARE OF             
MTR08610800001000000000000000RA              29679337    005800280000002800000520000003NY  NNW 000                       N    
MTM0861080029679337    SAMEMTRNUM                                                                                             
RDG08610800WATRL000000004K00000000000004457002012142015091454N000000000000U85       000260400K 10000000010000004440           
CUS0861080000108038780006         NESBIT JOHN         9537 LIBERTY RD                         000N        CARE OF             
MTR08610800001000000000000000RA              32900331    005800290000002900000520000003NY  NNW 000                       N    
MTM0861080032900331    SAMEMTRNUM                                                                                             
RDG08610800WATRL000000004K00000000000001681002112142015091458N000000000000U85       000040400K 10000000010000001672           
CUS0861080000108447384002         LEACH TONIQUE L     9320 MASTER DERBY DR                    000N        CARE OF             
MTR08610800001000000000000000RA              77896694    000100300000003000000350000003NN  NNW 000                       N    
RDG08610800WATRL000000004K00000000000000097004012142015094935N000000000000U83       000050400K 10000000010000000077           
CUS0861080000108447383004         C T CARRIAGE HILLS B9322 MASTER DERBY DR                    000N        CARE OF             
MTR08610800001000000000000000RA              77896695    000100310000003100000350000000NN  NNW 000                       N    
RDG08610800WATRL000000004K00000000000000027003912142015094930N000000000000U83       000530400K 10000000010000000022           
CUS0861080000108447382006         MILDRED D JOHNSON   9324 MASTER DERBY DR                    000N        CARE OF             
MTR08610800001000000000000000RA              77896691    000100320000003200000350000003NN  NNW 000                       N    
RDG08610800WATRL000000004K00000000000000114003812142015094837N000000000000U83       001580400K 10000000010000000090           
CUS0861080000108446950001         ERIC BLOUNT         9328 SILVER CHARM DR                    000N        CARE OF             
MTR08610800001000000000000000RA              78030212    000100330000003300000350000003NY  NNW 000                       N    
MTM0861080078030212    SAMEMTRNUM                                                                                             
RDG08610800WATRL000000004K00000000000000080005412142015095110N000000000001U85       001350400K 10000000010000000064           
CUS0861080000108446958004         VINEK KAISTHA       9330 SILVER CHARM DR                    000N        CARE OF             
MTR08610800001000000000000000RA              77896699    000100340000003400000350000003NY  NNW 000                       N    
MTM0861080077896699    VACSAMEMTRNUM                                                                                          
RDG08610800WATRL000000004K00000000000000019005312142015094855N000100000030U85       000110400K 10000000010000000019           
CUS0861080000108447380000         TIERRA HARPER       9328 MASTER DERBY DR                    000N        CARE OF             
MTR08610800001000000000000000RA              74816956    000100350000003500000350000003NN  NNW 000                       N    
RDG08610800WATRL000000004K00000000000000095003712142015094559N000000000000U83       000120400K 10000000010000000075           
CUS0861080000108446959002         JERMAINE FLUDD      9332 SILVER CHARM DR                    000N        CARE OF             
MTR08610800001000000000000000RA              77896700    000100360000003600000350000003NY  NNW 000                       N    
MTM0861080077896700    SAMEMTRNUM                                                                                             
RDG08610800WATRL000000004K00000000000000057005212142015094844N000000000000U85       000550400K 10000000010000000044           
CUS0861080000108446960000         PATRICE BENN        9334 SILVER CHARM DR                    000N        CARE OF             
MTR08610800001000000000000000RA              77896662    000100370000003700000350000003NY  NNW 000                       N    
MTM0861080077896662    SAMEMTRNUM                                                                                             
RDG08610800WATRL000000004K00000000000000080005112142015094749N000000000000U85       000120400K 10000000010000000063           
CUS0861080000108447379002         TRACY BOWERS        9330 MASTER DERBY DR                    000N        CARE OF             
MTR08610800001000000000000000RA              77896692    000100380000003800000350000003NN  NNW 000                       N    
RDG08610800WATRL000000004K00000000000000081003612142015094547N000000000000U83       000970400K 10000000010000000060           
CUS0861080000108446961008         PATRICK WARNER      9336 SILVER CHARM DR                    000N        CARE OF             
MTR08610800001000000000000000RA              77896661    000100390000003900000350000003NY  NNW 000                       N    
MTM0861080077896661    SAMEMTRNUM                                                                                             
RDG08610800WATRL000000004K00000000000000046005012142015094737N000000000000U85       000430400K 10000000010000000037           
CUS0861080000108446951009         JALISA BRISTOL      9338 SILVER CHARM DR                    000N        CARE OF             
MTR08610800001000000000000000RA              77896657    000100400000004000000350000003NY  NNW 000                       N    
MTM0861080077896657    SAMEMTRNUM                                                                                             
RDG08610800WATRL000000004K00000000000000046004912142015094654N000000000000U85       001860400K 10000000010000000036           
CUS0861080000108447378004         BRITTANY K JOHNSON  9332 MASTER DERBY DR                    000N        CARE OF             
MTR08610800001000000000000000RA              77896687    000100410000004100000350000003NN  NNW 000                       N    
RDG08610800WATRL000000004K00000000000000060003512142015094410N000000000000U83       000100400K 10000000010000000049           
CUS0861080000108447374003         ADRIENNE HALL       9340 MASTER DERBY DR                    000N        CARE OF             
MTR08610800001000000000000000RA              77896696    000100420000004200000350000003NN  NNW 000                       N    
RDG08610800WATRL000000004K00000000000000078003112142015094200N000000000000U83       003800400K 10000000010000000063           
CUS0861080000108447377006         HILL NATIA L        9334 MASTER DERBY DR                    000N        CARE OF             
MTR08610800001000000000000000RA              77896688    000100430000004300000350000003NN  NNW 000                       N    
RDG08610800WATRL000000004K00000000000000107003412142015094400N000000000000U83       000460400K 10000000010000000075           
CUS0861080000108447401004         ANGELIQUE SMITH     9319 MASTER DERBY DR                    000N        CARE OF             
MTR08610800001000000000000000RA              77896680    000100440000004400000350000003NY  NNW 000                       N    
MTM0861080077896680    SAMEMTRNUM                                                                                             
RDG08610800WATRL000000004K00000000000000052006512142015100124N000000000000U85       000040400K 10000000010000000039           
CUS0861080000108447398002         CECILE MUKANGARAMBE 9321 MASTER DERBY DR                    000N        CARE OF             
MTR08610800001000000000000000RA              77896679    000100450000004500000350000003NY  NNW 000                       N    
MTM0861080077896679    SAMEMTRNUMO                                                                                            
RDG08610800WATRL000000004K00000000000000149006412142015100120N000000000000U85       000920400K 10000000010000000117           
CUS0861080000108447376008         VALERIE NORRIS      9336 MASTER DERBY DR                    000N        CARE OF             
MTR08610800001000000000000000RA              77896689    000100460000004600000350000003NN  NNW 000                       N    
RDG08610800WATRL000000004K00000000000000074003312142015094314N000000000000U83       000080400K 10000000010000000052           
CUS0861080000108447395008         C T CARRIAGE HILLS B9323 MASTER DERBY DR                    000N        CARE OF             
MTR08610800001000000000000000RA              78030214    000100470000004700000350000003NY  NNW 000                       N    
MTM0861080078030214    SAMEMTRNUM                                                                                             
RDG08610800WATRL000000004K00000000000000024006312142015095948N000000000000U85       000030400K 10000000010000000019           
CUS0861080000108447394001         C T CARRIAGE HILLS B9325 MASTER DERBY DR                    000N        CARE OF             
MTR08610800001000000000000000RA              78030213    000100480000004800000350000003NY  NNW 000                       N    
MTM0861080078030213    SAMEMTRNUM                                                                                             
RDG08610800WATRL000000004K00000000000000020006212142015095945N000000000000U85       000920400K 10000000010000000016           
CUS0861080000108447375000         ROBERSON COLETTE    9338 MASTER DERBY DR                    000N        CARE OF             
MTR08610800001000000000000000RA              77896690    000100490000004900000350000003NN  NNW 000                       N    
RDG08610800WATRL000000004K00000000000000117003212222015164422O000000000010U93       000660400K 10000000010000000098           
CUS0861080000108447393003         C T CARRIAGE HILLS B9327 MASTER DERBY DR                    000N        CARE OF             
MTR08610800001000000000000000RA              78030209    000100500000005000000350000003NY  NNW 000                       N    
MTM0861080078030209    SAMEMTRNUM                                                                                             
RDG08610800WATRL000000004K00000000000000063006112142015095813N000000000000U85       000020400K 10000000010000000046           
CUS0861080000108447392005         CYNTHIA J. ADDISON  9329 MASTER DERBY DR                    000N        CARE OF             
MTR08610800001000000000000000RA              78030210    000100510000005100000350000003NY  NNW 000                       N    
MTM0861080078030210    SAMEMTRNUM                                                                                             
RDG08610800WATRL000000004K00000000000000049006012142015095811N000000000000U85       000470400K 10000000010000000037           
CUS0861080000108447391007         C T CARRIAGE HILLS B9331 MASTER DERBY DR                    000N        CARE OF             
MTR08610800001000000000000000RA              77897108    000100520000005200000350000003NY  NNW 000                       N    
MTM0861080077897108    SAMEMTRNUM                                                                                             
RDG08610800WATRL000000004K00000000000000046005912142015095724N000000000000U85       000020400K 10000000010000000036           
CUS0861080000108447390009         C T CARRIAGE HILLS B9333 MASTER DERBY DR                    000N        CARE OF             
MTR08610800001000000000000000RA              77897107    000100530000005300000350000003NY  NNW 000                       N    
MTM0861080077897107    SAMEMTRNUM                                                                                             
RDG08610800WATRL000000004K00000000000000101005812142015095722N000000000000U85       000450400K 10000000010000000069           
CUS0861080000108447389001         C T CARRIAGE HILLS B9335 MASTER DERBY DR                    000N        CARE OF             
MTR08610800001000000000000000RA              77897156    000100540000005400000360000003NY  NNW 000                       N    
MTM0861080077897156    SAMEMTRNUM                                                                                             
RDG08610800WATRL000000004K00000000000000076005712142015095637N000000000000U85       000080400K 10000000010000000056           
CUS0861080000108447388003         C T CAARRIAGE HILLS 9337 MASTER DERBY DR                    000N        CARE OF             
MTR08610800001000000000000000RA              77897155    000100550000005500000360000003NY  NNW 000                       N    
MTM0861080077897155    OCCSAMEMTRNUM                                                                                          
RDG08610800WATRL000000004K00000000000000085005612142015095629N000400000010U85       000400400K 10000000010000000079           
CUS0861080000108447387005         LEE J. TURNER       9339 MASTER DERBY DR                    000N        CARE OF             
MTR08610800001000000000000000RA              77897069    000100560000005600000360000003NY  NNW 000                       N    
MTM0861080077897069    SAMEMTRNUM                                                                                             
RDG08610800WATRL000000004K00000000000000066005512142015095549N000000000000U85       002790400K 10000000010000000052           
CUS0861080000108446952007         OGHIDE ADESUWA      9401 SILVER CHARM DR                    000N        CARE OF             
MTR08610800001000000000000000RA              74816603    000100570000005700000350000003NY  NNW 000                       N    
MTM0861080074816603    OCCSAMEMTRNUM                                                                                          
RDG08610800WATRL000000004K00000000000000347004812222015164458O000000000010U93       000720400K 10000000010000000328           
CUS0861080000108446962006         ANOTHNY FELDER      9403 SILVER CHARM DR                    000N        CARE OF             
MTR08610800001000000000000000RA              74816556    000100580000005800000350000003NY  NNW 000                       N    
MTM0861080074816556    OCCSAMEMTRNUM                                                                                          
RDG08610800WATRL000000004K00000000000000119004712142015094236N000400000010U85       000040400K 10000000010000000108           
CUS0861080000108446963004         DANA G PATE         9405 SILVER CHARM DR                    000N        CARE OF             
MTR08610800001000000000000000RA              74816555    000100590000005900000350000003NY  NNW 000                       N    
MTM0861080074816555    SAMEMTRNUM                                                                                             
RDG08610800WATRL000000004K00000000000000127004612142015094232N000000000000U85       000600400K 10000000010000000113           
CUS0861080000108446964002         CARRIAGE HILLS BUS T9407 SILVER CHARM DR                    000N        CARE OF             
MTR08610800001000000000000000RA              74816602    000100600000006000000350000003NY  NNW 000                       N    
MTM0861080074816602    OCCSAMEMTRNUM                                                                                          
RDG08610800WATRL000000004K00000000000000137004512142015094132N000400000010U85       000060400K 10000000010000000123           
CUS0861080000108446965009         CARTER JAMIE L      9409 SILVER CHARM DR                    000N        CARE OF             
MTR08610800001000000000000000RA              74816601    000100610000006100000350000003NY  NNW 000                       N    
MTM0861080074816601    OCCSAMEMTRNUM                                                                                          
RDG08610800WATRL000000004K00000000000000067004412142015094126N000000000000U85       000270400K 10000000010000000060           
CUS0861080000108446955000         FRANCES JOHNSON     9411 SILVER CHARM DR                    000N        CARE OF             
MTR08610800001000000000000000RA              74816604    000100620000006200000350000003NY  NNW 000                       N    
MTM0861080074816604    SAMEMTRNUM                                                                                             
RDG08610800WATRL000000004K00000000000000102004312142015094059N000000000000U85       000410400K 10000000010000000095           
CUS0861080000108446986005         CARRIAGE HILLS BUS T9413 SILVER CHARM DR                    000N        CARE OF             
MTR08610800001000000000000000RA              74816773    000100630000006300000350000003NY  NNW 000                       N    
MTM0861080074816773    VACSAMEMTRNUM                                                                                          
RDG08610800WATRL000000004K00000000000000116004212142015094018N000000000000U85       000020400K 10000000010000000116           
CUS0861080000108446967005         ERIK POSEGAY        9415 SILVER CHARM DR                    000N        CARE OF             
MTR08610800001000000000000000RA              74816662    000100640000006400000350000003NY  NNW 000                       N    
MTM0861080074816662    SAMEMTRNUM                                                                                             
RDG08610800WATRL000000004K00000000000000154004112142015094016N000000000000U85       000480400K 10000000010000000122           
CUS0861080000108446968003         NORRIS DACOSTA      9417 SILVER CHARM DR                    000N        CARE OF             
MTR08610800001000000000000000RA              74816661    000100650000006500000350000003NY  NNW 000                       N    
MTM0861080074816661    SAMEMTRNUM                                                                                             
RDG08610800WATRL000000004K00000000000000081004012142015093928N000000000000U85       000030400K 10000000010000000076           
CUS0861080000108446977004         ANDRE LYNCH         9419 SILVER CHARM DR                    000N        CARE OF             
MTR08610800001000000000000000RA              74816660    000100660000006600000350000003NY  NNW 000                       N    
MTM0861080074816660    SAMEMTRNUM                                                                                             
RDG08610800WATRL000000004K00000000000000074003912142015093925N000000000000U85       000490400K 10000000010000000066           
CUS0861080000108446978002         BEATRICE BANDOH     9421 SILVER CHARM DR                    000N        CARE OF             
MTR08610800001000000000000000RA              74816663    000100670000006700000350000003NY  NNW 000                       N    
MTM0861080074816663    SAMEMTRNUM                                                                                             
RDG08610800WATRL000000004K00000000000000152003812142015093836N000000000000U85       000050400K 10000000010000000136           
CUS0861080000108446979000         TANIKA SEWELL       9423 SILVER CHARM DR                    000N        CARE OF             
MTR08610800001000000000000000RA              74816664    000100680000006800000350000003NY  NNW 000                       N    
MTM0861080074816664    SAMEMTRNUM                                                                                             
RDG08610800WATRL000000004K00000000000000074003712142015093831N000000000000U85       000240400K 10000000010000000068           
CUS0861080000108446956008         KEYSHAWN ADDISON    9425 SILVER CHARM DR                    000N        CARE OF             
MTR08610800001000000000000000RA              74816640    000100690000006900000350000003NY  NNW 000                       N    
MTM0861080074816640    SAMEMTRNUM                                                                                             
RDG08610800WATRL000000004K00000000000000122003612142015093807N000000000000U85       000330400K 10000000010000000110           
CUS0861080000108446980008         EDANA GERALD        9427 SILVER CHARM DR                    000N        CARE OF             
MTR08610800001000000000000000RA              74816639    000100700000007000000350000003NY  NNW 000                       N    
MTM0861080074816639    SAMEMTRNUM                                                                                             
RDG08610800WATRL000000004K00000000000000085003512142015093734N000000000000U85       000140400K 10000000010000000077           
CUS0861080000108446981006         NELLY E ENONE       9429 SILVER CHARM DR                    000N        CARE OF             
MTR08610800001000000000000000RA              74816658    000100710000007100000350000003NY  NNW 000                       N    
MTM0861080074816658    SAMEMTRNUM                                                                                             
RDG08610800WATRL000000004K00000000000000096003412142015093720N000000000000U85       001580400K 10000000010000000086           
CUS0861080000108446982004         AVELINO ALONSO      9431 SILVER CHARM DR                    000N        CARE OF             
MTR08610800001000000000000000RA              74816657    000100720000007200000350000003NY  NNW 000                       N    
MTM0861080074816657    SAMEMTRNUM                                                                                             
RDG08610800WATRL000000004K00000000000000067003312142015093442N000000000000U85       000020400K 10000000010000000056           
CUS0861080000108446983002         GLYNIS Y JOHNSON    9433 SILVER CHARM DR                    000N        CARE OF             
MTR08610800001000000000000000RA              74816638    000100730000007300000350000003NY  NNW 000                       N    
MTM0861080074816638    SAMEMTRNUM                                                                                             
RDG08610800WATRL000000004K00000000000000132003212142015093440N000000000000U85       000500400K 10000000010000000120           
CUS0861080000108446984000         OLUWAGBENGA KOLAWOLE9435 SILVER CHARM DR                    000N        CARE OF             
MTR08610800001000000000000000RA              74816637    000100740000007400000350000003NY  NNW 000                       N    
MTM0861080074816637    SAMEMTRNUM                                                                                             
RDG08610800WATRL000000004K00000000000000215003112142015093350N000000000000U85       000030400K 10000000010000000180           
CUS0861080000108446985007         JOY OLIVER          9437 SILVER CHARM DR                    000N        CARE OF             
MTR08610800001000000000000000RA              74816651    000100750000007500000350000003NY  NNW 000                       N    
MTM0861080074816651    SAMEMTRNUM                                                                                             
RDG08610800WATRL000000004K00000000000000133003012142015093347N000000000000U85       001020400K 10000000010000000125           
CUS0861080000108446957006         CARRIAGE HILLS BUS T9439 SILVER CHARM DR                    000N        CARE OF             
MTR08610800001000000000000000RA              74816774    000100760000007600000350000003NY  NNW 000                       N    
MTM0861080074816774    SAMEMTRNUM                                                                                             
RDG08610800WATRL000000004K00000000000000091002912142015093205N000000000000U85       002920400K 10000000010000000082           
CUS0861080000108457118001         TRACEY CAMPBELL     3735 PEACE CHANCE DR                    000N        CARE OF             
MTR08610800001000000000000000RA              99999999    000100770000007700000440000003NN  NNW 000                       N    
RDG08610800WATRL000000004K00000000000000000001412142015092925S063000000000U83       002240400K 10000000010000000000           
CUS0861080000108457120007         ELVIS LUVIANO       3733 PEACE CHANCE DR                    000N        CARE OF             
MTR08610800001000000000000000RA              77896967    000100780000007800000360000003NN  NNW 000                       N    
RDG08610800WATRL000000004K00000000000000016001512142015093028N000000000010U83       000630400K 10000000010000000000           
CUS0861080000108457122003         WILKERSON, TYREN    3731 PEACE CHANCE DR                    000N        CARE OF             
MTR08610800001000000000000000RA              99999999    000100790000007900000440000003NN  NNW 000                       N    
RDG08610800WATRL000000004K00000000000000000001612142015093035S063000000000U83       000070400K 10000000010000000000           
CUS0861080000108457131004         SHERRY D.JOHNSON    3729 PEACE CHANCE DR                    000N        CARE OF             
MTR08610800001000000000000000RA              99999999    000100800000008000000440000003NN  NNW 000                       N    
RDG08610800WATRL000000004K00000000000000000001712142015093107S063000000000U83       000320400K 10000000010000000000           
CUS0861080000108457132002         FAHARI CAMARA KIBAKI3727 PEACE CHANCE DR                    000N        CARE OF             
MTR08610800001000000000000000RA              99999999    000100810000008100000440000003NN  NNW 000                       N    
RDG08610800WATRL000000004K00000000000000000001812142015093111S063000000000U83       000040400K 10000000010000000000           
CUS0861080000108457133000         KEITH LASHLEY       3725 PEACE CHANCE DR                    000N        CARE OF             
MTR08610800001000000000000000RA              99999999    000100820000008200000440000003NY  NNW 000                       N    
MTM0861080099999999    BURIED                                                                                                 
RDG08610800WATRL000000004K00000000000000000000000000000000000 000000000000U         000000400  10000000010000000000           
CUS0861080000108457134008         KEVIN C. PEACOCK, JR3723 PEACE CHANCE DR                    000N        CARE OF             
MTR08610800001000000000000000RA              99999999    000100830000008300000440000003NN  NNW 000                       N    
RDG08610800WATRL000000004K00000000000000000001912142015093222S063000000000U83       000710400K 10000000010000000000           
CUS0861080000108457225004         KENDALL JONES       3721 PEACE CHANCE DR                    000N        CARE OF             
MTR08610800001000000000000000RA              99999999    000100840000008400000440000003NN  NNW 000                       N    
RDG08610800WATRL000000004K00000000000000000002012142015093226S063000000000U83       000040400K 10000000010000000000           
CUS0861080000108457136003         CT CARRIAGE HILLS   3719 PEACE CHANCE DR                    000N        CARE OF             
MTR08610800001000000000000000RA              99999999    000100850000008500000440000003NN  NNW 000                       N    
RDG08610800WATRL000000004K00000000000000000002112142015093257S063000000000U83       000310400K 10000000010000000000           
CUS0861080000108457137001         OLUFUMSO O OMAMADE  3717 PEACE CHANCE DR                    000N        CARE OF             
MTR08610800001000000000000000RA              99999999    000100860000008600000440000003NN  NNW 000                       N    
RDG08610800WATRL000000004K00000000000000000002212142015093331S063000000000U83       000340400K 10000000010000000000           
CUS0861080000108457082009         MICHAEL ANTHONY OWEN3715 PEACE CHANCE DR                    000N        CARE OF             
MTR08610800001000000000000000RA              99999999    000100870000008700000440000003NN  NNW 000                       N    
RDG08610800WATRL000000004K00000000000000000002312142015093334S063000000000U83       000030400K 10000000010000000000           
CUS0861080000108457084005         RONETTA RANDLE      3713 PEACE CHANCE DR                    000N        CARE OF             
MTR08610800001000000000000000RA              9999999     000100880000008800000440000003NN  NNW 000                       N    
RDG08610800WATRL000000004K00000000000000000002412142015093347S063000000000U83       000130400K 10000000010000000000           
CUS0861080000108457090002         CT CARRIAGE HILLS   3711 PEACE CHANCE DR                    000N        CARE OF             
MTR08610800001000000000000000RA              99999999    000100890000008900000440000003NN  NNW 000                       N    
RDG08610800WATRL000000004K00000000000000000002512142015093430S063000000000U83       000430400K 10000000010000000000           
CUS0861080000108457104001         CT CARRIAGE HILLS   3709 PEACE CHANCE DR                    000N        CARE OF             
MTR08610800001000000000000000RA              99999999    000100900000009000000440000003NN  NNW 000                       N    
RDG08610800WATRL000000004K00000000000000000002612142015093433S063000000000U83       000030400K 10000000010000000000           
CUS0861080000108457107004         CT CARRIAGE HILLS   3707 PEACE CHANCE DR                    000N        CARE OF             
MTR08610800001000000000000000RA              99999999    000100910000009100000440000003NN  NNW 000                       N    
RDG08610800WATRL000000004K00000000000000000002712142015093459S063000000000U83       000260400K 10000000010000000000           
CUS0861080000108457110008         ASIA S.WILLIS       3705 PEACE CHANCE DR                    000N        CARE OF             
MTR08610800001000000000000000RA              99999999    000100920000009200000440000003NN  NNW 000                       N    
RDG08610800WATRL000000004K00000000000000000002812142015093503S063000000000U83       000040400K 10000000010000000000           
CUS0861080000108457113002         CT CARRIAGE HILLS   3703 PEACE CHANCE DR                    000N        CARE OF             
MTR08610800001000000000000000RA              99999999    000100930000009300000440000003NN  NNW 000                       N    
RDG08610800WATRL000000004K00000000000000000002912142015093537S063000000000U83       000340400K 10000000010000000000           
CUS0861080000108457116005         SUMMER A BLAKE      3701 PEACE CHANCE DR                    000N        CARE OF             
MTR08610800001000000000000000RA              99999999    000100940000009400000440000003NN  NNW 000                       N    
RDG08610800WATRL000000004K00000000000000000003012142015093540S063000000000U83       000030400K 10000000010000000000           
CUS0861080000108457028002         CYNTHIA JANNIESE BIV9500 CAVEAT CT                          000N        CARE OF             
MTR08610800001000000000000000RA              99999999    000100950000009500000440000003NN  NNW 000                       N    
RDG08610800WATRL000000004K00000000000000000002212142015092032S063000000000U85       003340400K 10000000010000000000           
CUS0861080000108457056003         CT CARRIAGE HILLS   9502 CAVEAT CT                          000N        CARE OF             
MTR08610800001000000000000000RA              99999999    000100960000009600000440000003NN  NNW 000                       N    
RDG08610800WATRL000000004K00000000000000000002312142015092225S063000000000U85       001130400K 10000000010000000000           
CUS0861080000108457057001         ARTHUR LEWIS III    9504 CAVEAT CT                          000N        CARE OF             
MTR08610800001000000000000000RA              99999999    000100970000009700000440000003NN  NNW 000                       N    
RDG08610800WATRL000000004K00000000000000000002412142015092227S063000000000U85       000020400K 10000000010000000000           
CUS0861080000108457058009         CT CARRIAGE HILLS   9506 CAVEAT CT                          000N        CARE OF             
MTR08610800001000000000000000RA              99999999    000100980000009800000440000003NN  NNW 000                       N    
RDG08610800WATRL000000004K00000000000000000002512142015092528S063000000000U85       001810400K 10000000010000000000           
CUS0861080000108457059007         CT CARRIAGE HILLS   9508 CAVEAT CT                          000N        CARE OF             
MTR08610800001000000000000000RA              99999999    000100990000009900000440000003NN  NNW 000                       N    
RDG08610800WATRL000000004K00000000000000000002612142015092530S063000000000U85       000020400K 10000000010000000000           
CUS0861080000108457060005         CT CARRIAGE HILLS   9510 CAVEAT CT                          000N        CARE OF             
MTR08610800001000000000000000RA              99999999    000101000000010000000440000003NN  NNW 000                       N    
RDG08610800WATRL000000004K00000000000000000002712142015092708S063000000000U85       000980400K 10000000010000000000           
CUS0861080000108457061003         THE RYLAND GROUP INC9512 CAVEAT CT                          000N        CARE OF             
MTR08610800001000000000000000RA              99999999    000101010000010100000440000003NN  NNW 000                       N    
RDG08610800WATRL000000004K00000000000000000002812142015092713S063000000000U85       000050400K 10000000010000000000           
CUS0861080000108457062001         LARRY E WING        9513 CAVEAT CT                          000N        CARE OF             
MTR08610800001000000000000000RA              99999999    000101020000010200000610000003NN  NNW 000                       N    
RDG08610800WATRL000000004K00000000000000000001312142015092541S063000000001U83       000530400K 10000000010000000000           
CUS0861080000108457064007         CT CARRIAGE HILLS   9511 CAVEAT CT                          000N        CARE OF             
MTR08610800001000000000000000RA              99999999    000101030000010300000440000003NN  NNW 000                       N    
RDG08610800WATRL000000004K00000000000000000001212142015092441S063000000000U83       000610400K 10000000010000000000           
CUS0861080000108457066002         CT CARRIAGE HILLS   9509 CAVEAT CT                          000N        CARE OF             
MTR08610800001000000000000000RA              99999999    000101040000010400000440000003NN  NNW 000                       N    
RDG08610800WATRL000000004K00000000000000000001112142015092340S063000000000U83       000050400K 10000000010000000000           
CUS0861080000108457070004         CT CARRIAGE HILLS   9507 CAVEAT CT                          000N        CARE OF             
MTR08610800001000000000000000RA              99999999    000101050000010500000440000003NN  NNW 000                       N    
RDG08610800WATRL000000004K00000000000000000001012142015092335S063000000000U83       000150400K 10000000010000000000           
CUS0861080000108457072000         DEBORAH TAYLOR SALAH9505 CAVEAT CT                          000N        CARE OF             
MTR08610800001000000000000000RA              99999999    000101060000010600000440000003NN  NNW 000                       N    
RDG08610800WATRL000000004K00000000000000000000912142015092320S063000000000U83       000670400K 10000000010000000000           
CUS0861080000108457073008         CT CARRIAGE HILLS   9503 CAVEAT CT                          000N        CARE OF             
MTR08610800001000000000000000RA              99999999    000101070000010700000440000003NN  NNW 000                       N    
RDG08610800WATRL000000004K00000000000000000000000000000000000 000000000000U         000000400  10000000010000000000           
CUS0861080000108457226002         LAKETA LONG         9501 CAVEAT CT                          000N        CARE OF             
MTR08610800001000000000000000RA              99999999    000101080000010800000440000003NN  NNW 000                       N    
RDG08610800WATRL000000004K00000000000000000000812142015092213S063000000000U83       004210400K 10000000010000000000           
CUS0861080000108038782002         TRUSTEES OF THE     9411 LIBERTY RD                         000N        CARE OF             
MTR08610800001000000000000000RA              30248875    007501090000010900000520000003NY  NNW 000                       N    
MTM0861080030248875    CLEANOUTVAULT                                                                                          
RDG08610800WATRL000000004K00000000000000000000000000000000000 000000000000U         000000400  10000000010000003821           
CUS0861080000108038784008         RJAK INVESTMENTS LLC9405 LIBERTY RD                         000N        CARE OF             
MTR08610800001000000000000000RA              00118022    007501100000011000000570000003NY  NNW 000                       N    
MTM0861080000118022    SAMEMTRNUM                                                                                             
RDG08610800WATRL000000004K00000000000003483006612142015101129N000000000000U85       006050400K 10000000010000003392           
CUS0861080000108038785005         ANT 9401 LIBERTY LLC9401 LIBERTY RD                         000N        CARE OF             
MTR08610800001000000000000000RA              10018957    005801110000011100000570000003NY  NNW 000                       N    
MTM0861080010018957    MN CORRECT                                                                                             
RDG08610800WATRL000000004K00000000000000255005512142015101341N000000000000U83       007150400K 10000000010000000232           
CUS0861080000108038783000         DEER PROPERTIES LLC 9331 LIBERTY RD                         000N        CARE OF             
MTR08610800001000000000000000RA              29402589    005801120000011200000520000003NY  NNW 000                       N    
MTM0861080029402589    SAMEMTRNUM                                                                                             
RDG08610800WATRL000000004K00000000000003156006712142015101803N000000000000U85       003940400K 10000000010000003153           
CUS0861080000108038786003         AGBOH DENNIS K      9329 LIBERTY RD                         000N        CARE OF             
MTR08610800001000000000000000RA              10013111    005801130000011300000570000003NY  NNW 000                       N    
MTM0861080010013111    MN CORRECT                                                                                             
RDG08610800WATRL000000004K00000000000000816005612142015101648N000400000010U83       001870400K 10000000010000000799           
CUS0861080000108386278009         B & G INTERNATIONAL 9325 LIBERTY RD                         000N        CARE OF             
MTR08610800001000000000000000RA              01086218    005801140000011400000610000003NY  NNW 000                       N    
MTM0861080001086218    MN CORRECT                                                                                             
RDG08610800WATRL000000004K00000000000000268005812142015101907N000000000000U83       000610400K 10000000010000000259           
CUS0861080000108038787001         UHLER BERNARD       9323-1/2 LIBERTY RD                     000N        CARE OF             
MTR08610800001000000000000000RA              35110949    005801150000011500000520000003NY  NNW 000                       N    
MTM0861080035110949    MN CORRECT                                                                                             
RDG08610800WATRL000000004K00000000000001187005712142015101806N000000000000U83       000780400K 10000000010000001168           
CUS0861080000108038789007         DEER PROPERTIES LLC 9315 LIBERTY RD                         000N        CARE OF             
MTR08610800001000000000000000RA              36700033    001501160000011600000520000003NN  NNW 000                       N    
RDG08610800WATRL000000005K00000000000009843005912142015102021N000000000000U83       000740500K 10000000010000009759           
CUS0861080000108038791003         SANDHU RANDHAWA LLC 9307 LIBERTY RD                         000N        CARE OF             
MTR08610800001000000000000000RA              46890828    007501170000011700000520000003NY  NNW 000                       N    
MTM0861080046890828    COVERED                                                                                                
RDG08610800WATRL000000004K00000000000000000000000000000000000 000000000000U         000000400  10000000010000008389           
CUS0861080000108038792001         AUTOMASTERS INC     9301 LIBERTY RD                         000N        CARE OF             
MTR08610800001000000000000000RA              33181229    007501180000011800000520000003NY  NNW 000                       N    
MTM0861080033181229    SAMEMTRNUM                                                                                             
RDG08610800WATRL000000004K00000000000001642006812142015102151N000000000000U85       002280400K 10000000010000001634           
CUS0861080000108038793009         DAVIS TIMOTHY L     3512 CHAPMAN RD                         000N        CARE OF             
MTR08610800001000000000000000RA              30513377    005801190000011900000520000003NN  NNW 000                       N    
RDG08610800WATRL000000004K00000000000003130006912142015102413N000000000001U85       001420400K 10000000010000003073           
CUS0861080000108038794007         MCCOLLUGH MARTIN A  3510 CHAPMAN RD                         000N        CARE OF             
MTR08610800001000000000000000RA              50478198    005801200000012000000520000003NY  NNW 000                       N    
MTM0861080050478198    SAMEMTRNUM                                                                                             
RDG08610800WATRL000000004K00000000000001886007012142015102615N000000000000U85       001220400K 10000000010000001863           
CUS0861080000108038795004         LETSCHIN ROBERT M A 3508 CHAPMAN RD                         000N        CARE OF             
MTR08610800001000000000000000RA              35108876    005801210000012100000520000003NN  NNW 000                       N    
RDG08610800WATRL000000004K00000000000002318007112222015164608O000000000010U93       000660400K 10000000010000002298           
CUS0861080000108038796002         JEFFERSON BRIAN     3506 CHAPMAN RD                         000N        CARE OF             
MTR08610800001000000000000000RA              44091630    005801220000012200000520000003NY  NNW 000                       N    
MTM0861080044091630    SAMEMTRNUM                                                                                             
RDG08610800WATRL000000004K00000000000002434007212142015102850N000000000000U85       000890400K 10000000010000002422           
CUS0861080000108038797000         CARVELL CASEY A     3504 CHAPMAN RD                         000N        CARE OF             
MTR08610800001000000000000000RA              24227765    005801230000012300000520000003NY  NNW 000                       N    
MTM0861080024227765    SAMEMTRNUM                                                                                             
RDG08610800WATRL000000004K00000000000002970007312142015103034N000000000000U85       001040400K 10000000010000002957           
CUS0861080000108038798008         COOK JOHN T         3502 CHAPMAN RD                         000N        CARE OF             
MTR08610800001000000000000000RA              27813793    005801240000012400000520000003NY  NNW 000                       N    
MTM0861080027813793    SAMEMTRNUM                                                                                             
RDG08610800WATRL000000004K00000000000002740007412142015103510N000000000000U85       002760400K 10000000010000002725           
CUS0861080000108038799006         STALNAKER PAMELA DAW3500 CHAPMAN RD                         000N        CARE OF             
MTR08610800001000000000000000RA              29679344    005801250000012500000520000003NY  NNW 000                       N    
MTM0861080029679344    SAMEMTRNUM                                                                                             
RDG08610800WATRL000000004K00000000000001868007512142015103541N000000000000U85       000310400K 10000000010000001852           
CUS0861080000108038800002         SHERMAN ERIK M      3430 CHAPMAN RD                         000N        CARE OF             
MTR08610800001000000000000000RA              44174307    005801260000012600000520000003NY  NNW 000                       N    
MTM0861080044174307    SAMEMTRNUM                                                                                             
RDG08610800WATRL000000004K00000000000000713007612142015103832N000000000000U85       001710400K 10000000010000000704           
CUS0861080000108405056006         LESLIE E SMITH-DORSE3428 CHAPMAN RD                         000N        CARE OF             
MTR08610800001000000000000000RA              10017409    005801270000012700000570000003NY  NNW 000                       N    
MTM0861080010017409    SAMEMTRNUM                                                                                             
RDG08610800WATRL000000004K00000000000000610007712142015103910N000000000000U85       000380400K 10000000010000000555           
CUS0861080000108038801000         CARTER MICHEAL      3426 CHAPMAN RD                         000N        CARE OF             
MTR08610800001000000000000000RA              23054214    005801280000012800000520000003NY  NNW 000                       N    
MTM0861080023054214    SAMEMTRNUM                                                                                             
RDG08610800WATRL000000004K00000000000005095007812142015104118N000000000000U85       001280400K 10000000010000005080           
CUS0861080000108038802008         JOHNSON JONATHAN D  3424 CHAPMAN RD                         000N        CARE OF             
MTR08610800001000000000000000RA              48587807    005801290000012900000520000003NY  NNW 000                       N    
MTM0861080048587807    SAMEMTRNUM                                                                                             
RDG08610800WATRL000000004K00000000000000706007912142015104231N000000000000U85       000730400K 10000000010000000705           
CUS0861080000108038803006         EMERGE INC          3422 CHAPMAN RD                         000N        CARE OF             
MTR08610800001000000000000000RA              44092526    005801300000013000000520000003NY  NNW 000                       N    
MTM0861080044092526    SAMEMTRNUMHIGHREAD                                                                                     
RDG08610800WATRL000000004K00000000000003805008012142015104329N000000000000U85       000580400K 10000000010000003650           
CUS0861080000108038804004         TAMBER WRIGHT       3420 CHAPMAN RD                         000N        CARE OF             
MTR08610800001000000000000000RA              44092525    005801310000013100000520000003NY  NNW 000                       N    
MTM0861080044092525    SAMEMTRNUM                                                                                             
RDG08610800WATRL000000004K00000000000002853008112142015104442N000000000000U85       000730400K 10000000010000002836           
CUS0861080000108038805001         MARK A CAHILL       3418 CHAPMAN RD                         000N        CARE OF             
MTR08610800001000000000000000RA              36689246    005801320000013200000520000003NY  NNW 000                       N    
MTM0861080036689246    SAMEMTRNUM                                                                                             
RDG08610800WATRL000000004K00000000000002735008212142015104553N000400000010U85       000710400K 10000000010000002727           
CUS0861080000108038806009         JARED LUTTRELL      3416 CHAPMAN RD                         000N        CARE OF             
MTR08610800001000000000000000RA              27813792    005801330000013300000520000003NY  NNW 000                       N    
MTM0861080027813792    SAMEMTRNUM                                                                                             
RDG08610800WATRL000000004K00000000000002909008312142015104700N000000000000U85       000670400K 10000000010000002897           
CUS0861080000108038807007         HOFFMASTER C FRANKLI3414 CHAPMAN RD                         000N        CARE OF             
MTR08610800001000000000000000RA              41193053    007501340000013400000520000003NY  NNW 000                       N    
MTM0861080041193053    SAMEMTRNUM                                                                                             
RDG08610800WATRL000000004K00000000000002739008412142015104800N000000000000U85       000600400K 10000000010000002730           
CUS0861080000108415663007         WILLIAM K LINK SR   3318 CHAPMAN RD                         000N        CARE OF             
MTR08610800001000000000000000RA              46888312    005801350000013500000520000000NN  NNW 000                       N    
RDG08610800WATRL000000004K00000000000002626008512142015105003N000000000000U85       001230400K 10000000010000002609           
CUS0861080000108409514000         DAWSON CHRISTOPHER J3316 CHAPMAN RD                         000N        CARE OF             
MTR08610800001000000000000000RA              01088737    005801360000013600000610000003NY  NNW 000                       N    
MTM0861080001088737    SAMEMTRNUM                                                                                             
RDG08610800WATRL000000004K00000000000001658008612142015105045N000000000000U85       000420400K 10000000010000001634           
CUS0861080000108409261008         WALL JEFFREY M      3314 CHAPMAN RD                         000N        CARE OF             
MTR08610800001000000000000000RA              45374870    005801370000013700000520000003NY  NNW 000                       N    
MTM0861080045374870    SAMEMTRNUM                                                                                             
RDG08610800WATRL000000004K00000000000000944008712142015105136N000000000000U85       000510400K 10000000010000000935           
CUS0861080000108409625004         MARKETPRO SOUTH, INC3313 CHAPMAN RD                         000N        CARE OF             
MTR08610800001000000000000000RA              33732257    005801380000013800000520000003NY  NNW 000                       N    
MTM0861080033732257    VACSAMEMTRNUM                                                                                          
RDG08610800WATRL000000004K00000000000001682008812142015105215N000000000000U85       000390400K 10000000010000001680           
CUS0861080000108409817007         HULL EDWIN LLOYD    3315 CHAPMAN RD                         000N        CARE OF             
MTR08610800001000000000000000RA              42810500    005801390000013900000520000003NY  NNW 000                       N    
MTM0861080042810500    SAMEMTRNUM                                                                                             
RDG08610800WATRL000000004K00000000000002151008912142015105300N000000000000U85       000450400K 10000000010000002139           
CUS0861080000108411736005         CENTER FOR SOCIAL CH3319 CHAPMAN RD                         000N        CARE OF             
MTR08610800001000000000000000RA              30524756    005801400000014000000520000003NY  NNW 000                       N    
MTM0861080030524756    SAMEMTRNUM                                                                                             
RDG08610800WATRL000000004K00000000000003217009012142015105413N000000000000U85       000730400K 10000000010000003171           
CUS0861080000108425864009         LAWRENCE FOX        3401 CHAPMAN RD                         000N        CARE OF             
MTR08610800001000000000000000RA              10003845    005801410000014100000570000003NY  NNW 000                       N    
MTM0861080010003845    SAMEMTRNUM                                                                                             
RDG08610800WATRL000000004K00000000000000378009212142015105715N000000000000U85       000500400K 10000000010000000359           
CUS0861080000108419169001         ALFRED B BURNHAM    3403 CHAPMAN RD                         000N        CARE OF             
MTR08610800001000000000000000RA              48591942    005801420000014200000520000003NN  NNW 000                       N    
RDG08610800WATRL000000004K00000000000001297009112142015105625N000000000000U85       001320400K 10000000010000001276           
CUS0861080000108409068007         WHITEN DARYL        3405 CHAPMAN RD                         000N        CARE OF             
MTR08610800001000000000000000RA              32902318    005801430000014300000520000003NY  NNW 000                       N    
MTM0861080032902318    SAMEMTRNUM                                                                                             
RDG08610800WATRL000000004K00000000000003283009312142015105847N000000000000U85       000920400K 10000000010000003255           
CUS0861080000108430298003         WELSH GEORGE W      3407 CHAPMAN RD                         000N        CARE OF             
MTR08610800001000000000000000RA              10017411    005801440000014400000570000000NY  NNW 000                       N    
MTM0861080010017411    MN CORRECT                                                                                             
RDG08610800WATRL000000004K00000000000000104008012142015105723N000000000000U83       000710400K 10000000010000000097           
CUS0861080000108426305002         DESILVA GAMITH S    3409 CHAPMAN RD                         000N        CARE OF             
MTR08610800001000000000000000RA              10017410    005801450000014500000570000003NY  NNW 000                       N    
MTM0861080010017410    MN CORRECT                                                                                             
RDG08610800WATRL000000004K00000000000000702007912142015105612N000000000000U83       000960400K 10000000010000000662           
CUS0861080000108409069005         INTERVALS RESIDENTIA3411 CHAPMAN RD                         000N        CARE OF             
MTR08610800001000000000000000RA              45373911    005801460000014600000520000000NY  NNW 000                       N    
MTM0861080045373911    MN CORRECT                                                                                             
RDG08610800WATRL000000004K00000000000006091007812222015164644O000000000010U93       002160400K 10000000010000006042           
CUS0861080000106402105008         CURLENE ALLEN       3413 CHAPMAN RD                         000N        CARE OF             
MTR08610800001000000000000000RA              44177902    005801470000014700000520000003NY  NNW 000                       N    
MTM0861080044177902    MN CORRECT                                                                                             
RDG08610800WATRL000000004K00000000000003050007712142015105100N000000000000U83       001310400K 10000000010000003021           
CUS0861080000108038808005         PAXTON LEROY G,JR   3415 CHAPMAN RD                         000N        CARE OF             
MTR08610800001000000000000000RA              35097140    005801480000014800000520000003NY  NNW 000                       N    
MTM0861080035097140    MN CORRECT                                                                                             
RDG08610800WATRL000000004K00000000000002480007612142015104849N000000000000U83       000610400K 10000000010000002474           
CUS0861080000108038809003         CAMBRIDGE GARFIELD  3417 CHAPMAN RD                         000N        CARE OF             
MTR08610800001000000000000000RA              11331619    005801490000014900000570000003NY  NNW 000                       N    
MTM0861080011331619    MN CORRECT                                                                                             
RDG08610800WATRL000000004K00000000000002866007512142015104748N000000000000U83       000790400K 10000000010000002845           
CUS0861080000108433964007         RAHMAAN LEANDER B   3419 CHAPMAN RD                         000N        CARE OF             
MTR08610800001000000000000000RA              01095323    005801500000015000000610000000NY  NNW 000                       N    
MTM0861080001095323    MN CORRECT                                                                                             
RDG08610800WATRL000000004K00000000000000430007412142015104629N000000000000U83       000760400K 10000000010000000425           
CUS0861080000108038810001         CENTER FOR SOCIAL CH3421 CHAPMAN RD                         000N        CARE OF             
MTR08610800001000000000000000RA              24762252    005801510000015100000520000003NN  NNW 000                       N    
RDG08610800WATRL000000004K00000000000003361007312142015104513N000000000000U83       000890400K 10000000010000003324           
CUS0861080000108407838005         SIKH ASSOCIATION OF 3423 CHAPMAN RD                         000N        CARE OF             
MTR08610800001000000000000000RA              44030331    007501520000015200000520000003NY  NNW 000                       N    
MTM0861080044030331    BURIED                                                                                                 
RDG08610800WATRL000000004K00000000000000000000000000000000000 000000000000U         000000400  10000000010000004683           
CUS0861080000108038811009         TYRELL DONOLLY      3425 CHAPMAN RD                         000N        CARE OF             
MTR08610800001000000000000000RA              44092546    005801530000015300000520000003NY  NNW 000                       N    
MTM0861080044092546    MN CORRECT                                                                                             
RDG08610800WATRL000000004K00000000000004094007212142015104344N000000000000U83       001040400K 10000000010000004041           
CUS0861080000108038812007         WINTERS ALBERT LESTE3429 CHAPMAN RD                         000N        CARE OF             
MTR08610800001000000000000000RA              26005186    005801540000015400000520000003NY  NNW 000                       N    
MTM0861080026005186    MN CORRECT                                                                                             
RDG08610800WATRL000000004K00000000000002920007112142015104200N000000000000U83       000040400K 10000000010000002908           
CUS0861080000108038813005         IMPERATO ROBERT     3431 CHAPMAN RD                         000N        CARE OF             
MTR08610800001000000000000000RA              26005130    005801550000015500000520000003NY  NNW 000                       N    
MTM0861080026005130    MN CORRECT                                                                                             
RDG08610800WATRL000000004K00000000000001291007012142015104156N000000000000U83       000730400K 10000000010000001286           
CUS0861080000108038814003         WILLIAM D COSDEN    3433 CHAPMAN RD                         000N        CARE OF             
MTR08610800001000000000000000RA              44092751    005801560000015600000520000003NY  NNW 000                       N    
MTM0861080044092751    MN CORRECT                                                                                             
RDG08610800WATRL000000004K00000000000001367006912142015104043N000000000000U83       000870400K 10000000010000001358           
CUS0861080000108038815000         PAUL B CLEMENT      3435 CHAPMAN RD                         000N        CARE OF             
MTR08610800001000000000000000RA              54349377    005801570000015700000520000003NN  NNW 000                       N    
RDG08610800WATRL000000004K00000000000000814006812142015103916N000000000000U83       000960400K 10000000010000000797           
CUS0861080000108443202000         WILLIAMS NICHOLAS A 3441 CHAPMAN RD                         000N        CARE OF             
MTR08610800001000000000000000RA              14928604    005801580000015800000310000003NN  NNW 000                       N    
RDG08610800WATRL000000004K00000000000000186006712142015103740N000300000010U83       000060400K 10000000010000000220           
CUS0861080000108443203008         MCKEE ERIC CARSON,JR3443 CHAPMAN RD                         000N        CARE OF             
MTR08610800001000000000000000RA              14928603    005801590000015900000310000003NY  NNW 000                       N    
MTM0861080014928603    MN CORRECT                                                                                             
RDG08610800WATRL000000004K00000000000000907006612142015103734N000000000000U83       001490400K 10000000010000000862           
CUS0861080000108038816008         CREATIVE OPTIONS INC3501 CHAPMAN RD                         000N        CARE OF             
MTR08610800001000000000000000RA              01070657    005801600000016000000610000003NY  NNW 000                       N    
MTM0861080001070657    MN CORRECT                                                                                             
RDG08610800WATRL000000004K00000000000004518006512142015103505N000300000010U83       001270400K 10000000010000004545           
CUS0861080000108038817006         BURLEY AMY          3503 CHAPMAN RD                         000N        CARE OF             
MTR08610800001000000000000000RA              44092743    005801610000016100000520000003NY  NNW 000                       N    
MTM0861080044092743    MN CORRECT                                                                                             
RDG08610800WATRL000000004K00000000000002897006412142015103258N000000000000U83       001540400K 10000000010000002850           
CUS0861080000108038818004         BRILL ROBERT L      3505 CHAPMAN RD                         000N        CARE OF             
MTR08610800001000000000000000RA              01070696    005801620000016200000610000003NY  NNW 000                       N    
MTM0861080001070696    MN CORRECT                                                                                             
RDG08610800WATRL000000004K00000000000001187006312142015103024N000000000000U83       001420400K 10000000010000001152           
CUS0861080000108038819002         STANG FRANCIS J     3507 CHAPMAN RD                         000N        CARE OF             
MTR08610800001000000000000000RA              44002606    005801630000016300000520000003NN  NNW 000                       N    
RDG08610800WATRL000000004K00000000000000662006212142015102802N000000000000U83       001070400K 10000000010000000648           
CUS0861080000108038820000         CENTER FOR SOCIAL CH3509 CHAPMAN RD                         000N        CARE OF             
MTR08610800001000000000000000RA              10015127    005801640000016400000570000003NN  NNW 000                       N    
RDG08610800WATRL000000004K00000000000000292006112142015102615N000000000000U83       001420400K 10000000010000000261           
CUS0861080000108038821008         MERWITZ WILLIAM EDWA3511 CHAPMAN RD                         000N        CARE OF             
MTR08610800001000000000000000RA              33080114    005801650000016500000520000003NY  NNW 000                       N    
MTM0861080033080114    MN CORRECT                                                                                             
RDG08610800WATRL000000004K00000000000005888006012142015102353N000400000010U83       002120400K 10000000010000005851           
CUS0861080000108038822006         SAMBHI SOHAN L      9217 LIBERTY RD                         000N        CARE OF             
MTR08610800001000000000000000RA              24227314    005801660000016600000520000003NY  NNW 000                       N    
MTM0861080024227314    BURIED                                                                                                 
RDG08610800WATRL000000004K00000000000000000000000000000000000 000000000000U         000000400  10000000010000000146           
CUS0861080000108038823004         COOK TIMOTHY F      9215 LIBERTY RD                         000N        CARE OF             
MTR08610800001000000000000000RA              10017412    005801670000016700000570000003NY  NNW 000                       N    
MTM0861080010017412    SAMEMTRNUM                                                                                             
RDG08610800WATRL000000004K00000000000000096009512142015110337N000000000000U85       001110400K 10000000010000000090           
CUS0861080000108038824002         DENNIS WHITAKER     9213 LIBERTY RD                         000N        CARE OF             
MTR08610800001000000000000000RA              99187572    005801680000016800000570000003NY  NNW 000                       N    
MTM0861080099187572    SAMEMTRNUM                                                                                             
RDG08610800WATRL000000004K00000000000003311009612142015110340N000000000000U85       000030400K 10000000010000003255           
CUS0861080000108038825009         DUNN WADE           9211 LIBERTY RD                         000N        CARE OF             
MTR08610800001000000000000000RA              48592960    005801690000016900000520000003NY  NNW 000                       N    
MTM0861080048592960    SAMMEMTRNUM                                                                                            
RDG08610800WATRL000000004K00000000000000547009712142015110450N000000000000U85       000700400K 10000000010000000544           
CUS0861080000108038826007         MOHAN LOULTOO KENRIC9209 LIBERTY RD                         000N        CARE OF             
MTR08610800001000000000000000RA              01092894    005801700000017000000610000003NY  NNW 000                       N    
MTM0861080001092894    MN CORRECT                                                                                             
RDG08610800WATRL000000004K00000000000000638008312142015110446N000000000000U83       000560400K 10000000010000000593           
CUS0861080000108038827005         BENNETT MARVIN E    9207 LIBERTY RD                         000N        CARE OF             
MTR08610800001000000000000000RA              14910726    005801710000017100000310000003NY  NNW 000                       N    
MTM0861080014910726    MN CORRECT                                                                                             
RDG08610800WATRL000000004K00000000000000855008212142015110350N000000000000U83       000450400K 10000000010000000821           
CUS0861080000108038828003         ALVEAR KIMA E       9205 LIBERTY RD                         000N        CARE OF             
MTR08610800001000000000000000RA              52770163    005801720000017200000520000003NY  NNW 000                       N    
MTM0861080052770163    MN CORRECT                                                                                             
RDG08610800WATRL000000004K00000000000002081008112142015110305N000000000000U83       003420400K 10000000010000002060           
CUS0861080000108421554000         H2O N AMERICA,LLC   9131 LIBERTY RD                         000N        CARE OF             
MTR08610800001000000000000000RA              42847007    001501730000017300000520000003NY  NNW 000                       N    
MTM0861080042847007    SAMEMTRNUM                                                                                             
RDG08610800WATRL000000005K00000000000054790009812142015110809N000000000000U85       001990500K 10000000010000054199           
CUS0861080000108038831007         BALTIMORE COUNTY MAR9113 LIBERTY RD                         000N        CARE OF             
MTR08610800001000000000000000RA              99409155    000101740000017400000570000003NY  NNW 000                       N    
MTM0861080099409155    VACSAMEMTRNUM                                                                                          
RDG08610800WATRL000000004K00000000000001232009912142015110923N000300000010U85       000740400K 10000000010000001261           
CUS0861080000108038833003         ACT LLC             9101 LIBERTY RD                         000N        CARE OF             
MTR08610800001000000000000000RA              99999999    007501750000017500000520000003NY  NNW 000   VACANT / LOT        N    
MTM0861080099999999    REMOVED                                                                                                
RDG08610800WATRL000000004K00000000000000000000000000000000000 000000000000U         000000400  10000000010000009015           
CUS0861080000108457993007         PRIMAX PROPERTIES LL9101 LIBERTY RD                         000N        CARE OF             
MTR08610800001000000000000000RA              77894483    007501750010017500100360000003NY  NNW 000                       N    
MTM0861080077894483    SAMEMTRNUM                                                                                             
RDG08610800WATRL000000004K00000000000000003010112142015111221N000000000010U85       000920400K 10000000010000000000           
CUS0861080000108457994005         PRIMAX PROPERTIESLLC9101 LIBERTY RD                         000N        CARE OF             
MTR08610800001000000000000000RA              77890455    005801750020017500200360000003NY  NNW 000                       N    
MTM0861080077890455    SAMEMTRNUM                                                                                             
RDG08610800WATRL000000004K00000000000000000010212142015111334N000000000000U85       000730400K 10000000010000000000           
CUS0861080000108038834001         MMC MARYLAND INVESTM3508 OFFUTT RD                          000N        CARE OF             
MTR08610800001000000000000000RA              75617576    005801760000017600000350000003NY  NNW 000                       N    
MTM0861080075617576    SAMEMTRNUM                                                                                             
RDG08610800WATRL000000004K00000000000000000000000000000000000 000000000000U         000000400  10000000010000000062           
CUS0861080000108038836006         MEYER ROBERT,JR     3504 OFFUTT RD                          000N        CARE OF             
MTR08610800001000000000000000RA              48583670    005801770000017700000520000003NY  NNW 000   VACANT / LOT        N    
MTM0861080048583670    SAMEMTRNUMVAC                                                                                          
RDG08610800WATRL000000004K00000000000000095000212112015105447N000000000000N85       001280400K 10000000010000000095           
CUS0861080000108038837004         YOUNG SHEILA L      3502 OFFUTT RD                          000N        CARE OF             
MTR08610800001000000000000000RA              14900957    005801780000017800000310000003NY  NNW 000                       N    
MTM0861080014900957    SAMEMTRNUM                                                                                             
RDG08610800WATRL000000004K00000000000000436000312112015105451N000000000000N85       000040400K 10000000010000000425           
CUS0861080000108038838002         ROBINSON FREDDIE L J3500 OFFUTT RD                          000N        CARE OF             
MTR08610800001000000000000000RA              10016000    005801790000017900000570000003NY  NNW 000                       N    
MTM0861080010016000    SAMEMTRNUM                                                                                             
RDG08610800WATRL000000004K00000000000000087000412112015105640N000000000000N85       001090400K 10000000010000000079           
CUS0861080000108038840008         ABE O MANNING       9105 TOWER RD                           000N        CARE OF             
MTR08610800001000000000000000RA              01083726    005801800000018000000610000003NY  NNW 000                       N    
MTM0861080001083726    SAMEMTRNUM                                                                                             
RDG08610800WATRL000000004K00000000000000861000612112015105845N000000000001N85       000610400K 10000000010000000847           
CUS0861080000108038839000         LIZANO WALTER       9103 TOWER RD                           000N        CARE OF             
MTR08610800001000000000000000RA              01086201    005801810000018100000610000003NY  NNW 000                       N    
MTM0861080001086201    SAMEMTRNUM                                                                                             
RDG08610800WATRL000000004K00000000000001032000712112015105936N000000000000N85       000510400K 10000000010000001025           
CUS0861080000108038841006         WALTER H YOUNGER    3414 OFFUTT RD                          000N        CARE OF             
MTR08610800001000000000000000RA              10001187    005801820000018200000570000003NY  NNW 000                       N    
MTM0861080010001187    SAMEMTRNUM                                                                                             
RDG08610800WATRL000000004K00000000000000310000512112015105744N000000000000N85       000640400K 10000000010000000299           
CUS0861080000108038842004         WILLIAMS JANIE B    3412 OFFUTT RD                          000N        CARE OF             
MTR08610800001000000000000000RA              99188331    005801830000018300000570000003NY  NNW 000                       N    
MTM0861080099188331    SAMEMTRNUM                                                                                             
RDG08610800WATRL000000004K00000000000000929000812112015110155N000000000000N85       001390400K 10000000010000000898           
CUS0861080000108038843002         JESSEN ROBERT       3410 OFFUTT RD                          000N        CARE OF             
MTR08610800001000000000000000RA              01086429    005801840000018400000610000003NY  NNW 000                       N    
MTM0861080001086429    SAMEMTRNUM                                                                                             
RDG08610800WATRL000000004K00000000000000474000912112015110245N000000000000N85       000500400K 10000000010000000469           
CUS0861080000108038844000         GRAY AARON P        3406 OFFUTT RD                          000N        CARE OF             
MTR08610800001000000000000000RA              01099399    005801850000018500000610000003NY  NNW 000                       N    
MTM0861080001099399    SAMEMTRNUM                                                                                             
RDG08610800WATRL000000004K00000000000000967001012112015110501N000000000000N85       001360400K 10000000010000000945           
CUS0861080000108038845007         RICHARD DUNN        3404 OFFUTT RD                          000N        CARE OF             
MTR08610800001000000000000000RA              29402591    005801860000018600000520000003NY  NNW 000                       N    
MTM0861080029402591    SAMEMTRNUM                                                                                             
RDG08610800WATRL000000004K00000000000002934001112112015110540N000000000000N85       000390400K 10000000010000002930           
CUS0861080000108038846005         FOSTER STEVEN W     3402 OFFUTT RD                          000N        CARE OF             
MTR08610800001000000000000000RA              9987430     005801870000018700000570000003NY  NNW 000                       N    
MTM086108009987430     SAMEMTRNUM                                                                                             
RDG08610800WATRL000000004K00000000000002609001212112015110716N000000000000N85       000960400K 10000000010000002603           
CUS0861080000108401221000         FENNER JAMES        3400 OFFUTT RD                          000N        CARE OF             
MTR08610800001000000000000000RA              41590968    005801880000018800000520000003NY  NNW 000                       N    
MTM0861080041590968    SAMEMTRNUM                                                                                             
RDG08610800WATRL000000004K00000000000003860001312112015110831N000000000000N85       000750400K 10000000010000003842           
CUS0861080000108407156002         NEWMAN RHONDA       3336 OFFUTT RD                          000N        CARE OF             
MTR08610800001000000000000000RA              44173351    005801890000018900000520000003NY  NNW 000                       N    
MTM0861080044173351    SAMEMTRNUM                                                                                             
RDG08610800WATRL000000004K00000000000001727001412112015110950N000000000000N85       000790400K 10000000010000001715           
CUS0861080000108038847003         HUNT FRANKLIN W     3332 OFFUTT RD                          000N        CARE OF             
MTR08610800001000000000000000RA              23644635    005801900000019000000520000003NY  NNW 000                       N    
MTM0861080023644635    SAMEMTRNUM                                                                                             
RDG08610800WATRL000000004K00000000000003559001612112015111319N000000000000N85       001470400K 10000000010000003494           
CUS0861080000108038848001         HUNT FRANKLIN W     3328 OFFUTT RD                          000N        CARE OF             
MTR08610800001000000000000000RA              01084940    005801910000019100000610000003NY  NNW 000                       N    
MTM0861080001084940    SAMEMTRNUM                                                                                             
RDG08610800WATRL000000004K00000000000001332001512112015111052N000000000000N85       000620400K 10000000010000001316           
CUS0861080000108038849009         PAYNE IDA M         3326 OFFUTT RD                          000N        CARE OF             
MTR08610800001000000000000000RA              01084949    005801920000019200000610000003NY  NNW 000   VACANT / LOT        N    
MTM0861080001084949    VACSAMEMTRNUM                                                                                          
RDG08610800WATRL000000004K00000000000000758001712112015111511N000000000000N85       001120400K 10000000010000000758           
CUS0861080000108038850007         BOLLINGER RICHARD A,3322 OFFUTT RD                          000N        CARE OF             
MTR08610800001000000000000000RA              41080218    005801930000019300000520000003NY  NNW 000                       N    
MTM0861080041080218    OCCSAMEMTRNUM                                                                                          
RDG08610800WATRL000000004K00000000000002860001812112015111746N000400000010N85       001550400K 10000000010000002847           
CUS0861080000108038851005         LADERMAN JACOB H    3320 OFFUTT RD                          000N        CARE OF             
MTR08610800001000000000000000RA              48596365    005801940000019400000520000003NY  NNW 000                       N    
MTM0861080048596365    SAMEMTRNUM                                                                                             
RDG08610800WATRL000000004K00000000000001928001912112015111919N000000000000N85       000930400K 10000000010000001897           
CUS0861080000108038852003         HERBERT L MORIN JR  3318 OFFUTT RD                          000N        CARE OF             
MTR08610800001000000000000000RA              25782310    005801950000019500000520000003NY  NNW 000                       N    
MTM0861080025782310    SAMEMTRNUM                                                                                             
RDG08610800WATRL000000004K00000000000003737002012112015112034N000000000000N85       000750400K 10000000010000003720           
CUS0861080000108038853001         DOLBY JEREMY J      3316 OFFUTT RD                          000N        CARE OF             
MTR08610800001000000000000000RA              01083931    005801960000019600000610000003NY  NNW 000   VACANT / LOT        N    
MTM0861080001083931    VACSAMEMTRNUM                                                                                          
RDG08610800WATRL000000004K00000000000000596002112112015112157N000000000000N85       000830400K 10000000010000000596           
CUS0861080000108038854009         LEWIS EDWARD HOWARD,3314 OFFUTT RD                          000N        CARE OF             
MTR08610800001000000000000000RA              41082046    005801970000019700000520000003NY  NNW 000                       N    
MTM0861080041082046    SAMEMTRNUM                                                                                             
RDG08610800WATRL000000004K00000000000002353002212112015112508N000000000000N85       001910400K 10000000010000002329           
CUS0861080000108038855006         EASTO MICHAEL P     3312 OFFUTT RD                          000N        CARE OF             
MTR08610800001000000000000000RA              50789589    005801980000019800000520000003NY  NNW 000   VACANT / LOT        N    
MTM0861080050789589    VACSAMEMTRNUM                                                                                          
RDG08610800WATRL000000004K00000000000004311002312112015112652N000000000000N85       001040400K 10000000010000004311           
CUS0861080000108349000003         MASEMORE WILLIAM B  3310 OFFUTT RD                          000N        CARE OF             
MTR08610800001000000000000000RA              01115399    005801990000019900000610000003NY  NNW 000                       N    
MTM0861080001115399    SAMEMTRNUM                                                                                             
RDG08610800WATRL000000004K00000000000001257002512112015112940N000000000000N85       000560400K 10000000010000001227           
CUS0861080000108376441005         THOMPSON HARVEY J   3308 OFFUTT RD                          000N        CARE OF             
MTR08610800001000000000000000RA              32903440    005802000000020000000520000003NN  NNW 000                       N    
RDG08610800WATRL000000004K00000000000004302002412112015112844N000000000000N85       001120400K 10000000010000004289           
CUS0861080000108405630008         KAHANOVITZ MARTIN   3306 OFFUTT RD                          000N        CARE OF             
MTR08610800001000000000000000RA              01086428    005802010000020100000610000003NY  NNW 000                       N    
MTM0861080001086428    SAMEMTRNUM                                                                                             
RDG08610800WATRL000000004K00000000000000698010312142015111947N000000000000U85       003730400K 10000000010000000684           
CUS0861080000108410361003         STOKES, JOE         3304 OFFUTT RD                          000N        CARE OF             
MTR08610800001000000000000000RA              48583526    005802020000020200000520000003NY  NNW 000                       N    
MTM0861080048583526    SAMEMTRNUM                                                                                             
RDG08610800WATRL000000004K00000000000001652010412142015112027N000000000000U85       000400400K 10000000010000001640           
CUS0861080000108413056006         WALSHE DANNY E      3204 OFFUTT RD                          000N        CARE OF             
MTR08610800001000000000000000RA              01103522    005802030000020300000610000003NN  NNW 000                       N    
RDG08610800WATRL000000004K00000000000001345002312112015113638N000000000000N83       001230400K 10000000010000001322           
CUS0861080000108405631006         CARL KRACKE         3200 OFFUTT RD                          000N        CARE OF             
MTR08610800001000000000000000RA              44086196    005802040000020400000520000003NY  NNW 000                       N    
MTM0861080044086196    MN CORRECT                                                                                             
RDG08610800WATRL000000004K00000000000001473002412112015113738N000000000000N83       000600400K 10000000010000001465           
CUS0861080000108406138001         HEFFRON DAVID F     3203 ELMO DR                            000N        CARE OF             
MTR08610800001000000000000000RA              44087860    005802050000020500000520000003NY  NNW 000                       N    
MTM0861080044087860    SAMEMTRNUM                                                                                             
RDG08610800WATRL000000004K00000000000001558002712112015113802N000000000000N85       003230400K 10000000010000001538           
CUS0861080000108405978001         JOHNSON STEVEN COREY3205 ELMO DR                            000N        CARE OF             
MTR08610800001000000000000000RA              44088661    005802060000020600000520000003NY  NNW 000                       N    
MTM0861080044088661    SAMEMTRNUM                                                                                             
RDG08610800WATRL000000004K00000000000002033002812112015113954N000000000000N85       001120400K 10000000010000002013           
CUS0861080000108406139009         BRANTLEY KAREN      3207 ELMO DR                            000N        CARE OF             
MTR08610800001000000000000000RA              44088064    005802070000020700000520000003NY  NNW 000                       N    
MTM0861080044088064    SAMEMTRNUM                                                                                             
RDG08610800WATRL000000004K00000000000002930002912112015114056N000000000001N85       000620400K 10000000010000002915           
CUS0861080000108405975007         WM GREENWALT        3301 ELMO DR                            000N        CARE OF             
MTR08610800001000000000000000RA              44088654    005802080000020800000520000003NY  NNW 000                       N    
MTM0861080044088654    SAMEMTRNUM                                                                                             
RDG08610800WATRL000000004K00000000000003205003012112015114131N000000000000N85       000350400K 10000000010000003192           
CUS0861080000108406140007         TULLOCH MICHAEL A   3206 ELMO DR                            000N        CARE OF             
MTR08610800001000000000000000RA              44086874    005802090000020900000520000003NY  NNW 000                       N    
MTM0861080044086874    OCCSAMEMTRNUM                                                                                          
RDG08610800WATRL000000004K00000000000001886003112112015114226N000400000010N85       000550400K 10000000010000001875           
CUS0861080000108405976005         MEDAIRY JAMES J     3204 ELMO DR                            000N        CARE OF             
MTR08610800001000000000000000RA              44088655    005802100000021000000520000003NY  NNW 000                       N    
