FHDNNNN026004537004537004537N                                                                                           016066
RHD08609400NN02520252000002520000000002520252000411YY025202520252001600020000000000000000000002    11182015NY020000 I         
CUS0860940000108036271008         UNION BETHEL A M E  NS LIBERTY RD                           000N        CARE OF             
MTR08609400001000000000000000RA              24768197    005800010000000100000520000003NN  NNW 000                       N    
RDG08609400WATRL000000004K00000000000000000000000000000000000 000000000000U         000000400  10000000010000006331           
CUS0860940000108424740002         LIBERTY CROSSING LAN8522 LIBERTY RD                         000N        CARE OF             
MTR08609400001000000000000000RA              46890025    007500020000000200000520000003NN  NNW 000                       N    
RDG08609400WATRL000000004K00000000000000798000112042015080722N000000000000U83       000000400K 10000000010000000788           
CUS0860940000108356915002         JACKSON PAUL E      8600 CHURCH LN                          000N        CARE OF             
MTR08609400001000000000000000RA              99188657    005800030000000300000570000003NY  NNW 000                       N    
MTM0860940099188657    MN CORRECT                                                                                             
RDG08609400WATRL000000004K00000000000001292011212042015112907N000000000000U83       000950400K 10000000010000001263           
CUS0860940000108376193002         HINES JEFFREY E     8600-A CHURCH LN                        000N        CARE OF             
MTR08609400001000000000000000RA              99188688    005800040000000400000570000003NN  NNW 000                       N    
RDG08609400WATRL000000004K00000000000002777011312042015113043N000000000000U83       000960400K 10000000010000002742           
CUS0860940000108376252006         CHAVIS HENRY T      8602 CHURCH LN                          000N        CARE OF             
MTR08609400001000000000000000RA              99188586    005800050000000500000570000003NN  NNW 000                       N    
RDG08609400WATRL000000004K00000000000000877011412042015113116N000000000000U83       000330400K 10000000010000000859           
CUS0860940000108372700008         LIANG YEN-FU        8602-A CHURCH LN                        000N        CARE OF             
MTR08609400001000000000000000RA              99188585    005800060000000600000570000003NY  NNW 000                       N    
MTM0860940099188585    MN CORRECT                                                                                             
RDG08609400WATRL000000004K00000000000001219011512042015113214N000000000000U83       000580400K 10000000010000001173           
CUS0860940000108368688001         YUSUF AHMED O       8604 CHURCH LN                          000N        CARE OF             
MTR08609400001000000000000000RA              99188692    005800070000000700000570000003NY  NNW 000                       N    
MTM0860940099188692    MN CORRECT                                                                                             
RDG08609400WATRL000000004K00000000000002608011612042015113320N000000000000U83       000660400K 10000000010000002583           
CUS0860940000108036607003         GOODMAN DANIEL      8606 CHURCH LN                          000N        CARE OF             
MTR08609400001000000000000000RA              01071692    005800080000000800000610000003NY  NNW 000                       N    
MTM0860940001071692    MN CORRECT                                                                                             
RDG08609400WATRL000000004K00000000000000988011712042015113528N000000000000U83       001280400K 10000000010000000969           
CUS0860940000108036608001         EKOMWENRENREN MARGAR8608 CHURCH LN                          000N        CARE OF             
MTR08609400001000000000000000RA              01071708    005800090000000900000610000003NY  NNW 000                       N    
MTM0860940001071708    MN CORRECT                                                                                             
RDG08609400WATRL000000004K00000000000000952011812042015113624N000000000000U83       000560400K 10000000010000000924           
CUS0860940000108036609009         WILLIAMS CAROLYN    8610 CHURCH LN                          000N        CARE OF             
MTR08609400001000000000000000RA              01071640    005800100000001000000610000003NY  NNW 000                       N    
MTM0860940001071640    MN CORRECT                                                                                             
RDG08609400WATRL000000004K00000000000000900011912042015113816N000000000000U83       001120400K 10000000010000000872           
CUS0860940000108036610007         ARPAN LLC           8612 CHURCH LN                          000N        CARE OF             
MTR08609400001000000000000000RA              40781268    005800110000001100000520000003NN  NNW 000                       N    
RDG08609400WATRL000000004K00000000000002342012012042015113944N000000000000U83       000880400K 10000000010000002293           
CUS0860940000108036611005         CANNADY EVON        8614 CHURCH LN                          000N        CARE OF             
MTR08609400001000000000000000RA              33080050    005800120000001200000520000003NY  NNW 000                       N    
MTM0860940033080050    CONDENSATION                                                                                           
RDG08609400WATRL000000004K00000000000000000000000000000000000 000000000000U         000000400  10000000010000002669           
CUS0860940000108036612003         PROGRESSIVE HORIZONS8616 CHURCH LN                          000N        CARE OF             
MTR08609400001000000000000000RA              27819779    005800130000001300000520000000NN  NNW 000                       N    
RDG08609400WATRL000000004K00000000000004907012112042015114245N000300000010U83       001810400K 10000000010000004891           
CUS0860940000108036613001         WHITE KATHY LYNN    3800 ELMCROFT RD                        000N        CARE OF             
MTR08609400001000000000000000RA              44003161    005800140000001400000520000003NY  NNW 000                       N    
MTM0860940044003161    MN CORRECT                                                                                             
RDG08609400WATRL000000004K00000000000002007000312042015082055N000300000010U83       005640400K 10000000010000002088           
CUS0860940000108036614009         POSLUSZNY STANISLAUS8622 CHURCH LN                          000N        CARE OF             
MTR08609400001000000000000000RA              01071697    005800150000001500000610000003NY  NNW 000                       N    
MTM0860940001071697    MN CORRECT                                                                                             
RDG08609400WATRL000000004K00000000000000908000412042015082249N000000000000U83       001140400K 10000000010000000896           
CUS0860940000108036615006         MEGGINSON LYN       8624 CHURCH LN                          000N        CARE OF             
MTR08609400001000000000000000RA              99287153    005800160000001600000570000000NY  NNW 000                       N    
MTM0860940099287153    MN CORRECT                                                                                             
RDG08609400WATRL000000004K00000000000000873000512042015082403N000000000000U83       000740400K 10000000010000000867           
CUS0860940000108036616004         LEOBARDO RAMIREZ GOM8626 CHURCH LN                          000N        CARE OF             
MTR08609400001000000000000000RA              01071703    005800170000001700000610000003NY  NNW 000                       N    
MTM0860940001071703    MN CORRECT                                                                                             
RDG08609400WATRL000000004K00000000000002541000612042015082457N000000000000U83       000540400K 10000000010000002496           
CUS0860940000108036617002         GLENN WALTER GONZELO8628 CHURCH LN                          000N        CARE OF             
MTR08609400001000000000000000RA              24761539    005800180000001800000520000000NY  NNW 000                       N    
MTM0860940024761539    MN CORRECT                                                                                             
RDG08609400WATRL000000004K00000000000002462000712042015082615N000000000000U83       000780400K 10000000010000002452           
CUS0860940000108036618000         LESTER LINDA MAY    8630 CHURCH LN                          000N        CARE OF             
MTR08609400001000000000000000RA              99188588    005800190000001900000570000003NY  NNW 000                       N    
MTM0860940099188588    MN CORRECT                                                                                             
RDG08609400WATRL000000004K00000000000000938000812042015082741N000000000000U83       000860400K 10000000010000000928           
CUS0860940000108036619008         NORRIS HENRY        8632 CHURCH LN                          000N        CARE OF             
MTR08609400001000000000000000RA              45380631    005800200000002000000520000003NY  NNW 000                       N    
MTM0860940045380631    MN CORRECT                                                                                             
RDG08609400WATRL000000004K00000000000001418000912042015082922N000000000000U83       001010400K 10000000010000001405           
CUS0860940000108405907000         PEACOCK BARBARA L   8634 CHURCH LN                          000N        CARE OF             
MTR08609400001000000000000000RA              44088144    005800210000002100000520000003NY  NNW 000                       N    
MTM0860940044088144    MN CORRECT                                                                                             
RDG08609400WATRL000000004K00000000000002687001012042015083011N000000000000U83       000490400K 10000000010000002667           
CUS0860940000108404178009         SINGH HARWANT       8700 CHURCH LN                          000N        CARE OF             
MTR08609400001000000000000000RA              99188317    005800220000002200000570000003NY  NNW 000                       N    
MTM0860940099188317    MN CORRECT                                                                                             
RDG08609400WATRL000000004K00000000000003304001212042015083329N000000000000U83       000590400K 10000000010000003234           
CUS0860940000108036620006         GOGGANS MELVIN,JR   8702 CHURCH LN                          000N        CARE OF             
MTR08609400001000000000000000RA              01071702    005800230000002300000610000003NN  NNW 000                       N    
RDG08609400WATRL000000004K00000000000001607012812042015120246N000000000000U83       001820400K 10000000010000001597           
CUS0860940000108407049009         DANSBURY WAYNE W    8700A CHURCH LN                         000N        CARE OF             
MTR08609400001000000000000000RA              44172483    005800240000002400000520000003NN  NNW 000                       N    
RDG08609400WATRL000000004K00000000000005950001112042015083230N000000000000U83       001390400K 10000000010000005770           
CUS0860940000108036621004         FARCHION WESLEY T   8704 CHURCH LN                          000N        CARE OF             
MTR08609400001000000000000000RA              11428080    005800250000002500000570000003NN  NNW 000                       N    
RDG08609400WATRL000000004K00000000000003165012912042015120502N000000000000U83       001360400K 10000000010000003084           
CUS0860940000108036622002         BURGESS DORIS MAE   8706 CHURCH LN                          000N        CARE OF             
MTR08609400001000000000000000RA              36691308    005800260000002600000520000003NN  NNW 000                       N    
RDG08609400WATRL000000004K00000000000001214001312042015083544N000000000000U83       001350400K 10000000010000001192           
CUS0860940000108036623000         NAYLOR WILLIAM R    8708 CHURCH LN                          000N        CARE OF             
MTR08609400001000000000000000RA              24761371    005800270000002700000520000003NY  NNW 000                       N    
MTM0860940024761371    MN CORRECT                                                                                             
RDG08609400WATRL000000004K00000000000004996001412042015083709N000000000000U83       000850400K 10000000010000004984           
CUS0860940000108036624008         ELLERBEE JAMES      8710 CHURCH LN                          000N        CARE OF             
MTR08609400001000000000000000RA              35108923    005800280000002800000520000003NY  NNW 000                       N    
MTM0860940035108923    MN CORRECT                                                                                             
RDG08609400WATRL000000004K00000000000002343001512042015083837N000000000000U83       000880400K 10000000010000002316           
CUS0860940000108411729000         SMITH SAMMY D       8712 CHURCH LN                          000N        CARE OF             
MTR08609400001000000000000000RA              50478700    005800290000002900000520000003NY  NNW 000                       N    
MTM0860940050478700    MN CORRECT                                                                                             
RDG08609400WATRL000000004K00000000000002559001612042015083932N000000000000U83       000550400K 10000000010000002539           
CUS0860940000108036625005         FLETCHER MAXINE     8714 CHURCH LN                          000N        CARE OF             
MTR08609400001000000000000000RA              2305885     005800300000003000000520000003NY  NNW 000                       N    
MTM086094002305885     MN CORRECT                                                                                             
RDG08609400WATRL000000004K00000000000003786001712042015084043N000000000000U83       000710400K 10000000010000003757           
CUS0860940000108403205001         WALTERS MELVIN LEROY8716 CHURCH LN                          000N        CARE OF             
MTR08609400001000000000000000RA              41086171    005800310000003100000520000003NY  NNW 000                       N    
MTM0860940041086171    MN CORRECT                                                                                             
RDG08609400WATRL000000004K00000000000003326001812042015084156N000300000010U83       000730400K 10000000010000003347           
CUS0860940000108403204004         BIRCKHEAD NICOLLE B 8718 CHURCH LN                          000N        CARE OF             
MTR08609400001000000000000000RA              41086168    005800320000003200000520000003NY  NNW 000                       N    
MTM0860940041086168    MN CORRECT                                                                                             
RDG08609400WATRL000000004K00000000000002661001912042015084307N000000000000U83       000710400K 10000000010000002639           
CUS0860940000108403203006         BOSTIC TEARSA S     8720 CHURCH LN                          000N        CARE OF             
MTR08609400001000000000000000RA              14904223    005800330000003300000310000003NY  NNW 000                       N    
MTM0860940014904223    MN CORRECT                                                                                             
RDG08609400WATRL000000004K00000000000003447002012042015084348N000000000000U83       000410400K 10000000010000003389           
CUS0860940000108386783008         SINGH JARNAIL       8722 CHURCH LN                          000N        CARE OF             
MTR08609400001000000000000000RA              14920792    005800340000003400000310000003NY  NNW 000                       N    
MTM0860940014920792    MN CORRECT                                                                                             
RDG08609400WATRL000000004K00000000000001693002212042015084527N000000000000U83       000470400K 10000000010000001657           
CUS0860940000108440635004         WILLIAMS DEBORAH T  8722A CHURCH LN                         000N        CARE OF             
MTR08609400001000000000000000RA              14914686    005800350000003500000570000003NN  NNW 000                       N    
RDG08609400WATRL000000004K00000000000001360002112042015084440N000000000000U83       000520400K 10000000010000001285           
CUS0860940000108403651006         HURT EARL T         8726 CHURCH LN                          000N        CARE OF             
MTR08609400001000000000000000RA              41087442    005800360000003600000520000003NY  NNW 000                       N    
MTM0860940041087442    MN CORRECT                                                                                             
RDG08609400WATRL000000004K00000000000003138002312042015084657N000000000000U83       000900400K 10000000010000003114           
CUS0860940000108036627001         BURGESS ROSLYN      8728 CHURCH LN                          000N        CARE OF             
MTR08609400001000000000000000RA              11327176    005800370000003700000570000003NY  NNW 000                       N    
MTM0860940011327176    MN CORRECT                                                                                             
RDG08609400WATRL000000004K00000000000005920002412042015084809N000400000010U83       000720400K 10000000010000005906           
CUS0860940000108036628009         THOMPSON ERNEST L,3R8730 CHURCH LN                          000N        CARE OF             
MTR08609400001000000000000000RA              24766526    005800380000003800000520000003NN  NNW 000                       N    
RDG08609400WATRL000000004K00000000000004140002512042015084924N000000000000U83       000750400K 10000000010000004123           
CUS0860940000108410349008         GRAY DOUGLAS REED   8736 CHURCH LN                          000N        CARE OF             
MTR08609400001000000000000000RA              45384226    005800390000003900000520000003NY  NNW 000                       N    
MTM0860940045384226    MN CORRECT                                                                                             
RDG08609400WATRL000000004K00000000000002013008912042015103655N000000000000U83       000760400K 10000000010000001999           
CUS0860940000108410350006         JACKSON GENEVIEVE R 8738 CHURCH LN                          000N        CARE OF             
MTR08609400001000000000000000RA              46886247    005800400000004000000520000003NY  NNW 000                       N    
MTM0860940046886247    MN CORRECT                                                                                             
RDG08609400WATRL000000004K00000000000001811009012042015103748N000000000000U83       000530400K 10000000010000001800           
CUS0860940000108410351004         FREELAND BRIAN L    8740 CHURCH LN                          000N        CARE OF             
MTR08609400001000000000000000RA              46886242    005800410000004100000520000003NY  NNW 000                       N    
MTM0860940046886242    MN CORRECT                                                                                             
RDG08609400WATRL000000004K00000000000002748009112042015103751N000000000000U83       000030400K 10000000010000002730           
CUS0860940000108410352002         POWELL CORDELL      8742 CHURCH LN                          000N        CARE OF             
MTR08609400001000000000000000RA              46886244    005800420000004200000520000003NY  NNW 000                       N    
MTM0860940046886244    MN CORRECT                                                                                             
RDG08609400WATRL000000004K00000000000002117009212042015103858N000000000000U83       000670400K 10000000010000002098           
CUS0860940000108410353000         NORTHWEST SAVINGS BA8744 CHURCH LN                          000N        CARE OF             
MTR08609400001000000000000000RA              46886248    005800430000004300000520000003NY  NNW 000                       N    
MTM0860940046886248    MN CORRECT                                                                                             
RDG08609400WATRL000000004K00000000000001706009312042015103922N000300000010U83       000240400K 10000000010000001737           
CUS0860940000108410347002         HAUGHTON ERROL A    3706 SPRINGDELL AVE                     000N        CARE OF             
MTR08609400001000000000000000RA              46886246    005800440000004400000520000000NY  NNW 000                       N    
MTM0860940046886246    MN CORRECT                                                                                             
RDG08609400WATRL000000004K00000000000002899008512042015103121N000000000000U83       001930400K 10000000010000002880           
CUS0860940000108410346004         SHARMA PRATIBHA     3704 SPRINGDELL AVE                     000N        CARE OF             
MTR08609400001000000000000000RA              45383325    005800450000004500000520000003NY  NNW 000                       N    
MTM0860940045383325    MN CORRECT                                                                                             
RDG08609400WATRL000000004K00000000000002120008612042015103220N000000000000U83       000590400K 10000000010000002101           
CUS0860940000108410357001         ABU ZAINAB          3702 SPRINGDELL AVE                     000N        CARE OF             
MTR08609400001000000000000000RA              45383308    005800460000004600000520000003NY  NNW 000                       N    
MTM0860940045383308    MN CORRECT                                                                                             
RDG08609400WATRL000000004K00000000000002715008712042015103406N000000000000U83       001060400K 10000000010000002704           
CUS0860940000108410355005         UMELO CONCILLIA  UZO3700 SPRINGDELL AVE                     000N        CARE OF             
MTR08609400001000000000000000RA              14930593    005800470000004700000310000003NY  NNW 000                       N    
MTM0860940014930593    MN CORRECT                                                                                             
RDG08609400WATRL000000004K00000000000000676008812042015103539N000000000000U83       000930400K 10000000010000000653           
CUS0860940000108410610003         JOHNSON RONALD      3707 SPRINGDELL AVE                     000N        CARE OF             
MTR08609400001000000000000000RA              52290375    005800480000004800000520000003NY  NNW 000                       N    
MTM0860940052290375    MN CORRECT                                                                                             
RDG08609400WATRL000000004K00000000000001940002712042015085430N000000000000U83       002050400K 10000000010000001916           
CUS0860940000108036629007         MICHAEL GASKILL     3701 SPRINGDELL AVE                     000N        CARE OF             
MTR08609400001000000000000000RA              31581174    005800490000004900000520000003NY  NNW 000                       N    
MTM0860940031581174    MN CORRECT                                                                                             
RDG08609400WATRL000000004K00000000000002765002612042015085105N000300000010U83       001010400K 10000000010000002760           
CUS0860940000108410611001         MANCE CAROLYN V     3703 SPRINGDELL AVE                     000N        CARE OF             
MTR08609400001000000000000000RA              78005421    005800500000005000000350000003NN  NNW 000                       N    
RDG08609400WATRL000000004K00000000000000000000000000000000000 000000000000U         000000400  10000000010000000029           
CUS0860940000108410612009         DDA HOMES , LLC     3705 SPRINGDELL AVE                     000N        CARE OF             
MTR08609400001000000000000000RA              77989531    005800510000005100000350000003NN  NNW 000                       N    
RDG08609400WATRL000000004K00000000000000282013012042015121029N000300000010U83       003270400K 10000000010000000278           
CUS0860940000108036630005         HOUSE OF WORSHIP    8731 CHURCH LN                          000N        CARE OF             
MTR08609400001000000000000000RA              99410503    000100520000005200000570000003NY  NNW 000   VACANT / LOT        N    
MTM0860940099410503    MN CORRECT                                                                                             
RDG08609400WATRL000000004K00000000000003566009412042015104359N000000000000U83       002770400K 10000000010000003566           
CUS0860940000108036631003         HOUSE OF WORSHIP    8729 CHURCH LN                          000N        CARE OF             
MTR08609400001000000000000000RA              33080482    005800530000005300000520000003NY  NNW 000   VACANT / LOT        N    
MTM0860940033080482    MN CORRECT                                                                                             
RDG08609400WATRL000000004K00000000000005972009512042015104549N000000000000U83       001100400K 10000000010000005972           
CUS0860940000108410359007         BROWN COREY S       3653 BRENBROOK DR                       000N        CARE OF             
MTR08609400001000000000000000RA              77889060    005800540000005400000360000003NN  NNW 000                       N    
RDG08609400WATRL000000004K00000000000000000000000000000000000 000000000000U         000000400  10000000010000000014           
CUS0860940000108410360005         ROBINSON TIA E      3655 BRENBROOK DR                       000N        CARE OF             
MTR08609400001000000000000000RA              99999999    005800550000005500000620000003NN  NNW 000                       N    
RDG08609400WATRL000000004K00000000000000000000000000000000000 000000000000U         000000400  10000000010000001412           
CUS0860940000108410358009         NANCE HENRI         3657 BRENBROOK DR                       000N        CARE OF             
MTR08609400001000000000000000RA              46882392    005800560000005600000520000003NN  NNW 000                       N    
RDG08609400WATRL000000004K00000000000004229008112042015102521N000000000000U83       003140400K 10000000010000004196           
CUS0860940000108410356003         VIOLA I WARFIELD    3659 BRENBROOK DR                       000N        CARE OF             
MTR08609400001000000000000000RA              46883986    005800570000005700000520000003NN  NNW 000                       N    
RDG08609400WATRL000000004K00000000000006883008212042015102616N000000000000U83       000550400K 10000000010000006812           
CUS0860940000108410354008         WALTERS TAMMY E     3661 BRENBROOK DR                       000N        CARE OF             
MTR08609400001000000000000000RA              46882396    005800580000005800000520000003NN  NNW 000                       N    
RDG08609400WATRL000000004K00000000000002405008312042015102705N000000000000U83       000490400K 10000000010000002374           
CUS0860940000108410348000         REGINALD WAVERLY JOH3663 BRENBROOK DR                       000N        CARE OF             
MTR08609400001000000000000000RA              46882393    005800590000005900000520000003NY  NNW 000                       N    
MTM0860940046882393    MN CORRECT                                                                                             
RDG08609400WATRL000000004K00000000000003887008412042015102808N000000000000U83       000630400K 10000000010000003835           
CUS0860940000108036635004         HUY TRAN/JENNY NHU  8631 CHURCH LN                          000N        CARE OF             
MTR08609400001000000000000000RA              46886249    005800600000006100010520000003NN  NNW 000                       N    
RDG08609400WATRL000000004K00000000000000577012712042015115944N000000000000U83       004060400K 10000000010000000569           
CUS0860940000108036636002         ALLEN WILLIAM G,TRUS8619 CHURCH LN                          000N        CARE OF             
MTR08609400001000000000000000RA              75616100    005800610000006100000350000003NN  NNW 000                       N    
RDG08609400WATRL000000004K00000000000000061012612042015115258N000000000000U83       001610400K 10000000010000000053           
CUS0860940000108036637000         DIGRAZIA MICHAEL P  8613 CHURCH LN                          000N        CARE OF             
MTR08609400001000000000000000RA              75618080    005800620000006200000350000003NN  NNW 000                       N    
RDG08609400WATRL000000004K00000000000000000012512042015115017N000300000010U83       001160400K 10000000010000000079           
CUS0860940000108036638008         UNION BETHEL A M E C8611 CHURCH LN                          000N        CARE OF             
MTR08609400001000000000000000RA              52768527    005800630000006300000520000003NY  NNW 000                       N    
MTM0860940052768527    VAC                                                                                                    
RDG08609400WATRL000000004K00000000000000373012412042015114821N000100000010U83       000380400K 10000000010000000373           
CUS0860940000108036639006         WELLS WILLIAM HARRY 8609 CHURCH LN                          000N        CARE OF             
MTR08609400001000000000000000RA              21202425    005800640000006400000520000003NN  NNW 000                       N    
RDG08609400WATRL000000004K00000000000004191012312042015114743N000000000000U83       000750400K 10000000010000004173           
CUS0860940000108036640004         BLUEFORD CATHERINE V8605 CHURCH LN                          000N        CARE OF             
MTR08609400001000000000000000RA              01071645    005800650000006500000610000003NN  NNW 000                       N    
RDG08609400WATRL000000004K00000000000000745012212042015114628N000000000000U83       002230400K 10000000010000000740           
CUS0860940000108036641002         ADMD INC            5100 OLD COURT RD                       000N        CARE OF             
MTR08609400001000000000000000RA              46889425    007500660000006600000520000003NN  NNW 000                       N    
RDG08609400WATRL000000004K00000000000002694011112042015112732N000000000000U83       000850400K 10000000010000002683           
CUS0860940000108415752008         YOUNGBLOOD WILLIE J 5106 OLD COURT RD                       000N        CARE OF             
MTR08609400001000000000000000RA              48589612    005800670000006700000520000003NN  NNW 000                       N    
RDG08609400WATRL000000004K00000000000001937011012042015112607N000000000000U83       000750400K 10000000010000001914           
CUS0860940000108379764007         WILSON VERNELL      5108 OLD COURT RD                       000N        CARE OF             
MTR08609400001000000000000000RA              35114779    005800680000006800000520000003NY  NNW 000                       N    
MTM0860940035114779    MN  CORRECT                                                                                            
RDG08609400WATRL000000004K00000000000003778010912042015112452N000000000001U83       001750400K 10000000010000003761           
CUS0860940000108389208003         INTERVALS RESIDENTIA5116 OLD COURT RD                       000N        CARE OF             
MTR08609400001000000000000000RA              36689578    005800690000006900000520000003NY  NNW 000                       N    
MTM0860940036689578    MN CORRECT                                                                                             
RDG08609400WATRL000000004K00000000000001958010812042015112157N000000000000U83       002860400K 10000000010000001887           
CUS0860940000108446323001         MOUNT OLIVE UNITED  5115 OLD COURT RD                       000N        CARE OF             
MTR08609400001000000000000000RA              75427117    007500700000007000000350000003NN  NNW 000                       N    
RDG08609400WATRL000000004K00000000000001033000212042015081131N000000000000U83       002490400K 10000000010000000827           
CUS0860940000108036642000         RICH GRECO          8600 LIBERTY RD                         000N        CARE OF             
MTR08609400001000000000000000RA              30001865    007500710000007100000570000003NY  NNW 000                       N    
MTM0860940030001865    MN CORRECT                                                                                             
RDG08609400WATRL000000004K00000000000000998010712042015111711N000400000010U83       002730400K 10000000010000000995           
CUS0860940000108348736003         AMERICAN BUILDING AS8610 LIBERTY RD                         000N        CARE OF             
MTR08609400001000000000000000RA              46890940    007500720000007200000520000003NN  NNW 000                       N    
RDG08609400WATRL000000004K00000000000008947010612042015111238N000000000000U83       000670400K 10000000010000008802           
CUS0860940000108036644006         AMERICAN BUILDING AS8634 LIBERTY RD                         000N        CARE OF             
MTR08609400001000000000000000RA              00121062    007500730000007300000570000003NY  NNW 000                       N    
MTM0860940000121062    MN CORRECT                                                                                             
RDG08609400WATRL000000004K00000000000008601010512042015111131N000000000000U83       000570400K 10000000010000008420           
CUS0860940000108036646001         NEW PLAN MARYLAND HONS LIBERTY RD 1200 FT                   000N        CARE OF             
MTR08609400001000000000000000RA              1209002     001500740000007400000490000003NN  NNW 000                       N    
RDG08609400WATRL000000005K00000000000000000010412042015111034S022000000000U83       003100500K 10000000010000031357           
CUS0860940000108036647009         EZRINE MILTON,ET AL 8702 LIBERTY RD                         000N        CARE OF             
MTR08609400001000000000000000RA              41589360    005800750000007500000520000003NY  NNW 000                       N    
MTM0860940041589360    MN CORRECT                                                                                             
RDG08609400WATRL000000004K00000000000001208010312042015110524N000400000010U83       001140400K 10000000010000001188           
CUS0860940000108036648007         EZRINE MILTON,ET AL 8704 LIBERTY RD                         000N        CARE OF             
MTR08609400001000000000000000RA              41081304    005800760000007600000520000003NY  NNW 000                       N    
MTM0860940041081304    CLEAN OUT VLT                                                                                          
RDG08609400WATRL000000004K00000000000000000000000000000000000 000000000000U         000000400  10000000010000003681           
CUS0860940000108036649005         NEW PLAN MARYLAND HO8708 LIBERTY RD                         000N        CARE OF             
MTR08609400001000000000000000RA              10024836    005800770000007700000570000003NY  NNW 000                       N    
MTM0860940010024836    MN CORRECT                                                                                             
RDG08609400WATRL000000004K00000000000000424010212042015110330N000000000000U83       000840400K 10000000010000000364           
CUS0860940000108036652009         SMO INCORPORATED    8712 LIBERTY RD                         000N        CARE OF             
MTR08609400001000000000000000RA              00117963    007500780000007800000570000003NY  NNW 000                       N    
MTM0860940000117963    MN CORRECT                                                                                             
RDG08609400WATRL000000004K00000000000001143010112042015110206N000000000000U83       001580400K 10000000010000001124           
CUS0860940000108397473003         GRIFFINS SERVICE CEN3605 BRENBROOK DR                       000N        CARE OF             
MTR08609400001000000000000000RA              33733637    005800790000007900000520000003NY  NNW 000                       N    
MTM0860940033733637    MN CORRECT                                                                                             
RDG08609400WATRL000000004K00000000000002482009712042015105225N000000000000U83       001990400K 10000000010000002469           
CUS0860940000108036632001         BRENBROOK ONE LLC & SWC BRENBROOK DR &                      000N        CARE OF             
MTR08609400001000000000000000RA              28766749    007500800000008000000520000003NY  NNW 000                       N    
MTM0860940028766749    MN CORRECT                                                                                             
RDG08609400WATRL000000004K00000000000008293009612042015104906N000000000000U83       001970400K 10000000010000008251           
CUS0860940000108036653007         GOLDMAN SOL         8716 LIBERTY RD                         000N        CARE OF             
MTR08609400001000000000000000RA              99286022    005800810000008100000570000003NY  NNW 000                       N    
MTM0860940099286022    MN CORRECT                                                                                             
RDG08609400WATRL000000004K00000000000000497009812042015105607N000000000000U83       002220400K 10000000010000000471           
CUS0860940000108036654005         M & G PROPERTY MANAG8728 LIBERTY RD                         000N        CARE OF             
MTR08609400001000000000000000RA              99412207    007500820000008200000570000003NY  NNW 000                       N    
MTM0860940099412207    MN CORRECT                                                                                             
RDG08609400WATRL000000004K00000000000000000009912042015105752N000000000000U83       001050400K 10000000010000000000           
CUS0860940000108036655002         M & G PROPERTY MANAG8728 LIBERTY RD                         000N        CARE OF             
MTR08609400001000000000000000RA              45386197    005800830000008300000520000003NY  NNW 000                       N    
MTM0860940045386197    MN CORRECT                                                                                             
RDG08609400WATRL000000004K00000000000006823010012042015105928N000000000000U83       000960400K 10000000010000006710           
CUS0860940000108036656000         NEW SHAKESPEARE PARK8802 LIBERTY RD                         000N        CARE OF             
MTR08609400001000000000000000RA              31582594    005800840000008400000520000003NN  NNW 000                       N    
RDG08609400WATRL000000004K00000000000000000000000000000000000 000000000000U         000000400  10000000010000000103           
CUS0860940000108036657008         MUNN ELIZABETH MARIE3601 BLAIR AVE                          000N        CARE OF             
MTR08609400001000000000000000RA              31936347    005800850000008500000520000003NY  NNW 000                       N    
MTM0860940031936347    SAMEMTRNUM                                                                                             
RDG08609400WATRL000000004K00000000000004147000112022015092126N000000000000N85       000000400K 10000000010000004116           
CUS0860940000108036658006         MERRILL L HOUSTON   3603 BLAIR AVE                          000N        CARE OF             
MTR08609400001000000000000000RA              01071598    005800860000008600000610000003NY  NNW 000                       N    
MTM0860940001071598    SAMEMTRNUM                                                                                             
RDG08609400WATRL000000004K00000000000001138000212022015092206N000000000000N85       000400400K 10000000010000001124           
CUS0860940000108036659004         LEMA NKIAMBI JEAN   3605 BLAIR AVE                          000N        CARE OF             
MTR08609400001000000000000000RA              48588157    005800870000008700000520000003NY  NNW 000                       N    
MTM0860940048588157    SAMEMTRNUM                                                                                             
RDG08609400WATRL000000004K00000000000002163000312022015093446N000000000000N85       007600400K 10000000010000002155           
CUS0860940000108036660002         RANDOLPH MAE W      3607 BLAIR AVE                          000N        CARE OF             
MTR08609400001000000000000000RA              52768606    005800880000008800000520000003NY  NNW 000                       N    
MTM0860940052768606    SAMEMTRNUM                                                                                             
RDG08609400WATRL000000004K00000000000001468000412022015093534N000000000000N85       000480400K 10000000010000001459           
CUS0860940000108036661000         EDMONDSON JULIUS L  3609 BLAIR AVE                          000N        CARE OF             
MTR08609400001000000000000000RA              44092502    005800890000008900000520000000NY  NNW 000                       N    
MTM0860940044092502    SAMEMTRNUM                                                                                             
RDG08609400WATRL000000004K00000000000001410000512022015093613N000000000000N85       000390400K 10000000010000001399           
CUS0860940000108036662008         KENNETH TERRY       3611 BLAIR AVE                          000N        CARE OF             
MTR08609400001000000000000000RA              44092503    005800900000009000000520000003NY  NNW 000                       N    
MTM0860940044092503    SAMEMTRNUM                                                                                             
RDG08609400WATRL000000004K00000000000002732000612022015093659N000000000000N85       000460400K 10000000010000002702           
CUS0860940000108036663006         COCKRELL JESSE D    3613 BLAIR AVE                          000N        CARE OF             
MTR08609400001000000000000000RA              45377577    005800910000009100000520000003NY  NNW 000                       N    
MTM0860940045377577    SAMEMTRNUM                                                                                             
RDG08609400WATRL000000004K00000000000002334000712022015093733N000000000000N85       000340400K 10000000010000002319           
CUS0860940000108036664004         CREATIVE OPTIONS INC3615 BLAIR AVE                          000N        CARE OF             
MTR08609400001000000000000000RA              10009896    005800920000009200000570000003NY  NNW 000                       N    
MTM0860940010009896    SAMEMTRNUME                                                                                            
RDG08609400WATRL000000004K00000000000001014000812022015093814N000000000000N85       000410400K 10000000010000000980           
CUS0860940000108036665001         JACK A MILLARD      3617 BLAIR AVE                          000N        CARE OF             
MTR08609400001000000000000000RA              45380629    005800930000009300000520000003NY  NNW 000                       N    
MTM0860940045380629    SAMEMTRNUM                                                                                             
RDG08609400WATRL000000004K00000000000001700000912022015093913N000000000000N85       000590400K 10000000010000001652           
CUS0860940000108036666009         REID JAMES E,3RD    3619 BLAIR AVE                          000N        CARE OF             
MTR08609400001000000000000000RA              01071592    005800940000009400000610000003NY  NNW 000                       N    
MTM0860940001071592    SAMEMTRNUM                                                                                             
RDG08609400WATRL000000004K00000000000002053001012022015093954N000000000000N85       000410400K 10000000010000002034           
CUS0860940000108036667007         RANA MCMAHON-MOORER 3621 BLAIR AVE                          000N        CARE OF             
MTR08609400001000000000000000RA              01094852    005800950000009500000610000003NY  NNW 000                       N    
MTM0860940001094852    SAMEMTRNUM                                                                                             
RDG08609400WATRL000000004K00000000000000885001112022015094100N000000000000N85       000660400K 10000000010000000855           
CUS0860940000108036668005         PAT HIBAN REAL ESTAT3623 BLAIR AVE                          000N        CARE OF             
MTR08609400001000000000000000RA              01094850    005800960000009600000610000003NY  NNW 000                       N    
MTM0860940001094850    OCCSAMEMTRNUM                                                                                          
RDG08609400WATRL000000004K00000000000000657001212022015094205N000300000010N85       000650400K 10000000010000000645           
CUS0860940000108036669003         SAMUELS JOHN,3RD    8809 CHURCH LN                          000N        CARE OF             
MTR08609400001000000000000000RA              10024601    005800970000009700000570000003NY  NNW 000                       N    
MTM0860940010024601    SAMEMTRNUM                                                                                             
RDG08609400WATRL000000004K00000000000000565001312022015094247N000000000000N85       000420400K 10000000010000000540           
CUS0860940000108036670001         ALBERT A SPENCE     3618 BLAIR AVE                          000N        CARE OF             
MTR08609400001000000000000000RA              23646008    005800980000009800000520000003NY  NNW 000                       N    
MTM0860940023646008    SAMEMTRNUM                                                                                             
RDG08609400WATRL000000004K00000000000002694001412022015094358N000000000000N85       000710400K 10000000010000002685           
CUS0860940000108036671009         ORANGE KEDRICK A    3616 BLAIR AVE                          000N        CARE OF             
MTR08609400001000000000000000RA              48594700    005800990000009900000520000003NY  NNW 000                       N    
MTM0860940048594700    SAMEMTRNUM                                                                                             
RDG08609400WATRL000000004K00000000000001191001512022015094433N000000000000N85       000350400K 10000000010000001175           
CUS0860940000108036672007         ARCHER DENISE L     3614 BLAIR AVE                          000N        CARE OF             
MTR08609400001000000000000000RA              23058874    005801000000010000000520000003NY  NNW 000                       N    
MTM0860940023058874    SAMEMTRNUM                                                                                             
RDG08609400WATRL000000004K00000000000003495001612022015094541N000000000000N85       000680400K 10000000010000003463           
CUS0860940000108036673005         SHELA MAEREASE CAMER3612 BLAIR AVE                          000N        CARE OF             
MTR08609400001000000000000000RA              50791806    005801010000010100000520000003NY  NNW 000                       N    
MTM0860940050791806    OCCSAMEMTRNUM                                                                                          
RDG08609400WATRL000000004K00000000000002549001712022015094625N000400000010N85       000440400K 10000000010000002539           
CUS0860940000108036674003         MARION TERESA       3610 BLAIR AVE                          000N        CARE OF             
MTR08609400001000000000000000RA              44092500    005801020000010200000520000003NY  NNW 000                       N    
MTM0860940044092500    SAMEMTRNUM                                                                                             
RDG08609400WATRL000000004K00000000000001780001812022015094711N000000000000N85       000460400K 10000000010000001778           
CUS0860940000108036675000         ALFRED N MURDOCK JR 3608 BLAIR AVE                          000N        CARE OF             
MTR08609400001000000000000000RA              40781436    005801030000010300000520000003NY  NNW 000                       N    
MTM0860940040781436    VACSAMEMTRNUM                                                                                          
RDG08609400WATRL000000004K00000000000003216001912022015094755N000400000010N85       000440400K 10000000010000003214           
CUS0860940000108036676008         MILLS KENNETH A,SR  3606 BLAIR AVE                          000N        CARE OF             
MTR08609400001000000000000000RA              14922948    005801040000010400000310000003NY  NNW 000                       N    
MTM0860940014922948    OCCSAMEMTRNUM                                                                                          
RDG08609400WATRL000000004K00000000000001471002012022015094835N000400000010N85       000400400K 10000000010000001461           
CUS0860940000108036677006         DUNLAP KEVIN C      3604 BLAIR AVE                          000N        CARE OF             
MTR08609400001000000000000000RA              10024604    005801050000010500000570000003NY  NNW 000                       N    
MTM0860940010024604    SAMEMTRNUM                                                                                             
RDG08609400WATRL000000004K00000000000000223002112022015094940N000000000000N85       000650400K 10000000010000000207           
CUS0860940000108036678004         SIMON GLASGOW       3602 BLAIR AVE                          000N        CARE OF             
MTR08609400001000000000000000RA              33080237    005801060000010600000520000003NY  NNW 000                       N    
MTM0860940033080237    SAMEMTRNUM                                                                                             
RDG08609400WATRL000000004K00000000000004080002212022015095100N000000000000N85       000800400K 10000000010000004056           
CUS0860940000108036679002         JACKSON BETTY       3600 BLAIR AVE                          000N        CARE OF             
MTR08609400001000000000000000RA              40781439    005801070000010700000520000003NY  NNW 000                       N    
MTM0860940040781439    SAMEMTRNUM                                                                                             
RDG08609400WATRL000000004K00000000000003228002312022015095235N000000000000N85       000950400K 10000000010000003204           
CUS0860940000108036680000         CRAEMER ALBERT J    3601 RUSTY ROCK RD                      000N        CARE OF             
MTR08609400001000000000000000RA              48592914    005801080000010800000520000003NY  NNW 000                       N    
MTM0860940048592914    BURIED                                                                                                 
RDG08609400WATRL000000004K00000000000000000000000000000000000 000000000000U         000000400  10000000010000001129           
CUS0860940000108036681008         JOHNSON KENNETH CARL3607 RUSTY ROCK RD                      000N        CARE OF             
MTR08609400001000000000000000RA              48590517    005801090000010900000520000003NY  NNW 000                       N    
MTM0860940048590517    SAMEMTRNUM                                                                                             
RDG08609400WATRL000000004K00000000000002450002412022015095750N000000000000N85       003150400K 10000000010000002429           
CUS0860940000108036682006         AUERBACK GARY S     3609 RUSTY ROCK RD                      000N        CARE OF             
MTR08609400001000000000000000RA              44092589    005801100000011000000520000003NY  NNW 000                       N    
MTM0860940044092589    SAMEMTRNUM                                                                                             
RDG08609400WATRL000000004K00000000000002612002512022015095830N000000000000N85       000400400K 10000000010000002605           
CUS0860940000108036683004         AMADO KEVIN G       3611 RUSTY ROCK RD                      000N        CARE OF             
MTR08609400001000000000000000RA              52285794    005801110000011100000520000003NY  NNW 000                       N    
MTM0860940052285794    SAMEMTRNUM                                                                                             
RDG08609400WATRL000000004K00000000000002908002612022015095908N000000000000N85       000380400K 10000000010000002883           
CUS0860940000108036684002         BENNETT WESLEY      3613 RUSTY ROCK RD                      000N        CARE OF             
MTR08609400001000000000000000RA              44092618    005801120000011200000520000003NY  NNW 000                       N    
MTM0860940044092618    OCCSAMEMTRNUM                                                                                          
RDG08609400WATRL000000004K00000000000004607002712172015113255O000000000010N80       000400400K 10000000010000004579           
CUS0860940000108036685009         FLEMMING WAYNE      3615 RUSTY ROCK RD                      000N        CARE OF             
MTR08609400001000000000000000RA              7242115     005801130000011300000520000003NY  NNW 000                       N    
MTM086094007242115     SAMEMTRNUM                                                                                             
RDG08609400WATRL000000004K00000000000004439002812022015100049N000000000000N85       000610400K 10000000010000004418           
CUS0860940000108036686007         TONI TABRON         3617 RUSTY ROCK RD                      000N        CARE OF             
MTR08609400001000000000000000RA              27832357    005801140000011400000520000003NY  NNW 000                       N    
MTM0860940027832357    SAMEMTRNUM                                                                                             
RDG08609400WATRL000000004K00000000000003957002912022015100221N000000000000N85       000920400K 10000000010000003947           
CUS0860940000108036687005         MICHELE R. VILLINES 3619 RUSTY ROCK RD                      000N        CARE OF             
MTR08609400001000000000000000RA              01071596    005801150000011500000610000003NY  NNW 000                       N    
MTM0860940001071596    SAMEMTRNUM                                                                                             
RDG08609400WATRL000000004K00000000000001241003012022015100334N000000000000N85       000730400K 10000000010000001223           
CUS0860940000108036688003         CHRISTINE T. GUNTER 3621 RUSTY ROCK RD                      000N        CARE OF             
MTR08609400001000000000000000RA              48592657    005801160000011600000520000003NY  NNW 000                       N    
MTM0860940048592657    SAMEMTRNUM                                                                                             
RDG08609400WATRL000000004K00000000000001675003112022015100518N000000000000N85       001040400K 10000000010000001660           
CUS0860940000108036689001         WILSON RENEE H      8813 CHURCH LN                          000N        CARE OF             
MTR08609400001000000000000000RA              99187547    005801170000011700000570000003NY  NNW 000                       N    
MTM0860940099187547    SAMEMTRNUM                                                                                             
RDG08609400WATRL000000004K00000000000000689003212022015100605N000000000000N85       000470400K 10000000010000000679           
CUS0860940000108036690009         BOYKIN MYCHELLE     3620 RUSTY ROCK RD                      000N        CARE OF             
MTR08609400001000000000000000RA              23058864    005801180000011800000520000003NY  NNW 000                       N    
MTM0860940023058864    SAMEMTRNUM                                                                                             
RDG08609400WATRL000000004K00000000000005092003312022015100740N000000000000N85       000950400K 10000000010000005074           
CUS0860940000108036691007         PERRIN TAMEKA MICHEL3618 RUSTY ROCK RD                      000N        CARE OF             
MTR08609400001000000000000000RA              01071591    005801190000011900000610000003NY  NNW 000                       N    
MTM0860940001071591    SAMEMTRNUM                                                                                             
RDG08609400WATRL000000004K00000000000001758003412022015100817N000000000000N85       000370400K 10000000010000001722           
CUS0860940000108036692005         TINSLEY KAREN A     3616 RUSTY ROCK RD                      000N        CARE OF             
MTR08609400001000000000000000RA              35102679    005801200000012000000520000003NY  NNW 000                       N    
MTM0860940035102679    SAMEMTRNUM                                                                                             
RDG08609400WATRL000000004K00000000000002080003512022015100935N000000000000N85       000780400K 10000000010000002069           
CUS0860940000108036693003         IRWIN HEYMAN        3614 RUSTY ROCK RD                      000N        CARE OF             
MTR08609400001000000000000000RA              23645310    005801210000012100000520000003NY  NNW 000                       N    
MTM0860940023645310    OCCSAMEMTRNUM                                                                                          
RDG08609400WATRL000000004K00000000000004705003612022015101012N000300000010N85       000370400K 10000000010000004600           
CUS0860940000108036694001         BARRETT SEAN        3612 RUSTY ROCK RD                      000N        CARE OF             
MTR08609400001000000000000000RA              01071333    005801220000012200000610000003NY  NNW 000                       N    
MTM0860940001071333    SAMEMTRNUM                                                                                             
RDG08609400WATRL000000004K00000000000001207003712022015101045N000000000000N85       000330400K 10000000010000001193           
CUS0860940000108386239001         ALLEN LORIS G       3610 RUSTY ROCK RD                      000N        CARE OF             
MTR08609400001000000000000000RA              35110112    005801230000012300000520000003NY  NNW 000                       N    
MTM0860940035110112    SAMEMTRNUM                                                                                             
RDG08609400WATRL000000004K00000000000002323003812022015101153N000000000000N85       000680400K 10000000010000002301           
CUS0860940000108387218004         AL-MAUMANI WOJDAN   3608 RUSTY ROCK RD                      000N        CARE OF             
MTR08609400001000000000000000RA              35115823    005801240000012400000520000003NY  NNW 000                       N    
MTM0860940035115823    SAMEMTRNUM                                                                                             
RDG08609400WATRL000000004K00000000000003074003912022015101228N000000000000N85       000350400K 10000000010000003039           
CUS0860940000108036695008         BROWN TRACY I       3606 RUSTY ROCK RD                      000N        CARE OF             
MTR08609400001000000000000000RA              23645778    005801250000012500000520000003NY  NNW 000   VACANT / LOT        N    
MTM0860940023645778    SAMEMTRNUM                                                                                             
RDG08609400WATRL000000004K00000000000003417004012022015101320N000000000000N85       000520400K 10000000010000003417           
CUS0860940000108036696006         SELWYN ST. ROSE     3604 RUSTY ROCK RD                      000N        CARE OF             
MTR08609400001000000000000000RA              50478406    005801260000012600000520000003NY  NNW 000                       N    
MTM0860940050478406    SAMEMTRNUM                                                                                             
RDG08609400WATRL000000004K00000000000002264004112022015101349N000000000000N85       000290400K 10000000010000002218           
CUS0860940000108036697004         TERRILL ALLEN JR    8814 LIBERTY RD                         000N        CARE OF             
MTR08609400001000000000000000RA              10003809    005801270000012700000570000003NY  NNW 000                       N    
MTM0860940010003809    SAMEMTRNUM                                                                                             
RDG08609400WATRL000000004K00000000000000383004212022015101719N000000000001N85       002100400K 10000000010000000354           
CUS0860940000108036698002         CARLTON RICHARD L   8816 LIBERTY RD                         000N        CARE OF             
MTR08609400001000000000000000RA              29403290    005801280000012800000520000003NY  NNW 000                       N    
MTM0860940029403290    OCCSAMEMTRNUM                                                                                          
RDG08609400WATRL000000004K00000000000005227004312022015101855N000000000021N85       000150400K 10000000010000005187           
CUS0860940000108036699000         CENTER FOR SOCIAL CH3601 BRIARSTONE RD                      000N        CARE OF             
MTR08609400001000000000000000RA              2422054     005801290000012900000520000003NY  NNW 000                       N    
MTM086094002422054     SAMEMTRNUM                                                                                             
RDG08609400WATRL000000004K00000000000005044004412022015102016N000000000000N85       000810400K 10000000010000005010           
CUS0860940000108036700006         CHAKRAVARTHY VASAN  3603 BRIARSTONE RD                      000N        CARE OF             
MTR08609400001000000000000000RA              3281831     005801300000013000000320000003NY  NNW 000                       N    
MTM086094003281831     SAMEMTRNUM                                                                                             
RDG08609400WATRL000000004K00000000000001591004612022015102404N000000000000N85       001230400K 10000000010000001570           
CUS0860940000108036701004         CLARK TIMOTHY E     3605 BRIARSTONE RD                      000N        CARE OF             
MTR08609400001000000000000000RA              01071531    005801310000013100000610000003NY  NNW 000                       N    
MTM0860940001071531    OCCSAMEMTRNUM                                                                                          
RDG08609400WATRL000000004K00000000000000882004712022015102639N000400000010N85       001550400K 10000000010000000880           
CUS0860940000108036702002         CHESTER CARL T      3607 BRIARSTONE RD                      000N        CARE OF             
MTR08609400001000000000000000RA              99287448    005801320000013200000570000003NY  NNW 000                       N    
MTM0860940099287448    SAMEMTRNUM                                                                                             
RDG08609400WATRL000000004K00000000000000773004812022015102814N000000000000N85       000950400K 10000000010000000754           
CUS0860940000108036703000         DORSO PETE F        3609 BRIARSTONE RD                      000N        CARE OF             
MTR08609400001000000000000000RA              10016450    005801330000013300000570000003NY  NNW 000                       N    
MTM0860940010016450    SAMEMTRNUM                                                                                             
RDG08609400WATRL000000004K00000000000000168005112022015103302N000000000000N85       000470400K 10000000010000000155           
CUS0860940000108036704008         ADAMS JETHRO J      3611 BRIARSTONE RD                      000N        CARE OF             
MTR08609400001000000000000000RA              41075412    005801340000013400000520000003NY  NNW 000                       N    
MTM0860940041075412    SAMEMTRNUM                                                                                             
RDG08609400WATRL000000004K00000000000003014005012022015103215N000000000000N85       000210400K 10000000010000002984           
CUS0860940000108036705005         CORBETT MYLES       3613 BRIARSTONE RD                      000N        CARE OF             
MTR08609400001000000000000000RA              01071535    005801350000013500000610000003NY  NNW 000                       N    
MTM0860940001071535    SAMEMTRNUM                                                                                             
RDG08609400WATRL000000004K00000000000001066004912022015103154N000000000000N85       002200400K 10000000010000001057           
CUS0860940000108036706003         MCKNIGHT SHIRLEY M  3617 BRIARSTONE RD                      000N        CARE OF             
MTR08609400001000000000000000RA              45373050    005801360000013600000520000003NY  NNW 000                       N    
MTM0860940045373050    SAMEMTRNUM                                                                                             
RDG08609400WATRL000000004K00000000000002656005212022015103410N000000000000N85       000680400K 10000000010000002634           
CUS0860940000108442627009         LEE ROBERT H        3619 BRIARSTONE RD                      000N        CARE OF             
MTR08609400001000000000000000RA              14926117    005801370000013700000310000003NY  NNW 000                       N    
MTM0860940014926117    SAMEMTRNUM                                                                                             
RDG08609400WATRL000000004K00000000000000752005312022015103444N000000000000N85       000340400K 10000000010000000737           
CUS0860940000108432629007         WHITE GWENDOLYN F   8822 CHURCH LN                          000N        CARE OF             
MTR08609400001000000000000000RA              99999999    005801380000013800000610000003NY  NNW 000                       N    
MTM0860940099999999    SAMEMTRNUM                                                                                             
RDG08609400WATRL000000004K00000000000001653005412022015103543N000000000000N85       000590400K 10000000010000001625           
CUS0860940000108432630005         COLLICK PAUL N      8822A CHURCH LN                         000N        CARE OF             
MTR08609400001000000000000000RA              01096960    005801390000013900000610000003NY  NNW 000                       N    
MTM0860940001096960    SAMEMTRNUM                                                                                             
RDG08609400WATRL000000004K00000000000000490005512022015103558N000000000000N85       000150400K 10000000010000000483           
CUS0860940000108036707001         JONES GLORIA  BREWER3620 BRIARSTONE RD                      000N        CARE OF             
MTR08609400001000000000000000RA              01071287    005801400000014000000610000003NY  NNW 000                       N    
MTM0860940001071287    SAMEMTRNUM                                                                                             
RDG08609400WATRL000000004K00000000000001395005612022015103658N000000000000N85       000600400K 10000000010000001362           
CUS0860940000108036708009         CHARLES MALINOW     3618 BRIARSTONE RD                      000N        CARE OF             
MTR08609400001000000000000000RA              50787746    005801410000014100000520000003NY  NNW 000                       N    
MTM0860940050787746    OCCSAMEMTRNUM                                                                                          
RDG08609400WATRL000000004K00000000000000769005712022015103808N000300000010N85       000700400K 10000000010000000776           
CUS0860940000108036709007         JONES PAUL          3616 BRIARSTONE RD                      000N        CARE OF             
MTR08609400001000000000000000RA              32573757    005801420000014200000520000003NY  NNW 000                       N    
MTM0860940032573757    OCCSAMEMTRNUM                                                                                          
RDG08609400WATRL000000004K00000000000004040005812172015113344O000000000010N80       000490400K 10000000010000003995           
CUS0860940000108036710005         JOHN LEONARD        3614 BRIARSTONE RD                      000N        CARE OF             
MTR08609400001000000000000000RA              36696067    005801430000014300000520000003NY  NNW 000                       N    
MTM0860940036696067    SAMEMTRNUM                                                                                             
RDG08609400WATRL000000004K00000000000002683005912022015103952N000000000000N85       000550400K 10000000010000002670           
CUS0860940000108036711003         HAYWOOD HUGH        3612 BRIARSTONE RD                      000N        CARE OF             
MTR08609400001000000000000000RA              50480161    005801440000014400000520000003NN  NNW 000                       N    
RDG08609400WATRL000000004K00000000000001140006012022015104209N000000000000N85       001370400K 10000000010000001126           
CUS0860940000102444719005         DIANE GORDY         3610 BRIARSTONE RD                      000N        CARE OF             
MTR08609400001000000000000000RA              10002716    005801450000014500000570000003NN  NNW 000                       N    
RDG08609400WATRL000000004K00000000000000169006112022015104959N000000000000N85       004700400K 10000000010000000164           
CUS0860940000108386164001         GRIFFIN STANLEY N   3608 BRIARSTONE RD                      000N        CARE OF             
MTR08609400001000000000000000RA              35109885    005801460000014600000520000003NY  NNW 000                       N    
MTM0860940035109885    TRUCK ON VLT NO ANSWER                                                                                 
RDG08609400WATRL000000004K00000000000000000000000000000000000 000000000000U         000000400  10000000010000002902           
CUS0860940000108036712001         SOLTIS KAREN R      3606 BRIARSTONE RD                      000N        CARE OF             
MTR08609400001000000000000000RA              29683213    005801470000014700000520000003NY  NNW 000                       N    
MTM0860940029683213    SAMEMTRNUM                                                                                             
RDG08609400WATRL000000004K00000000000002837006212022015105115N000000000000N85       000760400K 10000000010000002830           
CUS0860940000108036713009         BRYAN DAVID J       3600 BRIARSTONE RD                      000N        CARE OF             
MTR08609400001000000000000000RA              35102684    005801480000014800000520000003NY  NNW 000                       N    
MTM0860940035102684    SAMEMTRNUM                                                                                             
RDG08609400WATRL000000004K00000000000003189004512022015102201N000000000000N85       001050400K 10000000010000003169           
CUS0860940000108036714007         FRANK GEORGE W JR, T8830 LIBERTY RD                         000N        CARE OF             
MTR08609400001000000000000000RA              23058903    005801490000014900000520000003NY  NNW 000                       N    
MTM0860940023058903    SAMEMTRNUM                                                                                             
RDG08609400WATRL000000004K00000000000003718006312022015105453N000000000000N85       002180400K 10000000010000003702           
CUS0860940000108036715004         CLARK TIMOTHY E     3603 STONEYBROOK RD                     000N        CARE OF             
MTR08609400001000000000000000RA              01071968    005801500000015000000610000003NY  NNW 000                       N    
MTM0860940001071968    SAMEMTRNUM                                                                                             
RDG08609400WATRL000000004K00000000000001424006412022015110151N000000000000N85       004180400K 10000000010000001403           
CUS0860940000108036716002         KING TOREY          3605 STONEYBROOK RD                     000N        CARE OF             
MTR08609400001000000000000000RA              14929929    005801510000015100000310000003NY  NNW 000                       N    
MTM0860940014929929    SAMEMTRNUM                                                                                             
RDG08609400WATRL000000004K00000000000001461006512022015110218N000000000000N85       000270400K 10000000010000001431           
CUS0860940000108036717000         DAVIS LEVI A        3607 STONEYBROOK RD                     000N        CARE OF             
MTR08609400001000000000000000RA              10024570    005801520000015200000570000003NY  NNW 000                       N    
MTM0860940010024570    SAMEMTRNUM                                                                                             
RDG08609400WATRL000000004K00000000000000227006712022015110422N000000000000N85       000660400K 10000000010000000210           
CUS0860940000108036718008         GREEN DEXTER ARNOLD 3609 STONEYBROOK RD                     000N        CARE OF             
MTR08609400001000000000000000RA              10024773    005801530000015300000570000003NY  NNW 000                       N    
MTM0860940010024773    SAMEMTRNUM                                                                                             
RDG08609400WATRL000000004K00000000000000307006912022015110651N000000000000N85       000700400K 10000000010000000280           
CUS0860940000108036719006         BUTTS JOHN O,JR     3611 STONEYBROOK RD                     000N        CARE OF             
MTR08609400001000000000000000RA              46875933    005801540000015400000520000003NY  NNW 000                       N    
MTM0860940046875933    SAMEMTRNUM                                                                                             
RDG08609400WATRL000000004K00000000000002848007112022015112150N000000000001N85       001020400K 10000000010000002838           
CUS0860940000108036720004         LEE DALE A          3613 STONEYBROOK RD                     000N        CARE OF             
MTR08609400001000000000000000RA              31936258    005801550000015500000520000003NY  NNW 000                       N    
MTM0860940031936258    SAMEMTRNUM                                                                                             
RDG08609400WATRL000000004K00000000000005146007412022015111813N000000000000N85       000710400K 10000000010000005059           
CUS0860940000108036721002         THOMAS NORMAN L     3615 STONEYBROOK RD                     000N        CARE OF             
MTR08609400001000000000000000RA              10024774    005801560000015600000570000003NY  NNW 000                       N    
MTM0860940010024774    SAMEMTRNUM                                                                                             
RDG08609400WATRL000000004K00000000000000140007312022015111702N000000000000N85       001590400K 10000000010000000130           
CUS0860940000108036722000         CYPRESS JOANNE YVONN3617 STONEYBROOK RD                     000N        CARE OF             
MTR08609400001000000000000000RA              32899117    005801570000015700000520000003NY  NNW 000                       N    
MTM0860940032899117    SAMEMTRNUM                                                                                             
RDG08609400WATRL000000004K00000000000004085007612022015112008N000000000000N85       000430400K 10000000010000004058           
CUS0860940000108036723008         LOCKETT DEXTER O.   3614 STONEYBROOK RD                     000N        CARE OF             
MTR08609400001000000000000000RA              10023129    005801580000015800000570000003NY  NNW 000                       N    
MTM0860940010023129    SAMEMTRNUM                                                                                             
RDG08609400WATRL000000004K00000000000000361007512022015111925N000000000000N85       000720400K 10000000010000000318           
CUS0860940000108036724006         BAILEY NICOLE L     3612 STONEYBROOK RD                     000N        CARE OF             
MTR08609400001000000000000000RA              50480230    005801590000015900000520000003NY  NNW 000                       N    
MTM0860940050480230    SAMEMTRNUM                                                                                             
RDG08609400WATRL000000004K00000000000001045007212022015111423N000000000000N85       000750400K 10000000010000001033           
CUS0860940000108036725003         JILL STEELE-MCGHEE  3610 STONEYBROOK RD                     000N        CARE OF             
MTR08609400001000000000000000RA              01071987    005801600000016000000610000003NY  NNW 000                       N    
MTM0860940001071987    SAMEMTRNUM                                                                                             
RDG08609400WATRL000000004K00000000000000446007012022015111039N000000000000N85       002280400K 10000000010000000434           
CUS0860940000108036726001         WILSON HOLLY        3606 STONEYBROOK RD                     000N        CARE OF             
MTR08609400001000000000000000RA              23054290    005801610000016100000520000003NY  NNW 000                       N    
MTM0860940023054290    MN CORRECT                                                                                             
RDG08609400WATRL000000004K00000000000004656013112042015122317N000000000000U83       007680400K 10000000010000004637           
CUS0860940000108036727009         LEONARD-WITTEN GLORI3604 STONEYBROOK RD                     000N        CARE OF             
MTR08609400001000000000000000RA              54350713    005801620000016200000520000003NY  NNW 000                       N    
MTM0860940054350713    SAMEMTRNUM                                                                                             
RDG08609400WATRL000000004K00000000000001284006812022015110541N000000000000N85       000790400K 10000000010000001263           
CUS0860940000108036728007         RITA KING           3602 STONEYBROOK RD                     000N        CARE OF             
MTR08609400001000000000000000RA              01071972    005801630000016300000610000003NY  NNW 000                       N    
MTM0860940001071972    SAMEMTRNUM                                                                                             
RDG08609400WATRL000000004K00000000000000830006612022015110316N000000000000N85       000580400K 10000000010000000819           
CUS0860940000108036456005         ASHLAND NEW HOME, LL3832 HENDON RD                          000N        CARE OF             
MTR08609400001000000000000000RA              99188029    005801640000016400000570000003NY  NNW 000                       N    
MTM0860940099188029    MN CORRECT                                                                                             
RDG08609400WATRL000000004K00000000000000304004612042015092933N000000000000U83       003800400K 10000000010000000276           
CUS0860940000108036457003         GUEVARA MIGUEL      3830 HENDON RD                          000N        CARE OF             
MTR08609400001000000000000000RA              48592915    005801650000016500000520000003NY  NNW 000                       N    
MTM0860940048592915    MN CORRECT                                                                                             
RDG08609400WATRL000000004K00000000000001235004712042015093046N000000000000U83       000730400K 10000000010000001227           
CUS0860940000108036458001         ROCK, KASHAMA       3828 HENDON RD                          000N        CARE OF             
MTR08609400001000000000000000RA              48592643    005801660000016600000520000003NY  NNW 000                       N    
MTM0860940048592643    MN CORRECT VAC                                                                                         
RDG08609400WATRL000000004K00000000000001483004812042015093153N000000000000U83       000670400K 10000000010000001483           
CUS0860940000108036459009         ROCHE KENNETH T     3826 HENDON RD                          000N        CARE OF             
MTR08609400001000000000000000RA              48592917    005801670000016700000520000003NY  NNW 000                       N    
MTM0860940048592917    MN CORRECT                                                                                             
RDG08609400WATRL000000004K00000000000001959004912042015093304N000000000000U83       000710400K 10000000010000001934           
CUS0860940000108036460007         DARVUN S CARTER     3824 HENDON RD                          000N        CARE OF             
MTR08609400001000000000000000RA              50480234    005801680000016800000520000003NY  NNW 000                       N    
MTM0860940050480234    MN CORRECT                                                                                             
RDG08609400WATRL000000004K00000000000002416005012042015093441N000000000000U83       000970400K 10000000010000002400           
CUS0860940000108036461005         BRIDGES BARBARA     3822 HENDON RD                          000N        CARE OF             
MTR08609400001000000000000000RA              48590908    005801690000016900000520000003NY  NNW 000                       N    
MTM0860940048590908    MN CORRECT                                                                                             
RDG08609400WATRL000000004K00000000000002191005112042015093543N000000000000U83       000620400K 10000000010000002175           
CUS0860940000108036462003         DAVIS JENNA M       3820 HENDON RD                          000N        CARE OF             
MTR08609400001000000000000000RA              41590327    005801700000017000000520000003NY  NNW 000                       N    
MTM0860940041590327    MN CORRECT                                                                                             
RDG08609400WATRL000000004K00000000000002514005212042015093717N000000000000U83       000940400K 10000000010000002501           
CUS0860940000108036463001         MARTIN-TERRY GWENDOL3818 HENDON RD                          000N        CARE OF             
MTR08609400001000000000000000RA              30521581    005801710000017100000520000003NY  NNW 000                       N    
MTM0860940030521581    MN CORRECT                                                                                             
RDG08609400WATRL000000004K00000000000001385005312042015093831N000000000000U83       000740400K 10000000010000001374           
CUS0860940000108036464009         GEORGE MILLER       3816 HENDON RD                          000N        CARE OF             
MTR08609400001000000000000000RA              48592660    005801720000017200000520000003NY  NNW 000                       N    
MTM0860940048592660    MN CORRECT                                                                                             
RDG08609400WATRL000000004K00000000000001349005412042015094002N000100000010U83       000910400K 10000000010000001349           
CUS0860940000108036465006         BRATTON CHRIS T     3814 HENDON RD                          000N        CARE OF             
MTR08609400001000000000000000RA              48592918    005801730000017300000520000003NN  NNW 000                       N    
RDG08609400WATRL000000004K00000000000000506005512042015094117N000000000000U83       000750400K 10000000010000000500           
CUS0860940000108036466004         GRIFFIN PEGGY M     3812 HENDON RD                          000N        CARE OF             
MTR08609400001000000000000000RA              48592916    005801740000017400000520000003NN  NNW 000                       N    
RDG08609400WATRL000000004K00000000000000000000000000000000000 000000000000U         000000400  10000000010000002857           
CUS0860940000108036467002         LANGNER ESTATES LLC 3810 HENDON RD                          000N        CARE OF             
MTR08609400001000000000000000RA              50480254    005801750000017500000520000003NY  NNW 000                       N    
MTM0860940050480254    MN CORRECT                                                                                             
RDG08609400WATRL000000004K00000000000001057005612042015094419N000000000000U83       001820400K 10000000010000001043           
CUS0860940000108036468000         WILLIAMS HORATIO B  3808 HENDON RD                          000N        CARE OF             
MTR08609400001000000000000000RA              36695418    005801760000017600000520000003NY  NNW 000                       N    
MTM0860940036695418    MN CORRECT                                                                                             
RDG08609400WATRL000000004K00000000000001349005712042015094607N000000000000U83       001080400K 10000000010000001311           
CUS0860940000108036469008         ROSS MARLENA GAIL   3806 HENDON RD                          000N        CARE OF             
MTR08609400001000000000000000RA              48592655    005801770000017700000520000003NY  NNW 000                       N    
MTM0860940048592655    MN CORRECT                                                                                             
RDG08609400WATRL000000004K00000000000000869005812042015094758N000000000000U83       001110400K 10000000010000000851           
CUS0860940000108036470006         BUSHROD NADINE L    3804 HENDON RD                          000N        CARE OF             
MTR08609400001000000000000000RA              99188032    005801780000017800000570000003NY  NNW 000                       N    
MTM0860940099188032    MN CORRECT                                                                                             
RDG08609400WATRL000000004K00000000000000658005912042015094920N000000000000U83       000820400K 10000000010000000653           
CUS0860940000108036471004         CAHILL SHEILA M     3802 HENDON RD                          000N        CARE OF             
MTR08609400001000000000000000RA              48592858    005801790000017900000520000003NY  NNW 000                       N    
MTM0860940048592858    MN CORRECT                                                                                             
RDG08609400WATRL000000004K00000000000003820006012042015095121N000000000000U83       001210400K 10000000010000003777           
CUS0860940000108036472002         ROBINSON DEBORAH D  8700 STEPHANIE RD                       000N        CARE OF             
MTR08609400001000000000000000RA              45376802    005801800000018000000520000003NY  NNW 000                       N    
MTM0860940045376802    MN CORRECT                                                                                             
RDG08609400WATRL000000004K00000000000003652006112042015095231N000000000000U83       000700400K 10000000010000003645           
CUS0860940000108036473000         MAURICE ALIX J      8702 STEPHANIE RD                       000N        CARE OF             
MTR08609400001000000000000000RA              99187579    005801810000018100000570000003NY  NNW 000                       N    
MTM0860940099187579    MN CORRECT                                                                                             
RDG08609400WATRL000000004K00000000000001603006212042015095409N000000000000U83       000980400K 10000000010000001587           
CUS0860940000108036474008         LIONEL MORGAN THOMAS8704 STEPHANIE RD                       000N        CARE OF             
MTR08609400001000000000000000RA              99188732    005801820000018200000570000003NY  NNW 000                       N    
MTM0860940099188732    MN CORRECT                                                                                             
RDG08609400WATRL000000004K00000000000002018006312042015095558N000000000000U83       001090400K 10000000010000001990           
CUS0860940000108036475005         LAW ALFRED A        8706 STEPHANIE RD                       000N        CARE OF             
MTR08609400001000000000000000RA              14920958    005801830000018300000310000003NN  NNW 000                       N    
RDG08609400WATRL000000004K00000000000000000000000000000000000 000000000000U         000000400  10000000010000000666           
CUS0860940000108036476003         HERMAN ERIC V       8708 STEPHANIE RD                       000N        CARE OF             
MTR08609400001000000000000000RA              99188326    005801840000018400000570000003NY  NNW 000                       N    
MTM0860940099188326    MN CORRECT                                                                                             
RDG08609400WATRL000000004K00000000000000785006412042015095840N000000000000U83       001620400K 10000000010000000781           
CUS0860940000108036477001         SHIRE INC           8710 STEPHANIE RD                       000N        CARE OF             
MTR08609400001000000000000000RA              99188729    005801850000018500000570000003NN  NNW 000                       N    
RDG08609400WATRL000000004K00000000000000000000000000000000000 000000000000U         000000400  10000000010000002652           
CUS0860940000108036478009         HEIGH TIMOTHY R     8712 STEPHANIE RD                       000N        CARE OF             
MTR08609400001000000000000000RA              11329003    005801860000018600000570000003NY  NNW 000                       N    
MTM0860940011329003    MN CORRECT                                                                                             
RDG08609400WATRL000000004K00000000000005761006512042015100031N000000000000U83       001110400K 10000000010000005733           
CUS0860940000108036479007         CLARENCE RUSSELL JOH8714 STEPHANIE RD                       000N        CARE OF             
MTR08609400001000000000000000RA              48590607    005801870000018700000520000003NY  NNW 000                       N    
MTM0860940048590607    MN CORRECT                                                                                             
RDG08609400WATRL000000004K00000000000001804006612042015100150N000000000000U83       000790400K 10000000010000001788           
CUS0860940000108036480005         LEMON VALAICIA      8716 STEPHANIE RD                       000N        CARE OF             
MTR08609400001000000000000000RA              50791225    005801880000018800000520000003NY  NNW 000                       N    
MTM0860940050791225    MN CORRECT                                                                                             
RDG08609400WATRL000000004K00000000000002221006712042015100311N000000000000U83       000810400K 10000000010000002190           
CUS0860940000108036481003         TODD GARY A         3733 SPRINGDELL AVE                     000N        CARE OF             
MTR08609400001000000000000000RA              41589331    005801890000018900000520000003NY  NNW 000                       N    
MTM0860940041589331    MN CORRECT                                                                                             
RDG08609400WATRL000000004K00000000000002185006812042015100419N000000000000U83       000680400K 10000000010000002160           
CUS0860940000108036482001         YANKELOVE ALEXANDER,3734 SPRINGDELL AVE                     000N        CARE OF             
MTR08609400001000000000000000RA              41589359    005801900000019000000520000003NY  NNW 000                       N    
MTM0860940041589359    MN CORRECT                                                                                             
RDG08609400WATRL000000004K00000000000002847006912042015100513N000000000000U83       000540400K 10000000010000002838           
CUS0860940000108036483009         YANKELOVE ALEXANDER,3732 SPRINGDELL AVE                     000N        CARE OF             
MTR08609400001000000000000000RA              10017339    005801910000019100000570000003NY  NNW 000   VACANT / LOT        N    
MTM0860940010017339    MN CORRECT                                                                                             
RDG08609400WATRL000000004K00000000000000000007012042015100621N000000000000U83       000680400K 10000000010000000000           
CUS0860940000108036484007         STALEY KAREN        3728 SPRINGDELL AVE                     000N        CARE OF             
MTR08609400001000000000000000RA              48590542    005801920000019200000520000003NY  NNW 000                       N    
MTM0860940048590542    MN CORRECT                                                                                             
RDG08609400WATRL000000004K00000000000002705007112042015100755N000000000000U83       000940400K 10000000010000002670           
CUS0860940000108036485004         TRAFTON WILFORD ODEL3726 SPRINGDELL AVE                     000N        CARE OF             
MTR08609400001000000000000000RA              48590541    005801930000019300000520000003NY  NNW 000                       N    
MTM0860940048590541    MN CORRECT                                                                                             
RDG08609400WATRL000000004K00000000000001028007212042015100924N000000000000U83       000890400K 10000000010000001021           
CUS0860940000108394252004         DENNIS LEWIS        8802 BANNER RD                          000N        CARE OF             
MTR08609400001000000000000000RA              39291172    005801940000019400000520000003NY  NNW 000                       N    
MTM0860940039291172    MN CORRECT                                                                                             
RDG08609400WATRL000000004K00000000000002646007312042015101057N000000000000U83       000930400K 10000000010000002633           
CUS0860940000108404601000         MARSH MICHAEL A     8804 BANNER RD                          000N        CARE OF             
MTR08609400001000000000000000RA              10003198    005801950000019500000570000003NN  NNW 000                       N    
RDG08609400WATRL000000004K00000000000000561007412042015101204N000000000000U83       000670400K 10000000010000000539           
CUS0860940000108404600002         MILLER KENNETH L,JR 8806 BANNER RD                          000N        CARE OF             
MTR08609400001000000000000000RA              44002854    005801960000019600000520000000NN  NNW 000                       N    
RDG08609400WATRL000000004K00000000000000000000000000000000000 000000000000U         000000400  10000000010000002319           
CUS0860940000108404599006         JHRM LLC            8808 BANNER RD                          000N        CARE OF             
MTR08609400001000000000000000RA              44002857    005801970000019700000520000000NN  NNW 000                       N    
RDG08609400WATRL000000004K00000000000002180007512042015101414N000000000000U83       001300400K 10000000010000002173           
CUS0860940000108036486002         WALLACE WOODROW     3722 SPRINGDELL AVE                     000N        CARE OF             
MTR08609400001000000000000000RA              77879484    005801980000019800000360000003NN  NNW 000                       N    
RDG08609400WATRL000000004K00000000000000075007612172015113411O000400000010U80       000910400K 10000000010000000051           
CUS0860940000108388451000         TURNER DIANNE       3720 SPRINGDELL AVE                     000N        CARE OF             
MTR08609400001000000000000000RA              78021031    005801990000019900000620000003NN  NNW 000                       N    
RDG08609400WATRL000000004K00000000000000079007912042015101845N000004100010U83       000240400K 10000000010000000037           
CUS0860940000108388453006         TEMBI A DAVIS       3718 SPRINGDELL AVE                     000N        CARE OF             
MTR08609400001000000000000000RA              78021088    005802000000020000000350000003NN  NNW 000                       N    
RDG08609400WATRL000000004K00000000000000024007712042015101559N000000000000U83       000140400K 10000000010000000019           
CUS0860940000108388449004         DYSON NICOLE        3716 SPRINGDELL AVE                     000N        CARE OF             
MTR08609400001000000000000000RA              99188691    005802010000020100000570000003NN  NNW 000                       N    
RDG08609400WATRL000000004K00000000000001587007812042015101821N000000000000U83       001420400K 10000000010000001567           
CUS0860940000108398399009         SHIRLEY THOMAS      3712 SPRINGDELL AVE                     000N        CARE OF             
MTR08609400001000000000000000RA              33078244    005802020000020200000520000003NY  NNW 000                       N    
MTM0860940033078244    MN CORRECT                                                                                             
RDG08609400WATRL000000004K00000000000002285008012042015102007N000000000000U83       000820400K 10000000010000002272           
CUS0860940000108401797009         TIMMONS SHIRLEY H   3709 SPRINGDELL AVE                     000N        CARE OF             
MTR08609400001000000000000000RA              41075728    005802030000020300000520000003NY  NNW 000                       N    
MTM0860940041075728    MN CORRECT                                                                                             
RDG08609400WATRL000000004K00000000000002292002812042015085811N000000000000U83       002210400K 10000000010000002283           
CUS0860940000108036487000         TAYLOR SUSIE MELVINN3717 SPRINGDELL AVE                     000N        CARE OF             
MTR08609400001000000000000000RA              27828315    005802040000020400000520000003NY  NNW 000                       N    
MTM0860940027828315    MN CORRECT                                                                                             
RDG08609400WATRL000000004K00000000000005180002912042015085948N000000000011U83       000070400K 10000000010000005167           
CUS0860940000108036488008         CENTER FOR SOCIAL CH3719 SPRINGDELL AVE                     000N        CARE OF             
MTR08609400001000000000000000RA              52289478    005802050000020500000520000003NY  NNW 000                       N    
MTM0860940052289478    MN CORRECT                                                                                             
RDG08609400WATRL000000004K00000000000002848003112042015090138N000000000000U83       000530400K 10000000010000002814           
CUS0860940000108036489006         CLEARY EILEEN       3721 SPRINGDELL AVE                     000N        CARE OF             
MTR08609400001000000000000000RA              48593480    005802060000020600000520000003NY  NNW 000                       N    
MTM0860940048593480    MN CORRECT                                                                                             
RDG08609400WATRL000000004K00000000000001587003012042015090045N000000000000U83       000570400K 10000000010000001576           
CUS0860940000108036490004         HAYLEY RIDGE WAY, LL3723 SPRINGDELL AVE                     000N        CARE OF             
MTR08609400001000000000000000RA              48590538    005802070000020700000520000003NY  NNW 000                       N    
MTM0860940048590538    MN CORRECT                                                                                             
RDG08609400WATRL000000004K00000000000001387003212042015090246N000000000000U83       000680400K 10000000010000001368           
